{
	"contracts/2.1/07typeconversion/ImplicitConversion.sol": {
		"ImplicitConversion": {
			"abi": [
				{
					"inputs": [],
					"name": "implicit",
					"outputs": [
						{
							"internalType": "uint256",
							"name": "",
							"type": "uint256"
						},
						{
							"internalType": "uint256",
							"name": "",
							"type": "uint256"
						}
					],
					"stateMutability": "pure",
					"type": "function"
				}
			],
			"devdoc": {
				"kind": "dev",
				"methods": {},
				"version": 1
			},
			"evm": {
				"assembly": "    /* \"contracts/2.1/07typeconversion/ImplicitConversion.sol\":58:295  contract ImplicitConversion{... */\n  mstore(0x40, 0x80)\n  callvalue\n  dup1\n  iszero\n  tag_1\n  jumpi\n  revert(0x00, 0x00)\ntag_1:\n  pop\n  dataSize(sub_0)\n  dup1\n  dataOffset(sub_0)\n  0x00\n  codecopy\n  0x00\n  return\nstop\n\nsub_0: assembly {\n        /* \"contracts/2.1/07typeconversion/ImplicitConversion.sol\":58:295  contract ImplicitConversion{... */\n      mstore(0x40, 0x80)\n      callvalue\n      dup1\n      iszero\n      tag_1\n      jumpi\n      revert(0x00, 0x00)\n    tag_1:\n      pop\n      jumpi(tag_2, lt(calldatasize, 0x04))\n      shr(0xe0, calldataload(0x00))\n      dup1\n      0xb300a1e2\n      eq\n      tag_3\n      jumpi\n    tag_2:\n      revert(0x00, 0x00)\n        /* \"contracts/2.1/07typeconversion/ImplicitConversion.sol\":92:286  function implicit() public pure returns(uint,uint){... */\n    tag_3:\n      tag_4\n      tag_5\n      jump\t// in\n    tag_4:\n      mload(0x40)\n      tag_6\n      swap3\n      swap2\n      swap1\n      tag_7\n      jump\t// in\n    tag_6:\n      mload(0x40)\n      dup1\n      swap2\n      sub\n      swap1\n      return\n    tag_5:\n        /* \"contracts/2.1/07typeconversion/ImplicitConversion.sol\":132:136  uint */\n      0x00\n        /* \"contracts/2.1/07typeconversion/ImplicitConversion.sol\":137:141  uint */\n      0x00\n        /* \"contracts/2.1/07typeconversion/ImplicitConversion.sol\":153:164  uint8 small */\n      0x00\n        /* \"contracts/2.1/07typeconversion/ImplicitConversion.sol\":165:167  10 */\n      0x0a\n        /* \"contracts/2.1/07typeconversion/ImplicitConversion.sol\":153:167  uint8 small=10 */\n      swap1\n      pop\n        /* \"contracts/2.1/07typeconversion/ImplicitConversion.sol\":178:186  uint big */\n      0x00\n        /* \"contracts/2.1/07typeconversion/ImplicitConversion.sol\":187:192  small */\n      dup2\n        /* \"contracts/2.1/07typeconversion/ImplicitConversion.sol\":178:192  uint big=small */\n      0xff\n      and\n      swap1\n      pop\n        /* \"contracts/2.1/07typeconversion/ImplicitConversion.sol\":205:218  uint16 small2 */\n      0x00\n        /* \"contracts/2.1/07typeconversion/ImplicitConversion.sol\":219:223  1000 */\n      0x03e8\n        /* \"contracts/2.1/07typeconversion/ImplicitConversion.sol\":205:223  uint16 small2=1000 */\n      swap1\n      pop\n        /* \"contracts/2.1/07typeconversion/ImplicitConversion.sol\":234:243  uint big2 */\n      0x00\n        /* \"contracts/2.1/07typeconversion/ImplicitConversion.sol\":244:250  small2 */\n      dup2\n        /* \"contracts/2.1/07typeconversion/ImplicitConversion.sol\":234:250  uint big2=small2 */\n      0xffff\n      and\n      swap1\n      pop\n        /* \"contracts/2.1/07typeconversion/ImplicitConversion.sol\":269:272  big */\n      dup3\n        /* \"contracts/2.1/07typeconversion/ImplicitConversion.sol\":273:277  big2 */\n      dup2\n        /* \"contracts/2.1/07typeconversion/ImplicitConversion.sol\":261:278  return (big,big2) */\n      swap6\n      pop\n      swap6\n      pop\n      pop\n      pop\n      pop\n      pop\n        /* \"contracts/2.1/07typeconversion/ImplicitConversion.sol\":92:286  function implicit() public pure returns(uint,uint){... */\n      swap1\n      swap2\n      jump\t// out\n        /* \"#utility.yul\":7:84   */\n    tag_9:\n        /* \"#utility.yul\":44:51   */\n      0x00\n        /* \"#utility.yul\":73:78   */\n      dup2\n        /* \"#utility.yul\":62:78   */\n      swap1\n      pop\n        /* \"#utility.yul\":7:84   */\n      swap2\n      swap1\n      pop\n      jump\t// out\n        /* \"#utility.yul\":90:208   */\n    tag_10:\n        /* \"#utility.yul\":177:201   */\n      tag_14\n        /* \"#utility.yul\":195:200   */\n      dup2\n        /* \"#utility.yul\":177:201   */\n      tag_9\n      jump\t// in\n    tag_14:\n        /* \"#utility.yul\":172:175   */\n      dup3\n        /* \"#utility.yul\":165:202   */\n      mstore\n        /* \"#utility.yul\":90:208   */\n      pop\n      pop\n      jump\t// out\n        /* \"#utility.yul\":214:546   */\n    tag_7:\n        /* \"#utility.yul\":335:339   */\n      0x00\n        /* \"#utility.yul\":373:375   */\n      0x40\n        /* \"#utility.yul\":362:371   */\n      dup3\n        /* \"#utility.yul\":358:376   */\n      add\n        /* \"#utility.yul\":350:376   */\n      swap1\n      pop\n        /* \"#utility.yul\":386:457   */\n      tag_16\n        /* \"#utility.yul\":454:455   */\n      0x00\n        /* \"#utility.yul\":443:452   */\n      dup4\n        /* \"#utility.yul\":439:456   */\n      add\n        /* \"#utility.yul\":430:436   */\n      dup6\n        /* \"#utility.yul\":386:457   */\n      tag_10\n      jump\t// in\n    tag_16:\n        /* \"#utility.yul\":467:539   */\n      tag_17\n        /* \"#utility.yul\":535:537   */\n      0x20\n        /* \"#utility.yul\":524:533   */\n      dup4\n        /* \"#utility.yul\":520:538   */\n      add\n        /* \"#utility.yul\":511:517   */\n      dup5\n        /* \"#utility.yul\":467:539   */\n      tag_10\n      jump\t// in\n    tag_17:\n        /* \"#utility.yul\":214:546   */\n      swap4\n      swap3\n      pop\n      pop\n      pop\n      jump\t// out\n\n    auxdata: 0xa2646970667358221220242c4ff1b06d70c606bb6014829c281abf1219de47f31337f2694f8595fa26b964736f6c63430008220033\n}\n",
				"bytecode": {
					"linkReferences": {},
					"object": "6080604052348015600e575f5ffd5b5060de80601a5f395ff3fe6080604052348015600e575f5ffd5b50600436106026575f3560e01c8063b300a1e214602a575b5f5ffd5b60306045565b604051603c9291906085565b60405180910390f35b5f5f5f600a90505f8160ff1690505f6103e890505f8161ffff169050828195509550505050509091565b5f819050919050565b607f81606f565b82525050565b5f60408201905060965f8301856078565b60a160208301846078565b939250505056fea2646970667358221220242c4ff1b06d70c606bb6014829c281abf1219de47f31337f2694f8595fa26b964736f6c63430008220033",
					"opcodes": "PUSH1 0x80 PUSH1 0x40 MSTORE CALLVALUE DUP1 ISZERO PUSH1 0xE JUMPI PUSH0 PUSH0 REVERT JUMPDEST POP PUSH1 0xDE DUP1 PUSH1 0x1A PUSH0 CODECOPY PUSH0 RETURN INVALID PUSH1 0x80 PUSH1 0x40 MSTORE CALLVALUE DUP1 ISZERO PUSH1 0xE JUMPI PUSH0 PUSH0 REVERT JUMPDEST POP PUSH1 0x4 CALLDATASIZE LT PUSH1 0x26 JUMPI PUSH0 CALLDATALOAD PUSH1 0xE0 SHR DUP1 PUSH4 0xB300A1E2 EQ PUSH1 0x2A JUMPI JUMPDEST PUSH0 PUSH0 REVERT JUMPDEST PUSH1 0x30 PUSH1 0x45 JUMP JUMPDEST PUSH1 0x40 MLOAD PUSH1 0x3C SWAP3 SWAP2 SWAP1 PUSH1 0x85 JUMP JUMPDEST PUSH1 0x40 MLOAD DUP1 SWAP2 SUB SWAP1 RETURN JUMPDEST PUSH0 PUSH0 PUSH0 PUSH1 0xA SWAP1 POP PUSH0 DUP2 PUSH1 0xFF AND SWAP1 POP PUSH0 PUSH2 0x3E8 SWAP1 POP PUSH0 DUP2 PUSH2 0xFFFF AND SWAP1 POP DUP3 DUP2 SWAP6 POP SWAP6 POP POP POP POP POP SWAP1 SWAP2 JUMP JUMPDEST PUSH0 DUP2 SWAP1 POP SWAP2 SWAP1 POP JUMP JUMPDEST PUSH1 0x7F DUP2 PUSH1 0x6F JUMP JUMPDEST DUP3 MSTORE POP POP JUMP JUMPDEST PUSH0 PUSH1 0x40 DUP3 ADD SWAP1 POP PUSH1 0x96 PUSH0 DUP4 ADD DUP6 PUSH1 0x78 JUMP JUMPDEST PUSH1 0xA1 PUSH1 0x20 DUP4 ADD DUP5 PUSH1 0x78 JUMP JUMPDEST SWAP4 SWAP3 POP POP POP JUMP INVALID LOG2 PUSH5 0x6970667358 0x22 SLT KECCAK256 0x24 0x2C 0x4F CALL 0xB0 PUSH14 0x70C606BB6014829C281ABF1219DE SELFBALANCE RETURN SGT CALLDATACOPY CALLCODE PUSH10 0x4F8595FA26B964736F6C PUSH4 0x43000822 STOP CALLER "
				},
				"gasEstimates": {
					"creation": {
						"codeDepositCost": "44400",
						"executionCost": "91",
						"totalCost": "44491"
					},
					"external": {
						"implicit()": "infinite"
					}
				},
				"methodIdentifiers": {
					"implicit()": "b300a1e2"
				}
			},
			"storageLayout": {
				"storage": [],
				"types": null
			},
			"userdoc": {
				"kind": "user",
				"methods": {},
				"version": 1
			}
		}
	}
}