{
	"contracts/2.1/03address/AddressFeature.sol": {
		"AddressFeature": {
			"abi": [
				{
					"inputs": [
						{
							"internalType": "address",
							"name": "addr",
							"type": "address"
						}
					],
					"name": "getBalance",
					"outputs": [
						{
							"internalType": "uint256",
							"name": "",
							"type": "uint256"
						}
					],
					"stateMutability": "view",
					"type": "function"
				},
				{
					"inputs": [],
					"name": "getContractAddress",
					"outputs": [
						{
							"internalType": "address",
							"name": "",
							"type": "address"
						}
					],
					"stateMutability": "view",
					"type": "function"
				},
				{
					"inputs": [],
					"name": "getContractBalance",
					"outputs": [
						{
							"internalType": "uint256",
							"name": "",
							"type": "uint256"
						}
					],
					"stateMutability": "view",
					"type": "function"
				},
				{
					"inputs": [
						{
							"internalType": "address",
							"name": "addr",
							"type": "address"
						}
					],
					"name": "isZeroAddress",
					"outputs": [
						{
							"internalType": "bool",
							"name": "",
							"type": "bool"
						}
					],
					"stateMutability": "pure",
					"type": "function"
				}
			],
			"devdoc": {
				"kind": "dev",
				"methods": {},
				"version": 1
			},
			"evm": {
				"assembly": "    /* \"contracts/2.1/03address/AddressFeature.sol\":58:613  contract AddressFeature{... */\n  mstore(0x40, 0x80)\n  callvalue\n  dup1\n  iszero\n  tag_1\n  jumpi\n  revert(0x00, 0x00)\ntag_1:\n  pop\n  dataSize(sub_0)\n  dup1\n  dataOffset(sub_0)\n  0x00\n  codecopy\n  0x00\n  return\nstop\n\nsub_0: assembly {\n        /* \"contracts/2.1/03address/AddressFeature.sol\":58:613  contract AddressFeature{... */\n      mstore(0x40, 0x80)\n      callvalue\n      dup1\n      iszero\n      tag_1\n      jumpi\n      revert(0x00, 0x00)\n    tag_1:\n      pop\n      jumpi(tag_2, lt(calldatasize, 0x04))\n      shr(0xe0, calldataload(0x00))\n      dup1\n      0x18664315\n      eq\n      tag_3\n      jumpi\n      dup1\n      0x32a2c5d0\n      eq\n      tag_4\n      jumpi\n      dup1\n      0x6f9fb98a\n      eq\n      tag_5\n      jumpi\n      dup1\n      0xf8b2cb4f\n      eq\n      tag_6\n      jumpi\n    tag_2:\n      revert(0x00, 0x00)\n        /* \"contracts/2.1/03address/AddressFeature.sol\":506:610  function isZeroAddress(address addr) public pure returns(bool){... */\n    tag_3:\n      tag_7\n      0x04\n      dup1\n      calldatasize\n      sub\n      dup2\n      add\n      swap1\n      tag_8\n      swap2\n      swap1\n      tag_9\n      jump\t// in\n    tag_8:\n      tag_10\n      jump\t// in\n    tag_7:\n      mload(0x40)\n      tag_11\n      swap2\n      swap1\n      tag_12\n      jump\t// in\n    tag_11:\n      mload(0x40)\n      dup1\n      swap2\n      sub\n      swap1\n      return\n        /* \"contracts/2.1/03address/AddressFeature.sol\":237:334  function getContractAddress() public view returns(address){... */\n    tag_4:\n      tag_13\n      tag_14\n      jump\t// in\n    tag_13:\n      mload(0x40)\n      tag_15\n      swap2\n      swap1\n      tag_16\n      jump\t// in\n    tag_15:\n      mload(0x40)\n      dup1\n      swap2\n      sub\n      swap1\n      return\n        /* \"contracts/2.1/03address/AddressFeature.sol\":366:468  function getContractBalance() public view returns(uint){... */\n    tag_5:\n      tag_17\n      tag_18\n      jump\t// in\n    tag_17:\n      mload(0x40)\n      tag_19\n      swap2\n      swap1\n      tag_20\n      jump\t// in\n    tag_19:\n      mload(0x40)\n      dup1\n      swap2\n      sub\n      swap1\n      return\n        /* \"contracts/2.1/03address/AddressFeature.sol\":108:205  function getBalance(address addr) public view returns(uint){... */\n    tag_6:\n      tag_21\n      0x04\n      dup1\n      calldatasize\n      sub\n      dup2\n      add\n      swap1\n      tag_22\n      swap2\n      swap1\n      tag_9\n      jump\t// in\n    tag_22:\n      tag_23\n      jump\t// in\n    tag_21:\n      mload(0x40)\n      tag_24\n      swap2\n      swap1\n      tag_20\n      jump\t// in\n    tag_24:\n      mload(0x40)\n      dup1\n      swap2\n      sub\n      swap1\n      return\n        /* \"contracts/2.1/03address/AddressFeature.sol\":506:610  function isZeroAddress(address addr) public pure returns(bool){... */\n    tag_10:\n        /* \"contracts/2.1/03address/AddressFeature.sol\":563:567  bool */\n      0x00\n        /* \"contracts/2.1/03address/AddressFeature.sol\":600:601  0 */\n      0x00\n        /* \"contracts/2.1/03address/AddressFeature.sol\":586:602  addr==address(0) */\n      0xffffffffffffffffffffffffffffffffffffffff\n      and\n        /* \"contracts/2.1/03address/AddressFeature.sol\":586:590  addr */\n      dup3\n        /* \"contracts/2.1/03address/AddressFeature.sol\":586:602  addr==address(0) */\n      0xffffffffffffffffffffffffffffffffffffffff\n      and\n      eq\n        /* \"contracts/2.1/03address/AddressFeature.sol\":579:602  return addr==address(0) */\n      swap1\n      pop\n        /* \"contracts/2.1/03address/AddressFeature.sol\":506:610  function isZeroAddress(address addr) public pure returns(bool){... */\n      swap2\n      swap1\n      pop\n      jump\t// out\n        /* \"contracts/2.1/03address/AddressFeature.sol\":237:334  function getContractAddress() public view returns(address){... */\n    tag_14:\n        /* \"contracts/2.1/03address/AddressFeature.sol\":287:294  address */\n      0x00\n        /* \"contracts/2.1/03address/AddressFeature.sol\":321:325  this */\n      address\n        /* \"contracts/2.1/03address/AddressFeature.sol\":306:326  return address(this) */\n      swap1\n      pop\n        /* \"contracts/2.1/03address/AddressFeature.sol\":237:334  function getContractAddress() public view returns(address){... */\n      swap1\n      jump\t// out\n        /* \"contracts/2.1/03address/AddressFeature.sol\":366:468  function getContractBalance() public view returns(uint){... */\n    tag_18:\n        /* \"contracts/2.1/03address/AddressFeature.sol\":416:420  uint */\n      0x00\n        /* \"contracts/2.1/03address/AddressFeature.sol\":439:460  address(this).balance */\n      selfbalance\n        /* \"contracts/2.1/03address/AddressFeature.sol\":432:460  return address(this).balance */\n      swap1\n      pop\n        /* \"contracts/2.1/03address/AddressFeature.sol\":366:468  function getContractBalance() public view returns(uint){... */\n      swap1\n      jump\t// out\n        /* \"contracts/2.1/03address/AddressFeature.sol\":108:205  function getBalance(address addr) public view returns(uint){... */\n    tag_23:\n        /* \"contracts/2.1/03address/AddressFeature.sol\":162:166  uint */\n      0x00\n        /* \"contracts/2.1/03address/AddressFeature.sol\":185:189  addr */\n      dup2\n        /* \"contracts/2.1/03address/AddressFeature.sol\":185:197  addr.balance */\n      0xffffffffffffffffffffffffffffffffffffffff\n      and\n      balance\n        /* \"contracts/2.1/03address/AddressFeature.sol\":178:197  return addr.balance */\n      swap1\n      pop\n        /* \"contracts/2.1/03address/AddressFeature.sol\":108:205  function getBalance(address addr) public view returns(uint){... */\n      swap2\n      swap1\n      pop\n      jump\t// out\n        /* \"#utility.yul\":88:205   */\n    tag_30:\n        /* \"#utility.yul\":197:198   */\n      0x00\n        /* \"#utility.yul\":194:195   */\n      0x00\n        /* \"#utility.yul\":187:199   */\n      revert\n        /* \"#utility.yul\":334:460   */\n    tag_32:\n        /* \"#utility.yul\":371:378   */\n      0x00\n        /* \"#utility.yul\":411:453   */\n      0xffffffffffffffffffffffffffffffffffffffff\n        /* \"#utility.yul\":404:409   */\n      dup3\n        /* \"#utility.yul\":400:454   */\n      and\n        /* \"#utility.yul\":389:454   */\n      swap1\n      pop\n        /* \"#utility.yul\":334:460   */\n      swap2\n      swap1\n      pop\n      jump\t// out\n        /* \"#utility.yul\":466:562   */\n    tag_33:\n        /* \"#utility.yul\":503:510   */\n      0x00\n        /* \"#utility.yul\":532:556   */\n      tag_47\n        /* \"#utility.yul\":550:555   */\n      dup3\n        /* \"#utility.yul\":532:556   */\n      tag_32\n      jump\t// in\n    tag_47:\n        /* \"#utility.yul\":521:556   */\n      swap1\n      pop\n        /* \"#utility.yul\":466:562   */\n      swap2\n      swap1\n      pop\n      jump\t// out\n        /* \"#utility.yul\":568:690   */\n    tag_34:\n        /* \"#utility.yul\":641:665   */\n      tag_49\n        /* \"#utility.yul\":659:664   */\n      dup2\n        /* \"#utility.yul\":641:665   */\n      tag_33\n      jump\t// in\n    tag_49:\n        /* \"#utility.yul\":634:639   */\n      dup2\n        /* \"#utility.yul\":631:666   */\n      eq\n        /* \"#utility.yul\":621:684   */\n      tag_50\n      jumpi\n        /* \"#utility.yul\":680:681   */\n      0x00\n        /* \"#utility.yul\":677:678   */\n      0x00\n        /* \"#utility.yul\":670:682   */\n      revert\n        /* \"#utility.yul\":621:684   */\n    tag_50:\n        /* \"#utility.yul\":568:690   */\n      pop\n      jump\t// out\n        /* \"#utility.yul\":696:835   */\n    tag_35:\n        /* \"#utility.yul\":742:747   */\n      0x00\n        /* \"#utility.yul\":780:786   */\n      dup2\n        /* \"#utility.yul\":767:787   */\n      calldataload\n        /* \"#utility.yul\":758:787   */\n      swap1\n      pop\n        /* \"#utility.yul\":796:829   */\n      tag_52\n        /* \"#utility.yul\":823:828   */\n      dup2\n        /* \"#utility.yul\":796:829   */\n      tag_34\n      jump\t// in\n    tag_52:\n        /* \"#utility.yul\":696:835   */\n      swap3\n      swap2\n      pop\n      pop\n      jump\t// out\n        /* \"#utility.yul\":841:1170   */\n    tag_9:\n        /* \"#utility.yul\":900:906   */\n      0x00\n        /* \"#utility.yul\":949:951   */\n      0x20\n        /* \"#utility.yul\":937:946   */\n      dup3\n        /* \"#utility.yul\":928:935   */\n      dup5\n        /* \"#utility.yul\":924:947   */\n      sub\n        /* \"#utility.yul\":920:952   */\n      slt\n        /* \"#utility.yul\":917:1036   */\n      iszero\n      tag_54\n      jumpi\n        /* \"#utility.yul\":955:1034   */\n      tag_55\n      tag_30\n      jump\t// in\n    tag_55:\n        /* \"#utility.yul\":917:1036   */\n    tag_54:\n        /* \"#utility.yul\":1075:1076   */\n      0x00\n        /* \"#utility.yul\":1100:1153   */\n      tag_56\n        /* \"#utility.yul\":1145:1152   */\n      dup5\n        /* \"#utility.yul\":1136:1142   */\n      dup3\n        /* \"#utility.yul\":1125:1134   */\n      dup6\n        /* \"#utility.yul\":1121:1143   */\n      add\n        /* \"#utility.yul\":1100:1153   */\n      tag_35\n      jump\t// in\n    tag_56:\n        /* \"#utility.yul\":1090:1153   */\n      swap2\n      pop\n        /* \"#utility.yul\":1046:1163   */\n      pop\n        /* \"#utility.yul\":841:1170   */\n      swap3\n      swap2\n      pop\n      pop\n      jump\t// out\n        /* \"#utility.yul\":1176:1266   */\n    tag_36:\n        /* \"#utility.yul\":1210:1217   */\n      0x00\n        /* \"#utility.yul\":1253:1258   */\n      dup2\n        /* \"#utility.yul\":1246:1259   */\n      iszero\n        /* \"#utility.yul\":1239:1260   */\n      iszero\n        /* \"#utility.yul\":1228:1260   */\n      swap1\n      pop\n        /* \"#utility.yul\":1176:1266   */\n      swap2\n      swap1\n      pop\n      jump\t// out\n        /* \"#utility.yul\":1272:1381   */\n    tag_37:\n        /* \"#utility.yul\":1353:1374   */\n      tag_59\n        /* \"#utility.yul\":1368:1373   */\n      dup2\n        /* \"#utility.yul\":1353:1374   */\n      tag_36\n      jump\t// in\n    tag_59:\n        /* \"#utility.yul\":1348:1351   */\n      dup3\n        /* \"#utility.yul\":1341:1375   */\n      mstore\n        /* \"#utility.yul\":1272:1381   */\n      pop\n      pop\n      jump\t// out\n        /* \"#utility.yul\":1387:1597   */\n    tag_12:\n        /* \"#utility.yul\":1474:1478   */\n      0x00\n        /* \"#utility.yul\":1512:1514   */\n      0x20\n        /* \"#utility.yul\":1501:1510   */\n      dup3\n        /* \"#utility.yul\":1497:1515   */\n      add\n        /* \"#utility.yul\":1489:1515   */\n      swap1\n      pop\n        /* \"#utility.yul\":1525:1590   */\n      tag_61\n        /* \"#utility.yul\":1587:1588   */\n      0x00\n        /* \"#utility.yul\":1576:1585   */\n      dup4\n        /* \"#utility.yul\":1572:1589   */\n      add\n        /* \"#utility.yul\":1563:1569   */\n      dup5\n        /* \"#utility.yul\":1525:1590   */\n      tag_37\n      jump\t// in\n    tag_61:\n        /* \"#utility.yul\":1387:1597   */\n      swap3\n      swap2\n      pop\n      pop\n      jump\t// out\n        /* \"#utility.yul\":1603:1721   */\n    tag_38:\n        /* \"#utility.yul\":1690:1714   */\n      tag_63\n        /* \"#utility.yul\":1708:1713   */\n      dup2\n        /* \"#utility.yul\":1690:1714   */\n      tag_33\n      jump\t// in\n    tag_63:\n        /* \"#utility.yul\":1685:1688   */\n      dup3\n        /* \"#utility.yul\":1678:1715   */\n      mstore\n        /* \"#utility.yul\":1603:1721   */\n      pop\n      pop\n      jump\t// out\n        /* \"#utility.yul\":1727:1949   */\n    tag_16:\n        /* \"#utility.yul\":1820:1824   */\n      0x00\n        /* \"#utility.yul\":1858:1860   */\n      0x20\n        /* \"#utility.yul\":1847:1856   */\n      dup3\n        /* \"#utility.yul\":1843:1861   */\n      add\n        /* \"#utility.yul\":1835:1861   */\n      swap1\n      pop\n        /* \"#utility.yul\":1871:1942   */\n      tag_65\n        /* \"#utility.yul\":1939:1940   */\n      0x00\n        /* \"#utility.yul\":1928:1937   */\n      dup4\n        /* \"#utility.yul\":1924:1941   */\n      add\n        /* \"#utility.yul\":1915:1921   */\n      dup5\n        /* \"#utility.yul\":1871:1942   */\n      tag_38\n      jump\t// in\n    tag_65:\n        /* \"#utility.yul\":1727:1949   */\n      swap3\n      swap2\n      pop\n      pop\n      jump\t// out\n        /* \"#utility.yul\":1955:2032   */\n    tag_39:\n        /* \"#utility.yul\":1992:1999   */\n      0x00\n        /* \"#utility.yul\":2021:2026   */\n      dup2\n        /* \"#utility.yul\":2010:2026   */\n      swap1\n      pop\n        /* \"#utility.yul\":1955:2032   */\n      swap2\n      swap1\n      pop\n      jump\t// out\n        /* \"#utility.yul\":2038:2156   */\n    tag_40:\n        /* \"#utility.yul\":2125:2149   */\n      tag_68\n        /* \"#utility.yul\":2143:2148   */\n      dup2\n        /* \"#utility.yul\":2125:2149   */\n      tag_39\n      jump\t// in\n    tag_68:\n        /* \"#utility.yul\":2120:2123   */\n      dup3\n        /* \"#utility.yul\":2113:2150   */\n      mstore\n        /* \"#utility.yul\":2038:2156   */\n      pop\n      pop\n      jump\t// out\n        /* \"#utility.yul\":2162:2384   */\n    tag_20:\n        /* \"#utility.yul\":2255:2259   */\n      0x00\n        /* \"#utility.yul\":2293:2295   */\n      0x20\n        /* \"#utility.yul\":2282:2291   */\n      dup3\n        /* \"#utility.yul\":2278:2296   */\n      add\n        /* \"#utility.yul\":2270:2296   */\n      swap1\n      pop\n        /* \"#utility.yul\":2306:2377   */\n      tag_70\n        /* \"#utility.yul\":2374:2375   */\n      0x00\n        /* \"#utility.yul\":2363:2372   */\n      dup4\n        /* \"#utility.yul\":2359:2376   */\n      add\n        /* \"#utility.yul\":2350:2356   */\n      dup5\n        /* \"#utility.yul\":2306:2377   */\n      tag_40\n      jump\t// in\n    tag_70:\n        /* \"#utility.yul\":2162:2384   */\n      swap3\n      swap2\n      pop\n      pop\n      jump\t// out\n\n    auxdata: 0xa26469706673582212206dd54749def55e79c5280a84a8822ba3f814105194fd2cb9d8a5e747b7fc0ef164736f6c63430008220033\n}\n",
				"bytecode": {
					"linkReferences": {},
					"object": "6080604052348015600e575f5ffd5b5061029a8061001c5f395ff3fe608060405234801561000f575f5ffd5b506004361061004a575f3560e01c8063186643151461004e57806332a2c5d01461007e5780636f9fb98a1461009c578063f8b2cb4f146100ba575b5f5ffd5b610068600480360381019061006391906101ad565b6100ea565b60405161007591906101f2565b60405180910390f35b610086610121565b604051610093919061021a565b60405180910390f35b6100a4610128565b6040516100b1919061024b565b60405180910390f35b6100d460048036038101906100cf91906101ad565b61012f565b6040516100e1919061024b565b60405180910390f35b5f5f73ffffffffffffffffffffffffffffffffffffffff168273ffffffffffffffffffffffffffffffffffffffff16149050919050565b5f30905090565b5f47905090565b5f8173ffffffffffffffffffffffffffffffffffffffff16319050919050565b5f5ffd5b5f73ffffffffffffffffffffffffffffffffffffffff82169050919050565b5f61017c82610153565b9050919050565b61018c81610172565b8114610196575f5ffd5b50565b5f813590506101a781610183565b92915050565b5f602082840312156101c2576101c161014f565b5b5f6101cf84828501610199565b91505092915050565b5f8115159050919050565b6101ec816101d8565b82525050565b5f6020820190506102055f8301846101e3565b92915050565b61021481610172565b82525050565b5f60208201905061022d5f83018461020b565b92915050565b5f819050919050565b61024581610233565b82525050565b5f60208201905061025e5f83018461023c565b9291505056fea26469706673582212206dd54749def55e79c5280a84a8822ba3f814105194fd2cb9d8a5e747b7fc0ef164736f6c63430008220033",
					"opcodes": "PUSH1 0x80 PUSH1 0x40 MSTORE CALLVALUE DUP1 ISZERO PUSH1 0xE JUMPI PUSH0 PUSH0 REVERT JUMPDEST POP PUSH2 0x29A DUP1 PUSH2 0x1C PUSH0 CODECOPY PUSH0 RETURN INVALID PUSH1 0x80 PUSH1 0x40 MSTORE CALLVALUE DUP1 ISZERO PUSH2 0xF JUMPI PUSH0 PUSH0 REVERT JUMPDEST POP PUSH1 0x4 CALLDATASIZE LT PUSH2 0x4A JUMPI PUSH0 CALLDATALOAD PUSH1 0xE0 SHR DUP1 PUSH4 0x18664315 EQ PUSH2 0x4E JUMPI DUP1 PUSH4 0x32A2C5D0 EQ PUSH2 0x7E JUMPI DUP1 PUSH4 0x6F9FB98A EQ PUSH2 0x9C JUMPI DUP1 PUSH4 0xF8B2CB4F EQ PUSH2 0xBA JUMPI JUMPDEST PUSH0 PUSH0 REVERT JUMPDEST PUSH2 0x68 PUSH1 0x4 DUP1 CALLDATASIZE SUB DUP2 ADD SWAP1 PUSH2 0x63 SWAP2 SWAP1 PUSH2 0x1AD JUMP JUMPDEST PUSH2 0xEA JUMP JUMPDEST PUSH1 0x40 MLOAD PUSH2 0x75 SWAP2 SWAP1 PUSH2 0x1F2 JUMP JUMPDEST PUSH1 0x40 MLOAD DUP1 SWAP2 SUB SWAP1 RETURN JUMPDEST PUSH2 0x86 PUSH2 0x121 JUMP JUMPDEST PUSH1 0x40 MLOAD PUSH2 0x93 SWAP2 SWAP1 PUSH2 0x21A JUMP JUMPDEST PUSH1 0x40 MLOAD DUP1 SWAP2 SUB SWAP1 RETURN JUMPDEST PUSH2 0xA4 PUSH2 0x128 JUMP JUMPDEST PUSH1 0x40 MLOAD PUSH2 0xB1 SWAP2 SWAP1 PUSH2 0x24B JUMP JUMPDEST PUSH1 0x40 MLOAD DUP1 SWAP2 SUB SWAP1 RETURN JUMPDEST PUSH2 0xD4 PUSH1 0x4 DUP1 CALLDATASIZE SUB DUP2 ADD SWAP1 PUSH2 0xCF SWAP2 SWAP1 PUSH2 0x1AD JUMP JUMPDEST PUSH2 0x12F JUMP JUMPDEST PUSH1 0x40 MLOAD PUSH2 0xE1 SWAP2 SWAP1 PUSH2 0x24B JUMP JUMPDEST PUSH1 0x40 MLOAD DUP1 SWAP2 SUB SWAP1 RETURN JUMPDEST PUSH0 PUSH0 PUSH20 0xFFFFFFFFFFFFFFFFFFFFFFFFFFFFFFFFFFFFFFFF AND DUP3 PUSH20 0xFFFFFFFFFFFFFFFFFFFFFFFFFFFFFFFFFFFFFFFF AND EQ SWAP1 POP SWAP2 SWAP1 POP JUMP JUMPDEST PUSH0 ADDRESS SWAP1 POP SWAP1 JUMP JUMPDEST PUSH0 SELFBALANCE SWAP1 POP SWAP1 JUMP JUMPDEST PUSH0 DUP2 PUSH20 0xFFFFFFFFFFFFFFFFFFFFFFFFFFFFFFFFFFFFFFFF AND BALANCE SWAP1 POP SWAP2 SWAP1 POP JUMP JUMPDEST PUSH0 PUSH0 REVERT JUMPDEST PUSH0 PUSH20 0xFFFFFFFFFFFFFFFFFFFFFFFFFFFFFFFFFFFFFFFF DUP3 AND SWAP1 POP SWAP2 SWAP1 POP JUMP JUMPDEST PUSH0 PUSH2 0x17C DUP3 PUSH2 0x153 JUMP JUMPDEST SWAP1 POP SWAP2 SWAP1 POP JUMP JUMPDEST PUSH2 0x18C DUP2 PUSH2 0x172 JUMP JUMPDEST DUP2 EQ PUSH2 0x196 JUMPI PUSH0 PUSH0 REVERT JUMPDEST POP JUMP JUMPDEST PUSH0 DUP2 CALLDATALOAD SWAP1 POP PUSH2 0x1A7 DUP2 PUSH2 0x183 JUMP JUMPDEST SWAP3 SWAP2 POP POP JUMP JUMPDEST PUSH0 PUSH1 0x20 DUP3 DUP5 SUB SLT ISZERO PUSH2 0x1C2 JUMPI PUSH2 0x1C1 PUSH2 0x14F JUMP JUMPDEST JUMPDEST PUSH0 PUSH2 0x1CF DUP5 DUP3 DUP6 ADD PUSH2 0x199 JUMP JUMPDEST SWAP2 POP POP SWAP3 SWAP2 POP POP JUMP JUMPDEST PUSH0 DUP2 ISZERO ISZERO SWAP1 POP SWAP2 SWAP1 POP JUMP JUMPDEST PUSH2 0x1EC DUP2 PUSH2 0x1D8 JUMP JUMPDEST DUP3 MSTORE POP POP JUMP JUMPDEST PUSH0 PUSH1 0x20 DUP3 ADD SWAP1 POP PUSH2 0x205 PUSH0 DUP4 ADD DUP5 PUSH2 0x1E3 JUMP JUMPDEST SWAP3 SWAP2 POP POP JUMP JUMPDEST PUSH2 0x214 DUP2 PUSH2 0x172 JUMP JUMPDEST DUP3 MSTORE POP POP JUMP JUMPDEST PUSH0 PUSH1 0x20 DUP3 ADD SWAP1 POP PUSH2 0x22D PUSH0 DUP4 ADD DUP5 PUSH2 0x20B JUMP JUMPDEST SWAP3 SWAP2 POP POP JUMP JUMPDEST PUSH0 DUP2 SWAP1 POP SWAP2 SWAP1 POP JUMP JUMPDEST PUSH2 0x245 DUP2 PUSH2 0x233 JUMP JUMPDEST DUP3 MSTORE POP POP JUMP JUMPDEST PUSH0 PUSH1 0x20 DUP3 ADD SWAP1 POP PUSH2 0x25E PUSH0 DUP4 ADD DUP5 PUSH2 0x23C JUMP JUMPDEST SWAP3 SWAP2 POP POP JUMP INVALID LOG2 PUSH5 0x6970667358 0x22 SLT KECCAK256 PUSH14 0xD54749DEF55E79C5280A84A8822B LOG3 EXTCALL EQ LT MLOAD SWAP5 REVERT 0x2C 0xB9 0xD8 0xA5 SWAPN 0x47 0xB7 0xFC 0xE CALL PUSH5 0x736F6C6343 STOP ADDMOD 0x22 STOP CALLER "
				},
				"gasEstimates": {
					"creation": {
						"codeDepositCost": "133200",
						"executionCost": "175",
						"totalCost": "133375"
					},
					"external": {
						"getBalance(address)": "3291",
						"getContractAddress()": "379",
						"getContractBalance()": "356",
						"isZeroAddress(address)": "642"
					}
				},
				"methodIdentifiers": {
					"getBalance(address)": "f8b2cb4f",
					"getContractAddress()": "32a2c5d0",
					"getContractBalance()": "6f9fb98a",
					"isZeroAddress(address)": "18664315"
				}
			},
			"storageLayout": {
				"storage": [],
				"types": null
			},
			"userdoc": {
				"kind": "user",
				"methods": {},
				"version": 1
			}
		}
	}
}