{
	"contracts/2.1/05enum/CrowdFunding.sol": {
		"CrowdFunding": {
			"abi": [
				{
					"inputs": [],
					"name": "contribute",
					"outputs": [],
					"stateMutability": "payable",
					"type": "function"
				},
				{
					"inputs": [],
					"name": "currentStatus",
					"outputs": [
						{
							"internalType": "enum CrowdFunding.ProjectStatus",
							"name": "",
							"type": "uint8"
						}
					],
					"stateMutability": "view",
					"type": "function"
				},
				{
					"inputs": [],
					"name": "finalSum",
					"outputs": [
						{
							"internalType": "enum CrowdFunding.ProjectStatus",
							"name": "",
							"type": "uint8"
						}
					],
					"stateMutability": "view",
					"type": "function"
				},
				{
					"inputs": [],
					"name": "goal",
					"outputs": [
						{
							"internalType": "uint256",
							"name": "",
							"type": "uint256"
						}
					],
					"stateMutability": "view",
					"type": "function"
				},
				{
					"inputs": [],
					"name": "raise",
					"outputs": [
						{
							"internalType": "uint256",
							"name": "",
							"type": "uint256"
						}
					],
					"stateMutability": "view",
					"type": "function"
				}
			],
			"devdoc": {
				"kind": "dev",
				"methods": {},
				"version": 1
			},
			"evm": {
				"assembly": "    /* \"contracts/2.1/05enum/CrowdFunding.sol\":58:764  contract CrowdFunding{... */\n  mstore(0x40, 0x80)\n    /* \"contracts/2.1/05enum/CrowdFunding.sol\":188:197  100 ether */\n  0x056bc75e2d63100000\n    /* \"contracts/2.1/05enum/CrowdFunding.sol\":171:197  uint public goal=100 ether */\n  0x00\n  sstore\n    /* \"contracts/2.1/05enum/CrowdFunding.sol\":263:287  ProjectStatus.Fundrising */\n  0x00\n    /* \"contracts/2.1/05enum/CrowdFunding.sol\":228:287  ProjectStatus public currentStatus=ProjectStatus.Fundrising */\n  0x02\n  exp(0x0100, 0x00)\n  dup2\n  sload\n  dup2\n  0xff\n  mul\n  not\n  and\n  swap1\n  dup4\n  0x02\n  dup2\n  gt\n  iszero\n  tag_1\n  jumpi\n  tag_2\n  tag_3\n  jump\t// in\ntag_2:\ntag_1:\n  mul\n  or\n  swap1\n  sstore\n  pop\n    /* \"contracts/2.1/05enum/CrowdFunding.sol\":58:764  contract CrowdFunding{... */\n  callvalue\n  dup1\n  iszero\n  tag_4\n  jumpi\n  revert(0x00, 0x00)\ntag_4:\n  pop\n  jump(tag_5)\n    /* \"#utility.yul\":7:187   */\ntag_3:\n    /* \"#utility.yul\":55:132   */\n  0x4e487b7100000000000000000000000000000000000000000000000000000000\n    /* \"#utility.yul\":52:53   */\n  0x00\n    /* \"#utility.yul\":45:133   */\n  mstore\n    /* \"#utility.yul\":152:156   */\n  0x21\n    /* \"#utility.yul\":149:150   */\n  0x04\n    /* \"#utility.yul\":142:157   */\n  mstore\n    /* \"#utility.yul\":176:180   */\n  0x24\n    /* \"#utility.yul\":173:174   */\n  0x00\n    /* \"#utility.yul\":166:181   */\n  revert\n    /* \"contracts/2.1/05enum/CrowdFunding.sol\":58:764  contract CrowdFunding{... */\ntag_5:\n  dataSize(sub_0)\n  dup1\n  dataOffset(sub_0)\n  0x00\n  codecopy\n  0x00\n  return\nstop\n\nsub_0: assembly {\n        /* \"contracts/2.1/05enum/CrowdFunding.sol\":58:764  contract CrowdFunding{... */\n      mstore(0x40, 0x80)\n      jumpi(tag_1, lt(calldatasize, 0x04))\n      shr(0xe0, calldataload(0x00))\n      dup1\n      0x40193883\n      eq\n      tag_2\n      jumpi\n      dup1\n      0xb361e198\n      eq\n      tag_3\n      jumpi\n      dup1\n      0xc87fde32\n      eq\n      tag_4\n      jumpi\n      dup1\n      0xd7bb99ba\n      eq\n      tag_5\n      jumpi\n      dup1\n      0xef8a9235\n      eq\n      tag_6\n      jumpi\n    tag_1:\n      revert(0x00, 0x00)\n        /* \"contracts/2.1/05enum/CrowdFunding.sol\":171:197  uint public goal=100 ether */\n    tag_2:\n      callvalue\n      dup1\n      iszero\n      tag_7\n      jumpi\n      revert(0x00, 0x00)\n    tag_7:\n      pop\n      tag_8\n      tag_9\n      jump\t// in\n    tag_8:\n      mload(0x40)\n      tag_10\n      swap2\n      swap1\n      tag_11\n      jump\t// in\n    tag_10:\n      mload(0x40)\n      dup1\n      swap2\n      sub\n      swap1\n      return\n        /* \"contracts/2.1/05enum/CrowdFunding.sol\":204:221  uint public raise */\n    tag_3:\n      callvalue\n      dup1\n      iszero\n      tag_12\n      jumpi\n      revert(0x00, 0x00)\n    tag_12:\n      pop\n      tag_13\n      tag_14\n      jump\t// in\n    tag_13:\n      mload(0x40)\n      tag_15\n      swap2\n      swap1\n      tag_11\n      jump\t// in\n    tag_15:\n      mload(0x40)\n      dup1\n      swap2\n      sub\n      swap1\n      return\n        /* \"contracts/2.1/05enum/CrowdFunding.sol\":465:761  function finalSum() public view returns(ProjectStatus){... */\n    tag_4:\n      callvalue\n      dup1\n      iszero\n      tag_16\n      jumpi\n      revert(0x00, 0x00)\n    tag_16:\n      pop\n      tag_17\n      tag_18\n      jump\t// in\n    tag_17:\n      mload(0x40)\n      tag_19\n      swap2\n      swap1\n      tag_20\n      jump\t// in\n    tag_19:\n      mload(0x40)\n      dup1\n      swap2\n      sub\n      swap1\n      return\n        /* \"contracts/2.1/05enum/CrowdFunding.sol\":294:459  function contribute() public payable {... */\n    tag_5:\n      tag_21\n      tag_22\n      jump\t// in\n    tag_21:\n      stop\n        /* \"contracts/2.1/05enum/CrowdFunding.sol\":228:287  ProjectStatus public currentStatus=ProjectStatus.Fundrising */\n    tag_6:\n      callvalue\n      dup1\n      iszero\n      tag_23\n      jumpi\n      revert(0x00, 0x00)\n    tag_23:\n      pop\n      tag_24\n      tag_25\n      jump\t// in\n    tag_24:\n      mload(0x40)\n      tag_26\n      swap2\n      swap1\n      tag_20\n      jump\t// in\n    tag_26:\n      mload(0x40)\n      dup1\n      swap2\n      sub\n      swap1\n      return\n        /* \"contracts/2.1/05enum/CrowdFunding.sol\":171:197  uint public goal=100 ether */\n    tag_9:\n      sload(0x00)\n      dup2\n      jump\t// out\n        /* \"contracts/2.1/05enum/CrowdFunding.sol\":204:221  uint public raise */\n    tag_14:\n      sload(0x01)\n      dup2\n      jump\t// out\n        /* \"contracts/2.1/05enum/CrowdFunding.sol\":465:761  function finalSum() public view returns(ProjectStatus){... */\n    tag_18:\n        /* \"contracts/2.1/05enum/CrowdFunding.sol\":505:518  ProjectStatus */\n      0x00\n        /* \"contracts/2.1/05enum/CrowdFunding.sol\":554:578  ProjectStatus.Fundrising */\n      0x00\n        /* \"contracts/2.1/05enum/CrowdFunding.sol\":539:578  currentStatus==ProjectStatus.Fundrising */\n      0x02\n      dup2\n      gt\n      iszero\n      tag_28\n      jumpi\n      tag_29\n      tag_30\n      jump\t// in\n    tag_29:\n    tag_28:\n        /* \"contracts/2.1/05enum/CrowdFunding.sol\":539:552  currentStatus */\n      0x02\n      0x00\n      swap1\n      sload\n      swap1\n      0x0100\n      exp\n      swap1\n      div\n      0xff\n      and\n        /* \"contracts/2.1/05enum/CrowdFunding.sol\":539:578  currentStatus==ProjectStatus.Fundrising */\n      0x02\n      dup2\n      gt\n      iszero\n      tag_31\n      jumpi\n      tag_32\n      tag_30\n      jump\t// in\n    tag_32:\n    tag_31:\n      eq\n        /* \"contracts/2.1/05enum/CrowdFunding.sol\":531:613  require(currentStatus==ProjectStatus.Fundrising,unicode\"项目不在募集中...\") */\n      tag_33\n      jumpi\n      mload(0x40)\n      0x08c379a000000000000000000000000000000000000000000000000000000000\n      dup2\n      mstore\n      0x04\n      add\n      tag_34\n      swap1\n      tag_35\n      jump\t// in\n    tag_34:\n      mload(0x40)\n      dup1\n      swap2\n      sub\n      swap1\n      revert\n    tag_33:\n        /* \"contracts/2.1/05enum/CrowdFunding.sol\":637:641  goal */\n      sload(0x00)\n        /* \"contracts/2.1/05enum/CrowdFunding.sol\":628:633  raise */\n      sload(0x01)\n        /* \"contracts/2.1/05enum/CrowdFunding.sol\":628:641  raise >= goal */\n      lt\n        /* \"contracts/2.1/05enum/CrowdFunding.sol\":624:754  if (raise >= goal) {... */\n      tag_36\n      jumpi\n        /* \"contracts/2.1/05enum/CrowdFunding.sol\":665:686  ProjectStatus.Success */\n      0x01\n        /* \"contracts/2.1/05enum/CrowdFunding.sol\":658:686  return ProjectStatus.Success */\n      swap1\n      pop\n      jump(tag_27)\n        /* \"contracts/2.1/05enum/CrowdFunding.sol\":624:754  if (raise >= goal) {... */\n    tag_36:\n        /* \"contracts/2.1/05enum/CrowdFunding.sol\":724:742  ProjectStatus.Fail */\n      0x02\n        /* \"contracts/2.1/05enum/CrowdFunding.sol\":717:742  return ProjectStatus.Fail */\n      swap1\n      pop\n        /* \"contracts/2.1/05enum/CrowdFunding.sol\":465:761  function finalSum() public view returns(ProjectStatus){... */\n    tag_27:\n      swap1\n      jump\t// out\n        /* \"contracts/2.1/05enum/CrowdFunding.sol\":294:459  function contribute() public payable {... */\n    tag_22:\n        /* \"contracts/2.1/05enum/CrowdFunding.sol\":365:389  ProjectStatus.Fundrising */\n      0x00\n        /* \"contracts/2.1/05enum/CrowdFunding.sol\":350:389  currentStatus==ProjectStatus.Fundrising */\n      0x02\n      dup2\n      gt\n      iszero\n      tag_39\n      jumpi\n      tag_40\n      tag_30\n      jump\t// in\n    tag_40:\n    tag_39:\n        /* \"contracts/2.1/05enum/CrowdFunding.sol\":350:363  currentStatus */\n      0x02\n      0x00\n      swap1\n      sload\n      swap1\n      0x0100\n      exp\n      swap1\n      div\n      0xff\n      and\n        /* \"contracts/2.1/05enum/CrowdFunding.sol\":350:389  currentStatus==ProjectStatus.Fundrising */\n      0x02\n      dup2\n      gt\n      iszero\n      tag_41\n      jumpi\n      tag_42\n      tag_30\n      jump\t// in\n    tag_42:\n    tag_41:\n      eq\n        /* \"contracts/2.1/05enum/CrowdFunding.sol\":342:424  require(currentStatus==ProjectStatus.Fundrising,unicode\"项目不在募集中...\") */\n      tag_43\n      jumpi\n      mload(0x40)\n      0x08c379a000000000000000000000000000000000000000000000000000000000\n      dup2\n      mstore\n      0x04\n      add\n      tag_44\n      swap1\n      tag_35\n      jump\t// in\n    tag_44:\n      mload(0x40)\n      dup1\n      swap2\n      sub\n      swap1\n      revert\n    tag_43:\n        /* \"contracts/2.1/05enum/CrowdFunding.sol\":442:451  msg.value */\n      callvalue\n        /* \"contracts/2.1/05enum/CrowdFunding.sol\":435:440  raise */\n      0x01\n      0x00\n        /* \"contracts/2.1/05enum/CrowdFunding.sol\":435:451  raise+=msg.value */\n      dup3\n      dup3\n      sload\n      tag_45\n      swap2\n      swap1\n      tag_46\n      jump\t// in\n    tag_45:\n      swap3\n      pop\n      pop\n      dup2\n      swap1\n      sstore\n      pop\n        /* \"contracts/2.1/05enum/CrowdFunding.sol\":294:459  function contribute() public payable {... */\n      jump\t// out\n        /* \"contracts/2.1/05enum/CrowdFunding.sol\":228:287  ProjectStatus public currentStatus=ProjectStatus.Fundrising */\n    tag_25:\n      0x02\n      0x00\n      swap1\n      sload\n      swap1\n      0x0100\n      exp\n      swap1\n      div\n      0xff\n      and\n      dup2\n      jump\t// out\n        /* \"#utility.yul\":7:84   */\n    tag_47:\n        /* \"#utility.yul\":44:51   */\n      0x00\n        /* \"#utility.yul\":73:78   */\n      dup2\n        /* \"#utility.yul\":62:78   */\n      swap1\n      pop\n        /* \"#utility.yul\":7:84   */\n      swap2\n      swap1\n      pop\n      jump\t// out\n        /* \"#utility.yul\":90:208   */\n    tag_48:\n        /* \"#utility.yul\":177:201   */\n      tag_60\n        /* \"#utility.yul\":195:200   */\n      dup2\n        /* \"#utility.yul\":177:201   */\n      tag_47\n      jump\t// in\n    tag_60:\n        /* \"#utility.yul\":172:175   */\n      dup3\n        /* \"#utility.yul\":165:202   */\n      mstore\n        /* \"#utility.yul\":90:208   */\n      pop\n      pop\n      jump\t// out\n        /* \"#utility.yul\":214:436   */\n    tag_11:\n        /* \"#utility.yul\":307:311   */\n      0x00\n        /* \"#utility.yul\":345:347   */\n      0x20\n        /* \"#utility.yul\":334:343   */\n      dup3\n        /* \"#utility.yul\":330:348   */\n      add\n        /* \"#utility.yul\":322:348   */\n      swap1\n      pop\n        /* \"#utility.yul\":358:429   */\n      tag_62\n        /* \"#utility.yul\":426:427   */\n      0x00\n        /* \"#utility.yul\":415:424   */\n      dup4\n        /* \"#utility.yul\":411:428   */\n      add\n        /* \"#utility.yul\":402:408   */\n      dup5\n        /* \"#utility.yul\":358:429   */\n      tag_48\n      jump\t// in\n    tag_62:\n        /* \"#utility.yul\":214:436   */\n      swap3\n      swap2\n      pop\n      pop\n      jump\t// out\n        /* \"#utility.yul\":442:622   */\n    tag_30:\n        /* \"#utility.yul\":490:567   */\n      0x4e487b7100000000000000000000000000000000000000000000000000000000\n        /* \"#utility.yul\":487:488   */\n      0x00\n        /* \"#utility.yul\":480:568   */\n      mstore\n        /* \"#utility.yul\":587:591   */\n      0x21\n        /* \"#utility.yul\":584:585   */\n      0x04\n        /* \"#utility.yul\":577:592   */\n      mstore\n        /* \"#utility.yul\":611:615   */\n      0x24\n        /* \"#utility.yul\":608:609   */\n      0x00\n        /* \"#utility.yul\":601:616   */\n      revert\n        /* \"#utility.yul\":628:748   */\n    tag_49:\n        /* \"#utility.yul\":716:717   */\n      0x03\n        /* \"#utility.yul\":709:714   */\n      dup2\n        /* \"#utility.yul\":706:718   */\n      lt\n        /* \"#utility.yul\":696:742   */\n      tag_65\n      jumpi\n        /* \"#utility.yul\":722:740   */\n      tag_66\n      tag_30\n      jump\t// in\n    tag_66:\n        /* \"#utility.yul\":696:742   */\n    tag_65:\n        /* \"#utility.yul\":628:748   */\n      pop\n      jump\t// out\n        /* \"#utility.yul\":754:895   */\n    tag_50:\n        /* \"#utility.yul\":806:813   */\n      0x00\n        /* \"#utility.yul\":835:840   */\n      dup2\n        /* \"#utility.yul\":824:840   */\n      swap1\n      pop\n        /* \"#utility.yul\":841:889   */\n      tag_68\n        /* \"#utility.yul\":883:888   */\n      dup3\n        /* \"#utility.yul\":841:889   */\n      tag_49\n      jump\t// in\n    tag_68:\n        /* \"#utility.yul\":754:895   */\n      swap2\n      swap1\n      pop\n      jump\t// out\n        /* \"#utility.yul\":901:1042   */\n    tag_51:\n        /* \"#utility.yul\":964:973   */\n      0x00\n        /* \"#utility.yul\":997:1036   */\n      tag_70\n        /* \"#utility.yul\":1030:1035   */\n      dup3\n        /* \"#utility.yul\":997:1036   */\n      tag_50\n      jump\t// in\n    tag_70:\n        /* \"#utility.yul\":984:1036   */\n      swap1\n      pop\n        /* \"#utility.yul\":901:1042   */\n      swap2\n      swap1\n      pop\n      jump\t// out\n        /* \"#utility.yul\":1048:1205   */\n    tag_52:\n        /* \"#utility.yul\":1148:1198   */\n      tag_72\n        /* \"#utility.yul\":1192:1197   */\n      dup2\n        /* \"#utility.yul\":1148:1198   */\n      tag_51\n      jump\t// in\n    tag_72:\n        /* \"#utility.yul\":1143:1146   */\n      dup3\n        /* \"#utility.yul\":1136:1199   */\n      mstore\n        /* \"#utility.yul\":1048:1205   */\n      pop\n      pop\n      jump\t// out\n        /* \"#utility.yul\":1211:1459   */\n    tag_20:\n        /* \"#utility.yul\":1317:1321   */\n      0x00\n        /* \"#utility.yul\":1355:1357   */\n      0x20\n        /* \"#utility.yul\":1344:1353   */\n      dup3\n        /* \"#utility.yul\":1340:1358   */\n      add\n        /* \"#utility.yul\":1332:1358   */\n      swap1\n      pop\n        /* \"#utility.yul\":1368:1452   */\n      tag_74\n        /* \"#utility.yul\":1449:1450   */\n      0x00\n        /* \"#utility.yul\":1438:1447   */\n      dup4\n        /* \"#utility.yul\":1434:1451   */\n      add\n        /* \"#utility.yul\":1425:1431   */\n      dup5\n        /* \"#utility.yul\":1368:1452   */\n      tag_52\n      jump\t// in\n    tag_74:\n        /* \"#utility.yul\":1211:1459   */\n      swap3\n      swap2\n      pop\n      pop\n      jump\t// out\n        /* \"#utility.yul\":1465:1634   */\n    tag_53:\n        /* \"#utility.yul\":1549:1560   */\n      0x00\n        /* \"#utility.yul\":1583:1589   */\n      dup3\n        /* \"#utility.yul\":1578:1581   */\n      dup3\n        /* \"#utility.yul\":1571:1590   */\n      mstore\n        /* \"#utility.yul\":1623:1627   */\n      0x20\n        /* \"#utility.yul\":1618:1621   */\n      dup3\n        /* \"#utility.yul\":1614:1628   */\n      add\n        /* \"#utility.yul\":1599:1628   */\n      swap1\n      pop\n        /* \"#utility.yul\":1465:1634   */\n      swap3\n      swap2\n      pop\n      pop\n      jump\t// out\n        /* \"#utility.yul\":1640:1854   */\n    tag_54:\n        /* \"#utility.yul\":1780:1846   */\n      0xe9a1b9e79baee4b88de59ca8e58b9fe99b86e4b8ad2e2e2e0000000000000000\n        /* \"#utility.yul\":1776:1777   */\n      0x00\n        /* \"#utility.yul\":1768:1774   */\n      dup3\n        /* \"#utility.yul\":1764:1778   */\n      add\n        /* \"#utility.yul\":1757:1847   */\n      mstore\n        /* \"#utility.yul\":1640:1854   */\n      pop\n      jump\t// out\n        /* \"#utility.yul\":1860:2226   */\n    tag_55:\n        /* \"#utility.yul\":2002:2005   */\n      0x00\n        /* \"#utility.yul\":2023:2090   */\n      tag_78\n        /* \"#utility.yul\":2087:2089   */\n      0x18\n        /* \"#utility.yul\":2082:2085   */\n      dup4\n        /* \"#utility.yul\":2023:2090   */\n      tag_53\n      jump\t// in\n    tag_78:\n        /* \"#utility.yul\":2016:2090   */\n      swap2\n      pop\n        /* \"#utility.yul\":2099:2192   */\n      tag_79\n        /* \"#utility.yul\":2188:2191   */\n      dup3\n        /* \"#utility.yul\":2099:2192   */\n      tag_54\n      jump\t// in\n    tag_79:\n        /* \"#utility.yul\":2217:2219   */\n      0x20\n        /* \"#utility.yul\":2212:2215   */\n      dup3\n        /* \"#utility.yul\":2208:2220   */\n      add\n        /* \"#utility.yul\":2201:2220   */\n      swap1\n      pop\n        /* \"#utility.yul\":1860:2226   */\n      swap2\n      swap1\n      pop\n      jump\t// out\n        /* \"#utility.yul\":2232:2651   */\n    tag_35:\n        /* \"#utility.yul\":2398:2402   */\n      0x00\n        /* \"#utility.yul\":2436:2438   */\n      0x20\n        /* \"#utility.yul\":2425:2434   */\n      dup3\n        /* \"#utility.yul\":2421:2439   */\n      add\n        /* \"#utility.yul\":2413:2439   */\n      swap1\n      pop\n        /* \"#utility.yul\":2485:2494   */\n      dup2\n        /* \"#utility.yul\":2479:2483   */\n      dup2\n        /* \"#utility.yul\":2475:2495   */\n      sub\n        /* \"#utility.yul\":2471:2472   */\n      0x00\n        /* \"#utility.yul\":2460:2469   */\n      dup4\n        /* \"#utility.yul\":2456:2473   */\n      add\n        /* \"#utility.yul\":2449:2496   */\n      mstore\n        /* \"#utility.yul\":2513:2644   */\n      tag_81\n        /* \"#utility.yul\":2639:2643   */\n      dup2\n        /* \"#utility.yul\":2513:2644   */\n      tag_55\n      jump\t// in\n    tag_81:\n        /* \"#utility.yul\":2505:2644   */\n      swap1\n      pop\n        /* \"#utility.yul\":2232:2651   */\n      swap2\n      swap1\n      pop\n      jump\t// out\n        /* \"#utility.yul\":2657:2837   */\n    tag_56:\n        /* \"#utility.yul\":2705:2782   */\n      0x4e487b7100000000000000000000000000000000000000000000000000000000\n        /* \"#utility.yul\":2702:2703   */\n      0x00\n        /* \"#utility.yul\":2695:2783   */\n      mstore\n        /* \"#utility.yul\":2802:2806   */\n      0x11\n        /* \"#utility.yul\":2799:2800   */\n      0x04\n        /* \"#utility.yul\":2792:2807   */\n      mstore\n        /* \"#utility.yul\":2826:2830   */\n      0x24\n        /* \"#utility.yul\":2823:2824   */\n      0x00\n        /* \"#utility.yul\":2816:2831   */\n      revert\n        /* \"#utility.yul\":2843:3034   */\n    tag_46:\n        /* \"#utility.yul\":2883:2886   */\n      0x00\n        /* \"#utility.yul\":2902:2922   */\n      tag_84\n        /* \"#utility.yul\":2920:2921   */\n      dup3\n        /* \"#utility.yul\":2902:2922   */\n      tag_47\n      jump\t// in\n    tag_84:\n        /* \"#utility.yul\":2897:2922   */\n      swap2\n      pop\n        /* \"#utility.yul\":2936:2956   */\n      tag_85\n        /* \"#utility.yul\":2954:2955   */\n      dup4\n        /* \"#utility.yul\":2936:2956   */\n      tag_47\n      jump\t// in\n    tag_85:\n        /* \"#utility.yul\":2931:2956   */\n      swap3\n      pop\n        /* \"#utility.yul\":2979:2980   */\n      dup3\n        /* \"#utility.yul\":2976:2977   */\n      dup3\n        /* \"#utility.yul\":2972:2981   */\n      add\n        /* \"#utility.yul\":2965:2981   */\n      swap1\n      pop\n        /* \"#utility.yul\":3000:3003   */\n      dup1\n        /* \"#utility.yul\":2997:2998   */\n      dup3\n        /* \"#utility.yul\":2994:3004   */\n      gt\n        /* \"#utility.yul\":2991:3027   */\n      iszero\n      tag_86\n      jumpi\n        /* \"#utility.yul\":3007:3025   */\n      tag_87\n      tag_56\n      jump\t// in\n    tag_87:\n        /* \"#utility.yul\":2991:3027   */\n    tag_86:\n        /* \"#utility.yul\":2843:3034   */\n      swap3\n      swap2\n      pop\n      pop\n      jump\t// out\n\n    auxdata: 0xa2646970667358221220b1efc10a9162c303fff83c8710c116e5620ceb790026a75ee233ad4feaa5c54464736f6c63430008220033\n}\n",
				"bytecode": {
					"linkReferences": {},
					"object": "608060405268056bc75e2d631000005f555f60025f6101000a81548160ff0219169083600281111560315760306045565b5b02179055503480156040575f5ffd5b506072565b7f4e487b71000000000000000000000000000000000000000000000000000000005f52602160045260245ffd5b6104058061007f5f395ff3fe608060405260043610610049575f3560e01c8063401938831461004d578063b361e19814610077578063c87fde32146100a1578063d7bb99ba146100cb578063ef8a9235146100d5575b5f5ffd5b348015610058575f5ffd5b506100616100ff565b60405161006e9190610252565b60405180910390f35b348015610082575f5ffd5b5061008b610104565b6040516100989190610252565b60405180910390f35b3480156100ac575f5ffd5b506100b561010a565b6040516100c291906102de565b60405180910390f35b6100d361019a565b005b3480156100e0575f5ffd5b506100e9610228565b6040516100f691906102de565b60405180910390f35b5f5481565b60015481565b5f5f600281111561011e5761011d61026b565b5b60025f9054906101000a900460ff16600281111561013f5761013e61026b565b5b1461017f576040517f08c379a000000000000000000000000000000000000000000000000000000000815260040161017690610351565b60405180910390fd5b5f54600154106101925760019050610197565b600290505b90565b5f60028111156101ad576101ac61026b565b5b60025f9054906101000a900460ff1660028111156101ce576101cd61026b565b5b1461020e576040517f08c379a000000000000000000000000000000000000000000000000000000000815260040161020590610351565b60405180910390fd5b3460015f82825461021f919061039c565b92505081905550565b60025f9054906101000a900460ff1681565b5f819050919050565b61024c8161023a565b82525050565b5f6020820190506102655f830184610243565b92915050565b7f4e487b71000000000000000000000000000000000000000000000000000000005f52602160045260245ffd5b600381106102a9576102a861026b565b5b50565b5f8190506102b982610298565b919050565b5f6102c8826102ac565b9050919050565b6102d8816102be565b82525050565b5f6020820190506102f15f8301846102cf565b92915050565b5f82825260208201905092915050565b7fe9a1b9e79baee4b88de59ca8e58b9fe99b86e4b8ad2e2e2e00000000000000005f82015250565b5f61033b6018836102f7565b915061034682610307565b602082019050919050565b5f6020820190508181035f8301526103688161032f565b9050919050565b7f4e487b71000000000000000000000000000000000000000000000000000000005f52601160045260245ffd5b5f6103a68261023a565b91506103b18361023a565b92508282019050808211156103c9576103c861036f565b5b9291505056fea2646970667358221220b1efc10a9162c303fff83c8710c116e5620ceb790026a75ee233ad4feaa5c54464736f6c63430008220033",
					"opcodes": "PUSH1 0x80 PUSH1 0x40 MSTORE PUSH9 0x56BC75E2D63100000 PUSH0 SSTORE PUSH0 PUSH1 0x2 PUSH0 PUSH2 0x100 EXP DUP2 SLOAD DUP2 PUSH1 0xFF MUL NOT AND SWAP1 DUP4 PUSH1 0x2 DUP2 GT ISZERO PUSH1 0x31 JUMPI PUSH1 0x30 PUSH1 0x45 JUMP JUMPDEST JUMPDEST MUL OR SWAP1 SSTORE POP CALLVALUE DUP1 ISZERO PUSH1 0x40 JUMPI PUSH0 PUSH0 REVERT JUMPDEST POP PUSH1 0x72 JUMP JUMPDEST PUSH32 0x4E487B7100000000000000000000000000000000000000000000000000000000 PUSH0 MSTORE PUSH1 0x21 PUSH1 0x4 MSTORE PUSH1 0x24 PUSH0 REVERT JUMPDEST PUSH2 0x405 DUP1 PUSH2 0x7F PUSH0 CODECOPY PUSH0 RETURN INVALID PUSH1 0x80 PUSH1 0x40 MSTORE PUSH1 0x4 CALLDATASIZE LT PUSH2 0x49 JUMPI PUSH0 CALLDATALOAD PUSH1 0xE0 SHR DUP1 PUSH4 0x40193883 EQ PUSH2 0x4D JUMPI DUP1 PUSH4 0xB361E198 EQ PUSH2 0x77 JUMPI DUP1 PUSH4 0xC87FDE32 EQ PUSH2 0xA1 JUMPI DUP1 PUSH4 0xD7BB99BA EQ PUSH2 0xCB JUMPI DUP1 PUSH4 0xEF8A9235 EQ PUSH2 0xD5 JUMPI JUMPDEST PUSH0 PUSH0 REVERT JUMPDEST CALLVALUE DUP1 ISZERO PUSH2 0x58 JUMPI PUSH0 PUSH0 REVERT JUMPDEST POP PUSH2 0x61 PUSH2 0xFF JUMP JUMPDEST PUSH1 0x40 MLOAD PUSH2 0x6E SWAP2 SWAP1 PUSH2 0x252 JUMP JUMPDEST PUSH1 0x40 MLOAD DUP1 SWAP2 SUB SWAP1 RETURN JUMPDEST CALLVALUE DUP1 ISZERO PUSH2 0x82 JUMPI PUSH0 PUSH0 REVERT JUMPDEST POP PUSH2 0x8B PUSH2 0x104 JUMP JUMPDEST PUSH1 0x40 MLOAD PUSH2 0x98 SWAP2 SWAP1 PUSH2 0x252 JUMP JUMPDEST PUSH1 0x40 MLOAD DUP1 SWAP2 SUB SWAP1 RETURN JUMPDEST CALLVALUE DUP1 ISZERO PUSH2 0xAC JUMPI PUSH0 PUSH0 REVERT JUMPDEST POP PUSH2 0xB5 PUSH2 0x10A JUMP JUMPDEST PUSH1 0x40 MLOAD PUSH2 0xC2 SWAP2 SWAP1 PUSH2 0x2DE JUMP JUMPDEST PUSH1 0x40 MLOAD DUP1 SWAP2 SUB SWAP1 RETURN JUMPDEST PUSH2 0xD3 PUSH2 0x19A JUMP JUMPDEST STOP JUMPDEST CALLVALUE DUP1 ISZERO PUSH2 0xE0 JUMPI PUSH0 PUSH0 REVERT JUMPDEST POP PUSH2 0xE9 PUSH2 0x228 JUMP JUMPDEST PUSH1 0x40 MLOAD PUSH2 0xF6 SWAP2 SWAP1 PUSH2 0x2DE JUMP JUMPDEST PUSH1 0x40 MLOAD DUP1 SWAP2 SUB SWAP1 RETURN JUMPDEST PUSH0 SLOAD DUP2 JUMP JUMPDEST PUSH1 0x1 SLOAD DUP2 JUMP JUMPDEST PUSH0 PUSH0 PUSH1 0x2 DUP2 GT ISZERO PUSH2 0x11E JUMPI PUSH2 0x11D PUSH2 0x26B JUMP JUMPDEST JUMPDEST PUSH1 0x2 PUSH0 SWAP1 SLOAD SWAP1 PUSH2 0x100 EXP SWAP1 DIV PUSH1 0xFF AND PUSH1 0x2 DUP2 GT ISZERO PUSH2 0x13F JUMPI PUSH2 0x13E PUSH2 0x26B JUMP JUMPDEST JUMPDEST EQ PUSH2 0x17F JUMPI PUSH1 0x40 MLOAD PUSH32 0x8C379A000000000000000000000000000000000000000000000000000000000 DUP2 MSTORE PUSH1 0x4 ADD PUSH2 0x176 SWAP1 PUSH2 0x351 JUMP JUMPDEST PUSH1 0x40 MLOAD DUP1 SWAP2 SUB SWAP1 REVERT JUMPDEST PUSH0 SLOAD PUSH1 0x1 SLOAD LT PUSH2 0x192 JUMPI PUSH1 0x1 SWAP1 POP PUSH2 0x197 JUMP JUMPDEST PUSH1 0x2 SWAP1 POP JUMPDEST SWAP1 JUMP JUMPDEST PUSH0 PUSH1 0x2 DUP2 GT ISZERO PUSH2 0x1AD JUMPI PUSH2 0x1AC PUSH2 0x26B JUMP JUMPDEST JUMPDEST PUSH1 0x2 PUSH0 SWAP1 SLOAD SWAP1 PUSH2 0x100 EXP SWAP1 DIV PUSH1 0xFF AND PUSH1 0x2 DUP2 GT ISZERO PUSH2 0x1CE JUMPI PUSH2 0x1CD PUSH2 0x26B JUMP JUMPDEST JUMPDEST EQ PUSH2 0x20E JUMPI PUSH1 0x40 MLOAD PUSH32 0x8C379A000000000000000000000000000000000000000000000000000000000 DUP2 MSTORE PUSH1 0x4 ADD PUSH2 0x205 SWAP1 PUSH2 0x351 JUMP JUMPDEST PUSH1 0x40 MLOAD DUP1 SWAP2 SUB SWAP1 REVERT JUMPDEST CALLVALUE PUSH1 0x1 PUSH0 DUP3 DUP3 SLOAD PUSH2 0x21F SWAP2 SWAP1 PUSH2 0x39C JUMP JUMPDEST SWAP3 POP POP DUP2 SWAP1 SSTORE POP JUMP JUMPDEST PUSH1 0x2 PUSH0 SWAP1 SLOAD SWAP1 PUSH2 0x100 EXP SWAP1 DIV PUSH1 0xFF AND DUP2 JUMP JUMPDEST PUSH0 DUP2 SWAP1 POP SWAP2 SWAP1 POP JUMP JUMPDEST PUSH2 0x24C DUP2 PUSH2 0x23A JUMP JUMPDEST DUP3 MSTORE POP POP JUMP JUMPDEST PUSH0 PUSH1 0x20 DUP3 ADD SWAP1 POP PUSH2 0x265 PUSH0 DUP4 ADD DUP5 PUSH2 0x243 JUMP JUMPDEST SWAP3 SWAP2 POP POP JUMP JUMPDEST PUSH32 0x4E487B7100000000000000000000000000000000000000000000000000000000 PUSH0 MSTORE PUSH1 0x21 PUSH1 0x4 MSTORE PUSH1 0x24 PUSH0 REVERT JUMPDEST PUSH1 0x3 DUP2 LT PUSH2 0x2A9 JUMPI PUSH2 0x2A8 PUSH2 0x26B JUMP JUMPDEST JUMPDEST POP JUMP JUMPDEST PUSH0 DUP2 SWAP1 POP PUSH2 0x2B9 DUP3 PUSH2 0x298 JUMP JUMPDEST SWAP2 SWAP1 POP JUMP JUMPDEST PUSH0 PUSH2 0x2C8 DUP3 PUSH2 0x2AC JUMP JUMPDEST SWAP1 POP SWAP2 SWAP1 POP JUMP JUMPDEST PUSH2 0x2D8 DUP2 PUSH2 0x2BE JUMP JUMPDEST DUP3 MSTORE POP POP JUMP JUMPDEST PUSH0 PUSH1 0x20 DUP3 ADD SWAP1 POP PUSH2 0x2F1 PUSH0 DUP4 ADD DUP5 PUSH2 0x2CF JUMP JUMPDEST SWAP3 SWAP2 POP POP JUMP JUMPDEST PUSH0 DUP3 DUP3 MSTORE PUSH1 0x20 DUP3 ADD SWAP1 POP SWAP3 SWAP2 POP POP JUMP JUMPDEST PUSH32 0xE9A1B9E79BAEE4B88DE59CA8E58B9FE99B86E4B8AD2E2E2E0000000000000000 PUSH0 DUP3 ADD MSTORE POP JUMP JUMPDEST PUSH0 PUSH2 0x33B PUSH1 0x18 DUP4 PUSH2 0x2F7 JUMP JUMPDEST SWAP2 POP PUSH2 0x346 DUP3 PUSH2 0x307 JUMP JUMPDEST PUSH1 0x20 DUP3 ADD SWAP1 POP SWAP2 SWAP1 POP JUMP JUMPDEST PUSH0 PUSH1 0x20 DUP3 ADD SWAP1 POP DUP2 DUP2 SUB PUSH0 DUP4 ADD MSTORE PUSH2 0x368 DUP2 PUSH2 0x32F JUMP JUMPDEST SWAP1 POP SWAP2 SWAP1 POP JUMP JUMPDEST PUSH32 0x4E487B7100000000000000000000000000000000000000000000000000000000 PUSH0 MSTORE PUSH1 0x11 PUSH1 0x4 MSTORE PUSH1 0x24 PUSH0 REVERT JUMPDEST PUSH0 PUSH2 0x3A6 DUP3 PUSH2 0x23A JUMP JUMPDEST SWAP2 POP PUSH2 0x3B1 DUP4 PUSH2 0x23A JUMP JUMPDEST SWAP3 POP DUP3 DUP3 ADD SWAP1 POP DUP1 DUP3 GT ISZERO PUSH2 0x3C9 JUMPI PUSH2 0x3C8 PUSH2 0x36F JUMP JUMPDEST JUMPDEST SWAP3 SWAP2 POP POP JUMP INVALID LOG2 PUSH5 0x6970667358 0x22 SLT KECCAK256 0xB1 0xEF 0xC1 EXP SWAP2 PUSH3 0xC303FF EXTCALL EXTCODECOPY DUP8 LT 0xC1 AND JUMPF 0x620C 0xEB PUSH26 0x26A75EE233AD4FEAA5C54464736F6C63430008220033000000 "
				},
				"gasEstimates": {
					"creation": {
						"codeDepositCost": "205800",
						"executionCost": "46651",
						"totalCost": "252451"
					},
					"external": {
						"contribute()": "infinite",
						"currentStatus()": "2620",
						"finalSum()": "6890",
						"goal()": "2402",
						"raise()": "2425"
					}
				},
				"methodIdentifiers": {
					"contribute()": "d7bb99ba",
					"currentStatus()": "ef8a9235",
					"finalSum()": "c87fde32",
					"goal()": "40193883",
					"raise()": "b361e198"
				}
			},
			"storageLayout": {
				"storage": [
					{
						"astId": 8,
						"contract": "contracts/2.1/05enum/CrowdFunding.sol:CrowdFunding",
						"label": "goal",
						"offset": 0,
						"slot": "0",
						"type": "t_uint256"
					},
					{
						"astId": 10,
						"contract": "contracts/2.1/05enum/CrowdFunding.sol:CrowdFunding",
						"label": "raise",
						"offset": 0,
						"slot": "1",
						"type": "t_uint256"
					},
					{
						"astId": 15,
						"contract": "contracts/2.1/05enum/CrowdFunding.sol:CrowdFunding",
						"label": "currentStatus",
						"offset": 0,
						"slot": "2",
						"type": "t_enum(ProjectStatus)5"
					}
				],
				"types": {
					"t_enum(ProjectStatus)5": {
						"encoding": "inplace",
						"label": "enum CrowdFunding.ProjectStatus",
						"numberOfBytes": "1"
					},
					"t_uint256": {
						"encoding": "inplace",
						"label": "uint256",
						"numberOfBytes": "32"
					}
				}
			},
			"userdoc": {
				"kind": "user",
				"methods": {},
				"version": 1
			}
		}
	}
}