{
	"contracts/1.2/OptimizedContract.sol": {
		"OptimizedContract": {
			"abi": [
				{
					"inputs": [
						{
							"internalType": "uint256[]",
							"name": "inputs",
							"type": "uint256[]"
						}
					],
					"name": "batchProcess",
					"outputs": [],
					"stateMutability": "nonpayable",
					"type": "function"
				},
				{
					"inputs": [],
					"name": "getSum",
					"outputs": [
						{
							"internalType": "uint256",
							"name": "",
							"type": "uint256"
						}
					],
					"stateMutability": "view",
					"type": "function"
				},
				{
					"inputs": [],
					"name": "multiplier",
					"outputs": [
						{
							"internalType": "uint256",
							"name": "",
							"type": "uint256"
						}
					],
					"stateMutability": "view",
					"type": "function"
				},
				{
					"inputs": [
						{
							"internalType": "uint256",
							"name": "",
							"type": "uint256"
						}
					],
					"name": "numbers",
					"outputs": [
						{
							"internalType": "uint256",
							"name": "",
							"type": "uint256"
						}
					],
					"stateMutability": "view",
					"type": "function"
				}
			],
			"devdoc": {
				"kind": "dev",
				"methods": {},
				"version": 1
			},
			"evm": {
				"assembly": "    /* \"contracts/1.2/OptimizedContract.sol\":58:637  contract OptimizedContract {... */\n  mstore(0x40, 0x80)\n    /* \"contracts/1.2/OptimizedContract.sol\":151:152  2 */\n  0x02\n    /* \"contracts/1.2/OptimizedContract.sol\":123:152  uint256 public multiplier = 2 */\n  0x01\n  sstore\n    /* \"contracts/1.2/OptimizedContract.sol\":58:637  contract OptimizedContract {... */\n  callvalue\n  dup1\n  iszero\n  tag_1\n  jumpi\n  revert(0x00, 0x00)\ntag_1:\n  pop\n  dataSize(sub_0)\n  dup1\n  dataOffset(sub_0)\n  0x00\n  codecopy\n  0x00\n  return\nstop\n\nsub_0: assembly {\n        /* \"contracts/1.2/OptimizedContract.sol\":58:637  contract OptimizedContract {... */\n      mstore(0x40, 0x80)\n      callvalue\n      dup1\n      iszero\n      tag_1\n      jumpi\n      revert(0x00, 0x00)\n    tag_1:\n      pop\n      jumpi(tag_2, lt(calldatasize, 0x04))\n      shr(0xe0, calldataload(0x00))\n      dup1\n      0x1b3ed722\n      eq\n      tag_3\n      jumpi\n      dup1\n      0x540c1018\n      eq\n      tag_4\n      jumpi\n      dup1\n      0x569c5f6d\n      eq\n      tag_5\n      jumpi\n      dup1\n      0xd39fa233\n      eq\n      tag_6\n      jumpi\n    tag_2:\n      revert(0x00, 0x00)\n        /* \"contracts/1.2/OptimizedContract.sol\":123:152  uint256 public multiplier = 2 */\n    tag_3:\n      tag_7\n      tag_8\n      jump\t// in\n    tag_7:\n      mload(0x40)\n      tag_9\n      swap2\n      swap1\n      tag_10\n      jump\t// in\n    tag_9:\n      mload(0x40)\n      dup1\n      swap2\n      sub\n      swap1\n      return\n        /* \"contracts/1.2/OptimizedContract.sol\":161:402  function batchProcess(uint256[] calldata inputs) external {... */\n    tag_4:\n      tag_11\n      0x04\n      dup1\n      calldatasize\n      sub\n      dup2\n      add\n      swap1\n      tag_12\n      swap2\n      swap1\n      tag_13\n      jump\t// in\n    tag_12:\n      tag_14\n      jump\t// in\n    tag_11:\n      stop\n        /* \"contracts/1.2/OptimizedContract.sol\":410:634  function getSum() external view returns (uint256) {... */\n    tag_5:\n      tag_15\n      tag_16\n      jump\t// in\n    tag_15:\n      mload(0x40)\n      tag_17\n      swap2\n      swap1\n      tag_10\n      jump\t// in\n    tag_17:\n      mload(0x40)\n      dup1\n      swap2\n      sub\n      swap1\n      return\n        /* \"contracts/1.2/OptimizedContract.sol\":92:116  uint256[] public numbers */\n    tag_6:\n      tag_18\n      0x04\n      dup1\n      calldatasize\n      sub\n      dup2\n      add\n      swap1\n      tag_19\n      swap2\n      swap1\n      tag_20\n      jump\t// in\n    tag_19:\n      tag_21\n      jump\t// in\n    tag_18:\n      mload(0x40)\n      tag_22\n      swap2\n      swap1\n      tag_10\n      jump\t// in\n    tag_22:\n      mload(0x40)\n      dup1\n      swap2\n      sub\n      swap1\n      return\n        /* \"contracts/1.2/OptimizedContract.sol\":123:152  uint256 public multiplier = 2 */\n    tag_8:\n      sload(0x01)\n      dup2\n      jump\t// out\n        /* \"contracts/1.2/OptimizedContract.sol\":161:402  function batchProcess(uint256[] calldata inputs) external {... */\n    tag_14:\n        /* \"contracts/1.2/OptimizedContract.sol\":230:238  uint len */\n      0x00\n        /* \"contracts/1.2/OptimizedContract.sol\":239:245  inputs */\n      dup3\n      dup3\n        /* \"contracts/1.2/OptimizedContract.sol\":239:252  inputs.length */\n      swap1\n      pop\n        /* \"contracts/1.2/OptimizedContract.sol\":230:252  uint len=inputs.length */\n      swap1\n      pop\n        /* \"contracts/1.2/OptimizedContract.sol\":268:274  uint i */\n      0x00\n        /* \"contracts/1.2/OptimizedContract.sol\":277:278  0 */\n      0x00\n        /* \"contracts/1.2/OptimizedContract.sol\":268:278  uint i = 0 */\n      swap1\n      pop\n        /* \"contracts/1.2/OptimizedContract.sol\":263:395  for (uint i = 0; i < len; i++) {... */\n    tag_24:\n        /* \"contracts/1.2/OptimizedContract.sol\":284:287  len */\n      dup2\n        /* \"contracts/1.2/OptimizedContract.sol\":280:281  i */\n      dup2\n        /* \"contracts/1.2/OptimizedContract.sol\":280:287  i < len */\n      lt\n        /* \"contracts/1.2/OptimizedContract.sol\":263:395  for (uint i = 0; i < len; i++) {... */\n      iszero\n      tag_25\n      jumpi\n        /* \"contracts/1.2/OptimizedContract.sol\":309:323  uint256 result */\n      0x00\n        /* \"contracts/1.2/OptimizedContract.sol\":338:348  multiplier */\n      sload(0x01)\n        /* \"contracts/1.2/OptimizedContract.sol\":326:332  inputs */\n      dup6\n      dup6\n        /* \"contracts/1.2/OptimizedContract.sol\":333:334  i */\n      dup5\n        /* \"contracts/1.2/OptimizedContract.sol\":326:335  inputs[i] */\n      dup2\n      dup2\n      lt\n      tag_27\n      jumpi\n      tag_28\n      tag_29\n      jump\t// in\n    tag_28:\n    tag_27:\n      swap1\n      pop\n      0x20\n      mul\n      add\n      calldataload\n        /* \"contracts/1.2/OptimizedContract.sol\":326:348  inputs[i] * multiplier */\n      tag_30\n      swap2\n      swap1\n      tag_31\n      jump\t// in\n    tag_30:\n        /* \"contracts/1.2/OptimizedContract.sol\":309:348  uint256 result = inputs[i] * multiplier */\n      swap1\n      pop\n        /* \"contracts/1.2/OptimizedContract.sol\":363:370  numbers */\n      0x00\n        /* \"contracts/1.2/OptimizedContract.sol\":376:382  result */\n      dup2\n        /* \"contracts/1.2/OptimizedContract.sol\":363:383  numbers.push(result) */\n      swap1\n      dup1\n      0x01\n      dup2\n      sload\n      add\n      dup1\n      dup3\n      sstore\n      dup1\n      swap2\n      pop\n      pop\n      0x01\n      swap1\n      sub\n      swap1\n      0x00\n      mstore\n      keccak256(0x00, 0x20)\n      add\n      0x00\n      swap1\n      swap2\n      swap1\n      swap2\n      swap1\n      swap2\n      pop\n      sstore\n        /* \"contracts/1.2/OptimizedContract.sol\":294:395  {... */\n      pop\n        /* \"contracts/1.2/OptimizedContract.sol\":289:292  i++ */\n      dup1\n      dup1\n      0x01\n      add\n      swap2\n      pop\n      pop\n        /* \"contracts/1.2/OptimizedContract.sol\":263:395  for (uint i = 0; i < len; i++) {... */\n      jump(tag_24)\n    tag_25:\n      pop\n        /* \"contracts/1.2/OptimizedContract.sol\":219:402  {... */\n      pop\n        /* \"contracts/1.2/OptimizedContract.sol\":161:402  function batchProcess(uint256[] calldata inputs) external {... */\n      pop\n      pop\n      jump\t// out\n        /* \"contracts/1.2/OptimizedContract.sol\":410:634  function getSum() external view returns (uint256) {... */\n    tag_16:\n        /* \"contracts/1.2/OptimizedContract.sol\":451:458  uint256 */\n      0x00\n        /* \"contracts/1.2/OptimizedContract.sol\":471:482  uint256 sum */\n      0x00\n        /* \"contracts/1.2/OptimizedContract.sol\":485:486  0 */\n      0x00\n        /* \"contracts/1.2/OptimizedContract.sol\":471:486  uint256 sum = 0 */\n      swap1\n      pop\n        /* \"contracts/1.2/OptimizedContract.sol\":497:505  uint len */\n      0x00\n        /* \"contracts/1.2/OptimizedContract.sol\":506:513  numbers */\n      0x00\n        /* \"contracts/1.2/OptimizedContract.sol\":506:520  numbers.length */\n      dup1\n      sload\n      swap1\n      pop\n        /* \"contracts/1.2/OptimizedContract.sol\":497:520  uint len=numbers.length */\n      swap1\n      pop\n        /* \"contracts/1.2/OptimizedContract.sol\":536:542  uint i */\n      0x00\n        /* \"contracts/1.2/OptimizedContract.sol\":545:546  0 */\n      0x00\n        /* \"contracts/1.2/OptimizedContract.sol\":536:546  uint i = 0 */\n      swap1\n      pop\n        /* \"contracts/1.2/OptimizedContract.sol\":531:606  for (uint i = 0; i < len; i++) {... */\n    tag_34:\n        /* \"contracts/1.2/OptimizedContract.sol\":552:555  len */\n      dup2\n        /* \"contracts/1.2/OptimizedContract.sol\":548:549  i */\n      dup2\n        /* \"contracts/1.2/OptimizedContract.sol\":548:555  i < len */\n      lt\n        /* \"contracts/1.2/OptimizedContract.sol\":531:606  for (uint i = 0; i < len; i++) {... */\n      iszero\n      tag_35\n      jumpi\n        /* \"contracts/1.2/OptimizedContract.sol\":584:591  numbers */\n      0x00\n        /* \"contracts/1.2/OptimizedContract.sol\":592:593  i */\n      dup2\n        /* \"contracts/1.2/OptimizedContract.sol\":584:594  numbers[i] */\n      dup2\n      sload\n      dup2\n      lt\n      tag_37\n      jumpi\n      tag_38\n      tag_29\n      jump\t// in\n    tag_38:\n    tag_37:\n      swap1\n      0x00\n      mstore\n      keccak256(0x00, 0x20)\n      add\n      sload\n        /* \"contracts/1.2/OptimizedContract.sol\":577:594  sum += numbers[i] */\n      dup4\n      tag_40\n      swap2\n      swap1\n      tag_41\n      jump\t// in\n    tag_40:\n      swap3\n      pop\n        /* \"contracts/1.2/OptimizedContract.sol\":557:560  i++ */\n      dup1\n      dup1\n      0x01\n      add\n      swap2\n      pop\n      pop\n        /* \"contracts/1.2/OptimizedContract.sol\":531:606  for (uint i = 0; i < len; i++) {... */\n      jump(tag_34)\n    tag_35:\n      pop\n        /* \"contracts/1.2/OptimizedContract.sol\":623:626  sum */\n      dup2\n        /* \"contracts/1.2/OptimizedContract.sol\":616:626  return sum */\n      swap3\n      pop\n      pop\n      pop\n        /* \"contracts/1.2/OptimizedContract.sol\":410:634  function getSum() external view returns (uint256) {... */\n      swap1\n      jump\t// out\n        /* \"contracts/1.2/OptimizedContract.sol\":92:116  uint256[] public numbers */\n    tag_21:\n      0x00\n      dup2\n      dup2\n      sload\n      dup2\n      lt\n      tag_42\n      jumpi\n      0x00\n      dup1\n      revert\n    tag_42:\n      swap1\n      0x00\n      mstore\n      keccak256(0x00, 0x20)\n      add\n      0x00\n      swap2\n      pop\n      swap1\n      pop\n      sload\n      dup2\n      jump\t// out\n        /* \"#utility.yul\":7:84   */\n    tag_44:\n        /* \"#utility.yul\":44:51   */\n      0x00\n        /* \"#utility.yul\":73:78   */\n      dup2\n        /* \"#utility.yul\":62:78   */\n      swap1\n      pop\n        /* \"#utility.yul\":7:84   */\n      swap2\n      swap1\n      pop\n      jump\t// out\n        /* \"#utility.yul\":90:208   */\n    tag_45:\n        /* \"#utility.yul\":177:201   */\n      tag_59\n        /* \"#utility.yul\":195:200   */\n      dup2\n        /* \"#utility.yul\":177:201   */\n      tag_44\n      jump\t// in\n    tag_59:\n        /* \"#utility.yul\":172:175   */\n      dup3\n        /* \"#utility.yul\":165:202   */\n      mstore\n        /* \"#utility.yul\":90:208   */\n      pop\n      pop\n      jump\t// out\n        /* \"#utility.yul\":214:436   */\n    tag_10:\n        /* \"#utility.yul\":307:311   */\n      0x00\n        /* \"#utility.yul\":345:347   */\n      0x20\n        /* \"#utility.yul\":334:343   */\n      dup3\n        /* \"#utility.yul\":330:348   */\n      add\n        /* \"#utility.yul\":322:348   */\n      swap1\n      pop\n        /* \"#utility.yul\":358:429   */\n      tag_61\n        /* \"#utility.yul\":426:427   */\n      0x00\n        /* \"#utility.yul\":415:424   */\n      dup4\n        /* \"#utility.yul\":411:428   */\n      add\n        /* \"#utility.yul\":402:408   */\n      dup5\n        /* \"#utility.yul\":358:429   */\n      tag_45\n      jump\t// in\n    tag_61:\n        /* \"#utility.yul\":214:436   */\n      swap3\n      swap2\n      pop\n      pop\n      jump\t// out\n        /* \"#utility.yul\":523:640   */\n    tag_47:\n        /* \"#utility.yul\":632:633   */\n      0x00\n        /* \"#utility.yul\":629:630   */\n      0x00\n        /* \"#utility.yul\":622:634   */\n      revert\n        /* \"#utility.yul\":646:763   */\n    tag_48:\n        /* \"#utility.yul\":755:756   */\n      0x00\n        /* \"#utility.yul\":752:753   */\n      0x00\n        /* \"#utility.yul\":745:757   */\n      revert\n        /* \"#utility.yul\":769:886   */\n    tag_49:\n        /* \"#utility.yul\":878:879   */\n      0x00\n        /* \"#utility.yul\":875:876   */\n      0x00\n        /* \"#utility.yul\":868:880   */\n      revert\n        /* \"#utility.yul\":892:1009   */\n    tag_50:\n        /* \"#utility.yul\":1001:1002   */\n      0x00\n        /* \"#utility.yul\":998:999   */\n      0x00\n        /* \"#utility.yul\":991:1003   */\n      revert\n        /* \"#utility.yul\":1015:1132   */\n    tag_51:\n        /* \"#utility.yul\":1124:1125   */\n      0x00\n        /* \"#utility.yul\":1121:1122   */\n      0x00\n        /* \"#utility.yul\":1114:1126   */\n      revert\n        /* \"#utility.yul\":1155:1723   */\n    tag_52:\n        /* \"#utility.yul\":1228:1236   */\n      0x00\n        /* \"#utility.yul\":1238:1244   */\n      0x00\n        /* \"#utility.yul\":1288:1291   */\n      dup4\n        /* \"#utility.yul\":1281:1285   */\n      0x1f\n        /* \"#utility.yul\":1273:1279   */\n      dup5\n        /* \"#utility.yul\":1269:1286   */\n      add\n        /* \"#utility.yul\":1265:1292   */\n      slt\n        /* \"#utility.yul\":1255:1377   */\n      tag_69\n      jumpi\n        /* \"#utility.yul\":1296:1375   */\n      tag_70\n      tag_49\n      jump\t// in\n    tag_70:\n        /* \"#utility.yul\":1255:1377   */\n    tag_69:\n        /* \"#utility.yul\":1409:1415   */\n      dup3\n        /* \"#utility.yul\":1396:1416   */\n      calldataload\n        /* \"#utility.yul\":1386:1416   */\n      swap1\n      pop\n        /* \"#utility.yul\":1439:1457   */\n      0xffffffffffffffff\n        /* \"#utility.yul\":1431:1437   */\n      dup2\n        /* \"#utility.yul\":1428:1458   */\n      gt\n        /* \"#utility.yul\":1425:1542   */\n      iszero\n      tag_71\n      jumpi\n        /* \"#utility.yul\":1461:1540   */\n      tag_72\n      tag_50\n      jump\t// in\n    tag_72:\n        /* \"#utility.yul\":1425:1542   */\n    tag_71:\n        /* \"#utility.yul\":1575:1579   */\n      0x20\n        /* \"#utility.yul\":1567:1573   */\n      dup4\n        /* \"#utility.yul\":1563:1580   */\n      add\n        /* \"#utility.yul\":1551:1580   */\n      swap2\n      pop\n        /* \"#utility.yul\":1629:1632   */\n      dup4\n        /* \"#utility.yul\":1621:1625   */\n      0x20\n        /* \"#utility.yul\":1613:1619   */\n      dup3\n        /* \"#utility.yul\":1609:1626   */\n      mul\n        /* \"#utility.yul\":1599:1607   */\n      dup4\n        /* \"#utility.yul\":1595:1627   */\n      add\n        /* \"#utility.yul\":1592:1633   */\n      gt\n        /* \"#utility.yul\":1589:1717   */\n      iszero\n      tag_73\n      jumpi\n        /* \"#utility.yul\":1636:1715   */\n      tag_74\n      tag_51\n      jump\t// in\n    tag_74:\n        /* \"#utility.yul\":1589:1717   */\n    tag_73:\n        /* \"#utility.yul\":1155:1723   */\n      swap3\n      pop\n      swap3\n      swap1\n      pop\n      jump\t// out\n        /* \"#utility.yul\":1729:2288   */\n    tag_13:\n        /* \"#utility.yul\":1815:1821   */\n      0x00\n        /* \"#utility.yul\":1823:1829   */\n      0x00\n        /* \"#utility.yul\":1872:1874   */\n      0x20\n        /* \"#utility.yul\":1860:1869   */\n      dup4\n        /* \"#utility.yul\":1851:1858   */\n      dup6\n        /* \"#utility.yul\":1847:1870   */\n      sub\n        /* \"#utility.yul\":1843:1875   */\n      slt\n        /* \"#utility.yul\":1840:1959   */\n      iszero\n      tag_76\n      jumpi\n        /* \"#utility.yul\":1878:1957   */\n      tag_77\n      tag_47\n      jump\t// in\n    tag_77:\n        /* \"#utility.yul\":1840:1959   */\n    tag_76:\n        /* \"#utility.yul\":2026:2027   */\n      0x00\n        /* \"#utility.yul\":2015:2024   */\n      dup4\n        /* \"#utility.yul\":2011:2028   */\n      add\n        /* \"#utility.yul\":1998:2029   */\n      calldataload\n        /* \"#utility.yul\":2056:2074   */\n      0xffffffffffffffff\n        /* \"#utility.yul\":2048:2054   */\n      dup2\n        /* \"#utility.yul\":2045:2075   */\n      gt\n        /* \"#utility.yul\":2042:2159   */\n      iszero\n      tag_78\n      jumpi\n        /* \"#utility.yul\":2078:2157   */\n      tag_79\n      tag_48\n      jump\t// in\n    tag_79:\n        /* \"#utility.yul\":2042:2159   */\n    tag_78:\n        /* \"#utility.yul\":2191:2271   */\n      tag_80\n        /* \"#utility.yul\":2263:2270   */\n      dup6\n        /* \"#utility.yul\":2254:2260   */\n      dup3\n        /* \"#utility.yul\":2243:2252   */\n      dup7\n        /* \"#utility.yul\":2239:2261   */\n      add\n        /* \"#utility.yul\":2191:2271   */\n      tag_52\n      jump\t// in\n    tag_80:\n        /* \"#utility.yul\":2173:2271   */\n      swap3\n      pop\n      swap3\n      pop\n        /* \"#utility.yul\":1969:2281   */\n      pop\n        /* \"#utility.yul\":1729:2288   */\n      swap3\n      pop\n      swap3\n      swap1\n      pop\n      jump\t// out\n        /* \"#utility.yul\":2294:2416   */\n    tag_53:\n        /* \"#utility.yul\":2367:2391   */\n      tag_82\n        /* \"#utility.yul\":2385:2390   */\n      dup2\n        /* \"#utility.yul\":2367:2391   */\n      tag_44\n      jump\t// in\n    tag_82:\n        /* \"#utility.yul\":2360:2365   */\n      dup2\n        /* \"#utility.yul\":2357:2392   */\n      eq\n        /* \"#utility.yul\":2347:2410   */\n      tag_83\n      jumpi\n        /* \"#utility.yul\":2406:2407   */\n      0x00\n        /* \"#utility.yul\":2403:2404   */\n      0x00\n        /* \"#utility.yul\":2396:2408   */\n      revert\n        /* \"#utility.yul\":2347:2410   */\n    tag_83:\n        /* \"#utility.yul\":2294:2416   */\n      pop\n      jump\t// out\n        /* \"#utility.yul\":2422:2561   */\n    tag_54:\n        /* \"#utility.yul\":2468:2473   */\n      0x00\n        /* \"#utility.yul\":2506:2512   */\n      dup2\n        /* \"#utility.yul\":2493:2513   */\n      calldataload\n        /* \"#utility.yul\":2484:2513   */\n      swap1\n      pop\n        /* \"#utility.yul\":2522:2555   */\n      tag_85\n        /* \"#utility.yul\":2549:2554   */\n      dup2\n        /* \"#utility.yul\":2522:2555   */\n      tag_53\n      jump\t// in\n    tag_85:\n        /* \"#utility.yul\":2422:2561   */\n      swap3\n      swap2\n      pop\n      pop\n      jump\t// out\n        /* \"#utility.yul\":2567:2896   */\n    tag_20:\n        /* \"#utility.yul\":2626:2632   */\n      0x00\n        /* \"#utility.yul\":2675:2677   */\n      0x20\n        /* \"#utility.yul\":2663:2672   */\n      dup3\n        /* \"#utility.yul\":2654:2661   */\n      dup5\n        /* \"#utility.yul\":2650:2673   */\n      sub\n        /* \"#utility.yul\":2646:2678   */\n      slt\n        /* \"#utility.yul\":2643:2762   */\n      iszero\n      tag_87\n      jumpi\n        /* \"#utility.yul\":2681:2760   */\n      tag_88\n      tag_47\n      jump\t// in\n    tag_88:\n        /* \"#utility.yul\":2643:2762   */\n    tag_87:\n        /* \"#utility.yul\":2801:2802   */\n      0x00\n        /* \"#utility.yul\":2826:2879   */\n      tag_89\n        /* \"#utility.yul\":2871:2878   */\n      dup5\n        /* \"#utility.yul\":2862:2868   */\n      dup3\n        /* \"#utility.yul\":2851:2860   */\n      dup6\n        /* \"#utility.yul\":2847:2869   */\n      add\n        /* \"#utility.yul\":2826:2879   */\n      tag_54\n      jump\t// in\n    tag_89:\n        /* \"#utility.yul\":2816:2879   */\n      swap2\n      pop\n        /* \"#utility.yul\":2772:2889   */\n      pop\n        /* \"#utility.yul\":2567:2896   */\n      swap3\n      swap2\n      pop\n      pop\n      jump\t// out\n        /* \"#utility.yul\":2902:3082   */\n    tag_29:\n        /* \"#utility.yul\":2950:3027   */\n      0x4e487b7100000000000000000000000000000000000000000000000000000000\n        /* \"#utility.yul\":2947:2948   */\n      0x00\n        /* \"#utility.yul\":2940:3028   */\n      mstore\n        /* \"#utility.yul\":3047:3051   */\n      0x32\n        /* \"#utility.yul\":3044:3045   */\n      0x04\n        /* \"#utility.yul\":3037:3052   */\n      mstore\n        /* \"#utility.yul\":3071:3075   */\n      0x24\n        /* \"#utility.yul\":3068:3069   */\n      0x00\n        /* \"#utility.yul\":3061:3076   */\n      revert\n        /* \"#utility.yul\":3088:3268   */\n    tag_55:\n        /* \"#utility.yul\":3136:3213   */\n      0x4e487b7100000000000000000000000000000000000000000000000000000000\n        /* \"#utility.yul\":3133:3134   */\n      0x00\n        /* \"#utility.yul\":3126:3214   */\n      mstore\n        /* \"#utility.yul\":3233:3237   */\n      0x11\n        /* \"#utility.yul\":3230:3231   */\n      0x04\n        /* \"#utility.yul\":3223:3238   */\n      mstore\n        /* \"#utility.yul\":3257:3261   */\n      0x24\n        /* \"#utility.yul\":3254:3255   */\n      0x00\n        /* \"#utility.yul\":3247:3262   */\n      revert\n        /* \"#utility.yul\":3274:3684   */\n    tag_31:\n        /* \"#utility.yul\":3314:3321   */\n      0x00\n        /* \"#utility.yul\":3337:3357   */\n      tag_93\n        /* \"#utility.yul\":3355:3356   */\n      dup3\n        /* \"#utility.yul\":3337:3357   */\n      tag_44\n      jump\t// in\n    tag_93:\n        /* \"#utility.yul\":3332:3357   */\n      swap2\n      pop\n        /* \"#utility.yul\":3371:3391   */\n      tag_94\n        /* \"#utility.yul\":3389:3390   */\n      dup4\n        /* \"#utility.yul\":3371:3391   */\n      tag_44\n      jump\t// in\n    tag_94:\n        /* \"#utility.yul\":3366:3391   */\n      swap3\n      pop\n        /* \"#utility.yul\":3426:3427   */\n      dup3\n        /* \"#utility.yul\":3423:3424   */\n      dup3\n        /* \"#utility.yul\":3419:3428   */\n      mul\n        /* \"#utility.yul\":3448:3478   */\n      tag_95\n        /* \"#utility.yul\":3466:3477   */\n      dup2\n        /* \"#utility.yul\":3448:3478   */\n      tag_44\n      jump\t// in\n    tag_95:\n        /* \"#utility.yul\":3437:3478   */\n      swap2\n      pop\n        /* \"#utility.yul\":3627:3628   */\n      dup3\n        /* \"#utility.yul\":3618:3625   */\n      dup3\n        /* \"#utility.yul\":3614:3629   */\n      div\n        /* \"#utility.yul\":3611:3612   */\n      dup5\n        /* \"#utility.yul\":3608:3630   */\n      eq\n        /* \"#utility.yul\":3588:3589   */\n      dup4\n        /* \"#utility.yul\":3581:3590   */\n      iszero\n        /* \"#utility.yul\":3561:3644   */\n      or\n        /* \"#utility.yul\":3538:3677   */\n      tag_96\n      jumpi\n        /* \"#utility.yul\":3657:3675   */\n      tag_97\n      tag_55\n      jump\t// in\n    tag_97:\n        /* \"#utility.yul\":3538:3677   */\n    tag_96:\n        /* \"#utility.yul\":3322:3684   */\n      pop\n        /* \"#utility.yul\":3274:3684   */\n      swap3\n      swap2\n      pop\n      pop\n      jump\t// out\n        /* \"#utility.yul\":3690:3881   */\n    tag_41:\n        /* \"#utility.yul\":3730:3733   */\n      0x00\n        /* \"#utility.yul\":3749:3769   */\n      tag_99\n        /* \"#utility.yul\":3767:3768   */\n      dup3\n        /* \"#utility.yul\":3749:3769   */\n      tag_44\n      jump\t// in\n    tag_99:\n        /* \"#utility.yul\":3744:3769   */\n      swap2\n      pop\n        /* \"#utility.yul\":3783:3803   */\n      tag_100\n        /* \"#utility.yul\":3801:3802   */\n      dup4\n        /* \"#utility.yul\":3783:3803   */\n      tag_44\n      jump\t// in\n    tag_100:\n        /* \"#utility.yul\":3778:3803   */\n      swap3\n      pop\n        /* \"#utility.yul\":3826:3827   */\n      dup3\n        /* \"#utility.yul\":3823:3824   */\n      dup3\n        /* \"#utility.yul\":3819:3828   */\n      add\n        /* \"#utility.yul\":3812:3828   */\n      swap1\n      pop\n        /* \"#utility.yul\":3847:3850   */\n      dup1\n        /* \"#utility.yul\":3844:3845   */\n      dup3\n        /* \"#utility.yul\":3841:3851   */\n      gt\n        /* \"#utility.yul\":3838:3874   */\n      iszero\n      tag_101\n      jumpi\n        /* \"#utility.yul\":3854:3872   */\n      tag_102\n      tag_55\n      jump\t// in\n    tag_102:\n        /* \"#utility.yul\":3838:3874   */\n    tag_101:\n        /* \"#utility.yul\":3690:3881   */\n      swap3\n      swap2\n      pop\n      pop\n      jump\t// out\n\n    auxdata: 0xa2646970667358221220ec3287a9e2683eda22af7a4005f3b61ef00dd22857adaa131e7e5a2567a3ca1864736f6c63430008220033\n}\n",
				"bytecode": {
					"linkReferences": {},
					"object": "608060405260026001553480156013575f5ffd5b50610409806100215f395ff3fe608060405234801561000f575f5ffd5b506004361061004a575f3560e01c80631b3ed7221461004e578063540c10181461006c578063569c5f6d14610088578063d39fa233146100a6575b5f5ffd5b6100566100d6565b60405161006391906101e3565b60405180910390f35b61008660048036038101906100819190610265565b6100dc565b005b610090610153565b60405161009d91906101e3565b60405180910390f35b6100c060048036038101906100bb91906102da565b6101ac565b6040516100cd91906101e3565b60405180910390f35b60015481565b5f8282905090505f5f90505b8181101561014d575f60015485858481811061010757610106610305565b5b90506020020135610118919061035f565b90505f81908060018154018082558091505060019003905f5260205f20015f90919091909150555080806001019150506100e8565b50505050565b5f5f5f90505f5f8054905090505f5f90505b818110156101a3575f81815481106101805761017f610305565b5b905f5260205f2001548361019491906103a0565b92508080600101915050610165565b50819250505090565b5f81815481106101ba575f80fd5b905f5260205f20015f915090505481565b5f819050919050565b6101dd816101cb565b82525050565b5f6020820190506101f65f8301846101d4565b92915050565b5f5ffd5b5f5ffd5b5f5ffd5b5f5ffd5b5f5ffd5b5f5f83601f84011261022557610224610204565b5b8235905067ffffffffffffffff81111561024257610241610208565b5b60208301915083602082028301111561025e5761025d61020c565b5b9250929050565b5f5f6020838503121561027b5761027a6101fc565b5b5f83013567ffffffffffffffff81111561029857610297610200565b5b6102a485828601610210565b92509250509250929050565b6102b9816101cb565b81146102c3575f5ffd5b50565b5f813590506102d4816102b0565b92915050565b5f602082840312156102ef576102ee6101fc565b5b5f6102fc848285016102c6565b91505092915050565b7f4e487b71000000000000000000000000000000000000000000000000000000005f52603260045260245ffd5b7f4e487b71000000000000000000000000000000000000000000000000000000005f52601160045260245ffd5b5f610369826101cb565b9150610374836101cb565b9250828202610382816101cb565b9150828204841483151761039957610398610332565b5b5092915050565b5f6103aa826101cb565b91506103b5836101cb565b92508282019050808211156103cd576103cc610332565b5b9291505056fea2646970667358221220ec3287a9e2683eda22af7a4005f3b61ef00dd22857adaa131e7e5a2567a3ca1864736f6c63430008220033",
					"opcodes": "PUSH1 0x80 PUSH1 0x40 MSTORE PUSH1 0x2 PUSH1 0x1 SSTORE CALLVALUE DUP1 ISZERO PUSH1 0x13 JUMPI PUSH0 PUSH0 REVERT JUMPDEST POP PUSH2 0x409 DUP1 PUSH2 0x21 PUSH0 CODECOPY PUSH0 RETURN INVALID PUSH1 0x80 PUSH1 0x40 MSTORE CALLVALUE DUP1 ISZERO PUSH2 0xF JUMPI PUSH0 PUSH0 REVERT JUMPDEST POP PUSH1 0x4 CALLDATASIZE LT PUSH2 0x4A JUMPI PUSH0 CALLDATALOAD PUSH1 0xE0 SHR DUP1 PUSH4 0x1B3ED722 EQ PUSH2 0x4E JUMPI DUP1 PUSH4 0x540C1018 EQ PUSH2 0x6C JUMPI DUP1 PUSH4 0x569C5F6D EQ PUSH2 0x88 JUMPI DUP1 PUSH4 0xD39FA233 EQ PUSH2 0xA6 JUMPI JUMPDEST PUSH0 PUSH0 REVERT JUMPDEST PUSH2 0x56 PUSH2 0xD6 JUMP JUMPDEST PUSH1 0x40 MLOAD PUSH2 0x63 SWAP2 SWAP1 PUSH2 0x1E3 JUMP JUMPDEST PUSH1 0x40 MLOAD DUP1 SWAP2 SUB SWAP1 RETURN JUMPDEST PUSH2 0x86 PUSH1 0x4 DUP1 CALLDATASIZE SUB DUP2 ADD SWAP1 PUSH2 0x81 SWAP2 SWAP1 PUSH2 0x265 JUMP JUMPDEST PUSH2 0xDC JUMP JUMPDEST STOP JUMPDEST PUSH2 0x90 PUSH2 0x153 JUMP JUMPDEST PUSH1 0x40 MLOAD PUSH2 0x9D SWAP2 SWAP1 PUSH2 0x1E3 JUMP JUMPDEST PUSH1 0x40 MLOAD DUP1 SWAP2 SUB SWAP1 RETURN JUMPDEST PUSH2 0xC0 PUSH1 0x4 DUP1 CALLDATASIZE SUB DUP2 ADD SWAP1 PUSH2 0xBB SWAP2 SWAP1 PUSH2 0x2DA JUMP JUMPDEST PUSH2 0x1AC JUMP JUMPDEST PUSH1 0x40 MLOAD PUSH2 0xCD SWAP2 SWAP1 PUSH2 0x1E3 JUMP JUMPDEST PUSH1 0x40 MLOAD DUP1 SWAP2 SUB SWAP1 RETURN JUMPDEST PUSH1 0x1 SLOAD DUP2 JUMP JUMPDEST PUSH0 DUP3 DUP3 SWAP1 POP SWAP1 POP PUSH0 PUSH0 SWAP1 POP JUMPDEST DUP2 DUP2 LT ISZERO PUSH2 0x14D JUMPI PUSH0 PUSH1 0x1 SLOAD DUP6 DUP6 DUP5 DUP2 DUP2 LT PUSH2 0x107 JUMPI PUSH2 0x106 PUSH2 0x305 JUMP JUMPDEST JUMPDEST SWAP1 POP PUSH1 0x20 MUL ADD CALLDATALOAD PUSH2 0x118 SWAP2 SWAP1 PUSH2 0x35F JUMP JUMPDEST SWAP1 POP PUSH0 DUP2 SWAP1 DUP1 PUSH1 0x1 DUP2 SLOAD ADD DUP1 DUP3 SSTORE DUP1 SWAP2 POP POP PUSH1 0x1 SWAP1 SUB SWAP1 PUSH0 MSTORE PUSH1 0x20 PUSH0 KECCAK256 ADD PUSH0 SWAP1 SWAP2 SWAP1 SWAP2 SWAP1 SWAP2 POP SSTORE POP DUP1 DUP1 PUSH1 0x1 ADD SWAP2 POP POP PUSH2 0xE8 JUMP JUMPDEST POP POP POP POP JUMP JUMPDEST PUSH0 PUSH0 PUSH0 SWAP1 POP PUSH0 PUSH0 DUP1 SLOAD SWAP1 POP SWAP1 POP PUSH0 PUSH0 SWAP1 POP JUMPDEST DUP2 DUP2 LT ISZERO PUSH2 0x1A3 JUMPI PUSH0 DUP2 DUP2 SLOAD DUP2 LT PUSH2 0x180 JUMPI PUSH2 0x17F PUSH2 0x305 JUMP JUMPDEST JUMPDEST SWAP1 PUSH0 MSTORE PUSH1 0x20 PUSH0 KECCAK256 ADD SLOAD DUP4 PUSH2 0x194 SWAP2 SWAP1 PUSH2 0x3A0 JUMP JUMPDEST SWAP3 POP DUP1 DUP1 PUSH1 0x1 ADD SWAP2 POP POP PUSH2 0x165 JUMP JUMPDEST POP DUP2 SWAP3 POP POP POP SWAP1 JUMP JUMPDEST PUSH0 DUP2 DUP2 SLOAD DUP2 LT PUSH2 0x1BA JUMPI PUSH0 DUP1 REVERT JUMPDEST SWAP1 PUSH0 MSTORE PUSH1 0x20 PUSH0 KECCAK256 ADD PUSH0 SWAP2 POP SWAP1 POP SLOAD DUP2 JUMP JUMPDEST PUSH0 DUP2 SWAP1 POP SWAP2 SWAP1 POP JUMP JUMPDEST PUSH2 0x1DD DUP2 PUSH2 0x1CB JUMP JUMPDEST DUP3 MSTORE POP POP JUMP JUMPDEST PUSH0 PUSH1 0x20 DUP3 ADD SWAP1 POP PUSH2 0x1F6 PUSH0 DUP4 ADD DUP5 PUSH2 0x1D4 JUMP JUMPDEST SWAP3 SWAP2 POP POP JUMP JUMPDEST PUSH0 PUSH0 REVERT JUMPDEST PUSH0 PUSH0 REVERT JUMPDEST PUSH0 PUSH0 REVERT JUMPDEST PUSH0 PUSH0 REVERT JUMPDEST PUSH0 PUSH0 REVERT JUMPDEST PUSH0 PUSH0 DUP4 PUSH1 0x1F DUP5 ADD SLT PUSH2 0x225 JUMPI PUSH2 0x224 PUSH2 0x204 JUMP JUMPDEST JUMPDEST DUP3 CALLDATALOAD SWAP1 POP PUSH8 0xFFFFFFFFFFFFFFFF DUP2 GT ISZERO PUSH2 0x242 JUMPI PUSH2 0x241 PUSH2 0x208 JUMP JUMPDEST JUMPDEST PUSH1 0x20 DUP4 ADD SWAP2 POP DUP4 PUSH1 0x20 DUP3 MUL DUP4 ADD GT ISZERO PUSH2 0x25E JUMPI PUSH2 0x25D PUSH2 0x20C JUMP JUMPDEST JUMPDEST SWAP3 POP SWAP3 SWAP1 POP JUMP JUMPDEST PUSH0 PUSH0 PUSH1 0x20 DUP4 DUP6 SUB SLT ISZERO PUSH2 0x27B JUMPI PUSH2 0x27A PUSH2 0x1FC JUMP JUMPDEST JUMPDEST PUSH0 DUP4 ADD CALLDATALOAD PUSH8 0xFFFFFFFFFFFFFFFF DUP2 GT ISZERO PUSH2 0x298 JUMPI PUSH2 0x297 PUSH2 0x200 JUMP JUMPDEST JUMPDEST PUSH2 0x2A4 DUP6 DUP3 DUP7 ADD PUSH2 0x210 JUMP JUMPDEST SWAP3 POP SWAP3 POP POP SWAP3 POP SWAP3 SWAP1 POP JUMP JUMPDEST PUSH2 0x2B9 DUP2 PUSH2 0x1CB JUMP JUMPDEST DUP2 EQ PUSH2 0x2C3 JUMPI PUSH0 PUSH0 REVERT JUMPDEST POP JUMP JUMPDEST PUSH0 DUP2 CALLDATALOAD SWAP1 POP PUSH2 0x2D4 DUP2 PUSH2 0x2B0 JUMP JUMPDEST SWAP3 SWAP2 POP POP JUMP JUMPDEST PUSH0 PUSH1 0x20 DUP3 DUP5 SUB SLT ISZERO PUSH2 0x2EF JUMPI PUSH2 0x2EE PUSH2 0x1FC JUMP JUMPDEST JUMPDEST PUSH0 PUSH2 0x2FC DUP5 DUP3 DUP6 ADD PUSH2 0x2C6 JUMP JUMPDEST SWAP2 POP POP SWAP3 SWAP2 POP POP JUMP JUMPDEST PUSH32 0x4E487B7100000000000000000000000000000000000000000000000000000000 PUSH0 MSTORE PUSH1 0x32 PUSH1 0x4 MSTORE PUSH1 0x24 PUSH0 REVERT JUMPDEST PUSH32 0x4E487B7100000000000000000000000000000000000000000000000000000000 PUSH0 MSTORE PUSH1 0x11 PUSH1 0x4 MSTORE PUSH1 0x24 PUSH0 REVERT JUMPDEST PUSH0 PUSH2 0x369 DUP3 PUSH2 0x1CB JUMP JUMPDEST SWAP2 POP PUSH2 0x374 DUP4 PUSH2 0x1CB JUMP JUMPDEST SWAP3 POP DUP3 DUP3 MUL PUSH2 0x382 DUP2 PUSH2 0x1CB JUMP JUMPDEST SWAP2 POP DUP3 DUP3 DIV DUP5 EQ DUP4 ISZERO OR PUSH2 0x399 JUMPI PUSH2 0x398 PUSH2 0x332 JUMP JUMPDEST JUMPDEST POP SWAP3 SWAP2 POP POP JUMP JUMPDEST PUSH0 PUSH2 0x3AA DUP3 PUSH2 0x1CB JUMP JUMPDEST SWAP2 POP PUSH2 0x3B5 DUP4 PUSH2 0x1CB JUMP JUMPDEST SWAP3 POP DUP3 DUP3 ADD SWAP1 POP DUP1 DUP3 GT ISZERO PUSH2 0x3CD JUMPI PUSH2 0x3CC PUSH2 0x332 JUMP JUMPDEST JUMPDEST SWAP3 SWAP2 POP POP JUMP INVALID LOG2 PUSH5 0x6970667358 0x22 SLT KECCAK256 EOFCREATE 0x32 DUP8 0xA9 0xE2 PUSH9 0x3EDA22AF7A4005F3B6 CLZ CREATE 0xD 0xD2 0x28 JUMPI 0xAD 0xAA SGT CLZ PUSH31 0x5A2567A3CA1864736F6C634300082200330000000000000000000000000000 "
				},
				"gasEstimates": {
					"creation": {
						"codeDepositCost": "206600",
						"executionCost": "22355",
						"totalCost": "228955"
					},
					"external": {
						"batchProcess(uint256[])": "infinite",
						"getSum()": "infinite",
						"multiplier()": "2403",
						"numbers(uint256)": "infinite"
					}
				},
				"methodIdentifiers": {
					"batchProcess(uint256[])": "540c1018",
					"getSum()": "569c5f6d",
					"multiplier()": "1b3ed722",
					"numbers(uint256)": "d39fa233"
				}
			},
			"storageLayout": {
				"storage": [
					{
						"astId": 4,
						"contract": "contracts/1.2/OptimizedContract.sol:OptimizedContract",
						"label": "numbers",
						"offset": 0,
						"slot": "0",
						"type": "t_array(t_uint256)dyn_storage"
					},
					{
						"astId": 7,
						"contract": "contracts/1.2/OptimizedContract.sol:OptimizedContract",
						"label": "multiplier",
						"offset": 0,
						"slot": "1",
						"type": "t_uint256"
					}
				],
				"types": {
					"t_array(t_uint256)dyn_storage": {
						"base": "t_uint256",
						"encoding": "dynamic_array",
						"label": "uint256[]",
						"numberOfBytes": "32"
					},
					"t_uint256": {
						"encoding": "inplace",
						"label": "uint256",
						"numberOfBytes": "32"
					}
				}
			},
			"userdoc": {
				"kind": "user",
				"methods": {},
				"version": 1
			}
		}
	}
}