{
	"contracts/2.1/06operator/LogicOperators.sol": {
		"LogicOperators": {
			"abi": [
				{
					"inputs": [],
					"name": "logic",
					"outputs": [
						{
							"internalType": "bool",
							"name": "",
							"type": "bool"
						},
						{
							"internalType": "bool",
							"name": "",
							"type": "bool"
						},
						{
							"internalType": "bool",
							"name": "",
							"type": "bool"
						}
					],
					"stateMutability": "view",
					"type": "function"
				}
			],
			"devdoc": {
				"kind": "dev",
				"methods": {},
				"version": 1
			},
			"evm": {
				"assembly": "    /* \"contracts/2.1/06operator/LogicOperators.sol\":58:273  contract LogicOperators{... */\n  mstore(0x40, 0x80)\n    /* \"contracts/2.1/06operator/LogicOperators.sol\":95:99  true */\n  0x01\n    /* \"contracts/2.1/06operator/LogicOperators.sol\":88:99  bool a=true */\n  0x00\n  exp(0x0100, 0x00)\n  dup2\n  sload\n  dup2\n  0xff\n  mul\n  not\n  and\n  swap1\n  dup4\n  iszero\n  iszero\n  mul\n  or\n  swap1\n  sstore\n  pop\n    /* \"contracts/2.1/06operator/LogicOperators.sol\":113:118  false */\n  0x00\n    /* \"contracts/2.1/06operator/LogicOperators.sol\":106:118  bool b=false */\n  0x00\n  exp(0x0100, 0x01)\n  dup2\n  sload\n  dup2\n  0xff\n  mul\n  not\n  and\n  swap1\n  dup4\n  iszero\n  iszero\n  mul\n  or\n  swap1\n  sstore\n  pop\n    /* \"contracts/2.1/06operator/LogicOperators.sol\":58:273  contract LogicOperators{... */\n  callvalue\n  dup1\n  iszero\n  tag_1\n  jumpi\n  revert(0x00, 0x00)\ntag_1:\n  pop\n  dataSize(sub_0)\n  dup1\n  dataOffset(sub_0)\n  0x00\n  codecopy\n  0x00\n  return\nstop\n\nsub_0: assembly {\n        /* \"contracts/2.1/06operator/LogicOperators.sol\":58:273  contract LogicOperators{... */\n      mstore(0x40, 0x80)\n      callvalue\n      dup1\n      iszero\n      tag_1\n      jumpi\n      revert(0x00, 0x00)\n    tag_1:\n      pop\n      jumpi(tag_2, lt(calldatasize, 0x04))\n      shr(0xe0, calldataload(0x00))\n      dup1\n      0xd7dfa0dd\n      eq\n      tag_3\n      jumpi\n    tag_2:\n      revert(0x00, 0x00)\n        /* \"contracts/2.1/06operator/LogicOperators.sol\":125:270  function logic() public view returns (bool,bool,bool){... */\n    tag_3:\n      tag_4\n      tag_5\n      jump\t// in\n    tag_4:\n      mload(0x40)\n      tag_6\n      swap4\n      swap3\n      swap2\n      swap1\n      tag_7\n      jump\t// in\n    tag_6:\n      mload(0x40)\n      dup1\n      swap2\n      sub\n      swap1\n      return\n    tag_5:\n        /* \"contracts/2.1/06operator/LogicOperators.sol\":163:167  bool */\n      0x00\n        /* \"contracts/2.1/06operator/LogicOperators.sol\":168:172  bool */\n      0x00\n        /* \"contracts/2.1/06operator/LogicOperators.sol\":173:177  bool */\n      0x00\n        /* \"contracts/2.1/06operator/LogicOperators.sol\":211:212  a */\n      0x00\n      0x00\n      swap1\n      sload\n      swap1\n      0x0100\n      exp\n      swap1\n      div\n      0xff\n      and\n        /* \"contracts/2.1/06operator/LogicOperators.sol\":211:215  a&&b */\n      dup1\n      iszero\n      tag_9\n      jumpi\n      pop\n        /* \"contracts/2.1/06operator/LogicOperators.sol\":214:215  b */\n      0x00\n      0x01\n      swap1\n      sload\n      swap1\n      0x0100\n      exp\n      swap1\n      div\n      0xff\n      and\n        /* \"contracts/2.1/06operator/LogicOperators.sol\":211:215  a&&b */\n    tag_9:\n        /* \"contracts/2.1/06operator/LogicOperators.sol\":230:231  a */\n      0x00\n      0x00\n      swap1\n      sload\n      swap1\n      0x0100\n      exp\n      swap1\n      div\n      0xff\n      and\n        /* \"contracts/2.1/06operator/LogicOperators.sol\":230:234  a||b */\n      dup1\n      tag_10\n      jumpi\n      pop\n        /* \"contracts/2.1/06operator/LogicOperators.sol\":233:234  b */\n      0x00\n      0x01\n      swap1\n      sload\n      swap1\n      0x0100\n      exp\n      swap1\n      div\n      0xff\n      and\n        /* \"contracts/2.1/06operator/LogicOperators.sol\":230:234  a||b */\n    tag_10:\n        /* \"contracts/2.1/06operator/LogicOperators.sol\":250:251  a */\n      0x00\n      0x00\n      swap1\n      sload\n      swap1\n      0x0100\n      exp\n      swap1\n      div\n      0xff\n      and\n        /* \"contracts/2.1/06operator/LogicOperators.sol\":249:251  !a */\n      iszero\n        /* \"contracts/2.1/06operator/LogicOperators.sol\":189:262  return (... */\n      swap3\n      pop\n      swap3\n      pop\n      swap3\n      pop\n        /* \"contracts/2.1/06operator/LogicOperators.sol\":125:270  function logic() public view returns (bool,bool,bool){... */\n      swap1\n      swap2\n      swap3\n      jump\t// out\n        /* \"#utility.yul\":7:97   */\n    tag_11:\n        /* \"#utility.yul\":41:48   */\n      0x00\n        /* \"#utility.yul\":84:89   */\n      dup2\n        /* \"#utility.yul\":77:90   */\n      iszero\n        /* \"#utility.yul\":70:91   */\n      iszero\n        /* \"#utility.yul\":59:91   */\n      swap1\n      pop\n        /* \"#utility.yul\":7:97   */\n      swap2\n      swap1\n      pop\n      jump\t// out\n        /* \"#utility.yul\":103:212   */\n    tag_12:\n        /* \"#utility.yul\":184:205   */\n      tag_16\n        /* \"#utility.yul\":199:204   */\n      dup2\n        /* \"#utility.yul\":184:205   */\n      tag_11\n      jump\t// in\n    tag_16:\n        /* \"#utility.yul\":179:182   */\n      dup3\n        /* \"#utility.yul\":172:206   */\n      mstore\n        /* \"#utility.yul\":103:212   */\n      pop\n      pop\n      jump\t// out\n        /* \"#utility.yul\":218:624   */\n    tag_7:\n        /* \"#utility.yul\":349:353   */\n      0x00\n        /* \"#utility.yul\":387:389   */\n      0x60\n        /* \"#utility.yul\":376:385   */\n      dup3\n        /* \"#utility.yul\":372:390   */\n      add\n        /* \"#utility.yul\":364:390   */\n      swap1\n      pop\n        /* \"#utility.yul\":400:465   */\n      tag_18\n        /* \"#utility.yul\":462:463   */\n      0x00\n        /* \"#utility.yul\":451:460   */\n      dup4\n        /* \"#utility.yul\":447:464   */\n      add\n        /* \"#utility.yul\":438:444   */\n      dup7\n        /* \"#utility.yul\":400:465   */\n      tag_12\n      jump\t// in\n    tag_18:\n        /* \"#utility.yul\":475:541   */\n      tag_19\n        /* \"#utility.yul\":537:539   */\n      0x20\n        /* \"#utility.yul\":526:535   */\n      dup4\n        /* \"#utility.yul\":522:540   */\n      add\n        /* \"#utility.yul\":513:519   */\n      dup6\n        /* \"#utility.yul\":475:541   */\n      tag_12\n      jump\t// in\n    tag_19:\n        /* \"#utility.yul\":551:617   */\n      tag_20\n        /* \"#utility.yul\":613:615   */\n      0x40\n        /* \"#utility.yul\":602:611   */\n      dup4\n        /* \"#utility.yul\":598:616   */\n      add\n        /* \"#utility.yul\":589:595   */\n      dup5\n        /* \"#utility.yul\":551:617   */\n      tag_12\n      jump\t// in\n    tag_20:\n        /* \"#utility.yul\":218:624   */\n      swap5\n      swap4\n      pop\n      pop\n      pop\n      pop\n      jump\t// out\n\n    auxdata: 0xa26469706673582212200409f1c9375a564c6ed72849be46e04c6bb115d89b30ddf2557b6287bc9ebe1b64736f6c63430008220033\n}\n",
				"bytecode": {
					"linkReferences": {},
					"object": "608060405260015f5f6101000a81548160ff0219169083151502179055505f5f60016101000a81548160ff0219169083151502179055503480156040575f5ffd5b506101278061004e5f395ff3fe6080604052348015600e575f5ffd5b50600436106026575f3560e01c8063d7dfa0dd14602a575b5f5ffd5b60306046565b604051603d9392919060c2565b60405180910390f35b5f5f5f5f5f9054906101000a900460ff168015606d57505f60019054906101000a900460ff165b5f5f9054906101000a900460ff1680609057505f60019054906101000a900460ff165b5f5f9054906101000a900460ff1615925092509250909192565b5f8115159050919050565b60bc8160aa565b82525050565b5f60608201905060d35f83018660b5565b60de602083018560b5565b60e9604083018460b5565b94935050505056fea26469706673582212200409f1c9375a564c6ed72849be46e04c6bb115d89b30ddf2557b6287bc9ebe1b64736f6c63430008220033",
					"opcodes": "PUSH1 0x80 PUSH1 0x40 MSTORE PUSH1 0x1 PUSH0 PUSH0 PUSH2 0x100 EXP DUP2 SLOAD DUP2 PUSH1 0xFF MUL NOT AND SWAP1 DUP4 ISZERO ISZERO MUL OR SWAP1 SSTORE POP PUSH0 PUSH0 PUSH1 0x1 PUSH2 0x100 EXP DUP2 SLOAD DUP2 PUSH1 0xFF MUL NOT AND SWAP1 DUP4 ISZERO ISZERO MUL OR SWAP1 SSTORE POP CALLVALUE DUP1 ISZERO PUSH1 0x40 JUMPI PUSH0 PUSH0 REVERT JUMPDEST POP PUSH2 0x127 DUP1 PUSH2 0x4E PUSH0 CODECOPY PUSH0 RETURN INVALID PUSH1 0x80 PUSH1 0x40 MSTORE CALLVALUE DUP1 ISZERO PUSH1 0xE JUMPI PUSH0 PUSH0 REVERT JUMPDEST POP PUSH1 0x4 CALLDATASIZE LT PUSH1 0x26 JUMPI PUSH0 CALLDATALOAD PUSH1 0xE0 SHR DUP1 PUSH4 0xD7DFA0DD EQ PUSH1 0x2A JUMPI JUMPDEST PUSH0 PUSH0 REVERT JUMPDEST PUSH1 0x30 PUSH1 0x46 JUMP JUMPDEST PUSH1 0x40 MLOAD PUSH1 0x3D SWAP4 SWAP3 SWAP2 SWAP1 PUSH1 0xC2 JUMP JUMPDEST PUSH1 0x40 MLOAD DUP1 SWAP2 SUB SWAP1 RETURN JUMPDEST PUSH0 PUSH0 PUSH0 PUSH0 PUSH0 SWAP1 SLOAD SWAP1 PUSH2 0x100 EXP SWAP1 DIV PUSH1 0xFF AND DUP1 ISZERO PUSH1 0x6D JUMPI POP PUSH0 PUSH1 0x1 SWAP1 SLOAD SWAP1 PUSH2 0x100 EXP SWAP1 DIV PUSH1 0xFF AND JUMPDEST PUSH0 PUSH0 SWAP1 SLOAD SWAP1 PUSH2 0x100 EXP SWAP1 DIV PUSH1 0xFF AND DUP1 PUSH1 0x90 JUMPI POP PUSH0 PUSH1 0x1 SWAP1 SLOAD SWAP1 PUSH2 0x100 EXP SWAP1 DIV PUSH1 0xFF AND JUMPDEST PUSH0 PUSH0 SWAP1 SLOAD SWAP1 PUSH2 0x100 EXP SWAP1 DIV PUSH1 0xFF AND ISZERO SWAP3 POP SWAP3 POP SWAP3 POP SWAP1 SWAP2 SWAP3 JUMP JUMPDEST PUSH0 DUP2 ISZERO ISZERO SWAP1 POP SWAP2 SWAP1 POP JUMP JUMPDEST PUSH1 0xBC DUP2 PUSH1 0xAA JUMP JUMPDEST DUP3 MSTORE POP POP JUMP JUMPDEST PUSH0 PUSH1 0x60 DUP3 ADD SWAP1 POP PUSH1 0xD3 PUSH0 DUP4 ADD DUP7 PUSH1 0xB5 JUMP JUMPDEST PUSH1 0xDE PUSH1 0x20 DUP4 ADD DUP6 PUSH1 0xB5 JUMP JUMPDEST PUSH1 0xE9 PUSH1 0x40 DUP4 ADD DUP5 PUSH1 0xB5 JUMP JUMPDEST SWAP5 SWAP4 POP POP POP POP JUMP INVALID LOG2 PUSH5 0x6970667358 0x22 SLT KECCAK256 DIV MULMOD CALL 0xC9 CALLDATACOPY GAS JUMP 0x4C PUSH15 0xD72849BE46E04C6BB115D89B30DDF2 SSTORE PUSH28 0x6287BC9EBE1B64736F6C634300082200330000000000000000000000 "
				},
				"gasEstimates": {
					"creation": {
						"codeDepositCost": "59000",
						"executionCost": "48689",
						"totalCost": "107689"
					},
					"external": {
						"logic()": "infinite"
					}
				},
				"methodIdentifiers": {
					"logic()": "d7dfa0dd"
				}
			},
			"storageLayout": {
				"storage": [
					{
						"astId": 4,
						"contract": "contracts/2.1/06operator/LogicOperators.sol:LogicOperators",
						"label": "a",
						"offset": 0,
						"slot": "0",
						"type": "t_bool"
					},
					{
						"astId": 7,
						"contract": "contracts/2.1/06operator/LogicOperators.sol:LogicOperators",
						"label": "b",
						"offset": 1,
						"slot": "0",
						"type": "t_bool"
					}
				],
				"types": {
					"t_bool": {
						"encoding": "inplace",
						"label": "bool",
						"numberOfBytes": "1"
					}
				}
			},
			"userdoc": {
				"kind": "user",
				"methods": {},
				"version": 1
			}
		}
	}
}