{
	"contracts/1.1/HelloSolidity.sol": {
		"HelloSolidity": {
			"abi": [
				{
					"inputs": [],
					"stateMutability": "nonpayable",
					"type": "constructor"
				},
				{
					"inputs": [],
					"name": "getMessage",
					"outputs": [
						{
							"internalType": "string",
							"name": "",
							"type": "string"
						}
					],
					"stateMutability": "view",
					"type": "function"
				},
				{
					"inputs": [],
					"name": "getOwner",
					"outputs": [
						{
							"internalType": "address",
							"name": "",
							"type": "address"
						}
					],
					"stateMutability": "view",
					"type": "function"
				},
				{
					"inputs": [],
					"name": "isOwner",
					"outputs": [
						{
							"internalType": "bool",
							"name": "",
							"type": "bool"
						}
					],
					"stateMutability": "view",
					"type": "function"
				},
				{
					"inputs": [],
					"name": "message",
					"outputs": [
						{
							"internalType": "string",
							"name": "",
							"type": "string"
						}
					],
					"stateMutability": "view",
					"type": "function"
				},
				{
					"inputs": [],
					"name": "owner",
					"outputs": [
						{
							"internalType": "address",
							"name": "",
							"type": "address"
						}
					],
					"stateMutability": "view",
					"type": "function"
				},
				{
					"inputs": [
						{
							"internalType": "string",
							"name": "update_message",
							"type": "string"
						}
					],
					"name": "updateMessage",
					"outputs": [],
					"stateMutability": "nonpayable",
					"type": "function"
				}
			],
			"devdoc": {
				"kind": "dev",
				"methods": {},
				"version": 1
			},
			"evm": {
				"assembly": "    /* \"contracts/1.1/HelloSolidity.sol\":56:791  contract HelloSolidity {... */\n  mstore(0x40, 0x80)\n    /* \"contracts/1.1/HelloSolidity.sol\":189:283  constructor() {... */\n  callvalue\n  dup1\n  iszero\n  tag_1\n  jumpi\n  revert(0x00, 0x00)\ntag_1:\n  pop\n    /* \"contracts/1.1/HelloSolidity.sol\":213:250  message = \"Hello,solidity 2026-04-19\" */\n  mload(0x40)\n  dup1\n  0x40\n  add\n  0x40\n  mstore\n  dup1\n  0x19\n  dup2\n  mstore\n  0x20\n  add\n  0x48656c6c6f2c736f6c696469747920323032362d30342d313900000000000000\n  dup2\n  mstore\n  pop\n    /* \"contracts/1.1/HelloSolidity.sol\":213:220  message */\n  0x00\n    /* \"contracts/1.1/HelloSolidity.sol\":213:250  message = \"Hello,solidity 2026-04-19\" */\n  swap1\n  dup2\n  tag_4\n  swap2\n  swap1\n  tag_5\n  jump\t// in\ntag_4:\n  pop\n    /* \"contracts/1.1/HelloSolidity.sol\":266:276  msg.sender */\n  caller\n    /* \"contracts/1.1/HelloSolidity.sol\":260:265  owner */\n  0x01\n  0x00\n    /* \"contracts/1.1/HelloSolidity.sol\":260:276  owner=msg.sender */\n  0x0100\n  exp\n  dup2\n  sload\n  dup2\n  0xffffffffffffffffffffffffffffffffffffffff\n  mul\n  not\n  and\n  swap1\n  dup4\n  0xffffffffffffffffffffffffffffffffffffffff\n  and\n  mul\n  or\n  swap1\n  sstore\n  pop\n    /* \"contracts/1.1/HelloSolidity.sol\":56:791  contract HelloSolidity {... */\n  jump(tag_6)\n    /* \"#utility.yul\":7:106   */\ntag_7:\n    /* \"#utility.yul\":59:65   */\n  0x00\n    /* \"#utility.yul\":93:98   */\n  dup2\n    /* \"#utility.yul\":87:99   */\n  mload\n    /* \"#utility.yul\":77:99   */\n  swap1\n  pop\n    /* \"#utility.yul\":7:106   */\n  swap2\n  swap1\n  pop\n  jump\t// out\n    /* \"#utility.yul\":112:292   */\ntag_8:\n    /* \"#utility.yul\":160:237   */\n  0x4e487b7100000000000000000000000000000000000000000000000000000000\n    /* \"#utility.yul\":157:158   */\n  0x00\n    /* \"#utility.yul\":150:238   */\n  mstore\n    /* \"#utility.yul\":257:261   */\n  0x41\n    /* \"#utility.yul\":254:255   */\n  0x04\n    /* \"#utility.yul\":247:262   */\n  mstore\n    /* \"#utility.yul\":281:285   */\n  0x24\n    /* \"#utility.yul\":278:279   */\n  0x00\n    /* \"#utility.yul\":271:286   */\n  revert\n    /* \"#utility.yul\":298:478   */\ntag_9:\n    /* \"#utility.yul\":346:423   */\n  0x4e487b7100000000000000000000000000000000000000000000000000000000\n    /* \"#utility.yul\":343:344   */\n  0x00\n    /* \"#utility.yul\":336:424   */\n  mstore\n    /* \"#utility.yul\":443:447   */\n  0x22\n    /* \"#utility.yul\":440:441   */\n  0x04\n    /* \"#utility.yul\":433:448   */\n  mstore\n    /* \"#utility.yul\":467:471   */\n  0x24\n    /* \"#utility.yul\":464:465   */\n  0x00\n    /* \"#utility.yul\":457:472   */\n  revert\n    /* \"#utility.yul\":484:804   */\ntag_10:\n    /* \"#utility.yul\":528:534   */\n  0x00\n    /* \"#utility.yul\":565:566   */\n  0x02\n    /* \"#utility.yul\":559:563   */\n  dup3\n    /* \"#utility.yul\":555:567   */\n  div\n    /* \"#utility.yul\":545:567   */\n  swap1\n  pop\n    /* \"#utility.yul\":612:613   */\n  0x01\n    /* \"#utility.yul\":606:610   */\n  dup3\n    /* \"#utility.yul\":602:614   */\n  and\n    /* \"#utility.yul\":633:651   */\n  dup1\n    /* \"#utility.yul\":623:704   */\n  tag_32\n  jumpi\n    /* \"#utility.yul\":689:693   */\n  0x7f\n    /* \"#utility.yul\":681:687   */\n  dup3\n    /* \"#utility.yul\":677:694   */\n  and\n    /* \"#utility.yul\":667:694   */\n  swap2\n  pop\n    /* \"#utility.yul\":623:704   */\ntag_32:\n    /* \"#utility.yul\":751:753   */\n  0x20\n    /* \"#utility.yul\":743:749   */\n  dup3\n    /* \"#utility.yul\":740:754   */\n  lt\n    /* \"#utility.yul\":720:738   */\n  dup2\n    /* \"#utility.yul\":717:755   */\n  sub\n    /* \"#utility.yul\":714:798   */\n  tag_33\n  jumpi\n    /* \"#utility.yul\":770:788   */\n  tag_34\n  tag_9\n  jump\t// in\ntag_34:\n    /* \"#utility.yul\":714:798   */\ntag_33:\n    /* \"#utility.yul\":535:804   */\n  pop\n    /* \"#utility.yul\":484:804   */\n  swap2\n  swap1\n  pop\n  jump\t// out\n    /* \"#utility.yul\":810:951   */\ntag_11:\n    /* \"#utility.yul\":859:863   */\n  0x00\n    /* \"#utility.yul\":882:885   */\n  dup2\n    /* \"#utility.yul\":874:885   */\n  swap1\n  pop\n    /* \"#utility.yul\":905:908   */\n  dup2\n    /* \"#utility.yul\":902:903   */\n  0x00\n    /* \"#utility.yul\":895:909   */\n  mstore\n    /* \"#utility.yul\":939:943   */\n  0x20\n    /* \"#utility.yul\":936:937   */\n  0x00\n    /* \"#utility.yul\":926:944   */\n  keccak256\n    /* \"#utility.yul\":918:944   */\n  swap1\n  pop\n    /* \"#utility.yul\":810:951   */\n  swap2\n  swap1\n  pop\n  jump\t// out\n    /* \"#utility.yul\":957:1050   */\ntag_12:\n    /* \"#utility.yul\":994:1000   */\n  0x00\n    /* \"#utility.yul\":1041:1043   */\n  0x20\n    /* \"#utility.yul\":1036:1038   */\n  0x1f\n    /* \"#utility.yul\":1029:1034   */\n  dup4\n    /* \"#utility.yul\":1025:1039   */\n  add\n    /* \"#utility.yul\":1021:1044   */\n  div\n    /* \"#utility.yul\":1011:1044   */\n  swap1\n  pop\n    /* \"#utility.yul\":957:1050   */\n  swap2\n  swap1\n  pop\n  jump\t// out\n    /* \"#utility.yul\":1056:1163   */\ntag_13:\n    /* \"#utility.yul\":1100:1108   */\n  0x00\n    /* \"#utility.yul\":1150:1155   */\n  dup3\n    /* \"#utility.yul\":1144:1148   */\n  dup3\n    /* \"#utility.yul\":1140:1156   */\n  shl\n    /* \"#utility.yul\":1119:1156   */\n  swap1\n  pop\n    /* \"#utility.yul\":1056:1163   */\n  swap3\n  swap2\n  pop\n  pop\n  jump\t// out\n    /* \"#utility.yul\":1169:1562   */\ntag_14:\n    /* \"#utility.yul\":1238:1244   */\n  0x00\n    /* \"#utility.yul\":1288:1289   */\n  0x08\n    /* \"#utility.yul\":1276:1286   */\n  dup4\n    /* \"#utility.yul\":1272:1290   */\n  mul\n    /* \"#utility.yul\":1311:1408   */\n  tag_39\n    /* \"#utility.yul\":1341:1407   */\n  0xffffffffffffffffffffffffffffffffffffffffffffffffffffffffffffffff\n    /* \"#utility.yul\":1330:1339   */\n  dup3\n    /* \"#utility.yul\":1311:1408   */\n  tag_13\n  jump\t// in\ntag_39:\n    /* \"#utility.yul\":1429:1468   */\n  tag_40\n    /* \"#utility.yul\":1459:1467   */\n  dup7\n    /* \"#utility.yul\":1448:1457   */\n  dup4\n    /* \"#utility.yul\":1429:1468   */\n  tag_13\n  jump\t// in\ntag_40:\n    /* \"#utility.yul\":1417:1468   */\n  swap6\n  pop\n    /* \"#utility.yul\":1501:1505   */\n  dup1\n    /* \"#utility.yul\":1497:1506   */\n  not\n    /* \"#utility.yul\":1490:1495   */\n  dup5\n    /* \"#utility.yul\":1486:1507   */\n  and\n    /* \"#utility.yul\":1477:1507   */\n  swap4\n  pop\n    /* \"#utility.yul\":1550:1554   */\n  dup1\n    /* \"#utility.yul\":1540:1548   */\n  dup7\n    /* \"#utility.yul\":1536:1555   */\n  and\n    /* \"#utility.yul\":1529:1534   */\n  dup5\n    /* \"#utility.yul\":1526:1556   */\n  or\n    /* \"#utility.yul\":1516:1556   */\n  swap3\n  pop\n    /* \"#utility.yul\":1245:1562   */\n  pop\n  pop\n    /* \"#utility.yul\":1169:1562   */\n  swap4\n  swap3\n  pop\n  pop\n  pop\n  jump\t// out\n    /* \"#utility.yul\":1568:1645   */\ntag_15:\n    /* \"#utility.yul\":1605:1612   */\n  0x00\n    /* \"#utility.yul\":1634:1639   */\n  dup2\n    /* \"#utility.yul\":1623:1639   */\n  swap1\n  pop\n    /* \"#utility.yul\":1568:1645   */\n  swap2\n  swap1\n  pop\n  jump\t// out\n    /* \"#utility.yul\":1651:1711   */\ntag_16:\n    /* \"#utility.yul\":1679:1682   */\n  0x00\n    /* \"#utility.yul\":1700:1705   */\n  dup2\n    /* \"#utility.yul\":1693:1705   */\n  swap1\n  pop\n    /* \"#utility.yul\":1651:1711   */\n  swap2\n  swap1\n  pop\n  jump\t// out\n    /* \"#utility.yul\":1717:1859   */\ntag_17:\n    /* \"#utility.yul\":1767:1776   */\n  0x00\n    /* \"#utility.yul\":1800:1853   */\n  tag_44\n    /* \"#utility.yul\":1818:1852   */\n  tag_45\n    /* \"#utility.yul\":1827:1851   */\n  tag_46\n    /* \"#utility.yul\":1845:1850   */\n  dup5\n    /* \"#utility.yul\":1827:1851   */\n  tag_15\n  jump\t// in\ntag_46:\n    /* \"#utility.yul\":1818:1852   */\n  tag_16\n  jump\t// in\ntag_45:\n    /* \"#utility.yul\":1800:1853   */\n  tag_15\n  jump\t// in\ntag_44:\n    /* \"#utility.yul\":1787:1853   */\n  swap1\n  pop\n    /* \"#utility.yul\":1717:1859   */\n  swap2\n  swap1\n  pop\n  jump\t// out\n    /* \"#utility.yul\":1865:1940   */\ntag_18:\n    /* \"#utility.yul\":1908:1911   */\n  0x00\n    /* \"#utility.yul\":1929:1934   */\n  dup2\n    /* \"#utility.yul\":1922:1934   */\n  swap1\n  pop\n    /* \"#utility.yul\":1865:1940   */\n  swap2\n  swap1\n  pop\n  jump\t// out\n    /* \"#utility.yul\":1946:2215   */\ntag_19:\n    /* \"#utility.yul\":2056:2095   */\n  tag_49\n    /* \"#utility.yul\":2087:2094   */\n  dup4\n    /* \"#utility.yul\":2056:2095   */\n  tag_17\n  jump\t// in\ntag_49:\n    /* \"#utility.yul\":2117:2208   */\n  tag_50\n    /* \"#utility.yul\":2166:2207   */\n  tag_51\n    /* \"#utility.yul\":2190:2206   */\n  dup3\n    /* \"#utility.yul\":2166:2207   */\n  tag_18\n  jump\t// in\ntag_51:\n    /* \"#utility.yul\":2158:2164   */\n  dup5\n    /* \"#utility.yul\":2151:2155   */\n  dup5\n    /* \"#utility.yul\":2145:2156   */\n  sload\n    /* \"#utility.yul\":2117:2208   */\n  tag_14\n  jump\t// in\ntag_50:\n    /* \"#utility.yul\":2111:2115   */\n  dup3\n    /* \"#utility.yul\":2104:2209   */\n  sstore\n    /* \"#utility.yul\":2022:2215   */\n  pop\n    /* \"#utility.yul\":1946:2215   */\n  pop\n  pop\n  pop\n  jump\t// out\n    /* \"#utility.yul\":2221:2294   */\ntag_20:\n    /* \"#utility.yul\":2266:2269   */\n  0x00\n    /* \"#utility.yul\":2287:2288   */\n  0x00\n    /* \"#utility.yul\":2280:2288   */\n  swap1\n  pop\n    /* \"#utility.yul\":2221:2294   */\n  swap1\n  jump\t// out\n    /* \"#utility.yul\":2300:2489   */\ntag_21:\n    /* \"#utility.yul\":2377:2409   */\n  tag_54\n  tag_20\n  jump\t// in\ntag_54:\n    /* \"#utility.yul\":2418:2483   */\n  tag_55\n    /* \"#utility.yul\":2476:2482   */\n  dup2\n    /* \"#utility.yul\":2468:2474   */\n  dup5\n    /* \"#utility.yul\":2462:2466   */\n  dup5\n    /* \"#utility.yul\":2418:2483   */\n  tag_19\n  jump\t// in\ntag_55:\n    /* \"#utility.yul\":2353:2489   */\n  pop\n    /* \"#utility.yul\":2300:2489   */\n  pop\n  pop\n  jump\t// out\n    /* \"#utility.yul\":2495:2709   */\ntag_22:\n    /* \"#utility.yul\":2580:2581   */\n  0x00\n    /* \"#utility.yul\":2565:2703   */\ntag_57:\n    /* \"#utility.yul\":2590:2599   */\n  dup3\n    /* \"#utility.yul\":2587:2588   */\n  dup2\n    /* \"#utility.yul\":2584:2600   */\n  lt\n    /* \"#utility.yul\":2565:2703   */\n  iszero\n  tag_59\n  jumpi\n    /* \"#utility.yul\":2642:2693   */\n  tag_60\n    /* \"#utility.yul\":2691:2692   */\n  0x00\n    /* \"#utility.yul\":2687:2688   */\n  dup3\n    /* \"#utility.yul\":2676:2685   */\n  dup5\n    /* \"#utility.yul\":2672:2689   */\n  add\n    /* \"#utility.yul\":2642:2693   */\n  tag_21\n  jump\t// in\ntag_60:\n    /* \"#utility.yul\":2615:2616   */\n  0x01\n    /* \"#utility.yul\":2612:2613   */\n  dup2\n    /* \"#utility.yul\":2608:2617   */\n  add\n    /* \"#utility.yul\":2603:2617   */\n  swap1\n  pop\n    /* \"#utility.yul\":2565:2703   */\n  jump(tag_57)\ntag_59:\n    /* \"#utility.yul\":2569:2583   */\n  pop\n    /* \"#utility.yul\":2495:2709   */\n  pop\n  pop\n  jump\t// out\n    /* \"#utility.yul\":2715:3461   */\ntag_23:\n    /* \"#utility.yul\":2816:2818   */\n  0x1f\n    /* \"#utility.yul\":2811:2814   */\n  dup3\n    /* \"#utility.yul\":2808:2819   */\n  gt\n    /* \"#utility.yul\":2805:3454   */\n  iszero\n  tag_62\n  jumpi\n    /* \"#utility.yul\":2845:2855   */\n  dup3\n    /* \"#utility.yul\":2840:2843   */\n  dup3\n    /* \"#utility.yul\":2837:2856   */\n  gt\n    /* \"#utility.yul\":2834:3444   */\n  iszero\n  tag_63\n  jumpi\n    /* \"#utility.yul\":2891:2929   */\n  tag_64\n    /* \"#utility.yul\":2923:2928   */\n  dup2\n    /* \"#utility.yul\":2891:2929   */\n  tag_11\n  jump\t// in\ntag_64:\n    /* \"#utility.yul\":2966:2988   */\n  tag_65\n    /* \"#utility.yul\":2984:2987   */\n  dup4\n    /* \"#utility.yul\":2966:2988   */\n  tag_12\n  jump\t// in\ntag_65:\n    /* \"#utility.yul\":3025:3054   */\n  tag_66\n    /* \"#utility.yul\":3043:3053   */\n  dup6\n    /* \"#utility.yul\":3025:3054   */\n  tag_12\n  jump\t// in\ntag_66:\n    /* \"#utility.yul\":3215:3217   */\n  0x20\n    /* \"#utility.yul\":3203:3213   */\n  dup7\n    /* \"#utility.yul\":3200:3218   */\n  lt\n    /* \"#utility.yul\":3197:3276   */\n  iszero\n  tag_67\n  jumpi\n    /* \"#utility.yul\":3257:3258   */\n  0x00\n    /* \"#utility.yul\":3241:3258   */\n  swap1\n  pop\n    /* \"#utility.yul\":3197:3276   */\ntag_67:\n    /* \"#utility.yul\":3326:3338   */\n  dup1\n    /* \"#utility.yul\":3316:3324   */\n  dup4\n    /* \"#utility.yul\":3312:3339   */\n  add\n    /* \"#utility.yul\":3356:3430   */\n  tag_68\n    /* \"#utility.yul\":3416:3428   */\n  dup3\n    /* \"#utility.yul\":3402:3414   */\n  dup5\n    /* \"#utility.yul\":3398:3429   */\n  sub\n    /* \"#utility.yul\":3385:3396   */\n  dup3\n    /* \"#utility.yul\":3356:3430   */\n  tag_22\n  jump\t// in\ntag_68:\n    /* \"#utility.yul\":2857:3444   */\n  pop\n  pop\n  pop\n  pop\n    /* \"#utility.yul\":2834:3444   */\ntag_63:\n    /* \"#utility.yul\":2805:3454   */\ntag_62:\n    /* \"#utility.yul\":2715:3461   */\n  pop\n  pop\n  pop\n  jump\t// out\n    /* \"#utility.yul\":3467:3584   */\ntag_24:\n    /* \"#utility.yul\":3521:3529   */\n  0x00\n    /* \"#utility.yul\":3571:3576   */\n  dup3\n    /* \"#utility.yul\":3565:3569   */\n  dup3\n    /* \"#utility.yul\":3561:3577   */\n  shr\n    /* \"#utility.yul\":3540:3577   */\n  swap1\n  pop\n    /* \"#utility.yul\":3467:3584   */\n  swap3\n  swap2\n  pop\n  pop\n  jump\t// out\n    /* \"#utility.yul\":3590:3759   */\ntag_25:\n    /* \"#utility.yul\":3634:3640   */\n  0x00\n    /* \"#utility.yul\":3667:3718   */\n  tag_71\n    /* \"#utility.yul\":3715:3716   */\n  0x00\n    /* \"#utility.yul\":3711:3717   */\n  not\n    /* \"#utility.yul\":3703:3708   */\n  dup5\n    /* \"#utility.yul\":3700:3701   */\n  0x08\n    /* \"#utility.yul\":3696:3709   */\n  mul\n    /* \"#utility.yul\":3667:3718   */\n  tag_24\n  jump\t// in\ntag_71:\n    /* \"#utility.yul\":3663:3719   */\n  not\n    /* \"#utility.yul\":3748:3752   */\n  dup1\n    /* \"#utility.yul\":3742:3746   */\n  dup4\n    /* \"#utility.yul\":3738:3753   */\n  and\n    /* \"#utility.yul\":3728:3753   */\n  swap2\n  pop\n    /* \"#utility.yul\":3641:3759   */\n  pop\n    /* \"#utility.yul\":3590:3759   */\n  swap3\n  swap2\n  pop\n  pop\n  jump\t// out\n    /* \"#utility.yul\":3764:4059   */\ntag_26:\n    /* \"#utility.yul\":3840:3844   */\n  0x00\n    /* \"#utility.yul\":3986:4015   */\n  tag_73\n    /* \"#utility.yul\":4011:4014   */\n  dup4\n    /* \"#utility.yul\":4005:4009   */\n  dup4\n    /* \"#utility.yul\":3986:4015   */\n  tag_25\n  jump\t// in\ntag_73:\n    /* \"#utility.yul\":3978:4015   */\n  swap2\n  pop\n    /* \"#utility.yul\":4048:4051   */\n  dup3\n    /* \"#utility.yul\":4045:4046   */\n  0x02\n    /* \"#utility.yul\":4041:4052   */\n  mul\n    /* \"#utility.yul\":4035:4039   */\n  dup3\n    /* \"#utility.yul\":4032:4053   */\n  or\n    /* \"#utility.yul\":4024:4053   */\n  swap1\n  pop\n    /* \"#utility.yul\":3764:4059   */\n  swap3\n  swap2\n  pop\n  pop\n  jump\t// out\n    /* \"#utility.yul\":4064:5459   */\ntag_5:\n    /* \"#utility.yul\":4181:4218   */\n  tag_75\n    /* \"#utility.yul\":4214:4217   */\n  dup3\n    /* \"#utility.yul\":4181:4218   */\n  tag_7\n  jump\t// in\ntag_75:\n    /* \"#utility.yul\":4283:4301   */\n  0xffffffffffffffff\n    /* \"#utility.yul\":4275:4281   */\n  dup2\n    /* \"#utility.yul\":4272:4302   */\n  gt\n    /* \"#utility.yul\":4269:4325   */\n  iszero\n  tag_76\n  jumpi\n    /* \"#utility.yul\":4305:4323   */\n  tag_77\n  tag_8\n  jump\t// in\ntag_77:\n    /* \"#utility.yul\":4269:4325   */\ntag_76:\n    /* \"#utility.yul\":4349:4387   */\n  tag_78\n    /* \"#utility.yul\":4381:4385   */\n  dup3\n    /* \"#utility.yul\":4375:4386   */\n  sload\n    /* \"#utility.yul\":4349:4387   */\n  tag_10\n  jump\t// in\ntag_78:\n    /* \"#utility.yul\":4434:4501   */\n  tag_79\n    /* \"#utility.yul\":4494:4500   */\n  dup3\n    /* \"#utility.yul\":4486:4492   */\n  dup3\n    /* \"#utility.yul\":4480:4484   */\n  dup6\n    /* \"#utility.yul\":4434:4501   */\n  tag_23\n  jump\t// in\ntag_79:\n    /* \"#utility.yul\":4528:4529   */\n  0x00\n    /* \"#utility.yul\":4552:4556   */\n  0x20\n    /* \"#utility.yul\":4539:4556   */\n  swap1\n  pop\n    /* \"#utility.yul\":4584:4586   */\n  0x1f\n    /* \"#utility.yul\":4576:4582   */\n  dup4\n    /* \"#utility.yul\":4573:4587   */\n  gt\n    /* \"#utility.yul\":4601:4602   */\n  0x01\n    /* \"#utility.yul\":4596:5214   */\n  dup2\n  eq\n  tag_81\n  jumpi\n    /* \"#utility.yul\":5258:5259   */\n  0x00\n    /* \"#utility.yul\":5275:5281   */\n  dup5\n    /* \"#utility.yul\":5272:5349   */\n  iszero\n  tag_82\n  jumpi\n    /* \"#utility.yul\":5324:5333   */\n  dup3\n    /* \"#utility.yul\":5319:5322   */\n  dup8\n    /* \"#utility.yul\":5315:5334   */\n  add\n    /* \"#utility.yul\":5309:5335   */\n  mload\n    /* \"#utility.yul\":5300:5335   */\n  swap1\n  pop\n    /* \"#utility.yul\":5272:5349   */\ntag_82:\n    /* \"#utility.yul\":5375:5442   */\n  tag_83\n    /* \"#utility.yul\":5435:5441   */\n  dup6\n    /* \"#utility.yul\":5428:5433   */\n  dup3\n    /* \"#utility.yul\":5375:5442   */\n  tag_26\n  jump\t// in\ntag_83:\n    /* \"#utility.yul\":5369:5373   */\n  dup7\n    /* \"#utility.yul\":5362:5443   */\n  sstore\n    /* \"#utility.yul\":5231:5453   */\n  pop\n    /* \"#utility.yul\":4566:5453   */\n  jump(tag_80)\n    /* \"#utility.yul\":4596:5214   */\ntag_81:\n    /* \"#utility.yul\":4648:4652   */\n  0x1f\n    /* \"#utility.yul\":4644:4653   */\n  not\n    /* \"#utility.yul\":4636:4642   */\n  dup5\n    /* \"#utility.yul\":4632:4654   */\n  and\n    /* \"#utility.yul\":4682:4719   */\n  tag_84\n    /* \"#utility.yul\":4714:4718   */\n  dup7\n    /* \"#utility.yul\":4682:4719   */\n  tag_11\n  jump\t// in\ntag_84:\n    /* \"#utility.yul\":4741:4742   */\n  0x00\n    /* \"#utility.yul\":4755:4963   */\ntag_85:\n    /* \"#utility.yul\":4769:4776   */\n  dup3\n    /* \"#utility.yul\":4766:4767   */\n  dup2\n    /* \"#utility.yul\":4763:4777   */\n  lt\n    /* \"#utility.yul\":4755:4963   */\n  iszero\n  tag_87\n  jumpi\n    /* \"#utility.yul\":4848:4857   */\n  dup5\n    /* \"#utility.yul\":4843:4846   */\n  dup10\n    /* \"#utility.yul\":4839:4858   */\n  add\n    /* \"#utility.yul\":4833:4859   */\n  mload\n    /* \"#utility.yul\":4825:4831   */\n  dup3\n    /* \"#utility.yul\":4818:4860   */\n  sstore\n    /* \"#utility.yul\":4899:4900   */\n  0x01\n    /* \"#utility.yul\":4891:4897   */\n  dup3\n    /* \"#utility.yul\":4887:4901   */\n  add\n    /* \"#utility.yul\":4877:4901   */\n  swap2\n  pop\n    /* \"#utility.yul\":4946:4948   */\n  0x20\n    /* \"#utility.yul\":4935:4944   */\n  dup6\n    /* \"#utility.yul\":4931:4949   */\n  add\n    /* \"#utility.yul\":4918:4949   */\n  swap5\n  pop\n    /* \"#utility.yul\":4792:4796   */\n  0x20\n    /* \"#utility.yul\":4789:4790   */\n  dup2\n    /* \"#utility.yul\":4785:4797   */\n  add\n    /* \"#utility.yul\":4780:4797   */\n  swap1\n  pop\n    /* \"#utility.yul\":4755:4963   */\n  jump(tag_85)\ntag_87:\n    /* \"#utility.yul\":4991:4997   */\n  dup7\n    /* \"#utility.yul\":4982:4989   */\n  dup4\n    /* \"#utility.yul\":4979:4998   */\n  lt\n    /* \"#utility.yul\":4976:5155   */\n  iszero\n  tag_88\n  jumpi\n    /* \"#utility.yul\":5049:5058   */\n  dup5\n    /* \"#utility.yul\":5044:5047   */\n  dup10\n    /* \"#utility.yul\":5040:5059   */\n  add\n    /* \"#utility.yul\":5034:5060   */\n  mload\n    /* \"#utility.yul\":5092:5140   */\n  tag_89\n    /* \"#utility.yul\":5134:5138   */\n  0x1f\n    /* \"#utility.yul\":5126:5132   */\n  dup10\n    /* \"#utility.yul\":5122:5139   */\n  and\n    /* \"#utility.yul\":5111:5120   */\n  dup3\n    /* \"#utility.yul\":5092:5140   */\n  tag_25\n  jump\t// in\ntag_89:\n    /* \"#utility.yul\":5084:5090   */\n  dup4\n    /* \"#utility.yul\":5077:5141   */\n  sstore\n    /* \"#utility.yul\":4999:5155   */\n  pop\n    /* \"#utility.yul\":4976:5155   */\ntag_88:\n    /* \"#utility.yul\":5201:5202   */\n  0x01\n    /* \"#utility.yul\":5197:5198   */\n  0x02\n    /* \"#utility.yul\":5189:5195   */\n  dup9\n    /* \"#utility.yul\":5185:5199   */\n  mul\n    /* \"#utility.yul\":5181:5203   */\n  add\n    /* \"#utility.yul\":5175:5179   */\n  dup9\n    /* \"#utility.yul\":5168:5204   */\n  sstore\n    /* \"#utility.yul\":4603:5214   */\n  pop\n  pop\n  pop\n    /* \"#utility.yul\":4566:5453   */\ntag_80:\n  pop\n    /* \"#utility.yul\":4156:5459   */\n  pop\n  pop\n  pop\n    /* \"#utility.yul\":4064:5459   */\n  pop\n  pop\n  jump\t// out\n    /* \"contracts/1.1/HelloSolidity.sol\":56:791  contract HelloSolidity {... */\ntag_6:\n  dataSize(sub_0)\n  dup1\n  dataOffset(sub_0)\n  0x00\n  codecopy\n  0x00\n  return\nstop\n\nsub_0: assembly {\n        /* \"contracts/1.1/HelloSolidity.sol\":56:791  contract HelloSolidity {... */\n      mstore(0x40, 0x80)\n      callvalue\n      dup1\n      iszero\n      tag_1\n      jumpi\n      revert(0x00, 0x00)\n    tag_1:\n      pop\n      jumpi(tag_2, lt(calldatasize, 0x04))\n      shr(0xe0, calldataload(0x00))\n      dup1\n      0x1923be24\n      eq\n      tag_3\n      jumpi\n      dup1\n      0x893d20e8\n      eq\n      tag_4\n      jumpi\n      dup1\n      0x8da5cb5b\n      eq\n      tag_5\n      jumpi\n      dup1\n      0x8f32d59b\n      eq\n      tag_6\n      jumpi\n      dup1\n      0xce6d41de\n      eq\n      tag_7\n      jumpi\n      dup1\n      0xe21f37ce\n      eq\n      tag_8\n      jumpi\n    tag_2:\n      revert(0x00, 0x00)\n        /* \"contracts/1.1/HelloSolidity.sol\":320:421  function updateMessage(string memory update_message) public {... */\n    tag_3:\n      tag_9\n      0x04\n      dup1\n      calldatasize\n      sub\n      dup2\n      add\n      swap1\n      tag_10\n      swap2\n      swap1\n      tag_11\n      jump\t// in\n    tag_10:\n      tag_12\n      jump\t// in\n    tag_9:\n      stop\n        /* \"contracts/1.1/HelloSolidity.sol\":584:662  function getOwner() public view returns (address){... */\n    tag_4:\n      tag_13\n      tag_14\n      jump\t// in\n    tag_13:\n      mload(0x40)\n      tag_15\n      swap2\n      swap1\n      tag_16\n      jump\t// in\n    tag_15:\n      mload(0x40)\n      dup1\n      swap2\n      sub\n      swap1\n      return\n        /* \"contracts/1.1/HelloSolidity.sol\":137:157  address public owner */\n    tag_5:\n      tag_17\n      tag_18\n      jump\t// in\n    tag_17:\n      mload(0x40)\n      tag_19\n      swap2\n      swap1\n      tag_16\n      jump\t// in\n    tag_19:\n      mload(0x40)\n      dup1\n      swap2\n      sub\n      swap1\n      return\n        /* \"contracts/1.1/HelloSolidity.sol\":704:789  function isOwner() public view returns(bool){... */\n    tag_6:\n      tag_20\n      tag_21\n      jump\t// in\n    tag_20:\n      mload(0x40)\n      tag_22\n      swap2\n      swap1\n      tag_23\n      jump\t// in\n    tag_22:\n      mload(0x40)\n      dup1\n      swap2\n      sub\n      swap1\n      return\n        /* \"contracts/1.1/HelloSolidity.sol\":458:547  function getMessage() public view returns (string memory) {... */\n    tag_7:\n      tag_24\n      tag_25\n      jump\t// in\n    tag_24:\n      mload(0x40)\n      tag_26\n      swap2\n      swap1\n      tag_27\n      jump\t// in\n    tag_26:\n      mload(0x40)\n      dup1\n      swap2\n      sub\n      swap1\n      return\n        /* \"contracts/1.1/HelloSolidity.sol\":110:131  string public message */\n    tag_8:\n      tag_28\n      tag_29\n      jump\t// in\n    tag_28:\n      mload(0x40)\n      tag_30\n      swap2\n      swap1\n      tag_27\n      jump\t// in\n    tag_30:\n      mload(0x40)\n      dup1\n      swap2\n      sub\n      swap1\n      return\n        /* \"contracts/1.1/HelloSolidity.sol\":320:421  function updateMessage(string memory update_message) public {... */\n    tag_12:\n        /* \"contracts/1.1/HelloSolidity.sol\":400:414  update_message */\n      dup1\n        /* \"contracts/1.1/HelloSolidity.sol\":390:397  message */\n      0x00\n        /* \"contracts/1.1/HelloSolidity.sol\":390:414  message = update_message */\n      swap1\n      dup2\n      tag_32\n      swap2\n      swap1\n      tag_33\n      jump\t// in\n    tag_32:\n      pop\n        /* \"contracts/1.1/HelloSolidity.sol\":320:421  function updateMessage(string memory update_message) public {... */\n      pop\n      jump\t// out\n        /* \"contracts/1.1/HelloSolidity.sol\":584:662  function getOwner() public view returns (address){... */\n    tag_14:\n        /* \"contracts/1.1/HelloSolidity.sol\":625:632  address */\n      0x00\n        /* \"contracts/1.1/HelloSolidity.sol\":650:655  owner */\n      0x01\n      0x00\n      swap1\n      sload\n      swap1\n      0x0100\n      exp\n      swap1\n      div\n      0xffffffffffffffffffffffffffffffffffffffff\n      and\n        /* \"contracts/1.1/HelloSolidity.sol\":643:655  return owner */\n      swap1\n      pop\n        /* \"contracts/1.1/HelloSolidity.sol\":584:662  function getOwner() public view returns (address){... */\n      swap1\n      jump\t// out\n        /* \"contracts/1.1/HelloSolidity.sol\":137:157  address public owner */\n    tag_18:\n      0x01\n      0x00\n      swap1\n      sload\n      swap1\n      0x0100\n      exp\n      swap1\n      div\n      0xffffffffffffffffffffffffffffffffffffffff\n      and\n      dup2\n      jump\t// out\n        /* \"contracts/1.1/HelloSolidity.sol\":704:789  function isOwner() public view returns(bool){... */\n    tag_21:\n        /* \"contracts/1.1/HelloSolidity.sol\":743:747  bool */\n      0x00\n        /* \"contracts/1.1/HelloSolidity.sol\":777:782  owner */\n      0x01\n      0x00\n      swap1\n      sload\n      swap1\n      0x0100\n      exp\n      swap1\n      div\n      0xffffffffffffffffffffffffffffffffffffffff\n      and\n        /* \"contracts/1.1/HelloSolidity.sol\":765:782  msg.sender==owner */\n      0xffffffffffffffffffffffffffffffffffffffff\n      and\n        /* \"contracts/1.1/HelloSolidity.sol\":765:775  msg.sender */\n      caller\n        /* \"contracts/1.1/HelloSolidity.sol\":765:782  msg.sender==owner */\n      0xffffffffffffffffffffffffffffffffffffffff\n      and\n      eq\n        /* \"contracts/1.1/HelloSolidity.sol\":758:782  return msg.sender==owner */\n      swap1\n      pop\n        /* \"contracts/1.1/HelloSolidity.sol\":704:789  function isOwner() public view returns(bool){... */\n      swap1\n      jump\t// out\n        /* \"contracts/1.1/HelloSolidity.sol\":458:547  function getMessage() public view returns (string memory) {... */\n    tag_25:\n        /* \"contracts/1.1/HelloSolidity.sol\":501:514  string memory */\n      0x60\n        /* \"contracts/1.1/HelloSolidity.sol\":533:540  message */\n      0x00\n        /* \"contracts/1.1/HelloSolidity.sol\":526:540  return message */\n      dup1\n      sload\n      tag_37\n      swap1\n      tag_38\n      jump\t// in\n    tag_37:\n      dup1\n      0x1f\n      add\n      0x20\n      dup1\n      swap2\n      div\n      mul\n      0x20\n      add\n      mload(0x40)\n      swap1\n      dup2\n      add\n      0x40\n      mstore\n      dup1\n      swap3\n      swap2\n      swap1\n      dup2\n      dup2\n      mstore\n      0x20\n      add\n      dup3\n      dup1\n      sload\n      tag_39\n      swap1\n      tag_38\n      jump\t// in\n    tag_39:\n      dup1\n      iszero\n      tag_40\n      jumpi\n      dup1\n      0x1f\n      lt\n      tag_41\n      jumpi\n      0x0100\n      dup1\n      dup4\n      sload\n      div\n      mul\n      dup4\n      mstore\n      swap2\n      0x20\n      add\n      swap2\n      jump(tag_40)\n    tag_41:\n      dup3\n      add\n      swap2\n      swap1\n      0x00\n      mstore\n      keccak256(0x00, 0x20)\n      swap1\n    tag_42:\n      dup2\n      sload\n      dup2\n      mstore\n      swap1\n      0x01\n      add\n      swap1\n      0x20\n      add\n      dup1\n      dup4\n      gt\n      tag_42\n      jumpi\n      dup3\n      swap1\n      sub\n      0x1f\n      and\n      dup3\n      add\n      swap2\n    tag_40:\n      pop\n      pop\n      pop\n      pop\n      pop\n      swap1\n      pop\n        /* \"contracts/1.1/HelloSolidity.sol\":458:547  function getMessage() public view returns (string memory) {... */\n      swap1\n      jump\t// out\n        /* \"contracts/1.1/HelloSolidity.sol\":110:131  string public message */\n    tag_29:\n      0x00\n      dup1\n      sload\n      tag_43\n      swap1\n      tag_38\n      jump\t// in\n    tag_43:\n      dup1\n      0x1f\n      add\n      0x20\n      dup1\n      swap2\n      div\n      mul\n      0x20\n      add\n      mload(0x40)\n      swap1\n      dup2\n      add\n      0x40\n      mstore\n      dup1\n      swap3\n      swap2\n      swap1\n      dup2\n      dup2\n      mstore\n      0x20\n      add\n      dup3\n      dup1\n      sload\n      tag_44\n      swap1\n      tag_38\n      jump\t// in\n    tag_44:\n      dup1\n      iszero\n      tag_45\n      jumpi\n      dup1\n      0x1f\n      lt\n      tag_46\n      jumpi\n      0x0100\n      dup1\n      dup4\n      sload\n      div\n      mul\n      dup4\n      mstore\n      swap2\n      0x20\n      add\n      swap2\n      jump(tag_45)\n    tag_46:\n      dup3\n      add\n      swap2\n      swap1\n      0x00\n      mstore\n      keccak256(0x00, 0x20)\n      swap1\n    tag_47:\n      dup2\n      sload\n      dup2\n      mstore\n      swap1\n      0x01\n      add\n      swap1\n      0x20\n      add\n      dup1\n      dup4\n      gt\n      tag_47\n      jumpi\n      dup3\n      swap1\n      sub\n      0x1f\n      and\n      dup3\n      add\n      swap2\n    tag_45:\n      pop\n      pop\n      pop\n      pop\n      pop\n      dup2\n      jump\t// out\n        /* \"#utility.yul\":7:82   */\n    tag_48:\n        /* \"#utility.yul\":40:46   */\n      0x00\n        /* \"#utility.yul\":73:75   */\n      0x40\n        /* \"#utility.yul\":67:76   */\n      mload\n        /* \"#utility.yul\":57:76   */\n      swap1\n      pop\n        /* \"#utility.yul\":7:82   */\n      swap1\n      jump\t// out\n        /* \"#utility.yul\":88:205   */\n    tag_49:\n        /* \"#utility.yul\":197:198   */\n      0x00\n        /* \"#utility.yul\":194:195   */\n      0x00\n        /* \"#utility.yul\":187:199   */\n      revert\n        /* \"#utility.yul\":211:328   */\n    tag_50:\n        /* \"#utility.yul\":320:321   */\n      0x00\n        /* \"#utility.yul\":317:318   */\n      0x00\n        /* \"#utility.yul\":310:322   */\n      revert\n        /* \"#utility.yul\":334:451   */\n    tag_51:\n        /* \"#utility.yul\":443:444   */\n      0x00\n        /* \"#utility.yul\":440:441   */\n      0x00\n        /* \"#utility.yul\":433:445   */\n      revert\n        /* \"#utility.yul\":457:574   */\n    tag_52:\n        /* \"#utility.yul\":566:567   */\n      0x00\n        /* \"#utility.yul\":563:564   */\n      0x00\n        /* \"#utility.yul\":556:568   */\n      revert\n        /* \"#utility.yul\":580:682   */\n    tag_53:\n        /* \"#utility.yul\":621:627   */\n      0x00\n        /* \"#utility.yul\":672:674   */\n      0x1f\n        /* \"#utility.yul\":668:675   */\n      not\n        /* \"#utility.yul\":663:665   */\n      0x1f\n        /* \"#utility.yul\":656:661   */\n      dup4\n        /* \"#utility.yul\":652:666   */\n      add\n        /* \"#utility.yul\":648:676   */\n      and\n        /* \"#utility.yul\":638:676   */\n      swap1\n      pop\n        /* \"#utility.yul\":580:682   */\n      swap2\n      swap1\n      pop\n      jump\t// out\n        /* \"#utility.yul\":688:868   */\n    tag_54:\n        /* \"#utility.yul\":736:813   */\n      0x4e487b7100000000000000000000000000000000000000000000000000000000\n        /* \"#utility.yul\":733:734   */\n      0x00\n        /* \"#utility.yul\":726:814   */\n      mstore\n        /* \"#utility.yul\":833:837   */\n      0x41\n        /* \"#utility.yul\":830:831   */\n      0x04\n        /* \"#utility.yul\":823:838   */\n      mstore\n        /* \"#utility.yul\":857:861   */\n      0x24\n        /* \"#utility.yul\":854:855   */\n      0x00\n        /* \"#utility.yul\":847:862   */\n      revert\n        /* \"#utility.yul\":874:1155   */\n    tag_55:\n        /* \"#utility.yul\":957:984   */\n      tag_96\n        /* \"#utility.yul\":979:983   */\n      dup3\n        /* \"#utility.yul\":957:984   */\n      tag_53\n      jump\t// in\n    tag_96:\n        /* \"#utility.yul\":949:955   */\n      dup2\n        /* \"#utility.yul\":945:985   */\n      add\n        /* \"#utility.yul\":1087:1093   */\n      dup2\n        /* \"#utility.yul\":1075:1085   */\n      dup2\n        /* \"#utility.yul\":1072:1094   */\n      lt\n        /* \"#utility.yul\":1051:1069   */\n      0xffffffffffffffff\n        /* \"#utility.yul\":1039:1049   */\n      dup3\n        /* \"#utility.yul\":1036:1070   */\n      gt\n        /* \"#utility.yul\":1033:1095   */\n      or\n        /* \"#utility.yul\":1030:1118   */\n      iszero\n      tag_97\n      jumpi\n        /* \"#utility.yul\":1098:1116   */\n      tag_98\n      tag_54\n      jump\t// in\n    tag_98:\n        /* \"#utility.yul\":1030:1118   */\n    tag_97:\n        /* \"#utility.yul\":1138:1148   */\n      dup1\n        /* \"#utility.yul\":1134:1136   */\n      0x40\n        /* \"#utility.yul\":1127:1149   */\n      mstore\n        /* \"#utility.yul\":917:1155   */\n      pop\n        /* \"#utility.yul\":874:1155   */\n      pop\n      pop\n      jump\t// out\n        /* \"#utility.yul\":1161:1290   */\n    tag_56:\n        /* \"#utility.yul\":1195:1201   */\n      0x00\n        /* \"#utility.yul\":1222:1242   */\n      tag_100\n      tag_48\n      jump\t// in\n    tag_100:\n        /* \"#utility.yul\":1212:1242   */\n      swap1\n      pop\n        /* \"#utility.yul\":1251:1284   */\n      tag_101\n        /* \"#utility.yul\":1279:1283   */\n      dup3\n        /* \"#utility.yul\":1271:1277   */\n      dup3\n        /* \"#utility.yul\":1251:1284   */\n      tag_55\n      jump\t// in\n    tag_101:\n        /* \"#utility.yul\":1161:1290   */\n      swap2\n      swap1\n      pop\n      jump\t// out\n        /* \"#utility.yul\":1296:1604   */\n    tag_57:\n        /* \"#utility.yul\":1358:1362   */\n      0x00\n        /* \"#utility.yul\":1448:1466   */\n      0xffffffffffffffff\n        /* \"#utility.yul\":1440:1446   */\n      dup3\n        /* \"#utility.yul\":1437:1467   */\n      gt\n        /* \"#utility.yul\":1434:1490   */\n      iszero\n      tag_103\n      jumpi\n        /* \"#utility.yul\":1470:1488   */\n      tag_104\n      tag_54\n      jump\t// in\n    tag_104:\n        /* \"#utility.yul\":1434:1490   */\n    tag_103:\n        /* \"#utility.yul\":1508:1537   */\n      tag_105\n        /* \"#utility.yul\":1530:1536   */\n      dup3\n        /* \"#utility.yul\":1508:1537   */\n      tag_53\n      jump\t// in\n    tag_105:\n        /* \"#utility.yul\":1500:1537   */\n      swap1\n      pop\n        /* \"#utility.yul\":1592:1596   */\n      0x20\n        /* \"#utility.yul\":1586:1590   */\n      dup2\n        /* \"#utility.yul\":1582:1597   */\n      add\n        /* \"#utility.yul\":1574:1597   */\n      swap1\n      pop\n        /* \"#utility.yul\":1296:1604   */\n      swap2\n      swap1\n      pop\n      jump\t// out\n        /* \"#utility.yul\":1610:1758   */\n    tag_58:\n        /* \"#utility.yul\":1708:1714   */\n      dup3\n        /* \"#utility.yul\":1703:1706   */\n      dup2\n        /* \"#utility.yul\":1698:1701   */\n      dup4\n        /* \"#utility.yul\":1685:1715   */\n      calldatacopy\n        /* \"#utility.yul\":1749:1750   */\n      0x00\n        /* \"#utility.yul\":1740:1746   */\n      dup4\n        /* \"#utility.yul\":1735:1738   */\n      dup4\n        /* \"#utility.yul\":1731:1747   */\n      add\n        /* \"#utility.yul\":1724:1751   */\n      mstore\n        /* \"#utility.yul\":1610:1758   */\n      pop\n      pop\n      pop\n      jump\t// out\n        /* \"#utility.yul\":1764:2189   */\n    tag_59:\n        /* \"#utility.yul\":1842:1847   */\n      0x00\n        /* \"#utility.yul\":1867:1933   */\n      tag_108\n        /* \"#utility.yul\":1883:1932   */\n      tag_109\n        /* \"#utility.yul\":1925:1931   */\n      dup5\n        /* \"#utility.yul\":1883:1932   */\n      tag_57\n      jump\t// in\n    tag_109:\n        /* \"#utility.yul\":1867:1933   */\n      tag_56\n      jump\t// in\n    tag_108:\n        /* \"#utility.yul\":1858:1933   */\n      swap1\n      pop\n        /* \"#utility.yul\":1956:1962   */\n      dup3\n        /* \"#utility.yul\":1949:1954   */\n      dup2\n        /* \"#utility.yul\":1942:1963   */\n      mstore\n        /* \"#utility.yul\":1994:1998   */\n      0x20\n        /* \"#utility.yul\":1987:1992   */\n      dup2\n        /* \"#utility.yul\":1983:1999   */\n      add\n        /* \"#utility.yul\":2032:2035   */\n      dup5\n        /* \"#utility.yul\":2023:2029   */\n      dup5\n        /* \"#utility.yul\":2018:2021   */\n      dup5\n        /* \"#utility.yul\":2014:2030   */\n      add\n        /* \"#utility.yul\":2011:2036   */\n      gt\n        /* \"#utility.yul\":2008:2120   */\n      iszero\n      tag_110\n      jumpi\n        /* \"#utility.yul\":2039:2118   */\n      tag_111\n      tag_52\n      jump\t// in\n    tag_111:\n        /* \"#utility.yul\":2008:2120   */\n    tag_110:\n        /* \"#utility.yul\":2129:2183   */\n      tag_112\n        /* \"#utility.yul\":2176:2182   */\n      dup5\n        /* \"#utility.yul\":2171:2174   */\n      dup3\n        /* \"#utility.yul\":2166:2169   */\n      dup6\n        /* \"#utility.yul\":2129:2183   */\n      tag_58\n      jump\t// in\n    tag_112:\n        /* \"#utility.yul\":1848:2189   */\n      pop\n        /* \"#utility.yul\":1764:2189   */\n      swap4\n      swap3\n      pop\n      pop\n      pop\n      jump\t// out\n        /* \"#utility.yul\":2209:2549   */\n    tag_60:\n        /* \"#utility.yul\":2265:2270   */\n      0x00\n        /* \"#utility.yul\":2314:2317   */\n      dup3\n        /* \"#utility.yul\":2307:2311   */\n      0x1f\n        /* \"#utility.yul\":2299:2305   */\n      dup4\n        /* \"#utility.yul\":2295:2312   */\n      add\n        /* \"#utility.yul\":2291:2318   */\n      slt\n        /* \"#utility.yul\":2281:2403   */\n      tag_114\n      jumpi\n        /* \"#utility.yul\":2322:2401   */\n      tag_115\n      tag_51\n      jump\t// in\n    tag_115:\n        /* \"#utility.yul\":2281:2403   */\n    tag_114:\n        /* \"#utility.yul\":2439:2445   */\n      dup2\n        /* \"#utility.yul\":2426:2446   */\n      calldataload\n        /* \"#utility.yul\":2464:2543   */\n      tag_116\n        /* \"#utility.yul\":2539:2542   */\n      dup5\n        /* \"#utility.yul\":2531:2537   */\n      dup3\n        /* \"#utility.yul\":2524:2528   */\n      0x20\n        /* \"#utility.yul\":2516:2522   */\n      dup7\n        /* \"#utility.yul\":2512:2529   */\n      add\n        /* \"#utility.yul\":2464:2543   */\n      tag_59\n      jump\t// in\n    tag_116:\n        /* \"#utility.yul\":2455:2543   */\n      swap2\n      pop\n        /* \"#utility.yul\":2271:2549   */\n      pop\n        /* \"#utility.yul\":2209:2549   */\n      swap3\n      swap2\n      pop\n      pop\n      jump\t// out\n        /* \"#utility.yul\":2555:3064   */\n    tag_11:\n        /* \"#utility.yul\":2624:2630   */\n      0x00\n        /* \"#utility.yul\":2673:2675   */\n      0x20\n        /* \"#utility.yul\":2661:2670   */\n      dup3\n        /* \"#utility.yul\":2652:2659   */\n      dup5\n        /* \"#utility.yul\":2648:2671   */\n      sub\n        /* \"#utility.yul\":2644:2676   */\n      slt\n        /* \"#utility.yul\":2641:2760   */\n      iszero\n      tag_118\n      jumpi\n        /* \"#utility.yul\":2679:2758   */\n      tag_119\n      tag_49\n      jump\t// in\n    tag_119:\n        /* \"#utility.yul\":2641:2760   */\n    tag_118:\n        /* \"#utility.yul\":2827:2828   */\n      0x00\n        /* \"#utility.yul\":2816:2825   */\n      dup3\n        /* \"#utility.yul\":2812:2829   */\n      add\n        /* \"#utility.yul\":2799:2830   */\n      calldataload\n        /* \"#utility.yul\":2857:2875   */\n      0xffffffffffffffff\n        /* \"#utility.yul\":2849:2855   */\n      dup2\n        /* \"#utility.yul\":2846:2876   */\n      gt\n        /* \"#utility.yul\":2843:2960   */\n      iszero\n      tag_120\n      jumpi\n        /* \"#utility.yul\":2879:2958   */\n      tag_121\n      tag_50\n      jump\t// in\n    tag_121:\n        /* \"#utility.yul\":2843:2960   */\n    tag_120:\n        /* \"#utility.yul\":2984:3047   */\n      tag_122\n        /* \"#utility.yul\":3039:3046   */\n      dup5\n        /* \"#utility.yul\":3030:3036   */\n      dup3\n        /* \"#utility.yul\":3019:3028   */\n      dup6\n        /* \"#utility.yul\":3015:3037   */\n      add\n        /* \"#utility.yul\":2984:3047   */\n      tag_60\n      jump\t// in\n    tag_122:\n        /* \"#utility.yul\":2974:3047   */\n      swap2\n      pop\n        /* \"#utility.yul\":2770:3057   */\n      pop\n        /* \"#utility.yul\":2555:3064   */\n      swap3\n      swap2\n      pop\n      pop\n      jump\t// out\n        /* \"#utility.yul\":3070:3196   */\n    tag_61:\n        /* \"#utility.yul\":3107:3114   */\n      0x00\n        /* \"#utility.yul\":3147:3189   */\n      0xffffffffffffffffffffffffffffffffffffffff\n        /* \"#utility.yul\":3140:3145   */\n      dup3\n        /* \"#utility.yul\":3136:3190   */\n      and\n        /* \"#utility.yul\":3125:3190   */\n      swap1\n      pop\n        /* \"#utility.yul\":3070:3196   */\n      swap2\n      swap1\n      pop\n      jump\t// out\n        /* \"#utility.yul\":3202:3298   */\n    tag_62:\n        /* \"#utility.yul\":3239:3246   */\n      0x00\n        /* \"#utility.yul\":3268:3292   */\n      tag_125\n        /* \"#utility.yul\":3286:3291   */\n      dup3\n        /* \"#utility.yul\":3268:3292   */\n      tag_61\n      jump\t// in\n    tag_125:\n        /* \"#utility.yul\":3257:3292   */\n      swap1\n      pop\n        /* \"#utility.yul\":3202:3298   */\n      swap2\n      swap1\n      pop\n      jump\t// out\n        /* \"#utility.yul\":3304:3422   */\n    tag_63:\n        /* \"#utility.yul\":3391:3415   */\n      tag_127\n        /* \"#utility.yul\":3409:3414   */\n      dup2\n        /* \"#utility.yul\":3391:3415   */\n      tag_62\n      jump\t// in\n    tag_127:\n        /* \"#utility.yul\":3386:3389   */\n      dup3\n        /* \"#utility.yul\":3379:3416   */\n      mstore\n        /* \"#utility.yul\":3304:3422   */\n      pop\n      pop\n      jump\t// out\n        /* \"#utility.yul\":3428:3650   */\n    tag_16:\n        /* \"#utility.yul\":3521:3525   */\n      0x00\n        /* \"#utility.yul\":3559:3561   */\n      0x20\n        /* \"#utility.yul\":3548:3557   */\n      dup3\n        /* \"#utility.yul\":3544:3562   */\n      add\n        /* \"#utility.yul\":3536:3562   */\n      swap1\n      pop\n        /* \"#utility.yul\":3572:3643   */\n      tag_129\n        /* \"#utility.yul\":3640:3641   */\n      0x00\n        /* \"#utility.yul\":3629:3638   */\n      dup4\n        /* \"#utility.yul\":3625:3642   */\n      add\n        /* \"#utility.yul\":3616:3622   */\n      dup5\n        /* \"#utility.yul\":3572:3643   */\n      tag_63\n      jump\t// in\n    tag_129:\n        /* \"#utility.yul\":3428:3650   */\n      swap3\n      swap2\n      pop\n      pop\n      jump\t// out\n        /* \"#utility.yul\":3656:3746   */\n    tag_64:\n        /* \"#utility.yul\":3690:3697   */\n      0x00\n        /* \"#utility.yul\":3733:3738   */\n      dup2\n        /* \"#utility.yul\":3726:3739   */\n      iszero\n        /* \"#utility.yul\":3719:3740   */\n      iszero\n        /* \"#utility.yul\":3708:3740   */\n      swap1\n      pop\n        /* \"#utility.yul\":3656:3746   */\n      swap2\n      swap1\n      pop\n      jump\t// out\n        /* \"#utility.yul\":3752:3861   */\n    tag_65:\n        /* \"#utility.yul\":3833:3854   */\n      tag_132\n        /* \"#utility.yul\":3848:3853   */\n      dup2\n        /* \"#utility.yul\":3833:3854   */\n      tag_64\n      jump\t// in\n    tag_132:\n        /* \"#utility.yul\":3828:3831   */\n      dup3\n        /* \"#utility.yul\":3821:3855   */\n      mstore\n        /* \"#utility.yul\":3752:3861   */\n      pop\n      pop\n      jump\t// out\n        /* \"#utility.yul\":3867:4077   */\n    tag_23:\n        /* \"#utility.yul\":3954:3958   */\n      0x00\n        /* \"#utility.yul\":3992:3994   */\n      0x20\n        /* \"#utility.yul\":3981:3990   */\n      dup3\n        /* \"#utility.yul\":3977:3995   */\n      add\n        /* \"#utility.yul\":3969:3995   */\n      swap1\n      pop\n        /* \"#utility.yul\":4005:4070   */\n      tag_134\n        /* \"#utility.yul\":4067:4068   */\n      0x00\n        /* \"#utility.yul\":4056:4065   */\n      dup4\n        /* \"#utility.yul\":4052:4069   */\n      add\n        /* \"#utility.yul\":4043:4049   */\n      dup5\n        /* \"#utility.yul\":4005:4070   */\n      tag_65\n      jump\t// in\n    tag_134:\n        /* \"#utility.yul\":3867:4077   */\n      swap3\n      swap2\n      pop\n      pop\n      jump\t// out\n        /* \"#utility.yul\":4083:4182   */\n    tag_66:\n        /* \"#utility.yul\":4135:4141   */\n      0x00\n        /* \"#utility.yul\":4169:4174   */\n      dup2\n        /* \"#utility.yul\":4163:4175   */\n      mload\n        /* \"#utility.yul\":4153:4175   */\n      swap1\n      pop\n        /* \"#utility.yul\":4083:4182   */\n      swap2\n      swap1\n      pop\n      jump\t// out\n        /* \"#utility.yul\":4188:4357   */\n    tag_67:\n        /* \"#utility.yul\":4272:4283   */\n      0x00\n        /* \"#utility.yul\":4306:4312   */\n      dup3\n        /* \"#utility.yul\":4301:4304   */\n      dup3\n        /* \"#utility.yul\":4294:4313   */\n      mstore\n        /* \"#utility.yul\":4346:4350   */\n      0x20\n        /* \"#utility.yul\":4341:4344   */\n      dup3\n        /* \"#utility.yul\":4337:4351   */\n      add\n        /* \"#utility.yul\":4322:4351   */\n      swap1\n      pop\n        /* \"#utility.yul\":4188:4357   */\n      swap3\n      swap2\n      pop\n      pop\n      jump\t// out\n        /* \"#utility.yul\":4363:4502   */\n    tag_68:\n        /* \"#utility.yul\":4452:4458   */\n      dup3\n        /* \"#utility.yul\":4447:4450   */\n      dup2\n        /* \"#utility.yul\":4442:4445   */\n      dup4\n        /* \"#utility.yul\":4436:4459   */\n      mcopy\n        /* \"#utility.yul\":4493:4494   */\n      0x00\n        /* \"#utility.yul\":4484:4490   */\n      dup4\n        /* \"#utility.yul\":4479:4482   */\n      dup4\n        /* \"#utility.yul\":4475:4491   */\n      add\n        /* \"#utility.yul\":4468:4495   */\n      mstore\n        /* \"#utility.yul\":4363:4502   */\n      pop\n      pop\n      pop\n      jump\t// out\n        /* \"#utility.yul\":4508:4885   */\n    tag_69:\n        /* \"#utility.yul\":4596:4599   */\n      0x00\n        /* \"#utility.yul\":4624:4663   */\n      tag_139\n        /* \"#utility.yul\":4657:4662   */\n      dup3\n        /* \"#utility.yul\":4624:4663   */\n      tag_66\n      jump\t// in\n    tag_139:\n        /* \"#utility.yul\":4679:4750   */\n      tag_140\n        /* \"#utility.yul\":4743:4749   */\n      dup2\n        /* \"#utility.yul\":4738:4741   */\n      dup6\n        /* \"#utility.yul\":4679:4750   */\n      tag_67\n      jump\t// in\n    tag_140:\n        /* \"#utility.yul\":4672:4750   */\n      swap4\n      pop\n        /* \"#utility.yul\":4759:4824   */\n      tag_141\n        /* \"#utility.yul\":4817:4823   */\n      dup2\n        /* \"#utility.yul\":4812:4815   */\n      dup6\n        /* \"#utility.yul\":4805:4809   */\n      0x20\n        /* \"#utility.yul\":4798:4803   */\n      dup7\n        /* \"#utility.yul\":4794:4810   */\n      add\n        /* \"#utility.yul\":4759:4824   */\n      tag_68\n      jump\t// in\n    tag_141:\n        /* \"#utility.yul\":4849:4878   */\n      tag_142\n        /* \"#utility.yul\":4871:4877   */\n      dup2\n        /* \"#utility.yul\":4849:4878   */\n      tag_53\n      jump\t// in\n    tag_142:\n        /* \"#utility.yul\":4844:4847   */\n      dup5\n        /* \"#utility.yul\":4840:4879   */\n      add\n        /* \"#utility.yul\":4833:4879   */\n      swap2\n      pop\n        /* \"#utility.yul\":4600:4885   */\n      pop\n        /* \"#utility.yul\":4508:4885   */\n      swap3\n      swap2\n      pop\n      pop\n      jump\t// out\n        /* \"#utility.yul\":4891:5204   */\n    tag_27:\n        /* \"#utility.yul\":5004:5008   */\n      0x00\n        /* \"#utility.yul\":5042:5044   */\n      0x20\n        /* \"#utility.yul\":5031:5040   */\n      dup3\n        /* \"#utility.yul\":5027:5045   */\n      add\n        /* \"#utility.yul\":5019:5045   */\n      swap1\n      pop\n        /* \"#utility.yul\":5091:5100   */\n      dup2\n        /* \"#utility.yul\":5085:5089   */\n      dup2\n        /* \"#utility.yul\":5081:5101   */\n      sub\n        /* \"#utility.yul\":5077:5078   */\n      0x00\n        /* \"#utility.yul\":5066:5075   */\n      dup4\n        /* \"#utility.yul\":5062:5079   */\n      add\n        /* \"#utility.yul\":5055:5102   */\n      mstore\n        /* \"#utility.yul\":5119:5197   */\n      tag_144\n        /* \"#utility.yul\":5192:5196   */\n      dup2\n        /* \"#utility.yul\":5183:5189   */\n      dup5\n        /* \"#utility.yul\":5119:5197   */\n      tag_69\n      jump\t// in\n    tag_144:\n        /* \"#utility.yul\":5111:5197   */\n      swap1\n      pop\n        /* \"#utility.yul\":4891:5204   */\n      swap3\n      swap2\n      pop\n      pop\n      jump\t// out\n        /* \"#utility.yul\":5210:5390   */\n    tag_70:\n        /* \"#utility.yul\":5258:5335   */\n      0x4e487b7100000000000000000000000000000000000000000000000000000000\n        /* \"#utility.yul\":5255:5256   */\n      0x00\n        /* \"#utility.yul\":5248:5336   */\n      mstore\n        /* \"#utility.yul\":5355:5359   */\n      0x22\n        /* \"#utility.yul\":5352:5353   */\n      0x04\n        /* \"#utility.yul\":5345:5360   */\n      mstore\n        /* \"#utility.yul\":5379:5383   */\n      0x24\n        /* \"#utility.yul\":5376:5377   */\n      0x00\n        /* \"#utility.yul\":5369:5384   */\n      revert\n        /* \"#utility.yul\":5396:5716   */\n    tag_38:\n        /* \"#utility.yul\":5440:5446   */\n      0x00\n        /* \"#utility.yul\":5477:5478   */\n      0x02\n        /* \"#utility.yul\":5471:5475   */\n      dup3\n        /* \"#utility.yul\":5467:5479   */\n      div\n        /* \"#utility.yul\":5457:5479   */\n      swap1\n      pop\n        /* \"#utility.yul\":5524:5525   */\n      0x01\n        /* \"#utility.yul\":5518:5522   */\n      dup3\n        /* \"#utility.yul\":5514:5526   */\n      and\n        /* \"#utility.yul\":5545:5563   */\n      dup1\n        /* \"#utility.yul\":5535:5616   */\n      tag_147\n      jumpi\n        /* \"#utility.yul\":5601:5605   */\n      0x7f\n        /* \"#utility.yul\":5593:5599   */\n      dup3\n        /* \"#utility.yul\":5589:5606   */\n      and\n        /* \"#utility.yul\":5579:5606   */\n      swap2\n      pop\n        /* \"#utility.yul\":5535:5616   */\n    tag_147:\n        /* \"#utility.yul\":5663:5665   */\n      0x20\n        /* \"#utility.yul\":5655:5661   */\n      dup3\n        /* \"#utility.yul\":5652:5666   */\n      lt\n        /* \"#utility.yul\":5632:5650   */\n      dup2\n        /* \"#utility.yul\":5629:5667   */\n      sub\n        /* \"#utility.yul\":5626:5710   */\n      tag_148\n      jumpi\n        /* \"#utility.yul\":5682:5700   */\n      tag_149\n      tag_70\n      jump\t// in\n    tag_149:\n        /* \"#utility.yul\":5626:5710   */\n    tag_148:\n        /* \"#utility.yul\":5447:5716   */\n      pop\n        /* \"#utility.yul\":5396:5716   */\n      swap2\n      swap1\n      pop\n      jump\t// out\n        /* \"#utility.yul\":5722:5863   */\n    tag_71:\n        /* \"#utility.yul\":5771:5775   */\n      0x00\n        /* \"#utility.yul\":5794:5797   */\n      dup2\n        /* \"#utility.yul\":5786:5797   */\n      swap1\n      pop\n        /* \"#utility.yul\":5817:5820   */\n      dup2\n        /* \"#utility.yul\":5814:5815   */\n      0x00\n        /* \"#utility.yul\":5807:5821   */\n      mstore\n        /* \"#utility.yul\":5851:5855   */\n      0x20\n        /* \"#utility.yul\":5848:5849   */\n      0x00\n        /* \"#utility.yul\":5838:5856   */\n      keccak256\n        /* \"#utility.yul\":5830:5856   */\n      swap1\n      pop\n        /* \"#utility.yul\":5722:5863   */\n      swap2\n      swap1\n      pop\n      jump\t// out\n        /* \"#utility.yul\":5869:5962   */\n    tag_72:\n        /* \"#utility.yul\":5906:5912   */\n      0x00\n        /* \"#utility.yul\":5953:5955   */\n      0x20\n        /* \"#utility.yul\":5948:5950   */\n      0x1f\n        /* \"#utility.yul\":5941:5946   */\n      dup4\n        /* \"#utility.yul\":5937:5951   */\n      add\n        /* \"#utility.yul\":5933:5956   */\n      div\n        /* \"#utility.yul\":5923:5956   */\n      swap1\n      pop\n        /* \"#utility.yul\":5869:5962   */\n      swap2\n      swap1\n      pop\n      jump\t// out\n        /* \"#utility.yul\":5968:6075   */\n    tag_73:\n        /* \"#utility.yul\":6012:6020   */\n      0x00\n        /* \"#utility.yul\":6062:6067   */\n      dup3\n        /* \"#utility.yul\":6056:6060   */\n      dup3\n        /* \"#utility.yul\":6052:6068   */\n      shl\n        /* \"#utility.yul\":6031:6068   */\n      swap1\n      pop\n        /* \"#utility.yul\":5968:6075   */\n      swap3\n      swap2\n      pop\n      pop\n      jump\t// out\n        /* \"#utility.yul\":6081:6474   */\n    tag_74:\n        /* \"#utility.yul\":6150:6156   */\n      0x00\n        /* \"#utility.yul\":6200:6201   */\n      0x08\n        /* \"#utility.yul\":6188:6198   */\n      dup4\n        /* \"#utility.yul\":6184:6202   */\n      mul\n        /* \"#utility.yul\":6223:6320   */\n      tag_154\n        /* \"#utility.yul\":6253:6319   */\n      0xffffffffffffffffffffffffffffffffffffffffffffffffffffffffffffffff\n        /* \"#utility.yul\":6242:6251   */\n      dup3\n        /* \"#utility.yul\":6223:6320   */\n      tag_73\n      jump\t// in\n    tag_154:\n        /* \"#utility.yul\":6341:6380   */\n      tag_155\n        /* \"#utility.yul\":6371:6379   */\n      dup7\n        /* \"#utility.yul\":6360:6369   */\n      dup4\n        /* \"#utility.yul\":6341:6380   */\n      tag_73\n      jump\t// in\n    tag_155:\n        /* \"#utility.yul\":6329:6380   */\n      swap6\n      pop\n        /* \"#utility.yul\":6413:6417   */\n      dup1\n        /* \"#utility.yul\":6409:6418   */\n      not\n        /* \"#utility.yul\":6402:6407   */\n      dup5\n        /* \"#utility.yul\":6398:6419   */\n      and\n        /* \"#utility.yul\":6389:6419   */\n      swap4\n      pop\n        /* \"#utility.yul\":6462:6466   */\n      dup1\n        /* \"#utility.yul\":6452:6460   */\n      dup7\n        /* \"#utility.yul\":6448:6467   */\n      and\n        /* \"#utility.yul\":6441:6446   */\n      dup5\n        /* \"#utility.yul\":6438:6468   */\n      or\n        /* \"#utility.yul\":6428:6468   */\n      swap3\n      pop\n        /* \"#utility.yul\":6157:6474   */\n      pop\n      pop\n        /* \"#utility.yul\":6081:6474   */\n      swap4\n      swap3\n      pop\n      pop\n      pop\n      jump\t// out\n        /* \"#utility.yul\":6480:6557   */\n    tag_75:\n        /* \"#utility.yul\":6517:6524   */\n      0x00\n        /* \"#utility.yul\":6546:6551   */\n      dup2\n        /* \"#utility.yul\":6535:6551   */\n      swap1\n      pop\n        /* \"#utility.yul\":6480:6557   */\n      swap2\n      swap1\n      pop\n      jump\t// out\n        /* \"#utility.yul\":6563:6623   */\n    tag_76:\n        /* \"#utility.yul\":6591:6594   */\n      0x00\n        /* \"#utility.yul\":6612:6617   */\n      dup2\n        /* \"#utility.yul\":6605:6617   */\n      swap1\n      pop\n        /* \"#utility.yul\":6563:6623   */\n      swap2\n      swap1\n      pop\n      jump\t// out\n        /* \"#utility.yul\":6629:6771   */\n    tag_77:\n        /* \"#utility.yul\":6679:6688   */\n      0x00\n        /* \"#utility.yul\":6712:6765   */\n      tag_159\n        /* \"#utility.yul\":6730:6764   */\n      tag_160\n        /* \"#utility.yul\":6739:6763   */\n      tag_161\n        /* \"#utility.yul\":6757:6762   */\n      dup5\n        /* \"#utility.yul\":6739:6763   */\n      tag_75\n      jump\t// in\n    tag_161:\n        /* \"#utility.yul\":6730:6764   */\n      tag_76\n      jump\t// in\n    tag_160:\n        /* \"#utility.yul\":6712:6765   */\n      tag_75\n      jump\t// in\n    tag_159:\n        /* \"#utility.yul\":6699:6765   */\n      swap1\n      pop\n        /* \"#utility.yul\":6629:6771   */\n      swap2\n      swap1\n      pop\n      jump\t// out\n        /* \"#utility.yul\":6777:6852   */\n    tag_78:\n        /* \"#utility.yul\":6820:6823   */\n      0x00\n        /* \"#utility.yul\":6841:6846   */\n      dup2\n        /* \"#utility.yul\":6834:6846   */\n      swap1\n      pop\n        /* \"#utility.yul\":6777:6852   */\n      swap2\n      swap1\n      pop\n      jump\t// out\n        /* \"#utility.yul\":6858:7127   */\n    tag_79:\n        /* \"#utility.yul\":6968:7007   */\n      tag_164\n        /* \"#utility.yul\":6999:7006   */\n      dup4\n        /* \"#utility.yul\":6968:7007   */\n      tag_77\n      jump\t// in\n    tag_164:\n        /* \"#utility.yul\":7029:7120   */\n      tag_165\n        /* \"#utility.yul\":7078:7119   */\n      tag_166\n        /* \"#utility.yul\":7102:7118   */\n      dup3\n        /* \"#utility.yul\":7078:7119   */\n      tag_78\n      jump\t// in\n    tag_166:\n        /* \"#utility.yul\":7070:7076   */\n      dup5\n        /* \"#utility.yul\":7063:7067   */\n      dup5\n        /* \"#utility.yul\":7057:7068   */\n      sload\n        /* \"#utility.yul\":7029:7120   */\n      tag_74\n      jump\t// in\n    tag_165:\n        /* \"#utility.yul\":7023:7027   */\n      dup3\n        /* \"#utility.yul\":7016:7121   */\n      sstore\n        /* \"#utility.yul\":6934:7127   */\n      pop\n        /* \"#utility.yul\":6858:7127   */\n      pop\n      pop\n      pop\n      jump\t// out\n        /* \"#utility.yul\":7133:7206   */\n    tag_80:\n        /* \"#utility.yul\":7178:7181   */\n      0x00\n        /* \"#utility.yul\":7199:7200   */\n      0x00\n        /* \"#utility.yul\":7192:7200   */\n      swap1\n      pop\n        /* \"#utility.yul\":7133:7206   */\n      swap1\n      jump\t// out\n        /* \"#utility.yul\":7212:7401   */\n    tag_81:\n        /* \"#utility.yul\":7289:7321   */\n      tag_169\n      tag_80\n      jump\t// in\n    tag_169:\n        /* \"#utility.yul\":7330:7395   */\n      tag_170\n        /* \"#utility.yul\":7388:7394   */\n      dup2\n        /* \"#utility.yul\":7380:7386   */\n      dup5\n        /* \"#utility.yul\":7374:7378   */\n      dup5\n        /* \"#utility.yul\":7330:7395   */\n      tag_79\n      jump\t// in\n    tag_170:\n        /* \"#utility.yul\":7265:7401   */\n      pop\n        /* \"#utility.yul\":7212:7401   */\n      pop\n      pop\n      jump\t// out\n        /* \"#utility.yul\":7407:7621   */\n    tag_82:\n        /* \"#utility.yul\":7492:7493   */\n      0x00\n        /* \"#utility.yul\":7477:7615   */\n    tag_172:\n        /* \"#utility.yul\":7502:7511   */\n      dup3\n        /* \"#utility.yul\":7499:7500   */\n      dup2\n        /* \"#utility.yul\":7496:7512   */\n      lt\n        /* \"#utility.yul\":7477:7615   */\n      iszero\n      tag_174\n      jumpi\n        /* \"#utility.yul\":7554:7605   */\n      tag_175\n        /* \"#utility.yul\":7603:7604   */\n      0x00\n        /* \"#utility.yul\":7599:7600   */\n      dup3\n        /* \"#utility.yul\":7588:7597   */\n      dup5\n        /* \"#utility.yul\":7584:7601   */\n      add\n        /* \"#utility.yul\":7554:7605   */\n      tag_81\n      jump\t// in\n    tag_175:\n        /* \"#utility.yul\":7527:7528   */\n      0x01\n        /* \"#utility.yul\":7524:7525   */\n      dup2\n        /* \"#utility.yul\":7520:7529   */\n      add\n        /* \"#utility.yul\":7515:7529   */\n      swap1\n      pop\n        /* \"#utility.yul\":7477:7615   */\n      jump(tag_172)\n    tag_174:\n        /* \"#utility.yul\":7481:7495   */\n      pop\n        /* \"#utility.yul\":7407:7621   */\n      pop\n      pop\n      jump\t// out\n        /* \"#utility.yul\":7627:8373   */\n    tag_83:\n        /* \"#utility.yul\":7728:7730   */\n      0x1f\n        /* \"#utility.yul\":7723:7726   */\n      dup3\n        /* \"#utility.yul\":7720:7731   */\n      gt\n        /* \"#utility.yul\":7717:8366   */\n      iszero\n      tag_177\n      jumpi\n        /* \"#utility.yul\":7757:7767   */\n      dup3\n        /* \"#utility.yul\":7752:7755   */\n      dup3\n        /* \"#utility.yul\":7749:7768   */\n      gt\n        /* \"#utility.yul\":7746:8356   */\n      iszero\n      tag_178\n      jumpi\n        /* \"#utility.yul\":7803:7841   */\n      tag_179\n        /* \"#utility.yul\":7835:7840   */\n      dup2\n        /* \"#utility.yul\":7803:7841   */\n      tag_71\n      jump\t// in\n    tag_179:\n        /* \"#utility.yul\":7878:7900   */\n      tag_180\n        /* \"#utility.yul\":7896:7899   */\n      dup4\n        /* \"#utility.yul\":7878:7900   */\n      tag_72\n      jump\t// in\n    tag_180:\n        /* \"#utility.yul\":7937:7966   */\n      tag_181\n        /* \"#utility.yul\":7955:7965   */\n      dup6\n        /* \"#utility.yul\":7937:7966   */\n      tag_72\n      jump\t// in\n    tag_181:\n        /* \"#utility.yul\":8127:8129   */\n      0x20\n        /* \"#utility.yul\":8115:8125   */\n      dup7\n        /* \"#utility.yul\":8112:8130   */\n      lt\n        /* \"#utility.yul\":8109:8188   */\n      iszero\n      tag_182\n      jumpi\n        /* \"#utility.yul\":8169:8170   */\n      0x00\n        /* \"#utility.yul\":8153:8170   */\n      swap1\n      pop\n        /* \"#utility.yul\":8109:8188   */\n    tag_182:\n        /* \"#utility.yul\":8238:8250   */\n      dup1\n        /* \"#utility.yul\":8228:8236   */\n      dup4\n        /* \"#utility.yul\":8224:8251   */\n      add\n        /* \"#utility.yul\":8268:8342   */\n      tag_183\n        /* \"#utility.yul\":8328:8340   */\n      dup3\n        /* \"#utility.yul\":8314:8326   */\n      dup5\n        /* \"#utility.yul\":8310:8341   */\n      sub\n        /* \"#utility.yul\":8297:8308   */\n      dup3\n        /* \"#utility.yul\":8268:8342   */\n      tag_82\n      jump\t// in\n    tag_183:\n        /* \"#utility.yul\":7769:8356   */\n      pop\n      pop\n      pop\n      pop\n        /* \"#utility.yul\":7746:8356   */\n    tag_178:\n        /* \"#utility.yul\":7717:8366   */\n    tag_177:\n        /* \"#utility.yul\":7627:8373   */\n      pop\n      pop\n      pop\n      jump\t// out\n        /* \"#utility.yul\":8379:8496   */\n    tag_84:\n        /* \"#utility.yul\":8433:8441   */\n      0x00\n        /* \"#utility.yul\":8483:8488   */\n      dup3\n        /* \"#utility.yul\":8477:8481   */\n      dup3\n        /* \"#utility.yul\":8473:8489   */\n      shr\n        /* \"#utility.yul\":8452:8489   */\n      swap1\n      pop\n        /* \"#utility.yul\":8379:8496   */\n      swap3\n      swap2\n      pop\n      pop\n      jump\t// out\n        /* \"#utility.yul\":8502:8671   */\n    tag_85:\n        /* \"#utility.yul\":8546:8552   */\n      0x00\n        /* \"#utility.yul\":8579:8630   */\n      tag_186\n        /* \"#utility.yul\":8627:8628   */\n      0x00\n        /* \"#utility.yul\":8623:8629   */\n      not\n        /* \"#utility.yul\":8615:8620   */\n      dup5\n        /* \"#utility.yul\":8612:8613   */\n      0x08\n        /* \"#utility.yul\":8608:8621   */\n      mul\n        /* \"#utility.yul\":8579:8630   */\n      tag_84\n      jump\t// in\n    tag_186:\n        /* \"#utility.yul\":8575:8631   */\n      not\n        /* \"#utility.yul\":8660:8664   */\n      dup1\n        /* \"#utility.yul\":8654:8658   */\n      dup4\n        /* \"#utility.yul\":8650:8665   */\n      and\n        /* \"#utility.yul\":8640:8665   */\n      swap2\n      pop\n        /* \"#utility.yul\":8553:8671   */\n      pop\n        /* \"#utility.yul\":8502:8671   */\n      swap3\n      swap2\n      pop\n      pop\n      jump\t// out\n        /* \"#utility.yul\":8676:8971   */\n    tag_86:\n        /* \"#utility.yul\":8752:8756   */\n      0x00\n        /* \"#utility.yul\":8898:8927   */\n      tag_188\n        /* \"#utility.yul\":8923:8926   */\n      dup4\n        /* \"#utility.yul\":8917:8921   */\n      dup4\n        /* \"#utility.yul\":8898:8927   */\n      tag_85\n      jump\t// in\n    tag_188:\n        /* \"#utility.yul\":8890:8927   */\n      swap2\n      pop\n        /* \"#utility.yul\":8960:8963   */\n      dup3\n        /* \"#utility.yul\":8957:8958   */\n      0x02\n        /* \"#utility.yul\":8953:8964   */\n      mul\n        /* \"#utility.yul\":8947:8951   */\n      dup3\n        /* \"#utility.yul\":8944:8965   */\n      or\n        /* \"#utility.yul\":8936:8965   */\n      swap1\n      pop\n        /* \"#utility.yul\":8676:8971   */\n      swap3\n      swap2\n      pop\n      pop\n      jump\t// out\n        /* \"#utility.yul\":8976:10371   */\n    tag_33:\n        /* \"#utility.yul\":9093:9130   */\n      tag_190\n        /* \"#utility.yul\":9126:9129   */\n      dup3\n        /* \"#utility.yul\":9093:9130   */\n      tag_66\n      jump\t// in\n    tag_190:\n        /* \"#utility.yul\":9195:9213   */\n      0xffffffffffffffff\n        /* \"#utility.yul\":9187:9193   */\n      dup2\n        /* \"#utility.yul\":9184:9214   */\n      gt\n        /* \"#utility.yul\":9181:9237   */\n      iszero\n      tag_191\n      jumpi\n        /* \"#utility.yul\":9217:9235   */\n      tag_192\n      tag_54\n      jump\t// in\n    tag_192:\n        /* \"#utility.yul\":9181:9237   */\n    tag_191:\n        /* \"#utility.yul\":9261:9299   */\n      tag_193\n        /* \"#utility.yul\":9293:9297   */\n      dup3\n        /* \"#utility.yul\":9287:9298   */\n      sload\n        /* \"#utility.yul\":9261:9299   */\n      tag_38\n      jump\t// in\n    tag_193:\n        /* \"#utility.yul\":9346:9413   */\n      tag_194\n        /* \"#utility.yul\":9406:9412   */\n      dup3\n        /* \"#utility.yul\":9398:9404   */\n      dup3\n        /* \"#utility.yul\":9392:9396   */\n      dup6\n        /* \"#utility.yul\":9346:9413   */\n      tag_83\n      jump\t// in\n    tag_194:\n        /* \"#utility.yul\":9440:9441   */\n      0x00\n        /* \"#utility.yul\":9464:9468   */\n      0x20\n        /* \"#utility.yul\":9451:9468   */\n      swap1\n      pop\n        /* \"#utility.yul\":9496:9498   */\n      0x1f\n        /* \"#utility.yul\":9488:9494   */\n      dup4\n        /* \"#utility.yul\":9485:9499   */\n      gt\n        /* \"#utility.yul\":9513:9514   */\n      0x01\n        /* \"#utility.yul\":9508:10126   */\n      dup2\n      eq\n      tag_196\n      jumpi\n        /* \"#utility.yul\":10170:10171   */\n      0x00\n        /* \"#utility.yul\":10187:10193   */\n      dup5\n        /* \"#utility.yul\":10184:10261   */\n      iszero\n      tag_197\n      jumpi\n        /* \"#utility.yul\":10236:10245   */\n      dup3\n        /* \"#utility.yul\":10231:10234   */\n      dup8\n        /* \"#utility.yul\":10227:10246   */\n      add\n        /* \"#utility.yul\":10221:10247   */\n      mload\n        /* \"#utility.yul\":10212:10247   */\n      swap1\n      pop\n        /* \"#utility.yul\":10184:10261   */\n    tag_197:\n        /* \"#utility.yul\":10287:10354   */\n      tag_198\n        /* \"#utility.yul\":10347:10353   */\n      dup6\n        /* \"#utility.yul\":10340:10345   */\n      dup3\n        /* \"#utility.yul\":10287:10354   */\n      tag_86\n      jump\t// in\n    tag_198:\n        /* \"#utility.yul\":10281:10285   */\n      dup7\n        /* \"#utility.yul\":10274:10355   */\n      sstore\n        /* \"#utility.yul\":10143:10365   */\n      pop\n        /* \"#utility.yul\":9478:10365   */\n      jump(tag_195)\n        /* \"#utility.yul\":9508:10126   */\n    tag_196:\n        /* \"#utility.yul\":9560:9564   */\n      0x1f\n        /* \"#utility.yul\":9556:9565   */\n      not\n        /* \"#utility.yul\":9548:9554   */\n      dup5\n        /* \"#utility.yul\":9544:9566   */\n      and\n        /* \"#utility.yul\":9594:9631   */\n      tag_199\n        /* \"#utility.yul\":9626:9630   */\n      dup7\n        /* \"#utility.yul\":9594:9631   */\n      tag_71\n      jump\t// in\n    tag_199:\n        /* \"#utility.yul\":9653:9654   */\n      0x00\n        /* \"#utility.yul\":9667:9875   */\n    tag_200:\n        /* \"#utility.yul\":9681:9688   */\n      dup3\n        /* \"#utility.yul\":9678:9679   */\n      dup2\n        /* \"#utility.yul\":9675:9689   */\n      lt\n        /* \"#utility.yul\":9667:9875   */\n      iszero\n      tag_202\n      jumpi\n        /* \"#utility.yul\":9760:9769   */\n      dup5\n        /* \"#utility.yul\":9755:9758   */\n      dup10\n        /* \"#utility.yul\":9751:9770   */\n      add\n        /* \"#utility.yul\":9745:9771   */\n      mload\n        /* \"#utility.yul\":9737:9743   */\n      dup3\n        /* \"#utility.yul\":9730:9772   */\n      sstore\n        /* \"#utility.yul\":9811:9812   */\n      0x01\n        /* \"#utility.yul\":9803:9809   */\n      dup3\n        /* \"#utility.yul\":9799:9813   */\n      add\n        /* \"#utility.yul\":9789:9813   */\n      swap2\n      pop\n        /* \"#utility.yul\":9858:9860   */\n      0x20\n        /* \"#utility.yul\":9847:9856   */\n      dup6\n        /* \"#utility.yul\":9843:9861   */\n      add\n        /* \"#utility.yul\":9830:9861   */\n      swap5\n      pop\n        /* \"#utility.yul\":9704:9708   */\n      0x20\n        /* \"#utility.yul\":9701:9702   */\n      dup2\n        /* \"#utility.yul\":9697:9709   */\n      add\n        /* \"#utility.yul\":9692:9709   */\n      swap1\n      pop\n        /* \"#utility.yul\":9667:9875   */\n      jump(tag_200)\n    tag_202:\n        /* \"#utility.yul\":9903:9909   */\n      dup7\n        /* \"#utility.yul\":9894:9901   */\n      dup4\n        /* \"#utility.yul\":9891:9910   */\n      lt\n        /* \"#utility.yul\":9888:10067   */\n      iszero\n      tag_203\n      jumpi\n        /* \"#utility.yul\":9961:9970   */\n      dup5\n        /* \"#utility.yul\":9956:9959   */\n      dup10\n        /* \"#utility.yul\":9952:9971   */\n      add\n        /* \"#utility.yul\":9946:9972   */\n      mload\n        /* \"#utility.yul\":10004:10052   */\n      tag_204\n        /* \"#utility.yul\":10046:10050   */\n      0x1f\n        /* \"#utility.yul\":10038:10044   */\n      dup10\n        /* \"#utility.yul\":10034:10051   */\n      and\n        /* \"#utility.yul\":10023:10032   */\n      dup3\n        /* \"#utility.yul\":10004:10052   */\n      tag_85\n      jump\t// in\n    tag_204:\n        /* \"#utility.yul\":9996:10002   */\n      dup4\n        /* \"#utility.yul\":9989:10053   */\n      sstore\n        /* \"#utility.yul\":9911:10067   */\n      pop\n        /* \"#utility.yul\":9888:10067   */\n    tag_203:\n        /* \"#utility.yul\":10113:10114   */\n      0x01\n        /* \"#utility.yul\":10109:10110   */\n      0x02\n        /* \"#utility.yul\":10101:10107   */\n      dup9\n        /* \"#utility.yul\":10097:10111   */\n      mul\n        /* \"#utility.yul\":10093:10115   */\n      add\n        /* \"#utility.yul\":10087:10091   */\n      dup9\n        /* \"#utility.yul\":10080:10116   */\n      sstore\n        /* \"#utility.yul\":9515:10126   */\n      pop\n      pop\n      pop\n        /* \"#utility.yul\":9478:10365   */\n    tag_195:\n      pop\n        /* \"#utility.yul\":9068:10371   */\n      pop\n      pop\n      pop\n        /* \"#utility.yul\":8976:10371   */\n      pop\n      pop\n      jump\t// out\n\n    auxdata: 0xa26469706673582212207b8e9c9f90d2e46c023a3aba9ec5bc68007c700b7c1b5f06c6056f4b5c6cb0f064736f6c63430008220033\n}\n",
				"bytecode": {
					"linkReferences": {},
					"object": "608060405234801561000f575f5ffd5b506040518060400160405280601981526020017f48656c6c6f2c736f6c696469747920323032362d30342d3139000000000000008152505f908161005391906102e7565b503360015f6101000a81548173ffffffffffffffffffffffffffffffffffffffff021916908373ffffffffffffffffffffffffffffffffffffffff1602179055506103b6565b5f81519050919050565b7f4e487b71000000000000000000000000000000000000000000000000000000005f52604160045260245ffd5b7f4e487b71000000000000000000000000000000000000000000000000000000005f52602260045260245ffd5b5f600282049050600182168061011457607f821691505b602082108103610127576101266100d0565b5b50919050565b5f819050815f5260205f209050919050565b5f6020601f8301049050919050565b5f82821b905092915050565b5f600883026101897fffffffffffffffffffffffffffffffffffffffffffffffffffffffffffffffff8261014e565b610193868361014e565b95508019841693508086168417925050509392505050565b5f819050919050565b5f819050919050565b5f6101d76101d26101cd846101ab565b6101b4565b6101ab565b9050919050565b5f819050919050565b6101f0836101bd565b6102046101fc826101de565b84845461015a565b825550505050565b5f5f905090565b61021b61020c565b6102268184846101e7565b505050565b5f5b8281101561024c576102415f828401610213565b60018101905061022d565b505050565b601f82111561029f578282111561029e5761026b8161012d565b6102748361013f565b61027d8561013f565b602086101561028a575f90505b8083016102998284038261022b565b505050505b5b505050565b5f82821c905092915050565b5f6102bf5f19846008026102a4565b1980831691505092915050565b5f6102d783836102b0565b9150826002028217905092915050565b6102f082610099565b67ffffffffffffffff811115610309576103086100a3565b5b61031382546100fd565b61031e828285610251565b5f60209050601f83116001811461034f575f841561033d578287015190505b61034785826102cc565b8655506103ae565b601f19841661035d8661012d565b5f5b828110156103845784890151825560018201915060208501945060208101905061035f565b868310156103a1578489015161039d601f8916826102b0565b8355505b6001600288020188555050505b505050505050565b6108a0806103c35f395ff3fe608060405234801561000f575f5ffd5b5060043610610060575f3560e01c80631923be2414610064578063893d20e8146100805780638da5cb5b1461009e5780638f32d59b146100bc578063ce6d41de146100da578063e21f37ce146100f8575b5f5ffd5b61007e60048036038101906100799190610432565b610116565b005b610088610128565b60405161009591906104b8565b60405180910390f35b6100a6610150565b6040516100b391906104b8565b60405180910390f35b6100c4610175565b6040516100d191906104eb565b60405180910390f35b6100e26101cb565b6040516100ef9190610564565b60405180910390f35b61010061025a565b60405161010d9190610564565b60405180910390f35b805f9081610124919061079b565b5050565b5f60015f9054906101000a900473ffffffffffffffffffffffffffffffffffffffff16905090565b60015f9054906101000a900473ffffffffffffffffffffffffffffffffffffffff1681565b5f60015f9054906101000a900473ffffffffffffffffffffffffffffffffffffffff1673ffffffffffffffffffffffffffffffffffffffff163373ffffffffffffffffffffffffffffffffffffffff1614905090565b60605f80546101d9906105b1565b80601f0160208091040260200160405190810160405280929190818152602001828054610205906105b1565b80156102505780601f1061022757610100808354040283529160200191610250565b820191905f5260205f20905b81548152906001019060200180831161023357829003601f168201915b5050505050905090565b5f8054610266906105b1565b80601f0160208091040260200160405190810160405280929190818152602001828054610292906105b1565b80156102dd5780601f106102b4576101008083540402835291602001916102dd565b820191905f5260205f20905b8154815290600101906020018083116102c057829003601f168201915b505050505081565b5f604051905090565b5f5ffd5b5f5ffd5b5f5ffd5b5f5ffd5b5f601f19601f8301169050919050565b7f4e487b71000000000000000000000000000000000000000000000000000000005f52604160045260245ffd5b610344826102fe565b810181811067ffffffffffffffff821117156103635761036261030e565b5b80604052505050565b5f6103756102e5565b9050610381828261033b565b919050565b5f67ffffffffffffffff8211156103a05761039f61030e565b5b6103a9826102fe565b9050602081019050919050565b828183375f83830152505050565b5f6103d66103d184610386565b61036c565b9050828152602081018484840111156103f2576103f16102fa565b5b6103fd8482856103b6565b509392505050565b5f82601f830112610419576104186102f6565b5b81356104298482602086016103c4565b91505092915050565b5f60208284031215610447576104466102ee565b5b5f82013567ffffffffffffffff811115610464576104636102f2565b5b61047084828501610405565b91505092915050565b5f73ffffffffffffffffffffffffffffffffffffffff82169050919050565b5f6104a282610479565b9050919050565b6104b281610498565b82525050565b5f6020820190506104cb5f8301846104a9565b92915050565b5f8115159050919050565b6104e5816104d1565b82525050565b5f6020820190506104fe5f8301846104dc565b92915050565b5f81519050919050565b5f82825260208201905092915050565b8281835e5f83830152505050565b5f61053682610504565b610540818561050e565b935061055081856020860161051e565b610559816102fe565b840191505092915050565b5f6020820190508181035f83015261057c818461052c565b905092915050565b7f4e487b71000000000000000000000000000000000000000000000000000000005f52602260045260245ffd5b5f60028204905060018216806105c857607f821691505b6020821081036105db576105da610584565b5b50919050565b5f819050815f5260205f209050919050565b5f6020601f8301049050919050565b5f82821b905092915050565b5f6008830261063d7fffffffffffffffffffffffffffffffffffffffffffffffffffffffffffffffff82610602565b6106478683610602565b95508019841693508086168417925050509392505050565b5f819050919050565b5f819050919050565b5f61068b6106866106818461065f565b610668565b61065f565b9050919050565b5f819050919050565b6106a483610671565b6106b86106b082610692565b84845461060e565b825550505050565b5f5f905090565b6106cf6106c0565b6106da81848461069b565b505050565b5f5b82811015610700576106f55f8284016106c7565b6001810190506106e1565b505050565b601f82111561075357828211156107525761071f816105e1565b610728836105f3565b610731856105f3565b602086101561073e575f90505b80830161074d828403826106df565b505050505b5b505050565b5f82821c905092915050565b5f6107735f1984600802610758565b1980831691505092915050565b5f61078b8383610764565b9150826002028217905092915050565b6107a482610504565b67ffffffffffffffff8111156107bd576107bc61030e565b5b6107c782546105b1565b6107d2828285610705565b5f60209050601f831160018114610803575f84156107f1578287015190505b6107fb8582610780565b865550610862565b601f198416610811866105e1565b5f5b8281101561083857848901518255600182019150602085019450602081019050610813565b868310156108555784890151610851601f891682610764565b8355505b6001600288020188555050505b50505050505056fea26469706673582212207b8e9c9f90d2e46c023a3aba9ec5bc68007c700b7c1b5f06c6056f4b5c6cb0f064736f6c63430008220033",
					"opcodes": "PUSH1 0x80 PUSH1 0x40 MSTORE CALLVALUE DUP1 ISZERO PUSH2 0xF JUMPI PUSH0 PUSH0 REVERT JUMPDEST POP PUSH1 0x40 MLOAD DUP1 PUSH1 0x40 ADD PUSH1 0x40 MSTORE DUP1 PUSH1 0x19 DUP2 MSTORE PUSH1 0x20 ADD PUSH32 0x48656C6C6F2C736F6C696469747920323032362D30342D313900000000000000 DUP2 MSTORE POP PUSH0 SWAP1 DUP2 PUSH2 0x53 SWAP2 SWAP1 PUSH2 0x2E7 JUMP JUMPDEST POP CALLER PUSH1 0x1 PUSH0 PUSH2 0x100 EXP DUP2 SLOAD DUP2 PUSH20 0xFFFFFFFFFFFFFFFFFFFFFFFFFFFFFFFFFFFFFFFF MUL NOT AND SWAP1 DUP4 PUSH20 0xFFFFFFFFFFFFFFFFFFFFFFFFFFFFFFFFFFFFFFFF AND MUL OR SWAP1 SSTORE POP PUSH2 0x3B6 JUMP JUMPDEST PUSH0 DUP2 MLOAD SWAP1 POP SWAP2 SWAP1 POP JUMP JUMPDEST PUSH32 0x4E487B7100000000000000000000000000000000000000000000000000000000 PUSH0 MSTORE PUSH1 0x41 PUSH1 0x4 MSTORE PUSH1 0x24 PUSH0 REVERT JUMPDEST PUSH32 0x4E487B7100000000000000000000000000000000000000000000000000000000 PUSH0 MSTORE PUSH1 0x22 PUSH1 0x4 MSTORE PUSH1 0x24 PUSH0 REVERT JUMPDEST PUSH0 PUSH1 0x2 DUP3 DIV SWAP1 POP PUSH1 0x1 DUP3 AND DUP1 PUSH2 0x114 JUMPI PUSH1 0x7F DUP3 AND SWAP2 POP JUMPDEST PUSH1 0x20 DUP3 LT DUP2 SUB PUSH2 0x127 JUMPI PUSH2 0x126 PUSH2 0xD0 JUMP JUMPDEST JUMPDEST POP SWAP2 SWAP1 POP JUMP JUMPDEST PUSH0 DUP2 SWAP1 POP DUP2 PUSH0 MSTORE PUSH1 0x20 PUSH0 KECCAK256 SWAP1 POP SWAP2 SWAP1 POP JUMP JUMPDEST PUSH0 PUSH1 0x20 PUSH1 0x1F DUP4 ADD DIV SWAP1 POP SWAP2 SWAP1 POP JUMP JUMPDEST PUSH0 DUP3 DUP3 SHL SWAP1 POP SWAP3 SWAP2 POP POP JUMP JUMPDEST PUSH0 PUSH1 0x8 DUP4 MUL PUSH2 0x189 PUSH32 0xFFFFFFFFFFFFFFFFFFFFFFFFFFFFFFFFFFFFFFFFFFFFFFFFFFFFFFFFFFFFFFFF DUP3 PUSH2 0x14E JUMP JUMPDEST PUSH2 0x193 DUP7 DUP4 PUSH2 0x14E JUMP JUMPDEST SWAP6 POP DUP1 NOT DUP5 AND SWAP4 POP DUP1 DUP7 AND DUP5 OR SWAP3 POP POP POP SWAP4 SWAP3 POP POP POP JUMP JUMPDEST PUSH0 DUP2 SWAP1 POP SWAP2 SWAP1 POP JUMP JUMPDEST PUSH0 DUP2 SWAP1 POP SWAP2 SWAP1 POP JUMP JUMPDEST PUSH0 PUSH2 0x1D7 PUSH2 0x1D2 PUSH2 0x1CD DUP5 PUSH2 0x1AB JUMP JUMPDEST PUSH2 0x1B4 JUMP JUMPDEST PUSH2 0x1AB JUMP JUMPDEST SWAP1 POP SWAP2 SWAP1 POP JUMP JUMPDEST PUSH0 DUP2 SWAP1 POP SWAP2 SWAP1 POP JUMP JUMPDEST PUSH2 0x1F0 DUP4 PUSH2 0x1BD JUMP JUMPDEST PUSH2 0x204 PUSH2 0x1FC DUP3 PUSH2 0x1DE JUMP JUMPDEST DUP5 DUP5 SLOAD PUSH2 0x15A JUMP JUMPDEST DUP3 SSTORE POP POP POP POP JUMP JUMPDEST PUSH0 PUSH0 SWAP1 POP SWAP1 JUMP JUMPDEST PUSH2 0x21B PUSH2 0x20C JUMP JUMPDEST PUSH2 0x226 DUP2 DUP5 DUP5 PUSH2 0x1E7 JUMP JUMPDEST POP POP POP JUMP JUMPDEST PUSH0 JUMPDEST DUP3 DUP2 LT ISZERO PUSH2 0x24C JUMPI PUSH2 0x241 PUSH0 DUP3 DUP5 ADD PUSH2 0x213 JUMP JUMPDEST PUSH1 0x1 DUP2 ADD SWAP1 POP PUSH2 0x22D JUMP JUMPDEST POP POP POP JUMP JUMPDEST PUSH1 0x1F DUP3 GT ISZERO PUSH2 0x29F JUMPI DUP3 DUP3 GT ISZERO PUSH2 0x29E JUMPI PUSH2 0x26B DUP2 PUSH2 0x12D JUMP JUMPDEST PUSH2 0x274 DUP4 PUSH2 0x13F JUMP JUMPDEST PUSH2 0x27D DUP6 PUSH2 0x13F JUMP JUMPDEST PUSH1 0x20 DUP7 LT ISZERO PUSH2 0x28A JUMPI PUSH0 SWAP1 POP JUMPDEST DUP1 DUP4 ADD PUSH2 0x299 DUP3 DUP5 SUB DUP3 PUSH2 0x22B JUMP JUMPDEST POP POP POP POP JUMPDEST JUMPDEST POP POP POP JUMP JUMPDEST PUSH0 DUP3 DUP3 SHR SWAP1 POP SWAP3 SWAP2 POP POP JUMP JUMPDEST PUSH0 PUSH2 0x2BF PUSH0 NOT DUP5 PUSH1 0x8 MUL PUSH2 0x2A4 JUMP JUMPDEST NOT DUP1 DUP4 AND SWAP2 POP POP SWAP3 SWAP2 POP POP JUMP JUMPDEST PUSH0 PUSH2 0x2D7 DUP4 DUP4 PUSH2 0x2B0 JUMP JUMPDEST SWAP2 POP DUP3 PUSH1 0x2 MUL DUP3 OR SWAP1 POP SWAP3 SWAP2 POP POP JUMP JUMPDEST PUSH2 0x2F0 DUP3 PUSH2 0x99 JUMP JUMPDEST PUSH8 0xFFFFFFFFFFFFFFFF DUP2 GT ISZERO PUSH2 0x309 JUMPI PUSH2 0x308 PUSH2 0xA3 JUMP JUMPDEST JUMPDEST PUSH2 0x313 DUP3 SLOAD PUSH2 0xFD JUMP JUMPDEST PUSH2 0x31E DUP3 DUP3 DUP6 PUSH2 0x251 JUMP JUMPDEST PUSH0 PUSH1 0x20 SWAP1 POP PUSH1 0x1F DUP4 GT PUSH1 0x1 DUP2 EQ PUSH2 0x34F JUMPI PUSH0 DUP5 ISZERO PUSH2 0x33D JUMPI DUP3 DUP8 ADD MLOAD SWAP1 POP JUMPDEST PUSH2 0x347 DUP6 DUP3 PUSH2 0x2CC JUMP JUMPDEST DUP7 SSTORE POP PUSH2 0x3AE JUMP JUMPDEST PUSH1 0x1F NOT DUP5 AND PUSH2 0x35D DUP7 PUSH2 0x12D JUMP JUMPDEST PUSH0 JUMPDEST DUP3 DUP2 LT ISZERO PUSH2 0x384 JUMPI DUP5 DUP10 ADD MLOAD DUP3 SSTORE PUSH1 0x1 DUP3 ADD SWAP2 POP PUSH1 0x20 DUP6 ADD SWAP5 POP PUSH1 0x20 DUP2 ADD SWAP1 POP PUSH2 0x35F JUMP JUMPDEST DUP7 DUP4 LT ISZERO PUSH2 0x3A1 JUMPI DUP5 DUP10 ADD MLOAD PUSH2 0x39D PUSH1 0x1F DUP10 AND DUP3 PUSH2 0x2B0 JUMP JUMPDEST DUP4 SSTORE POP JUMPDEST PUSH1 0x1 PUSH1 0x2 DUP9 MUL ADD DUP9 SSTORE POP POP POP JUMPDEST POP POP POP POP POP POP JUMP JUMPDEST PUSH2 0x8A0 DUP1 PUSH2 0x3C3 PUSH0 CODECOPY PUSH0 RETURN INVALID PUSH1 0x80 PUSH1 0x40 MSTORE CALLVALUE DUP1 ISZERO PUSH2 0xF JUMPI PUSH0 PUSH0 REVERT JUMPDEST POP PUSH1 0x4 CALLDATASIZE LT PUSH2 0x60 JUMPI PUSH0 CALLDATALOAD PUSH1 0xE0 SHR DUP1 PUSH4 0x1923BE24 EQ PUSH2 0x64 JUMPI DUP1 PUSH4 0x893D20E8 EQ PUSH2 0x80 JUMPI DUP1 PUSH4 0x8DA5CB5B EQ PUSH2 0x9E JUMPI DUP1 PUSH4 0x8F32D59B EQ PUSH2 0xBC JUMPI DUP1 PUSH4 0xCE6D41DE EQ PUSH2 0xDA JUMPI DUP1 PUSH4 0xE21F37CE EQ PUSH2 0xF8 JUMPI JUMPDEST PUSH0 PUSH0 REVERT JUMPDEST PUSH2 0x7E PUSH1 0x4 DUP1 CALLDATASIZE SUB DUP2 ADD SWAP1 PUSH2 0x79 SWAP2 SWAP1 PUSH2 0x432 JUMP JUMPDEST PUSH2 0x116 JUMP JUMPDEST STOP JUMPDEST PUSH2 0x88 PUSH2 0x128 JUMP JUMPDEST PUSH1 0x40 MLOAD PUSH2 0x95 SWAP2 SWAP1 PUSH2 0x4B8 JUMP JUMPDEST PUSH1 0x40 MLOAD DUP1 SWAP2 SUB SWAP1 RETURN JUMPDEST PUSH2 0xA6 PUSH2 0x150 JUMP JUMPDEST PUSH1 0x40 MLOAD PUSH2 0xB3 SWAP2 SWAP1 PUSH2 0x4B8 JUMP JUMPDEST PUSH1 0x40 MLOAD DUP1 SWAP2 SUB SWAP1 RETURN JUMPDEST PUSH2 0xC4 PUSH2 0x175 JUMP JUMPDEST PUSH1 0x40 MLOAD PUSH2 0xD1 SWAP2 SWAP1 PUSH2 0x4EB JUMP JUMPDEST PUSH1 0x40 MLOAD DUP1 SWAP2 SUB SWAP1 RETURN JUMPDEST PUSH2 0xE2 PUSH2 0x1CB JUMP JUMPDEST PUSH1 0x40 MLOAD PUSH2 0xEF SWAP2 SWAP1 PUSH2 0x564 JUMP JUMPDEST PUSH1 0x40 MLOAD DUP1 SWAP2 SUB SWAP1 RETURN JUMPDEST PUSH2 0x100 PUSH2 0x25A JUMP JUMPDEST PUSH1 0x40 MLOAD PUSH2 0x10D SWAP2 SWAP1 PUSH2 0x564 JUMP JUMPDEST PUSH1 0x40 MLOAD DUP1 SWAP2 SUB SWAP1 RETURN JUMPDEST DUP1 PUSH0 SWAP1 DUP2 PUSH2 0x124 SWAP2 SWAP1 PUSH2 0x79B JUMP JUMPDEST POP POP JUMP JUMPDEST PUSH0 PUSH1 0x1 PUSH0 SWAP1 SLOAD SWAP1 PUSH2 0x100 EXP SWAP1 DIV PUSH20 0xFFFFFFFFFFFFFFFFFFFFFFFFFFFFFFFFFFFFFFFF AND SWAP1 POP SWAP1 JUMP JUMPDEST PUSH1 0x1 PUSH0 SWAP1 SLOAD SWAP1 PUSH2 0x100 EXP SWAP1 DIV PUSH20 0xFFFFFFFFFFFFFFFFFFFFFFFFFFFFFFFFFFFFFFFF AND DUP2 JUMP JUMPDEST PUSH0 PUSH1 0x1 PUSH0 SWAP1 SLOAD SWAP1 PUSH2 0x100 EXP SWAP1 DIV PUSH20 0xFFFFFFFFFFFFFFFFFFFFFFFFFFFFFFFFFFFFFFFF AND PUSH20 0xFFFFFFFFFFFFFFFFFFFFFFFFFFFFFFFFFFFFFFFF AND CALLER PUSH20 0xFFFFFFFFFFFFFFFFFFFFFFFFFFFFFFFFFFFFFFFF AND EQ SWAP1 POP SWAP1 JUMP JUMPDEST PUSH1 0x60 PUSH0 DUP1 SLOAD PUSH2 0x1D9 SWAP1 PUSH2 0x5B1 JUMP JUMPDEST DUP1 PUSH1 0x1F ADD PUSH1 0x20 DUP1 SWAP2 DIV MUL PUSH1 0x20 ADD PUSH1 0x40 MLOAD SWAP1 DUP2 ADD PUSH1 0x40 MSTORE DUP1 SWAP3 SWAP2 SWAP1 DUP2 DUP2 MSTORE PUSH1 0x20 ADD DUP3 DUP1 SLOAD PUSH2 0x205 SWAP1 PUSH2 0x5B1 JUMP JUMPDEST DUP1 ISZERO PUSH2 0x250 JUMPI DUP1 PUSH1 0x1F LT PUSH2 0x227 JUMPI PUSH2 0x100 DUP1 DUP4 SLOAD DIV MUL DUP4 MSTORE SWAP2 PUSH1 0x20 ADD SWAP2 PUSH2 0x250 JUMP JUMPDEST DUP3 ADD SWAP2 SWAP1 PUSH0 MSTORE PUSH1 0x20 PUSH0 KECCAK256 SWAP1 JUMPDEST DUP2 SLOAD DUP2 MSTORE SWAP1 PUSH1 0x1 ADD SWAP1 PUSH1 0x20 ADD DUP1 DUP4 GT PUSH2 0x233 JUMPI DUP3 SWAP1 SUB PUSH1 0x1F AND DUP3 ADD SWAP2 JUMPDEST POP POP POP POP POP SWAP1 POP SWAP1 JUMP JUMPDEST PUSH0 DUP1 SLOAD PUSH2 0x266 SWAP1 PUSH2 0x5B1 JUMP JUMPDEST DUP1 PUSH1 0x1F ADD PUSH1 0x20 DUP1 SWAP2 DIV MUL PUSH1 0x20 ADD PUSH1 0x40 MLOAD SWAP1 DUP2 ADD PUSH1 0x40 MSTORE DUP1 SWAP3 SWAP2 SWAP1 DUP2 DUP2 MSTORE PUSH1 0x20 ADD DUP3 DUP1 SLOAD PUSH2 0x292 SWAP1 PUSH2 0x5B1 JUMP JUMPDEST DUP1 ISZERO PUSH2 0x2DD JUMPI DUP1 PUSH1 0x1F LT PUSH2 0x2B4 JUMPI PUSH2 0x100 DUP1 DUP4 SLOAD DIV MUL DUP4 MSTORE SWAP2 PUSH1 0x20 ADD SWAP2 PUSH2 0x2DD JUMP JUMPDEST DUP3 ADD SWAP2 SWAP1 PUSH0 MSTORE PUSH1 0x20 PUSH0 KECCAK256 SWAP1 JUMPDEST DUP2 SLOAD DUP2 MSTORE SWAP1 PUSH1 0x1 ADD SWAP1 PUSH1 0x20 ADD DUP1 DUP4 GT PUSH2 0x2C0 JUMPI DUP3 SWAP1 SUB PUSH1 0x1F AND DUP3 ADD SWAP2 JUMPDEST POP POP POP POP POP DUP2 JUMP JUMPDEST PUSH0 PUSH1 0x40 MLOAD SWAP1 POP SWAP1 JUMP JUMPDEST PUSH0 PUSH0 REVERT JUMPDEST PUSH0 PUSH0 REVERT JUMPDEST PUSH0 PUSH0 REVERT JUMPDEST PUSH0 PUSH0 REVERT JUMPDEST PUSH0 PUSH1 0x1F NOT PUSH1 0x1F DUP4 ADD AND SWAP1 POP SWAP2 SWAP1 POP JUMP JUMPDEST PUSH32 0x4E487B7100000000000000000000000000000000000000000000000000000000 PUSH0 MSTORE PUSH1 0x41 PUSH1 0x4 MSTORE PUSH1 0x24 PUSH0 REVERT JUMPDEST PUSH2 0x344 DUP3 PUSH2 0x2FE JUMP JUMPDEST DUP2 ADD DUP2 DUP2 LT PUSH8 0xFFFFFFFFFFFFFFFF DUP3 GT OR ISZERO PUSH2 0x363 JUMPI PUSH2 0x362 PUSH2 0x30E JUMP JUMPDEST JUMPDEST DUP1 PUSH1 0x40 MSTORE POP POP POP JUMP JUMPDEST PUSH0 PUSH2 0x375 PUSH2 0x2E5 JUMP JUMPDEST SWAP1 POP PUSH2 0x381 DUP3 DUP3 PUSH2 0x33B JUMP JUMPDEST SWAP2 SWAP1 POP JUMP JUMPDEST PUSH0 PUSH8 0xFFFFFFFFFFFFFFFF DUP3 GT ISZERO PUSH2 0x3A0 JUMPI PUSH2 0x39F PUSH2 0x30E JUMP JUMPDEST JUMPDEST PUSH2 0x3A9 DUP3 PUSH2 0x2FE JUMP JUMPDEST SWAP1 POP PUSH1 0x20 DUP2 ADD SWAP1 POP SWAP2 SWAP1 POP JUMP JUMPDEST DUP3 DUP2 DUP4 CALLDATACOPY PUSH0 DUP4 DUP4 ADD MSTORE POP POP POP JUMP JUMPDEST PUSH0 PUSH2 0x3D6 PUSH2 0x3D1 DUP5 PUSH2 0x386 JUMP JUMPDEST PUSH2 0x36C JUMP JUMPDEST SWAP1 POP DUP3 DUP2 MSTORE PUSH1 0x20 DUP2 ADD DUP5 DUP5 DUP5 ADD GT ISZERO PUSH2 0x3F2 JUMPI PUSH2 0x3F1 PUSH2 0x2FA JUMP JUMPDEST JUMPDEST PUSH2 0x3FD DUP5 DUP3 DUP6 PUSH2 0x3B6 JUMP JUMPDEST POP SWAP4 SWAP3 POP POP POP JUMP JUMPDEST PUSH0 DUP3 PUSH1 0x1F DUP4 ADD SLT PUSH2 0x419 JUMPI PUSH2 0x418 PUSH2 0x2F6 JUMP JUMPDEST JUMPDEST DUP2 CALLDATALOAD PUSH2 0x429 DUP5 DUP3 PUSH1 0x20 DUP7 ADD PUSH2 0x3C4 JUMP JUMPDEST SWAP2 POP POP SWAP3 SWAP2 POP POP JUMP JUMPDEST PUSH0 PUSH1 0x20 DUP3 DUP5 SUB SLT ISZERO PUSH2 0x447 JUMPI PUSH2 0x446 PUSH2 0x2EE JUMP JUMPDEST JUMPDEST PUSH0 DUP3 ADD CALLDATALOAD PUSH8 0xFFFFFFFFFFFFFFFF DUP2 GT ISZERO PUSH2 0x464 JUMPI PUSH2 0x463 PUSH2 0x2F2 JUMP JUMPDEST JUMPDEST PUSH2 0x470 DUP5 DUP3 DUP6 ADD PUSH2 0x405 JUMP JUMPDEST SWAP2 POP POP SWAP3 SWAP2 POP POP JUMP JUMPDEST PUSH0 PUSH20 0xFFFFFFFFFFFFFFFFFFFFFFFFFFFFFFFFFFFFFFFF DUP3 AND SWAP1 POP SWAP2 SWAP1 POP JUMP JUMPDEST PUSH0 PUSH2 0x4A2 DUP3 PUSH2 0x479 JUMP JUMPDEST SWAP1 POP SWAP2 SWAP1 POP JUMP JUMPDEST PUSH2 0x4B2 DUP2 PUSH2 0x498 JUMP JUMPDEST DUP3 MSTORE POP POP JUMP JUMPDEST PUSH0 PUSH1 0x20 DUP3 ADD SWAP1 POP PUSH2 0x4CB PUSH0 DUP4 ADD DUP5 PUSH2 0x4A9 JUMP JUMPDEST SWAP3 SWAP2 POP POP JUMP JUMPDEST PUSH0 DUP2 ISZERO ISZERO SWAP1 POP SWAP2 SWAP1 POP JUMP JUMPDEST PUSH2 0x4E5 DUP2 PUSH2 0x4D1 JUMP JUMPDEST DUP3 MSTORE POP POP JUMP JUMPDEST PUSH0 PUSH1 0x20 DUP3 ADD SWAP1 POP PUSH2 0x4FE PUSH0 DUP4 ADD DUP5 PUSH2 0x4DC JUMP JUMPDEST SWAP3 SWAP2 POP POP JUMP JUMPDEST PUSH0 DUP2 MLOAD SWAP1 POP SWAP2 SWAP1 POP JUMP JUMPDEST PUSH0 DUP3 DUP3 MSTORE PUSH1 0x20 DUP3 ADD SWAP1 POP SWAP3 SWAP2 POP POP JUMP JUMPDEST DUP3 DUP2 DUP4 MCOPY PUSH0 DUP4 DUP4 ADD MSTORE POP POP POP JUMP JUMPDEST PUSH0 PUSH2 0x536 DUP3 PUSH2 0x504 JUMP JUMPDEST PUSH2 0x540 DUP2 DUP6 PUSH2 0x50E JUMP JUMPDEST SWAP4 POP PUSH2 0x550 DUP2 DUP6 PUSH1 0x20 DUP7 ADD PUSH2 0x51E JUMP JUMPDEST PUSH2 0x559 DUP2 PUSH2 0x2FE JUMP JUMPDEST DUP5 ADD SWAP2 POP POP SWAP3 SWAP2 POP POP JUMP JUMPDEST PUSH0 PUSH1 0x20 DUP3 ADD SWAP1 POP DUP2 DUP2 SUB PUSH0 DUP4 ADD MSTORE PUSH2 0x57C DUP2 DUP5 PUSH2 0x52C JUMP JUMPDEST SWAP1 POP SWAP3 SWAP2 POP POP JUMP JUMPDEST PUSH32 0x4E487B7100000000000000000000000000000000000000000000000000000000 PUSH0 MSTORE PUSH1 0x22 PUSH1 0x4 MSTORE PUSH1 0x24 PUSH0 REVERT JUMPDEST PUSH0 PUSH1 0x2 DUP3 DIV SWAP1 POP PUSH1 0x1 DUP3 AND DUP1 PUSH2 0x5C8 JUMPI PUSH1 0x7F DUP3 AND SWAP2 POP JUMPDEST PUSH1 0x20 DUP3 LT DUP2 SUB PUSH2 0x5DB JUMPI PUSH2 0x5DA PUSH2 0x584 JUMP JUMPDEST JUMPDEST POP SWAP2 SWAP1 POP JUMP JUMPDEST PUSH0 DUP2 SWAP1 POP DUP2 PUSH0 MSTORE PUSH1 0x20 PUSH0 KECCAK256 SWAP1 POP SWAP2 SWAP1 POP JUMP JUMPDEST PUSH0 PUSH1 0x20 PUSH1 0x1F DUP4 ADD DIV SWAP1 POP SWAP2 SWAP1 POP JUMP JUMPDEST PUSH0 DUP3 DUP3 SHL SWAP1 POP SWAP3 SWAP2 POP POP JUMP JUMPDEST PUSH0 PUSH1 0x8 DUP4 MUL PUSH2 0x63D PUSH32 0xFFFFFFFFFFFFFFFFFFFFFFFFFFFFFFFFFFFFFFFFFFFFFFFFFFFFFFFFFFFFFFFF DUP3 PUSH2 0x602 JUMP JUMPDEST PUSH2 0x647 DUP7 DUP4 PUSH2 0x602 JUMP JUMPDEST SWAP6 POP DUP1 NOT DUP5 AND SWAP4 POP DUP1 DUP7 AND DUP5 OR SWAP3 POP POP POP SWAP4 SWAP3 POP POP POP JUMP JUMPDEST PUSH0 DUP2 SWAP1 POP SWAP2 SWAP1 POP JUMP JUMPDEST PUSH0 DUP2 SWAP1 POP SWAP2 SWAP1 POP JUMP JUMPDEST PUSH0 PUSH2 0x68B PUSH2 0x686 PUSH2 0x681 DUP5 PUSH2 0x65F JUMP JUMPDEST PUSH2 0x668 JUMP JUMPDEST PUSH2 0x65F JUMP JUMPDEST SWAP1 POP SWAP2 SWAP1 POP JUMP JUMPDEST PUSH0 DUP2 SWAP1 POP SWAP2 SWAP1 POP JUMP JUMPDEST PUSH2 0x6A4 DUP4 PUSH2 0x671 JUMP JUMPDEST PUSH2 0x6B8 PUSH2 0x6B0 DUP3 PUSH2 0x692 JUMP JUMPDEST DUP5 DUP5 SLOAD PUSH2 0x60E JUMP JUMPDEST DUP3 SSTORE POP POP POP POP JUMP JUMPDEST PUSH0 PUSH0 SWAP1 POP SWAP1 JUMP JUMPDEST PUSH2 0x6CF PUSH2 0x6C0 JUMP JUMPDEST PUSH2 0x6DA DUP2 DUP5 DUP5 PUSH2 0x69B JUMP JUMPDEST POP POP POP JUMP JUMPDEST PUSH0 JUMPDEST DUP3 DUP2 LT ISZERO PUSH2 0x700 JUMPI PUSH2 0x6F5 PUSH0 DUP3 DUP5 ADD PUSH2 0x6C7 JUMP JUMPDEST PUSH1 0x1 DUP2 ADD SWAP1 POP PUSH2 0x6E1 JUMP JUMPDEST POP POP POP JUMP JUMPDEST PUSH1 0x1F DUP3 GT ISZERO PUSH2 0x753 JUMPI DUP3 DUP3 GT ISZERO PUSH2 0x752 JUMPI PUSH2 0x71F DUP2 PUSH2 0x5E1 JUMP JUMPDEST PUSH2 0x728 DUP4 PUSH2 0x5F3 JUMP JUMPDEST PUSH2 0x731 DUP6 PUSH2 0x5F3 JUMP JUMPDEST PUSH1 0x20 DUP7 LT ISZERO PUSH2 0x73E JUMPI PUSH0 SWAP1 POP JUMPDEST DUP1 DUP4 ADD PUSH2 0x74D DUP3 DUP5 SUB DUP3 PUSH2 0x6DF JUMP JUMPDEST POP POP POP POP JUMPDEST JUMPDEST POP POP POP JUMP JUMPDEST PUSH0 DUP3 DUP3 SHR SWAP1 POP SWAP3 SWAP2 POP POP JUMP JUMPDEST PUSH0 PUSH2 0x773 PUSH0 NOT DUP5 PUSH1 0x8 MUL PUSH2 0x758 JUMP JUMPDEST NOT DUP1 DUP4 AND SWAP2 POP POP SWAP3 SWAP2 POP POP JUMP JUMPDEST PUSH0 PUSH2 0x78B DUP4 DUP4 PUSH2 0x764 JUMP JUMPDEST SWAP2 POP DUP3 PUSH1 0x2 MUL DUP3 OR SWAP1 POP SWAP3 SWAP2 POP POP JUMP JUMPDEST PUSH2 0x7A4 DUP3 PUSH2 0x504 JUMP JUMPDEST PUSH8 0xFFFFFFFFFFFFFFFF DUP2 GT ISZERO PUSH2 0x7BD JUMPI PUSH2 0x7BC PUSH2 0x30E JUMP JUMPDEST JUMPDEST PUSH2 0x7C7 DUP3 SLOAD PUSH2 0x5B1 JUMP JUMPDEST PUSH2 0x7D2 DUP3 DUP3 DUP6 PUSH2 0x705 JUMP JUMPDEST PUSH0 PUSH1 0x20 SWAP1 POP PUSH1 0x1F DUP4 GT PUSH1 0x1 DUP2 EQ PUSH2 0x803 JUMPI PUSH0 DUP5 ISZERO PUSH2 0x7F1 JUMPI DUP3 DUP8 ADD MLOAD SWAP1 POP JUMPDEST PUSH2 0x7FB DUP6 DUP3 PUSH2 0x780 JUMP JUMPDEST DUP7 SSTORE POP PUSH2 0x862 JUMP JUMPDEST PUSH1 0x1F NOT DUP5 AND PUSH2 0x811 DUP7 PUSH2 0x5E1 JUMP JUMPDEST PUSH0 JUMPDEST DUP3 DUP2 LT ISZERO PUSH2 0x838 JUMPI DUP5 DUP10 ADD MLOAD DUP3 SSTORE PUSH1 0x1 DUP3 ADD SWAP2 POP PUSH1 0x20 DUP6 ADD SWAP5 POP PUSH1 0x20 DUP2 ADD SWAP1 POP PUSH2 0x813 JUMP JUMPDEST DUP7 DUP4 LT ISZERO PUSH2 0x855 JUMPI DUP5 DUP10 ADD MLOAD PUSH2 0x851 PUSH1 0x1F DUP10 AND DUP3 PUSH2 0x764 JUMP JUMPDEST DUP4 SSTORE POP JUMPDEST PUSH1 0x1 PUSH1 0x2 DUP9 MUL ADD DUP9 SSTORE POP POP POP JUMPDEST POP POP POP POP POP POP JUMP INVALID LOG2 PUSH5 0x6970667358 0x22 SLT KECCAK256 PUSH28 0x8E9C9F90D2E46C023A3ABA9EC5BC68007C700B7C1B5F06C6056F4B5C PUSH13 0xB0F064736F6C63430008220033 "
				},
				"gasEstimates": {
					"creation": {
						"codeDepositCost": "441600",
						"executionCost": "infinite",
						"totalCost": "infinite"
					},
					"external": {
						"getMessage()": "infinite",
						"getOwner()": "2515",
						"isOwner()": "2534",
						"message()": "infinite",
						"owner()": "2530",
						"updateMessage(string)": "infinite"
					}
				},
				"methodIdentifiers": {
					"getMessage()": "ce6d41de",
					"getOwner()": "893d20e8",
					"isOwner()": "8f32d59b",
					"message()": "e21f37ce",
					"owner()": "8da5cb5b",
					"updateMessage(string)": "1923be24"
				}
			},
			"storageLayout": {
				"storage": [
					{
						"astId": 3,
						"contract": "contracts/1.1/HelloSolidity.sol:HelloSolidity",
						"label": "message",
						"offset": 0,
						"slot": "0",
						"type": "t_string_storage"
					},
					{
						"astId": 5,
						"contract": "contracts/1.1/HelloSolidity.sol:HelloSolidity",
						"label": "owner",
						"offset": 0,
						"slot": "1",
						"type": "t_address"
					}
				],
				"types": {
					"t_address": {
						"encoding": "inplace",
						"label": "address",
						"numberOfBytes": "20"
					},
					"t_string_storage": {
						"encoding": "bytes",
						"label": "string",
						"numberOfBytes": "32"
					}
				}
			},
			"userdoc": {
				"kind": "user",
				"methods": {},
				"version": 1
			}
		}
	}
}