{
	"contracts/2.1/07typeconversion/DangerousConversion.sol": {
		"DangerousConversion": {
			"abi": [
				{
					"inputs": [],
					"name": "dangerous",
					"outputs": [
						{
							"internalType": "uint8",
							"name": "",
							"type": "uint8"
						},
						{
							"internalType": "uint8",
							"name": "",
							"type": "uint8"
						}
					],
					"stateMutability": "pure",
					"type": "function"
				}
			],
			"devdoc": {
				"kind": "dev",
				"methods": {},
				"version": 1
			},
			"evm": {
				"assembly": "    /* \"contracts/2.1/07typeconversion/DangerousConversion.sol\":58:294  contract DangerousConversion{... */\n  mstore(0x40, 0x80)\n  callvalue\n  dup1\n  iszero\n  tag_1\n  jumpi\n  revert(0x00, 0x00)\ntag_1:\n  pop\n  dataSize(sub_0)\n  dup1\n  dataOffset(sub_0)\n  0x00\n  codecopy\n  0x00\n  return\nstop\n\nsub_0: assembly {\n        /* \"contracts/2.1/07typeconversion/DangerousConversion.sol\":58:294  contract DangerousConversion{... */\n      mstore(0x40, 0x80)\n      callvalue\n      dup1\n      iszero\n      tag_1\n      jumpi\n      revert(0x00, 0x00)\n    tag_1:\n      pop\n      jumpi(tag_2, lt(calldatasize, 0x04))\n      shr(0xe0, calldataload(0x00))\n      dup1\n      0x280622be\n      eq\n      tag_3\n      jumpi\n    tag_2:\n      revert(0x00, 0x00)\n        /* \"contracts/2.1/07typeconversion/DangerousConversion.sol\":93:291  function dangerous() public pure returns(uint8,uint8){... */\n    tag_3:\n      tag_4\n      tag_5\n      jump\t// in\n    tag_4:\n      mload(0x40)\n      tag_6\n      swap3\n      swap2\n      swap1\n      tag_7\n      jump\t// in\n    tag_6:\n      mload(0x40)\n      dup1\n      swap2\n      sub\n      swap1\n      return\n    tag_5:\n        /* \"contracts/2.1/07typeconversion/DangerousConversion.sol\":134:139  uint8 */\n      0x00\n        /* \"contracts/2.1/07typeconversion/DangerousConversion.sol\":140:145  uint8 */\n      0x00\n        /* \"contracts/2.1/07typeconversion/DangerousConversion.sol\":157:168  uint value1 */\n      0x00\n        /* \"contracts/2.1/07typeconversion/DangerousConversion.sol\":169:172  255 */\n      0xff\n        /* \"contracts/2.1/07typeconversion/DangerousConversion.sol\":157:172  uint value1=255 */\n      swap1\n      pop\n        /* \"contracts/2.1/07typeconversion/DangerousConversion.sol\":183:194  uint value2 */\n      0x00\n        /* \"contracts/2.1/07typeconversion/DangerousConversion.sol\":195:198  256 */\n      0x0100\n        /* \"contracts/2.1/07typeconversion/DangerousConversion.sol\":183:198  uint value2=256 */\n      swap1\n      pop\n        /* \"contracts/2.1/07typeconversion/DangerousConversion.sol\":237:243  value1 */\n      dup2\n        /* \"contracts/2.1/07typeconversion/DangerousConversion.sol\":265:271  value2 */\n      dup2\n        /* \"contracts/2.1/07typeconversion/DangerousConversion.sol\":209:283  return (... */\n      swap4\n      pop\n      swap4\n      pop\n      pop\n      pop\n        /* \"contracts/2.1/07typeconversion/DangerousConversion.sol\":93:291  function dangerous() public pure returns(uint8,uint8){... */\n      swap1\n      swap2\n      jump\t// out\n        /* \"#utility.yul\":7:93   */\n    tag_9:\n        /* \"#utility.yul\":42:49   */\n      0x00\n        /* \"#utility.yul\":82:86   */\n      0xff\n        /* \"#utility.yul\":75:80   */\n      dup3\n        /* \"#utility.yul\":71:87   */\n      and\n        /* \"#utility.yul\":60:87   */\n      swap1\n      pop\n        /* \"#utility.yul\":7:93   */\n      swap2\n      swap1\n      pop\n      jump\t// out\n        /* \"#utility.yul\":99:211   */\n    tag_10:\n        /* \"#utility.yul\":182:204   */\n      tag_14\n        /* \"#utility.yul\":198:203   */\n      dup2\n        /* \"#utility.yul\":182:204   */\n      tag_9\n      jump\t// in\n    tag_14:\n        /* \"#utility.yul\":177:180   */\n      dup3\n        /* \"#utility.yul\":170:205   */\n      mstore\n        /* \"#utility.yul\":99:211   */\n      pop\n      pop\n      jump\t// out\n        /* \"#utility.yul\":217:533   */\n    tag_7:\n        /* \"#utility.yul\":330:334   */\n      0x00\n        /* \"#utility.yul\":368:370   */\n      0x40\n        /* \"#utility.yul\":357:366   */\n      dup3\n        /* \"#utility.yul\":353:371   */\n      add\n        /* \"#utility.yul\":345:371   */\n      swap1\n      pop\n        /* \"#utility.yul\":381:448   */\n      tag_16\n        /* \"#utility.yul\":445:446   */\n      0x00\n        /* \"#utility.yul\":434:443   */\n      dup4\n        /* \"#utility.yul\":430:447   */\n      add\n        /* \"#utility.yul\":421:427   */\n      dup6\n        /* \"#utility.yul\":381:448   */\n      tag_10\n      jump\t// in\n    tag_16:\n        /* \"#utility.yul\":458:526   */\n      tag_17\n        /* \"#utility.yul\":522:524   */\n      0x20\n        /* \"#utility.yul\":511:520   */\n      dup4\n        /* \"#utility.yul\":507:525   */\n      add\n        /* \"#utility.yul\":498:504   */\n      dup5\n        /* \"#utility.yul\":458:526   */\n      tag_10\n      jump\t// in\n    tag_17:\n        /* \"#utility.yul\":217:533   */\n      swap4\n      swap3\n      pop\n      pop\n      pop\n      jump\t// out\n\n    auxdata: 0xa2646970667358221220695d20377ce35f221f59a25ca41a59d41b1911ebb406eff412f2aa4a31dd5a2064736f6c63430008220033\n}\n",
				"bytecode": {
					"linkReferences": {},
					"object": "6080604052348015600e575f5ffd5b5060d080601a5f395ff3fe6080604052348015600e575f5ffd5b50600436106026575f3560e01c8063280622be14602a575b5f5ffd5b60306045565b604051603c9291906077565b60405180910390f35b5f5f5f60ff90505f610100905081819350935050509091565b5f60ff82169050919050565b607181605e565b82525050565b5f60408201905060885f830185606a565b60936020830184606a565b939250505056fea2646970667358221220695d20377ce35f221f59a25ca41a59d41b1911ebb406eff412f2aa4a31dd5a2064736f6c63430008220033",
					"opcodes": "PUSH1 0x80 PUSH1 0x40 MSTORE CALLVALUE DUP1 ISZERO PUSH1 0xE JUMPI PUSH0 PUSH0 REVERT JUMPDEST POP PUSH1 0xD0 DUP1 PUSH1 0x1A PUSH0 CODECOPY PUSH0 RETURN INVALID PUSH1 0x80 PUSH1 0x40 MSTORE CALLVALUE DUP1 ISZERO PUSH1 0xE JUMPI PUSH0 PUSH0 REVERT JUMPDEST POP PUSH1 0x4 CALLDATASIZE LT PUSH1 0x26 JUMPI PUSH0 CALLDATALOAD PUSH1 0xE0 SHR DUP1 PUSH4 0x280622BE EQ PUSH1 0x2A JUMPI JUMPDEST PUSH0 PUSH0 REVERT JUMPDEST PUSH1 0x30 PUSH1 0x45 JUMP JUMPDEST PUSH1 0x40 MLOAD PUSH1 0x3C SWAP3 SWAP2 SWAP1 PUSH1 0x77 JUMP JUMPDEST PUSH1 0x40 MLOAD DUP1 SWAP2 SUB SWAP1 RETURN JUMPDEST PUSH0 PUSH0 PUSH0 PUSH1 0xFF SWAP1 POP PUSH0 PUSH2 0x100 SWAP1 POP DUP2 DUP2 SWAP4 POP SWAP4 POP POP POP SWAP1 SWAP2 JUMP JUMPDEST PUSH0 PUSH1 0xFF DUP3 AND SWAP1 POP SWAP2 SWAP1 POP JUMP JUMPDEST PUSH1 0x71 DUP2 PUSH1 0x5E JUMP JUMPDEST DUP3 MSTORE POP POP JUMP JUMPDEST PUSH0 PUSH1 0x40 DUP3 ADD SWAP1 POP PUSH1 0x88 PUSH0 DUP4 ADD DUP6 PUSH1 0x6A JUMP JUMPDEST PUSH1 0x93 PUSH1 0x20 DUP4 ADD DUP5 PUSH1 0x6A JUMP JUMPDEST SWAP4 SWAP3 POP POP POP JUMP INVALID LOG2 PUSH5 0x6970667358 0x22 SLT KECCAK256 PUSH10 0x5D20377CE35F221F59A2 TLOAD LOG4 BYTE MSIZE 0xD4 SHL NOT GT 0xEB 0xB4 MOD 0xEF DELEGATECALL SLT CALLCODE 0xAA BLOBBASEFEE BALANCE 0xDD GAS KECCAK256 PUSH5 0x736F6C6343 STOP ADDMOD 0x22 STOP CALLER "
				},
				"gasEstimates": {
					"creation": {
						"codeDepositCost": "41600",
						"executionCost": "91",
						"totalCost": "41691"
					},
					"external": {
						"dangerous()": "infinite"
					}
				},
				"methodIdentifiers": {
					"dangerous()": "280622be"
				}
			},
			"storageLayout": {
				"storage": [],
				"types": null
			},
			"userdoc": {
				"kind": "user",
				"methods": {},
				"version": 1
			}
		}
	}
}