{
	"contracts/2.1/07typeconversion/ExplicitConversion.sol": {
		"ExplicitConversion": {
			"abi": [
				{
					"inputs": [],
					"name": "explicit",
					"outputs": [
						{
							"internalType": "uint8",
							"name": "",
							"type": "uint8"
						}
					],
					"stateMutability": "pure",
					"type": "function"
				}
			],
			"devdoc": {
				"kind": "dev",
				"methods": {},
				"version": 1
			},
			"evm": {
				"assembly": "    /* \"contracts/2.1/07typeconversion/ExplicitConversion.sol\":58:200  contract ExplicitConversion{... */\n  mstore(0x40, 0x80)\n  callvalue\n  dup1\n  iszero\n  tag_1\n  jumpi\n  revert(0x00, 0x00)\ntag_1:\n  pop\n  dataSize(sub_0)\n  dup1\n  dataOffset(sub_0)\n  0x00\n  codecopy\n  0x00\n  return\nstop\n\nsub_0: assembly {\n        /* \"contracts/2.1/07typeconversion/ExplicitConversion.sol\":58:200  contract ExplicitConversion{... */\n      mstore(0x40, 0x80)\n      callvalue\n      dup1\n      iszero\n      tag_1\n      jumpi\n      revert(0x00, 0x00)\n    tag_1:\n      pop\n      jumpi(tag_2, lt(calldatasize, 0x04))\n      shr(0xe0, calldataload(0x00))\n      dup1\n      0x53a917a2\n      eq\n      tag_3\n      jumpi\n    tag_2:\n      revert(0x00, 0x00)\n        /* \"contracts/2.1/07typeconversion/ExplicitConversion.sol\":92:197  function explicit() public pure returns(uint8){... */\n    tag_3:\n      tag_4\n      tag_5\n      jump\t// in\n    tag_4:\n      mload(0x40)\n      tag_6\n      swap2\n      swap1\n      tag_7\n      jump\t// in\n    tag_6:\n      mload(0x40)\n      dup1\n      swap2\n      sub\n      swap1\n      return\n    tag_5:\n        /* \"contracts/2.1/07typeconversion/ExplicitConversion.sol\":132:137  uint8 */\n      0x00\n        /* \"contracts/2.1/07typeconversion/ExplicitConversion.sol\":149:157  uint big */\n      0x00\n        /* \"contracts/2.1/07typeconversion/ExplicitConversion.sol\":158:161  300 */\n      0x012c\n        /* \"contracts/2.1/07typeconversion/ExplicitConversion.sol\":149:161  uint big=300 */\n      swap1\n      pop\n        /* \"contracts/2.1/07typeconversion/ExplicitConversion.sol\":185:188  big */\n      dup1\n        /* \"contracts/2.1/07typeconversion/ExplicitConversion.sol\":172:189  return uint8(big) */\n      swap2\n      pop\n      pop\n        /* \"contracts/2.1/07typeconversion/ExplicitConversion.sol\":92:197  function explicit() public pure returns(uint8){... */\n      swap1\n      jump\t// out\n        /* \"#utility.yul\":7:93   */\n    tag_9:\n        /* \"#utility.yul\":42:49   */\n      0x00\n        /* \"#utility.yul\":82:86   */\n      0xff\n        /* \"#utility.yul\":75:80   */\n      dup3\n        /* \"#utility.yul\":71:87   */\n      and\n        /* \"#utility.yul\":60:87   */\n      swap1\n      pop\n        /* \"#utility.yul\":7:93   */\n      swap2\n      swap1\n      pop\n      jump\t// out\n        /* \"#utility.yul\":99:211   */\n    tag_10:\n        /* \"#utility.yul\":182:204   */\n      tag_14\n        /* \"#utility.yul\":198:203   */\n      dup2\n        /* \"#utility.yul\":182:204   */\n      tag_9\n      jump\t// in\n    tag_14:\n        /* \"#utility.yul\":177:180   */\n      dup3\n        /* \"#utility.yul\":170:205   */\n      mstore\n        /* \"#utility.yul\":99:211   */\n      pop\n      pop\n      jump\t// out\n        /* \"#utility.yul\":217:431   */\n    tag_7:\n        /* \"#utility.yul\":306:310   */\n      0x00\n        /* \"#utility.yul\":344:346   */\n      0x20\n        /* \"#utility.yul\":333:342   */\n      dup3\n        /* \"#utility.yul\":329:347   */\n      add\n        /* \"#utility.yul\":321:347   */\n      swap1\n      pop\n        /* \"#utility.yul\":357:424   */\n      tag_16\n        /* \"#utility.yul\":421:422   */\n      0x00\n        /* \"#utility.yul\":410:419   */\n      dup4\n        /* \"#utility.yul\":406:423   */\n      add\n        /* \"#utility.yul\":397:403   */\n      dup5\n        /* \"#utility.yul\":357:424   */\n      tag_10\n      jump\t// in\n    tag_16:\n        /* \"#utility.yul\":217:431   */\n      swap3\n      swap2\n      pop\n      pop\n      jump\t// out\n\n    auxdata: 0xa2646970667358221220baaf74ff3c6dab59bea12312f2bf3228cf1ec9c481a033a3903845ee10488d5f64736f6c63430008220033\n}\n",
				"bytecode": {
					"linkReferences": {},
					"object": "6080604052348015600e575f5ffd5b5060b880601a5f395ff3fe6080604052348015600e575f5ffd5b50600436106026575f3560e01c806353a917a214602a575b5f5ffd5b60306044565b604051603b9190606b565b60405180910390f35b5f5f61012c90508091505090565b5f60ff82169050919050565b6065816052565b82525050565b5f602082019050607c5f830184605e565b9291505056fea2646970667358221220baaf74ff3c6dab59bea12312f2bf3228cf1ec9c481a033a3903845ee10488d5f64736f6c63430008220033",
					"opcodes": "PUSH1 0x80 PUSH1 0x40 MSTORE CALLVALUE DUP1 ISZERO PUSH1 0xE JUMPI PUSH0 PUSH0 REVERT JUMPDEST POP PUSH1 0xB8 DUP1 PUSH1 0x1A PUSH0 CODECOPY PUSH0 RETURN INVALID PUSH1 0x80 PUSH1 0x40 MSTORE CALLVALUE DUP1 ISZERO PUSH1 0xE JUMPI PUSH0 PUSH0 REVERT JUMPDEST POP PUSH1 0x4 CALLDATASIZE LT PUSH1 0x26 JUMPI PUSH0 CALLDATALOAD PUSH1 0xE0 SHR DUP1 PUSH4 0x53A917A2 EQ PUSH1 0x2A JUMPI JUMPDEST PUSH0 PUSH0 REVERT JUMPDEST PUSH1 0x30 PUSH1 0x44 JUMP JUMPDEST PUSH1 0x40 MLOAD PUSH1 0x3B SWAP2 SWAP1 PUSH1 0x6B JUMP JUMPDEST PUSH1 0x40 MLOAD DUP1 SWAP2 SUB SWAP1 RETURN JUMPDEST PUSH0 PUSH0 PUSH2 0x12C SWAP1 POP DUP1 SWAP2 POP POP SWAP1 JUMP JUMPDEST PUSH0 PUSH1 0xFF DUP3 AND SWAP1 POP SWAP2 SWAP1 POP JUMP JUMPDEST PUSH1 0x65 DUP2 PUSH1 0x52 JUMP JUMPDEST DUP3 MSTORE POP POP JUMP JUMPDEST PUSH0 PUSH1 0x20 DUP3 ADD SWAP1 POP PUSH1 0x7C PUSH0 DUP4 ADD DUP5 PUSH1 0x5E JUMP JUMPDEST SWAP3 SWAP2 POP POP JUMP INVALID LOG2 PUSH5 0x6970667358 0x22 SLT KECCAK256 0xBA 0xAF PUSH21 0xFF3C6DAB59BEA12312F2BF3228CF1EC9C481A033A3 SWAP1 CODESIZE GASLIMIT RETURNCONTRACT 0x10 BASEFEE DUP14 PUSH0 PUSH5 0x736F6C6343 STOP ADDMOD 0x22 STOP CALLER "
				},
				"gasEstimates": {
					"creation": {
						"codeDepositCost": "36800",
						"executionCost": "85",
						"totalCost": "36885"
					},
					"external": {
						"explicit()": "328"
					}
				},
				"methodIdentifiers": {
					"explicit()": "53a917a2"
				}
			},
			"storageLayout": {
				"storage": [],
				"types": null
			},
			"userdoc": {
				"kind": "user",
				"methods": {},
				"version": 1
			}
		}
	}
}