{
	"contracts/3.1/06MultiDimesionArray/ThreeDimesionArray.sol": {
		"ThreeDimesionArray": {
			"abi": [
				{
					"inputs": [
						{
							"internalType": "uint256[][]",
							"name": "plane",
							"type": "uint256[][]"
						}
					],
					"name": "addPlane",
					"outputs": [],
					"stateMutability": "nonpayable",
					"type": "function"
				},
				{
					"inputs": [
						{
							"internalType": "uint256",
							"name": "",
							"type": "uint256"
						},
						{
							"internalType": "uint256",
							"name": "",
							"type": "uint256"
						},
						{
							"internalType": "uint256",
							"name": "",
							"type": "uint256"
						}
					],
					"name": "cube",
					"outputs": [
						{
							"internalType": "uint256",
							"name": "",
							"type": "uint256"
						}
					],
					"stateMutability": "view",
					"type": "function"
				},
				{
					"inputs": [
						{
							"internalType": "uint256",
							"name": "x",
							"type": "uint256"
						},
						{
							"internalType": "uint256",
							"name": "y",
							"type": "uint256"
						},
						{
							"internalType": "uint256",
							"name": "z",
							"type": "uint256"
						}
					],
					"name": "getElement",
					"outputs": [
						{
							"internalType": "uint256",
							"name": "",
							"type": "uint256"
						}
					],
					"stateMutability": "view",
					"type": "function"
				}
			],
			"devdoc": {
				"kind": "dev",
				"methods": {},
				"version": 1
			},
			"evm": {
				"assembly": "    /* \"contracts/3.1/06MultiDimesionArray/ThreeDimesionArray.sol\":58:516  contract ThreeDimesionArray{... */\n  mstore(0x40, 0x80)\n  callvalue\n  dup1\n  iszero\n  tag_1\n  jumpi\n  revert(0x00, 0x00)\ntag_1:\n  pop\n  dataSize(sub_0)\n  dup1\n  dataOffset(sub_0)\n  0x00\n  codecopy\n  0x00\n  return\nstop\n\nsub_0: assembly {\n        /* \"contracts/3.1/06MultiDimesionArray/ThreeDimesionArray.sol\":58:516  contract ThreeDimesionArray{... */\n      mstore(0x40, 0x80)\n      callvalue\n      dup1\n      iszero\n      tag_1\n      jumpi\n      revert(0x00, 0x00)\n    tag_1:\n      pop\n      jumpi(tag_2, lt(calldatasize, 0x04))\n      shr(0xe0, calldataload(0x00))\n      dup1\n      0x940fecc3\n      eq\n      tag_3\n      jumpi\n      dup1\n      0xc48eb68c\n      eq\n      tag_4\n      jumpi\n      dup1\n      0xd8bc416e\n      eq\n      tag_5\n      jumpi\n    tag_2:\n      revert(0x00, 0x00)\n        /* \"contracts/3.1/06MultiDimesionArray/ThreeDimesionArray.sol\":121:204  function addPlane(uint[][] memory plane) public {... */\n    tag_3:\n      tag_6\n      0x04\n      dup1\n      calldatasize\n      sub\n      dup2\n      add\n      swap1\n      tag_7\n      swap2\n      swap1\n      tag_8\n      jump\t// in\n    tag_7:\n      tag_9\n      jump\t// in\n    tag_6:\n      stop\n        /* \"contracts/3.1/06MultiDimesionArray/ThreeDimesionArray.sol\":212:513  function getElement(uint x,uint y,uint z) public view returns(uint){... */\n    tag_4:\n      tag_10\n      0x04\n      dup1\n      calldatasize\n      sub\n      dup2\n      add\n      swap1\n      tag_11\n      swap2\n      swap1\n      tag_12\n      jump\t// in\n    tag_11:\n      tag_13\n      jump\t// in\n    tag_10:\n      mload(0x40)\n      tag_14\n      swap2\n      swap1\n      tag_15\n      jump\t// in\n    tag_14:\n      mload(0x40)\n      dup1\n      swap2\n      sub\n      swap1\n      return\n        /* \"contracts/3.1/06MultiDimesionArray/ThreeDimesionArray.sol\":92:114  uint[][][] public cube */\n    tag_5:\n      tag_16\n      0x04\n      dup1\n      calldatasize\n      sub\n      dup2\n      add\n      swap1\n      tag_17\n      swap2\n      swap1\n      tag_12\n      jump\t// in\n    tag_17:\n      tag_18\n      jump\t// in\n    tag_16:\n      mload(0x40)\n      tag_19\n      swap2\n      swap1\n      tag_15\n      jump\t// in\n    tag_19:\n      mload(0x40)\n      dup1\n      swap2\n      sub\n      swap1\n      return\n        /* \"contracts/3.1/06MultiDimesionArray/ThreeDimesionArray.sol\":121:204  function addPlane(uint[][] memory plane) public {... */\n    tag_9:\n        /* \"contracts/3.1/06MultiDimesionArray/ThreeDimesionArray.sol\":180:184  cube */\n      0x00\n        /* \"contracts/3.1/06MultiDimesionArray/ThreeDimesionArray.sol\":190:195  plane */\n      dup2\n        /* \"contracts/3.1/06MultiDimesionArray/ThreeDimesionArray.sol\":180:196  cube.push(plane) */\n      swap1\n      dup1\n      0x01\n      dup2\n      sload\n      add\n      dup1\n      dup3\n      sstore\n      dup1\n      swap2\n      pop\n      pop\n      0x01\n      swap1\n      sub\n      swap1\n      0x00\n      mstore\n      keccak256(0x00, 0x20)\n      add\n      0x00\n      swap1\n      swap2\n      swap1\n      swap2\n      swap1\n      swap2\n      pop\n      swap1\n      dup2\n      tag_22\n      swap2\n      swap1\n      tag_23\n      jump\t// in\n    tag_22:\n      pop\n        /* \"contracts/3.1/06MultiDimesionArray/ThreeDimesionArray.sol\":121:204  function addPlane(uint[][] memory plane) public {... */\n      pop\n      jump\t// out\n        /* \"contracts/3.1/06MultiDimesionArray/ThreeDimesionArray.sol\":212:513  function getElement(uint x,uint y,uint z) public view returns(uint){... */\n    tag_13:\n        /* \"contracts/3.1/06MultiDimesionArray/ThreeDimesionArray.sol\":274:278  uint */\n      0x00\n        /* \"contracts/3.1/06MultiDimesionArray/ThreeDimesionArray.sol\":300:304  cube */\n      0x00\n        /* \"contracts/3.1/06MultiDimesionArray/ThreeDimesionArray.sol\":300:311  cube.length */\n      dup1\n      sload\n      swap1\n      pop\n        /* \"contracts/3.1/06MultiDimesionArray/ThreeDimesionArray.sol\":298:299  x */\n      dup5\n        /* \"contracts/3.1/06MultiDimesionArray/ThreeDimesionArray.sol\":298:311  x<cube.length */\n      lt\n        /* \"contracts/3.1/06MultiDimesionArray/ThreeDimesionArray.sol\":290:341  require(x<cube.length,unicode\"超过x最大范围\") */\n      tag_25\n      jumpi\n      mload(0x40)\n      0x08c379a000000000000000000000000000000000000000000000000000000000\n      dup2\n      mstore\n      0x04\n      add\n      tag_26\n      swap1\n      tag_27\n      jump\t// in\n    tag_26:\n      mload(0x40)\n      dup1\n      swap2\n      sub\n      swap1\n      revert\n    tag_25:\n        /* \"contracts/3.1/06MultiDimesionArray/ThreeDimesionArray.sol\":362:366  cube */\n      0x00\n        /* \"contracts/3.1/06MultiDimesionArray/ThreeDimesionArray.sol\":367:368  x */\n      dup5\n        /* \"contracts/3.1/06MultiDimesionArray/ThreeDimesionArray.sol\":362:369  cube[x] */\n      dup2\n      sload\n      dup2\n      lt\n      tag_28\n      jumpi\n      tag_29\n      tag_30\n      jump\t// in\n    tag_29:\n    tag_28:\n      swap1\n      0x00\n      mstore\n      keccak256(0x00, 0x20)\n      add\n        /* \"contracts/3.1/06MultiDimesionArray/ThreeDimesionArray.sol\":362:376  cube[x].length */\n      dup1\n      sload\n      swap1\n      pop\n        /* \"contracts/3.1/06MultiDimesionArray/ThreeDimesionArray.sol\":360:361  y */\n      dup4\n        /* \"contracts/3.1/06MultiDimesionArray/ThreeDimesionArray.sol\":360:376  y<cube[x].length */\n      lt\n        /* \"contracts/3.1/06MultiDimesionArray/ThreeDimesionArray.sol\":352:406  require(y<cube[x].length,unicode\"超过y最大范围\") */\n      tag_32\n      jumpi\n      mload(0x40)\n      0x08c379a000000000000000000000000000000000000000000000000000000000\n      dup2\n      mstore\n      0x04\n      add\n      tag_33\n      swap1\n      tag_34\n      jump\t// in\n    tag_33:\n      mload(0x40)\n      dup1\n      swap2\n      sub\n      swap1\n      revert\n    tag_32:\n        /* \"contracts/3.1/06MultiDimesionArray/ThreeDimesionArray.sol\":427:431  cube */\n      0x00\n        /* \"contracts/3.1/06MultiDimesionArray/ThreeDimesionArray.sol\":432:433  x */\n      dup5\n        /* \"contracts/3.1/06MultiDimesionArray/ThreeDimesionArray.sol\":427:434  cube[x] */\n      dup2\n      sload\n      dup2\n      lt\n      tag_35\n      jumpi\n      tag_36\n      tag_30\n      jump\t// in\n    tag_36:\n    tag_35:\n      swap1\n      0x00\n      mstore\n      keccak256(0x00, 0x20)\n      add\n        /* \"contracts/3.1/06MultiDimesionArray/ThreeDimesionArray.sol\":435:436  y */\n      dup4\n        /* \"contracts/3.1/06MultiDimesionArray/ThreeDimesionArray.sol\":427:437  cube[x][y] */\n      dup2\n      sload\n      dup2\n      lt\n      tag_38\n      jumpi\n      tag_39\n      tag_30\n      jump\t// in\n    tag_39:\n    tag_38:\n      swap1\n      0x00\n      mstore\n      keccak256(0x00, 0x20)\n      add\n        /* \"contracts/3.1/06MultiDimesionArray/ThreeDimesionArray.sol\":427:444  cube[x][y].length */\n      dup1\n      sload\n      swap1\n      pop\n        /* \"contracts/3.1/06MultiDimesionArray/ThreeDimesionArray.sol\":425:426  z */\n      dup3\n        /* \"contracts/3.1/06MultiDimesionArray/ThreeDimesionArray.sol\":425:444  z<cube[x][y].length */\n      lt\n        /* \"contracts/3.1/06MultiDimesionArray/ThreeDimesionArray.sol\":417:474  require(z<cube[x][y].length,unicode\"超过z最大范围\") */\n      tag_41\n      jumpi\n      mload(0x40)\n      0x08c379a000000000000000000000000000000000000000000000000000000000\n      dup2\n      mstore\n      0x04\n      add\n      tag_42\n      swap1\n      tag_43\n      jump\t// in\n    tag_42:\n      mload(0x40)\n      dup1\n      swap2\n      sub\n      swap1\n      revert\n    tag_41:\n        /* \"contracts/3.1/06MultiDimesionArray/ThreeDimesionArray.sol\":492:496  cube */\n      0x00\n        /* \"contracts/3.1/06MultiDimesionArray/ThreeDimesionArray.sol\":497:498  x */\n      dup5\n        /* \"contracts/3.1/06MultiDimesionArray/ThreeDimesionArray.sol\":492:499  cube[x] */\n      dup2\n      sload\n      dup2\n      lt\n      tag_44\n      jumpi\n      tag_45\n      tag_30\n      jump\t// in\n    tag_45:\n    tag_44:\n      swap1\n      0x00\n      mstore\n      keccak256(0x00, 0x20)\n      add\n        /* \"contracts/3.1/06MultiDimesionArray/ThreeDimesionArray.sol\":500:501  y */\n      dup4\n        /* \"contracts/3.1/06MultiDimesionArray/ThreeDimesionArray.sol\":492:502  cube[x][y] */\n      dup2\n      sload\n      dup2\n      lt\n      tag_47\n      jumpi\n      tag_48\n      tag_30\n      jump\t// in\n    tag_48:\n    tag_47:\n      swap1\n      0x00\n      mstore\n      keccak256(0x00, 0x20)\n      add\n        /* \"contracts/3.1/06MultiDimesionArray/ThreeDimesionArray.sol\":503:504  z */\n      dup3\n        /* \"contracts/3.1/06MultiDimesionArray/ThreeDimesionArray.sol\":492:505  cube[x][y][z] */\n      dup2\n      sload\n      dup2\n      lt\n      tag_50\n      jumpi\n      tag_51\n      tag_30\n      jump\t// in\n    tag_51:\n    tag_50:\n      swap1\n      0x00\n      mstore\n      keccak256(0x00, 0x20)\n      add\n      sload\n        /* \"contracts/3.1/06MultiDimesionArray/ThreeDimesionArray.sol\":485:505  return cube[x][y][z] */\n      swap1\n      pop\n        /* \"contracts/3.1/06MultiDimesionArray/ThreeDimesionArray.sol\":212:513  function getElement(uint x,uint y,uint z) public view returns(uint){... */\n      swap4\n      swap3\n      pop\n      pop\n      pop\n      jump\t// out\n        /* \"contracts/3.1/06MultiDimesionArray/ThreeDimesionArray.sol\":92:114  uint[][][] public cube */\n    tag_18:\n      0x00\n      dup4\n      dup2\n      sload\n      dup2\n      lt\n      tag_53\n      jumpi\n      0x00\n      dup1\n      revert\n    tag_53:\n      swap1\n      0x00\n      mstore\n      keccak256(0x00, 0x20)\n      add\n      dup3\n      dup2\n      sload\n      dup2\n      lt\n      tag_55\n      jumpi\n      0x00\n      dup1\n      revert\n    tag_55:\n      swap1\n      0x00\n      mstore\n      keccak256(0x00, 0x20)\n      add\n      dup2\n      dup2\n      sload\n      dup2\n      lt\n      tag_57\n      jumpi\n      0x00\n      dup1\n      revert\n    tag_57:\n      swap1\n      0x00\n      mstore\n      keccak256(0x00, 0x20)\n      add\n      0x00\n      swap3\n      pop\n      swap3\n      pop\n      pop\n      pop\n      sload\n      dup2\n      jump\t// out\n        /* \"#utility.yul\":7:82   */\n    tag_59:\n        /* \"#utility.yul\":40:46   */\n      0x00\n        /* \"#utility.yul\":73:75   */\n      0x40\n        /* \"#utility.yul\":67:76   */\n      mload\n        /* \"#utility.yul\":57:76   */\n      swap1\n      pop\n        /* \"#utility.yul\":7:82   */\n      swap1\n      jump\t// out\n        /* \"#utility.yul\":88:205   */\n    tag_60:\n        /* \"#utility.yul\":197:198   */\n      0x00\n        /* \"#utility.yul\":194:195   */\n      0x00\n        /* \"#utility.yul\":187:199   */\n      revert\n        /* \"#utility.yul\":211:328   */\n    tag_61:\n        /* \"#utility.yul\":320:321   */\n      0x00\n        /* \"#utility.yul\":317:318   */\n      0x00\n        /* \"#utility.yul\":310:322   */\n      revert\n        /* \"#utility.yul\":334:451   */\n    tag_62:\n        /* \"#utility.yul\":443:444   */\n      0x00\n        /* \"#utility.yul\":440:441   */\n      0x00\n        /* \"#utility.yul\":433:445   */\n      revert\n        /* \"#utility.yul\":457:559   */\n    tag_63:\n        /* \"#utility.yul\":498:504   */\n      0x00\n        /* \"#utility.yul\":549:551   */\n      0x1f\n        /* \"#utility.yul\":545:552   */\n      not\n        /* \"#utility.yul\":540:542   */\n      0x1f\n        /* \"#utility.yul\":533:538   */\n      dup4\n        /* \"#utility.yul\":529:543   */\n      add\n        /* \"#utility.yul\":525:553   */\n      and\n        /* \"#utility.yul\":515:553   */\n      swap1\n      pop\n        /* \"#utility.yul\":457:559   */\n      swap2\n      swap1\n      pop\n      jump\t// out\n        /* \"#utility.yul\":565:745   */\n    tag_64:\n        /* \"#utility.yul\":613:690   */\n      0x4e487b7100000000000000000000000000000000000000000000000000000000\n        /* \"#utility.yul\":610:611   */\n      0x00\n        /* \"#utility.yul\":603:691   */\n      mstore\n        /* \"#utility.yul\":710:714   */\n      0x41\n        /* \"#utility.yul\":707:708   */\n      0x04\n        /* \"#utility.yul\":700:715   */\n      mstore\n        /* \"#utility.yul\":734:738   */\n      0x24\n        /* \"#utility.yul\":731:732   */\n      0x00\n        /* \"#utility.yul\":724:739   */\n      revert\n        /* \"#utility.yul\":751:1032   */\n    tag_65:\n        /* \"#utility.yul\":834:861   */\n      tag_130\n        /* \"#utility.yul\":856:860   */\n      dup3\n        /* \"#utility.yul\":834:861   */\n      tag_63\n      jump\t// in\n    tag_130:\n        /* \"#utility.yul\":826:832   */\n      dup2\n        /* \"#utility.yul\":822:862   */\n      add\n        /* \"#utility.yul\":964:970   */\n      dup2\n        /* \"#utility.yul\":952:962   */\n      dup2\n        /* \"#utility.yul\":949:971   */\n      lt\n        /* \"#utility.yul\":928:946   */\n      0xffffffffffffffff\n        /* \"#utility.yul\":916:926   */\n      dup3\n        /* \"#utility.yul\":913:947   */\n      gt\n        /* \"#utility.yul\":910:972   */\n      or\n        /* \"#utility.yul\":907:995   */\n      iszero\n      tag_131\n      jumpi\n        /* \"#utility.yul\":975:993   */\n      tag_132\n      tag_64\n      jump\t// in\n    tag_132:\n        /* \"#utility.yul\":907:995   */\n    tag_131:\n        /* \"#utility.yul\":1015:1025   */\n      dup1\n        /* \"#utility.yul\":1011:1013   */\n      0x40\n        /* \"#utility.yul\":1004:1026   */\n      mstore\n        /* \"#utility.yul\":794:1032   */\n      pop\n        /* \"#utility.yul\":751:1032   */\n      pop\n      pop\n      jump\t// out\n        /* \"#utility.yul\":1038:1167   */\n    tag_66:\n        /* \"#utility.yul\":1072:1078   */\n      0x00\n        /* \"#utility.yul\":1099:1119   */\n      tag_134\n      tag_59\n      jump\t// in\n    tag_134:\n        /* \"#utility.yul\":1089:1119   */\n      swap1\n      pop\n        /* \"#utility.yul\":1128:1161   */\n      tag_135\n        /* \"#utility.yul\":1156:1160   */\n      dup3\n        /* \"#utility.yul\":1148:1154   */\n      dup3\n        /* \"#utility.yul\":1128:1161   */\n      tag_65\n      jump\t// in\n    tag_135:\n        /* \"#utility.yul\":1038:1167   */\n      swap2\n      swap1\n      pop\n      jump\t// out\n        /* \"#utility.yul\":1173:1509   */\n    tag_67:\n        /* \"#utility.yul\":1275:1279   */\n      0x00\n        /* \"#utility.yul\":1365:1383   */\n      0xffffffffffffffff\n        /* \"#utility.yul\":1357:1363   */\n      dup3\n        /* \"#utility.yul\":1354:1384   */\n      gt\n        /* \"#utility.yul\":1351:1407   */\n      iszero\n      tag_137\n      jumpi\n        /* \"#utility.yul\":1387:1405   */\n      tag_138\n      tag_64\n      jump\t// in\n    tag_138:\n        /* \"#utility.yul\":1351:1407   */\n    tag_137:\n        /* \"#utility.yul\":1437:1441   */\n      0x20\n        /* \"#utility.yul\":1429:1435   */\n      dup3\n        /* \"#utility.yul\":1425:1442   */\n      mul\n        /* \"#utility.yul\":1417:1442   */\n      swap1\n      pop\n        /* \"#utility.yul\":1497:1501   */\n      0x20\n        /* \"#utility.yul\":1491:1495   */\n      dup2\n        /* \"#utility.yul\":1487:1502   */\n      add\n        /* \"#utility.yul\":1479:1502   */\n      swap1\n      pop\n        /* \"#utility.yul\":1173:1509   */\n      swap2\n      swap1\n      pop\n      jump\t// out\n        /* \"#utility.yul\":1515:1632   */\n    tag_68:\n        /* \"#utility.yul\":1624:1625   */\n      0x00\n        /* \"#utility.yul\":1621:1622   */\n      0x00\n        /* \"#utility.yul\":1614:1626   */\n      revert\n        /* \"#utility.yul\":1638:1949   */\n    tag_69:\n        /* \"#utility.yul\":1715:1719   */\n      0x00\n        /* \"#utility.yul\":1805:1823   */\n      0xffffffffffffffff\n        /* \"#utility.yul\":1797:1803   */\n      dup3\n        /* \"#utility.yul\":1794:1824   */\n      gt\n        /* \"#utility.yul\":1791:1847   */\n      iszero\n      tag_141\n      jumpi\n        /* \"#utility.yul\":1827:1845   */\n      tag_142\n      tag_64\n      jump\t// in\n    tag_142:\n        /* \"#utility.yul\":1791:1847   */\n    tag_141:\n        /* \"#utility.yul\":1877:1881   */\n      0x20\n        /* \"#utility.yul\":1869:1875   */\n      dup3\n        /* \"#utility.yul\":1865:1882   */\n      mul\n        /* \"#utility.yul\":1857:1882   */\n      swap1\n      pop\n        /* \"#utility.yul\":1937:1941   */\n      0x20\n        /* \"#utility.yul\":1931:1935   */\n      dup2\n        /* \"#utility.yul\":1927:1942   */\n      add\n        /* \"#utility.yul\":1919:1942   */\n      swap1\n      pop\n        /* \"#utility.yul\":1638:1949   */\n      swap2\n      swap1\n      pop\n      jump\t// out\n        /* \"#utility.yul\":1955:2032   */\n    tag_70:\n        /* \"#utility.yul\":1992:1999   */\n      0x00\n        /* \"#utility.yul\":2021:2026   */\n      dup2\n        /* \"#utility.yul\":2010:2026   */\n      swap1\n      pop\n        /* \"#utility.yul\":1955:2032   */\n      swap2\n      swap1\n      pop\n      jump\t// out\n        /* \"#utility.yul\":2038:2160   */\n    tag_71:\n        /* \"#utility.yul\":2111:2135   */\n      tag_145\n        /* \"#utility.yul\":2129:2134   */\n      dup2\n        /* \"#utility.yul\":2111:2135   */\n      tag_70\n      jump\t// in\n    tag_145:\n        /* \"#utility.yul\":2104:2109   */\n      dup2\n        /* \"#utility.yul\":2101:2136   */\n      eq\n        /* \"#utility.yul\":2091:2154   */\n      tag_146\n      jumpi\n        /* \"#utility.yul\":2150:2151   */\n      0x00\n        /* \"#utility.yul\":2147:2148   */\n      0x00\n        /* \"#utility.yul\":2140:2152   */\n      revert\n        /* \"#utility.yul\":2091:2154   */\n    tag_146:\n        /* \"#utility.yul\":2038:2160   */\n      pop\n      jump\t// out\n        /* \"#utility.yul\":2166:2305   */\n    tag_72:\n        /* \"#utility.yul\":2212:2217   */\n      0x00\n        /* \"#utility.yul\":2250:2256   */\n      dup2\n        /* \"#utility.yul\":2237:2257   */\n      calldataload\n        /* \"#utility.yul\":2228:2257   */\n      swap1\n      pop\n        /* \"#utility.yul\":2266:2299   */\n      tag_148\n        /* \"#utility.yul\":2293:2298   */\n      dup2\n        /* \"#utility.yul\":2266:2299   */\n      tag_71\n      jump\t// in\n    tag_148:\n        /* \"#utility.yul\":2166:2305   */\n      swap3\n      swap2\n      pop\n      pop\n      jump\t// out\n        /* \"#utility.yul\":2328:3038   */\n    tag_73:\n        /* \"#utility.yul\":2424:2429   */\n      0x00\n        /* \"#utility.yul\":2449:2530   */\n      tag_150\n        /* \"#utility.yul\":2465:2529   */\n      tag_151\n        /* \"#utility.yul\":2522:2528   */\n      dup5\n        /* \"#utility.yul\":2465:2529   */\n      tag_69\n      jump\t// in\n    tag_151:\n        /* \"#utility.yul\":2449:2530   */\n      tag_66\n      jump\t// in\n    tag_150:\n        /* \"#utility.yul\":2440:2530   */\n      swap1\n      pop\n        /* \"#utility.yul\":2550:2555   */\n      dup1\n        /* \"#utility.yul\":2579:2585   */\n      dup4\n        /* \"#utility.yul\":2572:2577   */\n      dup3\n        /* \"#utility.yul\":2565:2586   */\n      mstore\n        /* \"#utility.yul\":2613:2617   */\n      0x20\n        /* \"#utility.yul\":2606:2611   */\n      dup3\n        /* \"#utility.yul\":2602:2618   */\n      add\n        /* \"#utility.yul\":2595:2618   */\n      swap1\n      pop\n        /* \"#utility.yul\":2666:2670   */\n      0x20\n        /* \"#utility.yul\":2658:2664   */\n      dup5\n        /* \"#utility.yul\":2654:2671   */\n      mul\n        /* \"#utility.yul\":2646:2652   */\n      dup4\n        /* \"#utility.yul\":2642:2672   */\n      add\n        /* \"#utility.yul\":2695:2698   */\n      dup6\n        /* \"#utility.yul\":2687:2693   */\n      dup2\n        /* \"#utility.yul\":2684:2699   */\n      gt\n        /* \"#utility.yul\":2681:2803   */\n      iszero\n      tag_152\n      jumpi\n        /* \"#utility.yul\":2714:2793   */\n      tag_153\n      tag_68\n      jump\t// in\n    tag_153:\n        /* \"#utility.yul\":2681:2803   */\n    tag_152:\n        /* \"#utility.yul\":2829:2835   */\n      dup4\n        /* \"#utility.yul\":2812:3032   */\n    tag_154:\n        /* \"#utility.yul\":2846:2852   */\n      dup2\n        /* \"#utility.yul\":2841:2844   */\n      dup2\n        /* \"#utility.yul\":2838:2853   */\n      lt\n        /* \"#utility.yul\":2812:3032   */\n      iszero\n      tag_156\n      jumpi\n        /* \"#utility.yul\":2921:2924   */\n      dup1\n        /* \"#utility.yul\":2950:2987   */\n      tag_157\n        /* \"#utility.yul\":2983:2986   */\n      dup9\n        /* \"#utility.yul\":2971:2981   */\n      dup3\n        /* \"#utility.yul\":2950:2987   */\n      tag_72\n      jump\t// in\n    tag_157:\n        /* \"#utility.yul\":2945:2948   */\n      dup5\n        /* \"#utility.yul\":2938:2988   */\n      mstore\n        /* \"#utility.yul\":3017:3021   */\n      0x20\n        /* \"#utility.yul\":3012:3015   */\n      dup5\n        /* \"#utility.yul\":3008:3022   */\n      add\n        /* \"#utility.yul\":3001:3022   */\n      swap4\n      pop\n        /* \"#utility.yul\":2888:3032   */\n      pop\n        /* \"#utility.yul\":2872:2876   */\n      0x20\n        /* \"#utility.yul\":2867:2870   */\n      dup2\n        /* \"#utility.yul\":2863:2877   */\n      add\n        /* \"#utility.yul\":2856:2877   */\n      swap1\n      pop\n        /* \"#utility.yul\":2812:3032   */\n      jump(tag_154)\n    tag_156:\n        /* \"#utility.yul\":2816:2837   */\n      pop\n        /* \"#utility.yul\":2430:3038   */\n      pop\n      pop\n        /* \"#utility.yul\":2328:3038   */\n      swap4\n      swap3\n      pop\n      pop\n      pop\n      jump\t// out\n        /* \"#utility.yul\":3061:3431   */\n    tag_74:\n        /* \"#utility.yul\":3132:3137   */\n      0x00\n        /* \"#utility.yul\":3181:3184   */\n      dup3\n        /* \"#utility.yul\":3174:3178   */\n      0x1f\n        /* \"#utility.yul\":3166:3172   */\n      dup4\n        /* \"#utility.yul\":3162:3179   */\n      add\n        /* \"#utility.yul\":3158:3185   */\n      slt\n        /* \"#utility.yul\":3148:3270   */\n      tag_159\n      jumpi\n        /* \"#utility.yul\":3189:3268   */\n      tag_160\n      tag_62\n      jump\t// in\n    tag_160:\n        /* \"#utility.yul\":3148:3270   */\n    tag_159:\n        /* \"#utility.yul\":3306:3312   */\n      dup2\n        /* \"#utility.yul\":3293:3313   */\n      calldataload\n        /* \"#utility.yul\":3331:3425   */\n      tag_161\n        /* \"#utility.yul\":3421:3424   */\n      dup5\n        /* \"#utility.yul\":3413:3419   */\n      dup3\n        /* \"#utility.yul\":3406:3410   */\n      0x20\n        /* \"#utility.yul\":3398:3404   */\n      dup7\n        /* \"#utility.yul\":3394:3411   */\n      add\n        /* \"#utility.yul\":3331:3425   */\n      tag_73\n      jump\t// in\n    tag_161:\n        /* \"#utility.yul\":3322:3425   */\n      swap2\n      pop\n        /* \"#utility.yul\":3138:3431   */\n      pop\n        /* \"#utility.yul\":3061:3431   */\n      swap3\n      swap2\n      pop\n      pop\n      jump\t// out\n        /* \"#utility.yul\":3456:4446   */\n    tag_75:\n        /* \"#utility.yul\":3577:3582   */\n      0x00\n        /* \"#utility.yul\":3602:3708   */\n      tag_163\n        /* \"#utility.yul\":3618:3707   */\n      tag_164\n        /* \"#utility.yul\":3700:3706   */\n      dup5\n        /* \"#utility.yul\":3618:3707   */\n      tag_67\n      jump\t// in\n    tag_164:\n        /* \"#utility.yul\":3602:3708   */\n      tag_66\n      jump\t// in\n    tag_163:\n        /* \"#utility.yul\":3593:3708   */\n      swap1\n      pop\n        /* \"#utility.yul\":3728:3733   */\n      dup1\n        /* \"#utility.yul\":3757:3763   */\n      dup4\n        /* \"#utility.yul\":3750:3755   */\n      dup3\n        /* \"#utility.yul\":3743:3764   */\n      mstore\n        /* \"#utility.yul\":3791:3795   */\n      0x20\n        /* \"#utility.yul\":3784:3789   */\n      dup3\n        /* \"#utility.yul\":3780:3796   */\n      add\n        /* \"#utility.yul\":3773:3796   */\n      swap1\n      pop\n        /* \"#utility.yul\":3844:3848   */\n      0x20\n        /* \"#utility.yul\":3836:3842   */\n      dup5\n        /* \"#utility.yul\":3832:3849   */\n      mul\n        /* \"#utility.yul\":3824:3830   */\n      dup4\n        /* \"#utility.yul\":3820:3850   */\n      add\n        /* \"#utility.yul\":3873:3876   */\n      dup6\n        /* \"#utility.yul\":3865:3871   */\n      dup2\n        /* \"#utility.yul\":3862:3877   */\n      gt\n        /* \"#utility.yul\":3859:3981   */\n      iszero\n      tag_165\n      jumpi\n        /* \"#utility.yul\":3892:3971   */\n      tag_166\n      tag_68\n      jump\t// in\n    tag_166:\n        /* \"#utility.yul\":3859:3981   */\n    tag_165:\n        /* \"#utility.yul\":4007:4013   */\n      dup4\n        /* \"#utility.yul\":3990:4440   */\n    tag_167:\n        /* \"#utility.yul\":4024:4030   */\n      dup2\n        /* \"#utility.yul\":4019:4022   */\n      dup2\n        /* \"#utility.yul\":4016:4031   */\n      lt\n        /* \"#utility.yul\":3990:4440   */\n      iszero\n      tag_169\n      jumpi\n        /* \"#utility.yul\":4113:4116   */\n      dup1\n        /* \"#utility.yul\":4100:4117   */\n      calldataload\n        /* \"#utility.yul\":4149:4167   */\n      0xffffffffffffffff\n        /* \"#utility.yul\":4136:4147   */\n      dup2\n        /* \"#utility.yul\":4133:4168   */\n      gt\n        /* \"#utility.yul\":4130:4252   */\n      iszero\n      tag_170\n      jumpi\n        /* \"#utility.yul\":4171:4250   */\n      tag_171\n      tag_62\n      jump\t// in\n    tag_171:\n        /* \"#utility.yul\":4130:4252   */\n    tag_170:\n        /* \"#utility.yul\":4295:4306   */\n      dup1\n        /* \"#utility.yul\":4287:4293   */\n      dup7\n        /* \"#utility.yul\":4283:4307   */\n      add\n        /* \"#utility.yul\":4333:4395   */\n      tag_172\n        /* \"#utility.yul\":4391:4394   */\n      dup10\n        /* \"#utility.yul\":4379:4389   */\n      dup3\n        /* \"#utility.yul\":4333:4395   */\n      tag_74\n      jump\t// in\n    tag_172:\n        /* \"#utility.yul\":4328:4331   */\n      dup6\n        /* \"#utility.yul\":4321:4396   */\n      mstore\n        /* \"#utility.yul\":4425:4429   */\n      0x20\n        /* \"#utility.yul\":4420:4423   */\n      dup6\n        /* \"#utility.yul\":4416:4430   */\n      add\n        /* \"#utility.yul\":4409:4430   */\n      swap5\n      pop\n        /* \"#utility.yul\":4066:4440   */\n      pop\n      pop\n        /* \"#utility.yul\":4050:4054   */\n      0x20\n        /* \"#utility.yul\":4045:4048   */\n      dup2\n        /* \"#utility.yul\":4041:4055   */\n      add\n        /* \"#utility.yul\":4034:4055   */\n      swap1\n      pop\n        /* \"#utility.yul\":3990:4440   */\n      jump(tag_167)\n    tag_169:\n        /* \"#utility.yul\":3994:4015   */\n      pop\n        /* \"#utility.yul\":3583:4446   */\n      pop\n      pop\n        /* \"#utility.yul\":3456:4446   */\n      swap4\n      swap3\n      pop\n      pop\n      pop\n      jump\t// out\n        /* \"#utility.yul\":4471:4891   */\n    tag_76:\n        /* \"#utility.yul\":4567:4572   */\n      0x00\n        /* \"#utility.yul\":4616:4619   */\n      dup3\n        /* \"#utility.yul\":4609:4613   */\n      0x1f\n        /* \"#utility.yul\":4601:4607   */\n      dup4\n        /* \"#utility.yul\":4597:4614   */\n      add\n        /* \"#utility.yul\":4593:4620   */\n      slt\n        /* \"#utility.yul\":4583:4705   */\n      tag_174\n      jumpi\n        /* \"#utility.yul\":4624:4703   */\n      tag_175\n      tag_62\n      jump\t// in\n    tag_175:\n        /* \"#utility.yul\":4583:4705   */\n    tag_174:\n        /* \"#utility.yul\":4741:4747   */\n      dup2\n        /* \"#utility.yul\":4728:4748   */\n      calldataload\n        /* \"#utility.yul\":4766:4885   */\n      tag_176\n        /* \"#utility.yul\":4881:4884   */\n      dup5\n        /* \"#utility.yul\":4873:4879   */\n      dup3\n        /* \"#utility.yul\":4866:4870   */\n      0x20\n        /* \"#utility.yul\":4858:4864   */\n      dup7\n        /* \"#utility.yul\":4854:4871   */\n      add\n        /* \"#utility.yul\":4766:4885   */\n      tag_75\n      jump\t// in\n    tag_176:\n        /* \"#utility.yul\":4757:4885   */\n      swap2\n      pop\n        /* \"#utility.yul\":4573:4891   */\n      pop\n        /* \"#utility.yul\":4471:4891   */\n      swap3\n      swap2\n      pop\n      pop\n      jump\t// out\n        /* \"#utility.yul\":4897:5486   */\n    tag_8:\n        /* \"#utility.yul\":5006:5012   */\n      0x00\n        /* \"#utility.yul\":5055:5057   */\n      0x20\n        /* \"#utility.yul\":5043:5052   */\n      dup3\n        /* \"#utility.yul\":5034:5041   */\n      dup5\n        /* \"#utility.yul\":5030:5053   */\n      sub\n        /* \"#utility.yul\":5026:5058   */\n      slt\n        /* \"#utility.yul\":5023:5142   */\n      iszero\n      tag_178\n      jumpi\n        /* \"#utility.yul\":5061:5140   */\n      tag_179\n      tag_60\n      jump\t// in\n    tag_179:\n        /* \"#utility.yul\":5023:5142   */\n    tag_178:\n        /* \"#utility.yul\":5209:5210   */\n      0x00\n        /* \"#utility.yul\":5198:5207   */\n      dup3\n        /* \"#utility.yul\":5194:5211   */\n      add\n        /* \"#utility.yul\":5181:5212   */\n      calldataload\n        /* \"#utility.yul\":5239:5257   */\n      0xffffffffffffffff\n        /* \"#utility.yul\":5231:5237   */\n      dup2\n        /* \"#utility.yul\":5228:5258   */\n      gt\n        /* \"#utility.yul\":5225:5342   */\n      iszero\n      tag_180\n      jumpi\n        /* \"#utility.yul\":5261:5340   */\n      tag_181\n      tag_61\n      jump\t// in\n    tag_181:\n        /* \"#utility.yul\":5225:5342   */\n    tag_180:\n        /* \"#utility.yul\":5366:5469   */\n      tag_182\n        /* \"#utility.yul\":5461:5468   */\n      dup5\n        /* \"#utility.yul\":5452:5458   */\n      dup3\n        /* \"#utility.yul\":5441:5450   */\n      dup6\n        /* \"#utility.yul\":5437:5459   */\n      add\n        /* \"#utility.yul\":5366:5469   */\n      tag_76\n      jump\t// in\n    tag_182:\n        /* \"#utility.yul\":5356:5469   */\n      swap2\n      pop\n        /* \"#utility.yul\":5152:5479   */\n      pop\n        /* \"#utility.yul\":4897:5486   */\n      swap3\n      swap2\n      pop\n      pop\n      jump\t// out\n        /* \"#utility.yul\":5492:6111   */\n    tag_12:\n        /* \"#utility.yul\":5569:5575   */\n      0x00\n        /* \"#utility.yul\":5577:5583   */\n      0x00\n        /* \"#utility.yul\":5585:5591   */\n      0x00\n        /* \"#utility.yul\":5634:5636   */\n      0x60\n        /* \"#utility.yul\":5622:5631   */\n      dup5\n        /* \"#utility.yul\":5613:5620   */\n      dup7\n        /* \"#utility.yul\":5609:5632   */\n      sub\n        /* \"#utility.yul\":5605:5637   */\n      slt\n        /* \"#utility.yul\":5602:5721   */\n      iszero\n      tag_184\n      jumpi\n        /* \"#utility.yul\":5640:5719   */\n      tag_185\n      tag_60\n      jump\t// in\n    tag_185:\n        /* \"#utility.yul\":5602:5721   */\n    tag_184:\n        /* \"#utility.yul\":5760:5761   */\n      0x00\n        /* \"#utility.yul\":5785:5838   */\n      tag_186\n        /* \"#utility.yul\":5830:5837   */\n      dup7\n        /* \"#utility.yul\":5821:5827   */\n      dup3\n        /* \"#utility.yul\":5810:5819   */\n      dup8\n        /* \"#utility.yul\":5806:5828   */\n      add\n        /* \"#utility.yul\":5785:5838   */\n      tag_72\n      jump\t// in\n    tag_186:\n        /* \"#utility.yul\":5775:5838   */\n      swap4\n      pop\n        /* \"#utility.yul\":5731:5848   */\n      pop\n        /* \"#utility.yul\":5887:5889   */\n      0x20\n        /* \"#utility.yul\":5913:5966   */\n      tag_187\n        /* \"#utility.yul\":5958:5965   */\n      dup7\n        /* \"#utility.yul\":5949:5955   */\n      dup3\n        /* \"#utility.yul\":5938:5947   */\n      dup8\n        /* \"#utility.yul\":5934:5956   */\n      add\n        /* \"#utility.yul\":5913:5966   */\n      tag_72\n      jump\t// in\n    tag_187:\n        /* \"#utility.yul\":5903:5966   */\n      swap3\n      pop\n        /* \"#utility.yul\":5858:5976   */\n      pop\n        /* \"#utility.yul\":6015:6017   */\n      0x40\n        /* \"#utility.yul\":6041:6094   */\n      tag_188\n        /* \"#utility.yul\":6086:6093   */\n      dup7\n        /* \"#utility.yul\":6077:6083   */\n      dup3\n        /* \"#utility.yul\":6066:6075   */\n      dup8\n        /* \"#utility.yul\":6062:6084   */\n      add\n        /* \"#utility.yul\":6041:6094   */\n      tag_72\n      jump\t// in\n    tag_188:\n        /* \"#utility.yul\":6031:6094   */\n      swap2\n      pop\n        /* \"#utility.yul\":5986:6104   */\n      pop\n        /* \"#utility.yul\":5492:6111   */\n      swap3\n      pop\n      swap3\n      pop\n      swap3\n      jump\t// out\n        /* \"#utility.yul\":6117:6235   */\n    tag_77:\n        /* \"#utility.yul\":6204:6228   */\n      tag_190\n        /* \"#utility.yul\":6222:6227   */\n      dup2\n        /* \"#utility.yul\":6204:6228   */\n      tag_70\n      jump\t// in\n    tag_190:\n        /* \"#utility.yul\":6199:6202   */\n      dup3\n        /* \"#utility.yul\":6192:6229   */\n      mstore\n        /* \"#utility.yul\":6117:6235   */\n      pop\n      pop\n      jump\t// out\n        /* \"#utility.yul\":6241:6463   */\n    tag_15:\n        /* \"#utility.yul\":6334:6338   */\n      0x00\n        /* \"#utility.yul\":6372:6374   */\n      0x20\n        /* \"#utility.yul\":6361:6370   */\n      dup3\n        /* \"#utility.yul\":6357:6375   */\n      add\n        /* \"#utility.yul\":6349:6375   */\n      swap1\n      pop\n        /* \"#utility.yul\":6385:6456   */\n      tag_192\n        /* \"#utility.yul\":6453:6454   */\n      0x00\n        /* \"#utility.yul\":6442:6451   */\n      dup4\n        /* \"#utility.yul\":6438:6455   */\n      add\n        /* \"#utility.yul\":6429:6435   */\n      dup5\n        /* \"#utility.yul\":6385:6456   */\n      tag_77\n      jump\t// in\n    tag_192:\n        /* \"#utility.yul\":6241:6463   */\n      swap3\n      swap2\n      pop\n      pop\n      jump\t// out\n        /* \"#utility.yul\":6469:6626   */\n    tag_78:\n        /* \"#utility.yul\":6561:6565   */\n      0x00\n        /* \"#utility.yul\":6584:6587   */\n      dup2\n        /* \"#utility.yul\":6576:6587   */\n      swap1\n      pop\n        /* \"#utility.yul\":6614:6618   */\n      0x20\n        /* \"#utility.yul\":6609:6612   */\n      dup3\n        /* \"#utility.yul\":6605:6619   */\n      add\n        /* \"#utility.yul\":6597:6619   */\n      swap1\n      pop\n        /* \"#utility.yul\":6469:6626   */\n      swap2\n      swap1\n      pop\n      jump\t// out\n        /* \"#utility.yul\":6632:6765   */\n    tag_79:\n        /* \"#utility.yul\":6718:6724   */\n      0x00\n        /* \"#utility.yul\":6752:6757   */\n      dup2\n        /* \"#utility.yul\":6746:6758   */\n      sload\n        /* \"#utility.yul\":6736:6758   */\n      swap1\n      pop\n        /* \"#utility.yul\":6632:6765   */\n      swap2\n      swap1\n      pop\n      jump\t// out\n        /* \"#utility.yul\":7373:7598   */\n    tag_82:\n        /* \"#utility.yul\":7476:7480   */\n      0x00\n        /* \"#utility.yul\":7499:7505   */\n      dup2\n        /* \"#utility.yul\":7491:7505   */\n      swap1\n      pop\n        /* \"#utility.yul\":7589:7590   */\n      0x01\n        /* \"#utility.yul\":7584:7585   */\n      dup1\n        /* \"#utility.yul\":7581:7582   */\n      0x01\n        /* \"#utility.yul\":7577:7586   */\n      sub\n        /* \"#utility.yul\":7569:7575   */\n      dup4\n        /* \"#utility.yul\":7565:7587   */\n      add\n        /* \"#utility.yul\":7561:7591   */\n      div\n        /* \"#utility.yul\":7553:7591   */\n      swap1\n      pop\n        /* \"#utility.yul\":7373:7598   */\n      swap2\n      swap1\n      pop\n      jump\t// out\n        /* \"#utility.yul\":7603:7781   */\n    tag_83:\n        /* \"#utility.yul\":7689:7693   */\n      0x00\n        /* \"#utility.yul\":7712:7715   */\n      dup2\n        /* \"#utility.yul\":7704:7715   */\n      swap1\n      pop\n        /* \"#utility.yul\":7735:7738   */\n      dup2\n        /* \"#utility.yul\":7732:7733   */\n      0x00\n        /* \"#utility.yul\":7725:7739   */\n      mstore\n        /* \"#utility.yul\":7769:7773   */\n      0x20\n        /* \"#utility.yul\":7766:7767   */\n      0x00\n        /* \"#utility.yul\":7756:7774   */\n      keccak256\n        /* \"#utility.yul\":7748:7774   */\n      swap1\n      pop\n        /* \"#utility.yul\":7603:7781   */\n      swap2\n      swap1\n      pop\n      jump\t// out\n        /* \"#utility.yul\":7787:7898   */\n    tag_84:\n        /* \"#utility.yul\":7851:7857   */\n      0x00\n        /* \"#utility.yul\":7885:7890   */\n      dup2\n        /* \"#utility.yul\":7879:7891   */\n      sload\n        /* \"#utility.yul\":7869:7891   */\n      swap1\n      pop\n        /* \"#utility.yul\":7787:7898   */\n      swap2\n      swap1\n      pop\n      jump\t// out\n        /* \"#utility.yul\":7904:8107   */\n    tag_85:\n        /* \"#utility.yul\":7985:7989   */\n      0x00\n        /* \"#utility.yul\":8008:8014   */\n      dup2\n        /* \"#utility.yul\":8000:8014   */\n      swap1\n      pop\n        /* \"#utility.yul\":8098:8099   */\n      0x01\n        /* \"#utility.yul\":8093:8094   */\n      dup1\n        /* \"#utility.yul\":8090:8091   */\n      0x01\n        /* \"#utility.yul\":8086:8095   */\n      sub\n        /* \"#utility.yul\":8078:8084   */\n      dup4\n        /* \"#utility.yul\":8074:8096   */\n      add\n        /* \"#utility.yul\":8070:8100   */\n      div\n        /* \"#utility.yul\":8062:8100   */\n      swap1\n      pop\n        /* \"#utility.yul\":7904:8107   */\n      swap2\n      swap1\n      pop\n      jump\t// out\n        /* \"#utility.yul\":8112:8268   */\n    tag_86:\n        /* \"#utility.yul\":8176:8180   */\n      0x00\n        /* \"#utility.yul\":8199:8202   */\n      dup2\n        /* \"#utility.yul\":8191:8202   */\n      swap1\n      pop\n        /* \"#utility.yul\":8222:8225   */\n      dup2\n        /* \"#utility.yul\":8219:8220   */\n      0x00\n        /* \"#utility.yul\":8212:8226   */\n      mstore\n        /* \"#utility.yul\":8256:8260   */\n      0x20\n        /* \"#utility.yul\":8253:8254   */\n      0x00\n        /* \"#utility.yul\":8243:8261   */\n      keccak256\n        /* \"#utility.yul\":8235:8261   */\n      swap1\n      pop\n        /* \"#utility.yul\":8112:8268   */\n      swap2\n      swap1\n      pop\n      jump\t// out\n        /* \"#utility.yul\":8274:8381   */\n    tag_87:\n        /* \"#utility.yul\":8318:8326   */\n      0x00\n        /* \"#utility.yul\":8368:8373   */\n      dup3\n        /* \"#utility.yul\":8362:8366   */\n      dup3\n        /* \"#utility.yul\":8358:8374   */\n      shl\n        /* \"#utility.yul\":8337:8374   */\n      swap1\n      pop\n        /* \"#utility.yul\":8274:8381   */\n      swap3\n      swap2\n      pop\n      pop\n      jump\t// out\n        /* \"#utility.yul\":8387:8780   */\n    tag_88:\n        /* \"#utility.yul\":8456:8462   */\n      0x00\n        /* \"#utility.yul\":8506:8507   */\n      0x08\n        /* \"#utility.yul\":8494:8504   */\n      dup4\n        /* \"#utility.yul\":8490:8508   */\n      mul\n        /* \"#utility.yul\":8529:8626   */\n      tag_209\n        /* \"#utility.yul\":8559:8625   */\n      0xffffffffffffffffffffffffffffffffffffffffffffffffffffffffffffffff\n        /* \"#utility.yul\":8548:8557   */\n      dup3\n        /* \"#utility.yul\":8529:8626   */\n      tag_87\n      jump\t// in\n    tag_209:\n        /* \"#utility.yul\":8647:8686   */\n      tag_210\n        /* \"#utility.yul\":8677:8685   */\n      dup7\n        /* \"#utility.yul\":8666:8675   */\n      dup4\n        /* \"#utility.yul\":8647:8686   */\n      tag_87\n      jump\t// in\n    tag_210:\n        /* \"#utility.yul\":8635:8686   */\n      swap6\n      pop\n        /* \"#utility.yul\":8719:8723   */\n      dup1\n        /* \"#utility.yul\":8715:8724   */\n      not\n        /* \"#utility.yul\":8708:8713   */\n      dup5\n        /* \"#utility.yul\":8704:8725   */\n      and\n        /* \"#utility.yul\":8695:8725   */\n      swap4\n      pop\n        /* \"#utility.yul\":8768:8772   */\n      dup1\n        /* \"#utility.yul\":8758:8766   */\n      dup7\n        /* \"#utility.yul\":8754:8773   */\n      and\n        /* \"#utility.yul\":8747:8752   */\n      dup5\n        /* \"#utility.yul\":8744:8774   */\n      or\n        /* \"#utility.yul\":8734:8774   */\n      swap3\n      pop\n        /* \"#utility.yul\":8463:8780   */\n      pop\n      pop\n        /* \"#utility.yul\":8387:8780   */\n      swap4\n      swap3\n      pop\n      pop\n      pop\n      jump\t// out\n        /* \"#utility.yul\":8786:8846   */\n    tag_89:\n        /* \"#utility.yul\":8814:8817   */\n      0x00\n        /* \"#utility.yul\":8835:8840   */\n      dup2\n        /* \"#utility.yul\":8828:8840   */\n      swap1\n      pop\n        /* \"#utility.yul\":8786:8846   */\n      swap2\n      swap1\n      pop\n      jump\t// out\n        /* \"#utility.yul\":8852:8994   */\n    tag_90:\n        /* \"#utility.yul\":8902:8911   */\n      0x00\n        /* \"#utility.yul\":8935:8988   */\n      tag_213\n        /* \"#utility.yul\":8953:8987   */\n      tag_214\n        /* \"#utility.yul\":8962:8986   */\n      tag_215\n        /* \"#utility.yul\":8980:8985   */\n      dup5\n        /* \"#utility.yul\":8962:8986   */\n      tag_70\n      jump\t// in\n    tag_215:\n        /* \"#utility.yul\":8953:8987   */\n      tag_89\n      jump\t// in\n    tag_214:\n        /* \"#utility.yul\":8935:8988   */\n      tag_70\n      jump\t// in\n    tag_213:\n        /* \"#utility.yul\":8922:8988   */\n      swap1\n      pop\n        /* \"#utility.yul\":8852:8994   */\n      swap2\n      swap1\n      pop\n      jump\t// out\n        /* \"#utility.yul\":9000:9075   */\n    tag_91:\n        /* \"#utility.yul\":9043:9046   */\n      0x00\n        /* \"#utility.yul\":9064:9069   */\n      dup2\n        /* \"#utility.yul\":9057:9069   */\n      swap1\n      pop\n        /* \"#utility.yul\":9000:9075   */\n      swap2\n      swap1\n      pop\n      jump\t// out\n        /* \"#utility.yul\":9081:9350   */\n    tag_92:\n        /* \"#utility.yul\":9191:9230   */\n      tag_218\n        /* \"#utility.yul\":9222:9229   */\n      dup4\n        /* \"#utility.yul\":9191:9230   */\n      tag_90\n      jump\t// in\n    tag_218:\n        /* \"#utility.yul\":9252:9343   */\n      tag_219\n        /* \"#utility.yul\":9301:9342   */\n      tag_220\n        /* \"#utility.yul\":9325:9341   */\n      dup3\n        /* \"#utility.yul\":9301:9342   */\n      tag_91\n      jump\t// in\n    tag_220:\n        /* \"#utility.yul\":9293:9299   */\n      dup5\n        /* \"#utility.yul\":9286:9290   */\n      dup5\n        /* \"#utility.yul\":9280:9291   */\n      sload\n        /* \"#utility.yul\":9252:9343   */\n      tag_88\n      jump\t// in\n    tag_219:\n        /* \"#utility.yul\":9246:9250   */\n      dup3\n        /* \"#utility.yul\":9239:9344   */\n      sstore\n        /* \"#utility.yul\":9157:9350   */\n      pop\n        /* \"#utility.yul\":9081:9350   */\n      pop\n      pop\n      pop\n      jump\t// out\n        /* \"#utility.yul\":9356:9429   */\n    tag_93:\n        /* \"#utility.yul\":9401:9404   */\n      0x00\n        /* \"#utility.yul\":9422:9423   */\n      0x00\n        /* \"#utility.yul\":9415:9423   */\n      swap1\n      pop\n        /* \"#utility.yul\":9356:9429   */\n      swap1\n      jump\t// out\n        /* \"#utility.yul\":9435:9624   */\n    tag_94:\n        /* \"#utility.yul\":9512:9544   */\n      tag_223\n      tag_93\n      jump\t// in\n    tag_223:\n        /* \"#utility.yul\":9553:9618   */\n      tag_224\n        /* \"#utility.yul\":9611:9617   */\n      dup2\n        /* \"#utility.yul\":9603:9609   */\n      dup5\n        /* \"#utility.yul\":9597:9601   */\n      dup5\n        /* \"#utility.yul\":9553:9618   */\n      tag_92\n      jump\t// in\n    tag_224:\n        /* \"#utility.yul\":9488:9624   */\n      pop\n        /* \"#utility.yul\":9435:9624   */\n      pop\n      pop\n      jump\t// out\n        /* \"#utility.yul\":9630:9845   */\n    tag_95:\n        /* \"#utility.yul\":9716:9717   */\n      0x00\n        /* \"#utility.yul\":9701:9839   */\n    tag_226:\n        /* \"#utility.yul\":9726:9735   */\n      dup3\n        /* \"#utility.yul\":9723:9724   */\n      dup2\n        /* \"#utility.yul\":9720:9736   */\n      lt\n        /* \"#utility.yul\":9701:9839   */\n      iszero\n      tag_228\n      jumpi\n        /* \"#utility.yul\":9778:9829   */\n      tag_229\n        /* \"#utility.yul\":9827:9828   */\n      0x00\n        /* \"#utility.yul\":9823:9824   */\n      dup3\n        /* \"#utility.yul\":9812:9821   */\n      dup5\n        /* \"#utility.yul\":9808:9825   */\n      add\n        /* \"#utility.yul\":9778:9829   */\n      tag_94\n      jump\t// in\n    tag_229:\n        /* \"#utility.yul\":9751:9752   */\n      0x01\n        /* \"#utility.yul\":9748:9749   */\n      dup2\n        /* \"#utility.yul\":9744:9753   */\n      add\n        /* \"#utility.yul\":9739:9753   */\n      swap1\n      pop\n        /* \"#utility.yul\":9701:9839   */\n      jump(tag_226)\n    tag_228:\n        /* \"#utility.yul\":9705:9719   */\n      pop\n        /* \"#utility.yul\":9630:9845   */\n      pop\n      pop\n      jump\t// out\n        /* \"#utility.yul\":10224:10864   */\n    tag_98:\n        /* \"#utility.yul\":10344:10347   */\n      dup2\n        /* \"#utility.yul\":10332:10342   */\n      dup4\n        /* \"#utility.yul\":10329:10348   */\n      lt\n        /* \"#utility.yul\":10326:10857   */\n      iszero\n      tag_234\n      jumpi\n        /* \"#utility.yul\":10435:10500   */\n      tag_235\n        /* \"#utility.yul\":10496:10499   */\n      dup3\n        /* \"#utility.yul\":10435:10500   */\n      tag_85\n      jump\t// in\n    tag_235:\n        /* \"#utility.yul\":10533:10605   */\n      tag_236\n        /* \"#utility.yul\":10594:10604   */\n      dup5\n        /* \"#utility.yul\":10533:10605   */\n      tag_85\n      jump\t// in\n    tag_236:\n        /* \"#utility.yul\":10640:10693   */\n      tag_237\n        /* \"#utility.yul\":10687:10692   */\n      dup4\n        /* \"#utility.yul\":10640:10693   */\n      tag_86\n      jump\t// in\n    tag_237:\n        /* \"#utility.yul\":10745:10757   */\n      dup2\n        /* \"#utility.yul\":10729:10743   */\n      dup2\n        /* \"#utility.yul\":10725:10758   */\n      add\n        /* \"#utility.yul\":10772:10847   */\n      tag_238\n        /* \"#utility.yul\":10833:10845   */\n      dup4\n        /* \"#utility.yul\":10819:10831   */\n      dup6\n        /* \"#utility.yul\":10815:10846   */\n      sub\n        /* \"#utility.yul\":10802:10813   */\n      dup3\n        /* \"#utility.yul\":10772:10847   */\n      tag_95\n      jump\t// in\n    tag_238:\n        /* \"#utility.yul\":10349:10857   */\n      pop\n      pop\n      pop\n      pop\n        /* \"#utility.yul\":10326:10857   */\n    tag_234:\n        /* \"#utility.yul\":10224:10864   */\n      pop\n      pop\n      pop\n      jump\t// out\n        /* \"#utility.yul\":10870:11258   */\n    tag_99:\n        /* \"#utility.yul\":10963:10983   */\n      0x010000000000000000\n        /* \"#utility.yul\":10955:10961   */\n      dup3\n        /* \"#utility.yul\":10952:10984   */\n      gt\n        /* \"#utility.yul\":10949:11027   */\n      iszero\n      tag_240\n      jumpi\n        /* \"#utility.yul\":10999:11017   */\n      tag_241\n      tag_64\n      jump\t// in\n    tag_241:\n        /* \"#utility.yul\":10949:11027   */\n    tag_240:\n        /* \"#utility.yul\":11051:11102   */\n      tag_242\n        /* \"#utility.yul\":11096:11101   */\n      dup2\n        /* \"#utility.yul\":11051:11102   */\n      tag_84\n      jump\t// in\n    tag_242:\n        /* \"#utility.yul\":11154:11160   */\n      dup3\n        /* \"#utility.yul\":11147:11152   */\n      dup3\n        /* \"#utility.yul\":11140:11161   */\n      sstore\n        /* \"#utility.yul\":11171:11251   */\n      tag_243\n        /* \"#utility.yul\":11244:11250   */\n      dup4\n        /* \"#utility.yul\":11236:11242   */\n      dup3\n        /* \"#utility.yul\":11229:11234   */\n      dup5\n        /* \"#utility.yul\":11171:11251   */\n      tag_98\n      jump\t// in\n    tag_243:\n        /* \"#utility.yul\":10939:11258   */\n      pop\n        /* \"#utility.yul\":10870:11258   */\n      pop\n      pop\n      jump\t// out\n        /* \"#utility.yul\":11263:11401   */\n    tag_100:\n        /* \"#utility.yul\":11341:11394   */\n      tag_245\n        /* \"#utility.yul\":11392:11393   */\n      0x00\n        /* \"#utility.yul\":11386:11390   */\n      dup3\n        /* \"#utility.yul\":11341:11394   */\n      tag_99\n      jump\t// in\n    tag_245:\n        /* \"#utility.yul\":11263:11401   */\n      pop\n      jump\t// out\n        /* \"#utility.yul\":11407:11587   */\n    tag_101:\n        /* \"#utility.yul\":11455:11532   */\n      0x4e487b7100000000000000000000000000000000000000000000000000000000\n        /* \"#utility.yul\":11452:11453   */\n      0x00\n        /* \"#utility.yul\":11445:11533   */\n      mstore\n        /* \"#utility.yul\":11552:11556   */\n      0x00\n        /* \"#utility.yul\":11549:11550   */\n      0x04\n        /* \"#utility.yul\":11542:11557   */\n      mstore\n        /* \"#utility.yul\":11576:11580   */\n      0x24\n        /* \"#utility.yul\":11573:11574   */\n      0x00\n        /* \"#utility.yul\":11566:11581   */\n      revert\n        /* \"#utility.yul\":11593:11797   */\n    tag_102:\n        /* \"#utility.yul\":11699:11700   */\n      0x00\n        /* \"#utility.yul\":11691:11697   */\n      dup3\n        /* \"#utility.yul\":11688:11701   */\n      eq\n        /* \"#utility.yul\":11678:11725   */\n      tag_248\n      jumpi\n        /* \"#utility.yul\":11705:11723   */\n      tag_249\n      tag_101\n      jump\t// in\n    tag_249:\n        /* \"#utility.yul\":11678:11725   */\n    tag_248:\n        /* \"#utility.yul\":11734:11791   */\n      tag_250\n        /* \"#utility.yul\":11786:11790   */\n      dup2\n        /* \"#utility.yul\":11734:11791   */\n      tag_100\n      jump\t// in\n    tag_250:\n        /* \"#utility.yul\":11593:11797   */\n      pop\n      pop\n      jump\t// out\n        /* \"#utility.yul\":11803:12062   */\n    tag_103:\n        /* \"#utility.yul\":11911:11912   */\n      0x00\n        /* \"#utility.yul\":11896:12056   */\n    tag_252:\n        /* \"#utility.yul\":11921:11930   */\n      dup3\n        /* \"#utility.yul\":11918:11919   */\n      dup2\n        /* \"#utility.yul\":11915:11931   */\n      lt\n        /* \"#utility.yul\":11896:12056   */\n      iszero\n      tag_254\n      jumpi\n        /* \"#utility.yul\":11973:12046   */\n      tag_255\n        /* \"#utility.yul\":12044:12045   */\n      0x00\n        /* \"#utility.yul\":12040:12041   */\n      dup3\n        /* \"#utility.yul\":12029:12038   */\n      dup5\n        /* \"#utility.yul\":12025:12042   */\n      add\n        /* \"#utility.yul\":11973:12046   */\n      tag_102\n      jump\t// in\n    tag_255:\n        /* \"#utility.yul\":11946:11947   */\n      0x01\n        /* \"#utility.yul\":11943:11944   */\n      dup2\n        /* \"#utility.yul\":11939:11948   */\n      add\n        /* \"#utility.yul\":11934:11948   */\n      swap1\n      pop\n        /* \"#utility.yul\":11896:12056   */\n      jump(tag_252)\n    tag_254:\n        /* \"#utility.yul\":11900:11914   */\n      pop\n        /* \"#utility.yul\":11803:12062   */\n      pop\n      pop\n      jump\t// out\n        /* \"#utility.yul\":12068:12818   */\n    tag_104:\n        /* \"#utility.yul\":12210:12213   */\n      dup2\n        /* \"#utility.yul\":12198:12208   */\n      dup4\n        /* \"#utility.yul\":12195:12214   */\n      lt\n        /* \"#utility.yul\":12192:12811   */\n      iszero\n      tag_257\n      jumpi\n        /* \"#utility.yul\":12301:12388   */\n      tag_258\n        /* \"#utility.yul\":12384:12387   */\n      dup3\n        /* \"#utility.yul\":12301:12388   */\n      tag_82\n      jump\t// in\n    tag_258:\n        /* \"#utility.yul\":12421:12515   */\n      tag_259\n        /* \"#utility.yul\":12504:12514   */\n      dup5\n        /* \"#utility.yul\":12421:12515   */\n      tag_82\n      jump\t// in\n    tag_259:\n        /* \"#utility.yul\":12550:12625   */\n      tag_260\n        /* \"#utility.yul\":12619:12624   */\n      dup4\n        /* \"#utility.yul\":12550:12625   */\n      tag_83\n      jump\t// in\n    tag_260:\n        /* \"#utility.yul\":12677:12689   */\n      dup2\n        /* \"#utility.yul\":12661:12675   */\n      dup2\n        /* \"#utility.yul\":12657:12690   */\n      add\n        /* \"#utility.yul\":12704:12801   */\n      tag_261\n        /* \"#utility.yul\":12787:12799   */\n      dup4\n        /* \"#utility.yul\":12773:12785   */\n      dup6\n        /* \"#utility.yul\":12769:12800   */\n      sub\n        /* \"#utility.yul\":12756:12767   */\n      dup3\n        /* \"#utility.yul\":12704:12801   */\n      tag_103\n      jump\t// in\n    tag_261:\n        /* \"#utility.yul\":12215:12811   */\n      pop\n      pop\n      pop\n      pop\n        /* \"#utility.yul\":12192:12811   */\n    tag_257:\n        /* \"#utility.yul\":12068:12818   */\n      pop\n      pop\n      pop\n      jump\t// out\n        /* \"#utility.yul\":12824:13278   */\n    tag_105:\n        /* \"#utility.yul\":12939:12959   */\n      0x010000000000000000\n        /* \"#utility.yul\":12931:12937   */\n      dup3\n        /* \"#utility.yul\":12928:12960   */\n      gt\n        /* \"#utility.yul\":12925:13003   */\n      iszero\n      tag_263\n      jumpi\n        /* \"#utility.yul\":12975:12993   */\n      tag_264\n      tag_64\n      jump\t// in\n    tag_264:\n        /* \"#utility.yul\":12925:13003   */\n    tag_263:\n        /* \"#utility.yul\":13027:13100   */\n      tag_265\n        /* \"#utility.yul\":13094:13099   */\n      dup2\n        /* \"#utility.yul\":13027:13100   */\n      tag_79\n      jump\t// in\n    tag_265:\n        /* \"#utility.yul\":13152:13158   */\n      dup3\n        /* \"#utility.yul\":13145:13150   */\n      dup3\n        /* \"#utility.yul\":13138:13159   */\n      sstore\n        /* \"#utility.yul\":13169:13271   */\n      tag_266\n        /* \"#utility.yul\":13264:13270   */\n      dup4\n        /* \"#utility.yul\":13256:13262   */\n      dup3\n        /* \"#utility.yul\":13249:13254   */\n      dup5\n        /* \"#utility.yul\":13169:13271   */\n      tag_104\n      jump\t// in\n    tag_266:\n        /* \"#utility.yul\":12915:13278   */\n      pop\n        /* \"#utility.yul\":12824:13278   */\n      pop\n      pop\n      jump\t// out\n        /* \"#utility.yul\":13283:13422   */\n    tag_106:\n        /* \"#utility.yul\":13375:13381   */\n      0x00\n        /* \"#utility.yul\":13409:13414   */\n      dup2\n        /* \"#utility.yul\":13403:13415   */\n      mload\n        /* \"#utility.yul\":13393:13415   */\n      swap1\n      pop\n        /* \"#utility.yul\":13283:13422   */\n      swap2\n      swap1\n      pop\n      jump\t// out\n        /* \"#utility.yul\":13428:13543   */\n    tag_107:\n        /* \"#utility.yul\":13499:13504   */\n      0x00\n        /* \"#utility.yul\":13530:13536   */\n      dup2\n        /* \"#utility.yul\":13524:13537   */\n      mload\n        /* \"#utility.yul\":13515:13537   */\n      swap1\n      pop\n        /* \"#utility.yul\":13428:13543   */\n      swap2\n      swap1\n      pop\n      jump\t// out\n        /* \"#utility.yul\":13549:13663   */\n    tag_108:\n        /* \"#utility.yul\":13616:13622   */\n      0x00\n        /* \"#utility.yul\":13650:13655   */\n      dup2\n        /* \"#utility.yul\":13644:13656   */\n      mload\n        /* \"#utility.yul\":13634:13656   */\n      swap1\n      pop\n        /* \"#utility.yul\":13549:13663   */\n      swap2\n      swap1\n      pop\n      jump\t// out\n        /* \"#utility.yul\":13669:13823   */\n    tag_109:\n        /* \"#utility.yul\":13712:13723   */\n      0x00\n        /* \"#utility.yul\":13748:13777   */\n      tag_271\n        /* \"#utility.yul\":13772:13775   */\n      dup3\n        /* \"#utility.yul\":13766:13776   */\n      mload\n        /* \"#utility.yul\":13748:13777   */\n      tag_70\n      jump\t// in\n    tag_271:\n        /* \"#utility.yul\":13811:13816   */\n      dup1\n        /* \"#utility.yul\":13787:13816   */\n      swap2\n      pop\n        /* \"#utility.yul\":13724:13823   */\n      pop\n        /* \"#utility.yul\":13669:13823   */\n      swap2\n      swap1\n      pop\n      jump\t// out\n        /* \"#utility.yul\":13829:13961   */\n    tag_110:\n        /* \"#utility.yul\":13896:13900   */\n      0x00\n        /* \"#utility.yul\":13919:13922   */\n      dup2\n        /* \"#utility.yul\":13911:13922   */\n      swap1\n      pop\n        /* \"#utility.yul\":13949:13953   */\n      0x20\n        /* \"#utility.yul\":13944:13947   */\n      dup3\n        /* \"#utility.yul\":13940:13954   */\n      add\n        /* \"#utility.yul\":13932:13954   */\n      swap1\n      pop\n        /* \"#utility.yul\":13829:13961   */\n      swap2\n      swap1\n      pop\n      jump\t// out\n        /* \"#utility.yul\":14264:15265   */\n    tag_113:\n        /* \"#utility.yul\":14405:14457   */\n      tag_278\n        /* \"#utility.yul\":14453:14456   */\n      dup3\n        /* \"#utility.yul\":14405:14457   */\n      tag_108\n      jump\t// in\n    tag_278:\n        /* \"#utility.yul\":14522:14540   */\n      0xffffffffffffffff\n        /* \"#utility.yul\":14514:14520   */\n      dup2\n        /* \"#utility.yul\":14511:14541   */\n      gt\n        /* \"#utility.yul\":14508:14564   */\n      iszero\n      tag_279\n      jumpi\n        /* \"#utility.yul\":14544:14562   */\n      tag_280\n      tag_64\n      jump\t// in\n    tag_280:\n        /* \"#utility.yul\":14508:14564   */\n    tag_279:\n        /* \"#utility.yul\":14573:14630   */\n      tag_281\n        /* \"#utility.yul\":14623:14629   */\n      dup2\n        /* \"#utility.yul\":14618:14621   */\n      dup4\n        /* \"#utility.yul\":14573:14630   */\n      tag_99\n      jump\t// in\n    tag_281:\n        /* \"#utility.yul\":14654:14708   */\n      tag_282\n        /* \"#utility.yul\":14704:14707   */\n      dup4\n        /* \"#utility.yul\":14654:14708   */\n      tag_110\n      jump\t// in\n    tag_282:\n        /* \"#utility.yul\":14732:14783   */\n      tag_283\n        /* \"#utility.yul\":14779:14782   */\n      dup4\n        /* \"#utility.yul\":14732:14783   */\n      tag_86\n      jump\t// in\n    tag_283:\n        /* \"#utility.yul\":14822:14823   */\n      0x01\n        /* \"#utility.yul\":14814:14820   */\n      dup4\n        /* \"#utility.yul\":14810:14824   */\n      div\n        /* \"#utility.yul\":14849:14850   */\n      0x00\n        /* \"#utility.yul\":14834:15258   */\n    tag_284:\n        /* \"#utility.yul\":14859:14868   */\n      dup2\n        /* \"#utility.yul\":14856:14857   */\n      dup2\n        /* \"#utility.yul\":14853:14869   */\n      lt\n        /* \"#utility.yul\":14834:15258   */\n      iszero\n      tag_286\n      jumpi\n        /* \"#utility.yul\":14923:14924   */\n      0x00\n        /* \"#utility.yul\":14976:15009   */\n      tag_287\n        /* \"#utility.yul\":15002:15008   */\n      dup6\n        /* \"#utility.yul\":14976:15009   */\n      tag_109\n      jump\t// in\n    tag_287:\n        /* \"#utility.yul\":15044:15080   */\n      tag_288\n        /* \"#utility.yul\":15068:15079   */\n      dup2\n        /* \"#utility.yul\":15044:15080   */\n      tag_91\n      jump\t// in\n    tag_288:\n        /* \"#utility.yul\":15130:15139   */\n      dup1\n        /* \"#utility.yul\":15097:15139   */\n      swap3\n      pop\n        /* \"#utility.yul\":15179:15181   */\n      0x20\n        /* \"#utility.yul\":15171:15177   */\n      dup8\n        /* \"#utility.yul\":15167:15182   */\n      add\n        /* \"#utility.yul\":15157:15182   */\n      swap7\n      pop\n        /* \"#utility.yul\":14938:15197   */\n      pop\n      pop\n        /* \"#utility.yul\":15235:15247   */\n      dup1\n        /* \"#utility.yul\":15231:15232   */\n      dup3\n        /* \"#utility.yul\":15222:15229   */\n      dup6\n        /* \"#utility.yul\":15218:15233   */\n      add\n        /* \"#utility.yul\":15211:15248   */\n      sstore\n        /* \"#utility.yul\":14889:15258   */\n      pop\n        /* \"#utility.yul\":14884:14885   */\n      0x01\n        /* \"#utility.yul\":14881:14882   */\n      dup2\n        /* \"#utility.yul\":14877:14886   */\n      add\n        /* \"#utility.yul\":14872:14886   */\n      swap1\n      pop\n        /* \"#utility.yul\":14834:15258   */\n      jump(tag_284)\n    tag_286:\n        /* \"#utility.yul\":14838:14852   */\n      pop\n        /* \"#utility.yul\":14380:15265   */\n      pop\n      pop\n      pop\n      pop\n        /* \"#utility.yul\":14264:15265   */\n      pop\n      pop\n      jump\t// out\n        /* \"#utility.yul\":15271:15523   */\n    tag_114:\n        /* \"#utility.yul\":15406:15517   */\n      tag_290\n        /* \"#utility.yul\":15509:15516   */\n      dup3\n        /* \"#utility.yul\":15503:15507   */\n      dup3\n        /* \"#utility.yul\":15406:15517   */\n      tag_113\n      jump\t// in\n    tag_290:\n        /* \"#utility.yul\":15271:15523   */\n      pop\n      pop\n      jump\t// out\n        /* \"#utility.yul\":15529:16491   */\n    tag_23:\n        /* \"#utility.yul\":15720:15799   */\n      tag_292\n        /* \"#utility.yul\":15793:15798   */\n      dup3\n        /* \"#utility.yul\":15720:15799   */\n      tag_106\n      jump\t// in\n    tag_292:\n        /* \"#utility.yul\":15809:15889   */\n      tag_293\n        /* \"#utility.yul\":15882:15888   */\n      dup2\n        /* \"#utility.yul\":15876:15880   */\n      dup4\n        /* \"#utility.yul\":15809:15889   */\n      tag_105\n      jump\t// in\n    tag_293:\n        /* \"#utility.yul\":15913:15994   */\n      tag_294\n        /* \"#utility.yul\":15988:15993   */\n      dup4\n        /* \"#utility.yul\":15913:15994   */\n      tag_78\n      jump\t// in\n    tag_294:\n        /* \"#utility.yul\":16023:16097   */\n      tag_295\n        /* \"#utility.yul\":16092:16096   */\n      dup4\n        /* \"#utility.yul\":16023:16097   */\n      tag_83\n      jump\t// in\n    tag_295:\n        /* \"#utility.yul\":16122:16123   */\n      0x00\n        /* \"#utility.yul\":16107:16485   */\n    tag_296:\n        /* \"#utility.yul\":16132:16138   */\n      dup4\n        /* \"#utility.yul\":16129:16130   */\n      dup2\n        /* \"#utility.yul\":16126:16139   */\n      lt\n        /* \"#utility.yul\":16107:16485   */\n      iszero\n      tag_298\n      jumpi\n        /* \"#utility.yul\":16191:16249   */\n      tag_299\n        /* \"#utility.yul\":16242:16248   */\n      dup4\n        /* \"#utility.yul\":16191:16249   */\n      tag_107\n      jump\t// in\n    tag_299:\n        /* \"#utility.yul\":16263:16388   */\n      tag_300\n        /* \"#utility.yul\":16376:16387   */\n      dup2\n        /* \"#utility.yul\":16363:16374   */\n      dup5\n        /* \"#utility.yul\":16263:16388   */\n      tag_114\n      jump\t// in\n    tag_300:\n        /* \"#utility.yul\":16424:16426   */\n      0x20\n        /* \"#utility.yul\":16416:16422   */\n      dup5\n        /* \"#utility.yul\":16412:16427   */\n      add\n        /* \"#utility.yul\":16402:16427   */\n      swap4\n      pop\n        /* \"#utility.yul\":16473:16474   */\n      0x01\n        /* \"#utility.yul\":16460:16471   */\n      dup4\n        /* \"#utility.yul\":16456:16475   */\n      add\n        /* \"#utility.yul\":16441:16475   */\n      swap3\n      pop\n        /* \"#utility.yul\":16157:16485   */\n      pop\n        /* \"#utility.yul\":16153:16154   */\n      0x01\n        /* \"#utility.yul\":16150:16151   */\n      dup2\n        /* \"#utility.yul\":16146:16155   */\n      add\n        /* \"#utility.yul\":16141:16155   */\n      swap1\n      pop\n        /* \"#utility.yul\":16107:16485   */\n      jump(tag_296)\n    tag_298:\n        /* \"#utility.yul\":16111:16125   */\n      pop\n        /* \"#utility.yul\":15695:16491   */\n      pop\n      pop\n      pop\n        /* \"#utility.yul\":15529:16491   */\n      pop\n      pop\n      jump\t// out\n        /* \"#utility.yul\":16497:16666   */\n    tag_115:\n        /* \"#utility.yul\":16581:16592   */\n      0x00\n        /* \"#utility.yul\":16615:16621   */\n      dup3\n        /* \"#utility.yul\":16610:16613   */\n      dup3\n        /* \"#utility.yul\":16603:16622   */\n      mstore\n        /* \"#utility.yul\":16655:16659   */\n      0x20\n        /* \"#utility.yul\":16650:16653   */\n      dup3\n        /* \"#utility.yul\":16646:16660   */\n      add\n        /* \"#utility.yul\":16631:16660   */\n      swap1\n      pop\n        /* \"#utility.yul\":16497:16666   */\n      swap3\n      swap2\n      pop\n      pop\n      jump\t// out\n        /* \"#utility.yul\":16672:16886   */\n    tag_116:\n        /* \"#utility.yul\":16812:16878   */\n      0xe8b685e8bf8778e69c80e5a4a7e88c83e59bb400000000000000000000000000\n        /* \"#utility.yul\":16808:16809   */\n      0x00\n        /* \"#utility.yul\":16800:16806   */\n      dup3\n        /* \"#utility.yul\":16796:16810   */\n      add\n        /* \"#utility.yul\":16789:16879   */\n      mstore\n        /* \"#utility.yul\":16672:16886   */\n      pop\n      jump\t// out\n        /* \"#utility.yul\":16892:17258   */\n    tag_117:\n        /* \"#utility.yul\":17034:17037   */\n      0x00\n        /* \"#utility.yul\":17055:17122   */\n      tag_304\n        /* \"#utility.yul\":17119:17121   */\n      0x13\n        /* \"#utility.yul\":17114:17117   */\n      dup4\n        /* \"#utility.yul\":17055:17122   */\n      tag_115\n      jump\t// in\n    tag_304:\n        /* \"#utility.yul\":17048:17122   */\n      swap2\n      pop\n        /* \"#utility.yul\":17131:17224   */\n      tag_305\n        /* \"#utility.yul\":17220:17223   */\n      dup3\n        /* \"#utility.yul\":17131:17224   */\n      tag_116\n      jump\t// in\n    tag_305:\n        /* \"#utility.yul\":17249:17251   */\n      0x20\n        /* \"#utility.yul\":17244:17247   */\n      dup3\n        /* \"#utility.yul\":17240:17252   */\n      add\n        /* \"#utility.yul\":17233:17252   */\n      swap1\n      pop\n        /* \"#utility.yul\":16892:17258   */\n      swap2\n      swap1\n      pop\n      jump\t// out\n        /* \"#utility.yul\":17264:17683   */\n    tag_27:\n        /* \"#utility.yul\":17430:17434   */\n      0x00\n        /* \"#utility.yul\":17468:17470   */\n      0x20\n        /* \"#utility.yul\":17457:17466   */\n      dup3\n        /* \"#utility.yul\":17453:17471   */\n      add\n        /* \"#utility.yul\":17445:17471   */\n      swap1\n      pop\n        /* \"#utility.yul\":17517:17526   */\n      dup2\n        /* \"#utility.yul\":17511:17515   */\n      dup2\n        /* \"#utility.yul\":17507:17527   */\n      sub\n        /* \"#utility.yul\":17503:17504   */\n      0x00\n        /* \"#utility.yul\":17492:17501   */\n      dup4\n        /* \"#utility.yul\":17488:17505   */\n      add\n        /* \"#utility.yul\":17481:17528   */\n      mstore\n        /* \"#utility.yul\":17545:17676   */\n      tag_307\n        /* \"#utility.yul\":17671:17675   */\n      dup2\n        /* \"#utility.yul\":17545:17676   */\n      tag_117\n      jump\t// in\n    tag_307:\n        /* \"#utility.yul\":17537:17676   */\n      swap1\n      pop\n        /* \"#utility.yul\":17264:17683   */\n      swap2\n      swap1\n      pop\n      jump\t// out\n        /* \"#utility.yul\":17689:17869   */\n    tag_30:\n        /* \"#utility.yul\":17737:17814   */\n      0x4e487b7100000000000000000000000000000000000000000000000000000000\n        /* \"#utility.yul\":17734:17735   */\n      0x00\n        /* \"#utility.yul\":17727:17815   */\n      mstore\n        /* \"#utility.yul\":17834:17838   */\n      0x32\n        /* \"#utility.yul\":17831:17832   */\n      0x04\n        /* \"#utility.yul\":17824:17839   */\n      mstore\n        /* \"#utility.yul\":17858:17862   */\n      0x24\n        /* \"#utility.yul\":17855:17856   */\n      0x00\n        /* \"#utility.yul\":17848:17863   */\n      revert\n        /* \"#utility.yul\":17875:18089   */\n    tag_118:\n        /* \"#utility.yul\":18015:18081   */\n      0xe8b685e8bf8779e69c80e5a4a7e88c83e59bb400000000000000000000000000\n        /* \"#utility.yul\":18011:18012   */\n      0x00\n        /* \"#utility.yul\":18003:18009   */\n      dup3\n        /* \"#utility.yul\":17999:18013   */\n      add\n        /* \"#utility.yul\":17992:18082   */\n      mstore\n        /* \"#utility.yul\":17875:18089   */\n      pop\n      jump\t// out\n        /* \"#utility.yul\":18095:18461   */\n    tag_119:\n        /* \"#utility.yul\":18237:18240   */\n      0x00\n        /* \"#utility.yul\":18258:18325   */\n      tag_311\n        /* \"#utility.yul\":18322:18324   */\n      0x13\n        /* \"#utility.yul\":18317:18320   */\n      dup4\n        /* \"#utility.yul\":18258:18325   */\n      tag_115\n      jump\t// in\n    tag_311:\n        /* \"#utility.yul\":18251:18325   */\n      swap2\n      pop\n        /* \"#utility.yul\":18334:18427   */\n      tag_312\n        /* \"#utility.yul\":18423:18426   */\n      dup3\n        /* \"#utility.yul\":18334:18427   */\n      tag_118\n      jump\t// in\n    tag_312:\n        /* \"#utility.yul\":18452:18454   */\n      0x20\n        /* \"#utility.yul\":18447:18450   */\n      dup3\n        /* \"#utility.yul\":18443:18455   */\n      add\n        /* \"#utility.yul\":18436:18455   */\n      swap1\n      pop\n        /* \"#utility.yul\":18095:18461   */\n      swap2\n      swap1\n      pop\n      jump\t// out\n        /* \"#utility.yul\":18467:18886   */\n    tag_34:\n        /* \"#utility.yul\":18633:18637   */\n      0x00\n        /* \"#utility.yul\":18671:18673   */\n      0x20\n        /* \"#utility.yul\":18660:18669   */\n      dup3\n        /* \"#utility.yul\":18656:18674   */\n      add\n        /* \"#utility.yul\":18648:18674   */\n      swap1\n      pop\n        /* \"#utility.yul\":18720:18729   */\n      dup2\n        /* \"#utility.yul\":18714:18718   */\n      dup2\n        /* \"#utility.yul\":18710:18730   */\n      sub\n        /* \"#utility.yul\":18706:18707   */\n      0x00\n        /* \"#utility.yul\":18695:18704   */\n      dup4\n        /* \"#utility.yul\":18691:18708   */\n      add\n        /* \"#utility.yul\":18684:18731   */\n      mstore\n        /* \"#utility.yul\":18748:18879   */\n      tag_314\n        /* \"#utility.yul\":18874:18878   */\n      dup2\n        /* \"#utility.yul\":18748:18879   */\n      tag_119\n      jump\t// in\n    tag_314:\n        /* \"#utility.yul\":18740:18879   */\n      swap1\n      pop\n        /* \"#utility.yul\":18467:18886   */\n      swap2\n      swap1\n      pop\n      jump\t// out\n        /* \"#utility.yul\":18892:19106   */\n    tag_120:\n        /* \"#utility.yul\":19032:19098   */\n      0xe8b685e8bf877ae69c80e5a4a7e88c83e59bb400000000000000000000000000\n        /* \"#utility.yul\":19028:19029   */\n      0x00\n        /* \"#utility.yul\":19020:19026   */\n      dup3\n        /* \"#utility.yul\":19016:19030   */\n      add\n        /* \"#utility.yul\":19009:19099   */\n      mstore\n        /* \"#utility.yul\":18892:19106   */\n      pop\n      jump\t// out\n        /* \"#utility.yul\":19112:19478   */\n    tag_121:\n        /* \"#utility.yul\":19254:19257   */\n      0x00\n        /* \"#utility.yul\":19275:19342   */\n      tag_317\n        /* \"#utility.yul\":19339:19341   */\n      0x13\n        /* \"#utility.yul\":19334:19337   */\n      dup4\n        /* \"#utility.yul\":19275:19342   */\n      tag_115\n      jump\t// in\n    tag_317:\n        /* \"#utility.yul\":19268:19342   */\n      swap2\n      pop\n        /* \"#utility.yul\":19351:19444   */\n      tag_318\n        /* \"#utility.yul\":19440:19443   */\n      dup3\n        /* \"#utility.yul\":19351:19444   */\n      tag_120\n      jump\t// in\n    tag_318:\n        /* \"#utility.yul\":19469:19471   */\n      0x20\n        /* \"#utility.yul\":19464:19467   */\n      dup3\n        /* \"#utility.yul\":19460:19472   */\n      add\n        /* \"#utility.yul\":19453:19472   */\n      swap1\n      pop\n        /* \"#utility.yul\":19112:19478   */\n      swap2\n      swap1\n      pop\n      jump\t// out\n        /* \"#utility.yul\":19484:19903   */\n    tag_43:\n        /* \"#utility.yul\":19650:19654   */\n      0x00\n        /* \"#utility.yul\":19688:19690   */\n      0x20\n        /* \"#utility.yul\":19677:19686   */\n      dup3\n        /* \"#utility.yul\":19673:19691   */\n      add\n        /* \"#utility.yul\":19665:19691   */\n      swap1\n      pop\n        /* \"#utility.yul\":19737:19746   */\n      dup2\n        /* \"#utility.yul\":19731:19735   */\n      dup2\n        /* \"#utility.yul\":19727:19747   */\n      sub\n        /* \"#utility.yul\":19723:19724   */\n      0x00\n        /* \"#utility.yul\":19712:19721   */\n      dup4\n        /* \"#utility.yul\":19708:19725   */\n      add\n        /* \"#utility.yul\":19701:19748   */\n      mstore\n        /* \"#utility.yul\":19765:19896   */\n      tag_320\n        /* \"#utility.yul\":19891:19895   */\n      dup2\n        /* \"#utility.yul\":19765:19896   */\n      tag_121\n      jump\t// in\n    tag_320:\n        /* \"#utility.yul\":19757:19896   */\n      swap1\n      pop\n        /* \"#utility.yul\":19484:19903   */\n      swap2\n      swap1\n      pop\n      jump\t// out\n\n    auxdata: 0xa26469706673582212207a2bcb3086a7ff0c926644bfa30c3cbe9842812364bc0b55ce1f7454a12c398064736f6c63430008220033\n}\n",
				"bytecode": {
					"linkReferences": {},
					"object": "6080604052348015600e575f5ffd5b50610b928061001c5f395ff3fe608060405234801561000f575f5ffd5b506004361061003f575f3560e01c8063940fecc314610043578063c48eb68c1461005f578063d8bc416e1461008f575b5f5ffd5b61005d6004803603810190610058919061052a565b6100bf565b005b61007960048036038101906100749190610571565b6100f3565b60405161008691906105d0565b60405180910390f35b6100a960048036038101906100a49190610571565b61026d565b6040516100b691906105d0565b60405180910390f35b5f81908060018154018082558091505060019003905f5260205f20015f9091909190915090816100ef9190610985565b5050565b5f5f80549050841061013a576040517f08c379a000000000000000000000000000000000000000000000000000000000815260040161013190610a41565b60405180910390fd5b5f848154811061014d5761014c610a5f565b5b905f5260205f200180549050831061019a576040517f08c379a000000000000000000000000000000000000000000000000000000000815260040161019190610ad6565b60405180910390fd5b5f84815481106101ad576101ac610a5f565b5b905f5260205f200183815481106101c7576101c6610a5f565b5b905f5260205f2001805490508210610214576040517f08c379a000000000000000000000000000000000000000000000000000000000815260040161020b90610b3e565b60405180910390fd5b5f848154811061022757610226610a5f565b5b905f5260205f2001838154811061024157610240610a5f565b5b905f5260205f2001828154811061025b5761025a610a5f565b5b905f5260205f20015490509392505050565b5f838154811061027b575f80fd5b905f5260205f20018281548110610290575f80fd5b905f5260205f200181815481106102a5575f80fd5b905f5260205f20015f9250925050505481565b5f604051905090565b5f5ffd5b5f5ffd5b5f5ffd5b5f601f19601f8301169050919050565b7f4e487b71000000000000000000000000000000000000000000000000000000005f52604160045260245ffd5b610313826102cd565b810181811067ffffffffffffffff82111715610332576103316102dd565b5b80604052505050565b5f6103446102b8565b9050610350828261030a565b919050565b5f67ffffffffffffffff82111561036f5761036e6102dd565b5b602082029050602081019050919050565b5f5ffd5b5f67ffffffffffffffff82111561039e5761039d6102dd565b5b602082029050602081019050919050565b5f819050919050565b6103c1816103af565b81146103cb575f5ffd5b50565b5f813590506103dc816103b8565b92915050565b5f6103f46103ef84610384565b61033b565b9050808382526020820190506020840283018581111561041757610416610380565b5b835b81811015610440578061042c88826103ce565b845260208401935050602081019050610419565b5050509392505050565b5f82601f83011261045e5761045d6102c9565b5b813561046e8482602086016103e2565b91505092915050565b5f61048961048484610355565b61033b565b905080838252602082019050602084028301858111156104ac576104ab610380565b5b835b818110156104f357803567ffffffffffffffff8111156104d1576104d06102c9565b5b8086016104de898261044a565b855260208501945050506020810190506104ae565b5050509392505050565b5f82601f830112610511576105106102c9565b5b8135610521848260208601610477565b91505092915050565b5f6020828403121561053f5761053e6102c1565b5b5f82013567ffffffffffffffff81111561055c5761055b6102c5565b5b610568848285016104fd565b91505092915050565b5f5f5f60608486031215610588576105876102c1565b5b5f610595868287016103ce565b93505060206105a6868287016103ce565b92505060406105b7868287016103ce565b9150509250925092565b6105ca816103af565b82525050565b5f6020820190506105e35f8301846105c1565b92915050565b5f819050602082019050919050565b5f81549050919050565b5f8190506001806001038301049050919050565b5f819050815f5260205f209050919050565b5f81549050919050565b5f8190506001806001038301049050919050565b5f819050815f5260205f209050919050565b5f82821b905092915050565b5f600883026106937fffffffffffffffffffffffffffffffffffffffffffffffffffffffffffffffff82610658565b61069d8683610658565b95508019841693508086168417925050509392505050565b5f819050919050565b5f6106d86106d36106ce846103af565b6106b5565b6103af565b9050919050565b5f819050919050565b6106f1836106be565b6107056106fd826106df565b848454610664565b825550505050565b5f5f905090565b61071c61070d565b6107278184846106e8565b505050565b5f5b8281101561074d576107425f828401610714565b60018101905061072e565b505050565b818310156107895761076382610632565b61076c84610632565b61077583610646565b8181016107848385038261072c565b505050505b505050565b680100000000000000008211156107a8576107a76102dd565b5b6107b181610628565b8282556107bf838284610752565b505050565b6107ce5f8261078e565b50565b7f4e487b71000000000000000000000000000000000000000000000000000000005f525f60045260245ffd5b5f821461080d5761080c6107d1565b5b610816816107c4565b5050565b5f5b8281101561083b576108305f8284016107fd565b60018101905061081c565b505050565b818310156108775761085182610602565b61085a84610602565b61086383610616565b8181016108728385038261081a565b505050505b505050565b68010000000000000000821115610896576108956102dd565b5b61089f816105f8565b8282556108ad838284610840565b505050565b5f81519050919050565b5f81519050919050565b5f81519050919050565b5f6108db82516103af565b80915050919050565b5f819050602082019050919050565b6108fc826108c6565b67ffffffffffffffff811115610915576109146102dd565b5b61091f818361078e565b610928836108e4565b61093183610646565b600183045f5b8181101561096e575f610949856108d0565b610952816106df565b8092506020870196505050808285015550600181019050610937565b50505050505050565b61098182826108f3565b5050565b61098e826108b2565b610998818361087c565b6109a1836105e9565b6109aa83610616565b5f5b838110156109df576109bd836108bc565b6109c78184610977565b602084019350600183019250506001810190506109ac565b505050505050565b5f82825260208201905092915050565b7fe8b685e8bf8778e69c80e5a4a7e88c83e59bb4000000000000000000000000005f82015250565b5f610a2b6013836109e7565b9150610a36826109f7565b602082019050919050565b5f6020820190508181035f830152610a5881610a1f565b9050919050565b7f4e487b71000000000000000000000000000000000000000000000000000000005f52603260045260245ffd5b7fe8b685e8bf8779e69c80e5a4a7e88c83e59bb4000000000000000000000000005f82015250565b5f610ac06013836109e7565b9150610acb82610a8c565b602082019050919050565b5f6020820190508181035f830152610aed81610ab4565b9050919050565b7fe8b685e8bf877ae69c80e5a4a7e88c83e59bb4000000000000000000000000005f82015250565b5f610b286013836109e7565b9150610b3382610af4565b602082019050919050565b5f6020820190508181035f830152610b5581610b1c565b905091905056fea26469706673582212207a2bcb3086a7ff0c926644bfa30c3cbe9842812364bc0b55ce1f7454a12c398064736f6c63430008220033",
					"opcodes": "PUSH1 0x80 PUSH1 0x40 MSTORE CALLVALUE DUP1 ISZERO PUSH1 0xE JUMPI PUSH0 PUSH0 REVERT JUMPDEST POP PUSH2 0xB92 DUP1 PUSH2 0x1C PUSH0 CODECOPY PUSH0 RETURN INVALID PUSH1 0x80 PUSH1 0x40 MSTORE CALLVALUE DUP1 ISZERO PUSH2 0xF JUMPI PUSH0 PUSH0 REVERT JUMPDEST POP PUSH1 0x4 CALLDATASIZE LT PUSH2 0x3F JUMPI PUSH0 CALLDATALOAD PUSH1 0xE0 SHR DUP1 PUSH4 0x940FECC3 EQ PUSH2 0x43 JUMPI DUP1 PUSH4 0xC48EB68C EQ PUSH2 0x5F JUMPI DUP1 PUSH4 0xD8BC416E EQ PUSH2 0x8F JUMPI JUMPDEST PUSH0 PUSH0 REVERT JUMPDEST PUSH2 0x5D PUSH1 0x4 DUP1 CALLDATASIZE SUB DUP2 ADD SWAP1 PUSH2 0x58 SWAP2 SWAP1 PUSH2 0x52A JUMP JUMPDEST PUSH2 0xBF JUMP JUMPDEST STOP JUMPDEST PUSH2 0x79 PUSH1 0x4 DUP1 CALLDATASIZE SUB DUP2 ADD SWAP1 PUSH2 0x74 SWAP2 SWAP1 PUSH2 0x571 JUMP JUMPDEST PUSH2 0xF3 JUMP JUMPDEST PUSH1 0x40 MLOAD PUSH2 0x86 SWAP2 SWAP1 PUSH2 0x5D0 JUMP JUMPDEST PUSH1 0x40 MLOAD DUP1 SWAP2 SUB SWAP1 RETURN JUMPDEST PUSH2 0xA9 PUSH1 0x4 DUP1 CALLDATASIZE SUB DUP2 ADD SWAP1 PUSH2 0xA4 SWAP2 SWAP1 PUSH2 0x571 JUMP JUMPDEST PUSH2 0x26D JUMP JUMPDEST PUSH1 0x40 MLOAD PUSH2 0xB6 SWAP2 SWAP1 PUSH2 0x5D0 JUMP JUMPDEST PUSH1 0x40 MLOAD DUP1 SWAP2 SUB SWAP1 RETURN JUMPDEST PUSH0 DUP2 SWAP1 DUP1 PUSH1 0x1 DUP2 SLOAD ADD DUP1 DUP3 SSTORE DUP1 SWAP2 POP POP PUSH1 0x1 SWAP1 SUB SWAP1 PUSH0 MSTORE PUSH1 0x20 PUSH0 KECCAK256 ADD PUSH0 SWAP1 SWAP2 SWAP1 SWAP2 SWAP1 SWAP2 POP SWAP1 DUP2 PUSH2 0xEF SWAP2 SWAP1 PUSH2 0x985 JUMP JUMPDEST POP POP JUMP JUMPDEST PUSH0 PUSH0 DUP1 SLOAD SWAP1 POP DUP5 LT PUSH2 0x13A JUMPI PUSH1 0x40 MLOAD PUSH32 0x8C379A000000000000000000000000000000000000000000000000000000000 DUP2 MSTORE PUSH1 0x4 ADD PUSH2 0x131 SWAP1 PUSH2 0xA41 JUMP JUMPDEST PUSH1 0x40 MLOAD DUP1 SWAP2 SUB SWAP1 REVERT JUMPDEST PUSH0 DUP5 DUP2 SLOAD DUP2 LT PUSH2 0x14D JUMPI PUSH2 0x14C PUSH2 0xA5F JUMP JUMPDEST JUMPDEST SWAP1 PUSH0 MSTORE PUSH1 0x20 PUSH0 KECCAK256 ADD DUP1 SLOAD SWAP1 POP DUP4 LT PUSH2 0x19A JUMPI PUSH1 0x40 MLOAD PUSH32 0x8C379A000000000000000000000000000000000000000000000000000000000 DUP2 MSTORE PUSH1 0x4 ADD PUSH2 0x191 SWAP1 PUSH2 0xAD6 JUMP JUMPDEST PUSH1 0x40 MLOAD DUP1 SWAP2 SUB SWAP1 REVERT JUMPDEST PUSH0 DUP5 DUP2 SLOAD DUP2 LT PUSH2 0x1AD JUMPI PUSH2 0x1AC PUSH2 0xA5F JUMP JUMPDEST JUMPDEST SWAP1 PUSH0 MSTORE PUSH1 0x20 PUSH0 KECCAK256 ADD DUP4 DUP2 SLOAD DUP2 LT PUSH2 0x1C7 JUMPI PUSH2 0x1C6 PUSH2 0xA5F JUMP JUMPDEST JUMPDEST SWAP1 PUSH0 MSTORE PUSH1 0x20 PUSH0 KECCAK256 ADD DUP1 SLOAD SWAP1 POP DUP3 LT PUSH2 0x214 JUMPI PUSH1 0x40 MLOAD PUSH32 0x8C379A000000000000000000000000000000000000000000000000000000000 DUP2 MSTORE PUSH1 0x4 ADD PUSH2 0x20B SWAP1 PUSH2 0xB3E JUMP JUMPDEST PUSH1 0x40 MLOAD DUP1 SWAP2 SUB SWAP1 REVERT JUMPDEST PUSH0 DUP5 DUP2 SLOAD DUP2 LT PUSH2 0x227 JUMPI PUSH2 0x226 PUSH2 0xA5F JUMP JUMPDEST JUMPDEST SWAP1 PUSH0 MSTORE PUSH1 0x20 PUSH0 KECCAK256 ADD DUP4 DUP2 SLOAD DUP2 LT PUSH2 0x241 JUMPI PUSH2 0x240 PUSH2 0xA5F JUMP JUMPDEST JUMPDEST SWAP1 PUSH0 MSTORE PUSH1 0x20 PUSH0 KECCAK256 ADD DUP3 DUP2 SLOAD DUP2 LT PUSH2 0x25B JUMPI PUSH2 0x25A PUSH2 0xA5F JUMP JUMPDEST JUMPDEST SWAP1 PUSH0 MSTORE PUSH1 0x20 PUSH0 KECCAK256 ADD SLOAD SWAP1 POP SWAP4 SWAP3 POP POP POP JUMP JUMPDEST PUSH0 DUP4 DUP2 SLOAD DUP2 LT PUSH2 0x27B JUMPI PUSH0 DUP1 REVERT JUMPDEST SWAP1 PUSH0 MSTORE PUSH1 0x20 PUSH0 KECCAK256 ADD DUP3 DUP2 SLOAD DUP2 LT PUSH2 0x290 JUMPI PUSH0 DUP1 REVERT JUMPDEST SWAP1 PUSH0 MSTORE PUSH1 0x20 PUSH0 KECCAK256 ADD DUP2 DUP2 SLOAD DUP2 LT PUSH2 0x2A5 JUMPI PUSH0 DUP1 REVERT JUMPDEST SWAP1 PUSH0 MSTORE PUSH1 0x20 PUSH0 KECCAK256 ADD PUSH0 SWAP3 POP SWAP3 POP POP POP SLOAD DUP2 JUMP JUMPDEST PUSH0 PUSH1 0x40 MLOAD SWAP1 POP SWAP1 JUMP JUMPDEST PUSH0 PUSH0 REVERT JUMPDEST PUSH0 PUSH0 REVERT JUMPDEST PUSH0 PUSH0 REVERT JUMPDEST PUSH0 PUSH1 0x1F NOT PUSH1 0x1F DUP4 ADD AND SWAP1 POP SWAP2 SWAP1 POP JUMP JUMPDEST PUSH32 0x4E487B7100000000000000000000000000000000000000000000000000000000 PUSH0 MSTORE PUSH1 0x41 PUSH1 0x4 MSTORE PUSH1 0x24 PUSH0 REVERT JUMPDEST PUSH2 0x313 DUP3 PUSH2 0x2CD JUMP JUMPDEST DUP2 ADD DUP2 DUP2 LT PUSH8 0xFFFFFFFFFFFFFFFF DUP3 GT OR ISZERO PUSH2 0x332 JUMPI PUSH2 0x331 PUSH2 0x2DD JUMP JUMPDEST JUMPDEST DUP1 PUSH1 0x40 MSTORE POP POP POP JUMP JUMPDEST PUSH0 PUSH2 0x344 PUSH2 0x2B8 JUMP JUMPDEST SWAP1 POP PUSH2 0x350 DUP3 DUP3 PUSH2 0x30A JUMP JUMPDEST SWAP2 SWAP1 POP JUMP JUMPDEST PUSH0 PUSH8 0xFFFFFFFFFFFFFFFF DUP3 GT ISZERO PUSH2 0x36F JUMPI PUSH2 0x36E PUSH2 0x2DD JUMP JUMPDEST JUMPDEST PUSH1 0x20 DUP3 MUL SWAP1 POP PUSH1 0x20 DUP2 ADD SWAP1 POP SWAP2 SWAP1 POP JUMP JUMPDEST PUSH0 PUSH0 REVERT JUMPDEST PUSH0 PUSH8 0xFFFFFFFFFFFFFFFF DUP3 GT ISZERO PUSH2 0x39E JUMPI PUSH2 0x39D PUSH2 0x2DD JUMP JUMPDEST JUMPDEST PUSH1 0x20 DUP3 MUL SWAP1 POP PUSH1 0x20 DUP2 ADD SWAP1 POP SWAP2 SWAP1 POP JUMP JUMPDEST PUSH0 DUP2 SWAP1 POP SWAP2 SWAP1 POP JUMP JUMPDEST PUSH2 0x3C1 DUP2 PUSH2 0x3AF JUMP JUMPDEST DUP2 EQ PUSH2 0x3CB JUMPI PUSH0 PUSH0 REVERT JUMPDEST POP JUMP JUMPDEST PUSH0 DUP2 CALLDATALOAD SWAP1 POP PUSH2 0x3DC DUP2 PUSH2 0x3B8 JUMP JUMPDEST SWAP3 SWAP2 POP POP JUMP JUMPDEST PUSH0 PUSH2 0x3F4 PUSH2 0x3EF DUP5 PUSH2 0x384 JUMP JUMPDEST PUSH2 0x33B JUMP JUMPDEST SWAP1 POP DUP1 DUP4 DUP3 MSTORE PUSH1 0x20 DUP3 ADD SWAP1 POP PUSH1 0x20 DUP5 MUL DUP4 ADD DUP6 DUP2 GT ISZERO PUSH2 0x417 JUMPI PUSH2 0x416 PUSH2 0x380 JUMP JUMPDEST JUMPDEST DUP4 JUMPDEST DUP2 DUP2 LT ISZERO PUSH2 0x440 JUMPI DUP1 PUSH2 0x42C DUP9 DUP3 PUSH2 0x3CE JUMP JUMPDEST DUP5 MSTORE PUSH1 0x20 DUP5 ADD SWAP4 POP POP PUSH1 0x20 DUP2 ADD SWAP1 POP PUSH2 0x419 JUMP JUMPDEST POP POP POP SWAP4 SWAP3 POP POP POP JUMP JUMPDEST PUSH0 DUP3 PUSH1 0x1F DUP4 ADD SLT PUSH2 0x45E JUMPI PUSH2 0x45D PUSH2 0x2C9 JUMP JUMPDEST JUMPDEST DUP2 CALLDATALOAD PUSH2 0x46E DUP5 DUP3 PUSH1 0x20 DUP7 ADD PUSH2 0x3E2 JUMP JUMPDEST SWAP2 POP POP SWAP3 SWAP2 POP POP JUMP JUMPDEST PUSH0 PUSH2 0x489 PUSH2 0x484 DUP5 PUSH2 0x355 JUMP JUMPDEST PUSH2 0x33B JUMP JUMPDEST SWAP1 POP DUP1 DUP4 DUP3 MSTORE PUSH1 0x20 DUP3 ADD SWAP1 POP PUSH1 0x20 DUP5 MUL DUP4 ADD DUP6 DUP2 GT ISZERO PUSH2 0x4AC JUMPI PUSH2 0x4AB PUSH2 0x380 JUMP JUMPDEST JUMPDEST DUP4 JUMPDEST DUP2 DUP2 LT ISZERO PUSH2 0x4F3 JUMPI DUP1 CALLDATALOAD PUSH8 0xFFFFFFFFFFFFFFFF DUP2 GT ISZERO PUSH2 0x4D1 JUMPI PUSH2 0x4D0 PUSH2 0x2C9 JUMP JUMPDEST JUMPDEST DUP1 DUP7 ADD PUSH2 0x4DE DUP10 DUP3 PUSH2 0x44A JUMP JUMPDEST DUP6 MSTORE PUSH1 0x20 DUP6 ADD SWAP5 POP POP POP PUSH1 0x20 DUP2 ADD SWAP1 POP PUSH2 0x4AE JUMP JUMPDEST POP POP POP SWAP4 SWAP3 POP POP POP JUMP JUMPDEST PUSH0 DUP3 PUSH1 0x1F DUP4 ADD SLT PUSH2 0x511 JUMPI PUSH2 0x510 PUSH2 0x2C9 JUMP JUMPDEST JUMPDEST DUP2 CALLDATALOAD PUSH2 0x521 DUP5 DUP3 PUSH1 0x20 DUP7 ADD PUSH2 0x477 JUMP JUMPDEST SWAP2 POP POP SWAP3 SWAP2 POP POP JUMP JUMPDEST PUSH0 PUSH1 0x20 DUP3 DUP5 SUB SLT ISZERO PUSH2 0x53F JUMPI PUSH2 0x53E PUSH2 0x2C1 JUMP JUMPDEST JUMPDEST PUSH0 DUP3 ADD CALLDATALOAD PUSH8 0xFFFFFFFFFFFFFFFF DUP2 GT ISZERO PUSH2 0x55C JUMPI PUSH2 0x55B PUSH2 0x2C5 JUMP JUMPDEST JUMPDEST PUSH2 0x568 DUP5 DUP3 DUP6 ADD PUSH2 0x4FD JUMP JUMPDEST SWAP2 POP POP SWAP3 SWAP2 POP POP JUMP JUMPDEST PUSH0 PUSH0 PUSH0 PUSH1 0x60 DUP5 DUP7 SUB SLT ISZERO PUSH2 0x588 JUMPI PUSH2 0x587 PUSH2 0x2C1 JUMP JUMPDEST JUMPDEST PUSH0 PUSH2 0x595 DUP7 DUP3 DUP8 ADD PUSH2 0x3CE JUMP JUMPDEST SWAP4 POP POP PUSH1 0x20 PUSH2 0x5A6 DUP7 DUP3 DUP8 ADD PUSH2 0x3CE JUMP JUMPDEST SWAP3 POP POP PUSH1 0x40 PUSH2 0x5B7 DUP7 DUP3 DUP8 ADD PUSH2 0x3CE JUMP JUMPDEST SWAP2 POP POP SWAP3 POP SWAP3 POP SWAP3 JUMP JUMPDEST PUSH2 0x5CA DUP2 PUSH2 0x3AF JUMP JUMPDEST DUP3 MSTORE POP POP JUMP JUMPDEST PUSH0 PUSH1 0x20 DUP3 ADD SWAP1 POP PUSH2 0x5E3 PUSH0 DUP4 ADD DUP5 PUSH2 0x5C1 JUMP JUMPDEST SWAP3 SWAP2 POP POP JUMP JUMPDEST PUSH0 DUP2 SWAP1 POP PUSH1 0x20 DUP3 ADD SWAP1 POP SWAP2 SWAP1 POP JUMP JUMPDEST PUSH0 DUP2 SLOAD SWAP1 POP SWAP2 SWAP1 POP JUMP JUMPDEST PUSH0 DUP2 SWAP1 POP PUSH1 0x1 DUP1 PUSH1 0x1 SUB DUP4 ADD DIV SWAP1 POP SWAP2 SWAP1 POP JUMP JUMPDEST PUSH0 DUP2 SWAP1 POP DUP2 PUSH0 MSTORE PUSH1 0x20 PUSH0 KECCAK256 SWAP1 POP SWAP2 SWAP1 POP JUMP JUMPDEST PUSH0 DUP2 SLOAD SWAP1 POP SWAP2 SWAP1 POP JUMP JUMPDEST PUSH0 DUP2 SWAP1 POP PUSH1 0x1 DUP1 PUSH1 0x1 SUB DUP4 ADD DIV SWAP1 POP SWAP2 SWAP1 POP JUMP JUMPDEST PUSH0 DUP2 SWAP1 POP DUP2 PUSH0 MSTORE PUSH1 0x20 PUSH0 KECCAK256 SWAP1 POP SWAP2 SWAP1 POP JUMP JUMPDEST PUSH0 DUP3 DUP3 SHL SWAP1 POP SWAP3 SWAP2 POP POP JUMP JUMPDEST PUSH0 PUSH1 0x8 DUP4 MUL PUSH2 0x693 PUSH32 0xFFFFFFFFFFFFFFFFFFFFFFFFFFFFFFFFFFFFFFFFFFFFFFFFFFFFFFFFFFFFFFFF DUP3 PUSH2 0x658 JUMP JUMPDEST PUSH2 0x69D DUP7 DUP4 PUSH2 0x658 JUMP JUMPDEST SWAP6 POP DUP1 NOT DUP5 AND SWAP4 POP DUP1 DUP7 AND DUP5 OR SWAP3 POP POP POP SWAP4 SWAP3 POP POP POP JUMP JUMPDEST PUSH0 DUP2 SWAP1 POP SWAP2 SWAP1 POP JUMP JUMPDEST PUSH0 PUSH2 0x6D8 PUSH2 0x6D3 PUSH2 0x6CE DUP5 PUSH2 0x3AF JUMP JUMPDEST PUSH2 0x6B5 JUMP JUMPDEST PUSH2 0x3AF JUMP JUMPDEST SWAP1 POP SWAP2 SWAP1 POP JUMP JUMPDEST PUSH0 DUP2 SWAP1 POP SWAP2 SWAP1 POP JUMP JUMPDEST PUSH2 0x6F1 DUP4 PUSH2 0x6BE JUMP JUMPDEST PUSH2 0x705 PUSH2 0x6FD DUP3 PUSH2 0x6DF JUMP JUMPDEST DUP5 DUP5 SLOAD PUSH2 0x664 JUMP JUMPDEST DUP3 SSTORE POP POP POP POP JUMP JUMPDEST PUSH0 PUSH0 SWAP1 POP SWAP1 JUMP JUMPDEST PUSH2 0x71C PUSH2 0x70D JUMP JUMPDEST PUSH2 0x727 DUP2 DUP5 DUP5 PUSH2 0x6E8 JUMP JUMPDEST POP POP POP JUMP JUMPDEST PUSH0 JUMPDEST DUP3 DUP2 LT ISZERO PUSH2 0x74D JUMPI PUSH2 0x742 PUSH0 DUP3 DUP5 ADD PUSH2 0x714 JUMP JUMPDEST PUSH1 0x1 DUP2 ADD SWAP1 POP PUSH2 0x72E JUMP JUMPDEST POP POP POP JUMP JUMPDEST DUP2 DUP4 LT ISZERO PUSH2 0x789 JUMPI PUSH2 0x763 DUP3 PUSH2 0x632 JUMP JUMPDEST PUSH2 0x76C DUP5 PUSH2 0x632 JUMP JUMPDEST PUSH2 0x775 DUP4 PUSH2 0x646 JUMP JUMPDEST DUP2 DUP2 ADD PUSH2 0x784 DUP4 DUP6 SUB DUP3 PUSH2 0x72C JUMP JUMPDEST POP POP POP POP JUMPDEST POP POP POP JUMP JUMPDEST PUSH9 0x10000000000000000 DUP3 GT ISZERO PUSH2 0x7A8 JUMPI PUSH2 0x7A7 PUSH2 0x2DD JUMP JUMPDEST JUMPDEST PUSH2 0x7B1 DUP2 PUSH2 0x628 JUMP JUMPDEST DUP3 DUP3 SSTORE PUSH2 0x7BF DUP4 DUP3 DUP5 PUSH2 0x752 JUMP JUMPDEST POP POP POP JUMP JUMPDEST PUSH2 0x7CE PUSH0 DUP3 PUSH2 0x78E JUMP JUMPDEST POP JUMP JUMPDEST PUSH32 0x4E487B7100000000000000000000000000000000000000000000000000000000 PUSH0 MSTORE PUSH0 PUSH1 0x4 MSTORE PUSH1 0x24 PUSH0 REVERT JUMPDEST PUSH0 DUP3 EQ PUSH2 0x80D JUMPI PUSH2 0x80C PUSH2 0x7D1 JUMP JUMPDEST JUMPDEST PUSH2 0x816 DUP2 PUSH2 0x7C4 JUMP JUMPDEST POP POP JUMP JUMPDEST PUSH0 JUMPDEST DUP3 DUP2 LT ISZERO PUSH2 0x83B JUMPI PUSH2 0x830 PUSH0 DUP3 DUP5 ADD PUSH2 0x7FD JUMP JUMPDEST PUSH1 0x1 DUP2 ADD SWAP1 POP PUSH2 0x81C JUMP JUMPDEST POP POP POP JUMP JUMPDEST DUP2 DUP4 LT ISZERO PUSH2 0x877 JUMPI PUSH2 0x851 DUP3 PUSH2 0x602 JUMP JUMPDEST PUSH2 0x85A DUP5 PUSH2 0x602 JUMP JUMPDEST PUSH2 0x863 DUP4 PUSH2 0x616 JUMP JUMPDEST DUP2 DUP2 ADD PUSH2 0x872 DUP4 DUP6 SUB DUP3 PUSH2 0x81A JUMP JUMPDEST POP POP POP POP JUMPDEST POP POP POP JUMP JUMPDEST PUSH9 0x10000000000000000 DUP3 GT ISZERO PUSH2 0x896 JUMPI PUSH2 0x895 PUSH2 0x2DD JUMP JUMPDEST JUMPDEST PUSH2 0x89F DUP2 PUSH2 0x5F8 JUMP JUMPDEST DUP3 DUP3 SSTORE PUSH2 0x8AD DUP4 DUP3 DUP5 PUSH2 0x840 JUMP JUMPDEST POP POP POP JUMP JUMPDEST PUSH0 DUP2 MLOAD SWAP1 POP SWAP2 SWAP1 POP JUMP JUMPDEST PUSH0 DUP2 MLOAD SWAP1 POP SWAP2 SWAP1 POP JUMP JUMPDEST PUSH0 DUP2 MLOAD SWAP1 POP SWAP2 SWAP1 POP JUMP JUMPDEST PUSH0 PUSH2 0x8DB DUP3 MLOAD PUSH2 0x3AF JUMP JUMPDEST DUP1 SWAP2 POP POP SWAP2 SWAP1 POP JUMP JUMPDEST PUSH0 DUP2 SWAP1 POP PUSH1 0x20 DUP3 ADD SWAP1 POP SWAP2 SWAP1 POP JUMP JUMPDEST PUSH2 0x8FC DUP3 PUSH2 0x8C6 JUMP JUMPDEST PUSH8 0xFFFFFFFFFFFFFFFF DUP2 GT ISZERO PUSH2 0x915 JUMPI PUSH2 0x914 PUSH2 0x2DD JUMP JUMPDEST JUMPDEST PUSH2 0x91F DUP2 DUP4 PUSH2 0x78E JUMP JUMPDEST PUSH2 0x928 DUP4 PUSH2 0x8E4 JUMP JUMPDEST PUSH2 0x931 DUP4 PUSH2 0x646 JUMP JUMPDEST PUSH1 0x1 DUP4 DIV PUSH0 JUMPDEST DUP2 DUP2 LT ISZERO PUSH2 0x96E JUMPI PUSH0 PUSH2 0x949 DUP6 PUSH2 0x8D0 JUMP JUMPDEST PUSH2 0x952 DUP2 PUSH2 0x6DF JUMP JUMPDEST DUP1 SWAP3 POP PUSH1 0x20 DUP8 ADD SWAP7 POP POP POP DUP1 DUP3 DUP6 ADD SSTORE POP PUSH1 0x1 DUP2 ADD SWAP1 POP PUSH2 0x937 JUMP JUMPDEST POP POP POP POP POP POP POP JUMP JUMPDEST PUSH2 0x981 DUP3 DUP3 PUSH2 0x8F3 JUMP JUMPDEST POP POP JUMP JUMPDEST PUSH2 0x98E DUP3 PUSH2 0x8B2 JUMP JUMPDEST PUSH2 0x998 DUP2 DUP4 PUSH2 0x87C JUMP JUMPDEST PUSH2 0x9A1 DUP4 PUSH2 0x5E9 JUMP JUMPDEST PUSH2 0x9AA DUP4 PUSH2 0x616 JUMP JUMPDEST PUSH0 JUMPDEST DUP4 DUP2 LT ISZERO PUSH2 0x9DF JUMPI PUSH2 0x9BD DUP4 PUSH2 0x8BC JUMP JUMPDEST PUSH2 0x9C7 DUP2 DUP5 PUSH2 0x977 JUMP JUMPDEST PUSH1 0x20 DUP5 ADD SWAP4 POP PUSH1 0x1 DUP4 ADD SWAP3 POP POP PUSH1 0x1 DUP2 ADD SWAP1 POP PUSH2 0x9AC JUMP JUMPDEST POP POP POP POP POP POP JUMP JUMPDEST PUSH0 DUP3 DUP3 MSTORE PUSH1 0x20 DUP3 ADD SWAP1 POP SWAP3 SWAP2 POP POP JUMP JUMPDEST PUSH32 0xE8B685E8BF8778E69C80E5A4A7E88C83E59BB400000000000000000000000000 PUSH0 DUP3 ADD MSTORE POP JUMP JUMPDEST PUSH0 PUSH2 0xA2B PUSH1 0x13 DUP4 PUSH2 0x9E7 JUMP JUMPDEST SWAP2 POP PUSH2 0xA36 DUP3 PUSH2 0x9F7 JUMP JUMPDEST PUSH1 0x20 DUP3 ADD SWAP1 POP SWAP2 SWAP1 POP JUMP JUMPDEST PUSH0 PUSH1 0x20 DUP3 ADD SWAP1 POP DUP2 DUP2 SUB PUSH0 DUP4 ADD MSTORE PUSH2 0xA58 DUP2 PUSH2 0xA1F JUMP JUMPDEST SWAP1 POP SWAP2 SWAP1 POP JUMP JUMPDEST PUSH32 0x4E487B7100000000000000000000000000000000000000000000000000000000 PUSH0 MSTORE PUSH1 0x32 PUSH1 0x4 MSTORE PUSH1 0x24 PUSH0 REVERT JUMPDEST PUSH32 0xE8B685E8BF8779E69C80E5A4A7E88C83E59BB400000000000000000000000000 PUSH0 DUP3 ADD MSTORE POP JUMP JUMPDEST PUSH0 PUSH2 0xAC0 PUSH1 0x13 DUP4 PUSH2 0x9E7 JUMP JUMPDEST SWAP2 POP PUSH2 0xACB DUP3 PUSH2 0xA8C JUMP JUMPDEST PUSH1 0x20 DUP3 ADD SWAP1 POP SWAP2 SWAP1 POP JUMP JUMPDEST PUSH0 PUSH1 0x20 DUP3 ADD SWAP1 POP DUP2 DUP2 SUB PUSH0 DUP4 ADD MSTORE PUSH2 0xAED DUP2 PUSH2 0xAB4 JUMP JUMPDEST SWAP1 POP SWAP2 SWAP1 POP JUMP JUMPDEST PUSH32 0xE8B685E8BF877AE69C80E5A4A7E88C83E59BB400000000000000000000000000 PUSH0 DUP3 ADD MSTORE POP JUMP JUMPDEST PUSH0 PUSH2 0xB28 PUSH1 0x13 DUP4 PUSH2 0x9E7 JUMP JUMPDEST SWAP2 POP PUSH2 0xB33 DUP3 PUSH2 0xAF4 JUMP JUMPDEST PUSH1 0x20 DUP3 ADD SWAP1 POP SWAP2 SWAP1 POP JUMP JUMPDEST PUSH0 PUSH1 0x20 DUP3 ADD SWAP1 POP DUP2 DUP2 SUB PUSH0 DUP4 ADD MSTORE PUSH2 0xB55 DUP2 PUSH2 0xB1C JUMP JUMPDEST SWAP1 POP SWAP2 SWAP1 POP JUMP INVALID LOG2 PUSH5 0x6970667358 0x22 SLT KECCAK256 PUSH27 0x2BCB3086A7FF0C926644BFA30C3CBE9842812364BC0B55CE1F7454 LOG1 0x2C CODECOPY DUP1 PUSH5 0x736F6C6343 STOP ADDMOD 0x22 STOP CALLER "
				},
				"gasEstimates": {
					"creation": {
						"codeDepositCost": "592400",
						"executionCost": "623",
						"totalCost": "593023"
					},
					"external": {
						"addPlane(uint256[][])": "infinite",
						"cube(uint256,uint256,uint256)": "infinite",
						"getElement(uint256,uint256,uint256)": "infinite"
					}
				},
				"methodIdentifiers": {
					"addPlane(uint256[][])": "940fecc3",
					"cube(uint256,uint256,uint256)": "d8bc416e",
					"getElement(uint256,uint256,uint256)": "c48eb68c"
				}
			},
			"storageLayout": {
				"storage": [
					{
						"astId": 6,
						"contract": "contracts/3.1/06MultiDimesionArray/ThreeDimesionArray.sol:ThreeDimesionArray",
						"label": "cube",
						"offset": 0,
						"slot": "0",
						"type": "t_array(t_array(t_array(t_uint256)dyn_storage)dyn_storage)dyn_storage"
					}
				],
				"types": {
					"t_array(t_array(t_array(t_uint256)dyn_storage)dyn_storage)dyn_storage": {
						"base": "t_array(t_array(t_uint256)dyn_storage)dyn_storage",
						"encoding": "dynamic_array",
						"label": "uint256[][][]",
						"numberOfBytes": "32"
					},
					"t_array(t_array(t_uint256)dyn_storage)dyn_storage": {
						"base": "t_array(t_uint256)dyn_storage",
						"encoding": "dynamic_array",
						"label": "uint256[][]",
						"numberOfBytes": "32"
					},
					"t_array(t_uint256)dyn_storage": {
						"base": "t_uint256",
						"encoding": "dynamic_array",
						"label": "uint256[]",
						"numberOfBytes": "32"
					},
					"t_uint256": {
						"encoding": "inplace",
						"label": "uint256",
						"numberOfBytes": "32"
					}
				}
			},
			"userdoc": {
				"kind": "user",
				"methods": {},
				"version": 1
			}
		}
	}
}