{
	"contracts/2.1/06operator/ComparisionOperators.sol": {
		"ComparisionOperators": {
			"abi": [
				{
					"inputs": [],
					"name": "comparision",
					"outputs": [
						{
							"internalType": "bool",
							"name": "",
							"type": "bool"
						},
						{
							"internalType": "bool",
							"name": "",
							"type": "bool"
						},
						{
							"internalType": "bool",
							"name": "",
							"type": "bool"
						},
						{
							"internalType": "bool",
							"name": "",
							"type": "bool"
						},
						{
							"internalType": "bool",
							"name": "",
							"type": "bool"
						},
						{
							"internalType": "bool",
							"name": "",
							"type": "bool"
						}
					],
					"stateMutability": "pure",
					"type": "function"
				}
			],
			"devdoc": {
				"kind": "dev",
				"methods": {},
				"version": 1
			},
			"evm": {
				"assembly": "    /* \"contracts/2.1/06operator/ComparisionOperators.sol\":58:360  contract ComparisionOperators{... */\n  mstore(0x40, 0x80)\n  callvalue\n  dup1\n  iszero\n  tag_1\n  jumpi\n  revert(0x00, 0x00)\ntag_1:\n  pop\n  dataSize(sub_0)\n  dup1\n  dataOffset(sub_0)\n  0x00\n  codecopy\n  0x00\n  return\nstop\n\nsub_0: assembly {\n        /* \"contracts/2.1/06operator/ComparisionOperators.sol\":58:360  contract ComparisionOperators{... */\n      mstore(0x40, 0x80)\n      callvalue\n      dup1\n      iszero\n      tag_1\n      jumpi\n      revert(0x00, 0x00)\n    tag_1:\n      pop\n      jumpi(tag_2, lt(calldatasize, 0x04))\n      shr(0xe0, calldataload(0x00))\n      dup1\n      0x1a31c91e\n      eq\n      tag_3\n      jumpi\n    tag_2:\n      revert(0x00, 0x00)\n        /* \"contracts/2.1/06operator/ComparisionOperators.sol\":94:357  function comparision() public pure returns(bool,bool,bool,bool,bool,bool){... */\n    tag_3:\n      tag_4\n      tag_5\n      jump\t// in\n    tag_4:\n      mload(0x40)\n      tag_6\n      swap7\n      swap6\n      swap5\n      swap4\n      swap3\n      swap2\n      swap1\n      tag_7\n      jump\t// in\n    tag_6:\n      mload(0x40)\n      dup1\n      swap2\n      sub\n      swap1\n      return\n    tag_5:\n        /* \"contracts/2.1/06operator/ComparisionOperators.sol\":137:141  bool */\n      0x00\n        /* \"contracts/2.1/06operator/ComparisionOperators.sol\":142:146  bool */\n      0x00\n        /* \"contracts/2.1/06operator/ComparisionOperators.sol\":147:151  bool */\n      0x00\n        /* \"contracts/2.1/06operator/ComparisionOperators.sol\":152:156  bool */\n      0x00\n        /* \"contracts/2.1/06operator/ComparisionOperators.sol\":157:161  bool */\n      0x00\n        /* \"contracts/2.1/06operator/ComparisionOperators.sol\":162:166  bool */\n      0x00\n        /* \"contracts/2.1/06operator/ComparisionOperators.sol\":178:185  uint  a */\n      0x00\n        /* \"contracts/2.1/06operator/ComparisionOperators.sol\":186:188  10 */\n      0x0a\n        /* \"contracts/2.1/06operator/ComparisionOperators.sol\":178:188  uint  a=10 */\n      swap1\n      pop\n        /* \"contracts/2.1/06operator/ComparisionOperators.sol\":199:206  uint  b */\n      0x00\n        /* \"contracts/2.1/06operator/ComparisionOperators.sol\":207:208  5 */\n      0x05\n        /* \"contracts/2.1/06operator/ComparisionOperators.sol\":199:208  uint  b=5 */\n      swap1\n      pop\n        /* \"contracts/2.1/06operator/ComparisionOperators.sol\":244:245  b */\n      dup1\n        /* \"contracts/2.1/06operator/ComparisionOperators.sol\":241:242  a */\n      dup3\n        /* \"contracts/2.1/06operator/ComparisionOperators.sol\":241:245  a==b */\n      eq\n        /* \"contracts/2.1/06operator/ComparisionOperators.sol\":263:264  b */\n      dup2\n        /* \"contracts/2.1/06operator/ComparisionOperators.sol\":260:261  a */\n      dup4\n        /* \"contracts/2.1/06operator/ComparisionOperators.sol\":260:264  a!=b */\n      eq\n      iszero\n        /* \"contracts/2.1/06operator/ComparisionOperators.sol\":281:282  b */\n      dup3\n        /* \"contracts/2.1/06operator/ComparisionOperators.sol\":279:280  a */\n      dup5\n        /* \"contracts/2.1/06operator/ComparisionOperators.sol\":279:282  a>b */\n      gt\n        /* \"contracts/2.1/06operator/ComparisionOperators.sol\":299:300  b */\n      dup4\n        /* \"contracts/2.1/06operator/ComparisionOperators.sol\":297:298  a */\n      dup6\n        /* \"contracts/2.1/06operator/ComparisionOperators.sol\":297:300  a<b */\n      lt\n        /* \"contracts/2.1/06operator/ComparisionOperators.sol\":318:319  b */\n      dup5\n        /* \"contracts/2.1/06operator/ComparisionOperators.sol\":315:316  a */\n      dup7\n        /* \"contracts/2.1/06operator/ComparisionOperators.sol\":315:319  a>=b */\n      lt\n      iszero\n        /* \"contracts/2.1/06operator/ComparisionOperators.sol\":337:338  b */\n      dup6\n        /* \"contracts/2.1/06operator/ComparisionOperators.sol\":334:335  a */\n      dup8\n        /* \"contracts/2.1/06operator/ComparisionOperators.sol\":334:338  a<=b */\n      gt\n      iszero\n        /* \"contracts/2.1/06operator/ComparisionOperators.sol\":219:349  return (... */\n      swap8\n      pop\n      swap8\n      pop\n      swap8\n      pop\n      swap8\n      pop\n      swap8\n      pop\n      swap8\n      pop\n      pop\n      pop\n        /* \"contracts/2.1/06operator/ComparisionOperators.sol\":94:357  function comparision() public pure returns(bool,bool,bool,bool,bool,bool){... */\n      swap1\n      swap2\n      swap3\n      swap4\n      swap5\n      swap6\n      jump\t// out\n        /* \"#utility.yul\":7:97   */\n    tag_9:\n        /* \"#utility.yul\":41:48   */\n      0x00\n        /* \"#utility.yul\":84:89   */\n      dup2\n        /* \"#utility.yul\":77:90   */\n      iszero\n        /* \"#utility.yul\":70:91   */\n      iszero\n        /* \"#utility.yul\":59:91   */\n      swap1\n      pop\n        /* \"#utility.yul\":7:97   */\n      swap2\n      swap1\n      pop\n      jump\t// out\n        /* \"#utility.yul\":103:212   */\n    tag_10:\n        /* \"#utility.yul\":184:205   */\n      tag_14\n        /* \"#utility.yul\":199:204   */\n      dup2\n        /* \"#utility.yul\":184:205   */\n      tag_9\n      jump\t// in\n    tag_14:\n        /* \"#utility.yul\":179:182   */\n      dup3\n        /* \"#utility.yul\":172:206   */\n      mstore\n        /* \"#utility.yul\":103:212   */\n      pop\n      pop\n      jump\t// out\n        /* \"#utility.yul\":218:921   */\n    tag_7:\n        /* \"#utility.yul\":415:419   */\n      0x00\n        /* \"#utility.yul\":453:456   */\n      0xc0\n        /* \"#utility.yul\":442:451   */\n      dup3\n        /* \"#utility.yul\":438:457   */\n      add\n        /* \"#utility.yul\":430:457   */\n      swap1\n      pop\n        /* \"#utility.yul\":467:532   */\n      tag_16\n        /* \"#utility.yul\":529:530   */\n      0x00\n        /* \"#utility.yul\":518:527   */\n      dup4\n        /* \"#utility.yul\":514:531   */\n      add\n        /* \"#utility.yul\":505:511   */\n      dup10\n        /* \"#utility.yul\":467:532   */\n      tag_10\n      jump\t// in\n    tag_16:\n        /* \"#utility.yul\":542:608   */\n      tag_17\n        /* \"#utility.yul\":604:606   */\n      0x20\n        /* \"#utility.yul\":593:602   */\n      dup4\n        /* \"#utility.yul\":589:607   */\n      add\n        /* \"#utility.yul\":580:586   */\n      dup9\n        /* \"#utility.yul\":542:608   */\n      tag_10\n      jump\t// in\n    tag_17:\n        /* \"#utility.yul\":618:684   */\n      tag_18\n        /* \"#utility.yul\":680:682   */\n      0x40\n        /* \"#utility.yul\":669:678   */\n      dup4\n        /* \"#utility.yul\":665:683   */\n      add\n        /* \"#utility.yul\":656:662   */\n      dup8\n        /* \"#utility.yul\":618:684   */\n      tag_10\n      jump\t// in\n    tag_18:\n        /* \"#utility.yul\":694:760   */\n      tag_19\n        /* \"#utility.yul\":756:758   */\n      0x60\n        /* \"#utility.yul\":745:754   */\n      dup4\n        /* \"#utility.yul\":741:759   */\n      add\n        /* \"#utility.yul\":732:738   */\n      dup7\n        /* \"#utility.yul\":694:760   */\n      tag_10\n      jump\t// in\n    tag_19:\n        /* \"#utility.yul\":770:837   */\n      tag_20\n        /* \"#utility.yul\":832:835   */\n      0x80\n        /* \"#utility.yul\":821:830   */\n      dup4\n        /* \"#utility.yul\":817:836   */\n      add\n        /* \"#utility.yul\":808:814   */\n      dup6\n        /* \"#utility.yul\":770:837   */\n      tag_10\n      jump\t// in\n    tag_20:\n        /* \"#utility.yul\":847:914   */\n      tag_21\n        /* \"#utility.yul\":909:912   */\n      0xa0\n        /* \"#utility.yul\":898:907   */\n      dup4\n        /* \"#utility.yul\":894:913   */\n      add\n        /* \"#utility.yul\":885:891   */\n      dup5\n        /* \"#utility.yul\":847:914   */\n      tag_10\n      jump\t// in\n    tag_21:\n        /* \"#utility.yul\":218:921   */\n      swap8\n      swap7\n      pop\n      pop\n      pop\n      pop\n      pop\n      pop\n      pop\n      jump\t// out\n\n    auxdata: 0xa264697066735822122090c688f74f84a0dfb272947d880ba2b1361e3669950f51e0bb0c2542790f94e064736f6c63430008220033\n}\n",
				"bytecode": {
					"linkReferences": {},
					"object": "6080604052348015600e575f5ffd5b506101258061001c5f395ff3fe6080604052348015600e575f5ffd5b50600436106026575f3560e01c80631a31c91e14602a575b5f5ffd5b60306049565b604051604096959493929190609c565b60405180910390f35b5f5f5f5f5f5f5f600a90505f600590508082148183141582841183851084861015858711159750975097509750975097505050909192939495565b5f8115159050919050565b6096816084565b82525050565b5f60c08201905060ad5f830189608f565b60b86020830188608f565b60c36040830187608f565b60ce6060830186608f565b60d96080830185608f565b60e460a0830184608f565b97965050505050505056fea264697066735822122090c688f74f84a0dfb272947d880ba2b1361e3669950f51e0bb0c2542790f94e064736f6c63430008220033",
					"opcodes": "PUSH1 0x80 PUSH1 0x40 MSTORE CALLVALUE DUP1 ISZERO PUSH1 0xE JUMPI PUSH0 PUSH0 REVERT JUMPDEST POP PUSH2 0x125 DUP1 PUSH2 0x1C PUSH0 CODECOPY PUSH0 RETURN INVALID PUSH1 0x80 PUSH1 0x40 MSTORE CALLVALUE DUP1 ISZERO PUSH1 0xE JUMPI PUSH0 PUSH0 REVERT JUMPDEST POP PUSH1 0x4 CALLDATASIZE LT PUSH1 0x26 JUMPI PUSH0 CALLDATALOAD PUSH1 0xE0 SHR DUP1 PUSH4 0x1A31C91E EQ PUSH1 0x2A JUMPI JUMPDEST PUSH0 PUSH0 REVERT JUMPDEST PUSH1 0x30 PUSH1 0x49 JUMP JUMPDEST PUSH1 0x40 MLOAD PUSH1 0x40 SWAP7 SWAP6 SWAP5 SWAP4 SWAP3 SWAP2 SWAP1 PUSH1 0x9C JUMP JUMPDEST PUSH1 0x40 MLOAD DUP1 SWAP2 SUB SWAP1 RETURN JUMPDEST PUSH0 PUSH0 PUSH0 PUSH0 PUSH0 PUSH0 PUSH0 PUSH1 0xA SWAP1 POP PUSH0 PUSH1 0x5 SWAP1 POP DUP1 DUP3 EQ DUP2 DUP4 EQ ISZERO DUP3 DUP5 GT DUP4 DUP6 LT DUP5 DUP7 LT ISZERO DUP6 DUP8 GT ISZERO SWAP8 POP SWAP8 POP SWAP8 POP SWAP8 POP SWAP8 POP SWAP8 POP POP POP SWAP1 SWAP2 SWAP3 SWAP4 SWAP5 SWAP6 JUMP JUMPDEST PUSH0 DUP2 ISZERO ISZERO SWAP1 POP SWAP2 SWAP1 POP JUMP JUMPDEST PUSH1 0x96 DUP2 PUSH1 0x84 JUMP JUMPDEST DUP3 MSTORE POP POP JUMP JUMPDEST PUSH0 PUSH1 0xC0 DUP3 ADD SWAP1 POP PUSH1 0xAD PUSH0 DUP4 ADD DUP10 PUSH1 0x8F JUMP JUMPDEST PUSH1 0xB8 PUSH1 0x20 DUP4 ADD DUP9 PUSH1 0x8F JUMP JUMPDEST PUSH1 0xC3 PUSH1 0x40 DUP4 ADD DUP8 PUSH1 0x8F JUMP JUMPDEST PUSH1 0xCE PUSH1 0x60 DUP4 ADD DUP7 PUSH1 0x8F JUMP JUMPDEST PUSH1 0xD9 PUSH1 0x80 DUP4 ADD DUP6 PUSH1 0x8F JUMP JUMPDEST PUSH1 0xE4 PUSH1 0xA0 DUP4 ADD DUP5 PUSH1 0x8F JUMP JUMPDEST SWAP8 SWAP7 POP POP POP POP POP POP POP JUMP INVALID LOG2 PUSH5 0x6970667358 0x22 SLT KECCAK256 SWAP1 0xC6 DUP9 0xF7 0x4F DUP5 LOG0 0xDF 0xB2 PUSH19 0x947D880BA2B1361E3669950F51E0BB0C254279 0xF SWAP5 RJUMP 0x6473 PUSH16 0x6C634300082200330000000000000000 "
				},
				"gasEstimates": {
					"creation": {
						"codeDepositCost": "58600",
						"executionCost": "109",
						"totalCost": "58709"
					},
					"external": {
						"comparision()": "infinite"
					}
				},
				"methodIdentifiers": {
					"comparision()": "1a31c91e"
				}
			},
			"storageLayout": {
				"storage": [],
				"types": null
			},
			"userdoc": {
				"kind": "user",
				"methods": {},
				"version": 1
			}
		}
	}
}