{
	"contracts/2.1/06operator/ShortCircuit.sol": {
		"ShortCircuit": {
			"abi": [
				{
					"inputs": [
						{
							"internalType": "uint256",
							"name": "x",
							"type": "uint256"
						},
						{
							"internalType": "uint256",
							"name": "y",
							"type": "uint256"
						}
					],
					"name": "andShortCircuit",
					"outputs": [
						{
							"internalType": "bool",
							"name": "",
							"type": "bool"
						}
					],
					"stateMutability": "pure",
					"type": "function"
				},
				{
					"inputs": [
						{
							"internalType": "bool",
							"name": "c1",
							"type": "bool"
						},
						{
							"internalType": "bool",
							"name": "c2",
							"type": "bool"
						}
					],
					"name": "orShortCircuit",
					"outputs": [
						{
							"internalType": "bool",
							"name": "",
							"type": "bool"
						}
					],
					"stateMutability": "pure",
					"type": "function"
				},
				{
					"inputs": [
						{
							"internalType": "address",
							"name": "recepient",
							"type": "address"
						},
						{
							"internalType": "uint256",
							"name": "amount",
							"type": "uint256"
						}
					],
					"name": "safeTransfer",
					"outputs": [
						{
							"internalType": "bool",
							"name": "",
							"type": "bool"
						}
					],
					"stateMutability": "view",
					"type": "function"
				}
			],
			"devdoc": {
				"kind": "dev",
				"methods": {},
				"version": 1
			},
			"evm": {
				"assembly": "    /* \"contracts/2.1/06operator/ShortCircuit.sol\":58:526  contract ShortCircuit{... */\n  mstore(0x40, 0x80)\n  callvalue\n  dup1\n  iszero\n  tag_1\n  jumpi\n  revert(0x00, 0x00)\ntag_1:\n  pop\n  dataSize(sub_0)\n  dup1\n  dataOffset(sub_0)\n  0x00\n  codecopy\n  0x00\n  return\nstop\n\nsub_0: assembly {\n        /* \"contracts/2.1/06operator/ShortCircuit.sol\":58:526  contract ShortCircuit{... */\n      mstore(0x40, 0x80)\n      callvalue\n      dup1\n      iszero\n      tag_1\n      jumpi\n      revert(0x00, 0x00)\n    tag_1:\n      pop\n      jumpi(tag_2, lt(calldatasize, 0x04))\n      shr(0xe0, calldataload(0x00))\n      dup1\n      0x423f6cef\n      eq\n      tag_3\n      jumpi\n      dup1\n      0x5dd57c4d\n      eq\n      tag_4\n      jumpi\n      dup1\n      0xdb98ff8d\n      eq\n      tag_5\n      jumpi\n    tag_2:\n      revert(0x00, 0x00)\n        /* \"contracts/2.1/06operator/ShortCircuit.sol\":356:523  function safeTransfer(address recepient,uint amount) public view returns (bool){... */\n    tag_3:\n      tag_6\n      0x04\n      dup1\n      calldatasize\n      sub\n      dup2\n      add\n      swap1\n      tag_7\n      swap2\n      swap1\n      tag_8\n      jump\t// in\n    tag_7:\n      tag_9\n      jump\t// in\n    tag_6:\n      mload(0x40)\n      tag_10\n      swap2\n      swap1\n      tag_11\n      jump\t// in\n    tag_10:\n      mload(0x40)\n      dup1\n      swap2\n      sub\n      swap1\n      return\n        /* \"contracts/2.1/06operator/ShortCircuit.sol\":86:246  function andShortCircuit(uint x,uint y) public pure returns(bool){... */\n    tag_4:\n      tag_12\n      0x04\n      dup1\n      calldatasize\n      sub\n      dup2\n      add\n      swap1\n      tag_13\n      swap2\n      swap1\n      tag_14\n      jump\t// in\n    tag_13:\n      tag_15\n      jump\t// in\n    tag_12:\n      mload(0x40)\n      tag_16\n      swap2\n      swap1\n      tag_11\n      jump\t// in\n    tag_16:\n      mload(0x40)\n      dup1\n      swap2\n      sub\n      swap1\n      return\n        /* \"contracts/2.1/06operator/ShortCircuit.sol\":252:350  function orShortCircuit(bool c1,bool c2) public pure returns(bool){... */\n    tag_5:\n      tag_17\n      0x04\n      dup1\n      calldatasize\n      sub\n      dup2\n      add\n      swap1\n      tag_18\n      swap2\n      swap1\n      tag_19\n      jump\t// in\n    tag_18:\n      tag_20\n      jump\t// in\n    tag_17:\n      mload(0x40)\n      tag_21\n      swap2\n      swap1\n      tag_11\n      jump\t// in\n    tag_21:\n      mload(0x40)\n      dup1\n      swap2\n      sub\n      swap1\n      return\n        /* \"contracts/2.1/06operator/ShortCircuit.sol\":356:523  function safeTransfer(address recepient,uint amount) public view returns (bool){... */\n    tag_9:\n        /* \"contracts/2.1/06operator/ShortCircuit.sol\":430:434  bool */\n      0x00\n        /* \"contracts/2.1/06operator/ShortCircuit.sol\":472:473  0 */\n      0x00\n        /* \"contracts/2.1/06operator/ShortCircuit.sol\":453:474  recepient!=address(0) */\n      0xffffffffffffffffffffffffffffffffffffffff\n      and\n        /* \"contracts/2.1/06operator/ShortCircuit.sol\":453:462  recepient */\n      dup4\n        /* \"contracts/2.1/06operator/ShortCircuit.sol\":453:474  recepient!=address(0) */\n      0xffffffffffffffffffffffffffffffffffffffff\n      and\n      eq\n      iszero\n        /* \"contracts/2.1/06operator/ShortCircuit.sol\":453:484  recepient!=address(0)&&amount>0 */\n      dup1\n      iszero\n      tag_23\n      jumpi\n      pop\n        /* \"contracts/2.1/06operator/ShortCircuit.sol\":483:484  0 */\n      0x00\n        /* \"contracts/2.1/06operator/ShortCircuit.sol\":476:482  amount */\n      dup3\n        /* \"contracts/2.1/06operator/ShortCircuit.sol\":476:484  amount>0 */\n      gt\n        /* \"contracts/2.1/06operator/ShortCircuit.sol\":453:484  recepient!=address(0)&&amount>0 */\n    tag_23:\n        /* \"contracts/2.1/06operator/ShortCircuit.sol\":453:515  recepient!=address(0)&&amount>0&&address(this).balance>=amount */\n      dup1\n      iszero\n      tag_24\n      jumpi\n      pop\n        /* \"contracts/2.1/06operator/ShortCircuit.sol\":509:515  amount */\n      dup2\n        /* \"contracts/2.1/06operator/ShortCircuit.sol\":486:507  address(this).balance */\n      selfbalance\n        /* \"contracts/2.1/06operator/ShortCircuit.sol\":486:515  address(this).balance>=amount */\n      lt\n      iszero\n        /* \"contracts/2.1/06operator/ShortCircuit.sol\":453:515  recepient!=address(0)&&amount>0&&address(this).balance>=amount */\n    tag_24:\n        /* \"contracts/2.1/06operator/ShortCircuit.sol\":446:515  return recepient!=address(0)&&amount>0&&address(this).balance>=amount */\n      swap1\n      pop\n        /* \"contracts/2.1/06operator/ShortCircuit.sol\":356:523  function safeTransfer(address recepient,uint amount) public view returns (bool){... */\n      swap3\n      swap2\n      pop\n      pop\n      jump\t// out\n        /* \"contracts/2.1/06operator/ShortCircuit.sol\":86:246  function andShortCircuit(uint x,uint y) public pure returns(bool){... */\n    tag_15:\n        /* \"contracts/2.1/06operator/ShortCircuit.sol\":146:150  bool */\n      0x00\n        /* \"contracts/2.1/06operator/ShortCircuit.sol\":169:170  0 */\n      0x00\n        /* \"contracts/2.1/06operator/ShortCircuit.sol\":166:167  x */\n      dup4\n        /* \"contracts/2.1/06operator/ShortCircuit.sol\":166:170  x!=0 */\n      eq\n      iszero\n        /* \"contracts/2.1/06operator/ShortCircuit.sol\":166:177  x!=0&&y/x>5 */\n      dup1\n      iszero\n      tag_26\n      jumpi\n      pop\n        /* \"contracts/2.1/06operator/ShortCircuit.sol\":176:177  5 */\n      0x05\n        /* \"contracts/2.1/06operator/ShortCircuit.sol\":174:175  x */\n      dup4\n        /* \"contracts/2.1/06operator/ShortCircuit.sol\":172:173  y */\n      dup4\n        /* \"contracts/2.1/06operator/ShortCircuit.sol\":172:175  y/x */\n      tag_27\n      swap2\n      swap1\n      tag_28\n      jump\t// in\n    tag_27:\n        /* \"contracts/2.1/06operator/ShortCircuit.sol\":172:177  y/x>5 */\n      gt\n        /* \"contracts/2.1/06operator/ShortCircuit.sol\":166:177  x!=0&&y/x>5 */\n    tag_26:\n        /* \"contracts/2.1/06operator/ShortCircuit.sol\":162:216  if (x!=0&&y/x>5){... */\n      iszero\n      tag_29\n      jumpi\n        /* \"contracts/2.1/06operator/ShortCircuit.sol\":200:204  true */\n      0x01\n        /* \"contracts/2.1/06operator/ShortCircuit.sol\":193:204  return true */\n      swap1\n      pop\n      jump(tag_25)\n        /* \"contracts/2.1/06operator/ShortCircuit.sol\":162:216  if (x!=0&&y/x>5){... */\n    tag_29:\n        /* \"contracts/2.1/06operator/ShortCircuit.sol\":233:238  false */\n      0x00\n        /* \"contracts/2.1/06operator/ShortCircuit.sol\":226:238  return false */\n      swap1\n      pop\n        /* \"contracts/2.1/06operator/ShortCircuit.sol\":86:246  function andShortCircuit(uint x,uint y) public pure returns(bool){... */\n    tag_25:\n      swap3\n      swap2\n      pop\n      pop\n      jump\t// out\n        /* \"contracts/2.1/06operator/ShortCircuit.sol\":252:350  function orShortCircuit(bool c1,bool c2) public pure returns(bool){... */\n    tag_20:\n        /* \"contracts/2.1/06operator/ShortCircuit.sol\":313:317  bool */\n      0x00\n        /* \"contracts/2.1/06operator/ShortCircuit.sol\":336:338  c1 */\n      dup3\n        /* \"contracts/2.1/06operator/ShortCircuit.sol\":336:342  c1||c2 */\n      dup1\n      tag_31\n      jumpi\n      pop\n        /* \"contracts/2.1/06operator/ShortCircuit.sol\":340:342  c2 */\n      dup2\n        /* \"contracts/2.1/06operator/ShortCircuit.sol\":336:342  c1||c2 */\n    tag_31:\n        /* \"contracts/2.1/06operator/ShortCircuit.sol\":329:342  return c1||c2 */\n      swap1\n      pop\n        /* \"contracts/2.1/06operator/ShortCircuit.sol\":252:350  function orShortCircuit(bool c1,bool c2) public pure returns(bool){... */\n      swap3\n      swap2\n      pop\n      pop\n      jump\t// out\n        /* \"#utility.yul\":88:205   */\n    tag_33:\n        /* \"#utility.yul\":197:198   */\n      0x00\n        /* \"#utility.yul\":194:195   */\n      0x00\n        /* \"#utility.yul\":187:199   */\n      revert\n        /* \"#utility.yul\":334:460   */\n    tag_35:\n        /* \"#utility.yul\":371:378   */\n      0x00\n        /* \"#utility.yul\":411:453   */\n      0xffffffffffffffffffffffffffffffffffffffff\n        /* \"#utility.yul\":404:409   */\n      dup3\n        /* \"#utility.yul\":400:454   */\n      and\n        /* \"#utility.yul\":389:454   */\n      swap1\n      pop\n        /* \"#utility.yul\":334:460   */\n      swap2\n      swap1\n      pop\n      jump\t// out\n        /* \"#utility.yul\":466:562   */\n    tag_36:\n        /* \"#utility.yul\":503:510   */\n      0x00\n        /* \"#utility.yul\":532:556   */\n      tag_54\n        /* \"#utility.yul\":550:555   */\n      dup3\n        /* \"#utility.yul\":532:556   */\n      tag_35\n      jump\t// in\n    tag_54:\n        /* \"#utility.yul\":521:556   */\n      swap1\n      pop\n        /* \"#utility.yul\":466:562   */\n      swap2\n      swap1\n      pop\n      jump\t// out\n        /* \"#utility.yul\":568:690   */\n    tag_37:\n        /* \"#utility.yul\":641:665   */\n      tag_56\n        /* \"#utility.yul\":659:664   */\n      dup2\n        /* \"#utility.yul\":641:665   */\n      tag_36\n      jump\t// in\n    tag_56:\n        /* \"#utility.yul\":634:639   */\n      dup2\n        /* \"#utility.yul\":631:666   */\n      eq\n        /* \"#utility.yul\":621:684   */\n      tag_57\n      jumpi\n        /* \"#utility.yul\":680:681   */\n      0x00\n        /* \"#utility.yul\":677:678   */\n      0x00\n        /* \"#utility.yul\":670:682   */\n      revert\n        /* \"#utility.yul\":621:684   */\n    tag_57:\n        /* \"#utility.yul\":568:690   */\n      pop\n      jump\t// out\n        /* \"#utility.yul\":696:835   */\n    tag_38:\n        /* \"#utility.yul\":742:747   */\n      0x00\n        /* \"#utility.yul\":780:786   */\n      dup2\n        /* \"#utility.yul\":767:787   */\n      calldataload\n        /* \"#utility.yul\":758:787   */\n      swap1\n      pop\n        /* \"#utility.yul\":796:829   */\n      tag_59\n        /* \"#utility.yul\":823:828   */\n      dup2\n        /* \"#utility.yul\":796:829   */\n      tag_37\n      jump\t// in\n    tag_59:\n        /* \"#utility.yul\":696:835   */\n      swap3\n      swap2\n      pop\n      pop\n      jump\t// out\n        /* \"#utility.yul\":841:918   */\n    tag_39:\n        /* \"#utility.yul\":878:885   */\n      0x00\n        /* \"#utility.yul\":907:912   */\n      dup2\n        /* \"#utility.yul\":896:912   */\n      swap1\n      pop\n        /* \"#utility.yul\":841:918   */\n      swap2\n      swap1\n      pop\n      jump\t// out\n        /* \"#utility.yul\":924:1046   */\n    tag_40:\n        /* \"#utility.yul\":997:1021   */\n      tag_62\n        /* \"#utility.yul\":1015:1020   */\n      dup2\n        /* \"#utility.yul\":997:1021   */\n      tag_39\n      jump\t// in\n    tag_62:\n        /* \"#utility.yul\":990:995   */\n      dup2\n        /* \"#utility.yul\":987:1022   */\n      eq\n        /* \"#utility.yul\":977:1040   */\n      tag_63\n      jumpi\n        /* \"#utility.yul\":1036:1037   */\n      0x00\n        /* \"#utility.yul\":1033:1034   */\n      0x00\n        /* \"#utility.yul\":1026:1038   */\n      revert\n        /* \"#utility.yul\":977:1040   */\n    tag_63:\n        /* \"#utility.yul\":924:1046   */\n      pop\n      jump\t// out\n        /* \"#utility.yul\":1052:1191   */\n    tag_41:\n        /* \"#utility.yul\":1098:1103   */\n      0x00\n        /* \"#utility.yul\":1136:1142   */\n      dup2\n        /* \"#utility.yul\":1123:1143   */\n      calldataload\n        /* \"#utility.yul\":1114:1143   */\n      swap1\n      pop\n        /* \"#utility.yul\":1152:1185   */\n      tag_65\n        /* \"#utility.yul\":1179:1184   */\n      dup2\n        /* \"#utility.yul\":1152:1185   */\n      tag_40\n      jump\t// in\n    tag_65:\n        /* \"#utility.yul\":1052:1191   */\n      swap3\n      swap2\n      pop\n      pop\n      jump\t// out\n        /* \"#utility.yul\":1197:1671   */\n    tag_8:\n        /* \"#utility.yul\":1265:1271   */\n      0x00\n        /* \"#utility.yul\":1273:1279   */\n      0x00\n        /* \"#utility.yul\":1322:1324   */\n      0x40\n        /* \"#utility.yul\":1310:1319   */\n      dup4\n        /* \"#utility.yul\":1301:1308   */\n      dup6\n        /* \"#utility.yul\":1297:1320   */\n      sub\n        /* \"#utility.yul\":1293:1325   */\n      slt\n        /* \"#utility.yul\":1290:1409   */\n      iszero\n      tag_67\n      jumpi\n        /* \"#utility.yul\":1328:1407   */\n      tag_68\n      tag_33\n      jump\t// in\n    tag_68:\n        /* \"#utility.yul\":1290:1409   */\n    tag_67:\n        /* \"#utility.yul\":1448:1449   */\n      0x00\n        /* \"#utility.yul\":1473:1526   */\n      tag_69\n        /* \"#utility.yul\":1518:1525   */\n      dup6\n        /* \"#utility.yul\":1509:1515   */\n      dup3\n        /* \"#utility.yul\":1498:1507   */\n      dup7\n        /* \"#utility.yul\":1494:1516   */\n      add\n        /* \"#utility.yul\":1473:1526   */\n      tag_38\n      jump\t// in\n    tag_69:\n        /* \"#utility.yul\":1463:1526   */\n      swap3\n      pop\n        /* \"#utility.yul\":1419:1536   */\n      pop\n        /* \"#utility.yul\":1575:1577   */\n      0x20\n        /* \"#utility.yul\":1601:1654   */\n      tag_70\n        /* \"#utility.yul\":1646:1653   */\n      dup6\n        /* \"#utility.yul\":1637:1643   */\n      dup3\n        /* \"#utility.yul\":1626:1635   */\n      dup7\n        /* \"#utility.yul\":1622:1644   */\n      add\n        /* \"#utility.yul\":1601:1654   */\n      tag_41\n      jump\t// in\n    tag_70:\n        /* \"#utility.yul\":1591:1654   */\n      swap2\n      pop\n        /* \"#utility.yul\":1546:1664   */\n      pop\n        /* \"#utility.yul\":1197:1671   */\n      swap3\n      pop\n      swap3\n      swap1\n      pop\n      jump\t// out\n        /* \"#utility.yul\":1677:1767   */\n    tag_42:\n        /* \"#utility.yul\":1711:1718   */\n      0x00\n        /* \"#utility.yul\":1754:1759   */\n      dup2\n        /* \"#utility.yul\":1747:1760   */\n      iszero\n        /* \"#utility.yul\":1740:1761   */\n      iszero\n        /* \"#utility.yul\":1729:1761   */\n      swap1\n      pop\n        /* \"#utility.yul\":1677:1767   */\n      swap2\n      swap1\n      pop\n      jump\t// out\n        /* \"#utility.yul\":1773:1882   */\n    tag_43:\n        /* \"#utility.yul\":1854:1875   */\n      tag_73\n        /* \"#utility.yul\":1869:1874   */\n      dup2\n        /* \"#utility.yul\":1854:1875   */\n      tag_42\n      jump\t// in\n    tag_73:\n        /* \"#utility.yul\":1849:1852   */\n      dup3\n        /* \"#utility.yul\":1842:1876   */\n      mstore\n        /* \"#utility.yul\":1773:1882   */\n      pop\n      pop\n      jump\t// out\n        /* \"#utility.yul\":1888:2098   */\n    tag_11:\n        /* \"#utility.yul\":1975:1979   */\n      0x00\n        /* \"#utility.yul\":2013:2015   */\n      0x20\n        /* \"#utility.yul\":2002:2011   */\n      dup3\n        /* \"#utility.yul\":1998:2016   */\n      add\n        /* \"#utility.yul\":1990:2016   */\n      swap1\n      pop\n        /* \"#utility.yul\":2026:2091   */\n      tag_75\n        /* \"#utility.yul\":2088:2089   */\n      0x00\n        /* \"#utility.yul\":2077:2086   */\n      dup4\n        /* \"#utility.yul\":2073:2090   */\n      add\n        /* \"#utility.yul\":2064:2070   */\n      dup5\n        /* \"#utility.yul\":2026:2091   */\n      tag_43\n      jump\t// in\n    tag_75:\n        /* \"#utility.yul\":1888:2098   */\n      swap3\n      swap2\n      pop\n      pop\n      jump\t// out\n        /* \"#utility.yul\":2104:2578   */\n    tag_14:\n        /* \"#utility.yul\":2172:2178   */\n      0x00\n        /* \"#utility.yul\":2180:2186   */\n      0x00\n        /* \"#utility.yul\":2229:2231   */\n      0x40\n        /* \"#utility.yul\":2217:2226   */\n      dup4\n        /* \"#utility.yul\":2208:2215   */\n      dup6\n        /* \"#utility.yul\":2204:2227   */\n      sub\n        /* \"#utility.yul\":2200:2232   */\n      slt\n        /* \"#utility.yul\":2197:2316   */\n      iszero\n      tag_77\n      jumpi\n        /* \"#utility.yul\":2235:2314   */\n      tag_78\n      tag_33\n      jump\t// in\n    tag_78:\n        /* \"#utility.yul\":2197:2316   */\n    tag_77:\n        /* \"#utility.yul\":2355:2356   */\n      0x00\n        /* \"#utility.yul\":2380:2433   */\n      tag_79\n        /* \"#utility.yul\":2425:2432   */\n      dup6\n        /* \"#utility.yul\":2416:2422   */\n      dup3\n        /* \"#utility.yul\":2405:2414   */\n      dup7\n        /* \"#utility.yul\":2401:2423   */\n      add\n        /* \"#utility.yul\":2380:2433   */\n      tag_41\n      jump\t// in\n    tag_79:\n        /* \"#utility.yul\":2370:2433   */\n      swap3\n      pop\n        /* \"#utility.yul\":2326:2443   */\n      pop\n        /* \"#utility.yul\":2482:2484   */\n      0x20\n        /* \"#utility.yul\":2508:2561   */\n      tag_80\n        /* \"#utility.yul\":2553:2560   */\n      dup6\n        /* \"#utility.yul\":2544:2550   */\n      dup3\n        /* \"#utility.yul\":2533:2542   */\n      dup7\n        /* \"#utility.yul\":2529:2551   */\n      add\n        /* \"#utility.yul\":2508:2561   */\n      tag_41\n      jump\t// in\n    tag_80:\n        /* \"#utility.yul\":2498:2561   */\n      swap2\n      pop\n        /* \"#utility.yul\":2453:2571   */\n      pop\n        /* \"#utility.yul\":2104:2578   */\n      swap3\n      pop\n      swap3\n      swap1\n      pop\n      jump\t// out\n        /* \"#utility.yul\":2584:2700   */\n    tag_44:\n        /* \"#utility.yul\":2654:2675   */\n      tag_82\n        /* \"#utility.yul\":2669:2674   */\n      dup2\n        /* \"#utility.yul\":2654:2675   */\n      tag_42\n      jump\t// in\n    tag_82:\n        /* \"#utility.yul\":2647:2652   */\n      dup2\n        /* \"#utility.yul\":2644:2676   */\n      eq\n        /* \"#utility.yul\":2634:2694   */\n      tag_83\n      jumpi\n        /* \"#utility.yul\":2690:2691   */\n      0x00\n        /* \"#utility.yul\":2687:2688   */\n      0x00\n        /* \"#utility.yul\":2680:2692   */\n      revert\n        /* \"#utility.yul\":2634:2694   */\n    tag_83:\n        /* \"#utility.yul\":2584:2700   */\n      pop\n      jump\t// out\n        /* \"#utility.yul\":2706:2839   */\n    tag_45:\n        /* \"#utility.yul\":2749:2754   */\n      0x00\n        /* \"#utility.yul\":2787:2793   */\n      dup2\n        /* \"#utility.yul\":2774:2794   */\n      calldataload\n        /* \"#utility.yul\":2765:2794   */\n      swap1\n      pop\n        /* \"#utility.yul\":2803:2833   */\n      tag_85\n        /* \"#utility.yul\":2827:2832   */\n      dup2\n        /* \"#utility.yul\":2803:2833   */\n      tag_44\n      jump\t// in\n    tag_85:\n        /* \"#utility.yul\":2706:2839   */\n      swap3\n      swap2\n      pop\n      pop\n      jump\t// out\n        /* \"#utility.yul\":2845:3307   */\n    tag_19:\n        /* \"#utility.yul\":2907:2913   */\n      0x00\n        /* \"#utility.yul\":2915:2921   */\n      0x00\n        /* \"#utility.yul\":2964:2966   */\n      0x40\n        /* \"#utility.yul\":2952:2961   */\n      dup4\n        /* \"#utility.yul\":2943:2950   */\n      dup6\n        /* \"#utility.yul\":2939:2962   */\n      sub\n        /* \"#utility.yul\":2935:2967   */\n      slt\n        /* \"#utility.yul\":2932:3051   */\n      iszero\n      tag_87\n      jumpi\n        /* \"#utility.yul\":2970:3049   */\n      tag_88\n      tag_33\n      jump\t// in\n    tag_88:\n        /* \"#utility.yul\":2932:3051   */\n    tag_87:\n        /* \"#utility.yul\":3090:3091   */\n      0x00\n        /* \"#utility.yul\":3115:3165   */\n      tag_89\n        /* \"#utility.yul\":3157:3164   */\n      dup6\n        /* \"#utility.yul\":3148:3154   */\n      dup3\n        /* \"#utility.yul\":3137:3146   */\n      dup7\n        /* \"#utility.yul\":3133:3155   */\n      add\n        /* \"#utility.yul\":3115:3165   */\n      tag_45\n      jump\t// in\n    tag_89:\n        /* \"#utility.yul\":3105:3165   */\n      swap3\n      pop\n        /* \"#utility.yul\":3061:3175   */\n      pop\n        /* \"#utility.yul\":3214:3216   */\n      0x20\n        /* \"#utility.yul\":3240:3290   */\n      tag_90\n        /* \"#utility.yul\":3282:3289   */\n      dup6\n        /* \"#utility.yul\":3273:3279   */\n      dup3\n        /* \"#utility.yul\":3262:3271   */\n      dup7\n        /* \"#utility.yul\":3258:3280   */\n      add\n        /* \"#utility.yul\":3240:3290   */\n      tag_45\n      jump\t// in\n    tag_90:\n        /* \"#utility.yul\":3230:3290   */\n      swap2\n      pop\n        /* \"#utility.yul\":3185:3300   */\n      pop\n        /* \"#utility.yul\":2845:3307   */\n      swap3\n      pop\n      swap3\n      swap1\n      pop\n      jump\t// out\n        /* \"#utility.yul\":3313:3493   */\n    tag_46:\n        /* \"#utility.yul\":3361:3438   */\n      0x4e487b7100000000000000000000000000000000000000000000000000000000\n        /* \"#utility.yul\":3358:3359   */\n      0x00\n        /* \"#utility.yul\":3351:3439   */\n      mstore\n        /* \"#utility.yul\":3458:3462   */\n      0x12\n        /* \"#utility.yul\":3455:3456   */\n      0x04\n        /* \"#utility.yul\":3448:3463   */\n      mstore\n        /* \"#utility.yul\":3482:3486   */\n      0x24\n        /* \"#utility.yul\":3479:3480   */\n      0x00\n        /* \"#utility.yul\":3472:3487   */\n      revert\n        /* \"#utility.yul\":3685:3870   */\n    tag_28:\n        /* \"#utility.yul\":3725:3726   */\n      0x00\n        /* \"#utility.yul\":3742:3762   */\n      tag_94\n        /* \"#utility.yul\":3760:3761   */\n      dup3\n        /* \"#utility.yul\":3742:3762   */\n      tag_39\n      jump\t// in\n    tag_94:\n        /* \"#utility.yul\":3737:3762   */\n      swap2\n      pop\n        /* \"#utility.yul\":3776:3796   */\n      tag_95\n        /* \"#utility.yul\":3794:3795   */\n      dup4\n        /* \"#utility.yul\":3776:3796   */\n      tag_39\n      jump\t// in\n    tag_95:\n        /* \"#utility.yul\":3771:3796   */\n      swap3\n      pop\n        /* \"#utility.yul\":3815:3816   */\n      dup3\n        /* \"#utility.yul\":3805:3840   */\n      tag_96\n      jumpi\n        /* \"#utility.yul\":3820:3838   */\n      tag_97\n      tag_46\n      jump\t// in\n    tag_97:\n        /* \"#utility.yul\":3805:3840   */\n    tag_96:\n        /* \"#utility.yul\":3862:3863   */\n      dup3\n        /* \"#utility.yul\":3859:3860   */\n      dup3\n        /* \"#utility.yul\":3855:3864   */\n      div\n        /* \"#utility.yul\":3850:3864   */\n      swap1\n      pop\n        /* \"#utility.yul\":3685:3870   */\n      swap3\n      swap2\n      pop\n      pop\n      jump\t// out\n\n    auxdata: 0xa264697066735822122050cb78736afb9427ccdaedc7ee0c7e2a8cee06398eee5d0a06463e2320fcefe764736f6c63430008220033\n}\n",
				"bytecode": {
					"linkReferences": {},
					"object": "6080604052348015600e575f5ffd5b506103a48061001c5f395ff3fe608060405234801561000f575f5ffd5b506004361061003f575f3560e01c8063423f6cef146100435780635dd57c4d14610073578063db98ff8d146100a3575b5f5ffd5b61005d600480360381019061005891906101fa565b6100d3565b60405161006a9190610252565b60405180910390f35b61008d6004803603810190610088919061026b565b610123565b60405161009a9190610252565b60405180910390f35b6100bd60048036038101906100b891906102d3565b610157565b6040516100ca9190610252565b60405180910390f35b5f5f73ffffffffffffffffffffffffffffffffffffffff168373ffffffffffffffffffffffffffffffffffffffff161415801561010f57505f82115b801561011b5750814710155b905092915050565b5f5f831415801561013f57506005838361013d919061033e565b115b1561014d5760019050610151565b5f90505b92915050565b5f82806101615750815b905092915050565b5f5ffd5b5f73ffffffffffffffffffffffffffffffffffffffff82169050919050565b5f6101968261016d565b9050919050565b6101a68161018c565b81146101b0575f5ffd5b50565b5f813590506101c18161019d565b92915050565b5f819050919050565b6101d9816101c7565b81146101e3575f5ffd5b50565b5f813590506101f4816101d0565b92915050565b5f5f604083850312156102105761020f610169565b5b5f61021d858286016101b3565b925050602061022e858286016101e6565b9150509250929050565b5f8115159050919050565b61024c81610238565b82525050565b5f6020820190506102655f830184610243565b92915050565b5f5f6040838503121561028157610280610169565b5b5f61028e858286016101e6565b925050602061029f858286016101e6565b9150509250929050565b6102b281610238565b81146102bc575f5ffd5b50565b5f813590506102cd816102a9565b92915050565b5f5f604083850312156102e9576102e8610169565b5b5f6102f6858286016102bf565b9250506020610307858286016102bf565b9150509250929050565b7f4e487b71000000000000000000000000000000000000000000000000000000005f52601260045260245ffd5b5f610348826101c7565b9150610353836101c7565b92508261036357610362610311565b5b82820490509291505056fea264697066735822122050cb78736afb9427ccdaedc7ee0c7e2a8cee06398eee5d0a06463e2320fcefe764736f6c63430008220033",
					"opcodes": "PUSH1 0x80 PUSH1 0x40 MSTORE CALLVALUE DUP1 ISZERO PUSH1 0xE JUMPI PUSH0 PUSH0 REVERT JUMPDEST POP PUSH2 0x3A4 DUP1 PUSH2 0x1C PUSH0 CODECOPY PUSH0 RETURN INVALID PUSH1 0x80 PUSH1 0x40 MSTORE CALLVALUE DUP1 ISZERO PUSH2 0xF JUMPI PUSH0 PUSH0 REVERT JUMPDEST POP PUSH1 0x4 CALLDATASIZE LT PUSH2 0x3F JUMPI PUSH0 CALLDATALOAD PUSH1 0xE0 SHR DUP1 PUSH4 0x423F6CEF EQ PUSH2 0x43 JUMPI DUP1 PUSH4 0x5DD57C4D EQ PUSH2 0x73 JUMPI DUP1 PUSH4 0xDB98FF8D EQ PUSH2 0xA3 JUMPI JUMPDEST PUSH0 PUSH0 REVERT JUMPDEST PUSH2 0x5D PUSH1 0x4 DUP1 CALLDATASIZE SUB DUP2 ADD SWAP1 PUSH2 0x58 SWAP2 SWAP1 PUSH2 0x1FA JUMP JUMPDEST PUSH2 0xD3 JUMP JUMPDEST PUSH1 0x40 MLOAD PUSH2 0x6A SWAP2 SWAP1 PUSH2 0x252 JUMP JUMPDEST PUSH1 0x40 MLOAD DUP1 SWAP2 SUB SWAP1 RETURN JUMPDEST PUSH2 0x8D PUSH1 0x4 DUP1 CALLDATASIZE SUB DUP2 ADD SWAP1 PUSH2 0x88 SWAP2 SWAP1 PUSH2 0x26B JUMP JUMPDEST PUSH2 0x123 JUMP JUMPDEST PUSH1 0x40 MLOAD PUSH2 0x9A SWAP2 SWAP1 PUSH2 0x252 JUMP JUMPDEST PUSH1 0x40 MLOAD DUP1 SWAP2 SUB SWAP1 RETURN JUMPDEST PUSH2 0xBD PUSH1 0x4 DUP1 CALLDATASIZE SUB DUP2 ADD SWAP1 PUSH2 0xB8 SWAP2 SWAP1 PUSH2 0x2D3 JUMP JUMPDEST PUSH2 0x157 JUMP JUMPDEST PUSH1 0x40 MLOAD PUSH2 0xCA SWAP2 SWAP1 PUSH2 0x252 JUMP JUMPDEST PUSH1 0x40 MLOAD DUP1 SWAP2 SUB SWAP1 RETURN JUMPDEST PUSH0 PUSH0 PUSH20 0xFFFFFFFFFFFFFFFFFFFFFFFFFFFFFFFFFFFFFFFF AND DUP4 PUSH20 0xFFFFFFFFFFFFFFFFFFFFFFFFFFFFFFFFFFFFFFFF AND EQ ISZERO DUP1 ISZERO PUSH2 0x10F JUMPI POP PUSH0 DUP3 GT JUMPDEST DUP1 ISZERO PUSH2 0x11B JUMPI POP DUP2 SELFBALANCE LT ISZERO JUMPDEST SWAP1 POP SWAP3 SWAP2 POP POP JUMP JUMPDEST PUSH0 PUSH0 DUP4 EQ ISZERO DUP1 ISZERO PUSH2 0x13F JUMPI POP PUSH1 0x5 DUP4 DUP4 PUSH2 0x13D SWAP2 SWAP1 PUSH2 0x33E JUMP JUMPDEST GT JUMPDEST ISZERO PUSH2 0x14D JUMPI PUSH1 0x1 SWAP1 POP PUSH2 0x151 JUMP JUMPDEST PUSH0 SWAP1 POP JUMPDEST SWAP3 SWAP2 POP POP JUMP JUMPDEST PUSH0 DUP3 DUP1 PUSH2 0x161 JUMPI POP DUP2 JUMPDEST SWAP1 POP SWAP3 SWAP2 POP POP JUMP JUMPDEST PUSH0 PUSH0 REVERT JUMPDEST PUSH0 PUSH20 0xFFFFFFFFFFFFFFFFFFFFFFFFFFFFFFFFFFFFFFFF DUP3 AND SWAP1 POP SWAP2 SWAP1 POP JUMP JUMPDEST PUSH0 PUSH2 0x196 DUP3 PUSH2 0x16D JUMP JUMPDEST SWAP1 POP SWAP2 SWAP1 POP JUMP JUMPDEST PUSH2 0x1A6 DUP2 PUSH2 0x18C JUMP JUMPDEST DUP2 EQ PUSH2 0x1B0 JUMPI PUSH0 PUSH0 REVERT JUMPDEST POP JUMP JUMPDEST PUSH0 DUP2 CALLDATALOAD SWAP1 POP PUSH2 0x1C1 DUP2 PUSH2 0x19D JUMP JUMPDEST SWAP3 SWAP2 POP POP JUMP JUMPDEST PUSH0 DUP2 SWAP1 POP SWAP2 SWAP1 POP JUMP JUMPDEST PUSH2 0x1D9 DUP2 PUSH2 0x1C7 JUMP JUMPDEST DUP2 EQ PUSH2 0x1E3 JUMPI PUSH0 PUSH0 REVERT JUMPDEST POP JUMP JUMPDEST PUSH0 DUP2 CALLDATALOAD SWAP1 POP PUSH2 0x1F4 DUP2 PUSH2 0x1D0 JUMP JUMPDEST SWAP3 SWAP2 POP POP JUMP JUMPDEST PUSH0 PUSH0 PUSH1 0x40 DUP4 DUP6 SUB SLT ISZERO PUSH2 0x210 JUMPI PUSH2 0x20F PUSH2 0x169 JUMP JUMPDEST JUMPDEST PUSH0 PUSH2 0x21D DUP6 DUP3 DUP7 ADD PUSH2 0x1B3 JUMP JUMPDEST SWAP3 POP POP PUSH1 0x20 PUSH2 0x22E DUP6 DUP3 DUP7 ADD PUSH2 0x1E6 JUMP JUMPDEST SWAP2 POP POP SWAP3 POP SWAP3 SWAP1 POP JUMP JUMPDEST PUSH0 DUP2 ISZERO ISZERO SWAP1 POP SWAP2 SWAP1 POP JUMP JUMPDEST PUSH2 0x24C DUP2 PUSH2 0x238 JUMP JUMPDEST DUP3 MSTORE POP POP JUMP JUMPDEST PUSH0 PUSH1 0x20 DUP3 ADD SWAP1 POP PUSH2 0x265 PUSH0 DUP4 ADD DUP5 PUSH2 0x243 JUMP JUMPDEST SWAP3 SWAP2 POP POP JUMP JUMPDEST PUSH0 PUSH0 PUSH1 0x40 DUP4 DUP6 SUB SLT ISZERO PUSH2 0x281 JUMPI PUSH2 0x280 PUSH2 0x169 JUMP JUMPDEST JUMPDEST PUSH0 PUSH2 0x28E DUP6 DUP3 DUP7 ADD PUSH2 0x1E6 JUMP JUMPDEST SWAP3 POP POP PUSH1 0x20 PUSH2 0x29F DUP6 DUP3 DUP7 ADD PUSH2 0x1E6 JUMP JUMPDEST SWAP2 POP POP SWAP3 POP SWAP3 SWAP1 POP JUMP JUMPDEST PUSH2 0x2B2 DUP2 PUSH2 0x238 JUMP JUMPDEST DUP2 EQ PUSH2 0x2BC JUMPI PUSH0 PUSH0 REVERT JUMPDEST POP JUMP JUMPDEST PUSH0 DUP2 CALLDATALOAD SWAP1 POP PUSH2 0x2CD DUP2 PUSH2 0x2A9 JUMP JUMPDEST SWAP3 SWAP2 POP POP JUMP JUMPDEST PUSH0 PUSH0 PUSH1 0x40 DUP4 DUP6 SUB SLT ISZERO PUSH2 0x2E9 JUMPI PUSH2 0x2E8 PUSH2 0x169 JUMP JUMPDEST JUMPDEST PUSH0 PUSH2 0x2F6 DUP6 DUP3 DUP7 ADD PUSH2 0x2BF JUMP JUMPDEST SWAP3 POP POP PUSH1 0x20 PUSH2 0x307 DUP6 DUP3 DUP7 ADD PUSH2 0x2BF JUMP JUMPDEST SWAP2 POP POP SWAP3 POP SWAP3 SWAP1 POP JUMP JUMPDEST PUSH32 0x4E487B7100000000000000000000000000000000000000000000000000000000 PUSH0 MSTORE PUSH1 0x12 PUSH1 0x4 MSTORE PUSH1 0x24 PUSH0 REVERT JUMPDEST PUSH0 PUSH2 0x348 DUP3 PUSH2 0x1C7 JUMP JUMPDEST SWAP2 POP PUSH2 0x353 DUP4 PUSH2 0x1C7 JUMP JUMPDEST SWAP3 POP DUP3 PUSH2 0x363 JUMPI PUSH2 0x362 PUSH2 0x311 JUMP JUMPDEST JUMPDEST DUP3 DUP3 DIV SWAP1 POP SWAP3 SWAP2 POP POP JUMP INVALID LOG2 PUSH5 0x6970667358 0x22 SLT KECCAK256 POP 0xCB PUSH25 0x736AFB9427CCDAEDC7EE0C7E2A8CEE06398EEE5D0A06463E23 KECCAK256 0xFC 0xEF SWAPN 0x64 PUSH20 0x6F6C634300082200330000000000000000000000 "
				},
				"gasEstimates": {
					"creation": {
						"codeDepositCost": "186400",
						"executionCost": "230",
						"totalCost": "186630"
					},
					"external": {
						"andShortCircuit(uint256,uint256)": "infinite",
						"orShortCircuit(bool,bool)": "infinite",
						"safeTransfer(address,uint256)": "881"
					}
				},
				"methodIdentifiers": {
					"andShortCircuit(uint256,uint256)": "5dd57c4d",
					"orShortCircuit(bool,bool)": "db98ff8d",
					"safeTransfer(address,uint256)": "423f6cef"
				}
			},
			"storageLayout": {
				"storage": [],
				"types": null
			},
			"userdoc": {
				"kind": "user",
				"methods": {},
				"version": 1
			}
		}
	}
}