{
	"contracts/3.1/04ArrayRemoval/UnOrderRemoval.sol": {
		"UnOrderRemoval": {
			"abi": [
				{
					"inputs": [],
					"name": "getAllElement",
					"outputs": [
						{
							"internalType": "uint256[]",
							"name": "",
							"type": "uint256[]"
						}
					],
					"stateMutability": "view",
					"type": "function"
				},
				{
					"inputs": [
						{
							"internalType": "uint256",
							"name": "",
							"type": "uint256"
						}
					],
					"name": "numbers",
					"outputs": [
						{
							"internalType": "uint256",
							"name": "",
							"type": "uint256"
						}
					],
					"stateMutability": "view",
					"type": "function"
				},
				{
					"inputs": [
						{
							"internalType": "uint256",
							"name": "index",
							"type": "uint256"
						}
					],
					"name": "unOrderRemoval",
					"outputs": [
						{
							"internalType": "uint256[]",
							"name": "",
							"type": "uint256[]"
						}
					],
					"stateMutability": "nonpayable",
					"type": "function"
				}
			],
			"devdoc": {
				"kind": "dev",
				"methods": {},
				"version": 1
			},
			"evm": {
				"assembly": "    /* \"contracts/3.1/04ArrayRemoval/UnOrderRemoval.sol\":58:479  contract UnOrderRemoval{... */\n  mstore(0x40, 0x80)\n    /* \"contracts/3.1/04ArrayRemoval/UnOrderRemoval.sol\":88:121  uint[] public numbers=[1,2,3,4,5] */\n  mload(0x40)\n  dup1\n  0xa0\n  add\n  0x40\n  mstore\n  dup1\n    /* \"contracts/3.1/04ArrayRemoval/UnOrderRemoval.sol\":111:112  1 */\n  0x01\n    /* \"contracts/3.1/04ArrayRemoval/UnOrderRemoval.sol\":88:121  uint[] public numbers=[1,2,3,4,5] */\n  0xff\n  and\n  dup2\n  mstore\n  0x20\n  add\n    /* \"contracts/3.1/04ArrayRemoval/UnOrderRemoval.sol\":113:114  2 */\n  0x02\n    /* \"contracts/3.1/04ArrayRemoval/UnOrderRemoval.sol\":88:121  uint[] public numbers=[1,2,3,4,5] */\n  0xff\n  and\n  dup2\n  mstore\n  0x20\n  add\n    /* \"contracts/3.1/04ArrayRemoval/UnOrderRemoval.sol\":115:116  3 */\n  0x03\n    /* \"contracts/3.1/04ArrayRemoval/UnOrderRemoval.sol\":88:121  uint[] public numbers=[1,2,3,4,5] */\n  0xff\n  and\n  dup2\n  mstore\n  0x20\n  add\n    /* \"contracts/3.1/04ArrayRemoval/UnOrderRemoval.sol\":117:118  4 */\n  0x04\n    /* \"contracts/3.1/04ArrayRemoval/UnOrderRemoval.sol\":88:121  uint[] public numbers=[1,2,3,4,5] */\n  0xff\n  and\n  dup2\n  mstore\n  0x20\n  add\n    /* \"contracts/3.1/04ArrayRemoval/UnOrderRemoval.sol\":119:120  5 */\n  0x05\n    /* \"contracts/3.1/04ArrayRemoval/UnOrderRemoval.sol\":88:121  uint[] public numbers=[1,2,3,4,5] */\n  0xff\n  and\n  dup2\n  mstore\n  pop\n  0x00\n  swap1\n  dup2\n  tag_1\n  swap2\n  swap1\n  tag_2\n  jump\t// in\ntag_1:\n  pop\n    /* \"contracts/3.1/04ArrayRemoval/UnOrderRemoval.sol\":58:479  contract UnOrderRemoval{... */\n  callvalue\n  dup1\n  iszero\n  tag_3\n  jumpi\n  revert(0x00, 0x00)\ntag_3:\n  pop\n  jump(tag_4)\n    /* \"#utility.yul\":7:187   */\ntag_5:\n    /* \"#utility.yul\":55:132   */\n  0x4e487b7100000000000000000000000000000000000000000000000000000000\n    /* \"#utility.yul\":52:53   */\n  0x00\n    /* \"#utility.yul\":45:133   */\n  mstore\n    /* \"#utility.yul\":152:156   */\n  0x41\n    /* \"#utility.yul\":149:150   */\n  0x04\n    /* \"#utility.yul\":142:157   */\n  mstore\n    /* \"#utility.yul\":176:180   */\n  0x24\n    /* \"#utility.yul\":173:174   */\n  0x00\n    /* \"#utility.yul\":166:181   */\n  revert\n    /* \"#utility.yul\":193:304   */\ntag_6:\n    /* \"#utility.yul\":257:263   */\n  0x00\n    /* \"#utility.yul\":291:296   */\n  dup2\n    /* \"#utility.yul\":285:297   */\n  sload\n    /* \"#utility.yul\":275:297   */\n  swap1\n  pop\n    /* \"#utility.yul\":193:304   */\n  swap2\n  swap1\n  pop\n  jump\t// out\n    /* \"#utility.yul\":310:387   */\ntag_7:\n    /* \"#utility.yul\":347:354   */\n  0x00\n    /* \"#utility.yul\":376:381   */\n  dup2\n    /* \"#utility.yul\":365:381   */\n  swap1\n  pop\n    /* \"#utility.yul\":310:387   */\n  swap2\n  swap1\n  pop\n  jump\t// out\n    /* \"#utility.yul\":995:1198   */\ntag_10:\n    /* \"#utility.yul\":1076:1080   */\n  0x00\n    /* \"#utility.yul\":1099:1105   */\n  dup2\n    /* \"#utility.yul\":1091:1105   */\n  swap1\n  pop\n    /* \"#utility.yul\":1189:1190   */\n  0x01\n    /* \"#utility.yul\":1184:1185   */\n  dup1\n    /* \"#utility.yul\":1181:1182   */\n  0x01\n    /* \"#utility.yul\":1177:1186   */\n  sub\n    /* \"#utility.yul\":1169:1175   */\n  dup4\n    /* \"#utility.yul\":1165:1187   */\n  add\n    /* \"#utility.yul\":1161:1191   */\n  div\n    /* \"#utility.yul\":1153:1191   */\n  swap1\n  pop\n    /* \"#utility.yul\":995:1198   */\n  swap2\n  swap1\n  pop\n  jump\t// out\n    /* \"#utility.yul\":1203:1359   */\ntag_11:\n    /* \"#utility.yul\":1267:1271   */\n  0x00\n    /* \"#utility.yul\":1290:1293   */\n  dup2\n    /* \"#utility.yul\":1282:1293   */\n  swap1\n  pop\n    /* \"#utility.yul\":1313:1316   */\n  dup2\n    /* \"#utility.yul\":1310:1311   */\n  0x00\n    /* \"#utility.yul\":1303:1317   */\n  mstore\n    /* \"#utility.yul\":1347:1351   */\n  0x20\n    /* \"#utility.yul\":1344:1345   */\n  0x00\n    /* \"#utility.yul\":1334:1352   */\n  keccak256\n    /* \"#utility.yul\":1326:1352   */\n  swap1\n  pop\n    /* \"#utility.yul\":1203:1359   */\n  swap2\n  swap1\n  pop\n  jump\t// out\n    /* \"#utility.yul\":1365:1472   */\ntag_12:\n    /* \"#utility.yul\":1409:1417   */\n  0x00\n    /* \"#utility.yul\":1459:1464   */\n  dup3\n    /* \"#utility.yul\":1453:1457   */\n  dup3\n    /* \"#utility.yul\":1449:1465   */\n  shl\n    /* \"#utility.yul\":1428:1465   */\n  swap1\n  pop\n    /* \"#utility.yul\":1365:1472   */\n  swap3\n  swap2\n  pop\n  pop\n  jump\t// out\n    /* \"#utility.yul\":1478:1871   */\ntag_13:\n    /* \"#utility.yul\":1547:1553   */\n  0x00\n    /* \"#utility.yul\":1597:1598   */\n  0x08\n    /* \"#utility.yul\":1585:1595   */\n  dup4\n    /* \"#utility.yul\":1581:1599   */\n  mul\n    /* \"#utility.yul\":1620:1717   */\n  tag_47\n    /* \"#utility.yul\":1650:1716   */\n  0xffffffffffffffffffffffffffffffffffffffffffffffffffffffffffffffff\n    /* \"#utility.yul\":1639:1648   */\n  dup3\n    /* \"#utility.yul\":1620:1717   */\n  tag_12\n  jump\t// in\ntag_47:\n    /* \"#utility.yul\":1738:1777   */\n  tag_48\n    /* \"#utility.yul\":1768:1776   */\n  dup7\n    /* \"#utility.yul\":1757:1766   */\n  dup4\n    /* \"#utility.yul\":1738:1777   */\n  tag_12\n  jump\t// in\ntag_48:\n    /* \"#utility.yul\":1726:1777   */\n  swap6\n  pop\n    /* \"#utility.yul\":1810:1814   */\n  dup1\n    /* \"#utility.yul\":1806:1815   */\n  not\n    /* \"#utility.yul\":1799:1804   */\n  dup5\n    /* \"#utility.yul\":1795:1816   */\n  and\n    /* \"#utility.yul\":1786:1816   */\n  swap4\n  pop\n    /* \"#utility.yul\":1859:1863   */\n  dup1\n    /* \"#utility.yul\":1849:1857   */\n  dup7\n    /* \"#utility.yul\":1845:1864   */\n  and\n    /* \"#utility.yul\":1838:1843   */\n  dup5\n    /* \"#utility.yul\":1835:1865   */\n  or\n    /* \"#utility.yul\":1825:1865   */\n  swap3\n  pop\n    /* \"#utility.yul\":1554:1871   */\n  pop\n  pop\n    /* \"#utility.yul\":1478:1871   */\n  swap4\n  swap3\n  pop\n  pop\n  pop\n  jump\t// out\n    /* \"#utility.yul\":1877:1937   */\ntag_14:\n    /* \"#utility.yul\":1905:1908   */\n  0x00\n    /* \"#utility.yul\":1926:1931   */\n  dup2\n    /* \"#utility.yul\":1919:1931   */\n  swap1\n  pop\n    /* \"#utility.yul\":1877:1937   */\n  swap2\n  swap1\n  pop\n  jump\t// out\n    /* \"#utility.yul\":1943:2085   */\ntag_15:\n    /* \"#utility.yul\":1993:2002   */\n  0x00\n    /* \"#utility.yul\":2026:2079   */\n  tag_51\n    /* \"#utility.yul\":2044:2078   */\n  tag_52\n    /* \"#utility.yul\":2053:2077   */\n  tag_53\n    /* \"#utility.yul\":2071:2076   */\n  dup5\n    /* \"#utility.yul\":2053:2077   */\n  tag_7\n  jump\t// in\ntag_53:\n    /* \"#utility.yul\":2044:2078   */\n  tag_14\n  jump\t// in\ntag_52:\n    /* \"#utility.yul\":2026:2079   */\n  tag_7\n  jump\t// in\ntag_51:\n    /* \"#utility.yul\":2013:2079   */\n  swap1\n  pop\n    /* \"#utility.yul\":1943:2085   */\n  swap2\n  swap1\n  pop\n  jump\t// out\n    /* \"#utility.yul\":2091:2166   */\ntag_16:\n    /* \"#utility.yul\":2134:2137   */\n  0x00\n    /* \"#utility.yul\":2155:2160   */\n  dup2\n    /* \"#utility.yul\":2148:2160   */\n  swap1\n  pop\n    /* \"#utility.yul\":2091:2166   */\n  swap2\n  swap1\n  pop\n  jump\t// out\n    /* \"#utility.yul\":2172:2441   */\ntag_17:\n    /* \"#utility.yul\":2282:2321   */\n  tag_56\n    /* \"#utility.yul\":2313:2320   */\n  dup4\n    /* \"#utility.yul\":2282:2321   */\n  tag_15\n  jump\t// in\ntag_56:\n    /* \"#utility.yul\":2343:2434   */\n  tag_57\n    /* \"#utility.yul\":2392:2433   */\n  tag_58\n    /* \"#utility.yul\":2416:2432   */\n  dup3\n    /* \"#utility.yul\":2392:2433   */\n  tag_16\n  jump\t// in\ntag_58:\n    /* \"#utility.yul\":2384:2390   */\n  dup5\n    /* \"#utility.yul\":2377:2381   */\n  dup5\n    /* \"#utility.yul\":2371:2382   */\n  sload\n    /* \"#utility.yul\":2343:2434   */\n  tag_13\n  jump\t// in\ntag_57:\n    /* \"#utility.yul\":2337:2341   */\n  dup3\n    /* \"#utility.yul\":2330:2435   */\n  sstore\n    /* \"#utility.yul\":2248:2441   */\n  pop\n    /* \"#utility.yul\":2172:2441   */\n  pop\n  pop\n  pop\n  jump\t// out\n    /* \"#utility.yul\":2447:2520   */\ntag_18:\n    /* \"#utility.yul\":2492:2495   */\n  0x00\n    /* \"#utility.yul\":2513:2514   */\n  0x00\n    /* \"#utility.yul\":2506:2514   */\n  swap1\n  pop\n    /* \"#utility.yul\":2447:2520   */\n  swap1\n  jump\t// out\n    /* \"#utility.yul\":2526:2715   */\ntag_19:\n    /* \"#utility.yul\":2603:2635   */\n  tag_61\n  tag_18\n  jump\t// in\ntag_61:\n    /* \"#utility.yul\":2644:2709   */\n  tag_62\n    /* \"#utility.yul\":2702:2708   */\n  dup2\n    /* \"#utility.yul\":2694:2700   */\n  dup5\n    /* \"#utility.yul\":2688:2692   */\n  dup5\n    /* \"#utility.yul\":2644:2709   */\n  tag_17\n  jump\t// in\ntag_62:\n    /* \"#utility.yul\":2579:2715   */\n  pop\n    /* \"#utility.yul\":2526:2715   */\n  pop\n  pop\n  jump\t// out\n    /* \"#utility.yul\":2721:2936   */\ntag_20:\n    /* \"#utility.yul\":2807:2808   */\n  0x00\n    /* \"#utility.yul\":2792:2930   */\ntag_64:\n    /* \"#utility.yul\":2817:2826   */\n  dup3\n    /* \"#utility.yul\":2814:2815   */\n  dup2\n    /* \"#utility.yul\":2811:2827   */\n  lt\n    /* \"#utility.yul\":2792:2930   */\n  iszero\n  tag_66\n  jumpi\n    /* \"#utility.yul\":2869:2920   */\n  tag_67\n    /* \"#utility.yul\":2918:2919   */\n  0x00\n    /* \"#utility.yul\":2914:2915   */\n  dup3\n    /* \"#utility.yul\":2903:2912   */\n  dup5\n    /* \"#utility.yul\":2899:2916   */\n  add\n    /* \"#utility.yul\":2869:2920   */\n  tag_19\n  jump\t// in\ntag_67:\n    /* \"#utility.yul\":2842:2843   */\n  0x01\n    /* \"#utility.yul\":2839:2840   */\n  dup2\n    /* \"#utility.yul\":2835:2844   */\n  add\n    /* \"#utility.yul\":2830:2844   */\n  swap1\n  pop\n    /* \"#utility.yul\":2792:2930   */\n  jump(tag_64)\ntag_66:\n    /* \"#utility.yul\":2796:2810   */\n  pop\n    /* \"#utility.yul\":2721:2936   */\n  pop\n  pop\n  jump\t// out\n    /* \"#utility.yul\":3315:3955   */\ntag_23:\n    /* \"#utility.yul\":3435:3438   */\n  dup2\n    /* \"#utility.yul\":3423:3433   */\n  dup4\n    /* \"#utility.yul\":3420:3439   */\n  lt\n    /* \"#utility.yul\":3417:3948   */\n  iszero\n  tag_72\n  jumpi\n    /* \"#utility.yul\":3526:3591   */\n  tag_73\n    /* \"#utility.yul\":3587:3590   */\n  dup3\n    /* \"#utility.yul\":3526:3591   */\n  tag_10\n  jump\t// in\ntag_73:\n    /* \"#utility.yul\":3624:3696   */\n  tag_74\n    /* \"#utility.yul\":3685:3695   */\n  dup5\n    /* \"#utility.yul\":3624:3696   */\n  tag_10\n  jump\t// in\ntag_74:\n    /* \"#utility.yul\":3731:3784   */\n  tag_75\n    /* \"#utility.yul\":3778:3783   */\n  dup4\n    /* \"#utility.yul\":3731:3784   */\n  tag_11\n  jump\t// in\ntag_75:\n    /* \"#utility.yul\":3836:3848   */\n  dup2\n    /* \"#utility.yul\":3820:3834   */\n  dup2\n    /* \"#utility.yul\":3816:3849   */\n  add\n    /* \"#utility.yul\":3863:3938   */\n  tag_76\n    /* \"#utility.yul\":3924:3936   */\n  dup4\n    /* \"#utility.yul\":3910:3922   */\n  dup6\n    /* \"#utility.yul\":3906:3937   */\n  sub\n    /* \"#utility.yul\":3893:3904   */\n  dup3\n    /* \"#utility.yul\":3863:3938   */\n  tag_20\n  jump\t// in\ntag_76:\n    /* \"#utility.yul\":3440:3948   */\n  pop\n  pop\n  pop\n  pop\n    /* \"#utility.yul\":3417:3948   */\ntag_72:\n    /* \"#utility.yul\":3315:3955   */\n  pop\n  pop\n  pop\n  jump\t// out\n    /* \"#utility.yul\":3961:4349   */\ntag_24:\n    /* \"#utility.yul\":4054:4074   */\n  0x010000000000000000\n    /* \"#utility.yul\":4046:4052   */\n  dup3\n    /* \"#utility.yul\":4043:4075   */\n  gt\n    /* \"#utility.yul\":4040:4118   */\n  iszero\n  tag_78\n  jumpi\n    /* \"#utility.yul\":4090:4108   */\n  tag_79\n  tag_5\n  jump\t// in\ntag_79:\n    /* \"#utility.yul\":4040:4118   */\ntag_78:\n    /* \"#utility.yul\":4142:4193   */\n  tag_80\n    /* \"#utility.yul\":4187:4192   */\n  dup2\n    /* \"#utility.yul\":4142:4193   */\n  tag_6\n  jump\t// in\ntag_80:\n    /* \"#utility.yul\":4245:4251   */\n  dup3\n    /* \"#utility.yul\":4238:4243   */\n  dup3\n    /* \"#utility.yul\":4231:4252   */\n  sstore\n    /* \"#utility.yul\":4262:4342   */\n  tag_81\n    /* \"#utility.yul\":4335:4341   */\n  dup4\n    /* \"#utility.yul\":4327:4333   */\n  dup3\n    /* \"#utility.yul\":4320:4325   */\n  dup5\n    /* \"#utility.yul\":4262:4342   */\n  tag_23\n  jump\t// in\ntag_81:\n    /* \"#utility.yul\":4030:4349   */\n  pop\n    /* \"#utility.yul\":3961:4349   */\n  pop\n  pop\n  jump\t// out\n    /* \"#utility.yul\":4354:4456   */\ntag_25:\n    /* \"#utility.yul\":4417:4423   */\n  0x00\n    /* \"#utility.yul\":4445:4449   */\n  0x05\n    /* \"#utility.yul\":4435:4449   */\n  swap1\n  pop\n    /* \"#utility.yul\":4354:4456   */\n  swap2\n  swap1\n  pop\n  jump\t// out\n    /* \"#utility.yul\":4462:4548   */\ntag_26:\n    /* \"#utility.yul\":4497:4504   */\n  0x00\n    /* \"#utility.yul\":4537:4541   */\n  0xff\n    /* \"#utility.yul\":4530:4535   */\n  dup3\n    /* \"#utility.yul\":4526:4542   */\n  and\n    /* \"#utility.yul\":4515:4542   */\n  swap1\n  pop\n    /* \"#utility.yul\":4462:4548   */\n  swap2\n  swap1\n  pop\n  jump\t// out\n    /* \"#utility.yul\":4554:4704   */\ntag_27:\n    /* \"#utility.yul\":4595:4606   */\n  0x00\n    /* \"#utility.yul\":4631:4658   */\n  tag_85\n    /* \"#utility.yul\":4653:4656   */\n  dup3\n    /* \"#utility.yul\":4647:4657   */\n  mload\n    /* \"#utility.yul\":4631:4658   */\n  tag_26\n  jump\t// in\ntag_85:\n    /* \"#utility.yul\":4692:4697   */\n  dup1\n    /* \"#utility.yul\":4668:4697   */\n  swap2\n  pop\n    /* \"#utility.yul\":4607:4704   */\n  pop\n    /* \"#utility.yul\":4554:4704   */\n  swap2\n  swap1\n  pop\n  jump\t// out\n    /* \"#utility.yul\":4710:4806   */\ntag_28:\n    /* \"#utility.yul\":4773:4777   */\n  0x00\n    /* \"#utility.yul\":4796:4799   */\n  dup2\n    /* \"#utility.yul\":4788:4799   */\n  swap1\n  pop\n    /* \"#utility.yul\":4710:4806   */\n  swap2\n  swap1\n  pop\n  jump\t// out\n    /* \"#utility.yul\":5258:6245   */\ntag_2:\n    /* \"#utility.yul\":5395:5443   */\n  tag_96\n    /* \"#utility.yul\":5439:5442   */\n  dup3\n    /* \"#utility.yul\":5395:5443   */\n  tag_25\n  jump\t// in\ntag_96:\n    /* \"#utility.yul\":5508:5526   */\n  0xffffffffffffffff\n    /* \"#utility.yul\":5500:5506   */\n  dup2\n    /* \"#utility.yul\":5497:5527   */\n  gt\n    /* \"#utility.yul\":5494:5550   */\n  iszero\n  tag_97\n  jumpi\n    /* \"#utility.yul\":5530:5548   */\n  tag_98\n  tag_5\n  jump\t// in\ntag_98:\n    /* \"#utility.yul\":5494:5550   */\ntag_97:\n    /* \"#utility.yul\":5559:5616   */\n  tag_99\n    /* \"#utility.yul\":5609:5615   */\n  dup2\n    /* \"#utility.yul\":5604:5607   */\n  dup4\n    /* \"#utility.yul\":5559:5616   */\n  tag_24\n  jump\t// in\ntag_99:\n    /* \"#utility.yul\":5640:5690   */\n  tag_100\n    /* \"#utility.yul\":5686:5689   */\n  dup4\n    /* \"#utility.yul\":5640:5690   */\n  tag_28\n  jump\t// in\ntag_100:\n    /* \"#utility.yul\":5714:5765   */\n  tag_101\n    /* \"#utility.yul\":5761:5764   */\n  dup4\n    /* \"#utility.yul\":5714:5765   */\n  tag_11\n  jump\t// in\ntag_101:\n    /* \"#utility.yul\":5804:5805   */\n  0x01\n    /* \"#utility.yul\":5796:5802   */\n  dup4\n    /* \"#utility.yul\":5792:5806   */\n  div\n    /* \"#utility.yul\":5831:5832   */\n  0x00\n    /* \"#utility.yul\":5816:6238   */\ntag_102:\n    /* \"#utility.yul\":5841:5850   */\n  dup2\n    /* \"#utility.yul\":5838:5839   */\n  dup2\n    /* \"#utility.yul\":5835:5851   */\n  lt\n    /* \"#utility.yul\":5816:6238   */\n  iszero\n  tag_104\n  jumpi\n    /* \"#utility.yul\":5905:5906   */\n  0x00\n    /* \"#utility.yul\":5958:5989   */\n  tag_105\n    /* \"#utility.yul\":5982:5988   */\n  dup6\n    /* \"#utility.yul\":5958:5989   */\n  tag_27\n  jump\t// in\ntag_105:\n    /* \"#utility.yul\":6024:6060   */\n  tag_106\n    /* \"#utility.yul\":6048:6059   */\n  dup2\n    /* \"#utility.yul\":6024:6060   */\n  tag_16\n  jump\t// in\ntag_106:\n    /* \"#utility.yul\":6110:6119   */\n  dup1\n    /* \"#utility.yul\":6077:6119   */\n  swap3\n  pop\n    /* \"#utility.yul\":6159:6161   */\n  0x20\n    /* \"#utility.yul\":6151:6157   */\n  dup8\n    /* \"#utility.yul\":6147:6162   */\n  add\n    /* \"#utility.yul\":6137:6162   */\n  swap7\n  pop\n    /* \"#utility.yul\":5920:6177   */\n  pop\n  pop\n    /* \"#utility.yul\":6215:6227   */\n  dup1\n    /* \"#utility.yul\":6211:6212   */\n  dup3\n    /* \"#utility.yul\":6202:6209   */\n  dup6\n    /* \"#utility.yul\":6198:6213   */\n  add\n    /* \"#utility.yul\":6191:6228   */\n  sstore\n    /* \"#utility.yul\":5871:6238   */\n  pop\n    /* \"#utility.yul\":5866:5867   */\n  0x01\n    /* \"#utility.yul\":5863:5864   */\n  dup2\n    /* \"#utility.yul\":5859:5868   */\n  add\n    /* \"#utility.yul\":5854:5868   */\n  swap1\n  pop\n    /* \"#utility.yul\":5816:6238   */\n  jump(tag_102)\ntag_104:\n    /* \"#utility.yul\":5820:5834   */\n  pop\n    /* \"#utility.yul\":5370:6245   */\n  pop\n  pop\n  pop\n  pop\n    /* \"#utility.yul\":5258:6245   */\n  pop\n  pop\n  jump\t// out\n    /* \"contracts/3.1/04ArrayRemoval/UnOrderRemoval.sol\":58:479  contract UnOrderRemoval{... */\ntag_4:\n  dataSize(sub_0)\n  dup1\n  dataOffset(sub_0)\n  0x00\n  codecopy\n  0x00\n  return\nstop\n\nsub_0: assembly {\n        /* \"contracts/3.1/04ArrayRemoval/UnOrderRemoval.sol\":58:479  contract UnOrderRemoval{... */\n      mstore(0x40, 0x80)\n      callvalue\n      dup1\n      iszero\n      tag_1\n      jumpi\n      revert(0x00, 0x00)\n    tag_1:\n      pop\n      jumpi(tag_2, lt(calldatasize, 0x04))\n      shr(0xe0, calldataload(0x00))\n      dup1\n      0x38570dfb\n      eq\n      tag_3\n      jumpi\n      dup1\n      0xb76b78fb\n      eq\n      tag_4\n      jumpi\n      dup1\n      0xd39fa233\n      eq\n      tag_5\n      jumpi\n    tag_2:\n      revert(0x00, 0x00)\n        /* \"contracts/3.1/04ArrayRemoval/UnOrderRemoval.sol\":226:476  function unOrderRemoval(uint index) public  returns(uint[] memory){... */\n    tag_3:\n      tag_6\n      0x04\n      dup1\n      calldatasize\n      sub\n      dup2\n      add\n      swap1\n      tag_7\n      swap2\n      swap1\n      tag_8\n      jump\t// in\n    tag_7:\n      tag_9\n      jump\t// in\n    tag_6:\n      mload(0x40)\n      tag_10\n      swap2\n      swap1\n      tag_11\n      jump\t// in\n    tag_10:\n      mload(0x40)\n      dup1\n      swap2\n      sub\n      swap1\n      return\n        /* \"contracts/3.1/04ArrayRemoval/UnOrderRemoval.sol\":128:220  function getAllElement() public view returns(uint[] memory){... */\n    tag_4:\n      tag_12\n      tag_13\n      jump\t// in\n    tag_12:\n      mload(0x40)\n      tag_14\n      swap2\n      swap1\n      tag_11\n      jump\t// in\n    tag_14:\n      mload(0x40)\n      dup1\n      swap2\n      sub\n      swap1\n      return\n        /* \"contracts/3.1/04ArrayRemoval/UnOrderRemoval.sol\":88:121  uint[] public numbers=[1,2,3,4,5] */\n    tag_5:\n      tag_15\n      0x04\n      dup1\n      calldatasize\n      sub\n      dup2\n      add\n      swap1\n      tag_16\n      swap2\n      swap1\n      tag_8\n      jump\t// in\n    tag_16:\n      tag_17\n      jump\t// in\n    tag_15:\n      mload(0x40)\n      tag_18\n      swap2\n      swap1\n      tag_19\n      jump\t// in\n    tag_18:\n      mload(0x40)\n      dup1\n      swap2\n      sub\n      swap1\n      return\n        /* \"contracts/3.1/04ArrayRemoval/UnOrderRemoval.sol\":226:476  function unOrderRemoval(uint index) public  returns(uint[] memory){... */\n    tag_9:\n        /* \"contracts/3.1/04ArrayRemoval/UnOrderRemoval.sol\":278:291  uint[] memory */\n      0x60\n        /* \"contracts/3.1/04ArrayRemoval/UnOrderRemoval.sol\":325:332  numbers */\n      0x00\n        /* \"contracts/3.1/04ArrayRemoval/UnOrderRemoval.sol\":325:339  numbers.length */\n      dup1\n      sload\n      swap1\n      pop\n        /* \"contracts/3.1/04ArrayRemoval/UnOrderRemoval.sol\":319:324  index */\n      dup3\n        /* \"contracts/3.1/04ArrayRemoval/UnOrderRemoval.sol\":319:339  index<numbers.length */\n      lt\n        /* \"contracts/3.1/04ArrayRemoval/UnOrderRemoval.sol\":311:368  require(index<numbers.length,unicode\"数组下标越界\") */\n      tag_21\n      jumpi\n      mload(0x40)\n      0x08c379a000000000000000000000000000000000000000000000000000000000\n      dup2\n      mstore\n      0x04\n      add\n      tag_22\n      swap1\n      tag_23\n      jump\t// in\n    tag_22:\n      mload(0x40)\n      dup1\n      swap2\n      sub\n      swap1\n      revert\n    tag_21:\n        /* \"contracts/3.1/04ArrayRemoval/UnOrderRemoval.sol\":394:401  numbers */\n      0x00\n        /* \"contracts/3.1/04ArrayRemoval/UnOrderRemoval.sol\":417:418  1 */\n      0x01\n        /* \"contracts/3.1/04ArrayRemoval/UnOrderRemoval.sol\":402:409  numbers */\n      0x00\n        /* \"contracts/3.1/04ArrayRemoval/UnOrderRemoval.sol\":402:416  numbers.length */\n      dup1\n      sload\n      swap1\n      pop\n        /* \"contracts/3.1/04ArrayRemoval/UnOrderRemoval.sol\":402:418  numbers.length-1 */\n      tag_24\n      swap2\n      swap1\n      tag_25\n      jump\t// in\n    tag_24:\n        /* \"contracts/3.1/04ArrayRemoval/UnOrderRemoval.sol\":394:419  numbers[numbers.length-1] */\n      dup2\n      sload\n      dup2\n      lt\n      tag_26\n      jumpi\n      tag_27\n      tag_28\n      jump\t// in\n    tag_27:\n    tag_26:\n      swap1\n      0x00\n      mstore\n      keccak256(0x00, 0x20)\n      add\n      sload\n        /* \"contracts/3.1/04ArrayRemoval/UnOrderRemoval.sol\":379:386  numbers */\n      0x00\n        /* \"contracts/3.1/04ArrayRemoval/UnOrderRemoval.sol\":387:392  index */\n      dup4\n        /* \"contracts/3.1/04ArrayRemoval/UnOrderRemoval.sol\":379:393  numbers[index] */\n      dup2\n      sload\n      dup2\n      lt\n      tag_30\n      jumpi\n      tag_31\n      tag_28\n      jump\t// in\n    tag_31:\n    tag_30:\n      swap1\n      0x00\n      mstore\n      keccak256(0x00, 0x20)\n      add\n        /* \"contracts/3.1/04ArrayRemoval/UnOrderRemoval.sol\":379:419  numbers[index]=numbers[numbers.length-1] */\n      dup2\n      swap1\n      sstore\n      pop\n        /* \"contracts/3.1/04ArrayRemoval/UnOrderRemoval.sol\":430:437  numbers */\n      0x00\n        /* \"contracts/3.1/04ArrayRemoval/UnOrderRemoval.sol\":430:443  numbers.pop() */\n      dup1\n      sload\n      dup1\n      tag_33\n      jumpi\n      tag_34\n      tag_35\n      jump\t// in\n    tag_34:\n    tag_33:\n      0x01\n      swap1\n      sub\n      dup2\n      dup2\n      swap1\n      0x00\n      mstore\n      keccak256(0x00, 0x20)\n      add\n      0x00\n      swap1\n      sstore\n      swap1\n      sstore\n        /* \"contracts/3.1/04ArrayRemoval/UnOrderRemoval.sol\":461:468  numbers */\n      0x00\n        /* \"contracts/3.1/04ArrayRemoval/UnOrderRemoval.sol\":454:468  return numbers */\n      dup1\n      sload\n      dup1\n      0x20\n      mul\n      0x20\n      add\n      mload(0x40)\n      swap1\n      dup2\n      add\n      0x40\n      mstore\n      dup1\n      swap3\n      swap2\n      swap1\n      dup2\n      dup2\n      mstore\n      0x20\n      add\n      dup3\n      dup1\n      sload\n      dup1\n      iszero\n      tag_37\n      jumpi\n      0x20\n      mul\n      dup3\n      add\n      swap2\n      swap1\n      0x00\n      mstore\n      keccak256(0x00, 0x20)\n      swap1\n    tag_38:\n      dup2\n      sload\n      dup2\n      mstore\n      0x20\n      add\n      swap1\n      0x01\n      add\n      swap1\n      dup1\n      dup4\n      gt\n      tag_38\n      jumpi\n    tag_37:\n      pop\n      pop\n      pop\n      pop\n      pop\n      swap1\n      pop\n        /* \"contracts/3.1/04ArrayRemoval/UnOrderRemoval.sol\":226:476  function unOrderRemoval(uint index) public  returns(uint[] memory){... */\n      swap2\n      swap1\n      pop\n      jump\t// out\n        /* \"contracts/3.1/04ArrayRemoval/UnOrderRemoval.sol\":128:220  function getAllElement() public view returns(uint[] memory){... */\n    tag_13:\n        /* \"contracts/3.1/04ArrayRemoval/UnOrderRemoval.sol\":173:186  uint[] memory */\n      0x60\n        /* \"contracts/3.1/04ArrayRemoval/UnOrderRemoval.sol\":205:212  numbers */\n      0x00\n        /* \"contracts/3.1/04ArrayRemoval/UnOrderRemoval.sol\":198:212  return numbers */\n      dup1\n      sload\n      dup1\n      0x20\n      mul\n      0x20\n      add\n      mload(0x40)\n      swap1\n      dup2\n      add\n      0x40\n      mstore\n      dup1\n      swap3\n      swap2\n      swap1\n      dup2\n      dup2\n      mstore\n      0x20\n      add\n      dup3\n      dup1\n      sload\n      dup1\n      iszero\n      tag_40\n      jumpi\n      0x20\n      mul\n      dup3\n      add\n      swap2\n      swap1\n      0x00\n      mstore\n      keccak256(0x00, 0x20)\n      swap1\n    tag_41:\n      dup2\n      sload\n      dup2\n      mstore\n      0x20\n      add\n      swap1\n      0x01\n      add\n      swap1\n      dup1\n      dup4\n      gt\n      tag_41\n      jumpi\n    tag_40:\n      pop\n      pop\n      pop\n      pop\n      pop\n      swap1\n      pop\n        /* \"contracts/3.1/04ArrayRemoval/UnOrderRemoval.sol\":128:220  function getAllElement() public view returns(uint[] memory){... */\n      swap1\n      jump\t// out\n        /* \"contracts/3.1/04ArrayRemoval/UnOrderRemoval.sol\":88:121  uint[] public numbers=[1,2,3,4,5] */\n    tag_17:\n      0x00\n      dup2\n      dup2\n      sload\n      dup2\n      lt\n      tag_42\n      jumpi\n      0x00\n      dup1\n      revert\n    tag_42:\n      swap1\n      0x00\n      mstore\n      keccak256(0x00, 0x20)\n      add\n      0x00\n      swap2\n      pop\n      swap1\n      pop\n      sload\n      dup2\n      jump\t// out\n        /* \"#utility.yul\":88:205   */\n    tag_45:\n        /* \"#utility.yul\":197:198   */\n      0x00\n        /* \"#utility.yul\":194:195   */\n      0x00\n        /* \"#utility.yul\":187:199   */\n      revert\n        /* \"#utility.yul\":334:411   */\n    tag_47:\n        /* \"#utility.yul\":371:378   */\n      0x00\n        /* \"#utility.yul\":400:405   */\n      dup2\n        /* \"#utility.yul\":389:405   */\n      swap1\n      pop\n        /* \"#utility.yul\":334:411   */\n      swap2\n      swap1\n      pop\n      jump\t// out\n        /* \"#utility.yul\":417:539   */\n    tag_48:\n        /* \"#utility.yul\":490:514   */\n      tag_68\n        /* \"#utility.yul\":508:513   */\n      dup2\n        /* \"#utility.yul\":490:514   */\n      tag_47\n      jump\t// in\n    tag_68:\n        /* \"#utility.yul\":483:488   */\n      dup2\n        /* \"#utility.yul\":480:515   */\n      eq\n        /* \"#utility.yul\":470:533   */\n      tag_69\n      jumpi\n        /* \"#utility.yul\":529:530   */\n      0x00\n        /* \"#utility.yul\":526:527   */\n      0x00\n        /* \"#utility.yul\":519:531   */\n      revert\n        /* \"#utility.yul\":470:533   */\n    tag_69:\n        /* \"#utility.yul\":417:539   */\n      pop\n      jump\t// out\n        /* \"#utility.yul\":545:684   */\n    tag_49:\n        /* \"#utility.yul\":591:596   */\n      0x00\n        /* \"#utility.yul\":629:635   */\n      dup2\n        /* \"#utility.yul\":616:636   */\n      calldataload\n        /* \"#utility.yul\":607:636   */\n      swap1\n      pop\n        /* \"#utility.yul\":645:678   */\n      tag_71\n        /* \"#utility.yul\":672:677   */\n      dup2\n        /* \"#utility.yul\":645:678   */\n      tag_48\n      jump\t// in\n    tag_71:\n        /* \"#utility.yul\":545:684   */\n      swap3\n      swap2\n      pop\n      pop\n      jump\t// out\n        /* \"#utility.yul\":690:1019   */\n    tag_8:\n        /* \"#utility.yul\":749:755   */\n      0x00\n        /* \"#utility.yul\":798:800   */\n      0x20\n        /* \"#utility.yul\":786:795   */\n      dup3\n        /* \"#utility.yul\":777:784   */\n      dup5\n        /* \"#utility.yul\":773:796   */\n      sub\n        /* \"#utility.yul\":769:801   */\n      slt\n        /* \"#utility.yul\":766:885   */\n      iszero\n      tag_73\n      jumpi\n        /* \"#utility.yul\":804:883   */\n      tag_74\n      tag_45\n      jump\t// in\n    tag_74:\n        /* \"#utility.yul\":766:885   */\n    tag_73:\n        /* \"#utility.yul\":924:925   */\n      0x00\n        /* \"#utility.yul\":949:1002   */\n      tag_75\n        /* \"#utility.yul\":994:1001   */\n      dup5\n        /* \"#utility.yul\":985:991   */\n      dup3\n        /* \"#utility.yul\":974:983   */\n      dup6\n        /* \"#utility.yul\":970:992   */\n      add\n        /* \"#utility.yul\":949:1002   */\n      tag_49\n      jump\t// in\n    tag_75:\n        /* \"#utility.yul\":939:1002   */\n      swap2\n      pop\n        /* \"#utility.yul\":895:1012   */\n      pop\n        /* \"#utility.yul\":690:1019   */\n      swap3\n      swap2\n      pop\n      pop\n      jump\t// out\n        /* \"#utility.yul\":1025:1139   */\n    tag_50:\n        /* \"#utility.yul\":1092:1098   */\n      0x00\n        /* \"#utility.yul\":1126:1131   */\n      dup2\n        /* \"#utility.yul\":1120:1132   */\n      mload\n        /* \"#utility.yul\":1110:1132   */\n      swap1\n      pop\n        /* \"#utility.yul\":1025:1139   */\n      swap2\n      swap1\n      pop\n      jump\t// out\n        /* \"#utility.yul\":1145:1329   */\n    tag_51:\n        /* \"#utility.yul\":1244:1255   */\n      0x00\n        /* \"#utility.yul\":1278:1284   */\n      dup3\n        /* \"#utility.yul\":1273:1276   */\n      dup3\n        /* \"#utility.yul\":1266:1285   */\n      mstore\n        /* \"#utility.yul\":1318:1322   */\n      0x20\n        /* \"#utility.yul\":1313:1316   */\n      dup3\n        /* \"#utility.yul\":1309:1323   */\n      add\n        /* \"#utility.yul\":1294:1323   */\n      swap1\n      pop\n        /* \"#utility.yul\":1145:1329   */\n      swap3\n      swap2\n      pop\n      pop\n      jump\t// out\n        /* \"#utility.yul\":1335:1467   */\n    tag_52:\n        /* \"#utility.yul\":1402:1406   */\n      0x00\n        /* \"#utility.yul\":1425:1428   */\n      dup2\n        /* \"#utility.yul\":1417:1428   */\n      swap1\n      pop\n        /* \"#utility.yul\":1455:1459   */\n      0x20\n        /* \"#utility.yul\":1450:1453   */\n      dup3\n        /* \"#utility.yul\":1446:1460   */\n      add\n        /* \"#utility.yul\":1438:1460   */\n      swap1\n      pop\n        /* \"#utility.yul\":1335:1467   */\n      swap2\n      swap1\n      pop\n      jump\t// out\n        /* \"#utility.yul\":1473:1581   */\n    tag_53:\n        /* \"#utility.yul\":1550:1574   */\n      tag_80\n        /* \"#utility.yul\":1568:1573   */\n      dup2\n        /* \"#utility.yul\":1550:1574   */\n      tag_47\n      jump\t// in\n    tag_80:\n        /* \"#utility.yul\":1545:1548   */\n      dup3\n        /* \"#utility.yul\":1538:1575   */\n      mstore\n        /* \"#utility.yul\":1473:1581   */\n      pop\n      pop\n      jump\t// out\n        /* \"#utility.yul\":1587:1766   */\n    tag_54:\n        /* \"#utility.yul\":1656:1666   */\n      0x00\n        /* \"#utility.yul\":1677:1723   */\n      tag_82\n        /* \"#utility.yul\":1719:1722   */\n      dup4\n        /* \"#utility.yul\":1711:1717   */\n      dup4\n        /* \"#utility.yul\":1677:1723   */\n      tag_53\n      jump\t// in\n    tag_82:\n        /* \"#utility.yul\":1755:1759   */\n      0x20\n        /* \"#utility.yul\":1750:1753   */\n      dup4\n        /* \"#utility.yul\":1746:1760   */\n      add\n        /* \"#utility.yul\":1732:1760   */\n      swap1\n      pop\n        /* \"#utility.yul\":1587:1766   */\n      swap3\n      swap2\n      pop\n      pop\n      jump\t// out\n        /* \"#utility.yul\":1772:1885   */\n    tag_55:\n        /* \"#utility.yul\":1842:1846   */\n      0x00\n        /* \"#utility.yul\":1874:1878   */\n      0x20\n        /* \"#utility.yul\":1869:1872   */\n      dup3\n        /* \"#utility.yul\":1865:1879   */\n      add\n        /* \"#utility.yul\":1857:1879   */\n      swap1\n      pop\n        /* \"#utility.yul\":1772:1885   */\n      swap2\n      swap1\n      pop\n      jump\t// out\n        /* \"#utility.yul\":1921:2653   */\n    tag_56:\n        /* \"#utility.yul\":2040:2043   */\n      0x00\n        /* \"#utility.yul\":2069:2123   */\n      tag_85\n        /* \"#utility.yul\":2117:2122   */\n      dup3\n        /* \"#utility.yul\":2069:2123   */\n      tag_50\n      jump\t// in\n    tag_85:\n        /* \"#utility.yul\":2139:2225   */\n      tag_86\n        /* \"#utility.yul\":2218:2224   */\n      dup2\n        /* \"#utility.yul\":2213:2216   */\n      dup6\n        /* \"#utility.yul\":2139:2225   */\n      tag_51\n      jump\t// in\n    tag_86:\n        /* \"#utility.yul\":2132:2225   */\n      swap4\n      pop\n        /* \"#utility.yul\":2249:2305   */\n      tag_87\n        /* \"#utility.yul\":2299:2304   */\n      dup4\n        /* \"#utility.yul\":2249:2305   */\n      tag_52\n      jump\t// in\n    tag_87:\n        /* \"#utility.yul\":2328:2335   */\n      dup1\n        /* \"#utility.yul\":2359:2360   */\n      0x00\n        /* \"#utility.yul\":2344:2628   */\n    tag_88:\n        /* \"#utility.yul\":2369:2375   */\n      dup4\n        /* \"#utility.yul\":2366:2367   */\n      dup2\n        /* \"#utility.yul\":2363:2376   */\n      lt\n        /* \"#utility.yul\":2344:2628   */\n      iszero\n      tag_90\n      jumpi\n        /* \"#utility.yul\":2445:2451   */\n      dup2\n        /* \"#utility.yul\":2439:2452   */\n      mload\n        /* \"#utility.yul\":2472:2535   */\n      tag_91\n        /* \"#utility.yul\":2531:2534   */\n      dup9\n        /* \"#utility.yul\":2516:2529   */\n      dup3\n        /* \"#utility.yul\":2472:2535   */\n      tag_54\n      jump\t// in\n    tag_91:\n        /* \"#utility.yul\":2465:2535   */\n      swap8\n      pop\n        /* \"#utility.yul\":2558:2618   */\n      tag_92\n        /* \"#utility.yul\":2611:2617   */\n      dup4\n        /* \"#utility.yul\":2558:2618   */\n      tag_55\n      jump\t// in\n    tag_92:\n        /* \"#utility.yul\":2548:2618   */\n      swap3\n      pop\n        /* \"#utility.yul\":2404:2628   */\n      pop\n        /* \"#utility.yul\":2391:2392   */\n      0x01\n        /* \"#utility.yul\":2388:2389   */\n      dup2\n        /* \"#utility.yul\":2384:2393   */\n      add\n        /* \"#utility.yul\":2379:2393   */\n      swap1\n      pop\n        /* \"#utility.yul\":2344:2628   */\n      jump(tag_88)\n    tag_90:\n        /* \"#utility.yul\":2348:2362   */\n      pop\n        /* \"#utility.yul\":2644:2647   */\n      dup6\n        /* \"#utility.yul\":2637:2647   */\n      swap4\n      pop\n        /* \"#utility.yul\":2045:2653   */\n      pop\n      pop\n      pop\n        /* \"#utility.yul\":1921:2653   */\n      swap3\n      swap2\n      pop\n      pop\n      jump\t// out\n        /* \"#utility.yul\":2659:3032   */\n    tag_11:\n        /* \"#utility.yul\":2802:2806   */\n      0x00\n        /* \"#utility.yul\":2840:2842   */\n      0x20\n        /* \"#utility.yul\":2829:2838   */\n      dup3\n        /* \"#utility.yul\":2825:2843   */\n      add\n        /* \"#utility.yul\":2817:2843   */\n      swap1\n      pop\n        /* \"#utility.yul\":2889:2898   */\n      dup2\n        /* \"#utility.yul\":2883:2887   */\n      dup2\n        /* \"#utility.yul\":2879:2899   */\n      sub\n        /* \"#utility.yul\":2875:2876   */\n      0x00\n        /* \"#utility.yul\":2864:2873   */\n      dup4\n        /* \"#utility.yul\":2860:2877   */\n      add\n        /* \"#utility.yul\":2853:2900   */\n      mstore\n        /* \"#utility.yul\":2917:3025   */\n      tag_94\n        /* \"#utility.yul\":3020:3024   */\n      dup2\n        /* \"#utility.yul\":3011:3017   */\n      dup5\n        /* \"#utility.yul\":2917:3025   */\n      tag_56\n      jump\t// in\n    tag_94:\n        /* \"#utility.yul\":2909:3025   */\n      swap1\n      pop\n        /* \"#utility.yul\":2659:3032   */\n      swap3\n      swap2\n      pop\n      pop\n      jump\t// out\n        /* \"#utility.yul\":3038:3156   */\n    tag_57:\n        /* \"#utility.yul\":3125:3149   */\n      tag_96\n        /* \"#utility.yul\":3143:3148   */\n      dup2\n        /* \"#utility.yul\":3125:3149   */\n      tag_47\n      jump\t// in\n    tag_96:\n        /* \"#utility.yul\":3120:3123   */\n      dup3\n        /* \"#utility.yul\":3113:3150   */\n      mstore\n        /* \"#utility.yul\":3038:3156   */\n      pop\n      pop\n      jump\t// out\n        /* \"#utility.yul\":3162:3384   */\n    tag_19:\n        /* \"#utility.yul\":3255:3259   */\n      0x00\n        /* \"#utility.yul\":3293:3295   */\n      0x20\n        /* \"#utility.yul\":3282:3291   */\n      dup3\n        /* \"#utility.yul\":3278:3296   */\n      add\n        /* \"#utility.yul\":3270:3296   */\n      swap1\n      pop\n        /* \"#utility.yul\":3306:3377   */\n      tag_98\n        /* \"#utility.yul\":3374:3375   */\n      0x00\n        /* \"#utility.yul\":3363:3372   */\n      dup4\n        /* \"#utility.yul\":3359:3376   */\n      add\n        /* \"#utility.yul\":3350:3356   */\n      dup5\n        /* \"#utility.yul\":3306:3377   */\n      tag_57\n      jump\t// in\n    tag_98:\n        /* \"#utility.yul\":3162:3384   */\n      swap3\n      swap2\n      pop\n      pop\n      jump\t// out\n        /* \"#utility.yul\":3390:3559   */\n    tag_58:\n        /* \"#utility.yul\":3474:3485   */\n      0x00\n        /* \"#utility.yul\":3508:3514   */\n      dup3\n        /* \"#utility.yul\":3503:3506   */\n      dup3\n        /* \"#utility.yul\":3496:3515   */\n      mstore\n        /* \"#utility.yul\":3548:3552   */\n      0x20\n        /* \"#utility.yul\":3543:3546   */\n      dup3\n        /* \"#utility.yul\":3539:3553   */\n      add\n        /* \"#utility.yul\":3524:3553   */\n      swap1\n      pop\n        /* \"#utility.yul\":3390:3559   */\n      swap3\n      swap2\n      pop\n      pop\n      jump\t// out\n        /* \"#utility.yul\":3565:3779   */\n    tag_59:\n        /* \"#utility.yul\":3705:3771   */\n      0xe695b0e7bb84e4b88be6a087e8b68ae7958c0000000000000000000000000000\n        /* \"#utility.yul\":3701:3702   */\n      0x00\n        /* \"#utility.yul\":3693:3699   */\n      dup3\n        /* \"#utility.yul\":3689:3703   */\n      add\n        /* \"#utility.yul\":3682:3772   */\n      mstore\n        /* \"#utility.yul\":3565:3779   */\n      pop\n      jump\t// out\n        /* \"#utility.yul\":3785:4151   */\n    tag_60:\n        /* \"#utility.yul\":3927:3930   */\n      0x00\n        /* \"#utility.yul\":3948:4015   */\n      tag_102\n        /* \"#utility.yul\":4012:4014   */\n      0x12\n        /* \"#utility.yul\":4007:4010   */\n      dup4\n        /* \"#utility.yul\":3948:4015   */\n      tag_58\n      jump\t// in\n    tag_102:\n        /* \"#utility.yul\":3941:4015   */\n      swap2\n      pop\n        /* \"#utility.yul\":4024:4117   */\n      tag_103\n        /* \"#utility.yul\":4113:4116   */\n      dup3\n        /* \"#utility.yul\":4024:4117   */\n      tag_59\n      jump\t// in\n    tag_103:\n        /* \"#utility.yul\":4142:4144   */\n      0x20\n        /* \"#utility.yul\":4137:4140   */\n      dup3\n        /* \"#utility.yul\":4133:4145   */\n      add\n        /* \"#utility.yul\":4126:4145   */\n      swap1\n      pop\n        /* \"#utility.yul\":3785:4151   */\n      swap2\n      swap1\n      pop\n      jump\t// out\n        /* \"#utility.yul\":4157:4576   */\n    tag_23:\n        /* \"#utility.yul\":4323:4327   */\n      0x00\n        /* \"#utility.yul\":4361:4363   */\n      0x20\n        /* \"#utility.yul\":4350:4359   */\n      dup3\n        /* \"#utility.yul\":4346:4364   */\n      add\n        /* \"#utility.yul\":4338:4364   */\n      swap1\n      pop\n        /* \"#utility.yul\":4410:4419   */\n      dup2\n        /* \"#utility.yul\":4404:4408   */\n      dup2\n        /* \"#utility.yul\":4400:4420   */\n      sub\n        /* \"#utility.yul\":4396:4397   */\n      0x00\n        /* \"#utility.yul\":4385:4394   */\n      dup4\n        /* \"#utility.yul\":4381:4398   */\n      add\n        /* \"#utility.yul\":4374:4421   */\n      mstore\n        /* \"#utility.yul\":4438:4569   */\n      tag_105\n        /* \"#utility.yul\":4564:4568   */\n      dup2\n        /* \"#utility.yul\":4438:4569   */\n      tag_60\n      jump\t// in\n    tag_105:\n        /* \"#utility.yul\":4430:4569   */\n      swap1\n      pop\n        /* \"#utility.yul\":4157:4576   */\n      swap2\n      swap1\n      pop\n      jump\t// out\n        /* \"#utility.yul\":4582:4762   */\n    tag_61:\n        /* \"#utility.yul\":4630:4707   */\n      0x4e487b7100000000000000000000000000000000000000000000000000000000\n        /* \"#utility.yul\":4627:4628   */\n      0x00\n        /* \"#utility.yul\":4620:4708   */\n      mstore\n        /* \"#utility.yul\":4727:4731   */\n      0x11\n        /* \"#utility.yul\":4724:4725   */\n      0x04\n        /* \"#utility.yul\":4717:4732   */\n      mstore\n        /* \"#utility.yul\":4751:4755   */\n      0x24\n        /* \"#utility.yul\":4748:4749   */\n      0x00\n        /* \"#utility.yul\":4741:4756   */\n      revert\n        /* \"#utility.yul\":4768:4962   */\n    tag_25:\n        /* \"#utility.yul\":4808:4812   */\n      0x00\n        /* \"#utility.yul\":4828:4848   */\n      tag_108\n        /* \"#utility.yul\":4846:4847   */\n      dup3\n        /* \"#utility.yul\":4828:4848   */\n      tag_47\n      jump\t// in\n    tag_108:\n        /* \"#utility.yul\":4823:4848   */\n      swap2\n      pop\n        /* \"#utility.yul\":4862:4882   */\n      tag_109\n        /* \"#utility.yul\":4880:4881   */\n      dup4\n        /* \"#utility.yul\":4862:4882   */\n      tag_47\n      jump\t// in\n    tag_109:\n        /* \"#utility.yul\":4857:4882   */\n      swap3\n      pop\n        /* \"#utility.yul\":4906:4907   */\n      dup3\n        /* \"#utility.yul\":4903:4904   */\n      dup3\n        /* \"#utility.yul\":4899:4908   */\n      sub\n        /* \"#utility.yul\":4891:4908   */\n      swap1\n      pop\n        /* \"#utility.yul\":4930:4931   */\n      dup2\n        /* \"#utility.yul\":4924:4928   */\n      dup2\n        /* \"#utility.yul\":4921:4932   */\n      gt\n        /* \"#utility.yul\":4918:4955   */\n      iszero\n      tag_110\n      jumpi\n        /* \"#utility.yul\":4935:4953   */\n      tag_111\n      tag_61\n      jump\t// in\n    tag_111:\n        /* \"#utility.yul\":4918:4955   */\n    tag_110:\n        /* \"#utility.yul\":4768:4962   */\n      swap3\n      swap2\n      pop\n      pop\n      jump\t// out\n        /* \"#utility.yul\":4968:5148   */\n    tag_28:\n        /* \"#utility.yul\":5016:5093   */\n      0x4e487b7100000000000000000000000000000000000000000000000000000000\n        /* \"#utility.yul\":5013:5014   */\n      0x00\n        /* \"#utility.yul\":5006:5094   */\n      mstore\n        /* \"#utility.yul\":5113:5117   */\n      0x32\n        /* \"#utility.yul\":5110:5111   */\n      0x04\n        /* \"#utility.yul\":5103:5118   */\n      mstore\n        /* \"#utility.yul\":5137:5141   */\n      0x24\n        /* \"#utility.yul\":5134:5135   */\n      0x00\n        /* \"#utility.yul\":5127:5142   */\n      revert\n        /* \"#utility.yul\":5154:5334   */\n    tag_35:\n        /* \"#utility.yul\":5202:5279   */\n      0x4e487b7100000000000000000000000000000000000000000000000000000000\n        /* \"#utility.yul\":5199:5200   */\n      0x00\n        /* \"#utility.yul\":5192:5280   */\n      mstore\n        /* \"#utility.yul\":5299:5303   */\n      0x31\n        /* \"#utility.yul\":5296:5297   */\n      0x04\n        /* \"#utility.yul\":5289:5304   */\n      mstore\n        /* \"#utility.yul\":5323:5327   */\n      0x24\n        /* \"#utility.yul\":5320:5321   */\n      0x00\n        /* \"#utility.yul\":5313:5328   */\n      revert\n\n    auxdata: 0xa26469706673582212209e4381accd57508012255e84495edaecc75f2fdaae75e720ee05e74486af79a564736f6c63430008220033\n}\n",
				"bytecode": {
					"linkReferences": {},
					"object": "60806040526040518060a00160405280600160ff168152602001600260ff168152602001600360ff168152602001600460ff168152602001600560ff168152505f908161004c9190610263565b50348015610058575f5ffd5b506102e7565b7f4e487b71000000000000000000000000000000000000000000000000000000005f52604160045260245ffd5b5f81549050919050565b5f819050919050565b5f8190506001806001038301049050919050565b5f819050815f5260205f209050919050565b5f82821b905092915050565b5f600883026100ff7fffffffffffffffffffffffffffffffffffffffffffffffffffffffffffffffff826100c4565b61010986836100c4565b95508019841693508086168417925050509392505050565b5f819050919050565b5f61014461013f61013a84610095565b610121565b610095565b9050919050565b5f819050919050565b61015d8361012a565b6101716101698261014b565b8484546100d0565b825550505050565b5f5f905090565b610188610179565b610193818484610154565b505050565b5f5b828110156101b9576101ae5f828401610180565b60018101905061019a565b505050565b818310156101f5576101cf8261009e565b6101d88461009e565b6101e1836100b2565b8181016101f083850382610198565b505050505b505050565b680100000000000000008211156102145761021361005e565b5b61021d8161008b565b82825561022b8382846101be565b505050565b5f60059050919050565b5f60ff82169050919050565b5f610251825161023a565b80915050919050565b5f819050919050565b61026c82610230565b67ffffffffffffffff8111156102855761028461005e565b5b61028f81836101fa565b6102988361025a565b6102a1836100b2565b600183045f5b818110156102de575f6102b985610246565b6102c28161014b565b80925060208701965050508082850155506001810190506102a7565b50505050505050565b61050a806102f45f395ff3fe608060405234801561000f575f5ffd5b506004361061003f575f3560e01c806338570dfb14610043578063b76b78fb14610073578063d39fa23314610091575b5f5ffd5b61005d60048036038101906100589190610278565b6100c1565b60405161006a919061035a565b60405180910390f35b61007b6101cd565b604051610088919061035a565b60405180910390f35b6100ab60048036038101906100a69190610278565b610222565b6040516100b89190610389565b60405180910390f35b60605f805490508210610109576040517f08c379a0000000000000000000000000000000000000000000000000000000008152600401610100906103fc565b60405180910390fd5b5f60015f8054905061011b9190610447565b8154811061012c5761012b61047a565b5b905f5260205f2001545f83815481106101485761014761047a565b5b905f5260205f2001819055505f805480610165576101646104a7565b5b600190038181905f5260205f20015f905590555f8054806020026020016040519081016040528092919081815260200182805480156101c157602002820191905f5260205f20905b8154815260200190600101908083116101ad575b50505050509050919050565b60605f80548060200260200160405190810160405280929190818152602001828054801561021857602002820191905f5260205f20905b815481526020019060010190808311610204575b5050505050905090565b5f8181548110610230575f80fd5b905f5260205f20015f915090505481565b5f5ffd5b5f819050919050565b61025781610245565b8114610261575f5ffd5b50565b5f813590506102728161024e565b92915050565b5f6020828403121561028d5761028c610241565b5b5f61029a84828501610264565b91505092915050565b5f81519050919050565b5f82825260208201905092915050565b5f819050602082019050919050565b6102d581610245565b82525050565b5f6102e683836102cc565b60208301905092915050565b5f602082019050919050565b5f610308826102a3565b61031281856102ad565b935061031d836102bd565b805f5b8381101561034d57815161033488826102db565b975061033f836102f2565b925050600181019050610320565b5085935050505092915050565b5f6020820190508181035f83015261037281846102fe565b905092915050565b61038381610245565b82525050565b5f60208201905061039c5f83018461037a565b92915050565b5f82825260208201905092915050565b7fe695b0e7bb84e4b88be6a087e8b68ae7958c00000000000000000000000000005f82015250565b5f6103e66012836103a2565b91506103f1826103b2565b602082019050919050565b5f6020820190508181035f830152610413816103da565b9050919050565b7f4e487b71000000000000000000000000000000000000000000000000000000005f52601160045260245ffd5b5f61045182610245565b915061045c83610245565b92508282039050818111156104745761047361041a565b5b92915050565b7f4e487b71000000000000000000000000000000000000000000000000000000005f52603260045260245ffd5b7f4e487b71000000000000000000000000000000000000000000000000000000005f52603160045260245ffdfea26469706673582212209e4381accd57508012255e84495edaecc75f2fdaae75e720ee05e74486af79a564736f6c63430008220033",
					"opcodes": "PUSH1 0x80 PUSH1 0x40 MSTORE PUSH1 0x40 MLOAD DUP1 PUSH1 0xA0 ADD PUSH1 0x40 MSTORE DUP1 PUSH1 0x1 PUSH1 0xFF AND DUP2 MSTORE PUSH1 0x20 ADD PUSH1 0x2 PUSH1 0xFF AND DUP2 MSTORE PUSH1 0x20 ADD PUSH1 0x3 PUSH1 0xFF AND DUP2 MSTORE PUSH1 0x20 ADD PUSH1 0x4 PUSH1 0xFF AND DUP2 MSTORE PUSH1 0x20 ADD PUSH1 0x5 PUSH1 0xFF AND DUP2 MSTORE POP PUSH0 SWAP1 DUP2 PUSH2 0x4C SWAP2 SWAP1 PUSH2 0x263 JUMP JUMPDEST POP CALLVALUE DUP1 ISZERO PUSH2 0x58 JUMPI PUSH0 PUSH0 REVERT JUMPDEST POP PUSH2 0x2E7 JUMP JUMPDEST PUSH32 0x4E487B7100000000000000000000000000000000000000000000000000000000 PUSH0 MSTORE PUSH1 0x41 PUSH1 0x4 MSTORE PUSH1 0x24 PUSH0 REVERT JUMPDEST PUSH0 DUP2 SLOAD SWAP1 POP SWAP2 SWAP1 POP JUMP JUMPDEST PUSH0 DUP2 SWAP1 POP SWAP2 SWAP1 POP JUMP JUMPDEST PUSH0 DUP2 SWAP1 POP PUSH1 0x1 DUP1 PUSH1 0x1 SUB DUP4 ADD DIV SWAP1 POP SWAP2 SWAP1 POP JUMP JUMPDEST PUSH0 DUP2 SWAP1 POP DUP2 PUSH0 MSTORE PUSH1 0x20 PUSH0 KECCAK256 SWAP1 POP SWAP2 SWAP1 POP JUMP JUMPDEST PUSH0 DUP3 DUP3 SHL SWAP1 POP SWAP3 SWAP2 POP POP JUMP JUMPDEST PUSH0 PUSH1 0x8 DUP4 MUL PUSH2 0xFF PUSH32 0xFFFFFFFFFFFFFFFFFFFFFFFFFFFFFFFFFFFFFFFFFFFFFFFFFFFFFFFFFFFFFFFF DUP3 PUSH2 0xC4 JUMP JUMPDEST PUSH2 0x109 DUP7 DUP4 PUSH2 0xC4 JUMP JUMPDEST SWAP6 POP DUP1 NOT DUP5 AND SWAP4 POP DUP1 DUP7 AND DUP5 OR SWAP3 POP POP POP SWAP4 SWAP3 POP POP POP JUMP JUMPDEST PUSH0 DUP2 SWAP1 POP SWAP2 SWAP1 POP JUMP JUMPDEST PUSH0 PUSH2 0x144 PUSH2 0x13F PUSH2 0x13A DUP5 PUSH2 0x95 JUMP JUMPDEST PUSH2 0x121 JUMP JUMPDEST PUSH2 0x95 JUMP JUMPDEST SWAP1 POP SWAP2 SWAP1 POP JUMP JUMPDEST PUSH0 DUP2 SWAP1 POP SWAP2 SWAP1 POP JUMP JUMPDEST PUSH2 0x15D DUP4 PUSH2 0x12A JUMP JUMPDEST PUSH2 0x171 PUSH2 0x169 DUP3 PUSH2 0x14B JUMP JUMPDEST DUP5 DUP5 SLOAD PUSH2 0xD0 JUMP JUMPDEST DUP3 SSTORE POP POP POP POP JUMP JUMPDEST PUSH0 PUSH0 SWAP1 POP SWAP1 JUMP JUMPDEST PUSH2 0x188 PUSH2 0x179 JUMP JUMPDEST PUSH2 0x193 DUP2 DUP5 DUP5 PUSH2 0x154 JUMP JUMPDEST POP POP POP JUMP JUMPDEST PUSH0 JUMPDEST DUP3 DUP2 LT ISZERO PUSH2 0x1B9 JUMPI PUSH2 0x1AE PUSH0 DUP3 DUP5 ADD PUSH2 0x180 JUMP JUMPDEST PUSH1 0x1 DUP2 ADD SWAP1 POP PUSH2 0x19A JUMP JUMPDEST POP POP POP JUMP JUMPDEST DUP2 DUP4 LT ISZERO PUSH2 0x1F5 JUMPI PUSH2 0x1CF DUP3 PUSH2 0x9E JUMP JUMPDEST PUSH2 0x1D8 DUP5 PUSH2 0x9E JUMP JUMPDEST PUSH2 0x1E1 DUP4 PUSH2 0xB2 JUMP JUMPDEST DUP2 DUP2 ADD PUSH2 0x1F0 DUP4 DUP6 SUB DUP3 PUSH2 0x198 JUMP JUMPDEST POP POP POP POP JUMPDEST POP POP POP JUMP JUMPDEST PUSH9 0x10000000000000000 DUP3 GT ISZERO PUSH2 0x214 JUMPI PUSH2 0x213 PUSH2 0x5E JUMP JUMPDEST JUMPDEST PUSH2 0x21D DUP2 PUSH2 0x8B JUMP JUMPDEST DUP3 DUP3 SSTORE PUSH2 0x22B DUP4 DUP3 DUP5 PUSH2 0x1BE JUMP JUMPDEST POP POP POP JUMP JUMPDEST PUSH0 PUSH1 0x5 SWAP1 POP SWAP2 SWAP1 POP JUMP JUMPDEST PUSH0 PUSH1 0xFF DUP3 AND SWAP1 POP SWAP2 SWAP1 POP JUMP JUMPDEST PUSH0 PUSH2 0x251 DUP3 MLOAD PUSH2 0x23A JUMP JUMPDEST DUP1 SWAP2 POP POP SWAP2 SWAP1 POP JUMP JUMPDEST PUSH0 DUP2 SWAP1 POP SWAP2 SWAP1 POP JUMP JUMPDEST PUSH2 0x26C DUP3 PUSH2 0x230 JUMP JUMPDEST PUSH8 0xFFFFFFFFFFFFFFFF DUP2 GT ISZERO PUSH2 0x285 JUMPI PUSH2 0x284 PUSH2 0x5E JUMP JUMPDEST JUMPDEST PUSH2 0x28F DUP2 DUP4 PUSH2 0x1FA JUMP JUMPDEST PUSH2 0x298 DUP4 PUSH2 0x25A JUMP JUMPDEST PUSH2 0x2A1 DUP4 PUSH2 0xB2 JUMP JUMPDEST PUSH1 0x1 DUP4 DIV PUSH0 JUMPDEST DUP2 DUP2 LT ISZERO PUSH2 0x2DE JUMPI PUSH0 PUSH2 0x2B9 DUP6 PUSH2 0x246 JUMP JUMPDEST PUSH2 0x2C2 DUP2 PUSH2 0x14B JUMP JUMPDEST DUP1 SWAP3 POP PUSH1 0x20 DUP8 ADD SWAP7 POP POP POP DUP1 DUP3 DUP6 ADD SSTORE POP PUSH1 0x1 DUP2 ADD SWAP1 POP PUSH2 0x2A7 JUMP JUMPDEST POP POP POP POP POP POP POP JUMP JUMPDEST PUSH2 0x50A DUP1 PUSH2 0x2F4 PUSH0 CODECOPY PUSH0 RETURN INVALID PUSH1 0x80 PUSH1 0x40 MSTORE CALLVALUE DUP1 ISZERO PUSH2 0xF JUMPI PUSH0 PUSH0 REVERT JUMPDEST POP PUSH1 0x4 CALLDATASIZE LT PUSH2 0x3F JUMPI PUSH0 CALLDATALOAD PUSH1 0xE0 SHR DUP1 PUSH4 0x38570DFB EQ PUSH2 0x43 JUMPI DUP1 PUSH4 0xB76B78FB EQ PUSH2 0x73 JUMPI DUP1 PUSH4 0xD39FA233 EQ PUSH2 0x91 JUMPI JUMPDEST PUSH0 PUSH0 REVERT JUMPDEST PUSH2 0x5D PUSH1 0x4 DUP1 CALLDATASIZE SUB DUP2 ADD SWAP1 PUSH2 0x58 SWAP2 SWAP1 PUSH2 0x278 JUMP JUMPDEST PUSH2 0xC1 JUMP JUMPDEST PUSH1 0x40 MLOAD PUSH2 0x6A SWAP2 SWAP1 PUSH2 0x35A JUMP JUMPDEST PUSH1 0x40 MLOAD DUP1 SWAP2 SUB SWAP1 RETURN JUMPDEST PUSH2 0x7B PUSH2 0x1CD JUMP JUMPDEST PUSH1 0x40 MLOAD PUSH2 0x88 SWAP2 SWAP1 PUSH2 0x35A JUMP JUMPDEST PUSH1 0x40 MLOAD DUP1 SWAP2 SUB SWAP1 RETURN JUMPDEST PUSH2 0xAB PUSH1 0x4 DUP1 CALLDATASIZE SUB DUP2 ADD SWAP1 PUSH2 0xA6 SWAP2 SWAP1 PUSH2 0x278 JUMP JUMPDEST PUSH2 0x222 JUMP JUMPDEST PUSH1 0x40 MLOAD PUSH2 0xB8 SWAP2 SWAP1 PUSH2 0x389 JUMP JUMPDEST PUSH1 0x40 MLOAD DUP1 SWAP2 SUB SWAP1 RETURN JUMPDEST PUSH1 0x60 PUSH0 DUP1 SLOAD SWAP1 POP DUP3 LT PUSH2 0x109 JUMPI PUSH1 0x40 MLOAD PUSH32 0x8C379A000000000000000000000000000000000000000000000000000000000 DUP2 MSTORE PUSH1 0x4 ADD PUSH2 0x100 SWAP1 PUSH2 0x3FC JUMP JUMPDEST PUSH1 0x40 MLOAD DUP1 SWAP2 SUB SWAP1 REVERT JUMPDEST PUSH0 PUSH1 0x1 PUSH0 DUP1 SLOAD SWAP1 POP PUSH2 0x11B SWAP2 SWAP1 PUSH2 0x447 JUMP JUMPDEST DUP2 SLOAD DUP2 LT PUSH2 0x12C JUMPI PUSH2 0x12B PUSH2 0x47A JUMP JUMPDEST JUMPDEST SWAP1 PUSH0 MSTORE PUSH1 0x20 PUSH0 KECCAK256 ADD SLOAD PUSH0 DUP4 DUP2 SLOAD DUP2 LT PUSH2 0x148 JUMPI PUSH2 0x147 PUSH2 0x47A JUMP JUMPDEST JUMPDEST SWAP1 PUSH0 MSTORE PUSH1 0x20 PUSH0 KECCAK256 ADD DUP2 SWAP1 SSTORE POP PUSH0 DUP1 SLOAD DUP1 PUSH2 0x165 JUMPI PUSH2 0x164 PUSH2 0x4A7 JUMP JUMPDEST JUMPDEST PUSH1 0x1 SWAP1 SUB DUP2 DUP2 SWAP1 PUSH0 MSTORE PUSH1 0x20 PUSH0 KECCAK256 ADD PUSH0 SWAP1 SSTORE SWAP1 SSTORE PUSH0 DUP1 SLOAD DUP1 PUSH1 0x20 MUL PUSH1 0x20 ADD PUSH1 0x40 MLOAD SWAP1 DUP2 ADD PUSH1 0x40 MSTORE DUP1 SWAP3 SWAP2 SWAP1 DUP2 DUP2 MSTORE PUSH1 0x20 ADD DUP3 DUP1 SLOAD DUP1 ISZERO PUSH2 0x1C1 JUMPI PUSH1 0x20 MUL DUP3 ADD SWAP2 SWAP1 PUSH0 MSTORE PUSH1 0x20 PUSH0 KECCAK256 SWAP1 JUMPDEST DUP2 SLOAD DUP2 MSTORE PUSH1 0x20 ADD SWAP1 PUSH1 0x1 ADD SWAP1 DUP1 DUP4 GT PUSH2 0x1AD JUMPI JUMPDEST POP POP POP POP POP SWAP1 POP SWAP2 SWAP1 POP JUMP JUMPDEST PUSH1 0x60 PUSH0 DUP1 SLOAD DUP1 PUSH1 0x20 MUL PUSH1 0x20 ADD PUSH1 0x40 MLOAD SWAP1 DUP2 ADD PUSH1 0x40 MSTORE DUP1 SWAP3 SWAP2 SWAP1 DUP2 DUP2 MSTORE PUSH1 0x20 ADD DUP3 DUP1 SLOAD DUP1 ISZERO PUSH2 0x218 JUMPI PUSH1 0x20 MUL DUP3 ADD SWAP2 SWAP1 PUSH0 MSTORE PUSH1 0x20 PUSH0 KECCAK256 SWAP1 JUMPDEST DUP2 SLOAD DUP2 MSTORE PUSH1 0x20 ADD SWAP1 PUSH1 0x1 ADD SWAP1 DUP1 DUP4 GT PUSH2 0x204 JUMPI JUMPDEST POP POP POP POP POP SWAP1 POP SWAP1 JUMP JUMPDEST PUSH0 DUP2 DUP2 SLOAD DUP2 LT PUSH2 0x230 JUMPI PUSH0 DUP1 REVERT JUMPDEST SWAP1 PUSH0 MSTORE PUSH1 0x20 PUSH0 KECCAK256 ADD PUSH0 SWAP2 POP SWAP1 POP SLOAD DUP2 JUMP JUMPDEST PUSH0 PUSH0 REVERT JUMPDEST PUSH0 DUP2 SWAP1 POP SWAP2 SWAP1 POP JUMP JUMPDEST PUSH2 0x257 DUP2 PUSH2 0x245 JUMP JUMPDEST DUP2 EQ PUSH2 0x261 JUMPI PUSH0 PUSH0 REVERT JUMPDEST POP JUMP JUMPDEST PUSH0 DUP2 CALLDATALOAD SWAP1 POP PUSH2 0x272 DUP2 PUSH2 0x24E JUMP JUMPDEST SWAP3 SWAP2 POP POP JUMP JUMPDEST PUSH0 PUSH1 0x20 DUP3 DUP5 SUB SLT ISZERO PUSH2 0x28D JUMPI PUSH2 0x28C PUSH2 0x241 JUMP JUMPDEST JUMPDEST PUSH0 PUSH2 0x29A DUP5 DUP3 DUP6 ADD PUSH2 0x264 JUMP JUMPDEST SWAP2 POP POP SWAP3 SWAP2 POP POP JUMP JUMPDEST PUSH0 DUP2 MLOAD SWAP1 POP SWAP2 SWAP1 POP JUMP JUMPDEST PUSH0 DUP3 DUP3 MSTORE PUSH1 0x20 DUP3 ADD SWAP1 POP SWAP3 SWAP2 POP POP JUMP JUMPDEST PUSH0 DUP2 SWAP1 POP PUSH1 0x20 DUP3 ADD SWAP1 POP SWAP2 SWAP1 POP JUMP JUMPDEST PUSH2 0x2D5 DUP2 PUSH2 0x245 JUMP JUMPDEST DUP3 MSTORE POP POP JUMP JUMPDEST PUSH0 PUSH2 0x2E6 DUP4 DUP4 PUSH2 0x2CC JUMP JUMPDEST PUSH1 0x20 DUP4 ADD SWAP1 POP SWAP3 SWAP2 POP POP JUMP JUMPDEST PUSH0 PUSH1 0x20 DUP3 ADD SWAP1 POP SWAP2 SWAP1 POP JUMP JUMPDEST PUSH0 PUSH2 0x308 DUP3 PUSH2 0x2A3 JUMP JUMPDEST PUSH2 0x312 DUP2 DUP6 PUSH2 0x2AD JUMP JUMPDEST SWAP4 POP PUSH2 0x31D DUP4 PUSH2 0x2BD JUMP JUMPDEST DUP1 PUSH0 JUMPDEST DUP4 DUP2 LT ISZERO PUSH2 0x34D JUMPI DUP2 MLOAD PUSH2 0x334 DUP9 DUP3 PUSH2 0x2DB JUMP JUMPDEST SWAP8 POP PUSH2 0x33F DUP4 PUSH2 0x2F2 JUMP JUMPDEST SWAP3 POP POP PUSH1 0x1 DUP2 ADD SWAP1 POP PUSH2 0x320 JUMP JUMPDEST POP DUP6 SWAP4 POP POP POP POP SWAP3 SWAP2 POP POP JUMP JUMPDEST PUSH0 PUSH1 0x20 DUP3 ADD SWAP1 POP DUP2 DUP2 SUB PUSH0 DUP4 ADD MSTORE PUSH2 0x372 DUP2 DUP5 PUSH2 0x2FE JUMP JUMPDEST SWAP1 POP SWAP3 SWAP2 POP POP JUMP JUMPDEST PUSH2 0x383 DUP2 PUSH2 0x245 JUMP JUMPDEST DUP3 MSTORE POP POP JUMP JUMPDEST PUSH0 PUSH1 0x20 DUP3 ADD SWAP1 POP PUSH2 0x39C PUSH0 DUP4 ADD DUP5 PUSH2 0x37A JUMP JUMPDEST SWAP3 SWAP2 POP POP JUMP JUMPDEST PUSH0 DUP3 DUP3 MSTORE PUSH1 0x20 DUP3 ADD SWAP1 POP SWAP3 SWAP2 POP POP JUMP JUMPDEST PUSH32 0xE695B0E7BB84E4B88BE6A087E8B68AE7958C0000000000000000000000000000 PUSH0 DUP3 ADD MSTORE POP JUMP JUMPDEST PUSH0 PUSH2 0x3E6 PUSH1 0x12 DUP4 PUSH2 0x3A2 JUMP JUMPDEST SWAP2 POP PUSH2 0x3F1 DUP3 PUSH2 0x3B2 JUMP JUMPDEST PUSH1 0x20 DUP3 ADD SWAP1 POP SWAP2 SWAP1 POP JUMP JUMPDEST PUSH0 PUSH1 0x20 DUP3 ADD SWAP1 POP DUP2 DUP2 SUB PUSH0 DUP4 ADD MSTORE PUSH2 0x413 DUP2 PUSH2 0x3DA JUMP JUMPDEST SWAP1 POP SWAP2 SWAP1 POP JUMP JUMPDEST PUSH32 0x4E487B7100000000000000000000000000000000000000000000000000000000 PUSH0 MSTORE PUSH1 0x11 PUSH1 0x4 MSTORE PUSH1 0x24 PUSH0 REVERT JUMPDEST PUSH0 PUSH2 0x451 DUP3 PUSH2 0x245 JUMP JUMPDEST SWAP2 POP PUSH2 0x45C DUP4 PUSH2 0x245 JUMP JUMPDEST SWAP3 POP DUP3 DUP3 SUB SWAP1 POP DUP2 DUP2 GT ISZERO PUSH2 0x474 JUMPI PUSH2 0x473 PUSH2 0x41A JUMP JUMPDEST JUMPDEST SWAP3 SWAP2 POP POP JUMP JUMPDEST PUSH32 0x4E487B7100000000000000000000000000000000000000000000000000000000 PUSH0 MSTORE PUSH1 0x32 PUSH1 0x4 MSTORE PUSH1 0x24 PUSH0 REVERT JUMPDEST PUSH32 0x4E487B7100000000000000000000000000000000000000000000000000000000 PUSH0 MSTORE PUSH1 0x31 PUSH1 0x4 MSTORE PUSH1 0x24 PUSH0 REVERT INVALID LOG2 PUSH5 0x6970667358 0x22 SLT KECCAK256 SWAP15 NUMBER DUP2 0xAC 0xCD JUMPI POP DUP1 SLT 0x25 MCOPY DUP5 BLOBHASH MCOPY 0xDA EOFCREATE 0xC7 PUSH0 0x2F 0xDA 0xAE PUSH22 0xE720EE05E74486AF79A564736F6C6343000822003300 "
				},
				"gasEstimates": {
					"creation": {
						"codeDepositCost": "258000",
						"executionCost": "infinite",
						"totalCost": "infinite"
					},
					"external": {
						"getAllElement()": "infinite",
						"numbers(uint256)": "infinite",
						"unOrderRemoval(uint256)": "infinite"
					}
				},
				"methodIdentifiers": {
					"getAllElement()": "b76b78fb",
					"numbers(uint256)": "d39fa233",
					"unOrderRemoval(uint256)": "38570dfb"
				}
			},
			"storageLayout": {
				"storage": [
					{
						"astId": 10,
						"contract": "contracts/3.1/04ArrayRemoval/UnOrderRemoval.sol:UnOrderRemoval",
						"label": "numbers",
						"offset": 0,
						"slot": "0",
						"type": "t_array(t_uint256)dyn_storage"
					}
				],
				"types": {
					"t_array(t_uint256)dyn_storage": {
						"base": "t_uint256",
						"encoding": "dynamic_array",
						"label": "uint256[]",
						"numberOfBytes": "32"
					},
					"t_uint256": {
						"encoding": "inplace",
						"label": "uint256",
						"numberOfBytes": "32"
					}
				}
			},
			"userdoc": {
				"kind": "user",
				"methods": {},
				"version": 1
			}
		}
	}
}