{
	"contracts/1.2/TaskOptimized.sol": {
		"TaskOptimized": {
			"abi": [
				{
					"inputs": [
						{
							"internalType": "uint256",
							"name": "",
							"type": "uint256"
						}
					],
					"name": "data",
					"outputs": [
						{
							"internalType": "uint256",
							"name": "",
							"type": "uint256"
						}
					],
					"stateMutability": "view",
					"type": "function"
				},
				{
					"inputs": [],
					"name": "getSum",
					"outputs": [
						{
							"internalType": "uint256",
							"name": "",
							"type": "uint256"
						}
					],
					"stateMutability": "view",
					"type": "function"
				},
				{
					"inputs": [
						{
							"internalType": "uint256[]",
							"name": "input",
							"type": "uint256[]"
						}
					],
					"name": "processData",
					"outputs": [],
					"stateMutability": "nonpayable",
					"type": "function"
				}
			],
			"devdoc": {
				"kind": "dev",
				"methods": {},
				"version": 1
			},
			"evm": {
				"assembly": "    /* \"contracts/1.2/TaskOptimized.sol\":60:631  contract TaskOptimized {... */\n  mstore(0x40, 0x80)\n  callvalue\n  dup1\n  iszero\n  tag_1\n  jumpi\n  revert(0x00, 0x00)\ntag_1:\n  pop\n  dataSize(sub_0)\n  dup1\n  dataOffset(sub_0)\n  0x00\n  codecopy\n  0x00\n  return\nstop\n\nsub_0: assembly {\n        /* \"contracts/1.2/TaskOptimized.sol\":60:631  contract TaskOptimized {... */\n      mstore(0x40, 0x80)\n      callvalue\n      dup1\n      iszero\n      tag_1\n      jumpi\n      revert(0x00, 0x00)\n    tag_1:\n      pop\n      jumpi(tag_2, lt(calldatasize, 0x04))\n      shr(0xe0, calldataload(0x00))\n      dup1\n      0x569c5f6d\n      eq\n      tag_3\n      jumpi\n      dup1\n      0x8ed80c66\n      eq\n      tag_4\n      jumpi\n      dup1\n      0xf0ba8440\n      eq\n      tag_5\n      jumpi\n    tag_2:\n      revert(0x00, 0x00)\n        /* \"contracts/1.2/TaskOptimized.sol\":416:628  function getSum() public view returns (uint) {... */\n    tag_3:\n      tag_6\n      tag_7\n      jump\t// in\n    tag_6:\n      mload(0x40)\n      tag_8\n      swap2\n      swap1\n      tag_9\n      jump\t// in\n    tag_8:\n      mload(0x40)\n      dup1\n      swap2\n      sub\n      swap1\n      return\n        /* \"contracts/1.2/TaskOptimized.sol\":117:408  function processData(uint[] calldata input) public {... */\n    tag_4:\n      tag_10\n      0x04\n      dup1\n      calldatasize\n      sub\n      dup2\n      add\n      swap1\n      tag_11\n      swap2\n      swap1\n      tag_12\n      jump\t// in\n    tag_11:\n      tag_13\n      jump\t// in\n    tag_10:\n      stop\n        /* \"contracts/1.2/TaskOptimized.sol\":90:108  uint[] public data */\n    tag_5:\n      tag_14\n      0x04\n      dup1\n      calldatasize\n      sub\n      dup2\n      add\n      swap1\n      tag_15\n      swap2\n      swap1\n      tag_16\n      jump\t// in\n    tag_15:\n      tag_17\n      jump\t// in\n    tag_14:\n      mload(0x40)\n      tag_18\n      swap2\n      swap1\n      tag_9\n      jump\t// in\n    tag_18:\n      mload(0x40)\n      dup1\n      swap2\n      sub\n      swap1\n      return\n        /* \"contracts/1.2/TaskOptimized.sol\":416:628  function getSum() public view returns (uint) {... */\n    tag_7:\n        /* \"contracts/1.2/TaskOptimized.sol\":455:459  uint */\n      0x00\n        /* \"contracts/1.2/TaskOptimized.sol\":472:480  uint sum */\n      0x00\n        /* \"contracts/1.2/TaskOptimized.sol\":483:484  0 */\n      0x00\n        /* \"contracts/1.2/TaskOptimized.sol\":472:484  uint sum = 0 */\n      swap1\n      pop\n        /* \"contracts/1.2/TaskOptimized.sol\":495:506  uint256 len */\n      0x00\n        /* \"contracts/1.2/TaskOptimized.sol\":507:511  data */\n      0x00\n        /* \"contracts/1.2/TaskOptimized.sol\":507:518  data.length */\n      dup1\n      sload\n      swap1\n      pop\n        /* \"contracts/1.2/TaskOptimized.sol\":495:518  uint256 len=data.length */\n      swap1\n      pop\n        /* \"contracts/1.2/TaskOptimized.sol\":533:539  uint i */\n      0x00\n        /* \"contracts/1.2/TaskOptimized.sol\":542:543  0 */\n      0x00\n        /* \"contracts/1.2/TaskOptimized.sol\":533:543  uint i = 0 */\n      swap1\n      pop\n        /* \"contracts/1.2/TaskOptimized.sol\":529:600  for(uint i = 0; i < len; i++) {... */\n    tag_20:\n        /* \"contracts/1.2/TaskOptimized.sol\":549:552  len */\n      dup2\n        /* \"contracts/1.2/TaskOptimized.sol\":545:546  i */\n      dup2\n        /* \"contracts/1.2/TaskOptimized.sol\":545:552  i < len */\n      lt\n        /* \"contracts/1.2/TaskOptimized.sol\":529:600  for(uint i = 0; i < len; i++) {... */\n      iszero\n      tag_21\n      jumpi\n        /* \"contracts/1.2/TaskOptimized.sol\":581:585  data */\n      0x00\n        /* \"contracts/1.2/TaskOptimized.sol\":586:587  i */\n      dup2\n        /* \"contracts/1.2/TaskOptimized.sol\":581:588  data[i] */\n      dup2\n      sload\n      dup2\n      lt\n      tag_23\n      jumpi\n      tag_24\n      tag_25\n      jump\t// in\n    tag_24:\n    tag_23:\n      swap1\n      0x00\n      mstore\n      keccak256(0x00, 0x20)\n      add\n      sload\n        /* \"contracts/1.2/TaskOptimized.sol\":574:588  sum += data[i] */\n      dup4\n      tag_27\n      swap2\n      swap1\n      tag_28\n      jump\t// in\n    tag_27:\n      swap3\n      pop\n        /* \"contracts/1.2/TaskOptimized.sol\":554:557  i++ */\n      dup1\n      dup1\n      0x01\n      add\n      swap2\n      pop\n      pop\n        /* \"contracts/1.2/TaskOptimized.sol\":529:600  for(uint i = 0; i < len; i++) {... */\n      jump(tag_20)\n    tag_21:\n      pop\n        /* \"contracts/1.2/TaskOptimized.sol\":617:620  sum */\n      dup2\n        /* \"contracts/1.2/TaskOptimized.sol\":610:620  return sum */\n      swap3\n      pop\n      pop\n      pop\n        /* \"contracts/1.2/TaskOptimized.sol\":416:628  function getSum() public view returns (uint) {... */\n      swap1\n      jump\t// out\n        /* \"contracts/1.2/TaskOptimized.sol\":117:408  function processData(uint[] calldata input) public {... */\n    tag_13:\n        /* \"contracts/1.2/TaskOptimized.sol\":186:190  data */\n      0x00\n      0x00\n        /* \"contracts/1.2/TaskOptimized.sol\":179:190  delete data */\n      tag_30\n      swap2\n      swap1\n      tag_31\n      jump\t// in\n    tag_30:\n        /* \"contracts/1.2/TaskOptimized.sol\":218:229  uint256 len */\n      0x00\n        /* \"contracts/1.2/TaskOptimized.sol\":230:235  input */\n      dup3\n      dup3\n        /* \"contracts/1.2/TaskOptimized.sol\":230:242  input.length */\n      swap1\n      pop\n        /* \"contracts/1.2/TaskOptimized.sol\":218:242  uint256 len=input.length */\n      swap1\n      pop\n        /* \"contracts/1.2/TaskOptimized.sol\":253:274  uint256[] memory temp */\n      0x00\n        /* \"contracts/1.2/TaskOptimized.sol\":291:294  len */\n      dup2\n        /* \"contracts/1.2/TaskOptimized.sol\":277:295  new uint256[](len) */\n      0xffffffffffffffff\n      dup2\n      gt\n      iszero\n      tag_32\n      jumpi\n      tag_33\n      tag_34\n      jump\t// in\n    tag_33:\n    tag_32:\n      mload(0x40)\n      swap1\n      dup1\n      dup3\n      mstore\n      dup1\n      0x20\n      mul\n      0x20\n      add\n      dup3\n      add\n      0x40\n      mstore\n      dup1\n      iszero\n      tag_35\n      jumpi\n      dup2\n      0x20\n      add\n      0x20\n      dup3\n      mul\n      dup1\n      calldatasize\n      dup4\n      calldatacopy\n      dup1\n      dup3\n      add\n      swap2\n      pop\n      pop\n      swap1\n      pop\n    tag_35:\n      pop\n        /* \"contracts/1.2/TaskOptimized.sol\":253:295  uint256[] memory temp = new uint256[](len) */\n      swap1\n      pop\n        /* \"contracts/1.2/TaskOptimized.sol\":310:316  uint i */\n      0x00\n        /* \"contracts/1.2/TaskOptimized.sol\":319:320  0 */\n      0x00\n        /* \"contracts/1.2/TaskOptimized.sol\":310:320  uint i = 0 */\n      swap1\n      pop\n        /* \"contracts/1.2/TaskOptimized.sol\":306:381  for(uint i = 0; i < len; i++) {... */\n    tag_36:\n        /* \"contracts/1.2/TaskOptimized.sol\":326:329  len */\n      dup3\n        /* \"contracts/1.2/TaskOptimized.sol\":322:323  i */\n      dup2\n        /* \"contracts/1.2/TaskOptimized.sol\":322:329  i < len */\n      lt\n        /* \"contracts/1.2/TaskOptimized.sol\":306:381  for(uint i = 0; i < len; i++) {... */\n      iszero\n      tag_37\n      jumpi\n        /* \"contracts/1.2/TaskOptimized.sol\":368:369  2 */\n      0x02\n        /* \"contracts/1.2/TaskOptimized.sol\":359:364  input */\n      dup6\n      dup6\n        /* \"contracts/1.2/TaskOptimized.sol\":365:366  i */\n      dup4\n        /* \"contracts/1.2/TaskOptimized.sol\":359:367  input[i] */\n      dup2\n      dup2\n      lt\n      tag_39\n      jumpi\n      tag_40\n      tag_25\n      jump\t// in\n    tag_40:\n    tag_39:\n      swap1\n      pop\n      0x20\n      mul\n      add\n      calldataload\n        /* \"contracts/1.2/TaskOptimized.sol\":359:369  input[i]*2 */\n      tag_41\n      swap2\n      swap1\n      tag_42\n      jump\t// in\n    tag_41:\n        /* \"contracts/1.2/TaskOptimized.sol\":351:355  temp */\n      dup3\n        /* \"contracts/1.2/TaskOptimized.sol\":356:357  i */\n      dup3\n        /* \"contracts/1.2/TaskOptimized.sol\":351:358  temp[i] */\n      dup2\n      mload\n      dup2\n      lt\n      tag_43\n      jumpi\n      tag_44\n      tag_25\n      jump\t// in\n    tag_44:\n    tag_43:\n      0x20\n      mul\n      0x20\n      add\n      add\n        /* \"contracts/1.2/TaskOptimized.sol\":351:369  temp[i]=input[i]*2 */\n      dup2\n      dup2\n      mstore\n      pop\n      pop\n        /* \"contracts/1.2/TaskOptimized.sol\":331:334  i++ */\n      dup1\n      dup1\n      0x01\n      add\n      swap2\n      pop\n      pop\n        /* \"contracts/1.2/TaskOptimized.sol\":306:381  for(uint i = 0; i < len; i++) {... */\n      jump(tag_36)\n    tag_37:\n      pop\n        /* \"contracts/1.2/TaskOptimized.sol\":396:400  temp */\n      dup1\n        /* \"contracts/1.2/TaskOptimized.sol\":391:395  data */\n      0x00\n        /* \"contracts/1.2/TaskOptimized.sol\":391:400  data=temp */\n      swap1\n      dup2\n      tag_45\n      swap2\n      swap1\n      tag_46\n      jump\t// in\n    tag_45:\n      pop\n        /* \"contracts/1.2/TaskOptimized.sol\":168:408  {... */\n      pop\n      pop\n        /* \"contracts/1.2/TaskOptimized.sol\":117:408  function processData(uint[] calldata input) public {... */\n      pop\n      pop\n      jump\t// out\n        /* \"contracts/1.2/TaskOptimized.sol\":90:108  uint[] public data */\n    tag_17:\n      0x00\n      dup2\n      dup2\n      sload\n      dup2\n      lt\n      tag_47\n      jumpi\n      0x00\n      dup1\n      revert\n    tag_47:\n      swap1\n      0x00\n      mstore\n      keccak256(0x00, 0x20)\n      add\n      0x00\n      swap2\n      pop\n      swap1\n      pop\n      sload\n      dup2\n      jump\t// out\n    tag_31:\n      pop\n      dup1\n      sload\n      0x00\n      dup3\n      sstore\n      swap1\n      0x00\n      mstore\n      keccak256(0x00, 0x20)\n      swap1\n      tag_50\n      swap2\n      swap1\n      tag_51\n      jump\t// in\n    tag_50:\n      jump\t// out\n    tag_51:\n      0x00\n    tag_52:\n      dup1\n      dup3\n      gt\n      iszero\n      tag_53\n      jumpi\n      dup3\n      dup2\n      add\n      0x00\n      swap1\n      sstore\n      0x01\n      add\n      jump(tag_52)\n    tag_53:\n      pop\n      pop\n      pop\n      jump\t// out\n        /* \"#utility.yul\":7:84   */\n    tag_54:\n        /* \"#utility.yul\":44:51   */\n      0x00\n        /* \"#utility.yul\":73:78   */\n      dup2\n        /* \"#utility.yul\":62:78   */\n      swap1\n      pop\n        /* \"#utility.yul\":7:84   */\n      swap2\n      swap1\n      pop\n      jump\t// out\n        /* \"#utility.yul\":90:208   */\n    tag_55:\n        /* \"#utility.yul\":177:201   */\n      tag_90\n        /* \"#utility.yul\":195:200   */\n      dup2\n        /* \"#utility.yul\":177:201   */\n      tag_54\n      jump\t// in\n    tag_90:\n        /* \"#utility.yul\":172:175   */\n      dup3\n        /* \"#utility.yul\":165:202   */\n      mstore\n        /* \"#utility.yul\":90:208   */\n      pop\n      pop\n      jump\t// out\n        /* \"#utility.yul\":214:436   */\n    tag_9:\n        /* \"#utility.yul\":307:311   */\n      0x00\n        /* \"#utility.yul\":345:347   */\n      0x20\n        /* \"#utility.yul\":334:343   */\n      dup3\n        /* \"#utility.yul\":330:348   */\n      add\n        /* \"#utility.yul\":322:348   */\n      swap1\n      pop\n        /* \"#utility.yul\":358:429   */\n      tag_92\n        /* \"#utility.yul\":426:427   */\n      0x00\n        /* \"#utility.yul\":415:424   */\n      dup4\n        /* \"#utility.yul\":411:428   */\n      add\n        /* \"#utility.yul\":402:408   */\n      dup5\n        /* \"#utility.yul\":358:429   */\n      tag_55\n      jump\t// in\n    tag_92:\n        /* \"#utility.yul\":214:436   */\n      swap3\n      swap2\n      pop\n      pop\n      jump\t// out\n        /* \"#utility.yul\":523:640   */\n    tag_57:\n        /* \"#utility.yul\":632:633   */\n      0x00\n        /* \"#utility.yul\":629:630   */\n      0x00\n        /* \"#utility.yul\":622:634   */\n      revert\n        /* \"#utility.yul\":646:763   */\n    tag_58:\n        /* \"#utility.yul\":755:756   */\n      0x00\n        /* \"#utility.yul\":752:753   */\n      0x00\n        /* \"#utility.yul\":745:757   */\n      revert\n        /* \"#utility.yul\":769:886   */\n    tag_59:\n        /* \"#utility.yul\":878:879   */\n      0x00\n        /* \"#utility.yul\":875:876   */\n      0x00\n        /* \"#utility.yul\":868:880   */\n      revert\n        /* \"#utility.yul\":892:1009   */\n    tag_60:\n        /* \"#utility.yul\":1001:1002   */\n      0x00\n        /* \"#utility.yul\":998:999   */\n      0x00\n        /* \"#utility.yul\":991:1003   */\n      revert\n        /* \"#utility.yul\":1015:1132   */\n    tag_61:\n        /* \"#utility.yul\":1124:1125   */\n      0x00\n        /* \"#utility.yul\":1121:1122   */\n      0x00\n        /* \"#utility.yul\":1114:1126   */\n      revert\n        /* \"#utility.yul\":1155:1723   */\n    tag_62:\n        /* \"#utility.yul\":1228:1236   */\n      0x00\n        /* \"#utility.yul\":1238:1244   */\n      0x00\n        /* \"#utility.yul\":1288:1291   */\n      dup4\n        /* \"#utility.yul\":1281:1285   */\n      0x1f\n        /* \"#utility.yul\":1273:1279   */\n      dup5\n        /* \"#utility.yul\":1269:1286   */\n      add\n        /* \"#utility.yul\":1265:1292   */\n      slt\n        /* \"#utility.yul\":1255:1377   */\n      tag_100\n      jumpi\n        /* \"#utility.yul\":1296:1375   */\n      tag_101\n      tag_59\n      jump\t// in\n    tag_101:\n        /* \"#utility.yul\":1255:1377   */\n    tag_100:\n        /* \"#utility.yul\":1409:1415   */\n      dup3\n        /* \"#utility.yul\":1396:1416   */\n      calldataload\n        /* \"#utility.yul\":1386:1416   */\n      swap1\n      pop\n        /* \"#utility.yul\":1439:1457   */\n      0xffffffffffffffff\n        /* \"#utility.yul\":1431:1437   */\n      dup2\n        /* \"#utility.yul\":1428:1458   */\n      gt\n        /* \"#utility.yul\":1425:1542   */\n      iszero\n      tag_102\n      jumpi\n        /* \"#utility.yul\":1461:1540   */\n      tag_103\n      tag_60\n      jump\t// in\n    tag_103:\n        /* \"#utility.yul\":1425:1542   */\n    tag_102:\n        /* \"#utility.yul\":1575:1579   */\n      0x20\n        /* \"#utility.yul\":1567:1573   */\n      dup4\n        /* \"#utility.yul\":1563:1580   */\n      add\n        /* \"#utility.yul\":1551:1580   */\n      swap2\n      pop\n        /* \"#utility.yul\":1629:1632   */\n      dup4\n        /* \"#utility.yul\":1621:1625   */\n      0x20\n        /* \"#utility.yul\":1613:1619   */\n      dup3\n        /* \"#utility.yul\":1609:1626   */\n      mul\n        /* \"#utility.yul\":1599:1607   */\n      dup4\n        /* \"#utility.yul\":1595:1627   */\n      add\n        /* \"#utility.yul\":1592:1633   */\n      gt\n        /* \"#utility.yul\":1589:1717   */\n      iszero\n      tag_104\n      jumpi\n        /* \"#utility.yul\":1636:1715   */\n      tag_105\n      tag_61\n      jump\t// in\n    tag_105:\n        /* \"#utility.yul\":1589:1717   */\n    tag_104:\n        /* \"#utility.yul\":1155:1723   */\n      swap3\n      pop\n      swap3\n      swap1\n      pop\n      jump\t// out\n        /* \"#utility.yul\":1729:2288   */\n    tag_12:\n        /* \"#utility.yul\":1815:1821   */\n      0x00\n        /* \"#utility.yul\":1823:1829   */\n      0x00\n        /* \"#utility.yul\":1872:1874   */\n      0x20\n        /* \"#utility.yul\":1860:1869   */\n      dup4\n        /* \"#utility.yul\":1851:1858   */\n      dup6\n        /* \"#utility.yul\":1847:1870   */\n      sub\n        /* \"#utility.yul\":1843:1875   */\n      slt\n        /* \"#utility.yul\":1840:1959   */\n      iszero\n      tag_107\n      jumpi\n        /* \"#utility.yul\":1878:1957   */\n      tag_108\n      tag_57\n      jump\t// in\n    tag_108:\n        /* \"#utility.yul\":1840:1959   */\n    tag_107:\n        /* \"#utility.yul\":2026:2027   */\n      0x00\n        /* \"#utility.yul\":2015:2024   */\n      dup4\n        /* \"#utility.yul\":2011:2028   */\n      add\n        /* \"#utility.yul\":1998:2029   */\n      calldataload\n        /* \"#utility.yul\":2056:2074   */\n      0xffffffffffffffff\n        /* \"#utility.yul\":2048:2054   */\n      dup2\n        /* \"#utility.yul\":2045:2075   */\n      gt\n        /* \"#utility.yul\":2042:2159   */\n      iszero\n      tag_109\n      jumpi\n        /* \"#utility.yul\":2078:2157   */\n      tag_110\n      tag_58\n      jump\t// in\n    tag_110:\n        /* \"#utility.yul\":2042:2159   */\n    tag_109:\n        /* \"#utility.yul\":2191:2271   */\n      tag_111\n        /* \"#utility.yul\":2263:2270   */\n      dup6\n        /* \"#utility.yul\":2254:2260   */\n      dup3\n        /* \"#utility.yul\":2243:2252   */\n      dup7\n        /* \"#utility.yul\":2239:2261   */\n      add\n        /* \"#utility.yul\":2191:2271   */\n      tag_62\n      jump\t// in\n    tag_111:\n        /* \"#utility.yul\":2173:2271   */\n      swap3\n      pop\n      swap3\n      pop\n        /* \"#utility.yul\":1969:2281   */\n      pop\n        /* \"#utility.yul\":1729:2288   */\n      swap3\n      pop\n      swap3\n      swap1\n      pop\n      jump\t// out\n        /* \"#utility.yul\":2294:2416   */\n    tag_63:\n        /* \"#utility.yul\":2367:2391   */\n      tag_113\n        /* \"#utility.yul\":2385:2390   */\n      dup2\n        /* \"#utility.yul\":2367:2391   */\n      tag_54\n      jump\t// in\n    tag_113:\n        /* \"#utility.yul\":2360:2365   */\n      dup2\n        /* \"#utility.yul\":2357:2392   */\n      eq\n        /* \"#utility.yul\":2347:2410   */\n      tag_114\n      jumpi\n        /* \"#utility.yul\":2406:2407   */\n      0x00\n        /* \"#utility.yul\":2403:2404   */\n      0x00\n        /* \"#utility.yul\":2396:2408   */\n      revert\n        /* \"#utility.yul\":2347:2410   */\n    tag_114:\n        /* \"#utility.yul\":2294:2416   */\n      pop\n      jump\t// out\n        /* \"#utility.yul\":2422:2561   */\n    tag_64:\n        /* \"#utility.yul\":2468:2473   */\n      0x00\n        /* \"#utility.yul\":2506:2512   */\n      dup2\n        /* \"#utility.yul\":2493:2513   */\n      calldataload\n        /* \"#utility.yul\":2484:2513   */\n      swap1\n      pop\n        /* \"#utility.yul\":2522:2555   */\n      tag_116\n        /* \"#utility.yul\":2549:2554   */\n      dup2\n        /* \"#utility.yul\":2522:2555   */\n      tag_63\n      jump\t// in\n    tag_116:\n        /* \"#utility.yul\":2422:2561   */\n      swap3\n      swap2\n      pop\n      pop\n      jump\t// out\n        /* \"#utility.yul\":2567:2896   */\n    tag_16:\n        /* \"#utility.yul\":2626:2632   */\n      0x00\n        /* \"#utility.yul\":2675:2677   */\n      0x20\n        /* \"#utility.yul\":2663:2672   */\n      dup3\n        /* \"#utility.yul\":2654:2661   */\n      dup5\n        /* \"#utility.yul\":2650:2673   */\n      sub\n        /* \"#utility.yul\":2646:2678   */\n      slt\n        /* \"#utility.yul\":2643:2762   */\n      iszero\n      tag_118\n      jumpi\n        /* \"#utility.yul\":2681:2760   */\n      tag_119\n      tag_57\n      jump\t// in\n    tag_119:\n        /* \"#utility.yul\":2643:2762   */\n    tag_118:\n        /* \"#utility.yul\":2801:2802   */\n      0x00\n        /* \"#utility.yul\":2826:2879   */\n      tag_120\n        /* \"#utility.yul\":2871:2878   */\n      dup5\n        /* \"#utility.yul\":2862:2868   */\n      dup3\n        /* \"#utility.yul\":2851:2860   */\n      dup6\n        /* \"#utility.yul\":2847:2869   */\n      add\n        /* \"#utility.yul\":2826:2879   */\n      tag_64\n      jump\t// in\n    tag_120:\n        /* \"#utility.yul\":2816:2879   */\n      swap2\n      pop\n        /* \"#utility.yul\":2772:2889   */\n      pop\n        /* \"#utility.yul\":2567:2896   */\n      swap3\n      swap2\n      pop\n      pop\n      jump\t// out\n        /* \"#utility.yul\":2902:3082   */\n    tag_25:\n        /* \"#utility.yul\":2950:3027   */\n      0x4e487b7100000000000000000000000000000000000000000000000000000000\n        /* \"#utility.yul\":2947:2948   */\n      0x00\n        /* \"#utility.yul\":2940:3028   */\n      mstore\n        /* \"#utility.yul\":3047:3051   */\n      0x32\n        /* \"#utility.yul\":3044:3045   */\n      0x04\n        /* \"#utility.yul\":3037:3052   */\n      mstore\n        /* \"#utility.yul\":3071:3075   */\n      0x24\n        /* \"#utility.yul\":3068:3069   */\n      0x00\n        /* \"#utility.yul\":3061:3076   */\n      revert\n        /* \"#utility.yul\":3088:3268   */\n    tag_65:\n        /* \"#utility.yul\":3136:3213   */\n      0x4e487b7100000000000000000000000000000000000000000000000000000000\n        /* \"#utility.yul\":3133:3134   */\n      0x00\n        /* \"#utility.yul\":3126:3214   */\n      mstore\n        /* \"#utility.yul\":3233:3237   */\n      0x11\n        /* \"#utility.yul\":3230:3231   */\n      0x04\n        /* \"#utility.yul\":3223:3238   */\n      mstore\n        /* \"#utility.yul\":3257:3261   */\n      0x24\n        /* \"#utility.yul\":3254:3255   */\n      0x00\n        /* \"#utility.yul\":3247:3262   */\n      revert\n        /* \"#utility.yul\":3274:3465   */\n    tag_28:\n        /* \"#utility.yul\":3314:3317   */\n      0x00\n        /* \"#utility.yul\":3333:3353   */\n      tag_124\n        /* \"#utility.yul\":3351:3352   */\n      dup3\n        /* \"#utility.yul\":3333:3353   */\n      tag_54\n      jump\t// in\n    tag_124:\n        /* \"#utility.yul\":3328:3353   */\n      swap2\n      pop\n        /* \"#utility.yul\":3367:3387   */\n      tag_125\n        /* \"#utility.yul\":3385:3386   */\n      dup4\n        /* \"#utility.yul\":3367:3387   */\n      tag_54\n      jump\t// in\n    tag_125:\n        /* \"#utility.yul\":3362:3387   */\n      swap3\n      pop\n        /* \"#utility.yul\":3410:3411   */\n      dup3\n        /* \"#utility.yul\":3407:3408   */\n      dup3\n        /* \"#utility.yul\":3403:3412   */\n      add\n        /* \"#utility.yul\":3396:3412   */\n      swap1\n      pop\n        /* \"#utility.yul\":3431:3434   */\n      dup1\n        /* \"#utility.yul\":3428:3429   */\n      dup3\n        /* \"#utility.yul\":3425:3435   */\n      gt\n        /* \"#utility.yul\":3422:3458   */\n      iszero\n      tag_126\n      jumpi\n        /* \"#utility.yul\":3438:3456   */\n      tag_127\n      tag_65\n      jump\t// in\n    tag_127:\n        /* \"#utility.yul\":3422:3458   */\n    tag_126:\n        /* \"#utility.yul\":3274:3465   */\n      swap3\n      swap2\n      pop\n      pop\n      jump\t// out\n        /* \"#utility.yul\":3471:3651   */\n    tag_34:\n        /* \"#utility.yul\":3519:3596   */\n      0x4e487b7100000000000000000000000000000000000000000000000000000000\n        /* \"#utility.yul\":3516:3517   */\n      0x00\n        /* \"#utility.yul\":3509:3597   */\n      mstore\n        /* \"#utility.yul\":3616:3620   */\n      0x41\n        /* \"#utility.yul\":3613:3614   */\n      0x04\n        /* \"#utility.yul\":3606:3621   */\n      mstore\n        /* \"#utility.yul\":3640:3644   */\n      0x24\n        /* \"#utility.yul\":3637:3638   */\n      0x00\n        /* \"#utility.yul\":3630:3645   */\n      revert\n        /* \"#utility.yul\":3657:4067   */\n    tag_42:\n        /* \"#utility.yul\":3697:3704   */\n      0x00\n        /* \"#utility.yul\":3720:3740   */\n      tag_130\n        /* \"#utility.yul\":3738:3739   */\n      dup3\n        /* \"#utility.yul\":3720:3740   */\n      tag_54\n      jump\t// in\n    tag_130:\n        /* \"#utility.yul\":3715:3740   */\n      swap2\n      pop\n        /* \"#utility.yul\":3754:3774   */\n      tag_131\n        /* \"#utility.yul\":3772:3773   */\n      dup4\n        /* \"#utility.yul\":3754:3774   */\n      tag_54\n      jump\t// in\n    tag_131:\n        /* \"#utility.yul\":3749:3774   */\n      swap3\n      pop\n        /* \"#utility.yul\":3809:3810   */\n      dup3\n        /* \"#utility.yul\":3806:3807   */\n      dup3\n        /* \"#utility.yul\":3802:3811   */\n      mul\n        /* \"#utility.yul\":3831:3861   */\n      tag_132\n        /* \"#utility.yul\":3849:3860   */\n      dup2\n        /* \"#utility.yul\":3831:3861   */\n      tag_54\n      jump\t// in\n    tag_132:\n        /* \"#utility.yul\":3820:3861   */\n      swap2\n      pop\n        /* \"#utility.yul\":4010:4011   */\n      dup3\n        /* \"#utility.yul\":4001:4008   */\n      dup3\n        /* \"#utility.yul\":3997:4012   */\n      div\n        /* \"#utility.yul\":3994:3995   */\n      dup5\n        /* \"#utility.yul\":3991:4013   */\n      eq\n        /* \"#utility.yul\":3971:3972   */\n      dup4\n        /* \"#utility.yul\":3964:3973   */\n      iszero\n        /* \"#utility.yul\":3944:4027   */\n      or\n        /* \"#utility.yul\":3921:4060   */\n      tag_133\n      jumpi\n        /* \"#utility.yul\":4040:4058   */\n      tag_134\n      tag_65\n      jump\t// in\n    tag_134:\n        /* \"#utility.yul\":3921:4060   */\n    tag_133:\n        /* \"#utility.yul\":3705:4067   */\n      pop\n        /* \"#utility.yul\":3657:4067   */\n      swap3\n      swap2\n      pop\n      pop\n      jump\t// out\n        /* \"#utility.yul\":4073:4184   */\n    tag_66:\n        /* \"#utility.yul\":4137:4143   */\n      0x00\n        /* \"#utility.yul\":4171:4176   */\n      dup2\n        /* \"#utility.yul\":4165:4177   */\n      sload\n        /* \"#utility.yul\":4155:4177   */\n      swap1\n      pop\n        /* \"#utility.yul\":4073:4184   */\n      swap2\n      swap1\n      pop\n      jump\t// out\n        /* \"#utility.yul\":4190:4393   */\n    tag_67:\n        /* \"#utility.yul\":4271:4275   */\n      0x00\n        /* \"#utility.yul\":4294:4300   */\n      dup2\n        /* \"#utility.yul\":4286:4300   */\n      swap1\n      pop\n        /* \"#utility.yul\":4384:4385   */\n      0x01\n        /* \"#utility.yul\":4379:4380   */\n      dup1\n        /* \"#utility.yul\":4376:4377   */\n      0x01\n        /* \"#utility.yul\":4372:4381   */\n      sub\n        /* \"#utility.yul\":4364:4370   */\n      dup4\n        /* \"#utility.yul\":4360:4382   */\n      add\n        /* \"#utility.yul\":4356:4386   */\n      div\n        /* \"#utility.yul\":4348:4386   */\n      swap1\n      pop\n        /* \"#utility.yul\":4190:4393   */\n      swap2\n      swap1\n      pop\n      jump\t// out\n        /* \"#utility.yul\":4398:4554   */\n    tag_68:\n        /* \"#utility.yul\":4462:4466   */\n      0x00\n        /* \"#utility.yul\":4485:4488   */\n      dup2\n        /* \"#utility.yul\":4477:4488   */\n      swap1\n      pop\n        /* \"#utility.yul\":4508:4511   */\n      dup2\n        /* \"#utility.yul\":4505:4506   */\n      0x00\n        /* \"#utility.yul\":4498:4512   */\n      mstore\n        /* \"#utility.yul\":4542:4546   */\n      0x20\n        /* \"#utility.yul\":4539:4540   */\n      0x00\n        /* \"#utility.yul\":4529:4547   */\n      keccak256\n        /* \"#utility.yul\":4521:4547   */\n      swap1\n      pop\n        /* \"#utility.yul\":4398:4554   */\n      swap2\n      swap1\n      pop\n      jump\t// out\n        /* \"#utility.yul\":4560:4667   */\n    tag_69:\n        /* \"#utility.yul\":4604:4612   */\n      0x00\n        /* \"#utility.yul\":4654:4659   */\n      dup3\n        /* \"#utility.yul\":4648:4652   */\n      dup3\n        /* \"#utility.yul\":4644:4660   */\n      shl\n        /* \"#utility.yul\":4623:4660   */\n      swap1\n      pop\n        /* \"#utility.yul\":4560:4667   */\n      swap3\n      swap2\n      pop\n      pop\n      jump\t// out\n        /* \"#utility.yul\":4673:5066   */\n    tag_70:\n        /* \"#utility.yul\":4742:4748   */\n      0x00\n        /* \"#utility.yul\":4792:4793   */\n      0x08\n        /* \"#utility.yul\":4780:4790   */\n      dup4\n        /* \"#utility.yul\":4776:4794   */\n      mul\n        /* \"#utility.yul\":4815:4912   */\n      tag_140\n        /* \"#utility.yul\":4845:4911   */\n      0xffffffffffffffffffffffffffffffffffffffffffffffffffffffffffffffff\n        /* \"#utility.yul\":4834:4843   */\n      dup3\n        /* \"#utility.yul\":4815:4912   */\n      tag_69\n      jump\t// in\n    tag_140:\n        /* \"#utility.yul\":4933:4972   */\n      tag_141\n        /* \"#utility.yul\":4963:4971   */\n      dup7\n        /* \"#utility.yul\":4952:4961   */\n      dup4\n        /* \"#utility.yul\":4933:4972   */\n      tag_69\n      jump\t// in\n    tag_141:\n        /* \"#utility.yul\":4921:4972   */\n      swap6\n      pop\n        /* \"#utility.yul\":5005:5009   */\n      dup1\n        /* \"#utility.yul\":5001:5010   */\n      not\n        /* \"#utility.yul\":4994:4999   */\n      dup5\n        /* \"#utility.yul\":4990:5011   */\n      and\n        /* \"#utility.yul\":4981:5011   */\n      swap4\n      pop\n        /* \"#utility.yul\":5054:5058   */\n      dup1\n        /* \"#utility.yul\":5044:5052   */\n      dup7\n        /* \"#utility.yul\":5040:5059   */\n      and\n        /* \"#utility.yul\":5033:5038   */\n      dup5\n        /* \"#utility.yul\":5030:5060   */\n      or\n        /* \"#utility.yul\":5020:5060   */\n      swap3\n      pop\n        /* \"#utility.yul\":4749:5066   */\n      pop\n      pop\n        /* \"#utility.yul\":4673:5066   */\n      swap4\n      swap3\n      pop\n      pop\n      pop\n      jump\t// out\n        /* \"#utility.yul\":5072:5132   */\n    tag_71:\n        /* \"#utility.yul\":5100:5103   */\n      0x00\n        /* \"#utility.yul\":5121:5126   */\n      dup2\n        /* \"#utility.yul\":5114:5126   */\n      swap1\n      pop\n        /* \"#utility.yul\":5072:5132   */\n      swap2\n      swap1\n      pop\n      jump\t// out\n        /* \"#utility.yul\":5138:5280   */\n    tag_72:\n        /* \"#utility.yul\":5188:5197   */\n      0x00\n        /* \"#utility.yul\":5221:5274   */\n      tag_144\n        /* \"#utility.yul\":5239:5273   */\n      tag_145\n        /* \"#utility.yul\":5248:5272   */\n      tag_146\n        /* \"#utility.yul\":5266:5271   */\n      dup5\n        /* \"#utility.yul\":5248:5272   */\n      tag_54\n      jump\t// in\n    tag_146:\n        /* \"#utility.yul\":5239:5273   */\n      tag_71\n      jump\t// in\n    tag_145:\n        /* \"#utility.yul\":5221:5274   */\n      tag_54\n      jump\t// in\n    tag_144:\n        /* \"#utility.yul\":5208:5274   */\n      swap1\n      pop\n        /* \"#utility.yul\":5138:5280   */\n      swap2\n      swap1\n      pop\n      jump\t// out\n        /* \"#utility.yul\":5286:5361   */\n    tag_73:\n        /* \"#utility.yul\":5329:5332   */\n      0x00\n        /* \"#utility.yul\":5350:5355   */\n      dup2\n        /* \"#utility.yul\":5343:5355   */\n      swap1\n      pop\n        /* \"#utility.yul\":5286:5361   */\n      swap2\n      swap1\n      pop\n      jump\t// out\n        /* \"#utility.yul\":5367:5636   */\n    tag_74:\n        /* \"#utility.yul\":5477:5516   */\n      tag_149\n        /* \"#utility.yul\":5508:5515   */\n      dup4\n        /* \"#utility.yul\":5477:5516   */\n      tag_72\n      jump\t// in\n    tag_149:\n        /* \"#utility.yul\":5538:5629   */\n      tag_150\n        /* \"#utility.yul\":5587:5628   */\n      tag_151\n        /* \"#utility.yul\":5611:5627   */\n      dup3\n        /* \"#utility.yul\":5587:5628   */\n      tag_73\n      jump\t// in\n    tag_151:\n        /* \"#utility.yul\":5579:5585   */\n      dup5\n        /* \"#utility.yul\":5572:5576   */\n      dup5\n        /* \"#utility.yul\":5566:5577   */\n      sload\n        /* \"#utility.yul\":5538:5629   */\n      tag_70\n      jump\t// in\n    tag_150:\n        /* \"#utility.yul\":5532:5536   */\n      dup3\n        /* \"#utility.yul\":5525:5630   */\n      sstore\n        /* \"#utility.yul\":5443:5636   */\n      pop\n        /* \"#utility.yul\":5367:5636   */\n      pop\n      pop\n      pop\n      jump\t// out\n        /* \"#utility.yul\":5642:5715   */\n    tag_75:\n        /* \"#utility.yul\":5687:5690   */\n      0x00\n        /* \"#utility.yul\":5708:5709   */\n      0x00\n        /* \"#utility.yul\":5701:5709   */\n      swap1\n      pop\n        /* \"#utility.yul\":5642:5715   */\n      swap1\n      jump\t// out\n        /* \"#utility.yul\":5721:5910   */\n    tag_76:\n        /* \"#utility.yul\":5798:5830   */\n      tag_154\n      tag_75\n      jump\t// in\n    tag_154:\n        /* \"#utility.yul\":5839:5904   */\n      tag_155\n        /* \"#utility.yul\":5897:5903   */\n      dup2\n        /* \"#utility.yul\":5889:5895   */\n      dup5\n        /* \"#utility.yul\":5883:5887   */\n      dup5\n        /* \"#utility.yul\":5839:5904   */\n      tag_74\n      jump\t// in\n    tag_155:\n        /* \"#utility.yul\":5774:5910   */\n      pop\n        /* \"#utility.yul\":5721:5910   */\n      pop\n      pop\n      jump\t// out\n        /* \"#utility.yul\":5916:6131   */\n    tag_77:\n        /* \"#utility.yul\":6002:6003   */\n      0x00\n        /* \"#utility.yul\":5987:6125   */\n    tag_157:\n        /* \"#utility.yul\":6012:6021   */\n      dup3\n        /* \"#utility.yul\":6009:6010   */\n      dup2\n        /* \"#utility.yul\":6006:6022   */\n      lt\n        /* \"#utility.yul\":5987:6125   */\n      iszero\n      tag_159\n      jumpi\n        /* \"#utility.yul\":6064:6115   */\n      tag_160\n        /* \"#utility.yul\":6113:6114   */\n      0x00\n        /* \"#utility.yul\":6109:6110   */\n      dup3\n        /* \"#utility.yul\":6098:6107   */\n      dup5\n        /* \"#utility.yul\":6094:6111   */\n      add\n        /* \"#utility.yul\":6064:6115   */\n      tag_76\n      jump\t// in\n    tag_160:\n        /* \"#utility.yul\":6037:6038   */\n      0x01\n        /* \"#utility.yul\":6034:6035   */\n      dup2\n        /* \"#utility.yul\":6030:6039   */\n      add\n        /* \"#utility.yul\":6025:6039   */\n      swap1\n      pop\n        /* \"#utility.yul\":5987:6125   */\n      jump(tag_157)\n    tag_159:\n        /* \"#utility.yul\":5991:6005   */\n      pop\n        /* \"#utility.yul\":5916:6131   */\n      pop\n      pop\n      jump\t// out\n        /* \"#utility.yul\":6510:7150   */\n    tag_80:\n        /* \"#utility.yul\":6630:6633   */\n      dup2\n        /* \"#utility.yul\":6618:6628   */\n      dup4\n        /* \"#utility.yul\":6615:6634   */\n      lt\n        /* \"#utility.yul\":6612:7143   */\n      iszero\n      tag_165\n      jumpi\n        /* \"#utility.yul\":6721:6786   */\n      tag_166\n        /* \"#utility.yul\":6782:6785   */\n      dup3\n        /* \"#utility.yul\":6721:6786   */\n      tag_67\n      jump\t// in\n    tag_166:\n        /* \"#utility.yul\":6819:6891   */\n      tag_167\n        /* \"#utility.yul\":6880:6890   */\n      dup5\n        /* \"#utility.yul\":6819:6891   */\n      tag_67\n      jump\t// in\n    tag_167:\n        /* \"#utility.yul\":6926:6979   */\n      tag_168\n        /* \"#utility.yul\":6973:6978   */\n      dup4\n        /* \"#utility.yul\":6926:6979   */\n      tag_68\n      jump\t// in\n    tag_168:\n        /* \"#utility.yul\":7031:7043   */\n      dup2\n        /* \"#utility.yul\":7015:7029   */\n      dup2\n        /* \"#utility.yul\":7011:7044   */\n      add\n        /* \"#utility.yul\":7058:7133   */\n      tag_169\n        /* \"#utility.yul\":7119:7131   */\n      dup4\n        /* \"#utility.yul\":7105:7117   */\n      dup6\n        /* \"#utility.yul\":7101:7132   */\n      sub\n        /* \"#utility.yul\":7088:7099   */\n      dup3\n        /* \"#utility.yul\":7058:7133   */\n      tag_77\n      jump\t// in\n    tag_169:\n        /* \"#utility.yul\":6635:7143   */\n      pop\n      pop\n      pop\n      pop\n        /* \"#utility.yul\":6612:7143   */\n    tag_165:\n        /* \"#utility.yul\":6510:7150   */\n      pop\n      pop\n      pop\n      jump\t// out\n        /* \"#utility.yul\":7156:7544   */\n    tag_81:\n        /* \"#utility.yul\":7249:7269   */\n      0x010000000000000000\n        /* \"#utility.yul\":7241:7247   */\n      dup3\n        /* \"#utility.yul\":7238:7270   */\n      gt\n        /* \"#utility.yul\":7235:7313   */\n      iszero\n      tag_171\n      jumpi\n        /* \"#utility.yul\":7285:7303   */\n      tag_172\n      tag_34\n      jump\t// in\n    tag_172:\n        /* \"#utility.yul\":7235:7313   */\n    tag_171:\n        /* \"#utility.yul\":7337:7388   */\n      tag_173\n        /* \"#utility.yul\":7382:7387   */\n      dup2\n        /* \"#utility.yul\":7337:7388   */\n      tag_66\n      jump\t// in\n    tag_173:\n        /* \"#utility.yul\":7440:7446   */\n      dup3\n        /* \"#utility.yul\":7433:7438   */\n      dup3\n        /* \"#utility.yul\":7426:7447   */\n      sstore\n        /* \"#utility.yul\":7457:7537   */\n      tag_174\n        /* \"#utility.yul\":7530:7536   */\n      dup4\n        /* \"#utility.yul\":7522:7528   */\n      dup3\n        /* \"#utility.yul\":7515:7520   */\n      dup5\n        /* \"#utility.yul\":7457:7537   */\n      tag_80\n      jump\t// in\n    tag_174:\n        /* \"#utility.yul\":7225:7544   */\n      pop\n        /* \"#utility.yul\":7156:7544   */\n      pop\n      pop\n      jump\t// out\n        /* \"#utility.yul\":7549:7663   */\n    tag_82:\n        /* \"#utility.yul\":7616:7622   */\n      0x00\n        /* \"#utility.yul\":7650:7655   */\n      dup2\n        /* \"#utility.yul\":7644:7656   */\n      mload\n        /* \"#utility.yul\":7634:7656   */\n      swap1\n      pop\n        /* \"#utility.yul\":7549:7663   */\n      swap2\n      swap1\n      pop\n      jump\t// out\n        /* \"#utility.yul\":7669:7823   */\n    tag_83:\n        /* \"#utility.yul\":7712:7723   */\n      0x00\n        /* \"#utility.yul\":7748:7777   */\n      tag_177\n        /* \"#utility.yul\":7772:7775   */\n      dup3\n        /* \"#utility.yul\":7766:7776   */\n      mload\n        /* \"#utility.yul\":7748:7777   */\n      tag_54\n      jump\t// in\n    tag_177:\n        /* \"#utility.yul\":7811:7816   */\n      dup1\n        /* \"#utility.yul\":7787:7816   */\n      swap2\n      pop\n        /* \"#utility.yul\":7724:7823   */\n      pop\n        /* \"#utility.yul\":7669:7823   */\n      swap2\n      swap1\n      pop\n      jump\t// out\n        /* \"#utility.yul\":7829:7961   */\n    tag_84:\n        /* \"#utility.yul\":7896:7900   */\n      0x00\n        /* \"#utility.yul\":7919:7922   */\n      dup2\n        /* \"#utility.yul\":7911:7922   */\n      swap1\n      pop\n        /* \"#utility.yul\":7949:7953   */\n      0x20\n        /* \"#utility.yul\":7944:7947   */\n      dup3\n        /* \"#utility.yul\":7940:7954   */\n      add\n        /* \"#utility.yul\":7932:7954   */\n      swap1\n      pop\n        /* \"#utility.yul\":7829:7961   */\n      swap2\n      swap1\n      pop\n      jump\t// out\n        /* \"#utility.yul\":8264:9265   */\n    tag_46:\n        /* \"#utility.yul\":8405:8457   */\n      tag_184\n        /* \"#utility.yul\":8453:8456   */\n      dup3\n        /* \"#utility.yul\":8405:8457   */\n      tag_82\n      jump\t// in\n    tag_184:\n        /* \"#utility.yul\":8522:8540   */\n      0xffffffffffffffff\n        /* \"#utility.yul\":8514:8520   */\n      dup2\n        /* \"#utility.yul\":8511:8541   */\n      gt\n        /* \"#utility.yul\":8508:8564   */\n      iszero\n      tag_185\n      jumpi\n        /* \"#utility.yul\":8544:8562   */\n      tag_186\n      tag_34\n      jump\t// in\n    tag_186:\n        /* \"#utility.yul\":8508:8564   */\n    tag_185:\n        /* \"#utility.yul\":8573:8630   */\n      tag_187\n        /* \"#utility.yul\":8623:8629   */\n      dup2\n        /* \"#utility.yul\":8618:8621   */\n      dup4\n        /* \"#utility.yul\":8573:8630   */\n      tag_81\n      jump\t// in\n    tag_187:\n        /* \"#utility.yul\":8654:8708   */\n      tag_188\n        /* \"#utility.yul\":8704:8707   */\n      dup4\n        /* \"#utility.yul\":8654:8708   */\n      tag_84\n      jump\t// in\n    tag_188:\n        /* \"#utility.yul\":8732:8783   */\n      tag_189\n        /* \"#utility.yul\":8779:8782   */\n      dup4\n        /* \"#utility.yul\":8732:8783   */\n      tag_68\n      jump\t// in\n    tag_189:\n        /* \"#utility.yul\":8822:8823   */\n      0x01\n        /* \"#utility.yul\":8814:8820   */\n      dup4\n        /* \"#utility.yul\":8810:8824   */\n      div\n        /* \"#utility.yul\":8849:8850   */\n      0x00\n        /* \"#utility.yul\":8834:9258   */\n    tag_190:\n        /* \"#utility.yul\":8859:8868   */\n      dup2\n        /* \"#utility.yul\":8856:8857   */\n      dup2\n        /* \"#utility.yul\":8853:8869   */\n      lt\n        /* \"#utility.yul\":8834:9258   */\n      iszero\n      tag_192\n      jumpi\n        /* \"#utility.yul\":8923:8924   */\n      0x00\n        /* \"#utility.yul\":8976:9009   */\n      tag_193\n        /* \"#utility.yul\":9002:9008   */\n      dup6\n        /* \"#utility.yul\":8976:9009   */\n      tag_83\n      jump\t// in\n    tag_193:\n        /* \"#utility.yul\":9044:9080   */\n      tag_194\n        /* \"#utility.yul\":9068:9079   */\n      dup2\n        /* \"#utility.yul\":9044:9080   */\n      tag_73\n      jump\t// in\n    tag_194:\n        /* \"#utility.yul\":9130:9139   */\n      dup1\n        /* \"#utility.yul\":9097:9139   */\n      swap3\n      pop\n        /* \"#utility.yul\":9179:9181   */\n      0x20\n        /* \"#utility.yul\":9171:9177   */\n      dup8\n        /* \"#utility.yul\":9167:9182   */\n      add\n        /* \"#utility.yul\":9157:9182   */\n      swap7\n      pop\n        /* \"#utility.yul\":8938:9197   */\n      pop\n      pop\n        /* \"#utility.yul\":9235:9247   */\n      dup1\n        /* \"#utility.yul\":9231:9232   */\n      dup3\n        /* \"#utility.yul\":9222:9229   */\n      dup6\n        /* \"#utility.yul\":9218:9233   */\n      add\n        /* \"#utility.yul\":9211:9248   */\n      sstore\n        /* \"#utility.yul\":8889:9258   */\n      pop\n        /* \"#utility.yul\":8884:8885   */\n      0x01\n        /* \"#utility.yul\":8881:8882   */\n      dup2\n        /* \"#utility.yul\":8877:8886   */\n      add\n        /* \"#utility.yul\":8872:8886   */\n      swap1\n      pop\n        /* \"#utility.yul\":8834:9258   */\n      jump(tag_190)\n    tag_192:\n        /* \"#utility.yul\":8838:8852   */\n      pop\n        /* \"#utility.yul\":8380:9265   */\n      pop\n      pop\n      pop\n      pop\n        /* \"#utility.yul\":8264:9265   */\n      pop\n      pop\n      jump\t// out\n\n    auxdata: 0xa2646970667358221220c0aaeff2f5c60680bb6d9b75366b69e17f985e762652bd0901f81ebad31678a364736f6c63430008220033\n}\n",
				"bytecode": {
					"linkReferences": {},
					"object": "6080604052348015600e575f5ffd5b506106e88061001c5f395ff3fe608060405234801561000f575f5ffd5b506004361061003f575f3560e01c8063569c5f6d146100435780638ed80c6614610061578063f0ba84401461007d575b5f5ffd5b61004b6100ad565b6040516100589190610248565b60405180910390f35b61007b600480360381019061007691906102ca565b610106565b005b6100976004803603810190610092919061033f565b6101da565b6040516100a49190610248565b60405180910390f35b5f5f5f90505f5f8054905090505f5f90505b818110156100fd575f81815481106100da576100d961036a565b5b905f5260205f200154836100ee91906103c4565b925080806001019150506100bf565b50819250505090565b5f5f61011291906101f9565b5f8282905090505f8167ffffffffffffffff811115610134576101336103f7565b5b6040519080825280602002602001820160405280156101625781602001602082028036833780820191505090505b5090505f5f90505b828110156101c45760028585838181106101875761018661036a565b5b905060200201356101989190610424565b8282815181106101ab576101aa61036a565b5b602002602001018181525050808060010191505061016a565b50805f90816101d3919061062e565b5050505050565b5f81815481106101e8575f80fd5b905f5260205f20015f915090505481565b5080545f8255905f5260205f20906102119190610213565b565b5f5b8082111561022b578281015f9055600101610215565b505050565b5f819050919050565b61024281610230565b82525050565b5f60208201905061025b5f830184610239565b92915050565b5f5ffd5b5f5ffd5b5f5ffd5b5f5ffd5b5f5ffd5b5f5f83601f84011261028a57610289610269565b5b8235905067ffffffffffffffff8111156102a7576102a661026d565b5b6020830191508360208202830111156102c3576102c2610271565b5b9250929050565b5f5f602083850312156102e0576102df610261565b5b5f83013567ffffffffffffffff8111156102fd576102fc610265565b5b61030985828601610275565b92509250509250929050565b61031e81610230565b8114610328575f5ffd5b50565b5f8135905061033981610315565b92915050565b5f6020828403121561035457610353610261565b5b5f6103618482850161032b565b91505092915050565b7f4e487b71000000000000000000000000000000000000000000000000000000005f52603260045260245ffd5b7f4e487b71000000000000000000000000000000000000000000000000000000005f52601160045260245ffd5b5f6103ce82610230565b91506103d983610230565b92508282019050808211156103f1576103f0610397565b5b92915050565b7f4e487b71000000000000000000000000000000000000000000000000000000005f52604160045260245ffd5b5f61042e82610230565b915061043983610230565b925082820261044781610230565b9150828204841483151761045e5761045d610397565b5b5092915050565b5f81549050919050565b5f8190506001806001038301049050919050565b5f819050815f5260205f209050919050565b5f82821b905092915050565b5f600883026104d07fffffffffffffffffffffffffffffffffffffffffffffffffffffffffffffffff82610495565b6104da8683610495565b95508019841693508086168417925050509392505050565b5f819050919050565b5f61051561051061050b84610230565b6104f2565b610230565b9050919050565b5f819050919050565b61052e836104fb565b61054261053a8261051c565b8484546104a1565b825550505050565b5f5f905090565b61055961054a565b610564818484610525565b505050565b5f5b8281101561058a5761057f5f828401610551565b60018101905061056b565b505050565b818310156105c6576105a08261046f565b6105a98461046f565b6105b283610483565b8181016105c183850382610569565b505050505b505050565b680100000000000000008211156105e5576105e46103f7565b5b6105ee81610465565b8282556105fc83828461058f565b505050565b5f81519050919050565b5f6106168251610230565b80915050919050565b5f819050602082019050919050565b61063782610601565b67ffffffffffffffff8111156106505761064f6103f7565b5b61065a81836105cb565b6106638361061f565b61066c83610483565b600183045f5b818110156106a9575f6106848561060b565b61068d8161051c565b8092506020870196505050808285015550600181019050610672565b5050505050505056fea2646970667358221220c0aaeff2f5c60680bb6d9b75366b69e17f985e762652bd0901f81ebad31678a364736f6c63430008220033",
					"opcodes": "PUSH1 0x80 PUSH1 0x40 MSTORE CALLVALUE DUP1 ISZERO PUSH1 0xE JUMPI PUSH0 PUSH0 REVERT JUMPDEST POP PUSH2 0x6E8 DUP1 PUSH2 0x1C PUSH0 CODECOPY PUSH0 RETURN INVALID PUSH1 0x80 PUSH1 0x40 MSTORE CALLVALUE DUP1 ISZERO PUSH2 0xF JUMPI PUSH0 PUSH0 REVERT JUMPDEST POP PUSH1 0x4 CALLDATASIZE LT PUSH2 0x3F JUMPI PUSH0 CALLDATALOAD PUSH1 0xE0 SHR DUP1 PUSH4 0x569C5F6D EQ PUSH2 0x43 JUMPI DUP1 PUSH4 0x8ED80C66 EQ PUSH2 0x61 JUMPI DUP1 PUSH4 0xF0BA8440 EQ PUSH2 0x7D JUMPI JUMPDEST PUSH0 PUSH0 REVERT JUMPDEST PUSH2 0x4B PUSH2 0xAD JUMP JUMPDEST PUSH1 0x40 MLOAD PUSH2 0x58 SWAP2 SWAP1 PUSH2 0x248 JUMP JUMPDEST PUSH1 0x40 MLOAD DUP1 SWAP2 SUB SWAP1 RETURN JUMPDEST PUSH2 0x7B PUSH1 0x4 DUP1 CALLDATASIZE SUB DUP2 ADD SWAP1 PUSH2 0x76 SWAP2 SWAP1 PUSH2 0x2CA JUMP JUMPDEST PUSH2 0x106 JUMP JUMPDEST STOP JUMPDEST PUSH2 0x97 PUSH1 0x4 DUP1 CALLDATASIZE SUB DUP2 ADD SWAP1 PUSH2 0x92 SWAP2 SWAP1 PUSH2 0x33F JUMP JUMPDEST PUSH2 0x1DA JUMP JUMPDEST PUSH1 0x40 MLOAD PUSH2 0xA4 SWAP2 SWAP1 PUSH2 0x248 JUMP JUMPDEST PUSH1 0x40 MLOAD DUP1 SWAP2 SUB SWAP1 RETURN JUMPDEST PUSH0 PUSH0 PUSH0 SWAP1 POP PUSH0 PUSH0 DUP1 SLOAD SWAP1 POP SWAP1 POP PUSH0 PUSH0 SWAP1 POP JUMPDEST DUP2 DUP2 LT ISZERO PUSH2 0xFD JUMPI PUSH0 DUP2 DUP2 SLOAD DUP2 LT PUSH2 0xDA JUMPI PUSH2 0xD9 PUSH2 0x36A JUMP JUMPDEST JUMPDEST SWAP1 PUSH0 MSTORE PUSH1 0x20 PUSH0 KECCAK256 ADD SLOAD DUP4 PUSH2 0xEE SWAP2 SWAP1 PUSH2 0x3C4 JUMP JUMPDEST SWAP3 POP DUP1 DUP1 PUSH1 0x1 ADD SWAP2 POP POP PUSH2 0xBF JUMP JUMPDEST POP DUP2 SWAP3 POP POP POP SWAP1 JUMP JUMPDEST PUSH0 PUSH0 PUSH2 0x112 SWAP2 SWAP1 PUSH2 0x1F9 JUMP JUMPDEST PUSH0 DUP3 DUP3 SWAP1 POP SWAP1 POP PUSH0 DUP2 PUSH8 0xFFFFFFFFFFFFFFFF DUP2 GT ISZERO PUSH2 0x134 JUMPI PUSH2 0x133 PUSH2 0x3F7 JUMP JUMPDEST JUMPDEST PUSH1 0x40 MLOAD SWAP1 DUP1 DUP3 MSTORE DUP1 PUSH1 0x20 MUL PUSH1 0x20 ADD DUP3 ADD PUSH1 0x40 MSTORE DUP1 ISZERO PUSH2 0x162 JUMPI DUP2 PUSH1 0x20 ADD PUSH1 0x20 DUP3 MUL DUP1 CALLDATASIZE DUP4 CALLDATACOPY DUP1 DUP3 ADD SWAP2 POP POP SWAP1 POP JUMPDEST POP SWAP1 POP PUSH0 PUSH0 SWAP1 POP JUMPDEST DUP3 DUP2 LT ISZERO PUSH2 0x1C4 JUMPI PUSH1 0x2 DUP6 DUP6 DUP4 DUP2 DUP2 LT PUSH2 0x187 JUMPI PUSH2 0x186 PUSH2 0x36A JUMP JUMPDEST JUMPDEST SWAP1 POP PUSH1 0x20 MUL ADD CALLDATALOAD PUSH2 0x198 SWAP2 SWAP1 PUSH2 0x424 JUMP JUMPDEST DUP3 DUP3 DUP2 MLOAD DUP2 LT PUSH2 0x1AB JUMPI PUSH2 0x1AA PUSH2 0x36A JUMP JUMPDEST JUMPDEST PUSH1 0x20 MUL PUSH1 0x20 ADD ADD DUP2 DUP2 MSTORE POP POP DUP1 DUP1 PUSH1 0x1 ADD SWAP2 POP POP PUSH2 0x16A JUMP JUMPDEST POP DUP1 PUSH0 SWAP1 DUP2 PUSH2 0x1D3 SWAP2 SWAP1 PUSH2 0x62E JUMP JUMPDEST POP POP POP POP POP JUMP JUMPDEST PUSH0 DUP2 DUP2 SLOAD DUP2 LT PUSH2 0x1E8 JUMPI PUSH0 DUP1 REVERT JUMPDEST SWAP1 PUSH0 MSTORE PUSH1 0x20 PUSH0 KECCAK256 ADD PUSH0 SWAP2 POP SWAP1 POP SLOAD DUP2 JUMP JUMPDEST POP DUP1 SLOAD PUSH0 DUP3 SSTORE SWAP1 PUSH0 MSTORE PUSH1 0x20 PUSH0 KECCAK256 SWAP1 PUSH2 0x211 SWAP2 SWAP1 PUSH2 0x213 JUMP JUMPDEST JUMP JUMPDEST PUSH0 JUMPDEST DUP1 DUP3 GT ISZERO PUSH2 0x22B JUMPI DUP3 DUP2 ADD PUSH0 SWAP1 SSTORE PUSH1 0x1 ADD PUSH2 0x215 JUMP JUMPDEST POP POP POP JUMP JUMPDEST PUSH0 DUP2 SWAP1 POP SWAP2 SWAP1 POP JUMP JUMPDEST PUSH2 0x242 DUP2 PUSH2 0x230 JUMP JUMPDEST DUP3 MSTORE POP POP JUMP JUMPDEST PUSH0 PUSH1 0x20 DUP3 ADD SWAP1 POP PUSH2 0x25B PUSH0 DUP4 ADD DUP5 PUSH2 0x239 JUMP JUMPDEST SWAP3 SWAP2 POP POP JUMP JUMPDEST PUSH0 PUSH0 REVERT JUMPDEST PUSH0 PUSH0 REVERT JUMPDEST PUSH0 PUSH0 REVERT JUMPDEST PUSH0 PUSH0 REVERT JUMPDEST PUSH0 PUSH0 REVERT JUMPDEST PUSH0 PUSH0 DUP4 PUSH1 0x1F DUP5 ADD SLT PUSH2 0x28A JUMPI PUSH2 0x289 PUSH2 0x269 JUMP JUMPDEST JUMPDEST DUP3 CALLDATALOAD SWAP1 POP PUSH8 0xFFFFFFFFFFFFFFFF DUP2 GT ISZERO PUSH2 0x2A7 JUMPI PUSH2 0x2A6 PUSH2 0x26D JUMP JUMPDEST JUMPDEST PUSH1 0x20 DUP4 ADD SWAP2 POP DUP4 PUSH1 0x20 DUP3 MUL DUP4 ADD GT ISZERO PUSH2 0x2C3 JUMPI PUSH2 0x2C2 PUSH2 0x271 JUMP JUMPDEST JUMPDEST SWAP3 POP SWAP3 SWAP1 POP JUMP JUMPDEST PUSH0 PUSH0 PUSH1 0x20 DUP4 DUP6 SUB SLT ISZERO PUSH2 0x2E0 JUMPI PUSH2 0x2DF PUSH2 0x261 JUMP JUMPDEST JUMPDEST PUSH0 DUP4 ADD CALLDATALOAD PUSH8 0xFFFFFFFFFFFFFFFF DUP2 GT ISZERO PUSH2 0x2FD JUMPI PUSH2 0x2FC PUSH2 0x265 JUMP JUMPDEST JUMPDEST PUSH2 0x309 DUP6 DUP3 DUP7 ADD PUSH2 0x275 JUMP JUMPDEST SWAP3 POP SWAP3 POP POP SWAP3 POP SWAP3 SWAP1 POP JUMP JUMPDEST PUSH2 0x31E DUP2 PUSH2 0x230 JUMP JUMPDEST DUP2 EQ PUSH2 0x328 JUMPI PUSH0 PUSH0 REVERT JUMPDEST POP JUMP JUMPDEST PUSH0 DUP2 CALLDATALOAD SWAP1 POP PUSH2 0x339 DUP2 PUSH2 0x315 JUMP JUMPDEST SWAP3 SWAP2 POP POP JUMP JUMPDEST PUSH0 PUSH1 0x20 DUP3 DUP5 SUB SLT ISZERO PUSH2 0x354 JUMPI PUSH2 0x353 PUSH2 0x261 JUMP JUMPDEST JUMPDEST PUSH0 PUSH2 0x361 DUP5 DUP3 DUP6 ADD PUSH2 0x32B JUMP JUMPDEST SWAP2 POP POP SWAP3 SWAP2 POP POP JUMP JUMPDEST PUSH32 0x4E487B7100000000000000000000000000000000000000000000000000000000 PUSH0 MSTORE PUSH1 0x32 PUSH1 0x4 MSTORE PUSH1 0x24 PUSH0 REVERT JUMPDEST PUSH32 0x4E487B7100000000000000000000000000000000000000000000000000000000 PUSH0 MSTORE PUSH1 0x11 PUSH1 0x4 MSTORE PUSH1 0x24 PUSH0 REVERT JUMPDEST PUSH0 PUSH2 0x3CE DUP3 PUSH2 0x230 JUMP JUMPDEST SWAP2 POP PUSH2 0x3D9 DUP4 PUSH2 0x230 JUMP JUMPDEST SWAP3 POP DUP3 DUP3 ADD SWAP1 POP DUP1 DUP3 GT ISZERO PUSH2 0x3F1 JUMPI PUSH2 0x3F0 PUSH2 0x397 JUMP JUMPDEST JUMPDEST SWAP3 SWAP2 POP POP JUMP JUMPDEST PUSH32 0x4E487B7100000000000000000000000000000000000000000000000000000000 PUSH0 MSTORE PUSH1 0x41 PUSH1 0x4 MSTORE PUSH1 0x24 PUSH0 REVERT JUMPDEST PUSH0 PUSH2 0x42E DUP3 PUSH2 0x230 JUMP JUMPDEST SWAP2 POP PUSH2 0x439 DUP4 PUSH2 0x230 JUMP JUMPDEST SWAP3 POP DUP3 DUP3 MUL PUSH2 0x447 DUP2 PUSH2 0x230 JUMP JUMPDEST SWAP2 POP DUP3 DUP3 DIV DUP5 EQ DUP4 ISZERO OR PUSH2 0x45E JUMPI PUSH2 0x45D PUSH2 0x397 JUMP JUMPDEST JUMPDEST POP SWAP3 SWAP2 POP POP JUMP JUMPDEST PUSH0 DUP2 SLOAD SWAP1 POP SWAP2 SWAP1 POP JUMP JUMPDEST PUSH0 DUP2 SWAP1 POP PUSH1 0x1 DUP1 PUSH1 0x1 SUB DUP4 ADD DIV SWAP1 POP SWAP2 SWAP1 POP JUMP JUMPDEST PUSH0 DUP2 SWAP1 POP DUP2 PUSH0 MSTORE PUSH1 0x20 PUSH0 KECCAK256 SWAP1 POP SWAP2 SWAP1 POP JUMP JUMPDEST PUSH0 DUP3 DUP3 SHL SWAP1 POP SWAP3 SWAP2 POP POP JUMP JUMPDEST PUSH0 PUSH1 0x8 DUP4 MUL PUSH2 0x4D0 PUSH32 0xFFFFFFFFFFFFFFFFFFFFFFFFFFFFFFFFFFFFFFFFFFFFFFFFFFFFFFFFFFFFFFFF DUP3 PUSH2 0x495 JUMP JUMPDEST PUSH2 0x4DA DUP7 DUP4 PUSH2 0x495 JUMP JUMPDEST SWAP6 POP DUP1 NOT DUP5 AND SWAP4 POP DUP1 DUP7 AND DUP5 OR SWAP3 POP POP POP SWAP4 SWAP3 POP POP POP JUMP JUMPDEST PUSH0 DUP2 SWAP1 POP SWAP2 SWAP1 POP JUMP JUMPDEST PUSH0 PUSH2 0x515 PUSH2 0x510 PUSH2 0x50B DUP5 PUSH2 0x230 JUMP JUMPDEST PUSH2 0x4F2 JUMP JUMPDEST PUSH2 0x230 JUMP JUMPDEST SWAP1 POP SWAP2 SWAP1 POP JUMP JUMPDEST PUSH0 DUP2 SWAP1 POP SWAP2 SWAP1 POP JUMP JUMPDEST PUSH2 0x52E DUP4 PUSH2 0x4FB JUMP JUMPDEST PUSH2 0x542 PUSH2 0x53A DUP3 PUSH2 0x51C JUMP JUMPDEST DUP5 DUP5 SLOAD PUSH2 0x4A1 JUMP JUMPDEST DUP3 SSTORE POP POP POP POP JUMP JUMPDEST PUSH0 PUSH0 SWAP1 POP SWAP1 JUMP JUMPDEST PUSH2 0x559 PUSH2 0x54A JUMP JUMPDEST PUSH2 0x564 DUP2 DUP5 DUP5 PUSH2 0x525 JUMP JUMPDEST POP POP POP JUMP JUMPDEST PUSH0 JUMPDEST DUP3 DUP2 LT ISZERO PUSH2 0x58A JUMPI PUSH2 0x57F PUSH0 DUP3 DUP5 ADD PUSH2 0x551 JUMP JUMPDEST PUSH1 0x1 DUP2 ADD SWAP1 POP PUSH2 0x56B JUMP JUMPDEST POP POP POP JUMP JUMPDEST DUP2 DUP4 LT ISZERO PUSH2 0x5C6 JUMPI PUSH2 0x5A0 DUP3 PUSH2 0x46F JUMP JUMPDEST PUSH2 0x5A9 DUP5 PUSH2 0x46F JUMP JUMPDEST PUSH2 0x5B2 DUP4 PUSH2 0x483 JUMP JUMPDEST DUP2 DUP2 ADD PUSH2 0x5C1 DUP4 DUP6 SUB DUP3 PUSH2 0x569 JUMP JUMPDEST POP POP POP POP JUMPDEST POP POP POP JUMP JUMPDEST PUSH9 0x10000000000000000 DUP3 GT ISZERO PUSH2 0x5E5 JUMPI PUSH2 0x5E4 PUSH2 0x3F7 JUMP JUMPDEST JUMPDEST PUSH2 0x5EE DUP2 PUSH2 0x465 JUMP JUMPDEST DUP3 DUP3 SSTORE PUSH2 0x5FC DUP4 DUP3 DUP5 PUSH2 0x58F JUMP JUMPDEST POP POP POP JUMP JUMPDEST PUSH0 DUP2 MLOAD SWAP1 POP SWAP2 SWAP1 POP JUMP JUMPDEST PUSH0 PUSH2 0x616 DUP3 MLOAD PUSH2 0x230 JUMP JUMPDEST DUP1 SWAP2 POP POP SWAP2 SWAP1 POP JUMP JUMPDEST PUSH0 DUP2 SWAP1 POP PUSH1 0x20 DUP3 ADD SWAP1 POP SWAP2 SWAP1 POP JUMP JUMPDEST PUSH2 0x637 DUP3 PUSH2 0x601 JUMP JUMPDEST PUSH8 0xFFFFFFFFFFFFFFFF DUP2 GT ISZERO PUSH2 0x650 JUMPI PUSH2 0x64F PUSH2 0x3F7 JUMP JUMPDEST JUMPDEST PUSH2 0x65A DUP2 DUP4 PUSH2 0x5CB JUMP JUMPDEST PUSH2 0x663 DUP4 PUSH2 0x61F JUMP JUMPDEST PUSH2 0x66C DUP4 PUSH2 0x483 JUMP JUMPDEST PUSH1 0x1 DUP4 DIV PUSH0 JUMPDEST DUP2 DUP2 LT ISZERO PUSH2 0x6A9 JUMPI PUSH0 PUSH2 0x684 DUP6 PUSH2 0x60B JUMP JUMPDEST PUSH2 0x68D DUP2 PUSH2 0x51C JUMP JUMPDEST DUP1 SWAP3 POP PUSH1 0x20 DUP8 ADD SWAP7 POP POP POP DUP1 DUP3 DUP6 ADD SSTORE POP PUSH1 0x1 DUP2 ADD SWAP1 POP PUSH2 0x672 JUMP JUMPDEST POP POP POP POP POP POP POP JUMP INVALID LOG2 PUSH5 0x6970667358 0x22 SLT KECCAK256 0xC0 0xAA 0xEF CALLCODE CREATE2 0xC6 MOD DUP1 0xBB PUSH14 0x9B75366B69E17F985E762652BD09 ADD EXTCALL CLZ 0xBA 0xD3 AND PUSH25 0xA364736F6C6343000822003300000000000000000000000000 "
				},
				"gasEstimates": {
					"creation": {
						"codeDepositCost": "353600",
						"executionCost": "391",
						"totalCost": "353991"
					},
					"external": {
						"data(uint256)": "infinite",
						"getSum()": "infinite",
						"processData(uint256[])": "infinite"
					}
				},
				"methodIdentifiers": {
					"data(uint256)": "f0ba8440",
					"getSum()": "569c5f6d",
					"processData(uint256[])": "8ed80c66"
				}
			},
			"storageLayout": {
				"storage": [
					{
						"astId": 4,
						"contract": "contracts/1.2/TaskOptimized.sol:TaskOptimized",
						"label": "data",
						"offset": 0,
						"slot": "0",
						"type": "t_array(t_uint256)dyn_storage"
					}
				],
				"types": {
					"t_array(t_uint256)dyn_storage": {
						"base": "t_uint256",
						"encoding": "dynamic_array",
						"label": "uint256[]",
						"numberOfBytes": "32"
					},
					"t_uint256": {
						"encoding": "inplace",
						"label": "uint256",
						"numberOfBytes": "32"
					}
				}
			},
			"userdoc": {
				"kind": "user",
				"methods": {},
				"version": 1
			}
		}
	}
}