{
	"contracts/3.1/03ArrayBasicOperators/DeleteTrap.sol": {
		"DeleteTrap": {
			"abi": [
				{
					"inputs": [
						{
							"internalType": "uint256",
							"name": "index",
							"type": "uint256"
						}
					],
					"name": "deleteElement",
					"outputs": [
						{
							"internalType": "uint256[]",
							"name": "",
							"type": "uint256[]"
						}
					],
					"stateMutability": "nonpayable",
					"type": "function"
				},
				{
					"inputs": [],
					"name": "hasZero",
					"outputs": [
						{
							"internalType": "bool",
							"name": "",
							"type": "bool"
						}
					],
					"stateMutability": "view",
					"type": "function"
				},
				{
					"inputs": [
						{
							"internalType": "uint256",
							"name": "",
							"type": "uint256"
						}
					],
					"name": "numbers",
					"outputs": [
						{
							"internalType": "uint256",
							"name": "",
							"type": "uint256"
						}
					],
					"stateMutability": "view",
					"type": "function"
				}
			],
			"devdoc": {
				"kind": "dev",
				"methods": {},
				"version": 1
			},
			"evm": {
				"assembly": "    /* \"contracts/3.1/03ArrayBasicOperators/DeleteTrap.sol\":58:539  contract DeleteTrap{... */\n  mstore(0x40, 0x80)\n    /* \"contracts/3.1/03ArrayBasicOperators/DeleteTrap.sol\":84:117  uint[] public numbers=[1,2,3,4,5] */\n  mload(0x40)\n  dup1\n  0xa0\n  add\n  0x40\n  mstore\n  dup1\n    /* \"contracts/3.1/03ArrayBasicOperators/DeleteTrap.sol\":107:108  1 */\n  0x01\n    /* \"contracts/3.1/03ArrayBasicOperators/DeleteTrap.sol\":84:117  uint[] public numbers=[1,2,3,4,5] */\n  0xff\n  and\n  dup2\n  mstore\n  0x20\n  add\n    /* \"contracts/3.1/03ArrayBasicOperators/DeleteTrap.sol\":109:110  2 */\n  0x02\n    /* \"contracts/3.1/03ArrayBasicOperators/DeleteTrap.sol\":84:117  uint[] public numbers=[1,2,3,4,5] */\n  0xff\n  and\n  dup2\n  mstore\n  0x20\n  add\n    /* \"contracts/3.1/03ArrayBasicOperators/DeleteTrap.sol\":111:112  3 */\n  0x03\n    /* \"contracts/3.1/03ArrayBasicOperators/DeleteTrap.sol\":84:117  uint[] public numbers=[1,2,3,4,5] */\n  0xff\n  and\n  dup2\n  mstore\n  0x20\n  add\n    /* \"contracts/3.1/03ArrayBasicOperators/DeleteTrap.sol\":113:114  4 */\n  0x04\n    /* \"contracts/3.1/03ArrayBasicOperators/DeleteTrap.sol\":84:117  uint[] public numbers=[1,2,3,4,5] */\n  0xff\n  and\n  dup2\n  mstore\n  0x20\n  add\n    /* \"contracts/3.1/03ArrayBasicOperators/DeleteTrap.sol\":115:116  5 */\n  0x05\n    /* \"contracts/3.1/03ArrayBasicOperators/DeleteTrap.sol\":84:117  uint[] public numbers=[1,2,3,4,5] */\n  0xff\n  and\n  dup2\n  mstore\n  pop\n  0x00\n  swap1\n  dup2\n  tag_1\n  swap2\n  swap1\n  tag_2\n  jump\t// in\ntag_1:\n  pop\n    /* \"contracts/3.1/03ArrayBasicOperators/DeleteTrap.sol\":58:539  contract DeleteTrap{... */\n  callvalue\n  dup1\n  iszero\n  tag_3\n  jumpi\n  revert(0x00, 0x00)\ntag_3:\n  pop\n  jump(tag_4)\n    /* \"#utility.yul\":7:187   */\ntag_5:\n    /* \"#utility.yul\":55:132   */\n  0x4e487b7100000000000000000000000000000000000000000000000000000000\n    /* \"#utility.yul\":52:53   */\n  0x00\n    /* \"#utility.yul\":45:133   */\n  mstore\n    /* \"#utility.yul\":152:156   */\n  0x41\n    /* \"#utility.yul\":149:150   */\n  0x04\n    /* \"#utility.yul\":142:157   */\n  mstore\n    /* \"#utility.yul\":176:180   */\n  0x24\n    /* \"#utility.yul\":173:174   */\n  0x00\n    /* \"#utility.yul\":166:181   */\n  revert\n    /* \"#utility.yul\":193:304   */\ntag_6:\n    /* \"#utility.yul\":257:263   */\n  0x00\n    /* \"#utility.yul\":291:296   */\n  dup2\n    /* \"#utility.yul\":285:297   */\n  sload\n    /* \"#utility.yul\":275:297   */\n  swap1\n  pop\n    /* \"#utility.yul\":193:304   */\n  swap2\n  swap1\n  pop\n  jump\t// out\n    /* \"#utility.yul\":310:387   */\ntag_7:\n    /* \"#utility.yul\":347:354   */\n  0x00\n    /* \"#utility.yul\":376:381   */\n  dup2\n    /* \"#utility.yul\":365:381   */\n  swap1\n  pop\n    /* \"#utility.yul\":310:387   */\n  swap2\n  swap1\n  pop\n  jump\t// out\n    /* \"#utility.yul\":995:1198   */\ntag_10:\n    /* \"#utility.yul\":1076:1080   */\n  0x00\n    /* \"#utility.yul\":1099:1105   */\n  dup2\n    /* \"#utility.yul\":1091:1105   */\n  swap1\n  pop\n    /* \"#utility.yul\":1189:1190   */\n  0x01\n    /* \"#utility.yul\":1184:1185   */\n  dup1\n    /* \"#utility.yul\":1181:1182   */\n  0x01\n    /* \"#utility.yul\":1177:1186   */\n  sub\n    /* \"#utility.yul\":1169:1175   */\n  dup4\n    /* \"#utility.yul\":1165:1187   */\n  add\n    /* \"#utility.yul\":1161:1191   */\n  div\n    /* \"#utility.yul\":1153:1191   */\n  swap1\n  pop\n    /* \"#utility.yul\":995:1198   */\n  swap2\n  swap1\n  pop\n  jump\t// out\n    /* \"#utility.yul\":1203:1359   */\ntag_11:\n    /* \"#utility.yul\":1267:1271   */\n  0x00\n    /* \"#utility.yul\":1290:1293   */\n  dup2\n    /* \"#utility.yul\":1282:1293   */\n  swap1\n  pop\n    /* \"#utility.yul\":1313:1316   */\n  dup2\n    /* \"#utility.yul\":1310:1311   */\n  0x00\n    /* \"#utility.yul\":1303:1317   */\n  mstore\n    /* \"#utility.yul\":1347:1351   */\n  0x20\n    /* \"#utility.yul\":1344:1345   */\n  0x00\n    /* \"#utility.yul\":1334:1352   */\n  keccak256\n    /* \"#utility.yul\":1326:1352   */\n  swap1\n  pop\n    /* \"#utility.yul\":1203:1359   */\n  swap2\n  swap1\n  pop\n  jump\t// out\n    /* \"#utility.yul\":1365:1472   */\ntag_12:\n    /* \"#utility.yul\":1409:1417   */\n  0x00\n    /* \"#utility.yul\":1459:1464   */\n  dup3\n    /* \"#utility.yul\":1453:1457   */\n  dup3\n    /* \"#utility.yul\":1449:1465   */\n  shl\n    /* \"#utility.yul\":1428:1465   */\n  swap1\n  pop\n    /* \"#utility.yul\":1365:1472   */\n  swap3\n  swap2\n  pop\n  pop\n  jump\t// out\n    /* \"#utility.yul\":1478:1871   */\ntag_13:\n    /* \"#utility.yul\":1547:1553   */\n  0x00\n    /* \"#utility.yul\":1597:1598   */\n  0x08\n    /* \"#utility.yul\":1585:1595   */\n  dup4\n    /* \"#utility.yul\":1581:1599   */\n  mul\n    /* \"#utility.yul\":1620:1717   */\n  tag_47\n    /* \"#utility.yul\":1650:1716   */\n  0xffffffffffffffffffffffffffffffffffffffffffffffffffffffffffffffff\n    /* \"#utility.yul\":1639:1648   */\n  dup3\n    /* \"#utility.yul\":1620:1717   */\n  tag_12\n  jump\t// in\ntag_47:\n    /* \"#utility.yul\":1738:1777   */\n  tag_48\n    /* \"#utility.yul\":1768:1776   */\n  dup7\n    /* \"#utility.yul\":1757:1766   */\n  dup4\n    /* \"#utility.yul\":1738:1777   */\n  tag_12\n  jump\t// in\ntag_48:\n    /* \"#utility.yul\":1726:1777   */\n  swap6\n  pop\n    /* \"#utility.yul\":1810:1814   */\n  dup1\n    /* \"#utility.yul\":1806:1815   */\n  not\n    /* \"#utility.yul\":1799:1804   */\n  dup5\n    /* \"#utility.yul\":1795:1816   */\n  and\n    /* \"#utility.yul\":1786:1816   */\n  swap4\n  pop\n    /* \"#utility.yul\":1859:1863   */\n  dup1\n    /* \"#utility.yul\":1849:1857   */\n  dup7\n    /* \"#utility.yul\":1845:1864   */\n  and\n    /* \"#utility.yul\":1838:1843   */\n  dup5\n    /* \"#utility.yul\":1835:1865   */\n  or\n    /* \"#utility.yul\":1825:1865   */\n  swap3\n  pop\n    /* \"#utility.yul\":1554:1871   */\n  pop\n  pop\n    /* \"#utility.yul\":1478:1871   */\n  swap4\n  swap3\n  pop\n  pop\n  pop\n  jump\t// out\n    /* \"#utility.yul\":1877:1937   */\ntag_14:\n    /* \"#utility.yul\":1905:1908   */\n  0x00\n    /* \"#utility.yul\":1926:1931   */\n  dup2\n    /* \"#utility.yul\":1919:1931   */\n  swap1\n  pop\n    /* \"#utility.yul\":1877:1937   */\n  swap2\n  swap1\n  pop\n  jump\t// out\n    /* \"#utility.yul\":1943:2085   */\ntag_15:\n    /* \"#utility.yul\":1993:2002   */\n  0x00\n    /* \"#utility.yul\":2026:2079   */\n  tag_51\n    /* \"#utility.yul\":2044:2078   */\n  tag_52\n    /* \"#utility.yul\":2053:2077   */\n  tag_53\n    /* \"#utility.yul\":2071:2076   */\n  dup5\n    /* \"#utility.yul\":2053:2077   */\n  tag_7\n  jump\t// in\ntag_53:\n    /* \"#utility.yul\":2044:2078   */\n  tag_14\n  jump\t// in\ntag_52:\n    /* \"#utility.yul\":2026:2079   */\n  tag_7\n  jump\t// in\ntag_51:\n    /* \"#utility.yul\":2013:2079   */\n  swap1\n  pop\n    /* \"#utility.yul\":1943:2085   */\n  swap2\n  swap1\n  pop\n  jump\t// out\n    /* \"#utility.yul\":2091:2166   */\ntag_16:\n    /* \"#utility.yul\":2134:2137   */\n  0x00\n    /* \"#utility.yul\":2155:2160   */\n  dup2\n    /* \"#utility.yul\":2148:2160   */\n  swap1\n  pop\n    /* \"#utility.yul\":2091:2166   */\n  swap2\n  swap1\n  pop\n  jump\t// out\n    /* \"#utility.yul\":2172:2441   */\ntag_17:\n    /* \"#utility.yul\":2282:2321   */\n  tag_56\n    /* \"#utility.yul\":2313:2320   */\n  dup4\n    /* \"#utility.yul\":2282:2321   */\n  tag_15\n  jump\t// in\ntag_56:\n    /* \"#utility.yul\":2343:2434   */\n  tag_57\n    /* \"#utility.yul\":2392:2433   */\n  tag_58\n    /* \"#utility.yul\":2416:2432   */\n  dup3\n    /* \"#utility.yul\":2392:2433   */\n  tag_16\n  jump\t// in\ntag_58:\n    /* \"#utility.yul\":2384:2390   */\n  dup5\n    /* \"#utility.yul\":2377:2381   */\n  dup5\n    /* \"#utility.yul\":2371:2382   */\n  sload\n    /* \"#utility.yul\":2343:2434   */\n  tag_13\n  jump\t// in\ntag_57:\n    /* \"#utility.yul\":2337:2341   */\n  dup3\n    /* \"#utility.yul\":2330:2435   */\n  sstore\n    /* \"#utility.yul\":2248:2441   */\n  pop\n    /* \"#utility.yul\":2172:2441   */\n  pop\n  pop\n  pop\n  jump\t// out\n    /* \"#utility.yul\":2447:2520   */\ntag_18:\n    /* \"#utility.yul\":2492:2495   */\n  0x00\n    /* \"#utility.yul\":2513:2514   */\n  0x00\n    /* \"#utility.yul\":2506:2514   */\n  swap1\n  pop\n    /* \"#utility.yul\":2447:2520   */\n  swap1\n  jump\t// out\n    /* \"#utility.yul\":2526:2715   */\ntag_19:\n    /* \"#utility.yul\":2603:2635   */\n  tag_61\n  tag_18\n  jump\t// in\ntag_61:\n    /* \"#utility.yul\":2644:2709   */\n  tag_62\n    /* \"#utility.yul\":2702:2708   */\n  dup2\n    /* \"#utility.yul\":2694:2700   */\n  dup5\n    /* \"#utility.yul\":2688:2692   */\n  dup5\n    /* \"#utility.yul\":2644:2709   */\n  tag_17\n  jump\t// in\ntag_62:\n    /* \"#utility.yul\":2579:2715   */\n  pop\n    /* \"#utility.yul\":2526:2715   */\n  pop\n  pop\n  jump\t// out\n    /* \"#utility.yul\":2721:2936   */\ntag_20:\n    /* \"#utility.yul\":2807:2808   */\n  0x00\n    /* \"#utility.yul\":2792:2930   */\ntag_64:\n    /* \"#utility.yul\":2817:2826   */\n  dup3\n    /* \"#utility.yul\":2814:2815   */\n  dup2\n    /* \"#utility.yul\":2811:2827   */\n  lt\n    /* \"#utility.yul\":2792:2930   */\n  iszero\n  tag_66\n  jumpi\n    /* \"#utility.yul\":2869:2920   */\n  tag_67\n    /* \"#utility.yul\":2918:2919   */\n  0x00\n    /* \"#utility.yul\":2914:2915   */\n  dup3\n    /* \"#utility.yul\":2903:2912   */\n  dup5\n    /* \"#utility.yul\":2899:2916   */\n  add\n    /* \"#utility.yul\":2869:2920   */\n  tag_19\n  jump\t// in\ntag_67:\n    /* \"#utility.yul\":2842:2843   */\n  0x01\n    /* \"#utility.yul\":2839:2840   */\n  dup2\n    /* \"#utility.yul\":2835:2844   */\n  add\n    /* \"#utility.yul\":2830:2844   */\n  swap1\n  pop\n    /* \"#utility.yul\":2792:2930   */\n  jump(tag_64)\ntag_66:\n    /* \"#utility.yul\":2796:2810   */\n  pop\n    /* \"#utility.yul\":2721:2936   */\n  pop\n  pop\n  jump\t// out\n    /* \"#utility.yul\":3315:3955   */\ntag_23:\n    /* \"#utility.yul\":3435:3438   */\n  dup2\n    /* \"#utility.yul\":3423:3433   */\n  dup4\n    /* \"#utility.yul\":3420:3439   */\n  lt\n    /* \"#utility.yul\":3417:3948   */\n  iszero\n  tag_72\n  jumpi\n    /* \"#utility.yul\":3526:3591   */\n  tag_73\n    /* \"#utility.yul\":3587:3590   */\n  dup3\n    /* \"#utility.yul\":3526:3591   */\n  tag_10\n  jump\t// in\ntag_73:\n    /* \"#utility.yul\":3624:3696   */\n  tag_74\n    /* \"#utility.yul\":3685:3695   */\n  dup5\n    /* \"#utility.yul\":3624:3696   */\n  tag_10\n  jump\t// in\ntag_74:\n    /* \"#utility.yul\":3731:3784   */\n  tag_75\n    /* \"#utility.yul\":3778:3783   */\n  dup4\n    /* \"#utility.yul\":3731:3784   */\n  tag_11\n  jump\t// in\ntag_75:\n    /* \"#utility.yul\":3836:3848   */\n  dup2\n    /* \"#utility.yul\":3820:3834   */\n  dup2\n    /* \"#utility.yul\":3816:3849   */\n  add\n    /* \"#utility.yul\":3863:3938   */\n  tag_76\n    /* \"#utility.yul\":3924:3936   */\n  dup4\n    /* \"#utility.yul\":3910:3922   */\n  dup6\n    /* \"#utility.yul\":3906:3937   */\n  sub\n    /* \"#utility.yul\":3893:3904   */\n  dup3\n    /* \"#utility.yul\":3863:3938   */\n  tag_20\n  jump\t// in\ntag_76:\n    /* \"#utility.yul\":3440:3948   */\n  pop\n  pop\n  pop\n  pop\n    /* \"#utility.yul\":3417:3948   */\ntag_72:\n    /* \"#utility.yul\":3315:3955   */\n  pop\n  pop\n  pop\n  jump\t// out\n    /* \"#utility.yul\":3961:4349   */\ntag_24:\n    /* \"#utility.yul\":4054:4074   */\n  0x010000000000000000\n    /* \"#utility.yul\":4046:4052   */\n  dup3\n    /* \"#utility.yul\":4043:4075   */\n  gt\n    /* \"#utility.yul\":4040:4118   */\n  iszero\n  tag_78\n  jumpi\n    /* \"#utility.yul\":4090:4108   */\n  tag_79\n  tag_5\n  jump\t// in\ntag_79:\n    /* \"#utility.yul\":4040:4118   */\ntag_78:\n    /* \"#utility.yul\":4142:4193   */\n  tag_80\n    /* \"#utility.yul\":4187:4192   */\n  dup2\n    /* \"#utility.yul\":4142:4193   */\n  tag_6\n  jump\t// in\ntag_80:\n    /* \"#utility.yul\":4245:4251   */\n  dup3\n    /* \"#utility.yul\":4238:4243   */\n  dup3\n    /* \"#utility.yul\":4231:4252   */\n  sstore\n    /* \"#utility.yul\":4262:4342   */\n  tag_81\n    /* \"#utility.yul\":4335:4341   */\n  dup4\n    /* \"#utility.yul\":4327:4333   */\n  dup3\n    /* \"#utility.yul\":4320:4325   */\n  dup5\n    /* \"#utility.yul\":4262:4342   */\n  tag_23\n  jump\t// in\ntag_81:\n    /* \"#utility.yul\":4030:4349   */\n  pop\n    /* \"#utility.yul\":3961:4349   */\n  pop\n  pop\n  jump\t// out\n    /* \"#utility.yul\":4354:4456   */\ntag_25:\n    /* \"#utility.yul\":4417:4423   */\n  0x00\n    /* \"#utility.yul\":4445:4449   */\n  0x05\n    /* \"#utility.yul\":4435:4449   */\n  swap1\n  pop\n    /* \"#utility.yul\":4354:4456   */\n  swap2\n  swap1\n  pop\n  jump\t// out\n    /* \"#utility.yul\":4462:4548   */\ntag_26:\n    /* \"#utility.yul\":4497:4504   */\n  0x00\n    /* \"#utility.yul\":4537:4541   */\n  0xff\n    /* \"#utility.yul\":4530:4535   */\n  dup3\n    /* \"#utility.yul\":4526:4542   */\n  and\n    /* \"#utility.yul\":4515:4542   */\n  swap1\n  pop\n    /* \"#utility.yul\":4462:4548   */\n  swap2\n  swap1\n  pop\n  jump\t// out\n    /* \"#utility.yul\":4554:4704   */\ntag_27:\n    /* \"#utility.yul\":4595:4606   */\n  0x00\n    /* \"#utility.yul\":4631:4658   */\n  tag_85\n    /* \"#utility.yul\":4653:4656   */\n  dup3\n    /* \"#utility.yul\":4647:4657   */\n  mload\n    /* \"#utility.yul\":4631:4658   */\n  tag_26\n  jump\t// in\ntag_85:\n    /* \"#utility.yul\":4692:4697   */\n  dup1\n    /* \"#utility.yul\":4668:4697   */\n  swap2\n  pop\n    /* \"#utility.yul\":4607:4704   */\n  pop\n    /* \"#utility.yul\":4554:4704   */\n  swap2\n  swap1\n  pop\n  jump\t// out\n    /* \"#utility.yul\":4710:4806   */\ntag_28:\n    /* \"#utility.yul\":4773:4777   */\n  0x00\n    /* \"#utility.yul\":4796:4799   */\n  dup2\n    /* \"#utility.yul\":4788:4799   */\n  swap1\n  pop\n    /* \"#utility.yul\":4710:4806   */\n  swap2\n  swap1\n  pop\n  jump\t// out\n    /* \"#utility.yul\":5258:6245   */\ntag_2:\n    /* \"#utility.yul\":5395:5443   */\n  tag_96\n    /* \"#utility.yul\":5439:5442   */\n  dup3\n    /* \"#utility.yul\":5395:5443   */\n  tag_25\n  jump\t// in\ntag_96:\n    /* \"#utility.yul\":5508:5526   */\n  0xffffffffffffffff\n    /* \"#utility.yul\":5500:5506   */\n  dup2\n    /* \"#utility.yul\":5497:5527   */\n  gt\n    /* \"#utility.yul\":5494:5550   */\n  iszero\n  tag_97\n  jumpi\n    /* \"#utility.yul\":5530:5548   */\n  tag_98\n  tag_5\n  jump\t// in\ntag_98:\n    /* \"#utility.yul\":5494:5550   */\ntag_97:\n    /* \"#utility.yul\":5559:5616   */\n  tag_99\n    /* \"#utility.yul\":5609:5615   */\n  dup2\n    /* \"#utility.yul\":5604:5607   */\n  dup4\n    /* \"#utility.yul\":5559:5616   */\n  tag_24\n  jump\t// in\ntag_99:\n    /* \"#utility.yul\":5640:5690   */\n  tag_100\n    /* \"#utility.yul\":5686:5689   */\n  dup4\n    /* \"#utility.yul\":5640:5690   */\n  tag_28\n  jump\t// in\ntag_100:\n    /* \"#utility.yul\":5714:5765   */\n  tag_101\n    /* \"#utility.yul\":5761:5764   */\n  dup4\n    /* \"#utility.yul\":5714:5765   */\n  tag_11\n  jump\t// in\ntag_101:\n    /* \"#utility.yul\":5804:5805   */\n  0x01\n    /* \"#utility.yul\":5796:5802   */\n  dup4\n    /* \"#utility.yul\":5792:5806   */\n  div\n    /* \"#utility.yul\":5831:5832   */\n  0x00\n    /* \"#utility.yul\":5816:6238   */\ntag_102:\n    /* \"#utility.yul\":5841:5850   */\n  dup2\n    /* \"#utility.yul\":5838:5839   */\n  dup2\n    /* \"#utility.yul\":5835:5851   */\n  lt\n    /* \"#utility.yul\":5816:6238   */\n  iszero\n  tag_104\n  jumpi\n    /* \"#utility.yul\":5905:5906   */\n  0x00\n    /* \"#utility.yul\":5958:5989   */\n  tag_105\n    /* \"#utility.yul\":5982:5988   */\n  dup6\n    /* \"#utility.yul\":5958:5989   */\n  tag_27\n  jump\t// in\ntag_105:\n    /* \"#utility.yul\":6024:6060   */\n  tag_106\n    /* \"#utility.yul\":6048:6059   */\n  dup2\n    /* \"#utility.yul\":6024:6060   */\n  tag_16\n  jump\t// in\ntag_106:\n    /* \"#utility.yul\":6110:6119   */\n  dup1\n    /* \"#utility.yul\":6077:6119   */\n  swap3\n  pop\n    /* \"#utility.yul\":6159:6161   */\n  0x20\n    /* \"#utility.yul\":6151:6157   */\n  dup8\n    /* \"#utility.yul\":6147:6162   */\n  add\n    /* \"#utility.yul\":6137:6162   */\n  swap7\n  pop\n    /* \"#utility.yul\":5920:6177   */\n  pop\n  pop\n    /* \"#utility.yul\":6215:6227   */\n  dup1\n    /* \"#utility.yul\":6211:6212   */\n  dup3\n    /* \"#utility.yul\":6202:6209   */\n  dup6\n    /* \"#utility.yul\":6198:6213   */\n  add\n    /* \"#utility.yul\":6191:6228   */\n  sstore\n    /* \"#utility.yul\":5871:6238   */\n  pop\n    /* \"#utility.yul\":5866:5867   */\n  0x01\n    /* \"#utility.yul\":5863:5864   */\n  dup2\n    /* \"#utility.yul\":5859:5868   */\n  add\n    /* \"#utility.yul\":5854:5868   */\n  swap1\n  pop\n    /* \"#utility.yul\":5816:6238   */\n  jump(tag_102)\ntag_104:\n    /* \"#utility.yul\":5820:5834   */\n  pop\n    /* \"#utility.yul\":5370:6245   */\n  pop\n  pop\n  pop\n  pop\n    /* \"#utility.yul\":5258:6245   */\n  pop\n  pop\n  jump\t// out\n    /* \"contracts/3.1/03ArrayBasicOperators/DeleteTrap.sol\":58:539  contract DeleteTrap{... */\ntag_4:\n  dataSize(sub_0)\n  dup1\n  dataOffset(sub_0)\n  0x00\n  codecopy\n  0x00\n  return\nstop\n\nsub_0: assembly {\n        /* \"contracts/3.1/03ArrayBasicOperators/DeleteTrap.sol\":58:539  contract DeleteTrap{... */\n      mstore(0x40, 0x80)\n      callvalue\n      dup1\n      iszero\n      tag_1\n      jumpi\n      revert(0x00, 0x00)\n    tag_1:\n      pop\n      jumpi(tag_2, lt(calldatasize, 0x04))\n      shr(0xe0, calldataload(0x00))\n      dup1\n      0x792de6f3\n      eq\n      tag_3\n      jumpi\n      dup1\n      0xbe9599b2\n      eq\n      tag_4\n      jumpi\n      dup1\n      0xd39fa233\n      eq\n      tag_5\n      jumpi\n    tag_2:\n      revert(0x00, 0x00)\n        /* \"contracts/3.1/03ArrayBasicOperators/DeleteTrap.sol\":124:321  function deleteElement(uint index) public returns(uint[] memory){... */\n    tag_3:\n      tag_6\n      0x04\n      dup1\n      calldatasize\n      sub\n      dup2\n      add\n      swap1\n      tag_7\n      swap2\n      swap1\n      tag_8\n      jump\t// in\n    tag_7:\n      tag_9\n      jump\t// in\n    tag_6:\n      mload(0x40)\n      tag_10\n      swap2\n      swap1\n      tag_11\n      jump\t// in\n    tag_10:\n      mload(0x40)\n      dup1\n      swap2\n      sub\n      swap1\n      return\n        /* \"contracts/3.1/03ArrayBasicOperators/DeleteTrap.sol\":327:536  function hasZero() public view returns(bool){... */\n    tag_4:\n      tag_12\n      tag_13\n      jump\t// in\n    tag_12:\n      mload(0x40)\n      tag_14\n      swap2\n      swap1\n      tag_15\n      jump\t// in\n    tag_14:\n      mload(0x40)\n      dup1\n      swap2\n      sub\n      swap1\n      return\n        /* \"contracts/3.1/03ArrayBasicOperators/DeleteTrap.sol\":84:117  uint[] public numbers=[1,2,3,4,5] */\n    tag_5:\n      tag_16\n      0x04\n      dup1\n      calldatasize\n      sub\n      dup2\n      add\n      swap1\n      tag_17\n      swap2\n      swap1\n      tag_8\n      jump\t// in\n    tag_17:\n      tag_18\n      jump\t// in\n    tag_16:\n      mload(0x40)\n      tag_19\n      swap2\n      swap1\n      tag_20\n      jump\t// in\n    tag_19:\n      mload(0x40)\n      dup1\n      swap2\n      sub\n      swap1\n      return\n        /* \"contracts/3.1/03ArrayBasicOperators/DeleteTrap.sol\":124:321  function deleteElement(uint index) public returns(uint[] memory){... */\n    tag_9:\n        /* \"contracts/3.1/03ArrayBasicOperators/DeleteTrap.sol\":174:187  uint[] memory */\n      0x60\n        /* \"contracts/3.1/03ArrayBasicOperators/DeleteTrap.sol\":213:220  numbers */\n      0x00\n        /* \"contracts/3.1/03ArrayBasicOperators/DeleteTrap.sol\":213:227  numbers.length */\n      dup1\n      sload\n      swap1\n      pop\n        /* \"contracts/3.1/03ArrayBasicOperators/DeleteTrap.sol\":207:212  index */\n      dup3\n        /* \"contracts/3.1/03ArrayBasicOperators/DeleteTrap.sol\":207:227  index<numbers.length */\n      lt\n        /* \"contracts/3.1/03ArrayBasicOperators/DeleteTrap.sol\":199:256  require(index<numbers.length,unicode\"数组下标越界\") */\n      tag_22\n      jumpi\n      mload(0x40)\n      0x08c379a000000000000000000000000000000000000000000000000000000000\n      dup2\n      mstore\n      0x04\n      add\n      tag_23\n      swap1\n      tag_24\n      jump\t// in\n    tag_23:\n      mload(0x40)\n      dup1\n      swap2\n      sub\n      swap1\n      revert\n    tag_22:\n        /* \"contracts/3.1/03ArrayBasicOperators/DeleteTrap.sol\":274:281  numbers */\n      0x00\n        /* \"contracts/3.1/03ArrayBasicOperators/DeleteTrap.sol\":282:287  index */\n      dup3\n        /* \"contracts/3.1/03ArrayBasicOperators/DeleteTrap.sol\":274:288  numbers[index] */\n      dup2\n      sload\n      dup2\n      lt\n      tag_25\n      jumpi\n      tag_26\n      tag_27\n      jump\t// in\n    tag_26:\n    tag_25:\n      swap1\n      0x00\n      mstore\n      keccak256(0x00, 0x20)\n      add\n        /* \"contracts/3.1/03ArrayBasicOperators/DeleteTrap.sol\":267:288  delete numbers[index] */\n      0x00\n      swap1\n      sstore\n        /* \"contracts/3.1/03ArrayBasicOperators/DeleteTrap.sol\":306:313  numbers */\n      0x00\n        /* \"contracts/3.1/03ArrayBasicOperators/DeleteTrap.sol\":299:313  return numbers */\n      dup1\n      sload\n      dup1\n      0x20\n      mul\n      0x20\n      add\n      mload(0x40)\n      swap1\n      dup2\n      add\n      0x40\n      mstore\n      dup1\n      swap3\n      swap2\n      swap1\n      dup2\n      dup2\n      mstore\n      0x20\n      add\n      dup3\n      dup1\n      sload\n      dup1\n      iszero\n      tag_29\n      jumpi\n      0x20\n      mul\n      dup3\n      add\n      swap2\n      swap1\n      0x00\n      mstore\n      keccak256(0x00, 0x20)\n      swap1\n    tag_30:\n      dup2\n      sload\n      dup2\n      mstore\n      0x20\n      add\n      swap1\n      0x01\n      add\n      swap1\n      dup1\n      dup4\n      gt\n      tag_30\n      jumpi\n    tag_29:\n      pop\n      pop\n      pop\n      pop\n      pop\n      swap1\n      pop\n        /* \"contracts/3.1/03ArrayBasicOperators/DeleteTrap.sol\":124:321  function deleteElement(uint index) public returns(uint[] memory){... */\n      swap2\n      swap1\n      pop\n      jump\t// out\n        /* \"contracts/3.1/03ArrayBasicOperators/DeleteTrap.sol\":327:536  function hasZero() public view returns(bool){... */\n    tag_13:\n        /* \"contracts/3.1/03ArrayBasicOperators/DeleteTrap.sol\":366:370  bool */\n      0x00\n        /* \"contracts/3.1/03ArrayBasicOperators/DeleteTrap.sol\":386:392  uint i */\n      0x00\n        /* \"contracts/3.1/03ArrayBasicOperators/DeleteTrap.sol\":393:394  0 */\n      0x00\n        /* \"contracts/3.1/03ArrayBasicOperators/DeleteTrap.sol\":386:394  uint i=0 */\n      swap1\n      pop\n        /* \"contracts/3.1/03ArrayBasicOperators/DeleteTrap.sol\":382:506  for(uint i=0;i<numbers.length;i++){... */\n    tag_32:\n        /* \"contracts/3.1/03ArrayBasicOperators/DeleteTrap.sol\":397:404  numbers */\n      0x00\n        /* \"contracts/3.1/03ArrayBasicOperators/DeleteTrap.sol\":397:411  numbers.length */\n      dup1\n      sload\n      swap1\n      pop\n        /* \"contracts/3.1/03ArrayBasicOperators/DeleteTrap.sol\":395:396  i */\n      dup2\n        /* \"contracts/3.1/03ArrayBasicOperators/DeleteTrap.sol\":395:411  i<numbers.length */\n      lt\n        /* \"contracts/3.1/03ArrayBasicOperators/DeleteTrap.sol\":382:506  for(uint i=0;i<numbers.length;i++){... */\n      iszero\n      tag_33\n      jumpi\n        /* \"contracts/3.1/03ArrayBasicOperators/DeleteTrap.sol\":447:448  0 */\n      0x00\n        /* \"contracts/3.1/03ArrayBasicOperators/DeleteTrap.sol\":435:442  numbers */\n      0x00\n        /* \"contracts/3.1/03ArrayBasicOperators/DeleteTrap.sol\":443:444  i */\n      dup3\n        /* \"contracts/3.1/03ArrayBasicOperators/DeleteTrap.sol\":435:445  numbers[i] */\n      dup2\n      sload\n      dup2\n      lt\n      tag_35\n      jumpi\n      tag_36\n      tag_27\n      jump\t// in\n    tag_36:\n    tag_35:\n      swap1\n      0x00\n      mstore\n      keccak256(0x00, 0x20)\n      add\n      sload\n        /* \"contracts/3.1/03ArrayBasicOperators/DeleteTrap.sol\":435:448  numbers[i]==0 */\n      sub\n        /* \"contracts/3.1/03ArrayBasicOperators/DeleteTrap.sol\":431:495  if (numbers[i]==0){... */\n      tag_38\n      jumpi\n        /* \"contracts/3.1/03ArrayBasicOperators/DeleteTrap.sol\":475:479  true */\n      0x01\n        /* \"contracts/3.1/03ArrayBasicOperators/DeleteTrap.sol\":468:479  return true */\n      swap2\n      pop\n      pop\n      jump(tag_31)\n        /* \"contracts/3.1/03ArrayBasicOperators/DeleteTrap.sol\":431:495  if (numbers[i]==0){... */\n    tag_38:\n        /* \"contracts/3.1/03ArrayBasicOperators/DeleteTrap.sol\":412:415  i++ */\n      dup1\n      dup1\n      0x01\n      add\n      swap2\n      pop\n      pop\n        /* \"contracts/3.1/03ArrayBasicOperators/DeleteTrap.sol\":382:506  for(uint i=0;i<numbers.length;i++){... */\n      jump(tag_32)\n    tag_33:\n      pop\n        /* \"contracts/3.1/03ArrayBasicOperators/DeleteTrap.sol\":523:528  false */\n      0x00\n        /* \"contracts/3.1/03ArrayBasicOperators/DeleteTrap.sol\":516:528  return false */\n      swap1\n      pop\n        /* \"contracts/3.1/03ArrayBasicOperators/DeleteTrap.sol\":327:536  function hasZero() public view returns(bool){... */\n    tag_31:\n      swap1\n      jump\t// out\n        /* \"contracts/3.1/03ArrayBasicOperators/DeleteTrap.sol\":84:117  uint[] public numbers=[1,2,3,4,5] */\n    tag_18:\n      0x00\n      dup2\n      dup2\n      sload\n      dup2\n      lt\n      tag_39\n      jumpi\n      0x00\n      dup1\n      revert\n    tag_39:\n      swap1\n      0x00\n      mstore\n      keccak256(0x00, 0x20)\n      add\n      0x00\n      swap2\n      pop\n      swap1\n      pop\n      sload\n      dup2\n      jump\t// out\n        /* \"#utility.yul\":88:205   */\n    tag_42:\n        /* \"#utility.yul\":197:198   */\n      0x00\n        /* \"#utility.yul\":194:195   */\n      0x00\n        /* \"#utility.yul\":187:199   */\n      revert\n        /* \"#utility.yul\":334:411   */\n    tag_44:\n        /* \"#utility.yul\":371:378   */\n      0x00\n        /* \"#utility.yul\":400:405   */\n      dup2\n        /* \"#utility.yul\":389:405   */\n      swap1\n      pop\n        /* \"#utility.yul\":334:411   */\n      swap2\n      swap1\n      pop\n      jump\t// out\n        /* \"#utility.yul\":417:539   */\n    tag_45:\n        /* \"#utility.yul\":490:514   */\n      tag_66\n        /* \"#utility.yul\":508:513   */\n      dup2\n        /* \"#utility.yul\":490:514   */\n      tag_44\n      jump\t// in\n    tag_66:\n        /* \"#utility.yul\":483:488   */\n      dup2\n        /* \"#utility.yul\":480:515   */\n      eq\n        /* \"#utility.yul\":470:533   */\n      tag_67\n      jumpi\n        /* \"#utility.yul\":529:530   */\n      0x00\n        /* \"#utility.yul\":526:527   */\n      0x00\n        /* \"#utility.yul\":519:531   */\n      revert\n        /* \"#utility.yul\":470:533   */\n    tag_67:\n        /* \"#utility.yul\":417:539   */\n      pop\n      jump\t// out\n        /* \"#utility.yul\":545:684   */\n    tag_46:\n        /* \"#utility.yul\":591:596   */\n      0x00\n        /* \"#utility.yul\":629:635   */\n      dup2\n        /* \"#utility.yul\":616:636   */\n      calldataload\n        /* \"#utility.yul\":607:636   */\n      swap1\n      pop\n        /* \"#utility.yul\":645:678   */\n      tag_69\n        /* \"#utility.yul\":672:677   */\n      dup2\n        /* \"#utility.yul\":645:678   */\n      tag_45\n      jump\t// in\n    tag_69:\n        /* \"#utility.yul\":545:684   */\n      swap3\n      swap2\n      pop\n      pop\n      jump\t// out\n        /* \"#utility.yul\":690:1019   */\n    tag_8:\n        /* \"#utility.yul\":749:755   */\n      0x00\n        /* \"#utility.yul\":798:800   */\n      0x20\n        /* \"#utility.yul\":786:795   */\n      dup3\n        /* \"#utility.yul\":777:784   */\n      dup5\n        /* \"#utility.yul\":773:796   */\n      sub\n        /* \"#utility.yul\":769:801   */\n      slt\n        /* \"#utility.yul\":766:885   */\n      iszero\n      tag_71\n      jumpi\n        /* \"#utility.yul\":804:883   */\n      tag_72\n      tag_42\n      jump\t// in\n    tag_72:\n        /* \"#utility.yul\":766:885   */\n    tag_71:\n        /* \"#utility.yul\":924:925   */\n      0x00\n        /* \"#utility.yul\":949:1002   */\n      tag_73\n        /* \"#utility.yul\":994:1001   */\n      dup5\n        /* \"#utility.yul\":985:991   */\n      dup3\n        /* \"#utility.yul\":974:983   */\n      dup6\n        /* \"#utility.yul\":970:992   */\n      add\n        /* \"#utility.yul\":949:1002   */\n      tag_46\n      jump\t// in\n    tag_73:\n        /* \"#utility.yul\":939:1002   */\n      swap2\n      pop\n        /* \"#utility.yul\":895:1012   */\n      pop\n        /* \"#utility.yul\":690:1019   */\n      swap3\n      swap2\n      pop\n      pop\n      jump\t// out\n        /* \"#utility.yul\":1025:1139   */\n    tag_47:\n        /* \"#utility.yul\":1092:1098   */\n      0x00\n        /* \"#utility.yul\":1126:1131   */\n      dup2\n        /* \"#utility.yul\":1120:1132   */\n      mload\n        /* \"#utility.yul\":1110:1132   */\n      swap1\n      pop\n        /* \"#utility.yul\":1025:1139   */\n      swap2\n      swap1\n      pop\n      jump\t// out\n        /* \"#utility.yul\":1145:1329   */\n    tag_48:\n        /* \"#utility.yul\":1244:1255   */\n      0x00\n        /* \"#utility.yul\":1278:1284   */\n      dup3\n        /* \"#utility.yul\":1273:1276   */\n      dup3\n        /* \"#utility.yul\":1266:1285   */\n      mstore\n        /* \"#utility.yul\":1318:1322   */\n      0x20\n        /* \"#utility.yul\":1313:1316   */\n      dup3\n        /* \"#utility.yul\":1309:1323   */\n      add\n        /* \"#utility.yul\":1294:1323   */\n      swap1\n      pop\n        /* \"#utility.yul\":1145:1329   */\n      swap3\n      swap2\n      pop\n      pop\n      jump\t// out\n        /* \"#utility.yul\":1335:1467   */\n    tag_49:\n        /* \"#utility.yul\":1402:1406   */\n      0x00\n        /* \"#utility.yul\":1425:1428   */\n      dup2\n        /* \"#utility.yul\":1417:1428   */\n      swap1\n      pop\n        /* \"#utility.yul\":1455:1459   */\n      0x20\n        /* \"#utility.yul\":1450:1453   */\n      dup3\n        /* \"#utility.yul\":1446:1460   */\n      add\n        /* \"#utility.yul\":1438:1460   */\n      swap1\n      pop\n        /* \"#utility.yul\":1335:1467   */\n      swap2\n      swap1\n      pop\n      jump\t// out\n        /* \"#utility.yul\":1473:1581   */\n    tag_50:\n        /* \"#utility.yul\":1550:1574   */\n      tag_78\n        /* \"#utility.yul\":1568:1573   */\n      dup2\n        /* \"#utility.yul\":1550:1574   */\n      tag_44\n      jump\t// in\n    tag_78:\n        /* \"#utility.yul\":1545:1548   */\n      dup3\n        /* \"#utility.yul\":1538:1575   */\n      mstore\n        /* \"#utility.yul\":1473:1581   */\n      pop\n      pop\n      jump\t// out\n        /* \"#utility.yul\":1587:1766   */\n    tag_51:\n        /* \"#utility.yul\":1656:1666   */\n      0x00\n        /* \"#utility.yul\":1677:1723   */\n      tag_80\n        /* \"#utility.yul\":1719:1722   */\n      dup4\n        /* \"#utility.yul\":1711:1717   */\n      dup4\n        /* \"#utility.yul\":1677:1723   */\n      tag_50\n      jump\t// in\n    tag_80:\n        /* \"#utility.yul\":1755:1759   */\n      0x20\n        /* \"#utility.yul\":1750:1753   */\n      dup4\n        /* \"#utility.yul\":1746:1760   */\n      add\n        /* \"#utility.yul\":1732:1760   */\n      swap1\n      pop\n        /* \"#utility.yul\":1587:1766   */\n      swap3\n      swap2\n      pop\n      pop\n      jump\t// out\n        /* \"#utility.yul\":1772:1885   */\n    tag_52:\n        /* \"#utility.yul\":1842:1846   */\n      0x00\n        /* \"#utility.yul\":1874:1878   */\n      0x20\n        /* \"#utility.yul\":1869:1872   */\n      dup3\n        /* \"#utility.yul\":1865:1879   */\n      add\n        /* \"#utility.yul\":1857:1879   */\n      swap1\n      pop\n        /* \"#utility.yul\":1772:1885   */\n      swap2\n      swap1\n      pop\n      jump\t// out\n        /* \"#utility.yul\":1921:2653   */\n    tag_53:\n        /* \"#utility.yul\":2040:2043   */\n      0x00\n        /* \"#utility.yul\":2069:2123   */\n      tag_83\n        /* \"#utility.yul\":2117:2122   */\n      dup3\n        /* \"#utility.yul\":2069:2123   */\n      tag_47\n      jump\t// in\n    tag_83:\n        /* \"#utility.yul\":2139:2225   */\n      tag_84\n        /* \"#utility.yul\":2218:2224   */\n      dup2\n        /* \"#utility.yul\":2213:2216   */\n      dup6\n        /* \"#utility.yul\":2139:2225   */\n      tag_48\n      jump\t// in\n    tag_84:\n        /* \"#utility.yul\":2132:2225   */\n      swap4\n      pop\n        /* \"#utility.yul\":2249:2305   */\n      tag_85\n        /* \"#utility.yul\":2299:2304   */\n      dup4\n        /* \"#utility.yul\":2249:2305   */\n      tag_49\n      jump\t// in\n    tag_85:\n        /* \"#utility.yul\":2328:2335   */\n      dup1\n        /* \"#utility.yul\":2359:2360   */\n      0x00\n        /* \"#utility.yul\":2344:2628   */\n    tag_86:\n        /* \"#utility.yul\":2369:2375   */\n      dup4\n        /* \"#utility.yul\":2366:2367   */\n      dup2\n        /* \"#utility.yul\":2363:2376   */\n      lt\n        /* \"#utility.yul\":2344:2628   */\n      iszero\n      tag_88\n      jumpi\n        /* \"#utility.yul\":2445:2451   */\n      dup2\n        /* \"#utility.yul\":2439:2452   */\n      mload\n        /* \"#utility.yul\":2472:2535   */\n      tag_89\n        /* \"#utility.yul\":2531:2534   */\n      dup9\n        /* \"#utility.yul\":2516:2529   */\n      dup3\n        /* \"#utility.yul\":2472:2535   */\n      tag_51\n      jump\t// in\n    tag_89:\n        /* \"#utility.yul\":2465:2535   */\n      swap8\n      pop\n        /* \"#utility.yul\":2558:2618   */\n      tag_90\n        /* \"#utility.yul\":2611:2617   */\n      dup4\n        /* \"#utility.yul\":2558:2618   */\n      tag_52\n      jump\t// in\n    tag_90:\n        /* \"#utility.yul\":2548:2618   */\n      swap3\n      pop\n        /* \"#utility.yul\":2404:2628   */\n      pop\n        /* \"#utility.yul\":2391:2392   */\n      0x01\n        /* \"#utility.yul\":2388:2389   */\n      dup2\n        /* \"#utility.yul\":2384:2393   */\n      add\n        /* \"#utility.yul\":2379:2393   */\n      swap1\n      pop\n        /* \"#utility.yul\":2344:2628   */\n      jump(tag_86)\n    tag_88:\n        /* \"#utility.yul\":2348:2362   */\n      pop\n        /* \"#utility.yul\":2644:2647   */\n      dup6\n        /* \"#utility.yul\":2637:2647   */\n      swap4\n      pop\n        /* \"#utility.yul\":2045:2653   */\n      pop\n      pop\n      pop\n        /* \"#utility.yul\":1921:2653   */\n      swap3\n      swap2\n      pop\n      pop\n      jump\t// out\n        /* \"#utility.yul\":2659:3032   */\n    tag_11:\n        /* \"#utility.yul\":2802:2806   */\n      0x00\n        /* \"#utility.yul\":2840:2842   */\n      0x20\n        /* \"#utility.yul\":2829:2838   */\n      dup3\n        /* \"#utility.yul\":2825:2843   */\n      add\n        /* \"#utility.yul\":2817:2843   */\n      swap1\n      pop\n        /* \"#utility.yul\":2889:2898   */\n      dup2\n        /* \"#utility.yul\":2883:2887   */\n      dup2\n        /* \"#utility.yul\":2879:2899   */\n      sub\n        /* \"#utility.yul\":2875:2876   */\n      0x00\n        /* \"#utility.yul\":2864:2873   */\n      dup4\n        /* \"#utility.yul\":2860:2877   */\n      add\n        /* \"#utility.yul\":2853:2900   */\n      mstore\n        /* \"#utility.yul\":2917:3025   */\n      tag_92\n        /* \"#utility.yul\":3020:3024   */\n      dup2\n        /* \"#utility.yul\":3011:3017   */\n      dup5\n        /* \"#utility.yul\":2917:3025   */\n      tag_53\n      jump\t// in\n    tag_92:\n        /* \"#utility.yul\":2909:3025   */\n      swap1\n      pop\n        /* \"#utility.yul\":2659:3032   */\n      swap3\n      swap2\n      pop\n      pop\n      jump\t// out\n        /* \"#utility.yul\":3038:3128   */\n    tag_54:\n        /* \"#utility.yul\":3072:3079   */\n      0x00\n        /* \"#utility.yul\":3115:3120   */\n      dup2\n        /* \"#utility.yul\":3108:3121   */\n      iszero\n        /* \"#utility.yul\":3101:3122   */\n      iszero\n        /* \"#utility.yul\":3090:3122   */\n      swap1\n      pop\n        /* \"#utility.yul\":3038:3128   */\n      swap2\n      swap1\n      pop\n      jump\t// out\n        /* \"#utility.yul\":3134:3243   */\n    tag_55:\n        /* \"#utility.yul\":3215:3236   */\n      tag_95\n        /* \"#utility.yul\":3230:3235   */\n      dup2\n        /* \"#utility.yul\":3215:3236   */\n      tag_54\n      jump\t// in\n    tag_95:\n        /* \"#utility.yul\":3210:3213   */\n      dup3\n        /* \"#utility.yul\":3203:3237   */\n      mstore\n        /* \"#utility.yul\":3134:3243   */\n      pop\n      pop\n      jump\t// out\n        /* \"#utility.yul\":3249:3459   */\n    tag_15:\n        /* \"#utility.yul\":3336:3340   */\n      0x00\n        /* \"#utility.yul\":3374:3376   */\n      0x20\n        /* \"#utility.yul\":3363:3372   */\n      dup3\n        /* \"#utility.yul\":3359:3377   */\n      add\n        /* \"#utility.yul\":3351:3377   */\n      swap1\n      pop\n        /* \"#utility.yul\":3387:3452   */\n      tag_97\n        /* \"#utility.yul\":3449:3450   */\n      0x00\n        /* \"#utility.yul\":3438:3447   */\n      dup4\n        /* \"#utility.yul\":3434:3451   */\n      add\n        /* \"#utility.yul\":3425:3431   */\n      dup5\n        /* \"#utility.yul\":3387:3452   */\n      tag_55\n      jump\t// in\n    tag_97:\n        /* \"#utility.yul\":3249:3459   */\n      swap3\n      swap2\n      pop\n      pop\n      jump\t// out\n        /* \"#utility.yul\":3465:3583   */\n    tag_56:\n        /* \"#utility.yul\":3552:3576   */\n      tag_99\n        /* \"#utility.yul\":3570:3575   */\n      dup2\n        /* \"#utility.yul\":3552:3576   */\n      tag_44\n      jump\t// in\n    tag_99:\n        /* \"#utility.yul\":3547:3550   */\n      dup3\n        /* \"#utility.yul\":3540:3577   */\n      mstore\n        /* \"#utility.yul\":3465:3583   */\n      pop\n      pop\n      jump\t// out\n        /* \"#utility.yul\":3589:3811   */\n    tag_20:\n        /* \"#utility.yul\":3682:3686   */\n      0x00\n        /* \"#utility.yul\":3720:3722   */\n      0x20\n        /* \"#utility.yul\":3709:3718   */\n      dup3\n        /* \"#utility.yul\":3705:3723   */\n      add\n        /* \"#utility.yul\":3697:3723   */\n      swap1\n      pop\n        /* \"#utility.yul\":3733:3804   */\n      tag_101\n        /* \"#utility.yul\":3801:3802   */\n      0x00\n        /* \"#utility.yul\":3790:3799   */\n      dup4\n        /* \"#utility.yul\":3786:3803   */\n      add\n        /* \"#utility.yul\":3777:3783   */\n      dup5\n        /* \"#utility.yul\":3733:3804   */\n      tag_56\n      jump\t// in\n    tag_101:\n        /* \"#utility.yul\":3589:3811   */\n      swap3\n      swap2\n      pop\n      pop\n      jump\t// out\n        /* \"#utility.yul\":3817:3986   */\n    tag_57:\n        /* \"#utility.yul\":3901:3912   */\n      0x00\n        /* \"#utility.yul\":3935:3941   */\n      dup3\n        /* \"#utility.yul\":3930:3933   */\n      dup3\n        /* \"#utility.yul\":3923:3942   */\n      mstore\n        /* \"#utility.yul\":3975:3979   */\n      0x20\n        /* \"#utility.yul\":3970:3973   */\n      dup3\n        /* \"#utility.yul\":3966:3980   */\n      add\n        /* \"#utility.yul\":3951:3980   */\n      swap1\n      pop\n        /* \"#utility.yul\":3817:3986   */\n      swap3\n      swap2\n      pop\n      pop\n      jump\t// out\n        /* \"#utility.yul\":3992:4206   */\n    tag_58:\n        /* \"#utility.yul\":4132:4198   */\n      0xe695b0e7bb84e4b88be6a087e8b68ae7958c0000000000000000000000000000\n        /* \"#utility.yul\":4128:4129   */\n      0x00\n        /* \"#utility.yul\":4120:4126   */\n      dup3\n        /* \"#utility.yul\":4116:4130   */\n      add\n        /* \"#utility.yul\":4109:4199   */\n      mstore\n        /* \"#utility.yul\":3992:4206   */\n      pop\n      jump\t// out\n        /* \"#utility.yul\":4212:4578   */\n    tag_59:\n        /* \"#utility.yul\":4354:4357   */\n      0x00\n        /* \"#utility.yul\":4375:4442   */\n      tag_105\n        /* \"#utility.yul\":4439:4441   */\n      0x12\n        /* \"#utility.yul\":4434:4437   */\n      dup4\n        /* \"#utility.yul\":4375:4442   */\n      tag_57\n      jump\t// in\n    tag_105:\n        /* \"#utility.yul\":4368:4442   */\n      swap2\n      pop\n        /* \"#utility.yul\":4451:4544   */\n      tag_106\n        /* \"#utility.yul\":4540:4543   */\n      dup3\n        /* \"#utility.yul\":4451:4544   */\n      tag_58\n      jump\t// in\n    tag_106:\n        /* \"#utility.yul\":4569:4571   */\n      0x20\n        /* \"#utility.yul\":4564:4567   */\n      dup3\n        /* \"#utility.yul\":4560:4572   */\n      add\n        /* \"#utility.yul\":4553:4572   */\n      swap1\n      pop\n        /* \"#utility.yul\":4212:4578   */\n      swap2\n      swap1\n      pop\n      jump\t// out\n        /* \"#utility.yul\":4584:5003   */\n    tag_24:\n        /* \"#utility.yul\":4750:4754   */\n      0x00\n        /* \"#utility.yul\":4788:4790   */\n      0x20\n        /* \"#utility.yul\":4777:4786   */\n      dup3\n        /* \"#utility.yul\":4773:4791   */\n      add\n        /* \"#utility.yul\":4765:4791   */\n      swap1\n      pop\n        /* \"#utility.yul\":4837:4846   */\n      dup2\n        /* \"#utility.yul\":4831:4835   */\n      dup2\n        /* \"#utility.yul\":4827:4847   */\n      sub\n        /* \"#utility.yul\":4823:4824   */\n      0x00\n        /* \"#utility.yul\":4812:4821   */\n      dup4\n        /* \"#utility.yul\":4808:4825   */\n      add\n        /* \"#utility.yul\":4801:4848   */\n      mstore\n        /* \"#utility.yul\":4865:4996   */\n      tag_108\n        /* \"#utility.yul\":4991:4995   */\n      dup2\n        /* \"#utility.yul\":4865:4996   */\n      tag_59\n      jump\t// in\n    tag_108:\n        /* \"#utility.yul\":4857:4996   */\n      swap1\n      pop\n        /* \"#utility.yul\":4584:5003   */\n      swap2\n      swap1\n      pop\n      jump\t// out\n        /* \"#utility.yul\":5009:5189   */\n    tag_27:\n        /* \"#utility.yul\":5057:5134   */\n      0x4e487b7100000000000000000000000000000000000000000000000000000000\n        /* \"#utility.yul\":5054:5055   */\n      0x00\n        /* \"#utility.yul\":5047:5135   */\n      mstore\n        /* \"#utility.yul\":5154:5158   */\n      0x32\n        /* \"#utility.yul\":5151:5152   */\n      0x04\n        /* \"#utility.yul\":5144:5159   */\n      mstore\n        /* \"#utility.yul\":5178:5182   */\n      0x24\n        /* \"#utility.yul\":5175:5176   */\n      0x00\n        /* \"#utility.yul\":5168:5183   */\n      revert\n\n    auxdata: 0xa26469706673582212205bc2a2d7e27a73b4f97a25bf13e68934633a07bb86818d04f1a11c86e458a5fb64736f6c63430008220033\n}\n",
				"bytecode": {
					"linkReferences": {},
					"object": "60806040526040518060a00160405280600160ff168152602001600260ff168152602001600360ff168152602001600460ff168152602001600560ff168152505f908161004c9190610263565b50348015610058575f5ffd5b506102e7565b7f4e487b71000000000000000000000000000000000000000000000000000000005f52604160045260245ffd5b5f81549050919050565b5f819050919050565b5f8190506001806001038301049050919050565b5f819050815f5260205f209050919050565b5f82821b905092915050565b5f600883026100ff7fffffffffffffffffffffffffffffffffffffffffffffffffffffffffffffffff826100c4565b61010986836100c4565b95508019841693508086168417925050509392505050565b5f819050919050565b5f61014461013f61013a84610095565b610121565b610095565b9050919050565b5f819050919050565b61015d8361012a565b6101716101698261014b565b8484546100d0565b825550505050565b5f5f905090565b610188610179565b610193818484610154565b505050565b5f5b828110156101b9576101ae5f828401610180565b60018101905061019a565b505050565b818310156101f5576101cf8261009e565b6101d88461009e565b6101e1836100b2565b8181016101f083850382610198565b505050505b505050565b680100000000000000008211156102145761021361005e565b5b61021d8161008b565b82825561022b8382846101be565b505050565b5f60059050919050565b5f60ff82169050919050565b5f610251825161023a565b80915050919050565b5f819050919050565b61026c82610230565b67ffffffffffffffff8111156102855761028461005e565b5b61028f81836101fa565b6102988361025a565b6102a1836100b2565b600183045f5b818110156102de575f6102b985610246565b6102c28161014b565b80925060208701965050508082850155506001810190506102a7565b50505050505050565b61045d806102f45f395ff3fe608060405234801561000f575f5ffd5b506004361061003f575f3560e01c8063792de6f314610043578063be9599b214610073578063d39fa23314610091575b5f5ffd5b61005d60048036038101906100589190610225565b6100c1565b60405161006a9190610307565b60405180910390f35b61007b61017c565b6040516100889190610341565b60405180910390f35b6100ab60048036038101906100a69190610225565b6101cf565b6040516100b89190610369565b60405180910390f35b60605f805490508210610109576040517f08c379a0000000000000000000000000000000000000000000000000000000008152600401610100906103dc565b60405180910390fd5b5f828154811061011c5761011b6103fa565b5b905f5260205f20015f90555f80548060200260200160405190810160405280929190818152602001828054801561017057602002820191905f5260205f20905b81548152602001906001019080831161015c575b50505050509050919050565b5f5f5f90505b5f805490508110156101c7575f5f82815481106101a2576101a16103fa565b5b905f5260205f200154036101ba5760019150506101cc565b8080600101915050610182565b505f90505b90565b5f81815481106101dd575f80fd5b905f5260205f20015f915090505481565b5f5ffd5b5f819050919050565b610204816101f2565b811461020e575f5ffd5b50565b5f8135905061021f816101fb565b92915050565b5f6020828403121561023a576102396101ee565b5b5f61024784828501610211565b91505092915050565b5f81519050919050565b5f82825260208201905092915050565b5f819050602082019050919050565b610282816101f2565b82525050565b5f6102938383610279565b60208301905092915050565b5f602082019050919050565b5f6102b582610250565b6102bf818561025a565b93506102ca8361026a565b805f5b838110156102fa5781516102e18882610288565b97506102ec8361029f565b9250506001810190506102cd565b5085935050505092915050565b5f6020820190508181035f83015261031f81846102ab565b905092915050565b5f8115159050919050565b61033b81610327565b82525050565b5f6020820190506103545f830184610332565b92915050565b610363816101f2565b82525050565b5f60208201905061037c5f83018461035a565b92915050565b5f82825260208201905092915050565b7fe695b0e7bb84e4b88be6a087e8b68ae7958c00000000000000000000000000005f82015250565b5f6103c6601283610382565b91506103d182610392565b602082019050919050565b5f6020820190508181035f8301526103f3816103ba565b9050919050565b7f4e487b71000000000000000000000000000000000000000000000000000000005f52603260045260245ffdfea26469706673582212205bc2a2d7e27a73b4f97a25bf13e68934633a07bb86818d04f1a11c86e458a5fb64736f6c63430008220033",
					"opcodes": "PUSH1 0x80 PUSH1 0x40 MSTORE PUSH1 0x40 MLOAD DUP1 PUSH1 0xA0 ADD PUSH1 0x40 MSTORE DUP1 PUSH1 0x1 PUSH1 0xFF AND DUP2 MSTORE PUSH1 0x20 ADD PUSH1 0x2 PUSH1 0xFF AND DUP2 MSTORE PUSH1 0x20 ADD PUSH1 0x3 PUSH1 0xFF AND DUP2 MSTORE PUSH1 0x20 ADD PUSH1 0x4 PUSH1 0xFF AND DUP2 MSTORE PUSH1 0x20 ADD PUSH1 0x5 PUSH1 0xFF AND DUP2 MSTORE POP PUSH0 SWAP1 DUP2 PUSH2 0x4C SWAP2 SWAP1 PUSH2 0x263 JUMP JUMPDEST POP CALLVALUE DUP1 ISZERO PUSH2 0x58 JUMPI PUSH0 PUSH0 REVERT JUMPDEST POP PUSH2 0x2E7 JUMP JUMPDEST PUSH32 0x4E487B7100000000000000000000000000000000000000000000000000000000 PUSH0 MSTORE PUSH1 0x41 PUSH1 0x4 MSTORE PUSH1 0x24 PUSH0 REVERT JUMPDEST PUSH0 DUP2 SLOAD SWAP1 POP SWAP2 SWAP1 POP JUMP JUMPDEST PUSH0 DUP2 SWAP1 POP SWAP2 SWAP1 POP JUMP JUMPDEST PUSH0 DUP2 SWAP1 POP PUSH1 0x1 DUP1 PUSH1 0x1 SUB DUP4 ADD DIV SWAP1 POP SWAP2 SWAP1 POP JUMP JUMPDEST PUSH0 DUP2 SWAP1 POP DUP2 PUSH0 MSTORE PUSH1 0x20 PUSH0 KECCAK256 SWAP1 POP SWAP2 SWAP1 POP JUMP JUMPDEST PUSH0 DUP3 DUP3 SHL SWAP1 POP SWAP3 SWAP2 POP POP JUMP JUMPDEST PUSH0 PUSH1 0x8 DUP4 MUL PUSH2 0xFF PUSH32 0xFFFFFFFFFFFFFFFFFFFFFFFFFFFFFFFFFFFFFFFFFFFFFFFFFFFFFFFFFFFFFFFF DUP3 PUSH2 0xC4 JUMP JUMPDEST PUSH2 0x109 DUP7 DUP4 PUSH2 0xC4 JUMP JUMPDEST SWAP6 POP DUP1 NOT DUP5 AND SWAP4 POP DUP1 DUP7 AND DUP5 OR SWAP3 POP POP POP SWAP4 SWAP3 POP POP POP JUMP JUMPDEST PUSH0 DUP2 SWAP1 POP SWAP2 SWAP1 POP JUMP JUMPDEST PUSH0 PUSH2 0x144 PUSH2 0x13F PUSH2 0x13A DUP5 PUSH2 0x95 JUMP JUMPDEST PUSH2 0x121 JUMP JUMPDEST PUSH2 0x95 JUMP JUMPDEST SWAP1 POP SWAP2 SWAP1 POP JUMP JUMPDEST PUSH0 DUP2 SWAP1 POP SWAP2 SWAP1 POP JUMP JUMPDEST PUSH2 0x15D DUP4 PUSH2 0x12A JUMP JUMPDEST PUSH2 0x171 PUSH2 0x169 DUP3 PUSH2 0x14B JUMP JUMPDEST DUP5 DUP5 SLOAD PUSH2 0xD0 JUMP JUMPDEST DUP3 SSTORE POP POP POP POP JUMP JUMPDEST PUSH0 PUSH0 SWAP1 POP SWAP1 JUMP JUMPDEST PUSH2 0x188 PUSH2 0x179 JUMP JUMPDEST PUSH2 0x193 DUP2 DUP5 DUP5 PUSH2 0x154 JUMP JUMPDEST POP POP POP JUMP JUMPDEST PUSH0 JUMPDEST DUP3 DUP2 LT ISZERO PUSH2 0x1B9 JUMPI PUSH2 0x1AE PUSH0 DUP3 DUP5 ADD PUSH2 0x180 JUMP JUMPDEST PUSH1 0x1 DUP2 ADD SWAP1 POP PUSH2 0x19A JUMP JUMPDEST POP POP POP JUMP JUMPDEST DUP2 DUP4 LT ISZERO PUSH2 0x1F5 JUMPI PUSH2 0x1CF DUP3 PUSH2 0x9E JUMP JUMPDEST PUSH2 0x1D8 DUP5 PUSH2 0x9E JUMP JUMPDEST PUSH2 0x1E1 DUP4 PUSH2 0xB2 JUMP JUMPDEST DUP2 DUP2 ADD PUSH2 0x1F0 DUP4 DUP6 SUB DUP3 PUSH2 0x198 JUMP JUMPDEST POP POP POP POP JUMPDEST POP POP POP JUMP JUMPDEST PUSH9 0x10000000000000000 DUP3 GT ISZERO PUSH2 0x214 JUMPI PUSH2 0x213 PUSH2 0x5E JUMP JUMPDEST JUMPDEST PUSH2 0x21D DUP2 PUSH2 0x8B JUMP JUMPDEST DUP3 DUP3 SSTORE PUSH2 0x22B DUP4 DUP3 DUP5 PUSH2 0x1BE JUMP JUMPDEST POP POP POP JUMP JUMPDEST PUSH0 PUSH1 0x5 SWAP1 POP SWAP2 SWAP1 POP JUMP JUMPDEST PUSH0 PUSH1 0xFF DUP3 AND SWAP1 POP SWAP2 SWAP1 POP JUMP JUMPDEST PUSH0 PUSH2 0x251 DUP3 MLOAD PUSH2 0x23A JUMP JUMPDEST DUP1 SWAP2 POP POP SWAP2 SWAP1 POP JUMP JUMPDEST PUSH0 DUP2 SWAP1 POP SWAP2 SWAP1 POP JUMP JUMPDEST PUSH2 0x26C DUP3 PUSH2 0x230 JUMP JUMPDEST PUSH8 0xFFFFFFFFFFFFFFFF DUP2 GT ISZERO PUSH2 0x285 JUMPI PUSH2 0x284 PUSH2 0x5E JUMP JUMPDEST JUMPDEST PUSH2 0x28F DUP2 DUP4 PUSH2 0x1FA JUMP JUMPDEST PUSH2 0x298 DUP4 PUSH2 0x25A JUMP JUMPDEST PUSH2 0x2A1 DUP4 PUSH2 0xB2 JUMP JUMPDEST PUSH1 0x1 DUP4 DIV PUSH0 JUMPDEST DUP2 DUP2 LT ISZERO PUSH2 0x2DE JUMPI PUSH0 PUSH2 0x2B9 DUP6 PUSH2 0x246 JUMP JUMPDEST PUSH2 0x2C2 DUP2 PUSH2 0x14B JUMP JUMPDEST DUP1 SWAP3 POP PUSH1 0x20 DUP8 ADD SWAP7 POP POP POP DUP1 DUP3 DUP6 ADD SSTORE POP PUSH1 0x1 DUP2 ADD SWAP1 POP PUSH2 0x2A7 JUMP JUMPDEST POP POP POP POP POP POP POP JUMP JUMPDEST PUSH2 0x45D DUP1 PUSH2 0x2F4 PUSH0 CODECOPY PUSH0 RETURN INVALID PUSH1 0x80 PUSH1 0x40 MSTORE CALLVALUE DUP1 ISZERO PUSH2 0xF JUMPI PUSH0 PUSH0 REVERT JUMPDEST POP PUSH1 0x4 CALLDATASIZE LT PUSH2 0x3F JUMPI PUSH0 CALLDATALOAD PUSH1 0xE0 SHR DUP1 PUSH4 0x792DE6F3 EQ PUSH2 0x43 JUMPI DUP1 PUSH4 0xBE9599B2 EQ PUSH2 0x73 JUMPI DUP1 PUSH4 0xD39FA233 EQ PUSH2 0x91 JUMPI JUMPDEST PUSH0 PUSH0 REVERT JUMPDEST PUSH2 0x5D PUSH1 0x4 DUP1 CALLDATASIZE SUB DUP2 ADD SWAP1 PUSH2 0x58 SWAP2 SWAP1 PUSH2 0x225 JUMP JUMPDEST PUSH2 0xC1 JUMP JUMPDEST PUSH1 0x40 MLOAD PUSH2 0x6A SWAP2 SWAP1 PUSH2 0x307 JUMP JUMPDEST PUSH1 0x40 MLOAD DUP1 SWAP2 SUB SWAP1 RETURN JUMPDEST PUSH2 0x7B PUSH2 0x17C JUMP JUMPDEST PUSH1 0x40 MLOAD PUSH2 0x88 SWAP2 SWAP1 PUSH2 0x341 JUMP JUMPDEST PUSH1 0x40 MLOAD DUP1 SWAP2 SUB SWAP1 RETURN JUMPDEST PUSH2 0xAB PUSH1 0x4 DUP1 CALLDATASIZE SUB DUP2 ADD SWAP1 PUSH2 0xA6 SWAP2 SWAP1 PUSH2 0x225 JUMP JUMPDEST PUSH2 0x1CF JUMP JUMPDEST PUSH1 0x40 MLOAD PUSH2 0xB8 SWAP2 SWAP1 PUSH2 0x369 JUMP JUMPDEST PUSH1 0x40 MLOAD DUP1 SWAP2 SUB SWAP1 RETURN JUMPDEST PUSH1 0x60 PUSH0 DUP1 SLOAD SWAP1 POP DUP3 LT PUSH2 0x109 JUMPI PUSH1 0x40 MLOAD PUSH32 0x8C379A000000000000000000000000000000000000000000000000000000000 DUP2 MSTORE PUSH1 0x4 ADD PUSH2 0x100 SWAP1 PUSH2 0x3DC JUMP JUMPDEST PUSH1 0x40 MLOAD DUP1 SWAP2 SUB SWAP1 REVERT JUMPDEST PUSH0 DUP3 DUP2 SLOAD DUP2 LT PUSH2 0x11C JUMPI PUSH2 0x11B PUSH2 0x3FA JUMP JUMPDEST JUMPDEST SWAP1 PUSH0 MSTORE PUSH1 0x20 PUSH0 KECCAK256 ADD PUSH0 SWAP1 SSTORE PUSH0 DUP1 SLOAD DUP1 PUSH1 0x20 MUL PUSH1 0x20 ADD PUSH1 0x40 MLOAD SWAP1 DUP2 ADD PUSH1 0x40 MSTORE DUP1 SWAP3 SWAP2 SWAP1 DUP2 DUP2 MSTORE PUSH1 0x20 ADD DUP3 DUP1 SLOAD DUP1 ISZERO PUSH2 0x170 JUMPI PUSH1 0x20 MUL DUP3 ADD SWAP2 SWAP1 PUSH0 MSTORE PUSH1 0x20 PUSH0 KECCAK256 SWAP1 JUMPDEST DUP2 SLOAD DUP2 MSTORE PUSH1 0x20 ADD SWAP1 PUSH1 0x1 ADD SWAP1 DUP1 DUP4 GT PUSH2 0x15C JUMPI JUMPDEST POP POP POP POP POP SWAP1 POP SWAP2 SWAP1 POP JUMP JUMPDEST PUSH0 PUSH0 PUSH0 SWAP1 POP JUMPDEST PUSH0 DUP1 SLOAD SWAP1 POP DUP2 LT ISZERO PUSH2 0x1C7 JUMPI PUSH0 PUSH0 DUP3 DUP2 SLOAD DUP2 LT PUSH2 0x1A2 JUMPI PUSH2 0x1A1 PUSH2 0x3FA JUMP JUMPDEST JUMPDEST SWAP1 PUSH0 MSTORE PUSH1 0x20 PUSH0 KECCAK256 ADD SLOAD SUB PUSH2 0x1BA JUMPI PUSH1 0x1 SWAP2 POP POP PUSH2 0x1CC JUMP JUMPDEST DUP1 DUP1 PUSH1 0x1 ADD SWAP2 POP POP PUSH2 0x182 JUMP JUMPDEST POP PUSH0 SWAP1 POP JUMPDEST SWAP1 JUMP JUMPDEST PUSH0 DUP2 DUP2 SLOAD DUP2 LT PUSH2 0x1DD JUMPI PUSH0 DUP1 REVERT JUMPDEST SWAP1 PUSH0 MSTORE PUSH1 0x20 PUSH0 KECCAK256 ADD PUSH0 SWAP2 POP SWAP1 POP SLOAD DUP2 JUMP JUMPDEST PUSH0 PUSH0 REVERT JUMPDEST PUSH0 DUP2 SWAP1 POP SWAP2 SWAP1 POP JUMP JUMPDEST PUSH2 0x204 DUP2 PUSH2 0x1F2 JUMP JUMPDEST DUP2 EQ PUSH2 0x20E JUMPI PUSH0 PUSH0 REVERT JUMPDEST POP JUMP JUMPDEST PUSH0 DUP2 CALLDATALOAD SWAP1 POP PUSH2 0x21F DUP2 PUSH2 0x1FB JUMP JUMPDEST SWAP3 SWAP2 POP POP JUMP JUMPDEST PUSH0 PUSH1 0x20 DUP3 DUP5 SUB SLT ISZERO PUSH2 0x23A JUMPI PUSH2 0x239 PUSH2 0x1EE JUMP JUMPDEST JUMPDEST PUSH0 PUSH2 0x247 DUP5 DUP3 DUP6 ADD PUSH2 0x211 JUMP JUMPDEST SWAP2 POP POP SWAP3 SWAP2 POP POP JUMP JUMPDEST PUSH0 DUP2 MLOAD SWAP1 POP SWAP2 SWAP1 POP JUMP JUMPDEST PUSH0 DUP3 DUP3 MSTORE PUSH1 0x20 DUP3 ADD SWAP1 POP SWAP3 SWAP2 POP POP JUMP JUMPDEST PUSH0 DUP2 SWAP1 POP PUSH1 0x20 DUP3 ADD SWAP1 POP SWAP2 SWAP1 POP JUMP JUMPDEST PUSH2 0x282 DUP2 PUSH2 0x1F2 JUMP JUMPDEST DUP3 MSTORE POP POP JUMP JUMPDEST PUSH0 PUSH2 0x293 DUP4 DUP4 PUSH2 0x279 JUMP JUMPDEST PUSH1 0x20 DUP4 ADD SWAP1 POP SWAP3 SWAP2 POP POP JUMP JUMPDEST PUSH0 PUSH1 0x20 DUP3 ADD SWAP1 POP SWAP2 SWAP1 POP JUMP JUMPDEST PUSH0 PUSH2 0x2B5 DUP3 PUSH2 0x250 JUMP JUMPDEST PUSH2 0x2BF DUP2 DUP6 PUSH2 0x25A JUMP JUMPDEST SWAP4 POP PUSH2 0x2CA DUP4 PUSH2 0x26A JUMP JUMPDEST DUP1 PUSH0 JUMPDEST DUP4 DUP2 LT ISZERO PUSH2 0x2FA JUMPI DUP2 MLOAD PUSH2 0x2E1 DUP9 DUP3 PUSH2 0x288 JUMP JUMPDEST SWAP8 POP PUSH2 0x2EC DUP4 PUSH2 0x29F JUMP JUMPDEST SWAP3 POP POP PUSH1 0x1 DUP2 ADD SWAP1 POP PUSH2 0x2CD JUMP JUMPDEST POP DUP6 SWAP4 POP POP POP POP SWAP3 SWAP2 POP POP JUMP JUMPDEST PUSH0 PUSH1 0x20 DUP3 ADD SWAP1 POP DUP2 DUP2 SUB PUSH0 DUP4 ADD MSTORE PUSH2 0x31F DUP2 DUP5 PUSH2 0x2AB JUMP JUMPDEST SWAP1 POP SWAP3 SWAP2 POP POP JUMP JUMPDEST PUSH0 DUP2 ISZERO ISZERO SWAP1 POP SWAP2 SWAP1 POP JUMP JUMPDEST PUSH2 0x33B DUP2 PUSH2 0x327 JUMP JUMPDEST DUP3 MSTORE POP POP JUMP JUMPDEST PUSH0 PUSH1 0x20 DUP3 ADD SWAP1 POP PUSH2 0x354 PUSH0 DUP4 ADD DUP5 PUSH2 0x332 JUMP JUMPDEST SWAP3 SWAP2 POP POP JUMP JUMPDEST PUSH2 0x363 DUP2 PUSH2 0x1F2 JUMP JUMPDEST DUP3 MSTORE POP POP JUMP JUMPDEST PUSH0 PUSH1 0x20 DUP3 ADD SWAP1 POP PUSH2 0x37C PUSH0 DUP4 ADD DUP5 PUSH2 0x35A JUMP JUMPDEST SWAP3 SWAP2 POP POP JUMP JUMPDEST PUSH0 DUP3 DUP3 MSTORE PUSH1 0x20 DUP3 ADD SWAP1 POP SWAP3 SWAP2 POP POP JUMP JUMPDEST PUSH32 0xE695B0E7BB84E4B88BE6A087E8B68AE7958C0000000000000000000000000000 PUSH0 DUP3 ADD MSTORE POP JUMP JUMPDEST PUSH0 PUSH2 0x3C6 PUSH1 0x12 DUP4 PUSH2 0x382 JUMP JUMPDEST SWAP2 POP PUSH2 0x3D1 DUP3 PUSH2 0x392 JUMP JUMPDEST PUSH1 0x20 DUP3 ADD SWAP1 POP SWAP2 SWAP1 POP JUMP JUMPDEST PUSH0 PUSH1 0x20 DUP3 ADD SWAP1 POP DUP2 DUP2 SUB PUSH0 DUP4 ADD MSTORE PUSH2 0x3F3 DUP2 PUSH2 0x3BA JUMP JUMPDEST SWAP1 POP SWAP2 SWAP1 POP JUMP JUMPDEST PUSH32 0x4E487B7100000000000000000000000000000000000000000000000000000000 PUSH0 MSTORE PUSH1 0x32 PUSH1 0x4 MSTORE PUSH1 0x24 PUSH0 REVERT INVALID LOG2 PUSH5 0x6970667358 0x22 SLT KECCAK256 JUMPDEST 0xC2 LOG2 0xD7 0xE2 PUSH27 0x73B4F97A25BF13E68934633A07BB86818D04F1A11C86E458A5FB64 PUSH20 0x6F6C634300082200330000000000000000000000 "
				},
				"gasEstimates": {
					"creation": {
						"codeDepositCost": "223400",
						"executionCost": "infinite",
						"totalCost": "infinite"
					},
					"external": {
						"deleteElement(uint256)": "infinite",
						"hasZero()": "infinite",
						"numbers(uint256)": "infinite"
					}
				},
				"methodIdentifiers": {
					"deleteElement(uint256)": "792de6f3",
					"hasZero()": "be9599b2",
					"numbers(uint256)": "d39fa233"
				}
			},
			"storageLayout": {
				"storage": [
					{
						"astId": 10,
						"contract": "contracts/3.1/03ArrayBasicOperators/DeleteTrap.sol:DeleteTrap",
						"label": "numbers",
						"offset": 0,
						"slot": "0",
						"type": "t_array(t_uint256)dyn_storage"
					}
				],
				"types": {
					"t_array(t_uint256)dyn_storage": {
						"base": "t_uint256",
						"encoding": "dynamic_array",
						"label": "uint256[]",
						"numberOfBytes": "32"
					},
					"t_uint256": {
						"encoding": "inplace",
						"label": "uint256",
						"numberOfBytes": "32"
					}
				}
			},
			"userdoc": {
				"kind": "user",
				"methods": {},
				"version": 1
			}
		}
	}
}