{
	"contracts/2.1/07typeconversion/TypeInfo.sol": {
		"TypeInfo": {
			"abi": [
				{
					"inputs": [],
					"name": "getTypeInfo",
					"outputs": [
						{
							"internalType": "uint8",
							"name": "",
							"type": "uint8"
						},
						{
							"internalType": "uint8",
							"name": "",
							"type": "uint8"
						},
						{
							"internalType": "uint16",
							"name": "",
							"type": "uint16"
						},
						{
							"internalType": "uint16",
							"name": "",
							"type": "uint16"
						},
						{
							"internalType": "uint256",
							"name": "",
							"type": "uint256"
						},
						{
							"internalType": "uint256",
							"name": "",
							"type": "uint256"
						},
						{
							"internalType": "int8",
							"name": "",
							"type": "int8"
						},
						{
							"internalType": "int8",
							"name": "",
							"type": "int8"
						},
						{
							"internalType": "int16",
							"name": "",
							"type": "int16"
						},
						{
							"internalType": "int16",
							"name": "",
							"type": "int16"
						},
						{
							"internalType": "int256",
							"name": "",
							"type": "int256"
						},
						{
							"internalType": "int256",
							"name": "",
							"type": "int256"
						}
					],
					"stateMutability": "pure",
					"type": "function"
				}
			],
			"devdoc": {
				"kind": "dev",
				"methods": {},
				"version": 1
			},
			"evm": {
				"assembly": "    /* \"contracts/2.1/07typeconversion/TypeInfo.sol\":58:597  contract TypeInfo{... */\n  mstore(0x40, 0x80)\n  callvalue\n  dup1\n  iszero\n  tag_1\n  jumpi\n  revert(0x00, 0x00)\ntag_1:\n  pop\n  dataSize(sub_0)\n  dup1\n  dataOffset(sub_0)\n  0x00\n  codecopy\n  0x00\n  return\nstop\n\nsub_0: assembly {\n        /* \"contracts/2.1/07typeconversion/TypeInfo.sol\":58:597  contract TypeInfo{... */\n      mstore(0x40, 0x80)\n      callvalue\n      dup1\n      iszero\n      tag_1\n      jumpi\n      revert(0x00, 0x00)\n    tag_1:\n      pop\n      jumpi(tag_2, lt(calldatasize, 0x04))\n      shr(0xe0, calldataload(0x00))\n      dup1\n      0x0ee1355d\n      eq\n      tag_3\n      jumpi\n    tag_2:\n      revert(0x00, 0x00)\n        /* \"contracts/2.1/07typeconversion/TypeInfo.sol\":82:594  function getTypeInfo() public pure ... */\n    tag_3:\n      tag_4\n      tag_5\n      jump\t// in\n    tag_4:\n      mload(0x40)\n      tag_6\n      swap13\n      swap12\n      swap11\n      swap10\n      swap9\n      swap8\n      swap7\n      swap6\n      swap5\n      swap4\n      swap3\n      swap2\n      swap1\n      tag_7\n      jump\t// in\n    tag_6:\n      mload(0x40)\n      dup1\n      swap2\n      sub\n      swap1\n      return\n    tag_5:\n        /* \"contracts/2.1/07typeconversion/TypeInfo.sol\":141:146  uint8 */\n      0x00\n        /* \"contracts/2.1/07typeconversion/TypeInfo.sol\":147:152  uint8 */\n      0x00\n        /* \"contracts/2.1/07typeconversion/TypeInfo.sol\":163:169  uint16 */\n      0x00\n        /* \"contracts/2.1/07typeconversion/TypeInfo.sol\":170:176  uint16 */\n      0x00\n        /* \"contracts/2.1/07typeconversion/TypeInfo.sol\":187:194  uint256 */\n      0x00\n        /* \"contracts/2.1/07typeconversion/TypeInfo.sol\":195:202  uint256 */\n      0x00\n        /* \"contracts/2.1/07typeconversion/TypeInfo.sol\":213:217  int8 */\n      0x00\n        /* \"contracts/2.1/07typeconversion/TypeInfo.sol\":218:222  int8 */\n      0x00\n        /* \"contracts/2.1/07typeconversion/TypeInfo.sol\":233:238  int16 */\n      0x00\n        /* \"contracts/2.1/07typeconversion/TypeInfo.sol\":239:244  int16 */\n      0x00\n        /* \"contracts/2.1/07typeconversion/TypeInfo.sol\":255:261  int256 */\n      0x00\n        /* \"contracts/2.1/07typeconversion/TypeInfo.sol\":262:268  int256 */\n      0x00\n        /* \"contracts/2.1/07typeconversion/TypeInfo.sol\":308:323  type(uint8).max */\n      0xff\n        /* \"contracts/2.1/07typeconversion/TypeInfo.sol\":324:339  type(uint8).min */\n      0x00\n        /* \"contracts/2.1/07typeconversion/TypeInfo.sol\":354:370  type(uint16).max */\n      0xffff\n        /* \"contracts/2.1/07typeconversion/TypeInfo.sol\":371:387  type(uint16).min */\n      0x00\n        /* \"contracts/2.1/07typeconversion/TypeInfo.sol\":402:419  type(uint256).max */\n      0xffffffffffffffffffffffffffffffffffffffffffffffffffffffffffffffff\n        /* \"contracts/2.1/07typeconversion/TypeInfo.sol\":420:437  type(uint256).min */\n      0x00\n        /* \"contracts/2.1/07typeconversion/TypeInfo.sol\":452:466  type(int8).max */\n      0x7f\n        /* \"contracts/2.1/07typeconversion/TypeInfo.sol\":467:481  type(int8).min */\n      0xffffffffffffffffffffffffffffffffffffffffffffffffffffffffffffff80\n        /* \"contracts/2.1/07typeconversion/TypeInfo.sol\":496:511  type(int16).max */\n      0x7fff\n        /* \"contracts/2.1/07typeconversion/TypeInfo.sol\":512:527  type(int16).min */\n      0xffffffffffffffffffffffffffffffffffffffffffffffffffffffffffff8000\n        /* \"contracts/2.1/07typeconversion/TypeInfo.sol\":542:558  type(int256).max */\n      0x7fffffffffffffffffffffffffffffffffffffffffffffffffffffffffffffff\n        /* \"contracts/2.1/07typeconversion/TypeInfo.sol\":559:575  type(int256).min */\n      0x8000000000000000000000000000000000000000000000000000000000000000\n        /* \"contracts/2.1/07typeconversion/TypeInfo.sol\":286:586  return (... */\n      swap12\n      pop\n      swap12\n      pop\n      swap12\n      pop\n      swap12\n      pop\n      swap12\n      pop\n      swap12\n      pop\n      swap12\n      pop\n      swap12\n      pop\n      swap12\n      pop\n      swap12\n      pop\n      swap12\n      pop\n      swap12\n      pop\n        /* \"contracts/2.1/07typeconversion/TypeInfo.sol\":82:594  function getTypeInfo() public pure ... */\n      swap1\n      swap2\n      swap3\n      swap4\n      swap5\n      swap6\n      swap7\n      swap8\n      swap9\n      swap10\n      swap11\n      swap12\n      jump\t// out\n        /* \"#utility.yul\":7:93   */\n    tag_9:\n        /* \"#utility.yul\":42:49   */\n      0x00\n        /* \"#utility.yul\":82:86   */\n      0xff\n        /* \"#utility.yul\":75:80   */\n      dup3\n        /* \"#utility.yul\":71:87   */\n      and\n        /* \"#utility.yul\":60:87   */\n      swap1\n      pop\n        /* \"#utility.yul\":7:93   */\n      swap2\n      swap1\n      pop\n      jump\t// out\n        /* \"#utility.yul\":99:211   */\n    tag_10:\n        /* \"#utility.yul\":182:204   */\n      tag_24\n        /* \"#utility.yul\":198:203   */\n      dup2\n        /* \"#utility.yul\":182:204   */\n      tag_9\n      jump\t// in\n    tag_24:\n        /* \"#utility.yul\":177:180   */\n      dup3\n        /* \"#utility.yul\":170:205   */\n      mstore\n        /* \"#utility.yul\":99:211   */\n      pop\n      pop\n      jump\t// out\n        /* \"#utility.yul\":217:306   */\n    tag_11:\n        /* \"#utility.yul\":253:260   */\n      0x00\n        /* \"#utility.yul\":293:299   */\n      0xffff\n        /* \"#utility.yul\":286:291   */\n      dup3\n        /* \"#utility.yul\":282:300   */\n      and\n        /* \"#utility.yul\":271:300   */\n      swap1\n      pop\n        /* \"#utility.yul\":217:306   */\n      swap2\n      swap1\n      pop\n      jump\t// out\n        /* \"#utility.yul\":312:427   */\n    tag_12:\n        /* \"#utility.yul\":397:420   */\n      tag_27\n        /* \"#utility.yul\":414:419   */\n      dup2\n        /* \"#utility.yul\":397:420   */\n      tag_11\n      jump\t// in\n    tag_27:\n        /* \"#utility.yul\":392:395   */\n      dup3\n        /* \"#utility.yul\":385:421   */\n      mstore\n        /* \"#utility.yul\":312:427   */\n      pop\n      pop\n      jump\t// out\n        /* \"#utility.yul\":433:510   */\n    tag_13:\n        /* \"#utility.yul\":470:477   */\n      0x00\n        /* \"#utility.yul\":499:504   */\n      dup2\n        /* \"#utility.yul\":488:504   */\n      swap1\n      pop\n        /* \"#utility.yul\":433:510   */\n      swap2\n      swap1\n      pop\n      jump\t// out\n        /* \"#utility.yul\":516:634   */\n    tag_14:\n        /* \"#utility.yul\":603:627   */\n      tag_30\n        /* \"#utility.yul\":621:626   */\n      dup2\n        /* \"#utility.yul\":603:627   */\n      tag_13\n      jump\t// in\n    tag_30:\n        /* \"#utility.yul\":598:601   */\n      dup3\n        /* \"#utility.yul\":591:628   */\n      mstore\n        /* \"#utility.yul\":516:634   */\n      pop\n      pop\n      jump\t// out\n        /* \"#utility.yul\":640:729   */\n    tag_15:\n        /* \"#utility.yul\":674:681   */\n      0x00\n        /* \"#utility.yul\":717:722   */\n      dup2\n        /* \"#utility.yul\":714:715   */\n      0x00\n        /* \"#utility.yul\":703:723   */\n      signextend\n        /* \"#utility.yul\":692:723   */\n      swap1\n      pop\n        /* \"#utility.yul\":640:729   */\n      swap2\n      swap1\n      pop\n      jump\t// out\n        /* \"#utility.yul\":735:844   */\n    tag_16:\n        /* \"#utility.yul\":816:837   */\n      tag_33\n        /* \"#utility.yul\":831:836   */\n      dup2\n        /* \"#utility.yul\":816:837   */\n      tag_15\n      jump\t// in\n    tag_33:\n        /* \"#utility.yul\":811:814   */\n      dup3\n        /* \"#utility.yul\":804:838   */\n      mstore\n        /* \"#utility.yul\":735:844   */\n      pop\n      pop\n      jump\t// out\n        /* \"#utility.yul\":850:940   */\n    tag_17:\n        /* \"#utility.yul\":885:892   */\n      0x00\n        /* \"#utility.yul\":928:933   */\n      dup2\n        /* \"#utility.yul\":925:926   */\n      0x01\n        /* \"#utility.yul\":914:934   */\n      signextend\n        /* \"#utility.yul\":903:934   */\n      swap1\n      pop\n        /* \"#utility.yul\":850:940   */\n      swap2\n      swap1\n      pop\n      jump\t// out\n        /* \"#utility.yul\":946:1058   */\n    tag_18:\n        /* \"#utility.yul\":1029:1051   */\n      tag_36\n        /* \"#utility.yul\":1045:1050   */\n      dup2\n        /* \"#utility.yul\":1029:1051   */\n      tag_17\n      jump\t// in\n    tag_36:\n        /* \"#utility.yul\":1024:1027   */\n      dup3\n        /* \"#utility.yul\":1017:1052   */\n      mstore\n        /* \"#utility.yul\":946:1058   */\n      pop\n      pop\n      jump\t// out\n        /* \"#utility.yul\":1064:1140   */\n    tag_19:\n        /* \"#utility.yul\":1100:1107   */\n      0x00\n        /* \"#utility.yul\":1129:1134   */\n      dup2\n        /* \"#utility.yul\":1118:1134   */\n      swap1\n      pop\n        /* \"#utility.yul\":1064:1140   */\n      swap2\n      swap1\n      pop\n      jump\t// out\n        /* \"#utility.yul\":1146:1261   */\n    tag_20:\n        /* \"#utility.yul\":1231:1254   */\n      tag_39\n        /* \"#utility.yul\":1248:1253   */\n      dup2\n        /* \"#utility.yul\":1231:1254   */\n      tag_19\n      jump\t// in\n    tag_39:\n        /* \"#utility.yul\":1226:1229   */\n      dup3\n        /* \"#utility.yul\":1219:1255   */\n      mstore\n        /* \"#utility.yul\":1146:1261   */\n      pop\n      pop\n      jump\t// out\n        /* \"#utility.yul\":1267:2640   */\n    tag_7:\n        /* \"#utility.yul\":1634:1638   */\n      0x00\n        /* \"#utility.yul\":1672:1675   */\n      0x0180\n        /* \"#utility.yul\":1661:1670   */\n      dup3\n        /* \"#utility.yul\":1657:1676   */\n      add\n        /* \"#utility.yul\":1649:1676   */\n      swap1\n      pop\n        /* \"#utility.yul\":1686:1753   */\n      tag_41\n        /* \"#utility.yul\":1750:1751   */\n      0x00\n        /* \"#utility.yul\":1739:1748   */\n      dup4\n        /* \"#utility.yul\":1735:1752   */\n      add\n        /* \"#utility.yul\":1726:1732   */\n      dup16\n        /* \"#utility.yul\":1686:1753   */\n      tag_10\n      jump\t// in\n    tag_41:\n        /* \"#utility.yul\":1763:1831   */\n      tag_42\n        /* \"#utility.yul\":1827:1829   */\n      0x20\n        /* \"#utility.yul\":1816:1825   */\n      dup4\n        /* \"#utility.yul\":1812:1830   */\n      add\n        /* \"#utility.yul\":1803:1809   */\n      dup15\n        /* \"#utility.yul\":1763:1831   */\n      tag_10\n      jump\t// in\n    tag_42:\n        /* \"#utility.yul\":1841:1911   */\n      tag_43\n        /* \"#utility.yul\":1907:1909   */\n      0x40\n        /* \"#utility.yul\":1896:1905   */\n      dup4\n        /* \"#utility.yul\":1892:1910   */\n      add\n        /* \"#utility.yul\":1883:1889   */\n      dup14\n        /* \"#utility.yul\":1841:1911   */\n      tag_12\n      jump\t// in\n    tag_43:\n        /* \"#utility.yul\":1921:1991   */\n      tag_44\n        /* \"#utility.yul\":1987:1989   */\n      0x60\n        /* \"#utility.yul\":1976:1985   */\n      dup4\n        /* \"#utility.yul\":1972:1990   */\n      add\n        /* \"#utility.yul\":1963:1969   */\n      dup13\n        /* \"#utility.yul\":1921:1991   */\n      tag_12\n      jump\t// in\n    tag_44:\n        /* \"#utility.yul\":2001:2074   */\n      tag_45\n        /* \"#utility.yul\":2069:2072   */\n      0x80\n        /* \"#utility.yul\":2058:2067   */\n      dup4\n        /* \"#utility.yul\":2054:2073   */\n      add\n        /* \"#utility.yul\":2045:2051   */\n      dup12\n        /* \"#utility.yul\":2001:2074   */\n      tag_14\n      jump\t// in\n    tag_45:\n        /* \"#utility.yul\":2084:2157   */\n      tag_46\n        /* \"#utility.yul\":2152:2155   */\n      0xa0\n        /* \"#utility.yul\":2141:2150   */\n      dup4\n        /* \"#utility.yul\":2137:2156   */\n      add\n        /* \"#utility.yul\":2128:2134   */\n      dup11\n        /* \"#utility.yul\":2084:2157   */\n      tag_14\n      jump\t// in\n    tag_46:\n        /* \"#utility.yul\":2167:2234   */\n      tag_47\n        /* \"#utility.yul\":2229:2232   */\n      0xc0\n        /* \"#utility.yul\":2218:2227   */\n      dup4\n        /* \"#utility.yul\":2214:2233   */\n      add\n        /* \"#utility.yul\":2205:2211   */\n      dup10\n        /* \"#utility.yul\":2167:2234   */\n      tag_16\n      jump\t// in\n    tag_47:\n        /* \"#utility.yul\":2244:2311   */\n      tag_48\n        /* \"#utility.yul\":2306:2309   */\n      0xe0\n        /* \"#utility.yul\":2295:2304   */\n      dup4\n        /* \"#utility.yul\":2291:2310   */\n      add\n        /* \"#utility.yul\":2282:2288   */\n      dup9\n        /* \"#utility.yul\":2244:2311   */\n      tag_16\n      jump\t// in\n    tag_48:\n        /* \"#utility.yul\":2321:2390   */\n      tag_49\n        /* \"#utility.yul\":2385:2388   */\n      0x0100\n        /* \"#utility.yul\":2374:2383   */\n      dup4\n        /* \"#utility.yul\":2370:2389   */\n      add\n        /* \"#utility.yul\":2361:2367   */\n      dup8\n        /* \"#utility.yul\":2321:2390   */\n      tag_18\n      jump\t// in\n    tag_49:\n        /* \"#utility.yul\":2400:2469   */\n      tag_50\n        /* \"#utility.yul\":2464:2467   */\n      0x0120\n        /* \"#utility.yul\":2453:2462   */\n      dup4\n        /* \"#utility.yul\":2449:2468   */\n      add\n        /* \"#utility.yul\":2440:2446   */\n      dup7\n        /* \"#utility.yul\":2400:2469   */\n      tag_18\n      jump\t// in\n    tag_50:\n        /* \"#utility.yul\":2479:2551   */\n      tag_51\n        /* \"#utility.yul\":2546:2549   */\n      0x0140\n        /* \"#utility.yul\":2535:2544   */\n      dup4\n        /* \"#utility.yul\":2531:2550   */\n      add\n        /* \"#utility.yul\":2521:2528   */\n      dup6\n        /* \"#utility.yul\":2479:2551   */\n      tag_20\n      jump\t// in\n    tag_51:\n        /* \"#utility.yul\":2561:2633   */\n      tag_52\n        /* \"#utility.yul\":2628:2631   */\n      0x0160\n        /* \"#utility.yul\":2617:2626   */\n      dup4\n        /* \"#utility.yul\":2613:2632   */\n      add\n        /* \"#utility.yul\":2603:2610   */\n      dup5\n        /* \"#utility.yul\":2561:2633   */\n      tag_20\n      jump\t// in\n    tag_52:\n        /* \"#utility.yul\":1267:2640   */\n      swap14\n      swap13\n      pop\n      pop\n      pop\n      pop\n      pop\n      pop\n      pop\n      pop\n      pop\n      pop\n      pop\n      pop\n      pop\n      jump\t// out\n\n    auxdata: 0xa26469706673582212209cc7056d792b9e4b8ad16538f07a37dc30ab014cdaf94fb9e590ee349a89845a64736f6c63430008220033\n}\n",
				"bytecode": {
					"linkReferences": {},
					"object": "6080604052348015600e575f5ffd5b506102c48061001c5f395ff3fe608060405234801561000f575f5ffd5b5060043610610029575f3560e01c80630ee1355d1461002d575b5f5ffd5b610035610056565b60405161004d9c9b9a999897969594939291906101d6565b60405180910390f35b5f5f5f5f5f5f5f5f5f5f5f5f60ff5f61ffff5f7fffffffffffffffffffffffffffffffffffffffffffffffffffffffffffffffff5f607f7fffffffffffffffffffffffffffffffffffffffffffffffffffffffffffffff80617fff7fffffffffffffffffffffffffffffffffffffffffffffffffffffffffffff80007f7fffffffffffffffffffffffffffffffffffffffffffffffffffffffffffffff7f80000000000000000000000000000000000000000000000000000000000000009b509b509b509b509b509b509b509b509b509b509b509b50909192939495969798999a9b565b5f60ff82169050919050565b61014f8161013a565b82525050565b5f61ffff82169050919050565b61016b81610155565b82525050565b5f819050919050565b61018381610171565b82525050565b5f815f0b9050919050565b61019d81610189565b82525050565b5f8160010b9050919050565b6101b8816101a3565b82525050565b5f819050919050565b6101d0816101be565b82525050565b5f610180820190506101ea5f83018f610146565b6101f7602083018e610146565b610204604083018d610162565b610211606083018c610162565b61021e608083018b61017a565b61022b60a083018a61017a565b61023860c0830189610194565b61024560e0830188610194565b6102536101008301876101af565b6102616101208301866101af565b61026f6101408301856101c7565b61027d6101608301846101c7565b9d9c5050505050505050505050505056fea26469706673582212209cc7056d792b9e4b8ad16538f07a37dc30ab014cdaf94fb9e590ee349a89845a64736f6c63430008220033",
					"opcodes": "PUSH1 0x80 PUSH1 0x40 MSTORE CALLVALUE DUP1 ISZERO PUSH1 0xE JUMPI PUSH0 PUSH0 REVERT JUMPDEST POP PUSH2 0x2C4 DUP1 PUSH2 0x1C PUSH0 CODECOPY PUSH0 RETURN INVALID PUSH1 0x80 PUSH1 0x40 MSTORE CALLVALUE DUP1 ISZERO PUSH2 0xF JUMPI PUSH0 PUSH0 REVERT JUMPDEST POP PUSH1 0x4 CALLDATASIZE LT PUSH2 0x29 JUMPI PUSH0 CALLDATALOAD PUSH1 0xE0 SHR DUP1 PUSH4 0xEE1355D EQ PUSH2 0x2D JUMPI JUMPDEST PUSH0 PUSH0 REVERT JUMPDEST PUSH2 0x35 PUSH2 0x56 JUMP JUMPDEST PUSH1 0x40 MLOAD PUSH2 0x4D SWAP13 SWAP12 SWAP11 SWAP10 SWAP9 SWAP8 SWAP7 SWAP6 SWAP5 SWAP4 SWAP3 SWAP2 SWAP1 PUSH2 0x1D6 JUMP JUMPDEST PUSH1 0x40 MLOAD DUP1 SWAP2 SUB SWAP1 RETURN JUMPDEST PUSH0 PUSH0 PUSH0 PUSH0 PUSH0 PUSH0 PUSH0 PUSH0 PUSH0 PUSH0 PUSH0 PUSH0 PUSH1 0xFF PUSH0 PUSH2 0xFFFF PUSH0 PUSH32 0xFFFFFFFFFFFFFFFFFFFFFFFFFFFFFFFFFFFFFFFFFFFFFFFFFFFFFFFFFFFFFFFF PUSH0 PUSH1 0x7F PUSH32 0xFFFFFFFFFFFFFFFFFFFFFFFFFFFFFFFFFFFFFFFFFFFFFFFFFFFFFFFFFFFFFF80 PUSH2 0x7FFF PUSH32 0xFFFFFFFFFFFFFFFFFFFFFFFFFFFFFFFFFFFFFFFFFFFFFFFFFFFFFFFFFFFF8000 PUSH32 0x7FFFFFFFFFFFFFFFFFFFFFFFFFFFFFFFFFFFFFFFFFFFFFFFFFFFFFFFFFFFFFFF PUSH32 0x8000000000000000000000000000000000000000000000000000000000000000 SWAP12 POP SWAP12 POP SWAP12 POP SWAP12 POP SWAP12 POP SWAP12 POP SWAP12 POP SWAP12 POP SWAP12 POP SWAP12 POP SWAP12 POP SWAP12 POP SWAP1 SWAP2 SWAP3 SWAP4 SWAP5 SWAP6 SWAP7 SWAP8 SWAP9 SWAP10 SWAP11 SWAP12 JUMP JUMPDEST PUSH0 PUSH1 0xFF DUP3 AND SWAP1 POP SWAP2 SWAP1 POP JUMP JUMPDEST PUSH2 0x14F DUP2 PUSH2 0x13A JUMP JUMPDEST DUP3 MSTORE POP POP JUMP JUMPDEST PUSH0 PUSH2 0xFFFF DUP3 AND SWAP1 POP SWAP2 SWAP1 POP JUMP JUMPDEST PUSH2 0x16B DUP2 PUSH2 0x155 JUMP JUMPDEST DUP3 MSTORE POP POP JUMP JUMPDEST PUSH0 DUP2 SWAP1 POP SWAP2 SWAP1 POP JUMP JUMPDEST PUSH2 0x183 DUP2 PUSH2 0x171 JUMP JUMPDEST DUP3 MSTORE POP POP JUMP JUMPDEST PUSH0 DUP2 PUSH0 SIGNEXTEND SWAP1 POP SWAP2 SWAP1 POP JUMP JUMPDEST PUSH2 0x19D DUP2 PUSH2 0x189 JUMP JUMPDEST DUP3 MSTORE POP POP JUMP JUMPDEST PUSH0 DUP2 PUSH1 0x1 SIGNEXTEND SWAP1 POP SWAP2 SWAP1 POP JUMP JUMPDEST PUSH2 0x1B8 DUP2 PUSH2 0x1A3 JUMP JUMPDEST DUP3 MSTORE POP POP JUMP JUMPDEST PUSH0 DUP2 SWAP1 POP SWAP2 SWAP1 POP JUMP JUMPDEST PUSH2 0x1D0 DUP2 PUSH2 0x1BE JUMP JUMPDEST DUP3 MSTORE POP POP JUMP JUMPDEST PUSH0 PUSH2 0x180 DUP3 ADD SWAP1 POP PUSH2 0x1EA PUSH0 DUP4 ADD DUP16 PUSH2 0x146 JUMP JUMPDEST PUSH2 0x1F7 PUSH1 0x20 DUP4 ADD DUP15 PUSH2 0x146 JUMP JUMPDEST PUSH2 0x204 PUSH1 0x40 DUP4 ADD DUP14 PUSH2 0x162 JUMP JUMPDEST PUSH2 0x211 PUSH1 0x60 DUP4 ADD DUP13 PUSH2 0x162 JUMP JUMPDEST PUSH2 0x21E PUSH1 0x80 DUP4 ADD DUP12 PUSH2 0x17A JUMP JUMPDEST PUSH2 0x22B PUSH1 0xA0 DUP4 ADD DUP11 PUSH2 0x17A JUMP JUMPDEST PUSH2 0x238 PUSH1 0xC0 DUP4 ADD DUP10 PUSH2 0x194 JUMP JUMPDEST PUSH2 0x245 PUSH1 0xE0 DUP4 ADD DUP9 PUSH2 0x194 JUMP JUMPDEST PUSH2 0x253 PUSH2 0x100 DUP4 ADD DUP8 PUSH2 0x1AF JUMP JUMPDEST PUSH2 0x261 PUSH2 0x120 DUP4 ADD DUP7 PUSH2 0x1AF JUMP JUMPDEST PUSH2 0x26F PUSH2 0x140 DUP4 ADD DUP6 PUSH2 0x1C7 JUMP JUMPDEST PUSH2 0x27D PUSH2 0x160 DUP4 ADD DUP5 PUSH2 0x1C7 JUMP JUMPDEST SWAP14 SWAP13 POP POP POP POP POP POP POP POP POP POP POP POP POP JUMP INVALID LOG2 PUSH5 0x6970667358 0x22 SLT KECCAK256 SWAP13 0xC7 SDIV PUSH14 0x792B9E4B8AD16538F07A37DC30AB ADD 0x4C 0xDA EXTDELEGATECALL 0x4F 0xB9 JUMPF 0x90EE CALLVALUE SWAP11 DUP10 DUP5 GAS PUSH5 0x736F6C6343 STOP ADDMOD 0x22 STOP CALLER "
				},
				"gasEstimates": {
					"creation": {
						"codeDepositCost": "141600",
						"executionCost": "188",
						"totalCost": "141788"
					},
					"external": {
						"getTypeInfo()": "infinite"
					}
				},
				"methodIdentifiers": {
					"getTypeInfo()": "0ee1355d"
				}
			},
			"storageLayout": {
				"storage": [],
				"types": null
			},
			"userdoc": {
				"kind": "user",
				"methods": {},
				"version": 1
			}
		}
	}
}