{
	"contracts/3.1/02DynamicArray/DynamicArrayExample.sol": {
		"DynamicArrayExample": {
			"abi": [
				{
					"inputs": [],
					"stateMutability": "nonpayable",
					"type": "constructor"
				},
				{
					"inputs": [
						{
							"internalType": "uint256",
							"name": "",
							"type": "uint256"
						}
					],
					"name": "addresses",
					"outputs": [
						{
							"internalType": "address",
							"name": "",
							"type": "address"
						}
					],
					"stateMutability": "view",
					"type": "function"
				},
				{
					"inputs": [
						{
							"internalType": "uint256",
							"name": "",
							"type": "uint256"
						}
					],
					"name": "flags",
					"outputs": [
						{
							"internalType": "bool",
							"name": "",
							"type": "bool"
						}
					],
					"stateMutability": "view",
					"type": "function"
				},
				{
					"inputs": [
						{
							"internalType": "uint256",
							"name": "",
							"type": "uint256"
						}
					],
					"name": "hashes",
					"outputs": [
						{
							"internalType": "bytes32",
							"name": "",
							"type": "bytes32"
						}
					],
					"stateMutability": "view",
					"type": "function"
				},
				{
					"inputs": [
						{
							"internalType": "uint256",
							"name": "",
							"type": "uint256"
						}
					],
					"name": "names",
					"outputs": [
						{
							"internalType": "string",
							"name": "",
							"type": "string"
						}
					],
					"stateMutability": "view",
					"type": "function"
				},
				{
					"inputs": [
						{
							"internalType": "uint256",
							"name": "",
							"type": "uint256"
						}
					],
					"name": "numbers",
					"outputs": [
						{
							"internalType": "uint256",
							"name": "",
							"type": "uint256"
						}
					],
					"stateMutability": "view",
					"type": "function"
				}
			],
			"devdoc": {
				"kind": "dev",
				"methods": {},
				"version": 1
			},
			"evm": {
				"assembly": "    /* \"contracts/3.1/02DynamicArray/DynamicArrayExample.sol\":58:453  contract DynamicArrayExample{... */\n  mstore(0x40, 0x80)\n    /* \"contracts/3.1/02DynamicArray/DynamicArrayExample.sol\":121:261  address[] public addresses=[... */\n  mload(0x40)\n  dup1\n  0x40\n  add\n  0x40\n  mstore\n  dup1\n    /* \"contracts/3.1/02DynamicArray/DynamicArrayExample.sol\":159:201  0x5B38Da6a701c568545dCfcB03FcB875f56beddC4 */\n  0x5b38da6a701c568545dcfcb03fcb875f56beddc4\n    /* \"contracts/3.1/02DynamicArray/DynamicArrayExample.sol\":121:261  address[] public addresses=[... */\n  0xffffffffffffffffffffffffffffffffffffffff\n  and\n  0xffffffffffffffffffffffffffffffffffffffff\n  and\n  dup2\n  mstore\n  0x20\n  add\n    /* \"contracts/3.1/02DynamicArray/DynamicArrayExample.sol\":212:254  0xAb8483F64d9C6d1EcF9b849Ae677dD3315835cb2 */\n  0xab8483f64d9c6d1ecf9b849ae677dd3315835cb2\n    /* \"contracts/3.1/02DynamicArray/DynamicArrayExample.sol\":121:261  address[] public addresses=[... */\n  0xffffffffffffffffffffffffffffffffffffffff\n  and\n  0xffffffffffffffffffffffffffffffffffffffff\n  and\n  dup2\n  mstore\n  pop\n  0x01\n  swap1\n  dup2\n  tag_1\n  swap2\n  swap1\n  tag_2\n  jump\t// in\ntag_1:\n  pop\n    /* \"contracts/3.1/02DynamicArray/DynamicArrayExample.sol\":351:450  constructor(){... */\n  callvalue\n  dup1\n  iszero\n  tag_3\n  jumpi\n  revert(0x00, 0x00)\ntag_3:\n  pop\n    /* \"contracts/3.1/02DynamicArray/DynamicArrayExample.sol\":375:382  numbers */\n  0x00\n    /* \"contracts/3.1/02DynamicArray/DynamicArrayExample.sol\":388:389  1 */\n  0x01\n    /* \"contracts/3.1/02DynamicArray/DynamicArrayExample.sol\":375:390  numbers.push(1) */\n  swap1\n  dup1\n  0x01\n  dup2\n  sload\n  add\n  dup1\n  dup3\n  sstore\n  dup1\n  swap2\n  pop\n  pop\n  0x01\n  swap1\n  sub\n  swap1\n  0x00\n  mstore\n  keccak256(0x00, 0x20)\n  add\n  0x00\n  swap1\n  swap2\n  swap1\n  swap2\n  swap1\n  swap2\n  pop\n  sstore\n    /* \"contracts/3.1/02DynamicArray/DynamicArrayExample.sol\":401:408  numbers */\n  0x00\n    /* \"contracts/3.1/02DynamicArray/DynamicArrayExample.sol\":414:415  2 */\n  0x02\n    /* \"contracts/3.1/02DynamicArray/DynamicArrayExample.sol\":401:416  numbers.push(2) */\n  swap1\n  dup1\n  0x01\n  dup2\n  sload\n  add\n  dup1\n  dup3\n  sstore\n  dup1\n  swap2\n  pop\n  pop\n  0x01\n  swap1\n  sub\n  swap1\n  0x00\n  mstore\n  keccak256(0x00, 0x20)\n  add\n  0x00\n  swap1\n  swap2\n  swap1\n  swap2\n  swap1\n  swap2\n  pop\n  sstore\n    /* \"contracts/3.1/02DynamicArray/DynamicArrayExample.sol\":427:434  numbers */\n  0x00\n    /* \"contracts/3.1/02DynamicArray/DynamicArrayExample.sol\":440:441  3 */\n  0x03\n    /* \"contracts/3.1/02DynamicArray/DynamicArrayExample.sol\":427:442  numbers.push(3) */\n  swap1\n  dup1\n  0x01\n  dup2\n  sload\n  add\n  dup1\n  dup3\n  sstore\n  dup1\n  swap2\n  pop\n  pop\n  0x01\n  swap1\n  sub\n  swap1\n  0x00\n  mstore\n  keccak256(0x00, 0x20)\n  add\n  0x00\n  swap1\n  swap2\n  swap1\n  swap2\n  swap1\n  swap2\n  pop\n  sstore\n    /* \"contracts/3.1/02DynamicArray/DynamicArrayExample.sol\":58:453  contract DynamicArrayExample{... */\n  jump(tag_9)\n    /* \"#utility.yul\":7:187   */\ntag_10:\n    /* \"#utility.yul\":55:132   */\n  0x4e487b7100000000000000000000000000000000000000000000000000000000\n    /* \"#utility.yul\":52:53   */\n  0x00\n    /* \"#utility.yul\":45:133   */\n  mstore\n    /* \"#utility.yul\":152:156   */\n  0x41\n    /* \"#utility.yul\":149:150   */\n  0x04\n    /* \"#utility.yul\":142:157   */\n  mstore\n    /* \"#utility.yul\":176:180   */\n  0x24\n    /* \"#utility.yul\":173:174   */\n  0x00\n    /* \"#utility.yul\":166:181   */\n  revert\n    /* \"#utility.yul\":193:304   */\ntag_11:\n    /* \"#utility.yul\":257:263   */\n  0x00\n    /* \"#utility.yul\":291:296   */\n  dup2\n    /* \"#utility.yul\":285:297   */\n  sload\n    /* \"#utility.yul\":275:297   */\n  swap1\n  pop\n    /* \"#utility.yul\":193:304   */\n  swap2\n  swap1\n  pop\n  jump\t// out\n    /* \"#utility.yul\":310:387   */\ntag_12:\n    /* \"#utility.yul\":347:354   */\n  0x00\n    /* \"#utility.yul\":376:381   */\n  dup2\n    /* \"#utility.yul\":365:381   */\n  swap1\n  pop\n    /* \"#utility.yul\":310:387   */\n  swap2\n  swap1\n  pop\n  jump\t// out\n    /* \"#utility.yul\":995:1198   */\ntag_15:\n    /* \"#utility.yul\":1076:1080   */\n  0x00\n    /* \"#utility.yul\":1099:1105   */\n  dup2\n    /* \"#utility.yul\":1091:1105   */\n  swap1\n  pop\n    /* \"#utility.yul\":1189:1190   */\n  0x01\n    /* \"#utility.yul\":1184:1185   */\n  dup1\n    /* \"#utility.yul\":1181:1182   */\n  0x01\n    /* \"#utility.yul\":1177:1186   */\n  sub\n    /* \"#utility.yul\":1169:1175   */\n  dup4\n    /* \"#utility.yul\":1165:1187   */\n  add\n    /* \"#utility.yul\":1161:1191   */\n  div\n    /* \"#utility.yul\":1153:1191   */\n  swap1\n  pop\n    /* \"#utility.yul\":995:1198   */\n  swap2\n  swap1\n  pop\n  jump\t// out\n    /* \"#utility.yul\":1203:1359   */\ntag_16:\n    /* \"#utility.yul\":1267:1271   */\n  0x00\n    /* \"#utility.yul\":1290:1293   */\n  dup2\n    /* \"#utility.yul\":1282:1293   */\n  swap1\n  pop\n    /* \"#utility.yul\":1313:1316   */\n  dup2\n    /* \"#utility.yul\":1310:1311   */\n  0x00\n    /* \"#utility.yul\":1303:1317   */\n  mstore\n    /* \"#utility.yul\":1347:1351   */\n  0x20\n    /* \"#utility.yul\":1344:1345   */\n  0x00\n    /* \"#utility.yul\":1334:1352   */\n  keccak256\n    /* \"#utility.yul\":1326:1352   */\n  swap1\n  pop\n    /* \"#utility.yul\":1203:1359   */\n  swap2\n  swap1\n  pop\n  jump\t// out\n    /* \"#utility.yul\":1365:1472   */\ntag_17:\n    /* \"#utility.yul\":1409:1417   */\n  0x00\n    /* \"#utility.yul\":1459:1464   */\n  dup3\n    /* \"#utility.yul\":1453:1457   */\n  dup3\n    /* \"#utility.yul\":1449:1465   */\n  shl\n    /* \"#utility.yul\":1428:1465   */\n  swap1\n  pop\n    /* \"#utility.yul\":1365:1472   */\n  swap3\n  swap2\n  pop\n  pop\n  jump\t// out\n    /* \"#utility.yul\":1478:1871   */\ntag_18:\n    /* \"#utility.yul\":1547:1553   */\n  0x00\n    /* \"#utility.yul\":1597:1598   */\n  0x08\n    /* \"#utility.yul\":1585:1595   */\n  dup4\n    /* \"#utility.yul\":1581:1599   */\n  mul\n    /* \"#utility.yul\":1620:1717   */\n  tag_57\n    /* \"#utility.yul\":1650:1716   */\n  0xffffffffffffffffffffffffffffffffffffffffffffffffffffffffffffffff\n    /* \"#utility.yul\":1639:1648   */\n  dup3\n    /* \"#utility.yul\":1620:1717   */\n  tag_17\n  jump\t// in\ntag_57:\n    /* \"#utility.yul\":1738:1777   */\n  tag_58\n    /* \"#utility.yul\":1768:1776   */\n  dup7\n    /* \"#utility.yul\":1757:1766   */\n  dup4\n    /* \"#utility.yul\":1738:1777   */\n  tag_17\n  jump\t// in\ntag_58:\n    /* \"#utility.yul\":1726:1777   */\n  swap6\n  pop\n    /* \"#utility.yul\":1810:1814   */\n  dup1\n    /* \"#utility.yul\":1806:1815   */\n  not\n    /* \"#utility.yul\":1799:1804   */\n  dup5\n    /* \"#utility.yul\":1795:1816   */\n  and\n    /* \"#utility.yul\":1786:1816   */\n  swap4\n  pop\n    /* \"#utility.yul\":1859:1863   */\n  dup1\n    /* \"#utility.yul\":1849:1857   */\n  dup7\n    /* \"#utility.yul\":1845:1864   */\n  and\n    /* \"#utility.yul\":1838:1843   */\n  dup5\n    /* \"#utility.yul\":1835:1865   */\n  or\n    /* \"#utility.yul\":1825:1865   */\n  swap3\n  pop\n    /* \"#utility.yul\":1554:1871   */\n  pop\n  pop\n    /* \"#utility.yul\":1478:1871   */\n  swap4\n  swap3\n  pop\n  pop\n  pop\n  jump\t// out\n    /* \"#utility.yul\":1877:1937   */\ntag_19:\n    /* \"#utility.yul\":1905:1908   */\n  0x00\n    /* \"#utility.yul\":1926:1931   */\n  dup2\n    /* \"#utility.yul\":1919:1931   */\n  swap1\n  pop\n    /* \"#utility.yul\":1877:1937   */\n  swap2\n  swap1\n  pop\n  jump\t// out\n    /* \"#utility.yul\":1943:2085   */\ntag_20:\n    /* \"#utility.yul\":1993:2002   */\n  0x00\n    /* \"#utility.yul\":2026:2079   */\n  tag_61\n    /* \"#utility.yul\":2044:2078   */\n  tag_62\n    /* \"#utility.yul\":2053:2077   */\n  tag_63\n    /* \"#utility.yul\":2071:2076   */\n  dup5\n    /* \"#utility.yul\":2053:2077   */\n  tag_12\n  jump\t// in\ntag_63:\n    /* \"#utility.yul\":2044:2078   */\n  tag_19\n  jump\t// in\ntag_62:\n    /* \"#utility.yul\":2026:2079   */\n  tag_12\n  jump\t// in\ntag_61:\n    /* \"#utility.yul\":2013:2079   */\n  swap1\n  pop\n    /* \"#utility.yul\":1943:2085   */\n  swap2\n  swap1\n  pop\n  jump\t// out\n    /* \"#utility.yul\":2091:2166   */\ntag_21:\n    /* \"#utility.yul\":2134:2137   */\n  0x00\n    /* \"#utility.yul\":2155:2160   */\n  dup2\n    /* \"#utility.yul\":2148:2160   */\n  swap1\n  pop\n    /* \"#utility.yul\":2091:2166   */\n  swap2\n  swap1\n  pop\n  jump\t// out\n    /* \"#utility.yul\":2172:2441   */\ntag_22:\n    /* \"#utility.yul\":2282:2321   */\n  tag_66\n    /* \"#utility.yul\":2313:2320   */\n  dup4\n    /* \"#utility.yul\":2282:2321   */\n  tag_20\n  jump\t// in\ntag_66:\n    /* \"#utility.yul\":2343:2434   */\n  tag_67\n    /* \"#utility.yul\":2392:2433   */\n  tag_68\n    /* \"#utility.yul\":2416:2432   */\n  dup3\n    /* \"#utility.yul\":2392:2433   */\n  tag_21\n  jump\t// in\ntag_68:\n    /* \"#utility.yul\":2384:2390   */\n  dup5\n    /* \"#utility.yul\":2377:2381   */\n  dup5\n    /* \"#utility.yul\":2371:2382   */\n  sload\n    /* \"#utility.yul\":2343:2434   */\n  tag_18\n  jump\t// in\ntag_67:\n    /* \"#utility.yul\":2337:2341   */\n  dup3\n    /* \"#utility.yul\":2330:2435   */\n  sstore\n    /* \"#utility.yul\":2248:2441   */\n  pop\n    /* \"#utility.yul\":2172:2441   */\n  pop\n  pop\n  pop\n  jump\t// out\n    /* \"#utility.yul\":2447:2520   */\ntag_23:\n    /* \"#utility.yul\":2492:2495   */\n  0x00\n    /* \"#utility.yul\":2513:2514   */\n  0x00\n    /* \"#utility.yul\":2506:2514   */\n  swap1\n  pop\n    /* \"#utility.yul\":2447:2520   */\n  swap1\n  jump\t// out\n    /* \"#utility.yul\":2526:2715   */\ntag_24:\n    /* \"#utility.yul\":2603:2635   */\n  tag_71\n  tag_23\n  jump\t// in\ntag_71:\n    /* \"#utility.yul\":2644:2709   */\n  tag_72\n    /* \"#utility.yul\":2702:2708   */\n  dup2\n    /* \"#utility.yul\":2694:2700   */\n  dup5\n    /* \"#utility.yul\":2688:2692   */\n  dup5\n    /* \"#utility.yul\":2644:2709   */\n  tag_22\n  jump\t// in\ntag_72:\n    /* \"#utility.yul\":2579:2715   */\n  pop\n    /* \"#utility.yul\":2526:2715   */\n  pop\n  pop\n  jump\t// out\n    /* \"#utility.yul\":2721:2936   */\ntag_25:\n    /* \"#utility.yul\":2807:2808   */\n  0x00\n    /* \"#utility.yul\":2792:2930   */\ntag_74:\n    /* \"#utility.yul\":2817:2826   */\n  dup3\n    /* \"#utility.yul\":2814:2815   */\n  dup2\n    /* \"#utility.yul\":2811:2827   */\n  lt\n    /* \"#utility.yul\":2792:2930   */\n  iszero\n  tag_76\n  jumpi\n    /* \"#utility.yul\":2869:2920   */\n  tag_77\n    /* \"#utility.yul\":2918:2919   */\n  0x00\n    /* \"#utility.yul\":2914:2915   */\n  dup3\n    /* \"#utility.yul\":2903:2912   */\n  dup5\n    /* \"#utility.yul\":2899:2916   */\n  add\n    /* \"#utility.yul\":2869:2920   */\n  tag_24\n  jump\t// in\ntag_77:\n    /* \"#utility.yul\":2842:2843   */\n  0x01\n    /* \"#utility.yul\":2839:2840   */\n  dup2\n    /* \"#utility.yul\":2835:2844   */\n  add\n    /* \"#utility.yul\":2830:2844   */\n  swap1\n  pop\n    /* \"#utility.yul\":2792:2930   */\n  jump(tag_74)\ntag_76:\n    /* \"#utility.yul\":2796:2810   */\n  pop\n    /* \"#utility.yul\":2721:2936   */\n  pop\n  pop\n  jump\t// out\n    /* \"#utility.yul\":3315:3955   */\ntag_28:\n    /* \"#utility.yul\":3435:3438   */\n  dup2\n    /* \"#utility.yul\":3423:3433   */\n  dup4\n    /* \"#utility.yul\":3420:3439   */\n  lt\n    /* \"#utility.yul\":3417:3948   */\n  iszero\n  tag_82\n  jumpi\n    /* \"#utility.yul\":3526:3591   */\n  tag_83\n    /* \"#utility.yul\":3587:3590   */\n  dup3\n    /* \"#utility.yul\":3526:3591   */\n  tag_15\n  jump\t// in\ntag_83:\n    /* \"#utility.yul\":3624:3696   */\n  tag_84\n    /* \"#utility.yul\":3685:3695   */\n  dup5\n    /* \"#utility.yul\":3624:3696   */\n  tag_15\n  jump\t// in\ntag_84:\n    /* \"#utility.yul\":3731:3784   */\n  tag_85\n    /* \"#utility.yul\":3778:3783   */\n  dup4\n    /* \"#utility.yul\":3731:3784   */\n  tag_16\n  jump\t// in\ntag_85:\n    /* \"#utility.yul\":3836:3848   */\n  dup2\n    /* \"#utility.yul\":3820:3834   */\n  dup2\n    /* \"#utility.yul\":3816:3849   */\n  add\n    /* \"#utility.yul\":3863:3938   */\n  tag_86\n    /* \"#utility.yul\":3924:3936   */\n  dup4\n    /* \"#utility.yul\":3910:3922   */\n  dup6\n    /* \"#utility.yul\":3906:3937   */\n  sub\n    /* \"#utility.yul\":3893:3904   */\n  dup3\n    /* \"#utility.yul\":3863:3938   */\n  tag_25\n  jump\t// in\ntag_86:\n    /* \"#utility.yul\":3440:3948   */\n  pop\n  pop\n  pop\n  pop\n    /* \"#utility.yul\":3417:3948   */\ntag_82:\n    /* \"#utility.yul\":3315:3955   */\n  pop\n  pop\n  pop\n  jump\t// out\n    /* \"#utility.yul\":3961:4349   */\ntag_29:\n    /* \"#utility.yul\":4054:4074   */\n  0x010000000000000000\n    /* \"#utility.yul\":4046:4052   */\n  dup3\n    /* \"#utility.yul\":4043:4075   */\n  gt\n    /* \"#utility.yul\":4040:4118   */\n  iszero\n  tag_88\n  jumpi\n    /* \"#utility.yul\":4090:4108   */\n  tag_89\n  tag_10\n  jump\t// in\ntag_89:\n    /* \"#utility.yul\":4040:4118   */\ntag_88:\n    /* \"#utility.yul\":4142:4193   */\n  tag_90\n    /* \"#utility.yul\":4187:4192   */\n  dup2\n    /* \"#utility.yul\":4142:4193   */\n  tag_11\n  jump\t// in\ntag_90:\n    /* \"#utility.yul\":4245:4251   */\n  dup3\n    /* \"#utility.yul\":4238:4243   */\n  dup3\n    /* \"#utility.yul\":4231:4252   */\n  sstore\n    /* \"#utility.yul\":4262:4342   */\n  tag_91\n    /* \"#utility.yul\":4335:4341   */\n  dup4\n    /* \"#utility.yul\":4327:4333   */\n  dup3\n    /* \"#utility.yul\":4320:4325   */\n  dup5\n    /* \"#utility.yul\":4262:4342   */\n  tag_28\n  jump\t// in\ntag_91:\n    /* \"#utility.yul\":4030:4349   */\n  pop\n    /* \"#utility.yul\":3961:4349   */\n  pop\n  pop\n  jump\t// out\n    /* \"#utility.yul\":4354:4458   */\ntag_30:\n    /* \"#utility.yul\":4419:4425   */\n  0x00\n    /* \"#utility.yul\":4447:4451   */\n  0x02\n    /* \"#utility.yul\":4437:4451   */\n  swap1\n  pop\n    /* \"#utility.yul\":4354:4458   */\n  swap2\n  swap1\n  pop\n  jump\t// out\n    /* \"#utility.yul\":4464:4590   */\ntag_31:\n    /* \"#utility.yul\":4501:4508   */\n  0x00\n    /* \"#utility.yul\":4541:4583   */\n  0xffffffffffffffffffffffffffffffffffffffff\n    /* \"#utility.yul\":4534:4539   */\n  dup3\n    /* \"#utility.yul\":4530:4584   */\n  and\n    /* \"#utility.yul\":4519:4584   */\n  swap1\n  pop\n    /* \"#utility.yul\":4464:4590   */\n  swap2\n  swap1\n  pop\n  jump\t// out\n    /* \"#utility.yul\":4596:4692   */\ntag_32:\n    /* \"#utility.yul\":4633:4640   */\n  0x00\n    /* \"#utility.yul\":4662:4686   */\n  tag_95\n    /* \"#utility.yul\":4680:4685   */\n  dup3\n    /* \"#utility.yul\":4662:4686   */\n  tag_31\n  jump\t// in\ntag_95:\n    /* \"#utility.yul\":4651:4686   */\n  swap1\n  pop\n    /* \"#utility.yul\":4596:4692   */\n  swap2\n  swap1\n  pop\n  jump\t// out\n    /* \"#utility.yul\":4698:4852   */\ntag_33:\n    /* \"#utility.yul\":4741:4752   */\n  0x00\n    /* \"#utility.yul\":4777:4806   */\n  tag_97\n    /* \"#utility.yul\":4801:4804   */\n  dup3\n    /* \"#utility.yul\":4795:4805   */\n  mload\n    /* \"#utility.yul\":4777:4806   */\n  tag_32\n  jump\t// in\ntag_97:\n    /* \"#utility.yul\":4840:4845   */\n  dup1\n    /* \"#utility.yul\":4816:4845   */\n  swap2\n  pop\n    /* \"#utility.yul\":4753:4852   */\n  pop\n    /* \"#utility.yul\":4698:4852   */\n  swap2\n  swap1\n  pop\n  jump\t// out\n    /* \"#utility.yul\":4858:4956   */\ntag_34:\n    /* \"#utility.yul\":4923:4927   */\n  0x00\n    /* \"#utility.yul\":4946:4949   */\n  dup2\n    /* \"#utility.yul\":4938:4949   */\n  swap1\n  pop\n    /* \"#utility.yul\":4858:4956   */\n  swap2\n  swap1\n  pop\n  jump\t// out\n    /* \"#utility.yul\":6095:6170   */\ntag_41:\n    /* \"#utility.yul\":6138:6141   */\n  0x00\n    /* \"#utility.yul\":6159:6164   */\n  dup2\n    /* \"#utility.yul\":6152:6164   */\n  swap1\n  pop\n    /* \"#utility.yul\":6095:6170   */\n  swap2\n  swap1\n  pop\n  jump\t// out\n    /* \"#utility.yul\":6176:7171   */\ntag_2:\n    /* \"#utility.yul\":6315:6365   */\n  tag_116\n    /* \"#utility.yul\":6361:6364   */\n  dup3\n    /* \"#utility.yul\":6315:6365   */\n  tag_30\n  jump\t// in\ntag_116:\n    /* \"#utility.yul\":6430:6448   */\n  0xffffffffffffffff\n    /* \"#utility.yul\":6422:6428   */\n  dup2\n    /* \"#utility.yul\":6419:6449   */\n  gt\n    /* \"#utility.yul\":6416:6472   */\n  iszero\n  tag_117\n  jumpi\n    /* \"#utility.yul\":6452:6470   */\n  tag_118\n  tag_10\n  jump\t// in\ntag_118:\n    /* \"#utility.yul\":6416:6472   */\ntag_117:\n    /* \"#utility.yul\":6481:6538   */\n  tag_119\n    /* \"#utility.yul\":6531:6537   */\n  dup2\n    /* \"#utility.yul\":6526:6529   */\n  dup4\n    /* \"#utility.yul\":6481:6538   */\n  tag_29\n  jump\t// in\ntag_119:\n    /* \"#utility.yul\":6562:6614   */\n  tag_120\n    /* \"#utility.yul\":6610:6613   */\n  dup4\n    /* \"#utility.yul\":6562:6614   */\n  tag_34\n  jump\t// in\ntag_120:\n    /* \"#utility.yul\":6638:6689   */\n  tag_121\n    /* \"#utility.yul\":6685:6688   */\n  dup4\n    /* \"#utility.yul\":6638:6689   */\n  tag_16\n  jump\t// in\ntag_121:\n    /* \"#utility.yul\":6728:6729   */\n  0x01\n    /* \"#utility.yul\":6720:6726   */\n  dup4\n    /* \"#utility.yul\":6716:6730   */\n  div\n    /* \"#utility.yul\":6755:6756   */\n  0x00\n    /* \"#utility.yul\":6740:7164   */\ntag_122:\n    /* \"#utility.yul\":6765:6774   */\n  dup2\n    /* \"#utility.yul\":6762:6763   */\n  dup2\n    /* \"#utility.yul\":6759:6775   */\n  lt\n    /* \"#utility.yul\":6740:7164   */\n  iszero\n  tag_124\n  jumpi\n    /* \"#utility.yul\":6829:6830   */\n  0x00\n    /* \"#utility.yul\":6882:6915   */\n  tag_125\n    /* \"#utility.yul\":6908:6914   */\n  dup6\n    /* \"#utility.yul\":6882:6915   */\n  tag_33\n  jump\t// in\ntag_125:\n    /* \"#utility.yul\":6950:6986   */\n  tag_126\n    /* \"#utility.yul\":6974:6985   */\n  dup2\n    /* \"#utility.yul\":6950:6986   */\n  tag_41\n  jump\t// in\ntag_126:\n    /* \"#utility.yul\":7036:7045   */\n  dup1\n    /* \"#utility.yul\":7003:7045   */\n  swap3\n  pop\n    /* \"#utility.yul\":7085:7087   */\n  0x20\n    /* \"#utility.yul\":7077:7083   */\n  dup8\n    /* \"#utility.yul\":7073:7088   */\n  add\n    /* \"#utility.yul\":7063:7088   */\n  swap7\n  pop\n    /* \"#utility.yul\":6844:7103   */\n  pop\n  pop\n    /* \"#utility.yul\":7141:7153   */\n  dup1\n    /* \"#utility.yul\":7137:7138   */\n  dup3\n    /* \"#utility.yul\":7128:7135   */\n  dup6\n    /* \"#utility.yul\":7124:7139   */\n  add\n    /* \"#utility.yul\":7117:7154   */\n  sstore\n    /* \"#utility.yul\":6795:7164   */\n  pop\n    /* \"#utility.yul\":6790:6791   */\n  0x01\n    /* \"#utility.yul\":6787:6788   */\n  dup2\n    /* \"#utility.yul\":6783:6792   */\n  add\n    /* \"#utility.yul\":6778:6792   */\n  swap1\n  pop\n    /* \"#utility.yul\":6740:7164   */\n  jump(tag_122)\ntag_124:\n    /* \"#utility.yul\":6744:6758   */\n  pop\n    /* \"#utility.yul\":6290:7171   */\n  pop\n  pop\n  pop\n  pop\n    /* \"#utility.yul\":6176:7171   */\n  pop\n  pop\n  jump\t// out\n    /* \"contracts/3.1/02DynamicArray/DynamicArrayExample.sol\":58:453  contract DynamicArrayExample{... */\ntag_9:\n  dataSize(sub_0)\n  dup1\n  dataOffset(sub_0)\n  0x00\n  codecopy\n  0x00\n  return\nstop\n\nsub_0: assembly {\n        /* \"contracts/3.1/02DynamicArray/DynamicArrayExample.sol\":58:453  contract DynamicArrayExample{... */\n      mstore(0x40, 0x80)\n      callvalue\n      dup1\n      iszero\n      tag_1\n      jumpi\n      revert(0x00, 0x00)\n    tag_1:\n      pop\n      jumpi(tag_2, lt(calldatasize, 0x04))\n      shr(0xe0, calldataload(0x00))\n      dup1\n      0x4622ab03\n      eq\n      tag_3\n      jumpi\n      dup1\n      0x501895ae\n      eq\n      tag_4\n      jumpi\n      dup1\n      0x81274d3a\n      eq\n      tag_5\n      jumpi\n      dup1\n      0xd39fa233\n      eq\n      tag_6\n      jumpi\n      dup1\n      0xedf26d9b\n      eq\n      tag_7\n      jumpi\n    tag_2:\n      revert(0x00, 0x00)\n        /* \"contracts/3.1/02DynamicArray/DynamicArrayExample.sol\":268:289  string[] public names */\n    tag_3:\n      tag_8\n      0x04\n      dup1\n      calldatasize\n      sub\n      dup2\n      add\n      swap1\n      tag_9\n      swap2\n      swap1\n      tag_10\n      jump\t// in\n    tag_9:\n      tag_11\n      jump\t// in\n    tag_8:\n      mload(0x40)\n      tag_12\n      swap2\n      swap1\n      tag_13\n      jump\t// in\n    tag_12:\n      mload(0x40)\n      dup1\n      swap2\n      sub\n      swap1\n      return\n        /* \"contracts/3.1/02DynamicArray/DynamicArrayExample.sol\":322:344  bytes32[]public hashes */\n    tag_4:\n      tag_14\n      0x04\n      dup1\n      calldatasize\n      sub\n      dup2\n      add\n      swap1\n      tag_15\n      swap2\n      swap1\n      tag_10\n      jump\t// in\n    tag_15:\n      tag_16\n      jump\t// in\n    tag_14:\n      mload(0x40)\n      tag_17\n      swap2\n      swap1\n      tag_18\n      jump\t// in\n    tag_17:\n      mload(0x40)\n      dup1\n      swap2\n      sub\n      swap1\n      return\n        /* \"contracts/3.1/02DynamicArray/DynamicArrayExample.sol\":296:315  bool[] public flags */\n    tag_5:\n      tag_19\n      0x04\n      dup1\n      calldatasize\n      sub\n      dup2\n      add\n      swap1\n      tag_20\n      swap2\n      swap1\n      tag_10\n      jump\t// in\n    tag_20:\n      tag_21\n      jump\t// in\n    tag_19:\n      mload(0x40)\n      tag_22\n      swap2\n      swap1\n      tag_23\n      jump\t// in\n    tag_22:\n      mload(0x40)\n      dup1\n      swap2\n      sub\n      swap1\n      return\n        /* \"contracts/3.1/02DynamicArray/DynamicArrayExample.sol\":93:114  uint[] public numbers */\n    tag_6:\n      tag_24\n      0x04\n      dup1\n      calldatasize\n      sub\n      dup2\n      add\n      swap1\n      tag_25\n      swap2\n      swap1\n      tag_10\n      jump\t// in\n    tag_25:\n      tag_26\n      jump\t// in\n    tag_24:\n      mload(0x40)\n      tag_27\n      swap2\n      swap1\n      tag_28\n      jump\t// in\n    tag_27:\n      mload(0x40)\n      dup1\n      swap2\n      sub\n      swap1\n      return\n        /* \"contracts/3.1/02DynamicArray/DynamicArrayExample.sol\":121:261  address[] public addresses=[... */\n    tag_7:\n      tag_29\n      0x04\n      dup1\n      calldatasize\n      sub\n      dup2\n      add\n      swap1\n      tag_30\n      swap2\n      swap1\n      tag_10\n      jump\t// in\n    tag_30:\n      tag_31\n      jump\t// in\n    tag_29:\n      mload(0x40)\n      tag_32\n      swap2\n      swap1\n      tag_33\n      jump\t// in\n    tag_32:\n      mload(0x40)\n      dup1\n      swap2\n      sub\n      swap1\n      return\n        /* \"contracts/3.1/02DynamicArray/DynamicArrayExample.sol\":268:289  string[] public names */\n    tag_11:\n      0x02\n      dup2\n      dup2\n      sload\n      dup2\n      lt\n      tag_34\n      jumpi\n      0x00\n      dup1\n      revert\n    tag_34:\n      swap1\n      0x00\n      mstore\n      keccak256(0x00, 0x20)\n      add\n      0x00\n      swap2\n      pop\n      swap1\n      pop\n      dup1\n      sload\n      tag_36\n      swap1\n      tag_37\n      jump\t// in\n    tag_36:\n      dup1\n      0x1f\n      add\n      0x20\n      dup1\n      swap2\n      div\n      mul\n      0x20\n      add\n      mload(0x40)\n      swap1\n      dup2\n      add\n      0x40\n      mstore\n      dup1\n      swap3\n      swap2\n      swap1\n      dup2\n      dup2\n      mstore\n      0x20\n      add\n      dup3\n      dup1\n      sload\n      tag_38\n      swap1\n      tag_37\n      jump\t// in\n    tag_38:\n      dup1\n      iszero\n      tag_39\n      jumpi\n      dup1\n      0x1f\n      lt\n      tag_40\n      jumpi\n      0x0100\n      dup1\n      dup4\n      sload\n      div\n      mul\n      dup4\n      mstore\n      swap2\n      0x20\n      add\n      swap2\n      jump(tag_39)\n    tag_40:\n      dup3\n      add\n      swap2\n      swap1\n      0x00\n      mstore\n      keccak256(0x00, 0x20)\n      swap1\n    tag_41:\n      dup2\n      sload\n      dup2\n      mstore\n      swap1\n      0x01\n      add\n      swap1\n      0x20\n      add\n      dup1\n      dup4\n      gt\n      tag_41\n      jumpi\n      dup3\n      swap1\n      sub\n      0x1f\n      and\n      dup3\n      add\n      swap2\n    tag_39:\n      pop\n      pop\n      pop\n      pop\n      pop\n      dup2\n      jump\t// out\n        /* \"contracts/3.1/02DynamicArray/DynamicArrayExample.sol\":322:344  bytes32[]public hashes */\n    tag_16:\n      0x04\n      dup2\n      dup2\n      sload\n      dup2\n      lt\n      tag_42\n      jumpi\n      0x00\n      dup1\n      revert\n    tag_42:\n      swap1\n      0x00\n      mstore\n      keccak256(0x00, 0x20)\n      add\n      0x00\n      swap2\n      pop\n      swap1\n      pop\n      sload\n      dup2\n      jump\t// out\n        /* \"contracts/3.1/02DynamicArray/DynamicArrayExample.sol\":296:315  bool[] public flags */\n    tag_21:\n      0x03\n      dup2\n      dup2\n      sload\n      dup2\n      lt\n      tag_44\n      jumpi\n      0x00\n      dup1\n      revert\n    tag_44:\n      swap1\n      0x00\n      mstore\n      keccak256(0x00, 0x20)\n      swap1\n      0x20\n      swap2\n      dup3\n      dup3\n      div\n      add\n      swap2\n      swap1\n      mod\n      swap2\n      pop\n      sload\n      swap1\n      0x0100\n      exp\n      swap1\n      div\n      0xff\n      and\n      dup2\n      jump\t// out\n        /* \"contracts/3.1/02DynamicArray/DynamicArrayExample.sol\":93:114  uint[] public numbers */\n    tag_26:\n      0x00\n      dup2\n      dup2\n      sload\n      dup2\n      lt\n      tag_46\n      jumpi\n      0x00\n      dup1\n      revert\n    tag_46:\n      swap1\n      0x00\n      mstore\n      keccak256(0x00, 0x20)\n      add\n      0x00\n      swap2\n      pop\n      swap1\n      pop\n      sload\n      dup2\n      jump\t// out\n        /* \"contracts/3.1/02DynamicArray/DynamicArrayExample.sol\":121:261  address[] public addresses=[... */\n    tag_31:\n      0x01\n      dup2\n      dup2\n      sload\n      dup2\n      lt\n      tag_48\n      jumpi\n      0x00\n      dup1\n      revert\n    tag_48:\n      swap1\n      0x00\n      mstore\n      keccak256(0x00, 0x20)\n      add\n      0x00\n      swap2\n      pop\n      sload\n      swap1\n      0x0100\n      exp\n      swap1\n      div\n      0xffffffffffffffffffffffffffffffffffffffff\n      and\n      dup2\n      jump\t// out\n        /* \"#utility.yul\":88:205   */\n    tag_51:\n        /* \"#utility.yul\":197:198   */\n      0x00\n        /* \"#utility.yul\":194:195   */\n      0x00\n        /* \"#utility.yul\":187:199   */\n      revert\n        /* \"#utility.yul\":334:411   */\n    tag_53:\n        /* \"#utility.yul\":371:378   */\n      0x00\n        /* \"#utility.yul\":400:405   */\n      dup2\n        /* \"#utility.yul\":389:405   */\n      swap1\n      pop\n        /* \"#utility.yul\":334:411   */\n      swap2\n      swap1\n      pop\n      jump\t// out\n        /* \"#utility.yul\":417:539   */\n    tag_54:\n        /* \"#utility.yul\":490:514   */\n      tag_76\n        /* \"#utility.yul\":508:513   */\n      dup2\n        /* \"#utility.yul\":490:514   */\n      tag_53\n      jump\t// in\n    tag_76:\n        /* \"#utility.yul\":483:488   */\n      dup2\n        /* \"#utility.yul\":480:515   */\n      eq\n        /* \"#utility.yul\":470:533   */\n      tag_77\n      jumpi\n        /* \"#utility.yul\":529:530   */\n      0x00\n        /* \"#utility.yul\":526:527   */\n      0x00\n        /* \"#utility.yul\":519:531   */\n      revert\n        /* \"#utility.yul\":470:533   */\n    tag_77:\n        /* \"#utility.yul\":417:539   */\n      pop\n      jump\t// out\n        /* \"#utility.yul\":545:684   */\n    tag_55:\n        /* \"#utility.yul\":591:596   */\n      0x00\n        /* \"#utility.yul\":629:635   */\n      dup2\n        /* \"#utility.yul\":616:636   */\n      calldataload\n        /* \"#utility.yul\":607:636   */\n      swap1\n      pop\n        /* \"#utility.yul\":645:678   */\n      tag_79\n        /* \"#utility.yul\":672:677   */\n      dup2\n        /* \"#utility.yul\":645:678   */\n      tag_54\n      jump\t// in\n    tag_79:\n        /* \"#utility.yul\":545:684   */\n      swap3\n      swap2\n      pop\n      pop\n      jump\t// out\n        /* \"#utility.yul\":690:1019   */\n    tag_10:\n        /* \"#utility.yul\":749:755   */\n      0x00\n        /* \"#utility.yul\":798:800   */\n      0x20\n        /* \"#utility.yul\":786:795   */\n      dup3\n        /* \"#utility.yul\":777:784   */\n      dup5\n        /* \"#utility.yul\":773:796   */\n      sub\n        /* \"#utility.yul\":769:801   */\n      slt\n        /* \"#utility.yul\":766:885   */\n      iszero\n      tag_81\n      jumpi\n        /* \"#utility.yul\":804:883   */\n      tag_82\n      tag_51\n      jump\t// in\n    tag_82:\n        /* \"#utility.yul\":766:885   */\n    tag_81:\n        /* \"#utility.yul\":924:925   */\n      0x00\n        /* \"#utility.yul\":949:1002   */\n      tag_83\n        /* \"#utility.yul\":994:1001   */\n      dup5\n        /* \"#utility.yul\":985:991   */\n      dup3\n        /* \"#utility.yul\":974:983   */\n      dup6\n        /* \"#utility.yul\":970:992   */\n      add\n        /* \"#utility.yul\":949:1002   */\n      tag_55\n      jump\t// in\n    tag_83:\n        /* \"#utility.yul\":939:1002   */\n      swap2\n      pop\n        /* \"#utility.yul\":895:1012   */\n      pop\n        /* \"#utility.yul\":690:1019   */\n      swap3\n      swap2\n      pop\n      pop\n      jump\t// out\n        /* \"#utility.yul\":1025:1124   */\n    tag_56:\n        /* \"#utility.yul\":1077:1083   */\n      0x00\n        /* \"#utility.yul\":1111:1116   */\n      dup2\n        /* \"#utility.yul\":1105:1117   */\n      mload\n        /* \"#utility.yul\":1095:1117   */\n      swap1\n      pop\n        /* \"#utility.yul\":1025:1124   */\n      swap2\n      swap1\n      pop\n      jump\t// out\n        /* \"#utility.yul\":1130:1299   */\n    tag_57:\n        /* \"#utility.yul\":1214:1225   */\n      0x00\n        /* \"#utility.yul\":1248:1254   */\n      dup3\n        /* \"#utility.yul\":1243:1246   */\n      dup3\n        /* \"#utility.yul\":1236:1255   */\n      mstore\n        /* \"#utility.yul\":1288:1292   */\n      0x20\n        /* \"#utility.yul\":1283:1286   */\n      dup3\n        /* \"#utility.yul\":1279:1293   */\n      add\n        /* \"#utility.yul\":1264:1293   */\n      swap1\n      pop\n        /* \"#utility.yul\":1130:1299   */\n      swap3\n      swap2\n      pop\n      pop\n      jump\t// out\n        /* \"#utility.yul\":1305:1444   */\n    tag_58:\n        /* \"#utility.yul\":1394:1400   */\n      dup3\n        /* \"#utility.yul\":1389:1392   */\n      dup2\n        /* \"#utility.yul\":1384:1387   */\n      dup4\n        /* \"#utility.yul\":1378:1401   */\n      mcopy\n        /* \"#utility.yul\":1435:1436   */\n      0x00\n        /* \"#utility.yul\":1426:1432   */\n      dup4\n        /* \"#utility.yul\":1421:1424   */\n      dup4\n        /* \"#utility.yul\":1417:1433   */\n      add\n        /* \"#utility.yul\":1410:1437   */\n      mstore\n        /* \"#utility.yul\":1305:1444   */\n      pop\n      pop\n      pop\n      jump\t// out\n        /* \"#utility.yul\":1450:1552   */\n    tag_59:\n        /* \"#utility.yul\":1491:1497   */\n      0x00\n        /* \"#utility.yul\":1542:1544   */\n      0x1f\n        /* \"#utility.yul\":1538:1545   */\n      not\n        /* \"#utility.yul\":1533:1535   */\n      0x1f\n        /* \"#utility.yul\":1526:1531   */\n      dup4\n        /* \"#utility.yul\":1522:1536   */\n      add\n        /* \"#utility.yul\":1518:1546   */\n      and\n        /* \"#utility.yul\":1508:1546   */\n      swap1\n      pop\n        /* \"#utility.yul\":1450:1552   */\n      swap2\n      swap1\n      pop\n      jump\t// out\n        /* \"#utility.yul\":1558:1935   */\n    tag_60:\n        /* \"#utility.yul\":1646:1649   */\n      0x00\n        /* \"#utility.yul\":1674:1713   */\n      tag_89\n        /* \"#utility.yul\":1707:1712   */\n      dup3\n        /* \"#utility.yul\":1674:1713   */\n      tag_56\n      jump\t// in\n    tag_89:\n        /* \"#utility.yul\":1729:1800   */\n      tag_90\n        /* \"#utility.yul\":1793:1799   */\n      dup2\n        /* \"#utility.yul\":1788:1791   */\n      dup6\n        /* \"#utility.yul\":1729:1800   */\n      tag_57\n      jump\t// in\n    tag_90:\n        /* \"#utility.yul\":1722:1800   */\n      swap4\n      pop\n        /* \"#utility.yul\":1809:1874   */\n      tag_91\n        /* \"#utility.yul\":1867:1873   */\n      dup2\n        /* \"#utility.yul\":1862:1865   */\n      dup6\n        /* \"#utility.yul\":1855:1859   */\n      0x20\n        /* \"#utility.yul\":1848:1853   */\n      dup7\n        /* \"#utility.yul\":1844:1860   */\n      add\n        /* \"#utility.yul\":1809:1874   */\n      tag_58\n      jump\t// in\n    tag_91:\n        /* \"#utility.yul\":1899:1928   */\n      tag_92\n        /* \"#utility.yul\":1921:1927   */\n      dup2\n        /* \"#utility.yul\":1899:1928   */\n      tag_59\n      jump\t// in\n    tag_92:\n        /* \"#utility.yul\":1894:1897   */\n      dup5\n        /* \"#utility.yul\":1890:1929   */\n      add\n        /* \"#utility.yul\":1883:1929   */\n      swap2\n      pop\n        /* \"#utility.yul\":1650:1935   */\n      pop\n        /* \"#utility.yul\":1558:1935   */\n      swap3\n      swap2\n      pop\n      pop\n      jump\t// out\n        /* \"#utility.yul\":1941:2254   */\n    tag_13:\n        /* \"#utility.yul\":2054:2058   */\n      0x00\n        /* \"#utility.yul\":2092:2094   */\n      0x20\n        /* \"#utility.yul\":2081:2090   */\n      dup3\n        /* \"#utility.yul\":2077:2095   */\n      add\n        /* \"#utility.yul\":2069:2095   */\n      swap1\n      pop\n        /* \"#utility.yul\":2141:2150   */\n      dup2\n        /* \"#utility.yul\":2135:2139   */\n      dup2\n        /* \"#utility.yul\":2131:2151   */\n      sub\n        /* \"#utility.yul\":2127:2128   */\n      0x00\n        /* \"#utility.yul\":2116:2125   */\n      dup4\n        /* \"#utility.yul\":2112:2129   */\n      add\n        /* \"#utility.yul\":2105:2152   */\n      mstore\n        /* \"#utility.yul\":2169:2247   */\n      tag_94\n        /* \"#utility.yul\":2242:2246   */\n      dup2\n        /* \"#utility.yul\":2233:2239   */\n      dup5\n        /* \"#utility.yul\":2169:2247   */\n      tag_60\n      jump\t// in\n    tag_94:\n        /* \"#utility.yul\":2161:2247   */\n      swap1\n      pop\n        /* \"#utility.yul\":1941:2254   */\n      swap3\n      swap2\n      pop\n      pop\n      jump\t// out\n        /* \"#utility.yul\":2260:2337   */\n    tag_61:\n        /* \"#utility.yul\":2297:2304   */\n      0x00\n        /* \"#utility.yul\":2326:2331   */\n      dup2\n        /* \"#utility.yul\":2315:2331   */\n      swap1\n      pop\n        /* \"#utility.yul\":2260:2337   */\n      swap2\n      swap1\n      pop\n      jump\t// out\n        /* \"#utility.yul\":2343:2461   */\n    tag_62:\n        /* \"#utility.yul\":2430:2454   */\n      tag_97\n        /* \"#utility.yul\":2448:2453   */\n      dup2\n        /* \"#utility.yul\":2430:2454   */\n      tag_61\n      jump\t// in\n    tag_97:\n        /* \"#utility.yul\":2425:2428   */\n      dup3\n        /* \"#utility.yul\":2418:2455   */\n      mstore\n        /* \"#utility.yul\":2343:2461   */\n      pop\n      pop\n      jump\t// out\n        /* \"#utility.yul\":2467:2689   */\n    tag_18:\n        /* \"#utility.yul\":2560:2564   */\n      0x00\n        /* \"#utility.yul\":2598:2600   */\n      0x20\n        /* \"#utility.yul\":2587:2596   */\n      dup3\n        /* \"#utility.yul\":2583:2601   */\n      add\n        /* \"#utility.yul\":2575:2601   */\n      swap1\n      pop\n        /* \"#utility.yul\":2611:2682   */\n      tag_99\n        /* \"#utility.yul\":2679:2680   */\n      0x00\n        /* \"#utility.yul\":2668:2677   */\n      dup4\n        /* \"#utility.yul\":2664:2681   */\n      add\n        /* \"#utility.yul\":2655:2661   */\n      dup5\n        /* \"#utility.yul\":2611:2682   */\n      tag_62\n      jump\t// in\n    tag_99:\n        /* \"#utility.yul\":2467:2689   */\n      swap3\n      swap2\n      pop\n      pop\n      jump\t// out\n        /* \"#utility.yul\":2695:2785   */\n    tag_63:\n        /* \"#utility.yul\":2729:2736   */\n      0x00\n        /* \"#utility.yul\":2772:2777   */\n      dup2\n        /* \"#utility.yul\":2765:2778   */\n      iszero\n        /* \"#utility.yul\":2758:2779   */\n      iszero\n        /* \"#utility.yul\":2747:2779   */\n      swap1\n      pop\n        /* \"#utility.yul\":2695:2785   */\n      swap2\n      swap1\n      pop\n      jump\t// out\n        /* \"#utility.yul\":2791:2900   */\n    tag_64:\n        /* \"#utility.yul\":2872:2893   */\n      tag_102\n        /* \"#utility.yul\":2887:2892   */\n      dup2\n        /* \"#utility.yul\":2872:2893   */\n      tag_63\n      jump\t// in\n    tag_102:\n        /* \"#utility.yul\":2867:2870   */\n      dup3\n        /* \"#utility.yul\":2860:2894   */\n      mstore\n        /* \"#utility.yul\":2791:2900   */\n      pop\n      pop\n      jump\t// out\n        /* \"#utility.yul\":2906:3116   */\n    tag_23:\n        /* \"#utility.yul\":2993:2997   */\n      0x00\n        /* \"#utility.yul\":3031:3033   */\n      0x20\n        /* \"#utility.yul\":3020:3029   */\n      dup3\n        /* \"#utility.yul\":3016:3034   */\n      add\n        /* \"#utility.yul\":3008:3034   */\n      swap1\n      pop\n        /* \"#utility.yul\":3044:3109   */\n      tag_104\n        /* \"#utility.yul\":3106:3107   */\n      0x00\n        /* \"#utility.yul\":3095:3104   */\n      dup4\n        /* \"#utility.yul\":3091:3108   */\n      add\n        /* \"#utility.yul\":3082:3088   */\n      dup5\n        /* \"#utility.yul\":3044:3109   */\n      tag_64\n      jump\t// in\n    tag_104:\n        /* \"#utility.yul\":2906:3116   */\n      swap3\n      swap2\n      pop\n      pop\n      jump\t// out\n        /* \"#utility.yul\":3122:3240   */\n    tag_65:\n        /* \"#utility.yul\":3209:3233   */\n      tag_106\n        /* \"#utility.yul\":3227:3232   */\n      dup2\n        /* \"#utility.yul\":3209:3233   */\n      tag_53\n      jump\t// in\n    tag_106:\n        /* \"#utility.yul\":3204:3207   */\n      dup3\n        /* \"#utility.yul\":3197:3234   */\n      mstore\n        /* \"#utility.yul\":3122:3240   */\n      pop\n      pop\n      jump\t// out\n        /* \"#utility.yul\":3246:3468   */\n    tag_28:\n        /* \"#utility.yul\":3339:3343   */\n      0x00\n        /* \"#utility.yul\":3377:3379   */\n      0x20\n        /* \"#utility.yul\":3366:3375   */\n      dup3\n        /* \"#utility.yul\":3362:3380   */\n      add\n        /* \"#utility.yul\":3354:3380   */\n      swap1\n      pop\n        /* \"#utility.yul\":3390:3461   */\n      tag_108\n        /* \"#utility.yul\":3458:3459   */\n      0x00\n        /* \"#utility.yul\":3447:3456   */\n      dup4\n        /* \"#utility.yul\":3443:3460   */\n      add\n        /* \"#utility.yul\":3434:3440   */\n      dup5\n        /* \"#utility.yul\":3390:3461   */\n      tag_65\n      jump\t// in\n    tag_108:\n        /* \"#utility.yul\":3246:3468   */\n      swap3\n      swap2\n      pop\n      pop\n      jump\t// out\n        /* \"#utility.yul\":3474:3600   */\n    tag_66:\n        /* \"#utility.yul\":3511:3518   */\n      0x00\n        /* \"#utility.yul\":3551:3593   */\n      0xffffffffffffffffffffffffffffffffffffffff\n        /* \"#utility.yul\":3544:3549   */\n      dup3\n        /* \"#utility.yul\":3540:3594   */\n      and\n        /* \"#utility.yul\":3529:3594   */\n      swap1\n      pop\n        /* \"#utility.yul\":3474:3600   */\n      swap2\n      swap1\n      pop\n      jump\t// out\n        /* \"#utility.yul\":3606:3702   */\n    tag_67:\n        /* \"#utility.yul\":3643:3650   */\n      0x00\n        /* \"#utility.yul\":3672:3696   */\n      tag_111\n        /* \"#utility.yul\":3690:3695   */\n      dup3\n        /* \"#utility.yul\":3672:3696   */\n      tag_66\n      jump\t// in\n    tag_111:\n        /* \"#utility.yul\":3661:3696   */\n      swap1\n      pop\n        /* \"#utility.yul\":3606:3702   */\n      swap2\n      swap1\n      pop\n      jump\t// out\n        /* \"#utility.yul\":3708:3826   */\n    tag_68:\n        /* \"#utility.yul\":3795:3819   */\n      tag_113\n        /* \"#utility.yul\":3813:3818   */\n      dup2\n        /* \"#utility.yul\":3795:3819   */\n      tag_67\n      jump\t// in\n    tag_113:\n        /* \"#utility.yul\":3790:3793   */\n      dup3\n        /* \"#utility.yul\":3783:3820   */\n      mstore\n        /* \"#utility.yul\":3708:3826   */\n      pop\n      pop\n      jump\t// out\n        /* \"#utility.yul\":3832:4054   */\n    tag_33:\n        /* \"#utility.yul\":3925:3929   */\n      0x00\n        /* \"#utility.yul\":3963:3965   */\n      0x20\n        /* \"#utility.yul\":3952:3961   */\n      dup3\n        /* \"#utility.yul\":3948:3966   */\n      add\n        /* \"#utility.yul\":3940:3966   */\n      swap1\n      pop\n        /* \"#utility.yul\":3976:4047   */\n      tag_115\n        /* \"#utility.yul\":4044:4045   */\n      0x00\n        /* \"#utility.yul\":4033:4042   */\n      dup4\n        /* \"#utility.yul\":4029:4046   */\n      add\n        /* \"#utility.yul\":4020:4026   */\n      dup5\n        /* \"#utility.yul\":3976:4047   */\n      tag_68\n      jump\t// in\n    tag_115:\n        /* \"#utility.yul\":3832:4054   */\n      swap3\n      swap2\n      pop\n      pop\n      jump\t// out\n        /* \"#utility.yul\":4060:4240   */\n    tag_69:\n        /* \"#utility.yul\":4108:4185   */\n      0x4e487b7100000000000000000000000000000000000000000000000000000000\n        /* \"#utility.yul\":4105:4106   */\n      0x00\n        /* \"#utility.yul\":4098:4186   */\n      mstore\n        /* \"#utility.yul\":4205:4209   */\n      0x22\n        /* \"#utility.yul\":4202:4203   */\n      0x04\n        /* \"#utility.yul\":4195:4210   */\n      mstore\n        /* \"#utility.yul\":4229:4233   */\n      0x24\n        /* \"#utility.yul\":4226:4227   */\n      0x00\n        /* \"#utility.yul\":4219:4234   */\n      revert\n        /* \"#utility.yul\":4246:4566   */\n    tag_37:\n        /* \"#utility.yul\":4290:4296   */\n      0x00\n        /* \"#utility.yul\":4327:4328   */\n      0x02\n        /* \"#utility.yul\":4321:4325   */\n      dup3\n        /* \"#utility.yul\":4317:4329   */\n      div\n        /* \"#utility.yul\":4307:4329   */\n      swap1\n      pop\n        /* \"#utility.yul\":4374:4375   */\n      0x01\n        /* \"#utility.yul\":4368:4372   */\n      dup3\n        /* \"#utility.yul\":4364:4376   */\n      and\n        /* \"#utility.yul\":4395:4413   */\n      dup1\n        /* \"#utility.yul\":4385:4466   */\n      tag_118\n      jumpi\n        /* \"#utility.yul\":4451:4455   */\n      0x7f\n        /* \"#utility.yul\":4443:4449   */\n      dup3\n        /* \"#utility.yul\":4439:4456   */\n      and\n        /* \"#utility.yul\":4429:4456   */\n      swap2\n      pop\n        /* \"#utility.yul\":4385:4466   */\n    tag_118:\n        /* \"#utility.yul\":4513:4515   */\n      0x20\n        /* \"#utility.yul\":4505:4511   */\n      dup3\n        /* \"#utility.yul\":4502:4516   */\n      lt\n        /* \"#utility.yul\":4482:4500   */\n      dup2\n        /* \"#utility.yul\":4479:4517   */\n      sub\n        /* \"#utility.yul\":4476:4560   */\n      tag_119\n      jumpi\n        /* \"#utility.yul\":4532:4550   */\n      tag_120\n      tag_69\n      jump\t// in\n    tag_120:\n        /* \"#utility.yul\":4476:4560   */\n    tag_119:\n        /* \"#utility.yul\":4297:4566   */\n      pop\n        /* \"#utility.yul\":4246:4566   */\n      swap2\n      swap1\n      pop\n      jump\t// out\n\n    auxdata: 0xa26469706673582212208a4980baeb2211c5e15abd15c517f28dd11f7e185587dbe0c1e9d4daee7178cd64736f6c63430008220033\n}\n",
				"bytecode": {
					"linkReferences": {},
					"object": "60806040526040518060400160405280735b38da6a701c568545dcfcb03fcb875f56beddc473ffffffffffffffffffffffffffffffffffffffff1673ffffffffffffffffffffffffffffffffffffffff16815260200173ab8483f64d9c6d1ecf9b849ae677dd3315835cb273ffffffffffffffffffffffffffffffffffffffff1673ffffffffffffffffffffffffffffffffffffffff16815250600190816100a7919061035d565b503480156100b3575f5ffd5b505f6001908060018154018082558091505060019003905f5260205f20015f90919091909150555f6002908060018154018082558091505060019003905f5260205f20015f90919091909150555f6003908060018154018082558091505060019003905f5260205f20015f90919091909150556103e1565b7f4e487b71000000000000000000000000000000000000000000000000000000005f52604160045260245ffd5b5f81549050919050565b5f819050919050565b5f8190506001806001038301049050919050565b5f819050815f5260205f209050919050565b5f82821b905092915050565b5f600883026101cc7fffffffffffffffffffffffffffffffffffffffffffffffffffffffffffffffff82610191565b6101d68683610191565b95508019841693508086168417925050509392505050565b5f819050919050565b5f61021161020c61020784610162565b6101ee565b610162565b9050919050565b5f819050919050565b61022a836101f7565b61023e61023682610218565b84845461019d565b825550505050565b5f5f905090565b610255610246565b610260818484610221565b505050565b5f5b828110156102865761027b5f82840161024d565b600181019050610267565b505050565b818310156102c25761029c8261016b565b6102a58461016b565b6102ae8361017f565b8181016102bd83850382610265565b505050505b505050565b680100000000000000008211156102e1576102e061012b565b5b6102ea81610158565b8282556102f883828461028b565b505050565b5f60029050919050565b5f73ffffffffffffffffffffffffffffffffffffffff82169050919050565b5f61033082610307565b9050919050565b5f6103428251610326565b80915050919050565b5f819050919050565b5f819050919050565b610366826102fd565b67ffffffffffffffff81111561037f5761037e61012b565b5b61038981836102c7565b6103928361034b565b61039b8361017f565b600183045f5b818110156103d8575f6103b385610337565b6103bc81610354565b80925060208701965050508082850155506001810190506103a1565b50505050505050565b610503806103ee5f395ff3fe608060405234801561000f575f5ffd5b5060043610610055575f3560e01c80634622ab0314610059578063501895ae1461008957806381274d3a146100b9578063d39fa233146100e9578063edf26d9b14610119575b5f5ffd5b610073600480360381019061006e91906102d1565b610149565b604051610080919061036c565b60405180910390f35b6100a3600480360381019061009e91906102d1565b6101ef565b6040516100b091906103a4565b60405180910390f35b6100d360048036038101906100ce91906102d1565b61020f565b6040516100e091906103d7565b60405180910390f35b61010360048036038101906100fe91906102d1565b610240565b60405161011091906103ff565b60405180910390f35b610133600480360381019061012e91906102d1565b61025f565b6040516101409190610457565b60405180910390f35b60028181548110610158575f80fd5b905f5260205f20015f9150905080546101709061049d565b80601f016020809104026020016040519081016040528092919081815260200182805461019c9061049d565b80156101e75780601f106101be576101008083540402835291602001916101e7565b820191905f5260205f20905b8154815290600101906020018083116101ca57829003601f168201915b505050505081565b600481815481106101fe575f80fd5b905f5260205f20015f915090505481565b6003818154811061021e575f80fd5b905f5260205f209060209182820401919006915054906101000a900460ff1681565b5f818154811061024e575f80fd5b905f5260205f20015f915090505481565b6001818154811061026e575f80fd5b905f5260205f20015f915054906101000a900473ffffffffffffffffffffffffffffffffffffffff1681565b5f5ffd5b5f819050919050565b6102b08161029e565b81146102ba575f5ffd5b50565b5f813590506102cb816102a7565b92915050565b5f602082840312156102e6576102e561029a565b5b5f6102f3848285016102bd565b91505092915050565b5f81519050919050565b5f82825260208201905092915050565b8281835e5f83830152505050565b5f601f19601f8301169050919050565b5f61033e826102fc565b6103488185610306565b9350610358818560208601610316565b61036181610324565b840191505092915050565b5f6020820190508181035f8301526103848184610334565b905092915050565b5f819050919050565b61039e8161038c565b82525050565b5f6020820190506103b75f830184610395565b92915050565b5f8115159050919050565b6103d1816103bd565b82525050565b5f6020820190506103ea5f8301846103c8565b92915050565b6103f98161029e565b82525050565b5f6020820190506104125f8301846103f0565b92915050565b5f73ffffffffffffffffffffffffffffffffffffffff82169050919050565b5f61044182610418565b9050919050565b61045181610437565b82525050565b5f60208201905061046a5f830184610448565b92915050565b7f4e487b71000000000000000000000000000000000000000000000000000000005f52602260045260245ffd5b5f60028204905060018216806104b457607f821691505b6020821081036104c7576104c6610470565b5b5091905056fea26469706673582212208a4980baeb2211c5e15abd15c517f28dd11f7e185587dbe0c1e9d4daee7178cd64736f6c63430008220033",
					"opcodes": "PUSH1 0x80 PUSH1 0x40 MSTORE PUSH1 0x40 MLOAD DUP1 PUSH1 0x40 ADD PUSH1 0x40 MSTORE DUP1 PUSH20 0x5B38DA6A701C568545DCFCB03FCB875F56BEDDC4 PUSH20 0xFFFFFFFFFFFFFFFFFFFFFFFFFFFFFFFFFFFFFFFF AND PUSH20 0xFFFFFFFFFFFFFFFFFFFFFFFFFFFFFFFFFFFFFFFF AND DUP2 MSTORE PUSH1 0x20 ADD PUSH20 0xAB8483F64D9C6D1ECF9B849AE677DD3315835CB2 PUSH20 0xFFFFFFFFFFFFFFFFFFFFFFFFFFFFFFFFFFFFFFFF AND PUSH20 0xFFFFFFFFFFFFFFFFFFFFFFFFFFFFFFFFFFFFFFFF AND DUP2 MSTORE POP PUSH1 0x1 SWAP1 DUP2 PUSH2 0xA7 SWAP2 SWAP1 PUSH2 0x35D JUMP JUMPDEST POP CALLVALUE DUP1 ISZERO PUSH2 0xB3 JUMPI PUSH0 PUSH0 REVERT JUMPDEST POP PUSH0 PUSH1 0x1 SWAP1 DUP1 PUSH1 0x1 DUP2 SLOAD ADD DUP1 DUP3 SSTORE DUP1 SWAP2 POP POP PUSH1 0x1 SWAP1 SUB SWAP1 PUSH0 MSTORE PUSH1 0x20 PUSH0 KECCAK256 ADD PUSH0 SWAP1 SWAP2 SWAP1 SWAP2 SWAP1 SWAP2 POP SSTORE PUSH0 PUSH1 0x2 SWAP1 DUP1 PUSH1 0x1 DUP2 SLOAD ADD DUP1 DUP3 SSTORE DUP1 SWAP2 POP POP PUSH1 0x1 SWAP1 SUB SWAP1 PUSH0 MSTORE PUSH1 0x20 PUSH0 KECCAK256 ADD PUSH0 SWAP1 SWAP2 SWAP1 SWAP2 SWAP1 SWAP2 POP SSTORE PUSH0 PUSH1 0x3 SWAP1 DUP1 PUSH1 0x1 DUP2 SLOAD ADD DUP1 DUP3 SSTORE DUP1 SWAP2 POP POP PUSH1 0x1 SWAP1 SUB SWAP1 PUSH0 MSTORE PUSH1 0x20 PUSH0 KECCAK256 ADD PUSH0 SWAP1 SWAP2 SWAP1 SWAP2 SWAP1 SWAP2 POP SSTORE PUSH2 0x3E1 JUMP JUMPDEST PUSH32 0x4E487B7100000000000000000000000000000000000000000000000000000000 PUSH0 MSTORE PUSH1 0x41 PUSH1 0x4 MSTORE PUSH1 0x24 PUSH0 REVERT JUMPDEST PUSH0 DUP2 SLOAD SWAP1 POP SWAP2 SWAP1 POP JUMP JUMPDEST PUSH0 DUP2 SWAP1 POP SWAP2 SWAP1 POP JUMP JUMPDEST PUSH0 DUP2 SWAP1 POP PUSH1 0x1 DUP1 PUSH1 0x1 SUB DUP4 ADD DIV SWAP1 POP SWAP2 SWAP1 POP JUMP JUMPDEST PUSH0 DUP2 SWAP1 POP DUP2 PUSH0 MSTORE PUSH1 0x20 PUSH0 KECCAK256 SWAP1 POP SWAP2 SWAP1 POP JUMP JUMPDEST PUSH0 DUP3 DUP3 SHL SWAP1 POP SWAP3 SWAP2 POP POP JUMP JUMPDEST PUSH0 PUSH1 0x8 DUP4 MUL PUSH2 0x1CC PUSH32 0xFFFFFFFFFFFFFFFFFFFFFFFFFFFFFFFFFFFFFFFFFFFFFFFFFFFFFFFFFFFFFFFF DUP3 PUSH2 0x191 JUMP JUMPDEST PUSH2 0x1D6 DUP7 DUP4 PUSH2 0x191 JUMP JUMPDEST SWAP6 POP DUP1 NOT DUP5 AND SWAP4 POP DUP1 DUP7 AND DUP5 OR SWAP3 POP POP POP SWAP4 SWAP3 POP POP POP JUMP JUMPDEST PUSH0 DUP2 SWAP1 POP SWAP2 SWAP1 POP JUMP JUMPDEST PUSH0 PUSH2 0x211 PUSH2 0x20C PUSH2 0x207 DUP5 PUSH2 0x162 JUMP JUMPDEST PUSH2 0x1EE JUMP JUMPDEST PUSH2 0x162 JUMP JUMPDEST SWAP1 POP SWAP2 SWAP1 POP JUMP JUMPDEST PUSH0 DUP2 SWAP1 POP SWAP2 SWAP1 POP JUMP JUMPDEST PUSH2 0x22A DUP4 PUSH2 0x1F7 JUMP JUMPDEST PUSH2 0x23E PUSH2 0x236 DUP3 PUSH2 0x218 JUMP JUMPDEST DUP5 DUP5 SLOAD PUSH2 0x19D JUMP JUMPDEST DUP3 SSTORE POP POP POP POP JUMP JUMPDEST PUSH0 PUSH0 SWAP1 POP SWAP1 JUMP JUMPDEST PUSH2 0x255 PUSH2 0x246 JUMP JUMPDEST PUSH2 0x260 DUP2 DUP5 DUP5 PUSH2 0x221 JUMP JUMPDEST POP POP POP JUMP JUMPDEST PUSH0 JUMPDEST DUP3 DUP2 LT ISZERO PUSH2 0x286 JUMPI PUSH2 0x27B PUSH0 DUP3 DUP5 ADD PUSH2 0x24D JUMP JUMPDEST PUSH1 0x1 DUP2 ADD SWAP1 POP PUSH2 0x267 JUMP JUMPDEST POP POP POP JUMP JUMPDEST DUP2 DUP4 LT ISZERO PUSH2 0x2C2 JUMPI PUSH2 0x29C DUP3 PUSH2 0x16B JUMP JUMPDEST PUSH2 0x2A5 DUP5 PUSH2 0x16B JUMP JUMPDEST PUSH2 0x2AE DUP4 PUSH2 0x17F JUMP JUMPDEST DUP2 DUP2 ADD PUSH2 0x2BD DUP4 DUP6 SUB DUP3 PUSH2 0x265 JUMP JUMPDEST POP POP POP POP JUMPDEST POP POP POP JUMP JUMPDEST PUSH9 0x10000000000000000 DUP3 GT ISZERO PUSH2 0x2E1 JUMPI PUSH2 0x2E0 PUSH2 0x12B JUMP JUMPDEST JUMPDEST PUSH2 0x2EA DUP2 PUSH2 0x158 JUMP JUMPDEST DUP3 DUP3 SSTORE PUSH2 0x2F8 DUP4 DUP3 DUP5 PUSH2 0x28B JUMP JUMPDEST POP POP POP JUMP JUMPDEST PUSH0 PUSH1 0x2 SWAP1 POP SWAP2 SWAP1 POP JUMP JUMPDEST PUSH0 PUSH20 0xFFFFFFFFFFFFFFFFFFFFFFFFFFFFFFFFFFFFFFFF DUP3 AND SWAP1 POP SWAP2 SWAP1 POP JUMP JUMPDEST PUSH0 PUSH2 0x330 DUP3 PUSH2 0x307 JUMP JUMPDEST SWAP1 POP SWAP2 SWAP1 POP JUMP JUMPDEST PUSH0 PUSH2 0x342 DUP3 MLOAD PUSH2 0x326 JUMP JUMPDEST DUP1 SWAP2 POP POP SWAP2 SWAP1 POP JUMP JUMPDEST PUSH0 DUP2 SWAP1 POP SWAP2 SWAP1 POP JUMP JUMPDEST PUSH0 DUP2 SWAP1 POP SWAP2 SWAP1 POP JUMP JUMPDEST PUSH2 0x366 DUP3 PUSH2 0x2FD JUMP JUMPDEST PUSH8 0xFFFFFFFFFFFFFFFF DUP2 GT ISZERO PUSH2 0x37F JUMPI PUSH2 0x37E PUSH2 0x12B JUMP JUMPDEST JUMPDEST PUSH2 0x389 DUP2 DUP4 PUSH2 0x2C7 JUMP JUMPDEST PUSH2 0x392 DUP4 PUSH2 0x34B JUMP JUMPDEST PUSH2 0x39B DUP4 PUSH2 0x17F JUMP JUMPDEST PUSH1 0x1 DUP4 DIV PUSH0 JUMPDEST DUP2 DUP2 LT ISZERO PUSH2 0x3D8 JUMPI PUSH0 PUSH2 0x3B3 DUP6 PUSH2 0x337 JUMP JUMPDEST PUSH2 0x3BC DUP2 PUSH2 0x354 JUMP JUMPDEST DUP1 SWAP3 POP PUSH1 0x20 DUP8 ADD SWAP7 POP POP POP DUP1 DUP3 DUP6 ADD SSTORE POP PUSH1 0x1 DUP2 ADD SWAP1 POP PUSH2 0x3A1 JUMP JUMPDEST POP POP POP POP POP POP POP JUMP JUMPDEST PUSH2 0x503 DUP1 PUSH2 0x3EE PUSH0 CODECOPY PUSH0 RETURN INVALID PUSH1 0x80 PUSH1 0x40 MSTORE CALLVALUE DUP1 ISZERO PUSH2 0xF JUMPI PUSH0 PUSH0 REVERT JUMPDEST POP PUSH1 0x4 CALLDATASIZE LT PUSH2 0x55 JUMPI PUSH0 CALLDATALOAD PUSH1 0xE0 SHR DUP1 PUSH4 0x4622AB03 EQ PUSH2 0x59 JUMPI DUP1 PUSH4 0x501895AE EQ PUSH2 0x89 JUMPI DUP1 PUSH4 0x81274D3A EQ PUSH2 0xB9 JUMPI DUP1 PUSH4 0xD39FA233 EQ PUSH2 0xE9 JUMPI DUP1 PUSH4 0xEDF26D9B EQ PUSH2 0x119 JUMPI JUMPDEST PUSH0 PUSH0 REVERT JUMPDEST PUSH2 0x73 PUSH1 0x4 DUP1 CALLDATASIZE SUB DUP2 ADD SWAP1 PUSH2 0x6E SWAP2 SWAP1 PUSH2 0x2D1 JUMP JUMPDEST PUSH2 0x149 JUMP JUMPDEST PUSH1 0x40 MLOAD PUSH2 0x80 SWAP2 SWAP1 PUSH2 0x36C JUMP JUMPDEST PUSH1 0x40 MLOAD DUP1 SWAP2 SUB SWAP1 RETURN JUMPDEST PUSH2 0xA3 PUSH1 0x4 DUP1 CALLDATASIZE SUB DUP2 ADD SWAP1 PUSH2 0x9E SWAP2 SWAP1 PUSH2 0x2D1 JUMP JUMPDEST PUSH2 0x1EF JUMP JUMPDEST PUSH1 0x40 MLOAD PUSH2 0xB0 SWAP2 SWAP1 PUSH2 0x3A4 JUMP JUMPDEST PUSH1 0x40 MLOAD DUP1 SWAP2 SUB SWAP1 RETURN JUMPDEST PUSH2 0xD3 PUSH1 0x4 DUP1 CALLDATASIZE SUB DUP2 ADD SWAP1 PUSH2 0xCE SWAP2 SWAP1 PUSH2 0x2D1 JUMP JUMPDEST PUSH2 0x20F JUMP JUMPDEST PUSH1 0x40 MLOAD PUSH2 0xE0 SWAP2 SWAP1 PUSH2 0x3D7 JUMP JUMPDEST PUSH1 0x40 MLOAD DUP1 SWAP2 SUB SWAP1 RETURN JUMPDEST PUSH2 0x103 PUSH1 0x4 DUP1 CALLDATASIZE SUB DUP2 ADD SWAP1 PUSH2 0xFE SWAP2 SWAP1 PUSH2 0x2D1 JUMP JUMPDEST PUSH2 0x240 JUMP JUMPDEST PUSH1 0x40 MLOAD PUSH2 0x110 SWAP2 SWAP1 PUSH2 0x3FF JUMP JUMPDEST PUSH1 0x40 MLOAD DUP1 SWAP2 SUB SWAP1 RETURN JUMPDEST PUSH2 0x133 PUSH1 0x4 DUP1 CALLDATASIZE SUB DUP2 ADD SWAP1 PUSH2 0x12E SWAP2 SWAP1 PUSH2 0x2D1 JUMP JUMPDEST PUSH2 0x25F JUMP JUMPDEST PUSH1 0x40 MLOAD PUSH2 0x140 SWAP2 SWAP1 PUSH2 0x457 JUMP JUMPDEST PUSH1 0x40 MLOAD DUP1 SWAP2 SUB SWAP1 RETURN JUMPDEST PUSH1 0x2 DUP2 DUP2 SLOAD DUP2 LT PUSH2 0x158 JUMPI PUSH0 DUP1 REVERT JUMPDEST SWAP1 PUSH0 MSTORE PUSH1 0x20 PUSH0 KECCAK256 ADD PUSH0 SWAP2 POP SWAP1 POP DUP1 SLOAD PUSH2 0x170 SWAP1 PUSH2 0x49D JUMP JUMPDEST DUP1 PUSH1 0x1F ADD PUSH1 0x20 DUP1 SWAP2 DIV MUL PUSH1 0x20 ADD PUSH1 0x40 MLOAD SWAP1 DUP2 ADD PUSH1 0x40 MSTORE DUP1 SWAP3 SWAP2 SWAP1 DUP2 DUP2 MSTORE PUSH1 0x20 ADD DUP3 DUP1 SLOAD PUSH2 0x19C SWAP1 PUSH2 0x49D JUMP JUMPDEST DUP1 ISZERO PUSH2 0x1E7 JUMPI DUP1 PUSH1 0x1F LT PUSH2 0x1BE JUMPI PUSH2 0x100 DUP1 DUP4 SLOAD DIV MUL DUP4 MSTORE SWAP2 PUSH1 0x20 ADD SWAP2 PUSH2 0x1E7 JUMP JUMPDEST DUP3 ADD SWAP2 SWAP1 PUSH0 MSTORE PUSH1 0x20 PUSH0 KECCAK256 SWAP1 JUMPDEST DUP2 SLOAD DUP2 MSTORE SWAP1 PUSH1 0x1 ADD SWAP1 PUSH1 0x20 ADD DUP1 DUP4 GT PUSH2 0x1CA JUMPI DUP3 SWAP1 SUB PUSH1 0x1F AND DUP3 ADD SWAP2 JUMPDEST POP POP POP POP POP DUP2 JUMP JUMPDEST PUSH1 0x4 DUP2 DUP2 SLOAD DUP2 LT PUSH2 0x1FE JUMPI PUSH0 DUP1 REVERT JUMPDEST SWAP1 PUSH0 MSTORE PUSH1 0x20 PUSH0 KECCAK256 ADD PUSH0 SWAP2 POP SWAP1 POP SLOAD DUP2 JUMP JUMPDEST PUSH1 0x3 DUP2 DUP2 SLOAD DUP2 LT PUSH2 0x21E JUMPI PUSH0 DUP1 REVERT JUMPDEST SWAP1 PUSH0 MSTORE PUSH1 0x20 PUSH0 KECCAK256 SWAP1 PUSH1 0x20 SWAP2 DUP3 DUP3 DIV ADD SWAP2 SWAP1 MOD SWAP2 POP SLOAD SWAP1 PUSH2 0x100 EXP SWAP1 DIV PUSH1 0xFF AND DUP2 JUMP JUMPDEST PUSH0 DUP2 DUP2 SLOAD DUP2 LT PUSH2 0x24E JUMPI PUSH0 DUP1 REVERT JUMPDEST SWAP1 PUSH0 MSTORE PUSH1 0x20 PUSH0 KECCAK256 ADD PUSH0 SWAP2 POP SWAP1 POP SLOAD DUP2 JUMP JUMPDEST PUSH1 0x1 DUP2 DUP2 SLOAD DUP2 LT PUSH2 0x26E JUMPI PUSH0 DUP1 REVERT JUMPDEST SWAP1 PUSH0 MSTORE PUSH1 0x20 PUSH0 KECCAK256 ADD PUSH0 SWAP2 POP SLOAD SWAP1 PUSH2 0x100 EXP SWAP1 DIV PUSH20 0xFFFFFFFFFFFFFFFFFFFFFFFFFFFFFFFFFFFFFFFF AND DUP2 JUMP JUMPDEST PUSH0 PUSH0 REVERT JUMPDEST PUSH0 DUP2 SWAP1 POP SWAP2 SWAP1 POP JUMP JUMPDEST PUSH2 0x2B0 DUP2 PUSH2 0x29E JUMP JUMPDEST DUP2 EQ PUSH2 0x2BA JUMPI PUSH0 PUSH0 REVERT JUMPDEST POP JUMP JUMPDEST PUSH0 DUP2 CALLDATALOAD SWAP1 POP PUSH2 0x2CB DUP2 PUSH2 0x2A7 JUMP JUMPDEST SWAP3 SWAP2 POP POP JUMP JUMPDEST PUSH0 PUSH1 0x20 DUP3 DUP5 SUB SLT ISZERO PUSH2 0x2E6 JUMPI PUSH2 0x2E5 PUSH2 0x29A JUMP JUMPDEST JUMPDEST PUSH0 PUSH2 0x2F3 DUP5 DUP3 DUP6 ADD PUSH2 0x2BD JUMP JUMPDEST SWAP2 POP POP SWAP3 SWAP2 POP POP JUMP JUMPDEST PUSH0 DUP2 MLOAD SWAP1 POP SWAP2 SWAP1 POP JUMP JUMPDEST PUSH0 DUP3 DUP3 MSTORE PUSH1 0x20 DUP3 ADD SWAP1 POP SWAP3 SWAP2 POP POP JUMP JUMPDEST DUP3 DUP2 DUP4 MCOPY PUSH0 DUP4 DUP4 ADD MSTORE POP POP POP JUMP JUMPDEST PUSH0 PUSH1 0x1F NOT PUSH1 0x1F DUP4 ADD AND SWAP1 POP SWAP2 SWAP1 POP JUMP JUMPDEST PUSH0 PUSH2 0x33E DUP3 PUSH2 0x2FC JUMP JUMPDEST PUSH2 0x348 DUP2 DUP6 PUSH2 0x306 JUMP JUMPDEST SWAP4 POP PUSH2 0x358 DUP2 DUP6 PUSH1 0x20 DUP7 ADD PUSH2 0x316 JUMP JUMPDEST PUSH2 0x361 DUP2 PUSH2 0x324 JUMP JUMPDEST DUP5 ADD SWAP2 POP POP SWAP3 SWAP2 POP POP JUMP JUMPDEST PUSH0 PUSH1 0x20 DUP3 ADD SWAP1 POP DUP2 DUP2 SUB PUSH0 DUP4 ADD MSTORE PUSH2 0x384 DUP2 DUP5 PUSH2 0x334 JUMP JUMPDEST SWAP1 POP SWAP3 SWAP2 POP POP JUMP JUMPDEST PUSH0 DUP2 SWAP1 POP SWAP2 SWAP1 POP JUMP JUMPDEST PUSH2 0x39E DUP2 PUSH2 0x38C JUMP JUMPDEST DUP3 MSTORE POP POP JUMP JUMPDEST PUSH0 PUSH1 0x20 DUP3 ADD SWAP1 POP PUSH2 0x3B7 PUSH0 DUP4 ADD DUP5 PUSH2 0x395 JUMP JUMPDEST SWAP3 SWAP2 POP POP JUMP JUMPDEST PUSH0 DUP2 ISZERO ISZERO SWAP1 POP SWAP2 SWAP1 POP JUMP JUMPDEST PUSH2 0x3D1 DUP2 PUSH2 0x3BD JUMP JUMPDEST DUP3 MSTORE POP POP JUMP JUMPDEST PUSH0 PUSH1 0x20 DUP3 ADD SWAP1 POP PUSH2 0x3EA PUSH0 DUP4 ADD DUP5 PUSH2 0x3C8 JUMP JUMPDEST SWAP3 SWAP2 POP POP JUMP JUMPDEST PUSH2 0x3F9 DUP2 PUSH2 0x29E JUMP JUMPDEST DUP3 MSTORE POP POP JUMP JUMPDEST PUSH0 PUSH1 0x20 DUP3 ADD SWAP1 POP PUSH2 0x412 PUSH0 DUP4 ADD DUP5 PUSH2 0x3F0 JUMP JUMPDEST SWAP3 SWAP2 POP POP JUMP JUMPDEST PUSH0 PUSH20 0xFFFFFFFFFFFFFFFFFFFFFFFFFFFFFFFFFFFFFFFF DUP3 AND SWAP1 POP SWAP2 SWAP1 POP JUMP JUMPDEST PUSH0 PUSH2 0x441 DUP3 PUSH2 0x418 JUMP JUMPDEST SWAP1 POP SWAP2 SWAP1 POP JUMP JUMPDEST PUSH2 0x451 DUP2 PUSH2 0x437 JUMP JUMPDEST DUP3 MSTORE POP POP JUMP JUMPDEST PUSH0 PUSH1 0x20 DUP3 ADD SWAP1 POP PUSH2 0x46A PUSH0 DUP4 ADD DUP5 PUSH2 0x448 JUMP JUMPDEST SWAP3 SWAP2 POP POP JUMP JUMPDEST PUSH32 0x4E487B7100000000000000000000000000000000000000000000000000000000 PUSH0 MSTORE PUSH1 0x22 PUSH1 0x4 MSTORE PUSH1 0x24 PUSH0 REVERT JUMPDEST PUSH0 PUSH1 0x2 DUP3 DIV SWAP1 POP PUSH1 0x1 DUP3 AND DUP1 PUSH2 0x4B4 JUMPI PUSH1 0x7F DUP3 AND SWAP2 POP JUMPDEST PUSH1 0x20 DUP3 LT DUP2 SUB PUSH2 0x4C7 JUMPI PUSH2 0x4C6 PUSH2 0x470 JUMP JUMPDEST JUMPDEST POP SWAP2 SWAP1 POP JUMP INVALID LOG2 PUSH5 0x6970667358 0x22 SLT KECCAK256 DUP11 BLOBHASH DUP1 0xBA 0xEB 0x22 GT 0xC5 RJUMPI 0x5ABD ISZERO 0xC5 OR CALLCODE DUP14 DATALOADN 0x1F7E XOR SSTORE DUP8 0xDB RJUMP 0xC1E9 0xD4 0xDA RETURNCONTRACT 0x71 PUSH25 0xCD64736F6C6343000822003300000000000000000000000000 "
				},
				"gasEstimates": {
					"creation": {
						"codeDepositCost": "256600",
						"executionCost": "infinite",
						"totalCost": "infinite"
					},
					"external": {
						"addresses(uint256)": "5010",
						"flags(uint256)": "6553",
						"hashes(uint256)": "4871",
						"names(uint256)": "infinite",
						"numbers(uint256)": "infinite"
					}
				},
				"methodIdentifiers": {
					"addresses(uint256)": "edf26d9b",
					"flags(uint256)": "81274d3a",
					"hashes(uint256)": "501895ae",
					"names(uint256)": "4622ab03",
					"numbers(uint256)": "d39fa233"
				}
			},
			"storageLayout": {
				"storage": [
					{
						"astId": 4,
						"contract": "contracts/3.1/02DynamicArray/DynamicArrayExample.sol:DynamicArrayExample",
						"label": "numbers",
						"offset": 0,
						"slot": "0",
						"type": "t_array(t_uint256)dyn_storage"
					},
					{
						"astId": 10,
						"contract": "contracts/3.1/02DynamicArray/DynamicArrayExample.sol:DynamicArrayExample",
						"label": "addresses",
						"offset": 0,
						"slot": "1",
						"type": "t_array(t_address)dyn_storage"
					},
					{
						"astId": 13,
						"contract": "contracts/3.1/02DynamicArray/DynamicArrayExample.sol:DynamicArrayExample",
						"label": "names",
						"offset": 0,
						"slot": "2",
						"type": "t_array(t_string_storage)dyn_storage"
					},
					{
						"astId": 16,
						"contract": "contracts/3.1/02DynamicArray/DynamicArrayExample.sol:DynamicArrayExample",
						"label": "flags",
						"offset": 0,
						"slot": "3",
						"type": "t_array(t_bool)dyn_storage"
					},
					{
						"astId": 19,
						"contract": "contracts/3.1/02DynamicArray/DynamicArrayExample.sol:DynamicArrayExample",
						"label": "hashes",
						"offset": 0,
						"slot": "4",
						"type": "t_array(t_bytes32)dyn_storage"
					}
				],
				"types": {
					"t_address": {
						"encoding": "inplace",
						"label": "address",
						"numberOfBytes": "20"
					},
					"t_array(t_address)dyn_storage": {
						"base": "t_address",
						"encoding": "dynamic_array",
						"label": "address[]",
						"numberOfBytes": "32"
					},
					"t_array(t_bool)dyn_storage": {
						"base": "t_bool",
						"encoding": "dynamic_array",
						"label": "bool[]",
						"numberOfBytes": "32"
					},
					"t_array(t_bytes32)dyn_storage": {
						"base": "t_bytes32",
						"encoding": "dynamic_array",
						"label": "bytes32[]",
						"numberOfBytes": "32"
					},
					"t_array(t_string_storage)dyn_storage": {
						"base": "t_string_storage",
						"encoding": "dynamic_array",
						"label": "string[]",
						"numberOfBytes": "32"
					},
					"t_array(t_uint256)dyn_storage": {
						"base": "t_uint256",
						"encoding": "dynamic_array",
						"label": "uint256[]",
						"numberOfBytes": "32"
					},
					"t_bool": {
						"encoding": "inplace",
						"label": "bool",
						"numberOfBytes": "1"
					},
					"t_bytes32": {
						"encoding": "inplace",
						"label": "bytes32",
						"numberOfBytes": "32"
					},
					"t_string_storage": {
						"encoding": "bytes",
						"label": "string",
						"numberOfBytes": "32"
					},
					"t_uint256": {
						"encoding": "inplace",
						"label": "uint256",
						"numberOfBytes": "32"
					}
				}
			},
			"userdoc": {
				"kind": "user",
				"methods": {},
				"version": 1
			}
		}
	}
}