{
	"contracts/2.1/03address/TransferExample.sol": {
		"TransferExample": {
			"abi": [
				{
					"inputs": [
						{
							"internalType": "address payable",
							"name": "recipent",
							"type": "address"
						},
						{
							"internalType": "uint256",
							"name": "amount",
							"type": "uint256"
						}
					],
					"name": "callETH",
					"outputs": [],
					"stateMutability": "nonpayable",
					"type": "function"
				},
				{
					"inputs": [
						{
							"internalType": "address payable",
							"name": "recipent",
							"type": "address"
						},
						{
							"internalType": "uint256",
							"name": "amount",
							"type": "uint256"
						}
					],
					"name": "sendETH",
					"outputs": [
						{
							"internalType": "bool",
							"name": "",
							"type": "bool"
						}
					],
					"stateMutability": "nonpayable",
					"type": "function"
				},
				{
					"inputs": [
						{
							"internalType": "address payable",
							"name": "recipent",
							"type": "address"
						},
						{
							"internalType": "uint256",
							"name": "amount",
							"type": "uint256"
						}
					],
					"name": "transerETH",
					"outputs": [],
					"stateMutability": "nonpayable",
					"type": "function"
				},
				{
					"stateMutability": "payable",
					"type": "receive"
				}
			],
			"devdoc": {
				"kind": "dev",
				"methods": {},
				"version": 1
			},
			"evm": {
				"assembly": "    /* \"contracts/2.1/03address/TransferExample.sol\":58:692  contract TransferExample{... */\n  mstore(0x40, 0x80)\n  callvalue\n  dup1\n  iszero\n  tag_1\n  jumpi\n  revert(0x00, 0x00)\ntag_1:\n  pop\n  dataSize(sub_0)\n  dup1\n  dataOffset(sub_0)\n  0x00\n  codecopy\n  0x00\n  return\nstop\n\nsub_0: assembly {\n        /* \"contracts/2.1/03address/TransferExample.sol\":58:692  contract TransferExample{... */\n      mstore(0x40, 0x80)\n      jumpi(tag_1, lt(calldatasize, 0x04))\n      shr(0xe0, calldataload(0x00))\n      dup1\n      0x64a197f3\n      eq\n      tag_3\n      jumpi\n      dup1\n      0x8419cf50\n      eq\n      tag_4\n      jumpi\n      dup1\n      0xb30b9f06\n      eq\n      tag_5\n      jumpi\n      jump(tag_2)\n    tag_1:\n      jumpi(tag_2, calldatasize)\n      stop\n    tag_2:\n      revert(0x00, 0x00)\n        /* \"contracts/2.1/03address/TransferExample.sol\":281:495  function sendETH(address payable recipent,uint amount) public returns(bool){... */\n    tag_3:\n      callvalue\n      dup1\n      iszero\n      tag_8\n      jumpi\n      revert(0x00, 0x00)\n    tag_8:\n      pop\n      tag_9\n      0x04\n      dup1\n      calldatasize\n      sub\n      dup2\n      add\n      swap1\n      tag_10\n      swap2\n      swap1\n      tag_11\n      jump\t// in\n    tag_10:\n      tag_12\n      jump\t// in\n    tag_9:\n      mload(0x40)\n      tag_13\n      swap2\n      swap1\n      tag_14\n      jump\t// in\n    tag_13:\n      mload(0x40)\n      dup1\n      swap2\n      sub\n      swap1\n      return\n        /* \"contracts/2.1/03address/TransferExample.sol\":501:689  function callETH(address payable recipent,uint amount) public{... */\n    tag_4:\n      callvalue\n      dup1\n      iszero\n      tag_15\n      jumpi\n      revert(0x00, 0x00)\n    tag_15:\n      pop\n      tag_16\n      0x04\n      dup1\n      calldatasize\n      sub\n      dup2\n      add\n      swap1\n      tag_17\n      swap2\n      swap1\n      tag_11\n      jump\t// in\n    tag_17:\n      tag_18\n      jump\t// in\n    tag_16:\n      stop\n        /* \"contracts/2.1/03address/TransferExample.sol\":166:275  function transerETH(address payable recipent,uint amount) public {... */\n    tag_5:\n      callvalue\n      dup1\n      iszero\n      tag_19\n      jumpi\n      revert(0x00, 0x00)\n    tag_19:\n      pop\n      tag_20\n      0x04\n      dup1\n      calldatasize\n      sub\n      dup2\n      add\n      swap1\n      tag_21\n      swap2\n      swap1\n      tag_11\n      jump\t// in\n    tag_21:\n      tag_22\n      jump\t// in\n    tag_20:\n      stop\n        /* \"contracts/2.1/03address/TransferExample.sol\":281:495  function sendETH(address payable recipent,uint amount) public returns(bool){... */\n    tag_12:\n        /* \"contracts/2.1/03address/TransferExample.sol\":351:355  bool */\n      0x00\n        /* \"contracts/2.1/03address/TransferExample.sol\":367:379  bool success */\n      0x00\n        /* \"contracts/2.1/03address/TransferExample.sol\":380:388  recipent */\n      dup4\n        /* \"contracts/2.1/03address/TransferExample.sol\":380:393  recipent.send */\n      0xffffffffffffffffffffffffffffffffffffffff\n      and\n        /* \"contracts/2.1/03address/TransferExample.sol\":380:401  recipent.send(amount) */\n      0x08fc\n        /* \"contracts/2.1/03address/TransferExample.sol\":394:400  amount */\n      dup5\n        /* \"contracts/2.1/03address/TransferExample.sol\":380:401  recipent.send(amount) */\n      swap1\n      dup2\n      iszero\n      mul\n      swap1\n      mload(0x40)\n      0x00\n      mload(0x40)\n      dup1\n      dup4\n      sub\n      dup2\n      dup6\n      dup9\n      dup9\n      call\n      swap4\n      pop\n      pop\n      pop\n      pop\n        /* \"contracts/2.1/03address/TransferExample.sol\":367:401  bool success=recipent.send(amount) */\n      swap1\n      pop\n        /* \"contracts/2.1/03address/TransferExample.sol\":420:427  success */\n      dup1\n        /* \"contracts/2.1/03address/TransferExample.sol\":412:462  require(success,unicode\"sendETH()转账失败...\") */\n      tag_25\n      jumpi\n      mload(0x40)\n      0x08c379a000000000000000000000000000000000000000000000000000000000\n      dup2\n      mstore\n      0x04\n      add\n      tag_26\n      swap1\n      tag_27\n      jump\t// in\n    tag_26:\n      mload(0x40)\n      dup1\n      swap2\n      sub\n      swap1\n      revert\n    tag_25:\n        /* \"contracts/2.1/03address/TransferExample.sol\":480:487  success */\n      dup1\n        /* \"contracts/2.1/03address/TransferExample.sol\":473:487  return success */\n      swap2\n      pop\n      pop\n        /* \"contracts/2.1/03address/TransferExample.sol\":281:495  function sendETH(address payable recipent,uint amount) public returns(bool){... */\n      swap3\n      swap2\n      pop\n      pop\n      jump\t// out\n        /* \"contracts/2.1/03address/TransferExample.sol\":501:689  function callETH(address payable recipent,uint amount) public{... */\n    tag_18:\n        /* \"contracts/2.1/03address/TransferExample.sol\":574:586  bool success */\n      0x00\n        /* \"contracts/2.1/03address/TransferExample.sol\":589:597  recipent */\n      dup3\n        /* \"contracts/2.1/03address/TransferExample.sol\":589:602  recipent.call */\n      0xffffffffffffffffffffffffffffffffffffffff\n      and\n        /* \"contracts/2.1/03address/TransferExample.sol\":609:615  amount */\n      dup3\n        /* \"contracts/2.1/03address/TransferExample.sol\":589:620  recipent.call{value:amount}(\"\") */\n      mload(0x40)\n      tag_29\n      swap1\n      tag_30\n      jump\t// in\n    tag_29:\n      0x00\n      mload(0x40)\n      dup1\n      dup4\n      sub\n      dup2\n      dup6\n      dup8\n      gas\n      call\n      swap3\n      pop\n      pop\n      pop\n      returndatasize\n      dup1\n      0x00\n      dup2\n      eq\n      tag_33\n      jumpi\n      mload(0x40)\n      swap2\n      pop\n      and(add(returndatasize, 0x3f), not(0x1f))\n      dup3\n      add\n      0x40\n      mstore\n      returndatasize\n      dup3\n      mstore\n      returndatasize\n      0x00\n      0x20\n      dup5\n      add\n      returndatacopy\n      jump(tag_32)\n    tag_33:\n      0x60\n      swap2\n      pop\n    tag_32:\n      pop\n        /* \"contracts/2.1/03address/TransferExample.sol\":573:620  (bool success,)=recipent.call{value:amount}(\"\") */\n      pop\n      swap1\n      pop\n        /* \"contracts/2.1/03address/TransferExample.sol\":639:646  success */\n      dup1\n        /* \"contracts/2.1/03address/TransferExample.sol\":631:681  require(success,unicode\"callETH()转账失败>>>\") */\n      tag_34\n      jumpi\n      mload(0x40)\n      0x08c379a000000000000000000000000000000000000000000000000000000000\n      dup2\n      mstore\n      0x04\n      add\n      tag_35\n      swap1\n      tag_36\n      jump\t// in\n    tag_35:\n      mload(0x40)\n      dup1\n      swap2\n      sub\n      swap1\n      revert\n    tag_34:\n        /* \"contracts/2.1/03address/TransferExample.sol\":562:689  {... */\n      pop\n        /* \"contracts/2.1/03address/TransferExample.sol\":501:689  function callETH(address payable recipent,uint amount) public{... */\n      pop\n      pop\n      jump\t// out\n        /* \"contracts/2.1/03address/TransferExample.sol\":166:275  function transerETH(address payable recipent,uint amount) public {... */\n    tag_22:\n        /* \"contracts/2.1/03address/TransferExample.sol\":242:250  recipent */\n      dup2\n        /* \"contracts/2.1/03address/TransferExample.sol\":242:259  recipent.transfer */\n      0xffffffffffffffffffffffffffffffffffffffff\n      and\n        /* \"contracts/2.1/03address/TransferExample.sol\":242:267  recipent.transfer(amount) */\n      0x08fc\n        /* \"contracts/2.1/03address/TransferExample.sol\":260:266  amount */\n      dup3\n        /* \"contracts/2.1/03address/TransferExample.sol\":242:267  recipent.transfer(amount) */\n      swap1\n      dup2\n      iszero\n      mul\n      swap1\n      mload(0x40)\n      0x00\n      mload(0x40)\n      dup1\n      dup4\n      sub\n      dup2\n      dup6\n      dup9\n      dup9\n      call\n      swap4\n      pop\n      pop\n      pop\n      pop\n      iszero\n      dup1\n      iszero\n      tag_39\n      jumpi\n      returndatacopy(0x00, 0x00, returndatasize)\n      revert(0x00, returndatasize)\n    tag_39:\n      pop\n        /* \"contracts/2.1/03address/TransferExample.sol\":166:275  function transerETH(address payable recipent,uint amount) public {... */\n      pop\n      pop\n      jump\t// out\n        /* \"#utility.yul\":88:205   */\n    tag_41:\n        /* \"#utility.yul\":197:198   */\n      0x00\n        /* \"#utility.yul\":194:195   */\n      0x00\n        /* \"#utility.yul\":187:199   */\n      revert\n        /* \"#utility.yul\":334:460   */\n    tag_43:\n        /* \"#utility.yul\":371:378   */\n      0x00\n        /* \"#utility.yul\":411:453   */\n      0xffffffffffffffffffffffffffffffffffffffff\n        /* \"#utility.yul\":404:409   */\n      dup3\n        /* \"#utility.yul\":400:454   */\n      and\n        /* \"#utility.yul\":389:454   */\n      swap1\n      pop\n        /* \"#utility.yul\":334:460   */\n      swap2\n      swap1\n      pop\n      jump\t// out\n        /* \"#utility.yul\":466:570   */\n    tag_44:\n        /* \"#utility.yul\":511:518   */\n      0x00\n        /* \"#utility.yul\":540:564   */\n      tag_66\n        /* \"#utility.yul\":558:563   */\n      dup3\n        /* \"#utility.yul\":540:564   */\n      tag_43\n      jump\t// in\n    tag_66:\n        /* \"#utility.yul\":529:564   */\n      swap1\n      pop\n        /* \"#utility.yul\":466:570   */\n      swap2\n      swap1\n      pop\n      jump\t// out\n        /* \"#utility.yul\":576:714   */\n    tag_45:\n        /* \"#utility.yul\":657:689   */\n      tag_68\n        /* \"#utility.yul\":683:688   */\n      dup2\n        /* \"#utility.yul\":657:689   */\n      tag_44\n      jump\t// in\n    tag_68:\n        /* \"#utility.yul\":650:655   */\n      dup2\n        /* \"#utility.yul\":647:690   */\n      eq\n        /* \"#utility.yul\":637:708   */\n      tag_69\n      jumpi\n        /* \"#utility.yul\":704:705   */\n      0x00\n        /* \"#utility.yul\":701:702   */\n      0x00\n        /* \"#utility.yul\":694:706   */\n      revert\n        /* \"#utility.yul\":637:708   */\n    tag_69:\n        /* \"#utility.yul\":576:714   */\n      pop\n      jump\t// out\n        /* \"#utility.yul\":720:875   */\n    tag_46:\n        /* \"#utility.yul\":774:779   */\n      0x00\n        /* \"#utility.yul\":812:818   */\n      dup2\n        /* \"#utility.yul\":799:819   */\n      calldataload\n        /* \"#utility.yul\":790:819   */\n      swap1\n      pop\n        /* \"#utility.yul\":828:869   */\n      tag_71\n        /* \"#utility.yul\":863:868   */\n      dup2\n        /* \"#utility.yul\":828:869   */\n      tag_45\n      jump\t// in\n    tag_71:\n        /* \"#utility.yul\":720:875   */\n      swap3\n      swap2\n      pop\n      pop\n      jump\t// out\n        /* \"#utility.yul\":881:958   */\n    tag_47:\n        /* \"#utility.yul\":918:925   */\n      0x00\n        /* \"#utility.yul\":947:952   */\n      dup2\n        /* \"#utility.yul\":936:952   */\n      swap1\n      pop\n        /* \"#utility.yul\":881:958   */\n      swap2\n      swap1\n      pop\n      jump\t// out\n        /* \"#utility.yul\":964:1086   */\n    tag_48:\n        /* \"#utility.yul\":1037:1061   */\n      tag_74\n        /* \"#utility.yul\":1055:1060   */\n      dup2\n        /* \"#utility.yul\":1037:1061   */\n      tag_47\n      jump\t// in\n    tag_74:\n        /* \"#utility.yul\":1030:1035   */\n      dup2\n        /* \"#utility.yul\":1027:1062   */\n      eq\n        /* \"#utility.yul\":1017:1080   */\n      tag_75\n      jumpi\n        /* \"#utility.yul\":1076:1077   */\n      0x00\n        /* \"#utility.yul\":1073:1074   */\n      0x00\n        /* \"#utility.yul\":1066:1078   */\n      revert\n        /* \"#utility.yul\":1017:1080   */\n    tag_75:\n        /* \"#utility.yul\":964:1086   */\n      pop\n      jump\t// out\n        /* \"#utility.yul\":1092:1231   */\n    tag_49:\n        /* \"#utility.yul\":1138:1143   */\n      0x00\n        /* \"#utility.yul\":1176:1182   */\n      dup2\n        /* \"#utility.yul\":1163:1183   */\n      calldataload\n        /* \"#utility.yul\":1154:1183   */\n      swap1\n      pop\n        /* \"#utility.yul\":1192:1225   */\n      tag_77\n        /* \"#utility.yul\":1219:1224   */\n      dup2\n        /* \"#utility.yul\":1192:1225   */\n      tag_48\n      jump\t// in\n    tag_77:\n        /* \"#utility.yul\":1092:1231   */\n      swap3\n      swap2\n      pop\n      pop\n      jump\t// out\n        /* \"#utility.yul\":1237:1727   */\n    tag_11:\n        /* \"#utility.yul\":1313:1319   */\n      0x00\n        /* \"#utility.yul\":1321:1327   */\n      0x00\n        /* \"#utility.yul\":1370:1372   */\n      0x40\n        /* \"#utility.yul\":1358:1367   */\n      dup4\n        /* \"#utility.yul\":1349:1356   */\n      dup6\n        /* \"#utility.yul\":1345:1368   */\n      sub\n        /* \"#utility.yul\":1341:1373   */\n      slt\n        /* \"#utility.yul\":1338:1457   */\n      iszero\n      tag_79\n      jumpi\n        /* \"#utility.yul\":1376:1455   */\n      tag_80\n      tag_41\n      jump\t// in\n    tag_80:\n        /* \"#utility.yul\":1338:1457   */\n    tag_79:\n        /* \"#utility.yul\":1496:1497   */\n      0x00\n        /* \"#utility.yul\":1521:1582   */\n      tag_81\n        /* \"#utility.yul\":1574:1581   */\n      dup6\n        /* \"#utility.yul\":1565:1571   */\n      dup3\n        /* \"#utility.yul\":1554:1563   */\n      dup7\n        /* \"#utility.yul\":1550:1572   */\n      add\n        /* \"#utility.yul\":1521:1582   */\n      tag_46\n      jump\t// in\n    tag_81:\n        /* \"#utility.yul\":1511:1582   */\n      swap3\n      pop\n        /* \"#utility.yul\":1467:1592   */\n      pop\n        /* \"#utility.yul\":1631:1633   */\n      0x20\n        /* \"#utility.yul\":1657:1710   */\n      tag_82\n        /* \"#utility.yul\":1702:1709   */\n      dup6\n        /* \"#utility.yul\":1693:1699   */\n      dup3\n        /* \"#utility.yul\":1682:1691   */\n      dup7\n        /* \"#utility.yul\":1678:1700   */\n      add\n        /* \"#utility.yul\":1657:1710   */\n      tag_49\n      jump\t// in\n    tag_82:\n        /* \"#utility.yul\":1647:1710   */\n      swap2\n      pop\n        /* \"#utility.yul\":1602:1720   */\n      pop\n        /* \"#utility.yul\":1237:1727   */\n      swap3\n      pop\n      swap3\n      swap1\n      pop\n      jump\t// out\n        /* \"#utility.yul\":1733:1823   */\n    tag_50:\n        /* \"#utility.yul\":1767:1774   */\n      0x00\n        /* \"#utility.yul\":1810:1815   */\n      dup2\n        /* \"#utility.yul\":1803:1816   */\n      iszero\n        /* \"#utility.yul\":1796:1817   */\n      iszero\n        /* \"#utility.yul\":1785:1817   */\n      swap1\n      pop\n        /* \"#utility.yul\":1733:1823   */\n      swap2\n      swap1\n      pop\n      jump\t// out\n        /* \"#utility.yul\":1829:1938   */\n    tag_51:\n        /* \"#utility.yul\":1910:1931   */\n      tag_85\n        /* \"#utility.yul\":1925:1930   */\n      dup2\n        /* \"#utility.yul\":1910:1931   */\n      tag_50\n      jump\t// in\n    tag_85:\n        /* \"#utility.yul\":1905:1908   */\n      dup3\n        /* \"#utility.yul\":1898:1932   */\n      mstore\n        /* \"#utility.yul\":1829:1938   */\n      pop\n      pop\n      jump\t// out\n        /* \"#utility.yul\":1944:2154   */\n    tag_14:\n        /* \"#utility.yul\":2031:2035   */\n      0x00\n        /* \"#utility.yul\":2069:2071   */\n      0x20\n        /* \"#utility.yul\":2058:2067   */\n      dup3\n        /* \"#utility.yul\":2054:2072   */\n      add\n        /* \"#utility.yul\":2046:2072   */\n      swap1\n      pop\n        /* \"#utility.yul\":2082:2147   */\n      tag_87\n        /* \"#utility.yul\":2144:2145   */\n      0x00\n        /* \"#utility.yul\":2133:2142   */\n      dup4\n        /* \"#utility.yul\":2129:2146   */\n      add\n        /* \"#utility.yul\":2120:2126   */\n      dup5\n        /* \"#utility.yul\":2082:2147   */\n      tag_51\n      jump\t// in\n    tag_87:\n        /* \"#utility.yul\":1944:2154   */\n      swap3\n      swap2\n      pop\n      pop\n      jump\t// out\n        /* \"#utility.yul\":2160:2329   */\n    tag_52:\n        /* \"#utility.yul\":2244:2255   */\n      0x00\n        /* \"#utility.yul\":2278:2284   */\n      dup3\n        /* \"#utility.yul\":2273:2276   */\n      dup3\n        /* \"#utility.yul\":2266:2285   */\n      mstore\n        /* \"#utility.yul\":2318:2322   */\n      0x20\n        /* \"#utility.yul\":2313:2316   */\n      dup3\n        /* \"#utility.yul\":2309:2323   */\n      add\n        /* \"#utility.yul\":2294:2323   */\n      swap1\n      pop\n        /* \"#utility.yul\":2160:2329   */\n      swap3\n      swap2\n      pop\n      pop\n      jump\t// out\n        /* \"#utility.yul\":2335:2549   */\n    tag_53:\n        /* \"#utility.yul\":2475:2541   */\n      0x73656e644554482829e8bdace8b4a6e5a4b1e8b4a52e2e2e0000000000000000\n        /* \"#utility.yul\":2471:2472   */\n      0x00\n        /* \"#utility.yul\":2463:2469   */\n      dup3\n        /* \"#utility.yul\":2459:2473   */\n      add\n        /* \"#utility.yul\":2452:2542   */\n      mstore\n        /* \"#utility.yul\":2335:2549   */\n      pop\n      jump\t// out\n        /* \"#utility.yul\":2555:2921   */\n    tag_54:\n        /* \"#utility.yul\":2697:2700   */\n      0x00\n        /* \"#utility.yul\":2718:2785   */\n      tag_91\n        /* \"#utility.yul\":2782:2784   */\n      0x18\n        /* \"#utility.yul\":2777:2780   */\n      dup4\n        /* \"#utility.yul\":2718:2785   */\n      tag_52\n      jump\t// in\n    tag_91:\n        /* \"#utility.yul\":2711:2785   */\n      swap2\n      pop\n        /* \"#utility.yul\":2794:2887   */\n      tag_92\n        /* \"#utility.yul\":2883:2886   */\n      dup3\n        /* \"#utility.yul\":2794:2887   */\n      tag_53\n      jump\t// in\n    tag_92:\n        /* \"#utility.yul\":2912:2914   */\n      0x20\n        /* \"#utility.yul\":2907:2910   */\n      dup3\n        /* \"#utility.yul\":2903:2915   */\n      add\n        /* \"#utility.yul\":2896:2915   */\n      swap1\n      pop\n        /* \"#utility.yul\":2555:2921   */\n      swap2\n      swap1\n      pop\n      jump\t// out\n        /* \"#utility.yul\":2927:3346   */\n    tag_27:\n        /* \"#utility.yul\":3093:3097   */\n      0x00\n        /* \"#utility.yul\":3131:3133   */\n      0x20\n        /* \"#utility.yul\":3120:3129   */\n      dup3\n        /* \"#utility.yul\":3116:3134   */\n      add\n        /* \"#utility.yul\":3108:3134   */\n      swap1\n      pop\n        /* \"#utility.yul\":3180:3189   */\n      dup2\n        /* \"#utility.yul\":3174:3178   */\n      dup2\n        /* \"#utility.yul\":3170:3190   */\n      sub\n        /* \"#utility.yul\":3166:3167   */\n      0x00\n        /* \"#utility.yul\":3155:3164   */\n      dup4\n        /* \"#utility.yul\":3151:3168   */\n      add\n        /* \"#utility.yul\":3144:3191   */\n      mstore\n        /* \"#utility.yul\":3208:3339   */\n      tag_94\n        /* \"#utility.yul\":3334:3338   */\n      dup2\n        /* \"#utility.yul\":3208:3339   */\n      tag_54\n      jump\t// in\n    tag_94:\n        /* \"#utility.yul\":3200:3339   */\n      swap1\n      pop\n        /* \"#utility.yul\":2927:3346   */\n      swap2\n      swap1\n      pop\n      jump\t// out\n        /* \"#utility.yul\":3352:3499   */\n    tag_55:\n        /* \"#utility.yul\":3453:3464   */\n      0x00\n        /* \"#utility.yul\":3490:3493   */\n      dup2\n        /* \"#utility.yul\":3475:3493   */\n      swap1\n      pop\n        /* \"#utility.yul\":3352:3499   */\n      swap3\n      swap2\n      pop\n      pop\n      jump\t// out\n        /* \"#utility.yul\":3505:3619   */\n    tag_56:\n      pop\n      jump\t// out\n        /* \"#utility.yul\":3625:4023   */\n    tag_57:\n        /* \"#utility.yul\":3784:3787   */\n      0x00\n        /* \"#utility.yul\":3805:3888   */\n      tag_98\n        /* \"#utility.yul\":3886:3887   */\n      0x00\n        /* \"#utility.yul\":3881:3884   */\n      dup4\n        /* \"#utility.yul\":3805:3888   */\n      tag_55\n      jump\t// in\n    tag_98:\n        /* \"#utility.yul\":3798:3888   */\n      swap2\n      pop\n        /* \"#utility.yul\":3897:3990   */\n      tag_99\n        /* \"#utility.yul\":3986:3989   */\n      dup3\n        /* \"#utility.yul\":3897:3990   */\n      tag_56\n      jump\t// in\n    tag_99:\n        /* \"#utility.yul\":4015:4016   */\n      0x00\n        /* \"#utility.yul\":4010:4013   */\n      dup3\n        /* \"#utility.yul\":4006:4017   */\n      add\n        /* \"#utility.yul\":3999:4017   */\n      swap1\n      pop\n        /* \"#utility.yul\":3625:4023   */\n      swap2\n      swap1\n      pop\n      jump\t// out\n        /* \"#utility.yul\":4029:4408   */\n    tag_30:\n        /* \"#utility.yul\":4213:4216   */\n      0x00\n        /* \"#utility.yul\":4235:4382   */\n      tag_101\n        /* \"#utility.yul\":4378:4381   */\n      dup3\n        /* \"#utility.yul\":4235:4382   */\n      tag_57\n      jump\t// in\n    tag_101:\n        /* \"#utility.yul\":4228:4382   */\n      swap2\n      pop\n        /* \"#utility.yul\":4399:4402   */\n      dup2\n        /* \"#utility.yul\":4392:4402   */\n      swap1\n      pop\n        /* \"#utility.yul\":4029:4408   */\n      swap2\n      swap1\n      pop\n      jump\t// out\n        /* \"#utility.yul\":4414:4628   */\n    tag_58:\n        /* \"#utility.yul\":4554:4620   */\n      0x63616c6c4554482829e8bdace8b4a6e5a4b1e8b4a53e3e3e0000000000000000\n        /* \"#utility.yul\":4550:4551   */\n      0x00\n        /* \"#utility.yul\":4542:4548   */\n      dup3\n        /* \"#utility.yul\":4538:4552   */\n      add\n        /* \"#utility.yul\":4531:4621   */\n      mstore\n        /* \"#utility.yul\":4414:4628   */\n      pop\n      jump\t// out\n        /* \"#utility.yul\":4634:5000   */\n    tag_59:\n        /* \"#utility.yul\":4776:4779   */\n      0x00\n        /* \"#utility.yul\":4797:4864   */\n      tag_104\n        /* \"#utility.yul\":4861:4863   */\n      0x18\n        /* \"#utility.yul\":4856:4859   */\n      dup4\n        /* \"#utility.yul\":4797:4864   */\n      tag_52\n      jump\t// in\n    tag_104:\n        /* \"#utility.yul\":4790:4864   */\n      swap2\n      pop\n        /* \"#utility.yul\":4873:4966   */\n      tag_105\n        /* \"#utility.yul\":4962:4965   */\n      dup3\n        /* \"#utility.yul\":4873:4966   */\n      tag_58\n      jump\t// in\n    tag_105:\n        /* \"#utility.yul\":4991:4993   */\n      0x20\n        /* \"#utility.yul\":4986:4989   */\n      dup3\n        /* \"#utility.yul\":4982:4994   */\n      add\n        /* \"#utility.yul\":4975:4994   */\n      swap1\n      pop\n        /* \"#utility.yul\":4634:5000   */\n      swap2\n      swap1\n      pop\n      jump\t// out\n        /* \"#utility.yul\":5006:5425   */\n    tag_36:\n        /* \"#utility.yul\":5172:5176   */\n      0x00\n        /* \"#utility.yul\":5210:5212   */\n      0x20\n        /* \"#utility.yul\":5199:5208   */\n      dup3\n        /* \"#utility.yul\":5195:5213   */\n      add\n        /* \"#utility.yul\":5187:5213   */\n      swap1\n      pop\n        /* \"#utility.yul\":5259:5268   */\n      dup2\n        /* \"#utility.yul\":5253:5257   */\n      dup2\n        /* \"#utility.yul\":5249:5269   */\n      sub\n        /* \"#utility.yul\":5245:5246   */\n      0x00\n        /* \"#utility.yul\":5234:5243   */\n      dup4\n        /* \"#utility.yul\":5230:5247   */\n      add\n        /* \"#utility.yul\":5223:5270   */\n      mstore\n        /* \"#utility.yul\":5287:5418   */\n      tag_107\n        /* \"#utility.yul\":5413:5417   */\n      dup2\n        /* \"#utility.yul\":5287:5418   */\n      tag_59\n      jump\t// in\n    tag_107:\n        /* \"#utility.yul\":5279:5418   */\n      swap1\n      pop\n        /* \"#utility.yul\":5006:5425   */\n      swap2\n      swap1\n      pop\n      jump\t// out\n\n    auxdata: 0xa264697066735822122058e135db99eeb8245515cd6a7eb32926db0647c0b565a5fab9cb1662fe23390864736f6c63430008220033\n}\n",
				"bytecode": {
					"linkReferences": {},
					"object": "6080604052348015600e575f5ffd5b5061049e8061001c5f395ff3fe608060405260043610610037575f3560e01c806364a197f3146100425780638419cf501461007e578063b30b9f06146100a65761003e565b3661003e57005b5f5ffd5b34801561004d575f5ffd5b50610068600480360381019061006391906102d6565b6100ce565b604051610075919061032e565b60405180910390f35b348015610089575f5ffd5b506100a4600480360381019061009f91906102d6565b610150565b005b3480156100b1575f5ffd5b506100cc60048036038101906100c791906102d6565b6101fd565b005b5f5f8373ffffffffffffffffffffffffffffffffffffffff166108fc8490811502906040515f60405180830381858888f19350505050905080610146576040517f08c379a000000000000000000000000000000000000000000000000000000000815260040161013d906103a1565b60405180910390fd5b8091505092915050565b5f8273ffffffffffffffffffffffffffffffffffffffff1682604051610175906103ec565b5f6040518083038185875af1925050503d805f81146101af576040519150601f19603f3d011682016040523d82523d5f602084013e6101b4565b606091505b50509050806101f8576040517f08c379a00000000000000000000000000000000000000000000000000000000081526004016101ef9061044a565b60405180910390fd5b505050565b8173ffffffffffffffffffffffffffffffffffffffff166108fc8290811502906040515f60405180830381858888f19350505050158015610240573d5f5f3e3d5ffd5b505050565b5f5ffd5b5f73ffffffffffffffffffffffffffffffffffffffff82169050919050565b5f61027282610249565b9050919050565b61028281610268565b811461028c575f5ffd5b50565b5f8135905061029d81610279565b92915050565b5f819050919050565b6102b5816102a3565b81146102bf575f5ffd5b50565b5f813590506102d0816102ac565b92915050565b5f5f604083850312156102ec576102eb610245565b5b5f6102f98582860161028f565b925050602061030a858286016102c2565b9150509250929050565b5f8115159050919050565b61032881610314565b82525050565b5f6020820190506103415f83018461031f565b92915050565b5f82825260208201905092915050565b7f73656e644554482829e8bdace8b4a6e5a4b1e8b4a52e2e2e00000000000000005f82015250565b5f61038b601883610347565b915061039682610357565b602082019050919050565b5f6020820190508181035f8301526103b88161037f565b9050919050565b5f81905092915050565b50565b5f6103d75f836103bf565b91506103e2826103c9565b5f82019050919050565b5f6103f6826103cc565b9150819050919050565b7f63616c6c4554482829e8bdace8b4a6e5a4b1e8b4a53e3e3e00000000000000005f82015250565b5f610434601883610347565b915061043f82610400565b602082019050919050565b5f6020820190508181035f83015261046181610428565b905091905056fea264697066735822122058e135db99eeb8245515cd6a7eb32926db0647c0b565a5fab9cb1662fe23390864736f6c63430008220033",
					"opcodes": "PUSH1 0x80 PUSH1 0x40 MSTORE CALLVALUE DUP1 ISZERO PUSH1 0xE JUMPI PUSH0 PUSH0 REVERT JUMPDEST POP PUSH2 0x49E DUP1 PUSH2 0x1C PUSH0 CODECOPY PUSH0 RETURN INVALID PUSH1 0x80 PUSH1 0x40 MSTORE PUSH1 0x4 CALLDATASIZE LT PUSH2 0x37 JUMPI PUSH0 CALLDATALOAD PUSH1 0xE0 SHR DUP1 PUSH4 0x64A197F3 EQ PUSH2 0x42 JUMPI DUP1 PUSH4 0x8419CF50 EQ PUSH2 0x7E JUMPI DUP1 PUSH4 0xB30B9F06 EQ PUSH2 0xA6 JUMPI PUSH2 0x3E JUMP JUMPDEST CALLDATASIZE PUSH2 0x3E JUMPI STOP JUMPDEST PUSH0 PUSH0 REVERT JUMPDEST CALLVALUE DUP1 ISZERO PUSH2 0x4D JUMPI PUSH0 PUSH0 REVERT JUMPDEST POP PUSH2 0x68 PUSH1 0x4 DUP1 CALLDATASIZE SUB DUP2 ADD SWAP1 PUSH2 0x63 SWAP2 SWAP1 PUSH2 0x2D6 JUMP JUMPDEST PUSH2 0xCE JUMP JUMPDEST PUSH1 0x40 MLOAD PUSH2 0x75 SWAP2 SWAP1 PUSH2 0x32E JUMP JUMPDEST PUSH1 0x40 MLOAD DUP1 SWAP2 SUB SWAP1 RETURN JUMPDEST CALLVALUE DUP1 ISZERO PUSH2 0x89 JUMPI PUSH0 PUSH0 REVERT JUMPDEST POP PUSH2 0xA4 PUSH1 0x4 DUP1 CALLDATASIZE SUB DUP2 ADD SWAP1 PUSH2 0x9F SWAP2 SWAP1 PUSH2 0x2D6 JUMP JUMPDEST PUSH2 0x150 JUMP JUMPDEST STOP JUMPDEST CALLVALUE DUP1 ISZERO PUSH2 0xB1 JUMPI PUSH0 PUSH0 REVERT JUMPDEST POP PUSH2 0xCC PUSH1 0x4 DUP1 CALLDATASIZE SUB DUP2 ADD SWAP1 PUSH2 0xC7 SWAP2 SWAP1 PUSH2 0x2D6 JUMP JUMPDEST PUSH2 0x1FD JUMP JUMPDEST STOP JUMPDEST PUSH0 PUSH0 DUP4 PUSH20 0xFFFFFFFFFFFFFFFFFFFFFFFFFFFFFFFFFFFFFFFF AND PUSH2 0x8FC DUP5 SWAP1 DUP2 ISZERO MUL SWAP1 PUSH1 0x40 MLOAD PUSH0 PUSH1 0x40 MLOAD DUP1 DUP4 SUB DUP2 DUP6 DUP9 DUP9 CALL SWAP4 POP POP POP POP SWAP1 POP DUP1 PUSH2 0x146 JUMPI PUSH1 0x40 MLOAD PUSH32 0x8C379A000000000000000000000000000000000000000000000000000000000 DUP2 MSTORE PUSH1 0x4 ADD PUSH2 0x13D SWAP1 PUSH2 0x3A1 JUMP JUMPDEST PUSH1 0x40 MLOAD DUP1 SWAP2 SUB SWAP1 REVERT JUMPDEST DUP1 SWAP2 POP POP SWAP3 SWAP2 POP POP JUMP JUMPDEST PUSH0 DUP3 PUSH20 0xFFFFFFFFFFFFFFFFFFFFFFFFFFFFFFFFFFFFFFFF AND DUP3 PUSH1 0x40 MLOAD PUSH2 0x175 SWAP1 PUSH2 0x3EC JUMP JUMPDEST PUSH0 PUSH1 0x40 MLOAD DUP1 DUP4 SUB DUP2 DUP6 DUP8 GAS CALL SWAP3 POP POP POP RETURNDATASIZE DUP1 PUSH0 DUP2 EQ PUSH2 0x1AF JUMPI PUSH1 0x40 MLOAD SWAP2 POP PUSH1 0x1F NOT PUSH1 0x3F RETURNDATASIZE ADD AND DUP3 ADD PUSH1 0x40 MSTORE RETURNDATASIZE DUP3 MSTORE RETURNDATASIZE PUSH0 PUSH1 0x20 DUP5 ADD RETURNDATACOPY PUSH2 0x1B4 JUMP JUMPDEST PUSH1 0x60 SWAP2 POP JUMPDEST POP POP SWAP1 POP DUP1 PUSH2 0x1F8 JUMPI PUSH1 0x40 MLOAD PUSH32 0x8C379A000000000000000000000000000000000000000000000000000000000 DUP2 MSTORE PUSH1 0x4 ADD PUSH2 0x1EF SWAP1 PUSH2 0x44A JUMP JUMPDEST PUSH1 0x40 MLOAD DUP1 SWAP2 SUB SWAP1 REVERT JUMPDEST POP POP POP JUMP JUMPDEST DUP2 PUSH20 0xFFFFFFFFFFFFFFFFFFFFFFFFFFFFFFFFFFFFFFFF AND PUSH2 0x8FC DUP3 SWAP1 DUP2 ISZERO MUL SWAP1 PUSH1 0x40 MLOAD PUSH0 PUSH1 0x40 MLOAD DUP1 DUP4 SUB DUP2 DUP6 DUP9 DUP9 CALL SWAP4 POP POP POP POP ISZERO DUP1 ISZERO PUSH2 0x240 JUMPI RETURNDATASIZE PUSH0 PUSH0 RETURNDATACOPY RETURNDATASIZE PUSH0 REVERT JUMPDEST POP POP POP JUMP JUMPDEST PUSH0 PUSH0 REVERT JUMPDEST PUSH0 PUSH20 0xFFFFFFFFFFFFFFFFFFFFFFFFFFFFFFFFFFFFFFFF DUP3 AND SWAP1 POP SWAP2 SWAP1 POP JUMP JUMPDEST PUSH0 PUSH2 0x272 DUP3 PUSH2 0x249 JUMP JUMPDEST SWAP1 POP SWAP2 SWAP1 POP JUMP JUMPDEST PUSH2 0x282 DUP2 PUSH2 0x268 JUMP JUMPDEST DUP2 EQ PUSH2 0x28C JUMPI PUSH0 PUSH0 REVERT JUMPDEST POP JUMP JUMPDEST PUSH0 DUP2 CALLDATALOAD SWAP1 POP PUSH2 0x29D DUP2 PUSH2 0x279 JUMP JUMPDEST SWAP3 SWAP2 POP POP JUMP JUMPDEST PUSH0 DUP2 SWAP1 POP SWAP2 SWAP1 POP JUMP JUMPDEST PUSH2 0x2B5 DUP2 PUSH2 0x2A3 JUMP JUMPDEST DUP2 EQ PUSH2 0x2BF JUMPI PUSH0 PUSH0 REVERT JUMPDEST POP JUMP JUMPDEST PUSH0 DUP2 CALLDATALOAD SWAP1 POP PUSH2 0x2D0 DUP2 PUSH2 0x2AC JUMP JUMPDEST SWAP3 SWAP2 POP POP JUMP JUMPDEST PUSH0 PUSH0 PUSH1 0x40 DUP4 DUP6 SUB SLT ISZERO PUSH2 0x2EC JUMPI PUSH2 0x2EB PUSH2 0x245 JUMP JUMPDEST JUMPDEST PUSH0 PUSH2 0x2F9 DUP6 DUP3 DUP7 ADD PUSH2 0x28F JUMP JUMPDEST SWAP3 POP POP PUSH1 0x20 PUSH2 0x30A DUP6 DUP3 DUP7 ADD PUSH2 0x2C2 JUMP JUMPDEST SWAP2 POP POP SWAP3 POP SWAP3 SWAP1 POP JUMP JUMPDEST PUSH0 DUP2 ISZERO ISZERO SWAP1 POP SWAP2 SWAP1 POP JUMP JUMPDEST PUSH2 0x328 DUP2 PUSH2 0x314 JUMP JUMPDEST DUP3 MSTORE POP POP JUMP JUMPDEST PUSH0 PUSH1 0x20 DUP3 ADD SWAP1 POP PUSH2 0x341 PUSH0 DUP4 ADD DUP5 PUSH2 0x31F JUMP JUMPDEST SWAP3 SWAP2 POP POP JUMP JUMPDEST PUSH0 DUP3 DUP3 MSTORE PUSH1 0x20 DUP3 ADD SWAP1 POP SWAP3 SWAP2 POP POP JUMP JUMPDEST PUSH32 0x73656E644554482829E8BDACE8B4A6E5A4B1E8B4A52E2E2E0000000000000000 PUSH0 DUP3 ADD MSTORE POP JUMP JUMPDEST PUSH0 PUSH2 0x38B PUSH1 0x18 DUP4 PUSH2 0x347 JUMP JUMPDEST SWAP2 POP PUSH2 0x396 DUP3 PUSH2 0x357 JUMP JUMPDEST PUSH1 0x20 DUP3 ADD SWAP1 POP SWAP2 SWAP1 POP JUMP JUMPDEST PUSH0 PUSH1 0x20 DUP3 ADD SWAP1 POP DUP2 DUP2 SUB PUSH0 DUP4 ADD MSTORE PUSH2 0x3B8 DUP2 PUSH2 0x37F JUMP JUMPDEST SWAP1 POP SWAP2 SWAP1 POP JUMP JUMPDEST PUSH0 DUP2 SWAP1 POP SWAP3 SWAP2 POP POP JUMP JUMPDEST POP JUMP JUMPDEST PUSH0 PUSH2 0x3D7 PUSH0 DUP4 PUSH2 0x3BF JUMP JUMPDEST SWAP2 POP PUSH2 0x3E2 DUP3 PUSH2 0x3C9 JUMP JUMPDEST PUSH0 DUP3 ADD SWAP1 POP SWAP2 SWAP1 POP JUMP JUMPDEST PUSH0 PUSH2 0x3F6 DUP3 PUSH2 0x3CC JUMP JUMPDEST SWAP2 POP DUP2 SWAP1 POP SWAP2 SWAP1 POP JUMP JUMPDEST PUSH32 0x63616C6C4554482829E8BDACE8B4A6E5A4B1E8B4A53E3E3E0000000000000000 PUSH0 DUP3 ADD MSTORE POP JUMP JUMPDEST PUSH0 PUSH2 0x434 PUSH1 0x18 DUP4 PUSH2 0x347 JUMP JUMPDEST SWAP2 POP PUSH2 0x43F DUP3 PUSH2 0x400 JUMP JUMPDEST PUSH1 0x20 DUP3 ADD SWAP1 POP SWAP2 SWAP1 POP JUMP JUMPDEST PUSH0 PUSH1 0x20 DUP3 ADD SWAP1 POP DUP2 DUP2 SUB PUSH0 DUP4 ADD MSTORE PUSH2 0x461 DUP2 PUSH2 0x428 JUMP JUMPDEST SWAP1 POP SWAP2 SWAP1 POP JUMP INVALID LOG2 PUSH5 0x6970667358 0x22 SLT KECCAK256 PC RJUMPI 0x35DB SWAP10 RETURNCONTRACT 0xB8 0x24 SSTORE ISZERO 0xCD PUSH11 0x7EB32926DB0647C0B565A5 STATICCALL 0xB9 0xCB AND PUSH3 0xFE2339 ADDMOD PUSH5 0x736F6C6343 STOP ADDMOD 0x22 STOP CALLER "
				},
				"gasEstimates": {
					"creation": {
						"codeDepositCost": "236400",
						"executionCost": "273",
						"totalCost": "236673"
					},
					"external": {
						"callETH(address,uint256)": "infinite",
						"sendETH(address,uint256)": "infinite",
						"transerETH(address,uint256)": "infinite"
					}
				},
				"methodIdentifiers": {
					"callETH(address,uint256)": "8419cf50",
					"sendETH(address,uint256)": "64a197f3",
					"transerETH(address,uint256)": "b30b9f06"
				}
			},
			"storageLayout": {
				"storage": [],
				"types": null
			},
			"userdoc": {
				"kind": "user",
				"methods": {},
				"version": 1
			}
		}
	}
}