{
	"contracts/3.1/06MultiDimesionArray/TwoDimesionArray.sol": {
		"TwoDimesionArray": {
			"abi": [
				{
					"inputs": [
						{
							"internalType": "uint256[]",
							"name": "row",
							"type": "uint256[]"
						}
					],
					"name": "addRow",
					"outputs": [
						{
							"internalType": "uint256[][]",
							"name": "",
							"type": "uint256[][]"
						}
					],
					"stateMutability": "nonpayable",
					"type": "function"
				},
				{
					"inputs": [],
					"name": "getAllElement",
					"outputs": [
						{
							"internalType": "uint256[][]",
							"name": "",
							"type": "uint256[][]"
						}
					],
					"stateMutability": "view",
					"type": "function"
				},
				{
					"inputs": [],
					"name": "getDimesion",
					"outputs": [
						{
							"internalType": "uint256",
							"name": "rows",
							"type": "uint256"
						},
						{
							"internalType": "uint256",
							"name": "cols",
							"type": "uint256"
						}
					],
					"stateMutability": "view",
					"type": "function"
				},
				{
					"inputs": [
						{
							"internalType": "uint256",
							"name": "row",
							"type": "uint256"
						},
						{
							"internalType": "uint256",
							"name": "col",
							"type": "uint256"
						}
					],
					"name": "getElement",
					"outputs": [
						{
							"internalType": "uint256",
							"name": "",
							"type": "uint256"
						}
					],
					"stateMutability": "view",
					"type": "function"
				},
				{
					"inputs": [],
					"name": "initialize",
					"outputs": [],
					"stateMutability": "nonpayable",
					"type": "function"
				},
				{
					"inputs": [
						{
							"internalType": "uint256",
							"name": "",
							"type": "uint256"
						},
						{
							"internalType": "uint256",
							"name": "",
							"type": "uint256"
						}
					],
					"name": "matrix",
					"outputs": [
						{
							"internalType": "uint256",
							"name": "",
							"type": "uint256"
						}
					],
					"stateMutability": "view",
					"type": "function"
				},
				{
					"inputs": [
						{
							"internalType": "uint256",
							"name": "row",
							"type": "uint256"
						},
						{
							"internalType": "uint256",
							"name": "col",
							"type": "uint256"
						},
						{
							"internalType": "uint256",
							"name": "value",
							"type": "uint256"
						}
					],
					"name": "setElememt",
					"outputs": [],
					"stateMutability": "nonpayable",
					"type": "function"
				}
			],
			"devdoc": {
				"kind": "dev",
				"methods": {},
				"version": 1
			},
			"evm": {
				"assembly": "    /* \"contracts/3.1/06MultiDimesionArray/TwoDimesionArray.sol\":58:1468  contract TwoDimesionArray{... */\n  mstore(0x40, 0x80)\n  callvalue\n  dup1\n  iszero\n  tag_1\n  jumpi\n  revert(0x00, 0x00)\ntag_1:\n  pop\n  dataSize(sub_0)\n  dup1\n  dataOffset(sub_0)\n  0x00\n  codecopy\n  0x00\n  return\nstop\n\nsub_0: assembly {\n        /* \"contracts/3.1/06MultiDimesionArray/TwoDimesionArray.sol\":58:1468  contract TwoDimesionArray{... */\n      mstore(0x40, 0x80)\n      callvalue\n      dup1\n      iszero\n      tag_1\n      jumpi\n      revert(0x00, 0x00)\n    tag_1:\n      pop\n      jumpi(tag_2, lt(calldatasize, 0x04))\n      shr(0xe0, calldataload(0x00))\n      dup1\n      0x84d92f8e\n      gt\n      tag_10\n      jumpi\n      dup1\n      0x84d92f8e\n      eq\n      tag_6\n      jumpi\n      dup1\n      0xb76b78fb\n      eq\n      tag_7\n      jumpi\n      dup1\n      0xcb34f1da\n      eq\n      tag_8\n      jumpi\n      dup1\n      0xd9a38d64\n      eq\n      tag_9\n      jumpi\n      jump(tag_2)\n    tag_10:\n      dup1\n      0x22cbbe39\n      eq\n      tag_3\n      jumpi\n      dup1\n      0x5834c642\n      eq\n      tag_4\n      jumpi\n      dup1\n      0x8129fc1c\n      eq\n      tag_5\n      jumpi\n    tag_2:\n      revert(0x00, 0x00)\n        /* \"contracts/3.1/06MultiDimesionArray/TwoDimesionArray.sol\":991:1237  function setElememt(uint row,uint col,uint value) public {... */\n    tag_3:\n      tag_11\n      0x04\n      dup1\n      calldatasize\n      sub\n      dup2\n      add\n      swap1\n      tag_12\n      swap2\n      swap1\n      tag_13\n      jump\t// in\n    tag_12:\n      tag_14\n      jump\t// in\n    tag_11:\n      stop\n        /* \"contracts/3.1/06MultiDimesionArray/TwoDimesionArray.sol\":1243:1465  function getDimesion() public view returns(uint rows,uint cols){... */\n    tag_4:\n      tag_15\n      tag_16\n      jump\t// in\n    tag_15:\n      mload(0x40)\n      tag_17\n      swap3\n      swap2\n      swap1\n      tag_18\n      jump\t// in\n    tag_17:\n      mload(0x40)\n      dup1\n      swap2\n      sub\n      swap1\n      return\n        /* \"contracts/3.1/06MultiDimesionArray/TwoDimesionArray.sol\":352:722  function initialize() public {... */\n    tag_5:\n      tag_19\n      tag_20\n      jump\t// in\n    tag_19:\n      stop\n        /* \"contracts/3.1/06MultiDimesionArray/TwoDimesionArray.sol\":218:346  function addRow(uint[] calldata row) public returns(uint[][] memory) {... */\n    tag_6:\n      tag_21\n      0x04\n      dup1\n      calldatasize\n      sub\n      dup2\n      add\n      swap1\n      tag_22\n      swap2\n      swap1\n      tag_23\n      jump\t// in\n    tag_22:\n      tag_24\n      jump\t// in\n    tag_21:\n      mload(0x40)\n      tag_25\n      swap2\n      swap1\n      tag_26\n      jump\t// in\n    tag_25:\n      mload(0x40)\n      dup1\n      swap2\n      sub\n      swap1\n      return\n        /* \"contracts/3.1/06MultiDimesionArray/TwoDimesionArray.sol\":119:212  function getAllElement() public view returns(uint[][] memory){... */\n    tag_7:\n      tag_27\n      tag_28\n      jump\t// in\n    tag_27:\n      mload(0x40)\n      tag_29\n      swap2\n      swap1\n      tag_26\n      jump\t// in\n    tag_29:\n      mload(0x40)\n      dup1\n      swap2\n      sub\n      swap1\n      return\n        /* \"contracts/3.1/06MultiDimesionArray/TwoDimesionArray.sol\":730:983  function getElement(uint row,uint col) public view returns(uint){... */\n    tag_8:\n      tag_30\n      0x04\n      dup1\n      calldatasize\n      sub\n      dup2\n      add\n      swap1\n      tag_31\n      swap2\n      swap1\n      tag_32\n      jump\t// in\n    tag_31:\n      tag_33\n      jump\t// in\n    tag_30:\n      mload(0x40)\n      tag_34\n      swap2\n      swap1\n      tag_35\n      jump\t// in\n    tag_34:\n      mload(0x40)\n      dup1\n      swap2\n      sub\n      swap1\n      return\n        /* \"contracts/3.1/06MultiDimesionArray/TwoDimesionArray.sol\":90:112  uint[][] public matrix */\n    tag_9:\n      tag_36\n      0x04\n      dup1\n      calldatasize\n      sub\n      dup2\n      add\n      swap1\n      tag_37\n      swap2\n      swap1\n      tag_32\n      jump\t// in\n    tag_37:\n      tag_38\n      jump\t// in\n    tag_36:\n      mload(0x40)\n      tag_39\n      swap2\n      swap1\n      tag_35\n      jump\t// in\n    tag_39:\n      mload(0x40)\n      dup1\n      swap2\n      sub\n      swap1\n      return\n        /* \"contracts/3.1/06MultiDimesionArray/TwoDimesionArray.sol\":991:1237  function setElememt(uint row,uint col,uint value) public {... */\n    tag_14:\n        /* \"contracts/3.1/06MultiDimesionArray/TwoDimesionArray.sol\":1071:1077  matrix */\n      0x00\n        /* \"contracts/3.1/06MultiDimesionArray/TwoDimesionArray.sol\":1071:1084  matrix.length */\n      dup1\n      sload\n      swap1\n      pop\n        /* \"contracts/3.1/06MultiDimesionArray/TwoDimesionArray.sol\":1067:1070  row */\n      dup4\n        /* \"contracts/3.1/06MultiDimesionArray/TwoDimesionArray.sol\":1067:1084  row<matrix.length */\n      lt\n        /* \"contracts/3.1/06MultiDimesionArray/TwoDimesionArray.sol\":1059:1119  require(row<matrix.length,unicode\"超过数组最大行数\") */\n      tag_41\n      jumpi\n      mload(0x40)\n      0x08c379a000000000000000000000000000000000000000000000000000000000\n      dup2\n      mstore\n      0x04\n      add\n      tag_42\n      swap1\n      tag_43\n      jump\t// in\n    tag_42:\n      mload(0x40)\n      dup1\n      swap2\n      sub\n      swap1\n      revert\n    tag_41:\n        /* \"contracts/3.1/06MultiDimesionArray/TwoDimesionArray.sol\":1142:1148  matrix */\n      0x00\n        /* \"contracts/3.1/06MultiDimesionArray/TwoDimesionArray.sol\":1149:1152  row */\n      dup4\n        /* \"contracts/3.1/06MultiDimesionArray/TwoDimesionArray.sol\":1142:1153  matrix[row] */\n      dup2\n      sload\n      dup2\n      lt\n      tag_44\n      jumpi\n      tag_45\n      tag_46\n      jump\t// in\n    tag_45:\n    tag_44:\n      swap1\n      0x00\n      mstore\n      keccak256(0x00, 0x20)\n      add\n        /* \"contracts/3.1/06MultiDimesionArray/TwoDimesionArray.sol\":1142:1160  matrix[row].length */\n      dup1\n      sload\n      swap1\n      pop\n        /* \"contracts/3.1/06MultiDimesionArray/TwoDimesionArray.sol\":1138:1141  col */\n      dup3\n        /* \"contracts/3.1/06MultiDimesionArray/TwoDimesionArray.sol\":1138:1160  col<matrix[row].length */\n      lt\n        /* \"contracts/3.1/06MultiDimesionArray/TwoDimesionArray.sol\":1130:1195  require(col<matrix[row].length,unicode\"超过数组最大列数\") */\n      tag_48\n      jumpi\n      mload(0x40)\n      0x08c379a000000000000000000000000000000000000000000000000000000000\n      dup2\n      mstore\n      0x04\n      add\n      tag_49\n      swap1\n      tag_50\n      jump\t// in\n    tag_49:\n      mload(0x40)\n      dup1\n      swap2\n      sub\n      swap1\n      revert\n    tag_48:\n        /* \"contracts/3.1/06MultiDimesionArray/TwoDimesionArray.sol\":1224:1229  value */\n      dup1\n        /* \"contracts/3.1/06MultiDimesionArray/TwoDimesionArray.sol\":1207:1213  matrix */\n      0x00\n        /* \"contracts/3.1/06MultiDimesionArray/TwoDimesionArray.sol\":1214:1217  row */\n      dup5\n        /* \"contracts/3.1/06MultiDimesionArray/TwoDimesionArray.sol\":1207:1218  matrix[row] */\n      dup2\n      sload\n      dup2\n      lt\n      tag_51\n      jumpi\n      tag_52\n      tag_46\n      jump\t// in\n    tag_52:\n    tag_51:\n      swap1\n      0x00\n      mstore\n      keccak256(0x00, 0x20)\n      add\n        /* \"contracts/3.1/06MultiDimesionArray/TwoDimesionArray.sol\":1219:1222  col */\n      dup4\n        /* \"contracts/3.1/06MultiDimesionArray/TwoDimesionArray.sol\":1207:1223  matrix[row][col] */\n      dup2\n      sload\n      dup2\n      lt\n      tag_54\n      jumpi\n      tag_55\n      tag_46\n      jump\t// in\n    tag_55:\n    tag_54:\n      swap1\n      0x00\n      mstore\n      keccak256(0x00, 0x20)\n      add\n        /* \"contracts/3.1/06MultiDimesionArray/TwoDimesionArray.sol\":1207:1229  matrix[row][col]=value */\n      dup2\n      swap1\n      sstore\n      pop\n        /* \"contracts/3.1/06MultiDimesionArray/TwoDimesionArray.sol\":991:1237  function setElememt(uint row,uint col,uint value) public {... */\n      pop\n      pop\n      pop\n      jump\t// out\n        /* \"contracts/3.1/06MultiDimesionArray/TwoDimesionArray.sol\":1243:1465  function getDimesion() public view returns(uint rows,uint cols){... */\n    tag_16:\n        /* \"contracts/3.1/06MultiDimesionArray/TwoDimesionArray.sol\":1286:1295  uint rows */\n      0x00\n        /* \"contracts/3.1/06MultiDimesionArray/TwoDimesionArray.sol\":1296:1305  uint cols */\n      0x00\n        /* \"contracts/3.1/06MultiDimesionArray/TwoDimesionArray.sol\":1321:1327  matrix */\n      0x00\n        /* \"contracts/3.1/06MultiDimesionArray/TwoDimesionArray.sol\":1321:1334  matrix.length */\n      dup1\n      sload\n      swap1\n      pop\n        /* \"contracts/3.1/06MultiDimesionArray/TwoDimesionArray.sol\":1316:1334  rows=matrix.length */\n      swap2\n      pop\n        /* \"contracts/3.1/06MultiDimesionArray/TwoDimesionArray.sol\":1353:1354  0 */\n      0x00\n        /* \"contracts/3.1/06MultiDimesionArray/TwoDimesionArray.sol\":1348:1352  rows */\n      dup3\n        /* \"contracts/3.1/06MultiDimesionArray/TwoDimesionArray.sol\":1348:1354  rows>0 */\n      gt\n        /* \"contracts/3.1/06MultiDimesionArray/TwoDimesionArray.sol\":1344:1430  if (rows>0){... */\n      iszero\n      tag_58\n      jumpi\n        /* \"contracts/3.1/06MultiDimesionArray/TwoDimesionArray.sol\":1371:1377  matrix */\n      0x00\n        /* \"contracts/3.1/06MultiDimesionArray/TwoDimesionArray.sol\":1378:1379  0 */\n      0x00\n        /* \"contracts/3.1/06MultiDimesionArray/TwoDimesionArray.sol\":1371:1380  matrix[0] */\n      dup2\n      sload\n      dup2\n      lt\n      tag_59\n      jumpi\n      tag_60\n      tag_46\n      jump\t// in\n    tag_60:\n    tag_59:\n      swap1\n      0x00\n      mstore\n      keccak256(0x00, 0x20)\n      add\n        /* \"contracts/3.1/06MultiDimesionArray/TwoDimesionArray.sol\":1371:1387  matrix[0].length */\n      dup1\n      sload\n      swap1\n      pop\n        /* \"contracts/3.1/06MultiDimesionArray/TwoDimesionArray.sol\":1366:1387  cols=matrix[0].length */\n      swap1\n      pop\n        /* \"contracts/3.1/06MultiDimesionArray/TwoDimesionArray.sol\":1344:1430  if (rows>0){... */\n      jump(tag_62)\n    tag_58:\n        /* \"contracts/3.1/06MultiDimesionArray/TwoDimesionArray.sol\":1418:1419  0 */\n      0x00\n        /* \"contracts/3.1/06MultiDimesionArray/TwoDimesionArray.sol\":1413:1419  cols=0 */\n      swap1\n      pop\n        /* \"contracts/3.1/06MultiDimesionArray/TwoDimesionArray.sol\":1344:1430  if (rows>0){... */\n    tag_62:\n        /* \"contracts/3.1/06MultiDimesionArray/TwoDimesionArray.sol\":1243:1465  function getDimesion() public view returns(uint rows,uint cols){... */\n      swap1\n      swap2\n      jump\t// out\n        /* \"contracts/3.1/06MultiDimesionArray/TwoDimesionArray.sol\":352:722  function initialize() public {... */\n    tag_20:\n        /* \"contracts/3.1/06MultiDimesionArray/TwoDimesionArray.sol\":392:410  uint[] memory row1 */\n      0x00\n        /* \"contracts/3.1/06MultiDimesionArray/TwoDimesionArray.sol\":422:423  3 */\n      0x03\n        /* \"contracts/3.1/06MultiDimesionArray/TwoDimesionArray.sol\":411:424  new uint[](3) */\n      0xffffffffffffffff\n      dup2\n      gt\n      iszero\n      tag_64\n      jumpi\n      tag_65\n      tag_66\n      jump\t// in\n    tag_65:\n    tag_64:\n      mload(0x40)\n      swap1\n      dup1\n      dup3\n      mstore\n      dup1\n      0x20\n      mul\n      0x20\n      add\n      dup3\n      add\n      0x40\n      mstore\n      dup1\n      iszero\n      tag_67\n      jumpi\n      dup2\n      0x20\n      add\n      0x20\n      dup3\n      mul\n      dup1\n      calldatasize\n      dup4\n      calldatacopy\n      dup1\n      dup3\n      add\n      swap2\n      pop\n      pop\n      swap1\n      pop\n    tag_67:\n      pop\n        /* \"contracts/3.1/06MultiDimesionArray/TwoDimesionArray.sol\":392:424  uint[] memory row1=new uint[](3) */\n      swap1\n      pop\n        /* \"contracts/3.1/06MultiDimesionArray/TwoDimesionArray.sol\":443:444  1 */\n      0x01\n        /* \"contracts/3.1/06MultiDimesionArray/TwoDimesionArray.sol\":435:439  row1 */\n      dup2\n        /* \"contracts/3.1/06MultiDimesionArray/TwoDimesionArray.sol\":440:441  0 */\n      0x00\n        /* \"contracts/3.1/06MultiDimesionArray/TwoDimesionArray.sol\":435:442  row1[0] */\n      dup2\n      mload\n      dup2\n      lt\n      tag_68\n      jumpi\n      tag_69\n      tag_46\n      jump\t// in\n    tag_69:\n    tag_68:\n      0x20\n      mul\n      0x20\n      add\n      add\n        /* \"contracts/3.1/06MultiDimesionArray/TwoDimesionArray.sol\":435:444  row1[0]=1 */\n      dup2\n      dup2\n      mstore\n      pop\n      pop\n        /* \"contracts/3.1/06MultiDimesionArray/TwoDimesionArray.sol\":453:454  2 */\n      0x02\n        /* \"contracts/3.1/06MultiDimesionArray/TwoDimesionArray.sol\":445:449  row1 */\n      dup2\n        /* \"contracts/3.1/06MultiDimesionArray/TwoDimesionArray.sol\":450:451  1 */\n      0x01\n        /* \"contracts/3.1/06MultiDimesionArray/TwoDimesionArray.sol\":445:452  row1[1] */\n      dup2\n      mload\n      dup2\n      lt\n      tag_70\n      jumpi\n      tag_71\n      tag_46\n      jump\t// in\n    tag_71:\n    tag_70:\n      0x20\n      mul\n      0x20\n      add\n      add\n        /* \"contracts/3.1/06MultiDimesionArray/TwoDimesionArray.sol\":445:454  row1[1]=2 */\n      dup2\n      dup2\n      mstore\n      pop\n      pop\n        /* \"contracts/3.1/06MultiDimesionArray/TwoDimesionArray.sol\":463:464  3 */\n      0x03\n        /* \"contracts/3.1/06MultiDimesionArray/TwoDimesionArray.sol\":455:459  row1 */\n      dup2\n        /* \"contracts/3.1/06MultiDimesionArray/TwoDimesionArray.sol\":460:461  2 */\n      0x02\n        /* \"contracts/3.1/06MultiDimesionArray/TwoDimesionArray.sol\":455:462  row1[2] */\n      dup2\n      mload\n      dup2\n      lt\n      tag_72\n      jumpi\n      tag_73\n      tag_46\n      jump\t// in\n    tag_73:\n    tag_72:\n      0x20\n      mul\n      0x20\n      add\n      add\n        /* \"contracts/3.1/06MultiDimesionArray/TwoDimesionArray.sol\":455:464  row1[2]=3 */\n      dup2\n      dup2\n      mstore\n      pop\n      pop\n        /* \"contracts/3.1/06MultiDimesionArray/TwoDimesionArray.sol\":475:481  matrix */\n      0x00\n        /* \"contracts/3.1/06MultiDimesionArray/TwoDimesionArray.sol\":487:491  row1 */\n      dup2\n        /* \"contracts/3.1/06MultiDimesionArray/TwoDimesionArray.sol\":475:492  matrix.push(row1) */\n      swap1\n      dup1\n      0x01\n      dup2\n      sload\n      add\n      dup1\n      dup3\n      sstore\n      dup1\n      swap2\n      pop\n      pop\n      0x01\n      swap1\n      sub\n      swap1\n      0x00\n      mstore\n      keccak256(0x00, 0x20)\n      add\n      0x00\n      swap1\n      swap2\n      swap1\n      swap2\n      swap1\n      swap2\n      pop\n      swap1\n      dup2\n      tag_75\n      swap2\n      swap1\n      tag_76\n      jump\t// in\n    tag_75:\n      pop\n        /* \"contracts/3.1/06MultiDimesionArray/TwoDimesionArray.sol\":503:521  uint[] memory row2 */\n      0x00\n        /* \"contracts/3.1/06MultiDimesionArray/TwoDimesionArray.sol\":533:534  3 */\n      0x03\n        /* \"contracts/3.1/06MultiDimesionArray/TwoDimesionArray.sol\":522:535  new uint[](3) */\n      0xffffffffffffffff\n      dup2\n      gt\n      iszero\n      tag_77\n      jumpi\n      tag_78\n      tag_66\n      jump\t// in\n    tag_78:\n    tag_77:\n      mload(0x40)\n      swap1\n      dup1\n      dup3\n      mstore\n      dup1\n      0x20\n      mul\n      0x20\n      add\n      dup3\n      add\n      0x40\n      mstore\n      dup1\n      iszero\n      tag_79\n      jumpi\n      dup2\n      0x20\n      add\n      0x20\n      dup3\n      mul\n      dup1\n      calldatasize\n      dup4\n      calldatacopy\n      dup1\n      dup3\n      add\n      swap2\n      pop\n      pop\n      swap1\n      pop\n    tag_79:\n      pop\n        /* \"contracts/3.1/06MultiDimesionArray/TwoDimesionArray.sol\":503:535  uint[] memory row2=new uint[](3) */\n      swap1\n      pop\n        /* \"contracts/3.1/06MultiDimesionArray/TwoDimesionArray.sol\":554:555  4 */\n      0x04\n        /* \"contracts/3.1/06MultiDimesionArray/TwoDimesionArray.sol\":546:550  row2 */\n      dup2\n        /* \"contracts/3.1/06MultiDimesionArray/TwoDimesionArray.sol\":551:552  0 */\n      0x00\n        /* \"contracts/3.1/06MultiDimesionArray/TwoDimesionArray.sol\":546:553  row2[0] */\n      dup2\n      mload\n      dup2\n      lt\n      tag_80\n      jumpi\n      tag_81\n      tag_46\n      jump\t// in\n    tag_81:\n    tag_80:\n      0x20\n      mul\n      0x20\n      add\n      add\n        /* \"contracts/3.1/06MultiDimesionArray/TwoDimesionArray.sol\":546:555  row2[0]=4 */\n      dup2\n      dup2\n      mstore\n      pop\n      pop\n        /* \"contracts/3.1/06MultiDimesionArray/TwoDimesionArray.sol\":564:565  5 */\n      0x05\n        /* \"contracts/3.1/06MultiDimesionArray/TwoDimesionArray.sol\":556:560  row2 */\n      dup2\n        /* \"contracts/3.1/06MultiDimesionArray/TwoDimesionArray.sol\":561:562  1 */\n      0x01\n        /* \"contracts/3.1/06MultiDimesionArray/TwoDimesionArray.sol\":556:563  row2[1] */\n      dup2\n      mload\n      dup2\n      lt\n      tag_82\n      jumpi\n      tag_83\n      tag_46\n      jump\t// in\n    tag_83:\n    tag_82:\n      0x20\n      mul\n      0x20\n      add\n      add\n        /* \"contracts/3.1/06MultiDimesionArray/TwoDimesionArray.sol\":556:565  row2[1]=5 */\n      dup2\n      dup2\n      mstore\n      pop\n      pop\n        /* \"contracts/3.1/06MultiDimesionArray/TwoDimesionArray.sol\":574:575  6 */\n      0x06\n        /* \"contracts/3.1/06MultiDimesionArray/TwoDimesionArray.sol\":566:570  row2 */\n      dup2\n        /* \"contracts/3.1/06MultiDimesionArray/TwoDimesionArray.sol\":571:572  2 */\n      0x02\n        /* \"contracts/3.1/06MultiDimesionArray/TwoDimesionArray.sol\":566:573  row2[2] */\n      dup2\n      mload\n      dup2\n      lt\n      tag_84\n      jumpi\n      tag_85\n      tag_46\n      jump\t// in\n    tag_85:\n    tag_84:\n      0x20\n      mul\n      0x20\n      add\n      add\n        /* \"contracts/3.1/06MultiDimesionArray/TwoDimesionArray.sol\":566:575  row2[2]=6 */\n      dup2\n      dup2\n      mstore\n      pop\n      pop\n        /* \"contracts/3.1/06MultiDimesionArray/TwoDimesionArray.sol\":586:592  matrix */\n      0x00\n        /* \"contracts/3.1/06MultiDimesionArray/TwoDimesionArray.sol\":598:602  row2 */\n      dup2\n        /* \"contracts/3.1/06MultiDimesionArray/TwoDimesionArray.sol\":586:603  matrix.push(row2) */\n      swap1\n      dup1\n      0x01\n      dup2\n      sload\n      add\n      dup1\n      dup3\n      sstore\n      dup1\n      swap2\n      pop\n      pop\n      0x01\n      swap1\n      sub\n      swap1\n      0x00\n      mstore\n      keccak256(0x00, 0x20)\n      add\n      0x00\n      swap1\n      swap2\n      swap1\n      swap2\n      swap1\n      swap2\n      pop\n      swap1\n      dup2\n      tag_87\n      swap2\n      swap1\n      tag_76\n      jump\t// in\n    tag_87:\n      pop\n        /* \"contracts/3.1/06MultiDimesionArray/TwoDimesionArray.sol\":614:632  uint[] memory row3 */\n      0x00\n        /* \"contracts/3.1/06MultiDimesionArray/TwoDimesionArray.sol\":644:645  3 */\n      0x03\n        /* \"contracts/3.1/06MultiDimesionArray/TwoDimesionArray.sol\":633:646  new uint[](3) */\n      0xffffffffffffffff\n      dup2\n      gt\n      iszero\n      tag_88\n      jumpi\n      tag_89\n      tag_66\n      jump\t// in\n    tag_89:\n    tag_88:\n      mload(0x40)\n      swap1\n      dup1\n      dup3\n      mstore\n      dup1\n      0x20\n      mul\n      0x20\n      add\n      dup3\n      add\n      0x40\n      mstore\n      dup1\n      iszero\n      tag_90\n      jumpi\n      dup2\n      0x20\n      add\n      0x20\n      dup3\n      mul\n      dup1\n      calldatasize\n      dup4\n      calldatacopy\n      dup1\n      dup3\n      add\n      swap2\n      pop\n      pop\n      swap1\n      pop\n    tag_90:\n      pop\n        /* \"contracts/3.1/06MultiDimesionArray/TwoDimesionArray.sol\":614:646  uint[] memory row3=new uint[](3) */\n      swap1\n      pop\n        /* \"contracts/3.1/06MultiDimesionArray/TwoDimesionArray.sol\":665:666  7 */\n      0x07\n        /* \"contracts/3.1/06MultiDimesionArray/TwoDimesionArray.sol\":657:661  row3 */\n      dup2\n        /* \"contracts/3.1/06MultiDimesionArray/TwoDimesionArray.sol\":662:663  0 */\n      0x00\n        /* \"contracts/3.1/06MultiDimesionArray/TwoDimesionArray.sol\":657:664  row3[0] */\n      dup2\n      mload\n      dup2\n      lt\n      tag_91\n      jumpi\n      tag_92\n      tag_46\n      jump\t// in\n    tag_92:\n    tag_91:\n      0x20\n      mul\n      0x20\n      add\n      add\n        /* \"contracts/3.1/06MultiDimesionArray/TwoDimesionArray.sol\":657:666  row3[0]=7 */\n      dup2\n      dup2\n      mstore\n      pop\n      pop\n        /* \"contracts/3.1/06MultiDimesionArray/TwoDimesionArray.sol\":675:676  8 */\n      0x08\n        /* \"contracts/3.1/06MultiDimesionArray/TwoDimesionArray.sol\":667:671  row3 */\n      dup2\n        /* \"contracts/3.1/06MultiDimesionArray/TwoDimesionArray.sol\":672:673  1 */\n      0x01\n        /* \"contracts/3.1/06MultiDimesionArray/TwoDimesionArray.sol\":667:674  row3[1] */\n      dup2\n      mload\n      dup2\n      lt\n      tag_93\n      jumpi\n      tag_94\n      tag_46\n      jump\t// in\n    tag_94:\n    tag_93:\n      0x20\n      mul\n      0x20\n      add\n      add\n        /* \"contracts/3.1/06MultiDimesionArray/TwoDimesionArray.sol\":667:676  row3[1]=8 */\n      dup2\n      dup2\n      mstore\n      pop\n      pop\n        /* \"contracts/3.1/06MultiDimesionArray/TwoDimesionArray.sol\":685:686  9 */\n      0x09\n        /* \"contracts/3.1/06MultiDimesionArray/TwoDimesionArray.sol\":677:681  row3 */\n      dup2\n        /* \"contracts/3.1/06MultiDimesionArray/TwoDimesionArray.sol\":682:683  2 */\n      0x02\n        /* \"contracts/3.1/06MultiDimesionArray/TwoDimesionArray.sol\":677:684  row3[2] */\n      dup2\n      mload\n      dup2\n      lt\n      tag_95\n      jumpi\n      tag_96\n      tag_46\n      jump\t// in\n    tag_96:\n    tag_95:\n      0x20\n      mul\n      0x20\n      add\n      add\n        /* \"contracts/3.1/06MultiDimesionArray/TwoDimesionArray.sol\":677:686  row3[2]=9 */\n      dup2\n      dup2\n      mstore\n      pop\n      pop\n        /* \"contracts/3.1/06MultiDimesionArray/TwoDimesionArray.sol\":697:703  matrix */\n      0x00\n        /* \"contracts/3.1/06MultiDimesionArray/TwoDimesionArray.sol\":709:713  row3 */\n      dup2\n        /* \"contracts/3.1/06MultiDimesionArray/TwoDimesionArray.sol\":697:714  matrix.push(row3) */\n      swap1\n      dup1\n      0x01\n      dup2\n      sload\n      add\n      dup1\n      dup3\n      sstore\n      dup1\n      swap2\n      pop\n      pop\n      0x01\n      swap1\n      sub\n      swap1\n      0x00\n      mstore\n      keccak256(0x00, 0x20)\n      add\n      0x00\n      swap1\n      swap2\n      swap1\n      swap2\n      swap1\n      swap2\n      pop\n      swap1\n      dup2\n      tag_98\n      swap2\n      swap1\n      tag_76\n      jump\t// in\n    tag_98:\n      pop\n        /* \"contracts/3.1/06MultiDimesionArray/TwoDimesionArray.sol\":381:722  {... */\n      pop\n      pop\n      pop\n        /* \"contracts/3.1/06MultiDimesionArray/TwoDimesionArray.sol\":352:722  function initialize() public {... */\n      jump\t// out\n        /* \"contracts/3.1/06MultiDimesionArray/TwoDimesionArray.sol\":218:346  function addRow(uint[] calldata row) public returns(uint[][] memory) {... */\n    tag_24:\n        /* \"contracts/3.1/06MultiDimesionArray/TwoDimesionArray.sol\":270:285  uint[][] memory */\n      0x60\n        /* \"contracts/3.1/06MultiDimesionArray/TwoDimesionArray.sol\":298:304  matrix */\n      0x00\n        /* \"contracts/3.1/06MultiDimesionArray/TwoDimesionArray.sol\":310:313  row */\n      dup4\n      dup4\n        /* \"contracts/3.1/06MultiDimesionArray/TwoDimesionArray.sol\":298:314  matrix.push(row) */\n      swap1\n      swap2\n      dup1\n      0x01\n      dup2\n      sload\n      add\n      dup1\n      dup3\n      sstore\n      dup1\n      swap2\n      pop\n      pop\n      0x01\n      swap1\n      sub\n      swap1\n      0x00\n      mstore\n      keccak256(0x00, 0x20)\n      add\n      0x00\n      swap1\n      swap2\n      swap3\n      swap1\n      swap2\n      swap3\n      swap1\n      swap2\n      swap3\n      swap1\n      swap2\n      swap3\n      pop\n      swap2\n      dup3\n      tag_101\n      swap3\n      swap2\n      swap1\n      tag_102\n      jump\t// in\n    tag_101:\n      pop\n        /* \"contracts/3.1/06MultiDimesionArray/TwoDimesionArray.sol\":332:338  matrix */\n      0x00\n        /* \"contracts/3.1/06MultiDimesionArray/TwoDimesionArray.sol\":325:338  return matrix */\n      dup1\n      sload\n      dup1\n      0x20\n      mul\n      0x20\n      add\n      mload(0x40)\n      swap1\n      dup2\n      add\n      0x40\n      mstore\n      dup1\n      swap3\n      swap2\n      swap1\n      dup2\n      dup2\n      mstore\n      0x20\n      add\n      0x00\n      swap1\n    tag_103:\n      dup3\n      dup3\n      lt\n      iszero\n      tag_104\n      jumpi\n      dup4\n      dup3\n      swap1\n      0x00\n      mstore\n      keccak256(0x00, 0x20)\n      add\n      dup1\n      sload\n      dup1\n      0x20\n      mul\n      0x20\n      add\n      mload(0x40)\n      swap1\n      dup2\n      add\n      0x40\n      mstore\n      dup1\n      swap3\n      swap2\n      swap1\n      dup2\n      dup2\n      mstore\n      0x20\n      add\n      dup3\n      dup1\n      sload\n      dup1\n      iszero\n      tag_106\n      jumpi\n      0x20\n      mul\n      dup3\n      add\n      swap2\n      swap1\n      0x00\n      mstore\n      keccak256(0x00, 0x20)\n      swap1\n    tag_107:\n      dup2\n      sload\n      dup2\n      mstore\n      0x20\n      add\n      swap1\n      0x01\n      add\n      swap1\n      dup1\n      dup4\n      gt\n      tag_107\n      jumpi\n    tag_106:\n      pop\n      pop\n      pop\n      pop\n      pop\n      dup2\n      mstore\n      0x20\n      add\n      swap1\n      0x01\n      add\n      swap1\n      jump(tag_103)\n    tag_104:\n      pop\n      pop\n      pop\n      pop\n      swap1\n      pop\n        /* \"contracts/3.1/06MultiDimesionArray/TwoDimesionArray.sol\":218:346  function addRow(uint[] calldata row) public returns(uint[][] memory) {... */\n      swap3\n      swap2\n      pop\n      pop\n      jump\t// out\n        /* \"contracts/3.1/06MultiDimesionArray/TwoDimesionArray.sol\":119:212  function getAllElement() public view returns(uint[][] memory){... */\n    tag_28:\n        /* \"contracts/3.1/06MultiDimesionArray/TwoDimesionArray.sol\":164:179  uint[][] memory */\n      0x60\n        /* \"contracts/3.1/06MultiDimesionArray/TwoDimesionArray.sol\":198:204  matrix */\n      0x00\n        /* \"contracts/3.1/06MultiDimesionArray/TwoDimesionArray.sol\":191:204  return matrix */\n      dup1\n      sload\n      dup1\n      0x20\n      mul\n      0x20\n      add\n      mload(0x40)\n      swap1\n      dup2\n      add\n      0x40\n      mstore\n      dup1\n      swap3\n      swap2\n      swap1\n      dup2\n      dup2\n      mstore\n      0x20\n      add\n      0x00\n      swap1\n    tag_109:\n      dup3\n      dup3\n      lt\n      iszero\n      tag_110\n      jumpi\n      dup4\n      dup3\n      swap1\n      0x00\n      mstore\n      keccak256(0x00, 0x20)\n      add\n      dup1\n      sload\n      dup1\n      0x20\n      mul\n      0x20\n      add\n      mload(0x40)\n      swap1\n      dup2\n      add\n      0x40\n      mstore\n      dup1\n      swap3\n      swap2\n      swap1\n      dup2\n      dup2\n      mstore\n      0x20\n      add\n      dup3\n      dup1\n      sload\n      dup1\n      iszero\n      tag_112\n      jumpi\n      0x20\n      mul\n      dup3\n      add\n      swap2\n      swap1\n      0x00\n      mstore\n      keccak256(0x00, 0x20)\n      swap1\n    tag_113:\n      dup2\n      sload\n      dup2\n      mstore\n      0x20\n      add\n      swap1\n      0x01\n      add\n      swap1\n      dup1\n      dup4\n      gt\n      tag_113\n      jumpi\n    tag_112:\n      pop\n      pop\n      pop\n      pop\n      pop\n      dup2\n      mstore\n      0x20\n      add\n      swap1\n      0x01\n      add\n      swap1\n      jump(tag_109)\n    tag_110:\n      pop\n      pop\n      pop\n      pop\n      swap1\n      pop\n        /* \"contracts/3.1/06MultiDimesionArray/TwoDimesionArray.sol\":119:212  function getAllElement() public view returns(uint[][] memory){... */\n      swap1\n      jump\t// out\n        /* \"contracts/3.1/06MultiDimesionArray/TwoDimesionArray.sol\":730:983  function getElement(uint row,uint col) public view returns(uint){... */\n    tag_33:\n        /* \"contracts/3.1/06MultiDimesionArray/TwoDimesionArray.sol\":789:793  uint */\n      0x00\n        /* \"contracts/3.1/06MultiDimesionArray/TwoDimesionArray.sol\":817:823  matrix */\n      0x00\n        /* \"contracts/3.1/06MultiDimesionArray/TwoDimesionArray.sol\":817:830  matrix.length */\n      dup1\n      sload\n      swap1\n      pop\n        /* \"contracts/3.1/06MultiDimesionArray/TwoDimesionArray.sol\":813:816  row */\n      dup4\n        /* \"contracts/3.1/06MultiDimesionArray/TwoDimesionArray.sol\":813:830  row<matrix.length */\n      lt\n        /* \"contracts/3.1/06MultiDimesionArray/TwoDimesionArray.sol\":805:865  require(row<matrix.length,unicode\"超过数组最大行数\") */\n      tag_115\n      jumpi\n      mload(0x40)\n      0x08c379a000000000000000000000000000000000000000000000000000000000\n      dup2\n      mstore\n      0x04\n      add\n      tag_116\n      swap1\n      tag_43\n      jump\t// in\n    tag_116:\n      mload(0x40)\n      dup1\n      swap2\n      sub\n      swap1\n      revert\n    tag_115:\n        /* \"contracts/3.1/06MultiDimesionArray/TwoDimesionArray.sol\":888:894  matrix */\n      0x00\n        /* \"contracts/3.1/06MultiDimesionArray/TwoDimesionArray.sol\":895:898  row */\n      dup4\n        /* \"contracts/3.1/06MultiDimesionArray/TwoDimesionArray.sol\":888:899  matrix[row] */\n      dup2\n      sload\n      dup2\n      lt\n      tag_117\n      jumpi\n      tag_118\n      tag_46\n      jump\t// in\n    tag_118:\n    tag_117:\n      swap1\n      0x00\n      mstore\n      keccak256(0x00, 0x20)\n      add\n        /* \"contracts/3.1/06MultiDimesionArray/TwoDimesionArray.sol\":888:906  matrix[row].length */\n      dup1\n      sload\n      swap1\n      pop\n        /* \"contracts/3.1/06MultiDimesionArray/TwoDimesionArray.sol\":884:887  col */\n      dup3\n        /* \"contracts/3.1/06MultiDimesionArray/TwoDimesionArray.sol\":884:906  col<matrix[row].length */\n      lt\n        /* \"contracts/3.1/06MultiDimesionArray/TwoDimesionArray.sol\":876:941  require(col<matrix[row].length,unicode\"超过数组最大列数\") */\n      tag_120\n      jumpi\n      mload(0x40)\n      0x08c379a000000000000000000000000000000000000000000000000000000000\n      dup2\n      mstore\n      0x04\n      add\n      tag_121\n      swap1\n      tag_50\n      jump\t// in\n    tag_121:\n      mload(0x40)\n      dup1\n      swap2\n      sub\n      swap1\n      revert\n    tag_120:\n        /* \"contracts/3.1/06MultiDimesionArray/TwoDimesionArray.sol\":959:965  matrix */\n      0x00\n        /* \"contracts/3.1/06MultiDimesionArray/TwoDimesionArray.sol\":966:969  row */\n      dup4\n        /* \"contracts/3.1/06MultiDimesionArray/TwoDimesionArray.sol\":959:970  matrix[row] */\n      dup2\n      sload\n      dup2\n      lt\n      tag_122\n      jumpi\n      tag_123\n      tag_46\n      jump\t// in\n    tag_123:\n    tag_122:\n      swap1\n      0x00\n      mstore\n      keccak256(0x00, 0x20)\n      add\n        /* \"contracts/3.1/06MultiDimesionArray/TwoDimesionArray.sol\":971:974  col */\n      dup3\n        /* \"contracts/3.1/06MultiDimesionArray/TwoDimesionArray.sol\":959:975  matrix[row][col] */\n      dup2\n      sload\n      dup2\n      lt\n      tag_125\n      jumpi\n      tag_126\n      tag_46\n      jump\t// in\n    tag_126:\n    tag_125:\n      swap1\n      0x00\n      mstore\n      keccak256(0x00, 0x20)\n      add\n      sload\n        /* \"contracts/3.1/06MultiDimesionArray/TwoDimesionArray.sol\":952:975  return matrix[row][col] */\n      swap1\n      pop\n        /* \"contracts/3.1/06MultiDimesionArray/TwoDimesionArray.sol\":730:983  function getElement(uint row,uint col) public view returns(uint){... */\n      swap3\n      swap2\n      pop\n      pop\n      jump\t// out\n        /* \"contracts/3.1/06MultiDimesionArray/TwoDimesionArray.sol\":90:112  uint[][] public matrix */\n    tag_38:\n      0x00\n      dup3\n      dup2\n      sload\n      dup2\n      lt\n      tag_128\n      jumpi\n      0x00\n      dup1\n      revert\n    tag_128:\n      swap1\n      0x00\n      mstore\n      keccak256(0x00, 0x20)\n      add\n      dup2\n      dup2\n      sload\n      dup2\n      lt\n      tag_130\n      jumpi\n      0x00\n      dup1\n      revert\n    tag_130:\n      swap1\n      0x00\n      mstore\n      keccak256(0x00, 0x20)\n      add\n      0x00\n      swap2\n      pop\n      swap2\n      pop\n      pop\n      sload\n      dup2\n      jump\t// out\n        /* \"#utility.yul\":88:205   */\n    tag_133:\n        /* \"#utility.yul\":197:198   */\n      0x00\n        /* \"#utility.yul\":194:195   */\n      0x00\n        /* \"#utility.yul\":187:199   */\n      revert\n        /* \"#utility.yul\":211:328   */\n    tag_134:\n        /* \"#utility.yul\":320:321   */\n      0x00\n        /* \"#utility.yul\":317:318   */\n      0x00\n        /* \"#utility.yul\":310:322   */\n      revert\n        /* \"#utility.yul\":334:411   */\n    tag_135:\n        /* \"#utility.yul\":371:378   */\n      0x00\n        /* \"#utility.yul\":400:405   */\n      dup2\n        /* \"#utility.yul\":389:405   */\n      swap1\n      pop\n        /* \"#utility.yul\":334:411   */\n      swap2\n      swap1\n      pop\n      jump\t// out\n        /* \"#utility.yul\":417:539   */\n    tag_136:\n        /* \"#utility.yul\":490:514   */\n      tag_191\n        /* \"#utility.yul\":508:513   */\n      dup2\n        /* \"#utility.yul\":490:514   */\n      tag_135\n      jump\t// in\n    tag_191:\n        /* \"#utility.yul\":483:488   */\n      dup2\n        /* \"#utility.yul\":480:515   */\n      eq\n        /* \"#utility.yul\":470:533   */\n      tag_192\n      jumpi\n        /* \"#utility.yul\":529:530   */\n      0x00\n        /* \"#utility.yul\":526:527   */\n      0x00\n        /* \"#utility.yul\":519:531   */\n      revert\n        /* \"#utility.yul\":470:533   */\n    tag_192:\n        /* \"#utility.yul\":417:539   */\n      pop\n      jump\t// out\n        /* \"#utility.yul\":545:684   */\n    tag_137:\n        /* \"#utility.yul\":591:596   */\n      0x00\n        /* \"#utility.yul\":629:635   */\n      dup2\n        /* \"#utility.yul\":616:636   */\n      calldataload\n        /* \"#utility.yul\":607:636   */\n      swap1\n      pop\n        /* \"#utility.yul\":645:678   */\n      tag_194\n        /* \"#utility.yul\":672:677   */\n      dup2\n        /* \"#utility.yul\":645:678   */\n      tag_136\n      jump\t// in\n    tag_194:\n        /* \"#utility.yul\":545:684   */\n      swap3\n      swap2\n      pop\n      pop\n      jump\t// out\n        /* \"#utility.yul\":690:1309   */\n    tag_13:\n        /* \"#utility.yul\":767:773   */\n      0x00\n        /* \"#utility.yul\":775:781   */\n      0x00\n        /* \"#utility.yul\":783:789   */\n      0x00\n        /* \"#utility.yul\":832:834   */\n      0x60\n        /* \"#utility.yul\":820:829   */\n      dup5\n        /* \"#utility.yul\":811:818   */\n      dup7\n        /* \"#utility.yul\":807:830   */\n      sub\n        /* \"#utility.yul\":803:835   */\n      slt\n        /* \"#utility.yul\":800:919   */\n      iszero\n      tag_196\n      jumpi\n        /* \"#utility.yul\":838:917   */\n      tag_197\n      tag_133\n      jump\t// in\n    tag_197:\n        /* \"#utility.yul\":800:919   */\n    tag_196:\n        /* \"#utility.yul\":958:959   */\n      0x00\n        /* \"#utility.yul\":983:1036   */\n      tag_198\n        /* \"#utility.yul\":1028:1035   */\n      dup7\n        /* \"#utility.yul\":1019:1025   */\n      dup3\n        /* \"#utility.yul\":1008:1017   */\n      dup8\n        /* \"#utility.yul\":1004:1026   */\n      add\n        /* \"#utility.yul\":983:1036   */\n      tag_137\n      jump\t// in\n    tag_198:\n        /* \"#utility.yul\":973:1036   */\n      swap4\n      pop\n        /* \"#utility.yul\":929:1046   */\n      pop\n        /* \"#utility.yul\":1085:1087   */\n      0x20\n        /* \"#utility.yul\":1111:1164   */\n      tag_199\n        /* \"#utility.yul\":1156:1163   */\n      dup7\n        /* \"#utility.yul\":1147:1153   */\n      dup3\n        /* \"#utility.yul\":1136:1145   */\n      dup8\n        /* \"#utility.yul\":1132:1154   */\n      add\n        /* \"#utility.yul\":1111:1164   */\n      tag_137\n      jump\t// in\n    tag_199:\n        /* \"#utility.yul\":1101:1164   */\n      swap3\n      pop\n        /* \"#utility.yul\":1056:1174   */\n      pop\n        /* \"#utility.yul\":1213:1215   */\n      0x40\n        /* \"#utility.yul\":1239:1292   */\n      tag_200\n        /* \"#utility.yul\":1284:1291   */\n      dup7\n        /* \"#utility.yul\":1275:1281   */\n      dup3\n        /* \"#utility.yul\":1264:1273   */\n      dup8\n        /* \"#utility.yul\":1260:1282   */\n      add\n        /* \"#utility.yul\":1239:1292   */\n      tag_137\n      jump\t// in\n    tag_200:\n        /* \"#utility.yul\":1229:1292   */\n      swap2\n      pop\n        /* \"#utility.yul\":1184:1302   */\n      pop\n        /* \"#utility.yul\":690:1309   */\n      swap3\n      pop\n      swap3\n      pop\n      swap3\n      jump\t// out\n        /* \"#utility.yul\":1315:1433   */\n    tag_138:\n        /* \"#utility.yul\":1402:1426   */\n      tag_202\n        /* \"#utility.yul\":1420:1425   */\n      dup2\n        /* \"#utility.yul\":1402:1426   */\n      tag_135\n      jump\t// in\n    tag_202:\n        /* \"#utility.yul\":1397:1400   */\n      dup3\n        /* \"#utility.yul\":1390:1427   */\n      mstore\n        /* \"#utility.yul\":1315:1433   */\n      pop\n      pop\n      jump\t// out\n        /* \"#utility.yul\":1439:1771   */\n    tag_18:\n        /* \"#utility.yul\":1560:1564   */\n      0x00\n        /* \"#utility.yul\":1598:1600   */\n      0x40\n        /* \"#utility.yul\":1587:1596   */\n      dup3\n        /* \"#utility.yul\":1583:1601   */\n      add\n        /* \"#utility.yul\":1575:1601   */\n      swap1\n      pop\n        /* \"#utility.yul\":1611:1682   */\n      tag_204\n        /* \"#utility.yul\":1679:1680   */\n      0x00\n        /* \"#utility.yul\":1668:1677   */\n      dup4\n        /* \"#utility.yul\":1664:1681   */\n      add\n        /* \"#utility.yul\":1655:1661   */\n      dup6\n        /* \"#utility.yul\":1611:1682   */\n      tag_138\n      jump\t// in\n    tag_204:\n        /* \"#utility.yul\":1692:1764   */\n      tag_205\n        /* \"#utility.yul\":1760:1762   */\n      0x20\n        /* \"#utility.yul\":1749:1758   */\n      dup4\n        /* \"#utility.yul\":1745:1763   */\n      add\n        /* \"#utility.yul\":1736:1742   */\n      dup5\n        /* \"#utility.yul\":1692:1764   */\n      tag_138\n      jump\t// in\n    tag_205:\n        /* \"#utility.yul\":1439:1771   */\n      swap4\n      swap3\n      pop\n      pop\n      pop\n      jump\t// out\n        /* \"#utility.yul\":1777:1894   */\n    tag_139:\n        /* \"#utility.yul\":1886:1887   */\n      0x00\n        /* \"#utility.yul\":1883:1884   */\n      0x00\n        /* \"#utility.yul\":1876:1888   */\n      revert\n        /* \"#utility.yul\":1900:2017   */\n    tag_140:\n        /* \"#utility.yul\":2009:2010   */\n      0x00\n        /* \"#utility.yul\":2006:2007   */\n      0x00\n        /* \"#utility.yul\":1999:2011   */\n      revert\n        /* \"#utility.yul\":2023:2140   */\n    tag_141:\n        /* \"#utility.yul\":2132:2133   */\n      0x00\n        /* \"#utility.yul\":2129:2130   */\n      0x00\n        /* \"#utility.yul\":2122:2134   */\n      revert\n        /* \"#utility.yul\":2163:2731   */\n    tag_142:\n        /* \"#utility.yul\":2236:2244   */\n      0x00\n        /* \"#utility.yul\":2246:2252   */\n      0x00\n        /* \"#utility.yul\":2296:2299   */\n      dup4\n        /* \"#utility.yul\":2289:2293   */\n      0x1f\n        /* \"#utility.yul\":2281:2287   */\n      dup5\n        /* \"#utility.yul\":2277:2294   */\n      add\n        /* \"#utility.yul\":2273:2300   */\n      slt\n        /* \"#utility.yul\":2263:2385   */\n      tag_210\n      jumpi\n        /* \"#utility.yul\":2304:2383   */\n      tag_211\n      tag_139\n      jump\t// in\n    tag_211:\n        /* \"#utility.yul\":2263:2385   */\n    tag_210:\n        /* \"#utility.yul\":2417:2423   */\n      dup3\n        /* \"#utility.yul\":2404:2424   */\n      calldataload\n        /* \"#utility.yul\":2394:2424   */\n      swap1\n      pop\n        /* \"#utility.yul\":2447:2465   */\n      0xffffffffffffffff\n        /* \"#utility.yul\":2439:2445   */\n      dup2\n        /* \"#utility.yul\":2436:2466   */\n      gt\n        /* \"#utility.yul\":2433:2550   */\n      iszero\n      tag_212\n      jumpi\n        /* \"#utility.yul\":2469:2548   */\n      tag_213\n      tag_140\n      jump\t// in\n    tag_213:\n        /* \"#utility.yul\":2433:2550   */\n    tag_212:\n        /* \"#utility.yul\":2583:2587   */\n      0x20\n        /* \"#utility.yul\":2575:2581   */\n      dup4\n        /* \"#utility.yul\":2571:2588   */\n      add\n        /* \"#utility.yul\":2559:2588   */\n      swap2\n      pop\n        /* \"#utility.yul\":2637:2640   */\n      dup4\n        /* \"#utility.yul\":2629:2633   */\n      0x20\n        /* \"#utility.yul\":2621:2627   */\n      dup3\n        /* \"#utility.yul\":2617:2634   */\n      mul\n        /* \"#utility.yul\":2607:2615   */\n      dup4\n        /* \"#utility.yul\":2603:2635   */\n      add\n        /* \"#utility.yul\":2600:2641   */\n      gt\n        /* \"#utility.yul\":2597:2725   */\n      iszero\n      tag_214\n      jumpi\n        /* \"#utility.yul\":2644:2723   */\n      tag_215\n      tag_141\n      jump\t// in\n    tag_215:\n        /* \"#utility.yul\":2597:2725   */\n    tag_214:\n        /* \"#utility.yul\":2163:2731   */\n      swap3\n      pop\n      swap3\n      swap1\n      pop\n      jump\t// out\n        /* \"#utility.yul\":2737:3296   */\n    tag_23:\n        /* \"#utility.yul\":2823:2829   */\n      0x00\n        /* \"#utility.yul\":2831:2837   */\n      0x00\n        /* \"#utility.yul\":2880:2882   */\n      0x20\n        /* \"#utility.yul\":2868:2877   */\n      dup4\n        /* \"#utility.yul\":2859:2866   */\n      dup6\n        /* \"#utility.yul\":2855:2878   */\n      sub\n        /* \"#utility.yul\":2851:2883   */\n      slt\n        /* \"#utility.yul\":2848:2967   */\n      iszero\n      tag_217\n      jumpi\n        /* \"#utility.yul\":2886:2965   */\n      tag_218\n      tag_133\n      jump\t// in\n    tag_218:\n        /* \"#utility.yul\":2848:2967   */\n    tag_217:\n        /* \"#utility.yul\":3034:3035   */\n      0x00\n        /* \"#utility.yul\":3023:3032   */\n      dup4\n        /* \"#utility.yul\":3019:3036   */\n      add\n        /* \"#utility.yul\":3006:3037   */\n      calldataload\n        /* \"#utility.yul\":3064:3082   */\n      0xffffffffffffffff\n        /* \"#utility.yul\":3056:3062   */\n      dup2\n        /* \"#utility.yul\":3053:3083   */\n      gt\n        /* \"#utility.yul\":3050:3167   */\n      iszero\n      tag_219\n      jumpi\n        /* \"#utility.yul\":3086:3165   */\n      tag_220\n      tag_134\n      jump\t// in\n    tag_220:\n        /* \"#utility.yul\":3050:3167   */\n    tag_219:\n        /* \"#utility.yul\":3199:3279   */\n      tag_221\n        /* \"#utility.yul\":3271:3278   */\n      dup6\n        /* \"#utility.yul\":3262:3268   */\n      dup3\n        /* \"#utility.yul\":3251:3260   */\n      dup7\n        /* \"#utility.yul\":3247:3269   */\n      add\n        /* \"#utility.yul\":3199:3279   */\n      tag_142\n      jump\t// in\n    tag_221:\n        /* \"#utility.yul\":3181:3279   */\n      swap3\n      pop\n      swap3\n      pop\n        /* \"#utility.yul\":2977:3289   */\n      pop\n        /* \"#utility.yul\":2737:3296   */\n      swap3\n      pop\n      swap3\n      swap1\n      pop\n      jump\t// out\n        /* \"#utility.yul\":3302:3441   */\n    tag_143:\n        /* \"#utility.yul\":3394:3400   */\n      0x00\n        /* \"#utility.yul\":3428:3433   */\n      dup2\n        /* \"#utility.yul\":3422:3434   */\n      mload\n        /* \"#utility.yul\":3412:3434   */\n      swap1\n      pop\n        /* \"#utility.yul\":3302:3441   */\n      swap2\n      swap1\n      pop\n      jump\t// out\n        /* \"#utility.yul\":3447:3656   */\n    tag_144:\n        /* \"#utility.yul\":3571:3582   */\n      0x00\n        /* \"#utility.yul\":3605:3611   */\n      dup3\n        /* \"#utility.yul\":3600:3603   */\n      dup3\n        /* \"#utility.yul\":3593:3612   */\n      mstore\n        /* \"#utility.yul\":3645:3649   */\n      0x20\n        /* \"#utility.yul\":3640:3643   */\n      dup3\n        /* \"#utility.yul\":3636:3650   */\n      add\n        /* \"#utility.yul\":3621:3650   */\n      swap1\n      pop\n        /* \"#utility.yul\":3447:3656   */\n      swap3\n      swap2\n      pop\n      pop\n      jump\t// out\n        /* \"#utility.yul\":3662:3819   */\n    tag_145:\n        /* \"#utility.yul\":3754:3758   */\n      0x00\n        /* \"#utility.yul\":3777:3780   */\n      dup2\n        /* \"#utility.yul\":3769:3780   */\n      swap1\n      pop\n        /* \"#utility.yul\":3807:3811   */\n      0x20\n        /* \"#utility.yul\":3802:3805   */\n      dup3\n        /* \"#utility.yul\":3798:3812   */\n      add\n        /* \"#utility.yul\":3790:3812   */\n      swap1\n      pop\n        /* \"#utility.yul\":3662:3819   */\n      swap2\n      swap1\n      pop\n      jump\t// out\n        /* \"#utility.yul\":3825:3939   */\n    tag_146:\n        /* \"#utility.yul\":3892:3898   */\n      0x00\n        /* \"#utility.yul\":3926:3931   */\n      dup2\n        /* \"#utility.yul\":3920:3932   */\n      mload\n        /* \"#utility.yul\":3910:3932   */\n      swap1\n      pop\n        /* \"#utility.yul\":3825:3939   */\n      swap2\n      swap1\n      pop\n      jump\t// out\n        /* \"#utility.yul\":3945:4119   */\n    tag_147:\n        /* \"#utility.yul\":4034:4045   */\n      0x00\n        /* \"#utility.yul\":4068:4074   */\n      dup3\n        /* \"#utility.yul\":4063:4066   */\n      dup3\n        /* \"#utility.yul\":4056:4075   */\n      mstore\n        /* \"#utility.yul\":4108:4112   */\n      0x20\n        /* \"#utility.yul\":4103:4106   */\n      dup3\n        /* \"#utility.yul\":4099:4113   */\n      add\n        /* \"#utility.yul\":4084:4113   */\n      swap1\n      pop\n        /* \"#utility.yul\":3945:4119   */\n      swap3\n      swap2\n      pop\n      pop\n      jump\t// out\n        /* \"#utility.yul\":4125:4257   */\n    tag_148:\n        /* \"#utility.yul\":4192:4196   */\n      0x00\n        /* \"#utility.yul\":4215:4218   */\n      dup2\n        /* \"#utility.yul\":4207:4218   */\n      swap1\n      pop\n        /* \"#utility.yul\":4245:4249   */\n      0x20\n        /* \"#utility.yul\":4240:4243   */\n      dup3\n        /* \"#utility.yul\":4236:4250   */\n      add\n        /* \"#utility.yul\":4228:4250   */\n      swap1\n      pop\n        /* \"#utility.yul\":4125:4257   */\n      swap2\n      swap1\n      pop\n      jump\t// out\n        /* \"#utility.yul\":4263:4371   */\n    tag_149:\n        /* \"#utility.yul\":4340:4364   */\n      tag_229\n        /* \"#utility.yul\":4358:4363   */\n      dup2\n        /* \"#utility.yul\":4340:4364   */\n      tag_135\n      jump\t// in\n    tag_229:\n        /* \"#utility.yul\":4335:4338   */\n      dup3\n        /* \"#utility.yul\":4328:4365   */\n      mstore\n        /* \"#utility.yul\":4263:4371   */\n      pop\n      pop\n      jump\t// out\n        /* \"#utility.yul\":4377:4556   */\n    tag_150:\n        /* \"#utility.yul\":4446:4456   */\n      0x00\n        /* \"#utility.yul\":4467:4513   */\n      tag_231\n        /* \"#utility.yul\":4509:4512   */\n      dup4\n        /* \"#utility.yul\":4501:4507   */\n      dup4\n        /* \"#utility.yul\":4467:4513   */\n      tag_149\n      jump\t// in\n    tag_231:\n        /* \"#utility.yul\":4545:4549   */\n      0x20\n        /* \"#utility.yul\":4540:4543   */\n      dup4\n        /* \"#utility.yul\":4536:4550   */\n      add\n        /* \"#utility.yul\":4522:4550   */\n      swap1\n      pop\n        /* \"#utility.yul\":4377:4556   */\n      swap3\n      swap2\n      pop\n      pop\n      jump\t// out\n        /* \"#utility.yul\":4562:4675   */\n    tag_151:\n        /* \"#utility.yul\":4632:4636   */\n      0x00\n        /* \"#utility.yul\":4664:4668   */\n      0x20\n        /* \"#utility.yul\":4659:4662   */\n      dup3\n        /* \"#utility.yul\":4655:4669   */\n      add\n        /* \"#utility.yul\":4647:4669   */\n      swap1\n      pop\n        /* \"#utility.yul\":4562:4675   */\n      swap2\n      swap1\n      pop\n      jump\t// out\n        /* \"#utility.yul\":4711:5423   */\n    tag_152:\n        /* \"#utility.yul\":4820:4823   */\n      0x00\n        /* \"#utility.yul\":4849:4903   */\n      tag_234\n        /* \"#utility.yul\":4897:4902   */\n      dup3\n        /* \"#utility.yul\":4849:4903   */\n      tag_146\n      jump\t// in\n    tag_234:\n        /* \"#utility.yul\":4919:4995   */\n      tag_235\n        /* \"#utility.yul\":4988:4994   */\n      dup2\n        /* \"#utility.yul\":4983:4986   */\n      dup6\n        /* \"#utility.yul\":4919:4995   */\n      tag_147\n      jump\t// in\n    tag_235:\n        /* \"#utility.yul\":4912:4995   */\n      swap4\n      pop\n        /* \"#utility.yul\":5019:5075   */\n      tag_236\n        /* \"#utility.yul\":5069:5074   */\n      dup4\n        /* \"#utility.yul\":5019:5075   */\n      tag_148\n      jump\t// in\n    tag_236:\n        /* \"#utility.yul\":5098:5105   */\n      dup1\n        /* \"#utility.yul\":5129:5130   */\n      0x00\n        /* \"#utility.yul\":5114:5398   */\n    tag_237:\n        /* \"#utility.yul\":5139:5145   */\n      dup4\n        /* \"#utility.yul\":5136:5137   */\n      dup2\n        /* \"#utility.yul\":5133:5146   */\n      lt\n        /* \"#utility.yul\":5114:5398   */\n      iszero\n      tag_239\n      jumpi\n        /* \"#utility.yul\":5215:5221   */\n      dup2\n        /* \"#utility.yul\":5209:5222   */\n      mload\n        /* \"#utility.yul\":5242:5305   */\n      tag_240\n        /* \"#utility.yul\":5301:5304   */\n      dup9\n        /* \"#utility.yul\":5286:5299   */\n      dup3\n        /* \"#utility.yul\":5242:5305   */\n      tag_150\n      jump\t// in\n    tag_240:\n        /* \"#utility.yul\":5235:5305   */\n      swap8\n      pop\n        /* \"#utility.yul\":5328:5388   */\n      tag_241\n        /* \"#utility.yul\":5381:5387   */\n      dup4\n        /* \"#utility.yul\":5328:5388   */\n      tag_151\n      jump\t// in\n    tag_241:\n        /* \"#utility.yul\":5318:5388   */\n      swap3\n      pop\n        /* \"#utility.yul\":5174:5398   */\n      pop\n        /* \"#utility.yul\":5161:5162   */\n      0x01\n        /* \"#utility.yul\":5158:5159   */\n      dup2\n        /* \"#utility.yul\":5154:5163   */\n      add\n        /* \"#utility.yul\":5149:5163   */\n      swap1\n      pop\n        /* \"#utility.yul\":5114:5398   */\n      jump(tag_237)\n    tag_239:\n        /* \"#utility.yul\":5118:5132   */\n      pop\n        /* \"#utility.yul\":5414:5417   */\n      dup6\n        /* \"#utility.yul\":5407:5417   */\n      swap4\n      pop\n        /* \"#utility.yul\":4825:5423   */\n      pop\n      pop\n      pop\n        /* \"#utility.yul\":4711:5423   */\n      swap3\n      swap2\n      pop\n      pop\n      jump\t// out\n        /* \"#utility.yul\":5429:5685   */\n    tag_153:\n        /* \"#utility.yul\":5548:5558   */\n      0x00\n        /* \"#utility.yul\":5583:5679   */\n      tag_243\n        /* \"#utility.yul\":5675:5678   */\n      dup4\n        /* \"#utility.yul\":5667:5673   */\n      dup4\n        /* \"#utility.yul\":5583:5679   */\n      tag_152\n      jump\t// in\n    tag_243:\n        /* \"#utility.yul\":5569:5679   */\n      swap1\n      pop\n        /* \"#utility.yul\":5429:5685   */\n      swap3\n      swap2\n      pop\n      pop\n      jump\t// out\n        /* \"#utility.yul\":5691:5829   */\n    tag_154:\n        /* \"#utility.yul\":5786:5790   */\n      0x00\n        /* \"#utility.yul\":5818:5822   */\n      0x20\n        /* \"#utility.yul\":5813:5816   */\n      dup3\n        /* \"#utility.yul\":5809:5823   */\n      add\n        /* \"#utility.yul\":5801:5823   */\n      swap1\n      pop\n        /* \"#utility.yul\":5691:5829   */\n      swap2\n      swap1\n      pop\n      jump\t// out\n        /* \"#utility.yul\":5869:6980   */\n    tag_155:\n        /* \"#utility.yul\":6038:6041   */\n      0x00\n        /* \"#utility.yul\":6067:6146   */\n      tag_246\n        /* \"#utility.yul\":6140:6145   */\n      dup3\n        /* \"#utility.yul\":6067:6146   */\n      tag_143\n      jump\t// in\n    tag_246:\n        /* \"#utility.yul\":6162:6273   */\n      tag_247\n        /* \"#utility.yul\":6266:6272   */\n      dup2\n        /* \"#utility.yul\":6261:6264   */\n      dup6\n        /* \"#utility.yul\":6162:6273   */\n      tag_144\n      jump\t// in\n    tag_247:\n        /* \"#utility.yul\":6155:6273   */\n      swap4\n      pop\n        /* \"#utility.yul\":6299:6302   */\n      dup4\n        /* \"#utility.yul\":6344:6348   */\n      0x20\n        /* \"#utility.yul\":6336:6342   */\n      dup3\n        /* \"#utility.yul\":6332:6349   */\n      mul\n        /* \"#utility.yul\":6327:6330   */\n      dup6\n        /* \"#utility.yul\":6323:6350   */\n      add\n        /* \"#utility.yul\":6374:6455   */\n      tag_248\n        /* \"#utility.yul\":6449:6454   */\n      dup6\n        /* \"#utility.yul\":6374:6455   */\n      tag_145\n      jump\t// in\n    tag_248:\n        /* \"#utility.yul\":6478:6485   */\n      dup1\n        /* \"#utility.yul\":6509:6510   */\n      0x00\n        /* \"#utility.yul\":6494:6935   */\n    tag_249:\n        /* \"#utility.yul\":6519:6525   */\n      dup6\n        /* \"#utility.yul\":6516:6517   */\n      dup2\n        /* \"#utility.yul\":6513:6526   */\n      lt\n        /* \"#utility.yul\":6494:6935   */\n      iszero\n      tag_251\n      jumpi\n        /* \"#utility.yul\":6590:6599   */\n      dup5\n        /* \"#utility.yul\":6584:6588   */\n      dup5\n        /* \"#utility.yul\":6580:6600   */\n      sub\n        /* \"#utility.yul\":6575:6578   */\n      dup10\n        /* \"#utility.yul\":6568:6601   */\n      mstore\n        /* \"#utility.yul\":6641:6647   */\n      dup2\n        /* \"#utility.yul\":6635:6648   */\n      mload\n        /* \"#utility.yul\":6669:6783   */\n      tag_252\n        /* \"#utility.yul\":6778:6782   */\n      dup6\n        /* \"#utility.yul\":6763:6776   */\n      dup3\n        /* \"#utility.yul\":6669:6783   */\n      tag_153\n      jump\t// in\n    tag_252:\n        /* \"#utility.yul\":6661:6783   */\n      swap5\n      pop\n        /* \"#utility.yul\":6806:6891   */\n      tag_253\n        /* \"#utility.yul\":6884:6890   */\n      dup4\n        /* \"#utility.yul\":6806:6891   */\n      tag_154\n      jump\t// in\n    tag_253:\n        /* \"#utility.yul\":6796:6891   */\n      swap3\n      pop\n        /* \"#utility.yul\":6920:6924   */\n      0x20\n        /* \"#utility.yul\":6915:6918   */\n      dup11\n        /* \"#utility.yul\":6911:6925   */\n      add\n        /* \"#utility.yul\":6904:6925   */\n      swap10\n      pop\n        /* \"#utility.yul\":6554:6935   */\n      pop\n        /* \"#utility.yul\":6541:6542   */\n      0x01\n        /* \"#utility.yul\":6538:6539   */\n      dup2\n        /* \"#utility.yul\":6534:6543   */\n      add\n        /* \"#utility.yul\":6529:6543   */\n      swap1\n      pop\n        /* \"#utility.yul\":6494:6935   */\n      jump(tag_249)\n    tag_251:\n        /* \"#utility.yul\":6498:6512   */\n      pop\n        /* \"#utility.yul\":6951:6955   */\n      dup3\n        /* \"#utility.yul\":6944:6955   */\n      swap8\n      pop\n        /* \"#utility.yul\":6971:6974   */\n      dup8\n        /* \"#utility.yul\":6964:6974   */\n      swap6\n      pop\n        /* \"#utility.yul\":6043:6980   */\n      pop\n      pop\n      pop\n      pop\n      pop\n        /* \"#utility.yul\":5869:6980   */\n      swap3\n      swap2\n      pop\n      pop\n      jump\t// out\n        /* \"#utility.yul\":6986:7459   */\n    tag_26:\n        /* \"#utility.yul\":7179:7183   */\n      0x00\n        /* \"#utility.yul\":7217:7219   */\n      0x20\n        /* \"#utility.yul\":7206:7215   */\n      dup3\n        /* \"#utility.yul\":7202:7220   */\n      add\n        /* \"#utility.yul\":7194:7220   */\n      swap1\n      pop\n        /* \"#utility.yul\":7266:7275   */\n      dup2\n        /* \"#utility.yul\":7260:7264   */\n      dup2\n        /* \"#utility.yul\":7256:7276   */\n      sub\n        /* \"#utility.yul\":7252:7253   */\n      0x00\n        /* \"#utility.yul\":7241:7250   */\n      dup4\n        /* \"#utility.yul\":7237:7254   */\n      add\n        /* \"#utility.yul\":7230:7277   */\n      mstore\n        /* \"#utility.yul\":7294:7452   */\n      tag_255\n        /* \"#utility.yul\":7447:7451   */\n      dup2\n        /* \"#utility.yul\":7438:7444   */\n      dup5\n        /* \"#utility.yul\":7294:7452   */\n      tag_155\n      jump\t// in\n    tag_255:\n        /* \"#utility.yul\":7286:7452   */\n      swap1\n      pop\n        /* \"#utility.yul\":6986:7459   */\n      swap3\n      swap2\n      pop\n      pop\n      jump\t// out\n        /* \"#utility.yul\":7465:7939   */\n    tag_32:\n        /* \"#utility.yul\":7533:7539   */\n      0x00\n        /* \"#utility.yul\":7541:7547   */\n      0x00\n        /* \"#utility.yul\":7590:7592   */\n      0x40\n        /* \"#utility.yul\":7578:7587   */\n      dup4\n        /* \"#utility.yul\":7569:7576   */\n      dup6\n        /* \"#utility.yul\":7565:7588   */\n      sub\n        /* \"#utility.yul\":7561:7593   */\n      slt\n        /* \"#utility.yul\":7558:7677   */\n      iszero\n      tag_257\n      jumpi\n        /* \"#utility.yul\":7596:7675   */\n      tag_258\n      tag_133\n      jump\t// in\n    tag_258:\n        /* \"#utility.yul\":7558:7677   */\n    tag_257:\n        /* \"#utility.yul\":7716:7717   */\n      0x00\n        /* \"#utility.yul\":7741:7794   */\n      tag_259\n        /* \"#utility.yul\":7786:7793   */\n      dup6\n        /* \"#utility.yul\":7777:7783   */\n      dup3\n        /* \"#utility.yul\":7766:7775   */\n      dup7\n        /* \"#utility.yul\":7762:7784   */\n      add\n        /* \"#utility.yul\":7741:7794   */\n      tag_137\n      jump\t// in\n    tag_259:\n        /* \"#utility.yul\":7731:7794   */\n      swap3\n      pop\n        /* \"#utility.yul\":7687:7804   */\n      pop\n        /* \"#utility.yul\":7843:7845   */\n      0x20\n        /* \"#utility.yul\":7869:7922   */\n      tag_260\n        /* \"#utility.yul\":7914:7921   */\n      dup6\n        /* \"#utility.yul\":7905:7911   */\n      dup3\n        /* \"#utility.yul\":7894:7903   */\n      dup7\n        /* \"#utility.yul\":7890:7912   */\n      add\n        /* \"#utility.yul\":7869:7922   */\n      tag_137\n      jump\t// in\n    tag_260:\n        /* \"#utility.yul\":7859:7922   */\n      swap2\n      pop\n        /* \"#utility.yul\":7814:7932   */\n      pop\n        /* \"#utility.yul\":7465:7939   */\n      swap3\n      pop\n      swap3\n      swap1\n      pop\n      jump\t// out\n        /* \"#utility.yul\":7945:8167   */\n    tag_35:\n        /* \"#utility.yul\":8038:8042   */\n      0x00\n        /* \"#utility.yul\":8076:8078   */\n      0x20\n        /* \"#utility.yul\":8065:8074   */\n      dup3\n        /* \"#utility.yul\":8061:8079   */\n      add\n        /* \"#utility.yul\":8053:8079   */\n      swap1\n      pop\n        /* \"#utility.yul\":8089:8160   */\n      tag_262\n        /* \"#utility.yul\":8157:8158   */\n      0x00\n        /* \"#utility.yul\":8146:8155   */\n      dup4\n        /* \"#utility.yul\":8142:8159   */\n      add\n        /* \"#utility.yul\":8133:8139   */\n      dup5\n        /* \"#utility.yul\":8089:8160   */\n      tag_138\n      jump\t// in\n    tag_262:\n        /* \"#utility.yul\":7945:8167   */\n      swap3\n      swap2\n      pop\n      pop\n      jump\t// out\n        /* \"#utility.yul\":8173:8342   */\n    tag_156:\n        /* \"#utility.yul\":8257:8268   */\n      0x00\n        /* \"#utility.yul\":8291:8297   */\n      dup3\n        /* \"#utility.yul\":8286:8289   */\n      dup3\n        /* \"#utility.yul\":8279:8298   */\n      mstore\n        /* \"#utility.yul\":8331:8335   */\n      0x20\n        /* \"#utility.yul\":8326:8329   */\n      dup3\n        /* \"#utility.yul\":8322:8336   */\n      add\n        /* \"#utility.yul\":8307:8336   */\n      swap1\n      pop\n        /* \"#utility.yul\":8173:8342   */\n      swap3\n      swap2\n      pop\n      pop\n      jump\t// out\n        /* \"#utility.yul\":8348:8562   */\n    tag_157:\n        /* \"#utility.yul\":8488:8554   */\n      0xe8b685e8bf87e695b0e7bb84e69c80e5a4a7e8a18ce695b00000000000000000\n        /* \"#utility.yul\":8484:8485   */\n      0x00\n        /* \"#utility.yul\":8476:8482   */\n      dup3\n        /* \"#utility.yul\":8472:8486   */\n      add\n        /* \"#utility.yul\":8465:8555   */\n      mstore\n        /* \"#utility.yul\":8348:8562   */\n      pop\n      jump\t// out\n        /* \"#utility.yul\":8568:8934   */\n    tag_158:\n        /* \"#utility.yul\":8710:8713   */\n      0x00\n        /* \"#utility.yul\":8731:8798   */\n      tag_266\n        /* \"#utility.yul\":8795:8797   */\n      0x18\n        /* \"#utility.yul\":8790:8793   */\n      dup4\n        /* \"#utility.yul\":8731:8798   */\n      tag_156\n      jump\t// in\n    tag_266:\n        /* \"#utility.yul\":8724:8798   */\n      swap2\n      pop\n        /* \"#utility.yul\":8807:8900   */\n      tag_267\n        /* \"#utility.yul\":8896:8899   */\n      dup3\n        /* \"#utility.yul\":8807:8900   */\n      tag_157\n      jump\t// in\n    tag_267:\n        /* \"#utility.yul\":8925:8927   */\n      0x20\n        /* \"#utility.yul\":8920:8923   */\n      dup3\n        /* \"#utility.yul\":8916:8928   */\n      add\n        /* \"#utility.yul\":8909:8928   */\n      swap1\n      pop\n        /* \"#utility.yul\":8568:8934   */\n      swap2\n      swap1\n      pop\n      jump\t// out\n        /* \"#utility.yul\":8940:9359   */\n    tag_43:\n        /* \"#utility.yul\":9106:9110   */\n      0x00\n        /* \"#utility.yul\":9144:9146   */\n      0x20\n        /* \"#utility.yul\":9133:9142   */\n      dup3\n        /* \"#utility.yul\":9129:9147   */\n      add\n        /* \"#utility.yul\":9121:9147   */\n      swap1\n      pop\n        /* \"#utility.yul\":9193:9202   */\n      dup2\n        /* \"#utility.yul\":9187:9191   */\n      dup2\n        /* \"#utility.yul\":9183:9203   */\n      sub\n        /* \"#utility.yul\":9179:9180   */\n      0x00\n        /* \"#utility.yul\":9168:9177   */\n      dup4\n        /* \"#utility.yul\":9164:9181   */\n      add\n        /* \"#utility.yul\":9157:9204   */\n      mstore\n        /* \"#utility.yul\":9221:9352   */\n      tag_269\n        /* \"#utility.yul\":9347:9351   */\n      dup2\n        /* \"#utility.yul\":9221:9352   */\n      tag_158\n      jump\t// in\n    tag_269:\n        /* \"#utility.yul\":9213:9352   */\n      swap1\n      pop\n        /* \"#utility.yul\":8940:9359   */\n      swap2\n      swap1\n      pop\n      jump\t// out\n        /* \"#utility.yul\":9365:9545   */\n    tag_46:\n        /* \"#utility.yul\":9413:9490   */\n      0x4e487b7100000000000000000000000000000000000000000000000000000000\n        /* \"#utility.yul\":9410:9411   */\n      0x00\n        /* \"#utility.yul\":9403:9491   */\n      mstore\n        /* \"#utility.yul\":9510:9514   */\n      0x32\n        /* \"#utility.yul\":9507:9508   */\n      0x04\n        /* \"#utility.yul\":9500:9515   */\n      mstore\n        /* \"#utility.yul\":9534:9538   */\n      0x24\n        /* \"#utility.yul\":9531:9532   */\n      0x00\n        /* \"#utility.yul\":9524:9539   */\n      revert\n        /* \"#utility.yul\":9551:9765   */\n    tag_159:\n        /* \"#utility.yul\":9691:9757   */\n      0xe8b685e8bf87e695b0e7bb84e69c80e5a4a7e58897e695b00000000000000000\n        /* \"#utility.yul\":9687:9688   */\n      0x00\n        /* \"#utility.yul\":9679:9685   */\n      dup3\n        /* \"#utility.yul\":9675:9689   */\n      add\n        /* \"#utility.yul\":9668:9758   */\n      mstore\n        /* \"#utility.yul\":9551:9765   */\n      pop\n      jump\t// out\n        /* \"#utility.yul\":9771:10137   */\n    tag_160:\n        /* \"#utility.yul\":9913:9916   */\n      0x00\n        /* \"#utility.yul\":9934:10001   */\n      tag_273\n        /* \"#utility.yul\":9998:10000   */\n      0x18\n        /* \"#utility.yul\":9993:9996   */\n      dup4\n        /* \"#utility.yul\":9934:10001   */\n      tag_156\n      jump\t// in\n    tag_273:\n        /* \"#utility.yul\":9927:10001   */\n      swap2\n      pop\n        /* \"#utility.yul\":10010:10103   */\n      tag_274\n        /* \"#utility.yul\":10099:10102   */\n      dup3\n        /* \"#utility.yul\":10010:10103   */\n      tag_159\n      jump\t// in\n    tag_274:\n        /* \"#utility.yul\":10128:10130   */\n      0x20\n        /* \"#utility.yul\":10123:10126   */\n      dup3\n        /* \"#utility.yul\":10119:10131   */\n      add\n        /* \"#utility.yul\":10112:10131   */\n      swap1\n      pop\n        /* \"#utility.yul\":9771:10137   */\n      swap2\n      swap1\n      pop\n      jump\t// out\n        /* \"#utility.yul\":10143:10562   */\n    tag_50:\n        /* \"#utility.yul\":10309:10313   */\n      0x00\n        /* \"#utility.yul\":10347:10349   */\n      0x20\n        /* \"#utility.yul\":10336:10345   */\n      dup3\n        /* \"#utility.yul\":10332:10350   */\n      add\n        /* \"#utility.yul\":10324:10350   */\n      swap1\n      pop\n        /* \"#utility.yul\":10396:10405   */\n      dup2\n        /* \"#utility.yul\":10390:10394   */\n      dup2\n        /* \"#utility.yul\":10386:10406   */\n      sub\n        /* \"#utility.yul\":10382:10383   */\n      0x00\n        /* \"#utility.yul\":10371:10380   */\n      dup4\n        /* \"#utility.yul\":10367:10384   */\n      add\n        /* \"#utility.yul\":10360:10407   */\n      mstore\n        /* \"#utility.yul\":10424:10555   */\n      tag_276\n        /* \"#utility.yul\":10550:10554   */\n      dup2\n        /* \"#utility.yul\":10424:10555   */\n      tag_160\n      jump\t// in\n    tag_276:\n        /* \"#utility.yul\":10416:10555   */\n      swap1\n      pop\n        /* \"#utility.yul\":10143:10562   */\n      swap2\n      swap1\n      pop\n      jump\t// out\n        /* \"#utility.yul\":10568:10748   */\n    tag_66:\n        /* \"#utility.yul\":10616:10693   */\n      0x4e487b7100000000000000000000000000000000000000000000000000000000\n        /* \"#utility.yul\":10613:10614   */\n      0x00\n        /* \"#utility.yul\":10606:10694   */\n      mstore\n        /* \"#utility.yul\":10713:10717   */\n      0x41\n        /* \"#utility.yul\":10710:10711   */\n      0x04\n        /* \"#utility.yul\":10703:10718   */\n      mstore\n        /* \"#utility.yul\":10737:10741   */\n      0x24\n        /* \"#utility.yul\":10734:10735   */\n      0x00\n        /* \"#utility.yul\":10727:10742   */\n      revert\n        /* \"#utility.yul\":10754:10865   */\n    tag_161:\n        /* \"#utility.yul\":10818:10824   */\n      0x00\n        /* \"#utility.yul\":10852:10857   */\n      dup2\n        /* \"#utility.yul\":10846:10858   */\n      sload\n        /* \"#utility.yul\":10836:10858   */\n      swap1\n      pop\n        /* \"#utility.yul\":10754:10865   */\n      swap2\n      swap1\n      pop\n      jump\t// out\n        /* \"#utility.yul\":11473:11676   */\n    tag_164:\n        /* \"#utility.yul\":11554:11558   */\n      0x00\n        /* \"#utility.yul\":11577:11583   */\n      dup2\n        /* \"#utility.yul\":11569:11583   */\n      swap1\n      pop\n        /* \"#utility.yul\":11667:11668   */\n      0x01\n        /* \"#utility.yul\":11662:11663   */\n      dup1\n        /* \"#utility.yul\":11659:11660   */\n      0x01\n        /* \"#utility.yul\":11655:11664   */\n      sub\n        /* \"#utility.yul\":11647:11653   */\n      dup4\n        /* \"#utility.yul\":11643:11665   */\n      add\n        /* \"#utility.yul\":11639:11669   */\n      div\n        /* \"#utility.yul\":11631:11669   */\n      swap1\n      pop\n        /* \"#utility.yul\":11473:11676   */\n      swap2\n      swap1\n      pop\n      jump\t// out\n        /* \"#utility.yul\":11681:11837   */\n    tag_165:\n        /* \"#utility.yul\":11745:11749   */\n      0x00\n        /* \"#utility.yul\":11768:11771   */\n      dup2\n        /* \"#utility.yul\":11760:11771   */\n      swap1\n      pop\n        /* \"#utility.yul\":11791:11794   */\n      dup2\n        /* \"#utility.yul\":11788:11789   */\n      0x00\n        /* \"#utility.yul\":11781:11795   */\n      mstore\n        /* \"#utility.yul\":11825:11829   */\n      0x20\n        /* \"#utility.yul\":11822:11823   */\n      0x00\n        /* \"#utility.yul\":11812:11830   */\n      keccak256\n        /* \"#utility.yul\":11804:11830   */\n      swap1\n      pop\n        /* \"#utility.yul\":11681:11837   */\n      swap2\n      swap1\n      pop\n      jump\t// out\n        /* \"#utility.yul\":11843:11950   */\n    tag_166:\n        /* \"#utility.yul\":11887:11895   */\n      0x00\n        /* \"#utility.yul\":11937:11942   */\n      dup3\n        /* \"#utility.yul\":11931:11935   */\n      dup3\n        /* \"#utility.yul\":11927:11943   */\n      shl\n        /* \"#utility.yul\":11906:11943   */\n      swap1\n      pop\n        /* \"#utility.yul\":11843:11950   */\n      swap3\n      swap2\n      pop\n      pop\n      jump\t// out\n        /* \"#utility.yul\":11956:12349   */\n    tag_167:\n        /* \"#utility.yul\":12025:12031   */\n      0x00\n        /* \"#utility.yul\":12075:12076   */\n      0x08\n        /* \"#utility.yul\":12063:12073   */\n      dup4\n        /* \"#utility.yul\":12059:12077   */\n      mul\n        /* \"#utility.yul\":12098:12195   */\n      tag_290\n        /* \"#utility.yul\":12128:12194   */\n      0xffffffffffffffffffffffffffffffffffffffffffffffffffffffffffffffff\n        /* \"#utility.yul\":12117:12126   */\n      dup3\n        /* \"#utility.yul\":12098:12195   */\n      tag_166\n      jump\t// in\n    tag_290:\n        /* \"#utility.yul\":12216:12255   */\n      tag_291\n        /* \"#utility.yul\":12246:12254   */\n      dup7\n        /* \"#utility.yul\":12235:12244   */\n      dup4\n        /* \"#utility.yul\":12216:12255   */\n      tag_166\n      jump\t// in\n    tag_291:\n        /* \"#utility.yul\":12204:12255   */\n      swap6\n      pop\n        /* \"#utility.yul\":12288:12292   */\n      dup1\n        /* \"#utility.yul\":12284:12293   */\n      not\n        /* \"#utility.yul\":12277:12282   */\n      dup5\n        /* \"#utility.yul\":12273:12294   */\n      and\n        /* \"#utility.yul\":12264:12294   */\n      swap4\n      pop\n        /* \"#utility.yul\":12337:12341   */\n      dup1\n        /* \"#utility.yul\":12327:12335   */\n      dup7\n        /* \"#utility.yul\":12323:12342   */\n      and\n        /* \"#utility.yul\":12316:12321   */\n      dup5\n        /* \"#utility.yul\":12313:12343   */\n      or\n        /* \"#utility.yul\":12303:12343   */\n      swap3\n      pop\n        /* \"#utility.yul\":12032:12349   */\n      pop\n      pop\n        /* \"#utility.yul\":11956:12349   */\n      swap4\n      swap3\n      pop\n      pop\n      pop\n      jump\t// out\n        /* \"#utility.yul\":12355:12415   */\n    tag_168:\n        /* \"#utility.yul\":12383:12386   */\n      0x00\n        /* \"#utility.yul\":12404:12409   */\n      dup2\n        /* \"#utility.yul\":12397:12409   */\n      swap1\n      pop\n        /* \"#utility.yul\":12355:12415   */\n      swap2\n      swap1\n      pop\n      jump\t// out\n        /* \"#utility.yul\":12421:12563   */\n    tag_169:\n        /* \"#utility.yul\":12471:12480   */\n      0x00\n        /* \"#utility.yul\":12504:12557   */\n      tag_294\n        /* \"#utility.yul\":12522:12556   */\n      tag_295\n        /* \"#utility.yul\":12531:12555   */\n      tag_296\n        /* \"#utility.yul\":12549:12554   */\n      dup5\n        /* \"#utility.yul\":12531:12555   */\n      tag_135\n      jump\t// in\n    tag_296:\n        /* \"#utility.yul\":12522:12556   */\n      tag_168\n      jump\t// in\n    tag_295:\n        /* \"#utility.yul\":12504:12557   */\n      tag_135\n      jump\t// in\n    tag_294:\n        /* \"#utility.yul\":12491:12557   */\n      swap1\n      pop\n        /* \"#utility.yul\":12421:12563   */\n      swap2\n      swap1\n      pop\n      jump\t// out\n        /* \"#utility.yul\":12569:12644   */\n    tag_170:\n        /* \"#utility.yul\":12612:12615   */\n      0x00\n        /* \"#utility.yul\":12633:12638   */\n      dup2\n        /* \"#utility.yul\":12626:12638   */\n      swap1\n      pop\n        /* \"#utility.yul\":12569:12644   */\n      swap2\n      swap1\n      pop\n      jump\t// out\n        /* \"#utility.yul\":12650:12919   */\n    tag_171:\n        /* \"#utility.yul\":12760:12799   */\n      tag_299\n        /* \"#utility.yul\":12791:12798   */\n      dup4\n        /* \"#utility.yul\":12760:12799   */\n      tag_169\n      jump\t// in\n    tag_299:\n        /* \"#utility.yul\":12821:12912   */\n      tag_300\n        /* \"#utility.yul\":12870:12911   */\n      tag_301\n        /* \"#utility.yul\":12894:12910   */\n      dup3\n        /* \"#utility.yul\":12870:12911   */\n      tag_170\n      jump\t// in\n    tag_301:\n        /* \"#utility.yul\":12862:12868   */\n      dup5\n        /* \"#utility.yul\":12855:12859   */\n      dup5\n        /* \"#utility.yul\":12849:12860   */\n      sload\n        /* \"#utility.yul\":12821:12912   */\n      tag_167\n      jump\t// in\n    tag_300:\n        /* \"#utility.yul\":12815:12819   */\n      dup3\n        /* \"#utility.yul\":12808:12913   */\n      sstore\n        /* \"#utility.yul\":12726:12919   */\n      pop\n        /* \"#utility.yul\":12650:12919   */\n      pop\n      pop\n      pop\n      jump\t// out\n        /* \"#utility.yul\":12925:12998   */\n    tag_172:\n        /* \"#utility.yul\":12970:12973   */\n      0x00\n        /* \"#utility.yul\":12991:12992   */\n      0x00\n        /* \"#utility.yul\":12984:12992   */\n      swap1\n      pop\n        /* \"#utility.yul\":12925:12998   */\n      swap1\n      jump\t// out\n        /* \"#utility.yul\":13004:13193   */\n    tag_173:\n        /* \"#utility.yul\":13081:13113   */\n      tag_304\n      tag_172\n      jump\t// in\n    tag_304:\n        /* \"#utility.yul\":13122:13187   */\n      tag_305\n        /* \"#utility.yul\":13180:13186   */\n      dup2\n        /* \"#utility.yul\":13172:13178   */\n      dup5\n        /* \"#utility.yul\":13166:13170   */\n      dup5\n        /* \"#utility.yul\":13122:13187   */\n      tag_171\n      jump\t// in\n    tag_305:\n        /* \"#utility.yul\":13057:13193   */\n      pop\n        /* \"#utility.yul\":13004:13193   */\n      pop\n      pop\n      jump\t// out\n        /* \"#utility.yul\":13199:13414   */\n    tag_174:\n        /* \"#utility.yul\":13285:13286   */\n      0x00\n        /* \"#utility.yul\":13270:13408   */\n    tag_307:\n        /* \"#utility.yul\":13295:13304   */\n      dup3\n        /* \"#utility.yul\":13292:13293   */\n      dup2\n        /* \"#utility.yul\":13289:13305   */\n      lt\n        /* \"#utility.yul\":13270:13408   */\n      iszero\n      tag_309\n      jumpi\n        /* \"#utility.yul\":13347:13398   */\n      tag_310\n        /* \"#utility.yul\":13396:13397   */\n      0x00\n        /* \"#utility.yul\":13392:13393   */\n      dup3\n        /* \"#utility.yul\":13381:13390   */\n      dup5\n        /* \"#utility.yul\":13377:13394   */\n      add\n        /* \"#utility.yul\":13347:13398   */\n      tag_173\n      jump\t// in\n    tag_310:\n        /* \"#utility.yul\":13320:13321   */\n      0x01\n        /* \"#utility.yul\":13317:13318   */\n      dup2\n        /* \"#utility.yul\":13313:13322   */\n      add\n        /* \"#utility.yul\":13308:13322   */\n      swap1\n      pop\n        /* \"#utility.yul\":13270:13408   */\n      jump(tag_307)\n    tag_309:\n        /* \"#utility.yul\":13274:13288   */\n      pop\n        /* \"#utility.yul\":13199:13414   */\n      pop\n      pop\n      jump\t// out\n        /* \"#utility.yul\":13793:14433   */\n    tag_177:\n        /* \"#utility.yul\":13913:13916   */\n      dup2\n        /* \"#utility.yul\":13901:13911   */\n      dup4\n        /* \"#utility.yul\":13898:13917   */\n      lt\n        /* \"#utility.yul\":13895:14426   */\n      iszero\n      tag_315\n      jumpi\n        /* \"#utility.yul\":14004:14069   */\n      tag_316\n        /* \"#utility.yul\":14065:14068   */\n      dup3\n        /* \"#utility.yul\":14004:14069   */\n      tag_164\n      jump\t// in\n    tag_316:\n        /* \"#utility.yul\":14102:14174   */\n      tag_317\n        /* \"#utility.yul\":14163:14173   */\n      dup5\n        /* \"#utility.yul\":14102:14174   */\n      tag_164\n      jump\t// in\n    tag_317:\n        /* \"#utility.yul\":14209:14262   */\n      tag_318\n        /* \"#utility.yul\":14256:14261   */\n      dup4\n        /* \"#utility.yul\":14209:14262   */\n      tag_165\n      jump\t// in\n    tag_318:\n        /* \"#utility.yul\":14314:14326   */\n      dup2\n        /* \"#utility.yul\":14298:14312   */\n      dup2\n        /* \"#utility.yul\":14294:14327   */\n      add\n        /* \"#utility.yul\":14341:14416   */\n      tag_319\n        /* \"#utility.yul\":14402:14414   */\n      dup4\n        /* \"#utility.yul\":14388:14400   */\n      dup6\n        /* \"#utility.yul\":14384:14415   */\n      sub\n        /* \"#utility.yul\":14371:14382   */\n      dup3\n        /* \"#utility.yul\":14341:14416   */\n      tag_174\n      jump\t// in\n    tag_319:\n        /* \"#utility.yul\":13918:14426   */\n      pop\n      pop\n      pop\n      pop\n        /* \"#utility.yul\":13895:14426   */\n    tag_315:\n        /* \"#utility.yul\":13793:14433   */\n      pop\n      pop\n      pop\n      jump\t// out\n        /* \"#utility.yul\":14439:14827   */\n    tag_178:\n        /* \"#utility.yul\":14532:14552   */\n      0x010000000000000000\n        /* \"#utility.yul\":14524:14530   */\n      dup3\n        /* \"#utility.yul\":14521:14553   */\n      gt\n        /* \"#utility.yul\":14518:14596   */\n      iszero\n      tag_321\n      jumpi\n        /* \"#utility.yul\":14568:14586   */\n      tag_322\n      tag_66\n      jump\t// in\n    tag_322:\n        /* \"#utility.yul\":14518:14596   */\n    tag_321:\n        /* \"#utility.yul\":14620:14671   */\n      tag_323\n        /* \"#utility.yul\":14665:14670   */\n      dup2\n        /* \"#utility.yul\":14620:14671   */\n      tag_161\n      jump\t// in\n    tag_323:\n        /* \"#utility.yul\":14723:14729   */\n      dup3\n        /* \"#utility.yul\":14716:14721   */\n      dup3\n        /* \"#utility.yul\":14709:14730   */\n      sstore\n        /* \"#utility.yul\":14740:14820   */\n      tag_324\n        /* \"#utility.yul\":14813:14819   */\n      dup4\n        /* \"#utility.yul\":14805:14811   */\n      dup3\n        /* \"#utility.yul\":14798:14803   */\n      dup5\n        /* \"#utility.yul\":14740:14820   */\n      tag_177\n      jump\t// in\n    tag_324:\n        /* \"#utility.yul\":14508:14827   */\n      pop\n        /* \"#utility.yul\":14439:14827   */\n      pop\n      pop\n      jump\t// out\n        /* \"#utility.yul\":14832:14986   */\n    tag_179:\n        /* \"#utility.yul\":14875:14886   */\n      0x00\n        /* \"#utility.yul\":14911:14940   */\n      tag_326\n        /* \"#utility.yul\":14935:14938   */\n      dup3\n        /* \"#utility.yul\":14929:14939   */\n      mload\n        /* \"#utility.yul\":14911:14940   */\n      tag_135\n      jump\t// in\n    tag_326:\n        /* \"#utility.yul\":14974:14979   */\n      dup1\n        /* \"#utility.yul\":14950:14979   */\n      swap2\n      pop\n        /* \"#utility.yul\":14887:14986   */\n      pop\n        /* \"#utility.yul\":14832:14986   */\n      swap2\n      swap1\n      pop\n      jump\t// out\n        /* \"#utility.yul\":15289:16290   */\n    tag_76:\n        /* \"#utility.yul\":15430:15482   */\n      tag_332\n        /* \"#utility.yul\":15478:15481   */\n      dup3\n        /* \"#utility.yul\":15430:15482   */\n      tag_146\n      jump\t// in\n    tag_332:\n        /* \"#utility.yul\":15547:15565   */\n      0xffffffffffffffff\n        /* \"#utility.yul\":15539:15545   */\n      dup2\n        /* \"#utility.yul\":15536:15566   */\n      gt\n        /* \"#utility.yul\":15533:15589   */\n      iszero\n      tag_333\n      jumpi\n        /* \"#utility.yul\":15569:15587   */\n      tag_334\n      tag_66\n      jump\t// in\n    tag_334:\n        /* \"#utility.yul\":15533:15589   */\n    tag_333:\n        /* \"#utility.yul\":15598:15655   */\n      tag_335\n        /* \"#utility.yul\":15648:15654   */\n      dup2\n        /* \"#utility.yul\":15643:15646   */\n      dup4\n        /* \"#utility.yul\":15598:15655   */\n      tag_178\n      jump\t// in\n    tag_335:\n        /* \"#utility.yul\":15679:15733   */\n      tag_336\n        /* \"#utility.yul\":15729:15732   */\n      dup4\n        /* \"#utility.yul\":15679:15733   */\n      tag_148\n      jump\t// in\n    tag_336:\n        /* \"#utility.yul\":15757:15808   */\n      tag_337\n        /* \"#utility.yul\":15804:15807   */\n      dup4\n        /* \"#utility.yul\":15757:15808   */\n      tag_165\n      jump\t// in\n    tag_337:\n        /* \"#utility.yul\":15847:15848   */\n      0x01\n        /* \"#utility.yul\":15839:15845   */\n      dup4\n        /* \"#utility.yul\":15835:15849   */\n      div\n        /* \"#utility.yul\":15874:15875   */\n      0x00\n        /* \"#utility.yul\":15859:16283   */\n    tag_338:\n        /* \"#utility.yul\":15884:15893   */\n      dup2\n        /* \"#utility.yul\":15881:15882   */\n      dup2\n        /* \"#utility.yul\":15878:15894   */\n      lt\n        /* \"#utility.yul\":15859:16283   */\n      iszero\n      tag_340\n      jumpi\n        /* \"#utility.yul\":15948:15949   */\n      0x00\n        /* \"#utility.yul\":16001:16034   */\n      tag_341\n        /* \"#utility.yul\":16027:16033   */\n      dup6\n        /* \"#utility.yul\":16001:16034   */\n      tag_179\n      jump\t// in\n    tag_341:\n        /* \"#utility.yul\":16069:16105   */\n      tag_342\n        /* \"#utility.yul\":16093:16104   */\n      dup2\n        /* \"#utility.yul\":16069:16105   */\n      tag_170\n      jump\t// in\n    tag_342:\n        /* \"#utility.yul\":16155:16164   */\n      dup1\n        /* \"#utility.yul\":16122:16164   */\n      swap3\n      pop\n        /* \"#utility.yul\":16204:16206   */\n      0x20\n        /* \"#utility.yul\":16196:16202   */\n      dup8\n        /* \"#utility.yul\":16192:16207   */\n      add\n        /* \"#utility.yul\":16182:16207   */\n      swap7\n      pop\n        /* \"#utility.yul\":15963:16222   */\n      pop\n      pop\n        /* \"#utility.yul\":16260:16272   */\n      dup1\n        /* \"#utility.yul\":16256:16257   */\n      dup3\n        /* \"#utility.yul\":16247:16254   */\n      dup6\n        /* \"#utility.yul\":16243:16258   */\n      add\n        /* \"#utility.yul\":16236:16273   */\n      sstore\n        /* \"#utility.yul\":15914:16283   */\n      pop\n        /* \"#utility.yul\":15909:15910   */\n      0x01\n        /* \"#utility.yul\":15906:15907   */\n      dup2\n        /* \"#utility.yul\":15902:15911   */\n      add\n        /* \"#utility.yul\":15897:15911   */\n      swap1\n      pop\n        /* \"#utility.yul\":15859:16283   */\n      jump(tag_338)\n    tag_340:\n        /* \"#utility.yul\":15863:15877   */\n      pop\n        /* \"#utility.yul\":15405:16290   */\n      pop\n      pop\n      pop\n      pop\n        /* \"#utility.yul\":15289:16290   */\n      pop\n      pop\n      jump\t// out\n        /* \"#utility.yul\":16296:16408   */\n    tag_182:\n        /* \"#utility.yul\":16370:16376   */\n      0x00\n        /* \"#utility.yul\":16398:16401   */\n      dup3\n        /* \"#utility.yul\":16388:16401   */\n      swap1\n      pop\n        /* \"#utility.yul\":16296:16408   */\n      swap3\n      swap2\n      pop\n      pop\n      jump\t// out\n        /* \"#utility.yul\":16414:16600   */\n    tag_183:\n        /* \"#utility.yul\":16459:16470   */\n      0x00\n        /* \"#utility.yul\":16508:16511   */\n      dup2\n        /* \"#utility.yul\":16495:16512   */\n      calldataload\n        /* \"#utility.yul\":16521:16554   */\n      tag_345\n        /* \"#utility.yul\":16548:16553   */\n      dup2\n        /* \"#utility.yul\":16521:16554   */\n      tag_136\n      jump\t// in\n    tag_345:\n        /* \"#utility.yul\":16588:16593   */\n      dup1\n        /* \"#utility.yul\":16564:16593   */\n      swap2\n      pop\n        /* \"#utility.yul\":16471:16600   */\n      pop\n        /* \"#utility.yul\":16414:16600   */\n      swap2\n      swap1\n      pop\n      jump\t// out\n        /* \"#utility.yul\":16606:16708   */\n    tag_184:\n        /* \"#utility.yul\":16675:16679   */\n      0x00\n        /* \"#utility.yul\":16698:16701   */\n      dup2\n        /* \"#utility.yul\":16690:16701   */\n      swap1\n      pop\n        /* \"#utility.yul\":16606:16708   */\n      swap2\n      swap1\n      pop\n      jump\t// out\n        /* \"#utility.yul\":16714:17733   */\n    tag_102:\n        /* \"#utility.yul\":16862:16921   */\n      tag_348\n        /* \"#utility.yul\":16917:16920   */\n      dup4\n        /* \"#utility.yul\":16912:16915   */\n      dup4\n        /* \"#utility.yul\":16862:16921   */\n      tag_182\n      jump\t// in\n    tag_348:\n        /* \"#utility.yul\":16986:17004   */\n      0xffffffffffffffff\n        /* \"#utility.yul\":16978:16984   */\n      dup2\n        /* \"#utility.yul\":16975:17005   */\n      gt\n        /* \"#utility.yul\":16972:17028   */\n      iszero\n      tag_349\n      jumpi\n        /* \"#utility.yul\":17008:17026   */\n      tag_350\n      tag_66\n      jump\t// in\n    tag_350:\n        /* \"#utility.yul\":16972:17028   */\n    tag_349:\n        /* \"#utility.yul\":17037:17094   */\n      tag_351\n        /* \"#utility.yul\":17087:17093   */\n      dup2\n        /* \"#utility.yul\":17082:17085   */\n      dup4\n        /* \"#utility.yul\":17037:17094   */\n      tag_178\n      jump\t// in\n    tag_351:\n        /* \"#utility.yul\":17118:17174   */\n      tag_352\n        /* \"#utility.yul\":17170:17173   */\n      dup4\n        /* \"#utility.yul\":17118:17174   */\n      tag_184\n      jump\t// in\n    tag_352:\n        /* \"#utility.yul\":17198:17249   */\n      tag_353\n        /* \"#utility.yul\":17245:17248   */\n      dup4\n        /* \"#utility.yul\":17198:17249   */\n      tag_165\n      jump\t// in\n    tag_353:\n        /* \"#utility.yul\":17288:17289   */\n      0x01\n        /* \"#utility.yul\":17280:17286   */\n      dup4\n        /* \"#utility.yul\":17276:17290   */\n      div\n        /* \"#utility.yul\":17315:17316   */\n      0x00\n        /* \"#utility.yul\":17300:17726   */\n    tag_354:\n        /* \"#utility.yul\":17325:17334   */\n      dup2\n        /* \"#utility.yul\":17322:17323   */\n      dup2\n        /* \"#utility.yul\":17319:17335   */\n      lt\n        /* \"#utility.yul\":17300:17726   */\n      iszero\n      tag_356\n      jumpi\n        /* \"#utility.yul\":17389:17390   */\n      0x00\n        /* \"#utility.yul\":17442:17477   */\n      tag_357\n        /* \"#utility.yul\":17470:17476   */\n      dup6\n        /* \"#utility.yul\":17442:17477   */\n      tag_183\n      jump\t// in\n    tag_357:\n        /* \"#utility.yul\":17512:17548   */\n      tag_358\n        /* \"#utility.yul\":17536:17547   */\n      dup2\n        /* \"#utility.yul\":17512:17548   */\n      tag_170\n      jump\t// in\n    tag_358:\n        /* \"#utility.yul\":17598:17607   */\n      dup1\n        /* \"#utility.yul\":17565:17607   */\n      swap3\n      pop\n        /* \"#utility.yul\":17647:17649   */\n      0x20\n        /* \"#utility.yul\":17639:17645   */\n      dup8\n        /* \"#utility.yul\":17635:17650   */\n      add\n        /* \"#utility.yul\":17625:17650   */\n      swap7\n      pop\n        /* \"#utility.yul\":17404:17665   */\n      pop\n      pop\n        /* \"#utility.yul\":17703:17715   */\n      dup1\n        /* \"#utility.yul\":17699:17700   */\n      dup3\n        /* \"#utility.yul\":17690:17697   */\n      dup6\n        /* \"#utility.yul\":17686:17701   */\n      add\n        /* \"#utility.yul\":17679:17716   */\n      sstore\n        /* \"#utility.yul\":17355:17726   */\n      pop\n        /* \"#utility.yul\":17350:17351   */\n      0x01\n        /* \"#utility.yul\":17347:17348   */\n      dup2\n        /* \"#utility.yul\":17343:17352   */\n      add\n        /* \"#utility.yul\":17338:17352   */\n      swap1\n      pop\n        /* \"#utility.yul\":17300:17726   */\n      jump(tag_354)\n    tag_356:\n        /* \"#utility.yul\":17304:17318   */\n      pop\n        /* \"#utility.yul\":16837:17733   */\n      pop\n      pop\n      pop\n      pop\n        /* \"#utility.yul\":16714:17733   */\n      pop\n      pop\n      pop\n      jump\t// out\n\n    auxdata: 0xa264697066735822122005095e39250f0c36384bc408410e59499b24d67be39d2ba9be69511454abbbc664736f6c63430008220033\n}\n",
				"bytecode": {
					"linkReferences": {},
					"object": "6080604052348015600e575f5ffd5b50610f758061001c5f395ff3fe608060405234801561000f575f5ffd5b506004361061007b575f3560e01c806384d92f8e1161005957806384d92f8e146100c4578063b76b78fb146100f4578063cb34f1da14610112578063d9a38d64146101425761007b565b806322cbbe391461007f5780635834c6421461009b5780638129fc1c146100ba575b5f5ffd5b61009960048036038101906100949190610808565b610172565b005b6100a3610257565b6040516100b1929190610867565b60405180910390f35b6100c2610296565b005b6100de60048036038101906100d991906108ef565b610544565b6040516100eb9190610aac565b60405180910390f35b6100fc61061a565b6040516101099190610aac565b60405180910390f35b61012c60048036038101906101279190610acc565b6106b3565b6040516101399190610b0a565b60405180910390f35b61015c60048036038101906101579190610acc565b610798565b6040516101699190610b0a565b60405180910390f35b5f8054905083106101b8576040517f08c379a00000000000000000000000000000000000000000000000000000000081526004016101af90610b7d565b60405180910390fd5b5f83815481106101cb576101ca610b9b565b5b905f5260205f2001805490508210610218576040517f08c379a000000000000000000000000000000000000000000000000000000000815260040161020f90610c12565b60405180910390fd5b805f848154811061022c5761022b610b9b565b5b905f5260205f2001838154811061024657610245610b9b565b5b905f5260205f200181905550505050565b5f5f5f8054905091505f82111561028e575f5f8154811061027b5761027a610b9b565b5b905f5260205f2001805490509050610292565b5f90505b9091565b5f600367ffffffffffffffff8111156102b2576102b1610c30565b5b6040519080825280602002602001820160405280156102e05781602001602082028036833780820191505090505b5090506001815f815181106102f8576102f7610b9b565b5b60200260200101818152505060028160018151811061031a57610319610b9b565b5b60200260200101818152505060038160028151811061033c5761033b610b9b565b5b6020026020010181815250505f81908060018154018082558091505060019003905f5260205f20015f9091909190915090816103789190610e0d565b505f600367ffffffffffffffff81111561039557610394610c30565b5b6040519080825280602002602001820160405280156103c35781602001602082028036833780820191505090505b5090506004815f815181106103db576103da610b9b565b5b6020026020010181815250506005816001815181106103fd576103fc610b9b565b5b60200260200101818152505060068160028151811061041f5761041e610b9b565b5b6020026020010181815250505f81908060018154018082558091505060019003905f5260205f20015f90919091909150908161045b9190610e0d565b505f600367ffffffffffffffff81111561047857610477610c30565b5b6040519080825280602002602001820160405280156104a65781602001602082028036833780820191505090505b5090506007815f815181106104be576104bd610b9b565b5b6020026020010181815250506008816001815181106104e0576104df610b9b565b5b60200260200101818152505060098160028151811061050257610501610b9b565b5b6020026020010181815250505f81908060018154018082558091505060019003905f5260205f20015f90919091909150908161053e9190610e0d565b50505050565b60605f838390918060018154018082558091505060019003905f5260205f20015f90919290919290919290919250918261057f929190610eb9565b505f805480602002602001604051908101604052809291908181526020015f905b8282101561060e578382905f5260205f20018054806020026020016040519081016040528092919081815260200182805480156105fa57602002820191905f5260205f20905b8154815260200190600101908083116105e6575b5050505050815260200190600101906105a0565b50505050905092915050565b60605f805480602002602001604051908101604052809291908181526020015f905b828210156106aa578382905f5260205f200180548060200260200160405190810160405280929190818152602001828054801561069657602002820191905f5260205f20905b815481526020019060010190808311610682575b50505050508152602001906001019061063c565b50505050905090565b5f5f8054905083106106fa576040517f08c379a00000000000000000000000000000000000000000000000000000000081526004016106f190610b7d565b60405180910390fd5b5f838154811061070d5761070c610b9b565b5b905f5260205f200180549050821061075a576040517f08c379a000000000000000000000000000000000000000000000000000000000815260040161075190610c12565b60405180910390fd5b5f838154811061076d5761076c610b9b565b5b905f5260205f2001828154811061078757610786610b9b565b5b905f5260205f200154905092915050565b5f82815481106107a6575f80fd5b905f5260205f200181815481106107bb575f80fd5b905f5260205f20015f91509150505481565b5f5ffd5b5f5ffd5b5f819050919050565b6107e7816107d5565b81146107f1575f5ffd5b50565b5f81359050610802816107de565b92915050565b5f5f5f6060848603121561081f5761081e6107cd565b5b5f61082c868287016107f4565b935050602061083d868287016107f4565b925050604061084e868287016107f4565b9150509250925092565b610861816107d5565b82525050565b5f60408201905061087a5f830185610858565b6108876020830184610858565b9392505050565b5f5ffd5b5f5ffd5b5f5ffd5b5f5f83601f8401126108af576108ae61088e565b5b8235905067ffffffffffffffff8111156108cc576108cb610892565b5b6020830191508360208202830111156108e8576108e7610896565b5b9250929050565b5f5f60208385031215610905576109046107cd565b5b5f83013567ffffffffffffffff811115610922576109216107d1565b5b61092e8582860161089a565b92509250509250929050565b5f81519050919050565b5f82825260208201905092915050565b5f819050602082019050919050565b5f81519050919050565b5f82825260208201905092915050565b5f819050602082019050919050565b610995816107d5565b82525050565b5f6109a6838361098c565b60208301905092915050565b5f602082019050919050565b5f6109c882610963565b6109d2818561096d565b93506109dd8361097d565b805f5b83811015610a0d5781516109f4888261099b565b97506109ff836109b2565b9250506001810190506109e0565b5085935050505092915050565b5f610a2583836109be565b905092915050565b5f602082019050919050565b5f610a438261093a565b610a4d8185610944565b935083602082028501610a5f85610954565b805f5b85811015610a9a5784840389528151610a7b8582610a1a565b9450610a8683610a2d565b925060208a01995050600181019050610a62565b50829750879550505050505092915050565b5f6020820190508181035f830152610ac48184610a39565b905092915050565b5f5f60408385031215610ae257610ae16107cd565b5b5f610aef858286016107f4565b9250506020610b00858286016107f4565b9150509250929050565b5f602082019050610b1d5f830184610858565b92915050565b5f82825260208201905092915050565b7fe8b685e8bf87e695b0e7bb84e69c80e5a4a7e8a18ce695b000000000000000005f82015250565b5f610b67601883610b23565b9150610b7282610b33565b602082019050919050565b5f6020820190508181035f830152610b9481610b5b565b9050919050565b7f4e487b71000000000000000000000000000000000000000000000000000000005f52603260045260245ffd5b7fe8b685e8bf87e695b0e7bb84e69c80e5a4a7e58897e695b000000000000000005f82015250565b5f610bfc601883610b23565b9150610c0782610bc8565b602082019050919050565b5f6020820190508181035f830152610c2981610bf0565b9050919050565b7f4e487b71000000000000000000000000000000000000000000000000000000005f52604160045260245ffd5b5f81549050919050565b5f8190506001806001038301049050919050565b5f819050815f5260205f209050919050565b5f82821b905092915050565b5f60088302610cc87fffffffffffffffffffffffffffffffffffffffffffffffffffffffffffffffff82610c8d565b610cd28683610c8d565b95508019841693508086168417925050509392505050565b5f819050919050565b5f610d0d610d08610d03846107d5565b610cea565b6107d5565b9050919050565b5f819050919050565b610d2683610cf3565b610d3a610d3282610d14565b848454610c99565b825550505050565b5f5f905090565b610d51610d42565b610d5c818484610d1d565b505050565b5f5b82811015610d8257610d775f828401610d49565b600181019050610d63565b505050565b81831015610dbe57610d9882610c67565b610da184610c67565b610daa83610c7b565b818101610db983850382610d61565b505050505b505050565b68010000000000000000821115610ddd57610ddc610c30565b5b610de681610c5d565b828255610df4838284610d87565b505050565b5f610e0482516107d5565b80915050919050565b610e1682610963565b67ffffffffffffffff811115610e2f57610e2e610c30565b5b610e398183610dc3565b610e428361097d565b610e4b83610c7b565b600183045f5b81811015610e88575f610e6385610df9565b610e6c81610d14565b8092506020870196505050808285015550600181019050610e51565b50505050505050565b5f82905092915050565b5f8135610ea7816107de565b80915050919050565b5f819050919050565b610ec38383610e91565b67ffffffffffffffff811115610edc57610edb610c30565b5b610ee68183610dc3565b610eef83610eb0565b610ef883610c7b565b600183045f5b81811015610f35575f610f1085610e9b565b610f1981610d14565b8092506020870196505050808285015550600181019050610efe565b505050505050505056fea264697066735822122005095e39250f0c36384bc408410e59499b24d67be39d2ba9be69511454abbbc664736f6c63430008220033",
					"opcodes": "PUSH1 0x80 PUSH1 0x40 MSTORE CALLVALUE DUP1 ISZERO PUSH1 0xE JUMPI PUSH0 PUSH0 REVERT JUMPDEST POP PUSH2 0xF75 DUP1 PUSH2 0x1C PUSH0 CODECOPY PUSH0 RETURN INVALID PUSH1 0x80 PUSH1 0x40 MSTORE CALLVALUE DUP1 ISZERO PUSH2 0xF JUMPI PUSH0 PUSH0 REVERT JUMPDEST POP PUSH1 0x4 CALLDATASIZE LT PUSH2 0x7B JUMPI PUSH0 CALLDATALOAD PUSH1 0xE0 SHR DUP1 PUSH4 0x84D92F8E GT PUSH2 0x59 JUMPI DUP1 PUSH4 0x84D92F8E EQ PUSH2 0xC4 JUMPI DUP1 PUSH4 0xB76B78FB EQ PUSH2 0xF4 JUMPI DUP1 PUSH4 0xCB34F1DA EQ PUSH2 0x112 JUMPI DUP1 PUSH4 0xD9A38D64 EQ PUSH2 0x142 JUMPI PUSH2 0x7B JUMP JUMPDEST DUP1 PUSH4 0x22CBBE39 EQ PUSH2 0x7F JUMPI DUP1 PUSH4 0x5834C642 EQ PUSH2 0x9B JUMPI DUP1 PUSH4 0x8129FC1C EQ PUSH2 0xBA JUMPI JUMPDEST PUSH0 PUSH0 REVERT JUMPDEST PUSH2 0x99 PUSH1 0x4 DUP1 CALLDATASIZE SUB DUP2 ADD SWAP1 PUSH2 0x94 SWAP2 SWAP1 PUSH2 0x808 JUMP JUMPDEST PUSH2 0x172 JUMP JUMPDEST STOP JUMPDEST PUSH2 0xA3 PUSH2 0x257 JUMP JUMPDEST PUSH1 0x40 MLOAD PUSH2 0xB1 SWAP3 SWAP2 SWAP1 PUSH2 0x867 JUMP JUMPDEST PUSH1 0x40 MLOAD DUP1 SWAP2 SUB SWAP1 RETURN JUMPDEST PUSH2 0xC2 PUSH2 0x296 JUMP JUMPDEST STOP JUMPDEST PUSH2 0xDE PUSH1 0x4 DUP1 CALLDATASIZE SUB DUP2 ADD SWAP1 PUSH2 0xD9 SWAP2 SWAP1 PUSH2 0x8EF JUMP JUMPDEST PUSH2 0x544 JUMP JUMPDEST PUSH1 0x40 MLOAD PUSH2 0xEB SWAP2 SWAP1 PUSH2 0xAAC JUMP JUMPDEST PUSH1 0x40 MLOAD DUP1 SWAP2 SUB SWAP1 RETURN JUMPDEST PUSH2 0xFC PUSH2 0x61A JUMP JUMPDEST PUSH1 0x40 MLOAD PUSH2 0x109 SWAP2 SWAP1 PUSH2 0xAAC JUMP JUMPDEST PUSH1 0x40 MLOAD DUP1 SWAP2 SUB SWAP1 RETURN JUMPDEST PUSH2 0x12C PUSH1 0x4 DUP1 CALLDATASIZE SUB DUP2 ADD SWAP1 PUSH2 0x127 SWAP2 SWAP1 PUSH2 0xACC JUMP JUMPDEST PUSH2 0x6B3 JUMP JUMPDEST PUSH1 0x40 MLOAD PUSH2 0x139 SWAP2 SWAP1 PUSH2 0xB0A JUMP JUMPDEST PUSH1 0x40 MLOAD DUP1 SWAP2 SUB SWAP1 RETURN JUMPDEST PUSH2 0x15C PUSH1 0x4 DUP1 CALLDATASIZE SUB DUP2 ADD SWAP1 PUSH2 0x157 SWAP2 SWAP1 PUSH2 0xACC JUMP JUMPDEST PUSH2 0x798 JUMP JUMPDEST PUSH1 0x40 MLOAD PUSH2 0x169 SWAP2 SWAP1 PUSH2 0xB0A JUMP JUMPDEST PUSH1 0x40 MLOAD DUP1 SWAP2 SUB SWAP1 RETURN JUMPDEST PUSH0 DUP1 SLOAD SWAP1 POP DUP4 LT PUSH2 0x1B8 JUMPI PUSH1 0x40 MLOAD PUSH32 0x8C379A000000000000000000000000000000000000000000000000000000000 DUP2 MSTORE PUSH1 0x4 ADD PUSH2 0x1AF SWAP1 PUSH2 0xB7D JUMP JUMPDEST PUSH1 0x40 MLOAD DUP1 SWAP2 SUB SWAP1 REVERT JUMPDEST PUSH0 DUP4 DUP2 SLOAD DUP2 LT PUSH2 0x1CB JUMPI PUSH2 0x1CA PUSH2 0xB9B JUMP JUMPDEST JUMPDEST SWAP1 PUSH0 MSTORE PUSH1 0x20 PUSH0 KECCAK256 ADD DUP1 SLOAD SWAP1 POP DUP3 LT PUSH2 0x218 JUMPI PUSH1 0x40 MLOAD PUSH32 0x8C379A000000000000000000000000000000000000000000000000000000000 DUP2 MSTORE PUSH1 0x4 ADD PUSH2 0x20F SWAP1 PUSH2 0xC12 JUMP JUMPDEST PUSH1 0x40 MLOAD DUP1 SWAP2 SUB SWAP1 REVERT JUMPDEST DUP1 PUSH0 DUP5 DUP2 SLOAD DUP2 LT PUSH2 0x22C JUMPI PUSH2 0x22B PUSH2 0xB9B JUMP JUMPDEST JUMPDEST SWAP1 PUSH0 MSTORE PUSH1 0x20 PUSH0 KECCAK256 ADD DUP4 DUP2 SLOAD DUP2 LT PUSH2 0x246 JUMPI PUSH2 0x245 PUSH2 0xB9B JUMP JUMPDEST JUMPDEST SWAP1 PUSH0 MSTORE PUSH1 0x20 PUSH0 KECCAK256 ADD DUP2 SWAP1 SSTORE POP POP POP POP JUMP JUMPDEST PUSH0 PUSH0 PUSH0 DUP1 SLOAD SWAP1 POP SWAP2 POP PUSH0 DUP3 GT ISZERO PUSH2 0x28E JUMPI PUSH0 PUSH0 DUP2 SLOAD DUP2 LT PUSH2 0x27B JUMPI PUSH2 0x27A PUSH2 0xB9B JUMP JUMPDEST JUMPDEST SWAP1 PUSH0 MSTORE PUSH1 0x20 PUSH0 KECCAK256 ADD DUP1 SLOAD SWAP1 POP SWAP1 POP PUSH2 0x292 JUMP JUMPDEST PUSH0 SWAP1 POP JUMPDEST SWAP1 SWAP2 JUMP JUMPDEST PUSH0 PUSH1 0x3 PUSH8 0xFFFFFFFFFFFFFFFF DUP2 GT ISZERO PUSH2 0x2B2 JUMPI PUSH2 0x2B1 PUSH2 0xC30 JUMP JUMPDEST JUMPDEST PUSH1 0x40 MLOAD SWAP1 DUP1 DUP3 MSTORE DUP1 PUSH1 0x20 MUL PUSH1 0x20 ADD DUP3 ADD PUSH1 0x40 MSTORE DUP1 ISZERO PUSH2 0x2E0 JUMPI DUP2 PUSH1 0x20 ADD PUSH1 0x20 DUP3 MUL DUP1 CALLDATASIZE DUP4 CALLDATACOPY DUP1 DUP3 ADD SWAP2 POP POP SWAP1 POP JUMPDEST POP SWAP1 POP PUSH1 0x1 DUP2 PUSH0 DUP2 MLOAD DUP2 LT PUSH2 0x2F8 JUMPI PUSH2 0x2F7 PUSH2 0xB9B JUMP JUMPDEST JUMPDEST PUSH1 0x20 MUL PUSH1 0x20 ADD ADD DUP2 DUP2 MSTORE POP POP PUSH1 0x2 DUP2 PUSH1 0x1 DUP2 MLOAD DUP2 LT PUSH2 0x31A JUMPI PUSH2 0x319 PUSH2 0xB9B JUMP JUMPDEST JUMPDEST PUSH1 0x20 MUL PUSH1 0x20 ADD ADD DUP2 DUP2 MSTORE POP POP PUSH1 0x3 DUP2 PUSH1 0x2 DUP2 MLOAD DUP2 LT PUSH2 0x33C JUMPI PUSH2 0x33B PUSH2 0xB9B JUMP JUMPDEST JUMPDEST PUSH1 0x20 MUL PUSH1 0x20 ADD ADD DUP2 DUP2 MSTORE POP POP PUSH0 DUP2 SWAP1 DUP1 PUSH1 0x1 DUP2 SLOAD ADD DUP1 DUP3 SSTORE DUP1 SWAP2 POP POP PUSH1 0x1 SWAP1 SUB SWAP1 PUSH0 MSTORE PUSH1 0x20 PUSH0 KECCAK256 ADD PUSH0 SWAP1 SWAP2 SWAP1 SWAP2 SWAP1 SWAP2 POP SWAP1 DUP2 PUSH2 0x378 SWAP2 SWAP1 PUSH2 0xE0D JUMP JUMPDEST POP PUSH0 PUSH1 0x3 PUSH8 0xFFFFFFFFFFFFFFFF DUP2 GT ISZERO PUSH2 0x395 JUMPI PUSH2 0x394 PUSH2 0xC30 JUMP JUMPDEST JUMPDEST PUSH1 0x40 MLOAD SWAP1 DUP1 DUP3 MSTORE DUP1 PUSH1 0x20 MUL PUSH1 0x20 ADD DUP3 ADD PUSH1 0x40 MSTORE DUP1 ISZERO PUSH2 0x3C3 JUMPI DUP2 PUSH1 0x20 ADD PUSH1 0x20 DUP3 MUL DUP1 CALLDATASIZE DUP4 CALLDATACOPY DUP1 DUP3 ADD SWAP2 POP POP SWAP1 POP JUMPDEST POP SWAP1 POP PUSH1 0x4 DUP2 PUSH0 DUP2 MLOAD DUP2 LT PUSH2 0x3DB JUMPI PUSH2 0x3DA PUSH2 0xB9B JUMP JUMPDEST JUMPDEST PUSH1 0x20 MUL PUSH1 0x20 ADD ADD DUP2 DUP2 MSTORE POP POP PUSH1 0x5 DUP2 PUSH1 0x1 DUP2 MLOAD DUP2 LT PUSH2 0x3FD JUMPI PUSH2 0x3FC PUSH2 0xB9B JUMP JUMPDEST JUMPDEST PUSH1 0x20 MUL PUSH1 0x20 ADD ADD DUP2 DUP2 MSTORE POP POP PUSH1 0x6 DUP2 PUSH1 0x2 DUP2 MLOAD DUP2 LT PUSH2 0x41F JUMPI PUSH2 0x41E PUSH2 0xB9B JUMP JUMPDEST JUMPDEST PUSH1 0x20 MUL PUSH1 0x20 ADD ADD DUP2 DUP2 MSTORE POP POP PUSH0 DUP2 SWAP1 DUP1 PUSH1 0x1 DUP2 SLOAD ADD DUP1 DUP3 SSTORE DUP1 SWAP2 POP POP PUSH1 0x1 SWAP1 SUB SWAP1 PUSH0 MSTORE PUSH1 0x20 PUSH0 KECCAK256 ADD PUSH0 SWAP1 SWAP2 SWAP1 SWAP2 SWAP1 SWAP2 POP SWAP1 DUP2 PUSH2 0x45B SWAP2 SWAP1 PUSH2 0xE0D JUMP JUMPDEST POP PUSH0 PUSH1 0x3 PUSH8 0xFFFFFFFFFFFFFFFF DUP2 GT ISZERO PUSH2 0x478 JUMPI PUSH2 0x477 PUSH2 0xC30 JUMP JUMPDEST JUMPDEST PUSH1 0x40 MLOAD SWAP1 DUP1 DUP3 MSTORE DUP1 PUSH1 0x20 MUL PUSH1 0x20 ADD DUP3 ADD PUSH1 0x40 MSTORE DUP1 ISZERO PUSH2 0x4A6 JUMPI DUP2 PUSH1 0x20 ADD PUSH1 0x20 DUP3 MUL DUP1 CALLDATASIZE DUP4 CALLDATACOPY DUP1 DUP3 ADD SWAP2 POP POP SWAP1 POP JUMPDEST POP SWAP1 POP PUSH1 0x7 DUP2 PUSH0 DUP2 MLOAD DUP2 LT PUSH2 0x4BE JUMPI PUSH2 0x4BD PUSH2 0xB9B JUMP JUMPDEST JUMPDEST PUSH1 0x20 MUL PUSH1 0x20 ADD ADD DUP2 DUP2 MSTORE POP POP PUSH1 0x8 DUP2 PUSH1 0x1 DUP2 MLOAD DUP2 LT PUSH2 0x4E0 JUMPI PUSH2 0x4DF PUSH2 0xB9B JUMP JUMPDEST JUMPDEST PUSH1 0x20 MUL PUSH1 0x20 ADD ADD DUP2 DUP2 MSTORE POP POP PUSH1 0x9 DUP2 PUSH1 0x2 DUP2 MLOAD DUP2 LT PUSH2 0x502 JUMPI PUSH2 0x501 PUSH2 0xB9B JUMP JUMPDEST JUMPDEST PUSH1 0x20 MUL PUSH1 0x20 ADD ADD DUP2 DUP2 MSTORE POP POP PUSH0 DUP2 SWAP1 DUP1 PUSH1 0x1 DUP2 SLOAD ADD DUP1 DUP3 SSTORE DUP1 SWAP2 POP POP PUSH1 0x1 SWAP1 SUB SWAP1 PUSH0 MSTORE PUSH1 0x20 PUSH0 KECCAK256 ADD PUSH0 SWAP1 SWAP2 SWAP1 SWAP2 SWAP1 SWAP2 POP SWAP1 DUP2 PUSH2 0x53E SWAP2 SWAP1 PUSH2 0xE0D JUMP JUMPDEST POP POP POP POP JUMP JUMPDEST PUSH1 0x60 PUSH0 DUP4 DUP4 SWAP1 SWAP2 DUP1 PUSH1 0x1 DUP2 SLOAD ADD DUP1 DUP3 SSTORE DUP1 SWAP2 POP POP PUSH1 0x1 SWAP1 SUB SWAP1 PUSH0 MSTORE PUSH1 0x20 PUSH0 KECCAK256 ADD PUSH0 SWAP1 SWAP2 SWAP3 SWAP1 SWAP2 SWAP3 SWAP1 SWAP2 SWAP3 SWAP1 SWAP2 SWAP3 POP SWAP2 DUP3 PUSH2 0x57F SWAP3 SWAP2 SWAP1 PUSH2 0xEB9 JUMP JUMPDEST POP PUSH0 DUP1 SLOAD DUP1 PUSH1 0x20 MUL PUSH1 0x20 ADD PUSH1 0x40 MLOAD SWAP1 DUP2 ADD PUSH1 0x40 MSTORE DUP1 SWAP3 SWAP2 SWAP1 DUP2 DUP2 MSTORE PUSH1 0x20 ADD PUSH0 SWAP1 JUMPDEST DUP3 DUP3 LT ISZERO PUSH2 0x60E JUMPI DUP4 DUP3 SWAP1 PUSH0 MSTORE PUSH1 0x20 PUSH0 KECCAK256 ADD DUP1 SLOAD DUP1 PUSH1 0x20 MUL PUSH1 0x20 ADD PUSH1 0x40 MLOAD SWAP1 DUP2 ADD PUSH1 0x40 MSTORE DUP1 SWAP3 SWAP2 SWAP1 DUP2 DUP2 MSTORE PUSH1 0x20 ADD DUP3 DUP1 SLOAD DUP1 ISZERO PUSH2 0x5FA JUMPI PUSH1 0x20 MUL DUP3 ADD SWAP2 SWAP1 PUSH0 MSTORE PUSH1 0x20 PUSH0 KECCAK256 SWAP1 JUMPDEST DUP2 SLOAD DUP2 MSTORE PUSH1 0x20 ADD SWAP1 PUSH1 0x1 ADD SWAP1 DUP1 DUP4 GT PUSH2 0x5E6 JUMPI JUMPDEST POP POP POP POP POP DUP2 MSTORE PUSH1 0x20 ADD SWAP1 PUSH1 0x1 ADD SWAP1 PUSH2 0x5A0 JUMP JUMPDEST POP POP POP POP SWAP1 POP SWAP3 SWAP2 POP POP JUMP JUMPDEST PUSH1 0x60 PUSH0 DUP1 SLOAD DUP1 PUSH1 0x20 MUL PUSH1 0x20 ADD PUSH1 0x40 MLOAD SWAP1 DUP2 ADD PUSH1 0x40 MSTORE DUP1 SWAP3 SWAP2 SWAP1 DUP2 DUP2 MSTORE PUSH1 0x20 ADD PUSH0 SWAP1 JUMPDEST DUP3 DUP3 LT ISZERO PUSH2 0x6AA JUMPI DUP4 DUP3 SWAP1 PUSH0 MSTORE PUSH1 0x20 PUSH0 KECCAK256 ADD DUP1 SLOAD DUP1 PUSH1 0x20 MUL PUSH1 0x20 ADD PUSH1 0x40 MLOAD SWAP1 DUP2 ADD PUSH1 0x40 MSTORE DUP1 SWAP3 SWAP2 SWAP1 DUP2 DUP2 MSTORE PUSH1 0x20 ADD DUP3 DUP1 SLOAD DUP1 ISZERO PUSH2 0x696 JUMPI PUSH1 0x20 MUL DUP3 ADD SWAP2 SWAP1 PUSH0 MSTORE PUSH1 0x20 PUSH0 KECCAK256 SWAP1 JUMPDEST DUP2 SLOAD DUP2 MSTORE PUSH1 0x20 ADD SWAP1 PUSH1 0x1 ADD SWAP1 DUP1 DUP4 GT PUSH2 0x682 JUMPI JUMPDEST POP POP POP POP POP DUP2 MSTORE PUSH1 0x20 ADD SWAP1 PUSH1 0x1 ADD SWAP1 PUSH2 0x63C JUMP JUMPDEST POP POP POP POP SWAP1 POP SWAP1 JUMP JUMPDEST PUSH0 PUSH0 DUP1 SLOAD SWAP1 POP DUP4 LT PUSH2 0x6FA JUMPI PUSH1 0x40 MLOAD PUSH32 0x8C379A000000000000000000000000000000000000000000000000000000000 DUP2 MSTORE PUSH1 0x4 ADD PUSH2 0x6F1 SWAP1 PUSH2 0xB7D JUMP JUMPDEST PUSH1 0x40 MLOAD DUP1 SWAP2 SUB SWAP1 REVERT JUMPDEST PUSH0 DUP4 DUP2 SLOAD DUP2 LT PUSH2 0x70D JUMPI PUSH2 0x70C PUSH2 0xB9B JUMP JUMPDEST JUMPDEST SWAP1 PUSH0 MSTORE PUSH1 0x20 PUSH0 KECCAK256 ADD DUP1 SLOAD SWAP1 POP DUP3 LT PUSH2 0x75A JUMPI PUSH1 0x40 MLOAD PUSH32 0x8C379A000000000000000000000000000000000000000000000000000000000 DUP2 MSTORE PUSH1 0x4 ADD PUSH2 0x751 SWAP1 PUSH2 0xC12 JUMP JUMPDEST PUSH1 0x40 MLOAD DUP1 SWAP2 SUB SWAP1 REVERT JUMPDEST PUSH0 DUP4 DUP2 SLOAD DUP2 LT PUSH2 0x76D JUMPI PUSH2 0x76C PUSH2 0xB9B JUMP JUMPDEST JUMPDEST SWAP1 PUSH0 MSTORE PUSH1 0x20 PUSH0 KECCAK256 ADD DUP3 DUP2 SLOAD DUP2 LT PUSH2 0x787 JUMPI PUSH2 0x786 PUSH2 0xB9B JUMP JUMPDEST JUMPDEST SWAP1 PUSH0 MSTORE PUSH1 0x20 PUSH0 KECCAK256 ADD SLOAD SWAP1 POP SWAP3 SWAP2 POP POP JUMP JUMPDEST PUSH0 DUP3 DUP2 SLOAD DUP2 LT PUSH2 0x7A6 JUMPI PUSH0 DUP1 REVERT JUMPDEST SWAP1 PUSH0 MSTORE PUSH1 0x20 PUSH0 KECCAK256 ADD DUP2 DUP2 SLOAD DUP2 LT PUSH2 0x7BB JUMPI PUSH0 DUP1 REVERT JUMPDEST SWAP1 PUSH0 MSTORE PUSH1 0x20 PUSH0 KECCAK256 ADD PUSH0 SWAP2 POP SWAP2 POP POP SLOAD DUP2 JUMP JUMPDEST PUSH0 PUSH0 REVERT JUMPDEST PUSH0 PUSH0 REVERT JUMPDEST PUSH0 DUP2 SWAP1 POP SWAP2 SWAP1 POP JUMP JUMPDEST PUSH2 0x7E7 DUP2 PUSH2 0x7D5 JUMP JUMPDEST DUP2 EQ PUSH2 0x7F1 JUMPI PUSH0 PUSH0 REVERT JUMPDEST POP JUMP JUMPDEST PUSH0 DUP2 CALLDATALOAD SWAP1 POP PUSH2 0x802 DUP2 PUSH2 0x7DE JUMP JUMPDEST SWAP3 SWAP2 POP POP JUMP JUMPDEST PUSH0 PUSH0 PUSH0 PUSH1 0x60 DUP5 DUP7 SUB SLT ISZERO PUSH2 0x81F JUMPI PUSH2 0x81E PUSH2 0x7CD JUMP JUMPDEST JUMPDEST PUSH0 PUSH2 0x82C DUP7 DUP3 DUP8 ADD PUSH2 0x7F4 JUMP JUMPDEST SWAP4 POP POP PUSH1 0x20 PUSH2 0x83D DUP7 DUP3 DUP8 ADD PUSH2 0x7F4 JUMP JUMPDEST SWAP3 POP POP PUSH1 0x40 PUSH2 0x84E DUP7 DUP3 DUP8 ADD PUSH2 0x7F4 JUMP JUMPDEST SWAP2 POP POP SWAP3 POP SWAP3 POP SWAP3 JUMP JUMPDEST PUSH2 0x861 DUP2 PUSH2 0x7D5 JUMP JUMPDEST DUP3 MSTORE POP POP JUMP JUMPDEST PUSH0 PUSH1 0x40 DUP3 ADD SWAP1 POP PUSH2 0x87A PUSH0 DUP4 ADD DUP6 PUSH2 0x858 JUMP JUMPDEST PUSH2 0x887 PUSH1 0x20 DUP4 ADD DUP5 PUSH2 0x858 JUMP JUMPDEST SWAP4 SWAP3 POP POP POP JUMP JUMPDEST PUSH0 PUSH0 REVERT JUMPDEST PUSH0 PUSH0 REVERT JUMPDEST PUSH0 PUSH0 REVERT JUMPDEST PUSH0 PUSH0 DUP4 PUSH1 0x1F DUP5 ADD SLT PUSH2 0x8AF JUMPI PUSH2 0x8AE PUSH2 0x88E JUMP JUMPDEST JUMPDEST DUP3 CALLDATALOAD SWAP1 POP PUSH8 0xFFFFFFFFFFFFFFFF DUP2 GT ISZERO PUSH2 0x8CC JUMPI PUSH2 0x8CB PUSH2 0x892 JUMP JUMPDEST JUMPDEST PUSH1 0x20 DUP4 ADD SWAP2 POP DUP4 PUSH1 0x20 DUP3 MUL DUP4 ADD GT ISZERO PUSH2 0x8E8 JUMPI PUSH2 0x8E7 PUSH2 0x896 JUMP JUMPDEST JUMPDEST SWAP3 POP SWAP3 SWAP1 POP JUMP JUMPDEST PUSH0 PUSH0 PUSH1 0x20 DUP4 DUP6 SUB SLT ISZERO PUSH2 0x905 JUMPI PUSH2 0x904 PUSH2 0x7CD JUMP JUMPDEST JUMPDEST PUSH0 DUP4 ADD CALLDATALOAD PUSH8 0xFFFFFFFFFFFFFFFF DUP2 GT ISZERO PUSH2 0x922 JUMPI PUSH2 0x921 PUSH2 0x7D1 JUMP JUMPDEST JUMPDEST PUSH2 0x92E DUP6 DUP3 DUP7 ADD PUSH2 0x89A JUMP JUMPDEST SWAP3 POP SWAP3 POP POP SWAP3 POP SWAP3 SWAP1 POP JUMP JUMPDEST PUSH0 DUP2 MLOAD SWAP1 POP SWAP2 SWAP1 POP JUMP JUMPDEST PUSH0 DUP3 DUP3 MSTORE PUSH1 0x20 DUP3 ADD SWAP1 POP SWAP3 SWAP2 POP POP JUMP JUMPDEST PUSH0 DUP2 SWAP1 POP PUSH1 0x20 DUP3 ADD SWAP1 POP SWAP2 SWAP1 POP JUMP JUMPDEST PUSH0 DUP2 MLOAD SWAP1 POP SWAP2 SWAP1 POP JUMP JUMPDEST PUSH0 DUP3 DUP3 MSTORE PUSH1 0x20 DUP3 ADD SWAP1 POP SWAP3 SWAP2 POP POP JUMP JUMPDEST PUSH0 DUP2 SWAP1 POP PUSH1 0x20 DUP3 ADD SWAP1 POP SWAP2 SWAP1 POP JUMP JUMPDEST PUSH2 0x995 DUP2 PUSH2 0x7D5 JUMP JUMPDEST DUP3 MSTORE POP POP JUMP JUMPDEST PUSH0 PUSH2 0x9A6 DUP4 DUP4 PUSH2 0x98C JUMP JUMPDEST PUSH1 0x20 DUP4 ADD SWAP1 POP SWAP3 SWAP2 POP POP JUMP JUMPDEST PUSH0 PUSH1 0x20 DUP3 ADD SWAP1 POP SWAP2 SWAP1 POP JUMP JUMPDEST PUSH0 PUSH2 0x9C8 DUP3 PUSH2 0x963 JUMP JUMPDEST PUSH2 0x9D2 DUP2 DUP6 PUSH2 0x96D JUMP JUMPDEST SWAP4 POP PUSH2 0x9DD DUP4 PUSH2 0x97D JUMP JUMPDEST DUP1 PUSH0 JUMPDEST DUP4 DUP2 LT ISZERO PUSH2 0xA0D JUMPI DUP2 MLOAD PUSH2 0x9F4 DUP9 DUP3 PUSH2 0x99B JUMP JUMPDEST SWAP8 POP PUSH2 0x9FF DUP4 PUSH2 0x9B2 JUMP JUMPDEST SWAP3 POP POP PUSH1 0x1 DUP2 ADD SWAP1 POP PUSH2 0x9E0 JUMP JUMPDEST POP DUP6 SWAP4 POP POP POP POP SWAP3 SWAP2 POP POP JUMP JUMPDEST PUSH0 PUSH2 0xA25 DUP4 DUP4 PUSH2 0x9BE JUMP JUMPDEST SWAP1 POP SWAP3 SWAP2 POP POP JUMP JUMPDEST PUSH0 PUSH1 0x20 DUP3 ADD SWAP1 POP SWAP2 SWAP1 POP JUMP JUMPDEST PUSH0 PUSH2 0xA43 DUP3 PUSH2 0x93A JUMP JUMPDEST PUSH2 0xA4D DUP2 DUP6 PUSH2 0x944 JUMP JUMPDEST SWAP4 POP DUP4 PUSH1 0x20 DUP3 MUL DUP6 ADD PUSH2 0xA5F DUP6 PUSH2 0x954 JUMP JUMPDEST DUP1 PUSH0 JUMPDEST DUP6 DUP2 LT ISZERO PUSH2 0xA9A JUMPI DUP5 DUP5 SUB DUP10 MSTORE DUP2 MLOAD PUSH2 0xA7B DUP6 DUP3 PUSH2 0xA1A JUMP JUMPDEST SWAP5 POP PUSH2 0xA86 DUP4 PUSH2 0xA2D JUMP JUMPDEST SWAP3 POP PUSH1 0x20 DUP11 ADD SWAP10 POP POP PUSH1 0x1 DUP2 ADD SWAP1 POP PUSH2 0xA62 JUMP JUMPDEST POP DUP3 SWAP8 POP DUP8 SWAP6 POP POP POP POP POP POP SWAP3 SWAP2 POP POP JUMP JUMPDEST PUSH0 PUSH1 0x20 DUP3 ADD SWAP1 POP DUP2 DUP2 SUB PUSH0 DUP4 ADD MSTORE PUSH2 0xAC4 DUP2 DUP5 PUSH2 0xA39 JUMP JUMPDEST SWAP1 POP SWAP3 SWAP2 POP POP JUMP JUMPDEST PUSH0 PUSH0 PUSH1 0x40 DUP4 DUP6 SUB SLT ISZERO PUSH2 0xAE2 JUMPI PUSH2 0xAE1 PUSH2 0x7CD JUMP JUMPDEST JUMPDEST PUSH0 PUSH2 0xAEF DUP6 DUP3 DUP7 ADD PUSH2 0x7F4 JUMP JUMPDEST SWAP3 POP POP PUSH1 0x20 PUSH2 0xB00 DUP6 DUP3 DUP7 ADD PUSH2 0x7F4 JUMP JUMPDEST SWAP2 POP POP SWAP3 POP SWAP3 SWAP1 POP JUMP JUMPDEST PUSH0 PUSH1 0x20 DUP3 ADD SWAP1 POP PUSH2 0xB1D PUSH0 DUP4 ADD DUP5 PUSH2 0x858 JUMP JUMPDEST SWAP3 SWAP2 POP POP JUMP JUMPDEST PUSH0 DUP3 DUP3 MSTORE PUSH1 0x20 DUP3 ADD SWAP1 POP SWAP3 SWAP2 POP POP JUMP JUMPDEST PUSH32 0xE8B685E8BF87E695B0E7BB84E69C80E5A4A7E8A18CE695B00000000000000000 PUSH0 DUP3 ADD MSTORE POP JUMP JUMPDEST PUSH0 PUSH2 0xB67 PUSH1 0x18 DUP4 PUSH2 0xB23 JUMP JUMPDEST SWAP2 POP PUSH2 0xB72 DUP3 PUSH2 0xB33 JUMP JUMPDEST PUSH1 0x20 DUP3 ADD SWAP1 POP SWAP2 SWAP1 POP JUMP JUMPDEST PUSH0 PUSH1 0x20 DUP3 ADD SWAP1 POP DUP2 DUP2 SUB PUSH0 DUP4 ADD MSTORE PUSH2 0xB94 DUP2 PUSH2 0xB5B JUMP JUMPDEST SWAP1 POP SWAP2 SWAP1 POP JUMP JUMPDEST PUSH32 0x4E487B7100000000000000000000000000000000000000000000000000000000 PUSH0 MSTORE PUSH1 0x32 PUSH1 0x4 MSTORE PUSH1 0x24 PUSH0 REVERT JUMPDEST PUSH32 0xE8B685E8BF87E695B0E7BB84E69C80E5A4A7E58897E695B00000000000000000 PUSH0 DUP3 ADD MSTORE POP JUMP JUMPDEST PUSH0 PUSH2 0xBFC PUSH1 0x18 DUP4 PUSH2 0xB23 JUMP JUMPDEST SWAP2 POP PUSH2 0xC07 DUP3 PUSH2 0xBC8 JUMP JUMPDEST PUSH1 0x20 DUP3 ADD SWAP1 POP SWAP2 SWAP1 POP JUMP JUMPDEST PUSH0 PUSH1 0x20 DUP3 ADD SWAP1 POP DUP2 DUP2 SUB PUSH0 DUP4 ADD MSTORE PUSH2 0xC29 DUP2 PUSH2 0xBF0 JUMP JUMPDEST SWAP1 POP SWAP2 SWAP1 POP JUMP JUMPDEST PUSH32 0x4E487B7100000000000000000000000000000000000000000000000000000000 PUSH0 MSTORE PUSH1 0x41 PUSH1 0x4 MSTORE PUSH1 0x24 PUSH0 REVERT JUMPDEST PUSH0 DUP2 SLOAD SWAP1 POP SWAP2 SWAP1 POP JUMP JUMPDEST PUSH0 DUP2 SWAP1 POP PUSH1 0x1 DUP1 PUSH1 0x1 SUB DUP4 ADD DIV SWAP1 POP SWAP2 SWAP1 POP JUMP JUMPDEST PUSH0 DUP2 SWAP1 POP DUP2 PUSH0 MSTORE PUSH1 0x20 PUSH0 KECCAK256 SWAP1 POP SWAP2 SWAP1 POP JUMP JUMPDEST PUSH0 DUP3 DUP3 SHL SWAP1 POP SWAP3 SWAP2 POP POP JUMP JUMPDEST PUSH0 PUSH1 0x8 DUP4 MUL PUSH2 0xCC8 PUSH32 0xFFFFFFFFFFFFFFFFFFFFFFFFFFFFFFFFFFFFFFFFFFFFFFFFFFFFFFFFFFFFFFFF DUP3 PUSH2 0xC8D JUMP JUMPDEST PUSH2 0xCD2 DUP7 DUP4 PUSH2 0xC8D JUMP JUMPDEST SWAP6 POP DUP1 NOT DUP5 AND SWAP4 POP DUP1 DUP7 AND DUP5 OR SWAP3 POP POP POP SWAP4 SWAP3 POP POP POP JUMP JUMPDEST PUSH0 DUP2 SWAP1 POP SWAP2 SWAP1 POP JUMP JUMPDEST PUSH0 PUSH2 0xD0D PUSH2 0xD08 PUSH2 0xD03 DUP5 PUSH2 0x7D5 JUMP JUMPDEST PUSH2 0xCEA JUMP JUMPDEST PUSH2 0x7D5 JUMP JUMPDEST SWAP1 POP SWAP2 SWAP1 POP JUMP JUMPDEST PUSH0 DUP2 SWAP1 POP SWAP2 SWAP1 POP JUMP JUMPDEST PUSH2 0xD26 DUP4 PUSH2 0xCF3 JUMP JUMPDEST PUSH2 0xD3A PUSH2 0xD32 DUP3 PUSH2 0xD14 JUMP JUMPDEST DUP5 DUP5 SLOAD PUSH2 0xC99 JUMP JUMPDEST DUP3 SSTORE POP POP POP POP JUMP JUMPDEST PUSH0 PUSH0 SWAP1 POP SWAP1 JUMP JUMPDEST PUSH2 0xD51 PUSH2 0xD42 JUMP JUMPDEST PUSH2 0xD5C DUP2 DUP5 DUP5 PUSH2 0xD1D JUMP JUMPDEST POP POP POP JUMP JUMPDEST PUSH0 JUMPDEST DUP3 DUP2 LT ISZERO PUSH2 0xD82 JUMPI PUSH2 0xD77 PUSH0 DUP3 DUP5 ADD PUSH2 0xD49 JUMP JUMPDEST PUSH1 0x1 DUP2 ADD SWAP1 POP PUSH2 0xD63 JUMP JUMPDEST POP POP POP JUMP JUMPDEST DUP2 DUP4 LT ISZERO PUSH2 0xDBE JUMPI PUSH2 0xD98 DUP3 PUSH2 0xC67 JUMP JUMPDEST PUSH2 0xDA1 DUP5 PUSH2 0xC67 JUMP JUMPDEST PUSH2 0xDAA DUP4 PUSH2 0xC7B JUMP JUMPDEST DUP2 DUP2 ADD PUSH2 0xDB9 DUP4 DUP6 SUB DUP3 PUSH2 0xD61 JUMP JUMPDEST POP POP POP POP JUMPDEST POP POP POP JUMP JUMPDEST PUSH9 0x10000000000000000 DUP3 GT ISZERO PUSH2 0xDDD JUMPI PUSH2 0xDDC PUSH2 0xC30 JUMP JUMPDEST JUMPDEST PUSH2 0xDE6 DUP2 PUSH2 0xC5D JUMP JUMPDEST DUP3 DUP3 SSTORE PUSH2 0xDF4 DUP4 DUP3 DUP5 PUSH2 0xD87 JUMP JUMPDEST POP POP POP JUMP JUMPDEST PUSH0 PUSH2 0xE04 DUP3 MLOAD PUSH2 0x7D5 JUMP JUMPDEST DUP1 SWAP2 POP POP SWAP2 SWAP1 POP JUMP JUMPDEST PUSH2 0xE16 DUP3 PUSH2 0x963 JUMP JUMPDEST PUSH8 0xFFFFFFFFFFFFFFFF DUP2 GT ISZERO PUSH2 0xE2F JUMPI PUSH2 0xE2E PUSH2 0xC30 JUMP JUMPDEST JUMPDEST PUSH2 0xE39 DUP2 DUP4 PUSH2 0xDC3 JUMP JUMPDEST PUSH2 0xE42 DUP4 PUSH2 0x97D JUMP JUMPDEST PUSH2 0xE4B DUP4 PUSH2 0xC7B JUMP JUMPDEST PUSH1 0x1 DUP4 DIV PUSH0 JUMPDEST DUP2 DUP2 LT ISZERO PUSH2 0xE88 JUMPI PUSH0 PUSH2 0xE63 DUP6 PUSH2 0xDF9 JUMP JUMPDEST PUSH2 0xE6C DUP2 PUSH2 0xD14 JUMP JUMPDEST DUP1 SWAP3 POP PUSH1 0x20 DUP8 ADD SWAP7 POP POP POP DUP1 DUP3 DUP6 ADD SSTORE POP PUSH1 0x1 DUP2 ADD SWAP1 POP PUSH2 0xE51 JUMP JUMPDEST POP POP POP POP POP POP POP JUMP JUMPDEST PUSH0 DUP3 SWAP1 POP SWAP3 SWAP2 POP POP JUMP JUMPDEST PUSH0 DUP2 CALLDATALOAD PUSH2 0xEA7 DUP2 PUSH2 0x7DE JUMP JUMPDEST DUP1 SWAP2 POP POP SWAP2 SWAP1 POP JUMP JUMPDEST PUSH0 DUP2 SWAP1 POP SWAP2 SWAP1 POP JUMP JUMPDEST PUSH2 0xEC3 DUP4 DUP4 PUSH2 0xE91 JUMP JUMPDEST PUSH8 0xFFFFFFFFFFFFFFFF DUP2 GT ISZERO PUSH2 0xEDC JUMPI PUSH2 0xEDB PUSH2 0xC30 JUMP JUMPDEST JUMPDEST PUSH2 0xEE6 DUP2 DUP4 PUSH2 0xDC3 JUMP JUMPDEST PUSH2 0xEEF DUP4 PUSH2 0xEB0 JUMP JUMPDEST PUSH2 0xEF8 DUP4 PUSH2 0xC7B JUMP JUMPDEST PUSH1 0x1 DUP4 DIV PUSH0 JUMPDEST DUP2 DUP2 LT ISZERO PUSH2 0xF35 JUMPI PUSH0 PUSH2 0xF10 DUP6 PUSH2 0xE9B JUMP JUMPDEST PUSH2 0xF19 DUP2 PUSH2 0xD14 JUMP JUMPDEST DUP1 SWAP3 POP PUSH1 0x20 DUP8 ADD SWAP7 POP POP POP DUP1 DUP3 DUP6 ADD SSTORE POP PUSH1 0x1 DUP2 ADD SWAP1 POP PUSH2 0xEFE JUMP JUMPDEST POP POP POP POP POP POP POP POP JUMP INVALID LOG2 PUSH5 0x6970667358 0x22 SLT KECCAK256 SDIV MULMOD MCOPY CODECOPY 0x25 0xF 0xC CALLDATASIZE CODESIZE 0x4B 0xC4 ADDMOD COINBASE 0xE MSIZE BLOBHASH SWAP12 0x24 0xD6 PUSH28 0xE39D2BA9BE69511454ABBBC664736F6C634300082200330000000000 "
				},
				"gasEstimates": {
					"creation": {
						"codeDepositCost": "791400",
						"executionCost": "823",
						"totalCost": "792223"
					},
					"external": {
						"addRow(uint256[])": "infinite",
						"getAllElement()": "infinite",
						"getDimesion()": "infinite",
						"getElement(uint256,uint256)": "infinite",
						"initialize()": "infinite",
						"matrix(uint256,uint256)": "infinite",
						"setElememt(uint256,uint256,uint256)": "infinite"
					}
				},
				"methodIdentifiers": {
					"addRow(uint256[])": "84d92f8e",
					"getAllElement()": "b76b78fb",
					"getDimesion()": "5834c642",
					"getElement(uint256,uint256)": "cb34f1da",
					"initialize()": "8129fc1c",
					"matrix(uint256,uint256)": "d9a38d64",
					"setElememt(uint256,uint256,uint256)": "22cbbe39"
				}
			},
			"storageLayout": {
				"storage": [
					{
						"astId": 5,
						"contract": "contracts/3.1/06MultiDimesionArray/TwoDimesionArray.sol:TwoDimesionArray",
						"label": "matrix",
						"offset": 0,
						"slot": "0",
						"type": "t_array(t_array(t_uint256)dyn_storage)dyn_storage"
					}
				],
				"types": {
					"t_array(t_array(t_uint256)dyn_storage)dyn_storage": {
						"base": "t_array(t_uint256)dyn_storage",
						"encoding": "dynamic_array",
						"label": "uint256[][]",
						"numberOfBytes": "32"
					},
					"t_array(t_uint256)dyn_storage": {
						"base": "t_uint256",
						"encoding": "dynamic_array",
						"label": "uint256[]",
						"numberOfBytes": "32"
					},
					"t_uint256": {
						"encoding": "inplace",
						"label": "uint256",
						"numberOfBytes": "32"
					}
				}
			},
			"userdoc": {
				"kind": "user",
				"methods": {},
				"version": 1
			}
		}
	}
}