{
	"contracts/1.2/Task.sol": {
		"Task": {
			"abi": [
				{
					"inputs": [
						{
							"internalType": "uint256",
							"name": "",
							"type": "uint256"
						}
					],
					"name": "data",
					"outputs": [
						{
							"internalType": "uint256",
							"name": "",
							"type": "uint256"
						}
					],
					"stateMutability": "view",
					"type": "function"
				},
				{
					"inputs": [],
					"name": "getSum",
					"outputs": [
						{
							"internalType": "uint256",
							"name": "",
							"type": "uint256"
						}
					],
					"stateMutability": "view",
					"type": "function"
				},
				{
					"inputs": [
						{
							"internalType": "uint256[]",
							"name": "input",
							"type": "uint256[]"
						}
					],
					"name": "processData",
					"outputs": [],
					"stateMutability": "nonpayable",
					"type": "function"
				}
			],
			"devdoc": {
				"kind": "dev",
				"methods": {},
				"version": 1
			},
			"evm": {
				"assembly": "    /* \"contracts/1.2/Task.sol\":60:578  contract Task {... */\n  mstore(0x40, 0x80)\n  callvalue\n  dup1\n  iszero\n  tag_1\n  jumpi\n  revert(0x00, 0x00)\ntag_1:\n  pop\n  dataSize(sub_0)\n  dup1\n  dataOffset(sub_0)\n  0x00\n  codecopy\n  0x00\n  return\nstop\n\nsub_0: assembly {\n        /* \"contracts/1.2/Task.sol\":60:578  contract Task {... */\n      mstore(0x40, 0x80)\n      callvalue\n      dup1\n      iszero\n      tag_1\n      jumpi\n      revert(0x00, 0x00)\n    tag_1:\n      pop\n      jumpi(tag_2, lt(calldatasize, 0x04))\n      shr(0xe0, calldataload(0x00))\n      dup1\n      0x569c5f6d\n      eq\n      tag_3\n      jumpi\n      dup1\n      0x8ed80c66\n      eq\n      tag_4\n      jumpi\n      dup1\n      0xf0ba8440\n      eq\n      tag_5\n      jumpi\n    tag_2:\n      revert(0x00, 0x00)\n        /* \"contracts/1.2/Task.sol\":389:575  function getSum() public view returns (uint) {... */\n    tag_3:\n      tag_6\n      tag_7\n      jump\t// in\n    tag_6:\n      mload(0x40)\n      tag_8\n      swap2\n      swap1\n      tag_9\n      jump\t// in\n    tag_8:\n      mload(0x40)\n      dup1\n      swap2\n      sub\n      swap1\n      return\n        /* \"contracts/1.2/Task.sol\":150:345  function processData(uint[] memory input) public {... */\n    tag_4:\n      tag_10\n      0x04\n      dup1\n      calldatasize\n      sub\n      dup2\n      add\n      swap1\n      tag_11\n      swap2\n      swap1\n      tag_12\n      jump\t// in\n    tag_11:\n      tag_13\n      jump\t// in\n    tag_10:\n      stop\n        /* \"contracts/1.2/Task.sol\":81:99  uint[] public data */\n    tag_5:\n      tag_14\n      0x04\n      dup1\n      calldatasize\n      sub\n      dup2\n      add\n      swap1\n      tag_15\n      swap2\n      swap1\n      tag_16\n      jump\t// in\n    tag_15:\n      tag_17\n      jump\t// in\n    tag_14:\n      mload(0x40)\n      tag_18\n      swap2\n      swap1\n      tag_9\n      jump\t// in\n    tag_18:\n      mload(0x40)\n      dup1\n      swap2\n      sub\n      swap1\n      return\n        /* \"contracts/1.2/Task.sol\":389:575  function getSum() public view returns (uint) {... */\n    tag_7:\n        /* \"contracts/1.2/Task.sol\":428:432  uint */\n      0x00\n        /* \"contracts/1.2/Task.sol\":445:453  uint sum */\n      0x00\n        /* \"contracts/1.2/Task.sol\":456:457  0 */\n      0x00\n        /* \"contracts/1.2/Task.sol\":445:457  uint sum = 0 */\n      swap1\n      pop\n        /* \"contracts/1.2/Task.sol\":472:478  uint i */\n      0x00\n        /* \"contracts/1.2/Task.sol\":481:482  0 */\n      0x00\n        /* \"contracts/1.2/Task.sol\":472:482  uint i = 0 */\n      swap1\n      pop\n        /* \"contracts/1.2/Task.sol\":468:547  for(uint i = 0; i < data.length; i++) {... */\n    tag_20:\n        /* \"contracts/1.2/Task.sol\":488:492  data */\n      0x00\n        /* \"contracts/1.2/Task.sol\":488:499  data.length */\n      dup1\n      sload\n      swap1\n      pop\n        /* \"contracts/1.2/Task.sol\":484:485  i */\n      dup2\n        /* \"contracts/1.2/Task.sol\":484:499  i < data.length */\n      lt\n        /* \"contracts/1.2/Task.sol\":468:547  for(uint i = 0; i < data.length; i++) {... */\n      iszero\n      tag_21\n      jumpi\n        /* \"contracts/1.2/Task.sol\":528:532  data */\n      0x00\n        /* \"contracts/1.2/Task.sol\":533:534  i */\n      dup2\n        /* \"contracts/1.2/Task.sol\":528:535  data[i] */\n      dup2\n      sload\n      dup2\n      lt\n      tag_23\n      jumpi\n      tag_24\n      tag_25\n      jump\t// in\n    tag_24:\n    tag_23:\n      swap1\n      0x00\n      mstore\n      keccak256(0x00, 0x20)\n      add\n      sload\n        /* \"contracts/1.2/Task.sol\":521:535  sum += data[i] */\n      dup3\n      tag_27\n      swap2\n      swap1\n      tag_28\n      jump\t// in\n    tag_27:\n      swap2\n      pop\n        /* \"contracts/1.2/Task.sol\":501:504  i++ */\n      dup1\n      dup1\n      0x01\n      add\n      swap2\n      pop\n      pop\n        /* \"contracts/1.2/Task.sol\":468:547  for(uint i = 0; i < data.length; i++) {... */\n      jump(tag_20)\n    tag_21:\n      pop\n        /* \"contracts/1.2/Task.sol\":564:567  sum */\n      dup1\n        /* \"contracts/1.2/Task.sol\":557:567  return sum */\n      swap2\n      pop\n      pop\n        /* \"contracts/1.2/Task.sol\":389:575  function getSum() public view returns (uint) {... */\n      swap1\n      jump\t// out\n        /* \"contracts/1.2/Task.sol\":150:345  function processData(uint[] memory input) public {... */\n    tag_13:\n        /* \"contracts/1.2/Task.sol\":217:221  data */\n      0x00\n      0x00\n        /* \"contracts/1.2/Task.sol\":210:221  delete data */\n      tag_30\n      swap2\n      swap1\n      tag_31\n      jump\t// in\n    tag_30:\n        /* \"contracts/1.2/Task.sol\":253:259  uint i */\n      0x00\n        /* \"contracts/1.2/Task.sol\":262:263  0 */\n      0x00\n        /* \"contracts/1.2/Task.sol\":253:263  uint i = 0 */\n      swap1\n      pop\n        /* \"contracts/1.2/Task.sol\":249:338  for(uint i = 0; i < input.length; i++) {... */\n    tag_32:\n        /* \"contracts/1.2/Task.sol\":269:274  input */\n      dup2\n        /* \"contracts/1.2/Task.sol\":269:281  input.length */\n      mload\n        /* \"contracts/1.2/Task.sol\":265:266  i */\n      dup2\n        /* \"contracts/1.2/Task.sol\":265:281  i < input.length */\n      lt\n        /* \"contracts/1.2/Task.sol\":249:338  for(uint i = 0; i < input.length; i++) {... */\n      iszero\n      tag_33\n      jumpi\n        /* \"contracts/1.2/Task.sol\":303:307  data */\n      0x00\n        /* \"contracts/1.2/Task.sol\":324:325  2 */\n      0x02\n        /* \"contracts/1.2/Task.sol\":313:318  input */\n      dup4\n        /* \"contracts/1.2/Task.sol\":319:320  i */\n      dup4\n        /* \"contracts/1.2/Task.sol\":313:321  input[i] */\n      dup2\n      mload\n      dup2\n      lt\n      tag_35\n      jumpi\n      tag_36\n      tag_25\n      jump\t// in\n    tag_36:\n    tag_35:\n      0x20\n      mul\n      0x20\n      add\n      add\n      mload\n        /* \"contracts/1.2/Task.sol\":313:325  input[i] * 2 */\n      tag_37\n      swap2\n      swap1\n      tag_38\n      jump\t// in\n    tag_37:\n        /* \"contracts/1.2/Task.sol\":303:326  data.push(input[i] * 2) */\n      swap1\n      dup1\n      0x01\n      dup2\n      sload\n      add\n      dup1\n      dup3\n      sstore\n      dup1\n      swap2\n      pop\n      pop\n      0x01\n      swap1\n      sub\n      swap1\n      0x00\n      mstore\n      keccak256(0x00, 0x20)\n      add\n      0x00\n      swap1\n      swap2\n      swap1\n      swap2\n      swap1\n      swap2\n      pop\n      sstore\n        /* \"contracts/1.2/Task.sol\":283:286  i++ */\n      dup1\n      dup1\n      0x01\n      add\n      swap2\n      pop\n      pop\n        /* \"contracts/1.2/Task.sol\":249:338  for(uint i = 0; i < input.length; i++) {... */\n      jump(tag_32)\n    tag_33:\n      pop\n        /* \"contracts/1.2/Task.sol\":150:345  function processData(uint[] memory input) public {... */\n      pop\n      jump\t// out\n        /* \"contracts/1.2/Task.sol\":81:99  uint[] public data */\n    tag_17:\n      0x00\n      dup2\n      dup2\n      sload\n      dup2\n      lt\n      tag_40\n      jumpi\n      0x00\n      dup1\n      revert\n    tag_40:\n      swap1\n      0x00\n      mstore\n      keccak256(0x00, 0x20)\n      add\n      0x00\n      swap2\n      pop\n      swap1\n      pop\n      sload\n      dup2\n      jump\t// out\n    tag_31:\n      pop\n      dup1\n      sload\n      0x00\n      dup3\n      sstore\n      swap1\n      0x00\n      mstore\n      keccak256(0x00, 0x20)\n      swap1\n      tag_43\n      swap2\n      swap1\n      tag_44\n      jump\t// in\n    tag_43:\n      jump\t// out\n    tag_44:\n      0x00\n    tag_45:\n      dup1\n      dup3\n      gt\n      iszero\n      tag_46\n      jumpi\n      dup3\n      dup2\n      add\n      0x00\n      swap1\n      sstore\n      0x01\n      add\n      jump(tag_45)\n    tag_46:\n      pop\n      pop\n      pop\n      jump\t// out\n        /* \"#utility.yul\":7:84   */\n    tag_47:\n        /* \"#utility.yul\":44:51   */\n      0x00\n        /* \"#utility.yul\":73:78   */\n      dup2\n        /* \"#utility.yul\":62:78   */\n      swap1\n      pop\n        /* \"#utility.yul\":7:84   */\n      swap2\n      swap1\n      pop\n      jump\t// out\n        /* \"#utility.yul\":90:208   */\n    tag_48:\n        /* \"#utility.yul\":177:201   */\n      tag_67\n        /* \"#utility.yul\":195:200   */\n      dup2\n        /* \"#utility.yul\":177:201   */\n      tag_47\n      jump\t// in\n    tag_67:\n        /* \"#utility.yul\":172:175   */\n      dup3\n        /* \"#utility.yul\":165:202   */\n      mstore\n        /* \"#utility.yul\":90:208   */\n      pop\n      pop\n      jump\t// out\n        /* \"#utility.yul\":214:436   */\n    tag_9:\n        /* \"#utility.yul\":307:311   */\n      0x00\n        /* \"#utility.yul\":345:347   */\n      0x20\n        /* \"#utility.yul\":334:343   */\n      dup3\n        /* \"#utility.yul\":330:348   */\n      add\n        /* \"#utility.yul\":322:348   */\n      swap1\n      pop\n        /* \"#utility.yul\":358:429   */\n      tag_69\n        /* \"#utility.yul\":426:427   */\n      0x00\n        /* \"#utility.yul\":415:424   */\n      dup4\n        /* \"#utility.yul\":411:428   */\n      add\n        /* \"#utility.yul\":402:408   */\n      dup5\n        /* \"#utility.yul\":358:429   */\n      tag_48\n      jump\t// in\n    tag_69:\n        /* \"#utility.yul\":214:436   */\n      swap3\n      swap2\n      pop\n      pop\n      jump\t// out\n        /* \"#utility.yul\":442:517   */\n    tag_49:\n        /* \"#utility.yul\":475:481   */\n      0x00\n        /* \"#utility.yul\":508:510   */\n      0x40\n        /* \"#utility.yul\":502:511   */\n      mload\n        /* \"#utility.yul\":492:511   */\n      swap1\n      pop\n        /* \"#utility.yul\":442:517   */\n      swap1\n      jump\t// out\n        /* \"#utility.yul\":523:640   */\n    tag_50:\n        /* \"#utility.yul\":632:633   */\n      0x00\n        /* \"#utility.yul\":629:630   */\n      0x00\n        /* \"#utility.yul\":622:634   */\n      revert\n        /* \"#utility.yul\":646:763   */\n    tag_51:\n        /* \"#utility.yul\":755:756   */\n      0x00\n        /* \"#utility.yul\":752:753   */\n      0x00\n        /* \"#utility.yul\":745:757   */\n      revert\n        /* \"#utility.yul\":769:886   */\n    tag_52:\n        /* \"#utility.yul\":878:879   */\n      0x00\n        /* \"#utility.yul\":875:876   */\n      0x00\n        /* \"#utility.yul\":868:880   */\n      revert\n        /* \"#utility.yul\":892:994   */\n    tag_53:\n        /* \"#utility.yul\":933:939   */\n      0x00\n        /* \"#utility.yul\":984:986   */\n      0x1f\n        /* \"#utility.yul\":980:987   */\n      not\n        /* \"#utility.yul\":975:977   */\n      0x1f\n        /* \"#utility.yul\":968:973   */\n      dup4\n        /* \"#utility.yul\":964:978   */\n      add\n        /* \"#utility.yul\":960:988   */\n      and\n        /* \"#utility.yul\":950:988   */\n      swap1\n      pop\n        /* \"#utility.yul\":892:994   */\n      swap2\n      swap1\n      pop\n      jump\t// out\n        /* \"#utility.yul\":1000:1180   */\n    tag_54:\n        /* \"#utility.yul\":1048:1125   */\n      0x4e487b7100000000000000000000000000000000000000000000000000000000\n        /* \"#utility.yul\":1045:1046   */\n      0x00\n        /* \"#utility.yul\":1038:1126   */\n      mstore\n        /* \"#utility.yul\":1145:1149   */\n      0x41\n        /* \"#utility.yul\":1142:1143   */\n      0x04\n        /* \"#utility.yul\":1135:1150   */\n      mstore\n        /* \"#utility.yul\":1169:1173   */\n      0x24\n        /* \"#utility.yul\":1166:1167   */\n      0x00\n        /* \"#utility.yul\":1159:1174   */\n      revert\n        /* \"#utility.yul\":1186:1467   */\n    tag_55:\n        /* \"#utility.yul\":1269:1296   */\n      tag_77\n        /* \"#utility.yul\":1291:1295   */\n      dup3\n        /* \"#utility.yul\":1269:1296   */\n      tag_53\n      jump\t// in\n    tag_77:\n        /* \"#utility.yul\":1261:1267   */\n      dup2\n        /* \"#utility.yul\":1257:1297   */\n      add\n        /* \"#utility.yul\":1399:1405   */\n      dup2\n        /* \"#utility.yul\":1387:1397   */\n      dup2\n        /* \"#utility.yul\":1384:1406   */\n      lt\n        /* \"#utility.yul\":1363:1381   */\n      0xffffffffffffffff\n        /* \"#utility.yul\":1351:1361   */\n      dup3\n        /* \"#utility.yul\":1348:1382   */\n      gt\n        /* \"#utility.yul\":1345:1407   */\n      or\n        /* \"#utility.yul\":1342:1430   */\n      iszero\n      tag_78\n      jumpi\n        /* \"#utility.yul\":1410:1428   */\n      tag_79\n      tag_54\n      jump\t// in\n    tag_79:\n        /* \"#utility.yul\":1342:1430   */\n    tag_78:\n        /* \"#utility.yul\":1450:1460   */\n      dup1\n        /* \"#utility.yul\":1446:1448   */\n      0x40\n        /* \"#utility.yul\":1439:1461   */\n      mstore\n        /* \"#utility.yul\":1229:1467   */\n      pop\n        /* \"#utility.yul\":1186:1467   */\n      pop\n      pop\n      jump\t// out\n        /* \"#utility.yul\":1473:1602   */\n    tag_56:\n        /* \"#utility.yul\":1507:1513   */\n      0x00\n        /* \"#utility.yul\":1534:1554   */\n      tag_81\n      tag_49\n      jump\t// in\n    tag_81:\n        /* \"#utility.yul\":1524:1554   */\n      swap1\n      pop\n        /* \"#utility.yul\":1563:1596   */\n      tag_82\n        /* \"#utility.yul\":1591:1595   */\n      dup3\n        /* \"#utility.yul\":1583:1589   */\n      dup3\n        /* \"#utility.yul\":1563:1596   */\n      tag_55\n      jump\t// in\n    tag_82:\n        /* \"#utility.yul\":1473:1602   */\n      swap2\n      swap1\n      pop\n      jump\t// out\n        /* \"#utility.yul\":1608:1919   */\n    tag_57:\n        /* \"#utility.yul\":1685:1689   */\n      0x00\n        /* \"#utility.yul\":1775:1793   */\n      0xffffffffffffffff\n        /* \"#utility.yul\":1767:1773   */\n      dup3\n        /* \"#utility.yul\":1764:1794   */\n      gt\n        /* \"#utility.yul\":1761:1817   */\n      iszero\n      tag_84\n      jumpi\n        /* \"#utility.yul\":1797:1815   */\n      tag_85\n      tag_54\n      jump\t// in\n    tag_85:\n        /* \"#utility.yul\":1761:1817   */\n    tag_84:\n        /* \"#utility.yul\":1847:1851   */\n      0x20\n        /* \"#utility.yul\":1839:1845   */\n      dup3\n        /* \"#utility.yul\":1835:1852   */\n      mul\n        /* \"#utility.yul\":1827:1852   */\n      swap1\n      pop\n        /* \"#utility.yul\":1907:1911   */\n      0x20\n        /* \"#utility.yul\":1901:1905   */\n      dup2\n        /* \"#utility.yul\":1897:1912   */\n      add\n        /* \"#utility.yul\":1889:1912   */\n      swap1\n      pop\n        /* \"#utility.yul\":1608:1919   */\n      swap2\n      swap1\n      pop\n      jump\t// out\n        /* \"#utility.yul\":1925:2042   */\n    tag_58:\n        /* \"#utility.yul\":2034:2035   */\n      0x00\n        /* \"#utility.yul\":2031:2032   */\n      0x00\n        /* \"#utility.yul\":2024:2036   */\n      revert\n        /* \"#utility.yul\":2048:2170   */\n    tag_59:\n        /* \"#utility.yul\":2121:2145   */\n      tag_88\n        /* \"#utility.yul\":2139:2144   */\n      dup2\n        /* \"#utility.yul\":2121:2145   */\n      tag_47\n      jump\t// in\n    tag_88:\n        /* \"#utility.yul\":2114:2119   */\n      dup2\n        /* \"#utility.yul\":2111:2146   */\n      eq\n        /* \"#utility.yul\":2101:2164   */\n      tag_89\n      jumpi\n        /* \"#utility.yul\":2160:2161   */\n      0x00\n        /* \"#utility.yul\":2157:2158   */\n      0x00\n        /* \"#utility.yul\":2150:2162   */\n      revert\n        /* \"#utility.yul\":2101:2164   */\n    tag_89:\n        /* \"#utility.yul\":2048:2170   */\n      pop\n      jump\t// out\n        /* \"#utility.yul\":2176:2315   */\n    tag_60:\n        /* \"#utility.yul\":2222:2227   */\n      0x00\n        /* \"#utility.yul\":2260:2266   */\n      dup2\n        /* \"#utility.yul\":2247:2267   */\n      calldataload\n        /* \"#utility.yul\":2238:2267   */\n      swap1\n      pop\n        /* \"#utility.yul\":2276:2309   */\n      tag_91\n        /* \"#utility.yul\":2303:2308   */\n      dup2\n        /* \"#utility.yul\":2276:2309   */\n      tag_59\n      jump\t// in\n    tag_91:\n        /* \"#utility.yul\":2176:2315   */\n      swap3\n      swap2\n      pop\n      pop\n      jump\t// out\n        /* \"#utility.yul\":2338:3048   */\n    tag_61:\n        /* \"#utility.yul\":2434:2439   */\n      0x00\n        /* \"#utility.yul\":2459:2540   */\n      tag_93\n        /* \"#utility.yul\":2475:2539   */\n      tag_94\n        /* \"#utility.yul\":2532:2538   */\n      dup5\n        /* \"#utility.yul\":2475:2539   */\n      tag_57\n      jump\t// in\n    tag_94:\n        /* \"#utility.yul\":2459:2540   */\n      tag_56\n      jump\t// in\n    tag_93:\n        /* \"#utility.yul\":2450:2540   */\n      swap1\n      pop\n        /* \"#utility.yul\":2560:2565   */\n      dup1\n        /* \"#utility.yul\":2589:2595   */\n      dup4\n        /* \"#utility.yul\":2582:2587   */\n      dup3\n        /* \"#utility.yul\":2575:2596   */\n      mstore\n        /* \"#utility.yul\":2623:2627   */\n      0x20\n        /* \"#utility.yul\":2616:2621   */\n      dup3\n        /* \"#utility.yul\":2612:2628   */\n      add\n        /* \"#utility.yul\":2605:2628   */\n      swap1\n      pop\n        /* \"#utility.yul\":2676:2680   */\n      0x20\n        /* \"#utility.yul\":2668:2674   */\n      dup5\n        /* \"#utility.yul\":2664:2681   */\n      mul\n        /* \"#utility.yul\":2656:2662   */\n      dup4\n        /* \"#utility.yul\":2652:2682   */\n      add\n        /* \"#utility.yul\":2705:2708   */\n      dup6\n        /* \"#utility.yul\":2697:2703   */\n      dup2\n        /* \"#utility.yul\":2694:2709   */\n      gt\n        /* \"#utility.yul\":2691:2813   */\n      iszero\n      tag_95\n      jumpi\n        /* \"#utility.yul\":2724:2803   */\n      tag_96\n      tag_58\n      jump\t// in\n    tag_96:\n        /* \"#utility.yul\":2691:2813   */\n    tag_95:\n        /* \"#utility.yul\":2839:2845   */\n      dup4\n        /* \"#utility.yul\":2822:3042   */\n    tag_97:\n        /* \"#utility.yul\":2856:2862   */\n      dup2\n        /* \"#utility.yul\":2851:2854   */\n      dup2\n        /* \"#utility.yul\":2848:2863   */\n      lt\n        /* \"#utility.yul\":2822:3042   */\n      iszero\n      tag_99\n      jumpi\n        /* \"#utility.yul\":2931:2934   */\n      dup1\n        /* \"#utility.yul\":2960:2997   */\n      tag_100\n        /* \"#utility.yul\":2993:2996   */\n      dup9\n        /* \"#utility.yul\":2981:2991   */\n      dup3\n        /* \"#utility.yul\":2960:2997   */\n      tag_60\n      jump\t// in\n    tag_100:\n        /* \"#utility.yul\":2955:2958   */\n      dup5\n        /* \"#utility.yul\":2948:2998   */\n      mstore\n        /* \"#utility.yul\":3027:3031   */\n      0x20\n        /* \"#utility.yul\":3022:3025   */\n      dup5\n        /* \"#utility.yul\":3018:3032   */\n      add\n        /* \"#utility.yul\":3011:3032   */\n      swap4\n      pop\n        /* \"#utility.yul\":2898:3042   */\n      pop\n        /* \"#utility.yul\":2882:2886   */\n      0x20\n        /* \"#utility.yul\":2877:2880   */\n      dup2\n        /* \"#utility.yul\":2873:2887   */\n      add\n        /* \"#utility.yul\":2866:2887   */\n      swap1\n      pop\n        /* \"#utility.yul\":2822:3042   */\n      jump(tag_97)\n    tag_99:\n        /* \"#utility.yul\":2826:2847   */\n      pop\n        /* \"#utility.yul\":2440:3048   */\n      pop\n      pop\n        /* \"#utility.yul\":2338:3048   */\n      swap4\n      swap3\n      pop\n      pop\n      pop\n      jump\t// out\n        /* \"#utility.yul\":3071:3441   */\n    tag_62:\n        /* \"#utility.yul\":3142:3147   */\n      0x00\n        /* \"#utility.yul\":3191:3194   */\n      dup3\n        /* \"#utility.yul\":3184:3188   */\n      0x1f\n        /* \"#utility.yul\":3176:3182   */\n      dup4\n        /* \"#utility.yul\":3172:3189   */\n      add\n        /* \"#utility.yul\":3168:3195   */\n      slt\n        /* \"#utility.yul\":3158:3280   */\n      tag_102\n      jumpi\n        /* \"#utility.yul\":3199:3278   */\n      tag_103\n      tag_52\n      jump\t// in\n    tag_103:\n        /* \"#utility.yul\":3158:3280   */\n    tag_102:\n        /* \"#utility.yul\":3316:3322   */\n      dup2\n        /* \"#utility.yul\":3303:3323   */\n      calldataload\n        /* \"#utility.yul\":3341:3435   */\n      tag_104\n        /* \"#utility.yul\":3431:3434   */\n      dup5\n        /* \"#utility.yul\":3423:3429   */\n      dup3\n        /* \"#utility.yul\":3416:3420   */\n      0x20\n        /* \"#utility.yul\":3408:3414   */\n      dup7\n        /* \"#utility.yul\":3404:3421   */\n      add\n        /* \"#utility.yul\":3341:3435   */\n      tag_61\n      jump\t// in\n    tag_104:\n        /* \"#utility.yul\":3332:3435   */\n      swap2\n      pop\n        /* \"#utility.yul\":3148:3441   */\n      pop\n        /* \"#utility.yul\":3071:3441   */\n      swap3\n      swap2\n      pop\n      pop\n      jump\t// out\n        /* \"#utility.yul\":3447:3986   */\n    tag_12:\n        /* \"#utility.yul\":3531:3537   */\n      0x00\n        /* \"#utility.yul\":3580:3582   */\n      0x20\n        /* \"#utility.yul\":3568:3577   */\n      dup3\n        /* \"#utility.yul\":3559:3566   */\n      dup5\n        /* \"#utility.yul\":3555:3578   */\n      sub\n        /* \"#utility.yul\":3551:3583   */\n      slt\n        /* \"#utility.yul\":3548:3667   */\n      iszero\n      tag_106\n      jumpi\n        /* \"#utility.yul\":3586:3665   */\n      tag_107\n      tag_50\n      jump\t// in\n    tag_107:\n        /* \"#utility.yul\":3548:3667   */\n    tag_106:\n        /* \"#utility.yul\":3734:3735   */\n      0x00\n        /* \"#utility.yul\":3723:3732   */\n      dup3\n        /* \"#utility.yul\":3719:3736   */\n      add\n        /* \"#utility.yul\":3706:3737   */\n      calldataload\n        /* \"#utility.yul\":3764:3782   */\n      0xffffffffffffffff\n        /* \"#utility.yul\":3756:3762   */\n      dup2\n        /* \"#utility.yul\":3753:3783   */\n      gt\n        /* \"#utility.yul\":3750:3867   */\n      iszero\n      tag_108\n      jumpi\n        /* \"#utility.yul\":3786:3865   */\n      tag_109\n      tag_51\n      jump\t// in\n    tag_109:\n        /* \"#utility.yul\":3750:3867   */\n    tag_108:\n        /* \"#utility.yul\":3891:3969   */\n      tag_110\n        /* \"#utility.yul\":3961:3968   */\n      dup5\n        /* \"#utility.yul\":3952:3958   */\n      dup3\n        /* \"#utility.yul\":3941:3950   */\n      dup6\n        /* \"#utility.yul\":3937:3959   */\n      add\n        /* \"#utility.yul\":3891:3969   */\n      tag_62\n      jump\t// in\n    tag_110:\n        /* \"#utility.yul\":3881:3969   */\n      swap2\n      pop\n        /* \"#utility.yul\":3677:3979   */\n      pop\n        /* \"#utility.yul\":3447:3986   */\n      swap3\n      swap2\n      pop\n      pop\n      jump\t// out\n        /* \"#utility.yul\":3992:4321   */\n    tag_16:\n        /* \"#utility.yul\":4051:4057   */\n      0x00\n        /* \"#utility.yul\":4100:4102   */\n      0x20\n        /* \"#utility.yul\":4088:4097   */\n      dup3\n        /* \"#utility.yul\":4079:4086   */\n      dup5\n        /* \"#utility.yul\":4075:4098   */\n      sub\n        /* \"#utility.yul\":4071:4103   */\n      slt\n        /* \"#utility.yul\":4068:4187   */\n      iszero\n      tag_112\n      jumpi\n        /* \"#utility.yul\":4106:4185   */\n      tag_113\n      tag_50\n      jump\t// in\n    tag_113:\n        /* \"#utility.yul\":4068:4187   */\n    tag_112:\n        /* \"#utility.yul\":4226:4227   */\n      0x00\n        /* \"#utility.yul\":4251:4304   */\n      tag_114\n        /* \"#utility.yul\":4296:4303   */\n      dup5\n        /* \"#utility.yul\":4287:4293   */\n      dup3\n        /* \"#utility.yul\":4276:4285   */\n      dup6\n        /* \"#utility.yul\":4272:4294   */\n      add\n        /* \"#utility.yul\":4251:4304   */\n      tag_60\n      jump\t// in\n    tag_114:\n        /* \"#utility.yul\":4241:4304   */\n      swap2\n      pop\n        /* \"#utility.yul\":4197:4314   */\n      pop\n        /* \"#utility.yul\":3992:4321   */\n      swap3\n      swap2\n      pop\n      pop\n      jump\t// out\n        /* \"#utility.yul\":4327:4507   */\n    tag_25:\n        /* \"#utility.yul\":4375:4452   */\n      0x4e487b7100000000000000000000000000000000000000000000000000000000\n        /* \"#utility.yul\":4372:4373   */\n      0x00\n        /* \"#utility.yul\":4365:4453   */\n      mstore\n        /* \"#utility.yul\":4472:4476   */\n      0x32\n        /* \"#utility.yul\":4469:4470   */\n      0x04\n        /* \"#utility.yul\":4462:4477   */\n      mstore\n        /* \"#utility.yul\":4496:4500   */\n      0x24\n        /* \"#utility.yul\":4493:4494   */\n      0x00\n        /* \"#utility.yul\":4486:4501   */\n      revert\n        /* \"#utility.yul\":4513:4693   */\n    tag_63:\n        /* \"#utility.yul\":4561:4638   */\n      0x4e487b7100000000000000000000000000000000000000000000000000000000\n        /* \"#utility.yul\":4558:4559   */\n      0x00\n        /* \"#utility.yul\":4551:4639   */\n      mstore\n        /* \"#utility.yul\":4658:4662   */\n      0x11\n        /* \"#utility.yul\":4655:4656   */\n      0x04\n        /* \"#utility.yul\":4648:4663   */\n      mstore\n        /* \"#utility.yul\":4682:4686   */\n      0x24\n        /* \"#utility.yul\":4679:4680   */\n      0x00\n        /* \"#utility.yul\":4672:4687   */\n      revert\n        /* \"#utility.yul\":4699:4890   */\n    tag_28:\n        /* \"#utility.yul\":4739:4742   */\n      0x00\n        /* \"#utility.yul\":4758:4778   */\n      tag_118\n        /* \"#utility.yul\":4776:4777   */\n      dup3\n        /* \"#utility.yul\":4758:4778   */\n      tag_47\n      jump\t// in\n    tag_118:\n        /* \"#utility.yul\":4753:4778   */\n      swap2\n      pop\n        /* \"#utility.yul\":4792:4812   */\n      tag_119\n        /* \"#utility.yul\":4810:4811   */\n      dup4\n        /* \"#utility.yul\":4792:4812   */\n      tag_47\n      jump\t// in\n    tag_119:\n        /* \"#utility.yul\":4787:4812   */\n      swap3\n      pop\n        /* \"#utility.yul\":4835:4836   */\n      dup3\n        /* \"#utility.yul\":4832:4833   */\n      dup3\n        /* \"#utility.yul\":4828:4837   */\n      add\n        /* \"#utility.yul\":4821:4837   */\n      swap1\n      pop\n        /* \"#utility.yul\":4856:4859   */\n      dup1\n        /* \"#utility.yul\":4853:4854   */\n      dup3\n        /* \"#utility.yul\":4850:4860   */\n      gt\n        /* \"#utility.yul\":4847:4883   */\n      iszero\n      tag_120\n      jumpi\n        /* \"#utility.yul\":4863:4881   */\n      tag_121\n      tag_63\n      jump\t// in\n    tag_121:\n        /* \"#utility.yul\":4847:4883   */\n    tag_120:\n        /* \"#utility.yul\":4699:4890   */\n      swap3\n      swap2\n      pop\n      pop\n      jump\t// out\n        /* \"#utility.yul\":4896:5306   */\n    tag_38:\n        /* \"#utility.yul\":4936:4943   */\n      0x00\n        /* \"#utility.yul\":4959:4979   */\n      tag_123\n        /* \"#utility.yul\":4977:4978   */\n      dup3\n        /* \"#utility.yul\":4959:4979   */\n      tag_47\n      jump\t// in\n    tag_123:\n        /* \"#utility.yul\":4954:4979   */\n      swap2\n      pop\n        /* \"#utility.yul\":4993:5013   */\n      tag_124\n        /* \"#utility.yul\":5011:5012   */\n      dup4\n        /* \"#utility.yul\":4993:5013   */\n      tag_47\n      jump\t// in\n    tag_124:\n        /* \"#utility.yul\":4988:5013   */\n      swap3\n      pop\n        /* \"#utility.yul\":5048:5049   */\n      dup3\n        /* \"#utility.yul\":5045:5046   */\n      dup3\n        /* \"#utility.yul\":5041:5050   */\n      mul\n        /* \"#utility.yul\":5070:5100   */\n      tag_125\n        /* \"#utility.yul\":5088:5099   */\n      dup2\n        /* \"#utility.yul\":5070:5100   */\n      tag_47\n      jump\t// in\n    tag_125:\n        /* \"#utility.yul\":5059:5100   */\n      swap2\n      pop\n        /* \"#utility.yul\":5249:5250   */\n      dup3\n        /* \"#utility.yul\":5240:5247   */\n      dup3\n        /* \"#utility.yul\":5236:5251   */\n      div\n        /* \"#utility.yul\":5233:5234   */\n      dup5\n        /* \"#utility.yul\":5230:5252   */\n      eq\n        /* \"#utility.yul\":5210:5211   */\n      dup4\n        /* \"#utility.yul\":5203:5212   */\n      iszero\n        /* \"#utility.yul\":5183:5266   */\n      or\n        /* \"#utility.yul\":5160:5299   */\n      tag_126\n      jumpi\n        /* \"#utility.yul\":5279:5297   */\n      tag_127\n      tag_63\n      jump\t// in\n    tag_127:\n        /* \"#utility.yul\":5160:5299   */\n    tag_126:\n        /* \"#utility.yul\":4944:5306   */\n      pop\n        /* \"#utility.yul\":4896:5306   */\n      swap3\n      swap2\n      pop\n      pop\n      jump\t// out\n\n    auxdata: 0xa2646970667358221220bb619c48de55354976357cf0ec211ec148261ef72d14dd9663fb717a3b904fe264736f6c63430008220033\n}\n",
				"bytecode": {
					"linkReferences": {},
					"object": "6080604052348015600e575f5ffd5b506104ff8061001c5f395ff3fe608060405234801561000f575f5ffd5b506004361061003f575f3560e01c8063569c5f6d146100435780638ed80c6614610061578063f0ba84401461007d575b5f5ffd5b61004b6100ad565b60405161005891906101e5565b60405180910390f35b61007b60048036038101906100769190610389565b610101565b005b610097600480360381019061009291906103d0565b610177565b6040516100a491906101e5565b60405180910390f35b5f5f5f90505f5f90505b5f805490508110156100f9575f81815481106100d6576100d56103fb565b5b905f5260205f200154826100ea9190610455565b915080806001019150506100b7565b508091505090565b5f5f61010d9190610196565b5f5f90505b8151811015610173575f6002838381518110610131576101306103fb565b5b60200260200101516101439190610488565b908060018154018082558091505060019003905f5260205f20015f90919091909150558080600101915050610112565b5050565b5f8181548110610185575f80fd5b905f5260205f20015f915090505481565b5080545f8255905f5260205f20906101ae91906101b0565b565b5f5b808211156101c8578281015f90556001016101b2565b505050565b5f819050919050565b6101df816101cd565b82525050565b5f6020820190506101f85f8301846101d6565b92915050565b5f604051905090565b5f5ffd5b5f5ffd5b5f5ffd5b5f601f19601f8301169050919050565b7f4e487b71000000000000000000000000000000000000000000000000000000005f52604160045260245ffd5b61025982610213565b810181811067ffffffffffffffff8211171561027857610277610223565b5b80604052505050565b5f61028a6101fe565b90506102968282610250565b919050565b5f67ffffffffffffffff8211156102b5576102b4610223565b5b602082029050602081019050919050565b5f5ffd5b6102d3816101cd565b81146102dd575f5ffd5b50565b5f813590506102ee816102ca565b92915050565b5f6103066103018461029b565b610281565b90508083825260208201905060208402830185811115610329576103286102c6565b5b835b81811015610352578061033e88826102e0565b84526020840193505060208101905061032b565b5050509392505050565b5f82601f8301126103705761036f61020f565b5b81356103808482602086016102f4565b91505092915050565b5f6020828403121561039e5761039d610207565b5b5f82013567ffffffffffffffff8111156103bb576103ba61020b565b5b6103c78482850161035c565b91505092915050565b5f602082840312156103e5576103e4610207565b5b5f6103f2848285016102e0565b91505092915050565b7f4e487b71000000000000000000000000000000000000000000000000000000005f52603260045260245ffd5b7f4e487b71000000000000000000000000000000000000000000000000000000005f52601160045260245ffd5b5f61045f826101cd565b915061046a836101cd565b925082820190508082111561048257610481610428565b5b92915050565b5f610492826101cd565b915061049d836101cd565b92508282026104ab816101cd565b915082820484148315176104c2576104c1610428565b5b509291505056fea2646970667358221220bb619c48de55354976357cf0ec211ec148261ef72d14dd9663fb717a3b904fe264736f6c63430008220033",
					"opcodes": "PUSH1 0x80 PUSH1 0x40 MSTORE CALLVALUE DUP1 ISZERO PUSH1 0xE JUMPI PUSH0 PUSH0 REVERT JUMPDEST POP PUSH2 0x4FF DUP1 PUSH2 0x1C PUSH0 CODECOPY PUSH0 RETURN INVALID PUSH1 0x80 PUSH1 0x40 MSTORE CALLVALUE DUP1 ISZERO PUSH2 0xF JUMPI PUSH0 PUSH0 REVERT JUMPDEST POP PUSH1 0x4 CALLDATASIZE LT PUSH2 0x3F JUMPI PUSH0 CALLDATALOAD PUSH1 0xE0 SHR DUP1 PUSH4 0x569C5F6D EQ PUSH2 0x43 JUMPI DUP1 PUSH4 0x8ED80C66 EQ PUSH2 0x61 JUMPI DUP1 PUSH4 0xF0BA8440 EQ PUSH2 0x7D JUMPI JUMPDEST PUSH0 PUSH0 REVERT JUMPDEST PUSH2 0x4B PUSH2 0xAD JUMP JUMPDEST PUSH1 0x40 MLOAD PUSH2 0x58 SWAP2 SWAP1 PUSH2 0x1E5 JUMP JUMPDEST PUSH1 0x40 MLOAD DUP1 SWAP2 SUB SWAP1 RETURN JUMPDEST PUSH2 0x7B PUSH1 0x4 DUP1 CALLDATASIZE SUB DUP2 ADD SWAP1 PUSH2 0x76 SWAP2 SWAP1 PUSH2 0x389 JUMP JUMPDEST PUSH2 0x101 JUMP JUMPDEST STOP JUMPDEST PUSH2 0x97 PUSH1 0x4 DUP1 CALLDATASIZE SUB DUP2 ADD SWAP1 PUSH2 0x92 SWAP2 SWAP1 PUSH2 0x3D0 JUMP JUMPDEST PUSH2 0x177 JUMP JUMPDEST PUSH1 0x40 MLOAD PUSH2 0xA4 SWAP2 SWAP1 PUSH2 0x1E5 JUMP JUMPDEST PUSH1 0x40 MLOAD DUP1 SWAP2 SUB SWAP1 RETURN JUMPDEST PUSH0 PUSH0 PUSH0 SWAP1 POP PUSH0 PUSH0 SWAP1 POP JUMPDEST PUSH0 DUP1 SLOAD SWAP1 POP DUP2 LT ISZERO PUSH2 0xF9 JUMPI PUSH0 DUP2 DUP2 SLOAD DUP2 LT PUSH2 0xD6 JUMPI PUSH2 0xD5 PUSH2 0x3FB JUMP JUMPDEST JUMPDEST SWAP1 PUSH0 MSTORE PUSH1 0x20 PUSH0 KECCAK256 ADD SLOAD DUP3 PUSH2 0xEA SWAP2 SWAP1 PUSH2 0x455 JUMP JUMPDEST SWAP2 POP DUP1 DUP1 PUSH1 0x1 ADD SWAP2 POP POP PUSH2 0xB7 JUMP JUMPDEST POP DUP1 SWAP2 POP POP SWAP1 JUMP JUMPDEST PUSH0 PUSH0 PUSH2 0x10D SWAP2 SWAP1 PUSH2 0x196 JUMP JUMPDEST PUSH0 PUSH0 SWAP1 POP JUMPDEST DUP2 MLOAD DUP2 LT ISZERO PUSH2 0x173 JUMPI PUSH0 PUSH1 0x2 DUP4 DUP4 DUP2 MLOAD DUP2 LT PUSH2 0x131 JUMPI PUSH2 0x130 PUSH2 0x3FB JUMP JUMPDEST JUMPDEST PUSH1 0x20 MUL PUSH1 0x20 ADD ADD MLOAD PUSH2 0x143 SWAP2 SWAP1 PUSH2 0x488 JUMP JUMPDEST SWAP1 DUP1 PUSH1 0x1 DUP2 SLOAD ADD DUP1 DUP3 SSTORE DUP1 SWAP2 POP POP PUSH1 0x1 SWAP1 SUB SWAP1 PUSH0 MSTORE PUSH1 0x20 PUSH0 KECCAK256 ADD PUSH0 SWAP1 SWAP2 SWAP1 SWAP2 SWAP1 SWAP2 POP SSTORE DUP1 DUP1 PUSH1 0x1 ADD SWAP2 POP POP PUSH2 0x112 JUMP JUMPDEST POP POP JUMP JUMPDEST PUSH0 DUP2 DUP2 SLOAD DUP2 LT PUSH2 0x185 JUMPI PUSH0 DUP1 REVERT JUMPDEST SWAP1 PUSH0 MSTORE PUSH1 0x20 PUSH0 KECCAK256 ADD PUSH0 SWAP2 POP SWAP1 POP SLOAD DUP2 JUMP JUMPDEST POP DUP1 SLOAD PUSH0 DUP3 SSTORE SWAP1 PUSH0 MSTORE PUSH1 0x20 PUSH0 KECCAK256 SWAP1 PUSH2 0x1AE SWAP2 SWAP1 PUSH2 0x1B0 JUMP JUMPDEST JUMP JUMPDEST PUSH0 JUMPDEST DUP1 DUP3 GT ISZERO PUSH2 0x1C8 JUMPI DUP3 DUP2 ADD PUSH0 SWAP1 SSTORE PUSH1 0x1 ADD PUSH2 0x1B2 JUMP JUMPDEST POP POP POP JUMP JUMPDEST PUSH0 DUP2 SWAP1 POP SWAP2 SWAP1 POP JUMP JUMPDEST PUSH2 0x1DF DUP2 PUSH2 0x1CD JUMP JUMPDEST DUP3 MSTORE POP POP JUMP JUMPDEST PUSH0 PUSH1 0x20 DUP3 ADD SWAP1 POP PUSH2 0x1F8 PUSH0 DUP4 ADD DUP5 PUSH2 0x1D6 JUMP JUMPDEST SWAP3 SWAP2 POP POP JUMP JUMPDEST PUSH0 PUSH1 0x40 MLOAD SWAP1 POP SWAP1 JUMP JUMPDEST PUSH0 PUSH0 REVERT JUMPDEST PUSH0 PUSH0 REVERT JUMPDEST PUSH0 PUSH0 REVERT JUMPDEST PUSH0 PUSH1 0x1F NOT PUSH1 0x1F DUP4 ADD AND SWAP1 POP SWAP2 SWAP1 POP JUMP JUMPDEST PUSH32 0x4E487B7100000000000000000000000000000000000000000000000000000000 PUSH0 MSTORE PUSH1 0x41 PUSH1 0x4 MSTORE PUSH1 0x24 PUSH0 REVERT JUMPDEST PUSH2 0x259 DUP3 PUSH2 0x213 JUMP JUMPDEST DUP2 ADD DUP2 DUP2 LT PUSH8 0xFFFFFFFFFFFFFFFF DUP3 GT OR ISZERO PUSH2 0x278 JUMPI PUSH2 0x277 PUSH2 0x223 JUMP JUMPDEST JUMPDEST DUP1 PUSH1 0x40 MSTORE POP POP POP JUMP JUMPDEST PUSH0 PUSH2 0x28A PUSH2 0x1FE JUMP JUMPDEST SWAP1 POP PUSH2 0x296 DUP3 DUP3 PUSH2 0x250 JUMP JUMPDEST SWAP2 SWAP1 POP JUMP JUMPDEST PUSH0 PUSH8 0xFFFFFFFFFFFFFFFF DUP3 GT ISZERO PUSH2 0x2B5 JUMPI PUSH2 0x2B4 PUSH2 0x223 JUMP JUMPDEST JUMPDEST PUSH1 0x20 DUP3 MUL SWAP1 POP PUSH1 0x20 DUP2 ADD SWAP1 POP SWAP2 SWAP1 POP JUMP JUMPDEST PUSH0 PUSH0 REVERT JUMPDEST PUSH2 0x2D3 DUP2 PUSH2 0x1CD JUMP JUMPDEST DUP2 EQ PUSH2 0x2DD JUMPI PUSH0 PUSH0 REVERT JUMPDEST POP JUMP JUMPDEST PUSH0 DUP2 CALLDATALOAD SWAP1 POP PUSH2 0x2EE DUP2 PUSH2 0x2CA JUMP JUMPDEST SWAP3 SWAP2 POP POP JUMP JUMPDEST PUSH0 PUSH2 0x306 PUSH2 0x301 DUP5 PUSH2 0x29B JUMP JUMPDEST PUSH2 0x281 JUMP JUMPDEST SWAP1 POP DUP1 DUP4 DUP3 MSTORE PUSH1 0x20 DUP3 ADD SWAP1 POP PUSH1 0x20 DUP5 MUL DUP4 ADD DUP6 DUP2 GT ISZERO PUSH2 0x329 JUMPI PUSH2 0x328 PUSH2 0x2C6 JUMP JUMPDEST JUMPDEST DUP4 JUMPDEST DUP2 DUP2 LT ISZERO PUSH2 0x352 JUMPI DUP1 PUSH2 0x33E DUP9 DUP3 PUSH2 0x2E0 JUMP JUMPDEST DUP5 MSTORE PUSH1 0x20 DUP5 ADD SWAP4 POP POP PUSH1 0x20 DUP2 ADD SWAP1 POP PUSH2 0x32B JUMP JUMPDEST POP POP POP SWAP4 SWAP3 POP POP POP JUMP JUMPDEST PUSH0 DUP3 PUSH1 0x1F DUP4 ADD SLT PUSH2 0x370 JUMPI PUSH2 0x36F PUSH2 0x20F JUMP JUMPDEST JUMPDEST DUP2 CALLDATALOAD PUSH2 0x380 DUP5 DUP3 PUSH1 0x20 DUP7 ADD PUSH2 0x2F4 JUMP JUMPDEST SWAP2 POP POP SWAP3 SWAP2 POP POP JUMP JUMPDEST PUSH0 PUSH1 0x20 DUP3 DUP5 SUB SLT ISZERO PUSH2 0x39E JUMPI PUSH2 0x39D PUSH2 0x207 JUMP JUMPDEST JUMPDEST PUSH0 DUP3 ADD CALLDATALOAD PUSH8 0xFFFFFFFFFFFFFFFF DUP2 GT ISZERO PUSH2 0x3BB JUMPI PUSH2 0x3BA PUSH2 0x20B JUMP JUMPDEST JUMPDEST PUSH2 0x3C7 DUP5 DUP3 DUP6 ADD PUSH2 0x35C JUMP JUMPDEST SWAP2 POP POP SWAP3 SWAP2 POP POP JUMP JUMPDEST PUSH0 PUSH1 0x20 DUP3 DUP5 SUB SLT ISZERO PUSH2 0x3E5 JUMPI PUSH2 0x3E4 PUSH2 0x207 JUMP JUMPDEST JUMPDEST PUSH0 PUSH2 0x3F2 DUP5 DUP3 DUP6 ADD PUSH2 0x2E0 JUMP JUMPDEST SWAP2 POP POP SWAP3 SWAP2 POP POP JUMP JUMPDEST PUSH32 0x4E487B7100000000000000000000000000000000000000000000000000000000 PUSH0 MSTORE PUSH1 0x32 PUSH1 0x4 MSTORE PUSH1 0x24 PUSH0 REVERT JUMPDEST PUSH32 0x4E487B7100000000000000000000000000000000000000000000000000000000 PUSH0 MSTORE PUSH1 0x11 PUSH1 0x4 MSTORE PUSH1 0x24 PUSH0 REVERT JUMPDEST PUSH0 PUSH2 0x45F DUP3 PUSH2 0x1CD JUMP JUMPDEST SWAP2 POP PUSH2 0x46A DUP4 PUSH2 0x1CD JUMP JUMPDEST SWAP3 POP DUP3 DUP3 ADD SWAP1 POP DUP1 DUP3 GT ISZERO PUSH2 0x482 JUMPI PUSH2 0x481 PUSH2 0x428 JUMP JUMPDEST JUMPDEST SWAP3 SWAP2 POP POP JUMP JUMPDEST PUSH0 PUSH2 0x492 DUP3 PUSH2 0x1CD JUMP JUMPDEST SWAP2 POP PUSH2 0x49D DUP4 PUSH2 0x1CD JUMP JUMPDEST SWAP3 POP DUP3 DUP3 MUL PUSH2 0x4AB DUP2 PUSH2 0x1CD JUMP JUMPDEST SWAP2 POP DUP3 DUP3 DIV DUP5 EQ DUP4 ISZERO OR PUSH2 0x4C2 JUMPI PUSH2 0x4C1 PUSH2 0x428 JUMP JUMPDEST JUMPDEST POP SWAP3 SWAP2 POP POP JUMP INVALID LOG2 PUSH5 0x6970667358 0x22 SLT KECCAK256 0xBB PUSH2 0x9C48 0xDE SSTORE CALLDATALOAD BLOBHASH PUSH23 0x357CF0EC211EC148261EF72D14DD9663FB717A3B904FE2 PUSH5 0x736F6C6343 STOP ADDMOD 0x22 STOP CALLER "
				},
				"gasEstimates": {
					"creation": {
						"codeDepositCost": "255800",
						"executionCost": "292",
						"totalCost": "256092"
					},
					"external": {
						"data(uint256)": "infinite",
						"getSum()": "infinite",
						"processData(uint256[])": "infinite"
					}
				},
				"methodIdentifiers": {
					"data(uint256)": "f0ba8440",
					"getSum()": "569c5f6d",
					"processData(uint256[])": "8ed80c66"
				}
			},
			"storageLayout": {
				"storage": [
					{
						"astId": 4,
						"contract": "contracts/1.2/Task.sol:Task",
						"label": "data",
						"offset": 0,
						"slot": "0",
						"type": "t_array(t_uint256)dyn_storage"
					}
				],
				"types": {
					"t_array(t_uint256)dyn_storage": {
						"base": "t_uint256",
						"encoding": "dynamic_array",
						"label": "uint256[]",
						"numberOfBytes": "32"
					},
					"t_uint256": {
						"encoding": "inplace",
						"label": "uint256",
						"numberOfBytes": "32"
					}
				}
			},
			"userdoc": {
				"kind": "user",
				"methods": {},
				"version": 1
			}
		}
	}
}