{
	"contracts/3.1/FixedArrayLimitations.sol": {
		"FixedArrayLimitations": {
			"abi": [
				{
					"inputs": [
						{
							"internalType": "uint256",
							"name": "",
							"type": "uint256"
						}
					],
					"name": "numbers",
					"outputs": [
						{
							"internalType": "uint256",
							"name": "",
							"type": "uint256"
						}
					],
					"stateMutability": "view",
					"type": "function"
				},
				{
					"inputs": [
						{
							"internalType": "uint256",
							"name": "index",
							"type": "uint256"
						}
					],
					"name": "resetElement",
					"outputs": [
						{
							"internalType": "uint256[5]",
							"name": "",
							"type": "uint256[5]"
						}
					],
					"stateMutability": "nonpayable",
					"type": "function"
				}
			],
			"devdoc": {
				"kind": "dev",
				"methods": {},
				"version": 1
			},
			"evm": {
				"assembly": "    /* \"contracts/3.1/FixedArrayLimitations.sol\":58:687  contract FixedArrayLimitations{... */\n  mstore(0x40, 0x80)\n    /* \"contracts/3.1/FixedArrayLimitations.sol\":95:129  uint[5] public numbers=[1,2,3,4,5] */\n  mload(0x40)\n  dup1\n  0xa0\n  add\n  0x40\n  mstore\n  dup1\n    /* \"contracts/3.1/FixedArrayLimitations.sol\":119:120  1 */\n  0x01\n    /* \"contracts/3.1/FixedArrayLimitations.sol\":95:129  uint[5] public numbers=[1,2,3,4,5] */\n  0xff\n  and\n  dup2\n  mstore\n  0x20\n  add\n    /* \"contracts/3.1/FixedArrayLimitations.sol\":121:122  2 */\n  0x02\n    /* \"contracts/3.1/FixedArrayLimitations.sol\":95:129  uint[5] public numbers=[1,2,3,4,5] */\n  0xff\n  and\n  dup2\n  mstore\n  0x20\n  add\n    /* \"contracts/3.1/FixedArrayLimitations.sol\":123:124  3 */\n  0x03\n    /* \"contracts/3.1/FixedArrayLimitations.sol\":95:129  uint[5] public numbers=[1,2,3,4,5] */\n  0xff\n  and\n  dup2\n  mstore\n  0x20\n  add\n    /* \"contracts/3.1/FixedArrayLimitations.sol\":125:126  4 */\n  0x04\n    /* \"contracts/3.1/FixedArrayLimitations.sol\":95:129  uint[5] public numbers=[1,2,3,4,5] */\n  0xff\n  and\n  dup2\n  mstore\n  0x20\n  add\n    /* \"contracts/3.1/FixedArrayLimitations.sol\":127:128  5 */\n  0x05\n    /* \"contracts/3.1/FixedArrayLimitations.sol\":95:129  uint[5] public numbers=[1,2,3,4,5] */\n  0xff\n  and\n  dup2\n  mstore\n  pop\n  0x00\n  swap1\n  dup2\n  tag_1\n  swap2\n  swap1\n  tag_2\n  jump\t// in\ntag_1:\n  pop\n    /* \"contracts/3.1/FixedArrayLimitations.sol\":58:687  contract FixedArrayLimitations{... */\n  callvalue\n  dup1\n  iszero\n  tag_3\n  jumpi\n  revert(0x00, 0x00)\ntag_3:\n  pop\n  jump(tag_4)\n    /* \"#utility.yul\":7:187   */\ntag_5:\n    /* \"#utility.yul\":55:132   */\n  0x4e487b7100000000000000000000000000000000000000000000000000000000\n    /* \"#utility.yul\":52:53   */\n  0x00\n    /* \"#utility.yul\":45:133   */\n  mstore\n    /* \"#utility.yul\":152:156   */\n  0x41\n    /* \"#utility.yul\":149:150   */\n  0x04\n    /* \"#utility.yul\":142:157   */\n  mstore\n    /* \"#utility.yul\":176:180   */\n  0x24\n    /* \"#utility.yul\":173:174   */\n  0x00\n    /* \"#utility.yul\":166:181   */\n  revert\n    /* \"#utility.yul\":193:294   */\ntag_6:\n    /* \"#utility.yul\":255:261   */\n  0x00\n    /* \"#utility.yul\":283:287   */\n  0x05\n    /* \"#utility.yul\":273:287   */\n  swap1\n  pop\n    /* \"#utility.yul\":193:294   */\n  swap2\n  swap1\n  pop\n  jump\t// out\n    /* \"#utility.yul\":300:377   */\ntag_7:\n    /* \"#utility.yul\":337:344   */\n  0x00\n    /* \"#utility.yul\":366:371   */\n  dup2\n    /* \"#utility.yul\":355:371   */\n  swap1\n  pop\n    /* \"#utility.yul\":300:377   */\n  swap2\n  swap1\n  pop\n  jump\t// out\n    /* \"#utility.yul\":985:1186   */\ntag_10:\n    /* \"#utility.yul\":1064:1068   */\n  0x00\n    /* \"#utility.yul\":1087:1093   */\n  dup2\n    /* \"#utility.yul\":1079:1093   */\n  swap1\n  pop\n    /* \"#utility.yul\":1177:1178   */\n  0x01\n    /* \"#utility.yul\":1172:1173   */\n  dup1\n    /* \"#utility.yul\":1169:1170   */\n  0x01\n    /* \"#utility.yul\":1165:1174   */\n  sub\n    /* \"#utility.yul\":1157:1163   */\n  dup4\n    /* \"#utility.yul\":1153:1175   */\n  add\n    /* \"#utility.yul\":1149:1179   */\n  div\n    /* \"#utility.yul\":1141:1179   */\n  swap1\n  pop\n    /* \"#utility.yul\":985:1186   */\n  swap2\n  swap1\n  pop\n  jump\t// out\n    /* \"#utility.yul\":1191:1286   */\ntag_11:\n    /* \"#utility.yul\":1253:1257   */\n  0x00\n    /* \"#utility.yul\":1276:1279   */\n  dup2\n    /* \"#utility.yul\":1268:1279   */\n  swap1\n  pop\n    /* \"#utility.yul\":1191:1286   */\n  swap2\n  swap1\n  pop\n  jump\t// out\n    /* \"#utility.yul\":1292:1399   */\ntag_12:\n    /* \"#utility.yul\":1336:1344   */\n  0x00\n    /* \"#utility.yul\":1386:1391   */\n  dup3\n    /* \"#utility.yul\":1380:1384   */\n  dup3\n    /* \"#utility.yul\":1376:1392   */\n  shl\n    /* \"#utility.yul\":1355:1392   */\n  swap1\n  pop\n    /* \"#utility.yul\":1292:1399   */\n  swap3\n  swap2\n  pop\n  pop\n  jump\t// out\n    /* \"#utility.yul\":1405:1798   */\ntag_13:\n    /* \"#utility.yul\":1474:1480   */\n  0x00\n    /* \"#utility.yul\":1524:1525   */\n  0x08\n    /* \"#utility.yul\":1512:1522   */\n  dup4\n    /* \"#utility.yul\":1508:1526   */\n  mul\n    /* \"#utility.yul\":1547:1644   */\n  tag_47\n    /* \"#utility.yul\":1577:1643   */\n  0xffffffffffffffffffffffffffffffffffffffffffffffffffffffffffffffff\n    /* \"#utility.yul\":1566:1575   */\n  dup3\n    /* \"#utility.yul\":1547:1644   */\n  tag_12\n  jump\t// in\ntag_47:\n    /* \"#utility.yul\":1665:1704   */\n  tag_48\n    /* \"#utility.yul\":1695:1703   */\n  dup7\n    /* \"#utility.yul\":1684:1693   */\n  dup4\n    /* \"#utility.yul\":1665:1704   */\n  tag_12\n  jump\t// in\ntag_48:\n    /* \"#utility.yul\":1653:1704   */\n  swap6\n  pop\n    /* \"#utility.yul\":1737:1741   */\n  dup1\n    /* \"#utility.yul\":1733:1742   */\n  not\n    /* \"#utility.yul\":1726:1731   */\n  dup5\n    /* \"#utility.yul\":1722:1743   */\n  and\n    /* \"#utility.yul\":1713:1743   */\n  swap4\n  pop\n    /* \"#utility.yul\":1786:1790   */\n  dup1\n    /* \"#utility.yul\":1776:1784   */\n  dup7\n    /* \"#utility.yul\":1772:1791   */\n  and\n    /* \"#utility.yul\":1765:1770   */\n  dup5\n    /* \"#utility.yul\":1762:1792   */\n  or\n    /* \"#utility.yul\":1752:1792   */\n  swap3\n  pop\n    /* \"#utility.yul\":1481:1798   */\n  pop\n  pop\n    /* \"#utility.yul\":1405:1798   */\n  swap4\n  swap3\n  pop\n  pop\n  pop\n  jump\t// out\n    /* \"#utility.yul\":1804:1864   */\ntag_14:\n    /* \"#utility.yul\":1832:1835   */\n  0x00\n    /* \"#utility.yul\":1853:1858   */\n  dup2\n    /* \"#utility.yul\":1846:1858   */\n  swap1\n  pop\n    /* \"#utility.yul\":1804:1864   */\n  swap2\n  swap1\n  pop\n  jump\t// out\n    /* \"#utility.yul\":1870:2012   */\ntag_15:\n    /* \"#utility.yul\":1920:1929   */\n  0x00\n    /* \"#utility.yul\":1953:2006   */\n  tag_51\n    /* \"#utility.yul\":1971:2005   */\n  tag_52\n    /* \"#utility.yul\":1980:2004   */\n  tag_53\n    /* \"#utility.yul\":1998:2003   */\n  dup5\n    /* \"#utility.yul\":1980:2004   */\n  tag_7\n  jump\t// in\ntag_53:\n    /* \"#utility.yul\":1971:2005   */\n  tag_14\n  jump\t// in\ntag_52:\n    /* \"#utility.yul\":1953:2006   */\n  tag_7\n  jump\t// in\ntag_51:\n    /* \"#utility.yul\":1940:2006   */\n  swap1\n  pop\n    /* \"#utility.yul\":1870:2012   */\n  swap2\n  swap1\n  pop\n  jump\t// out\n    /* \"#utility.yul\":2018:2093   */\ntag_16:\n    /* \"#utility.yul\":2061:2064   */\n  0x00\n    /* \"#utility.yul\":2082:2087   */\n  dup2\n    /* \"#utility.yul\":2075:2087   */\n  swap1\n  pop\n    /* \"#utility.yul\":2018:2093   */\n  swap2\n  swap1\n  pop\n  jump\t// out\n    /* \"#utility.yul\":2099:2368   */\ntag_17:\n    /* \"#utility.yul\":2209:2248   */\n  tag_56\n    /* \"#utility.yul\":2240:2247   */\n  dup4\n    /* \"#utility.yul\":2209:2248   */\n  tag_15\n  jump\t// in\ntag_56:\n    /* \"#utility.yul\":2270:2361   */\n  tag_57\n    /* \"#utility.yul\":2319:2360   */\n  tag_58\n    /* \"#utility.yul\":2343:2359   */\n  dup3\n    /* \"#utility.yul\":2319:2360   */\n  tag_16\n  jump\t// in\ntag_58:\n    /* \"#utility.yul\":2311:2317   */\n  dup5\n    /* \"#utility.yul\":2304:2308   */\n  dup5\n    /* \"#utility.yul\":2298:2309   */\n  sload\n    /* \"#utility.yul\":2270:2361   */\n  tag_13\n  jump\t// in\ntag_57:\n    /* \"#utility.yul\":2264:2268   */\n  dup3\n    /* \"#utility.yul\":2257:2362   */\n  sstore\n    /* \"#utility.yul\":2175:2368   */\n  pop\n    /* \"#utility.yul\":2099:2368   */\n  pop\n  pop\n  pop\n  jump\t// out\n    /* \"#utility.yul\":2374:2447   */\ntag_18:\n    /* \"#utility.yul\":2419:2422   */\n  0x00\n    /* \"#utility.yul\":2440:2441   */\n  0x00\n    /* \"#utility.yul\":2433:2441   */\n  swap1\n  pop\n    /* \"#utility.yul\":2374:2447   */\n  swap1\n  jump\t// out\n    /* \"#utility.yul\":2453:2642   */\ntag_19:\n    /* \"#utility.yul\":2530:2562   */\n  tag_61\n  tag_18\n  jump\t// in\ntag_61:\n    /* \"#utility.yul\":2571:2636   */\n  tag_62\n    /* \"#utility.yul\":2629:2635   */\n  dup2\n    /* \"#utility.yul\":2621:2627   */\n  dup5\n    /* \"#utility.yul\":2615:2619   */\n  dup5\n    /* \"#utility.yul\":2571:2636   */\n  tag_17\n  jump\t// in\ntag_62:\n    /* \"#utility.yul\":2506:2642   */\n  pop\n    /* \"#utility.yul\":2453:2642   */\n  pop\n  pop\n  jump\t// out\n    /* \"#utility.yul\":2648:2863   */\ntag_20:\n    /* \"#utility.yul\":2734:2735   */\n  0x00\n    /* \"#utility.yul\":2719:2857   */\ntag_64:\n    /* \"#utility.yul\":2744:2753   */\n  dup3\n    /* \"#utility.yul\":2741:2742   */\n  dup2\n    /* \"#utility.yul\":2738:2754   */\n  lt\n    /* \"#utility.yul\":2719:2857   */\n  iszero\n  tag_66\n  jumpi\n    /* \"#utility.yul\":2796:2847   */\n  tag_67\n    /* \"#utility.yul\":2845:2846   */\n  0x00\n    /* \"#utility.yul\":2841:2842   */\n  dup3\n    /* \"#utility.yul\":2830:2839   */\n  dup5\n    /* \"#utility.yul\":2826:2843   */\n  add\n    /* \"#utility.yul\":2796:2847   */\n  tag_19\n  jump\t// in\ntag_67:\n    /* \"#utility.yul\":2769:2770   */\n  0x01\n    /* \"#utility.yul\":2766:2767   */\n  dup2\n    /* \"#utility.yul\":2762:2771   */\n  add\n    /* \"#utility.yul\":2757:2771   */\n  swap1\n  pop\n    /* \"#utility.yul\":2719:2857   */\n  jump(tag_64)\ntag_66:\n    /* \"#utility.yul\":2723:2737   */\n  pop\n    /* \"#utility.yul\":2648:2863   */\n  pop\n  pop\n  jump\t// out\n    /* \"#utility.yul\":3242:3874   */\ntag_23:\n    /* \"#utility.yul\":3360:3363   */\n  dup2\n    /* \"#utility.yul\":3348:3358   */\n  dup4\n    /* \"#utility.yul\":3345:3364   */\n  lt\n    /* \"#utility.yul\":3342:3867   */\n  iszero\n  tag_72\n  jumpi\n    /* \"#utility.yul\":3451:3514   */\n  tag_73\n    /* \"#utility.yul\":3510:3513   */\n  dup3\n    /* \"#utility.yul\":3451:3514   */\n  tag_10\n  jump\t// in\ntag_73:\n    /* \"#utility.yul\":3547:3617   */\n  tag_74\n    /* \"#utility.yul\":3606:3616   */\n  dup5\n    /* \"#utility.yul\":3547:3617   */\n  tag_10\n  jump\t// in\ntag_74:\n    /* \"#utility.yul\":3652:3703   */\n  tag_75\n    /* \"#utility.yul\":3697:3702   */\n  dup4\n    /* \"#utility.yul\":3652:3703   */\n  tag_11\n  jump\t// in\ntag_75:\n    /* \"#utility.yul\":3755:3767   */\n  dup2\n    /* \"#utility.yul\":3739:3753   */\n  dup2\n    /* \"#utility.yul\":3735:3768   */\n  add\n    /* \"#utility.yul\":3782:3857   */\n  tag_76\n    /* \"#utility.yul\":3843:3855   */\n  dup4\n    /* \"#utility.yul\":3829:3841   */\n  dup6\n    /* \"#utility.yul\":3825:3856   */\n  sub\n    /* \"#utility.yul\":3812:3823   */\n  dup3\n    /* \"#utility.yul\":3782:3857   */\n  tag_20\n  jump\t// in\ntag_76:\n    /* \"#utility.yul\":3365:3867   */\n  pop\n  pop\n  pop\n  pop\n    /* \"#utility.yul\":3342:3867   */\ntag_72:\n    /* \"#utility.yul\":3242:3874   */\n  pop\n  pop\n  pop\n  jump\t// out\n    /* \"#utility.yul\":3880:4203   */\ntag_24:\n    /* \"#utility.yul\":3971:3991   */\n  0x010000000000000000\n    /* \"#utility.yul\":3963:3969   */\n  dup3\n    /* \"#utility.yul\":3960:3992   */\n  gt\n    /* \"#utility.yul\":3957:4035   */\n  iszero\n  tag_78\n  jumpi\n    /* \"#utility.yul\":4007:4025   */\n  tag_79\n  tag_5\n  jump\t// in\ntag_79:\n    /* \"#utility.yul\":3957:4035   */\ntag_78:\n    /* \"#utility.yul\":4059:4108   */\n  tag_80\n    /* \"#utility.yul\":4102:4107   */\n  dup2\n    /* \"#utility.yul\":4059:4108   */\n  tag_6\n  jump\t// in\ntag_80:\n    /* \"#utility.yul\":4118:4196   */\n  tag_81\n    /* \"#utility.yul\":4189:4195   */\n  dup4\n    /* \"#utility.yul\":4181:4187   */\n  dup3\n    /* \"#utility.yul\":4174:4179   */\n  dup5\n    /* \"#utility.yul\":4118:4196   */\n  tag_23\n  jump\t// in\ntag_81:\n    /* \"#utility.yul\":3947:4203   */\n  pop\n    /* \"#utility.yul\":3880:4203   */\n  pop\n  pop\n  jump\t// out\n    /* \"#utility.yul\":4208:4310   */\ntag_25:\n    /* \"#utility.yul\":4271:4277   */\n  0x00\n    /* \"#utility.yul\":4299:4303   */\n  0x05\n    /* \"#utility.yul\":4289:4303   */\n  swap1\n  pop\n    /* \"#utility.yul\":4208:4310   */\n  swap2\n  swap1\n  pop\n  jump\t// out\n    /* \"#utility.yul\":4316:4402   */\ntag_26:\n    /* \"#utility.yul\":4351:4358   */\n  0x00\n    /* \"#utility.yul\":4391:4395   */\n  0xff\n    /* \"#utility.yul\":4384:4389   */\n  dup3\n    /* \"#utility.yul\":4380:4396   */\n  and\n    /* \"#utility.yul\":4369:4396   */\n  swap1\n  pop\n    /* \"#utility.yul\":4316:4402   */\n  swap2\n  swap1\n  pop\n  jump\t// out\n    /* \"#utility.yul\":4408:4558   */\ntag_27:\n    /* \"#utility.yul\":4449:4460   */\n  0x00\n    /* \"#utility.yul\":4485:4512   */\n  tag_85\n    /* \"#utility.yul\":4507:4510   */\n  dup3\n    /* \"#utility.yul\":4501:4511   */\n  mload\n    /* \"#utility.yul\":4485:4512   */\n  tag_26\n  jump\t// in\ntag_85:\n    /* \"#utility.yul\":4546:4551   */\n  dup1\n    /* \"#utility.yul\":4522:4551   */\n  swap2\n  pop\n    /* \"#utility.yul\":4461:4558   */\n  pop\n    /* \"#utility.yul\":4408:4558   */\n  swap2\n  swap1\n  pop\n  jump\t// out\n    /* \"#utility.yul\":4564:4660   */\ntag_28:\n    /* \"#utility.yul\":4627:4631   */\n  0x00\n    /* \"#utility.yul\":4650:4653   */\n  dup2\n    /* \"#utility.yul\":4642:4653   */\n  swap1\n  pop\n    /* \"#utility.yul\":4564:4660   */\n  swap2\n  swap1\n  pop\n  jump\t// out\n    /* \"#utility.yul\":5112:6093   */\ntag_2:\n    /* \"#utility.yul\":5247:5295   */\n  tag_96\n    /* \"#utility.yul\":5291:5294   */\n  dup3\n    /* \"#utility.yul\":5247:5295   */\n  tag_25\n  jump\t// in\ntag_96:\n    /* \"#utility.yul\":5360:5378   */\n  0xffffffffffffffff\n    /* \"#utility.yul\":5352:5358   */\n  dup2\n    /* \"#utility.yul\":5349:5379   */\n  gt\n    /* \"#utility.yul\":5346:5402   */\n  iszero\n  tag_97\n  jumpi\n    /* \"#utility.yul\":5382:5400   */\n  tag_98\n  tag_5\n  jump\t// in\ntag_98:\n    /* \"#utility.yul\":5346:5402   */\ntag_97:\n    /* \"#utility.yul\":5411:5466   */\n  tag_99\n    /* \"#utility.yul\":5459:5465   */\n  dup2\n    /* \"#utility.yul\":5454:5457   */\n  dup4\n    /* \"#utility.yul\":5411:5466   */\n  tag_24\n  jump\t// in\ntag_99:\n    /* \"#utility.yul\":5490:5540   */\n  tag_100\n    /* \"#utility.yul\":5536:5539   */\n  dup4\n    /* \"#utility.yul\":5490:5540   */\n  tag_28\n  jump\t// in\ntag_100:\n    /* \"#utility.yul\":5564:5613   */\n  tag_101\n    /* \"#utility.yul\":5609:5612   */\n  dup4\n    /* \"#utility.yul\":5564:5613   */\n  tag_11\n  jump\t// in\ntag_101:\n    /* \"#utility.yul\":5652:5653   */\n  0x01\n    /* \"#utility.yul\":5644:5650   */\n  dup4\n    /* \"#utility.yul\":5640:5654   */\n  div\n    /* \"#utility.yul\":5679:5680   */\n  0x00\n    /* \"#utility.yul\":5664:6086   */\ntag_102:\n    /* \"#utility.yul\":5689:5698   */\n  dup2\n    /* \"#utility.yul\":5686:5687   */\n  dup2\n    /* \"#utility.yul\":5683:5699   */\n  lt\n    /* \"#utility.yul\":5664:6086   */\n  iszero\n  tag_104\n  jumpi\n    /* \"#utility.yul\":5753:5754   */\n  0x00\n    /* \"#utility.yul\":5806:5837   */\n  tag_105\n    /* \"#utility.yul\":5830:5836   */\n  dup6\n    /* \"#utility.yul\":5806:5837   */\n  tag_27\n  jump\t// in\ntag_105:\n    /* \"#utility.yul\":5872:5908   */\n  tag_106\n    /* \"#utility.yul\":5896:5907   */\n  dup2\n    /* \"#utility.yul\":5872:5908   */\n  tag_16\n  jump\t// in\ntag_106:\n    /* \"#utility.yul\":5958:5967   */\n  dup1\n    /* \"#utility.yul\":5925:5967   */\n  swap3\n  pop\n    /* \"#utility.yul\":6007:6009   */\n  0x20\n    /* \"#utility.yul\":5999:6005   */\n  dup8\n    /* \"#utility.yul\":5995:6010   */\n  add\n    /* \"#utility.yul\":5985:6010   */\n  swap7\n  pop\n    /* \"#utility.yul\":5768:6025   */\n  pop\n  pop\n    /* \"#utility.yul\":6063:6075   */\n  dup1\n    /* \"#utility.yul\":6059:6060   */\n  dup3\n    /* \"#utility.yul\":6050:6057   */\n  dup6\n    /* \"#utility.yul\":6046:6061   */\n  add\n    /* \"#utility.yul\":6039:6076   */\n  sstore\n    /* \"#utility.yul\":5719:6086   */\n  pop\n    /* \"#utility.yul\":5714:5715   */\n  0x01\n    /* \"#utility.yul\":5711:5712   */\n  dup2\n    /* \"#utility.yul\":5707:5716   */\n  add\n    /* \"#utility.yul\":5702:5716   */\n  swap1\n  pop\n    /* \"#utility.yul\":5664:6086   */\n  jump(tag_102)\ntag_104:\n    /* \"#utility.yul\":5668:5682   */\n  pop\n    /* \"#utility.yul\":5222:6093   */\n  pop\n  pop\n  pop\n  pop\n    /* \"#utility.yul\":5112:6093   */\n  pop\n  pop\n  jump\t// out\n    /* \"contracts/3.1/FixedArrayLimitations.sol\":58:687  contract FixedArrayLimitations{... */\ntag_4:\n  dataSize(sub_0)\n  dup1\n  dataOffset(sub_0)\n  0x00\n  codecopy\n  0x00\n  return\nstop\n\nsub_0: assembly {\n        /* \"contracts/3.1/FixedArrayLimitations.sol\":58:687  contract FixedArrayLimitations{... */\n      mstore(0x40, 0x80)\n      callvalue\n      dup1\n      iszero\n      tag_1\n      jumpi\n      revert(0x00, 0x00)\n    tag_1:\n      pop\n      jumpi(tag_2, lt(calldatasize, 0x04))\n      shr(0xe0, calldataload(0x00))\n      dup1\n      0x4ed8544c\n      eq\n      tag_3\n      jumpi\n      dup1\n      0xd39fa233\n      eq\n      tag_4\n      jumpi\n    tag_2:\n      revert(0x00, 0x00)\n        /* \"contracts/3.1/FixedArrayLimitations.sol\":486:683  function resetElement(uint index) public returns(uint[5] memory){... */\n    tag_3:\n      tag_5\n      0x04\n      dup1\n      calldatasize\n      sub\n      dup2\n      add\n      swap1\n      tag_6\n      swap2\n      swap1\n      tag_7\n      jump\t// in\n    tag_6:\n      tag_8\n      jump\t// in\n    tag_5:\n      mload(0x40)\n      tag_9\n      swap2\n      swap1\n      tag_10\n      jump\t// in\n    tag_9:\n      mload(0x40)\n      dup1\n      swap2\n      sub\n      swap1\n      return\n        /* \"contracts/3.1/FixedArrayLimitations.sol\":95:129  uint[5] public numbers=[1,2,3,4,5] */\n    tag_4:\n      tag_11\n      0x04\n      dup1\n      calldatasize\n      sub\n      dup2\n      add\n      swap1\n      tag_12\n      swap2\n      swap1\n      tag_7\n      jump\t// in\n    tag_12:\n      tag_13\n      jump\t// in\n    tag_11:\n      mload(0x40)\n      tag_14\n      swap2\n      swap1\n      tag_15\n      jump\t// in\n    tag_14:\n      mload(0x40)\n      dup1\n      swap2\n      sub\n      swap1\n      return\n        /* \"contracts/3.1/FixedArrayLimitations.sol\":486:683  function resetElement(uint index) public returns(uint[5] memory){... */\n    tag_8:\n        /* \"contracts/3.1/FixedArrayLimitations.sol\":535:549  uint[5] memory */\n      tag_16\n      tag_17\n      jump\t// in\n    tag_16:\n        /* \"contracts/3.1/FixedArrayLimitations.sol\":575:589  numbers.length */\n      0x05\n        /* \"contracts/3.1/FixedArrayLimitations.sol\":569:574  index */\n      dup3\n        /* \"contracts/3.1/FixedArrayLimitations.sol\":569:589  index<numbers.length */\n      lt\n        /* \"contracts/3.1/FixedArrayLimitations.sol\":561:618  require(index<numbers.length,unicode\"数组下标越界\") */\n      tag_19\n      jumpi\n      mload(0x40)\n      0x08c379a000000000000000000000000000000000000000000000000000000000\n      dup2\n      mstore\n      0x04\n      add\n      tag_20\n      swap1\n      tag_21\n      jump\t// in\n    tag_20:\n      mload(0x40)\n      dup1\n      swap2\n      sub\n      swap1\n      revert\n    tag_19:\n        /* \"contracts/3.1/FixedArrayLimitations.sol\":636:643  numbers */\n      0x00\n        /* \"contracts/3.1/FixedArrayLimitations.sol\":644:649  index */\n      dup3\n        /* \"contracts/3.1/FixedArrayLimitations.sol\":636:650  numbers[index] */\n      0x05\n      dup2\n      lt\n      tag_22\n      jumpi\n      tag_23\n      tag_24\n      jump\t// in\n    tag_23:\n    tag_22:\n      add\n        /* \"contracts/3.1/FixedArrayLimitations.sol\":629:650  delete numbers[index] */\n      0x00\n      swap1\n      sstore\n        /* \"contracts/3.1/FixedArrayLimitations.sol\":668:675  numbers */\n      0x00\n        /* \"contracts/3.1/FixedArrayLimitations.sol\":661:675  return numbers */\n      0x05\n      dup1\n      0x20\n      mul\n      mload(0x40)\n      swap1\n      dup2\n      add\n      0x40\n      mstore\n      dup1\n      swap3\n      swap2\n      swap1\n      dup3\n      0x05\n      dup1\n      iszero\n      tag_26\n      jumpi\n      0x20\n      mul\n      dup3\n      add\n      swap2\n    tag_27:\n      dup2\n      sload\n      dup2\n      mstore\n      0x20\n      add\n      swap1\n      0x01\n      add\n      swap1\n      dup1\n      dup4\n      gt\n      tag_27\n      jumpi\n    tag_26:\n      pop\n      pop\n      pop\n      pop\n      pop\n      swap1\n      pop\n        /* \"contracts/3.1/FixedArrayLimitations.sol\":486:683  function resetElement(uint index) public returns(uint[5] memory){... */\n      swap2\n      swap1\n      pop\n      jump\t// out\n        /* \"contracts/3.1/FixedArrayLimitations.sol\":95:129  uint[5] public numbers=[1,2,3,4,5] */\n    tag_13:\n      0x00\n      dup2\n      0x05\n      dup2\n      lt\n      tag_28\n      jumpi\n      0x00\n      dup1\n      revert\n    tag_28:\n      add\n      0x00\n      swap2\n      pop\n      swap1\n      pop\n      sload\n      dup2\n      jump\t// out\n    tag_17:\n      mload(0x40)\n      dup1\n      0xa0\n      add\n      0x40\n      mstore\n      dup1\n      0x05\n      swap1\n      0x20\n      dup3\n      mul\n      dup1\n      calldatasize\n      dup4\n      calldatacopy\n      dup1\n      dup3\n      add\n      swap2\n      pop\n      pop\n      swap1\n      pop\n      pop\n      swap1\n      jump\t// out\n        /* \"#utility.yul\":88:205   */\n    tag_31:\n        /* \"#utility.yul\":197:198   */\n      0x00\n        /* \"#utility.yul\":194:195   */\n      0x00\n        /* \"#utility.yul\":187:199   */\n      revert\n        /* \"#utility.yul\":334:411   */\n    tag_33:\n        /* \"#utility.yul\":371:378   */\n      0x00\n        /* \"#utility.yul\":400:405   */\n      dup2\n        /* \"#utility.yul\":389:405   */\n      swap1\n      pop\n        /* \"#utility.yul\":334:411   */\n      swap2\n      swap1\n      pop\n      jump\t// out\n        /* \"#utility.yul\":417:539   */\n    tag_34:\n        /* \"#utility.yul\":490:514   */\n      tag_53\n        /* \"#utility.yul\":508:513   */\n      dup2\n        /* \"#utility.yul\":490:514   */\n      tag_33\n      jump\t// in\n    tag_53:\n        /* \"#utility.yul\":483:488   */\n      dup2\n        /* \"#utility.yul\":480:515   */\n      eq\n        /* \"#utility.yul\":470:533   */\n      tag_54\n      jumpi\n        /* \"#utility.yul\":529:530   */\n      0x00\n        /* \"#utility.yul\":526:527   */\n      0x00\n        /* \"#utility.yul\":519:531   */\n      revert\n        /* \"#utility.yul\":470:533   */\n    tag_54:\n        /* \"#utility.yul\":417:539   */\n      pop\n      jump\t// out\n        /* \"#utility.yul\":545:684   */\n    tag_35:\n        /* \"#utility.yul\":591:596   */\n      0x00\n        /* \"#utility.yul\":629:635   */\n      dup2\n        /* \"#utility.yul\":616:636   */\n      calldataload\n        /* \"#utility.yul\":607:636   */\n      swap1\n      pop\n        /* \"#utility.yul\":645:678   */\n      tag_56\n        /* \"#utility.yul\":672:677   */\n      dup2\n        /* \"#utility.yul\":645:678   */\n      tag_34\n      jump\t// in\n    tag_56:\n        /* \"#utility.yul\":545:684   */\n      swap3\n      swap2\n      pop\n      pop\n      jump\t// out\n        /* \"#utility.yul\":690:1019   */\n    tag_7:\n        /* \"#utility.yul\":749:755   */\n      0x00\n        /* \"#utility.yul\":798:800   */\n      0x20\n        /* \"#utility.yul\":786:795   */\n      dup3\n        /* \"#utility.yul\":777:784   */\n      dup5\n        /* \"#utility.yul\":773:796   */\n      sub\n        /* \"#utility.yul\":769:801   */\n      slt\n        /* \"#utility.yul\":766:885   */\n      iszero\n      tag_58\n      jumpi\n        /* \"#utility.yul\":804:883   */\n      tag_59\n      tag_31\n      jump\t// in\n    tag_59:\n        /* \"#utility.yul\":766:885   */\n    tag_58:\n        /* \"#utility.yul\":924:925   */\n      0x00\n        /* \"#utility.yul\":949:1002   */\n      tag_60\n        /* \"#utility.yul\":994:1001   */\n      dup5\n        /* \"#utility.yul\":985:991   */\n      dup3\n        /* \"#utility.yul\":974:983   */\n      dup6\n        /* \"#utility.yul\":970:992   */\n      add\n        /* \"#utility.yul\":949:1002   */\n      tag_35\n      jump\t// in\n    tag_60:\n        /* \"#utility.yul\":939:1002   */\n      swap2\n      pop\n        /* \"#utility.yul\":895:1012   */\n      pop\n        /* \"#utility.yul\":690:1019   */\n      swap3\n      swap2\n      pop\n      pop\n      jump\t// out\n        /* \"#utility.yul\":1025:1129   */\n    tag_36:\n        /* \"#utility.yul\":1090:1096   */\n      0x00\n        /* \"#utility.yul\":1118:1122   */\n      0x05\n        /* \"#utility.yul\":1108:1122   */\n      swap1\n      pop\n        /* \"#utility.yul\":1025:1129   */\n      swap2\n      swap1\n      pop\n      jump\t// out\n        /* \"#utility.yul\":1135:1278   */\n    tag_37:\n        /* \"#utility.yul\":1232:1243   */\n      0x00\n        /* \"#utility.yul\":1269:1272   */\n      dup2\n        /* \"#utility.yul\":1254:1272   */\n      swap1\n      pop\n        /* \"#utility.yul\":1135:1278   */\n      swap3\n      swap2\n      pop\n      pop\n      jump\t// out\n        /* \"#utility.yul\":1284:1382   */\n    tag_38:\n        /* \"#utility.yul\":1349:1353   */\n      0x00\n        /* \"#utility.yul\":1372:1375   */\n      dup2\n        /* \"#utility.yul\":1364:1375   */\n      swap1\n      pop\n        /* \"#utility.yul\":1284:1382   */\n      swap2\n      swap1\n      pop\n      jump\t// out\n        /* \"#utility.yul\":1388:1496   */\n    tag_39:\n        /* \"#utility.yul\":1465:1489   */\n      tag_65\n        /* \"#utility.yul\":1483:1488   */\n      dup2\n        /* \"#utility.yul\":1465:1489   */\n      tag_33\n      jump\t// in\n    tag_65:\n        /* \"#utility.yul\":1460:1463   */\n      dup3\n        /* \"#utility.yul\":1453:1490   */\n      mstore\n        /* \"#utility.yul\":1388:1496   */\n      pop\n      pop\n      jump\t// out\n        /* \"#utility.yul\":1502:1681   */\n    tag_40:\n        /* \"#utility.yul\":1571:1581   */\n      0x00\n        /* \"#utility.yul\":1592:1638   */\n      tag_67\n        /* \"#utility.yul\":1634:1637   */\n      dup4\n        /* \"#utility.yul\":1626:1632   */\n      dup4\n        /* \"#utility.yul\":1592:1638   */\n      tag_39\n      jump\t// in\n    tag_67:\n        /* \"#utility.yul\":1670:1674   */\n      0x20\n        /* \"#utility.yul\":1665:1668   */\n      dup4\n        /* \"#utility.yul\":1661:1675   */\n      add\n        /* \"#utility.yul\":1647:1675   */\n      swap1\n      pop\n        /* \"#utility.yul\":1502:1681   */\n      swap3\n      swap2\n      pop\n      pop\n      jump\t// out\n        /* \"#utility.yul\":1687:1798   */\n    tag_41:\n        /* \"#utility.yul\":1755:1759   */\n      0x00\n        /* \"#utility.yul\":1787:1791   */\n      0x20\n        /* \"#utility.yul\":1782:1785   */\n      dup3\n        /* \"#utility.yul\":1778:1792   */\n      add\n        /* \"#utility.yul\":1770:1792   */\n      swap1\n      pop\n        /* \"#utility.yul\":1687:1798   */\n      swap2\n      swap1\n      pop\n      jump\t// out\n        /* \"#utility.yul\":1836:2530   */\n    tag_42:\n        /* \"#utility.yul\":1972:2024   */\n      tag_70\n        /* \"#utility.yul\":2018:2023   */\n      dup2\n        /* \"#utility.yul\":1972:2024   */\n      tag_36\n      jump\t// in\n    tag_70:\n        /* \"#utility.yul\":2040:2124   */\n      tag_71\n        /* \"#utility.yul\":2117:2123   */\n      dup2\n        /* \"#utility.yul\":2112:2115   */\n      dup5\n        /* \"#utility.yul\":2040:2124   */\n      tag_37\n      jump\t// in\n    tag_71:\n        /* \"#utility.yul\":2033:2124   */\n      swap3\n      pop\n        /* \"#utility.yul\":2148:2202   */\n      tag_72\n        /* \"#utility.yul\":2196:2201   */\n      dup3\n        /* \"#utility.yul\":2148:2202   */\n      tag_38\n      jump\t// in\n    tag_72:\n        /* \"#utility.yul\":2225:2232   */\n      dup1\n        /* \"#utility.yul\":2256:2257   */\n      0x00\n        /* \"#utility.yul\":2241:2523   */\n    tag_73:\n        /* \"#utility.yul\":2266:2272   */\n      dup4\n        /* \"#utility.yul\":2263:2264   */\n      dup2\n        /* \"#utility.yul\":2260:2273   */\n      lt\n        /* \"#utility.yul\":2241:2523   */\n      iszero\n      tag_75\n      jumpi\n        /* \"#utility.yul\":2342:2348   */\n      dup2\n        /* \"#utility.yul\":2336:2349   */\n      mload\n        /* \"#utility.yul\":2369:2432   */\n      tag_76\n        /* \"#utility.yul\":2428:2431   */\n      dup8\n        /* \"#utility.yul\":2413:2426   */\n      dup3\n        /* \"#utility.yul\":2369:2432   */\n      tag_40\n      jump\t// in\n    tag_76:\n        /* \"#utility.yul\":2362:2432   */\n      swap7\n      pop\n        /* \"#utility.yul\":2455:2513   */\n      tag_77\n        /* \"#utility.yul\":2506:2512   */\n      dup4\n        /* \"#utility.yul\":2455:2513   */\n      tag_41\n      jump\t// in\n    tag_77:\n        /* \"#utility.yul\":2445:2513   */\n      swap3\n      pop\n        /* \"#utility.yul\":2301:2523   */\n      pop\n        /* \"#utility.yul\":2288:2289   */\n      0x01\n        /* \"#utility.yul\":2285:2286   */\n      dup2\n        /* \"#utility.yul\":2281:2290   */\n      add\n        /* \"#utility.yul\":2276:2290   */\n      swap1\n      pop\n        /* \"#utility.yul\":2241:2523   */\n      jump(tag_73)\n    tag_75:\n        /* \"#utility.yul\":2245:2259   */\n      pop\n        /* \"#utility.yul\":1948:2530   */\n      pop\n      pop\n      pop\n        /* \"#utility.yul\":1836:2530   */\n      pop\n      pop\n      jump\t// out\n        /* \"#utility.yul\":2536:2851   */\n    tag_10:\n        /* \"#utility.yul\":2675:2679   */\n      0x00\n        /* \"#utility.yul\":2713:2716   */\n      0xa0\n        /* \"#utility.yul\":2702:2711   */\n      dup3\n        /* \"#utility.yul\":2698:2717   */\n      add\n        /* \"#utility.yul\":2690:2717   */\n      swap1\n      pop\n        /* \"#utility.yul\":2727:2844   */\n      tag_79\n        /* \"#utility.yul\":2841:2842   */\n      0x00\n        /* \"#utility.yul\":2830:2839   */\n      dup4\n        /* \"#utility.yul\":2826:2843   */\n      add\n        /* \"#utility.yul\":2817:2823   */\n      dup5\n        /* \"#utility.yul\":2727:2844   */\n      tag_42\n      jump\t// in\n    tag_79:\n        /* \"#utility.yul\":2536:2851   */\n      swap3\n      swap2\n      pop\n      pop\n      jump\t// out\n        /* \"#utility.yul\":2857:2975   */\n    tag_43:\n        /* \"#utility.yul\":2944:2968   */\n      tag_81\n        /* \"#utility.yul\":2962:2967   */\n      dup2\n        /* \"#utility.yul\":2944:2968   */\n      tag_33\n      jump\t// in\n    tag_81:\n        /* \"#utility.yul\":2939:2942   */\n      dup3\n        /* \"#utility.yul\":2932:2969   */\n      mstore\n        /* \"#utility.yul\":2857:2975   */\n      pop\n      pop\n      jump\t// out\n        /* \"#utility.yul\":2981:3203   */\n    tag_15:\n        /* \"#utility.yul\":3074:3078   */\n      0x00\n        /* \"#utility.yul\":3112:3114   */\n      0x20\n        /* \"#utility.yul\":3101:3110   */\n      dup3\n        /* \"#utility.yul\":3097:3115   */\n      add\n        /* \"#utility.yul\":3089:3115   */\n      swap1\n      pop\n        /* \"#utility.yul\":3125:3196   */\n      tag_83\n        /* \"#utility.yul\":3193:3194   */\n      0x00\n        /* \"#utility.yul\":3182:3191   */\n      dup4\n        /* \"#utility.yul\":3178:3195   */\n      add\n        /* \"#utility.yul\":3169:3175   */\n      dup5\n        /* \"#utility.yul\":3125:3196   */\n      tag_43\n      jump\t// in\n    tag_83:\n        /* \"#utility.yul\":2981:3203   */\n      swap3\n      swap2\n      pop\n      pop\n      jump\t// out\n        /* \"#utility.yul\":3209:3378   */\n    tag_44:\n        /* \"#utility.yul\":3293:3304   */\n      0x00\n        /* \"#utility.yul\":3327:3333   */\n      dup3\n        /* \"#utility.yul\":3322:3325   */\n      dup3\n        /* \"#utility.yul\":3315:3334   */\n      mstore\n        /* \"#utility.yul\":3367:3371   */\n      0x20\n        /* \"#utility.yul\":3362:3365   */\n      dup3\n        /* \"#utility.yul\":3358:3372   */\n      add\n        /* \"#utility.yul\":3343:3372   */\n      swap1\n      pop\n        /* \"#utility.yul\":3209:3378   */\n      swap3\n      swap2\n      pop\n      pop\n      jump\t// out\n        /* \"#utility.yul\":3384:3598   */\n    tag_45:\n        /* \"#utility.yul\":3524:3590   */\n      0xe695b0e7bb84e4b88be6a087e8b68ae7958c0000000000000000000000000000\n        /* \"#utility.yul\":3520:3521   */\n      0x00\n        /* \"#utility.yul\":3512:3518   */\n      dup3\n        /* \"#utility.yul\":3508:3522   */\n      add\n        /* \"#utility.yul\":3501:3591   */\n      mstore\n        /* \"#utility.yul\":3384:3598   */\n      pop\n      jump\t// out\n        /* \"#utility.yul\":3604:3970   */\n    tag_46:\n        /* \"#utility.yul\":3746:3749   */\n      0x00\n        /* \"#utility.yul\":3767:3834   */\n      tag_87\n        /* \"#utility.yul\":3831:3833   */\n      0x12\n        /* \"#utility.yul\":3826:3829   */\n      dup4\n        /* \"#utility.yul\":3767:3834   */\n      tag_44\n      jump\t// in\n    tag_87:\n        /* \"#utility.yul\":3760:3834   */\n      swap2\n      pop\n        /* \"#utility.yul\":3843:3936   */\n      tag_88\n        /* \"#utility.yul\":3932:3935   */\n      dup3\n        /* \"#utility.yul\":3843:3936   */\n      tag_45\n      jump\t// in\n    tag_88:\n        /* \"#utility.yul\":3961:3963   */\n      0x20\n        /* \"#utility.yul\":3956:3959   */\n      dup3\n        /* \"#utility.yul\":3952:3964   */\n      add\n        /* \"#utility.yul\":3945:3964   */\n      swap1\n      pop\n        /* \"#utility.yul\":3604:3970   */\n      swap2\n      swap1\n      pop\n      jump\t// out\n        /* \"#utility.yul\":3976:4395   */\n    tag_21:\n        /* \"#utility.yul\":4142:4146   */\n      0x00\n        /* \"#utility.yul\":4180:4182   */\n      0x20\n        /* \"#utility.yul\":4169:4178   */\n      dup3\n        /* \"#utility.yul\":4165:4183   */\n      add\n        /* \"#utility.yul\":4157:4183   */\n      swap1\n      pop\n        /* \"#utility.yul\":4229:4238   */\n      dup2\n        /* \"#utility.yul\":4223:4227   */\n      dup2\n        /* \"#utility.yul\":4219:4239   */\n      sub\n        /* \"#utility.yul\":4215:4216   */\n      0x00\n        /* \"#utility.yul\":4204:4213   */\n      dup4\n        /* \"#utility.yul\":4200:4217   */\n      add\n        /* \"#utility.yul\":4193:4240   */\n      mstore\n        /* \"#utility.yul\":4257:4388   */\n      tag_90\n        /* \"#utility.yul\":4383:4387   */\n      dup2\n        /* \"#utility.yul\":4257:4388   */\n      tag_46\n      jump\t// in\n    tag_90:\n        /* \"#utility.yul\":4249:4388   */\n      swap1\n      pop\n        /* \"#utility.yul\":3976:4395   */\n      swap2\n      swap1\n      pop\n      jump\t// out\n        /* \"#utility.yul\":4401:4581   */\n    tag_24:\n        /* \"#utility.yul\":4449:4526   */\n      0x4e487b7100000000000000000000000000000000000000000000000000000000\n        /* \"#utility.yul\":4446:4447   */\n      0x00\n        /* \"#utility.yul\":4439:4527   */\n      mstore\n        /* \"#utility.yul\":4546:4550   */\n      0x32\n        /* \"#utility.yul\":4543:4544   */\n      0x04\n        /* \"#utility.yul\":4536:4551   */\n      mstore\n        /* \"#utility.yul\":4570:4574   */\n      0x24\n        /* \"#utility.yul\":4567:4568   */\n      0x00\n        /* \"#utility.yul\":4560:4575   */\n      revert\n\n    auxdata: 0xa2646970667358221220153c9ce5e6543618d87094e9317aa9b7877354d6cad129dacf11b8e4dabf0e8864736f6c63430008220033\n}\n",
				"bytecode": {
					"linkReferences": {},
					"object": "60806040526040518060a00160405280600160ff168152602001600260ff168152602001600360ff168152602001600460ff168152602001600560ff168152505f908161004c9190610257565b50348015610058575f5ffd5b506102db565b7f4e487b71000000000000000000000000000000000000000000000000000000005f52604160045260245ffd5b5f60059050919050565b5f819050919050565b5f8190506001806001038301049050919050565b5f819050919050565b5f82821b905092915050565b5f600883026100f67fffffffffffffffffffffffffffffffffffffffffffffffffffffffffffffffff826100bb565b61010086836100bb565b95508019841693508086168417925050509392505050565b5f819050919050565b5f61013b61013661013184610095565b610118565b610095565b9050919050565b5f819050919050565b61015483610121565b61016861016082610142565b8484546100c7565b825550505050565b5f5f905090565b61017f610170565b61018a81848461014b565b505050565b5f5b828110156101b0576101a55f828401610177565b600181019050610191565b505050565b818310156101ec576101c68261009e565b6101cf8461009e565b6101d8836100b2565b8181016101e78385038261018f565b505050505b505050565b6801000000000000000082111561020b5761020a61005e565b5b6102148161008b565b61021f8382846101b5565b505050565b5f60059050919050565b5f60ff82169050919050565b5f610245825161022e565b80915050919050565b5f819050919050565b61026082610224565b67ffffffffffffffff8111156102795761027861005e565b5b61028381836101f1565b61028c8361024e565b610295836100b2565b600183045f5b818110156102d2575f6102ad8561023a565b6102b681610142565b809250602087019650505080828501555060018101905061029b565b50505050505050565b61039b806102e85f395ff3fe608060405234801561000f575f5ffd5b5060043610610034575f3560e01c80634ed8544c14610038578063d39fa23314610068575b5f5ffd5b610052600480360381019061004d91906101af565b610098565b60405161005f919061027f565b60405180910390f35b610082600480360381019061007d91906101af565b61013e565b60405161008f91906102a7565b60405180910390f35b6100a0610156565b600582106100e3576040517f08c379a00000000000000000000000000000000000000000000000000000000081526004016100da9061031a565b60405180910390fd5b5f82600581106100f6576100f5610338565b5b015f90555f600580602002604051908101604052809291908260058015610132576020028201915b81548152602001906001019080831161011e575b50505050509050919050565b5f816005811061014c575f80fd5b015f915090505481565b6040518060a00160405280600590602082028036833780820191505090505090565b5f5ffd5b5f819050919050565b61018e8161017c565b8114610198575f5ffd5b50565b5f813590506101a981610185565b92915050565b5f602082840312156101c4576101c3610178565b5b5f6101d18482850161019b565b91505092915050565b5f60059050919050565b5f81905092915050565b5f819050919050565b6102008161017c565b82525050565b5f61021183836101f7565b60208301905092915050565b5f602082019050919050565b610232816101da565b61023c81846101e4565b9250610247826101ee565b805f5b8381101561027757815161025e8782610206565b96506102698361021d565b92505060018101905061024a565b505050505050565b5f60a0820190506102925f830184610229565b92915050565b6102a18161017c565b82525050565b5f6020820190506102ba5f830184610298565b92915050565b5f82825260208201905092915050565b7fe695b0e7bb84e4b88be6a087e8b68ae7958c00000000000000000000000000005f82015250565b5f6103046012836102c0565b915061030f826102d0565b602082019050919050565b5f6020820190508181035f830152610331816102f8565b9050919050565b7f4e487b71000000000000000000000000000000000000000000000000000000005f52603260045260245ffdfea2646970667358221220153c9ce5e6543618d87094e9317aa9b7877354d6cad129dacf11b8e4dabf0e8864736f6c63430008220033",
					"opcodes": "PUSH1 0x80 PUSH1 0x40 MSTORE PUSH1 0x40 MLOAD DUP1 PUSH1 0xA0 ADD PUSH1 0x40 MSTORE DUP1 PUSH1 0x1 PUSH1 0xFF AND DUP2 MSTORE PUSH1 0x20 ADD PUSH1 0x2 PUSH1 0xFF AND DUP2 MSTORE PUSH1 0x20 ADD PUSH1 0x3 PUSH1 0xFF AND DUP2 MSTORE PUSH1 0x20 ADD PUSH1 0x4 PUSH1 0xFF AND DUP2 MSTORE PUSH1 0x20 ADD PUSH1 0x5 PUSH1 0xFF AND DUP2 MSTORE POP PUSH0 SWAP1 DUP2 PUSH2 0x4C SWAP2 SWAP1 PUSH2 0x257 JUMP JUMPDEST POP CALLVALUE DUP1 ISZERO PUSH2 0x58 JUMPI PUSH0 PUSH0 REVERT JUMPDEST POP PUSH2 0x2DB JUMP JUMPDEST PUSH32 0x4E487B7100000000000000000000000000000000000000000000000000000000 PUSH0 MSTORE PUSH1 0x41 PUSH1 0x4 MSTORE PUSH1 0x24 PUSH0 REVERT JUMPDEST PUSH0 PUSH1 0x5 SWAP1 POP SWAP2 SWAP1 POP JUMP JUMPDEST PUSH0 DUP2 SWAP1 POP SWAP2 SWAP1 POP JUMP JUMPDEST PUSH0 DUP2 SWAP1 POP PUSH1 0x1 DUP1 PUSH1 0x1 SUB DUP4 ADD DIV SWAP1 POP SWAP2 SWAP1 POP JUMP JUMPDEST PUSH0 DUP2 SWAP1 POP SWAP2 SWAP1 POP JUMP JUMPDEST PUSH0 DUP3 DUP3 SHL SWAP1 POP SWAP3 SWAP2 POP POP JUMP JUMPDEST PUSH0 PUSH1 0x8 DUP4 MUL PUSH2 0xF6 PUSH32 0xFFFFFFFFFFFFFFFFFFFFFFFFFFFFFFFFFFFFFFFFFFFFFFFFFFFFFFFFFFFFFFFF DUP3 PUSH2 0xBB JUMP JUMPDEST PUSH2 0x100 DUP7 DUP4 PUSH2 0xBB JUMP JUMPDEST SWAP6 POP DUP1 NOT DUP5 AND SWAP4 POP DUP1 DUP7 AND DUP5 OR SWAP3 POP POP POP SWAP4 SWAP3 POP POP POP JUMP JUMPDEST PUSH0 DUP2 SWAP1 POP SWAP2 SWAP1 POP JUMP JUMPDEST PUSH0 PUSH2 0x13B PUSH2 0x136 PUSH2 0x131 DUP5 PUSH2 0x95 JUMP JUMPDEST PUSH2 0x118 JUMP JUMPDEST PUSH2 0x95 JUMP JUMPDEST SWAP1 POP SWAP2 SWAP1 POP JUMP JUMPDEST PUSH0 DUP2 SWAP1 POP SWAP2 SWAP1 POP JUMP JUMPDEST PUSH2 0x154 DUP4 PUSH2 0x121 JUMP JUMPDEST PUSH2 0x168 PUSH2 0x160 DUP3 PUSH2 0x142 JUMP JUMPDEST DUP5 DUP5 SLOAD PUSH2 0xC7 JUMP JUMPDEST DUP3 SSTORE POP POP POP POP JUMP JUMPDEST PUSH0 PUSH0 SWAP1 POP SWAP1 JUMP JUMPDEST PUSH2 0x17F PUSH2 0x170 JUMP JUMPDEST PUSH2 0x18A DUP2 DUP5 DUP5 PUSH2 0x14B JUMP JUMPDEST POP POP POP JUMP JUMPDEST PUSH0 JUMPDEST DUP3 DUP2 LT ISZERO PUSH2 0x1B0 JUMPI PUSH2 0x1A5 PUSH0 DUP3 DUP5 ADD PUSH2 0x177 JUMP JUMPDEST PUSH1 0x1 DUP2 ADD SWAP1 POP PUSH2 0x191 JUMP JUMPDEST POP POP POP JUMP JUMPDEST DUP2 DUP4 LT ISZERO PUSH2 0x1EC JUMPI PUSH2 0x1C6 DUP3 PUSH2 0x9E JUMP JUMPDEST PUSH2 0x1CF DUP5 PUSH2 0x9E JUMP JUMPDEST PUSH2 0x1D8 DUP4 PUSH2 0xB2 JUMP JUMPDEST DUP2 DUP2 ADD PUSH2 0x1E7 DUP4 DUP6 SUB DUP3 PUSH2 0x18F JUMP JUMPDEST POP POP POP POP JUMPDEST POP POP POP JUMP JUMPDEST PUSH9 0x10000000000000000 DUP3 GT ISZERO PUSH2 0x20B JUMPI PUSH2 0x20A PUSH2 0x5E JUMP JUMPDEST JUMPDEST PUSH2 0x214 DUP2 PUSH2 0x8B JUMP JUMPDEST PUSH2 0x21F DUP4 DUP3 DUP5 PUSH2 0x1B5 JUMP JUMPDEST POP POP POP JUMP JUMPDEST PUSH0 PUSH1 0x5 SWAP1 POP SWAP2 SWAP1 POP JUMP JUMPDEST PUSH0 PUSH1 0xFF DUP3 AND SWAP1 POP SWAP2 SWAP1 POP JUMP JUMPDEST PUSH0 PUSH2 0x245 DUP3 MLOAD PUSH2 0x22E JUMP JUMPDEST DUP1 SWAP2 POP POP SWAP2 SWAP1 POP JUMP JUMPDEST PUSH0 DUP2 SWAP1 POP SWAP2 SWAP1 POP JUMP JUMPDEST PUSH2 0x260 DUP3 PUSH2 0x224 JUMP JUMPDEST PUSH8 0xFFFFFFFFFFFFFFFF DUP2 GT ISZERO PUSH2 0x279 JUMPI PUSH2 0x278 PUSH2 0x5E JUMP JUMPDEST JUMPDEST PUSH2 0x283 DUP2 DUP4 PUSH2 0x1F1 JUMP JUMPDEST PUSH2 0x28C DUP4 PUSH2 0x24E JUMP JUMPDEST PUSH2 0x295 DUP4 PUSH2 0xB2 JUMP JUMPDEST PUSH1 0x1 DUP4 DIV PUSH0 JUMPDEST DUP2 DUP2 LT ISZERO PUSH2 0x2D2 JUMPI PUSH0 PUSH2 0x2AD DUP6 PUSH2 0x23A JUMP JUMPDEST PUSH2 0x2B6 DUP2 PUSH2 0x142 JUMP JUMPDEST DUP1 SWAP3 POP PUSH1 0x20 DUP8 ADD SWAP7 POP POP POP DUP1 DUP3 DUP6 ADD SSTORE POP PUSH1 0x1 DUP2 ADD SWAP1 POP PUSH2 0x29B JUMP JUMPDEST POP POP POP POP POP POP POP JUMP JUMPDEST PUSH2 0x39B DUP1 PUSH2 0x2E8 PUSH0 CODECOPY PUSH0 RETURN INVALID PUSH1 0x80 PUSH1 0x40 MSTORE CALLVALUE DUP1 ISZERO PUSH2 0xF JUMPI PUSH0 PUSH0 REVERT JUMPDEST POP PUSH1 0x4 CALLDATASIZE LT PUSH2 0x34 JUMPI PUSH0 CALLDATALOAD PUSH1 0xE0 SHR DUP1 PUSH4 0x4ED8544C EQ PUSH2 0x38 JUMPI DUP1 PUSH4 0xD39FA233 EQ PUSH2 0x68 JUMPI JUMPDEST PUSH0 PUSH0 REVERT JUMPDEST PUSH2 0x52 PUSH1 0x4 DUP1 CALLDATASIZE SUB DUP2 ADD SWAP1 PUSH2 0x4D SWAP2 SWAP1 PUSH2 0x1AF JUMP JUMPDEST PUSH2 0x98 JUMP JUMPDEST PUSH1 0x40 MLOAD PUSH2 0x5F SWAP2 SWAP1 PUSH2 0x27F JUMP JUMPDEST PUSH1 0x40 MLOAD DUP1 SWAP2 SUB SWAP1 RETURN JUMPDEST PUSH2 0x82 PUSH1 0x4 DUP1 CALLDATASIZE SUB DUP2 ADD SWAP1 PUSH2 0x7D SWAP2 SWAP1 PUSH2 0x1AF JUMP JUMPDEST PUSH2 0x13E JUMP JUMPDEST PUSH1 0x40 MLOAD PUSH2 0x8F SWAP2 SWAP1 PUSH2 0x2A7 JUMP JUMPDEST PUSH1 0x40 MLOAD DUP1 SWAP2 SUB SWAP1 RETURN JUMPDEST PUSH2 0xA0 PUSH2 0x156 JUMP JUMPDEST PUSH1 0x5 DUP3 LT PUSH2 0xE3 JUMPI PUSH1 0x40 MLOAD PUSH32 0x8C379A000000000000000000000000000000000000000000000000000000000 DUP2 MSTORE PUSH1 0x4 ADD PUSH2 0xDA SWAP1 PUSH2 0x31A JUMP JUMPDEST PUSH1 0x40 MLOAD DUP1 SWAP2 SUB SWAP1 REVERT JUMPDEST PUSH0 DUP3 PUSH1 0x5 DUP2 LT PUSH2 0xF6 JUMPI PUSH2 0xF5 PUSH2 0x338 JUMP JUMPDEST JUMPDEST ADD PUSH0 SWAP1 SSTORE PUSH0 PUSH1 0x5 DUP1 PUSH1 0x20 MUL PUSH1 0x40 MLOAD SWAP1 DUP2 ADD PUSH1 0x40 MSTORE DUP1 SWAP3 SWAP2 SWAP1 DUP3 PUSH1 0x5 DUP1 ISZERO PUSH2 0x132 JUMPI PUSH1 0x20 MUL DUP3 ADD SWAP2 JUMPDEST DUP2 SLOAD DUP2 MSTORE PUSH1 0x20 ADD SWAP1 PUSH1 0x1 ADD SWAP1 DUP1 DUP4 GT PUSH2 0x11E JUMPI JUMPDEST POP POP POP POP POP SWAP1 POP SWAP2 SWAP1 POP JUMP JUMPDEST PUSH0 DUP2 PUSH1 0x5 DUP2 LT PUSH2 0x14C JUMPI PUSH0 DUP1 REVERT JUMPDEST ADD PUSH0 SWAP2 POP SWAP1 POP SLOAD DUP2 JUMP JUMPDEST PUSH1 0x40 MLOAD DUP1 PUSH1 0xA0 ADD PUSH1 0x40 MSTORE DUP1 PUSH1 0x5 SWAP1 PUSH1 0x20 DUP3 MUL DUP1 CALLDATASIZE DUP4 CALLDATACOPY DUP1 DUP3 ADD SWAP2 POP POP SWAP1 POP POP SWAP1 JUMP JUMPDEST PUSH0 PUSH0 REVERT JUMPDEST PUSH0 DUP2 SWAP1 POP SWAP2 SWAP1 POP JUMP JUMPDEST PUSH2 0x18E DUP2 PUSH2 0x17C JUMP JUMPDEST DUP2 EQ PUSH2 0x198 JUMPI PUSH0 PUSH0 REVERT JUMPDEST POP JUMP JUMPDEST PUSH0 DUP2 CALLDATALOAD SWAP1 POP PUSH2 0x1A9 DUP2 PUSH2 0x185 JUMP JUMPDEST SWAP3 SWAP2 POP POP JUMP JUMPDEST PUSH0 PUSH1 0x20 DUP3 DUP5 SUB SLT ISZERO PUSH2 0x1C4 JUMPI PUSH2 0x1C3 PUSH2 0x178 JUMP JUMPDEST JUMPDEST PUSH0 PUSH2 0x1D1 DUP5 DUP3 DUP6 ADD PUSH2 0x19B JUMP JUMPDEST SWAP2 POP POP SWAP3 SWAP2 POP POP JUMP JUMPDEST PUSH0 PUSH1 0x5 SWAP1 POP SWAP2 SWAP1 POP JUMP JUMPDEST PUSH0 DUP2 SWAP1 POP SWAP3 SWAP2 POP POP JUMP JUMPDEST PUSH0 DUP2 SWAP1 POP SWAP2 SWAP1 POP JUMP JUMPDEST PUSH2 0x200 DUP2 PUSH2 0x17C JUMP JUMPDEST DUP3 MSTORE POP POP JUMP JUMPDEST PUSH0 PUSH2 0x211 DUP4 DUP4 PUSH2 0x1F7 JUMP JUMPDEST PUSH1 0x20 DUP4 ADD SWAP1 POP SWAP3 SWAP2 POP POP JUMP JUMPDEST PUSH0 PUSH1 0x20 DUP3 ADD SWAP1 POP SWAP2 SWAP1 POP JUMP JUMPDEST PUSH2 0x232 DUP2 PUSH2 0x1DA JUMP JUMPDEST PUSH2 0x23C DUP2 DUP5 PUSH2 0x1E4 JUMP JUMPDEST SWAP3 POP PUSH2 0x247 DUP3 PUSH2 0x1EE JUMP JUMPDEST DUP1 PUSH0 JUMPDEST DUP4 DUP2 LT ISZERO PUSH2 0x277 JUMPI DUP2 MLOAD PUSH2 0x25E DUP8 DUP3 PUSH2 0x206 JUMP JUMPDEST SWAP7 POP PUSH2 0x269 DUP4 PUSH2 0x21D JUMP JUMPDEST SWAP3 POP POP PUSH1 0x1 DUP2 ADD SWAP1 POP PUSH2 0x24A JUMP JUMPDEST POP POP POP POP POP POP JUMP JUMPDEST PUSH0 PUSH1 0xA0 DUP3 ADD SWAP1 POP PUSH2 0x292 PUSH0 DUP4 ADD DUP5 PUSH2 0x229 JUMP JUMPDEST SWAP3 SWAP2 POP POP JUMP JUMPDEST PUSH2 0x2A1 DUP2 PUSH2 0x17C JUMP JUMPDEST DUP3 MSTORE POP POP JUMP JUMPDEST PUSH0 PUSH1 0x20 DUP3 ADD SWAP1 POP PUSH2 0x2BA PUSH0 DUP4 ADD DUP5 PUSH2 0x298 JUMP JUMPDEST SWAP3 SWAP2 POP POP JUMP JUMPDEST PUSH0 DUP3 DUP3 MSTORE PUSH1 0x20 DUP3 ADD SWAP1 POP SWAP3 SWAP2 POP POP JUMP JUMPDEST PUSH32 0xE695B0E7BB84E4B88BE6A087E8B68AE7958C0000000000000000000000000000 PUSH0 DUP3 ADD MSTORE POP JUMP JUMPDEST PUSH0 PUSH2 0x304 PUSH1 0x12 DUP4 PUSH2 0x2C0 JUMP JUMPDEST SWAP2 POP PUSH2 0x30F DUP3 PUSH2 0x2D0 JUMP JUMPDEST PUSH1 0x20 DUP3 ADD SWAP1 POP SWAP2 SWAP1 POP JUMP JUMPDEST PUSH0 PUSH1 0x20 DUP3 ADD SWAP1 POP DUP2 DUP2 SUB PUSH0 DUP4 ADD MSTORE PUSH2 0x331 DUP2 PUSH2 0x2F8 JUMP JUMPDEST SWAP1 POP SWAP2 SWAP1 POP JUMP JUMPDEST PUSH32 0x4E487B7100000000000000000000000000000000000000000000000000000000 PUSH0 MSTORE PUSH1 0x32 PUSH1 0x4 MSTORE PUSH1 0x24 PUSH0 REVERT INVALID LOG2 PUSH5 0x6970667358 0x22 SLT KECCAK256 ISZERO EXTCODECOPY SWAP13 JUMPF 0xE654 CALLDATASIZE XOR 0xD8 PUSH17 0x94E9317AA9B7877354D6CAD129DACF11B8 RETF 0xDA 0xBF 0xE DUP9 PUSH5 0x736F6C6343 STOP ADDMOD 0x22 STOP CALLER "
				},
				"gasEstimates": {
					"creation": {
						"codeDepositCost": "184600",
						"executionCost": "infinite",
						"totalCost": "infinite"
					},
					"external": {
						"numbers(uint256)": "infinite",
						"resetElement(uint256)": "infinite"
					}
				},
				"methodIdentifiers": {
					"numbers(uint256)": "d39fa233",
					"resetElement(uint256)": "4ed8544c"
				}
			},
			"storageLayout": {
				"storage": [
					{
						"astId": 11,
						"contract": "contracts/3.1/FixedArrayLimitations.sol:FixedArrayLimitations",
						"label": "numbers",
						"offset": 0,
						"slot": "0",
						"type": "t_array(t_uint256)5_storage"
					}
				],
				"types": {
					"t_array(t_uint256)5_storage": {
						"base": "t_uint256",
						"encoding": "inplace",
						"label": "uint256[5]",
						"numberOfBytes": "160"
					},
					"t_uint256": {
						"encoding": "inplace",
						"label": "uint256",
						"numberOfBytes": "32"
					}
				}
			},
			"userdoc": {
				"kind": "user",
				"methods": {},
				"version": 1
			}
		}
	}
}