{
	"contracts/3.1/05ArrayIteration/ArrayIteration.sol": {
		"ArrayIteration": {
			"abi": [
				{
					"inputs": [],
					"stateMutability": "nonpayable",
					"type": "constructor"
				},
				{
					"inputs": [
						{
							"internalType": "uint256",
							"name": "value",
							"type": "uint256"
						}
					],
					"name": "filterGreaterThan",
					"outputs": [
						{
							"internalType": "uint256",
							"name": "",
							"type": "uint256"
						},
						{
							"internalType": "uint256[]",
							"name": "",
							"type": "uint256[]"
						}
					],
					"stateMutability": "view",
					"type": "function"
				},
				{
					"inputs": [
						{
							"internalType": "uint256",
							"name": "value",
							"type": "uint256"
						}
					],
					"name": "findElememt",
					"outputs": [
						{
							"internalType": "bool",
							"name": "",
							"type": "bool"
						},
						{
							"internalType": "uint256",
							"name": "",
							"type": "uint256"
						}
					],
					"stateMutability": "view",
					"type": "function"
				},
				{
					"inputs": [],
					"name": "iterateArray",
					"outputs": [
						{
							"internalType": "uint256",
							"name": "",
							"type": "uint256"
						}
					],
					"stateMutability": "view",
					"type": "function"
				},
				{
					"inputs": [
						{
							"internalType": "uint256",
							"name": "",
							"type": "uint256"
						}
					],
					"name": "numbers",
					"outputs": [
						{
							"internalType": "uint256",
							"name": "",
							"type": "uint256"
						}
					],
					"stateMutability": "view",
					"type": "function"
				}
			],
			"devdoc": {
				"kind": "dev",
				"methods": {},
				"version": 1
			},
			"evm": {
				"assembly": "    /* \"contracts/3.1/05ArrayIteration/ArrayIteration.sol\":58:1270  contract ArrayIteration{... */\n  mstore(0x40, 0x80)\n    /* \"contracts/3.1/05ArrayIteration/ArrayIteration.sol\":116:212  constructor(){... */\n  callvalue\n  dup1\n  iszero\n  tag_1\n  jumpi\n  revert(0x00, 0x00)\ntag_1:\n  pop\n    /* \"contracts/3.1/05ArrayIteration/ArrayIteration.sol\":144:150  uint i */\n  0x00\n    /* \"contracts/3.1/05ArrayIteration/ArrayIteration.sol\":151:152  1 */\n  0x01\n    /* \"contracts/3.1/05ArrayIteration/ArrayIteration.sol\":144:152  uint i=1 */\n  swap1\n  pop\n    /* \"contracts/3.1/05ArrayIteration/ArrayIteration.sol\":140:205  for(uint i=1;i<=10;i++){... */\ntag_4:\n    /* \"contracts/3.1/05ArrayIteration/ArrayIteration.sol\":156:158  10 */\n  0x0a\n    /* \"contracts/3.1/05ArrayIteration/ArrayIteration.sol\":153:154  i */\n  dup2\n    /* \"contracts/3.1/05ArrayIteration/ArrayIteration.sol\":153:158  i<=10 */\n  gt\n    /* \"contracts/3.1/05ArrayIteration/ArrayIteration.sol\":140:205  for(uint i=1;i<=10;i++){... */\n  tag_5\n  jumpi\n    /* \"contracts/3.1/05ArrayIteration/ArrayIteration.sol\":178:185  numbers */\n  0x00\n    /* \"contracts/3.1/05ArrayIteration/ArrayIteration.sol\":191:192  i */\n  dup2\n    /* \"contracts/3.1/05ArrayIteration/ArrayIteration.sol\":178:193  numbers.push(i) */\n  swap1\n  dup1\n  0x01\n  dup2\n  sload\n  add\n  dup1\n  dup3\n  sstore\n  dup1\n  swap2\n  pop\n  pop\n  0x01\n  swap1\n  sub\n  swap1\n  0x00\n  mstore\n  keccak256(0x00, 0x20)\n  add\n  0x00\n  swap1\n  swap2\n  swap1\n  swap2\n  swap1\n  swap2\n  pop\n  sstore\n    /* \"contracts/3.1/05ArrayIteration/ArrayIteration.sol\":159:162  i++ */\n  dup1\n  dup1\n  tag_8\n  swap1\n  tag_9\n  jump\t// in\ntag_8:\n  swap2\n  pop\n  pop\n    /* \"contracts/3.1/05ArrayIteration/ArrayIteration.sol\":140:205  for(uint i=1;i<=10;i++){... */\n  jump(tag_4)\ntag_5:\n  pop\n    /* \"contracts/3.1/05ArrayIteration/ArrayIteration.sol\":58:1270  contract ArrayIteration{... */\n  jump(tag_10)\n    /* \"#utility.yul\":7:187   */\ntag_11:\n    /* \"#utility.yul\":55:132   */\n  0x4e487b7100000000000000000000000000000000000000000000000000000000\n    /* \"#utility.yul\":52:53   */\n  0x00\n    /* \"#utility.yul\":45:133   */\n  mstore\n    /* \"#utility.yul\":152:156   */\n  0x11\n    /* \"#utility.yul\":149:150   */\n  0x04\n    /* \"#utility.yul\":142:157   */\n  mstore\n    /* \"#utility.yul\":176:180   */\n  0x24\n    /* \"#utility.yul\":173:174   */\n  0x00\n    /* \"#utility.yul\":166:181   */\n  revert\n    /* \"#utility.yul\":193:270   */\ntag_12:\n    /* \"#utility.yul\":230:237   */\n  0x00\n    /* \"#utility.yul\":259:264   */\n  dup2\n    /* \"#utility.yul\":248:264   */\n  swap1\n  pop\n    /* \"#utility.yul\":193:270   */\n  swap2\n  swap1\n  pop\n  jump\t// out\n    /* \"#utility.yul\":276:509   */\ntag_9:\n    /* \"#utility.yul\":315:318   */\n  0x00\n    /* \"#utility.yul\":338:362   */\n  tag_17\n    /* \"#utility.yul\":356:361   */\n  dup3\n    /* \"#utility.yul\":338:362   */\n  tag_12\n  jump\t// in\ntag_17:\n    /* \"#utility.yul\":329:362   */\n  swap2\n  pop\n    /* \"#utility.yul\":384:450   */\n  0xffffffffffffffffffffffffffffffffffffffffffffffffffffffffffffffff\n    /* \"#utility.yul\":377:382   */\n  dup3\n    /* \"#utility.yul\":374:451   */\n  sub\n    /* \"#utility.yul\":371:474   */\n  tag_18\n  jumpi\n    /* \"#utility.yul\":454:472   */\n  tag_19\n  tag_11\n  jump\t// in\ntag_19:\n    /* \"#utility.yul\":371:474   */\ntag_18:\n    /* \"#utility.yul\":501:502   */\n  0x01\n    /* \"#utility.yul\":494:499   */\n  dup3\n    /* \"#utility.yul\":490:503   */\n  add\n    /* \"#utility.yul\":483:503   */\n  swap1\n  pop\n    /* \"#utility.yul\":276:509   */\n  swap2\n  swap1\n  pop\n  jump\t// out\n    /* \"contracts/3.1/05ArrayIteration/ArrayIteration.sol\":58:1270  contract ArrayIteration{... */\ntag_10:\n  dataSize(sub_0)\n  dup1\n  dataOffset(sub_0)\n  0x00\n  codecopy\n  0x00\n  return\nstop\n\nsub_0: assembly {\n        /* \"contracts/3.1/05ArrayIteration/ArrayIteration.sol\":58:1270  contract ArrayIteration{... */\n      mstore(0x40, 0x80)\n      callvalue\n      dup1\n      iszero\n      tag_1\n      jumpi\n      revert(0x00, 0x00)\n    tag_1:\n      pop\n      jumpi(tag_2, lt(calldatasize, 0x04))\n      shr(0xe0, calldataload(0x00))\n      dup1\n      0x09bfd03c\n      eq\n      tag_3\n      jumpi\n      dup1\n      0x8d00fe8d\n      eq\n      tag_4\n      jumpi\n      dup1\n      0xd2c54fa2\n      eq\n      tag_5\n      jumpi\n      dup1\n      0xd39fa233\n      eq\n      tag_6\n      jumpi\n    tag_2:\n      revert(0x00, 0x00)\n        /* \"contracts/3.1/05ArrayIteration/ArrayIteration.sol\":450:688  function findElememt(uint value) public view returns(bool,uint){... */\n    tag_3:\n      tag_7\n      0x04\n      dup1\n      calldatasize\n      sub\n      dup2\n      add\n      swap1\n      tag_8\n      swap2\n      swap1\n      tag_9\n      jump\t// in\n    tag_8:\n      tag_10\n      jump\t// in\n    tag_7:\n      mload(0x40)\n      tag_11\n      swap3\n      swap2\n      swap1\n      tag_12\n      jump\t// in\n    tag_11:\n      mload(0x40)\n      dup1\n      swap2\n      sub\n      swap1\n      return\n        /* \"contracts/3.1/05ArrayIteration/ArrayIteration.sol\":714:1265  function filterGreaterThan(uint value) public view returns(uint,uint[] memory){... */\n    tag_4:\n      tag_13\n      0x04\n      dup1\n      calldatasize\n      sub\n      dup2\n      add\n      swap1\n      tag_14\n      swap2\n      swap1\n      tag_9\n      jump\t// in\n    tag_14:\n      tag_15\n      jump\t// in\n    tag_13:\n      mload(0x40)\n      tag_16\n      swap3\n      swap2\n      swap1\n      tag_17\n      jump\t// in\n    tag_16:\n      mload(0x40)\n      dup1\n      swap2\n      sub\n      swap1\n      return\n        /* \"contracts/3.1/05ArrayIteration/ArrayIteration.sol\":238:424  function iterateArray() public  view returns(uint){... */\n    tag_5:\n      tag_18\n      tag_19\n      jump\t// in\n    tag_18:\n      mload(0x40)\n      tag_20\n      swap2\n      swap1\n      tag_21\n      jump\t// in\n    tag_20:\n      mload(0x40)\n      dup1\n      swap2\n      sub\n      swap1\n      return\n        /* \"contracts/3.1/05ArrayIteration/ArrayIteration.sol\":88:109  uint[] public numbers */\n    tag_6:\n      tag_22\n      0x04\n      dup1\n      calldatasize\n      sub\n      dup2\n      add\n      swap1\n      tag_23\n      swap2\n      swap1\n      tag_9\n      jump\t// in\n    tag_23:\n      tag_24\n      jump\t// in\n    tag_22:\n      mload(0x40)\n      tag_25\n      swap2\n      swap1\n      tag_21\n      jump\t// in\n    tag_25:\n      mload(0x40)\n      dup1\n      swap2\n      sub\n      swap1\n      return\n        /* \"contracts/3.1/05ArrayIteration/ArrayIteration.sol\":450:688  function findElememt(uint value) public view returns(bool,uint){... */\n    tag_10:\n        /* \"contracts/3.1/05ArrayIteration/ArrayIteration.sol\":503:507  bool */\n      0x00\n        /* \"contracts/3.1/05ArrayIteration/ArrayIteration.sol\":508:512  uint */\n      0x00\n        /* \"contracts/3.1/05ArrayIteration/ArrayIteration.sol\":528:534  uint i */\n      0x00\n        /* \"contracts/3.1/05ArrayIteration/ArrayIteration.sol\":535:536  0 */\n      0x00\n        /* \"contracts/3.1/05ArrayIteration/ArrayIteration.sol\":528:536  uint i=0 */\n      swap1\n      pop\n        /* \"contracts/3.1/05ArrayIteration/ArrayIteration.sol\":524:654  for(uint i=0;i<numbers.length;i++){... */\n    tag_27:\n        /* \"contracts/3.1/05ArrayIteration/ArrayIteration.sol\":539:546  numbers */\n      0x00\n        /* \"contracts/3.1/05ArrayIteration/ArrayIteration.sol\":539:553  numbers.length */\n      dup1\n      sload\n      swap1\n      pop\n        /* \"contracts/3.1/05ArrayIteration/ArrayIteration.sol\":537:538  i */\n      dup2\n        /* \"contracts/3.1/05ArrayIteration/ArrayIteration.sol\":537:553  i<numbers.length */\n      lt\n        /* \"contracts/3.1/05ArrayIteration/ArrayIteration.sol\":524:654  for(uint i=0;i<numbers.length;i++){... */\n      iszero\n      tag_28\n      jumpi\n        /* \"contracts/3.1/05ArrayIteration/ArrayIteration.sol\":589:594  value */\n      dup4\n        /* \"contracts/3.1/05ArrayIteration/ArrayIteration.sol\":577:584  numbers */\n      0x00\n        /* \"contracts/3.1/05ArrayIteration/ArrayIteration.sol\":585:586  i */\n      dup3\n        /* \"contracts/3.1/05ArrayIteration/ArrayIteration.sol\":577:587  numbers[i] */\n      dup2\n      sload\n      dup2\n      lt\n      tag_30\n      jumpi\n      tag_31\n      tag_32\n      jump\t// in\n    tag_31:\n    tag_30:\n      swap1\n      0x00\n      mstore\n      keccak256(0x00, 0x20)\n      add\n      sload\n        /* \"contracts/3.1/05ArrayIteration/ArrayIteration.sol\":577:594  numbers[i]==value */\n      sub\n        /* \"contracts/3.1/05ArrayIteration/ArrayIteration.sol\":573:643  if (numbers[i]==value){... */\n      tag_34\n      jumpi\n        /* \"contracts/3.1/05ArrayIteration/ArrayIteration.sol\":620:624  true */\n      0x01\n        /* \"contracts/3.1/05ArrayIteration/ArrayIteration.sol\":625:626  i */\n      dup2\n        /* \"contracts/3.1/05ArrayIteration/ArrayIteration.sol\":612:627  return (true,i) */\n      swap3\n      pop\n      swap3\n      pop\n      pop\n      jump(tag_26)\n        /* \"contracts/3.1/05ArrayIteration/ArrayIteration.sol\":573:643  if (numbers[i]==value){... */\n    tag_34:\n        /* \"contracts/3.1/05ArrayIteration/ArrayIteration.sol\":554:557  i++ */\n      dup1\n      dup1\n      0x01\n      add\n      swap2\n      pop\n      pop\n        /* \"contracts/3.1/05ArrayIteration/ArrayIteration.sol\":524:654  for(uint i=0;i<numbers.length;i++){... */\n      jump(tag_27)\n    tag_28:\n      pop\n        /* \"contracts/3.1/05ArrayIteration/ArrayIteration.sol\":672:677  false */\n      0x00\n        /* \"contracts/3.1/05ArrayIteration/ArrayIteration.sol\":678:679  0 */\n      0x00\n        /* \"contracts/3.1/05ArrayIteration/ArrayIteration.sol\":664:680  return (false,0) */\n      swap2\n      pop\n      swap2\n      pop\n        /* \"contracts/3.1/05ArrayIteration/ArrayIteration.sol\":450:688  function findElememt(uint value) public view returns(bool,uint){... */\n    tag_26:\n      swap2\n      pop\n      swap2\n      jump\t// out\n        /* \"contracts/3.1/05ArrayIteration/ArrayIteration.sol\":714:1265  function filterGreaterThan(uint value) public view returns(uint,uint[] memory){... */\n    tag_15:\n        /* \"contracts/3.1/05ArrayIteration/ArrayIteration.sol\":773:777  uint */\n      0x00\n        /* \"contracts/3.1/05ArrayIteration/ArrayIteration.sol\":778:791  uint[] memory */\n      0x60\n        /* \"contracts/3.1/05ArrayIteration/ArrayIteration.sol\":803:813  uint count */\n      0x00\n        /* \"contracts/3.1/05ArrayIteration/ArrayIteration.sol\":814:815  0 */\n      0x00\n        /* \"contracts/3.1/05ArrayIteration/ArrayIteration.sol\":803:815  uint count=0 */\n      swap1\n      pop\n        /* \"contracts/3.1/05ArrayIteration/ArrayIteration.sol\":830:836  uint i */\n      0x00\n        /* \"contracts/3.1/05ArrayIteration/ArrayIteration.sol\":837:838  0 */\n      0x00\n        /* \"contracts/3.1/05ArrayIteration/ArrayIteration.sol\":830:838  uint i=0 */\n      swap1\n      pop\n        /* \"contracts/3.1/05ArrayIteration/ArrayIteration.sol\":826:949  for(uint i=0;i<numbers.length;i++){... */\n    tag_36:\n        /* \"contracts/3.1/05ArrayIteration/ArrayIteration.sol\":841:848  numbers */\n      0x00\n        /* \"contracts/3.1/05ArrayIteration/ArrayIteration.sol\":841:855  numbers.length */\n      dup1\n      sload\n      swap1\n      pop\n        /* \"contracts/3.1/05ArrayIteration/ArrayIteration.sol\":839:840  i */\n      dup2\n        /* \"contracts/3.1/05ArrayIteration/ArrayIteration.sol\":839:855  i<numbers.length */\n      lt\n        /* \"contracts/3.1/05ArrayIteration/ArrayIteration.sol\":826:949  for(uint i=0;i<numbers.length;i++){... */\n      iszero\n      tag_37\n      jumpi\n        /* \"contracts/3.1/05ArrayIteration/ArrayIteration.sol\":890:895  value */\n      dup5\n        /* \"contracts/3.1/05ArrayIteration/ArrayIteration.sol\":879:886  numbers */\n      0x00\n        /* \"contracts/3.1/05ArrayIteration/ArrayIteration.sol\":887:888  i */\n      dup3\n        /* \"contracts/3.1/05ArrayIteration/ArrayIteration.sol\":879:889  numbers[i] */\n      dup2\n      sload\n      dup2\n      lt\n      tag_39\n      jumpi\n      tag_40\n      tag_32\n      jump\t// in\n    tag_40:\n    tag_39:\n      swap1\n      0x00\n      mstore\n      keccak256(0x00, 0x20)\n      add\n      sload\n        /* \"contracts/3.1/05ArrayIteration/ArrayIteration.sol\":879:895  numbers[i]>value */\n      gt\n        /* \"contracts/3.1/05ArrayIteration/ArrayIteration.sol\":875:938  if (numbers[i]>value){... */\n      iszero\n      tag_42\n      jumpi\n        /* \"contracts/3.1/05ArrayIteration/ArrayIteration.sol\":915:922  count++ */\n      dup2\n      dup1\n      tag_43\n      swap1\n      tag_44\n      jump\t// in\n    tag_43:\n      swap3\n      pop\n      pop\n        /* \"contracts/3.1/05ArrayIteration/ArrayIteration.sol\":875:938  if (numbers[i]>value){... */\n    tag_42:\n        /* \"contracts/3.1/05ArrayIteration/ArrayIteration.sol\":856:859  i++ */\n      dup1\n      dup1\n      0x01\n      add\n      swap2\n      pop\n      pop\n        /* \"contracts/3.1/05ArrayIteration/ArrayIteration.sol\":826:949  for(uint i=0;i<numbers.length;i++){... */\n      jump(tag_36)\n    tag_37:\n      pop\n        /* \"contracts/3.1/05ArrayIteration/ArrayIteration.sol\":959:988  uint[] memory filteredNumbers */\n      0x00\n        /* \"contracts/3.1/05ArrayIteration/ArrayIteration.sol\":1002:1007  count */\n      dup2\n        /* \"contracts/3.1/05ArrayIteration/ArrayIteration.sol\":991:1008  new uint[](count) */\n      0xffffffffffffffff\n      dup2\n      gt\n      iszero\n      tag_45\n      jumpi\n      tag_46\n      tag_47\n      jump\t// in\n    tag_46:\n    tag_45:\n      mload(0x40)\n      swap1\n      dup1\n      dup3\n      mstore\n      dup1\n      0x20\n      mul\n      0x20\n      add\n      dup3\n      add\n      0x40\n      mstore\n      dup1\n      iszero\n      tag_48\n      jumpi\n      dup2\n      0x20\n      add\n      0x20\n      dup3\n      mul\n      dup1\n      calldatasize\n      dup4\n      calldatacopy\n      dup1\n      dup3\n      add\n      swap2\n      pop\n      pop\n      swap1\n      pop\n    tag_48:\n      pop\n        /* \"contracts/3.1/05ArrayIteration/ArrayIteration.sol\":959:1008  uint[] memory filteredNumbers = new uint[](count) */\n      swap1\n      pop\n        /* \"contracts/3.1/05ArrayIteration/ArrayIteration.sol\":1019:1029  uint index */\n      0x00\n        /* \"contracts/3.1/05ArrayIteration/ArrayIteration.sol\":1030:1031  0 */\n      0x00\n        /* \"contracts/3.1/05ArrayIteration/ArrayIteration.sol\":1019:1031  uint index=0 */\n      swap1\n      pop\n        /* \"contracts/3.1/05ArrayIteration/ArrayIteration.sol\":1046:1052  uint i */\n      0x00\n        /* \"contracts/3.1/05ArrayIteration/ArrayIteration.sol\":1053:1054  0 */\n      0x00\n        /* \"contracts/3.1/05ArrayIteration/ArrayIteration.sol\":1046:1054  uint i=0 */\n      swap1\n      pop\n        /* \"contracts/3.1/05ArrayIteration/ArrayIteration.sol\":1042:1217  for(uint i=0;i<numbers.length;i++){... */\n    tag_49:\n        /* \"contracts/3.1/05ArrayIteration/ArrayIteration.sol\":1057:1064  numbers */\n      0x00\n        /* \"contracts/3.1/05ArrayIteration/ArrayIteration.sol\":1057:1071  numbers.length */\n      dup1\n      sload\n      swap1\n      pop\n        /* \"contracts/3.1/05ArrayIteration/ArrayIteration.sol\":1055:1056  i */\n      dup2\n        /* \"contracts/3.1/05ArrayIteration/ArrayIteration.sol\":1055:1071  i<numbers.length */\n      lt\n        /* \"contracts/3.1/05ArrayIteration/ArrayIteration.sol\":1042:1217  for(uint i=0;i<numbers.length;i++){... */\n      iszero\n      tag_50\n      jumpi\n        /* \"contracts/3.1/05ArrayIteration/ArrayIteration.sol\":1106:1111  value */\n      dup7\n        /* \"contracts/3.1/05ArrayIteration/ArrayIteration.sol\":1095:1102  numbers */\n      0x00\n        /* \"contracts/3.1/05ArrayIteration/ArrayIteration.sol\":1103:1104  i */\n      dup3\n        /* \"contracts/3.1/05ArrayIteration/ArrayIteration.sol\":1095:1105  numbers[i] */\n      dup2\n      sload\n      dup2\n      lt\n      tag_52\n      jumpi\n      tag_53\n      tag_32\n      jump\t// in\n    tag_53:\n    tag_52:\n      swap1\n      0x00\n      mstore\n      keccak256(0x00, 0x20)\n      add\n      sload\n        /* \"contracts/3.1/05ArrayIteration/ArrayIteration.sol\":1095:1111  numbers[i]>value */\n      gt\n        /* \"contracts/3.1/05ArrayIteration/ArrayIteration.sol\":1091:1206  if (numbers[i]>value){... */\n      iszero\n      tag_55\n      jumpi\n        /* \"contracts/3.1/05ArrayIteration/ArrayIteration.sol\":1154:1161  numbers */\n      0x00\n        /* \"contracts/3.1/05ArrayIteration/ArrayIteration.sol\":1162:1163  i */\n      dup2\n        /* \"contracts/3.1/05ArrayIteration/ArrayIteration.sol\":1154:1164  numbers[i] */\n      dup2\n      sload\n      dup2\n      lt\n      tag_56\n      jumpi\n      tag_57\n      tag_32\n      jump\t// in\n    tag_57:\n    tag_56:\n      swap1\n      0x00\n      mstore\n      keccak256(0x00, 0x20)\n      add\n      sload\n        /* \"contracts/3.1/05ArrayIteration/ArrayIteration.sol\":1131:1146  filteredNumbers */\n      dup4\n        /* \"contracts/3.1/05ArrayIteration/ArrayIteration.sol\":1147:1152  index */\n      dup4\n        /* \"contracts/3.1/05ArrayIteration/ArrayIteration.sol\":1131:1153  filteredNumbers[index] */\n      dup2\n      mload\n      dup2\n      lt\n      tag_59\n      jumpi\n      tag_60\n      tag_32\n      jump\t// in\n    tag_60:\n    tag_59:\n      0x20\n      mul\n      0x20\n      add\n      add\n        /* \"contracts/3.1/05ArrayIteration/ArrayIteration.sol\":1131:1164  filteredNumbers[index]=numbers[i] */\n      dup2\n      dup2\n      mstore\n      pop\n      pop\n        /* \"contracts/3.1/05ArrayIteration/ArrayIteration.sol\":1183:1190  index++ */\n      dup2\n      dup1\n      tag_61\n      swap1\n      tag_44\n      jump\t// in\n    tag_61:\n      swap3\n      pop\n      pop\n        /* \"contracts/3.1/05ArrayIteration/ArrayIteration.sol\":1091:1206  if (numbers[i]>value){... */\n    tag_55:\n        /* \"contracts/3.1/05ArrayIteration/ArrayIteration.sol\":1072:1075  i++ */\n      dup1\n      dup1\n      0x01\n      add\n      swap2\n      pop\n      pop\n        /* \"contracts/3.1/05ArrayIteration/ArrayIteration.sol\":1042:1217  for(uint i=0;i<numbers.length;i++){... */\n      jump(tag_49)\n    tag_50:\n      pop\n        /* \"contracts/3.1/05ArrayIteration/ArrayIteration.sol\":1235:1240  count */\n      dup3\n        /* \"contracts/3.1/05ArrayIteration/ArrayIteration.sol\":1241:1256  filteredNumbers */\n      dup3\n        /* \"contracts/3.1/05ArrayIteration/ArrayIteration.sol\":1227:1257  return (count,filteredNumbers) */\n      swap5\n      pop\n      swap5\n      pop\n      pop\n      pop\n      pop\n        /* \"contracts/3.1/05ArrayIteration/ArrayIteration.sol\":714:1265  function filterGreaterThan(uint value) public view returns(uint,uint[] memory){... */\n      swap2\n      pop\n      swap2\n      jump\t// out\n        /* \"contracts/3.1/05ArrayIteration/ArrayIteration.sol\":238:424  function iterateArray() public  view returns(uint){... */\n    tag_19:\n        /* \"contracts/3.1/05ArrayIteration/ArrayIteration.sol\":283:287  uint */\n      0x00\n        /* \"contracts/3.1/05ArrayIteration/ArrayIteration.sol\":299:307  uint sum */\n      0x00\n        /* \"contracts/3.1/05ArrayIteration/ArrayIteration.sol\":308:309  0 */\n      0x00\n        /* \"contracts/3.1/05ArrayIteration/ArrayIteration.sol\":299:309  uint sum=0 */\n      swap1\n      pop\n        /* \"contracts/3.1/05ArrayIteration/ArrayIteration.sol\":324:330  uint i */\n      0x00\n        /* \"contracts/3.1/05ArrayIteration/ArrayIteration.sol\":331:332  0 */\n      0x00\n        /* \"contracts/3.1/05ArrayIteration/ArrayIteration.sol\":324:332  uint i=0 */\n      swap1\n      pop\n        /* \"contracts/3.1/05ArrayIteration/ArrayIteration.sol\":320:396  for(uint i=0;i<numbers.length;i++){... */\n    tag_63:\n        /* \"contracts/3.1/05ArrayIteration/ArrayIteration.sol\":335:342  numbers */\n      0x00\n        /* \"contracts/3.1/05ArrayIteration/ArrayIteration.sol\":335:349  numbers.length */\n      dup1\n      sload\n      swap1\n      pop\n        /* \"contracts/3.1/05ArrayIteration/ArrayIteration.sol\":333:334  i */\n      dup2\n        /* \"contracts/3.1/05ArrayIteration/ArrayIteration.sol\":333:349  i<numbers.length */\n      lt\n        /* \"contracts/3.1/05ArrayIteration/ArrayIteration.sol\":320:396  for(uint i=0;i<numbers.length;i++){... */\n      iszero\n      tag_64\n      jumpi\n        /* \"contracts/3.1/05ArrayIteration/ArrayIteration.sol\":374:381  numbers */\n      0x00\n        /* \"contracts/3.1/05ArrayIteration/ArrayIteration.sol\":382:383  i */\n      dup2\n        /* \"contracts/3.1/05ArrayIteration/ArrayIteration.sol\":374:384  numbers[i] */\n      dup2\n      sload\n      dup2\n      lt\n      tag_66\n      jumpi\n      tag_67\n      tag_32\n      jump\t// in\n    tag_67:\n    tag_66:\n      swap1\n      0x00\n      mstore\n      keccak256(0x00, 0x20)\n      add\n      sload\n        /* \"contracts/3.1/05ArrayIteration/ArrayIteration.sol\":369:384  sum+=numbers[i] */\n      dup3\n      tag_69\n      swap2\n      swap1\n      tag_70\n      jump\t// in\n    tag_69:\n      swap2\n      pop\n        /* \"contracts/3.1/05ArrayIteration/ArrayIteration.sol\":350:353  i++ */\n      dup1\n      dup1\n      0x01\n      add\n      swap2\n      pop\n      pop\n        /* \"contracts/3.1/05ArrayIteration/ArrayIteration.sol\":320:396  for(uint i=0;i<numbers.length;i++){... */\n      jump(tag_63)\n    tag_64:\n      pop\n        /* \"contracts/3.1/05ArrayIteration/ArrayIteration.sol\":413:416  sum */\n      dup1\n        /* \"contracts/3.1/05ArrayIteration/ArrayIteration.sol\":406:416  return sum */\n      swap2\n      pop\n      pop\n        /* \"contracts/3.1/05ArrayIteration/ArrayIteration.sol\":238:424  function iterateArray() public  view returns(uint){... */\n      swap1\n      jump\t// out\n        /* \"contracts/3.1/05ArrayIteration/ArrayIteration.sol\":88:109  uint[] public numbers */\n    tag_24:\n      0x00\n      dup2\n      dup2\n      sload\n      dup2\n      lt\n      tag_71\n      jumpi\n      0x00\n      dup1\n      revert\n    tag_71:\n      swap1\n      0x00\n      mstore\n      keccak256(0x00, 0x20)\n      add\n      0x00\n      swap2\n      pop\n      swap1\n      pop\n      sload\n      dup2\n      jump\t// out\n        /* \"#utility.yul\":88:205   */\n    tag_74:\n        /* \"#utility.yul\":197:198   */\n      0x00\n        /* \"#utility.yul\":194:195   */\n      0x00\n        /* \"#utility.yul\":187:199   */\n      revert\n        /* \"#utility.yul\":334:411   */\n    tag_76:\n        /* \"#utility.yul\":371:378   */\n      0x00\n        /* \"#utility.yul\":400:405   */\n      dup2\n        /* \"#utility.yul\":389:405   */\n      swap1\n      pop\n        /* \"#utility.yul\":334:411   */\n      swap2\n      swap1\n      pop\n      jump\t// out\n        /* \"#utility.yul\":417:539   */\n    tag_77:\n        /* \"#utility.yul\":490:514   */\n      tag_96\n        /* \"#utility.yul\":508:513   */\n      dup2\n        /* \"#utility.yul\":490:514   */\n      tag_76\n      jump\t// in\n    tag_96:\n        /* \"#utility.yul\":483:488   */\n      dup2\n        /* \"#utility.yul\":480:515   */\n      eq\n        /* \"#utility.yul\":470:533   */\n      tag_97\n      jumpi\n        /* \"#utility.yul\":529:530   */\n      0x00\n        /* \"#utility.yul\":526:527   */\n      0x00\n        /* \"#utility.yul\":519:531   */\n      revert\n        /* \"#utility.yul\":470:533   */\n    tag_97:\n        /* \"#utility.yul\":417:539   */\n      pop\n      jump\t// out\n        /* \"#utility.yul\":545:684   */\n    tag_78:\n        /* \"#utility.yul\":591:596   */\n      0x00\n        /* \"#utility.yul\":629:635   */\n      dup2\n        /* \"#utility.yul\":616:636   */\n      calldataload\n        /* \"#utility.yul\":607:636   */\n      swap1\n      pop\n        /* \"#utility.yul\":645:678   */\n      tag_99\n        /* \"#utility.yul\":672:677   */\n      dup2\n        /* \"#utility.yul\":645:678   */\n      tag_77\n      jump\t// in\n    tag_99:\n        /* \"#utility.yul\":545:684   */\n      swap3\n      swap2\n      pop\n      pop\n      jump\t// out\n        /* \"#utility.yul\":690:1019   */\n    tag_9:\n        /* \"#utility.yul\":749:755   */\n      0x00\n        /* \"#utility.yul\":798:800   */\n      0x20\n        /* \"#utility.yul\":786:795   */\n      dup3\n        /* \"#utility.yul\":777:784   */\n      dup5\n        /* \"#utility.yul\":773:796   */\n      sub\n        /* \"#utility.yul\":769:801   */\n      slt\n        /* \"#utility.yul\":766:885   */\n      iszero\n      tag_101\n      jumpi\n        /* \"#utility.yul\":804:883   */\n      tag_102\n      tag_74\n      jump\t// in\n    tag_102:\n        /* \"#utility.yul\":766:885   */\n    tag_101:\n        /* \"#utility.yul\":924:925   */\n      0x00\n        /* \"#utility.yul\":949:1002   */\n      tag_103\n        /* \"#utility.yul\":994:1001   */\n      dup5\n        /* \"#utility.yul\":985:991   */\n      dup3\n        /* \"#utility.yul\":974:983   */\n      dup6\n        /* \"#utility.yul\":970:992   */\n      add\n        /* \"#utility.yul\":949:1002   */\n      tag_78\n      jump\t// in\n    tag_103:\n        /* \"#utility.yul\":939:1002   */\n      swap2\n      pop\n        /* \"#utility.yul\":895:1012   */\n      pop\n        /* \"#utility.yul\":690:1019   */\n      swap3\n      swap2\n      pop\n      pop\n      jump\t// out\n        /* \"#utility.yul\":1025:1115   */\n    tag_79:\n        /* \"#utility.yul\":1059:1066   */\n      0x00\n        /* \"#utility.yul\":1102:1107   */\n      dup2\n        /* \"#utility.yul\":1095:1108   */\n      iszero\n        /* \"#utility.yul\":1088:1109   */\n      iszero\n        /* \"#utility.yul\":1077:1109   */\n      swap1\n      pop\n        /* \"#utility.yul\":1025:1115   */\n      swap2\n      swap1\n      pop\n      jump\t// out\n        /* \"#utility.yul\":1121:1230   */\n    tag_80:\n        /* \"#utility.yul\":1202:1223   */\n      tag_106\n        /* \"#utility.yul\":1217:1222   */\n      dup2\n        /* \"#utility.yul\":1202:1223   */\n      tag_79\n      jump\t// in\n    tag_106:\n        /* \"#utility.yul\":1197:1200   */\n      dup3\n        /* \"#utility.yul\":1190:1224   */\n      mstore\n        /* \"#utility.yul\":1121:1230   */\n      pop\n      pop\n      jump\t// out\n        /* \"#utility.yul\":1236:1354   */\n    tag_81:\n        /* \"#utility.yul\":1323:1347   */\n      tag_108\n        /* \"#utility.yul\":1341:1346   */\n      dup2\n        /* \"#utility.yul\":1323:1347   */\n      tag_76\n      jump\t// in\n    tag_108:\n        /* \"#utility.yul\":1318:1321   */\n      dup3\n        /* \"#utility.yul\":1311:1348   */\n      mstore\n        /* \"#utility.yul\":1236:1354   */\n      pop\n      pop\n      jump\t// out\n        /* \"#utility.yul\":1360:1680   */\n    tag_12:\n        /* \"#utility.yul\":1475:1479   */\n      0x00\n        /* \"#utility.yul\":1513:1515   */\n      0x40\n        /* \"#utility.yul\":1502:1511   */\n      dup3\n        /* \"#utility.yul\":1498:1516   */\n      add\n        /* \"#utility.yul\":1490:1516   */\n      swap1\n      pop\n        /* \"#utility.yul\":1526:1591   */\n      tag_110\n        /* \"#utility.yul\":1588:1589   */\n      0x00\n        /* \"#utility.yul\":1577:1586   */\n      dup4\n        /* \"#utility.yul\":1573:1590   */\n      add\n        /* \"#utility.yul\":1564:1570   */\n      dup6\n        /* \"#utility.yul\":1526:1591   */\n      tag_80\n      jump\t// in\n    tag_110:\n        /* \"#utility.yul\":1601:1673   */\n      tag_111\n        /* \"#utility.yul\":1669:1671   */\n      0x20\n        /* \"#utility.yul\":1658:1667   */\n      dup4\n        /* \"#utility.yul\":1654:1672   */\n      add\n        /* \"#utility.yul\":1645:1651   */\n      dup5\n        /* \"#utility.yul\":1601:1673   */\n      tag_81\n      jump\t// in\n    tag_111:\n        /* \"#utility.yul\":1360:1680   */\n      swap4\n      swap3\n      pop\n      pop\n      pop\n      jump\t// out\n        /* \"#utility.yul\":1686:1800   */\n    tag_82:\n        /* \"#utility.yul\":1753:1759   */\n      0x00\n        /* \"#utility.yul\":1787:1792   */\n      dup2\n        /* \"#utility.yul\":1781:1793   */\n      mload\n        /* \"#utility.yul\":1771:1793   */\n      swap1\n      pop\n        /* \"#utility.yul\":1686:1800   */\n      swap2\n      swap1\n      pop\n      jump\t// out\n        /* \"#utility.yul\":1806:1990   */\n    tag_83:\n        /* \"#utility.yul\":1905:1916   */\n      0x00\n        /* \"#utility.yul\":1939:1945   */\n      dup3\n        /* \"#utility.yul\":1934:1937   */\n      dup3\n        /* \"#utility.yul\":1927:1946   */\n      mstore\n        /* \"#utility.yul\":1979:1983   */\n      0x20\n        /* \"#utility.yul\":1974:1977   */\n      dup3\n        /* \"#utility.yul\":1970:1984   */\n      add\n        /* \"#utility.yul\":1955:1984   */\n      swap1\n      pop\n        /* \"#utility.yul\":1806:1990   */\n      swap3\n      swap2\n      pop\n      pop\n      jump\t// out\n        /* \"#utility.yul\":1996:2128   */\n    tag_84:\n        /* \"#utility.yul\":2063:2067   */\n      0x00\n        /* \"#utility.yul\":2086:2089   */\n      dup2\n        /* \"#utility.yul\":2078:2089   */\n      swap1\n      pop\n        /* \"#utility.yul\":2116:2120   */\n      0x20\n        /* \"#utility.yul\":2111:2114   */\n      dup3\n        /* \"#utility.yul\":2107:2121   */\n      add\n        /* \"#utility.yul\":2099:2121   */\n      swap1\n      pop\n        /* \"#utility.yul\":1996:2128   */\n      swap2\n      swap1\n      pop\n      jump\t// out\n        /* \"#utility.yul\":2134:2242   */\n    tag_85:\n        /* \"#utility.yul\":2211:2235   */\n      tag_116\n        /* \"#utility.yul\":2229:2234   */\n      dup2\n        /* \"#utility.yul\":2211:2235   */\n      tag_76\n      jump\t// in\n    tag_116:\n        /* \"#utility.yul\":2206:2209   */\n      dup3\n        /* \"#utility.yul\":2199:2236   */\n      mstore\n        /* \"#utility.yul\":2134:2242   */\n      pop\n      pop\n      jump\t// out\n        /* \"#utility.yul\":2248:2427   */\n    tag_86:\n        /* \"#utility.yul\":2317:2327   */\n      0x00\n        /* \"#utility.yul\":2338:2384   */\n      tag_118\n        /* \"#utility.yul\":2380:2383   */\n      dup4\n        /* \"#utility.yul\":2372:2378   */\n      dup4\n        /* \"#utility.yul\":2338:2384   */\n      tag_85\n      jump\t// in\n    tag_118:\n        /* \"#utility.yul\":2416:2420   */\n      0x20\n        /* \"#utility.yul\":2411:2414   */\n      dup4\n        /* \"#utility.yul\":2407:2421   */\n      add\n        /* \"#utility.yul\":2393:2421   */\n      swap1\n      pop\n        /* \"#utility.yul\":2248:2427   */\n      swap3\n      swap2\n      pop\n      pop\n      jump\t// out\n        /* \"#utility.yul\":2433:2546   */\n    tag_87:\n        /* \"#utility.yul\":2503:2507   */\n      0x00\n        /* \"#utility.yul\":2535:2539   */\n      0x20\n        /* \"#utility.yul\":2530:2533   */\n      dup3\n        /* \"#utility.yul\":2526:2540   */\n      add\n        /* \"#utility.yul\":2518:2540   */\n      swap1\n      pop\n        /* \"#utility.yul\":2433:2546   */\n      swap2\n      swap1\n      pop\n      jump\t// out\n        /* \"#utility.yul\":2582:3314   */\n    tag_88:\n        /* \"#utility.yul\":2701:2704   */\n      0x00\n        /* \"#utility.yul\":2730:2784   */\n      tag_121\n        /* \"#utility.yul\":2778:2783   */\n      dup3\n        /* \"#utility.yul\":2730:2784   */\n      tag_82\n      jump\t// in\n    tag_121:\n        /* \"#utility.yul\":2800:2886   */\n      tag_122\n        /* \"#utility.yul\":2879:2885   */\n      dup2\n        /* \"#utility.yul\":2874:2877   */\n      dup6\n        /* \"#utility.yul\":2800:2886   */\n      tag_83\n      jump\t// in\n    tag_122:\n        /* \"#utility.yul\":2793:2886   */\n      swap4\n      pop\n        /* \"#utility.yul\":2910:2966   */\n      tag_123\n        /* \"#utility.yul\":2960:2965   */\n      dup4\n        /* \"#utility.yul\":2910:2966   */\n      tag_84\n      jump\t// in\n    tag_123:\n        /* \"#utility.yul\":2989:2996   */\n      dup1\n        /* \"#utility.yul\":3020:3021   */\n      0x00\n        /* \"#utility.yul\":3005:3289   */\n    tag_124:\n        /* \"#utility.yul\":3030:3036   */\n      dup4\n        /* \"#utility.yul\":3027:3028   */\n      dup2\n        /* \"#utility.yul\":3024:3037   */\n      lt\n        /* \"#utility.yul\":3005:3289   */\n      iszero\n      tag_126\n      jumpi\n        /* \"#utility.yul\":3106:3112   */\n      dup2\n        /* \"#utility.yul\":3100:3113   */\n      mload\n        /* \"#utility.yul\":3133:3196   */\n      tag_127\n        /* \"#utility.yul\":3192:3195   */\n      dup9\n        /* \"#utility.yul\":3177:3190   */\n      dup3\n        /* \"#utility.yul\":3133:3196   */\n      tag_86\n      jump\t// in\n    tag_127:\n        /* \"#utility.yul\":3126:3196   */\n      swap8\n      pop\n        /* \"#utility.yul\":3219:3279   */\n      tag_128\n        /* \"#utility.yul\":3272:3278   */\n      dup4\n        /* \"#utility.yul\":3219:3279   */\n      tag_87\n      jump\t// in\n    tag_128:\n        /* \"#utility.yul\":3209:3279   */\n      swap3\n      pop\n        /* \"#utility.yul\":3065:3289   */\n      pop\n        /* \"#utility.yul\":3052:3053   */\n      0x01\n        /* \"#utility.yul\":3049:3050   */\n      dup2\n        /* \"#utility.yul\":3045:3054   */\n      add\n        /* \"#utility.yul\":3040:3054   */\n      swap1\n      pop\n        /* \"#utility.yul\":3005:3289   */\n      jump(tag_124)\n    tag_126:\n        /* \"#utility.yul\":3009:3023   */\n      pop\n        /* \"#utility.yul\":3305:3308   */\n      dup6\n        /* \"#utility.yul\":3298:3308   */\n      swap4\n      pop\n        /* \"#utility.yul\":2706:3314   */\n      pop\n      pop\n      pop\n        /* \"#utility.yul\":2582:3314   */\n      swap3\n      swap2\n      pop\n      pop\n      jump\t// out\n        /* \"#utility.yul\":3320:3803   */\n    tag_17:\n        /* \"#utility.yul\":3491:3495   */\n      0x00\n        /* \"#utility.yul\":3529:3531   */\n      0x40\n        /* \"#utility.yul\":3518:3527   */\n      dup3\n        /* \"#utility.yul\":3514:3532   */\n      add\n        /* \"#utility.yul\":3506:3532   */\n      swap1\n      pop\n        /* \"#utility.yul\":3542:3613   */\n      tag_130\n        /* \"#utility.yul\":3610:3611   */\n      0x00\n        /* \"#utility.yul\":3599:3608   */\n      dup4\n        /* \"#utility.yul\":3595:3612   */\n      add\n        /* \"#utility.yul\":3586:3592   */\n      dup6\n        /* \"#utility.yul\":3542:3613   */\n      tag_81\n      jump\t// in\n    tag_130:\n        /* \"#utility.yul\":3660:3669   */\n      dup2\n        /* \"#utility.yul\":3654:3658   */\n      dup2\n        /* \"#utility.yul\":3650:3670   */\n      sub\n        /* \"#utility.yul\":3645:3647   */\n      0x20\n        /* \"#utility.yul\":3634:3643   */\n      dup4\n        /* \"#utility.yul\":3630:3648   */\n      add\n        /* \"#utility.yul\":3623:3671   */\n      mstore\n        /* \"#utility.yul\":3688:3796   */\n      tag_131\n        /* \"#utility.yul\":3791:3795   */\n      dup2\n        /* \"#utility.yul\":3782:3788   */\n      dup5\n        /* \"#utility.yul\":3688:3796   */\n      tag_88\n      jump\t// in\n    tag_131:\n        /* \"#utility.yul\":3680:3796   */\n      swap1\n      pop\n        /* \"#utility.yul\":3320:3803   */\n      swap4\n      swap3\n      pop\n      pop\n      pop\n      jump\t// out\n        /* \"#utility.yul\":3809:4031   */\n    tag_21:\n        /* \"#utility.yul\":3902:3906   */\n      0x00\n        /* \"#utility.yul\":3940:3942   */\n      0x20\n        /* \"#utility.yul\":3929:3938   */\n      dup3\n        /* \"#utility.yul\":3925:3943   */\n      add\n        /* \"#utility.yul\":3917:3943   */\n      swap1\n      pop\n        /* \"#utility.yul\":3953:4024   */\n      tag_133\n        /* \"#utility.yul\":4021:4022   */\n      0x00\n        /* \"#utility.yul\":4010:4019   */\n      dup4\n        /* \"#utility.yul\":4006:4023   */\n      add\n        /* \"#utility.yul\":3997:4003   */\n      dup5\n        /* \"#utility.yul\":3953:4024   */\n      tag_81\n      jump\t// in\n    tag_133:\n        /* \"#utility.yul\":3809:4031   */\n      swap3\n      swap2\n      pop\n      pop\n      jump\t// out\n        /* \"#utility.yul\":4037:4217   */\n    tag_32:\n        /* \"#utility.yul\":4085:4162   */\n      0x4e487b7100000000000000000000000000000000000000000000000000000000\n        /* \"#utility.yul\":4082:4083   */\n      0x00\n        /* \"#utility.yul\":4075:4163   */\n      mstore\n        /* \"#utility.yul\":4182:4186   */\n      0x32\n        /* \"#utility.yul\":4179:4180   */\n      0x04\n        /* \"#utility.yul\":4172:4187   */\n      mstore\n        /* \"#utility.yul\":4206:4210   */\n      0x24\n        /* \"#utility.yul\":4203:4204   */\n      0x00\n        /* \"#utility.yul\":4196:4211   */\n      revert\n        /* \"#utility.yul\":4223:4403   */\n    tag_89:\n        /* \"#utility.yul\":4271:4348   */\n      0x4e487b7100000000000000000000000000000000000000000000000000000000\n        /* \"#utility.yul\":4268:4269   */\n      0x00\n        /* \"#utility.yul\":4261:4349   */\n      mstore\n        /* \"#utility.yul\":4368:4372   */\n      0x11\n        /* \"#utility.yul\":4365:4366   */\n      0x04\n        /* \"#utility.yul\":4358:4373   */\n      mstore\n        /* \"#utility.yul\":4392:4396   */\n      0x24\n        /* \"#utility.yul\":4389:4390   */\n      0x00\n        /* \"#utility.yul\":4382:4397   */\n      revert\n        /* \"#utility.yul\":4409:4642   */\n    tag_44:\n        /* \"#utility.yul\":4448:4451   */\n      0x00\n        /* \"#utility.yul\":4471:4495   */\n      tag_137\n        /* \"#utility.yul\":4489:4494   */\n      dup3\n        /* \"#utility.yul\":4471:4495   */\n      tag_76\n      jump\t// in\n    tag_137:\n        /* \"#utility.yul\":4462:4495   */\n      swap2\n      pop\n        /* \"#utility.yul\":4517:4583   */\n      0xffffffffffffffffffffffffffffffffffffffffffffffffffffffffffffffff\n        /* \"#utility.yul\":4510:4515   */\n      dup3\n        /* \"#utility.yul\":4507:4584   */\n      sub\n        /* \"#utility.yul\":4504:4607   */\n      tag_138\n      jumpi\n        /* \"#utility.yul\":4587:4605   */\n      tag_139\n      tag_89\n      jump\t// in\n    tag_139:\n        /* \"#utility.yul\":4504:4607   */\n    tag_138:\n        /* \"#utility.yul\":4634:4635   */\n      0x01\n        /* \"#utility.yul\":4627:4632   */\n      dup3\n        /* \"#utility.yul\":4623:4636   */\n      add\n        /* \"#utility.yul\":4616:4636   */\n      swap1\n      pop\n        /* \"#utility.yul\":4409:4642   */\n      swap2\n      swap1\n      pop\n      jump\t// out\n        /* \"#utility.yul\":4648:4828   */\n    tag_47:\n        /* \"#utility.yul\":4696:4773   */\n      0x4e487b7100000000000000000000000000000000000000000000000000000000\n        /* \"#utility.yul\":4693:4694   */\n      0x00\n        /* \"#utility.yul\":4686:4774   */\n      mstore\n        /* \"#utility.yul\":4793:4797   */\n      0x41\n        /* \"#utility.yul\":4790:4791   */\n      0x04\n        /* \"#utility.yul\":4783:4798   */\n      mstore\n        /* \"#utility.yul\":4817:4821   */\n      0x24\n        /* \"#utility.yul\":4814:4815   */\n      0x00\n        /* \"#utility.yul\":4807:4822   */\n      revert\n        /* \"#utility.yul\":4834:5025   */\n    tag_70:\n        /* \"#utility.yul\":4874:4877   */\n      0x00\n        /* \"#utility.yul\":4893:4913   */\n      tag_142\n        /* \"#utility.yul\":4911:4912   */\n      dup3\n        /* \"#utility.yul\":4893:4913   */\n      tag_76\n      jump\t// in\n    tag_142:\n        /* \"#utility.yul\":4888:4913   */\n      swap2\n      pop\n        /* \"#utility.yul\":4927:4947   */\n      tag_143\n        /* \"#utility.yul\":4945:4946   */\n      dup4\n        /* \"#utility.yul\":4927:4947   */\n      tag_76\n      jump\t// in\n    tag_143:\n        /* \"#utility.yul\":4922:4947   */\n      swap3\n      pop\n        /* \"#utility.yul\":4970:4971   */\n      dup3\n        /* \"#utility.yul\":4967:4968   */\n      dup3\n        /* \"#utility.yul\":4963:4972   */\n      add\n        /* \"#utility.yul\":4956:4972   */\n      swap1\n      pop\n        /* \"#utility.yul\":4991:4994   */\n      dup1\n        /* \"#utility.yul\":4988:4989   */\n      dup3\n        /* \"#utility.yul\":4985:4995   */\n      gt\n        /* \"#utility.yul\":4982:5018   */\n      iszero\n      tag_144\n      jumpi\n        /* \"#utility.yul\":4998:5016   */\n      tag_145\n      tag_89\n      jump\t// in\n    tag_145:\n        /* \"#utility.yul\":4982:5018   */\n    tag_144:\n        /* \"#utility.yul\":4834:5025   */\n      swap3\n      swap2\n      pop\n      pop\n      jump\t// out\n\n    auxdata: 0xa26469706673582212204cf6e857c3947b0b796c3fe08185cbe251e25a6b8b8a827f8ecd6186596b393e64736f6c63430008220033\n}\n",
				"bytecode": {
					"linkReferences": {},
					"object": "6080604052348015600e575f5ffd5b505f600190505b600a81116051575f81908060018154018082558091505060019003905f5260205f20015f90919091909150558080604a90608c565b9150506015565b5060ce565b7f4e487b71000000000000000000000000000000000000000000000000000000005f52601160045260245ffd5b5f819050919050565b5f6094826083565b91507fffffffffffffffffffffffffffffffffffffffffffffffffffffffffffffffff820360c35760c26056565b5b600182019050919050565b6105f6806100db5f395ff3fe608060405234801561000f575f5ffd5b506004361061004a575f3560e01c806309bfd03c1461004e5780638d00fe8d1461007f578063d2c54fa2146100b0578063d39fa233146100ce575b5f5ffd5b61006860048036038101906100639190610346565b6100fe565b60405161007692919061039a565b60405180910390f35b61009960048036038101906100949190610346565b61015a565b6040516100a7929190610478565b60405180910390f35b6100b861029c565b6040516100c591906104a6565b60405180910390f35b6100e860048036038101906100e39190610346565b6102f0565b6040516100f591906104a6565b60405180910390f35b5f5f5f5f90505b5f8054905081101561014d57835f8281548110610125576101246104bf565b5b905f5260205f20015403610140576001819250925050610155565b8080600101915050610105565b505f5f915091505b915091565b5f60605f5f90505f5f90505b5f805490508110156101b157845f8281548110610186576101856104bf565b5b905f5260205f20015411156101a45781806101a090610519565b9250505b8080600101915050610166565b505f8167ffffffffffffffff8111156101cd576101cc610560565b5b6040519080825280602002602001820160405280156101fb5781602001602082028036833780820191505090505b5090505f5f90505f5f90505b5f8054905081101561028d57865f8281548110610227576102266104bf565b5b905f5260205f2001541115610280575f8181548110610249576102486104bf565b5b905f5260205f200154838381518110610265576102646104bf565b5b602002602001018181525050818061027c90610519565b9250505b8080600101915050610207565b50828294509450505050915091565b5f5f5f90505f5f90505b5f805490508110156102e8575f81815481106102c5576102c46104bf565b5b905f5260205f200154826102d9919061058d565b915080806001019150506102a6565b508091505090565b5f81815481106102fe575f80fd5b905f5260205f20015f915090505481565b5f5ffd5b5f819050919050565b61032581610313565b811461032f575f5ffd5b50565b5f813590506103408161031c565b92915050565b5f6020828403121561035b5761035a61030f565b5b5f61036884828501610332565b91505092915050565b5f8115159050919050565b61038581610371565b82525050565b61039481610313565b82525050565b5f6040820190506103ad5f83018561037c565b6103ba602083018461038b565b9392505050565b5f81519050919050565b5f82825260208201905092915050565b5f819050602082019050919050565b6103f381610313565b82525050565b5f61040483836103ea565b60208301905092915050565b5f602082019050919050565b5f610426826103c1565b61043081856103cb565b935061043b836103db565b805f5b8381101561046b57815161045288826103f9565b975061045d83610410565b92505060018101905061043e565b5085935050505092915050565b5f60408201905061048b5f83018561038b565b818103602083015261049d818461041c565b90509392505050565b5f6020820190506104b95f83018461038b565b92915050565b7f4e487b71000000000000000000000000000000000000000000000000000000005f52603260045260245ffd5b7f4e487b71000000000000000000000000000000000000000000000000000000005f52601160045260245ffd5b5f61052382610313565b91507fffffffffffffffffffffffffffffffffffffffffffffffffffffffffffffffff8203610555576105546104ec565b5b600182019050919050565b7f4e487b71000000000000000000000000000000000000000000000000000000005f52604160045260245ffd5b5f61059782610313565b91506105a283610313565b92508282019050808211156105ba576105b96104ec565b5b9291505056fea26469706673582212204cf6e857c3947b0b796c3fe08185cbe251e25a6b8b8a827f8ecd6186596b393e64736f6c63430008220033",
					"opcodes": "PUSH1 0x80 PUSH1 0x40 MSTORE CALLVALUE DUP1 ISZERO PUSH1 0xE JUMPI PUSH0 PUSH0 REVERT JUMPDEST POP PUSH0 PUSH1 0x1 SWAP1 POP JUMPDEST PUSH1 0xA DUP2 GT PUSH1 0x51 JUMPI PUSH0 DUP2 SWAP1 DUP1 PUSH1 0x1 DUP2 SLOAD ADD DUP1 DUP3 SSTORE DUP1 SWAP2 POP POP PUSH1 0x1 SWAP1 SUB SWAP1 PUSH0 MSTORE PUSH1 0x20 PUSH0 KECCAK256 ADD PUSH0 SWAP1 SWAP2 SWAP1 SWAP2 SWAP1 SWAP2 POP SSTORE DUP1 DUP1 PUSH1 0x4A SWAP1 PUSH1 0x8C JUMP JUMPDEST SWAP2 POP POP PUSH1 0x15 JUMP JUMPDEST POP PUSH1 0xCE JUMP JUMPDEST PUSH32 0x4E487B7100000000000000000000000000000000000000000000000000000000 PUSH0 MSTORE PUSH1 0x11 PUSH1 0x4 MSTORE PUSH1 0x24 PUSH0 REVERT JUMPDEST PUSH0 DUP2 SWAP1 POP SWAP2 SWAP1 POP JUMP JUMPDEST PUSH0 PUSH1 0x94 DUP3 PUSH1 0x83 JUMP JUMPDEST SWAP2 POP PUSH32 0xFFFFFFFFFFFFFFFFFFFFFFFFFFFFFFFFFFFFFFFFFFFFFFFFFFFFFFFFFFFFFFFF DUP3 SUB PUSH1 0xC3 JUMPI PUSH1 0xC2 PUSH1 0x56 JUMP JUMPDEST JUMPDEST PUSH1 0x1 DUP3 ADD SWAP1 POP SWAP2 SWAP1 POP JUMP JUMPDEST PUSH2 0x5F6 DUP1 PUSH2 0xDB PUSH0 CODECOPY PUSH0 RETURN INVALID PUSH1 0x80 PUSH1 0x40 MSTORE CALLVALUE DUP1 ISZERO PUSH2 0xF JUMPI PUSH0 PUSH0 REVERT JUMPDEST POP PUSH1 0x4 CALLDATASIZE LT PUSH2 0x4A JUMPI PUSH0 CALLDATALOAD PUSH1 0xE0 SHR DUP1 PUSH4 0x9BFD03C EQ PUSH2 0x4E JUMPI DUP1 PUSH4 0x8D00FE8D EQ PUSH2 0x7F JUMPI DUP1 PUSH4 0xD2C54FA2 EQ PUSH2 0xB0 JUMPI DUP1 PUSH4 0xD39FA233 EQ PUSH2 0xCE JUMPI JUMPDEST PUSH0 PUSH0 REVERT JUMPDEST PUSH2 0x68 PUSH1 0x4 DUP1 CALLDATASIZE SUB DUP2 ADD SWAP1 PUSH2 0x63 SWAP2 SWAP1 PUSH2 0x346 JUMP JUMPDEST PUSH2 0xFE JUMP JUMPDEST PUSH1 0x40 MLOAD PUSH2 0x76 SWAP3 SWAP2 SWAP1 PUSH2 0x39A JUMP JUMPDEST PUSH1 0x40 MLOAD DUP1 SWAP2 SUB SWAP1 RETURN JUMPDEST PUSH2 0x99 PUSH1 0x4 DUP1 CALLDATASIZE SUB DUP2 ADD SWAP1 PUSH2 0x94 SWAP2 SWAP1 PUSH2 0x346 JUMP JUMPDEST PUSH2 0x15A JUMP JUMPDEST PUSH1 0x40 MLOAD PUSH2 0xA7 SWAP3 SWAP2 SWAP1 PUSH2 0x478 JUMP JUMPDEST PUSH1 0x40 MLOAD DUP1 SWAP2 SUB SWAP1 RETURN JUMPDEST PUSH2 0xB8 PUSH2 0x29C JUMP JUMPDEST PUSH1 0x40 MLOAD PUSH2 0xC5 SWAP2 SWAP1 PUSH2 0x4A6 JUMP JUMPDEST PUSH1 0x40 MLOAD DUP1 SWAP2 SUB SWAP1 RETURN JUMPDEST PUSH2 0xE8 PUSH1 0x4 DUP1 CALLDATASIZE SUB DUP2 ADD SWAP1 PUSH2 0xE3 SWAP2 SWAP1 PUSH2 0x346 JUMP JUMPDEST PUSH2 0x2F0 JUMP JUMPDEST PUSH1 0x40 MLOAD PUSH2 0xF5 SWAP2 SWAP1 PUSH2 0x4A6 JUMP JUMPDEST PUSH1 0x40 MLOAD DUP1 SWAP2 SUB SWAP1 RETURN JUMPDEST PUSH0 PUSH0 PUSH0 PUSH0 SWAP1 POP JUMPDEST PUSH0 DUP1 SLOAD SWAP1 POP DUP2 LT ISZERO PUSH2 0x14D JUMPI DUP4 PUSH0 DUP3 DUP2 SLOAD DUP2 LT PUSH2 0x125 JUMPI PUSH2 0x124 PUSH2 0x4BF JUMP JUMPDEST JUMPDEST SWAP1 PUSH0 MSTORE PUSH1 0x20 PUSH0 KECCAK256 ADD SLOAD SUB PUSH2 0x140 JUMPI PUSH1 0x1 DUP2 SWAP3 POP SWAP3 POP POP PUSH2 0x155 JUMP JUMPDEST DUP1 DUP1 PUSH1 0x1 ADD SWAP2 POP POP PUSH2 0x105 JUMP JUMPDEST POP PUSH0 PUSH0 SWAP2 POP SWAP2 POP JUMPDEST SWAP2 POP SWAP2 JUMP JUMPDEST PUSH0 PUSH1 0x60 PUSH0 PUSH0 SWAP1 POP PUSH0 PUSH0 SWAP1 POP JUMPDEST PUSH0 DUP1 SLOAD SWAP1 POP DUP2 LT ISZERO PUSH2 0x1B1 JUMPI DUP5 PUSH0 DUP3 DUP2 SLOAD DUP2 LT PUSH2 0x186 JUMPI PUSH2 0x185 PUSH2 0x4BF JUMP JUMPDEST JUMPDEST SWAP1 PUSH0 MSTORE PUSH1 0x20 PUSH0 KECCAK256 ADD SLOAD GT ISZERO PUSH2 0x1A4 JUMPI DUP2 DUP1 PUSH2 0x1A0 SWAP1 PUSH2 0x519 JUMP JUMPDEST SWAP3 POP POP JUMPDEST DUP1 DUP1 PUSH1 0x1 ADD SWAP2 POP POP PUSH2 0x166 JUMP JUMPDEST POP PUSH0 DUP2 PUSH8 0xFFFFFFFFFFFFFFFF DUP2 GT ISZERO PUSH2 0x1CD JUMPI PUSH2 0x1CC PUSH2 0x560 JUMP JUMPDEST JUMPDEST PUSH1 0x40 MLOAD SWAP1 DUP1 DUP3 MSTORE DUP1 PUSH1 0x20 MUL PUSH1 0x20 ADD DUP3 ADD PUSH1 0x40 MSTORE DUP1 ISZERO PUSH2 0x1FB JUMPI DUP2 PUSH1 0x20 ADD PUSH1 0x20 DUP3 MUL DUP1 CALLDATASIZE DUP4 CALLDATACOPY DUP1 DUP3 ADD SWAP2 POP POP SWAP1 POP JUMPDEST POP SWAP1 POP PUSH0 PUSH0 SWAP1 POP PUSH0 PUSH0 SWAP1 POP JUMPDEST PUSH0 DUP1 SLOAD SWAP1 POP DUP2 LT ISZERO PUSH2 0x28D JUMPI DUP7 PUSH0 DUP3 DUP2 SLOAD DUP2 LT PUSH2 0x227 JUMPI PUSH2 0x226 PUSH2 0x4BF JUMP JUMPDEST JUMPDEST SWAP1 PUSH0 MSTORE PUSH1 0x20 PUSH0 KECCAK256 ADD SLOAD GT ISZERO PUSH2 0x280 JUMPI PUSH0 DUP2 DUP2 SLOAD DUP2 LT PUSH2 0x249 JUMPI PUSH2 0x248 PUSH2 0x4BF JUMP JUMPDEST JUMPDEST SWAP1 PUSH0 MSTORE PUSH1 0x20 PUSH0 KECCAK256 ADD SLOAD DUP4 DUP4 DUP2 MLOAD DUP2 LT PUSH2 0x265 JUMPI PUSH2 0x264 PUSH2 0x4BF JUMP JUMPDEST JUMPDEST PUSH1 0x20 MUL PUSH1 0x20 ADD ADD DUP2 DUP2 MSTORE POP POP DUP2 DUP1 PUSH2 0x27C SWAP1 PUSH2 0x519 JUMP JUMPDEST SWAP3 POP POP JUMPDEST DUP1 DUP1 PUSH1 0x1 ADD SWAP2 POP POP PUSH2 0x207 JUMP JUMPDEST POP DUP3 DUP3 SWAP5 POP SWAP5 POP POP POP POP SWAP2 POP SWAP2 JUMP JUMPDEST PUSH0 PUSH0 PUSH0 SWAP1 POP PUSH0 PUSH0 SWAP1 POP JUMPDEST PUSH0 DUP1 SLOAD SWAP1 POP DUP2 LT ISZERO PUSH2 0x2E8 JUMPI PUSH0 DUP2 DUP2 SLOAD DUP2 LT PUSH2 0x2C5 JUMPI PUSH2 0x2C4 PUSH2 0x4BF JUMP JUMPDEST JUMPDEST SWAP1 PUSH0 MSTORE PUSH1 0x20 PUSH0 KECCAK256 ADD SLOAD DUP3 PUSH2 0x2D9 SWAP2 SWAP1 PUSH2 0x58D JUMP JUMPDEST SWAP2 POP DUP1 DUP1 PUSH1 0x1 ADD SWAP2 POP POP PUSH2 0x2A6 JUMP JUMPDEST POP DUP1 SWAP2 POP POP SWAP1 JUMP JUMPDEST PUSH0 DUP2 DUP2 SLOAD DUP2 LT PUSH2 0x2FE JUMPI PUSH0 DUP1 REVERT JUMPDEST SWAP1 PUSH0 MSTORE PUSH1 0x20 PUSH0 KECCAK256 ADD PUSH0 SWAP2 POP SWAP1 POP SLOAD DUP2 JUMP JUMPDEST PUSH0 PUSH0 REVERT JUMPDEST PUSH0 DUP2 SWAP1 POP SWAP2 SWAP1 POP JUMP JUMPDEST PUSH2 0x325 DUP2 PUSH2 0x313 JUMP JUMPDEST DUP2 EQ PUSH2 0x32F JUMPI PUSH0 PUSH0 REVERT JUMPDEST POP JUMP JUMPDEST PUSH0 DUP2 CALLDATALOAD SWAP1 POP PUSH2 0x340 DUP2 PUSH2 0x31C JUMP JUMPDEST SWAP3 SWAP2 POP POP JUMP JUMPDEST PUSH0 PUSH1 0x20 DUP3 DUP5 SUB SLT ISZERO PUSH2 0x35B JUMPI PUSH2 0x35A PUSH2 0x30F JUMP JUMPDEST JUMPDEST PUSH0 PUSH2 0x368 DUP5 DUP3 DUP6 ADD PUSH2 0x332 JUMP JUMPDEST SWAP2 POP POP SWAP3 SWAP2 POP POP JUMP JUMPDEST PUSH0 DUP2 ISZERO ISZERO SWAP1 POP SWAP2 SWAP1 POP JUMP JUMPDEST PUSH2 0x385 DUP2 PUSH2 0x371 JUMP JUMPDEST DUP3 MSTORE POP POP JUMP JUMPDEST PUSH2 0x394 DUP2 PUSH2 0x313 JUMP JUMPDEST DUP3 MSTORE POP POP JUMP JUMPDEST PUSH0 PUSH1 0x40 DUP3 ADD SWAP1 POP PUSH2 0x3AD PUSH0 DUP4 ADD DUP6 PUSH2 0x37C JUMP JUMPDEST PUSH2 0x3BA PUSH1 0x20 DUP4 ADD DUP5 PUSH2 0x38B JUMP JUMPDEST SWAP4 SWAP3 POP POP POP JUMP JUMPDEST PUSH0 DUP2 MLOAD SWAP1 POP SWAP2 SWAP1 POP JUMP JUMPDEST PUSH0 DUP3 DUP3 MSTORE PUSH1 0x20 DUP3 ADD SWAP1 POP SWAP3 SWAP2 POP POP JUMP JUMPDEST PUSH0 DUP2 SWAP1 POP PUSH1 0x20 DUP3 ADD SWAP1 POP SWAP2 SWAP1 POP JUMP JUMPDEST PUSH2 0x3F3 DUP2 PUSH2 0x313 JUMP JUMPDEST DUP3 MSTORE POP POP JUMP JUMPDEST PUSH0 PUSH2 0x404 DUP4 DUP4 PUSH2 0x3EA JUMP JUMPDEST PUSH1 0x20 DUP4 ADD SWAP1 POP SWAP3 SWAP2 POP POP JUMP JUMPDEST PUSH0 PUSH1 0x20 DUP3 ADD SWAP1 POP SWAP2 SWAP1 POP JUMP JUMPDEST PUSH0 PUSH2 0x426 DUP3 PUSH2 0x3C1 JUMP JUMPDEST PUSH2 0x430 DUP2 DUP6 PUSH2 0x3CB JUMP JUMPDEST SWAP4 POP PUSH2 0x43B DUP4 PUSH2 0x3DB JUMP JUMPDEST DUP1 PUSH0 JUMPDEST DUP4 DUP2 LT ISZERO PUSH2 0x46B JUMPI DUP2 MLOAD PUSH2 0x452 DUP9 DUP3 PUSH2 0x3F9 JUMP JUMPDEST SWAP8 POP PUSH2 0x45D DUP4 PUSH2 0x410 JUMP JUMPDEST SWAP3 POP POP PUSH1 0x1 DUP2 ADD SWAP1 POP PUSH2 0x43E JUMP JUMPDEST POP DUP6 SWAP4 POP POP POP POP SWAP3 SWAP2 POP POP JUMP JUMPDEST PUSH0 PUSH1 0x40 DUP3 ADD SWAP1 POP PUSH2 0x48B PUSH0 DUP4 ADD DUP6 PUSH2 0x38B JUMP JUMPDEST DUP2 DUP2 SUB PUSH1 0x20 DUP4 ADD MSTORE PUSH2 0x49D DUP2 DUP5 PUSH2 0x41C JUMP JUMPDEST SWAP1 POP SWAP4 SWAP3 POP POP POP JUMP JUMPDEST PUSH0 PUSH1 0x20 DUP3 ADD SWAP1 POP PUSH2 0x4B9 PUSH0 DUP4 ADD DUP5 PUSH2 0x38B JUMP JUMPDEST SWAP3 SWAP2 POP POP JUMP JUMPDEST PUSH32 0x4E487B7100000000000000000000000000000000000000000000000000000000 PUSH0 MSTORE PUSH1 0x32 PUSH1 0x4 MSTORE PUSH1 0x24 PUSH0 REVERT JUMPDEST PUSH32 0x4E487B7100000000000000000000000000000000000000000000000000000000 PUSH0 MSTORE PUSH1 0x11 PUSH1 0x4 MSTORE PUSH1 0x24 PUSH0 REVERT JUMPDEST PUSH0 PUSH2 0x523 DUP3 PUSH2 0x313 JUMP JUMPDEST SWAP2 POP PUSH32 0xFFFFFFFFFFFFFFFFFFFFFFFFFFFFFFFFFFFFFFFFFFFFFFFFFFFFFFFFFFFFFFFF DUP3 SUB PUSH2 0x555 JUMPI PUSH2 0x554 PUSH2 0x4EC JUMP JUMPDEST JUMPDEST PUSH1 0x1 DUP3 ADD SWAP1 POP SWAP2 SWAP1 POP JUMP JUMPDEST PUSH32 0x4E487B7100000000000000000000000000000000000000000000000000000000 PUSH0 MSTORE PUSH1 0x41 PUSH1 0x4 MSTORE PUSH1 0x24 PUSH0 REVERT JUMPDEST PUSH0 PUSH2 0x597 DUP3 PUSH2 0x313 JUMP JUMPDEST SWAP2 POP PUSH2 0x5A2 DUP4 PUSH2 0x313 JUMP JUMPDEST SWAP3 POP DUP3 DUP3 ADD SWAP1 POP DUP1 DUP3 GT ISZERO PUSH2 0x5BA JUMPI PUSH2 0x5B9 PUSH2 0x4EC JUMP JUMPDEST JUMPDEST SWAP3 SWAP2 POP POP JUMP INVALID LOG2 PUSH5 0x6970667358 0x22 SLT KECCAK256 0x4C 0xF6 0xE8 JUMPI 0xC3 SWAP5 PUSH28 0xB796C3FE08185CBE251E25A6B8B8A827F8ECD6186596B393E64736F PUSH13 0x63430008220033000000000000 "
				},
				"gasEstimates": {
					"creation": {
						"codeDepositCost": "305200",
						"executionCost": "infinite",
						"totalCost": "infinite"
					},
					"external": {
						"filterGreaterThan(uint256)": "infinite",
						"findElememt(uint256)": "infinite",
						"iterateArray()": "infinite",
						"numbers(uint256)": "infinite"
					}
				},
				"methodIdentifiers": {
					"filterGreaterThan(uint256)": "8d00fe8d",
					"findElememt(uint256)": "09bfd03c",
					"iterateArray()": "d2c54fa2",
					"numbers(uint256)": "d39fa233"
				}
			},
			"storageLayout": {
				"storage": [
					{
						"astId": 4,
						"contract": "contracts/3.1/05ArrayIteration/ArrayIteration.sol:ArrayIteration",
						"label": "numbers",
						"offset": 0,
						"slot": "0",
						"type": "t_array(t_uint256)dyn_storage"
					}
				],
				"types": {
					"t_array(t_uint256)dyn_storage": {
						"base": "t_uint256",
						"encoding": "dynamic_array",
						"label": "uint256[]",
						"numberOfBytes": "32"
					},
					"t_uint256": {
						"encoding": "inplace",
						"label": "uint256",
						"numberOfBytes": "32"
					}
				}
			},
			"userdoc": {
				"kind": "user",
				"methods": {},
				"version": 1
			}
		}
	}
}