{
	"contracts/Hello2.sol": {
		"Hello2": {
			"abi": [
				{
					"inputs": [],
					"name": "name",
					"outputs": [
						{
							"internalType": "string",
							"name": "",
							"type": "string"
						}
					],
					"stateMutability": "view",
					"type": "function"
				}
			],
			"devdoc": {
				"kind": "dev",
				"methods": {},
				"version": 1
			},
			"evm": {
				"assembly": "    /* \"contracts/Hello2.sol\":80:107  string public name=\"hallen\" */\n  0xc0\n    /* \"contracts/Hello2.sol\":58:111  contract Hello2{... */\n  0x40\n    /* \"contracts/Hello2.sol\":80:107  string public name=\"hallen\" */\n  mstore\n  0x06\n    /* \"contracts/Hello2.sol\":58:111  contract Hello2{... */\n  0x80\n    /* \"contracts/Hello2.sol\":80:107  string public name=\"hallen\" */\n  swap1\n  dup2\n  mstore\n  mstore(0xa0, shl(0xd1, 0x3430b63632b7))\n  0x00\n  swap1\n  tag_1\n  swap1\n  dup3\n  tag_2\n  jump\t// in\ntag_1:\n  pop\n    /* \"contracts/Hello2.sol\":58:111  contract Hello2{... */\n  callvalue\n  dup1\n  iszero\n  tag_3\n  jumpi\n  revert(0x00, 0x00)\ntag_3:\n  pop\n  jump(tag_10)\n    /* \"#utility.yul\":14:141   */\ntag_5:\n    /* \"#utility.yul\":75:85   */\n  0x4e487b71\n    /* \"#utility.yul\":70:73   */\n  0xe0\n    /* \"#utility.yul\":66:86   */\n  shl\n    /* \"#utility.yul\":63:64   */\n  0x00\n    /* \"#utility.yul\":56:87   */\n  mstore\n    /* \"#utility.yul\":106:110   */\n  0x41\n    /* \"#utility.yul\":103:104   */\n  0x04\n    /* \"#utility.yul\":96:111   */\n  mstore\n    /* \"#utility.yul\":130:134   */\n  0x24\n    /* \"#utility.yul\":127:128   */\n  0x00\n    /* \"#utility.yul\":120:135   */\n  revert\n    /* \"#utility.yul\":146:526   */\ntag_6:\n    /* \"#utility.yul\":225:226   */\n  0x01\n    /* \"#utility.yul\":221:233   */\n  dup2\n  dup2\n  shr\n  swap1\n    /* \"#utility.yul\":268:280   */\n  dup3\n  and\n  dup1\n    /* \"#utility.yul\":289:350   */\n  tag_13\n  jumpi\n    /* \"#utility.yul\":343:347   */\n  0x7f\n    /* \"#utility.yul\":335:341   */\n  dup3\n    /* \"#utility.yul\":331:348   */\n  and\n    /* \"#utility.yul\":321:348   */\n  swap2\n  pop\n    /* \"#utility.yul\":289:350   */\ntag_13:\n    /* \"#utility.yul\":396:398   */\n  0x20\n    /* \"#utility.yul\":388:394   */\n  dup3\n    /* \"#utility.yul\":385:399   */\n  lt\n    /* \"#utility.yul\":365:383   */\n  dup2\n    /* \"#utility.yul\":362:400   */\n  sub\n    /* \"#utility.yul\":359:520   */\n  tag_14\n  jumpi\n    /* \"#utility.yul\":442:452   */\n  0x4e487b71\n    /* \"#utility.yul\":437:440   */\n  0xe0\n    /* \"#utility.yul\":433:453   */\n  shl\n    /* \"#utility.yul\":430:431   */\n  0x00\n    /* \"#utility.yul\":423:454   */\n  mstore\n    /* \"#utility.yul\":477:481   */\n  0x22\n    /* \"#utility.yul\":474:475   */\n  0x04\n    /* \"#utility.yul\":467:482   */\n  mstore\n    /* \"#utility.yul\":505:509   */\n  0x24\n    /* \"#utility.yul\":502:503   */\n  0x00\n    /* \"#utility.yul\":495:510   */\n  revert\n    /* \"#utility.yul\":359:520   */\ntag_14:\n  pop\n    /* \"#utility.yul\":146:526   */\n  swap2\n  swap1\n  pop\n  jump\t// out\n    /* \"#utility.yul\":657:1349   */\ntag_8:\n    /* \"#utility.yul\":759:761   */\n  0x1f\n    /* \"#utility.yul\":754:757   */\n  dup3\n    /* \"#utility.yul\":751:762   */\n  gt\n    /* \"#utility.yul\":748:1343   */\n  iszero\n  tag_18\n  jumpi\n    /* \"#utility.yul\":796:806   */\n  dup3\n    /* \"#utility.yul\":791:794   */\n  dup3\n    /* \"#utility.yul\":788:807   */\n  gt\n    /* \"#utility.yul\":785:1333   */\n  iszero\n  tag_18\n  jumpi\n    /* \"#utility.yul\":848:853   */\n  dup1\n    /* \"#utility.yul\":845:846   */\n  0x00\n    /* \"#utility.yul\":838:854   */\n  mstore\n    /* \"#utility.yul\":896:900   */\n  0x20\n    /* \"#utility.yul\":893:894   */\n  0x00\n    /* \"#utility.yul\":883:901   */\n  keccak256\n    /* \"#utility.yul\":961:963   */\n  0x1f\n    /* \"#utility.yul\":949:959   */\n  dup5\n    /* \"#utility.yul\":945:964   */\n  add\n    /* \"#utility.yul\":942:943   */\n  0x05\n    /* \"#utility.yul\":938:965   */\n  shr\n    /* \"#utility.yul\":1000:1004   */\n  0x20\n    /* \"#utility.yul\":988:998   */\n  dup6\n    /* \"#utility.yul\":985:1005   */\n  lt\n    /* \"#utility.yul\":982:1027   */\n  iszero\n  tag_19\n  jumpi\n  pop\n    /* \"#utility.yul\":1024:1025   */\n  0x00\n    /* \"#utility.yul\":982:1027   */\ntag_19:\n    /* \"#utility.yul\":1063:1086   */\n  swap1\n  dup2\n  add\n  swap1\n    /* \"#utility.yul\":1133:1135   */\n  0x1f\n    /* \"#utility.yul\":1124:1136   */\n  dup5\n  add\n    /* \"#utility.yul\":1121:1122   */\n  0x05\n    /* \"#utility.yul\":1117:1137   */\n  shr\n    /* \"#utility.yul\":1113:1152   */\n  sub\n    /* \"#utility.yul\":1178:1179   */\n  0x00\n    /* \"#utility.yul\":1196:1319   */\ntag_20:\n    /* \"#utility.yul\":1210:1212   */\n  dup2\n    /* \"#utility.yul\":1207:1208   */\n  dup2\n    /* \"#utility.yul\":1204:1213   */\n  lt\n    /* \"#utility.yul\":1196:1319   */\n  iszero\n  tag_22\n  jumpi\n    /* \"#utility.yul\":1299:1300   */\n  0x00\n    /* \"#utility.yul\":1278:1297   */\n  dup4\n  dup3\n  add\n    /* \"#utility.yul\":1271:1301   */\n  sstore\n    /* \"#utility.yul\":1228:1229   */\n  0x01\n    /* \"#utility.yul\":1221:1230   */\n  add\n    /* \"#utility.yul\":1196:1319   */\n  jump(tag_20)\ntag_22:\n    /* \"#utility.yul\":1200:1203   */\n  pop\n  pop\n  pop\n    /* \"#utility.yul\":785:1333   */\ntag_18:\n    /* \"#utility.yul\":657:1349   */\n  pop\n  pop\n  pop\n  jump\t// out\n    /* \"#utility.yul\":1525:2824   */\ntag_2:\n    /* \"#utility.yul\":1645:1655   */\n  dup2\n  mload\n  sub(shl(0x40, 0x01), 0x01)\n    /* \"#utility.yul\":1667:1697   */\n  dup2\n  gt\n    /* \"#utility.yul\":1664:1720   */\n  iszero\n  tag_26\n  jumpi\n    /* \"#utility.yul\":1700:1718   */\n  tag_26\n  tag_5\n  jump\t// in\ntag_26:\n    /* \"#utility.yul\":1729:1826   */\n  tag_27\n    /* \"#utility.yul\":1819:1825   */\n  dup2\n    /* \"#utility.yul\":1779:1817   */\n  tag_28\n    /* \"#utility.yul\":1811:1815   */\n  dup5\n    /* \"#utility.yul\":1805:1816   */\n  sload\n    /* \"#utility.yul\":1779:1817   */\n  tag_6\n  jump\t// in\ntag_28:\n    /* \"#utility.yul\":1773:1777   */\n  dup5\n    /* \"#utility.yul\":1729:1826   */\n  tag_8\n  jump\t// in\ntag_27:\n    /* \"#utility.yul\":1875:1879   */\n  0x20\n    /* \"#utility.yul\":1906:1908   */\n  0x1f\n    /* \"#utility.yul\":1895:1909   */\n  dup3\n  gt\n    /* \"#utility.yul\":1923:1924   */\n  0x01\n    /* \"#utility.yul\":1918:2567   */\n  dup2\n  eq\n  tag_30\n  jumpi\n    /* \"#utility.yul\":2611:2612   */\n  0x00\n    /* \"#utility.yul\":2628:2634   */\n  dup4\n    /* \"#utility.yul\":2625:2714   */\n  iszero\n  tag_31\n  jumpi\n  pop\n    /* \"#utility.yul\":2680:2699   */\n  dup5\n  dup3\n  add\n    /* \"#utility.yul\":2674:2700   */\n  mload\n    /* \"#utility.yul\":2625:2714   */\ntag_31:\n  not(0x00)\n    /* \"#utility.yul\":1482:1483   */\n  0x03\n    /* \"#utility.yul\":1478:1489   */\n  dup6\n  swap1\n  shl\n    /* \"#utility.yul\":1474:1498   */\n  shr\n    /* \"#utility.yul\":1470:1499   */\n  not\n    /* \"#utility.yul\":1460:1500   */\n  and\n    /* \"#utility.yul\":1506:1507   */\n  0x01\n    /* \"#utility.yul\":1502:1513   */\n  dup5\n  swap1\n  shl\n    /* \"#utility.yul\":1457:1514   */\n  or\n    /* \"#utility.yul\":2727:2808   */\n  dup5\n  sstore\n    /* \"#utility.yul\":1888:2818   */\n  jump(tag_29)\n    /* \"#utility.yul\":1918:2567   */\ntag_30:\n    /* \"#utility.yul\":604:605   */\n  0x00\n    /* \"#utility.yul\":597:611   */\n  dup5\n  dup2\n  mstore\n    /* \"#utility.yul\":641:645   */\n  0x20\n    /* \"#utility.yul\":628:646   */\n  dup2\n  keccak256\n  not(0x1f)\n    /* \"#utility.yul\":1954:1974   */\n  dup6\n  and\n  swap2\n    /* \"#utility.yul\":2072:2294   */\ntag_34:\n    /* \"#utility.yul\":2086:2093   */\n  dup3\n    /* \"#utility.yul\":2083:2084   */\n  dup2\n    /* \"#utility.yul\":2080:2094   */\n  lt\n    /* \"#utility.yul\":2072:2294   */\n  iszero\n  tag_36\n  jumpi\n    /* \"#utility.yul\":2168:2187   */\n  dup8\n  dup6\n  add\n    /* \"#utility.yul\":2162:2188   */\n  mload\n    /* \"#utility.yul\":2147:2189   */\n  dup3\n  sstore\n    /* \"#utility.yul\":2275:2279   */\n  0x20\n    /* \"#utility.yul\":2260:2280   */\n  swap5\n  dup6\n  add\n  swap5\n    /* \"#utility.yul\":2228:2229   */\n  0x01\n    /* \"#utility.yul\":2216:2230   */\n  swap1\n  swap3\n  add\n  swap2\n    /* \"#utility.yul\":2102:2114   */\n  add\n    /* \"#utility.yul\":2072:2294   */\n  jump(tag_34)\ntag_36:\n    /* \"#utility.yul\":2076:2079   */\n  pop\n    /* \"#utility.yul\":2322:2328   */\n  dup5\n    /* \"#utility.yul\":2313:2320   */\n  dup3\n    /* \"#utility.yul\":2310:2329   */\n  lt\n    /* \"#utility.yul\":2307:2508   */\n  iszero\n  tag_37\n  jumpi\n    /* \"#utility.yul\":2383:2402   */\n  dup7\n  dup5\n  add\n    /* \"#utility.yul\":2377:2403   */\n  mload\n  not(0x00)\n    /* \"#utility.yul\":2466:2467   */\n  0x03\n    /* \"#utility.yul\":2462:2476   */\n  dup8\n  swap1\n  shl\n    /* \"#utility.yul\":2478:2481   */\n  0xf8\n    /* \"#utility.yul\":2458:2482   */\n  and\n    /* \"#utility.yul\":2454:2491   */\n  shr\n    /* \"#utility.yul\":2450:2492   */\n  not\n    /* \"#utility.yul\":2435:2493   */\n  and\n    /* \"#utility.yul\":2420:2494   */\n  dup2\n  sstore\n    /* \"#utility.yul\":2307:2508   */\ntag_37:\n  pop\n  pop\n    /* \"#utility.yul\":2554:2555   */\n  0x01\n    /* \"#utility.yul\":2545:2551   */\n  dup4\n    /* \"#utility.yul\":2542:2543   */\n  0x01\n    /* \"#utility.yul\":2538:2552   */\n  shl\n    /* \"#utility.yul\":2534:2556   */\n  add\n    /* \"#utility.yul\":2528:2532   */\n  dup5\n    /* \"#utility.yul\":2521:2557   */\n  sstore\n    /* \"#utility.yul\":1888:2818   */\ntag_29:\n  pop\n  pop\n  pop\n    /* \"#utility.yul\":1525:2824   */\n  pop\n  pop\n  jump\t// out\ntag_10:\n    /* \"contracts/Hello2.sol\":58:111  contract Hello2{... */\n  dataSize(sub_0)\n  dup1\n  dataOffset(sub_0)\n  0x00\n  codecopy\n  0x00\n  return\nstop\n\nsub_0: assembly {\n        /* \"contracts/Hello2.sol\":58:111  contract Hello2{... */\n      mstore(0x40, 0x80)\n      callvalue\n      dup1\n      iszero\n      tag_1\n      jumpi\n      revert(0x00, 0x00)\n    tag_1:\n      pop\n      jumpi(tag_2, lt(calldatasize, 0x04))\n      shr(0xe0, calldataload(0x00))\n      dup1\n      0x06fdde03\n      eq\n      tag_3\n      jumpi\n    tag_2:\n      revert(0x00, 0x00)\n        /* \"contracts/Hello2.sol\":80:107  string public name=\"hallen\" */\n    tag_3:\n      tag_4\n      tag_5\n      jump\t// in\n    tag_4:\n      mload(0x40)\n      tag_6\n      swap2\n      swap1\n      tag_7\n      jump\t// in\n    tag_6:\n      mload(0x40)\n      dup1\n      swap2\n      sub\n      swap1\n      return\n    tag_5:\n      0x00\n      dup1\n      sload\n      tag_8\n      swap1\n      tag_9\n      jump\t// in\n    tag_8:\n      dup1\n      0x1f\n      add\n      0x20\n      dup1\n      swap2\n      div\n      mul\n      0x20\n      add\n      mload(0x40)\n      swap1\n      dup2\n      add\n      0x40\n      mstore\n      dup1\n      swap3\n      swap2\n      swap1\n      dup2\n      dup2\n      mstore\n      0x20\n      add\n      dup3\n      dup1\n      sload\n      tag_10\n      swap1\n      tag_9\n      jump\t// in\n    tag_10:\n      dup1\n      iszero\n      tag_11\n      jumpi\n      dup1\n      0x1f\n      lt\n      tag_12\n      jumpi\n      0x0100\n      dup1\n      dup4\n      sload\n      div\n      mul\n      dup4\n      mstore\n      swap2\n      0x20\n      add\n      swap2\n      jump(tag_11)\n    tag_12:\n      dup3\n      add\n      swap2\n      swap1\n      0x00\n      mstore\n      keccak256(0x00, 0x20)\n      swap1\n    tag_13:\n      dup2\n      sload\n      dup2\n      mstore\n      swap1\n      0x01\n      add\n      swap1\n      0x20\n      add\n      dup1\n      dup4\n      gt\n      tag_13\n      jumpi\n      dup3\n      swap1\n      sub\n      0x1f\n      and\n      dup3\n      add\n      swap2\n    tag_11:\n      pop\n      pop\n      pop\n      pop\n      pop\n      dup2\n      jump\t// out\n        /* \"#utility.yul\":14:432   */\n    tag_7:\n        /* \"#utility.yul\":163:165   */\n      0x20\n        /* \"#utility.yul\":152:161   */\n      dup2\n        /* \"#utility.yul\":145:166   */\n      mstore\n        /* \"#utility.yul\":126:130   */\n      0x00\n        /* \"#utility.yul\":195:201   */\n      dup3\n        /* \"#utility.yul\":189:202   */\n      mload\n        /* \"#utility.yul\":238:244   */\n      dup1\n        /* \"#utility.yul\":233:235   */\n      0x20\n        /* \"#utility.yul\":222:231   */\n      dup5\n        /* \"#utility.yul\":218:236   */\n      add\n        /* \"#utility.yul\":211:245   */\n      mstore\n        /* \"#utility.yul\":297:303   */\n      dup1\n        /* \"#utility.yul\":292:294   */\n      0x20\n        /* \"#utility.yul\":284:290   */\n      dup6\n        /* \"#utility.yul\":280:295   */\n      add\n        /* \"#utility.yul\":275:277   */\n      0x40\n        /* \"#utility.yul\":264:273   */\n      dup6\n        /* \"#utility.yul\":260:278   */\n      add\n        /* \"#utility.yul\":254:304   */\n      mcopy\n        /* \"#utility.yul\":353:354   */\n      0x00\n        /* \"#utility.yul\":348:350   */\n      0x40\n        /* \"#utility.yul\":339:345   */\n      dup3\n        /* \"#utility.yul\":328:337   */\n      dup6\n        /* \"#utility.yul\":324:346   */\n      add\n        /* \"#utility.yul\":320:351   */\n      add\n        /* \"#utility.yul\":313:355   */\n      mstore\n        /* \"#utility.yul\":423:425   */\n      0x40\n        /* \"#utility.yul\":416:418   */\n      0x1f\n        /* \"#utility.yul\":412:419   */\n      not\n        /* \"#utility.yul\":407:409   */\n      0x1f\n        /* \"#utility.yul\":399:405   */\n      dup4\n        /* \"#utility.yul\":395:410   */\n      add\n        /* \"#utility.yul\":391:420   */\n      and\n        /* \"#utility.yul\":380:389   */\n      dup5\n        /* \"#utility.yul\":376:421   */\n      add\n        /* \"#utility.yul\":372:426   */\n      add\n        /* \"#utility.yul\":364:426   */\n      swap2\n      pop\n      pop\n        /* \"#utility.yul\":14:432   */\n      swap3\n      swap2\n      pop\n      pop\n      jump\t// out\n        /* \"#utility.yul\":437:817   */\n    tag_9:\n        /* \"#utility.yul\":516:517   */\n      0x01\n        /* \"#utility.yul\":512:524   */\n      dup2\n      dup2\n      shr\n      swap1\n        /* \"#utility.yul\":559:571   */\n      dup3\n      and\n      dup1\n        /* \"#utility.yul\":580:641   */\n      tag_17\n      jumpi\n        /* \"#utility.yul\":634:638   */\n      0x7f\n        /* \"#utility.yul\":626:632   */\n      dup3\n        /* \"#utility.yul\":622:639   */\n      and\n        /* \"#utility.yul\":612:639   */\n      swap2\n      pop\n        /* \"#utility.yul\":580:641   */\n    tag_17:\n        /* \"#utility.yul\":687:689   */\n      0x20\n        /* \"#utility.yul\":679:685   */\n      dup3\n        /* \"#utility.yul\":676:690   */\n      lt\n        /* \"#utility.yul\":656:674   */\n      dup2\n        /* \"#utility.yul\":653:691   */\n      sub\n        /* \"#utility.yul\":650:811   */\n      tag_18\n      jumpi\n        /* \"#utility.yul\":733:743   */\n      0x4e487b71\n        /* \"#utility.yul\":728:731   */\n      0xe0\n        /* \"#utility.yul\":724:744   */\n      shl\n        /* \"#utility.yul\":721:722   */\n      0x00\n        /* \"#utility.yul\":714:745   */\n      mstore\n        /* \"#utility.yul\":768:772   */\n      0x22\n        /* \"#utility.yul\":765:766   */\n      0x04\n        /* \"#utility.yul\":758:773   */\n      mstore\n        /* \"#utility.yul\":796:800   */\n      0x24\n        /* \"#utility.yul\":793:794   */\n      0x00\n        /* \"#utility.yul\":786:801   */\n      revert\n        /* \"#utility.yul\":650:811   */\n    tag_18:\n      pop\n        /* \"#utility.yul\":437:817   */\n      swap2\n      swap1\n      pop\n      jump\t// out\n\n    auxdata: 0xa264697066735822122076ae910d83975d3df19eb6f00ea4afd8570953fa4c22f3f964d51064f41e360964736f6c63430008220033\n}\n",
				"bytecode": {
					"linkReferences": {},
					"object": "60c060405260066080908152653430b63632b760d11b60a0525f9061002490826100d9565b50348015610030575f5ffd5b50610197565b634e487b7160e01b5f52604160045260245ffd5b600181811c9082168061005e57607f821691505b60208210810361007c57634e487b7160e01b5f52602260045260245ffd5b50919050565b601f8211156100d457828211156100d457805f5260205f20601f840160051c60208510156100ad57505f5b90810190601f840160051c035f5b818110156100d0575f838201556001016100bb565b5050505b505050565b81516001600160401b038111156100f2576100f2610036565b61010681610100845461004a565b84610082565b6020601f821160018114610138575f83156101215750848201515b5f19600385901b1c1916600184901b178455610190565b5f84815260208120601f198516915b828110156101675787850151825560209485019460019092019101610147565b508482101561018457868401515f19600387901b60f8161c191681555b505060018360011b0184555b5050505050565b610179806101a45f395ff3fe608060405234801561000f575f5ffd5b5060043610610029575f3560e01c806306fdde031461002d575b5f5ffd5b61003561004b565b60405161004291906100d6565b60405180910390f35b5f80546100579061010b565b80601f01602080910402602001604051908101604052809291908181526020018280546100839061010b565b80156100ce5780601f106100a5576101008083540402835291602001916100ce565b820191905f5260205f20905b8154815290600101906020018083116100b157829003601f168201915b505050505081565b602081525f82518060208401528060208501604085015e5f604082850101526040601f19601f83011684010191505092915050565b600181811c9082168061011f57607f821691505b60208210810361013d57634e487b7160e01b5f52602260045260245ffd5b5091905056fea264697066735822122076ae910d83975d3df19eb6f00ea4afd8570953fa4c22f3f964d51064f41e360964736f6c63430008220033",
					"opcodes": "PUSH1 0xC0 PUSH1 0x40 MSTORE PUSH1 0x6 PUSH1 0x80 SWAP1 DUP2 MSTORE PUSH6 0x3430B63632B7 PUSH1 0xD1 SHL PUSH1 0xA0 MSTORE PUSH0 SWAP1 PUSH2 0x24 SWAP1 DUP3 PUSH2 0xD9 JUMP JUMPDEST POP CALLVALUE DUP1 ISZERO PUSH2 0x30 JUMPI PUSH0 PUSH0 REVERT JUMPDEST POP PUSH2 0x197 JUMP JUMPDEST PUSH4 0x4E487B71 PUSH1 0xE0 SHL PUSH0 MSTORE PUSH1 0x41 PUSH1 0x4 MSTORE PUSH1 0x24 PUSH0 REVERT JUMPDEST PUSH1 0x1 DUP2 DUP2 SHR SWAP1 DUP3 AND DUP1 PUSH2 0x5E JUMPI PUSH1 0x7F DUP3 AND SWAP2 POP JUMPDEST PUSH1 0x20 DUP3 LT DUP2 SUB PUSH2 0x7C JUMPI PUSH4 0x4E487B71 PUSH1 0xE0 SHL PUSH0 MSTORE PUSH1 0x22 PUSH1 0x4 MSTORE PUSH1 0x24 PUSH0 REVERT JUMPDEST POP SWAP2 SWAP1 POP JUMP JUMPDEST PUSH1 0x1F DUP3 GT ISZERO PUSH2 0xD4 JUMPI DUP3 DUP3 GT ISZERO PUSH2 0xD4 JUMPI DUP1 PUSH0 MSTORE PUSH1 0x20 PUSH0 KECCAK256 PUSH1 0x1F DUP5 ADD PUSH1 0x5 SHR PUSH1 0x20 DUP6 LT ISZERO PUSH2 0xAD JUMPI POP PUSH0 JUMPDEST SWAP1 DUP2 ADD SWAP1 PUSH1 0x1F DUP5 ADD PUSH1 0x5 SHR SUB PUSH0 JUMPDEST DUP2 DUP2 LT ISZERO PUSH2 0xD0 JUMPI PUSH0 DUP4 DUP3 ADD SSTORE PUSH1 0x1 ADD PUSH2 0xBB JUMP JUMPDEST POP POP POP JUMPDEST POP POP POP JUMP JUMPDEST DUP2 MLOAD PUSH1 0x1 PUSH1 0x1 PUSH1 0x40 SHL SUB DUP2 GT ISZERO PUSH2 0xF2 JUMPI PUSH2 0xF2 PUSH2 0x36 JUMP JUMPDEST PUSH2 0x106 DUP2 PUSH2 0x100 DUP5 SLOAD PUSH2 0x4A JUMP JUMPDEST DUP5 PUSH2 0x82 JUMP JUMPDEST PUSH1 0x20 PUSH1 0x1F DUP3 GT PUSH1 0x1 DUP2 EQ PUSH2 0x138 JUMPI PUSH0 DUP4 ISZERO PUSH2 0x121 JUMPI POP DUP5 DUP3 ADD MLOAD JUMPDEST PUSH0 NOT PUSH1 0x3 DUP6 SWAP1 SHL SHR NOT AND PUSH1 0x1 DUP5 SWAP1 SHL OR DUP5 SSTORE PUSH2 0x190 JUMP JUMPDEST PUSH0 DUP5 DUP2 MSTORE PUSH1 0x20 DUP2 KECCAK256 PUSH1 0x1F NOT DUP6 AND SWAP2 JUMPDEST DUP3 DUP2 LT ISZERO PUSH2 0x167 JUMPI DUP8 DUP6 ADD MLOAD DUP3 SSTORE PUSH1 0x20 SWAP5 DUP6 ADD SWAP5 PUSH1 0x1 SWAP1 SWAP3 ADD SWAP2 ADD PUSH2 0x147 JUMP JUMPDEST POP DUP5 DUP3 LT ISZERO PUSH2 0x184 JUMPI DUP7 DUP5 ADD MLOAD PUSH0 NOT PUSH1 0x3 DUP8 SWAP1 SHL PUSH1 0xF8 AND SHR NOT AND DUP2 SSTORE JUMPDEST POP POP PUSH1 0x1 DUP4 PUSH1 0x1 SHL ADD DUP5 SSTORE JUMPDEST POP POP POP POP POP JUMP JUMPDEST PUSH2 0x179 DUP1 PUSH2 0x1A4 PUSH0 CODECOPY PUSH0 RETURN INVALID PUSH1 0x80 PUSH1 0x40 MSTORE CALLVALUE DUP1 ISZERO PUSH2 0xF JUMPI PUSH0 PUSH0 REVERT JUMPDEST POP PUSH1 0x4 CALLDATASIZE LT PUSH2 0x29 JUMPI PUSH0 CALLDATALOAD PUSH1 0xE0 SHR DUP1 PUSH4 0x6FDDE03 EQ PUSH2 0x2D JUMPI JUMPDEST PUSH0 PUSH0 REVERT JUMPDEST PUSH2 0x35 PUSH2 0x4B JUMP JUMPDEST PUSH1 0x40 MLOAD PUSH2 0x42 SWAP2 SWAP1 PUSH2 0xD6 JUMP JUMPDEST PUSH1 0x40 MLOAD DUP1 SWAP2 SUB SWAP1 RETURN JUMPDEST PUSH0 DUP1 SLOAD PUSH2 0x57 SWAP1 PUSH2 0x10B JUMP JUMPDEST DUP1 PUSH1 0x1F ADD PUSH1 0x20 DUP1 SWAP2 DIV MUL PUSH1 0x20 ADD PUSH1 0x40 MLOAD SWAP1 DUP2 ADD PUSH1 0x40 MSTORE DUP1 SWAP3 SWAP2 SWAP1 DUP2 DUP2 MSTORE PUSH1 0x20 ADD DUP3 DUP1 SLOAD PUSH2 0x83 SWAP1 PUSH2 0x10B JUMP JUMPDEST DUP1 ISZERO PUSH2 0xCE JUMPI DUP1 PUSH1 0x1F LT PUSH2 0xA5 JUMPI PUSH2 0x100 DUP1 DUP4 SLOAD DIV MUL DUP4 MSTORE SWAP2 PUSH1 0x20 ADD SWAP2 PUSH2 0xCE JUMP JUMPDEST DUP3 ADD SWAP2 SWAP1 PUSH0 MSTORE PUSH1 0x20 PUSH0 KECCAK256 SWAP1 JUMPDEST DUP2 SLOAD DUP2 MSTORE SWAP1 PUSH1 0x1 ADD SWAP1 PUSH1 0x20 ADD DUP1 DUP4 GT PUSH2 0xB1 JUMPI DUP3 SWAP1 SUB PUSH1 0x1F AND DUP3 ADD SWAP2 JUMPDEST POP POP POP POP POP DUP2 JUMP JUMPDEST PUSH1 0x20 DUP2 MSTORE PUSH0 DUP3 MLOAD DUP1 PUSH1 0x20 DUP5 ADD MSTORE DUP1 PUSH1 0x20 DUP6 ADD PUSH1 0x40 DUP6 ADD MCOPY PUSH0 PUSH1 0x40 DUP3 DUP6 ADD ADD MSTORE PUSH1 0x40 PUSH1 0x1F NOT PUSH1 0x1F DUP4 ADD AND DUP5 ADD ADD SWAP2 POP POP SWAP3 SWAP2 POP POP JUMP JUMPDEST PUSH1 0x1 DUP2 DUP2 SHR SWAP1 DUP3 AND DUP1 PUSH2 0x11F JUMPI PUSH1 0x7F DUP3 AND SWAP2 POP JUMPDEST PUSH1 0x20 DUP3 LT DUP2 SUB PUSH2 0x13D JUMPI PUSH4 0x4E487B71 PUSH1 0xE0 SHL PUSH0 MSTORE PUSH1 0x22 PUSH1 0x4 MSTORE PUSH1 0x24 PUSH0 REVERT JUMPDEST POP SWAP2 SWAP1 POP JUMP INVALID LOG2 PUSH5 0x6970667358 0x22 SLT KECCAK256 PUSH23 0xAE910D83975D3DF19EB6F00EA4AFD8570953FA4C22F3F9 PUSH5 0xD51064F41E CALLDATASIZE MULMOD PUSH5 0x736F6C6343 STOP ADDMOD 0x22 STOP CALLER "
				},
				"gasEstimates": {
					"creation": {
						"codeDepositCost": "75400",
						"executionCost": "infinite",
						"totalCost": "infinite"
					},
					"external": {
						"name()": "infinite"
					}
				},
				"methodIdentifiers": {
					"name()": "06fdde03"
				}
			},
			"storageLayout": {
				"storage": [
					{
						"astId": 4,
						"contract": "contracts/Hello2.sol:Hello2",
						"label": "name",
						"offset": 0,
						"slot": "0",
						"type": "t_string_storage"
					}
				],
				"types": {
					"t_string_storage": {
						"encoding": "bytes",
						"label": "string",
						"numberOfBytes": "32"
					}
				}
			},
			"userdoc": {
				"kind": "user",
				"methods": {},
				"version": 1
			}
		}
	}
}