{
	"contracts/3.1/05ArrayIteration/SafeIteration.sol": {
		"SafeIteration": {
			"abi": [
				{
					"inputs": [],
					"stateMutability": "nonpayable",
					"type": "constructor"
				},
				{
					"inputs": [],
					"name": "MAX_ARRAY_LENGTH",
					"outputs": [
						{
							"internalType": "uint256",
							"name": "",
							"type": "uint256"
						}
					],
					"stateMutability": "view",
					"type": "function"
				},
				{
					"inputs": [
						{
							"internalType": "uint256",
							"name": "start",
							"type": "uint256"
						},
						{
							"internalType": "uint256",
							"name": "end",
							"type": "uint256"
						}
					],
					"name": "batchProcess",
					"outputs": [
						{
							"internalType": "uint256",
							"name": "",
							"type": "uint256"
						}
					],
					"stateMutability": "view",
					"type": "function"
				},
				{
					"inputs": [],
					"name": "getAllElement",
					"outputs": [
						{
							"internalType": "uint256",
							"name": "",
							"type": "uint256"
						},
						{
							"internalType": "uint256[]",
							"name": "",
							"type": "uint256[]"
						}
					],
					"stateMutability": "view",
					"type": "function"
				},
				{
					"inputs": [
						{
							"internalType": "uint256",
							"name": "page",
							"type": "uint256"
						},
						{
							"internalType": "uint256",
							"name": "pageSize",
							"type": "uint256"
						}
					],
					"name": "getByPage",
					"outputs": [
						{
							"internalType": "uint256[]",
							"name": "",
							"type": "uint256[]"
						}
					],
					"stateMutability": "view",
					"type": "function"
				},
				{
					"inputs": [
						{
							"internalType": "uint256",
							"name": "",
							"type": "uint256"
						}
					],
					"name": "numbers",
					"outputs": [
						{
							"internalType": "uint256",
							"name": "",
							"type": "uint256"
						}
					],
					"stateMutability": "view",
					"type": "function"
				},
				{
					"inputs": [
						{
							"internalType": "uint256",
							"name": "value",
							"type": "uint256"
						}
					],
					"name": "safePush",
					"outputs": [],
					"stateMutability": "nonpayable",
					"type": "function"
				}
			],
			"devdoc": {
				"kind": "dev",
				"methods": {},
				"version": 1
			},
			"evm": {
				"assembly": "    /* \"contracts/3.1/05ArrayIteration/SafeIteration.sol\":58:1599  contract SafeIteration{... */\n  mstore(0x40, 0x80)\n    /* \"contracts/3.1/05ArrayIteration/SafeIteration.sol\":163:259  constructor(){... */\n  callvalue\n  dup1\n  iszero\n  tag_1\n  jumpi\n  revert(0x00, 0x00)\ntag_1:\n  pop\n    /* \"contracts/3.1/05ArrayIteration/SafeIteration.sol\":191:197  uint i */\n  0x00\n    /* \"contracts/3.1/05ArrayIteration/SafeIteration.sol\":198:199  1 */\n  0x01\n    /* \"contracts/3.1/05ArrayIteration/SafeIteration.sol\":191:199  uint i=1 */\n  swap1\n  pop\n    /* \"contracts/3.1/05ArrayIteration/SafeIteration.sol\":187:252  for(uint i=1;i<=99;i++){... */\ntag_4:\n    /* \"contracts/3.1/05ArrayIteration/SafeIteration.sol\":203:205  99 */\n  0x63\n    /* \"contracts/3.1/05ArrayIteration/SafeIteration.sol\":200:201  i */\n  dup2\n    /* \"contracts/3.1/05ArrayIteration/SafeIteration.sol\":200:205  i<=99 */\n  gt\n    /* \"contracts/3.1/05ArrayIteration/SafeIteration.sol\":187:252  for(uint i=1;i<=99;i++){... */\n  tag_5\n  jumpi\n    /* \"contracts/3.1/05ArrayIteration/SafeIteration.sol\":225:232  numbers */\n  0x00\n    /* \"contracts/3.1/05ArrayIteration/SafeIteration.sol\":238:239  i */\n  dup2\n    /* \"contracts/3.1/05ArrayIteration/SafeIteration.sol\":225:240  numbers.push(i) */\n  swap1\n  dup1\n  0x01\n  dup2\n  sload\n  add\n  dup1\n  dup3\n  sstore\n  dup1\n  swap2\n  pop\n  pop\n  0x01\n  swap1\n  sub\n  swap1\n  0x00\n  mstore\n  keccak256(0x00, 0x20)\n  add\n  0x00\n  swap1\n  swap2\n  swap1\n  swap2\n  swap1\n  swap2\n  pop\n  sstore\n    /* \"contracts/3.1/05ArrayIteration/SafeIteration.sol\":206:209  i++ */\n  dup1\n  dup1\n  tag_8\n  swap1\n  tag_9\n  jump\t// in\ntag_8:\n  swap2\n  pop\n  pop\n    /* \"contracts/3.1/05ArrayIteration/SafeIteration.sol\":187:252  for(uint i=1;i<=99;i++){... */\n  jump(tag_4)\ntag_5:\n  pop\n    /* \"contracts/3.1/05ArrayIteration/SafeIteration.sol\":58:1599  contract SafeIteration{... */\n  jump(tag_10)\n    /* \"#utility.yul\":7:187   */\ntag_11:\n    /* \"#utility.yul\":55:132   */\n  0x4e487b7100000000000000000000000000000000000000000000000000000000\n    /* \"#utility.yul\":52:53   */\n  0x00\n    /* \"#utility.yul\":45:133   */\n  mstore\n    /* \"#utility.yul\":152:156   */\n  0x11\n    /* \"#utility.yul\":149:150   */\n  0x04\n    /* \"#utility.yul\":142:157   */\n  mstore\n    /* \"#utility.yul\":176:180   */\n  0x24\n    /* \"#utility.yul\":173:174   */\n  0x00\n    /* \"#utility.yul\":166:181   */\n  revert\n    /* \"#utility.yul\":193:270   */\ntag_12:\n    /* \"#utility.yul\":230:237   */\n  0x00\n    /* \"#utility.yul\":259:264   */\n  dup2\n    /* \"#utility.yul\":248:264   */\n  swap1\n  pop\n    /* \"#utility.yul\":193:270   */\n  swap2\n  swap1\n  pop\n  jump\t// out\n    /* \"#utility.yul\":276:509   */\ntag_9:\n    /* \"#utility.yul\":315:318   */\n  0x00\n    /* \"#utility.yul\":338:362   */\n  tag_17\n    /* \"#utility.yul\":356:361   */\n  dup3\n    /* \"#utility.yul\":338:362   */\n  tag_12\n  jump\t// in\ntag_17:\n    /* \"#utility.yul\":329:362   */\n  swap2\n  pop\n    /* \"#utility.yul\":384:450   */\n  0xffffffffffffffffffffffffffffffffffffffffffffffffffffffffffffffff\n    /* \"#utility.yul\":377:382   */\n  dup3\n    /* \"#utility.yul\":374:451   */\n  sub\n    /* \"#utility.yul\":371:474   */\n  tag_18\n  jumpi\n    /* \"#utility.yul\":454:472   */\n  tag_19\n  tag_11\n  jump\t// in\ntag_19:\n    /* \"#utility.yul\":371:474   */\ntag_18:\n    /* \"#utility.yul\":501:502   */\n  0x01\n    /* \"#utility.yul\":494:499   */\n  dup3\n    /* \"#utility.yul\":490:503   */\n  add\n    /* \"#utility.yul\":483:503   */\n  swap1\n  pop\n    /* \"#utility.yul\":276:509   */\n  swap2\n  swap1\n  pop\n  jump\t// out\n    /* \"contracts/3.1/05ArrayIteration/SafeIteration.sol\":58:1599  contract SafeIteration{... */\ntag_10:\n  dataSize(sub_0)\n  dup1\n  dataOffset(sub_0)\n  0x00\n  codecopy\n  0x00\n  return\nstop\n\nsub_0: assembly {\n        /* \"contracts/3.1/05ArrayIteration/SafeIteration.sol\":58:1599  contract SafeIteration{... */\n      mstore(0x40, 0x80)\n      callvalue\n      dup1\n      iszero\n      tag_1\n      jumpi\n      revert(0x00, 0x00)\n    tag_1:\n      pop\n      jumpi(tag_2, lt(calldatasize, 0x04))\n      shr(0xe0, calldataload(0x00))\n      dup1\n      0x059f904c\n      eq\n      tag_3\n      jumpi\n      dup1\n      0x3156a9da\n      eq\n      tag_4\n      jumpi\n      dup1\n      0x3e275690\n      eq\n      tag_5\n      jumpi\n      dup1\n      0xb76b78fb\n      eq\n      tag_6\n      jumpi\n      dup1\n      0xb90a2f6b\n      eq\n      tag_7\n      jumpi\n      dup1\n      0xd39fa233\n      eq\n      tag_8\n      jumpi\n    tag_2:\n      revert(0x00, 0x00)\n        /* \"contracts/3.1/05ArrayIteration/SafeIteration.sol\":1008:1596  function getByPage(uint page ,uint pageSize) public view returns(uint[] memory){... */\n    tag_3:\n      tag_9\n      0x04\n      dup1\n      calldatasize\n      sub\n      dup2\n      add\n      swap1\n      tag_10\n      swap2\n      swap1\n      tag_11\n      jump\t// in\n    tag_10:\n      tag_12\n      jump\t// in\n    tag_9:\n      mload(0x40)\n      tag_13\n      swap2\n      swap1\n      tag_14\n      jump\t// in\n    tag_13:\n      mload(0x40)\n      dup1\n      swap2\n      sub\n      swap1\n      return\n        /* \"contracts/3.1/05ArrayIteration/SafeIteration.sol\":115:156  uint public constant MAX_ARRAY_LENGTH=100 */\n    tag_4:\n      tag_15\n      tag_16\n      jump\t// in\n    tag_15:\n      mload(0x40)\n      tag_17\n      swap2\n      swap1\n      tag_18\n      jump\t// in\n    tag_17:\n      mload(0x40)\n      dup1\n      swap2\n      sub\n      swap1\n      return\n        /* \"contracts/3.1/05ArrayIteration/SafeIteration.sol\":403:551  function safePush(uint value) public {... */\n    tag_5:\n      tag_19\n      0x04\n      dup1\n      calldatasize\n      sub\n      dup2\n      add\n      swap1\n      tag_20\n      swap2\n      swap1\n      tag_21\n      jump\t// in\n    tag_20:\n      tag_22\n      jump\t// in\n    tag_19:\n      stop\n        /* \"contracts/3.1/05ArrayIteration/SafeIteration.sol\":265:379  function getAllElement() public view returns(uint,uint[] memory){... */\n    tag_6:\n      tag_23\n      tag_24\n      jump\t// in\n    tag_23:\n      mload(0x40)\n      tag_25\n      swap3\n      swap2\n      swap1\n      tag_26\n      jump\t// in\n    tag_25:\n      mload(0x40)\n      dup1\n      swap2\n      sub\n      swap1\n      return\n        /* \"contracts/3.1/05ArrayIteration/SafeIteration.sol\":577:982  function batchProcess(uint start,uint end) public view returns(uint){... */\n    tag_7:\n      tag_27\n      0x04\n      dup1\n      calldatasize\n      sub\n      dup2\n      add\n      swap1\n      tag_28\n      swap2\n      swap1\n      tag_11\n      jump\t// in\n    tag_28:\n      tag_29\n      jump\t// in\n    tag_27:\n      mload(0x40)\n      tag_30\n      swap2\n      swap1\n      tag_18\n      jump\t// in\n    tag_30:\n      mload(0x40)\n      dup1\n      swap2\n      sub\n      swap1\n      return\n        /* \"contracts/3.1/05ArrayIteration/SafeIteration.sol\":87:108  uint[] public numbers */\n    tag_8:\n      tag_31\n      0x04\n      dup1\n      calldatasize\n      sub\n      dup2\n      add\n      swap1\n      tag_32\n      swap2\n      swap1\n      tag_21\n      jump\t// in\n    tag_32:\n      tag_33\n      jump\t// in\n    tag_31:\n      mload(0x40)\n      tag_34\n      swap2\n      swap1\n      tag_18\n      jump\t// in\n    tag_34:\n      mload(0x40)\n      dup1\n      swap2\n      sub\n      swap1\n      return\n        /* \"contracts/3.1/05ArrayIteration/SafeIteration.sol\":1008:1596  function getByPage(uint page ,uint pageSize) public view returns(uint[] memory){... */\n    tag_12:\n        /* \"contracts/3.1/05ArrayIteration/SafeIteration.sol\":1073:1086  uint[] memory */\n      0x60\n        /* \"contracts/3.1/05ArrayIteration/SafeIteration.sol\":1120:1121  1 */\n      0x01\n        /* \"contracts/3.1/05ArrayIteration/SafeIteration.sol\":1114:1118  page */\n      dup4\n        /* \"contracts/3.1/05ArrayIteration/SafeIteration.sol\":1114:1121  page>=1 */\n      lt\n      iszero\n        /* \"contracts/3.1/05ArrayIteration/SafeIteration.sol\":1106:1148  require(page>=1,unicode\"页码从1开始\") */\n      tag_36\n      jumpi\n      mload(0x40)\n      0x08c379a000000000000000000000000000000000000000000000000000000000\n      dup2\n      mstore\n      0x04\n      add\n      tag_37\n      swap1\n      tag_38\n      jump\t// in\n    tag_37:\n      mload(0x40)\n      dup1\n      swap2\n      sub\n      swap1\n      revert\n    tag_36:\n        /* \"contracts/3.1/05ArrayIteration/SafeIteration.sol\":1185:1187  20 */\n      0x14\n        /* \"contracts/3.1/05ArrayIteration/SafeIteration.sol\":1175:1183  pageSize */\n      dup3\n        /* \"contracts/3.1/05ArrayIteration/SafeIteration.sol\":1175:1187  pageSize<=20 */\n      gt\n      iszero\n        /* \"contracts/3.1/05ArrayIteration/SafeIteration.sol\":1167:1216  require(pageSize<=20,unicode\"每页数量过大\") */\n      tag_39\n      jumpi\n      mload(0x40)\n      0x08c379a000000000000000000000000000000000000000000000000000000000\n      dup2\n      mstore\n      0x04\n      add\n      tag_40\n      swap1\n      tag_41\n      jump\t// in\n    tag_40:\n      mload(0x40)\n      dup1\n      swap2\n      sub\n      swap1\n      revert\n    tag_39:\n        /* \"contracts/3.1/05ArrayIteration/SafeIteration.sol\":1235:1245  uint start */\n      0x00\n        /* \"contracts/3.1/05ArrayIteration/SafeIteration.sol\":1255:1263  pageSize */\n      dup3\n        /* \"contracts/3.1/05ArrayIteration/SafeIteration.sol\":1252:1253  1 */\n      0x01\n        /* \"contracts/3.1/05ArrayIteration/SafeIteration.sol\":1247:1251  page */\n      dup6\n        /* \"contracts/3.1/05ArrayIteration/SafeIteration.sol\":1247:1253  page-1 */\n      tag_42\n      swap2\n      swap1\n      tag_43\n      jump\t// in\n    tag_42:\n        /* \"contracts/3.1/05ArrayIteration/SafeIteration.sol\":1246:1263  (page-1)*pageSize */\n      tag_44\n      swap2\n      swap1\n      tag_45\n      jump\t// in\n    tag_44:\n        /* \"contracts/3.1/05ArrayIteration/SafeIteration.sol\":1235:1263  uint start=(page-1)*pageSize */\n      swap1\n      pop\n        /* \"contracts/3.1/05ArrayIteration/SafeIteration.sol\":1296:1303  numbers */\n      0x00\n        /* \"contracts/3.1/05ArrayIteration/SafeIteration.sol\":1296:1310  numbers.length */\n      dup1\n      sload\n      swap1\n      pop\n        /* \"contracts/3.1/05ArrayIteration/SafeIteration.sol\":1290:1295  start */\n      dup2\n        /* \"contracts/3.1/05ArrayIteration/SafeIteration.sol\":1290:1310  start<numbers.length */\n      lt\n        /* \"contracts/3.1/05ArrayIteration/SafeIteration.sol\":1282:1339  require(start<numbers.length,unicode\"页码超出范围\") */\n      tag_46\n      jumpi\n      mload(0x40)\n      0x08c379a000000000000000000000000000000000000000000000000000000000\n      dup2\n      mstore\n      0x04\n      add\n      tag_47\n      swap1\n      tag_48\n      jump\t// in\n    tag_47:\n      mload(0x40)\n      dup1\n      swap2\n      sub\n      swap1\n      revert\n    tag_46:\n        /* \"contracts/3.1/05ArrayIteration/SafeIteration.sol\":1358:1366  uint end */\n      0x00\n        /* \"contracts/3.1/05ArrayIteration/SafeIteration.sol\":1373:1381  pageSize */\n      dup4\n        /* \"contracts/3.1/05ArrayIteration/SafeIteration.sol\":1367:1372  start */\n      dup3\n        /* \"contracts/3.1/05ArrayIteration/SafeIteration.sol\":1367:1381  start+pageSize */\n      tag_49\n      swap2\n      swap1\n      tag_50\n      jump\t// in\n    tag_49:\n        /* \"contracts/3.1/05ArrayIteration/SafeIteration.sol\":1358:1381  uint end=start+pageSize */\n      swap1\n      pop\n        /* \"contracts/3.1/05ArrayIteration/SafeIteration.sol\":1400:1420  uint[] memory result */\n      0x00\n        /* \"contracts/3.1/05ArrayIteration/SafeIteration.sol\":1436:1441  start */\n      dup3\n        /* \"contracts/3.1/05ArrayIteration/SafeIteration.sol\":1432:1435  end */\n      dup3\n        /* \"contracts/3.1/05ArrayIteration/SafeIteration.sol\":1432:1441  end-start */\n      tag_51\n      swap2\n      swap1\n      tag_43\n      jump\t// in\n    tag_51:\n        /* \"contracts/3.1/05ArrayIteration/SafeIteration.sol\":1421:1442  new uint[](end-start) */\n      0xffffffffffffffff\n      dup2\n      gt\n      iszero\n      tag_52\n      jumpi\n      tag_53\n      tag_54\n      jump\t// in\n    tag_53:\n    tag_52:\n      mload(0x40)\n      swap1\n      dup1\n      dup3\n      mstore\n      dup1\n      0x20\n      mul\n      0x20\n      add\n      dup3\n      add\n      0x40\n      mstore\n      dup1\n      iszero\n      tag_55\n      jumpi\n      dup2\n      0x20\n      add\n      0x20\n      dup3\n      mul\n      dup1\n      calldatasize\n      dup4\n      calldatacopy\n      dup1\n      dup3\n      add\n      swap2\n      pop\n      pop\n      swap1\n      pop\n    tag_55:\n      pop\n        /* \"contracts/3.1/05ArrayIteration/SafeIteration.sol\":1400:1442  uint[] memory result=new uint[](end-start) */\n      swap1\n      pop\n        /* \"contracts/3.1/05ArrayIteration/SafeIteration.sol\":1465:1471  uint i */\n      0x00\n        /* \"contracts/3.1/05ArrayIteration/SafeIteration.sol\":1472:1477  start */\n      dup4\n        /* \"contracts/3.1/05ArrayIteration/SafeIteration.sol\":1465:1477  uint i=start */\n      swap1\n      pop\n        /* \"contracts/3.1/05ArrayIteration/SafeIteration.sol\":1461:1557  for(uint i=start;i<end;i++){... */\n    tag_56:\n        /* \"contracts/3.1/05ArrayIteration/SafeIteration.sol\":1480:1483  end */\n      dup3\n        /* \"contracts/3.1/05ArrayIteration/SafeIteration.sol\":1478:1479  i */\n      dup2\n        /* \"contracts/3.1/05ArrayIteration/SafeIteration.sol\":1478:1483  i<end */\n      lt\n        /* \"contracts/3.1/05ArrayIteration/SafeIteration.sol\":1461:1557  for(uint i=start;i<end;i++){... */\n      iszero\n      tag_57\n      jumpi\n        /* \"contracts/3.1/05ArrayIteration/SafeIteration.sol\":1527:1534  numbers */\n      0x00\n        /* \"contracts/3.1/05ArrayIteration/SafeIteration.sol\":1535:1536  i */\n      dup2\n        /* \"contracts/3.1/05ArrayIteration/SafeIteration.sol\":1527:1537  numbers[i] */\n      dup2\n      sload\n      dup2\n      lt\n      tag_59\n      jumpi\n      tag_60\n      tag_61\n      jump\t// in\n    tag_60:\n    tag_59:\n      swap1\n      0x00\n      mstore\n      keccak256(0x00, 0x20)\n      add\n      sload\n        /* \"contracts/3.1/05ArrayIteration/SafeIteration.sol\":1511:1517  result */\n      dup3\n        /* \"contracts/3.1/05ArrayIteration/SafeIteration.sol\":1520:1525  start */\n      dup6\n        /* \"contracts/3.1/05ArrayIteration/SafeIteration.sol\":1518:1519  i */\n      dup4\n        /* \"contracts/3.1/05ArrayIteration/SafeIteration.sol\":1518:1525  i-start */\n      tag_63\n      swap2\n      swap1\n      tag_43\n      jump\t// in\n    tag_63:\n        /* \"contracts/3.1/05ArrayIteration/SafeIteration.sol\":1511:1526  result[i-start] */\n      dup2\n      mload\n      dup2\n      lt\n      tag_64\n      jumpi\n      tag_65\n      tag_61\n      jump\t// in\n    tag_65:\n    tag_64:\n      0x20\n      mul\n      0x20\n      add\n      add\n        /* \"contracts/3.1/05ArrayIteration/SafeIteration.sol\":1511:1537  result[i-start]=numbers[i] */\n      dup2\n      dup2\n      mstore\n      pop\n      pop\n        /* \"contracts/3.1/05ArrayIteration/SafeIteration.sol\":1484:1487  i++ */\n      dup1\n      dup1\n      0x01\n      add\n      swap2\n      pop\n      pop\n        /* \"contracts/3.1/05ArrayIteration/SafeIteration.sol\":1461:1557  for(uint i=start;i<end;i++){... */\n      jump(tag_56)\n    tag_57:\n      pop\n        /* \"contracts/3.1/05ArrayIteration/SafeIteration.sol\":1582:1588  result */\n      dup1\n        /* \"contracts/3.1/05ArrayIteration/SafeIteration.sol\":1575:1588  return result */\n      swap4\n      pop\n      pop\n      pop\n      pop\n        /* \"contracts/3.1/05ArrayIteration/SafeIteration.sol\":1008:1596  function getByPage(uint page ,uint pageSize) public view returns(uint[] memory){... */\n      swap3\n      swap2\n      pop\n      pop\n      jump\t// out\n        /* \"contracts/3.1/05ArrayIteration/SafeIteration.sol\":115:156  uint public constant MAX_ARRAY_LENGTH=100 */\n    tag_16:\n        /* \"contracts/3.1/05ArrayIteration/SafeIteration.sol\":153:156  100 */\n      0x64\n        /* \"contracts/3.1/05ArrayIteration/SafeIteration.sol\":115:156  uint public constant MAX_ARRAY_LENGTH=100 */\n      dup2\n      jump\t// out\n        /* \"contracts/3.1/05ArrayIteration/SafeIteration.sol\":403:551  function safePush(uint value) public {... */\n    tag_22:\n        /* \"contracts/3.1/05ArrayIteration/SafeIteration.sol\":153:156  100 */\n      0x64\n        /* \"contracts/3.1/05ArrayIteration/SafeIteration.sol\":459:466  numbers */\n      0x00\n        /* \"contracts/3.1/05ArrayIteration/SafeIteration.sol\":459:473  numbers.length */\n      dup1\n      sload\n      swap1\n      pop\n        /* \"contracts/3.1/05ArrayIteration/SafeIteration.sol\":459:490  numbers.length<MAX_ARRAY_LENGTH */\n      lt\n        /* \"contracts/3.1/05ArrayIteration/SafeIteration.sol\":451:513  require(numbers.length<MAX_ARRAY_LENGTH,unicode\"数组已满\") */\n      tag_67\n      jumpi\n      mload(0x40)\n      0x08c379a000000000000000000000000000000000000000000000000000000000\n      dup2\n      mstore\n      0x04\n      add\n      tag_68\n      swap1\n      tag_69\n      jump\t// in\n    tag_68:\n      mload(0x40)\n      dup1\n      swap2\n      sub\n      swap1\n      revert\n    tag_67:\n        /* \"contracts/3.1/05ArrayIteration/SafeIteration.sol\":524:531  numbers */\n      0x00\n        /* \"contracts/3.1/05ArrayIteration/SafeIteration.sol\":537:542  value */\n      dup2\n        /* \"contracts/3.1/05ArrayIteration/SafeIteration.sol\":524:543  numbers.push(value) */\n      swap1\n      dup1\n      0x01\n      dup2\n      sload\n      add\n      dup1\n      dup3\n      sstore\n      dup1\n      swap2\n      pop\n      pop\n      0x01\n      swap1\n      sub\n      swap1\n      0x00\n      mstore\n      keccak256(0x00, 0x20)\n      add\n      0x00\n      swap1\n      swap2\n      swap1\n      swap2\n      swap1\n      swap2\n      pop\n      sstore\n        /* \"contracts/3.1/05ArrayIteration/SafeIteration.sol\":403:551  function safePush(uint value) public {... */\n      pop\n      jump\t// out\n        /* \"contracts/3.1/05ArrayIteration/SafeIteration.sol\":265:379  function getAllElement() public view returns(uint,uint[] memory){... */\n    tag_24:\n        /* \"contracts/3.1/05ArrayIteration/SafeIteration.sol\":310:314  uint */\n      0x00\n        /* \"contracts/3.1/05ArrayIteration/SafeIteration.sol\":315:328  uint[] memory */\n      0x60\n        /* \"contracts/3.1/05ArrayIteration/SafeIteration.sol\":348:355  numbers */\n      0x00\n        /* \"contracts/3.1/05ArrayIteration/SafeIteration.sol\":348:362  numbers.length */\n      dup1\n      sload\n      swap1\n      pop\n        /* \"contracts/3.1/05ArrayIteration/SafeIteration.sol\":363:370  numbers */\n      0x00\n        /* \"contracts/3.1/05ArrayIteration/SafeIteration.sol\":340:371  return (numbers.length,numbers) */\n      dup1\n      dup1\n      sload\n      dup1\n      0x20\n      mul\n      0x20\n      add\n      mload(0x40)\n      swap1\n      dup2\n      add\n      0x40\n      mstore\n      dup1\n      swap3\n      swap2\n      swap1\n      dup2\n      dup2\n      mstore\n      0x20\n      add\n      dup3\n      dup1\n      sload\n      dup1\n      iszero\n      tag_72\n      jumpi\n      0x20\n      mul\n      dup3\n      add\n      swap2\n      swap1\n      0x00\n      mstore\n      keccak256(0x00, 0x20)\n      swap1\n    tag_73:\n      dup2\n      sload\n      dup2\n      mstore\n      0x20\n      add\n      swap1\n      0x01\n      add\n      swap1\n      dup1\n      dup4\n      gt\n      tag_73\n      jumpi\n    tag_72:\n      pop\n      pop\n      pop\n      pop\n      pop\n      swap1\n      pop\n      swap2\n      pop\n      swap2\n      pop\n        /* \"contracts/3.1/05ArrayIteration/SafeIteration.sol\":265:379  function getAllElement() public view returns(uint,uint[] memory){... */\n      swap1\n      swap2\n      jump\t// out\n        /* \"contracts/3.1/05ArrayIteration/SafeIteration.sol\":577:982  function batchProcess(uint start,uint end) public view returns(uint){... */\n    tag_29:\n        /* \"contracts/3.1/05ArrayIteration/SafeIteration.sol\":640:644  uint */\n      0x00\n        /* \"contracts/3.1/05ArrayIteration/SafeIteration.sol\":671:672  0 */\n      0x00\n        /* \"contracts/3.1/05ArrayIteration/SafeIteration.sol\":664:669  start */\n      dup4\n        /* \"contracts/3.1/05ArrayIteration/SafeIteration.sol\":664:672  start>=0 */\n      lt\n      iszero\n        /* \"contracts/3.1/05ArrayIteration/SafeIteration.sol\":656:712  require(start>=0,unicode\"start小于数组最小下标\") */\n      tag_75\n      jumpi\n      mload(0x40)\n      0x08c379a000000000000000000000000000000000000000000000000000000000\n      dup2\n      mstore\n      0x04\n      add\n      tag_76\n      swap1\n      tag_77\n      jump\t// in\n    tag_76:\n      mload(0x40)\n      dup1\n      swap2\n      sub\n      swap1\n      revert\n    tag_75:\n        /* \"contracts/3.1/05ArrayIteration/SafeIteration.sol\":153:156  100 */\n      0x64\n        /* \"contracts/3.1/05ArrayIteration/SafeIteration.sol\":731:734  end */\n      dup3\n        /* \"contracts/3.1/05ArrayIteration/SafeIteration.sol\":731:751  end<MAX_ARRAY_LENGTH */\n      lt\n        /* \"contracts/3.1/05ArrayIteration/SafeIteration.sol\":723:789  require(end<MAX_ARRAY_LENGTH,unicode\"end大于数组最大下标\") */\n      tag_78\n      jumpi\n      mload(0x40)\n      0x08c379a000000000000000000000000000000000000000000000000000000000\n      dup2\n      mstore\n      0x04\n      add\n      tag_79\n      swap1\n      tag_80\n      jump\t// in\n    tag_79:\n      mload(0x40)\n      dup1\n      swap2\n      sub\n      swap1\n      revert\n    tag_78:\n        /* \"contracts/3.1/05ArrayIteration/SafeIteration.sol\":821:823  50 */\n      0x32\n        /* \"contracts/3.1/05ArrayIteration/SafeIteration.sol\":813:818  start */\n      dup4\n        /* \"contracts/3.1/05ArrayIteration/SafeIteration.sol\":809:812  end */\n      dup4\n        /* \"contracts/3.1/05ArrayIteration/SafeIteration.sol\":809:818  end-start */\n      tag_81\n      swap2\n      swap1\n      tag_43\n      jump\t// in\n    tag_81:\n        /* \"contracts/3.1/05ArrayIteration/SafeIteration.sol\":808:823  (end-start)<=50 */\n      gt\n      iszero\n        /* \"contracts/3.1/05ArrayIteration/SafeIteration.sol\":800:852  require((end-start)<=50,unicode\"处理范围过大\") */\n      tag_82\n      jumpi\n      mload(0x40)\n      0x08c379a000000000000000000000000000000000000000000000000000000000\n      dup2\n      mstore\n      0x04\n      add\n      tag_83\n      swap1\n      tag_84\n      jump\t// in\n    tag_83:\n      mload(0x40)\n      dup1\n      swap2\n      sub\n      swap1\n      revert\n    tag_82:\n        /* \"contracts/3.1/05ArrayIteration/SafeIteration.sol\":863:871  uint sum */\n      0x00\n        /* \"contracts/3.1/05ArrayIteration/SafeIteration.sol\":872:873  0 */\n      0x00\n        /* \"contracts/3.1/05ArrayIteration/SafeIteration.sol\":863:873  uint sum=0 */\n      swap1\n      pop\n        /* \"contracts/3.1/05ArrayIteration/SafeIteration.sol\":888:894  uint i */\n      0x00\n        /* \"contracts/3.1/05ArrayIteration/SafeIteration.sol\":895:900  start */\n      dup5\n        /* \"contracts/3.1/05ArrayIteration/SafeIteration.sol\":888:900  uint i=start */\n      swap1\n      pop\n        /* \"contracts/3.1/05ArrayIteration/SafeIteration.sol\":884:954  for(uint i=start;i<=end;i++){... */\n    tag_85:\n        /* \"contracts/3.1/05ArrayIteration/SafeIteration.sol\":904:907  end */\n      dup4\n        /* \"contracts/3.1/05ArrayIteration/SafeIteration.sol\":901:902  i */\n      dup2\n        /* \"contracts/3.1/05ArrayIteration/SafeIteration.sol\":901:907  i<=end */\n      gt\n        /* \"contracts/3.1/05ArrayIteration/SafeIteration.sol\":884:954  for(uint i=start;i<=end;i++){... */\n      tag_86\n      jumpi\n        /* \"contracts/3.1/05ArrayIteration/SafeIteration.sol\":932:939  numbers */\n      0x00\n        /* \"contracts/3.1/05ArrayIteration/SafeIteration.sol\":940:941  i */\n      dup2\n        /* \"contracts/3.1/05ArrayIteration/SafeIteration.sol\":932:942  numbers[i] */\n      dup2\n      sload\n      dup2\n      lt\n      tag_88\n      jumpi\n      tag_89\n      tag_61\n      jump\t// in\n    tag_89:\n    tag_88:\n      swap1\n      0x00\n      mstore\n      keccak256(0x00, 0x20)\n      add\n      sload\n        /* \"contracts/3.1/05ArrayIteration/SafeIteration.sol\":927:942  sum+=numbers[i] */\n      dup3\n      tag_91\n      swap2\n      swap1\n      tag_50\n      jump\t// in\n    tag_91:\n      swap2\n      pop\n        /* \"contracts/3.1/05ArrayIteration/SafeIteration.sol\":908:911  i++ */\n      dup1\n      dup1\n      tag_92\n      swap1\n      tag_93\n      jump\t// in\n    tag_92:\n      swap2\n      pop\n      pop\n        /* \"contracts/3.1/05ArrayIteration/SafeIteration.sol\":884:954  for(uint i=start;i<=end;i++){... */\n      jump(tag_85)\n    tag_86:\n      pop\n        /* \"contracts/3.1/05ArrayIteration/SafeIteration.sol\":971:974  sum */\n      dup1\n        /* \"contracts/3.1/05ArrayIteration/SafeIteration.sol\":964:974  return sum */\n      swap2\n      pop\n      pop\n        /* \"contracts/3.1/05ArrayIteration/SafeIteration.sol\":577:982  function batchProcess(uint start,uint end) public view returns(uint){... */\n      swap3\n      swap2\n      pop\n      pop\n      jump\t// out\n        /* \"contracts/3.1/05ArrayIteration/SafeIteration.sol\":87:108  uint[] public numbers */\n    tag_33:\n      0x00\n      dup2\n      dup2\n      sload\n      dup2\n      lt\n      tag_94\n      jumpi\n      0x00\n      dup1\n      revert\n    tag_94:\n      swap1\n      0x00\n      mstore\n      keccak256(0x00, 0x20)\n      add\n      0x00\n      swap2\n      pop\n      swap1\n      pop\n      sload\n      dup2\n      jump\t// out\n        /* \"#utility.yul\":88:205   */\n    tag_97:\n        /* \"#utility.yul\":197:198   */\n      0x00\n        /* \"#utility.yul\":194:195   */\n      0x00\n        /* \"#utility.yul\":187:199   */\n      revert\n        /* \"#utility.yul\":334:411   */\n    tag_99:\n        /* \"#utility.yul\":371:378   */\n      0x00\n        /* \"#utility.yul\":400:405   */\n      dup2\n        /* \"#utility.yul\":389:405   */\n      swap1\n      pop\n        /* \"#utility.yul\":334:411   */\n      swap2\n      swap1\n      pop\n      jump\t// out\n        /* \"#utility.yul\":417:539   */\n    tag_100:\n        /* \"#utility.yul\":490:514   */\n      tag_132\n        /* \"#utility.yul\":508:513   */\n      dup2\n        /* \"#utility.yul\":490:514   */\n      tag_99\n      jump\t// in\n    tag_132:\n        /* \"#utility.yul\":483:488   */\n      dup2\n        /* \"#utility.yul\":480:515   */\n      eq\n        /* \"#utility.yul\":470:533   */\n      tag_133\n      jumpi\n        /* \"#utility.yul\":529:530   */\n      0x00\n        /* \"#utility.yul\":526:527   */\n      0x00\n        /* \"#utility.yul\":519:531   */\n      revert\n        /* \"#utility.yul\":470:533   */\n    tag_133:\n        /* \"#utility.yul\":417:539   */\n      pop\n      jump\t// out\n        /* \"#utility.yul\":545:684   */\n    tag_101:\n        /* \"#utility.yul\":591:596   */\n      0x00\n        /* \"#utility.yul\":629:635   */\n      dup2\n        /* \"#utility.yul\":616:636   */\n      calldataload\n        /* \"#utility.yul\":607:636   */\n      swap1\n      pop\n        /* \"#utility.yul\":645:678   */\n      tag_135\n        /* \"#utility.yul\":672:677   */\n      dup2\n        /* \"#utility.yul\":645:678   */\n      tag_100\n      jump\t// in\n    tag_135:\n        /* \"#utility.yul\":545:684   */\n      swap3\n      swap2\n      pop\n      pop\n      jump\t// out\n        /* \"#utility.yul\":690:1164   */\n    tag_11:\n        /* \"#utility.yul\":758:764   */\n      0x00\n        /* \"#utility.yul\":766:772   */\n      0x00\n        /* \"#utility.yul\":815:817   */\n      0x40\n        /* \"#utility.yul\":803:812   */\n      dup4\n        /* \"#utility.yul\":794:801   */\n      dup6\n        /* \"#utility.yul\":790:813   */\n      sub\n        /* \"#utility.yul\":786:818   */\n      slt\n        /* \"#utility.yul\":783:902   */\n      iszero\n      tag_137\n      jumpi\n        /* \"#utility.yul\":821:900   */\n      tag_138\n      tag_97\n      jump\t// in\n    tag_138:\n        /* \"#utility.yul\":783:902   */\n    tag_137:\n        /* \"#utility.yul\":941:942   */\n      0x00\n        /* \"#utility.yul\":966:1019   */\n      tag_139\n        /* \"#utility.yul\":1011:1018   */\n      dup6\n        /* \"#utility.yul\":1002:1008   */\n      dup3\n        /* \"#utility.yul\":991:1000   */\n      dup7\n        /* \"#utility.yul\":987:1009   */\n      add\n        /* \"#utility.yul\":966:1019   */\n      tag_101\n      jump\t// in\n    tag_139:\n        /* \"#utility.yul\":956:1019   */\n      swap3\n      pop\n        /* \"#utility.yul\":912:1029   */\n      pop\n        /* \"#utility.yul\":1068:1070   */\n      0x20\n        /* \"#utility.yul\":1094:1147   */\n      tag_140\n        /* \"#utility.yul\":1139:1146   */\n      dup6\n        /* \"#utility.yul\":1130:1136   */\n      dup3\n        /* \"#utility.yul\":1119:1128   */\n      dup7\n        /* \"#utility.yul\":1115:1137   */\n      add\n        /* \"#utility.yul\":1094:1147   */\n      tag_101\n      jump\t// in\n    tag_140:\n        /* \"#utility.yul\":1084:1147   */\n      swap2\n      pop\n        /* \"#utility.yul\":1039:1157   */\n      pop\n        /* \"#utility.yul\":690:1164   */\n      swap3\n      pop\n      swap3\n      swap1\n      pop\n      jump\t// out\n        /* \"#utility.yul\":1170:1284   */\n    tag_102:\n        /* \"#utility.yul\":1237:1243   */\n      0x00\n        /* \"#utility.yul\":1271:1276   */\n      dup2\n        /* \"#utility.yul\":1265:1277   */\n      mload\n        /* \"#utility.yul\":1255:1277   */\n      swap1\n      pop\n        /* \"#utility.yul\":1170:1284   */\n      swap2\n      swap1\n      pop\n      jump\t// out\n        /* \"#utility.yul\":1290:1474   */\n    tag_103:\n        /* \"#utility.yul\":1389:1400   */\n      0x00\n        /* \"#utility.yul\":1423:1429   */\n      dup3\n        /* \"#utility.yul\":1418:1421   */\n      dup3\n        /* \"#utility.yul\":1411:1430   */\n      mstore\n        /* \"#utility.yul\":1463:1467   */\n      0x20\n        /* \"#utility.yul\":1458:1461   */\n      dup3\n        /* \"#utility.yul\":1454:1468   */\n      add\n        /* \"#utility.yul\":1439:1468   */\n      swap1\n      pop\n        /* \"#utility.yul\":1290:1474   */\n      swap3\n      swap2\n      pop\n      pop\n      jump\t// out\n        /* \"#utility.yul\":1480:1612   */\n    tag_104:\n        /* \"#utility.yul\":1547:1551   */\n      0x00\n        /* \"#utility.yul\":1570:1573   */\n      dup2\n        /* \"#utility.yul\":1562:1573   */\n      swap1\n      pop\n        /* \"#utility.yul\":1600:1604   */\n      0x20\n        /* \"#utility.yul\":1595:1598   */\n      dup3\n        /* \"#utility.yul\":1591:1605   */\n      add\n        /* \"#utility.yul\":1583:1605   */\n      swap1\n      pop\n        /* \"#utility.yul\":1480:1612   */\n      swap2\n      swap1\n      pop\n      jump\t// out\n        /* \"#utility.yul\":1618:1726   */\n    tag_105:\n        /* \"#utility.yul\":1695:1719   */\n      tag_145\n        /* \"#utility.yul\":1713:1718   */\n      dup2\n        /* \"#utility.yul\":1695:1719   */\n      tag_99\n      jump\t// in\n    tag_145:\n        /* \"#utility.yul\":1690:1693   */\n      dup3\n        /* \"#utility.yul\":1683:1720   */\n      mstore\n        /* \"#utility.yul\":1618:1726   */\n      pop\n      pop\n      jump\t// out\n        /* \"#utility.yul\":1732:1911   */\n    tag_106:\n        /* \"#utility.yul\":1801:1811   */\n      0x00\n        /* \"#utility.yul\":1822:1868   */\n      tag_147\n        /* \"#utility.yul\":1864:1867   */\n      dup4\n        /* \"#utility.yul\":1856:1862   */\n      dup4\n        /* \"#utility.yul\":1822:1868   */\n      tag_105\n      jump\t// in\n    tag_147:\n        /* \"#utility.yul\":1900:1904   */\n      0x20\n        /* \"#utility.yul\":1895:1898   */\n      dup4\n        /* \"#utility.yul\":1891:1905   */\n      add\n        /* \"#utility.yul\":1877:1905   */\n      swap1\n      pop\n        /* \"#utility.yul\":1732:1911   */\n      swap3\n      swap2\n      pop\n      pop\n      jump\t// out\n        /* \"#utility.yul\":1917:2030   */\n    tag_107:\n        /* \"#utility.yul\":1987:1991   */\n      0x00\n        /* \"#utility.yul\":2019:2023   */\n      0x20\n        /* \"#utility.yul\":2014:2017   */\n      dup3\n        /* \"#utility.yul\":2010:2024   */\n      add\n        /* \"#utility.yul\":2002:2024   */\n      swap1\n      pop\n        /* \"#utility.yul\":1917:2030   */\n      swap2\n      swap1\n      pop\n      jump\t// out\n        /* \"#utility.yul\":2066:2798   */\n    tag_108:\n        /* \"#utility.yul\":2185:2188   */\n      0x00\n        /* \"#utility.yul\":2214:2268   */\n      tag_150\n        /* \"#utility.yul\":2262:2267   */\n      dup3\n        /* \"#utility.yul\":2214:2268   */\n      tag_102\n      jump\t// in\n    tag_150:\n        /* \"#utility.yul\":2284:2370   */\n      tag_151\n        /* \"#utility.yul\":2363:2369   */\n      dup2\n        /* \"#utility.yul\":2358:2361   */\n      dup6\n        /* \"#utility.yul\":2284:2370   */\n      tag_103\n      jump\t// in\n    tag_151:\n        /* \"#utility.yul\":2277:2370   */\n      swap4\n      pop\n        /* \"#utility.yul\":2394:2450   */\n      tag_152\n        /* \"#utility.yul\":2444:2449   */\n      dup4\n        /* \"#utility.yul\":2394:2450   */\n      tag_104\n      jump\t// in\n    tag_152:\n        /* \"#utility.yul\":2473:2480   */\n      dup1\n        /* \"#utility.yul\":2504:2505   */\n      0x00\n        /* \"#utility.yul\":2489:2773   */\n    tag_153:\n        /* \"#utility.yul\":2514:2520   */\n      dup4\n        /* \"#utility.yul\":2511:2512   */\n      dup2\n        /* \"#utility.yul\":2508:2521   */\n      lt\n        /* \"#utility.yul\":2489:2773   */\n      iszero\n      tag_155\n      jumpi\n        /* \"#utility.yul\":2590:2596   */\n      dup2\n        /* \"#utility.yul\":2584:2597   */\n      mload\n        /* \"#utility.yul\":2617:2680   */\n      tag_156\n        /* \"#utility.yul\":2676:2679   */\n      dup9\n        /* \"#utility.yul\":2661:2674   */\n      dup3\n        /* \"#utility.yul\":2617:2680   */\n      tag_106\n      jump\t// in\n    tag_156:\n        /* \"#utility.yul\":2610:2680   */\n      swap8\n      pop\n        /* \"#utility.yul\":2703:2763   */\n      tag_157\n        /* \"#utility.yul\":2756:2762   */\n      dup4\n        /* \"#utility.yul\":2703:2763   */\n      tag_107\n      jump\t// in\n    tag_157:\n        /* \"#utility.yul\":2693:2763   */\n      swap3\n      pop\n        /* \"#utility.yul\":2549:2773   */\n      pop\n        /* \"#utility.yul\":2536:2537   */\n      0x01\n        /* \"#utility.yul\":2533:2534   */\n      dup2\n        /* \"#utility.yul\":2529:2538   */\n      add\n        /* \"#utility.yul\":2524:2538   */\n      swap1\n      pop\n        /* \"#utility.yul\":2489:2773   */\n      jump(tag_153)\n    tag_155:\n        /* \"#utility.yul\":2493:2507   */\n      pop\n        /* \"#utility.yul\":2789:2792   */\n      dup6\n        /* \"#utility.yul\":2782:2792   */\n      swap4\n      pop\n        /* \"#utility.yul\":2190:2798   */\n      pop\n      pop\n      pop\n        /* \"#utility.yul\":2066:2798   */\n      swap3\n      swap2\n      pop\n      pop\n      jump\t// out\n        /* \"#utility.yul\":2804:3177   */\n    tag_14:\n        /* \"#utility.yul\":2947:2951   */\n      0x00\n        /* \"#utility.yul\":2985:2987   */\n      0x20\n        /* \"#utility.yul\":2974:2983   */\n      dup3\n        /* \"#utility.yul\":2970:2988   */\n      add\n        /* \"#utility.yul\":2962:2988   */\n      swap1\n      pop\n        /* \"#utility.yul\":3034:3043   */\n      dup2\n        /* \"#utility.yul\":3028:3032   */\n      dup2\n        /* \"#utility.yul\":3024:3044   */\n      sub\n        /* \"#utility.yul\":3020:3021   */\n      0x00\n        /* \"#utility.yul\":3009:3018   */\n      dup4\n        /* \"#utility.yul\":3005:3022   */\n      add\n        /* \"#utility.yul\":2998:3045   */\n      mstore\n        /* \"#utility.yul\":3062:3170   */\n      tag_159\n        /* \"#utility.yul\":3165:3169   */\n      dup2\n        /* \"#utility.yul\":3156:3162   */\n      dup5\n        /* \"#utility.yul\":3062:3170   */\n      tag_108\n      jump\t// in\n    tag_159:\n        /* \"#utility.yul\":3054:3170   */\n      swap1\n      pop\n        /* \"#utility.yul\":2804:3177   */\n      swap3\n      swap2\n      pop\n      pop\n      jump\t// out\n        /* \"#utility.yul\":3183:3301   */\n    tag_109:\n        /* \"#utility.yul\":3270:3294   */\n      tag_161\n        /* \"#utility.yul\":3288:3293   */\n      dup2\n        /* \"#utility.yul\":3270:3294   */\n      tag_99\n      jump\t// in\n    tag_161:\n        /* \"#utility.yul\":3265:3268   */\n      dup3\n        /* \"#utility.yul\":3258:3295   */\n      mstore\n        /* \"#utility.yul\":3183:3301   */\n      pop\n      pop\n      jump\t// out\n        /* \"#utility.yul\":3307:3529   */\n    tag_18:\n        /* \"#utility.yul\":3400:3404   */\n      0x00\n        /* \"#utility.yul\":3438:3440   */\n      0x20\n        /* \"#utility.yul\":3427:3436   */\n      dup3\n        /* \"#utility.yul\":3423:3441   */\n      add\n        /* \"#utility.yul\":3415:3441   */\n      swap1\n      pop\n        /* \"#utility.yul\":3451:3522   */\n      tag_163\n        /* \"#utility.yul\":3519:3520   */\n      0x00\n        /* \"#utility.yul\":3508:3517   */\n      dup4\n        /* \"#utility.yul\":3504:3521   */\n      add\n        /* \"#utility.yul\":3495:3501   */\n      dup5\n        /* \"#utility.yul\":3451:3522   */\n      tag_109\n      jump\t// in\n    tag_163:\n        /* \"#utility.yul\":3307:3529   */\n      swap3\n      swap2\n      pop\n      pop\n      jump\t// out\n        /* \"#utility.yul\":3535:3864   */\n    tag_21:\n        /* \"#utility.yul\":3594:3600   */\n      0x00\n        /* \"#utility.yul\":3643:3645   */\n      0x20\n        /* \"#utility.yul\":3631:3640   */\n      dup3\n        /* \"#utility.yul\":3622:3629   */\n      dup5\n        /* \"#utility.yul\":3618:3641   */\n      sub\n        /* \"#utility.yul\":3614:3646   */\n      slt\n        /* \"#utility.yul\":3611:3730   */\n      iszero\n      tag_165\n      jumpi\n        /* \"#utility.yul\":3649:3728   */\n      tag_166\n      tag_97\n      jump\t// in\n    tag_166:\n        /* \"#utility.yul\":3611:3730   */\n    tag_165:\n        /* \"#utility.yul\":3769:3770   */\n      0x00\n        /* \"#utility.yul\":3794:3847   */\n      tag_167\n        /* \"#utility.yul\":3839:3846   */\n      dup5\n        /* \"#utility.yul\":3830:3836   */\n      dup3\n        /* \"#utility.yul\":3819:3828   */\n      dup6\n        /* \"#utility.yul\":3815:3837   */\n      add\n        /* \"#utility.yul\":3794:3847   */\n      tag_101\n      jump\t// in\n    tag_167:\n        /* \"#utility.yul\":3784:3847   */\n      swap2\n      pop\n        /* \"#utility.yul\":3740:3857   */\n      pop\n        /* \"#utility.yul\":3535:3864   */\n      swap3\n      swap2\n      pop\n      pop\n      jump\t// out\n        /* \"#utility.yul\":3870:4353   */\n    tag_26:\n        /* \"#utility.yul\":4041:4045   */\n      0x00\n        /* \"#utility.yul\":4079:4081   */\n      0x40\n        /* \"#utility.yul\":4068:4077   */\n      dup3\n        /* \"#utility.yul\":4064:4082   */\n      add\n        /* \"#utility.yul\":4056:4082   */\n      swap1\n      pop\n        /* \"#utility.yul\":4092:4163   */\n      tag_169\n        /* \"#utility.yul\":4160:4161   */\n      0x00\n        /* \"#utility.yul\":4149:4158   */\n      dup4\n        /* \"#utility.yul\":4145:4162   */\n      add\n        /* \"#utility.yul\":4136:4142   */\n      dup6\n        /* \"#utility.yul\":4092:4163   */\n      tag_109\n      jump\t// in\n    tag_169:\n        /* \"#utility.yul\":4210:4219   */\n      dup2\n        /* \"#utility.yul\":4204:4208   */\n      dup2\n        /* \"#utility.yul\":4200:4220   */\n      sub\n        /* \"#utility.yul\":4195:4197   */\n      0x20\n        /* \"#utility.yul\":4184:4193   */\n      dup4\n        /* \"#utility.yul\":4180:4198   */\n      add\n        /* \"#utility.yul\":4173:4221   */\n      mstore\n        /* \"#utility.yul\":4238:4346   */\n      tag_170\n        /* \"#utility.yul\":4341:4345   */\n      dup2\n        /* \"#utility.yul\":4332:4338   */\n      dup5\n        /* \"#utility.yul\":4238:4346   */\n      tag_108\n      jump\t// in\n    tag_170:\n        /* \"#utility.yul\":4230:4346   */\n      swap1\n      pop\n        /* \"#utility.yul\":3870:4353   */\n      swap4\n      swap3\n      pop\n      pop\n      pop\n      jump\t// out\n        /* \"#utility.yul\":4359:4528   */\n    tag_110:\n        /* \"#utility.yul\":4443:4454   */\n      0x00\n        /* \"#utility.yul\":4477:4483   */\n      dup3\n        /* \"#utility.yul\":4472:4475   */\n      dup3\n        /* \"#utility.yul\":4465:4484   */\n      mstore\n        /* \"#utility.yul\":4517:4521   */\n      0x20\n        /* \"#utility.yul\":4512:4515   */\n      dup3\n        /* \"#utility.yul\":4508:4522   */\n      add\n        /* \"#utility.yul\":4493:4522   */\n      swap1\n      pop\n        /* \"#utility.yul\":4359:4528   */\n      swap3\n      swap2\n      pop\n      pop\n      jump\t// out\n        /* \"#utility.yul\":4534:4748   */\n    tag_111:\n        /* \"#utility.yul\":4674:4740   */\n      0xe9a1b5e7a081e4bb8e31e5bc80e5a78b00000000000000000000000000000000\n        /* \"#utility.yul\":4670:4671   */\n      0x00\n        /* \"#utility.yul\":4662:4668   */\n      dup3\n        /* \"#utility.yul\":4658:4672   */\n      add\n        /* \"#utility.yul\":4651:4741   */\n      mstore\n        /* \"#utility.yul\":4534:4748   */\n      pop\n      jump\t// out\n        /* \"#utility.yul\":4754:5120   */\n    tag_112:\n        /* \"#utility.yul\":4896:4899   */\n      0x00\n        /* \"#utility.yul\":4917:4984   */\n      tag_174\n        /* \"#utility.yul\":4981:4983   */\n      0x10\n        /* \"#utility.yul\":4976:4979   */\n      dup4\n        /* \"#utility.yul\":4917:4984   */\n      tag_110\n      jump\t// in\n    tag_174:\n        /* \"#utility.yul\":4910:4984   */\n      swap2\n      pop\n        /* \"#utility.yul\":4993:5086   */\n      tag_175\n        /* \"#utility.yul\":5082:5085   */\n      dup3\n        /* \"#utility.yul\":4993:5086   */\n      tag_111\n      jump\t// in\n    tag_175:\n        /* \"#utility.yul\":5111:5113   */\n      0x20\n        /* \"#utility.yul\":5106:5109   */\n      dup3\n        /* \"#utility.yul\":5102:5114   */\n      add\n        /* \"#utility.yul\":5095:5114   */\n      swap1\n      pop\n        /* \"#utility.yul\":4754:5120   */\n      swap2\n      swap1\n      pop\n      jump\t// out\n        /* \"#utility.yul\":5126:5545   */\n    tag_38:\n        /* \"#utility.yul\":5292:5296   */\n      0x00\n        /* \"#utility.yul\":5330:5332   */\n      0x20\n        /* \"#utility.yul\":5319:5328   */\n      dup3\n        /* \"#utility.yul\":5315:5333   */\n      add\n        /* \"#utility.yul\":5307:5333   */\n      swap1\n      pop\n        /* \"#utility.yul\":5379:5388   */\n      dup2\n        /* \"#utility.yul\":5373:5377   */\n      dup2\n        /* \"#utility.yul\":5369:5389   */\n      sub\n        /* \"#utility.yul\":5365:5366   */\n      0x00\n        /* \"#utility.yul\":5354:5363   */\n      dup4\n        /* \"#utility.yul\":5350:5367   */\n      add\n        /* \"#utility.yul\":5343:5390   */\n      mstore\n        /* \"#utility.yul\":5407:5538   */\n      tag_177\n        /* \"#utility.yul\":5533:5537   */\n      dup2\n        /* \"#utility.yul\":5407:5538   */\n      tag_112\n      jump\t// in\n    tag_177:\n        /* \"#utility.yul\":5399:5538   */\n      swap1\n      pop\n        /* \"#utility.yul\":5126:5545   */\n      swap2\n      swap1\n      pop\n      jump\t// out\n        /* \"#utility.yul\":5551:5765   */\n    tag_113:\n        /* \"#utility.yul\":5691:5757   */\n      0xe6af8fe9a1b5e695b0e9878fe8bf87e5a4a70000000000000000000000000000\n        /* \"#utility.yul\":5687:5688   */\n      0x00\n        /* \"#utility.yul\":5679:5685   */\n      dup3\n        /* \"#utility.yul\":5675:5689   */\n      add\n        /* \"#utility.yul\":5668:5758   */\n      mstore\n        /* \"#utility.yul\":5551:5765   */\n      pop\n      jump\t// out\n        /* \"#utility.yul\":5771:6137   */\n    tag_114:\n        /* \"#utility.yul\":5913:5916   */\n      0x00\n        /* \"#utility.yul\":5934:6001   */\n      tag_180\n        /* \"#utility.yul\":5998:6000   */\n      0x12\n        /* \"#utility.yul\":5993:5996   */\n      dup4\n        /* \"#utility.yul\":5934:6001   */\n      tag_110\n      jump\t// in\n    tag_180:\n        /* \"#utility.yul\":5927:6001   */\n      swap2\n      pop\n        /* \"#utility.yul\":6010:6103   */\n      tag_181\n        /* \"#utility.yul\":6099:6102   */\n      dup3\n        /* \"#utility.yul\":6010:6103   */\n      tag_113\n      jump\t// in\n    tag_181:\n        /* \"#utility.yul\":6128:6130   */\n      0x20\n        /* \"#utility.yul\":6123:6126   */\n      dup3\n        /* \"#utility.yul\":6119:6131   */\n      add\n        /* \"#utility.yul\":6112:6131   */\n      swap1\n      pop\n        /* \"#utility.yul\":5771:6137   */\n      swap2\n      swap1\n      pop\n      jump\t// out\n        /* \"#utility.yul\":6143:6562   */\n    tag_41:\n        /* \"#utility.yul\":6309:6313   */\n      0x00\n        /* \"#utility.yul\":6347:6349   */\n      0x20\n        /* \"#utility.yul\":6336:6345   */\n      dup3\n        /* \"#utility.yul\":6332:6350   */\n      add\n        /* \"#utility.yul\":6324:6350   */\n      swap1\n      pop\n        /* \"#utility.yul\":6396:6405   */\n      dup2\n        /* \"#utility.yul\":6390:6394   */\n      dup2\n        /* \"#utility.yul\":6386:6406   */\n      sub\n        /* \"#utility.yul\":6382:6383   */\n      0x00\n        /* \"#utility.yul\":6371:6380   */\n      dup4\n        /* \"#utility.yul\":6367:6384   */\n      add\n        /* \"#utility.yul\":6360:6407   */\n      mstore\n        /* \"#utility.yul\":6424:6555   */\n      tag_183\n        /* \"#utility.yul\":6550:6554   */\n      dup2\n        /* \"#utility.yul\":6424:6555   */\n      tag_114\n      jump\t// in\n    tag_183:\n        /* \"#utility.yul\":6416:6555   */\n      swap1\n      pop\n        /* \"#utility.yul\":6143:6562   */\n      swap2\n      swap1\n      pop\n      jump\t// out\n        /* \"#utility.yul\":6568:6748   */\n    tag_115:\n        /* \"#utility.yul\":6616:6693   */\n      0x4e487b7100000000000000000000000000000000000000000000000000000000\n        /* \"#utility.yul\":6613:6614   */\n      0x00\n        /* \"#utility.yul\":6606:6694   */\n      mstore\n        /* \"#utility.yul\":6713:6717   */\n      0x11\n        /* \"#utility.yul\":6710:6711   */\n      0x04\n        /* \"#utility.yul\":6703:6718   */\n      mstore\n        /* \"#utility.yul\":6737:6741   */\n      0x24\n        /* \"#utility.yul\":6734:6735   */\n      0x00\n        /* \"#utility.yul\":6727:6742   */\n      revert\n        /* \"#utility.yul\":6754:6948   */\n    tag_43:\n        /* \"#utility.yul\":6794:6798   */\n      0x00\n        /* \"#utility.yul\":6814:6834   */\n      tag_186\n        /* \"#utility.yul\":6832:6833   */\n      dup3\n        /* \"#utility.yul\":6814:6834   */\n      tag_99\n      jump\t// in\n    tag_186:\n        /* \"#utility.yul\":6809:6834   */\n      swap2\n      pop\n        /* \"#utility.yul\":6848:6868   */\n      tag_187\n        /* \"#utility.yul\":6866:6867   */\n      dup4\n        /* \"#utility.yul\":6848:6868   */\n      tag_99\n      jump\t// in\n    tag_187:\n        /* \"#utility.yul\":6843:6868   */\n      swap3\n      pop\n        /* \"#utility.yul\":6892:6893   */\n      dup3\n        /* \"#utility.yul\":6889:6890   */\n      dup3\n        /* \"#utility.yul\":6885:6894   */\n      sub\n        /* \"#utility.yul\":6877:6894   */\n      swap1\n      pop\n        /* \"#utility.yul\":6916:6917   */\n      dup2\n        /* \"#utility.yul\":6910:6914   */\n      dup2\n        /* \"#utility.yul\":6907:6918   */\n      gt\n        /* \"#utility.yul\":6904:6941   */\n      iszero\n      tag_188\n      jumpi\n        /* \"#utility.yul\":6921:6939   */\n      tag_189\n      tag_115\n      jump\t// in\n    tag_189:\n        /* \"#utility.yul\":6904:6941   */\n    tag_188:\n        /* \"#utility.yul\":6754:6948   */\n      swap3\n      swap2\n      pop\n      pop\n      jump\t// out\n        /* \"#utility.yul\":6954:7364   */\n    tag_45:\n        /* \"#utility.yul\":6994:7001   */\n      0x00\n        /* \"#utility.yul\":7017:7037   */\n      tag_191\n        /* \"#utility.yul\":7035:7036   */\n      dup3\n        /* \"#utility.yul\":7017:7037   */\n      tag_99\n      jump\t// in\n    tag_191:\n        /* \"#utility.yul\":7012:7037   */\n      swap2\n      pop\n        /* \"#utility.yul\":7051:7071   */\n      tag_192\n        /* \"#utility.yul\":7069:7070   */\n      dup4\n        /* \"#utility.yul\":7051:7071   */\n      tag_99\n      jump\t// in\n    tag_192:\n        /* \"#utility.yul\":7046:7071   */\n      swap3\n      pop\n        /* \"#utility.yul\":7106:7107   */\n      dup3\n        /* \"#utility.yul\":7103:7104   */\n      dup3\n        /* \"#utility.yul\":7099:7108   */\n      mul\n        /* \"#utility.yul\":7128:7158   */\n      tag_193\n        /* \"#utility.yul\":7146:7157   */\n      dup2\n        /* \"#utility.yul\":7128:7158   */\n      tag_99\n      jump\t// in\n    tag_193:\n        /* \"#utility.yul\":7117:7158   */\n      swap2\n      pop\n        /* \"#utility.yul\":7307:7308   */\n      dup3\n        /* \"#utility.yul\":7298:7305   */\n      dup3\n        /* \"#utility.yul\":7294:7309   */\n      div\n        /* \"#utility.yul\":7291:7292   */\n      dup5\n        /* \"#utility.yul\":7288:7310   */\n      eq\n        /* \"#utility.yul\":7268:7269   */\n      dup4\n        /* \"#utility.yul\":7261:7270   */\n      iszero\n        /* \"#utility.yul\":7241:7324   */\n      or\n        /* \"#utility.yul\":7218:7357   */\n      tag_194\n      jumpi\n        /* \"#utility.yul\":7337:7355   */\n      tag_195\n      tag_115\n      jump\t// in\n    tag_195:\n        /* \"#utility.yul\":7218:7357   */\n    tag_194:\n        /* \"#utility.yul\":7002:7364   */\n      pop\n        /* \"#utility.yul\":6954:7364   */\n      swap3\n      swap2\n      pop\n      pop\n      jump\t// out\n        /* \"#utility.yul\":7370:7584   */\n    tag_116:\n        /* \"#utility.yul\":7510:7576   */\n      0xe9a1b5e7a081e8b685e587bae88c83e59bb40000000000000000000000000000\n        /* \"#utility.yul\":7506:7507   */\n      0x00\n        /* \"#utility.yul\":7498:7504   */\n      dup3\n        /* \"#utility.yul\":7494:7508   */\n      add\n        /* \"#utility.yul\":7487:7577   */\n      mstore\n        /* \"#utility.yul\":7370:7584   */\n      pop\n      jump\t// out\n        /* \"#utility.yul\":7590:7956   */\n    tag_117:\n        /* \"#utility.yul\":7732:7735   */\n      0x00\n        /* \"#utility.yul\":7753:7820   */\n      tag_198\n        /* \"#utility.yul\":7817:7819   */\n      0x12\n        /* \"#utility.yul\":7812:7815   */\n      dup4\n        /* \"#utility.yul\":7753:7820   */\n      tag_110\n      jump\t// in\n    tag_198:\n        /* \"#utility.yul\":7746:7820   */\n      swap2\n      pop\n        /* \"#utility.yul\":7829:7922   */\n      tag_199\n        /* \"#utility.yul\":7918:7921   */\n      dup3\n        /* \"#utility.yul\":7829:7922   */\n      tag_116\n      jump\t// in\n    tag_199:\n        /* \"#utility.yul\":7947:7949   */\n      0x20\n        /* \"#utility.yul\":7942:7945   */\n      dup3\n        /* \"#utility.yul\":7938:7950   */\n      add\n        /* \"#utility.yul\":7931:7950   */\n      swap1\n      pop\n        /* \"#utility.yul\":7590:7956   */\n      swap2\n      swap1\n      pop\n      jump\t// out\n        /* \"#utility.yul\":7962:8381   */\n    tag_48:\n        /* \"#utility.yul\":8128:8132   */\n      0x00\n        /* \"#utility.yul\":8166:8168   */\n      0x20\n        /* \"#utility.yul\":8155:8164   */\n      dup3\n        /* \"#utility.yul\":8151:8169   */\n      add\n        /* \"#utility.yul\":8143:8169   */\n      swap1\n      pop\n        /* \"#utility.yul\":8215:8224   */\n      dup2\n        /* \"#utility.yul\":8209:8213   */\n      dup2\n        /* \"#utility.yul\":8205:8225   */\n      sub\n        /* \"#utility.yul\":8201:8202   */\n      0x00\n        /* \"#utility.yul\":8190:8199   */\n      dup4\n        /* \"#utility.yul\":8186:8203   */\n      add\n        /* \"#utility.yul\":8179:8226   */\n      mstore\n        /* \"#utility.yul\":8243:8374   */\n      tag_201\n        /* \"#utility.yul\":8369:8373   */\n      dup2\n        /* \"#utility.yul\":8243:8374   */\n      tag_117\n      jump\t// in\n    tag_201:\n        /* \"#utility.yul\":8235:8374   */\n      swap1\n      pop\n        /* \"#utility.yul\":7962:8381   */\n      swap2\n      swap1\n      pop\n      jump\t// out\n        /* \"#utility.yul\":8387:8578   */\n    tag_50:\n        /* \"#utility.yul\":8427:8430   */\n      0x00\n        /* \"#utility.yul\":8446:8466   */\n      tag_203\n        /* \"#utility.yul\":8464:8465   */\n      dup3\n        /* \"#utility.yul\":8446:8466   */\n      tag_99\n      jump\t// in\n    tag_203:\n        /* \"#utility.yul\":8441:8466   */\n      swap2\n      pop\n        /* \"#utility.yul\":8480:8500   */\n      tag_204\n        /* \"#utility.yul\":8498:8499   */\n      dup4\n        /* \"#utility.yul\":8480:8500   */\n      tag_99\n      jump\t// in\n    tag_204:\n        /* \"#utility.yul\":8475:8500   */\n      swap3\n      pop\n        /* \"#utility.yul\":8523:8524   */\n      dup3\n        /* \"#utility.yul\":8520:8521   */\n      dup3\n        /* \"#utility.yul\":8516:8525   */\n      add\n        /* \"#utility.yul\":8509:8525   */\n      swap1\n      pop\n        /* \"#utility.yul\":8544:8547   */\n      dup1\n        /* \"#utility.yul\":8541:8542   */\n      dup3\n        /* \"#utility.yul\":8538:8548   */\n      gt\n        /* \"#utility.yul\":8535:8571   */\n      iszero\n      tag_205\n      jumpi\n        /* \"#utility.yul\":8551:8569   */\n      tag_206\n      tag_115\n      jump\t// in\n    tag_206:\n        /* \"#utility.yul\":8535:8571   */\n    tag_205:\n        /* \"#utility.yul\":8387:8578   */\n      swap3\n      swap2\n      pop\n      pop\n      jump\t// out\n        /* \"#utility.yul\":8584:8764   */\n    tag_54:\n        /* \"#utility.yul\":8632:8709   */\n      0x4e487b7100000000000000000000000000000000000000000000000000000000\n        /* \"#utility.yul\":8629:8630   */\n      0x00\n        /* \"#utility.yul\":8622:8710   */\n      mstore\n        /* \"#utility.yul\":8729:8733   */\n      0x41\n        /* \"#utility.yul\":8726:8727   */\n      0x04\n        /* \"#utility.yul\":8719:8734   */\n      mstore\n        /* \"#utility.yul\":8753:8757   */\n      0x24\n        /* \"#utility.yul\":8750:8751   */\n      0x00\n        /* \"#utility.yul\":8743:8758   */\n      revert\n        /* \"#utility.yul\":8770:8950   */\n    tag_61:\n        /* \"#utility.yul\":8818:8895   */\n      0x4e487b7100000000000000000000000000000000000000000000000000000000\n        /* \"#utility.yul\":8815:8816   */\n      0x00\n        /* \"#utility.yul\":8808:8896   */\n      mstore\n        /* \"#utility.yul\":8915:8919   */\n      0x32\n        /* \"#utility.yul\":8912:8913   */\n      0x04\n        /* \"#utility.yul\":8905:8920   */\n      mstore\n        /* \"#utility.yul\":8939:8943   */\n      0x24\n        /* \"#utility.yul\":8936:8937   */\n      0x00\n        /* \"#utility.yul\":8929:8944   */\n      revert\n        /* \"#utility.yul\":8956:9170   */\n    tag_118:\n        /* \"#utility.yul\":9096:9162   */\n      0xe695b0e7bb84e5b7b2e6bba10000000000000000000000000000000000000000\n        /* \"#utility.yul\":9092:9093   */\n      0x00\n        /* \"#utility.yul\":9084:9090   */\n      dup3\n        /* \"#utility.yul\":9080:9094   */\n      add\n        /* \"#utility.yul\":9073:9163   */\n      mstore\n        /* \"#utility.yul\":8956:9170   */\n      pop\n      jump\t// out\n        /* \"#utility.yul\":9176:9542   */\n    tag_119:\n        /* \"#utility.yul\":9318:9321   */\n      0x00\n        /* \"#utility.yul\":9339:9406   */\n      tag_211\n        /* \"#utility.yul\":9403:9405   */\n      0x0c\n        /* \"#utility.yul\":9398:9401   */\n      dup4\n        /* \"#utility.yul\":9339:9406   */\n      tag_110\n      jump\t// in\n    tag_211:\n        /* \"#utility.yul\":9332:9406   */\n      swap2\n      pop\n        /* \"#utility.yul\":9415:9508   */\n      tag_212\n        /* \"#utility.yul\":9504:9507   */\n      dup3\n        /* \"#utility.yul\":9415:9508   */\n      tag_118\n      jump\t// in\n    tag_212:\n        /* \"#utility.yul\":9533:9535   */\n      0x20\n        /* \"#utility.yul\":9528:9531   */\n      dup3\n        /* \"#utility.yul\":9524:9536   */\n      add\n        /* \"#utility.yul\":9517:9536   */\n      swap1\n      pop\n        /* \"#utility.yul\":9176:9542   */\n      swap2\n      swap1\n      pop\n      jump\t// out\n        /* \"#utility.yul\":9548:9967   */\n    tag_69:\n        /* \"#utility.yul\":9714:9718   */\n      0x00\n        /* \"#utility.yul\":9752:9754   */\n      0x20\n        /* \"#utility.yul\":9741:9750   */\n      dup3\n        /* \"#utility.yul\":9737:9755   */\n      add\n        /* \"#utility.yul\":9729:9755   */\n      swap1\n      pop\n        /* \"#utility.yul\":9801:9810   */\n      dup2\n        /* \"#utility.yul\":9795:9799   */\n      dup2\n        /* \"#utility.yul\":9791:9811   */\n      sub\n        /* \"#utility.yul\":9787:9788   */\n      0x00\n        /* \"#utility.yul\":9776:9785   */\n      dup4\n        /* \"#utility.yul\":9772:9789   */\n      add\n        /* \"#utility.yul\":9765:9812   */\n      mstore\n        /* \"#utility.yul\":9829:9960   */\n      tag_214\n        /* \"#utility.yul\":9955:9959   */\n      dup2\n        /* \"#utility.yul\":9829:9960   */\n      tag_119\n      jump\t// in\n    tag_214:\n        /* \"#utility.yul\":9821:9960   */\n      swap1\n      pop\n        /* \"#utility.yul\":9548:9967   */\n      swap2\n      swap1\n      pop\n      jump\t// out\n        /* \"#utility.yul\":9973:10187   */\n    tag_120:\n        /* \"#utility.yul\":10113:10179   */\n      0x7374617274e5b08fe4ba8ee695b0e7bb84e69c80e5b08fe4b88be6a087000000\n        /* \"#utility.yul\":10109:10110   */\n      0x00\n        /* \"#utility.yul\":10101:10107   */\n      dup3\n        /* \"#utility.yul\":10097:10111   */\n      add\n        /* \"#utility.yul\":10090:10180   */\n      mstore\n        /* \"#utility.yul\":9973:10187   */\n      pop\n      jump\t// out\n        /* \"#utility.yul\":10193:10559   */\n    tag_121:\n        /* \"#utility.yul\":10335:10338   */\n      0x00\n        /* \"#utility.yul\":10356:10423   */\n      tag_217\n        /* \"#utility.yul\":10420:10422   */\n      0x1d\n        /* \"#utility.yul\":10415:10418   */\n      dup4\n        /* \"#utility.yul\":10356:10423   */\n      tag_110\n      jump\t// in\n    tag_217:\n        /* \"#utility.yul\":10349:10423   */\n      swap2\n      pop\n        /* \"#utility.yul\":10432:10525   */\n      tag_218\n        /* \"#utility.yul\":10521:10524   */\n      dup3\n        /* \"#utility.yul\":10432:10525   */\n      tag_120\n      jump\t// in\n    tag_218:\n        /* \"#utility.yul\":10550:10552   */\n      0x20\n        /* \"#utility.yul\":10545:10548   */\n      dup3\n        /* \"#utility.yul\":10541:10553   */\n      add\n        /* \"#utility.yul\":10534:10553   */\n      swap1\n      pop\n        /* \"#utility.yul\":10193:10559   */\n      swap2\n      swap1\n      pop\n      jump\t// out\n        /* \"#utility.yul\":10565:10984   */\n    tag_77:\n        /* \"#utility.yul\":10731:10735   */\n      0x00\n        /* \"#utility.yul\":10769:10771   */\n      0x20\n        /* \"#utility.yul\":10758:10767   */\n      dup3\n        /* \"#utility.yul\":10754:10772   */\n      add\n        /* \"#utility.yul\":10746:10772   */\n      swap1\n      pop\n        /* \"#utility.yul\":10818:10827   */\n      dup2\n        /* \"#utility.yul\":10812:10816   */\n      dup2\n        /* \"#utility.yul\":10808:10828   */\n      sub\n        /* \"#utility.yul\":10804:10805   */\n      0x00\n        /* \"#utility.yul\":10793:10802   */\n      dup4\n        /* \"#utility.yul\":10789:10806   */\n      add\n        /* \"#utility.yul\":10782:10829   */\n      mstore\n        /* \"#utility.yul\":10846:10977   */\n      tag_220\n        /* \"#utility.yul\":10972:10976   */\n      dup2\n        /* \"#utility.yul\":10846:10977   */\n      tag_121\n      jump\t// in\n    tag_220:\n        /* \"#utility.yul\":10838:10977   */\n      swap1\n      pop\n        /* \"#utility.yul\":10565:10984   */\n      swap2\n      swap1\n      pop\n      jump\t// out\n        /* \"#utility.yul\":10990:11204   */\n    tag_122:\n        /* \"#utility.yul\":11130:11196   */\n      0x656e64e5a4a7e4ba8ee695b0e7bb84e69c80e5a4a7e4b88be6a0870000000000\n        /* \"#utility.yul\":11126:11127   */\n      0x00\n        /* \"#utility.yul\":11118:11124   */\n      dup3\n        /* \"#utility.yul\":11114:11128   */\n      add\n        /* \"#utility.yul\":11107:11197   */\n      mstore\n        /* \"#utility.yul\":10990:11204   */\n      pop\n      jump\t// out\n        /* \"#utility.yul\":11210:11576   */\n    tag_123:\n        /* \"#utility.yul\":11352:11355   */\n      0x00\n        /* \"#utility.yul\":11373:11440   */\n      tag_223\n        /* \"#utility.yul\":11437:11439   */\n      0x1b\n        /* \"#utility.yul\":11432:11435   */\n      dup4\n        /* \"#utility.yul\":11373:11440   */\n      tag_110\n      jump\t// in\n    tag_223:\n        /* \"#utility.yul\":11366:11440   */\n      swap2\n      pop\n        /* \"#utility.yul\":11449:11542   */\n      tag_224\n        /* \"#utility.yul\":11538:11541   */\n      dup3\n        /* \"#utility.yul\":11449:11542   */\n      tag_122\n      jump\t// in\n    tag_224:\n        /* \"#utility.yul\":11567:11569   */\n      0x20\n        /* \"#utility.yul\":11562:11565   */\n      dup3\n        /* \"#utility.yul\":11558:11570   */\n      add\n        /* \"#utility.yul\":11551:11570   */\n      swap1\n      pop\n        /* \"#utility.yul\":11210:11576   */\n      swap2\n      swap1\n      pop\n      jump\t// out\n        /* \"#utility.yul\":11582:12001   */\n    tag_80:\n        /* \"#utility.yul\":11748:11752   */\n      0x00\n        /* \"#utility.yul\":11786:11788   */\n      0x20\n        /* \"#utility.yul\":11775:11784   */\n      dup3\n        /* \"#utility.yul\":11771:11789   */\n      add\n        /* \"#utility.yul\":11763:11789   */\n      swap1\n      pop\n        /* \"#utility.yul\":11835:11844   */\n      dup2\n        /* \"#utility.yul\":11829:11833   */\n      dup2\n        /* \"#utility.yul\":11825:11845   */\n      sub\n        /* \"#utility.yul\":11821:11822   */\n      0x00\n        /* \"#utility.yul\":11810:11819   */\n      dup4\n        /* \"#utility.yul\":11806:11823   */\n      add\n        /* \"#utility.yul\":11799:11846   */\n      mstore\n        /* \"#utility.yul\":11863:11994   */\n      tag_226\n        /* \"#utility.yul\":11989:11993   */\n      dup2\n        /* \"#utility.yul\":11863:11994   */\n      tag_123\n      jump\t// in\n    tag_226:\n        /* \"#utility.yul\":11855:11994   */\n      swap1\n      pop\n        /* \"#utility.yul\":11582:12001   */\n      swap2\n      swap1\n      pop\n      jump\t// out\n        /* \"#utility.yul\":12007:12221   */\n    tag_124:\n        /* \"#utility.yul\":12147:12213   */\n      0xe5a484e79086e88c83e59bb4e8bf87e5a4a70000000000000000000000000000\n        /* \"#utility.yul\":12143:12144   */\n      0x00\n        /* \"#utility.yul\":12135:12141   */\n      dup3\n        /* \"#utility.yul\":12131:12145   */\n      add\n        /* \"#utility.yul\":12124:12214   */\n      mstore\n        /* \"#utility.yul\":12007:12221   */\n      pop\n      jump\t// out\n        /* \"#utility.yul\":12227:12593   */\n    tag_125:\n        /* \"#utility.yul\":12369:12372   */\n      0x00\n        /* \"#utility.yul\":12390:12457   */\n      tag_229\n        /* \"#utility.yul\":12454:12456   */\n      0x12\n        /* \"#utility.yul\":12449:12452   */\n      dup4\n        /* \"#utility.yul\":12390:12457   */\n      tag_110\n      jump\t// in\n    tag_229:\n        /* \"#utility.yul\":12383:12457   */\n      swap2\n      pop\n        /* \"#utility.yul\":12466:12559   */\n      tag_230\n        /* \"#utility.yul\":12555:12558   */\n      dup3\n        /* \"#utility.yul\":12466:12559   */\n      tag_124\n      jump\t// in\n    tag_230:\n        /* \"#utility.yul\":12584:12586   */\n      0x20\n        /* \"#utility.yul\":12579:12582   */\n      dup3\n        /* \"#utility.yul\":12575:12587   */\n      add\n        /* \"#utility.yul\":12568:12587   */\n      swap1\n      pop\n        /* \"#utility.yul\":12227:12593   */\n      swap2\n      swap1\n      pop\n      jump\t// out\n        /* \"#utility.yul\":12599:13018   */\n    tag_84:\n        /* \"#utility.yul\":12765:12769   */\n      0x00\n        /* \"#utility.yul\":12803:12805   */\n      0x20\n        /* \"#utility.yul\":12792:12801   */\n      dup3\n        /* \"#utility.yul\":12788:12806   */\n      add\n        /* \"#utility.yul\":12780:12806   */\n      swap1\n      pop\n        /* \"#utility.yul\":12852:12861   */\n      dup2\n        /* \"#utility.yul\":12846:12850   */\n      dup2\n        /* \"#utility.yul\":12842:12862   */\n      sub\n        /* \"#utility.yul\":12838:12839   */\n      0x00\n        /* \"#utility.yul\":12827:12836   */\n      dup4\n        /* \"#utility.yul\":12823:12840   */\n      add\n        /* \"#utility.yul\":12816:12863   */\n      mstore\n        /* \"#utility.yul\":12880:13011   */\n      tag_232\n        /* \"#utility.yul\":13006:13010   */\n      dup2\n        /* \"#utility.yul\":12880:13011   */\n      tag_125\n      jump\t// in\n    tag_232:\n        /* \"#utility.yul\":12872:13011   */\n      swap1\n      pop\n        /* \"#utility.yul\":12599:13018   */\n      swap2\n      swap1\n      pop\n      jump\t// out\n        /* \"#utility.yul\":13024:13257   */\n    tag_93:\n        /* \"#utility.yul\":13063:13066   */\n      0x00\n        /* \"#utility.yul\":13086:13110   */\n      tag_234\n        /* \"#utility.yul\":13104:13109   */\n      dup3\n        /* \"#utility.yul\":13086:13110   */\n      tag_99\n      jump\t// in\n    tag_234:\n        /* \"#utility.yul\":13077:13110   */\n      swap2\n      pop\n        /* \"#utility.yul\":13132:13198   */\n      0xffffffffffffffffffffffffffffffffffffffffffffffffffffffffffffffff\n        /* \"#utility.yul\":13125:13130   */\n      dup3\n        /* \"#utility.yul\":13122:13199   */\n      sub\n        /* \"#utility.yul\":13119:13222   */\n      tag_235\n      jumpi\n        /* \"#utility.yul\":13202:13220   */\n      tag_236\n      tag_115\n      jump\t// in\n    tag_236:\n        /* \"#utility.yul\":13119:13222   */\n    tag_235:\n        /* \"#utility.yul\":13249:13250   */\n      0x01\n        /* \"#utility.yul\":13242:13247   */\n      dup3\n        /* \"#utility.yul\":13238:13251   */\n      add\n        /* \"#utility.yul\":13231:13251   */\n      swap1\n      pop\n        /* \"#utility.yul\":13024:13257   */\n      swap2\n      swap1\n      pop\n      jump\t// out\n\n    auxdata: 0xa26469706673582212203da469e5c5a9f7d75f02e4915b8e13a90cf0cd6cbddcfdbcfcd9c782b7b04fb964736f6c63430008220033\n}\n",
				"bytecode": {
					"linkReferences": {},
					"object": "6080604052348015600e575f5ffd5b505f600190505b606381116051575f81908060018154018082558091505060019003905f5260205f20015f90919091909150558080604a90608c565b9150506015565b5060ce565b7f4e487b71000000000000000000000000000000000000000000000000000000005f52601160045260245ffd5b5f819050919050565b5f6094826083565b91507fffffffffffffffffffffffffffffffffffffffffffffffffffffffffffffffff820360c35760c26056565b5b600182019050919050565b610b8c806100db5f395ff3fe608060405234801561000f575f5ffd5b5060043610610060575f3560e01c8063059f904c146100645780633156a9da146100945780633e275690146100b2578063b76b78fb146100ce578063b90a2f6b146100ed578063d39fa2331461011d575b5f5ffd5b61007e60048036038101906100799190610563565b61014d565b60405161008b9190610658565b60405180910390f35b61009c61030b565b6040516100a99190610687565b60405180910390f35b6100cc60048036038101906100c791906106a0565b610310565b005b6100d661037f565b6040516100e49291906106cb565b60405180910390f35b61010760048036038101906101029190610563565b6103e0565b6040516101149190610687565b60405180910390f35b610137600480360381019061013291906106a0565b61050d565b6040516101449190610687565b60405180910390f35b60606001831015610193576040517f08c379a000000000000000000000000000000000000000000000000000000000815260040161018a90610753565b60405180910390fd5b60148211156101d7576040517f08c379a00000000000000000000000000000000000000000000000000000000081526004016101ce906107bb565b60405180910390fd5b5f826001856101e69190610806565b6101f09190610839565b90505f805490508110610238576040517f08c379a000000000000000000000000000000000000000000000000000000000815260040161022f906108c4565b60405180910390fd5b5f838261024591906108e2565b90505f82826102549190610806565b67ffffffffffffffff81111561026d5761026c610915565b5b60405190808252806020026020018201604052801561029b5781602001602082028036833780820191505090505b5090505f8390505b828110156102fe575f81815481106102be576102bd610942565b5b905f5260205f2001548285836102d49190610806565b815181106102e5576102e4610942565b5b60200260200101818152505080806001019150506102a3565b5080935050505092915050565b606481565b60645f8054905010610357576040517f08c379a000000000000000000000000000000000000000000000000000000000815260040161034e906109b9565b60405180910390fd5b5f81908060018154018082558091505060019003905f5260205f20015f909190919091505550565b5f60605f805490505f808054806020026020016040519081016040528092919081815260200182805480156103d157602002820191905f5260205f20905b8154815260200190600101908083116103bd575b50505050509050915091509091565b5f5f831015610424576040517f08c379a000000000000000000000000000000000000000000000000000000000815260040161041b90610a21565b60405180910390fd5b60648210610467576040517f08c379a000000000000000000000000000000000000000000000000000000000815260040161045e90610a89565b60405180910390fd5b603283836104759190610806565b11156104b6576040517f08c379a00000000000000000000000000000000000000000000000000000000081526004016104ad90610af1565b60405180910390fd5b5f5f90505f8490505b838111610502575f81815481106104d9576104d8610942565b5b905f5260205f200154826104ed91906108e2565b915080806104fa90610b0f565b9150506104bf565b508091505092915050565b5f818154811061051b575f80fd5b905f5260205f20015f915090505481565b5f5ffd5b5f819050919050565b61054281610530565b811461054c575f5ffd5b50565b5f8135905061055d81610539565b92915050565b5f5f604083850312156105795761057861052c565b5b5f6105868582860161054f565b92505060206105978582860161054f565b9150509250929050565b5f81519050919050565b5f82825260208201905092915050565b5f819050602082019050919050565b6105d381610530565b82525050565b5f6105e483836105ca565b60208301905092915050565b5f602082019050919050565b5f610606826105a1565b61061081856105ab565b935061061b836105bb565b805f5b8381101561064b57815161063288826105d9565b975061063d836105f0565b92505060018101905061061e565b5085935050505092915050565b5f6020820190508181035f83015261067081846105fc565b905092915050565b61068181610530565b82525050565b5f60208201905061069a5f830184610678565b92915050565b5f602082840312156106b5576106b461052c565b5b5f6106c28482850161054f565b91505092915050565b5f6040820190506106de5f830185610678565b81810360208301526106f081846105fc565b90509392505050565b5f82825260208201905092915050565b7fe9a1b5e7a081e4bb8e31e5bc80e5a78b000000000000000000000000000000005f82015250565b5f61073d6010836106f9565b915061074882610709565b602082019050919050565b5f6020820190508181035f83015261076a81610731565b9050919050565b7fe6af8fe9a1b5e695b0e9878fe8bf87e5a4a700000000000000000000000000005f82015250565b5f6107a56012836106f9565b91506107b082610771565b602082019050919050565b5f6020820190508181035f8301526107d281610799565b9050919050565b7f4e487b71000000000000000000000000000000000000000000000000000000005f52601160045260245ffd5b5f61081082610530565b915061081b83610530565b9250828203905081811115610833576108326107d9565b5b92915050565b5f61084382610530565b915061084e83610530565b925082820261085c81610530565b91508282048414831517610873576108726107d9565b5b5092915050565b7fe9a1b5e7a081e8b685e587bae88c83e59bb400000000000000000000000000005f82015250565b5f6108ae6012836106f9565b91506108b98261087a565b602082019050919050565b5f6020820190508181035f8301526108db816108a2565b9050919050565b5f6108ec82610530565b91506108f783610530565b925082820190508082111561090f5761090e6107d9565b5b92915050565b7f4e487b71000000000000000000000000000000000000000000000000000000005f52604160045260245ffd5b7f4e487b71000000000000000000000000000000000000000000000000000000005f52603260045260245ffd5b7fe695b0e7bb84e5b7b2e6bba100000000000000000000000000000000000000005f82015250565b5f6109a3600c836106f9565b91506109ae8261096f565b602082019050919050565b5f6020820190508181035f8301526109d081610997565b9050919050565b7f7374617274e5b08fe4ba8ee695b0e7bb84e69c80e5b08fe4b88be6a0870000005f82015250565b5f610a0b601d836106f9565b9150610a16826109d7565b602082019050919050565b5f6020820190508181035f830152610a38816109ff565b9050919050565b7f656e64e5a4a7e4ba8ee695b0e7bb84e69c80e5a4a7e4b88be6a08700000000005f82015250565b5f610a73601b836106f9565b9150610a7e82610a3f565b602082019050919050565b5f6020820190508181035f830152610aa081610a67565b9050919050565b7fe5a484e79086e88c83e59bb4e8bf87e5a4a700000000000000000000000000005f82015250565b5f610adb6012836106f9565b9150610ae682610aa7565b602082019050919050565b5f6020820190508181035f830152610b0881610acf565b9050919050565b5f610b1982610530565b91507fffffffffffffffffffffffffffffffffffffffffffffffffffffffffffffffff8203610b4b57610b4a6107d9565b5b60018201905091905056fea26469706673582212203da469e5c5a9f7d75f02e4915b8e13a90cf0cd6cbddcfdbcfcd9c782b7b04fb964736f6c63430008220033",
					"opcodes": "PUSH1 0x80 PUSH1 0x40 MSTORE CALLVALUE DUP1 ISZERO PUSH1 0xE JUMPI PUSH0 PUSH0 REVERT JUMPDEST POP PUSH0 PUSH1 0x1 SWAP1 POP JUMPDEST PUSH1 0x63 DUP2 GT PUSH1 0x51 JUMPI PUSH0 DUP2 SWAP1 DUP1 PUSH1 0x1 DUP2 SLOAD ADD DUP1 DUP3 SSTORE DUP1 SWAP2 POP POP PUSH1 0x1 SWAP1 SUB SWAP1 PUSH0 MSTORE PUSH1 0x20 PUSH0 KECCAK256 ADD PUSH0 SWAP1 SWAP2 SWAP1 SWAP2 SWAP1 SWAP2 POP SSTORE DUP1 DUP1 PUSH1 0x4A SWAP1 PUSH1 0x8C JUMP JUMPDEST SWAP2 POP POP PUSH1 0x15 JUMP JUMPDEST POP PUSH1 0xCE JUMP JUMPDEST PUSH32 0x4E487B7100000000000000000000000000000000000000000000000000000000 PUSH0 MSTORE PUSH1 0x11 PUSH1 0x4 MSTORE PUSH1 0x24 PUSH0 REVERT JUMPDEST PUSH0 DUP2 SWAP1 POP SWAP2 SWAP1 POP JUMP JUMPDEST PUSH0 PUSH1 0x94 DUP3 PUSH1 0x83 JUMP JUMPDEST SWAP2 POP PUSH32 0xFFFFFFFFFFFFFFFFFFFFFFFFFFFFFFFFFFFFFFFFFFFFFFFFFFFFFFFFFFFFFFFF DUP3 SUB PUSH1 0xC3 JUMPI PUSH1 0xC2 PUSH1 0x56 JUMP JUMPDEST JUMPDEST PUSH1 0x1 DUP3 ADD SWAP1 POP SWAP2 SWAP1 POP JUMP JUMPDEST PUSH2 0xB8C DUP1 PUSH2 0xDB PUSH0 CODECOPY PUSH0 RETURN INVALID PUSH1 0x80 PUSH1 0x40 MSTORE CALLVALUE DUP1 ISZERO PUSH2 0xF JUMPI PUSH0 PUSH0 REVERT JUMPDEST POP PUSH1 0x4 CALLDATASIZE LT PUSH2 0x60 JUMPI PUSH0 CALLDATALOAD PUSH1 0xE0 SHR DUP1 PUSH4 0x59F904C EQ PUSH2 0x64 JUMPI DUP1 PUSH4 0x3156A9DA EQ PUSH2 0x94 JUMPI DUP1 PUSH4 0x3E275690 EQ PUSH2 0xB2 JUMPI DUP1 PUSH4 0xB76B78FB EQ PUSH2 0xCE JUMPI DUP1 PUSH4 0xB90A2F6B EQ PUSH2 0xED JUMPI DUP1 PUSH4 0xD39FA233 EQ PUSH2 0x11D JUMPI JUMPDEST PUSH0 PUSH0 REVERT JUMPDEST PUSH2 0x7E PUSH1 0x4 DUP1 CALLDATASIZE SUB DUP2 ADD SWAP1 PUSH2 0x79 SWAP2 SWAP1 PUSH2 0x563 JUMP JUMPDEST PUSH2 0x14D JUMP JUMPDEST PUSH1 0x40 MLOAD PUSH2 0x8B SWAP2 SWAP1 PUSH2 0x658 JUMP JUMPDEST PUSH1 0x40 MLOAD DUP1 SWAP2 SUB SWAP1 RETURN JUMPDEST PUSH2 0x9C PUSH2 0x30B JUMP JUMPDEST PUSH1 0x40 MLOAD PUSH2 0xA9 SWAP2 SWAP1 PUSH2 0x687 JUMP JUMPDEST PUSH1 0x40 MLOAD DUP1 SWAP2 SUB SWAP1 RETURN JUMPDEST PUSH2 0xCC PUSH1 0x4 DUP1 CALLDATASIZE SUB DUP2 ADD SWAP1 PUSH2 0xC7 SWAP2 SWAP1 PUSH2 0x6A0 JUMP JUMPDEST PUSH2 0x310 JUMP JUMPDEST STOP JUMPDEST PUSH2 0xD6 PUSH2 0x37F JUMP JUMPDEST PUSH1 0x40 MLOAD PUSH2 0xE4 SWAP3 SWAP2 SWAP1 PUSH2 0x6CB JUMP JUMPDEST PUSH1 0x40 MLOAD DUP1 SWAP2 SUB SWAP1 RETURN JUMPDEST PUSH2 0x107 PUSH1 0x4 DUP1 CALLDATASIZE SUB DUP2 ADD SWAP1 PUSH2 0x102 SWAP2 SWAP1 PUSH2 0x563 JUMP JUMPDEST PUSH2 0x3E0 JUMP JUMPDEST PUSH1 0x40 MLOAD PUSH2 0x114 SWAP2 SWAP1 PUSH2 0x687 JUMP JUMPDEST PUSH1 0x40 MLOAD DUP1 SWAP2 SUB SWAP1 RETURN JUMPDEST PUSH2 0x137 PUSH1 0x4 DUP1 CALLDATASIZE SUB DUP2 ADD SWAP1 PUSH2 0x132 SWAP2 SWAP1 PUSH2 0x6A0 JUMP JUMPDEST PUSH2 0x50D JUMP JUMPDEST PUSH1 0x40 MLOAD PUSH2 0x144 SWAP2 SWAP1 PUSH2 0x687 JUMP JUMPDEST PUSH1 0x40 MLOAD DUP1 SWAP2 SUB SWAP1 RETURN JUMPDEST PUSH1 0x60 PUSH1 0x1 DUP4 LT ISZERO PUSH2 0x193 JUMPI PUSH1 0x40 MLOAD PUSH32 0x8C379A000000000000000000000000000000000000000000000000000000000 DUP2 MSTORE PUSH1 0x4 ADD PUSH2 0x18A SWAP1 PUSH2 0x753 JUMP JUMPDEST PUSH1 0x40 MLOAD DUP1 SWAP2 SUB SWAP1 REVERT JUMPDEST PUSH1 0x14 DUP3 GT ISZERO PUSH2 0x1D7 JUMPI PUSH1 0x40 MLOAD PUSH32 0x8C379A000000000000000000000000000000000000000000000000000000000 DUP2 MSTORE PUSH1 0x4 ADD PUSH2 0x1CE SWAP1 PUSH2 0x7BB JUMP JUMPDEST PUSH1 0x40 MLOAD DUP1 SWAP2 SUB SWAP1 REVERT JUMPDEST PUSH0 DUP3 PUSH1 0x1 DUP6 PUSH2 0x1E6 SWAP2 SWAP1 PUSH2 0x806 JUMP JUMPDEST PUSH2 0x1F0 SWAP2 SWAP1 PUSH2 0x839 JUMP JUMPDEST SWAP1 POP PUSH0 DUP1 SLOAD SWAP1 POP DUP2 LT PUSH2 0x238 JUMPI PUSH1 0x40 MLOAD PUSH32 0x8C379A000000000000000000000000000000000000000000000000000000000 DUP2 MSTORE PUSH1 0x4 ADD PUSH2 0x22F SWAP1 PUSH2 0x8C4 JUMP JUMPDEST PUSH1 0x40 MLOAD DUP1 SWAP2 SUB SWAP1 REVERT JUMPDEST PUSH0 DUP4 DUP3 PUSH2 0x245 SWAP2 SWAP1 PUSH2 0x8E2 JUMP JUMPDEST SWAP1 POP PUSH0 DUP3 DUP3 PUSH2 0x254 SWAP2 SWAP1 PUSH2 0x806 JUMP JUMPDEST PUSH8 0xFFFFFFFFFFFFFFFF DUP2 GT ISZERO PUSH2 0x26D JUMPI PUSH2 0x26C PUSH2 0x915 JUMP JUMPDEST JUMPDEST PUSH1 0x40 MLOAD SWAP1 DUP1 DUP3 MSTORE DUP1 PUSH1 0x20 MUL PUSH1 0x20 ADD DUP3 ADD PUSH1 0x40 MSTORE DUP1 ISZERO PUSH2 0x29B JUMPI DUP2 PUSH1 0x20 ADD PUSH1 0x20 DUP3 MUL DUP1 CALLDATASIZE DUP4 CALLDATACOPY DUP1 DUP3 ADD SWAP2 POP POP SWAP1 POP JUMPDEST POP SWAP1 POP PUSH0 DUP4 SWAP1 POP JUMPDEST DUP3 DUP2 LT ISZERO PUSH2 0x2FE JUMPI PUSH0 DUP2 DUP2 SLOAD DUP2 LT PUSH2 0x2BE JUMPI PUSH2 0x2BD PUSH2 0x942 JUMP JUMPDEST JUMPDEST SWAP1 PUSH0 MSTORE PUSH1 0x20 PUSH0 KECCAK256 ADD SLOAD DUP3 DUP6 DUP4 PUSH2 0x2D4 SWAP2 SWAP1 PUSH2 0x806 JUMP JUMPDEST DUP2 MLOAD DUP2 LT PUSH2 0x2E5 JUMPI PUSH2 0x2E4 PUSH2 0x942 JUMP JUMPDEST JUMPDEST PUSH1 0x20 MUL PUSH1 0x20 ADD ADD DUP2 DUP2 MSTORE POP POP DUP1 DUP1 PUSH1 0x1 ADD SWAP2 POP POP PUSH2 0x2A3 JUMP JUMPDEST POP DUP1 SWAP4 POP POP POP POP SWAP3 SWAP2 POP POP JUMP JUMPDEST PUSH1 0x64 DUP2 JUMP JUMPDEST PUSH1 0x64 PUSH0 DUP1 SLOAD SWAP1 POP LT PUSH2 0x357 JUMPI PUSH1 0x40 MLOAD PUSH32 0x8C379A000000000000000000000000000000000000000000000000000000000 DUP2 MSTORE PUSH1 0x4 ADD PUSH2 0x34E SWAP1 PUSH2 0x9B9 JUMP JUMPDEST PUSH1 0x40 MLOAD DUP1 SWAP2 SUB SWAP1 REVERT JUMPDEST PUSH0 DUP2 SWAP1 DUP1 PUSH1 0x1 DUP2 SLOAD ADD DUP1 DUP3 SSTORE DUP1 SWAP2 POP POP PUSH1 0x1 SWAP1 SUB SWAP1 PUSH0 MSTORE PUSH1 0x20 PUSH0 KECCAK256 ADD PUSH0 SWAP1 SWAP2 SWAP1 SWAP2 SWAP1 SWAP2 POP SSTORE POP JUMP JUMPDEST PUSH0 PUSH1 0x60 PUSH0 DUP1 SLOAD SWAP1 POP PUSH0 DUP1 DUP1 SLOAD DUP1 PUSH1 0x20 MUL PUSH1 0x20 ADD PUSH1 0x40 MLOAD SWAP1 DUP2 ADD PUSH1 0x40 MSTORE DUP1 SWAP3 SWAP2 SWAP1 DUP2 DUP2 MSTORE PUSH1 0x20 ADD DUP3 DUP1 SLOAD DUP1 ISZERO PUSH2 0x3D1 JUMPI PUSH1 0x20 MUL DUP3 ADD SWAP2 SWAP1 PUSH0 MSTORE PUSH1 0x20 PUSH0 KECCAK256 SWAP1 JUMPDEST DUP2 SLOAD DUP2 MSTORE PUSH1 0x20 ADD SWAP1 PUSH1 0x1 ADD SWAP1 DUP1 DUP4 GT PUSH2 0x3BD JUMPI JUMPDEST POP POP POP POP POP SWAP1 POP SWAP2 POP SWAP2 POP SWAP1 SWAP2 JUMP JUMPDEST PUSH0 PUSH0 DUP4 LT ISZERO PUSH2 0x424 JUMPI PUSH1 0x40 MLOAD PUSH32 0x8C379A000000000000000000000000000000000000000000000000000000000 DUP2 MSTORE PUSH1 0x4 ADD PUSH2 0x41B SWAP1 PUSH2 0xA21 JUMP JUMPDEST PUSH1 0x40 MLOAD DUP1 SWAP2 SUB SWAP1 REVERT JUMPDEST PUSH1 0x64 DUP3 LT PUSH2 0x467 JUMPI PUSH1 0x40 MLOAD PUSH32 0x8C379A000000000000000000000000000000000000000000000000000000000 DUP2 MSTORE PUSH1 0x4 ADD PUSH2 0x45E SWAP1 PUSH2 0xA89 JUMP JUMPDEST PUSH1 0x40 MLOAD DUP1 SWAP2 SUB SWAP1 REVERT JUMPDEST PUSH1 0x32 DUP4 DUP4 PUSH2 0x475 SWAP2 SWAP1 PUSH2 0x806 JUMP JUMPDEST GT ISZERO PUSH2 0x4B6 JUMPI PUSH1 0x40 MLOAD PUSH32 0x8C379A000000000000000000000000000000000000000000000000000000000 DUP2 MSTORE PUSH1 0x4 ADD PUSH2 0x4AD SWAP1 PUSH2 0xAF1 JUMP JUMPDEST PUSH1 0x40 MLOAD DUP1 SWAP2 SUB SWAP1 REVERT JUMPDEST PUSH0 PUSH0 SWAP1 POP PUSH0 DUP5 SWAP1 POP JUMPDEST DUP4 DUP2 GT PUSH2 0x502 JUMPI PUSH0 DUP2 DUP2 SLOAD DUP2 LT PUSH2 0x4D9 JUMPI PUSH2 0x4D8 PUSH2 0x942 JUMP JUMPDEST JUMPDEST SWAP1 PUSH0 MSTORE PUSH1 0x20 PUSH0 KECCAK256 ADD SLOAD DUP3 PUSH2 0x4ED SWAP2 SWAP1 PUSH2 0x8E2 JUMP JUMPDEST SWAP2 POP DUP1 DUP1 PUSH2 0x4FA SWAP1 PUSH2 0xB0F JUMP JUMPDEST SWAP2 POP POP PUSH2 0x4BF JUMP JUMPDEST POP DUP1 SWAP2 POP POP SWAP3 SWAP2 POP POP JUMP JUMPDEST PUSH0 DUP2 DUP2 SLOAD DUP2 LT PUSH2 0x51B JUMPI PUSH0 DUP1 REVERT JUMPDEST SWAP1 PUSH0 MSTORE PUSH1 0x20 PUSH0 KECCAK256 ADD PUSH0 SWAP2 POP SWAP1 POP SLOAD DUP2 JUMP JUMPDEST PUSH0 PUSH0 REVERT JUMPDEST PUSH0 DUP2 SWAP1 POP SWAP2 SWAP1 POP JUMP JUMPDEST PUSH2 0x542 DUP2 PUSH2 0x530 JUMP JUMPDEST DUP2 EQ PUSH2 0x54C JUMPI PUSH0 PUSH0 REVERT JUMPDEST POP JUMP JUMPDEST PUSH0 DUP2 CALLDATALOAD SWAP1 POP PUSH2 0x55D DUP2 PUSH2 0x539 JUMP JUMPDEST SWAP3 SWAP2 POP POP JUMP JUMPDEST PUSH0 PUSH0 PUSH1 0x40 DUP4 DUP6 SUB SLT ISZERO PUSH2 0x579 JUMPI PUSH2 0x578 PUSH2 0x52C JUMP JUMPDEST JUMPDEST PUSH0 PUSH2 0x586 DUP6 DUP3 DUP7 ADD PUSH2 0x54F JUMP JUMPDEST SWAP3 POP POP PUSH1 0x20 PUSH2 0x597 DUP6 DUP3 DUP7 ADD PUSH2 0x54F JUMP JUMPDEST SWAP2 POP POP SWAP3 POP SWAP3 SWAP1 POP JUMP JUMPDEST PUSH0 DUP2 MLOAD SWAP1 POP SWAP2 SWAP1 POP JUMP JUMPDEST PUSH0 DUP3 DUP3 MSTORE PUSH1 0x20 DUP3 ADD SWAP1 POP SWAP3 SWAP2 POP POP JUMP JUMPDEST PUSH0 DUP2 SWAP1 POP PUSH1 0x20 DUP3 ADD SWAP1 POP SWAP2 SWAP1 POP JUMP JUMPDEST PUSH2 0x5D3 DUP2 PUSH2 0x530 JUMP JUMPDEST DUP3 MSTORE POP POP JUMP JUMPDEST PUSH0 PUSH2 0x5E4 DUP4 DUP4 PUSH2 0x5CA JUMP JUMPDEST PUSH1 0x20 DUP4 ADD SWAP1 POP SWAP3 SWAP2 POP POP JUMP JUMPDEST PUSH0 PUSH1 0x20 DUP3 ADD SWAP1 POP SWAP2 SWAP1 POP JUMP JUMPDEST PUSH0 PUSH2 0x606 DUP3 PUSH2 0x5A1 JUMP JUMPDEST PUSH2 0x610 DUP2 DUP6 PUSH2 0x5AB JUMP JUMPDEST SWAP4 POP PUSH2 0x61B DUP4 PUSH2 0x5BB JUMP JUMPDEST DUP1 PUSH0 JUMPDEST DUP4 DUP2 LT ISZERO PUSH2 0x64B JUMPI DUP2 MLOAD PUSH2 0x632 DUP9 DUP3 PUSH2 0x5D9 JUMP JUMPDEST SWAP8 POP PUSH2 0x63D DUP4 PUSH2 0x5F0 JUMP JUMPDEST SWAP3 POP POP PUSH1 0x1 DUP2 ADD SWAP1 POP PUSH2 0x61E JUMP JUMPDEST POP DUP6 SWAP4 POP POP POP POP SWAP3 SWAP2 POP POP JUMP JUMPDEST PUSH0 PUSH1 0x20 DUP3 ADD SWAP1 POP DUP2 DUP2 SUB PUSH0 DUP4 ADD MSTORE PUSH2 0x670 DUP2 DUP5 PUSH2 0x5FC JUMP JUMPDEST SWAP1 POP SWAP3 SWAP2 POP POP JUMP JUMPDEST PUSH2 0x681 DUP2 PUSH2 0x530 JUMP JUMPDEST DUP3 MSTORE POP POP JUMP JUMPDEST PUSH0 PUSH1 0x20 DUP3 ADD SWAP1 POP PUSH2 0x69A PUSH0 DUP4 ADD DUP5 PUSH2 0x678 JUMP JUMPDEST SWAP3 SWAP2 POP POP JUMP JUMPDEST PUSH0 PUSH1 0x20 DUP3 DUP5 SUB SLT ISZERO PUSH2 0x6B5 JUMPI PUSH2 0x6B4 PUSH2 0x52C JUMP JUMPDEST JUMPDEST PUSH0 PUSH2 0x6C2 DUP5 DUP3 DUP6 ADD PUSH2 0x54F JUMP JUMPDEST SWAP2 POP POP SWAP3 SWAP2 POP POP JUMP JUMPDEST PUSH0 PUSH1 0x40 DUP3 ADD SWAP1 POP PUSH2 0x6DE PUSH0 DUP4 ADD DUP6 PUSH2 0x678 JUMP JUMPDEST DUP2 DUP2 SUB PUSH1 0x20 DUP4 ADD MSTORE PUSH2 0x6F0 DUP2 DUP5 PUSH2 0x5FC JUMP JUMPDEST SWAP1 POP SWAP4 SWAP3 POP POP POP JUMP JUMPDEST PUSH0 DUP3 DUP3 MSTORE PUSH1 0x20 DUP3 ADD SWAP1 POP SWAP3 SWAP2 POP POP JUMP JUMPDEST PUSH32 0xE9A1B5E7A081E4BB8E31E5BC80E5A78B00000000000000000000000000000000 PUSH0 DUP3 ADD MSTORE POP JUMP JUMPDEST PUSH0 PUSH2 0x73D PUSH1 0x10 DUP4 PUSH2 0x6F9 JUMP JUMPDEST SWAP2 POP PUSH2 0x748 DUP3 PUSH2 0x709 JUMP JUMPDEST PUSH1 0x20 DUP3 ADD SWAP1 POP SWAP2 SWAP1 POP JUMP JUMPDEST PUSH0 PUSH1 0x20 DUP3 ADD SWAP1 POP DUP2 DUP2 SUB PUSH0 DUP4 ADD MSTORE PUSH2 0x76A DUP2 PUSH2 0x731 JUMP JUMPDEST SWAP1 POP SWAP2 SWAP1 POP JUMP JUMPDEST PUSH32 0xE6AF8FE9A1B5E695B0E9878FE8BF87E5A4A70000000000000000000000000000 PUSH0 DUP3 ADD MSTORE POP JUMP JUMPDEST PUSH0 PUSH2 0x7A5 PUSH1 0x12 DUP4 PUSH2 0x6F9 JUMP JUMPDEST SWAP2 POP PUSH2 0x7B0 DUP3 PUSH2 0x771 JUMP JUMPDEST PUSH1 0x20 DUP3 ADD SWAP1 POP SWAP2 SWAP1 POP JUMP JUMPDEST PUSH0 PUSH1 0x20 DUP3 ADD SWAP1 POP DUP2 DUP2 SUB PUSH0 DUP4 ADD MSTORE PUSH2 0x7D2 DUP2 PUSH2 0x799 JUMP JUMPDEST SWAP1 POP SWAP2 SWAP1 POP JUMP JUMPDEST PUSH32 0x4E487B7100000000000000000000000000000000000000000000000000000000 PUSH0 MSTORE PUSH1 0x11 PUSH1 0x4 MSTORE PUSH1 0x24 PUSH0 REVERT JUMPDEST PUSH0 PUSH2 0x810 DUP3 PUSH2 0x530 JUMP JUMPDEST SWAP2 POP PUSH2 0x81B DUP4 PUSH2 0x530 JUMP JUMPDEST SWAP3 POP DUP3 DUP3 SUB SWAP1 POP DUP2 DUP2 GT ISZERO PUSH2 0x833 JUMPI PUSH2 0x832 PUSH2 0x7D9 JUMP JUMPDEST JUMPDEST SWAP3 SWAP2 POP POP JUMP JUMPDEST PUSH0 PUSH2 0x843 DUP3 PUSH2 0x530 JUMP JUMPDEST SWAP2 POP PUSH2 0x84E DUP4 PUSH2 0x530 JUMP JUMPDEST SWAP3 POP DUP3 DUP3 MUL PUSH2 0x85C DUP2 PUSH2 0x530 JUMP JUMPDEST SWAP2 POP DUP3 DUP3 DIV DUP5 EQ DUP4 ISZERO OR PUSH2 0x873 JUMPI PUSH2 0x872 PUSH2 0x7D9 JUMP JUMPDEST JUMPDEST POP SWAP3 SWAP2 POP POP JUMP JUMPDEST PUSH32 0xE9A1B5E7A081E8B685E587BAE88C83E59BB40000000000000000000000000000 PUSH0 DUP3 ADD MSTORE POP JUMP JUMPDEST PUSH0 PUSH2 0x8AE PUSH1 0x12 DUP4 PUSH2 0x6F9 JUMP JUMPDEST SWAP2 POP PUSH2 0x8B9 DUP3 PUSH2 0x87A JUMP JUMPDEST PUSH1 0x20 DUP3 ADD SWAP1 POP SWAP2 SWAP1 POP JUMP JUMPDEST PUSH0 PUSH1 0x20 DUP3 ADD SWAP1 POP DUP2 DUP2 SUB PUSH0 DUP4 ADD MSTORE PUSH2 0x8DB DUP2 PUSH2 0x8A2 JUMP JUMPDEST SWAP1 POP SWAP2 SWAP1 POP JUMP JUMPDEST PUSH0 PUSH2 0x8EC DUP3 PUSH2 0x530 JUMP JUMPDEST SWAP2 POP PUSH2 0x8F7 DUP4 PUSH2 0x530 JUMP JUMPDEST SWAP3 POP DUP3 DUP3 ADD SWAP1 POP DUP1 DUP3 GT ISZERO PUSH2 0x90F JUMPI PUSH2 0x90E PUSH2 0x7D9 JUMP JUMPDEST JUMPDEST SWAP3 SWAP2 POP POP JUMP JUMPDEST PUSH32 0x4E487B7100000000000000000000000000000000000000000000000000000000 PUSH0 MSTORE PUSH1 0x41 PUSH1 0x4 MSTORE PUSH1 0x24 PUSH0 REVERT JUMPDEST PUSH32 0x4E487B7100000000000000000000000000000000000000000000000000000000 PUSH0 MSTORE PUSH1 0x32 PUSH1 0x4 MSTORE PUSH1 0x24 PUSH0 REVERT JUMPDEST PUSH32 0xE695B0E7BB84E5B7B2E6BBA10000000000000000000000000000000000000000 PUSH0 DUP3 ADD MSTORE POP JUMP JUMPDEST PUSH0 PUSH2 0x9A3 PUSH1 0xC DUP4 PUSH2 0x6F9 JUMP JUMPDEST SWAP2 POP PUSH2 0x9AE DUP3 PUSH2 0x96F JUMP JUMPDEST PUSH1 0x20 DUP3 ADD SWAP1 POP SWAP2 SWAP1 POP JUMP JUMPDEST PUSH0 PUSH1 0x20 DUP3 ADD SWAP1 POP DUP2 DUP2 SUB PUSH0 DUP4 ADD MSTORE PUSH2 0x9D0 DUP2 PUSH2 0x997 JUMP JUMPDEST SWAP1 POP SWAP2 SWAP1 POP JUMP JUMPDEST PUSH32 0x7374617274E5B08FE4BA8EE695B0E7BB84E69C80E5B08FE4B88BE6A087000000 PUSH0 DUP3 ADD MSTORE POP JUMP JUMPDEST PUSH0 PUSH2 0xA0B PUSH1 0x1D DUP4 PUSH2 0x6F9 JUMP JUMPDEST SWAP2 POP PUSH2 0xA16 DUP3 PUSH2 0x9D7 JUMP JUMPDEST PUSH1 0x20 DUP3 ADD SWAP1 POP SWAP2 SWAP1 POP JUMP JUMPDEST PUSH0 PUSH1 0x20 DUP3 ADD SWAP1 POP DUP2 DUP2 SUB PUSH0 DUP4 ADD MSTORE PUSH2 0xA38 DUP2 PUSH2 0x9FF JUMP JUMPDEST SWAP1 POP SWAP2 SWAP1 POP JUMP JUMPDEST PUSH32 0x656E64E5A4A7E4BA8EE695B0E7BB84E69C80E5A4A7E4B88BE6A0870000000000 PUSH0 DUP3 ADD MSTORE POP JUMP JUMPDEST PUSH0 PUSH2 0xA73 PUSH1 0x1B DUP4 PUSH2 0x6F9 JUMP JUMPDEST SWAP2 POP PUSH2 0xA7E DUP3 PUSH2 0xA3F JUMP JUMPDEST PUSH1 0x20 DUP3 ADD SWAP1 POP SWAP2 SWAP1 POP JUMP JUMPDEST PUSH0 PUSH1 0x20 DUP3 ADD SWAP1 POP DUP2 DUP2 SUB PUSH0 DUP4 ADD MSTORE PUSH2 0xAA0 DUP2 PUSH2 0xA67 JUMP JUMPDEST SWAP1 POP SWAP2 SWAP1 POP JUMP JUMPDEST PUSH32 0xE5A484E79086E88C83E59BB4E8BF87E5A4A70000000000000000000000000000 PUSH0 DUP3 ADD MSTORE POP JUMP JUMPDEST PUSH0 PUSH2 0xADB PUSH1 0x12 DUP4 PUSH2 0x6F9 JUMP JUMPDEST SWAP2 POP PUSH2 0xAE6 DUP3 PUSH2 0xAA7 JUMP JUMPDEST PUSH1 0x20 DUP3 ADD SWAP1 POP SWAP2 SWAP1 POP JUMP JUMPDEST PUSH0 PUSH1 0x20 DUP3 ADD SWAP1 POP DUP2 DUP2 SUB PUSH0 DUP4 ADD MSTORE PUSH2 0xB08 DUP2 PUSH2 0xACF JUMP JUMPDEST SWAP1 POP SWAP2 SWAP1 POP JUMP JUMPDEST PUSH0 PUSH2 0xB19 DUP3 PUSH2 0x530 JUMP JUMPDEST SWAP2 POP PUSH32 0xFFFFFFFFFFFFFFFFFFFFFFFFFFFFFFFFFFFFFFFFFFFFFFFFFFFFFFFFFFFFFFFF DUP3 SUB PUSH2 0xB4B JUMPI PUSH2 0xB4A PUSH2 0x7D9 JUMP JUMPDEST JUMPDEST PUSH1 0x1 DUP3 ADD SWAP1 POP SWAP2 SWAP1 POP JUMP INVALID LOG2 PUSH5 0x6970667358 0x22 SLT KECCAK256 RETURNDATASIZE LOG4 PUSH10 0xE5C5A9F7D75F02E4915B DUP15 SGT 0xA9 0xC CREATE 0xCD PUSH13 0xBDDCFDBCFCD9C782B7B04FB964 PUSH20 0x6F6C634300082200330000000000000000000000 "
				},
				"gasEstimates": {
					"creation": {
						"codeDepositCost": "591200",
						"executionCost": "infinite",
						"totalCost": "infinite"
					},
					"external": {
						"MAX_ARRAY_LENGTH()": "325",
						"batchProcess(uint256,uint256)": "infinite",
						"getAllElement()": "infinite",
						"getByPage(uint256,uint256)": "infinite",
						"numbers(uint256)": "infinite",
						"safePush(uint256)": "48972"
					}
				},
				"methodIdentifiers": {
					"MAX_ARRAY_LENGTH()": "3156a9da",
					"batchProcess(uint256,uint256)": "b90a2f6b",
					"getAllElement()": "b76b78fb",
					"getByPage(uint256,uint256)": "059f904c",
					"numbers(uint256)": "d39fa233",
					"safePush(uint256)": "3e275690"
				}
			},
			"storageLayout": {
				"storage": [
					{
						"astId": 4,
						"contract": "contracts/3.1/05ArrayIteration/SafeIteration.sol:SafeIteration",
						"label": "numbers",
						"offset": 0,
						"slot": "0",
						"type": "t_array(t_uint256)dyn_storage"
					}
				],
				"types": {
					"t_array(t_uint256)dyn_storage": {
						"base": "t_uint256",
						"encoding": "dynamic_array",
						"label": "uint256[]",
						"numberOfBytes": "32"
					},
					"t_uint256": {
						"encoding": "inplace",
						"label": "uint256",
						"numberOfBytes": "32"
					}
				}
			},
			"userdoc": {
				"kind": "user",
				"methods": {},
				"version": 1
			}
		}
	}
}