{
	"contracts/2.1/03address/SpecialAddress.sol": {
		"SpecialAddress": {
			"abi": [
				{
					"inputs": [],
					"name": "getSpecialAddress",
					"outputs": [
						{
							"internalType": "address",
							"name": "",
							"type": "address"
						},
						{
							"internalType": "address",
							"name": "",
							"type": "address"
						},
						{
							"internalType": "address",
							"name": "",
							"type": "address"
						}
					],
					"stateMutability": "view",
					"type": "function"
				},
				{
					"inputs": [],
					"name": "isCalledDirectByUser",
					"outputs": [
						{
							"internalType": "string",
							"name": "",
							"type": "string"
						}
					],
					"stateMutability": "view",
					"type": "function"
				}
			],
			"devdoc": {
				"kind": "dev",
				"methods": {},
				"version": 1
			},
			"evm": {
				"assembly": "    /* \"contracts/2.1/03address/SpecialAddress.sol\":58:549  contract SpecialAddress{... */\n  mstore(0x40, 0x80)\n  callvalue\n  dup1\n  iszero\n  tag_1\n  jumpi\n  revert(0x00, 0x00)\ntag_1:\n  pop\n  dataSize(sub_0)\n  dup1\n  dataOffset(sub_0)\n  0x00\n  codecopy\n  0x00\n  return\nstop\n\nsub_0: assembly {\n        /* \"contracts/2.1/03address/SpecialAddress.sol\":58:549  contract SpecialAddress{... */\n      mstore(0x40, 0x80)\n      callvalue\n      dup1\n      iszero\n      tag_1\n      jumpi\n      revert(0x00, 0x00)\n    tag_1:\n      pop\n      jumpi(tag_2, lt(calldatasize, 0x04))\n      shr(0xe0, calldataload(0x00))\n      dup1\n      0x0b0fba7d\n      eq\n      tag_3\n      jumpi\n      dup1\n      0x8e213194\n      eq\n      tag_4\n      jumpi\n    tag_2:\n      revert(0x00, 0x00)\n        /* \"contracts/2.1/03address/SpecialAddress.sol\":368:546  function isCalledDirectByUser() public view returns(string memory){... */\n    tag_3:\n      tag_5\n      tag_6\n      jump\t// in\n    tag_5:\n      mload(0x40)\n      tag_7\n      swap2\n      swap1\n      tag_8\n      jump\t// in\n    tag_7:\n      mload(0x40)\n      dup1\n      swap2\n      sub\n      swap1\n      return\n        /* \"contracts/2.1/03address/SpecialAddress.sol\":222:360  function getSpecialAddress() public  view returns (address,address,address) {... */\n    tag_4:\n      tag_9\n      tag_10\n      jump\t// in\n    tag_9:\n      mload(0x40)\n      tag_11\n      swap4\n      swap3\n      swap2\n      swap1\n      tag_12\n      jump\t// in\n    tag_11:\n      mload(0x40)\n      dup1\n      swap2\n      sub\n      swap1\n      return\n        /* \"contracts/2.1/03address/SpecialAddress.sol\":368:546  function isCalledDirectByUser() public view returns(string memory){... */\n    tag_6:\n        /* \"contracts/2.1/03address/SpecialAddress.sol\":420:433  string memory */\n      0x60\n        /* \"contracts/2.1/03address/SpecialAddress.sol\":464:473  tx.origin */\n      origin\n        /* \"contracts/2.1/03address/SpecialAddress.sol\":452:473  msg.sender==tx.origin */\n      0xffffffffffffffffffffffffffffffffffffffff\n      and\n        /* \"contracts/2.1/03address/SpecialAddress.sol\":452:462  msg.sender */\n      caller\n        /* \"contracts/2.1/03address/SpecialAddress.sol\":452:473  msg.sender==tx.origin */\n      0xffffffffffffffffffffffffffffffffffffffff\n      and\n      eq\n        /* \"contracts/2.1/03address/SpecialAddress.sol\":452:538  msg.sender==tx.origin?unicode\"直接被用户调用\":unicode\"被另一个合约调用\" */\n      tag_14\n      jumpi\n      mload(0x40)\n      dup1\n      0x40\n      add\n      0x40\n      mstore\n      dup1\n      0x18\n      dup2\n      mstore\n      0x20\n      add\n      0xe8a2abe58fa6e4b880e4b8aae59088e7baa6e8b083e794a80000000000000000\n      dup2\n      mstore\n      pop\n      jump(tag_15)\n    tag_14:\n      mload(0x40)\n      dup1\n      0x40\n      add\n      0x40\n      mstore\n      dup1\n      0x15\n      dup2\n      mstore\n      0x20\n      add\n      0xe79bb4e68ea5e8a2abe794a8e688b7e8b083e794a80000000000000000000000\n      dup2\n      mstore\n      pop\n    tag_15:\n        /* \"contracts/2.1/03address/SpecialAddress.sol\":445:538  return msg.sender==tx.origin?unicode\"直接被用户调用\":unicode\"被另一个合约调用\" */\n      swap1\n      pop\n        /* \"contracts/2.1/03address/SpecialAddress.sol\":368:546  function isCalledDirectByUser() public view returns(string memory){... */\n      swap1\n      jump\t// out\n        /* \"contracts/2.1/03address/SpecialAddress.sol\":222:360  function getSpecialAddress() public  view returns (address,address,address) {... */\n    tag_10:\n        /* \"contracts/2.1/03address/SpecialAddress.sol\":273:280  address */\n      0x00\n        /* \"contracts/2.1/03address/SpecialAddress.sol\":281:288  address */\n      0x00\n        /* \"contracts/2.1/03address/SpecialAddress.sol\":289:296  address */\n      0x00\n        /* \"contracts/2.1/03address/SpecialAddress.sol\":317:327  msg.sender */\n      caller\n        /* \"contracts/2.1/03address/SpecialAddress.sol\":328:337  tx.origin */\n      origin\n        /* \"contracts/2.1/03address/SpecialAddress.sol\":346:350  this */\n      address\n        /* \"contracts/2.1/03address/SpecialAddress.sol\":309:352  return (msg.sender,tx.origin,address(this)) */\n      swap3\n      pop\n      swap3\n      pop\n      swap3\n      pop\n        /* \"contracts/2.1/03address/SpecialAddress.sol\":222:360  function getSpecialAddress() public  view returns (address,address,address) {... */\n      swap1\n      swap2\n      swap3\n      jump\t// out\n        /* \"#utility.yul\":7:106   */\n    tag_17:\n        /* \"#utility.yul\":59:65   */\n      0x00\n        /* \"#utility.yul\":93:98   */\n      dup2\n        /* \"#utility.yul\":87:99   */\n      mload\n        /* \"#utility.yul\":77:99   */\n      swap1\n      pop\n        /* \"#utility.yul\":7:106   */\n      swap2\n      swap1\n      pop\n      jump\t// out\n        /* \"#utility.yul\":112:281   */\n    tag_18:\n        /* \"#utility.yul\":196:207   */\n      0x00\n        /* \"#utility.yul\":230:236   */\n      dup3\n        /* \"#utility.yul\":225:228   */\n      dup3\n        /* \"#utility.yul\":218:237   */\n      mstore\n        /* \"#utility.yul\":270:274   */\n      0x20\n        /* \"#utility.yul\":265:268   */\n      dup3\n        /* \"#utility.yul\":261:275   */\n      add\n        /* \"#utility.yul\":246:275   */\n      swap1\n      pop\n        /* \"#utility.yul\":112:281   */\n      swap3\n      swap2\n      pop\n      pop\n      jump\t// out\n        /* \"#utility.yul\":287:426   */\n    tag_19:\n        /* \"#utility.yul\":376:382   */\n      dup3\n        /* \"#utility.yul\":371:374   */\n      dup2\n        /* \"#utility.yul\":366:369   */\n      dup4\n        /* \"#utility.yul\":360:383   */\n      mcopy\n        /* \"#utility.yul\":417:418   */\n      0x00\n        /* \"#utility.yul\":408:414   */\n      dup4\n        /* \"#utility.yul\":403:406   */\n      dup4\n        /* \"#utility.yul\":399:415   */\n      add\n        /* \"#utility.yul\":392:419   */\n      mstore\n        /* \"#utility.yul\":287:426   */\n      pop\n      pop\n      pop\n      jump\t// out\n        /* \"#utility.yul\":432:534   */\n    tag_20:\n        /* \"#utility.yul\":473:479   */\n      0x00\n        /* \"#utility.yul\":524:526   */\n      0x1f\n        /* \"#utility.yul\":520:527   */\n      not\n        /* \"#utility.yul\":515:517   */\n      0x1f\n        /* \"#utility.yul\":508:513   */\n      dup4\n        /* \"#utility.yul\":504:518   */\n      add\n        /* \"#utility.yul\":500:528   */\n      and\n        /* \"#utility.yul\":490:528   */\n      swap1\n      pop\n        /* \"#utility.yul\":432:534   */\n      swap2\n      swap1\n      pop\n      jump\t// out\n        /* \"#utility.yul\":540:917   */\n    tag_21:\n        /* \"#utility.yul\":628:631   */\n      0x00\n        /* \"#utility.yul\":656:695   */\n      tag_31\n        /* \"#utility.yul\":689:694   */\n      dup3\n        /* \"#utility.yul\":656:695   */\n      tag_17\n      jump\t// in\n    tag_31:\n        /* \"#utility.yul\":711:782   */\n      tag_32\n        /* \"#utility.yul\":775:781   */\n      dup2\n        /* \"#utility.yul\":770:773   */\n      dup6\n        /* \"#utility.yul\":711:782   */\n      tag_18\n      jump\t// in\n    tag_32:\n        /* \"#utility.yul\":704:782   */\n      swap4\n      pop\n        /* \"#utility.yul\":791:856   */\n      tag_33\n        /* \"#utility.yul\":849:855   */\n      dup2\n        /* \"#utility.yul\":844:847   */\n      dup6\n        /* \"#utility.yul\":837:841   */\n      0x20\n        /* \"#utility.yul\":830:835   */\n      dup7\n        /* \"#utility.yul\":826:842   */\n      add\n        /* \"#utility.yul\":791:856   */\n      tag_19\n      jump\t// in\n    tag_33:\n        /* \"#utility.yul\":881:910   */\n      tag_34\n        /* \"#utility.yul\":903:909   */\n      dup2\n        /* \"#utility.yul\":881:910   */\n      tag_20\n      jump\t// in\n    tag_34:\n        /* \"#utility.yul\":876:879   */\n      dup5\n        /* \"#utility.yul\":872:911   */\n      add\n        /* \"#utility.yul\":865:911   */\n      swap2\n      pop\n        /* \"#utility.yul\":632:917   */\n      pop\n        /* \"#utility.yul\":540:917   */\n      swap3\n      swap2\n      pop\n      pop\n      jump\t// out\n        /* \"#utility.yul\":923:1236   */\n    tag_8:\n        /* \"#utility.yul\":1036:1040   */\n      0x00\n        /* \"#utility.yul\":1074:1076   */\n      0x20\n        /* \"#utility.yul\":1063:1072   */\n      dup3\n        /* \"#utility.yul\":1059:1077   */\n      add\n        /* \"#utility.yul\":1051:1077   */\n      swap1\n      pop\n        /* \"#utility.yul\":1123:1132   */\n      dup2\n        /* \"#utility.yul\":1117:1121   */\n      dup2\n        /* \"#utility.yul\":1113:1133   */\n      sub\n        /* \"#utility.yul\":1109:1110   */\n      0x00\n        /* \"#utility.yul\":1098:1107   */\n      dup4\n        /* \"#utility.yul\":1094:1111   */\n      add\n        /* \"#utility.yul\":1087:1134   */\n      mstore\n        /* \"#utility.yul\":1151:1229   */\n      tag_36\n        /* \"#utility.yul\":1224:1228   */\n      dup2\n        /* \"#utility.yul\":1215:1221   */\n      dup5\n        /* \"#utility.yul\":1151:1229   */\n      tag_21\n      jump\t// in\n    tag_36:\n        /* \"#utility.yul\":1143:1229   */\n      swap1\n      pop\n        /* \"#utility.yul\":923:1236   */\n      swap3\n      swap2\n      pop\n      pop\n      jump\t// out\n        /* \"#utility.yul\":1242:1368   */\n    tag_22:\n        /* \"#utility.yul\":1279:1286   */\n      0x00\n        /* \"#utility.yul\":1319:1361   */\n      0xffffffffffffffffffffffffffffffffffffffff\n        /* \"#utility.yul\":1312:1317   */\n      dup3\n        /* \"#utility.yul\":1308:1362   */\n      and\n        /* \"#utility.yul\":1297:1362   */\n      swap1\n      pop\n        /* \"#utility.yul\":1242:1368   */\n      swap2\n      swap1\n      pop\n      jump\t// out\n        /* \"#utility.yul\":1374:1470   */\n    tag_23:\n        /* \"#utility.yul\":1411:1418   */\n      0x00\n        /* \"#utility.yul\":1440:1464   */\n      tag_39\n        /* \"#utility.yul\":1458:1463   */\n      dup3\n        /* \"#utility.yul\":1440:1464   */\n      tag_22\n      jump\t// in\n    tag_39:\n        /* \"#utility.yul\":1429:1464   */\n      swap1\n      pop\n        /* \"#utility.yul\":1374:1470   */\n      swap2\n      swap1\n      pop\n      jump\t// out\n        /* \"#utility.yul\":1476:1594   */\n    tag_24:\n        /* \"#utility.yul\":1563:1587   */\n      tag_41\n        /* \"#utility.yul\":1581:1586   */\n      dup2\n        /* \"#utility.yul\":1563:1587   */\n      tag_23\n      jump\t// in\n    tag_41:\n        /* \"#utility.yul\":1558:1561   */\n      dup3\n        /* \"#utility.yul\":1551:1588   */\n      mstore\n        /* \"#utility.yul\":1476:1594   */\n      pop\n      pop\n      jump\t// out\n        /* \"#utility.yul\":1600:2042   */\n    tag_12:\n        /* \"#utility.yul\":1749:1753   */\n      0x00\n        /* \"#utility.yul\":1787:1789   */\n      0x60\n        /* \"#utility.yul\":1776:1785   */\n      dup3\n        /* \"#utility.yul\":1772:1790   */\n      add\n        /* \"#utility.yul\":1764:1790   */\n      swap1\n      pop\n        /* \"#utility.yul\":1800:1871   */\n      tag_43\n        /* \"#utility.yul\":1868:1869   */\n      0x00\n        /* \"#utility.yul\":1857:1866   */\n      dup4\n        /* \"#utility.yul\":1853:1870   */\n      add\n        /* \"#utility.yul\":1844:1850   */\n      dup7\n        /* \"#utility.yul\":1800:1871   */\n      tag_24\n      jump\t// in\n    tag_43:\n        /* \"#utility.yul\":1881:1953   */\n      tag_44\n        /* \"#utility.yul\":1949:1951   */\n      0x20\n        /* \"#utility.yul\":1938:1947   */\n      dup4\n        /* \"#utility.yul\":1934:1952   */\n      add\n        /* \"#utility.yul\":1925:1931   */\n      dup6\n        /* \"#utility.yul\":1881:1953   */\n      tag_24\n      jump\t// in\n    tag_44:\n        /* \"#utility.yul\":1963:2035   */\n      tag_45\n        /* \"#utility.yul\":2031:2033   */\n      0x40\n        /* \"#utility.yul\":2020:2029   */\n      dup4\n        /* \"#utility.yul\":2016:2034   */\n      add\n        /* \"#utility.yul\":2007:2013   */\n      dup5\n        /* \"#utility.yul\":1963:2035   */\n      tag_24\n      jump\t// in\n    tag_45:\n        /* \"#utility.yul\":1600:2042   */\n      swap5\n      swap4\n      pop\n      pop\n      pop\n      pop\n      jump\t// out\n\n    auxdata: 0xa2646970667358221220601e45d56c489080379b3272bc08cab3132462710b09f42304bfc49cf12ae8a264736f6c63430008220033\n}\n",
				"bytecode": {
					"linkReferences": {},
					"object": "6080604052348015600e575f5ffd5b5061026d8061001c5f395ff3fe608060405234801561000f575f5ffd5b5060043610610034575f3560e01c80630b0fba7d146100385780638e21319414610056575b5f5ffd5b610040610076565b60405161004d91906101a3565b60405180910390f35b61005e610122565b60405161006d93929190610202565b60405180910390f35b60603273ffffffffffffffffffffffffffffffffffffffff163373ffffffffffffffffffffffffffffffffffffffff16146100e6576040518060400160405280601881526020017fe8a2abe58fa6e4b880e4b8aae59088e7baa6e8b083e794a8000000000000000081525061011d565b6040518060400160405280601581526020017fe79bb4e68ea5e8a2abe794a8e688b7e8b083e794a800000000000000000000008152505b905090565b5f5f5f333230925092509250909192565b5f81519050919050565b5f82825260208201905092915050565b8281835e5f83830152505050565b5f601f19601f8301169050919050565b5f61017582610133565b61017f818561013d565b935061018f81856020860161014d565b6101988161015b565b840191505092915050565b5f6020820190508181035f8301526101bb818461016b565b905092915050565b5f73ffffffffffffffffffffffffffffffffffffffff82169050919050565b5f6101ec826101c3565b9050919050565b6101fc816101e2565b82525050565b5f6060820190506102155f8301866101f3565b61022260208301856101f3565b61022f60408301846101f3565b94935050505056fea2646970667358221220601e45d56c489080379b3272bc08cab3132462710b09f42304bfc49cf12ae8a264736f6c63430008220033",
					"opcodes": "PUSH1 0x80 PUSH1 0x40 MSTORE CALLVALUE DUP1 ISZERO PUSH1 0xE JUMPI PUSH0 PUSH0 REVERT JUMPDEST POP PUSH2 0x26D DUP1 PUSH2 0x1C PUSH0 CODECOPY PUSH0 RETURN INVALID PUSH1 0x80 PUSH1 0x40 MSTORE CALLVALUE DUP1 ISZERO PUSH2 0xF JUMPI PUSH0 PUSH0 REVERT JUMPDEST POP PUSH1 0x4 CALLDATASIZE LT PUSH2 0x34 JUMPI PUSH0 CALLDATALOAD PUSH1 0xE0 SHR DUP1 PUSH4 0xB0FBA7D EQ PUSH2 0x38 JUMPI DUP1 PUSH4 0x8E213194 EQ PUSH2 0x56 JUMPI JUMPDEST PUSH0 PUSH0 REVERT JUMPDEST PUSH2 0x40 PUSH2 0x76 JUMP JUMPDEST PUSH1 0x40 MLOAD PUSH2 0x4D SWAP2 SWAP1 PUSH2 0x1A3 JUMP JUMPDEST PUSH1 0x40 MLOAD DUP1 SWAP2 SUB SWAP1 RETURN JUMPDEST PUSH2 0x5E PUSH2 0x122 JUMP JUMPDEST PUSH1 0x40 MLOAD PUSH2 0x6D SWAP4 SWAP3 SWAP2 SWAP1 PUSH2 0x202 JUMP JUMPDEST PUSH1 0x40 MLOAD DUP1 SWAP2 SUB SWAP1 RETURN JUMPDEST PUSH1 0x60 ORIGIN PUSH20 0xFFFFFFFFFFFFFFFFFFFFFFFFFFFFFFFFFFFFFFFF AND CALLER PUSH20 0xFFFFFFFFFFFFFFFFFFFFFFFFFFFFFFFFFFFFFFFF AND EQ PUSH2 0xE6 JUMPI PUSH1 0x40 MLOAD DUP1 PUSH1 0x40 ADD PUSH1 0x40 MSTORE DUP1 PUSH1 0x18 DUP2 MSTORE PUSH1 0x20 ADD PUSH32 0xE8A2ABE58FA6E4B880E4B8AAE59088E7BAA6E8B083E794A80000000000000000 DUP2 MSTORE POP PUSH2 0x11D JUMP JUMPDEST PUSH1 0x40 MLOAD DUP1 PUSH1 0x40 ADD PUSH1 0x40 MSTORE DUP1 PUSH1 0x15 DUP2 MSTORE PUSH1 0x20 ADD PUSH32 0xE79BB4E68EA5E8A2ABE794A8E688B7E8B083E794A80000000000000000000000 DUP2 MSTORE POP JUMPDEST SWAP1 POP SWAP1 JUMP JUMPDEST PUSH0 PUSH0 PUSH0 CALLER ORIGIN ADDRESS SWAP3 POP SWAP3 POP SWAP3 POP SWAP1 SWAP2 SWAP3 JUMP JUMPDEST PUSH0 DUP2 MLOAD SWAP1 POP SWAP2 SWAP1 POP JUMP JUMPDEST PUSH0 DUP3 DUP3 MSTORE PUSH1 0x20 DUP3 ADD SWAP1 POP SWAP3 SWAP2 POP POP JUMP JUMPDEST DUP3 DUP2 DUP4 MCOPY PUSH0 DUP4 DUP4 ADD MSTORE POP POP POP JUMP JUMPDEST PUSH0 PUSH1 0x1F NOT PUSH1 0x1F DUP4 ADD AND SWAP1 POP SWAP2 SWAP1 POP JUMP JUMPDEST PUSH0 PUSH2 0x175 DUP3 PUSH2 0x133 JUMP JUMPDEST PUSH2 0x17F DUP2 DUP6 PUSH2 0x13D JUMP JUMPDEST SWAP4 POP PUSH2 0x18F DUP2 DUP6 PUSH1 0x20 DUP7 ADD PUSH2 0x14D JUMP JUMPDEST PUSH2 0x198 DUP2 PUSH2 0x15B JUMP JUMPDEST DUP5 ADD SWAP2 POP POP SWAP3 SWAP2 POP POP JUMP JUMPDEST PUSH0 PUSH1 0x20 DUP3 ADD SWAP1 POP DUP2 DUP2 SUB PUSH0 DUP4 ADD MSTORE PUSH2 0x1BB DUP2 DUP5 PUSH2 0x16B JUMP JUMPDEST SWAP1 POP SWAP3 SWAP2 POP POP JUMP JUMPDEST PUSH0 PUSH20 0xFFFFFFFFFFFFFFFFFFFFFFFFFFFFFFFFFFFFFFFF DUP3 AND SWAP1 POP SWAP2 SWAP1 POP JUMP JUMPDEST PUSH0 PUSH2 0x1EC DUP3 PUSH2 0x1C3 JUMP JUMPDEST SWAP1 POP SWAP2 SWAP1 POP JUMP JUMPDEST PUSH2 0x1FC DUP2 PUSH2 0x1E2 JUMP JUMPDEST DUP3 MSTORE POP POP JUMP JUMPDEST PUSH0 PUSH1 0x60 DUP3 ADD SWAP1 POP PUSH2 0x215 PUSH0 DUP4 ADD DUP7 PUSH2 0x1F3 JUMP JUMPDEST PUSH2 0x222 PUSH1 0x20 DUP4 ADD DUP6 PUSH2 0x1F3 JUMP JUMPDEST PUSH2 0x22F PUSH1 0x40 DUP4 ADD DUP5 PUSH2 0x1F3 JUMP JUMPDEST SWAP5 SWAP4 POP POP POP POP JUMP INVALID LOG2 PUSH5 0x6970667358 0x22 SLT KECCAK256 PUSH1 0x1E GASLIMIT 0xD5 PUSH13 0x489080379B3272BC08CAB31324 PUSH3 0x710B09 DELEGATECALL 0x23 DIV 0xBF 0xC4 SWAP13 CALL 0x2A 0xE8 LOG2 PUSH5 0x736F6C6343 STOP ADDMOD 0x22 STOP CALLER "
				},
				"gasEstimates": {
					"creation": {
						"codeDepositCost": "124200",
						"executionCost": "169",
						"totalCost": "124369"
					},
					"external": {
						"getSpecialAddress()": "infinite",
						"isCalledDirectByUser()": "infinite"
					}
				},
				"methodIdentifiers": {
					"getSpecialAddress()": "8e213194",
					"isCalledDirectByUser()": "0b0fba7d"
				}
			},
			"storageLayout": {
				"storage": [],
				"types": null
			},
			"userdoc": {
				"kind": "user",
				"methods": {},
				"version": 1
			}
		}
	}
}