{
	"contracts/2.1/02integer/IntegerOverflowProtection1.sol": {
		"IntegerOverflowProtection": {
			"abi": [
				{
					"inputs": [],
					"name": "testIntegerOverflow",
					"outputs": [
						{
							"internalType": "uint8",
							"name": "",
							"type": "uint8"
						}
					],
					"stateMutability": "pure",
					"type": "function"
				},
				{
					"inputs": [],
					"name": "testIntegerUnderflow",
					"outputs": [
						{
							"internalType": "uint8",
							"name": "",
							"type": "uint8"
						}
					],
					"stateMutability": "pure",
					"type": "function"
				}
			],
			"devdoc": {
				"kind": "dev",
				"methods": {},
				"version": 1
			},
			"evm": {
				"assembly": "    /* \"contracts/2.1/02integer/IntegerOverflowProtection1.sol\":58:333  contract IntegerOverflowProtection{... */\n  mstore(0x40, 0x80)\n  callvalue\n  dup1\n  iszero\n  tag_1\n  jumpi\n  revert(0x00, 0x00)\ntag_1:\n  pop\n  dataSize(sub_0)\n  dup1\n  dataOffset(sub_0)\n  0x00\n  codecopy\n  0x00\n  return\nstop\n\nsub_0: assembly {\n        /* \"contracts/2.1/02integer/IntegerOverflowProtection1.sol\":58:333  contract IntegerOverflowProtection{... */\n      mstore(0x40, 0x80)\n      callvalue\n      dup1\n      iszero\n      tag_1\n      jumpi\n      revert(0x00, 0x00)\n    tag_1:\n      pop\n      jumpi(tag_2, lt(calldatasize, 0x04))\n      shr(0xe0, calldataload(0x00))\n      dup1\n      0x4771fa59\n      eq\n      tag_3\n      jumpi\n      dup1\n      0x5a550c4f\n      eq\n      tag_4\n      jumpi\n    tag_2:\n      revert(0x00, 0x00)\n        /* \"contracts/2.1/02integer/IntegerOverflowProtection1.sol\":219:330  function testIntegerUnderflow() public pure returns(uint8){... */\n    tag_3:\n      tag_5\n      tag_6\n      jump\t// in\n    tag_5:\n      mload(0x40)\n      tag_7\n      swap2\n      swap1\n      tag_8\n      jump\t// in\n    tag_7:\n      mload(0x40)\n      dup1\n      swap2\n      sub\n      swap1\n      return\n        /* \"contracts/2.1/02integer/IntegerOverflowProtection1.sol\":99:211  function testIntegerOverflow() public pure returns(uint8){... */\n    tag_4:\n      tag_9\n      tag_10\n      jump\t// in\n    tag_9:\n      mload(0x40)\n      tag_11\n      swap2\n      swap1\n      tag_8\n      jump\t// in\n    tag_11:\n      mload(0x40)\n      dup1\n      swap2\n      sub\n      swap1\n      return\n        /* \"contracts/2.1/02integer/IntegerOverflowProtection1.sol\":219:330  function testIntegerUnderflow() public pure returns(uint8){... */\n    tag_6:\n        /* \"contracts/2.1/02integer/IntegerOverflowProtection1.sol\":271:276  uint8 */\n      0x00\n        /* \"contracts/2.1/02integer/IntegerOverflowProtection1.sol\":288:297  uint8 min */\n      0x00\n        /* \"contracts/2.1/02integer/IntegerOverflowProtection1.sol\":298:299  0 */\n      0x00\n        /* \"contracts/2.1/02integer/IntegerOverflowProtection1.sol\":288:299  uint8 min=0 */\n      swap1\n      pop\n        /* \"contracts/2.1/02integer/IntegerOverflowProtection1.sol\":321:322  1 */\n      0x01\n        /* \"contracts/2.1/02integer/IntegerOverflowProtection1.sol\":317:320  min */\n      dup2\n        /* \"contracts/2.1/02integer/IntegerOverflowProtection1.sol\":317:322  min-1 */\n      tag_13\n      swap2\n      swap1\n      tag_14\n      jump\t// in\n    tag_13:\n        /* \"contracts/2.1/02integer/IntegerOverflowProtection1.sol\":310:322  return min-1 */\n      swap2\n      pop\n      pop\n        /* \"contracts/2.1/02integer/IntegerOverflowProtection1.sol\":219:330  function testIntegerUnderflow() public pure returns(uint8){... */\n      swap1\n      jump\t// out\n        /* \"contracts/2.1/02integer/IntegerOverflowProtection1.sol\":99:211  function testIntegerOverflow() public pure returns(uint8){... */\n    tag_10:\n        /* \"contracts/2.1/02integer/IntegerOverflowProtection1.sol\":150:155  uint8 */\n      0x00\n        /* \"contracts/2.1/02integer/IntegerOverflowProtection1.sol\":167:176  uint8 max */\n      0x00\n        /* \"contracts/2.1/02integer/IntegerOverflowProtection1.sol\":177:180  255 */\n      0xff\n        /* \"contracts/2.1/02integer/IntegerOverflowProtection1.sol\":167:180  uint8 max=255 */\n      swap1\n      pop\n        /* \"contracts/2.1/02integer/IntegerOverflowProtection1.sol\":202:203  1 */\n      0x01\n        /* \"contracts/2.1/02integer/IntegerOverflowProtection1.sol\":198:201  max */\n      dup2\n        /* \"contracts/2.1/02integer/IntegerOverflowProtection1.sol\":198:203  max+1 */\n      tag_16\n      swap2\n      swap1\n      tag_17\n      jump\t// in\n    tag_16:\n        /* \"contracts/2.1/02integer/IntegerOverflowProtection1.sol\":191:203  return max+1 */\n      swap2\n      pop\n      pop\n        /* \"contracts/2.1/02integer/IntegerOverflowProtection1.sol\":99:211  function testIntegerOverflow() public pure returns(uint8){... */\n      swap1\n      jump\t// out\n        /* \"#utility.yul\":7:93   */\n    tag_18:\n        /* \"#utility.yul\":42:49   */\n      0x00\n        /* \"#utility.yul\":82:86   */\n      0xff\n        /* \"#utility.yul\":75:80   */\n      dup3\n        /* \"#utility.yul\":71:87   */\n      and\n        /* \"#utility.yul\":60:87   */\n      swap1\n      pop\n        /* \"#utility.yul\":7:93   */\n      swap2\n      swap1\n      pop\n      jump\t// out\n        /* \"#utility.yul\":99:211   */\n    tag_19:\n        /* \"#utility.yul\":182:204   */\n      tag_24\n        /* \"#utility.yul\":198:203   */\n      dup2\n        /* \"#utility.yul\":182:204   */\n      tag_18\n      jump\t// in\n    tag_24:\n        /* \"#utility.yul\":177:180   */\n      dup3\n        /* \"#utility.yul\":170:205   */\n      mstore\n        /* \"#utility.yul\":99:211   */\n      pop\n      pop\n      jump\t// out\n        /* \"#utility.yul\":217:431   */\n    tag_8:\n        /* \"#utility.yul\":306:310   */\n      0x00\n        /* \"#utility.yul\":344:346   */\n      0x20\n        /* \"#utility.yul\":333:342   */\n      dup3\n        /* \"#utility.yul\":329:347   */\n      add\n        /* \"#utility.yul\":321:347   */\n      swap1\n      pop\n        /* \"#utility.yul\":357:424   */\n      tag_26\n        /* \"#utility.yul\":421:422   */\n      0x00\n        /* \"#utility.yul\":410:419   */\n      dup4\n        /* \"#utility.yul\":406:423   */\n      add\n        /* \"#utility.yul\":397:403   */\n      dup5\n        /* \"#utility.yul\":357:424   */\n      tag_19\n      jump\t// in\n    tag_26:\n        /* \"#utility.yul\":217:431   */\n      swap3\n      swap2\n      pop\n      pop\n      jump\t// out\n        /* \"#utility.yul\":437:617   */\n    tag_20:\n        /* \"#utility.yul\":485:562   */\n      0x4e487b7100000000000000000000000000000000000000000000000000000000\n        /* \"#utility.yul\":482:483   */\n      0x00\n        /* \"#utility.yul\":475:563   */\n      mstore\n        /* \"#utility.yul\":582:586   */\n      0x11\n        /* \"#utility.yul\":579:580   */\n      0x04\n        /* \"#utility.yul\":572:587   */\n      mstore\n        /* \"#utility.yul\":606:610   */\n      0x24\n        /* \"#utility.yul\":603:604   */\n      0x00\n        /* \"#utility.yul\":596:611   */\n      revert\n        /* \"#utility.yul\":623:814   */\n    tag_14:\n        /* \"#utility.yul\":661:665   */\n      0x00\n        /* \"#utility.yul\":681:699   */\n      tag_29\n        /* \"#utility.yul\":697:698   */\n      dup3\n        /* \"#utility.yul\":681:699   */\n      tag_18\n      jump\t// in\n    tag_29:\n        /* \"#utility.yul\":676:699   */\n      swap2\n      pop\n        /* \"#utility.yul\":713:731   */\n      tag_30\n        /* \"#utility.yul\":729:730   */\n      dup4\n        /* \"#utility.yul\":713:731   */\n      tag_18\n      jump\t// in\n    tag_30:\n        /* \"#utility.yul\":708:731   */\n      swap3\n      pop\n        /* \"#utility.yul\":755:756   */\n      dup3\n        /* \"#utility.yul\":752:753   */\n      dup3\n        /* \"#utility.yul\":748:757   */\n      sub\n        /* \"#utility.yul\":740:757   */\n      swap1\n      pop\n        /* \"#utility.yul\":779:783   */\n      0xff\n        /* \"#utility.yul\":773:777   */\n      dup2\n        /* \"#utility.yul\":770:784   */\n      gt\n        /* \"#utility.yul\":767:807   */\n      iszero\n      tag_31\n      jumpi\n        /* \"#utility.yul\":787:805   */\n      tag_32\n      tag_20\n      jump\t// in\n    tag_32:\n        /* \"#utility.yul\":767:807   */\n    tag_31:\n        /* \"#utility.yul\":623:814   */\n      swap3\n      swap2\n      pop\n      pop\n      jump\t// out\n        /* \"#utility.yul\":820:1008   */\n    tag_17:\n        /* \"#utility.yul\":858:861   */\n      0x00\n        /* \"#utility.yul\":877:895   */\n      tag_34\n        /* \"#utility.yul\":893:894   */\n      dup3\n        /* \"#utility.yul\":877:895   */\n      tag_18\n      jump\t// in\n    tag_34:\n        /* \"#utility.yul\":872:895   */\n      swap2\n      pop\n        /* \"#utility.yul\":909:927   */\n      tag_35\n        /* \"#utility.yul\":925:926   */\n      dup4\n        /* \"#utility.yul\":909:927   */\n      tag_18\n      jump\t// in\n    tag_35:\n        /* \"#utility.yul\":904:927   */\n      swap3\n      pop\n        /* \"#utility.yul\":950:951   */\n      dup3\n        /* \"#utility.yul\":947:948   */\n      dup3\n        /* \"#utility.yul\":943:952   */\n      add\n        /* \"#utility.yul\":936:952   */\n      swap1\n      pop\n        /* \"#utility.yul\":973:977   */\n      0xff\n        /* \"#utility.yul\":968:971   */\n      dup2\n        /* \"#utility.yul\":965:978   */\n      gt\n        /* \"#utility.yul\":962:1001   */\n      iszero\n      tag_36\n      jumpi\n        /* \"#utility.yul\":981:999   */\n      tag_37\n      tag_20\n      jump\t// in\n    tag_37:\n        /* \"#utility.yul\":962:1001   */\n    tag_36:\n        /* \"#utility.yul\":820:1008   */\n      swap3\n      swap2\n      pop\n      pop\n      jump\t// out\n\n    auxdata: 0xa2646970667358221220523f61eae76c5012953cf66552c3921dae2519e9a0caa290c80611991edc261264736f6c63430008220033\n}\n",
				"bytecode": {
					"linkReferences": {},
					"object": "6080604052348015600e575f5ffd5b506101a48061001c5f395ff3fe608060405234801561000f575f5ffd5b5060043610610034575f3560e01c80634771fa59146100385780635a550c4f14610056575b5f5ffd5b610040610074565b60405161004d91906100c0565b60405180910390f35b61005e61008c565b60405161006b91906100c0565b60405180910390f35b5f5f5f90506001816100869190610106565b91505090565b5f5f60ff905060018161009f919061013a565b91505090565b5f60ff82169050919050565b6100ba816100a5565b82525050565b5f6020820190506100d35f8301846100b1565b92915050565b7f4e487b71000000000000000000000000000000000000000000000000000000005f52601160045260245ffd5b5f610110826100a5565b915061011b836100a5565b9250828203905060ff811115610134576101336100d9565b5b92915050565b5f610144826100a5565b915061014f836100a5565b9250828201905060ff811115610168576101676100d9565b5b9291505056fea2646970667358221220523f61eae76c5012953cf66552c3921dae2519e9a0caa290c80611991edc261264736f6c63430008220033",
					"opcodes": "PUSH1 0x80 PUSH1 0x40 MSTORE CALLVALUE DUP1 ISZERO PUSH1 0xE JUMPI PUSH0 PUSH0 REVERT JUMPDEST POP PUSH2 0x1A4 DUP1 PUSH2 0x1C PUSH0 CODECOPY PUSH0 RETURN INVALID PUSH1 0x80 PUSH1 0x40 MSTORE CALLVALUE DUP1 ISZERO PUSH2 0xF JUMPI PUSH0 PUSH0 REVERT JUMPDEST POP PUSH1 0x4 CALLDATASIZE LT PUSH2 0x34 JUMPI PUSH0 CALLDATALOAD PUSH1 0xE0 SHR DUP1 PUSH4 0x4771FA59 EQ PUSH2 0x38 JUMPI DUP1 PUSH4 0x5A550C4F EQ PUSH2 0x56 JUMPI JUMPDEST PUSH0 PUSH0 REVERT JUMPDEST PUSH2 0x40 PUSH2 0x74 JUMP JUMPDEST PUSH1 0x40 MLOAD PUSH2 0x4D SWAP2 SWAP1 PUSH2 0xC0 JUMP JUMPDEST PUSH1 0x40 MLOAD DUP1 SWAP2 SUB SWAP1 RETURN JUMPDEST PUSH2 0x5E PUSH2 0x8C JUMP JUMPDEST PUSH1 0x40 MLOAD PUSH2 0x6B SWAP2 SWAP1 PUSH2 0xC0 JUMP JUMPDEST PUSH1 0x40 MLOAD DUP1 SWAP2 SUB SWAP1 RETURN JUMPDEST PUSH0 PUSH0 PUSH0 SWAP1 POP PUSH1 0x1 DUP2 PUSH2 0x86 SWAP2 SWAP1 PUSH2 0x106 JUMP JUMPDEST SWAP2 POP POP SWAP1 JUMP JUMPDEST PUSH0 PUSH0 PUSH1 0xFF SWAP1 POP PUSH1 0x1 DUP2 PUSH2 0x9F SWAP2 SWAP1 PUSH2 0x13A JUMP JUMPDEST SWAP2 POP POP SWAP1 JUMP JUMPDEST PUSH0 PUSH1 0xFF DUP3 AND SWAP1 POP SWAP2 SWAP1 POP JUMP JUMPDEST PUSH2 0xBA DUP2 PUSH2 0xA5 JUMP JUMPDEST DUP3 MSTORE POP POP JUMP JUMPDEST PUSH0 PUSH1 0x20 DUP3 ADD SWAP1 POP PUSH2 0xD3 PUSH0 DUP4 ADD DUP5 PUSH2 0xB1 JUMP JUMPDEST SWAP3 SWAP2 POP POP JUMP JUMPDEST PUSH32 0x4E487B7100000000000000000000000000000000000000000000000000000000 PUSH0 MSTORE PUSH1 0x11 PUSH1 0x4 MSTORE PUSH1 0x24 PUSH0 REVERT JUMPDEST PUSH0 PUSH2 0x110 DUP3 PUSH2 0xA5 JUMP JUMPDEST SWAP2 POP PUSH2 0x11B DUP4 PUSH2 0xA5 JUMP JUMPDEST SWAP3 POP DUP3 DUP3 SUB SWAP1 POP PUSH1 0xFF DUP2 GT ISZERO PUSH2 0x134 JUMPI PUSH2 0x133 PUSH2 0xD9 JUMP JUMPDEST JUMPDEST SWAP3 SWAP2 POP POP JUMP JUMPDEST PUSH0 PUSH2 0x144 DUP3 PUSH2 0xA5 JUMP JUMPDEST SWAP2 POP PUSH2 0x14F DUP4 PUSH2 0xA5 JUMP JUMPDEST SWAP3 POP DUP3 DUP3 ADD SWAP1 POP PUSH1 0xFF DUP2 GT ISZERO PUSH2 0x168 JUMPI PUSH2 0x167 PUSH2 0xD9 JUMP JUMPDEST JUMPDEST SWAP3 SWAP2 POP POP JUMP INVALID LOG2 PUSH5 0x6970667358 0x22 SLT KECCAK256 MSTORE EXTCODEHASH PUSH2 0xEAE7 PUSH13 0x5012953CF66552C3921DAE2519 0xE9 LOG0 0xCA LOG2 SWAP1 0xC8 MOD GT SWAP10 CLZ 0xDC 0x26 SLT PUSH5 0x736F6C6343 STOP ADDMOD 0x22 STOP CALLER "
				},
				"gasEstimates": {
					"creation": {
						"codeDepositCost": "84000",
						"executionCost": "133",
						"totalCost": "84133"
					},
					"external": {
						"testIntegerOverflow()": "infinite",
						"testIntegerUnderflow()": "infinite"
					}
				},
				"methodIdentifiers": {
					"testIntegerOverflow()": "5a550c4f",
					"testIntegerUnderflow()": "4771fa59"
				}
			},
			"storageLayout": {
				"storage": [],
				"types": null
			},
			"userdoc": {
				"kind": "user",
				"methods": {},
				"version": 1
			}
		}
	}
}