{
	"contracts/3.1/06MultiDimesionArray/ThreeDimesionAlternative.sol": {
		"ThreeDimesionAlternative": {
			"abi": [
				{
					"inputs": [
						{
							"internalType": "uint256",
							"name": "x",
							"type": "uint256"
						},
						{
							"internalType": "uint256",
							"name": "y",
							"type": "uint256"
						},
						{
							"internalType": "uint256",
							"name": "z",
							"type": "uint256"
						}
					],
					"name": "getElement",
					"outputs": [
						{
							"internalType": "uint256",
							"name": "",
							"type": "uint256"
						}
					],
					"stateMutability": "view",
					"type": "function"
				},
				{
					"inputs": [
						{
							"internalType": "uint256",
							"name": "x",
							"type": "uint256"
						},
						{
							"internalType": "uint256",
							"name": "y",
							"type": "uint256"
						},
						{
							"internalType": "uint256",
							"name": "z",
							"type": "uint256"
						},
						{
							"internalType": "uint256",
							"name": "value",
							"type": "uint256"
						}
					],
					"name": "setElement",
					"outputs": [],
					"stateMutability": "nonpayable",
					"type": "function"
				},
				{
					"inputs": [
						{
							"internalType": "uint256",
							"name": "",
							"type": "uint256"
						},
						{
							"internalType": "uint256",
							"name": "",
							"type": "uint256"
						},
						{
							"internalType": "uint256",
							"name": "",
							"type": "uint256"
						}
					],
					"name": "threeDArrayAlternative",
					"outputs": [
						{
							"internalType": "uint256",
							"name": "",
							"type": "uint256"
						}
					],
					"stateMutability": "view",
					"type": "function"
				}
			],
			"devdoc": {
				"kind": "dev",
				"methods": {},
				"version": 1
			},
			"evm": {
				"assembly": "    /* \"contracts/3.1/06MultiDimesionArray/ThreeDimesionAlternative.sol\":58:434  contract ThreeDimesionAlternative{... */\n  mstore(0x40, 0x80)\n  callvalue\n  dup1\n  iszero\n  tag_1\n  jumpi\n  revert(0x00, 0x00)\ntag_1:\n  pop\n  dataSize(sub_0)\n  dup1\n  dataOffset(sub_0)\n  0x00\n  codecopy\n  0x00\n  return\nstop\n\nsub_0: assembly {\n        /* \"contracts/3.1/06MultiDimesionArray/ThreeDimesionAlternative.sol\":58:434  contract ThreeDimesionAlternative{... */\n      mstore(0x40, 0x80)\n      callvalue\n      dup1\n      iszero\n      tag_1\n      jumpi\n      revert(0x00, 0x00)\n    tag_1:\n      pop\n      jumpi(tag_2, lt(calldatasize, 0x04))\n      shr(0xe0, calldataload(0x00))\n      dup1\n      0x95283731\n      eq\n      tag_3\n      jumpi\n      dup1\n      0xc48eb68c\n      eq\n      tag_4\n      jumpi\n      dup1\n      0xc67f90e4\n      eq\n      tag_5\n      jumpi\n    tag_2:\n      revert(0x00, 0x00)\n        /* \"contracts/3.1/06MultiDimesionArray/ThreeDimesionAlternative.sol\":98:178  mapping(uint=>mapping (uint=>mapping(uint=>uint))) public threeDArrayAlternative */\n    tag_3:\n      tag_6\n      0x04\n      dup1\n      calldatasize\n      sub\n      dup2\n      add\n      swap1\n      tag_7\n      swap2\n      swap1\n      tag_8\n      jump\t// in\n    tag_7:\n      tag_9\n      jump\t// in\n    tag_6:\n      mload(0x40)\n      tag_10\n      swap2\n      swap1\n      tag_11\n      jump\t// in\n    tag_10:\n      mload(0x40)\n      dup1\n      swap2\n      sub\n      swap1\n      return\n        /* \"contracts/3.1/06MultiDimesionArray/ThreeDimesionAlternative.sol\":307:431  function getElement(uint x,uint y,uint z) public view returns(uint){... */\n    tag_4:\n      tag_12\n      0x04\n      dup1\n      calldatasize\n      sub\n      dup2\n      add\n      swap1\n      tag_13\n      swap2\n      swap1\n      tag_8\n      jump\t// in\n    tag_13:\n      tag_14\n      jump\t// in\n    tag_12:\n      mload(0x40)\n      tag_15\n      swap2\n      swap1\n      tag_11\n      jump\t// in\n    tag_15:\n      mload(0x40)\n      dup1\n      swap2\n      sub\n      swap1\n      return\n        /* \"contracts/3.1/06MultiDimesionArray/ThreeDimesionAlternative.sol\":186:301  function setElement(uint x,uint y,uint z,uint value) public{... */\n    tag_5:\n      tag_16\n      0x04\n      dup1\n      calldatasize\n      sub\n      dup2\n      add\n      swap1\n      tag_17\n      swap2\n      swap1\n      tag_18\n      jump\t// in\n    tag_17:\n      tag_19\n      jump\t// in\n    tag_16:\n      stop\n        /* \"contracts/3.1/06MultiDimesionArray/ThreeDimesionAlternative.sol\":98:178  mapping(uint=>mapping (uint=>mapping(uint=>uint))) public threeDArrayAlternative */\n    tag_9:\n      mstore(0x20, 0x00)\n      dup3\n      0x00\n      mstore\n      mstore(0x20, keccak256(0x00, 0x40))\n      dup2\n      0x00\n      mstore\n      mstore(0x20, keccak256(0x00, 0x40))\n      dup1\n      0x00\n      mstore\n      keccak256(0x00, 0x40)\n      0x00\n      swap3\n      pop\n      swap3\n      pop\n      pop\n      pop\n      sload\n      dup2\n      jump\t// out\n        /* \"contracts/3.1/06MultiDimesionArray/ThreeDimesionAlternative.sol\":307:431  function getElement(uint x,uint y,uint z) public view returns(uint){... */\n    tag_14:\n        /* \"contracts/3.1/06MultiDimesionArray/ThreeDimesionAlternative.sol\":369:373  uint */\n      0x00\n        /* \"contracts/3.1/06MultiDimesionArray/ThreeDimesionAlternative.sol\":392:414  threeDArrayAlternative */\n      0x00\n        /* \"contracts/3.1/06MultiDimesionArray/ThreeDimesionAlternative.sol\":392:417  threeDArrayAlternative[x] */\n      0x00\n        /* \"contracts/3.1/06MultiDimesionArray/ThreeDimesionAlternative.sol\":415:416  x */\n      dup6\n        /* \"contracts/3.1/06MultiDimesionArray/ThreeDimesionAlternative.sol\":392:417  threeDArrayAlternative[x] */\n      dup2\n      mstore\n      0x20\n      add\n      swap1\n      dup2\n      mstore\n      0x20\n      add\n      0x00\n      keccak256\n        /* \"contracts/3.1/06MultiDimesionArray/ThreeDimesionAlternative.sol\":392:420  threeDArrayAlternative[x][y] */\n      0x00\n        /* \"contracts/3.1/06MultiDimesionArray/ThreeDimesionAlternative.sol\":418:419  y */\n      dup5\n        /* \"contracts/3.1/06MultiDimesionArray/ThreeDimesionAlternative.sol\":392:420  threeDArrayAlternative[x][y] */\n      dup2\n      mstore\n      0x20\n      add\n      swap1\n      dup2\n      mstore\n      0x20\n      add\n      0x00\n      keccak256\n        /* \"contracts/3.1/06MultiDimesionArray/ThreeDimesionAlternative.sol\":392:423  threeDArrayAlternative[x][y][z] */\n      0x00\n        /* \"contracts/3.1/06MultiDimesionArray/ThreeDimesionAlternative.sol\":421:422  z */\n      dup4\n        /* \"contracts/3.1/06MultiDimesionArray/ThreeDimesionAlternative.sol\":392:423  threeDArrayAlternative[x][y][z] */\n      dup2\n      mstore\n      0x20\n      add\n      swap1\n      dup2\n      mstore\n      0x20\n      add\n      0x00\n      keccak256\n      sload\n        /* \"contracts/3.1/06MultiDimesionArray/ThreeDimesionAlternative.sol\":385:423  return threeDArrayAlternative[x][y][z] */\n      swap1\n      pop\n        /* \"contracts/3.1/06MultiDimesionArray/ThreeDimesionAlternative.sol\":307:431  function getElement(uint x,uint y,uint z) public view returns(uint){... */\n      swap4\n      swap3\n      pop\n      pop\n      pop\n      jump\t// out\n        /* \"contracts/3.1/06MultiDimesionArray/ThreeDimesionAlternative.sol\":186:301  function setElement(uint x,uint y,uint z,uint value) public{... */\n    tag_19:\n        /* \"contracts/3.1/06MultiDimesionArray/ThreeDimesionAlternative.sol\":288:293  value */\n      dup1\n        /* \"contracts/3.1/06MultiDimesionArray/ThreeDimesionAlternative.sol\":256:278  threeDArrayAlternative */\n      0x00\n        /* \"contracts/3.1/06MultiDimesionArray/ThreeDimesionAlternative.sol\":256:281  threeDArrayAlternative[x] */\n      0x00\n        /* \"contracts/3.1/06MultiDimesionArray/ThreeDimesionAlternative.sol\":279:280  x */\n      dup7\n        /* \"contracts/3.1/06MultiDimesionArray/ThreeDimesionAlternative.sol\":256:281  threeDArrayAlternative[x] */\n      dup2\n      mstore\n      0x20\n      add\n      swap1\n      dup2\n      mstore\n      0x20\n      add\n      0x00\n      keccak256\n        /* \"contracts/3.1/06MultiDimesionArray/ThreeDimesionAlternative.sol\":256:284  threeDArrayAlternative[x][y] */\n      0x00\n        /* \"contracts/3.1/06MultiDimesionArray/ThreeDimesionAlternative.sol\":282:283  y */\n      dup6\n        /* \"contracts/3.1/06MultiDimesionArray/ThreeDimesionAlternative.sol\":256:284  threeDArrayAlternative[x][y] */\n      dup2\n      mstore\n      0x20\n      add\n      swap1\n      dup2\n      mstore\n      0x20\n      add\n      0x00\n      keccak256\n        /* \"contracts/3.1/06MultiDimesionArray/ThreeDimesionAlternative.sol\":256:287  threeDArrayAlternative[x][y][z] */\n      0x00\n        /* \"contracts/3.1/06MultiDimesionArray/ThreeDimesionAlternative.sol\":285:286  z */\n      dup5\n        /* \"contracts/3.1/06MultiDimesionArray/ThreeDimesionAlternative.sol\":256:287  threeDArrayAlternative[x][y][z] */\n      dup2\n      mstore\n      0x20\n      add\n      swap1\n      dup2\n      mstore\n      0x20\n      add\n      0x00\n      keccak256\n        /* \"contracts/3.1/06MultiDimesionArray/ThreeDimesionAlternative.sol\":256:293  threeDArrayAlternative[x][y][z]=value */\n      dup2\n      swap1\n      sstore\n      pop\n        /* \"contracts/3.1/06MultiDimesionArray/ThreeDimesionAlternative.sol\":186:301  function setElement(uint x,uint y,uint z,uint value) public{... */\n      pop\n      pop\n      pop\n      pop\n      jump\t// out\n        /* \"#utility.yul\":88:205   */\n    tag_23:\n        /* \"#utility.yul\":197:198   */\n      0x00\n        /* \"#utility.yul\":194:195   */\n      0x00\n        /* \"#utility.yul\":187:199   */\n      revert\n        /* \"#utility.yul\":334:411   */\n    tag_25:\n        /* \"#utility.yul\":371:378   */\n      0x00\n        /* \"#utility.yul\":400:405   */\n      dup2\n        /* \"#utility.yul\":389:405   */\n      swap1\n      pop\n        /* \"#utility.yul\":334:411   */\n      swap2\n      swap1\n      pop\n      jump\t// out\n        /* \"#utility.yul\":417:539   */\n    tag_26:\n        /* \"#utility.yul\":490:514   */\n      tag_35\n        /* \"#utility.yul\":508:513   */\n      dup2\n        /* \"#utility.yul\":490:514   */\n      tag_25\n      jump\t// in\n    tag_35:\n        /* \"#utility.yul\":483:488   */\n      dup2\n        /* \"#utility.yul\":480:515   */\n      eq\n        /* \"#utility.yul\":470:533   */\n      tag_36\n      jumpi\n        /* \"#utility.yul\":529:530   */\n      0x00\n        /* \"#utility.yul\":526:527   */\n      0x00\n        /* \"#utility.yul\":519:531   */\n      revert\n        /* \"#utility.yul\":470:533   */\n    tag_36:\n        /* \"#utility.yul\":417:539   */\n      pop\n      jump\t// out\n        /* \"#utility.yul\":545:684   */\n    tag_27:\n        /* \"#utility.yul\":591:596   */\n      0x00\n        /* \"#utility.yul\":629:635   */\n      dup2\n        /* \"#utility.yul\":616:636   */\n      calldataload\n        /* \"#utility.yul\":607:636   */\n      swap1\n      pop\n        /* \"#utility.yul\":645:678   */\n      tag_38\n        /* \"#utility.yul\":672:677   */\n      dup2\n        /* \"#utility.yul\":645:678   */\n      tag_26\n      jump\t// in\n    tag_38:\n        /* \"#utility.yul\":545:684   */\n      swap3\n      swap2\n      pop\n      pop\n      jump\t// out\n        /* \"#utility.yul\":690:1309   */\n    tag_8:\n        /* \"#utility.yul\":767:773   */\n      0x00\n        /* \"#utility.yul\":775:781   */\n      0x00\n        /* \"#utility.yul\":783:789   */\n      0x00\n        /* \"#utility.yul\":832:834   */\n      0x60\n        /* \"#utility.yul\":820:829   */\n      dup5\n        /* \"#utility.yul\":811:818   */\n      dup7\n        /* \"#utility.yul\":807:830   */\n      sub\n        /* \"#utility.yul\":803:835   */\n      slt\n        /* \"#utility.yul\":800:919   */\n      iszero\n      tag_40\n      jumpi\n        /* \"#utility.yul\":838:917   */\n      tag_41\n      tag_23\n      jump\t// in\n    tag_41:\n        /* \"#utility.yul\":800:919   */\n    tag_40:\n        /* \"#utility.yul\":958:959   */\n      0x00\n        /* \"#utility.yul\":983:1036   */\n      tag_42\n        /* \"#utility.yul\":1028:1035   */\n      dup7\n        /* \"#utility.yul\":1019:1025   */\n      dup3\n        /* \"#utility.yul\":1008:1017   */\n      dup8\n        /* \"#utility.yul\":1004:1026   */\n      add\n        /* \"#utility.yul\":983:1036   */\n      tag_27\n      jump\t// in\n    tag_42:\n        /* \"#utility.yul\":973:1036   */\n      swap4\n      pop\n        /* \"#utility.yul\":929:1046   */\n      pop\n        /* \"#utility.yul\":1085:1087   */\n      0x20\n        /* \"#utility.yul\":1111:1164   */\n      tag_43\n        /* \"#utility.yul\":1156:1163   */\n      dup7\n        /* \"#utility.yul\":1147:1153   */\n      dup3\n        /* \"#utility.yul\":1136:1145   */\n      dup8\n        /* \"#utility.yul\":1132:1154   */\n      add\n        /* \"#utility.yul\":1111:1164   */\n      tag_27\n      jump\t// in\n    tag_43:\n        /* \"#utility.yul\":1101:1164   */\n      swap3\n      pop\n        /* \"#utility.yul\":1056:1174   */\n      pop\n        /* \"#utility.yul\":1213:1215   */\n      0x40\n        /* \"#utility.yul\":1239:1292   */\n      tag_44\n        /* \"#utility.yul\":1284:1291   */\n      dup7\n        /* \"#utility.yul\":1275:1281   */\n      dup3\n        /* \"#utility.yul\":1264:1273   */\n      dup8\n        /* \"#utility.yul\":1260:1282   */\n      add\n        /* \"#utility.yul\":1239:1292   */\n      tag_27\n      jump\t// in\n    tag_44:\n        /* \"#utility.yul\":1229:1292   */\n      swap2\n      pop\n        /* \"#utility.yul\":1184:1302   */\n      pop\n        /* \"#utility.yul\":690:1309   */\n      swap3\n      pop\n      swap3\n      pop\n      swap3\n      jump\t// out\n        /* \"#utility.yul\":1315:1433   */\n    tag_28:\n        /* \"#utility.yul\":1402:1426   */\n      tag_46\n        /* \"#utility.yul\":1420:1425   */\n      dup2\n        /* \"#utility.yul\":1402:1426   */\n      tag_25\n      jump\t// in\n    tag_46:\n        /* \"#utility.yul\":1397:1400   */\n      dup3\n        /* \"#utility.yul\":1390:1427   */\n      mstore\n        /* \"#utility.yul\":1315:1433   */\n      pop\n      pop\n      jump\t// out\n        /* \"#utility.yul\":1439:1661   */\n    tag_11:\n        /* \"#utility.yul\":1532:1536   */\n      0x00\n        /* \"#utility.yul\":1570:1572   */\n      0x20\n        /* \"#utility.yul\":1559:1568   */\n      dup3\n        /* \"#utility.yul\":1555:1573   */\n      add\n        /* \"#utility.yul\":1547:1573   */\n      swap1\n      pop\n        /* \"#utility.yul\":1583:1654   */\n      tag_48\n        /* \"#utility.yul\":1651:1652   */\n      0x00\n        /* \"#utility.yul\":1640:1649   */\n      dup4\n        /* \"#utility.yul\":1636:1653   */\n      add\n        /* \"#utility.yul\":1627:1633   */\n      dup5\n        /* \"#utility.yul\":1583:1654   */\n      tag_28\n      jump\t// in\n    tag_48:\n        /* \"#utility.yul\":1439:1661   */\n      swap3\n      swap2\n      pop\n      pop\n      jump\t// out\n        /* \"#utility.yul\":1667:2432   */\n    tag_18:\n        /* \"#utility.yul\":1753:1759   */\n      0x00\n        /* \"#utility.yul\":1761:1767   */\n      0x00\n        /* \"#utility.yul\":1769:1775   */\n      0x00\n        /* \"#utility.yul\":1777:1783   */\n      0x00\n        /* \"#utility.yul\":1826:1829   */\n      0x80\n        /* \"#utility.yul\":1814:1823   */\n      dup6\n        /* \"#utility.yul\":1805:1812   */\n      dup8\n        /* \"#utility.yul\":1801:1824   */\n      sub\n        /* \"#utility.yul\":1797:1830   */\n      slt\n        /* \"#utility.yul\":1794:1914   */\n      iszero\n      tag_50\n      jumpi\n        /* \"#utility.yul\":1833:1912   */\n      tag_51\n      tag_23\n      jump\t// in\n    tag_51:\n        /* \"#utility.yul\":1794:1914   */\n    tag_50:\n        /* \"#utility.yul\":1953:1954   */\n      0x00\n        /* \"#utility.yul\":1978:2031   */\n      tag_52\n        /* \"#utility.yul\":2023:2030   */\n      dup8\n        /* \"#utility.yul\":2014:2020   */\n      dup3\n        /* \"#utility.yul\":2003:2012   */\n      dup9\n        /* \"#utility.yul\":1999:2021   */\n      add\n        /* \"#utility.yul\":1978:2031   */\n      tag_27\n      jump\t// in\n    tag_52:\n        /* \"#utility.yul\":1968:2031   */\n      swap5\n      pop\n        /* \"#utility.yul\":1924:2041   */\n      pop\n        /* \"#utility.yul\":2080:2082   */\n      0x20\n        /* \"#utility.yul\":2106:2159   */\n      tag_53\n        /* \"#utility.yul\":2151:2158   */\n      dup8\n        /* \"#utility.yul\":2142:2148   */\n      dup3\n        /* \"#utility.yul\":2131:2140   */\n      dup9\n        /* \"#utility.yul\":2127:2149   */\n      add\n        /* \"#utility.yul\":2106:2159   */\n      tag_27\n      jump\t// in\n    tag_53:\n        /* \"#utility.yul\":2096:2159   */\n      swap4\n      pop\n        /* \"#utility.yul\":2051:2169   */\n      pop\n        /* \"#utility.yul\":2208:2210   */\n      0x40\n        /* \"#utility.yul\":2234:2287   */\n      tag_54\n        /* \"#utility.yul\":2279:2286   */\n      dup8\n        /* \"#utility.yul\":2270:2276   */\n      dup3\n        /* \"#utility.yul\":2259:2268   */\n      dup9\n        /* \"#utility.yul\":2255:2277   */\n      add\n        /* \"#utility.yul\":2234:2287   */\n      tag_27\n      jump\t// in\n    tag_54:\n        /* \"#utility.yul\":2224:2287   */\n      swap3\n      pop\n        /* \"#utility.yul\":2179:2297   */\n      pop\n        /* \"#utility.yul\":2336:2338   */\n      0x60\n        /* \"#utility.yul\":2362:2415   */\n      tag_55\n        /* \"#utility.yul\":2407:2414   */\n      dup8\n        /* \"#utility.yul\":2398:2404   */\n      dup3\n        /* \"#utility.yul\":2387:2396   */\n      dup9\n        /* \"#utility.yul\":2383:2405   */\n      add\n        /* \"#utility.yul\":2362:2415   */\n      tag_27\n      jump\t// in\n    tag_55:\n        /* \"#utility.yul\":2352:2415   */\n      swap2\n      pop\n        /* \"#utility.yul\":2307:2425   */\n      pop\n        /* \"#utility.yul\":1667:2432   */\n      swap3\n      swap6\n      swap2\n      swap5\n      pop\n      swap3\n      pop\n      jump\t// out\n\n    auxdata: 0xa2646970667358221220d3b687f476391675af94288b71b425ccbce2f3082d857bef08dbb060ea86908364736f6c63430008220033\n}\n",
				"bytecode": {
					"linkReferences": {},
					"object": "6080604052348015600e575f5ffd5b506102a48061001c5f395ff3fe608060405234801561000f575f5ffd5b506004361061003f575f3560e01c80639528373114610043578063c48eb68c14610073578063c67f90e4146100a3575b5f5ffd5b61005d60048036038101906100589190610192565b6100bf565b60405161006a91906101f1565b60405180910390f35b61008d60048036038101906100889190610192565b6100e9565b60405161009a91906101f1565b60405180910390f35b6100bd60048036038101906100b8919061020a565b610122565b005b5f602052825f5260405f20602052815f5260405f20602052805f5260405f205f9250925050505481565b5f5f5f8581526020019081526020015f205f8481526020019081526020015f205f8381526020019081526020015f205490509392505050565b805f5f8681526020019081526020015f205f8581526020019081526020015f205f8481526020019081526020015f208190555050505050565b5f5ffd5b5f819050919050565b6101718161015f565b811461017b575f5ffd5b50565b5f8135905061018c81610168565b92915050565b5f5f5f606084860312156101a9576101a861015b565b5b5f6101b68682870161017e565b93505060206101c78682870161017e565b92505060406101d88682870161017e565b9150509250925092565b6101eb8161015f565b82525050565b5f6020820190506102045f8301846101e2565b92915050565b5f5f5f5f608085870312156102225761022161015b565b5b5f61022f8782880161017e565b94505060206102408782880161017e565b93505060406102518782880161017e565b92505060606102628782880161017e565b9150509295919450925056fea2646970667358221220d3b687f476391675af94288b71b425ccbce2f3082d857bef08dbb060ea86908364736f6c63430008220033",
					"opcodes": "PUSH1 0x80 PUSH1 0x40 MSTORE CALLVALUE DUP1 ISZERO PUSH1 0xE JUMPI PUSH0 PUSH0 REVERT JUMPDEST POP PUSH2 0x2A4 DUP1 PUSH2 0x1C PUSH0 CODECOPY PUSH0 RETURN INVALID PUSH1 0x80 PUSH1 0x40 MSTORE CALLVALUE DUP1 ISZERO PUSH2 0xF JUMPI PUSH0 PUSH0 REVERT JUMPDEST POP PUSH1 0x4 CALLDATASIZE LT PUSH2 0x3F JUMPI PUSH0 CALLDATALOAD PUSH1 0xE0 SHR DUP1 PUSH4 0x95283731 EQ PUSH2 0x43 JUMPI DUP1 PUSH4 0xC48EB68C EQ PUSH2 0x73 JUMPI DUP1 PUSH4 0xC67F90E4 EQ PUSH2 0xA3 JUMPI JUMPDEST PUSH0 PUSH0 REVERT JUMPDEST PUSH2 0x5D PUSH1 0x4 DUP1 CALLDATASIZE SUB DUP2 ADD SWAP1 PUSH2 0x58 SWAP2 SWAP1 PUSH2 0x192 JUMP JUMPDEST PUSH2 0xBF JUMP JUMPDEST PUSH1 0x40 MLOAD PUSH2 0x6A SWAP2 SWAP1 PUSH2 0x1F1 JUMP JUMPDEST PUSH1 0x40 MLOAD DUP1 SWAP2 SUB SWAP1 RETURN JUMPDEST PUSH2 0x8D PUSH1 0x4 DUP1 CALLDATASIZE SUB DUP2 ADD SWAP1 PUSH2 0x88 SWAP2 SWAP1 PUSH2 0x192 JUMP JUMPDEST PUSH2 0xE9 JUMP JUMPDEST PUSH1 0x40 MLOAD PUSH2 0x9A SWAP2 SWAP1 PUSH2 0x1F1 JUMP JUMPDEST PUSH1 0x40 MLOAD DUP1 SWAP2 SUB SWAP1 RETURN JUMPDEST PUSH2 0xBD PUSH1 0x4 DUP1 CALLDATASIZE SUB DUP2 ADD SWAP1 PUSH2 0xB8 SWAP2 SWAP1 PUSH2 0x20A JUMP JUMPDEST PUSH2 0x122 JUMP JUMPDEST STOP JUMPDEST PUSH0 PUSH1 0x20 MSTORE DUP3 PUSH0 MSTORE PUSH1 0x40 PUSH0 KECCAK256 PUSH1 0x20 MSTORE DUP2 PUSH0 MSTORE PUSH1 0x40 PUSH0 KECCAK256 PUSH1 0x20 MSTORE DUP1 PUSH0 MSTORE PUSH1 0x40 PUSH0 KECCAK256 PUSH0 SWAP3 POP SWAP3 POP POP POP SLOAD DUP2 JUMP JUMPDEST PUSH0 PUSH0 PUSH0 DUP6 DUP2 MSTORE PUSH1 0x20 ADD SWAP1 DUP2 MSTORE PUSH1 0x20 ADD PUSH0 KECCAK256 PUSH0 DUP5 DUP2 MSTORE PUSH1 0x20 ADD SWAP1 DUP2 MSTORE PUSH1 0x20 ADD PUSH0 KECCAK256 PUSH0 DUP4 DUP2 MSTORE PUSH1 0x20 ADD SWAP1 DUP2 MSTORE PUSH1 0x20 ADD PUSH0 KECCAK256 SLOAD SWAP1 POP SWAP4 SWAP3 POP POP POP JUMP JUMPDEST DUP1 PUSH0 PUSH0 DUP7 DUP2 MSTORE PUSH1 0x20 ADD SWAP1 DUP2 MSTORE PUSH1 0x20 ADD PUSH0 KECCAK256 PUSH0 DUP6 DUP2 MSTORE PUSH1 0x20 ADD SWAP1 DUP2 MSTORE PUSH1 0x20 ADD PUSH0 KECCAK256 PUSH0 DUP5 DUP2 MSTORE PUSH1 0x20 ADD SWAP1 DUP2 MSTORE PUSH1 0x20 ADD PUSH0 KECCAK256 DUP2 SWAP1 SSTORE POP POP POP POP POP JUMP JUMPDEST PUSH0 PUSH0 REVERT JUMPDEST PUSH0 DUP2 SWAP1 POP SWAP2 SWAP1 POP JUMP JUMPDEST PUSH2 0x171 DUP2 PUSH2 0x15F JUMP JUMPDEST DUP2 EQ PUSH2 0x17B JUMPI PUSH0 PUSH0 REVERT JUMPDEST POP JUMP JUMPDEST PUSH0 DUP2 CALLDATALOAD SWAP1 POP PUSH2 0x18C DUP2 PUSH2 0x168 JUMP JUMPDEST SWAP3 SWAP2 POP POP JUMP JUMPDEST PUSH0 PUSH0 PUSH0 PUSH1 0x60 DUP5 DUP7 SUB SLT ISZERO PUSH2 0x1A9 JUMPI PUSH2 0x1A8 PUSH2 0x15B JUMP JUMPDEST JUMPDEST PUSH0 PUSH2 0x1B6 DUP7 DUP3 DUP8 ADD PUSH2 0x17E JUMP JUMPDEST SWAP4 POP POP PUSH1 0x20 PUSH2 0x1C7 DUP7 DUP3 DUP8 ADD PUSH2 0x17E JUMP JUMPDEST SWAP3 POP POP PUSH1 0x40 PUSH2 0x1D8 DUP7 DUP3 DUP8 ADD PUSH2 0x17E JUMP JUMPDEST SWAP2 POP POP SWAP3 POP SWAP3 POP SWAP3 JUMP JUMPDEST PUSH2 0x1EB DUP2 PUSH2 0x15F JUMP JUMPDEST DUP3 MSTORE POP POP JUMP JUMPDEST PUSH0 PUSH1 0x20 DUP3 ADD SWAP1 POP PUSH2 0x204 PUSH0 DUP4 ADD DUP5 PUSH2 0x1E2 JUMP JUMPDEST SWAP3 SWAP2 POP POP JUMP JUMPDEST PUSH0 PUSH0 PUSH0 PUSH0 PUSH1 0x80 DUP6 DUP8 SUB SLT ISZERO PUSH2 0x222 JUMPI PUSH2 0x221 PUSH2 0x15B JUMP JUMPDEST JUMPDEST PUSH0 PUSH2 0x22F DUP8 DUP3 DUP9 ADD PUSH2 0x17E JUMP JUMPDEST SWAP5 POP POP PUSH1 0x20 PUSH2 0x240 DUP8 DUP3 DUP9 ADD PUSH2 0x17E JUMP JUMPDEST SWAP4 POP POP PUSH1 0x40 PUSH2 0x251 DUP8 DUP3 DUP9 ADD PUSH2 0x17E JUMP JUMPDEST SWAP3 POP POP PUSH1 0x60 PUSH2 0x262 DUP8 DUP3 DUP9 ADD PUSH2 0x17E JUMP JUMPDEST SWAP2 POP POP SWAP3 SWAP6 SWAP2 SWAP5 POP SWAP3 POP JUMP INVALID LOG2 PUSH5 0x6970667358 0x22 SLT KECCAK256 0xD3 0xB6 DUP8 DELEGATECALL PUSH23 0x391675AF94288B71B425CCBCE2F3082D857BEF08DBB060 0xEA DUP7 SWAP1 DUP4 PUSH5 0x736F6C6343 STOP ADDMOD 0x22 STOP CALLER "
				},
				"gasEstimates": {
					"creation": {
						"codeDepositCost": "135200",
						"executionCost": "181",
						"totalCost": "135381"
					},
					"external": {
						"getElement(uint256,uint256,uint256)": "infinite",
						"setElement(uint256,uint256,uint256,uint256)": "infinite",
						"threeDArrayAlternative(uint256,uint256,uint256)": "infinite"
					}
				},
				"methodIdentifiers": {
					"getElement(uint256,uint256,uint256)": "c48eb68c",
					"setElement(uint256,uint256,uint256,uint256)": "c67f90e4",
					"threeDArrayAlternative(uint256,uint256,uint256)": "95283731"
				}
			},
			"storageLayout": {
				"storage": [
					{
						"astId": 9,
						"contract": "contracts/3.1/06MultiDimesionArray/ThreeDimesionAlternative.sol:ThreeDimesionAlternative",
						"label": "threeDArrayAlternative",
						"offset": 0,
						"slot": "0",
						"type": "t_mapping(t_uint256,t_mapping(t_uint256,t_mapping(t_uint256,t_uint256)))"
					}
				],
				"types": {
					"t_mapping(t_uint256,t_mapping(t_uint256,t_mapping(t_uint256,t_uint256)))": {
						"encoding": "mapping",
						"key": "t_uint256",
						"label": "mapping(uint256 => mapping(uint256 => mapping(uint256 => uint256)))",
						"numberOfBytes": "32",
						"value": "t_mapping(t_uint256,t_mapping(t_uint256,t_uint256))"
					},
					"t_mapping(t_uint256,t_mapping(t_uint256,t_uint256))": {
						"encoding": "mapping",
						"key": "t_uint256",
						"label": "mapping(uint256 => mapping(uint256 => uint256))",
						"numberOfBytes": "32",
						"value": "t_mapping(t_uint256,t_uint256)"
					},
					"t_mapping(t_uint256,t_uint256)": {
						"encoding": "mapping",
						"key": "t_uint256",
						"label": "mapping(uint256 => uint256)",
						"numberOfBytes": "32",
						"value": "t_uint256"
					},
					"t_uint256": {
						"encoding": "inplace",
						"label": "uint256",
						"numberOfBytes": "32"
					}
				}
			},
			"userdoc": {
				"kind": "user",
				"methods": {},
				"version": 1
			}
		}
	}
}