{
	"contracts/GetSumSolidity.sol": {
		"GetSumSolidity": {
			"abi": [
				{
					"inputs": [
						{
							"internalType": "uint256[]",
							"name": "data",
							"type": "uint256[]"
						}
					],
					"name": "getSumCalldata",
					"outputs": [
						{
							"internalType": "uint256",
							"name": "",
							"type": "uint256"
						}
					],
					"stateMutability": "pure",
					"type": "function"
				},
				{
					"inputs": [
						{
							"internalType": "uint256[]",
							"name": "data",
							"type": "uint256[]"
						}
					],
					"name": "getSumMemory",
					"outputs": [
						{
							"internalType": "uint256",
							"name": "",
							"type": "uint256"
						}
					],
					"stateMutability": "pure",
					"type": "function"
				}
			],
			"devdoc": {
				"kind": "dev",
				"methods": {},
				"version": 1
			},
			"evm": {
				"assembly": "    /* \"contracts/GetSumSolidity.sol\":58:547  contract GetSumSolidity{... */\n  mstore(0x40, 0x80)\n  callvalue\n  dup1\n  iszero\n  tag_1\n  jumpi\n  revert(0x00, 0x00)\ntag_1:\n  pop\n  dataSize(sub_0)\n  dup1\n  dataOffset(sub_0)\n  0x00\n  codecopy\n  0x00\n  return\nstop\n\nsub_0: assembly {\n        /* \"contracts/GetSumSolidity.sol\":58:547  contract GetSumSolidity{... */\n      mstore(0x40, 0x80)\n      callvalue\n      dup1\n      iszero\n      tag_1\n      jumpi\n      revert(0x00, 0x00)\n    tag_1:\n      pop\n      jumpi(tag_2, lt(calldatasize, 0x04))\n      shr(0xe0, calldataload(0x00))\n      dup1\n      0x21beefa8\n      eq\n      tag_3\n      jumpi\n      dup1\n      0x91576157\n      eq\n      tag_4\n      jumpi\n    tag_2:\n      revert(0x00, 0x00)\n        /* \"contracts/GetSumSolidity.sol\":339:544  function getSumCalldata(uint[] calldata data) public pure returns (uint){... */\n    tag_3:\n      tag_5\n      0x04\n      dup1\n      calldatasize\n      sub\n      dup2\n      add\n      swap1\n      tag_6\n      swap2\n      swap1\n      tag_7\n      jump\t// in\n    tag_6:\n      tag_8\n      jump\t// in\n    tag_5:\n      mload(0x40)\n      tag_9\n      swap2\n      swap1\n      tag_10\n      jump\t// in\n    tag_9:\n      mload(0x40)\n      dup1\n      swap2\n      sub\n      swap1\n      return\n        /* \"contracts/GetSumSolidity.sol\":108:309  function getSumMemory(uint[] memory data) public pure returns (uint){... */\n    tag_4:\n      tag_11\n      0x04\n      dup1\n      calldatasize\n      sub\n      dup2\n      add\n      swap1\n      tag_12\n      swap2\n      swap1\n      tag_13\n      jump\t// in\n    tag_12:\n      tag_14\n      jump\t// in\n    tag_11:\n      mload(0x40)\n      tag_15\n      swap2\n      swap1\n      tag_10\n      jump\t// in\n    tag_15:\n      mload(0x40)\n      dup1\n      swap2\n      sub\n      swap1\n      return\n        /* \"contracts/GetSumSolidity.sol\":339:544  function getSumCalldata(uint[] calldata data) public pure returns (uint){... */\n    tag_8:\n        /* \"contracts/GetSumSolidity.sol\":406:410  uint */\n      0x00\n        /* \"contracts/GetSumSolidity.sol\":422:430  uint sum */\n      0x00\n        /* \"contracts/GetSumSolidity.sol\":431:432  0 */\n      0x00\n        /* \"contracts/GetSumSolidity.sol\":422:432  uint sum=0 */\n      swap1\n      pop\n        /* \"contracts/GetSumSolidity.sol\":447:453  uint i */\n      0x00\n        /* \"contracts/GetSumSolidity.sol\":454:455  0 */\n      0x00\n        /* \"contracts/GetSumSolidity.sol\":447:455  uint i=0 */\n      swap1\n      pop\n        /* \"contracts/GetSumSolidity.sol\":443:516  for(uint i=0;i<data.length;i++){... */\n    tag_17:\n        /* \"contracts/GetSumSolidity.sol\":458:462  data */\n      dup5\n      dup5\n        /* \"contracts/GetSumSolidity.sol\":458:469  data.length */\n      swap1\n      pop\n        /* \"contracts/GetSumSolidity.sol\":456:457  i */\n      dup2\n        /* \"contracts/GetSumSolidity.sol\":456:469  i<data.length */\n      lt\n        /* \"contracts/GetSumSolidity.sol\":443:516  for(uint i=0;i<data.length;i++){... */\n      iszero\n      tag_18\n      jumpi\n        /* \"contracts/GetSumSolidity.sol\":497:501  data */\n      dup5\n      dup5\n        /* \"contracts/GetSumSolidity.sol\":502:503  i */\n      dup3\n        /* \"contracts/GetSumSolidity.sol\":497:504  data[i] */\n      dup2\n      dup2\n      lt\n      tag_20\n      jumpi\n      tag_21\n      tag_22\n      jump\t// in\n    tag_21:\n    tag_20:\n      swap1\n      pop\n      0x20\n      mul\n      add\n      calldataload\n        /* \"contracts/GetSumSolidity.sol\":493:496  sum */\n      dup3\n        /* \"contracts/GetSumSolidity.sol\":493:504  sum+data[i] */\n      tag_23\n      swap2\n      swap1\n      tag_24\n      jump\t// in\n    tag_23:\n        /* \"contracts/GetSumSolidity.sol\":489:504  sum=sum+data[i] */\n      swap2\n      pop\n        /* \"contracts/GetSumSolidity.sol\":470:473  i++ */\n      dup1\n      dup1\n      0x01\n      add\n      swap2\n      pop\n      pop\n        /* \"contracts/GetSumSolidity.sol\":443:516  for(uint i=0;i<data.length;i++){... */\n      jump(tag_17)\n    tag_18:\n      pop\n        /* \"contracts/GetSumSolidity.sol\":533:536  sum */\n      dup1\n        /* \"contracts/GetSumSolidity.sol\":526:536  return sum */\n      swap2\n      pop\n      pop\n        /* \"contracts/GetSumSolidity.sol\":339:544  function getSumCalldata(uint[] calldata data) public pure returns (uint){... */\n      swap3\n      swap2\n      pop\n      pop\n      jump\t// out\n        /* \"contracts/GetSumSolidity.sol\":108:309  function getSumMemory(uint[] memory data) public pure returns (uint){... */\n    tag_14:\n        /* \"contracts/GetSumSolidity.sol\":171:175  uint */\n      0x00\n        /* \"contracts/GetSumSolidity.sol\":187:195  uint sum */\n      0x00\n        /* \"contracts/GetSumSolidity.sol\":196:197  0 */\n      0x00\n        /* \"contracts/GetSumSolidity.sol\":187:197  uint sum=0 */\n      swap1\n      pop\n        /* \"contracts/GetSumSolidity.sol\":212:218  uint i */\n      0x00\n        /* \"contracts/GetSumSolidity.sol\":219:220  0 */\n      0x00\n        /* \"contracts/GetSumSolidity.sol\":212:220  uint i=0 */\n      swap1\n      pop\n        /* \"contracts/GetSumSolidity.sol\":208:281  for(uint i=0;i<data.length;i++){... */\n    tag_26:\n        /* \"contracts/GetSumSolidity.sol\":223:227  data */\n      dup4\n        /* \"contracts/GetSumSolidity.sol\":223:234  data.length */\n      mload\n        /* \"contracts/GetSumSolidity.sol\":221:222  i */\n      dup2\n        /* \"contracts/GetSumSolidity.sol\":221:234  i<data.length */\n      lt\n        /* \"contracts/GetSumSolidity.sol\":208:281  for(uint i=0;i<data.length;i++){... */\n      iszero\n      tag_27\n      jumpi\n        /* \"contracts/GetSumSolidity.sol\":262:266  data */\n      dup4\n        /* \"contracts/GetSumSolidity.sol\":267:268  i */\n      dup2\n        /* \"contracts/GetSumSolidity.sol\":262:269  data[i] */\n      dup2\n      mload\n      dup2\n      lt\n      tag_29\n      jumpi\n      tag_30\n      tag_22\n      jump\t// in\n    tag_30:\n    tag_29:\n      0x20\n      mul\n      0x20\n      add\n      add\n      mload\n        /* \"contracts/GetSumSolidity.sol\":258:261  sum */\n      dup3\n        /* \"contracts/GetSumSolidity.sol\":258:269  sum+data[i] */\n      tag_31\n      swap2\n      swap1\n      tag_24\n      jump\t// in\n    tag_31:\n        /* \"contracts/GetSumSolidity.sol\":254:269  sum=sum+data[i] */\n      swap2\n      pop\n        /* \"contracts/GetSumSolidity.sol\":235:238  i++ */\n      dup1\n      dup1\n      0x01\n      add\n      swap2\n      pop\n      pop\n        /* \"contracts/GetSumSolidity.sol\":208:281  for(uint i=0;i<data.length;i++){... */\n      jump(tag_26)\n    tag_27:\n      pop\n        /* \"contracts/GetSumSolidity.sol\":298:301  sum */\n      dup1\n        /* \"contracts/GetSumSolidity.sol\":291:301  return sum */\n      swap2\n      pop\n      pop\n        /* \"contracts/GetSumSolidity.sol\":108:309  function getSumMemory(uint[] memory data) public pure returns (uint){... */\n      swap2\n      swap1\n      pop\n      jump\t// out\n        /* \"#utility.yul\":7:82   */\n    tag_32:\n        /* \"#utility.yul\":40:46   */\n      0x00\n        /* \"#utility.yul\":73:75   */\n      0x40\n        /* \"#utility.yul\":67:76   */\n      mload\n        /* \"#utility.yul\":57:76   */\n      swap1\n      pop\n        /* \"#utility.yul\":7:82   */\n      swap1\n      jump\t// out\n        /* \"#utility.yul\":88:205   */\n    tag_33:\n        /* \"#utility.yul\":197:198   */\n      0x00\n        /* \"#utility.yul\":194:195   */\n      0x00\n        /* \"#utility.yul\":187:199   */\n      revert\n        /* \"#utility.yul\":211:328   */\n    tag_34:\n        /* \"#utility.yul\":320:321   */\n      0x00\n        /* \"#utility.yul\":317:318   */\n      0x00\n        /* \"#utility.yul\":310:322   */\n      revert\n        /* \"#utility.yul\":334:451   */\n    tag_35:\n        /* \"#utility.yul\":443:444   */\n      0x00\n        /* \"#utility.yul\":440:441   */\n      0x00\n        /* \"#utility.yul\":433:445   */\n      revert\n        /* \"#utility.yul\":457:574   */\n    tag_36:\n        /* \"#utility.yul\":566:567   */\n      0x00\n        /* \"#utility.yul\":563:564   */\n      0x00\n        /* \"#utility.yul\":556:568   */\n      revert\n        /* \"#utility.yul\":580:697   */\n    tag_37:\n        /* \"#utility.yul\":689:690   */\n      0x00\n        /* \"#utility.yul\":686:687   */\n      0x00\n        /* \"#utility.yul\":679:691   */\n      revert\n        /* \"#utility.yul\":720:1288   */\n    tag_38:\n        /* \"#utility.yul\":793:801   */\n      0x00\n        /* \"#utility.yul\":803:809   */\n      0x00\n        /* \"#utility.yul\":853:856   */\n      dup4\n        /* \"#utility.yul\":846:850   */\n      0x1f\n        /* \"#utility.yul\":838:844   */\n      dup5\n        /* \"#utility.yul\":834:851   */\n      add\n        /* \"#utility.yul\":830:857   */\n      slt\n        /* \"#utility.yul\":820:942   */\n      tag_59\n      jumpi\n        /* \"#utility.yul\":861:940   */\n      tag_60\n      tag_35\n      jump\t// in\n    tag_60:\n        /* \"#utility.yul\":820:942   */\n    tag_59:\n        /* \"#utility.yul\":974:980   */\n      dup3\n        /* \"#utility.yul\":961:981   */\n      calldataload\n        /* \"#utility.yul\":951:981   */\n      swap1\n      pop\n        /* \"#utility.yul\":1004:1022   */\n      0xffffffffffffffff\n        /* \"#utility.yul\":996:1002   */\n      dup2\n        /* \"#utility.yul\":993:1023   */\n      gt\n        /* \"#utility.yul\":990:1107   */\n      iszero\n      tag_61\n      jumpi\n        /* \"#utility.yul\":1026:1105   */\n      tag_62\n      tag_36\n      jump\t// in\n    tag_62:\n        /* \"#utility.yul\":990:1107   */\n    tag_61:\n        /* \"#utility.yul\":1140:1144   */\n      0x20\n        /* \"#utility.yul\":1132:1138   */\n      dup4\n        /* \"#utility.yul\":1128:1145   */\n      add\n        /* \"#utility.yul\":1116:1145   */\n      swap2\n      pop\n        /* \"#utility.yul\":1194:1197   */\n      dup4\n        /* \"#utility.yul\":1186:1190   */\n      0x20\n        /* \"#utility.yul\":1178:1184   */\n      dup3\n        /* \"#utility.yul\":1174:1191   */\n      mul\n        /* \"#utility.yul\":1164:1172   */\n      dup4\n        /* \"#utility.yul\":1160:1192   */\n      add\n        /* \"#utility.yul\":1157:1198   */\n      gt\n        /* \"#utility.yul\":1154:1282   */\n      iszero\n      tag_63\n      jumpi\n        /* \"#utility.yul\":1201:1280   */\n      tag_64\n      tag_37\n      jump\t// in\n    tag_64:\n        /* \"#utility.yul\":1154:1282   */\n    tag_63:\n        /* \"#utility.yul\":720:1288   */\n      swap3\n      pop\n      swap3\n      swap1\n      pop\n      jump\t// out\n        /* \"#utility.yul\":1294:1853   */\n    tag_7:\n        /* \"#utility.yul\":1380:1386   */\n      0x00\n        /* \"#utility.yul\":1388:1394   */\n      0x00\n        /* \"#utility.yul\":1437:1439   */\n      0x20\n        /* \"#utility.yul\":1425:1434   */\n      dup4\n        /* \"#utility.yul\":1416:1423   */\n      dup6\n        /* \"#utility.yul\":1412:1435   */\n      sub\n        /* \"#utility.yul\":1408:1440   */\n      slt\n        /* \"#utility.yul\":1405:1524   */\n      iszero\n      tag_66\n      jumpi\n        /* \"#utility.yul\":1443:1522   */\n      tag_67\n      tag_33\n      jump\t// in\n    tag_67:\n        /* \"#utility.yul\":1405:1524   */\n    tag_66:\n        /* \"#utility.yul\":1591:1592   */\n      0x00\n        /* \"#utility.yul\":1580:1589   */\n      dup4\n        /* \"#utility.yul\":1576:1593   */\n      add\n        /* \"#utility.yul\":1563:1594   */\n      calldataload\n        /* \"#utility.yul\":1621:1639   */\n      0xffffffffffffffff\n        /* \"#utility.yul\":1613:1619   */\n      dup2\n        /* \"#utility.yul\":1610:1640   */\n      gt\n        /* \"#utility.yul\":1607:1724   */\n      iszero\n      tag_68\n      jumpi\n        /* \"#utility.yul\":1643:1722   */\n      tag_69\n      tag_34\n      jump\t// in\n    tag_69:\n        /* \"#utility.yul\":1607:1724   */\n    tag_68:\n        /* \"#utility.yul\":1756:1836   */\n      tag_70\n        /* \"#utility.yul\":1828:1835   */\n      dup6\n        /* \"#utility.yul\":1819:1825   */\n      dup3\n        /* \"#utility.yul\":1808:1817   */\n      dup7\n        /* \"#utility.yul\":1804:1826   */\n      add\n        /* \"#utility.yul\":1756:1836   */\n      tag_38\n      jump\t// in\n    tag_70:\n        /* \"#utility.yul\":1738:1836   */\n      swap3\n      pop\n      swap3\n      pop\n        /* \"#utility.yul\":1534:1846   */\n      pop\n        /* \"#utility.yul\":1294:1853   */\n      swap3\n      pop\n      swap3\n      swap1\n      pop\n      jump\t// out\n        /* \"#utility.yul\":1859:1936   */\n    tag_39:\n        /* \"#utility.yul\":1896:1903   */\n      0x00\n        /* \"#utility.yul\":1925:1930   */\n      dup2\n        /* \"#utility.yul\":1914:1930   */\n      swap1\n      pop\n        /* \"#utility.yul\":1859:1936   */\n      swap2\n      swap1\n      pop\n      jump\t// out\n        /* \"#utility.yul\":1942:2060   */\n    tag_40:\n        /* \"#utility.yul\":2029:2053   */\n      tag_73\n        /* \"#utility.yul\":2047:2052   */\n      dup2\n        /* \"#utility.yul\":2029:2053   */\n      tag_39\n      jump\t// in\n    tag_73:\n        /* \"#utility.yul\":2024:2027   */\n      dup3\n        /* \"#utility.yul\":2017:2054   */\n      mstore\n        /* \"#utility.yul\":1942:2060   */\n      pop\n      pop\n      jump\t// out\n        /* \"#utility.yul\":2066:2288   */\n    tag_10:\n        /* \"#utility.yul\":2159:2163   */\n      0x00\n        /* \"#utility.yul\":2197:2199   */\n      0x20\n        /* \"#utility.yul\":2186:2195   */\n      dup3\n        /* \"#utility.yul\":2182:2200   */\n      add\n        /* \"#utility.yul\":2174:2200   */\n      swap1\n      pop\n        /* \"#utility.yul\":2210:2281   */\n      tag_75\n        /* \"#utility.yul\":2278:2279   */\n      0x00\n        /* \"#utility.yul\":2267:2276   */\n      dup4\n        /* \"#utility.yul\":2263:2280   */\n      add\n        /* \"#utility.yul\":2254:2260   */\n      dup5\n        /* \"#utility.yul\":2210:2281   */\n      tag_40\n      jump\t// in\n    tag_75:\n        /* \"#utility.yul\":2066:2288   */\n      swap3\n      swap2\n      pop\n      pop\n      jump\t// out\n        /* \"#utility.yul\":2294:2396   */\n    tag_41:\n        /* \"#utility.yul\":2335:2341   */\n      0x00\n        /* \"#utility.yul\":2386:2388   */\n      0x1f\n        /* \"#utility.yul\":2382:2389   */\n      not\n        /* \"#utility.yul\":2377:2379   */\n      0x1f\n        /* \"#utility.yul\":2370:2375   */\n      dup4\n        /* \"#utility.yul\":2366:2380   */\n      add\n        /* \"#utility.yul\":2362:2390   */\n      and\n        /* \"#utility.yul\":2352:2390   */\n      swap1\n      pop\n        /* \"#utility.yul\":2294:2396   */\n      swap2\n      swap1\n      pop\n      jump\t// out\n        /* \"#utility.yul\":2402:2582   */\n    tag_42:\n        /* \"#utility.yul\":2450:2527   */\n      0x4e487b7100000000000000000000000000000000000000000000000000000000\n        /* \"#utility.yul\":2447:2448   */\n      0x00\n        /* \"#utility.yul\":2440:2528   */\n      mstore\n        /* \"#utility.yul\":2547:2551   */\n      0x41\n        /* \"#utility.yul\":2544:2545   */\n      0x04\n        /* \"#utility.yul\":2537:2552   */\n      mstore\n        /* \"#utility.yul\":2571:2575   */\n      0x24\n        /* \"#utility.yul\":2568:2569   */\n      0x00\n        /* \"#utility.yul\":2561:2576   */\n      revert\n        /* \"#utility.yul\":2588:2869   */\n    tag_43:\n        /* \"#utility.yul\":2671:2698   */\n      tag_79\n        /* \"#utility.yul\":2693:2697   */\n      dup3\n        /* \"#utility.yul\":2671:2698   */\n      tag_41\n      jump\t// in\n    tag_79:\n        /* \"#utility.yul\":2663:2669   */\n      dup2\n        /* \"#utility.yul\":2659:2699   */\n      add\n        /* \"#utility.yul\":2801:2807   */\n      dup2\n        /* \"#utility.yul\":2789:2799   */\n      dup2\n        /* \"#utility.yul\":2786:2808   */\n      lt\n        /* \"#utility.yul\":2765:2783   */\n      0xffffffffffffffff\n        /* \"#utility.yul\":2753:2763   */\n      dup3\n        /* \"#utility.yul\":2750:2784   */\n      gt\n        /* \"#utility.yul\":2747:2809   */\n      or\n        /* \"#utility.yul\":2744:2832   */\n      iszero\n      tag_80\n      jumpi\n        /* \"#utility.yul\":2812:2830   */\n      tag_81\n      tag_42\n      jump\t// in\n    tag_81:\n        /* \"#utility.yul\":2744:2832   */\n    tag_80:\n        /* \"#utility.yul\":2852:2862   */\n      dup1\n        /* \"#utility.yul\":2848:2850   */\n      0x40\n        /* \"#utility.yul\":2841:2863   */\n      mstore\n        /* \"#utility.yul\":2631:2869   */\n      pop\n        /* \"#utility.yul\":2588:2869   */\n      pop\n      pop\n      jump\t// out\n        /* \"#utility.yul\":2875:3004   */\n    tag_44:\n        /* \"#utility.yul\":2909:2915   */\n      0x00\n        /* \"#utility.yul\":2936:2956   */\n      tag_83\n      tag_32\n      jump\t// in\n    tag_83:\n        /* \"#utility.yul\":2926:2956   */\n      swap1\n      pop\n        /* \"#utility.yul\":2965:2998   */\n      tag_84\n        /* \"#utility.yul\":2993:2997   */\n      dup3\n        /* \"#utility.yul\":2985:2991   */\n      dup3\n        /* \"#utility.yul\":2965:2998   */\n      tag_43\n      jump\t// in\n    tag_84:\n        /* \"#utility.yul\":2875:3004   */\n      swap2\n      swap1\n      pop\n      jump\t// out\n        /* \"#utility.yul\":3010:3321   */\n    tag_45:\n        /* \"#utility.yul\":3087:3091   */\n      0x00\n        /* \"#utility.yul\":3177:3195   */\n      0xffffffffffffffff\n        /* \"#utility.yul\":3169:3175   */\n      dup3\n        /* \"#utility.yul\":3166:3196   */\n      gt\n        /* \"#utility.yul\":3163:3219   */\n      iszero\n      tag_86\n      jumpi\n        /* \"#utility.yul\":3199:3217   */\n      tag_87\n      tag_42\n      jump\t// in\n    tag_87:\n        /* \"#utility.yul\":3163:3219   */\n    tag_86:\n        /* \"#utility.yul\":3249:3253   */\n      0x20\n        /* \"#utility.yul\":3241:3247   */\n      dup3\n        /* \"#utility.yul\":3237:3254   */\n      mul\n        /* \"#utility.yul\":3229:3254   */\n      swap1\n      pop\n        /* \"#utility.yul\":3309:3313   */\n      0x20\n        /* \"#utility.yul\":3303:3307   */\n      dup2\n        /* \"#utility.yul\":3299:3314   */\n      add\n        /* \"#utility.yul\":3291:3314   */\n      swap1\n      pop\n        /* \"#utility.yul\":3010:3321   */\n      swap2\n      swap1\n      pop\n      jump\t// out\n        /* \"#utility.yul\":3327:3449   */\n    tag_46:\n        /* \"#utility.yul\":3400:3424   */\n      tag_89\n        /* \"#utility.yul\":3418:3423   */\n      dup2\n        /* \"#utility.yul\":3400:3424   */\n      tag_39\n      jump\t// in\n    tag_89:\n        /* \"#utility.yul\":3393:3398   */\n      dup2\n        /* \"#utility.yul\":3390:3425   */\n      eq\n        /* \"#utility.yul\":3380:3443   */\n      tag_90\n      jumpi\n        /* \"#utility.yul\":3439:3440   */\n      0x00\n        /* \"#utility.yul\":3436:3437   */\n      0x00\n        /* \"#utility.yul\":3429:3441   */\n      revert\n        /* \"#utility.yul\":3380:3443   */\n    tag_90:\n        /* \"#utility.yul\":3327:3449   */\n      pop\n      jump\t// out\n        /* \"#utility.yul\":3455:3594   */\n    tag_47:\n        /* \"#utility.yul\":3501:3506   */\n      0x00\n        /* \"#utility.yul\":3539:3545   */\n      dup2\n        /* \"#utility.yul\":3526:3546   */\n      calldataload\n        /* \"#utility.yul\":3517:3546   */\n      swap1\n      pop\n        /* \"#utility.yul\":3555:3588   */\n      tag_92\n        /* \"#utility.yul\":3582:3587   */\n      dup2\n        /* \"#utility.yul\":3555:3588   */\n      tag_46\n      jump\t// in\n    tag_92:\n        /* \"#utility.yul\":3455:3594   */\n      swap3\n      swap2\n      pop\n      pop\n      jump\t// out\n        /* \"#utility.yul\":3617:4327   */\n    tag_48:\n        /* \"#utility.yul\":3713:3718   */\n      0x00\n        /* \"#utility.yul\":3738:3819   */\n      tag_94\n        /* \"#utility.yul\":3754:3818   */\n      tag_95\n        /* \"#utility.yul\":3811:3817   */\n      dup5\n        /* \"#utility.yul\":3754:3818   */\n      tag_45\n      jump\t// in\n    tag_95:\n        /* \"#utility.yul\":3738:3819   */\n      tag_44\n      jump\t// in\n    tag_94:\n        /* \"#utility.yul\":3729:3819   */\n      swap1\n      pop\n        /* \"#utility.yul\":3839:3844   */\n      dup1\n        /* \"#utility.yul\":3868:3874   */\n      dup4\n        /* \"#utility.yul\":3861:3866   */\n      dup3\n        /* \"#utility.yul\":3854:3875   */\n      mstore\n        /* \"#utility.yul\":3902:3906   */\n      0x20\n        /* \"#utility.yul\":3895:3900   */\n      dup3\n        /* \"#utility.yul\":3891:3907   */\n      add\n        /* \"#utility.yul\":3884:3907   */\n      swap1\n      pop\n        /* \"#utility.yul\":3955:3959   */\n      0x20\n        /* \"#utility.yul\":3947:3953   */\n      dup5\n        /* \"#utility.yul\":3943:3960   */\n      mul\n        /* \"#utility.yul\":3935:3941   */\n      dup4\n        /* \"#utility.yul\":3931:3961   */\n      add\n        /* \"#utility.yul\":3984:3987   */\n      dup6\n        /* \"#utility.yul\":3976:3982   */\n      dup2\n        /* \"#utility.yul\":3973:3988   */\n      gt\n        /* \"#utility.yul\":3970:4092   */\n      iszero\n      tag_96\n      jumpi\n        /* \"#utility.yul\":4003:4082   */\n      tag_97\n      tag_37\n      jump\t// in\n    tag_97:\n        /* \"#utility.yul\":3970:4092   */\n    tag_96:\n        /* \"#utility.yul\":4118:4124   */\n      dup4\n        /* \"#utility.yul\":4101:4321   */\n    tag_98:\n        /* \"#utility.yul\":4135:4141   */\n      dup2\n        /* \"#utility.yul\":4130:4133   */\n      dup2\n        /* \"#utility.yul\":4127:4142   */\n      lt\n        /* \"#utility.yul\":4101:4321   */\n      iszero\n      tag_100\n      jumpi\n        /* \"#utility.yul\":4210:4213   */\n      dup1\n        /* \"#utility.yul\":4239:4276   */\n      tag_101\n        /* \"#utility.yul\":4272:4275   */\n      dup9\n        /* \"#utility.yul\":4260:4270   */\n      dup3\n        /* \"#utility.yul\":4239:4276   */\n      tag_47\n      jump\t// in\n    tag_101:\n        /* \"#utility.yul\":4234:4237   */\n      dup5\n        /* \"#utility.yul\":4227:4277   */\n      mstore\n        /* \"#utility.yul\":4306:4310   */\n      0x20\n        /* \"#utility.yul\":4301:4304   */\n      dup5\n        /* \"#utility.yul\":4297:4311   */\n      add\n        /* \"#utility.yul\":4290:4311   */\n      swap4\n      pop\n        /* \"#utility.yul\":4177:4321   */\n      pop\n        /* \"#utility.yul\":4161:4165   */\n      0x20\n        /* \"#utility.yul\":4156:4159   */\n      dup2\n        /* \"#utility.yul\":4152:4166   */\n      add\n        /* \"#utility.yul\":4145:4166   */\n      swap1\n      pop\n        /* \"#utility.yul\":4101:4321   */\n      jump(tag_98)\n    tag_100:\n        /* \"#utility.yul\":4105:4126   */\n      pop\n        /* \"#utility.yul\":3719:4327   */\n      pop\n      pop\n        /* \"#utility.yul\":3617:4327   */\n      swap4\n      swap3\n      pop\n      pop\n      pop\n      jump\t// out\n        /* \"#utility.yul\":4350:4720   */\n    tag_49:\n        /* \"#utility.yul\":4421:4426   */\n      0x00\n        /* \"#utility.yul\":4470:4473   */\n      dup3\n        /* \"#utility.yul\":4463:4467   */\n      0x1f\n        /* \"#utility.yul\":4455:4461   */\n      dup4\n        /* \"#utility.yul\":4451:4468   */\n      add\n        /* \"#utility.yul\":4447:4474   */\n      slt\n        /* \"#utility.yul\":4437:4559   */\n      tag_103\n      jumpi\n        /* \"#utility.yul\":4478:4557   */\n      tag_104\n      tag_35\n      jump\t// in\n    tag_104:\n        /* \"#utility.yul\":4437:4559   */\n    tag_103:\n        /* \"#utility.yul\":4595:4601   */\n      dup2\n        /* \"#utility.yul\":4582:4602   */\n      calldataload\n        /* \"#utility.yul\":4620:4714   */\n      tag_105\n        /* \"#utility.yul\":4710:4713   */\n      dup5\n        /* \"#utility.yul\":4702:4708   */\n      dup3\n        /* \"#utility.yul\":4695:4699   */\n      0x20\n        /* \"#utility.yul\":4687:4693   */\n      dup7\n        /* \"#utility.yul\":4683:4700   */\n      add\n        /* \"#utility.yul\":4620:4714   */\n      tag_48\n      jump\t// in\n    tag_105:\n        /* \"#utility.yul\":4611:4714   */\n      swap2\n      pop\n        /* \"#utility.yul\":4427:4720   */\n      pop\n        /* \"#utility.yul\":4350:4720   */\n      swap3\n      swap2\n      pop\n      pop\n      jump\t// out\n        /* \"#utility.yul\":4726:5265   */\n    tag_13:\n        /* \"#utility.yul\":4810:4816   */\n      0x00\n        /* \"#utility.yul\":4859:4861   */\n      0x20\n        /* \"#utility.yul\":4847:4856   */\n      dup3\n        /* \"#utility.yul\":4838:4845   */\n      dup5\n        /* \"#utility.yul\":4834:4857   */\n      sub\n        /* \"#utility.yul\":4830:4862   */\n      slt\n        /* \"#utility.yul\":4827:4946   */\n      iszero\n      tag_107\n      jumpi\n        /* \"#utility.yul\":4865:4944   */\n      tag_108\n      tag_33\n      jump\t// in\n    tag_108:\n        /* \"#utility.yul\":4827:4946   */\n    tag_107:\n        /* \"#utility.yul\":5013:5014   */\n      0x00\n        /* \"#utility.yul\":5002:5011   */\n      dup3\n        /* \"#utility.yul\":4998:5015   */\n      add\n        /* \"#utility.yul\":4985:5016   */\n      calldataload\n        /* \"#utility.yul\":5043:5061   */\n      0xffffffffffffffff\n        /* \"#utility.yul\":5035:5041   */\n      dup2\n        /* \"#utility.yul\":5032:5062   */\n      gt\n        /* \"#utility.yul\":5029:5146   */\n      iszero\n      tag_109\n      jumpi\n        /* \"#utility.yul\":5065:5144   */\n      tag_110\n      tag_34\n      jump\t// in\n    tag_110:\n        /* \"#utility.yul\":5029:5146   */\n    tag_109:\n        /* \"#utility.yul\":5170:5248   */\n      tag_111\n        /* \"#utility.yul\":5240:5247   */\n      dup5\n        /* \"#utility.yul\":5231:5237   */\n      dup3\n        /* \"#utility.yul\":5220:5229   */\n      dup6\n        /* \"#utility.yul\":5216:5238   */\n      add\n        /* \"#utility.yul\":5170:5248   */\n      tag_49\n      jump\t// in\n    tag_111:\n        /* \"#utility.yul\":5160:5248   */\n      swap2\n      pop\n        /* \"#utility.yul\":4956:5258   */\n      pop\n        /* \"#utility.yul\":4726:5265   */\n      swap3\n      swap2\n      pop\n      pop\n      jump\t// out\n        /* \"#utility.yul\":5271:5451   */\n    tag_22:\n        /* \"#utility.yul\":5319:5396   */\n      0x4e487b7100000000000000000000000000000000000000000000000000000000\n        /* \"#utility.yul\":5316:5317   */\n      0x00\n        /* \"#utility.yul\":5309:5397   */\n      mstore\n        /* \"#utility.yul\":5416:5420   */\n      0x32\n        /* \"#utility.yul\":5413:5414   */\n      0x04\n        /* \"#utility.yul\":5406:5421   */\n      mstore\n        /* \"#utility.yul\":5440:5444   */\n      0x24\n        /* \"#utility.yul\":5437:5438   */\n      0x00\n        /* \"#utility.yul\":5430:5445   */\n      revert\n        /* \"#utility.yul\":5457:5637   */\n    tag_50:\n        /* \"#utility.yul\":5505:5582   */\n      0x4e487b7100000000000000000000000000000000000000000000000000000000\n        /* \"#utility.yul\":5502:5503   */\n      0x00\n        /* \"#utility.yul\":5495:5583   */\n      mstore\n        /* \"#utility.yul\":5602:5606   */\n      0x11\n        /* \"#utility.yul\":5599:5600   */\n      0x04\n        /* \"#utility.yul\":5592:5607   */\n      mstore\n        /* \"#utility.yul\":5626:5630   */\n      0x24\n        /* \"#utility.yul\":5623:5624   */\n      0x00\n        /* \"#utility.yul\":5616:5631   */\n      revert\n        /* \"#utility.yul\":5643:5834   */\n    tag_24:\n        /* \"#utility.yul\":5683:5686   */\n      0x00\n        /* \"#utility.yul\":5702:5722   */\n      tag_115\n        /* \"#utility.yul\":5720:5721   */\n      dup3\n        /* \"#utility.yul\":5702:5722   */\n      tag_39\n      jump\t// in\n    tag_115:\n        /* \"#utility.yul\":5697:5722   */\n      swap2\n      pop\n        /* \"#utility.yul\":5736:5756   */\n      tag_116\n        /* \"#utility.yul\":5754:5755   */\n      dup4\n        /* \"#utility.yul\":5736:5756   */\n      tag_39\n      jump\t// in\n    tag_116:\n        /* \"#utility.yul\":5731:5756   */\n      swap3\n      pop\n        /* \"#utility.yul\":5779:5780   */\n      dup3\n        /* \"#utility.yul\":5776:5777   */\n      dup3\n        /* \"#utility.yul\":5772:5781   */\n      add\n        /* \"#utility.yul\":5765:5781   */\n      swap1\n      pop\n        /* \"#utility.yul\":5800:5803   */\n      dup1\n        /* \"#utility.yul\":5797:5798   */\n      dup3\n        /* \"#utility.yul\":5794:5804   */\n      gt\n        /* \"#utility.yul\":5791:5827   */\n      iszero\n      tag_117\n      jumpi\n        /* \"#utility.yul\":5807:5825   */\n      tag_118\n      tag_50\n      jump\t// in\n    tag_118:\n        /* \"#utility.yul\":5791:5827   */\n    tag_117:\n        /* \"#utility.yul\":5643:5834   */\n      swap3\n      swap2\n      pop\n      pop\n      jump\t// out\n\n    auxdata: 0xa2646970667358221220142920332722f466674c197032eb5aedd49718ded148ea75c2a690ff2e34f6b364736f6c63430008220033\n}\n",
				"bytecode": {
					"linkReferences": {},
					"object": "6080604052348015600e575f5ffd5b506104a88061001c5f395ff3fe608060405234801561000f575f5ffd5b5060043610610034575f3560e01c806321beefa8146100385780639157615714610068575b5f5ffd5b610052600480360381019061004d91906101b0565b610098565b60405161005f9190610213565b60405180910390f35b610082600480360381019061007d919061039e565b6100ec565b60405161008f9190610213565b60405180910390f35b5f5f5f90505f5f90505b848490508110156100e1578484828181106100c0576100bf6103e5565b5b90506020020135826100d2919061043f565b915080806001019150506100a2565b508091505092915050565b5f5f5f90505f5f90505b835181101561013457838181518110610112576101116103e5565b5b602002602001015182610125919061043f565b915080806001019150506100f6565b5080915050919050565b5f604051905090565b5f5ffd5b5f5ffd5b5f5ffd5b5f5ffd5b5f5ffd5b5f5f83601f8401126101705761016f61014f565b5b8235905067ffffffffffffffff81111561018d5761018c610153565b5b6020830191508360208202830111156101a9576101a8610157565b5b9250929050565b5f5f602083850312156101c6576101c5610147565b5b5f83013567ffffffffffffffff8111156101e3576101e261014b565b5b6101ef8582860161015b565b92509250509250929050565b5f819050919050565b61020d816101fb565b82525050565b5f6020820190506102265f830184610204565b92915050565b5f601f19601f8301169050919050565b7f4e487b71000000000000000000000000000000000000000000000000000000005f52604160045260245ffd5b6102728261022c565b810181811067ffffffffffffffff821117156102915761029061023c565b5b80604052505050565b5f6102a361013e565b90506102af8282610269565b919050565b5f67ffffffffffffffff8211156102ce576102cd61023c565b5b602082029050602081019050919050565b6102e8816101fb565b81146102f2575f5ffd5b50565b5f81359050610303816102df565b92915050565b5f61031b610316846102b4565b61029a565b9050808382526020820190506020840283018581111561033e5761033d610157565b5b835b81811015610367578061035388826102f5565b845260208401935050602081019050610340565b5050509392505050565b5f82601f8301126103855761038461014f565b5b8135610395848260208601610309565b91505092915050565b5f602082840312156103b3576103b2610147565b5b5f82013567ffffffffffffffff8111156103d0576103cf61014b565b5b6103dc84828501610371565b91505092915050565b7f4e487b71000000000000000000000000000000000000000000000000000000005f52603260045260245ffd5b7f4e487b71000000000000000000000000000000000000000000000000000000005f52601160045260245ffd5b5f610449826101fb565b9150610454836101fb565b925082820190508082111561046c5761046b610412565b5b9291505056fea2646970667358221220142920332722f466674c197032eb5aedd49718ded148ea75c2a690ff2e34f6b364736f6c63430008220033",
					"opcodes": "PUSH1 0x80 PUSH1 0x40 MSTORE CALLVALUE DUP1 ISZERO PUSH1 0xE JUMPI PUSH0 PUSH0 REVERT JUMPDEST POP PUSH2 0x4A8 DUP1 PUSH2 0x1C PUSH0 CODECOPY PUSH0 RETURN INVALID PUSH1 0x80 PUSH1 0x40 MSTORE CALLVALUE DUP1 ISZERO PUSH2 0xF JUMPI PUSH0 PUSH0 REVERT JUMPDEST POP PUSH1 0x4 CALLDATASIZE LT PUSH2 0x34 JUMPI PUSH0 CALLDATALOAD PUSH1 0xE0 SHR DUP1 PUSH4 0x21BEEFA8 EQ PUSH2 0x38 JUMPI DUP1 PUSH4 0x91576157 EQ PUSH2 0x68 JUMPI JUMPDEST PUSH0 PUSH0 REVERT JUMPDEST PUSH2 0x52 PUSH1 0x4 DUP1 CALLDATASIZE SUB DUP2 ADD SWAP1 PUSH2 0x4D SWAP2 SWAP1 PUSH2 0x1B0 JUMP JUMPDEST PUSH2 0x98 JUMP JUMPDEST PUSH1 0x40 MLOAD PUSH2 0x5F SWAP2 SWAP1 PUSH2 0x213 JUMP JUMPDEST PUSH1 0x40 MLOAD DUP1 SWAP2 SUB SWAP1 RETURN JUMPDEST PUSH2 0x82 PUSH1 0x4 DUP1 CALLDATASIZE SUB DUP2 ADD SWAP1 PUSH2 0x7D SWAP2 SWAP1 PUSH2 0x39E JUMP JUMPDEST PUSH2 0xEC JUMP JUMPDEST PUSH1 0x40 MLOAD PUSH2 0x8F SWAP2 SWAP1 PUSH2 0x213 JUMP JUMPDEST PUSH1 0x40 MLOAD DUP1 SWAP2 SUB SWAP1 RETURN JUMPDEST PUSH0 PUSH0 PUSH0 SWAP1 POP PUSH0 PUSH0 SWAP1 POP JUMPDEST DUP5 DUP5 SWAP1 POP DUP2 LT ISZERO PUSH2 0xE1 JUMPI DUP5 DUP5 DUP3 DUP2 DUP2 LT PUSH2 0xC0 JUMPI PUSH2 0xBF PUSH2 0x3E5 JUMP JUMPDEST JUMPDEST SWAP1 POP PUSH1 0x20 MUL ADD CALLDATALOAD DUP3 PUSH2 0xD2 SWAP2 SWAP1 PUSH2 0x43F JUMP JUMPDEST SWAP2 POP DUP1 DUP1 PUSH1 0x1 ADD SWAP2 POP POP PUSH2 0xA2 JUMP JUMPDEST POP DUP1 SWAP2 POP POP SWAP3 SWAP2 POP POP JUMP JUMPDEST PUSH0 PUSH0 PUSH0 SWAP1 POP PUSH0 PUSH0 SWAP1 POP JUMPDEST DUP4 MLOAD DUP2 LT ISZERO PUSH2 0x134 JUMPI DUP4 DUP2 DUP2 MLOAD DUP2 LT PUSH2 0x112 JUMPI PUSH2 0x111 PUSH2 0x3E5 JUMP JUMPDEST JUMPDEST PUSH1 0x20 MUL PUSH1 0x20 ADD ADD MLOAD DUP3 PUSH2 0x125 SWAP2 SWAP1 PUSH2 0x43F JUMP JUMPDEST SWAP2 POP DUP1 DUP1 PUSH1 0x1 ADD SWAP2 POP POP PUSH2 0xF6 JUMP JUMPDEST POP DUP1 SWAP2 POP POP SWAP2 SWAP1 POP JUMP JUMPDEST PUSH0 PUSH1 0x40 MLOAD SWAP1 POP SWAP1 JUMP JUMPDEST PUSH0 PUSH0 REVERT JUMPDEST PUSH0 PUSH0 REVERT JUMPDEST PUSH0 PUSH0 REVERT JUMPDEST PUSH0 PUSH0 REVERT JUMPDEST PUSH0 PUSH0 REVERT JUMPDEST PUSH0 PUSH0 DUP4 PUSH1 0x1F DUP5 ADD SLT PUSH2 0x170 JUMPI PUSH2 0x16F PUSH2 0x14F JUMP JUMPDEST JUMPDEST DUP3 CALLDATALOAD SWAP1 POP PUSH8 0xFFFFFFFFFFFFFFFF DUP2 GT ISZERO PUSH2 0x18D JUMPI PUSH2 0x18C PUSH2 0x153 JUMP JUMPDEST JUMPDEST PUSH1 0x20 DUP4 ADD SWAP2 POP DUP4 PUSH1 0x20 DUP3 MUL DUP4 ADD GT ISZERO PUSH2 0x1A9 JUMPI PUSH2 0x1A8 PUSH2 0x157 JUMP JUMPDEST JUMPDEST SWAP3 POP SWAP3 SWAP1 POP JUMP JUMPDEST PUSH0 PUSH0 PUSH1 0x20 DUP4 DUP6 SUB SLT ISZERO PUSH2 0x1C6 JUMPI PUSH2 0x1C5 PUSH2 0x147 JUMP JUMPDEST JUMPDEST PUSH0 DUP4 ADD CALLDATALOAD PUSH8 0xFFFFFFFFFFFFFFFF DUP2 GT ISZERO PUSH2 0x1E3 JUMPI PUSH2 0x1E2 PUSH2 0x14B JUMP JUMPDEST JUMPDEST PUSH2 0x1EF DUP6 DUP3 DUP7 ADD PUSH2 0x15B JUMP JUMPDEST SWAP3 POP SWAP3 POP POP SWAP3 POP SWAP3 SWAP1 POP JUMP JUMPDEST PUSH0 DUP2 SWAP1 POP SWAP2 SWAP1 POP JUMP JUMPDEST PUSH2 0x20D DUP2 PUSH2 0x1FB JUMP JUMPDEST DUP3 MSTORE POP POP JUMP JUMPDEST PUSH0 PUSH1 0x20 DUP3 ADD SWAP1 POP PUSH2 0x226 PUSH0 DUP4 ADD DUP5 PUSH2 0x204 JUMP JUMPDEST SWAP3 SWAP2 POP POP JUMP JUMPDEST PUSH0 PUSH1 0x1F NOT PUSH1 0x1F DUP4 ADD AND SWAP1 POP SWAP2 SWAP1 POP JUMP JUMPDEST PUSH32 0x4E487B7100000000000000000000000000000000000000000000000000000000 PUSH0 MSTORE PUSH1 0x41 PUSH1 0x4 MSTORE PUSH1 0x24 PUSH0 REVERT JUMPDEST PUSH2 0x272 DUP3 PUSH2 0x22C JUMP JUMPDEST DUP2 ADD DUP2 DUP2 LT PUSH8 0xFFFFFFFFFFFFFFFF DUP3 GT OR ISZERO PUSH2 0x291 JUMPI PUSH2 0x290 PUSH2 0x23C JUMP JUMPDEST JUMPDEST DUP1 PUSH1 0x40 MSTORE POP POP POP JUMP JUMPDEST PUSH0 PUSH2 0x2A3 PUSH2 0x13E JUMP JUMPDEST SWAP1 POP PUSH2 0x2AF DUP3 DUP3 PUSH2 0x269 JUMP JUMPDEST SWAP2 SWAP1 POP JUMP JUMPDEST PUSH0 PUSH8 0xFFFFFFFFFFFFFFFF DUP3 GT ISZERO PUSH2 0x2CE JUMPI PUSH2 0x2CD PUSH2 0x23C JUMP JUMPDEST JUMPDEST PUSH1 0x20 DUP3 MUL SWAP1 POP PUSH1 0x20 DUP2 ADD SWAP1 POP SWAP2 SWAP1 POP JUMP JUMPDEST PUSH2 0x2E8 DUP2 PUSH2 0x1FB JUMP JUMPDEST DUP2 EQ PUSH2 0x2F2 JUMPI PUSH0 PUSH0 REVERT JUMPDEST POP JUMP JUMPDEST PUSH0 DUP2 CALLDATALOAD SWAP1 POP PUSH2 0x303 DUP2 PUSH2 0x2DF JUMP JUMPDEST SWAP3 SWAP2 POP POP JUMP JUMPDEST PUSH0 PUSH2 0x31B PUSH2 0x316 DUP5 PUSH2 0x2B4 JUMP JUMPDEST PUSH2 0x29A JUMP JUMPDEST SWAP1 POP DUP1 DUP4 DUP3 MSTORE PUSH1 0x20 DUP3 ADD SWAP1 POP PUSH1 0x20 DUP5 MUL DUP4 ADD DUP6 DUP2 GT ISZERO PUSH2 0x33E JUMPI PUSH2 0x33D PUSH2 0x157 JUMP JUMPDEST JUMPDEST DUP4 JUMPDEST DUP2 DUP2 LT ISZERO PUSH2 0x367 JUMPI DUP1 PUSH2 0x353 DUP9 DUP3 PUSH2 0x2F5 JUMP JUMPDEST DUP5 MSTORE PUSH1 0x20 DUP5 ADD SWAP4 POP POP PUSH1 0x20 DUP2 ADD SWAP1 POP PUSH2 0x340 JUMP JUMPDEST POP POP POP SWAP4 SWAP3 POP POP POP JUMP JUMPDEST PUSH0 DUP3 PUSH1 0x1F DUP4 ADD SLT PUSH2 0x385 JUMPI PUSH2 0x384 PUSH2 0x14F JUMP JUMPDEST JUMPDEST DUP2 CALLDATALOAD PUSH2 0x395 DUP5 DUP3 PUSH1 0x20 DUP7 ADD PUSH2 0x309 JUMP JUMPDEST SWAP2 POP POP SWAP3 SWAP2 POP POP JUMP JUMPDEST PUSH0 PUSH1 0x20 DUP3 DUP5 SUB SLT ISZERO PUSH2 0x3B3 JUMPI PUSH2 0x3B2 PUSH2 0x147 JUMP JUMPDEST JUMPDEST PUSH0 DUP3 ADD CALLDATALOAD PUSH8 0xFFFFFFFFFFFFFFFF DUP2 GT ISZERO PUSH2 0x3D0 JUMPI PUSH2 0x3CF PUSH2 0x14B JUMP JUMPDEST JUMPDEST PUSH2 0x3DC DUP5 DUP3 DUP6 ADD PUSH2 0x371 JUMP JUMPDEST SWAP2 POP POP SWAP3 SWAP2 POP POP JUMP JUMPDEST PUSH32 0x4E487B7100000000000000000000000000000000000000000000000000000000 PUSH0 MSTORE PUSH1 0x32 PUSH1 0x4 MSTORE PUSH1 0x24 PUSH0 REVERT JUMPDEST PUSH32 0x4E487B7100000000000000000000000000000000000000000000000000000000 PUSH0 MSTORE PUSH1 0x11 PUSH1 0x4 MSTORE PUSH1 0x24 PUSH0 REVERT JUMPDEST PUSH0 PUSH2 0x449 DUP3 PUSH2 0x1FB JUMP JUMPDEST SWAP2 POP PUSH2 0x454 DUP4 PUSH2 0x1FB JUMP JUMPDEST SWAP3 POP DUP3 DUP3 ADD SWAP1 POP DUP1 DUP3 GT ISZERO PUSH2 0x46C JUMPI PUSH2 0x46B PUSH2 0x412 JUMP JUMPDEST JUMPDEST SWAP3 SWAP2 POP POP JUMP INVALID LOG2 PUSH5 0x6970667358 0x22 SLT KECCAK256 EQ 0x29 KECCAK256 CALLER 0x27 0x22 DELEGATECALL PUSH7 0x674C197032EB5A 0xED 0xD4 SWAP8 XOR 0xDE DATALOADN 0x48EA PUSH22 0xC2A690FF2E34F6B364736F6C63430008220033000000 "
				},
				"gasEstimates": {
					"creation": {
						"codeDepositCost": "238400",
						"executionCost": "279",
						"totalCost": "238679"
					},
					"external": {
						"getSumCalldata(uint256[])": "infinite",
						"getSumMemory(uint256[])": "infinite"
					}
				},
				"methodIdentifiers": {
					"getSumCalldata(uint256[])": "21beefa8",
					"getSumMemory(uint256[])": "91576157"
				}
			},
			"storageLayout": {
				"storage": [],
				"types": null
			},
			"userdoc": {
				"kind": "user",
				"methods": {},
				"version": 1
			}
		}
	}
}