{
	"contracts/2.1/05enum/EnumOperators.sol": {
		"EnumOperators": {
			"abi": [
				{
					"inputs": [],
					"name": "createOrder",
					"outputs": [
						{
							"internalType": "enum EnumOperators.OrderStatus",
							"name": "",
							"type": "uint8"
						}
					],
					"stateMutability": "nonpayable",
					"type": "function"
				},
				{
					"inputs": [],
					"name": "currentStatus",
					"outputs": [
						{
							"internalType": "enum EnumOperators.OrderStatus",
							"name": "",
							"type": "uint8"
						}
					],
					"stateMutability": "view",
					"type": "function"
				},
				{
					"inputs": [],
					"name": "deliveryOrder",
					"outputs": [
						{
							"internalType": "enum EnumOperators.OrderStatus",
							"name": "",
							"type": "uint8"
						}
					],
					"stateMutability": "nonpayable",
					"type": "function"
				},
				{
					"inputs": [
						{
							"internalType": "enum EnumOperators.OrderStatus",
							"name": "s",
							"type": "uint8"
						}
					],
					"name": "enum2uint",
					"outputs": [
						{
							"internalType": "uint256",
							"name": "",
							"type": "uint256"
						}
					],
					"stateMutability": "pure",
					"type": "function"
				},
				{
					"inputs": [],
					"name": "isPaid",
					"outputs": [
						{
							"internalType": "bool",
							"name": "",
							"type": "bool"
						}
					],
					"stateMutability": "view",
					"type": "function"
				},
				{
					"inputs": [],
					"name": "payOrder",
					"outputs": [
						{
							"internalType": "enum EnumOperators.OrderStatus",
							"name": "",
							"type": "uint8"
						}
					],
					"stateMutability": "nonpayable",
					"type": "function"
				},
				{
					"inputs": [],
					"name": "shipOrder",
					"outputs": [
						{
							"internalType": "enum EnumOperators.OrderStatus",
							"name": "",
							"type": "uint8"
						}
					],
					"stateMutability": "nonpayable",
					"type": "function"
				},
				{
					"inputs": [
						{
							"internalType": "uint256",
							"name": "i",
							"type": "uint256"
						}
					],
					"name": "uint2enum",
					"outputs": [
						{
							"internalType": "enum EnumOperators.OrderStatus",
							"name": "",
							"type": "uint8"
						}
					],
					"stateMutability": "pure",
					"type": "function"
				}
			],
			"devdoc": {
				"kind": "dev",
				"methods": {},
				"version": 1
			},
			"evm": {
				"assembly": "    /* \"contracts/2.1/05enum/EnumOperators.sol\":56:1279  contract EnumOperators {... */\n  mstore(0x40, 0x80)\n  callvalue\n  dup1\n  iszero\n  tag_1\n  jumpi\n  revert(0x00, 0x00)\ntag_1:\n  pop\n  dataSize(sub_0)\n  dup1\n  dataOffset(sub_0)\n  0x00\n  codecopy\n  0x00\n  return\nstop\n\nsub_0: assembly {\n        /* \"contracts/2.1/05enum/EnumOperators.sol\":56:1279  contract EnumOperators {... */\n      mstore(0x40, 0x80)\n      callvalue\n      dup1\n      iszero\n      tag_1\n      jumpi\n      revert(0x00, 0x00)\n    tag_1:\n      pop\n      jumpi(tag_2, lt(calldatasize, 0x04))\n      shr(0xe0, calldataload(0x00))\n      dup1\n      0x209ebc08\n      gt\n      tag_11\n      jumpi\n      dup1\n      0x209ebc08\n      eq\n      tag_7\n      jumpi\n      dup1\n      0x6512e6ec\n      eq\n      tag_8\n      jumpi\n      dup1\n      0xec614e9b\n      eq\n      tag_9\n      jumpi\n      dup1\n      0xef8a9235\n      eq\n      tag_10\n      jumpi\n      jump(tag_2)\n    tag_11:\n      dup1\n      0x0651e0c3\n      eq\n      tag_3\n      jumpi\n      dup1\n      0x101b4dd5\n      eq\n      tag_4\n      jumpi\n      dup1\n      0x154a5477\n      eq\n      tag_5\n      jumpi\n      dup1\n      0x1b422c9c\n      eq\n      tag_6\n      jumpi\n    tag_2:\n      revert(0x00, 0x00)\n        /* \"contracts/2.1/05enum/EnumOperators.sol\":526:700  function shipOrder() public  returns(OrderStatus){... */\n    tag_3:\n      tag_12\n      tag_13\n      jump\t// in\n    tag_12:\n      mload(0x40)\n      tag_14\n      swap2\n      swap1\n      tag_15\n      jump\t// in\n    tag_14:\n      mload(0x40)\n      dup1\n      swap2\n      sub\n      swap1\n      return\n        /* \"contracts/2.1/05enum/EnumOperators.sol\":347:520  function payOrder() public  returns(OrderStatus){... */\n    tag_4:\n      tag_16\n      tag_17\n      jump\t// in\n    tag_16:\n      mload(0x40)\n      tag_18\n      swap2\n      swap1\n      tag_15\n      jump\t// in\n    tag_18:\n      mload(0x40)\n      dup1\n      swap2\n      sub\n      swap1\n      return\n        /* \"contracts/2.1/05enum/EnumOperators.sol\":999:1089  function enum2uint(OrderStatus s) public pure returns(uint){... */\n    tag_5:\n      tag_19\n      0x04\n      dup1\n      calldatasize\n      sub\n      dup2\n      add\n      swap1\n      tag_20\n      swap2\n      swap1\n      tag_21\n      jump\t// in\n    tag_20:\n      tag_22\n      jump\t// in\n    tag_19:\n      mload(0x40)\n      tag_23\n      swap2\n      swap1\n      tag_24\n      jump\t// in\n    tag_23:\n      mload(0x40)\n      dup1\n      swap2\n      sub\n      swap1\n      return\n        /* \"contracts/2.1/05enum/EnumOperators.sol\":1099:1277  function uint2enum(uint i) public pure returns(OrderStatus){... */\n    tag_6:\n      tag_25\n      0x04\n      dup1\n      calldatasize\n      sub\n      dup2\n      add\n      swap1\n      tag_26\n      swap2\n      swap1\n      tag_27\n      jump\t// in\n    tag_26:\n      tag_28\n      jump\t// in\n    tag_25:\n      mload(0x40)\n      tag_29\n      swap2\n      swap1\n      tag_15\n      jump\t// in\n    tag_29:\n      mload(0x40)\n      dup1\n      swap2\n      sub\n      swap1\n      return\n        /* \"contracts/2.1/05enum/EnumOperators.sol\":895:993  function isPaid() public view returns(bool){... */\n    tag_7:\n      tag_30\n      tag_31\n      jump\t// in\n    tag_30:\n      mload(0x40)\n      tag_32\n      swap2\n      swap1\n      tag_33\n      jump\t// in\n    tag_32:\n      mload(0x40)\n      dup1\n      swap2\n      sub\n      swap1\n      return\n        /* \"contracts/2.1/05enum/EnumOperators.sol\":239:342  function createOrder() public  returns(OrderStatus){... */\n    tag_8:\n      tag_34\n      tag_35\n      jump\t// in\n    tag_34:\n      mload(0x40)\n      tag_36\n      swap2\n      swap1\n      tag_15\n      jump\t// in\n    tag_36:\n      mload(0x40)\n      dup1\n      swap2\n      sub\n      swap1\n      return\n        /* \"contracts/2.1/05enum/EnumOperators.sol\":706:890  function deliveryOrder() public  returns(OrderStatus){... */\n    tag_9:\n      tag_37\n      tag_38\n      jump\t// in\n    tag_37:\n      mload(0x40)\n      tag_39\n      swap2\n      swap1\n      tag_15\n      jump\t// in\n    tag_39:\n      mload(0x40)\n      dup1\n      swap2\n      sub\n      swap1\n      return\n        /* \"contracts/2.1/05enum/EnumOperators.sol\":201:233  OrderStatus public currentStatus */\n    tag_10:\n      tag_40\n      tag_41\n      jump\t// in\n    tag_40:\n      mload(0x40)\n      tag_42\n      swap2\n      swap1\n      tag_15\n      jump\t// in\n    tag_42:\n      mload(0x40)\n      dup1\n      swap2\n      sub\n      swap1\n      return\n        /* \"contracts/2.1/05enum/EnumOperators.sol\":526:700  function shipOrder() public  returns(OrderStatus){... */\n    tag_13:\n        /* \"contracts/2.1/05enum/EnumOperators.sol\":563:574  OrderStatus */\n      0x00\n        /* \"contracts/2.1/05enum/EnumOperators.sol\":608:624  OrderStatus.Paid */\n      0x01\n        /* \"contracts/2.1/05enum/EnumOperators.sol\":593:624  currentStatus==OrderStatus.Paid */\n      0x04\n      dup2\n      gt\n      iszero\n      tag_44\n      jumpi\n      tag_45\n      tag_46\n      jump\t// in\n    tag_45:\n    tag_44:\n        /* \"contracts/2.1/05enum/EnumOperators.sol\":593:606  currentStatus */\n      0x00\n      0x00\n      swap1\n      sload\n      swap1\n      0x0100\n      exp\n      swap1\n      div\n      0xff\n      and\n        /* \"contracts/2.1/05enum/EnumOperators.sol\":593:624  currentStatus==OrderStatus.Paid */\n      0x04\n      dup2\n      gt\n      iszero\n      tag_47\n      jumpi\n      tag_48\n      tag_46\n      jump\t// in\n    tag_48:\n    tag_47:\n      eq\n        /* \"contracts/2.1/05enum/EnumOperators.sol\":585:650  require(currentStatus==OrderStatus.Paid,unicode\"订单未支付\") */\n      tag_49\n      jumpi\n      mload(0x40)\n      0x08c379a000000000000000000000000000000000000000000000000000000000\n      dup2\n      mstore\n      0x04\n      add\n      tag_50\n      swap1\n      tag_51\n      jump\t// in\n    tag_50:\n      mload(0x40)\n      dup1\n      swap2\n      sub\n      swap1\n      revert\n    tag_49:\n        /* \"contracts/2.1/05enum/EnumOperators.sol\":674:693  OrderStatus.Shipped */\n      0x02\n        /* \"contracts/2.1/05enum/EnumOperators.sol\":660:673  currentStatus */\n      0x00\n      0x00\n        /* \"contracts/2.1/05enum/EnumOperators.sol\":660:693  currentStatus=OrderStatus.Shipped */\n      0x0100\n      exp\n      dup2\n      sload\n      dup2\n      0xff\n      mul\n      not\n      and\n      swap1\n      dup4\n      0x04\n      dup2\n      gt\n      iszero\n      tag_52\n      jumpi\n      tag_53\n      tag_46\n      jump\t// in\n    tag_53:\n    tag_52:\n      mul\n      or\n      swap1\n      sstore\n      pop\n        /* \"contracts/2.1/05enum/EnumOperators.sol\":526:700  function shipOrder() public  returns(OrderStatus){... */\n      swap1\n      jump\t// out\n        /* \"contracts/2.1/05enum/EnumOperators.sol\":347:520  function payOrder() public  returns(OrderStatus){... */\n    tag_17:\n        /* \"contracts/2.1/05enum/EnumOperators.sol\":383:394  OrderStatus */\n      0x00\n        /* \"contracts/2.1/05enum/EnumOperators.sol\":428:447  OrderStatus.Created */\n      0x00\n        /* \"contracts/2.1/05enum/EnumOperators.sol\":413:447  currentStatus==OrderStatus.Created */\n      0x04\n      dup2\n      gt\n      iszero\n      tag_55\n      jumpi\n      tag_56\n      tag_46\n      jump\t// in\n    tag_56:\n    tag_55:\n        /* \"contracts/2.1/05enum/EnumOperators.sol\":413:426  currentStatus */\n      0x00\n      0x00\n      swap1\n      sload\n      swap1\n      0x0100\n      exp\n      swap1\n      div\n      0xff\n      and\n        /* \"contracts/2.1/05enum/EnumOperators.sol\":413:447  currentStatus==OrderStatus.Created */\n      0x04\n      dup2\n      gt\n      iszero\n      tag_57\n      jumpi\n      tag_58\n      tag_46\n      jump\t// in\n    tag_58:\n    tag_57:\n      eq\n        /* \"contracts/2.1/05enum/EnumOperators.sol\":405:473  require(currentStatus==OrderStatus.Created,unicode\"订单未创建\") */\n      tag_59\n      jumpi\n      mload(0x40)\n      0x08c379a000000000000000000000000000000000000000000000000000000000\n      dup2\n      mstore\n      0x04\n      add\n      tag_60\n      swap1\n      tag_61\n      jump\t// in\n    tag_60:\n      mload(0x40)\n      dup1\n      swap2\n      sub\n      swap1\n      revert\n    tag_59:\n        /* \"contracts/2.1/05enum/EnumOperators.sol\":497:513  OrderStatus.Paid */\n      0x01\n        /* \"contracts/2.1/05enum/EnumOperators.sol\":483:496  currentStatus */\n      0x00\n      0x00\n        /* \"contracts/2.1/05enum/EnumOperators.sol\":483:513  currentStatus=OrderStatus.Paid */\n      0x0100\n      exp\n      dup2\n      sload\n      dup2\n      0xff\n      mul\n      not\n      and\n      swap1\n      dup4\n      0x04\n      dup2\n      gt\n      iszero\n      tag_62\n      jumpi\n      tag_63\n      tag_46\n      jump\t// in\n    tag_63:\n    tag_62:\n      mul\n      or\n      swap1\n      sstore\n      pop\n        /* \"contracts/2.1/05enum/EnumOperators.sol\":347:520  function payOrder() public  returns(OrderStatus){... */\n      swap1\n      jump\t// out\n        /* \"contracts/2.1/05enum/EnumOperators.sol\":999:1089  function enum2uint(OrderStatus s) public pure returns(uint){... */\n    tag_22:\n        /* \"contracts/2.1/05enum/EnumOperators.sol\":1053:1057  uint */\n      0x00\n        /* \"contracts/2.1/05enum/EnumOperators.sol\":1080:1081  s */\n      dup2\n        /* \"contracts/2.1/05enum/EnumOperators.sol\":1075:1082  uint(s) */\n      0x04\n      dup2\n      gt\n      iszero\n      tag_65\n      jumpi\n      tag_66\n      tag_46\n      jump\t// in\n    tag_66:\n    tag_65:\n        /* \"contracts/2.1/05enum/EnumOperators.sol\":1068:1082  return uint(s) */\n      swap1\n      pop\n        /* \"contracts/2.1/05enum/EnumOperators.sol\":999:1089  function enum2uint(OrderStatus s) public pure returns(uint){... */\n      swap2\n      swap1\n      pop\n      jump\t// out\n        /* \"contracts/2.1/05enum/EnumOperators.sol\":1099:1277  function uint2enum(uint i) public pure returns(OrderStatus){... */\n    tag_28:\n        /* \"contracts/2.1/05enum/EnumOperators.sol\":1146:1157  OrderStatus */\n      0x00\n        /* \"contracts/2.1/05enum/EnumOperators.sol\":1185:1206  OrderStatus.Cancelled */\n      0x04\n        /* \"contracts/2.1/05enum/EnumOperators.sol\":1180:1207  uint(OrderStatus.Cancelled) */\n      dup1\n      dup2\n      gt\n      iszero\n      tag_68\n      jumpi\n      tag_69\n      tag_46\n      jump\t// in\n    tag_69:\n    tag_68:\n        /* \"contracts/2.1/05enum/EnumOperators.sol\":1177:1178  i */\n      dup3\n        /* \"contracts/2.1/05enum/EnumOperators.sol\":1177:1207  i<=uint(OrderStatus.Cancelled) */\n      gt\n      iszero\n        /* \"contracts/2.1/05enum/EnumOperators.sol\":1169:1239  require(i<=uint(OrderStatus.Cancelled),unicode\"无效的枚举类型\") */\n      tag_70\n      jumpi\n      mload(0x40)\n      0x08c379a000000000000000000000000000000000000000000000000000000000\n      dup2\n      mstore\n      0x04\n      add\n      tag_71\n      swap1\n      tag_72\n      jump\t// in\n    tag_71:\n      mload(0x40)\n      dup1\n      swap2\n      sub\n      swap1\n      revert\n    tag_70:\n        /* \"contracts/2.1/05enum/EnumOperators.sol\":1268:1269  i */\n      dup2\n        /* \"contracts/2.1/05enum/EnumOperators.sol\":1256:1270  OrderStatus(i) */\n      0x04\n      dup2\n      gt\n      iszero\n      tag_73\n      jumpi\n      tag_74\n      tag_46\n      jump\t// in\n    tag_74:\n    tag_73:\n        /* \"contracts/2.1/05enum/EnumOperators.sol\":1249:1270  return OrderStatus(i) */\n      swap1\n      pop\n        /* \"contracts/2.1/05enum/EnumOperators.sol\":1099:1277  function uint2enum(uint i) public pure returns(OrderStatus){... */\n      swap2\n      swap1\n      pop\n      jump\t// out\n        /* \"contracts/2.1/05enum/EnumOperators.sol\":895:993  function isPaid() public view returns(bool){... */\n    tag_31:\n        /* \"contracts/2.1/05enum/EnumOperators.sol\":933:937  bool */\n      0x00\n        /* \"contracts/2.1/05enum/EnumOperators.sol\":970:986  OrderStatus.Paid */\n      0x01\n        /* \"contracts/2.1/05enum/EnumOperators.sol\":955:986  currentStatus==OrderStatus.Paid */\n      0x04\n      dup2\n      gt\n      iszero\n      tag_76\n      jumpi\n      tag_77\n      tag_46\n      jump\t// in\n    tag_77:\n    tag_76:\n        /* \"contracts/2.1/05enum/EnumOperators.sol\":955:968  currentStatus */\n      0x00\n      0x00\n      swap1\n      sload\n      swap1\n      0x0100\n      exp\n      swap1\n      div\n      0xff\n      and\n        /* \"contracts/2.1/05enum/EnumOperators.sol\":955:986  currentStatus==OrderStatus.Paid */\n      0x04\n      dup2\n      gt\n      iszero\n      tag_78\n      jumpi\n      tag_79\n      tag_46\n      jump\t// in\n    tag_79:\n    tag_78:\n      eq\n        /* \"contracts/2.1/05enum/EnumOperators.sol\":948:986  return currentStatus==OrderStatus.Paid */\n      swap1\n      pop\n        /* \"contracts/2.1/05enum/EnumOperators.sol\":895:993  function isPaid() public view returns(bool){... */\n      swap1\n      jump\t// out\n        /* \"contracts/2.1/05enum/EnumOperators.sol\":239:342  function createOrder() public  returns(OrderStatus){... */\n    tag_35:\n        /* \"contracts/2.1/05enum/EnumOperators.sol\":278:289  OrderStatus */\n      0x00\n        /* \"contracts/2.1/05enum/EnumOperators.sol\":316:335  OrderStatus.Created */\n      0x00\n        /* \"contracts/2.1/05enum/EnumOperators.sol\":300:313  currentStatus */\n      0x00\n      0x00\n        /* \"contracts/2.1/05enum/EnumOperators.sol\":300:335  currentStatus = OrderStatus.Created */\n      0x0100\n      exp\n      dup2\n      sload\n      dup2\n      0xff\n      mul\n      not\n      and\n      swap1\n      dup4\n      0x04\n      dup2\n      gt\n      iszero\n      tag_81\n      jumpi\n      tag_82\n      tag_46\n      jump\t// in\n    tag_82:\n    tag_81:\n      mul\n      or\n      swap1\n      sstore\n      pop\n        /* \"contracts/2.1/05enum/EnumOperators.sol\":239:342  function createOrder() public  returns(OrderStatus){... */\n      swap1\n      jump\t// out\n        /* \"contracts/2.1/05enum/EnumOperators.sol\":706:890  function deliveryOrder() public  returns(OrderStatus){... */\n    tag_38:\n        /* \"contracts/2.1/05enum/EnumOperators.sol\":747:758  OrderStatus */\n      0x00\n        /* \"contracts/2.1/05enum/EnumOperators.sol\":792:811  OrderStatus.Shipped */\n      0x02\n        /* \"contracts/2.1/05enum/EnumOperators.sol\":777:811  currentStatus==OrderStatus.Shipped */\n      0x04\n      dup2\n      gt\n      iszero\n      tag_84\n      jumpi\n      tag_85\n      tag_46\n      jump\t// in\n    tag_85:\n    tag_84:\n        /* \"contracts/2.1/05enum/EnumOperators.sol\":777:790  currentStatus */\n      0x00\n      0x00\n      swap1\n      sload\n      swap1\n      0x0100\n      exp\n      swap1\n      div\n      0xff\n      and\n        /* \"contracts/2.1/05enum/EnumOperators.sol\":777:811  currentStatus==OrderStatus.Shipped */\n      0x04\n      dup2\n      gt\n      iszero\n      tag_86\n      jumpi\n      tag_87\n      tag_46\n      jump\t// in\n    tag_87:\n    tag_86:\n      eq\n        /* \"contracts/2.1/05enum/EnumOperators.sol\":769:837  require(currentStatus==OrderStatus.Shipped,unicode\"订单未运输\") */\n      tag_88\n      jumpi\n      mload(0x40)\n      0x08c379a000000000000000000000000000000000000000000000000000000000\n      dup2\n      mstore\n      0x04\n      add\n      tag_89\n      swap1\n      tag_90\n      jump\t// in\n    tag_89:\n      mload(0x40)\n      dup1\n      swap2\n      sub\n      swap1\n      revert\n    tag_88:\n        /* \"contracts/2.1/05enum/EnumOperators.sol\":861:883  OrderStatus.Deliveried */\n      0x03\n        /* \"contracts/2.1/05enum/EnumOperators.sol\":847:860  currentStatus */\n      0x00\n      0x00\n        /* \"contracts/2.1/05enum/EnumOperators.sol\":847:883  currentStatus=OrderStatus.Deliveried */\n      0x0100\n      exp\n      dup2\n      sload\n      dup2\n      0xff\n      mul\n      not\n      and\n      swap1\n      dup4\n      0x04\n      dup2\n      gt\n      iszero\n      tag_91\n      jumpi\n      tag_92\n      tag_46\n      jump\t// in\n    tag_92:\n    tag_91:\n      mul\n      or\n      swap1\n      sstore\n      pop\n        /* \"contracts/2.1/05enum/EnumOperators.sol\":706:890  function deliveryOrder() public  returns(OrderStatus){... */\n      swap1\n      jump\t// out\n        /* \"contracts/2.1/05enum/EnumOperators.sol\":201:233  OrderStatus public currentStatus */\n    tag_41:\n      0x00\n      0x00\n      swap1\n      sload\n      swap1\n      0x0100\n      exp\n      swap1\n      div\n      0xff\n      and\n      dup2\n      jump\t// out\n        /* \"#utility.yul\":7:187   */\n    tag_46:\n        /* \"#utility.yul\":55:132   */\n      0x4e487b7100000000000000000000000000000000000000000000000000000000\n        /* \"#utility.yul\":52:53   */\n      0x00\n        /* \"#utility.yul\":45:133   */\n      mstore\n        /* \"#utility.yul\":152:156   */\n      0x21\n        /* \"#utility.yul\":149:150   */\n      0x04\n        /* \"#utility.yul\":142:157   */\n      mstore\n        /* \"#utility.yul\":176:180   */\n      0x24\n        /* \"#utility.yul\":173:174   */\n      0x00\n        /* \"#utility.yul\":166:181   */\n      revert\n        /* \"#utility.yul\":193:311   */\n    tag_93:\n        /* \"#utility.yul\":279:280   */\n      0x05\n        /* \"#utility.yul\":272:277   */\n      dup2\n        /* \"#utility.yul\":269:281   */\n      lt\n        /* \"#utility.yul\":259:305   */\n      tag_120\n      jumpi\n        /* \"#utility.yul\":285:303   */\n      tag_121\n      tag_46\n      jump\t// in\n    tag_121:\n        /* \"#utility.yul\":259:305   */\n    tag_120:\n        /* \"#utility.yul\":193:311   */\n      pop\n      jump\t// out\n        /* \"#utility.yul\":317:454   */\n    tag_94:\n        /* \"#utility.yul\":367:374   */\n      0x00\n        /* \"#utility.yul\":396:401   */\n      dup2\n        /* \"#utility.yul\":385:401   */\n      swap1\n      pop\n        /* \"#utility.yul\":402:448   */\n      tag_123\n        /* \"#utility.yul\":442:447   */\n      dup3\n        /* \"#utility.yul\":402:448   */\n      tag_93\n      jump\t// in\n    tag_123:\n        /* \"#utility.yul\":317:454   */\n      swap2\n      swap1\n      pop\n      jump\t// out\n        /* \"#utility.yul\":460:597   */\n    tag_95:\n        /* \"#utility.yul\":521:530   */\n      0x00\n        /* \"#utility.yul\":554:591   */\n      tag_125\n        /* \"#utility.yul\":585:590   */\n      dup3\n        /* \"#utility.yul\":554:591   */\n      tag_94\n      jump\t// in\n    tag_125:\n        /* \"#utility.yul\":541:591   */\n      swap1\n      pop\n        /* \"#utility.yul\":460:597   */\n      swap2\n      swap1\n      pop\n      jump\t// out\n        /* \"#utility.yul\":603:756   */\n    tag_96:\n        /* \"#utility.yul\":701:749   */\n      tag_127\n        /* \"#utility.yul\":743:748   */\n      dup2\n        /* \"#utility.yul\":701:749   */\n      tag_95\n      jump\t// in\n    tag_127:\n        /* \"#utility.yul\":696:699   */\n      dup3\n        /* \"#utility.yul\":689:750   */\n      mstore\n        /* \"#utility.yul\":603:756   */\n      pop\n      pop\n      jump\t// out\n        /* \"#utility.yul\":762:1006   */\n    tag_15:\n        /* \"#utility.yul\":866:870   */\n      0x00\n        /* \"#utility.yul\":904:906   */\n      0x20\n        /* \"#utility.yul\":893:902   */\n      dup3\n        /* \"#utility.yul\":889:907   */\n      add\n        /* \"#utility.yul\":881:907   */\n      swap1\n      pop\n        /* \"#utility.yul\":917:999   */\n      tag_129\n        /* \"#utility.yul\":996:997   */\n      0x00\n        /* \"#utility.yul\":985:994   */\n      dup4\n        /* \"#utility.yul\":981:998   */\n      add\n        /* \"#utility.yul\":972:978   */\n      dup5\n        /* \"#utility.yul\":917:999   */\n      tag_96\n      jump\t// in\n    tag_129:\n        /* \"#utility.yul\":762:1006   */\n      swap3\n      swap2\n      pop\n      pop\n      jump\t// out\n        /* \"#utility.yul\":1093:1210   */\n    tag_98:\n        /* \"#utility.yul\":1202:1203   */\n      0x00\n        /* \"#utility.yul\":1199:1200   */\n      0x00\n        /* \"#utility.yul\":1192:1204   */\n      revert\n        /* \"#utility.yul\":1339:1451   */\n    tag_100:\n        /* \"#utility.yul\":1425:1426   */\n      0x05\n        /* \"#utility.yul\":1418:1423   */\n      dup2\n        /* \"#utility.yul\":1415:1427   */\n      lt\n        /* \"#utility.yul\":1405:1445   */\n      tag_134\n      jumpi\n        /* \"#utility.yul\":1441:1442   */\n      0x00\n        /* \"#utility.yul\":1438:1439   */\n      0x00\n        /* \"#utility.yul\":1431:1443   */\n      revert\n        /* \"#utility.yul\":1405:1445   */\n    tag_134:\n        /* \"#utility.yul\":1339:1451   */\n      pop\n      jump\t// out\n        /* \"#utility.yul\":1457:1622   */\n    tag_101:\n        /* \"#utility.yul\":1516:1521   */\n      0x00\n        /* \"#utility.yul\":1554:1560   */\n      dup2\n        /* \"#utility.yul\":1541:1561   */\n      calldataload\n        /* \"#utility.yul\":1532:1561   */\n      swap1\n      pop\n        /* \"#utility.yul\":1570:1616   */\n      tag_136\n        /* \"#utility.yul\":1610:1615   */\n      dup2\n        /* \"#utility.yul\":1570:1616   */\n      tag_100\n      jump\t// in\n    tag_136:\n        /* \"#utility.yul\":1457:1622   */\n      swap3\n      swap2\n      pop\n      pop\n      jump\t// out\n        /* \"#utility.yul\":1628:1983   */\n    tag_21:\n        /* \"#utility.yul\":1700:1706   */\n      0x00\n        /* \"#utility.yul\":1749:1751   */\n      0x20\n        /* \"#utility.yul\":1737:1746   */\n      dup3\n        /* \"#utility.yul\":1728:1735   */\n      dup5\n        /* \"#utility.yul\":1724:1747   */\n      sub\n        /* \"#utility.yul\":1720:1752   */\n      slt\n        /* \"#utility.yul\":1717:1836   */\n      iszero\n      tag_138\n      jumpi\n        /* \"#utility.yul\":1755:1834   */\n      tag_139\n      tag_98\n      jump\t// in\n    tag_139:\n        /* \"#utility.yul\":1717:1836   */\n    tag_138:\n        /* \"#utility.yul\":1875:1876   */\n      0x00\n        /* \"#utility.yul\":1900:1966   */\n      tag_140\n        /* \"#utility.yul\":1958:1965   */\n      dup5\n        /* \"#utility.yul\":1949:1955   */\n      dup3\n        /* \"#utility.yul\":1938:1947   */\n      dup6\n        /* \"#utility.yul\":1934:1956   */\n      add\n        /* \"#utility.yul\":1900:1966   */\n      tag_101\n      jump\t// in\n    tag_140:\n        /* \"#utility.yul\":1890:1966   */\n      swap2\n      pop\n        /* \"#utility.yul\":1846:1976   */\n      pop\n        /* \"#utility.yul\":1628:1983   */\n      swap3\n      swap2\n      pop\n      pop\n      jump\t// out\n        /* \"#utility.yul\":1989:2066   */\n    tag_102:\n        /* \"#utility.yul\":2026:2033   */\n      0x00\n        /* \"#utility.yul\":2055:2060   */\n      dup2\n        /* \"#utility.yul\":2044:2060   */\n      swap1\n      pop\n        /* \"#utility.yul\":1989:2066   */\n      swap2\n      swap1\n      pop\n      jump\t// out\n        /* \"#utility.yul\":2072:2190   */\n    tag_103:\n        /* \"#utility.yul\":2159:2183   */\n      tag_143\n        /* \"#utility.yul\":2177:2182   */\n      dup2\n        /* \"#utility.yul\":2159:2183   */\n      tag_102\n      jump\t// in\n    tag_143:\n        /* \"#utility.yul\":2154:2157   */\n      dup3\n        /* \"#utility.yul\":2147:2184   */\n      mstore\n        /* \"#utility.yul\":2072:2190   */\n      pop\n      pop\n      jump\t// out\n        /* \"#utility.yul\":2196:2418   */\n    tag_24:\n        /* \"#utility.yul\":2289:2293   */\n      0x00\n        /* \"#utility.yul\":2327:2329   */\n      0x20\n        /* \"#utility.yul\":2316:2325   */\n      dup3\n        /* \"#utility.yul\":2312:2330   */\n      add\n        /* \"#utility.yul\":2304:2330   */\n      swap1\n      pop\n        /* \"#utility.yul\":2340:2411   */\n      tag_145\n        /* \"#utility.yul\":2408:2409   */\n      0x00\n        /* \"#utility.yul\":2397:2406   */\n      dup4\n        /* \"#utility.yul\":2393:2410   */\n      add\n        /* \"#utility.yul\":2384:2390   */\n      dup5\n        /* \"#utility.yul\":2340:2411   */\n      tag_103\n      jump\t// in\n    tag_145:\n        /* \"#utility.yul\":2196:2418   */\n      swap3\n      swap2\n      pop\n      pop\n      jump\t// out\n        /* \"#utility.yul\":2424:2546   */\n    tag_104:\n        /* \"#utility.yul\":2497:2521   */\n      tag_147\n        /* \"#utility.yul\":2515:2520   */\n      dup2\n        /* \"#utility.yul\":2497:2521   */\n      tag_102\n      jump\t// in\n    tag_147:\n        /* \"#utility.yul\":2490:2495   */\n      dup2\n        /* \"#utility.yul\":2487:2522   */\n      eq\n        /* \"#utility.yul\":2477:2540   */\n      tag_148\n      jumpi\n        /* \"#utility.yul\":2536:2537   */\n      0x00\n        /* \"#utility.yul\":2533:2534   */\n      0x00\n        /* \"#utility.yul\":2526:2538   */\n      revert\n        /* \"#utility.yul\":2477:2540   */\n    tag_148:\n        /* \"#utility.yul\":2424:2546   */\n      pop\n      jump\t// out\n        /* \"#utility.yul\":2552:2691   */\n    tag_105:\n        /* \"#utility.yul\":2598:2603   */\n      0x00\n        /* \"#utility.yul\":2636:2642   */\n      dup2\n        /* \"#utility.yul\":2623:2643   */\n      calldataload\n        /* \"#utility.yul\":2614:2643   */\n      swap1\n      pop\n        /* \"#utility.yul\":2652:2685   */\n      tag_150\n        /* \"#utility.yul\":2679:2684   */\n      dup2\n        /* \"#utility.yul\":2652:2685   */\n      tag_104\n      jump\t// in\n    tag_150:\n        /* \"#utility.yul\":2552:2691   */\n      swap3\n      swap2\n      pop\n      pop\n      jump\t// out\n        /* \"#utility.yul\":2697:3026   */\n    tag_27:\n        /* \"#utility.yul\":2756:2762   */\n      0x00\n        /* \"#utility.yul\":2805:2807   */\n      0x20\n        /* \"#utility.yul\":2793:2802   */\n      dup3\n        /* \"#utility.yul\":2784:2791   */\n      dup5\n        /* \"#utility.yul\":2780:2803   */\n      sub\n        /* \"#utility.yul\":2776:2808   */\n      slt\n        /* \"#utility.yul\":2773:2892   */\n      iszero\n      tag_152\n      jumpi\n        /* \"#utility.yul\":2811:2890   */\n      tag_153\n      tag_98\n      jump\t// in\n    tag_153:\n        /* \"#utility.yul\":2773:2892   */\n    tag_152:\n        /* \"#utility.yul\":2931:2932   */\n      0x00\n        /* \"#utility.yul\":2956:3009   */\n      tag_154\n        /* \"#utility.yul\":3001:3008   */\n      dup5\n        /* \"#utility.yul\":2992:2998   */\n      dup3\n        /* \"#utility.yul\":2981:2990   */\n      dup6\n        /* \"#utility.yul\":2977:2999   */\n      add\n        /* \"#utility.yul\":2956:3009   */\n      tag_105\n      jump\t// in\n    tag_154:\n        /* \"#utility.yul\":2946:3009   */\n      swap2\n      pop\n        /* \"#utility.yul\":2902:3019   */\n      pop\n        /* \"#utility.yul\":2697:3026   */\n      swap3\n      swap2\n      pop\n      pop\n      jump\t// out\n        /* \"#utility.yul\":3032:3122   */\n    tag_106:\n        /* \"#utility.yul\":3066:3073   */\n      0x00\n        /* \"#utility.yul\":3109:3114   */\n      dup2\n        /* \"#utility.yul\":3102:3115   */\n      iszero\n        /* \"#utility.yul\":3095:3116   */\n      iszero\n        /* \"#utility.yul\":3084:3116   */\n      swap1\n      pop\n        /* \"#utility.yul\":3032:3122   */\n      swap2\n      swap1\n      pop\n      jump\t// out\n        /* \"#utility.yul\":3128:3237   */\n    tag_107:\n        /* \"#utility.yul\":3209:3230   */\n      tag_157\n        /* \"#utility.yul\":3224:3229   */\n      dup2\n        /* \"#utility.yul\":3209:3230   */\n      tag_106\n      jump\t// in\n    tag_157:\n        /* \"#utility.yul\":3204:3207   */\n      dup3\n        /* \"#utility.yul\":3197:3231   */\n      mstore\n        /* \"#utility.yul\":3128:3237   */\n      pop\n      pop\n      jump\t// out\n        /* \"#utility.yul\":3243:3453   */\n    tag_33:\n        /* \"#utility.yul\":3330:3334   */\n      0x00\n        /* \"#utility.yul\":3368:3370   */\n      0x20\n        /* \"#utility.yul\":3357:3366   */\n      dup3\n        /* \"#utility.yul\":3353:3371   */\n      add\n        /* \"#utility.yul\":3345:3371   */\n      swap1\n      pop\n        /* \"#utility.yul\":3381:3446   */\n      tag_159\n        /* \"#utility.yul\":3443:3444   */\n      0x00\n        /* \"#utility.yul\":3432:3441   */\n      dup4\n        /* \"#utility.yul\":3428:3445   */\n      add\n        /* \"#utility.yul\":3419:3425   */\n      dup5\n        /* \"#utility.yul\":3381:3446   */\n      tag_107\n      jump\t// in\n    tag_159:\n        /* \"#utility.yul\":3243:3453   */\n      swap3\n      swap2\n      pop\n      pop\n      jump\t// out\n        /* \"#utility.yul\":3459:3628   */\n    tag_108:\n        /* \"#utility.yul\":3543:3554   */\n      0x00\n        /* \"#utility.yul\":3577:3583   */\n      dup3\n        /* \"#utility.yul\":3572:3575   */\n      dup3\n        /* \"#utility.yul\":3565:3584   */\n      mstore\n        /* \"#utility.yul\":3617:3621   */\n      0x20\n        /* \"#utility.yul\":3612:3615   */\n      dup3\n        /* \"#utility.yul\":3608:3622   */\n      add\n        /* \"#utility.yul\":3593:3622   */\n      swap1\n      pop\n        /* \"#utility.yul\":3459:3628   */\n      swap3\n      swap2\n      pop\n      pop\n      jump\t// out\n        /* \"#utility.yul\":3634:3848   */\n    tag_109:\n        /* \"#utility.yul\":3774:3840   */\n      0xe8aea2e58d95e69caae694afe4bb980000000000000000000000000000000000\n        /* \"#utility.yul\":3770:3771   */\n      0x00\n        /* \"#utility.yul\":3762:3768   */\n      dup3\n        /* \"#utility.yul\":3758:3772   */\n      add\n        /* \"#utility.yul\":3751:3841   */\n      mstore\n        /* \"#utility.yul\":3634:3848   */\n      pop\n      jump\t// out\n        /* \"#utility.yul\":3854:4220   */\n    tag_110:\n        /* \"#utility.yul\":3996:3999   */\n      0x00\n        /* \"#utility.yul\":4017:4084   */\n      tag_163\n        /* \"#utility.yul\":4081:4083   */\n      0x0f\n        /* \"#utility.yul\":4076:4079   */\n      dup4\n        /* \"#utility.yul\":4017:4084   */\n      tag_108\n      jump\t// in\n    tag_163:\n        /* \"#utility.yul\":4010:4084   */\n      swap2\n      pop\n        /* \"#utility.yul\":4093:4186   */\n      tag_164\n        /* \"#utility.yul\":4182:4185   */\n      dup3\n        /* \"#utility.yul\":4093:4186   */\n      tag_109\n      jump\t// in\n    tag_164:\n        /* \"#utility.yul\":4211:4213   */\n      0x20\n        /* \"#utility.yul\":4206:4209   */\n      dup3\n        /* \"#utility.yul\":4202:4214   */\n      add\n        /* \"#utility.yul\":4195:4214   */\n      swap1\n      pop\n        /* \"#utility.yul\":3854:4220   */\n      swap2\n      swap1\n      pop\n      jump\t// out\n        /* \"#utility.yul\":4226:4645   */\n    tag_51:\n        /* \"#utility.yul\":4392:4396   */\n      0x00\n        /* \"#utility.yul\":4430:4432   */\n      0x20\n        /* \"#utility.yul\":4419:4428   */\n      dup3\n        /* \"#utility.yul\":4415:4433   */\n      add\n        /* \"#utility.yul\":4407:4433   */\n      swap1\n      pop\n        /* \"#utility.yul\":4479:4488   */\n      dup2\n        /* \"#utility.yul\":4473:4477   */\n      dup2\n        /* \"#utility.yul\":4469:4489   */\n      sub\n        /* \"#utility.yul\":4465:4466   */\n      0x00\n        /* \"#utility.yul\":4454:4463   */\n      dup4\n        /* \"#utility.yul\":4450:4467   */\n      add\n        /* \"#utility.yul\":4443:4490   */\n      mstore\n        /* \"#utility.yul\":4507:4638   */\n      tag_166\n        /* \"#utility.yul\":4633:4637   */\n      dup2\n        /* \"#utility.yul\":4507:4638   */\n      tag_110\n      jump\t// in\n    tag_166:\n        /* \"#utility.yul\":4499:4638   */\n      swap1\n      pop\n        /* \"#utility.yul\":4226:4645   */\n      swap2\n      swap1\n      pop\n      jump\t// out\n        /* \"#utility.yul\":4651:4865   */\n    tag_111:\n        /* \"#utility.yul\":4791:4857   */\n      0xe8aea2e58d95e69caae5889be5bbba0000000000000000000000000000000000\n        /* \"#utility.yul\":4787:4788   */\n      0x00\n        /* \"#utility.yul\":4779:4785   */\n      dup3\n        /* \"#utility.yul\":4775:4789   */\n      add\n        /* \"#utility.yul\":4768:4858   */\n      mstore\n        /* \"#utility.yul\":4651:4865   */\n      pop\n      jump\t// out\n        /* \"#utility.yul\":4871:5237   */\n    tag_112:\n        /* \"#utility.yul\":5013:5016   */\n      0x00\n        /* \"#utility.yul\":5034:5101   */\n      tag_169\n        /* \"#utility.yul\":5098:5100   */\n      0x0f\n        /* \"#utility.yul\":5093:5096   */\n      dup4\n        /* \"#utility.yul\":5034:5101   */\n      tag_108\n      jump\t// in\n    tag_169:\n        /* \"#utility.yul\":5027:5101   */\n      swap2\n      pop\n        /* \"#utility.yul\":5110:5203   */\n      tag_170\n        /* \"#utility.yul\":5199:5202   */\n      dup3\n        /* \"#utility.yul\":5110:5203   */\n      tag_111\n      jump\t// in\n    tag_170:\n        /* \"#utility.yul\":5228:5230   */\n      0x20\n        /* \"#utility.yul\":5223:5226   */\n      dup3\n        /* \"#utility.yul\":5219:5231   */\n      add\n        /* \"#utility.yul\":5212:5231   */\n      swap1\n      pop\n        /* \"#utility.yul\":4871:5237   */\n      swap2\n      swap1\n      pop\n      jump\t// out\n        /* \"#utility.yul\":5243:5662   */\n    tag_61:\n        /* \"#utility.yul\":5409:5413   */\n      0x00\n        /* \"#utility.yul\":5447:5449   */\n      0x20\n        /* \"#utility.yul\":5436:5445   */\n      dup3\n        /* \"#utility.yul\":5432:5450   */\n      add\n        /* \"#utility.yul\":5424:5450   */\n      swap1\n      pop\n        /* \"#utility.yul\":5496:5505   */\n      dup2\n        /* \"#utility.yul\":5490:5494   */\n      dup2\n        /* \"#utility.yul\":5486:5506   */\n      sub\n        /* \"#utility.yul\":5482:5483   */\n      0x00\n        /* \"#utility.yul\":5471:5480   */\n      dup4\n        /* \"#utility.yul\":5467:5484   */\n      add\n        /* \"#utility.yul\":5460:5507   */\n      mstore\n        /* \"#utility.yul\":5524:5655   */\n      tag_172\n        /* \"#utility.yul\":5650:5654   */\n      dup2\n        /* \"#utility.yul\":5524:5655   */\n      tag_112\n      jump\t// in\n    tag_172:\n        /* \"#utility.yul\":5516:5655   */\n      swap1\n      pop\n        /* \"#utility.yul\":5243:5662   */\n      swap2\n      swap1\n      pop\n      jump\t// out\n        /* \"#utility.yul\":5668:5882   */\n    tag_113:\n        /* \"#utility.yul\":5808:5874   */\n      0xe697a0e69588e79a84e69e9ae4b8bee7b1bbe59e8b0000000000000000000000\n        /* \"#utility.yul\":5804:5805   */\n      0x00\n        /* \"#utility.yul\":5796:5802   */\n      dup3\n        /* \"#utility.yul\":5792:5806   */\n      add\n        /* \"#utility.yul\":5785:5875   */\n      mstore\n        /* \"#utility.yul\":5668:5882   */\n      pop\n      jump\t// out\n        /* \"#utility.yul\":5888:6254   */\n    tag_114:\n        /* \"#utility.yul\":6030:6033   */\n      0x00\n        /* \"#utility.yul\":6051:6118   */\n      tag_175\n        /* \"#utility.yul\":6115:6117   */\n      0x15\n        /* \"#utility.yul\":6110:6113   */\n      dup4\n        /* \"#utility.yul\":6051:6118   */\n      tag_108\n      jump\t// in\n    tag_175:\n        /* \"#utility.yul\":6044:6118   */\n      swap2\n      pop\n        /* \"#utility.yul\":6127:6220   */\n      tag_176\n        /* \"#utility.yul\":6216:6219   */\n      dup3\n        /* \"#utility.yul\":6127:6220   */\n      tag_113\n      jump\t// in\n    tag_176:\n        /* \"#utility.yul\":6245:6247   */\n      0x20\n        /* \"#utility.yul\":6240:6243   */\n      dup3\n        /* \"#utility.yul\":6236:6248   */\n      add\n        /* \"#utility.yul\":6229:6248   */\n      swap1\n      pop\n        /* \"#utility.yul\":5888:6254   */\n      swap2\n      swap1\n      pop\n      jump\t// out\n        /* \"#utility.yul\":6260:6679   */\n    tag_72:\n        /* \"#utility.yul\":6426:6430   */\n      0x00\n        /* \"#utility.yul\":6464:6466   */\n      0x20\n        /* \"#utility.yul\":6453:6462   */\n      dup3\n        /* \"#utility.yul\":6449:6467   */\n      add\n        /* \"#utility.yul\":6441:6467   */\n      swap1\n      pop\n        /* \"#utility.yul\":6513:6522   */\n      dup2\n        /* \"#utility.yul\":6507:6511   */\n      dup2\n        /* \"#utility.yul\":6503:6523   */\n      sub\n        /* \"#utility.yul\":6499:6500   */\n      0x00\n        /* \"#utility.yul\":6488:6497   */\n      dup4\n        /* \"#utility.yul\":6484:6501   */\n      add\n        /* \"#utility.yul\":6477:6524   */\n      mstore\n        /* \"#utility.yul\":6541:6672   */\n      tag_178\n        /* \"#utility.yul\":6667:6671   */\n      dup2\n        /* \"#utility.yul\":6541:6672   */\n      tag_114\n      jump\t// in\n    tag_178:\n        /* \"#utility.yul\":6533:6672   */\n      swap1\n      pop\n        /* \"#utility.yul\":6260:6679   */\n      swap2\n      swap1\n      pop\n      jump\t// out\n        /* \"#utility.yul\":6685:6899   */\n    tag_115:\n        /* \"#utility.yul\":6825:6891   */\n      0xe8aea2e58d95e69caae8bf90e8be930000000000000000000000000000000000\n        /* \"#utility.yul\":6821:6822   */\n      0x00\n        /* \"#utility.yul\":6813:6819   */\n      dup3\n        /* \"#utility.yul\":6809:6823   */\n      add\n        /* \"#utility.yul\":6802:6892   */\n      mstore\n        /* \"#utility.yul\":6685:6899   */\n      pop\n      jump\t// out\n        /* \"#utility.yul\":6905:7271   */\n    tag_116:\n        /* \"#utility.yul\":7047:7050   */\n      0x00\n        /* \"#utility.yul\":7068:7135   */\n      tag_181\n        /* \"#utility.yul\":7132:7134   */\n      0x0f\n        /* \"#utility.yul\":7127:7130   */\n      dup4\n        /* \"#utility.yul\":7068:7135   */\n      tag_108\n      jump\t// in\n    tag_181:\n        /* \"#utility.yul\":7061:7135   */\n      swap2\n      pop\n        /* \"#utility.yul\":7144:7237   */\n      tag_182\n        /* \"#utility.yul\":7233:7236   */\n      dup3\n        /* \"#utility.yul\":7144:7237   */\n      tag_115\n      jump\t// in\n    tag_182:\n        /* \"#utility.yul\":7262:7264   */\n      0x20\n        /* \"#utility.yul\":7257:7260   */\n      dup3\n        /* \"#utility.yul\":7253:7265   */\n      add\n        /* \"#utility.yul\":7246:7265   */\n      swap1\n      pop\n        /* \"#utility.yul\":6905:7271   */\n      swap2\n      swap1\n      pop\n      jump\t// out\n        /* \"#utility.yul\":7277:7696   */\n    tag_90:\n        /* \"#utility.yul\":7443:7447   */\n      0x00\n        /* \"#utility.yul\":7481:7483   */\n      0x20\n        /* \"#utility.yul\":7470:7479   */\n      dup3\n        /* \"#utility.yul\":7466:7484   */\n      add\n        /* \"#utility.yul\":7458:7484   */\n      swap1\n      pop\n        /* \"#utility.yul\":7530:7539   */\n      dup2\n        /* \"#utility.yul\":7524:7528   */\n      dup2\n        /* \"#utility.yul\":7520:7540   */\n      sub\n        /* \"#utility.yul\":7516:7517   */\n      0x00\n        /* \"#utility.yul\":7505:7514   */\n      dup4\n        /* \"#utility.yul\":7501:7518   */\n      add\n        /* \"#utility.yul\":7494:7541   */\n      mstore\n        /* \"#utility.yul\":7558:7689   */\n      tag_184\n        /* \"#utility.yul\":7684:7688   */\n      dup2\n        /* \"#utility.yul\":7558:7689   */\n      tag_116\n      jump\t// in\n    tag_184:\n        /* \"#utility.yul\":7550:7689   */\n      swap1\n      pop\n        /* \"#utility.yul\":7277:7696   */\n      swap2\n      swap1\n      pop\n      jump\t// out\n\n    auxdata: 0xa26469706673582212208be620720d471f4aadea9774d4784608db6872ea895d536cf282f18b05d1cdf664736f6c63430008220033\n}\n",
				"bytecode": {
					"linkReferences": {},
					"object": "6080604052348015600e575f5ffd5b506108008061001c5f395ff3fe608060405234801561000f575f5ffd5b5060043610610086575f3560e01c8063209ebc0811610059578063209ebc08146101265780636512e6ec14610144578063ec614e9b14610162578063ef8a92351461018057610086565b80630651e0c31461008a578063101b4dd5146100a8578063154a5477146100c65780631b422c9c146100f6575b5f5ffd5b61009261019e565b60405161009f91906104f6565b60405180910390f35b6100b061023f565b6040516100bd91906104f6565b60405180910390f35b6100e060048036038101906100db9190610536565b6102df565b6040516100ed9190610579565b60405180910390f35b610110600480360381019061010b91906105bc565b6102fa565b60405161011d91906104f6565b60405180910390f35b61012e61036a565b60405161013b9190610601565b60405180910390f35b61014c6103a5565b60405161015991906104f6565b60405180910390f35b61016a6103d1565b60405161017791906104f6565b60405180910390f35b610188610472565b60405161019591906104f6565b60405180910390f35b5f600160048111156101b3576101b2610483565b5b5f5f9054906101000a900460ff1660048111156101d3576101d2610483565b5b14610213576040517f08c379a000000000000000000000000000000000000000000000000000000000815260040161020a90610674565b60405180910390fd5b60025f5f6101000a81548160ff0219169083600481111561023757610236610483565b5b021790555090565b5f5f600481111561025357610252610483565b5b5f5f9054906101000a900460ff16600481111561027357610272610483565b5b146102b3576040517f08c379a00000000000000000000000000000000000000000000000000000000081526004016102aa906106dc565b60405180910390fd5b60015f5f6101000a81548160ff021916908360048111156102d7576102d6610483565b5b021790555090565b5f8160048111156102f3576102f2610483565b5b9050919050565b5f60048081111561030e5761030d610483565b5b821115610350576040517f08c379a000000000000000000000000000000000000000000000000000000000815260040161034790610744565b60405180910390fd5b81600481111561036357610362610483565b5b9050919050565b5f6001600481111561037f5761037e610483565b5b5f5f9054906101000a900460ff16600481111561039f5761039e610483565b5b14905090565b5f5f5f5f6101000a81548160ff021916908360048111156103c9576103c8610483565b5b021790555090565b5f600260048111156103e6576103e5610483565b5b5f5f9054906101000a900460ff16600481111561040657610405610483565b5b14610446576040517f08c379a000000000000000000000000000000000000000000000000000000000815260040161043d906107ac565b60405180910390fd5b60035f5f6101000a81548160ff0219169083600481111561046a57610469610483565b5b021790555090565b5f5f9054906101000a900460ff1681565b7f4e487b71000000000000000000000000000000000000000000000000000000005f52602160045260245ffd5b600581106104c1576104c0610483565b5b50565b5f8190506104d1826104b0565b919050565b5f6104e0826104c4565b9050919050565b6104f0816104d6565b82525050565b5f6020820190506105095f8301846104e7565b92915050565b5f5ffd5b6005811061051f575f5ffd5b50565b5f8135905061053081610513565b92915050565b5f6020828403121561054b5761054a61050f565b5b5f61055884828501610522565b91505092915050565b5f819050919050565b61057381610561565b82525050565b5f60208201905061058c5f83018461056a565b92915050565b61059b81610561565b81146105a5575f5ffd5b50565b5f813590506105b681610592565b92915050565b5f602082840312156105d1576105d061050f565b5b5f6105de848285016105a8565b91505092915050565b5f8115159050919050565b6105fb816105e7565b82525050565b5f6020820190506106145f8301846105f2565b92915050565b5f82825260208201905092915050565b7fe8aea2e58d95e69caae694afe4bb9800000000000000000000000000000000005f82015250565b5f61065e600f8361061a565b91506106698261062a565b602082019050919050565b5f6020820190508181035f83015261068b81610652565b9050919050565b7fe8aea2e58d95e69caae5889be5bbba00000000000000000000000000000000005f82015250565b5f6106c6600f8361061a565b91506106d182610692565b602082019050919050565b5f6020820190508181035f8301526106f3816106ba565b9050919050565b7fe697a0e69588e79a84e69e9ae4b8bee7b1bbe59e8b00000000000000000000005f82015250565b5f61072e60158361061a565b9150610739826106fa565b602082019050919050565b5f6020820190508181035f83015261075b81610722565b9050919050565b7fe8aea2e58d95e69caae8bf90e8be9300000000000000000000000000000000005f82015250565b5f610796600f8361061a565b91506107a182610762565b602082019050919050565b5f6020820190508181035f8301526107c38161078a565b905091905056fea26469706673582212208be620720d471f4aadea9774d4784608db6872ea895d536cf282f18b05d1cdf664736f6c63430008220033",
					"opcodes": "PUSH1 0x80 PUSH1 0x40 MSTORE CALLVALUE DUP1 ISZERO PUSH1 0xE JUMPI PUSH0 PUSH0 REVERT JUMPDEST POP PUSH2 0x800 DUP1 PUSH2 0x1C PUSH0 CODECOPY PUSH0 RETURN INVALID PUSH1 0x80 PUSH1 0x40 MSTORE CALLVALUE DUP1 ISZERO PUSH2 0xF JUMPI PUSH0 PUSH0 REVERT JUMPDEST POP PUSH1 0x4 CALLDATASIZE LT PUSH2 0x86 JUMPI PUSH0 CALLDATALOAD PUSH1 0xE0 SHR DUP1 PUSH4 0x209EBC08 GT PUSH2 0x59 JUMPI DUP1 PUSH4 0x209EBC08 EQ PUSH2 0x126 JUMPI DUP1 PUSH4 0x6512E6EC EQ PUSH2 0x144 JUMPI DUP1 PUSH4 0xEC614E9B EQ PUSH2 0x162 JUMPI DUP1 PUSH4 0xEF8A9235 EQ PUSH2 0x180 JUMPI PUSH2 0x86 JUMP JUMPDEST DUP1 PUSH4 0x651E0C3 EQ PUSH2 0x8A JUMPI DUP1 PUSH4 0x101B4DD5 EQ PUSH2 0xA8 JUMPI DUP1 PUSH4 0x154A5477 EQ PUSH2 0xC6 JUMPI DUP1 PUSH4 0x1B422C9C EQ PUSH2 0xF6 JUMPI JUMPDEST PUSH0 PUSH0 REVERT JUMPDEST PUSH2 0x92 PUSH2 0x19E JUMP JUMPDEST PUSH1 0x40 MLOAD PUSH2 0x9F SWAP2 SWAP1 PUSH2 0x4F6 JUMP JUMPDEST PUSH1 0x40 MLOAD DUP1 SWAP2 SUB SWAP1 RETURN JUMPDEST PUSH2 0xB0 PUSH2 0x23F JUMP JUMPDEST PUSH1 0x40 MLOAD PUSH2 0xBD SWAP2 SWAP1 PUSH2 0x4F6 JUMP JUMPDEST PUSH1 0x40 MLOAD DUP1 SWAP2 SUB SWAP1 RETURN JUMPDEST PUSH2 0xE0 PUSH1 0x4 DUP1 CALLDATASIZE SUB DUP2 ADD SWAP1 PUSH2 0xDB SWAP2 SWAP1 PUSH2 0x536 JUMP JUMPDEST PUSH2 0x2DF JUMP JUMPDEST PUSH1 0x40 MLOAD PUSH2 0xED SWAP2 SWAP1 PUSH2 0x579 JUMP JUMPDEST PUSH1 0x40 MLOAD DUP1 SWAP2 SUB SWAP1 RETURN JUMPDEST PUSH2 0x110 PUSH1 0x4 DUP1 CALLDATASIZE SUB DUP2 ADD SWAP1 PUSH2 0x10B SWAP2 SWAP1 PUSH2 0x5BC JUMP JUMPDEST PUSH2 0x2FA JUMP JUMPDEST PUSH1 0x40 MLOAD PUSH2 0x11D SWAP2 SWAP1 PUSH2 0x4F6 JUMP JUMPDEST PUSH1 0x40 MLOAD DUP1 SWAP2 SUB SWAP1 RETURN JUMPDEST PUSH2 0x12E PUSH2 0x36A JUMP JUMPDEST PUSH1 0x40 MLOAD PUSH2 0x13B SWAP2 SWAP1 PUSH2 0x601 JUMP JUMPDEST PUSH1 0x40 MLOAD DUP1 SWAP2 SUB SWAP1 RETURN JUMPDEST PUSH2 0x14C PUSH2 0x3A5 JUMP JUMPDEST PUSH1 0x40 MLOAD PUSH2 0x159 SWAP2 SWAP1 PUSH2 0x4F6 JUMP JUMPDEST PUSH1 0x40 MLOAD DUP1 SWAP2 SUB SWAP1 RETURN JUMPDEST PUSH2 0x16A PUSH2 0x3D1 JUMP JUMPDEST PUSH1 0x40 MLOAD PUSH2 0x177 SWAP2 SWAP1 PUSH2 0x4F6 JUMP JUMPDEST PUSH1 0x40 MLOAD DUP1 SWAP2 SUB SWAP1 RETURN JUMPDEST PUSH2 0x188 PUSH2 0x472 JUMP JUMPDEST PUSH1 0x40 MLOAD PUSH2 0x195 SWAP2 SWAP1 PUSH2 0x4F6 JUMP JUMPDEST PUSH1 0x40 MLOAD DUP1 SWAP2 SUB SWAP1 RETURN JUMPDEST PUSH0 PUSH1 0x1 PUSH1 0x4 DUP2 GT ISZERO PUSH2 0x1B3 JUMPI PUSH2 0x1B2 PUSH2 0x483 JUMP JUMPDEST JUMPDEST PUSH0 PUSH0 SWAP1 SLOAD SWAP1 PUSH2 0x100 EXP SWAP1 DIV PUSH1 0xFF AND PUSH1 0x4 DUP2 GT ISZERO PUSH2 0x1D3 JUMPI PUSH2 0x1D2 PUSH2 0x483 JUMP JUMPDEST JUMPDEST EQ PUSH2 0x213 JUMPI PUSH1 0x40 MLOAD PUSH32 0x8C379A000000000000000000000000000000000000000000000000000000000 DUP2 MSTORE PUSH1 0x4 ADD PUSH2 0x20A SWAP1 PUSH2 0x674 JUMP JUMPDEST PUSH1 0x40 MLOAD DUP1 SWAP2 SUB SWAP1 REVERT JUMPDEST PUSH1 0x2 PUSH0 PUSH0 PUSH2 0x100 EXP DUP2 SLOAD DUP2 PUSH1 0xFF MUL NOT AND SWAP1 DUP4 PUSH1 0x4 DUP2 GT ISZERO PUSH2 0x237 JUMPI PUSH2 0x236 PUSH2 0x483 JUMP JUMPDEST JUMPDEST MUL OR SWAP1 SSTORE POP SWAP1 JUMP JUMPDEST PUSH0 PUSH0 PUSH1 0x4 DUP2 GT ISZERO PUSH2 0x253 JUMPI PUSH2 0x252 PUSH2 0x483 JUMP JUMPDEST JUMPDEST PUSH0 PUSH0 SWAP1 SLOAD SWAP1 PUSH2 0x100 EXP SWAP1 DIV PUSH1 0xFF AND PUSH1 0x4 DUP2 GT ISZERO PUSH2 0x273 JUMPI PUSH2 0x272 PUSH2 0x483 JUMP JUMPDEST JUMPDEST EQ PUSH2 0x2B3 JUMPI PUSH1 0x40 MLOAD PUSH32 0x8C379A000000000000000000000000000000000000000000000000000000000 DUP2 MSTORE PUSH1 0x4 ADD PUSH2 0x2AA SWAP1 PUSH2 0x6DC JUMP JUMPDEST PUSH1 0x40 MLOAD DUP1 SWAP2 SUB SWAP1 REVERT JUMPDEST PUSH1 0x1 PUSH0 PUSH0 PUSH2 0x100 EXP DUP2 SLOAD DUP2 PUSH1 0xFF MUL NOT AND SWAP1 DUP4 PUSH1 0x4 DUP2 GT ISZERO PUSH2 0x2D7 JUMPI PUSH2 0x2D6 PUSH2 0x483 JUMP JUMPDEST JUMPDEST MUL OR SWAP1 SSTORE POP SWAP1 JUMP JUMPDEST PUSH0 DUP2 PUSH1 0x4 DUP2 GT ISZERO PUSH2 0x2F3 JUMPI PUSH2 0x2F2 PUSH2 0x483 JUMP JUMPDEST JUMPDEST SWAP1 POP SWAP2 SWAP1 POP JUMP JUMPDEST PUSH0 PUSH1 0x4 DUP1 DUP2 GT ISZERO PUSH2 0x30E JUMPI PUSH2 0x30D PUSH2 0x483 JUMP JUMPDEST JUMPDEST DUP3 GT ISZERO PUSH2 0x350 JUMPI PUSH1 0x40 MLOAD PUSH32 0x8C379A000000000000000000000000000000000000000000000000000000000 DUP2 MSTORE PUSH1 0x4 ADD PUSH2 0x347 SWAP1 PUSH2 0x744 JUMP JUMPDEST PUSH1 0x40 MLOAD DUP1 SWAP2 SUB SWAP1 REVERT JUMPDEST DUP2 PUSH1 0x4 DUP2 GT ISZERO PUSH2 0x363 JUMPI PUSH2 0x362 PUSH2 0x483 JUMP JUMPDEST JUMPDEST SWAP1 POP SWAP2 SWAP1 POP JUMP JUMPDEST PUSH0 PUSH1 0x1 PUSH1 0x4 DUP2 GT ISZERO PUSH2 0x37F JUMPI PUSH2 0x37E PUSH2 0x483 JUMP JUMPDEST JUMPDEST PUSH0 PUSH0 SWAP1 SLOAD SWAP1 PUSH2 0x100 EXP SWAP1 DIV PUSH1 0xFF AND PUSH1 0x4 DUP2 GT ISZERO PUSH2 0x39F JUMPI PUSH2 0x39E PUSH2 0x483 JUMP JUMPDEST JUMPDEST EQ SWAP1 POP SWAP1 JUMP JUMPDEST PUSH0 PUSH0 PUSH0 PUSH0 PUSH2 0x100 EXP DUP2 SLOAD DUP2 PUSH1 0xFF MUL NOT AND SWAP1 DUP4 PUSH1 0x4 DUP2 GT ISZERO PUSH2 0x3C9 JUMPI PUSH2 0x3C8 PUSH2 0x483 JUMP JUMPDEST JUMPDEST MUL OR SWAP1 SSTORE POP SWAP1 JUMP JUMPDEST PUSH0 PUSH1 0x2 PUSH1 0x4 DUP2 GT ISZERO PUSH2 0x3E6 JUMPI PUSH2 0x3E5 PUSH2 0x483 JUMP JUMPDEST JUMPDEST PUSH0 PUSH0 SWAP1 SLOAD SWAP1 PUSH2 0x100 EXP SWAP1 DIV PUSH1 0xFF AND PUSH1 0x4 DUP2 GT ISZERO PUSH2 0x406 JUMPI PUSH2 0x405 PUSH2 0x483 JUMP JUMPDEST JUMPDEST EQ PUSH2 0x446 JUMPI PUSH1 0x40 MLOAD PUSH32 0x8C379A000000000000000000000000000000000000000000000000000000000 DUP2 MSTORE PUSH1 0x4 ADD PUSH2 0x43D SWAP1 PUSH2 0x7AC JUMP JUMPDEST PUSH1 0x40 MLOAD DUP1 SWAP2 SUB SWAP1 REVERT JUMPDEST PUSH1 0x3 PUSH0 PUSH0 PUSH2 0x100 EXP DUP2 SLOAD DUP2 PUSH1 0xFF MUL NOT AND SWAP1 DUP4 PUSH1 0x4 DUP2 GT ISZERO PUSH2 0x46A JUMPI PUSH2 0x469 PUSH2 0x483 JUMP JUMPDEST JUMPDEST MUL OR SWAP1 SSTORE POP SWAP1 JUMP JUMPDEST PUSH0 PUSH0 SWAP1 SLOAD SWAP1 PUSH2 0x100 EXP SWAP1 DIV PUSH1 0xFF AND DUP2 JUMP JUMPDEST PUSH32 0x4E487B7100000000000000000000000000000000000000000000000000000000 PUSH0 MSTORE PUSH1 0x21 PUSH1 0x4 MSTORE PUSH1 0x24 PUSH0 REVERT JUMPDEST PUSH1 0x5 DUP2 LT PUSH2 0x4C1 JUMPI PUSH2 0x4C0 PUSH2 0x483 JUMP JUMPDEST JUMPDEST POP JUMP JUMPDEST PUSH0 DUP2 SWAP1 POP PUSH2 0x4D1 DUP3 PUSH2 0x4B0 JUMP JUMPDEST SWAP2 SWAP1 POP JUMP JUMPDEST PUSH0 PUSH2 0x4E0 DUP3 PUSH2 0x4C4 JUMP JUMPDEST SWAP1 POP SWAP2 SWAP1 POP JUMP JUMPDEST PUSH2 0x4F0 DUP2 PUSH2 0x4D6 JUMP JUMPDEST DUP3 MSTORE POP POP JUMP JUMPDEST PUSH0 PUSH1 0x20 DUP3 ADD SWAP1 POP PUSH2 0x509 PUSH0 DUP4 ADD DUP5 PUSH2 0x4E7 JUMP JUMPDEST SWAP3 SWAP2 POP POP JUMP JUMPDEST PUSH0 PUSH0 REVERT JUMPDEST PUSH1 0x5 DUP2 LT PUSH2 0x51F JUMPI PUSH0 PUSH0 REVERT JUMPDEST POP JUMP JUMPDEST PUSH0 DUP2 CALLDATALOAD SWAP1 POP PUSH2 0x530 DUP2 PUSH2 0x513 JUMP JUMPDEST SWAP3 SWAP2 POP POP JUMP JUMPDEST PUSH0 PUSH1 0x20 DUP3 DUP5 SUB SLT ISZERO PUSH2 0x54B JUMPI PUSH2 0x54A PUSH2 0x50F JUMP JUMPDEST JUMPDEST PUSH0 PUSH2 0x558 DUP5 DUP3 DUP6 ADD PUSH2 0x522 JUMP JUMPDEST SWAP2 POP POP SWAP3 SWAP2 POP POP JUMP JUMPDEST PUSH0 DUP2 SWAP1 POP SWAP2 SWAP1 POP JUMP JUMPDEST PUSH2 0x573 DUP2 PUSH2 0x561 JUMP JUMPDEST DUP3 MSTORE POP POP JUMP JUMPDEST PUSH0 PUSH1 0x20 DUP3 ADD SWAP1 POP PUSH2 0x58C PUSH0 DUP4 ADD DUP5 PUSH2 0x56A JUMP JUMPDEST SWAP3 SWAP2 POP POP JUMP JUMPDEST PUSH2 0x59B DUP2 PUSH2 0x561 JUMP JUMPDEST DUP2 EQ PUSH2 0x5A5 JUMPI PUSH0 PUSH0 REVERT JUMPDEST POP JUMP JUMPDEST PUSH0 DUP2 CALLDATALOAD SWAP1 POP PUSH2 0x5B6 DUP2 PUSH2 0x592 JUMP JUMPDEST SWAP3 SWAP2 POP POP JUMP JUMPDEST PUSH0 PUSH1 0x20 DUP3 DUP5 SUB SLT ISZERO PUSH2 0x5D1 JUMPI PUSH2 0x5D0 PUSH2 0x50F JUMP JUMPDEST JUMPDEST PUSH0 PUSH2 0x5DE DUP5 DUP3 DUP6 ADD PUSH2 0x5A8 JUMP JUMPDEST SWAP2 POP POP SWAP3 SWAP2 POP POP JUMP JUMPDEST PUSH0 DUP2 ISZERO ISZERO SWAP1 POP SWAP2 SWAP1 POP JUMP JUMPDEST PUSH2 0x5FB DUP2 PUSH2 0x5E7 JUMP JUMPDEST DUP3 MSTORE POP POP JUMP JUMPDEST PUSH0 PUSH1 0x20 DUP3 ADD SWAP1 POP PUSH2 0x614 PUSH0 DUP4 ADD DUP5 PUSH2 0x5F2 JUMP JUMPDEST SWAP3 SWAP2 POP POP JUMP JUMPDEST PUSH0 DUP3 DUP3 MSTORE PUSH1 0x20 DUP3 ADD SWAP1 POP SWAP3 SWAP2 POP POP JUMP JUMPDEST PUSH32 0xE8AEA2E58D95E69CAAE694AFE4BB980000000000000000000000000000000000 PUSH0 DUP3 ADD MSTORE POP JUMP JUMPDEST PUSH0 PUSH2 0x65E PUSH1 0xF DUP4 PUSH2 0x61A JUMP JUMPDEST SWAP2 POP PUSH2 0x669 DUP3 PUSH2 0x62A JUMP JUMPDEST PUSH1 0x20 DUP3 ADD SWAP1 POP SWAP2 SWAP1 POP JUMP JUMPDEST PUSH0 PUSH1 0x20 DUP3 ADD SWAP1 POP DUP2 DUP2 SUB PUSH0 DUP4 ADD MSTORE PUSH2 0x68B DUP2 PUSH2 0x652 JUMP JUMPDEST SWAP1 POP SWAP2 SWAP1 POP JUMP JUMPDEST PUSH32 0xE8AEA2E58D95E69CAAE5889BE5BBBA0000000000000000000000000000000000 PUSH0 DUP3 ADD MSTORE POP JUMP JUMPDEST PUSH0 PUSH2 0x6C6 PUSH1 0xF DUP4 PUSH2 0x61A JUMP JUMPDEST SWAP2 POP PUSH2 0x6D1 DUP3 PUSH2 0x692 JUMP JUMPDEST PUSH1 0x20 DUP3 ADD SWAP1 POP SWAP2 SWAP1 POP JUMP JUMPDEST PUSH0 PUSH1 0x20 DUP3 ADD SWAP1 POP DUP2 DUP2 SUB PUSH0 DUP4 ADD MSTORE PUSH2 0x6F3 DUP2 PUSH2 0x6BA JUMP JUMPDEST SWAP1 POP SWAP2 SWAP1 POP JUMP JUMPDEST PUSH32 0xE697A0E69588E79A84E69E9AE4B8BEE7B1BBE59E8B0000000000000000000000 PUSH0 DUP3 ADD MSTORE POP JUMP JUMPDEST PUSH0 PUSH2 0x72E PUSH1 0x15 DUP4 PUSH2 0x61A JUMP JUMPDEST SWAP2 POP PUSH2 0x739 DUP3 PUSH2 0x6FA JUMP JUMPDEST PUSH1 0x20 DUP3 ADD SWAP1 POP SWAP2 SWAP1 POP JUMP JUMPDEST PUSH0 PUSH1 0x20 DUP3 ADD SWAP1 POP DUP2 DUP2 SUB PUSH0 DUP4 ADD MSTORE PUSH2 0x75B DUP2 PUSH2 0x722 JUMP JUMPDEST SWAP1 POP SWAP2 SWAP1 POP JUMP JUMPDEST PUSH32 0xE8AEA2E58D95E69CAAE8BF90E8BE930000000000000000000000000000000000 PUSH0 DUP3 ADD MSTORE POP JUMP JUMPDEST PUSH0 PUSH2 0x796 PUSH1 0xF DUP4 PUSH2 0x61A JUMP JUMPDEST SWAP2 POP PUSH2 0x7A1 DUP3 PUSH2 0x762 JUMP JUMPDEST PUSH1 0x20 DUP3 ADD SWAP1 POP SWAP2 SWAP1 POP JUMP JUMPDEST PUSH0 PUSH1 0x20 DUP3 ADD SWAP1 POP DUP2 DUP2 SUB PUSH0 DUP4 ADD MSTORE PUSH2 0x7C3 DUP2 PUSH2 0x78A JUMP JUMPDEST SWAP1 POP SWAP2 SWAP1 POP JUMP INVALID LOG2 PUSH5 0x6970667358 0x22 SLT KECCAK256 DUP12 DUPN 0x20 PUSH19 0xD471F4AADEA9774D4784608DB6872EA895D53 PUSH13 0xF282F18B05D1CDF664736F6C63 NUMBER STOP ADDMOD 0x22 STOP CALLER "
				},
				"gasEstimates": {
					"creation": {
						"codeDepositCost": "409600",
						"executionCost": "441",
						"totalCost": "410041"
					},
					"external": {
						"createOrder()": "24724",
						"currentStatus()": "2619",
						"deliveryOrder()": "26956",
						"enum2uint(uint8)": "622",
						"isPaid()": "2530",
						"payOrder()": "26934",
						"shipOrder()": "26913",
						"uint2enum(uint256)": "832"
					}
				},
				"methodIdentifiers": {
					"createOrder()": "6512e6ec",
					"currentStatus()": "ef8a9235",
					"deliveryOrder()": "ec614e9b",
					"enum2uint(uint8)": "154a5477",
					"isPaid()": "209ebc08",
					"payOrder()": "101b4dd5",
					"shipOrder()": "0651e0c3",
					"uint2enum(uint256)": "1b422c9c"
				}
			},
			"storageLayout": {
				"storage": [
					{
						"astId": 10,
						"contract": "contracts/2.1/05enum/EnumOperators.sol:EnumOperators",
						"label": "currentStatus",
						"offset": 0,
						"slot": "0",
						"type": "t_enum(OrderStatus)7"
					}
				],
				"types": {
					"t_enum(OrderStatus)7": {
						"encoding": "inplace",
						"label": "enum EnumOperators.OrderStatus",
						"numberOfBytes": "1"
					}
				}
			},
			"userdoc": {
				"kind": "user",
				"methods": {},
				"version": 1
			}
		}
	}
}