{
	"contracts/2.1/08exec/VoteSystem.sol": {
		"VoteSystem": {
			"abi": [
				{
					"anonymous": false,
					"inputs": [
						{
							"indexed": true,
							"internalType": "address",
							"name": "voter",
							"type": "address"
						},
						{
							"indexed": false,
							"internalType": "enum VoteSystem.Vote",
							"name": "_vote",
							"type": "uint8"
						}
					],
					"name": "voteEvent",
					"type": "event"
				},
				{
					"inputs": [],
					"name": "abstainCount",
					"outputs": [
						{
							"internalType": "uint256",
							"name": "",
							"type": "uint256"
						}
					],
					"stateMutability": "view",
					"type": "function"
				},
				{
					"inputs": [],
					"name": "getResults",
					"outputs": [
						{
							"internalType": "uint256",
							"name": "",
							"type": "uint256"
						},
						{
							"internalType": "uint256",
							"name": "",
							"type": "uint256"
						},
						{
							"internalType": "uint256",
							"name": "",
							"type": "uint256"
						}
					],
					"stateMutability": "view",
					"type": "function"
				},
				{
					"inputs": [],
					"name": "getTotalVotes",
					"outputs": [
						{
							"internalType": "uint256",
							"name": "",
							"type": "uint256"
						}
					],
					"stateMutability": "view",
					"type": "function"
				},
				{
					"inputs": [],
					"name": "noCount",
					"outputs": [
						{
							"internalType": "uint256",
							"name": "",
							"type": "uint256"
						}
					],
					"stateMutability": "view",
					"type": "function"
				},
				{
					"inputs": [
						{
							"internalType": "enum VoteSystem.Vote",
							"name": "_vote",
							"type": "uint8"
						}
					],
					"name": "vote",
					"outputs": [
						{
							"internalType": "string",
							"name": "",
							"type": "string"
						}
					],
					"stateMutability": "nonpayable",
					"type": "function"
				},
				{
					"inputs": [],
					"name": "yesCount",
					"outputs": [
						{
							"internalType": "uint256",
							"name": "",
							"type": "uint256"
						}
					],
					"stateMutability": "view",
					"type": "function"
				}
			],
			"devdoc": {
				"kind": "dev",
				"methods": {},
				"version": 1
			},
			"evm": {
				"assembly": "    /* \"contracts/2.1/08exec/VoteSystem.sol\":58:1177  contract VoteSystem{... */\n  mstore(0x40, 0x80)\n  callvalue\n  dup1\n  iszero\n  tag_1\n  jumpi\n  revert(0x00, 0x00)\ntag_1:\n  pop\n  dataSize(sub_0)\n  dup1\n  dataOffset(sub_0)\n  0x00\n  codecopy\n  0x00\n  return\nstop\n\nsub_0: assembly {\n        /* \"contracts/2.1/08exec/VoteSystem.sol\":58:1177  contract VoteSystem{... */\n      mstore(0x40, 0x80)\n      callvalue\n      dup1\n      iszero\n      tag_1\n      jumpi\n      revert(0x00, 0x00)\n    tag_1:\n      pop\n      jumpi(tag_2, lt(calldatasize, 0x04))\n      shr(0xe0, calldataload(0x00))\n      dup1\n      0x3e118090\n      eq\n      tag_3\n      jumpi\n      dup1\n      0x4717f97c\n      eq\n      tag_4\n      jumpi\n      dup1\n      0x5c8d9541\n      eq\n      tag_5\n      jumpi\n      dup1\n      0x9a0e7d66\n      eq\n      tag_6\n      jumpi\n      dup1\n      0xa2fcbad7\n      eq\n      tag_7\n      jumpi\n      dup1\n      0xb3f98adc\n      eq\n      tag_8\n      jumpi\n    tag_2:\n      revert(0x00, 0x00)\n        /* \"contracts/2.1/08exec/VoteSystem.sol\":305:329  uint public abstainCount */\n    tag_3:\n      tag_9\n      tag_10\n      jump\t// in\n    tag_9:\n      mload(0x40)\n      tag_11\n      swap2\n      swap1\n      tag_12\n      jump\t// in\n    tag_11:\n      mload(0x40)\n      dup1\n      swap2\n      sub\n      swap1\n      return\n        /* \"contracts/2.1/08exec/VoteSystem.sol\":923:1037  function getResults() public view returns(uint,uint,uint){... */\n    tag_4:\n      tag_13\n      tag_14\n      jump\t// in\n    tag_13:\n      mload(0x40)\n      tag_15\n      swap4\n      swap3\n      swap2\n      swap1\n      tag_16\n      jump\t// in\n    tag_15:\n      mload(0x40)\n      dup1\n      swap2\n      sub\n      swap1\n      return\n        /* \"contracts/2.1/08exec/VoteSystem.sol\":252:272  uint public yesCount */\n    tag_5:\n      tag_17\n      tag_18\n      jump\t// in\n    tag_17:\n      mload(0x40)\n      tag_19\n      swap2\n      swap1\n      tag_12\n      jump\t// in\n    tag_19:\n      mload(0x40)\n      dup1\n      swap2\n      sub\n      swap1\n      return\n        /* \"contracts/2.1/08exec/VoteSystem.sol\":1069:1174  function getTotalVotes() public view returns(uint){... */\n    tag_6:\n      tag_20\n      tag_21\n      jump\t// in\n    tag_20:\n      mload(0x40)\n      tag_22\n      swap2\n      swap1\n      tag_12\n      jump\t// in\n    tag_22:\n      mload(0x40)\n      dup1\n      swap2\n      sub\n      swap1\n      return\n        /* \"contracts/2.1/08exec/VoteSystem.sol\":279:298  uint public noCount */\n    tag_7:\n      tag_23\n      tag_24\n      jump\t// in\n    tag_23:\n      mload(0x40)\n      tag_25\n      swap2\n      swap1\n      tag_12\n      jump\t// in\n    tag_25:\n      mload(0x40)\n      dup1\n      swap2\n      sub\n      swap1\n      return\n        /* \"contracts/2.1/08exec/VoteSystem.sol\":432:891  function vote(Vote _vote) public  returns(string memory){... */\n    tag_8:\n      tag_26\n      0x04\n      dup1\n      calldatasize\n      sub\n      dup2\n      add\n      swap1\n      tag_27\n      swap2\n      swap1\n      tag_28\n      jump\t// in\n    tag_27:\n      tag_29\n      jump\t// in\n    tag_26:\n      mload(0x40)\n      tag_30\n      swap2\n      swap1\n      tag_31\n      jump\t// in\n    tag_30:\n      mload(0x40)\n      dup1\n      swap2\n      sub\n      swap1\n      return\n        /* \"contracts/2.1/08exec/VoteSystem.sol\":305:329  uint public abstainCount */\n    tag_10:\n      sload(0x04)\n      dup2\n      jump\t// out\n        /* \"contracts/2.1/08exec/VoteSystem.sol\":923:1037  function getResults() public view returns(uint,uint,uint){... */\n    tag_14:\n        /* \"contracts/2.1/08exec/VoteSystem.sol\":965:969  uint */\n      0x00\n        /* \"contracts/2.1/08exec/VoteSystem.sol\":970:974  uint */\n      0x00\n        /* \"contracts/2.1/08exec/VoteSystem.sol\":975:979  uint */\n      0x00\n        /* \"contracts/2.1/08exec/VoteSystem.sol\":999:1007  yesCount */\n      sload(0x02)\n        /* \"contracts/2.1/08exec/VoteSystem.sol\":1008:1015  noCount */\n      sload(0x03)\n        /* \"contracts/2.1/08exec/VoteSystem.sol\":1016:1028  abstainCount */\n      sload(0x04)\n        /* \"contracts/2.1/08exec/VoteSystem.sol\":991:1029  return (yesCount,noCount,abstainCount) */\n      swap3\n      pop\n      swap3\n      pop\n      swap3\n      pop\n        /* \"contracts/2.1/08exec/VoteSystem.sol\":923:1037  function getResults() public view returns(uint,uint,uint){... */\n      swap1\n      swap2\n      swap3\n      jump\t// out\n        /* \"contracts/2.1/08exec/VoteSystem.sol\":252:272  uint public yesCount */\n    tag_18:\n      sload(0x02)\n      dup2\n      jump\t// out\n        /* \"contracts/2.1/08exec/VoteSystem.sol\":1069:1174  function getTotalVotes() public view returns(uint){... */\n    tag_21:\n        /* \"contracts/2.1/08exec/VoteSystem.sol\":1114:1118  uint */\n      0x00\n        /* \"contracts/2.1/08exec/VoteSystem.sol\":1154:1166  abstainCount */\n      sload(0x04)\n        /* \"contracts/2.1/08exec/VoteSystem.sol\":1146:1153  noCount */\n      sload(0x03)\n        /* \"contracts/2.1/08exec/VoteSystem.sol\":1137:1145  yesCount */\n      sload(0x02)\n        /* \"contracts/2.1/08exec/VoteSystem.sol\":1137:1153  yesCount+noCount */\n      tag_34\n      swap2\n      swap1\n      tag_35\n      jump\t// in\n    tag_34:\n        /* \"contracts/2.1/08exec/VoteSystem.sol\":1137:1166  yesCount+noCount+abstainCount */\n      tag_36\n      swap2\n      swap1\n      tag_35\n      jump\t// in\n    tag_36:\n        /* \"contracts/2.1/08exec/VoteSystem.sol\":1130:1166  return yesCount+noCount+abstainCount */\n      swap1\n      pop\n        /* \"contracts/2.1/08exec/VoteSystem.sol\":1069:1174  function getTotalVotes() public view returns(uint){... */\n      swap1\n      jump\t// out\n        /* \"contracts/2.1/08exec/VoteSystem.sol\":279:298  uint public noCount */\n    tag_24:\n      sload(0x03)\n      dup2\n      jump\t// out\n        /* \"contracts/2.1/08exec/VoteSystem.sol\":432:891  function vote(Vote _vote) public  returns(string memory){... */\n    tag_29:\n        /* \"contracts/2.1/08exec/VoteSystem.sol\":474:487  string memory */\n      0x60\n        /* \"contracts/2.1/08exec/VoteSystem.sol\":508:517  hasVoteds */\n      0x01\n        /* \"contracts/2.1/08exec/VoteSystem.sol\":508:529  hasVoteds[msg.sender] */\n      0x00\n        /* \"contracts/2.1/08exec/VoteSystem.sol\":518:528  msg.sender */\n      caller\n        /* \"contracts/2.1/08exec/VoteSystem.sol\":508:529  hasVoteds[msg.sender] */\n      0xffffffffffffffffffffffffffffffffffffffff\n      and\n      0xffffffffffffffffffffffffffffffffffffffff\n      and\n      dup2\n      mstore\n      0x20\n      add\n      swap1\n      dup2\n      mstore\n      0x20\n      add\n      0x00\n      keccak256\n      0x00\n      swap1\n      sload\n      swap1\n      0x0100\n      exp\n      swap1\n      div\n      0xff\n      and\n        /* \"contracts/2.1/08exec/VoteSystem.sol\":507:529  !hasVoteds[msg.sender] */\n      iszero\n        /* \"contracts/2.1/08exec/VoteSystem.sol\":499:558  require(!hasVoteds[msg.sender],unicode\"您已经投过票\") */\n      tag_38\n      jumpi\n      mload(0x40)\n      0x08c379a000000000000000000000000000000000000000000000000000000000\n      dup2\n      mstore\n      0x04\n      add\n      tag_39\n      swap1\n      tag_40\n      jump\t// in\n    tag_39:\n      mload(0x40)\n      dup1\n      swap2\n      sub\n      swap1\n      revert\n    tag_38:\n        /* \"contracts/2.1/08exec/VoteSystem.sol\":587:592  _vote */\n      dup2\n        /* \"contracts/2.1/08exec/VoteSystem.sol\":569:574  votes */\n      0x00\n        /* \"contracts/2.1/08exec/VoteSystem.sol\":569:586  votes[msg.sender] */\n      0x00\n        /* \"contracts/2.1/08exec/VoteSystem.sol\":575:585  msg.sender */\n      caller\n        /* \"contracts/2.1/08exec/VoteSystem.sol\":569:586  votes[msg.sender] */\n      0xffffffffffffffffffffffffffffffffffffffff\n      and\n      0xffffffffffffffffffffffffffffffffffffffff\n      and\n      dup2\n      mstore\n      0x20\n      add\n      swap1\n      dup2\n      mstore\n      0x20\n      add\n      0x00\n      keccak256\n      0x00\n        /* \"contracts/2.1/08exec/VoteSystem.sol\":569:592  votes[msg.sender]=_vote */\n      0x0100\n      exp\n      dup2\n      sload\n      dup2\n      0xff\n      mul\n      not\n      and\n      swap1\n      dup4\n      0x02\n      dup2\n      gt\n      iszero\n      tag_41\n      jumpi\n      tag_42\n      tag_43\n      jump\t// in\n    tag_42:\n    tag_41:\n      mul\n      or\n      swap1\n      sstore\n      pop\n        /* \"contracts/2.1/08exec/VoteSystem.sol\":625:629  true */\n      0x01\n        /* \"contracts/2.1/08exec/VoteSystem.sol\":603:612  hasVoteds */\n      dup1\n        /* \"contracts/2.1/08exec/VoteSystem.sol\":603:624  hasVoteds[msg.sender] */\n      0x00\n        /* \"contracts/2.1/08exec/VoteSystem.sol\":613:623  msg.sender */\n      caller\n        /* \"contracts/2.1/08exec/VoteSystem.sol\":603:624  hasVoteds[msg.sender] */\n      0xffffffffffffffffffffffffffffffffffffffff\n      and\n      0xffffffffffffffffffffffffffffffffffffffff\n      and\n      dup2\n      mstore\n      0x20\n      add\n      swap1\n      dup2\n      mstore\n      0x20\n      add\n      0x00\n      keccak256\n      0x00\n        /* \"contracts/2.1/08exec/VoteSystem.sol\":603:629  hasVoteds[msg.sender]=true */\n      0x0100\n      exp\n      dup2\n      sload\n      dup2\n      0xff\n      mul\n      not\n      and\n      swap1\n      dup4\n      iszero\n      iszero\n      mul\n      or\n      swap1\n      sstore\n      pop\n        /* \"contracts/2.1/08exec/VoteSystem.sol\":651:659  Vote.YES */\n      0x00\n        /* \"contracts/2.1/08exec/VoteSystem.sol\":644:659  _vote==Vote.YES */\n      0x02\n      dup2\n      gt\n      iszero\n      tag_44\n      jumpi\n      tag_45\n      tag_43\n      jump\t// in\n    tag_45:\n    tag_44:\n        /* \"contracts/2.1/08exec/VoteSystem.sol\":644:649  _vote */\n      dup3\n        /* \"contracts/2.1/08exec/VoteSystem.sol\":644:659  _vote==Vote.YES */\n      0x02\n      dup2\n      gt\n      iszero\n      tag_46\n      jumpi\n      tag_47\n      tag_43\n      jump\t// in\n    tag_47:\n    tag_46:\n      sub\n        /* \"contracts/2.1/08exec/VoteSystem.sol\":640:801  if (_vote==Vote.YES){... */\n      tag_48\n      jumpi\n        /* \"contracts/2.1/08exec/VoteSystem.sol\":675:683  yesCount */\n      0x02\n      0x00\n        /* \"contracts/2.1/08exec/VoteSystem.sol\":675:685  yesCount++ */\n      dup2\n      sload\n      dup1\n      swap3\n      swap2\n      swap1\n      tag_49\n      swap1\n      tag_50\n      jump\t// in\n    tag_49:\n      swap2\n      swap1\n      pop\n      sstore\n      pop\n        /* \"contracts/2.1/08exec/VoteSystem.sol\":640:801  if (_vote==Vote.YES){... */\n      jump(tag_51)\n    tag_48:\n        /* \"contracts/2.1/08exec/VoteSystem.sol\":712:719  Vote.NO */\n      0x01\n        /* \"contracts/2.1/08exec/VoteSystem.sol\":705:719  _vote==Vote.NO */\n      0x02\n      dup2\n      gt\n      iszero\n      tag_52\n      jumpi\n      tag_53\n      tag_43\n      jump\t// in\n    tag_53:\n    tag_52:\n        /* \"contracts/2.1/08exec/VoteSystem.sol\":705:710  _vote */\n      dup3\n        /* \"contracts/2.1/08exec/VoteSystem.sol\":705:719  _vote==Vote.NO */\n      0x02\n      dup2\n      gt\n      iszero\n      tag_54\n      jumpi\n      tag_55\n      tag_43\n      jump\t// in\n    tag_55:\n    tag_54:\n      sub\n        /* \"contracts/2.1/08exec/VoteSystem.sol\":702:801  if(_vote==Vote.NO){... */\n      tag_56\n      jumpi\n        /* \"contracts/2.1/08exec/VoteSystem.sol\":735:742  noCount */\n      0x03\n      0x00\n        /* \"contracts/2.1/08exec/VoteSystem.sol\":735:744  noCount++ */\n      dup2\n      sload\n      dup1\n      swap3\n      swap2\n      swap1\n      tag_57\n      swap1\n      tag_50\n      jump\t// in\n    tag_57:\n      swap2\n      swap1\n      pop\n      sstore\n      pop\n        /* \"contracts/2.1/08exec/VoteSystem.sol\":702:801  if(_vote==Vote.NO){... */\n      jump(tag_58)\n    tag_56:\n        /* \"contracts/2.1/08exec/VoteSystem.sol\":775:787  abstainCount */\n      0x04\n      0x00\n        /* \"contracts/2.1/08exec/VoteSystem.sol\":775:789  abstainCount++ */\n      dup2\n      sload\n      dup1\n      swap3\n      swap2\n      swap1\n      tag_59\n      swap1\n      tag_50\n      jump\t// in\n    tag_59:\n      swap2\n      swap1\n      pop\n      sstore\n      pop\n        /* \"contracts/2.1/08exec/VoteSystem.sol\":702:801  if(_vote==Vote.NO){... */\n    tag_58:\n        /* \"contracts/2.1/08exec/VoteSystem.sol\":640:801  if (_vote==Vote.YES){... */\n    tag_51:\n        /* \"contracts/2.1/08exec/VoteSystem.sol\":826:836  msg.sender */\n      caller\n        /* \"contracts/2.1/08exec/VoteSystem.sol\":816:844  voteEvent(msg.sender, _vote) */\n      0xffffffffffffffffffffffffffffffffffffffff\n      and\n      0x311c0eec4f4ae47f6468571d2f25b7efe39440e6ac6cd60d5e2ec484735b41fe\n        /* \"contracts/2.1/08exec/VoteSystem.sol\":838:843  _vote */\n      dup4\n        /* \"contracts/2.1/08exec/VoteSystem.sol\":816:844  voteEvent(msg.sender, _vote) */\n      mload(0x40)\n      tag_60\n      swap2\n      swap1\n      tag_61\n      jump\t// in\n    tag_60:\n      mload(0x40)\n      dup1\n      swap2\n      sub\n      swap1\n      log2\n        /* \"contracts/2.1/08exec/VoteSystem.sol\":855:883  return unicode\"投票成功\" */\n      mload(0x40)\n      dup1\n      0x40\n      add\n      0x40\n      mstore\n      dup1\n      0x0c\n      dup2\n      mstore\n      0x20\n      add\n      0xe68a95e7a5a8e68890e58a9f0000000000000000000000000000000000000000\n      dup2\n      mstore\n      pop\n      swap1\n      pop\n        /* \"contracts/2.1/08exec/VoteSystem.sol\":432:891  function vote(Vote _vote) public  returns(string memory){... */\n      swap2\n      swap1\n      pop\n      jump\t// out\n        /* \"#utility.yul\":7:84   */\n    tag_62:\n        /* \"#utility.yul\":44:51   */\n      0x00\n        /* \"#utility.yul\":73:78   */\n      dup2\n        /* \"#utility.yul\":62:78   */\n      swap1\n      pop\n        /* \"#utility.yul\":7:84   */\n      swap2\n      swap1\n      pop\n      jump\t// out\n        /* \"#utility.yul\":90:208   */\n    tag_63:\n        /* \"#utility.yul\":177:201   */\n      tag_84\n        /* \"#utility.yul\":195:200   */\n      dup2\n        /* \"#utility.yul\":177:201   */\n      tag_62\n      jump\t// in\n    tag_84:\n        /* \"#utility.yul\":172:175   */\n      dup3\n        /* \"#utility.yul\":165:202   */\n      mstore\n        /* \"#utility.yul\":90:208   */\n      pop\n      pop\n      jump\t// out\n        /* \"#utility.yul\":214:436   */\n    tag_12:\n        /* \"#utility.yul\":307:311   */\n      0x00\n        /* \"#utility.yul\":345:347   */\n      0x20\n        /* \"#utility.yul\":334:343   */\n      dup3\n        /* \"#utility.yul\":330:348   */\n      add\n        /* \"#utility.yul\":322:348   */\n      swap1\n      pop\n        /* \"#utility.yul\":358:429   */\n      tag_86\n        /* \"#utility.yul\":426:427   */\n      0x00\n        /* \"#utility.yul\":415:424   */\n      dup4\n        /* \"#utility.yul\":411:428   */\n      add\n        /* \"#utility.yul\":402:408   */\n      dup5\n        /* \"#utility.yul\":358:429   */\n      tag_63\n      jump\t// in\n    tag_86:\n        /* \"#utility.yul\":214:436   */\n      swap3\n      swap2\n      pop\n      pop\n      jump\t// out\n        /* \"#utility.yul\":442:884   */\n    tag_16:\n        /* \"#utility.yul\":591:595   */\n      0x00\n        /* \"#utility.yul\":629:631   */\n      0x60\n        /* \"#utility.yul\":618:627   */\n      dup3\n        /* \"#utility.yul\":614:632   */\n      add\n        /* \"#utility.yul\":606:632   */\n      swap1\n      pop\n        /* \"#utility.yul\":642:713   */\n      tag_88\n        /* \"#utility.yul\":710:711   */\n      0x00\n        /* \"#utility.yul\":699:708   */\n      dup4\n        /* \"#utility.yul\":695:712   */\n      add\n        /* \"#utility.yul\":686:692   */\n      dup7\n        /* \"#utility.yul\":642:713   */\n      tag_63\n      jump\t// in\n    tag_88:\n        /* \"#utility.yul\":723:795   */\n      tag_89\n        /* \"#utility.yul\":791:793   */\n      0x20\n        /* \"#utility.yul\":780:789   */\n      dup4\n        /* \"#utility.yul\":776:794   */\n      add\n        /* \"#utility.yul\":767:773   */\n      dup6\n        /* \"#utility.yul\":723:795   */\n      tag_63\n      jump\t// in\n    tag_89:\n        /* \"#utility.yul\":805:877   */\n      tag_90\n        /* \"#utility.yul\":873:875   */\n      0x40\n        /* \"#utility.yul\":862:871   */\n      dup4\n        /* \"#utility.yul\":858:876   */\n      add\n        /* \"#utility.yul\":849:855   */\n      dup5\n        /* \"#utility.yul\":805:877   */\n      tag_63\n      jump\t// in\n    tag_90:\n        /* \"#utility.yul\":442:884   */\n      swap5\n      swap4\n      pop\n      pop\n      pop\n      pop\n      jump\t// out\n        /* \"#utility.yul\":971:1088   */\n    tag_65:\n        /* \"#utility.yul\":1080:1081   */\n      0x00\n        /* \"#utility.yul\":1077:1078   */\n      0x00\n        /* \"#utility.yul\":1070:1082   */\n      revert\n        /* \"#utility.yul\":1217:1322   */\n    tag_67:\n        /* \"#utility.yul\":1296:1297   */\n      0x03\n        /* \"#utility.yul\":1289:1294   */\n      dup2\n        /* \"#utility.yul\":1286:1298   */\n      lt\n        /* \"#utility.yul\":1276:1316   */\n      tag_95\n      jumpi\n        /* \"#utility.yul\":1312:1313   */\n      0x00\n        /* \"#utility.yul\":1309:1310   */\n      0x00\n        /* \"#utility.yul\":1302:1314   */\n      revert\n        /* \"#utility.yul\":1276:1316   */\n    tag_95:\n        /* \"#utility.yul\":1217:1322   */\n      pop\n      jump\t// out\n        /* \"#utility.yul\":1328:1479   */\n    tag_68:\n        /* \"#utility.yul\":1380:1385   */\n      0x00\n        /* \"#utility.yul\":1418:1424   */\n      dup2\n        /* \"#utility.yul\":1405:1425   */\n      calldataload\n        /* \"#utility.yul\":1396:1425   */\n      swap1\n      pop\n        /* \"#utility.yul\":1434:1473   */\n      tag_97\n        /* \"#utility.yul\":1467:1472   */\n      dup2\n        /* \"#utility.yul\":1434:1473   */\n      tag_67\n      jump\t// in\n    tag_97:\n        /* \"#utility.yul\":1328:1479   */\n      swap3\n      swap2\n      pop\n      pop\n      jump\t// out\n        /* \"#utility.yul\":1485:1826   */\n    tag_28:\n        /* \"#utility.yul\":1550:1556   */\n      0x00\n        /* \"#utility.yul\":1599:1601   */\n      0x20\n        /* \"#utility.yul\":1587:1596   */\n      dup3\n        /* \"#utility.yul\":1578:1585   */\n      dup5\n        /* \"#utility.yul\":1574:1597   */\n      sub\n        /* \"#utility.yul\":1570:1602   */\n      slt\n        /* \"#utility.yul\":1567:1686   */\n      iszero\n      tag_99\n      jumpi\n        /* \"#utility.yul\":1605:1684   */\n      tag_100\n      tag_65\n      jump\t// in\n    tag_100:\n        /* \"#utility.yul\":1567:1686   */\n    tag_99:\n        /* \"#utility.yul\":1725:1726   */\n      0x00\n        /* \"#utility.yul\":1750:1809   */\n      tag_101\n        /* \"#utility.yul\":1801:1808   */\n      dup5\n        /* \"#utility.yul\":1792:1798   */\n      dup3\n        /* \"#utility.yul\":1781:1790   */\n      dup6\n        /* \"#utility.yul\":1777:1799   */\n      add\n        /* \"#utility.yul\":1750:1809   */\n      tag_68\n      jump\t// in\n    tag_101:\n        /* \"#utility.yul\":1740:1809   */\n      swap2\n      pop\n        /* \"#utility.yul\":1696:1819   */\n      pop\n        /* \"#utility.yul\":1485:1826   */\n      swap3\n      swap2\n      pop\n      pop\n      jump\t// out\n        /* \"#utility.yul\":1832:1931   */\n    tag_69:\n        /* \"#utility.yul\":1884:1890   */\n      0x00\n        /* \"#utility.yul\":1918:1923   */\n      dup2\n        /* \"#utility.yul\":1912:1924   */\n      mload\n        /* \"#utility.yul\":1902:1924   */\n      swap1\n      pop\n        /* \"#utility.yul\":1832:1931   */\n      swap2\n      swap1\n      pop\n      jump\t// out\n        /* \"#utility.yul\":1937:2106   */\n    tag_70:\n        /* \"#utility.yul\":2021:2032   */\n      0x00\n        /* \"#utility.yul\":2055:2061   */\n      dup3\n        /* \"#utility.yul\":2050:2053   */\n      dup3\n        /* \"#utility.yul\":2043:2062   */\n      mstore\n        /* \"#utility.yul\":2095:2099   */\n      0x20\n        /* \"#utility.yul\":2090:2093   */\n      dup3\n        /* \"#utility.yul\":2086:2100   */\n      add\n        /* \"#utility.yul\":2071:2100   */\n      swap1\n      pop\n        /* \"#utility.yul\":1937:2106   */\n      swap3\n      swap2\n      pop\n      pop\n      jump\t// out\n        /* \"#utility.yul\":2112:2251   */\n    tag_71:\n        /* \"#utility.yul\":2201:2207   */\n      dup3\n        /* \"#utility.yul\":2196:2199   */\n      dup2\n        /* \"#utility.yul\":2191:2194   */\n      dup4\n        /* \"#utility.yul\":2185:2208   */\n      mcopy\n        /* \"#utility.yul\":2242:2243   */\n      0x00\n        /* \"#utility.yul\":2233:2239   */\n      dup4\n        /* \"#utility.yul\":2228:2231   */\n      dup4\n        /* \"#utility.yul\":2224:2240   */\n      add\n        /* \"#utility.yul\":2217:2244   */\n      mstore\n        /* \"#utility.yul\":2112:2251   */\n      pop\n      pop\n      pop\n      jump\t// out\n        /* \"#utility.yul\":2257:2359   */\n    tag_72:\n        /* \"#utility.yul\":2298:2304   */\n      0x00\n        /* \"#utility.yul\":2349:2351   */\n      0x1f\n        /* \"#utility.yul\":2345:2352   */\n      not\n        /* \"#utility.yul\":2340:2342   */\n      0x1f\n        /* \"#utility.yul\":2333:2338   */\n      dup4\n        /* \"#utility.yul\":2329:2343   */\n      add\n        /* \"#utility.yul\":2325:2353   */\n      and\n        /* \"#utility.yul\":2315:2353   */\n      swap1\n      pop\n        /* \"#utility.yul\":2257:2359   */\n      swap2\n      swap1\n      pop\n      jump\t// out\n        /* \"#utility.yul\":2365:2742   */\n    tag_73:\n        /* \"#utility.yul\":2453:2456   */\n      0x00\n        /* \"#utility.yul\":2481:2520   */\n      tag_107\n        /* \"#utility.yul\":2514:2519   */\n      dup3\n        /* \"#utility.yul\":2481:2520   */\n      tag_69\n      jump\t// in\n    tag_107:\n        /* \"#utility.yul\":2536:2607   */\n      tag_108\n        /* \"#utility.yul\":2600:2606   */\n      dup2\n        /* \"#utility.yul\":2595:2598   */\n      dup6\n        /* \"#utility.yul\":2536:2607   */\n      tag_70\n      jump\t// in\n    tag_108:\n        /* \"#utility.yul\":2529:2607   */\n      swap4\n      pop\n        /* \"#utility.yul\":2616:2681   */\n      tag_109\n        /* \"#utility.yul\":2674:2680   */\n      dup2\n        /* \"#utility.yul\":2669:2672   */\n      dup6\n        /* \"#utility.yul\":2662:2666   */\n      0x20\n        /* \"#utility.yul\":2655:2660   */\n      dup7\n        /* \"#utility.yul\":2651:2667   */\n      add\n        /* \"#utility.yul\":2616:2681   */\n      tag_71\n      jump\t// in\n    tag_109:\n        /* \"#utility.yul\":2706:2735   */\n      tag_110\n        /* \"#utility.yul\":2728:2734   */\n      dup2\n        /* \"#utility.yul\":2706:2735   */\n      tag_72\n      jump\t// in\n    tag_110:\n        /* \"#utility.yul\":2701:2704   */\n      dup5\n        /* \"#utility.yul\":2697:2736   */\n      add\n        /* \"#utility.yul\":2690:2736   */\n      swap2\n      pop\n        /* \"#utility.yul\":2457:2742   */\n      pop\n        /* \"#utility.yul\":2365:2742   */\n      swap3\n      swap2\n      pop\n      pop\n      jump\t// out\n        /* \"#utility.yul\":2748:3061   */\n    tag_31:\n        /* \"#utility.yul\":2861:2865   */\n      0x00\n        /* \"#utility.yul\":2899:2901   */\n      0x20\n        /* \"#utility.yul\":2888:2897   */\n      dup3\n        /* \"#utility.yul\":2884:2902   */\n      add\n        /* \"#utility.yul\":2876:2902   */\n      swap1\n      pop\n        /* \"#utility.yul\":2948:2957   */\n      dup2\n        /* \"#utility.yul\":2942:2946   */\n      dup2\n        /* \"#utility.yul\":2938:2958   */\n      sub\n        /* \"#utility.yul\":2934:2935   */\n      0x00\n        /* \"#utility.yul\":2923:2932   */\n      dup4\n        /* \"#utility.yul\":2919:2936   */\n      add\n        /* \"#utility.yul\":2912:2959   */\n      mstore\n        /* \"#utility.yul\":2976:3054   */\n      tag_112\n        /* \"#utility.yul\":3049:3053   */\n      dup2\n        /* \"#utility.yul\":3040:3046   */\n      dup5\n        /* \"#utility.yul\":2976:3054   */\n      tag_73\n      jump\t// in\n    tag_112:\n        /* \"#utility.yul\":2968:3054   */\n      swap1\n      pop\n        /* \"#utility.yul\":2748:3061   */\n      swap3\n      swap2\n      pop\n      pop\n      jump\t// out\n        /* \"#utility.yul\":3067:3247   */\n    tag_74:\n        /* \"#utility.yul\":3115:3192   */\n      0x4e487b7100000000000000000000000000000000000000000000000000000000\n        /* \"#utility.yul\":3112:3113   */\n      0x00\n        /* \"#utility.yul\":3105:3193   */\n      mstore\n        /* \"#utility.yul\":3212:3216   */\n      0x11\n        /* \"#utility.yul\":3209:3210   */\n      0x04\n        /* \"#utility.yul\":3202:3217   */\n      mstore\n        /* \"#utility.yul\":3236:3240   */\n      0x24\n        /* \"#utility.yul\":3233:3234   */\n      0x00\n        /* \"#utility.yul\":3226:3241   */\n      revert\n        /* \"#utility.yul\":3253:3444   */\n    tag_35:\n        /* \"#utility.yul\":3293:3296   */\n      0x00\n        /* \"#utility.yul\":3312:3332   */\n      tag_115\n        /* \"#utility.yul\":3330:3331   */\n      dup3\n        /* \"#utility.yul\":3312:3332   */\n      tag_62\n      jump\t// in\n    tag_115:\n        /* \"#utility.yul\":3307:3332   */\n      swap2\n      pop\n        /* \"#utility.yul\":3346:3366   */\n      tag_116\n        /* \"#utility.yul\":3364:3365   */\n      dup4\n        /* \"#utility.yul\":3346:3366   */\n      tag_62\n      jump\t// in\n    tag_116:\n        /* \"#utility.yul\":3341:3366   */\n      swap3\n      pop\n        /* \"#utility.yul\":3389:3390   */\n      dup3\n        /* \"#utility.yul\":3386:3387   */\n      dup3\n        /* \"#utility.yul\":3382:3391   */\n      add\n        /* \"#utility.yul\":3375:3391   */\n      swap1\n      pop\n        /* \"#utility.yul\":3410:3413   */\n      dup1\n        /* \"#utility.yul\":3407:3408   */\n      dup3\n        /* \"#utility.yul\":3404:3414   */\n      gt\n        /* \"#utility.yul\":3401:3437   */\n      iszero\n      tag_117\n      jumpi\n        /* \"#utility.yul\":3417:3435   */\n      tag_118\n      tag_74\n      jump\t// in\n    tag_118:\n        /* \"#utility.yul\":3401:3437   */\n    tag_117:\n        /* \"#utility.yul\":3253:3444   */\n      swap3\n      swap2\n      pop\n      pop\n      jump\t// out\n        /* \"#utility.yul\":3450:3664   */\n    tag_75:\n        /* \"#utility.yul\":3590:3656   */\n      0xe682a8e5b7b2e7bb8fe68a95e8bf87e7a5a80000000000000000000000000000\n        /* \"#utility.yul\":3586:3587   */\n      0x00\n        /* \"#utility.yul\":3578:3584   */\n      dup3\n        /* \"#utility.yul\":3574:3588   */\n      add\n        /* \"#utility.yul\":3567:3657   */\n      mstore\n        /* \"#utility.yul\":3450:3664   */\n      pop\n      jump\t// out\n        /* \"#utility.yul\":3670:4036   */\n    tag_76:\n        /* \"#utility.yul\":3812:3815   */\n      0x00\n        /* \"#utility.yul\":3833:3900   */\n      tag_121\n        /* \"#utility.yul\":3897:3899   */\n      0x12\n        /* \"#utility.yul\":3892:3895   */\n      dup4\n        /* \"#utility.yul\":3833:3900   */\n      tag_70\n      jump\t// in\n    tag_121:\n        /* \"#utility.yul\":3826:3900   */\n      swap2\n      pop\n        /* \"#utility.yul\":3909:4002   */\n      tag_122\n        /* \"#utility.yul\":3998:4001   */\n      dup3\n        /* \"#utility.yul\":3909:4002   */\n      tag_75\n      jump\t// in\n    tag_122:\n        /* \"#utility.yul\":4027:4029   */\n      0x20\n        /* \"#utility.yul\":4022:4025   */\n      dup3\n        /* \"#utility.yul\":4018:4030   */\n      add\n        /* \"#utility.yul\":4011:4030   */\n      swap1\n      pop\n        /* \"#utility.yul\":3670:4036   */\n      swap2\n      swap1\n      pop\n      jump\t// out\n        /* \"#utility.yul\":4042:4461   */\n    tag_40:\n        /* \"#utility.yul\":4208:4212   */\n      0x00\n        /* \"#utility.yul\":4246:4248   */\n      0x20\n        /* \"#utility.yul\":4235:4244   */\n      dup3\n        /* \"#utility.yul\":4231:4249   */\n      add\n        /* \"#utility.yul\":4223:4249   */\n      swap1\n      pop\n        /* \"#utility.yul\":4295:4304   */\n      dup2\n        /* \"#utility.yul\":4289:4293   */\n      dup2\n        /* \"#utility.yul\":4285:4305   */\n      sub\n        /* \"#utility.yul\":4281:4282   */\n      0x00\n        /* \"#utility.yul\":4270:4279   */\n      dup4\n        /* \"#utility.yul\":4266:4283   */\n      add\n        /* \"#utility.yul\":4259:4306   */\n      mstore\n        /* \"#utility.yul\":4323:4454   */\n      tag_124\n        /* \"#utility.yul\":4449:4453   */\n      dup2\n        /* \"#utility.yul\":4323:4454   */\n      tag_76\n      jump\t// in\n    tag_124:\n        /* \"#utility.yul\":4315:4454   */\n      swap1\n      pop\n        /* \"#utility.yul\":4042:4461   */\n      swap2\n      swap1\n      pop\n      jump\t// out\n        /* \"#utility.yul\":4467:4647   */\n    tag_43:\n        /* \"#utility.yul\":4515:4592   */\n      0x4e487b7100000000000000000000000000000000000000000000000000000000\n        /* \"#utility.yul\":4512:4513   */\n      0x00\n        /* \"#utility.yul\":4505:4593   */\n      mstore\n        /* \"#utility.yul\":4612:4616   */\n      0x21\n        /* \"#utility.yul\":4609:4610   */\n      0x04\n        /* \"#utility.yul\":4602:4617   */\n      mstore\n        /* \"#utility.yul\":4636:4640   */\n      0x24\n        /* \"#utility.yul\":4633:4634   */\n      0x00\n        /* \"#utility.yul\":4626:4641   */\n      revert\n        /* \"#utility.yul\":4653:4886   */\n    tag_50:\n        /* \"#utility.yul\":4692:4695   */\n      0x00\n        /* \"#utility.yul\":4715:4739   */\n      tag_127\n        /* \"#utility.yul\":4733:4738   */\n      dup3\n        /* \"#utility.yul\":4715:4739   */\n      tag_62\n      jump\t// in\n    tag_127:\n        /* \"#utility.yul\":4706:4739   */\n      swap2\n      pop\n        /* \"#utility.yul\":4761:4827   */\n      0xffffffffffffffffffffffffffffffffffffffffffffffffffffffffffffffff\n        /* \"#utility.yul\":4754:4759   */\n      dup3\n        /* \"#utility.yul\":4751:4828   */\n      sub\n        /* \"#utility.yul\":4748:4851   */\n      tag_128\n      jumpi\n        /* \"#utility.yul\":4831:4849   */\n      tag_129\n      tag_74\n      jump\t// in\n    tag_129:\n        /* \"#utility.yul\":4748:4851   */\n    tag_128:\n        /* \"#utility.yul\":4878:4879   */\n      0x01\n        /* \"#utility.yul\":4871:4876   */\n      dup3\n        /* \"#utility.yul\":4867:4880   */\n      add\n        /* \"#utility.yul\":4860:4880   */\n      swap1\n      pop\n        /* \"#utility.yul\":4653:4886   */\n      swap2\n      swap1\n      pop\n      jump\t// out\n        /* \"#utility.yul\":4892:5003   */\n    tag_77:\n        /* \"#utility.yul\":4971:4972   */\n      0x03\n        /* \"#utility.yul\":4964:4969   */\n      dup2\n        /* \"#utility.yul\":4961:4973   */\n      lt\n        /* \"#utility.yul\":4951:4997   */\n      tag_131\n      jumpi\n        /* \"#utility.yul\":4977:4995   */\n      tag_132\n      tag_43\n      jump\t// in\n    tag_132:\n        /* \"#utility.yul\":4951:4997   */\n    tag_131:\n        /* \"#utility.yul\":4892:5003   */\n      pop\n      jump\t// out\n        /* \"#utility.yul\":5009:5132   */\n    tag_78:\n        /* \"#utility.yul\":5052:5059   */\n      0x00\n        /* \"#utility.yul\":5081:5086   */\n      dup2\n        /* \"#utility.yul\":5070:5086   */\n      swap1\n      pop\n        /* \"#utility.yul\":5087:5126   */\n      tag_134\n        /* \"#utility.yul\":5120:5125   */\n      dup3\n        /* \"#utility.yul\":5087:5126   */\n      tag_77\n      jump\t// in\n    tag_134:\n        /* \"#utility.yul\":5009:5132   */\n      swap2\n      swap1\n      pop\n      jump\t// out\n        /* \"#utility.yul\":5138:5261   */\n    tag_79:\n        /* \"#utility.yul\":5192:5201   */\n      0x00\n        /* \"#utility.yul\":5225:5255   */\n      tag_136\n        /* \"#utility.yul\":5249:5254   */\n      dup3\n        /* \"#utility.yul\":5225:5255   */\n      tag_78\n      jump\t// in\n    tag_136:\n        /* \"#utility.yul\":5212:5255   */\n      swap1\n      pop\n        /* \"#utility.yul\":5138:5261   */\n      swap2\n      swap1\n      pop\n      jump\t// out\n        /* \"#utility.yul\":5267:5406   */\n    tag_80:\n        /* \"#utility.yul\":5358:5399   */\n      tag_138\n        /* \"#utility.yul\":5393:5398   */\n      dup2\n        /* \"#utility.yul\":5358:5399   */\n      tag_79\n      jump\t// in\n    tag_138:\n        /* \"#utility.yul\":5353:5356   */\n      dup3\n        /* \"#utility.yul\":5346:5400   */\n      mstore\n        /* \"#utility.yul\":5267:5406   */\n      pop\n      pop\n      jump\t// out\n        /* \"#utility.yul\":5412:5642   */\n    tag_61:\n        /* \"#utility.yul\":5509:5513   */\n      0x00\n        /* \"#utility.yul\":5547:5549   */\n      0x20\n        /* \"#utility.yul\":5536:5545   */\n      dup3\n        /* \"#utility.yul\":5532:5550   */\n      add\n        /* \"#utility.yul\":5524:5550   */\n      swap1\n      pop\n        /* \"#utility.yul\":5560:5635   */\n      tag_140\n        /* \"#utility.yul\":5632:5633   */\n      0x00\n        /* \"#utility.yul\":5621:5630   */\n      dup4\n        /* \"#utility.yul\":5617:5634   */\n      add\n        /* \"#utility.yul\":5608:5614   */\n      dup5\n        /* \"#utility.yul\":5560:5635   */\n      tag_80\n      jump\t// in\n    tag_140:\n        /* \"#utility.yul\":5412:5642   */\n      swap3\n      swap2\n      pop\n      pop\n      jump\t// out\n\n    auxdata: 0xa2646970667358221220424905b1f006213a15dd3593bb0723f4265c28dd1205113164ed4663f9b8d93564736f6c63430008220033\n}\n",
				"bytecode": {
					"linkReferences": {},
					"object": "6080604052348015600e575f5ffd5b506107078061001c5f395ff3fe608060405234801561000f575f5ffd5b5060043610610060575f3560e01c80633e118090146100645780634717f97c146100825780635c8d9541146100a25780639a0e7d66146100c0578063a2fcbad7146100de578063b3f98adc146100fc575b5f5ffd5b61006c61012c565b6040516100799190610406565b60405180910390f35b61008a610132565b6040516100999392919061041f565b60405180910390f35b6100aa610149565b6040516100b79190610406565b60405180910390f35b6100c861014f565b6040516100d59190610406565b60405180910390f35b6100e6610172565b6040516100f39190610406565b60405180910390f35b6101166004803603810190610111919061047b565b610178565b6040516101239190610516565b60405180910390f35b60045481565b5f5f5f600254600354600454925092509250909192565b60025481565b5f6004546003546002546101639190610563565b61016d9190610563565b905090565b60035481565b606060015f3373ffffffffffffffffffffffffffffffffffffffff1673ffffffffffffffffffffffffffffffffffffffff1681526020019081526020015f205f9054906101000a900460ff1615610204576040517f08c379a00000000000000000000000000000000000000000000000000000000081526004016101fb906105e0565b60405180910390fd5b815f5f3373ffffffffffffffffffffffffffffffffffffffff1673ffffffffffffffffffffffffffffffffffffffff1681526020019081526020015f205f6101000a81548160ff02191690836002811115610262576102616105fe565b5b02179055506001805f3373ffffffffffffffffffffffffffffffffffffffff1673ffffffffffffffffffffffffffffffffffffffff1681526020019081526020015f205f6101000a81548160ff0219169083151502179055505f60028111156102ce576102cd6105fe565b5b8260028111156102e1576102e06105fe565b5b036103025760025f8154809291906102f89061062b565b9190505550610363565b60016002811115610316576103156105fe565b5b826002811115610329576103286105fe565b5b0361034a5760035f8154809291906103409061062b565b9190505550610362565b60045f81548092919061035c9061062b565b91905055505b5b3373ffffffffffffffffffffffffffffffffffffffff167f311c0eec4f4ae47f6468571d2f25b7efe39440e6ac6cd60d5e2ec484735b41fe836040516103a991906106b8565b60405180910390a26040518060400160405280600c81526020017fe68a95e7a5a8e68890e58a9f00000000000000000000000000000000000000008152509050919050565b5f819050919050565b610400816103ee565b82525050565b5f6020820190506104195f8301846103f7565b92915050565b5f6060820190506104325f8301866103f7565b61043f60208301856103f7565b61044c60408301846103f7565b949350505050565b5f5ffd5b60038110610464575f5ffd5b50565b5f8135905061047581610458565b92915050565b5f602082840312156104905761048f610454565b5b5f61049d84828501610467565b91505092915050565b5f81519050919050565b5f82825260208201905092915050565b8281835e5f83830152505050565b5f601f19601f8301169050919050565b5f6104e8826104a6565b6104f281856104b0565b93506105028185602086016104c0565b61050b816104ce565b840191505092915050565b5f6020820190508181035f83015261052e81846104de565b905092915050565b7f4e487b71000000000000000000000000000000000000000000000000000000005f52601160045260245ffd5b5f61056d826103ee565b9150610578836103ee565b92508282019050808211156105905761058f610536565b5b92915050565b7fe682a8e5b7b2e7bb8fe68a95e8bf87e7a5a800000000000000000000000000005f82015250565b5f6105ca6012836104b0565b91506105d582610596565b602082019050919050565b5f6020820190508181035f8301526105f7816105be565b9050919050565b7f4e487b71000000000000000000000000000000000000000000000000000000005f52602160045260245ffd5b5f610635826103ee565b91507fffffffffffffffffffffffffffffffffffffffffffffffffffffffffffffffff820361066757610666610536565b5b600182019050919050565b60038110610683576106826105fe565b5b50565b5f81905061069382610672565b919050565b5f6106a282610686565b9050919050565b6106b281610698565b82525050565b5f6020820190506106cb5f8301846106a9565b9291505056fea2646970667358221220424905b1f006213a15dd3593bb0723f4265c28dd1205113164ed4663f9b8d93564736f6c63430008220033",
					"opcodes": "PUSH1 0x80 PUSH1 0x40 MSTORE CALLVALUE DUP1 ISZERO PUSH1 0xE JUMPI PUSH0 PUSH0 REVERT JUMPDEST POP PUSH2 0x707 DUP1 PUSH2 0x1C PUSH0 CODECOPY PUSH0 RETURN INVALID PUSH1 0x80 PUSH1 0x40 MSTORE CALLVALUE DUP1 ISZERO PUSH2 0xF JUMPI PUSH0 PUSH0 REVERT JUMPDEST POP PUSH1 0x4 CALLDATASIZE LT PUSH2 0x60 JUMPI PUSH0 CALLDATALOAD PUSH1 0xE0 SHR DUP1 PUSH4 0x3E118090 EQ PUSH2 0x64 JUMPI DUP1 PUSH4 0x4717F97C EQ PUSH2 0x82 JUMPI DUP1 PUSH4 0x5C8D9541 EQ PUSH2 0xA2 JUMPI DUP1 PUSH4 0x9A0E7D66 EQ PUSH2 0xC0 JUMPI DUP1 PUSH4 0xA2FCBAD7 EQ PUSH2 0xDE JUMPI DUP1 PUSH4 0xB3F98ADC EQ PUSH2 0xFC JUMPI JUMPDEST PUSH0 PUSH0 REVERT JUMPDEST PUSH2 0x6C PUSH2 0x12C JUMP JUMPDEST PUSH1 0x40 MLOAD PUSH2 0x79 SWAP2 SWAP1 PUSH2 0x406 JUMP JUMPDEST PUSH1 0x40 MLOAD DUP1 SWAP2 SUB SWAP1 RETURN JUMPDEST PUSH2 0x8A PUSH2 0x132 JUMP JUMPDEST PUSH1 0x40 MLOAD PUSH2 0x99 SWAP4 SWAP3 SWAP2 SWAP1 PUSH2 0x41F JUMP JUMPDEST PUSH1 0x40 MLOAD DUP1 SWAP2 SUB SWAP1 RETURN JUMPDEST PUSH2 0xAA PUSH2 0x149 JUMP JUMPDEST PUSH1 0x40 MLOAD PUSH2 0xB7 SWAP2 SWAP1 PUSH2 0x406 JUMP JUMPDEST PUSH1 0x40 MLOAD DUP1 SWAP2 SUB SWAP1 RETURN JUMPDEST PUSH2 0xC8 PUSH2 0x14F JUMP JUMPDEST PUSH1 0x40 MLOAD PUSH2 0xD5 SWAP2 SWAP1 PUSH2 0x406 JUMP JUMPDEST PUSH1 0x40 MLOAD DUP1 SWAP2 SUB SWAP1 RETURN JUMPDEST PUSH2 0xE6 PUSH2 0x172 JUMP JUMPDEST PUSH1 0x40 MLOAD PUSH2 0xF3 SWAP2 SWAP1 PUSH2 0x406 JUMP JUMPDEST PUSH1 0x40 MLOAD DUP1 SWAP2 SUB SWAP1 RETURN JUMPDEST PUSH2 0x116 PUSH1 0x4 DUP1 CALLDATASIZE SUB DUP2 ADD SWAP1 PUSH2 0x111 SWAP2 SWAP1 PUSH2 0x47B JUMP JUMPDEST PUSH2 0x178 JUMP JUMPDEST PUSH1 0x40 MLOAD PUSH2 0x123 SWAP2 SWAP1 PUSH2 0x516 JUMP JUMPDEST PUSH1 0x40 MLOAD DUP1 SWAP2 SUB SWAP1 RETURN JUMPDEST PUSH1 0x4 SLOAD DUP2 JUMP JUMPDEST PUSH0 PUSH0 PUSH0 PUSH1 0x2 SLOAD PUSH1 0x3 SLOAD PUSH1 0x4 SLOAD SWAP3 POP SWAP3 POP SWAP3 POP SWAP1 SWAP2 SWAP3 JUMP JUMPDEST PUSH1 0x2 SLOAD DUP2 JUMP JUMPDEST PUSH0 PUSH1 0x4 SLOAD PUSH1 0x3 SLOAD PUSH1 0x2 SLOAD PUSH2 0x163 SWAP2 SWAP1 PUSH2 0x563 JUMP JUMPDEST PUSH2 0x16D SWAP2 SWAP1 PUSH2 0x563 JUMP JUMPDEST SWAP1 POP SWAP1 JUMP JUMPDEST PUSH1 0x3 SLOAD DUP2 JUMP JUMPDEST PUSH1 0x60 PUSH1 0x1 PUSH0 CALLER PUSH20 0xFFFFFFFFFFFFFFFFFFFFFFFFFFFFFFFFFFFFFFFF AND PUSH20 0xFFFFFFFFFFFFFFFFFFFFFFFFFFFFFFFFFFFFFFFF AND DUP2 MSTORE PUSH1 0x20 ADD SWAP1 DUP2 MSTORE PUSH1 0x20 ADD PUSH0 KECCAK256 PUSH0 SWAP1 SLOAD SWAP1 PUSH2 0x100 EXP SWAP1 DIV PUSH1 0xFF AND ISZERO PUSH2 0x204 JUMPI PUSH1 0x40 MLOAD PUSH32 0x8C379A000000000000000000000000000000000000000000000000000000000 DUP2 MSTORE PUSH1 0x4 ADD PUSH2 0x1FB SWAP1 PUSH2 0x5E0 JUMP JUMPDEST PUSH1 0x40 MLOAD DUP1 SWAP2 SUB SWAP1 REVERT JUMPDEST DUP2 PUSH0 PUSH0 CALLER PUSH20 0xFFFFFFFFFFFFFFFFFFFFFFFFFFFFFFFFFFFFFFFF AND PUSH20 0xFFFFFFFFFFFFFFFFFFFFFFFFFFFFFFFFFFFFFFFF AND DUP2 MSTORE PUSH1 0x20 ADD SWAP1 DUP2 MSTORE PUSH1 0x20 ADD PUSH0 KECCAK256 PUSH0 PUSH2 0x100 EXP DUP2 SLOAD DUP2 PUSH1 0xFF MUL NOT AND SWAP1 DUP4 PUSH1 0x2 DUP2 GT ISZERO PUSH2 0x262 JUMPI PUSH2 0x261 PUSH2 0x5FE JUMP JUMPDEST JUMPDEST MUL OR SWAP1 SSTORE POP PUSH1 0x1 DUP1 PUSH0 CALLER PUSH20 0xFFFFFFFFFFFFFFFFFFFFFFFFFFFFFFFFFFFFFFFF AND PUSH20 0xFFFFFFFFFFFFFFFFFFFFFFFFFFFFFFFFFFFFFFFF AND DUP2 MSTORE PUSH1 0x20 ADD SWAP1 DUP2 MSTORE PUSH1 0x20 ADD PUSH0 KECCAK256 PUSH0 PUSH2 0x100 EXP DUP2 SLOAD DUP2 PUSH1 0xFF MUL NOT AND SWAP1 DUP4 ISZERO ISZERO MUL OR SWAP1 SSTORE POP PUSH0 PUSH1 0x2 DUP2 GT ISZERO PUSH2 0x2CE JUMPI PUSH2 0x2CD PUSH2 0x5FE JUMP JUMPDEST JUMPDEST DUP3 PUSH1 0x2 DUP2 GT ISZERO PUSH2 0x2E1 JUMPI PUSH2 0x2E0 PUSH2 0x5FE JUMP JUMPDEST JUMPDEST SUB PUSH2 0x302 JUMPI PUSH1 0x2 PUSH0 DUP2 SLOAD DUP1 SWAP3 SWAP2 SWAP1 PUSH2 0x2F8 SWAP1 PUSH2 0x62B JUMP JUMPDEST SWAP2 SWAP1 POP SSTORE POP PUSH2 0x363 JUMP JUMPDEST PUSH1 0x1 PUSH1 0x2 DUP2 GT ISZERO PUSH2 0x316 JUMPI PUSH2 0x315 PUSH2 0x5FE JUMP JUMPDEST JUMPDEST DUP3 PUSH1 0x2 DUP2 GT ISZERO PUSH2 0x329 JUMPI PUSH2 0x328 PUSH2 0x5FE JUMP JUMPDEST JUMPDEST SUB PUSH2 0x34A JUMPI PUSH1 0x3 PUSH0 DUP2 SLOAD DUP1 SWAP3 SWAP2 SWAP1 PUSH2 0x340 SWAP1 PUSH2 0x62B JUMP JUMPDEST SWAP2 SWAP1 POP SSTORE POP PUSH2 0x362 JUMP JUMPDEST PUSH1 0x4 PUSH0 DUP2 SLOAD DUP1 SWAP3 SWAP2 SWAP1 PUSH2 0x35C SWAP1 PUSH2 0x62B JUMP JUMPDEST SWAP2 SWAP1 POP SSTORE POP JUMPDEST JUMPDEST CALLER PUSH20 0xFFFFFFFFFFFFFFFFFFFFFFFFFFFFFFFFFFFFFFFF AND PUSH32 0x311C0EEC4F4AE47F6468571D2F25B7EFE39440E6AC6CD60D5E2EC484735B41FE DUP4 PUSH1 0x40 MLOAD PUSH2 0x3A9 SWAP2 SWAP1 PUSH2 0x6B8 JUMP JUMPDEST PUSH1 0x40 MLOAD DUP1 SWAP2 SUB SWAP1 LOG2 PUSH1 0x40 MLOAD DUP1 PUSH1 0x40 ADD PUSH1 0x40 MSTORE DUP1 PUSH1 0xC DUP2 MSTORE PUSH1 0x20 ADD PUSH32 0xE68A95E7A5A8E68890E58A9F0000000000000000000000000000000000000000 DUP2 MSTORE POP SWAP1 POP SWAP2 SWAP1 POP JUMP JUMPDEST PUSH0 DUP2 SWAP1 POP SWAP2 SWAP1 POP JUMP JUMPDEST PUSH2 0x400 DUP2 PUSH2 0x3EE JUMP JUMPDEST DUP3 MSTORE POP POP JUMP JUMPDEST PUSH0 PUSH1 0x20 DUP3 ADD SWAP1 POP PUSH2 0x419 PUSH0 DUP4 ADD DUP5 PUSH2 0x3F7 JUMP JUMPDEST SWAP3 SWAP2 POP POP JUMP JUMPDEST PUSH0 PUSH1 0x60 DUP3 ADD SWAP1 POP PUSH2 0x432 PUSH0 DUP4 ADD DUP7 PUSH2 0x3F7 JUMP JUMPDEST PUSH2 0x43F PUSH1 0x20 DUP4 ADD DUP6 PUSH2 0x3F7 JUMP JUMPDEST PUSH2 0x44C PUSH1 0x40 DUP4 ADD DUP5 PUSH2 0x3F7 JUMP JUMPDEST SWAP5 SWAP4 POP POP POP POP JUMP JUMPDEST PUSH0 PUSH0 REVERT JUMPDEST PUSH1 0x3 DUP2 LT PUSH2 0x464 JUMPI PUSH0 PUSH0 REVERT JUMPDEST POP JUMP JUMPDEST PUSH0 DUP2 CALLDATALOAD SWAP1 POP PUSH2 0x475 DUP2 PUSH2 0x458 JUMP JUMPDEST SWAP3 SWAP2 POP POP JUMP JUMPDEST PUSH0 PUSH1 0x20 DUP3 DUP5 SUB SLT ISZERO PUSH2 0x490 JUMPI PUSH2 0x48F PUSH2 0x454 JUMP JUMPDEST JUMPDEST PUSH0 PUSH2 0x49D DUP5 DUP3 DUP6 ADD PUSH2 0x467 JUMP JUMPDEST SWAP2 POP POP SWAP3 SWAP2 POP POP JUMP JUMPDEST PUSH0 DUP2 MLOAD SWAP1 POP SWAP2 SWAP1 POP JUMP JUMPDEST PUSH0 DUP3 DUP3 MSTORE PUSH1 0x20 DUP3 ADD SWAP1 POP SWAP3 SWAP2 POP POP JUMP JUMPDEST DUP3 DUP2 DUP4 MCOPY PUSH0 DUP4 DUP4 ADD MSTORE POP POP POP JUMP JUMPDEST PUSH0 PUSH1 0x1F NOT PUSH1 0x1F DUP4 ADD AND SWAP1 POP SWAP2 SWAP1 POP JUMP JUMPDEST PUSH0 PUSH2 0x4E8 DUP3 PUSH2 0x4A6 JUMP JUMPDEST PUSH2 0x4F2 DUP2 DUP6 PUSH2 0x4B0 JUMP JUMPDEST SWAP4 POP PUSH2 0x502 DUP2 DUP6 PUSH1 0x20 DUP7 ADD PUSH2 0x4C0 JUMP JUMPDEST PUSH2 0x50B DUP2 PUSH2 0x4CE JUMP JUMPDEST DUP5 ADD SWAP2 POP POP SWAP3 SWAP2 POP POP JUMP JUMPDEST PUSH0 PUSH1 0x20 DUP3 ADD SWAP1 POP DUP2 DUP2 SUB PUSH0 DUP4 ADD MSTORE PUSH2 0x52E DUP2 DUP5 PUSH2 0x4DE JUMP JUMPDEST SWAP1 POP SWAP3 SWAP2 POP POP JUMP JUMPDEST PUSH32 0x4E487B7100000000000000000000000000000000000000000000000000000000 PUSH0 MSTORE PUSH1 0x11 PUSH1 0x4 MSTORE PUSH1 0x24 PUSH0 REVERT JUMPDEST PUSH0 PUSH2 0x56D DUP3 PUSH2 0x3EE JUMP JUMPDEST SWAP2 POP PUSH2 0x578 DUP4 PUSH2 0x3EE JUMP JUMPDEST SWAP3 POP DUP3 DUP3 ADD SWAP1 POP DUP1 DUP3 GT ISZERO PUSH2 0x590 JUMPI PUSH2 0x58F PUSH2 0x536 JUMP JUMPDEST JUMPDEST SWAP3 SWAP2 POP POP JUMP JUMPDEST PUSH32 0xE682A8E5B7B2E7BB8FE68A95E8BF87E7A5A80000000000000000000000000000 PUSH0 DUP3 ADD MSTORE POP JUMP JUMPDEST PUSH0 PUSH2 0x5CA PUSH1 0x12 DUP4 PUSH2 0x4B0 JUMP JUMPDEST SWAP2 POP PUSH2 0x5D5 DUP3 PUSH2 0x596 JUMP JUMPDEST PUSH1 0x20 DUP3 ADD SWAP1 POP SWAP2 SWAP1 POP JUMP JUMPDEST PUSH0 PUSH1 0x20 DUP3 ADD SWAP1 POP DUP2 DUP2 SUB PUSH0 DUP4 ADD MSTORE PUSH2 0x5F7 DUP2 PUSH2 0x5BE JUMP JUMPDEST SWAP1 POP SWAP2 SWAP1 POP JUMP JUMPDEST PUSH32 0x4E487B7100000000000000000000000000000000000000000000000000000000 PUSH0 MSTORE PUSH1 0x21 PUSH1 0x4 MSTORE PUSH1 0x24 PUSH0 REVERT JUMPDEST PUSH0 PUSH2 0x635 DUP3 PUSH2 0x3EE JUMP JUMPDEST SWAP2 POP PUSH32 0xFFFFFFFFFFFFFFFFFFFFFFFFFFFFFFFFFFFFFFFFFFFFFFFFFFFFFFFFFFFFFFFF DUP3 SUB PUSH2 0x667 JUMPI PUSH2 0x666 PUSH2 0x536 JUMP JUMPDEST JUMPDEST PUSH1 0x1 DUP3 ADD SWAP1 POP SWAP2 SWAP1 POP JUMP JUMPDEST PUSH1 0x3 DUP2 LT PUSH2 0x683 JUMPI PUSH2 0x682 PUSH2 0x5FE JUMP JUMPDEST JUMPDEST POP JUMP JUMPDEST PUSH0 DUP2 SWAP1 POP PUSH2 0x693 DUP3 PUSH2 0x672 JUMP JUMPDEST SWAP2 SWAP1 POP JUMP JUMPDEST PUSH0 PUSH2 0x6A2 DUP3 PUSH2 0x686 JUMP JUMPDEST SWAP1 POP SWAP2 SWAP1 POP JUMP JUMPDEST PUSH2 0x6B2 DUP2 PUSH2 0x698 JUMP JUMPDEST DUP3 MSTORE POP POP JUMP JUMPDEST PUSH0 PUSH1 0x20 DUP3 ADD SWAP1 POP PUSH2 0x6CB PUSH0 DUP4 ADD DUP5 PUSH2 0x6A9 JUMP JUMPDEST SWAP3 SWAP2 POP POP JUMP INVALID LOG2 PUSH5 0x6970667358 0x22 SLT KECCAK256 TIMESTAMP BLOBHASH SDIV 0xB1 CREATE MOD 0x21 GASPRICE ISZERO 0xDD CALLDATALOAD SWAP4 0xBB SMOD 0x23 DELEGATECALL 0x26 TLOAD 0x28 0xDD SLT SDIV GT BALANCE PUSH5 0xED4663F9B8 0xD9 CALLDATALOAD PUSH5 0x736F6C6343 STOP ADDMOD 0x22 STOP CALLER "
				},
				"gasEstimates": {
					"creation": {
						"codeDepositCost": "359800",
						"executionCost": "397",
						"totalCost": "360197"
					},
					"external": {
						"abstainCount()": "2403",
						"getResults()": "infinite",
						"getTotalVotes()": "infinite",
						"noCount()": "2491",
						"vote(uint8)": "infinite",
						"yesCount()": "2447"
					}
				},
				"methodIdentifiers": {
					"abstainCount()": "3e118090",
					"getResults()": "4717f97c",
					"getTotalVotes()": "9a0e7d66",
					"noCount()": "a2fcbad7",
					"vote(uint8)": "b3f98adc",
					"yesCount()": "5c8d9541"
				}
			},
			"storageLayout": {
				"storage": [
					{
						"astId": 10,
						"contract": "contracts/2.1/08exec/VoteSystem.sol:VoteSystem",
						"label": "votes",
						"offset": 0,
						"slot": "0",
						"type": "t_mapping(t_address,t_enum(Vote)5)"
					},
					{
						"astId": 14,
						"contract": "contracts/2.1/08exec/VoteSystem.sol:VoteSystem",
						"label": "hasVoteds",
						"offset": 0,
						"slot": "1",
						"type": "t_mapping(t_address,t_bool)"
					},
					{
						"astId": 16,
						"contract": "contracts/2.1/08exec/VoteSystem.sol:VoteSystem",
						"label": "yesCount",
						"offset": 0,
						"slot": "2",
						"type": "t_uint256"
					},
					{
						"astId": 18,
						"contract": "contracts/2.1/08exec/VoteSystem.sol:VoteSystem",
						"label": "noCount",
						"offset": 0,
						"slot": "3",
						"type": "t_uint256"
					},
					{
						"astId": 20,
						"contract": "contracts/2.1/08exec/VoteSystem.sol:VoteSystem",
						"label": "abstainCount",
						"offset": 0,
						"slot": "4",
						"type": "t_uint256"
					}
				],
				"types": {
					"t_address": {
						"encoding": "inplace",
						"label": "address",
						"numberOfBytes": "20"
					},
					"t_bool": {
						"encoding": "inplace",
						"label": "bool",
						"numberOfBytes": "1"
					},
					"t_enum(Vote)5": {
						"encoding": "inplace",
						"label": "enum VoteSystem.Vote",
						"numberOfBytes": "1"
					},
					"t_mapping(t_address,t_bool)": {
						"encoding": "mapping",
						"key": "t_address",
						"label": "mapping(address => bool)",
						"numberOfBytes": "32",
						"value": "t_bool"
					},
					"t_mapping(t_address,t_enum(Vote)5)": {
						"encoding": "mapping",
						"key": "t_address",
						"label": "mapping(address => enum VoteSystem.Vote)",
						"numberOfBytes": "32",
						"value": "t_enum(Vote)5"
					},
					"t_uint256": {
						"encoding": "inplace",
						"label": "uint256",
						"numberOfBytes": "32"
					}
				}
			},
			"userdoc": {
				"kind": "user",
				"methods": {},
				"version": 1
			}
		}
	}
}