{
	"contracts/2.1/08exec/TypePractise.sol": {
		"TypePractise": {
			"abi": [
				{
					"inputs": [
						{
							"internalType": "string",
							"name": "a",
							"type": "string"
						},
						{
							"internalType": "string",
							"name": "b",
							"type": "string"
						}
					],
					"name": "compareStrings",
					"outputs": [
						{
							"internalType": "bool",
							"name": "",
							"type": "bool"
						}
					],
					"stateMutability": "pure",
					"type": "function"
				},
				{
					"inputs": [
						{
							"internalType": "address",
							"name": "addr",
							"type": "address"
						}
					],
					"name": "isZeroAddress",
					"outputs": [
						{
							"internalType": "bool",
							"name": "",
							"type": "bool"
						}
					],
					"stateMutability": "pure",
					"type": "function"
				},
				{
					"inputs": [
						{
							"internalType": "uint256",
							"name": "value",
							"type": "uint256"
						}
					],
					"name": "safeToUint8",
					"outputs": [
						{
							"internalType": "uint8",
							"name": "",
							"type": "uint8"
						}
					],
					"stateMutability": "pure",
					"type": "function"
				},
				{
					"inputs": [],
					"name": "testCompareStrings",
					"outputs": [
						{
							"internalType": "bool",
							"name": "",
							"type": "bool"
						},
						{
							"internalType": "bool",
							"name": "",
							"type": "bool"
						}
					],
					"stateMutability": "pure",
					"type": "function"
				},
				{
					"inputs": [],
					"name": "testIsZeroAddress",
					"outputs": [
						{
							"internalType": "bool",
							"name": "",
							"type": "bool"
						},
						{
							"internalType": "bool",
							"name": "",
							"type": "bool"
						}
					],
					"stateMutability": "pure",
					"type": "function"
				},
				{
					"inputs": [],
					"name": "testSafeToUint8",
					"outputs": [
						{
							"internalType": "uint8",
							"name": "",
							"type": "uint8"
						},
						{
							"internalType": "uint8",
							"name": "",
							"type": "uint8"
						}
					],
					"stateMutability": "pure",
					"type": "function"
				}
			],
			"devdoc": {
				"kind": "dev",
				"methods": {},
				"version": 1
			},
			"evm": {
				"assembly": "    /* \"contracts/2.1/08exec/TypePractise.sol\":56:1061  contract TypePractise {... */\n  mstore(0x40, 0x80)\n  callvalue\n  dup1\n  iszero\n  tag_1\n  jumpi\n  revert(0x00, 0x00)\ntag_1:\n  pop\n  dataSize(sub_0)\n  dup1\n  dataOffset(sub_0)\n  0x00\n  codecopy\n  0x00\n  return\nstop\n\nsub_0: assembly {\n        /* \"contracts/2.1/08exec/TypePractise.sol\":56:1061  contract TypePractise {... */\n      mstore(0x40, 0x80)\n      callvalue\n      dup1\n      iszero\n      tag_1\n      jumpi\n      revert(0x00, 0x00)\n    tag_1:\n      pop\n      jumpi(tag_2, lt(calldatasize, 0x04))\n      shr(0xe0, calldataload(0x00))\n      dup1\n      0x18664315\n      eq\n      tag_3\n      jumpi\n      dup1\n      0x361131f7\n      eq\n      tag_4\n      jumpi\n      dup1\n      0x6f8b701b\n      eq\n      tag_5\n      jumpi\n      dup1\n      0xa122bbcc\n      eq\n      tag_6\n      jumpi\n      dup1\n      0xbed34bba\n      eq\n      tag_7\n      jumpi\n      dup1\n      0xc41d558d\n      eq\n      tag_8\n      jumpi\n    tag_2:\n      revert(0x00, 0x00)\n        /* \"contracts/2.1/08exec/TypePractise.sol\":441:547  function isZeroAddress(address addr) public pure returns (bool) {... */\n    tag_3:\n      tag_9\n      0x04\n      dup1\n      calldatasize\n      sub\n      dup2\n      add\n      swap1\n      tag_10\n      swap2\n      swap1\n      tag_11\n      jump\t// in\n    tag_10:\n      tag_12\n      jump\t// in\n    tag_9:\n      mload(0x40)\n      tag_13\n      swap2\n      swap1\n      tag_14\n      jump\t// in\n    tag_13:\n      mload(0x40)\n      dup1\n      swap2\n      sub\n      swap1\n      return\n        /* \"contracts/2.1/08exec/TypePractise.sol\":553:673  function testSafeToUint8() public pure returns (uint8, uint8) {... */\n    tag_4:\n      tag_15\n      tag_16\n      jump\t// in\n    tag_15:\n      mload(0x40)\n      tag_17\n      swap3\n      swap2\n      swap1\n      tag_18\n      jump\t// in\n    tag_17:\n      mload(0x40)\n      dup1\n      swap2\n      sub\n      swap1\n      return\n        /* \"contracts/2.1/08exec/TypePractise.sol\":873:1059  function testIsZeroAddress() public pure returns (bool, bool) {... */\n    tag_5:\n      tag_19\n      tag_20\n      jump\t// in\n    tag_19:\n      mload(0x40)\n      tag_21\n      swap3\n      swap2\n      swap1\n      tag_22\n      jump\t// in\n    tag_21:\n      mload(0x40)\n      dup1\n      swap2\n      sub\n      swap1\n      return\n        /* \"contracts/2.1/08exec/TypePractise.sol\":678:867  function testCompareStrings() public pure returns (bool, bool) {... */\n    tag_6:\n      tag_23\n      tag_24\n      jump\t// in\n    tag_23:\n      mload(0x40)\n      tag_25\n      swap3\n      swap2\n      swap1\n      tag_22\n      jump\t// in\n    tag_25:\n      mload(0x40)\n      dup1\n      swap2\n      sub\n      swap1\n      return\n        /* \"contracts/2.1/08exec/TypePractise.sol\":263:436  function compareStrings(... */\n    tag_7:\n      tag_26\n      0x04\n      dup1\n      calldatasize\n      sub\n      dup2\n      add\n      swap1\n      tag_27\n      swap2\n      swap1\n      tag_28\n      jump\t// in\n    tag_27:\n      tag_29\n      jump\t// in\n    tag_26:\n      mload(0x40)\n      tag_30\n      swap2\n      swap1\n      tag_14\n      jump\t// in\n    tag_30:\n      mload(0x40)\n      dup1\n      swap2\n      sub\n      swap1\n      return\n        /* \"contracts/2.1/08exec/TypePractise.sol\":84:258  function safeToUint8(uint value) public pure returns (uint8) {... */\n    tag_8:\n      tag_31\n      0x04\n      dup1\n      calldatasize\n      sub\n      dup2\n      add\n      swap1\n      tag_32\n      swap2\n      swap1\n      tag_33\n      jump\t// in\n    tag_32:\n      tag_34\n      jump\t// in\n    tag_31:\n      mload(0x40)\n      tag_35\n      swap2\n      swap1\n      tag_36\n      jump\t// in\n    tag_35:\n      mload(0x40)\n      dup1\n      swap2\n      sub\n      swap1\n      return\n        /* \"contracts/2.1/08exec/TypePractise.sol\":441:547  function isZeroAddress(address addr) public pure returns (bool) {... */\n    tag_12:\n        /* \"contracts/2.1/08exec/TypePractise.sol\":499:503  bool */\n      0x00\n        /* \"contracts/2.1/08exec/TypePractise.sol\":538:539  0 */\n      0x00\n        /* \"contracts/2.1/08exec/TypePractise.sol\":522:540  addr == address(0) */\n      0xffffffffffffffffffffffffffffffffffffffff\n      and\n        /* \"contracts/2.1/08exec/TypePractise.sol\":522:526  addr */\n      dup3\n        /* \"contracts/2.1/08exec/TypePractise.sol\":522:540  addr == address(0) */\n      0xffffffffffffffffffffffffffffffffffffffff\n      and\n      eq\n        /* \"contracts/2.1/08exec/TypePractise.sol\":515:540  return addr == address(0) */\n      swap1\n      pop\n        /* \"contracts/2.1/08exec/TypePractise.sol\":441:547  function isZeroAddress(address addr) public pure returns (bool) {... */\n      swap2\n      swap1\n      pop\n      jump\t// out\n        /* \"contracts/2.1/08exec/TypePractise.sol\":553:673  function testSafeToUint8() public pure returns (uint8, uint8) {... */\n    tag_16:\n        /* \"contracts/2.1/08exec/TypePractise.sol\":601:606  uint8 */\n      0x00\n        /* \"contracts/2.1/08exec/TypePractise.sol\":608:613  uint8 */\n      0x00\n        /* \"contracts/2.1/08exec/TypePractise.sol\":633:647  safeToUint8(0) */\n      tag_39\n        /* \"contracts/2.1/08exec/TypePractise.sol\":645:646  0 */\n      0x00\n        /* \"contracts/2.1/08exec/TypePractise.sol\":633:644  safeToUint8 */\n      tag_34\n        /* \"contracts/2.1/08exec/TypePractise.sol\":633:647  safeToUint8(0) */\n      jump\t// in\n    tag_39:\n        /* \"contracts/2.1/08exec/TypePractise.sol\":649:665  safeToUint8(255) */\n      tag_40\n        /* \"contracts/2.1/08exec/TypePractise.sol\":661:664  255 */\n      0xff\n        /* \"contracts/2.1/08exec/TypePractise.sol\":649:660  safeToUint8 */\n      tag_34\n        /* \"contracts/2.1/08exec/TypePractise.sol\":649:665  safeToUint8(255) */\n      jump\t// in\n    tag_40:\n        /* \"contracts/2.1/08exec/TypePractise.sol\":625:666  return (safeToUint8(0), safeToUint8(255)) */\n      swap2\n      pop\n      swap2\n      pop\n        /* \"contracts/2.1/08exec/TypePractise.sol\":553:673  function testSafeToUint8() public pure returns (uint8, uint8) {... */\n      swap1\n      swap2\n      jump\t// out\n        /* \"contracts/2.1/08exec/TypePractise.sol\":873:1059  function testIsZeroAddress() public pure returns (bool, bool) {... */\n    tag_20:\n        /* \"contracts/2.1/08exec/TypePractise.sol\":923:927  bool */\n      0x00\n        /* \"contracts/2.1/08exec/TypePractise.sol\":929:933  bool */\n      0x00\n        /* \"contracts/2.1/08exec/TypePractise.sol\":966:991  isZeroAddress(address(0)) */\n      tag_42\n        /* \"contracts/2.1/08exec/TypePractise.sol\":988:989  0 */\n      0x00\n        /* \"contracts/2.1/08exec/TypePractise.sol\":966:979  isZeroAddress */\n      tag_12\n        /* \"contracts/2.1/08exec/TypePractise.sol\":966:991  isZeroAddress(address(0)) */\n      jump\t// in\n    tag_42:\n        /* \"contracts/2.1/08exec/TypePractise.sol\":1005:1042  isZeroAddress(address(0x01223232323)) */\n      tag_43\n        /* \"contracts/2.1/08exec/TypePractise.sol\":1027:1040  0x01223232323 */\n      0x1223232323\n        /* \"contracts/2.1/08exec/TypePractise.sol\":1005:1018  isZeroAddress */\n      tag_12\n        /* \"contracts/2.1/08exec/TypePractise.sol\":1005:1042  isZeroAddress(address(0x01223232323)) */\n      jump\t// in\n    tag_43:\n        /* \"contracts/2.1/08exec/TypePractise.sol\":945:1052  return (... */\n      swap2\n      pop\n      swap2\n      pop\n        /* \"contracts/2.1/08exec/TypePractise.sol\":873:1059  function testIsZeroAddress() public pure returns (bool, bool) {... */\n      swap1\n      swap2\n      jump\t// out\n        /* \"contracts/2.1/08exec/TypePractise.sol\":678:867  function testCompareStrings() public pure returns (bool, bool) {... */\n    tag_24:\n        /* \"contracts/2.1/08exec/TypePractise.sol\":729:733  bool */\n      0x00\n        /* \"contracts/2.1/08exec/TypePractise.sol\":735:739  bool */\n      0x00\n        /* \"contracts/2.1/08exec/TypePractise.sol\":772:804  compareStrings(\"Hello\", \"Hello\") */\n      tag_45\n      mload(0x40)\n      dup1\n      0x40\n      add\n      0x40\n      mstore\n      dup1\n      0x05\n      dup2\n      mstore\n      0x20\n      add\n      0x48656c6c6f000000000000000000000000000000000000000000000000000000\n      dup2\n      mstore\n      pop\n      mload(0x40)\n      dup1\n      0x40\n      add\n      0x40\n      mstore\n      dup1\n      0x05\n      dup2\n      mstore\n      0x20\n      add\n      0x48656c6c6f000000000000000000000000000000000000000000000000000000\n      dup2\n      mstore\n      pop\n        /* \"contracts/2.1/08exec/TypePractise.sol\":772:786  compareStrings */\n      tag_29\n        /* \"contracts/2.1/08exec/TypePractise.sol\":772:804  compareStrings(\"Hello\", \"Hello\") */\n      jump\t// in\n    tag_45:\n        /* \"contracts/2.1/08exec/TypePractise.sol\":818:850  compareStrings(\"Hello\", \"World\") */\n      tag_46\n      mload(0x40)\n      dup1\n      0x40\n      add\n      0x40\n      mstore\n      dup1\n      0x05\n      dup2\n      mstore\n      0x20\n      add\n      0x48656c6c6f000000000000000000000000000000000000000000000000000000\n      dup2\n      mstore\n      pop\n      mload(0x40)\n      dup1\n      0x40\n      add\n      0x40\n      mstore\n      dup1\n      0x05\n      dup2\n      mstore\n      0x20\n      add\n      0x576f726c64000000000000000000000000000000000000000000000000000000\n      dup2\n      mstore\n      pop\n        /* \"contracts/2.1/08exec/TypePractise.sol\":818:832  compareStrings */\n      tag_29\n        /* \"contracts/2.1/08exec/TypePractise.sol\":818:850  compareStrings(\"Hello\", \"World\") */\n      jump\t// in\n    tag_46:\n        /* \"contracts/2.1/08exec/TypePractise.sol\":751:860  return (... */\n      swap2\n      pop\n      swap2\n      pop\n        /* \"contracts/2.1/08exec/TypePractise.sol\":678:867  function testCompareStrings() public pure returns (bool, bool) {... */\n      swap1\n      swap2\n      jump\t// out\n        /* \"contracts/2.1/08exec/TypePractise.sol\":263:436  function compareStrings(... */\n    tag_29:\n        /* \"contracts/2.1/08exec/TypePractise.sol\":364:368  bool */\n      0x00\n        /* \"contracts/2.1/08exec/TypePractise.sol\":426:427  b */\n      dup2\n        /* \"contracts/2.1/08exec/TypePractise.sol\":410:429  keccak256(bytes(b)) */\n      dup1\n      mload\n      swap1\n      0x20\n      add\n      keccak256\n        /* \"contracts/2.1/08exec/TypePractise.sol\":403:404  a */\n      dup4\n        /* \"contracts/2.1/08exec/TypePractise.sol\":387:406  keccak256(bytes(a)) */\n      dup1\n      mload\n      swap1\n      0x20\n      add\n      keccak256\n        /* \"contracts/2.1/08exec/TypePractise.sol\":387:429  keccak256(bytes(a)) == keccak256(bytes(b)) */\n      eq\n        /* \"contracts/2.1/08exec/TypePractise.sol\":380:429  return keccak256(bytes(a)) == keccak256(bytes(b)) */\n      swap1\n      pop\n        /* \"contracts/2.1/08exec/TypePractise.sol\":263:436  function compareStrings(... */\n      swap3\n      swap2\n      pop\n      pop\n      jump\t// out\n        /* \"contracts/2.1/08exec/TypePractise.sol\":84:258  function safeToUint8(uint value) public pure returns (uint8) {... */\n    tag_34:\n        /* \"contracts/2.1/08exec/TypePractise.sol\":138:143  uint8 */\n      0x00\n        /* \"contracts/2.1/08exec/TypePractise.sol\":172:187  type(uint8).max */\n      0xff\n        /* \"contracts/2.1/08exec/TypePractise.sol\":163:187  value <= type(uint8).max */\n      dup1\n      and\n        /* \"contracts/2.1/08exec/TypePractise.sol\":163:168  value */\n      dup3\n        /* \"contracts/2.1/08exec/TypePractise.sol\":163:187  value <= type(uint8).max */\n      gt\n      iszero\n        /* \"contracts/2.1/08exec/TypePractise.sol\":155:222  require(value <= type(uint8).max, unicode\"超过uint8的最大值\") */\n      tag_49\n      jumpi\n      mload(0x40)\n      0x08c379a000000000000000000000000000000000000000000000000000000000\n      dup2\n      mstore\n      0x04\n      add\n      tag_50\n      swap1\n      tag_51\n      jump\t// in\n    tag_50:\n      mload(0x40)\n      dup1\n      swap2\n      sub\n      swap1\n      revert\n    tag_49:\n        /* \"contracts/2.1/08exec/TypePractise.sol\":245:250  value */\n      dup2\n        /* \"contracts/2.1/08exec/TypePractise.sol\":232:251  return uint8(value) */\n      swap1\n      pop\n        /* \"contracts/2.1/08exec/TypePractise.sol\":84:258  function safeToUint8(uint value) public pure returns (uint8) {... */\n      swap2\n      swap1\n      pop\n      jump\t// out\n        /* \"#utility.yul\":7:82   */\n    tag_52:\n        /* \"#utility.yul\":40:46   */\n      0x00\n        /* \"#utility.yul\":73:75   */\n      0x40\n        /* \"#utility.yul\":67:76   */\n      mload\n        /* \"#utility.yul\":57:76   */\n      swap1\n      pop\n        /* \"#utility.yul\":7:82   */\n      swap1\n      jump\t// out\n        /* \"#utility.yul\":88:205   */\n    tag_53:\n        /* \"#utility.yul\":197:198   */\n      0x00\n        /* \"#utility.yul\":194:195   */\n      0x00\n        /* \"#utility.yul\":187:199   */\n      revert\n        /* \"#utility.yul\":211:328   */\n    tag_54:\n        /* \"#utility.yul\":320:321   */\n      0x00\n        /* \"#utility.yul\":317:318   */\n      0x00\n        /* \"#utility.yul\":310:322   */\n      revert\n        /* \"#utility.yul\":334:460   */\n    tag_55:\n        /* \"#utility.yul\":371:378   */\n      0x00\n        /* \"#utility.yul\":411:453   */\n      0xffffffffffffffffffffffffffffffffffffffff\n        /* \"#utility.yul\":404:409   */\n      dup3\n        /* \"#utility.yul\":400:454   */\n      and\n        /* \"#utility.yul\":389:454   */\n      swap1\n      pop\n        /* \"#utility.yul\":334:460   */\n      swap2\n      swap1\n      pop\n      jump\t// out\n        /* \"#utility.yul\":466:562   */\n    tag_56:\n        /* \"#utility.yul\":503:510   */\n      0x00\n        /* \"#utility.yul\":532:556   */\n      tag_85\n        /* \"#utility.yul\":550:555   */\n      dup3\n        /* \"#utility.yul\":532:556   */\n      tag_55\n      jump\t// in\n    tag_85:\n        /* \"#utility.yul\":521:556   */\n      swap1\n      pop\n        /* \"#utility.yul\":466:562   */\n      swap2\n      swap1\n      pop\n      jump\t// out\n        /* \"#utility.yul\":568:690   */\n    tag_57:\n        /* \"#utility.yul\":641:665   */\n      tag_87\n        /* \"#utility.yul\":659:664   */\n      dup2\n        /* \"#utility.yul\":641:665   */\n      tag_56\n      jump\t// in\n    tag_87:\n        /* \"#utility.yul\":634:639   */\n      dup2\n        /* \"#utility.yul\":631:666   */\n      eq\n        /* \"#utility.yul\":621:684   */\n      tag_88\n      jumpi\n        /* \"#utility.yul\":680:681   */\n      0x00\n        /* \"#utility.yul\":677:678   */\n      0x00\n        /* \"#utility.yul\":670:682   */\n      revert\n        /* \"#utility.yul\":621:684   */\n    tag_88:\n        /* \"#utility.yul\":568:690   */\n      pop\n      jump\t// out\n        /* \"#utility.yul\":696:835   */\n    tag_58:\n        /* \"#utility.yul\":742:747   */\n      0x00\n        /* \"#utility.yul\":780:786   */\n      dup2\n        /* \"#utility.yul\":767:787   */\n      calldataload\n        /* \"#utility.yul\":758:787   */\n      swap1\n      pop\n        /* \"#utility.yul\":796:829   */\n      tag_90\n        /* \"#utility.yul\":823:828   */\n      dup2\n        /* \"#utility.yul\":796:829   */\n      tag_57\n      jump\t// in\n    tag_90:\n        /* \"#utility.yul\":696:835   */\n      swap3\n      swap2\n      pop\n      pop\n      jump\t// out\n        /* \"#utility.yul\":841:1170   */\n    tag_11:\n        /* \"#utility.yul\":900:906   */\n      0x00\n        /* \"#utility.yul\":949:951   */\n      0x20\n        /* \"#utility.yul\":937:946   */\n      dup3\n        /* \"#utility.yul\":928:935   */\n      dup5\n        /* \"#utility.yul\":924:947   */\n      sub\n        /* \"#utility.yul\":920:952   */\n      slt\n        /* \"#utility.yul\":917:1036   */\n      iszero\n      tag_92\n      jumpi\n        /* \"#utility.yul\":955:1034   */\n      tag_93\n      tag_53\n      jump\t// in\n    tag_93:\n        /* \"#utility.yul\":917:1036   */\n    tag_92:\n        /* \"#utility.yul\":1075:1076   */\n      0x00\n        /* \"#utility.yul\":1100:1153   */\n      tag_94\n        /* \"#utility.yul\":1145:1152   */\n      dup5\n        /* \"#utility.yul\":1136:1142   */\n      dup3\n        /* \"#utility.yul\":1125:1134   */\n      dup6\n        /* \"#utility.yul\":1121:1143   */\n      add\n        /* \"#utility.yul\":1100:1153   */\n      tag_58\n      jump\t// in\n    tag_94:\n        /* \"#utility.yul\":1090:1153   */\n      swap2\n      pop\n        /* \"#utility.yul\":1046:1163   */\n      pop\n        /* \"#utility.yul\":841:1170   */\n      swap3\n      swap2\n      pop\n      pop\n      jump\t// out\n        /* \"#utility.yul\":1176:1266   */\n    tag_59:\n        /* \"#utility.yul\":1210:1217   */\n      0x00\n        /* \"#utility.yul\":1253:1258   */\n      dup2\n        /* \"#utility.yul\":1246:1259   */\n      iszero\n        /* \"#utility.yul\":1239:1260   */\n      iszero\n        /* \"#utility.yul\":1228:1260   */\n      swap1\n      pop\n        /* \"#utility.yul\":1176:1266   */\n      swap2\n      swap1\n      pop\n      jump\t// out\n        /* \"#utility.yul\":1272:1381   */\n    tag_60:\n        /* \"#utility.yul\":1353:1374   */\n      tag_97\n        /* \"#utility.yul\":1368:1373   */\n      dup2\n        /* \"#utility.yul\":1353:1374   */\n      tag_59\n      jump\t// in\n    tag_97:\n        /* \"#utility.yul\":1348:1351   */\n      dup3\n        /* \"#utility.yul\":1341:1375   */\n      mstore\n        /* \"#utility.yul\":1272:1381   */\n      pop\n      pop\n      jump\t// out\n        /* \"#utility.yul\":1387:1597   */\n    tag_14:\n        /* \"#utility.yul\":1474:1478   */\n      0x00\n        /* \"#utility.yul\":1512:1514   */\n      0x20\n        /* \"#utility.yul\":1501:1510   */\n      dup3\n        /* \"#utility.yul\":1497:1515   */\n      add\n        /* \"#utility.yul\":1489:1515   */\n      swap1\n      pop\n        /* \"#utility.yul\":1525:1590   */\n      tag_99\n        /* \"#utility.yul\":1587:1588   */\n      0x00\n        /* \"#utility.yul\":1576:1585   */\n      dup4\n        /* \"#utility.yul\":1572:1589   */\n      add\n        /* \"#utility.yul\":1563:1569   */\n      dup5\n        /* \"#utility.yul\":1525:1590   */\n      tag_60\n      jump\t// in\n    tag_99:\n        /* \"#utility.yul\":1387:1597   */\n      swap3\n      swap2\n      pop\n      pop\n      jump\t// out\n        /* \"#utility.yul\":1603:1689   */\n    tag_61:\n        /* \"#utility.yul\":1638:1645   */\n      0x00\n        /* \"#utility.yul\":1678:1682   */\n      0xff\n        /* \"#utility.yul\":1671:1676   */\n      dup3\n        /* \"#utility.yul\":1667:1683   */\n      and\n        /* \"#utility.yul\":1656:1683   */\n      swap1\n      pop\n        /* \"#utility.yul\":1603:1689   */\n      swap2\n      swap1\n      pop\n      jump\t// out\n        /* \"#utility.yul\":1695:1807   */\n    tag_62:\n        /* \"#utility.yul\":1778:1800   */\n      tag_102\n        /* \"#utility.yul\":1794:1799   */\n      dup2\n        /* \"#utility.yul\":1778:1800   */\n      tag_61\n      jump\t// in\n    tag_102:\n        /* \"#utility.yul\":1773:1776   */\n      dup3\n        /* \"#utility.yul\":1766:1801   */\n      mstore\n        /* \"#utility.yul\":1695:1807   */\n      pop\n      pop\n      jump\t// out\n        /* \"#utility.yul\":1813:2129   */\n    tag_18:\n        /* \"#utility.yul\":1926:1930   */\n      0x00\n        /* \"#utility.yul\":1964:1966   */\n      0x40\n        /* \"#utility.yul\":1953:1962   */\n      dup3\n        /* \"#utility.yul\":1949:1967   */\n      add\n        /* \"#utility.yul\":1941:1967   */\n      swap1\n      pop\n        /* \"#utility.yul\":1977:2044   */\n      tag_104\n        /* \"#utility.yul\":2041:2042   */\n      0x00\n        /* \"#utility.yul\":2030:2039   */\n      dup4\n        /* \"#utility.yul\":2026:2043   */\n      add\n        /* \"#utility.yul\":2017:2023   */\n      dup6\n        /* \"#utility.yul\":1977:2044   */\n      tag_62\n      jump\t// in\n    tag_104:\n        /* \"#utility.yul\":2054:2122   */\n      tag_105\n        /* \"#utility.yul\":2118:2120   */\n      0x20\n        /* \"#utility.yul\":2107:2116   */\n      dup4\n        /* \"#utility.yul\":2103:2121   */\n      add\n        /* \"#utility.yul\":2094:2100   */\n      dup5\n        /* \"#utility.yul\":2054:2122   */\n      tag_62\n      jump\t// in\n    tag_105:\n        /* \"#utility.yul\":1813:2129   */\n      swap4\n      swap3\n      pop\n      pop\n      pop\n      jump\t// out\n        /* \"#utility.yul\":2135:2443   */\n    tag_22:\n        /* \"#utility.yul\":2244:2248   */\n      0x00\n        /* \"#utility.yul\":2282:2284   */\n      0x40\n        /* \"#utility.yul\":2271:2280   */\n      dup3\n        /* \"#utility.yul\":2267:2285   */\n      add\n        /* \"#utility.yul\":2259:2285   */\n      swap1\n      pop\n        /* \"#utility.yul\":2295:2360   */\n      tag_107\n        /* \"#utility.yul\":2357:2358   */\n      0x00\n        /* \"#utility.yul\":2346:2355   */\n      dup4\n        /* \"#utility.yul\":2342:2359   */\n      add\n        /* \"#utility.yul\":2333:2339   */\n      dup6\n        /* \"#utility.yul\":2295:2360   */\n      tag_60\n      jump\t// in\n    tag_107:\n        /* \"#utility.yul\":2370:2436   */\n      tag_108\n        /* \"#utility.yul\":2432:2434   */\n      0x20\n        /* \"#utility.yul\":2421:2430   */\n      dup4\n        /* \"#utility.yul\":2417:2435   */\n      add\n        /* \"#utility.yul\":2408:2414   */\n      dup5\n        /* \"#utility.yul\":2370:2436   */\n      tag_60\n      jump\t// in\n    tag_108:\n        /* \"#utility.yul\":2135:2443   */\n      swap4\n      swap3\n      pop\n      pop\n      pop\n      jump\t// out\n        /* \"#utility.yul\":2449:2566   */\n    tag_63:\n        /* \"#utility.yul\":2558:2559   */\n      0x00\n        /* \"#utility.yul\":2555:2556   */\n      0x00\n        /* \"#utility.yul\":2548:2560   */\n      revert\n        /* \"#utility.yul\":2572:2689   */\n    tag_64:\n        /* \"#utility.yul\":2681:2682   */\n      0x00\n        /* \"#utility.yul\":2678:2679   */\n      0x00\n        /* \"#utility.yul\":2671:2683   */\n      revert\n        /* \"#utility.yul\":2695:2797   */\n    tag_65:\n        /* \"#utility.yul\":2736:2742   */\n      0x00\n        /* \"#utility.yul\":2787:2789   */\n      0x1f\n        /* \"#utility.yul\":2783:2790   */\n      not\n        /* \"#utility.yul\":2778:2780   */\n      0x1f\n        /* \"#utility.yul\":2771:2776   */\n      dup4\n        /* \"#utility.yul\":2767:2781   */\n      add\n        /* \"#utility.yul\":2763:2791   */\n      and\n        /* \"#utility.yul\":2753:2791   */\n      swap1\n      pop\n        /* \"#utility.yul\":2695:2797   */\n      swap2\n      swap1\n      pop\n      jump\t// out\n        /* \"#utility.yul\":2803:2983   */\n    tag_66:\n        /* \"#utility.yul\":2851:2928   */\n      0x4e487b7100000000000000000000000000000000000000000000000000000000\n        /* \"#utility.yul\":2848:2849   */\n      0x00\n        /* \"#utility.yul\":2841:2929   */\n      mstore\n        /* \"#utility.yul\":2948:2952   */\n      0x41\n        /* \"#utility.yul\":2945:2946   */\n      0x04\n        /* \"#utility.yul\":2938:2953   */\n      mstore\n        /* \"#utility.yul\":2972:2976   */\n      0x24\n        /* \"#utility.yul\":2969:2970   */\n      0x00\n        /* \"#utility.yul\":2962:2977   */\n      revert\n        /* \"#utility.yul\":2989:3270   */\n    tag_67:\n        /* \"#utility.yul\":3072:3099   */\n      tag_114\n        /* \"#utility.yul\":3094:3098   */\n      dup3\n        /* \"#utility.yul\":3072:3099   */\n      tag_65\n      jump\t// in\n    tag_114:\n        /* \"#utility.yul\":3064:3070   */\n      dup2\n        /* \"#utility.yul\":3060:3100   */\n      add\n        /* \"#utility.yul\":3202:3208   */\n      dup2\n        /* \"#utility.yul\":3190:3200   */\n      dup2\n        /* \"#utility.yul\":3187:3209   */\n      lt\n        /* \"#utility.yul\":3166:3184   */\n      0xffffffffffffffff\n        /* \"#utility.yul\":3154:3164   */\n      dup3\n        /* \"#utility.yul\":3151:3185   */\n      gt\n        /* \"#utility.yul\":3148:3210   */\n      or\n        /* \"#utility.yul\":3145:3233   */\n      iszero\n      tag_115\n      jumpi\n        /* \"#utility.yul\":3213:3231   */\n      tag_116\n      tag_66\n      jump\t// in\n    tag_116:\n        /* \"#utility.yul\":3145:3233   */\n    tag_115:\n        /* \"#utility.yul\":3253:3263   */\n      dup1\n        /* \"#utility.yul\":3249:3251   */\n      0x40\n        /* \"#utility.yul\":3242:3264   */\n      mstore\n        /* \"#utility.yul\":3032:3270   */\n      pop\n        /* \"#utility.yul\":2989:3270   */\n      pop\n      pop\n      jump\t// out\n        /* \"#utility.yul\":3276:3405   */\n    tag_68:\n        /* \"#utility.yul\":3310:3316   */\n      0x00\n        /* \"#utility.yul\":3337:3357   */\n      tag_118\n      tag_52\n      jump\t// in\n    tag_118:\n        /* \"#utility.yul\":3327:3357   */\n      swap1\n      pop\n        /* \"#utility.yul\":3366:3399   */\n      tag_119\n        /* \"#utility.yul\":3394:3398   */\n      dup3\n        /* \"#utility.yul\":3386:3392   */\n      dup3\n        /* \"#utility.yul\":3366:3399   */\n      tag_67\n      jump\t// in\n    tag_119:\n        /* \"#utility.yul\":3276:3405   */\n      swap2\n      swap1\n      pop\n      jump\t// out\n        /* \"#utility.yul\":3411:3719   */\n    tag_69:\n        /* \"#utility.yul\":3473:3477   */\n      0x00\n        /* \"#utility.yul\":3563:3581   */\n      0xffffffffffffffff\n        /* \"#utility.yul\":3555:3561   */\n      dup3\n        /* \"#utility.yul\":3552:3582   */\n      gt\n        /* \"#utility.yul\":3549:3605   */\n      iszero\n      tag_121\n      jumpi\n        /* \"#utility.yul\":3585:3603   */\n      tag_122\n      tag_66\n      jump\t// in\n    tag_122:\n        /* \"#utility.yul\":3549:3605   */\n    tag_121:\n        /* \"#utility.yul\":3623:3652   */\n      tag_123\n        /* \"#utility.yul\":3645:3651   */\n      dup3\n        /* \"#utility.yul\":3623:3652   */\n      tag_65\n      jump\t// in\n    tag_123:\n        /* \"#utility.yul\":3615:3652   */\n      swap1\n      pop\n        /* \"#utility.yul\":3707:3711   */\n      0x20\n        /* \"#utility.yul\":3701:3705   */\n      dup2\n        /* \"#utility.yul\":3697:3712   */\n      add\n        /* \"#utility.yul\":3689:3712   */\n      swap1\n      pop\n        /* \"#utility.yul\":3411:3719   */\n      swap2\n      swap1\n      pop\n      jump\t// out\n        /* \"#utility.yul\":3725:3873   */\n    tag_70:\n        /* \"#utility.yul\":3823:3829   */\n      dup3\n        /* \"#utility.yul\":3818:3821   */\n      dup2\n        /* \"#utility.yul\":3813:3816   */\n      dup4\n        /* \"#utility.yul\":3800:3830   */\n      calldatacopy\n        /* \"#utility.yul\":3864:3865   */\n      0x00\n        /* \"#utility.yul\":3855:3861   */\n      dup4\n        /* \"#utility.yul\":3850:3853   */\n      dup4\n        /* \"#utility.yul\":3846:3862   */\n      add\n        /* \"#utility.yul\":3839:3866   */\n      mstore\n        /* \"#utility.yul\":3725:3873   */\n      pop\n      pop\n      pop\n      jump\t// out\n        /* \"#utility.yul\":3879:4304   */\n    tag_71:\n        /* \"#utility.yul\":3957:3962   */\n      0x00\n        /* \"#utility.yul\":3982:4048   */\n      tag_126\n        /* \"#utility.yul\":3998:4047   */\n      tag_127\n        /* \"#utility.yul\":4040:4046   */\n      dup5\n        /* \"#utility.yul\":3998:4047   */\n      tag_69\n      jump\t// in\n    tag_127:\n        /* \"#utility.yul\":3982:4048   */\n      tag_68\n      jump\t// in\n    tag_126:\n        /* \"#utility.yul\":3973:4048   */\n      swap1\n      pop\n        /* \"#utility.yul\":4071:4077   */\n      dup3\n        /* \"#utility.yul\":4064:4069   */\n      dup2\n        /* \"#utility.yul\":4057:4078   */\n      mstore\n        /* \"#utility.yul\":4109:4113   */\n      0x20\n        /* \"#utility.yul\":4102:4107   */\n      dup2\n        /* \"#utility.yul\":4098:4114   */\n      add\n        /* \"#utility.yul\":4147:4150   */\n      dup5\n        /* \"#utility.yul\":4138:4144   */\n      dup5\n        /* \"#utility.yul\":4133:4136   */\n      dup5\n        /* \"#utility.yul\":4129:4145   */\n      add\n        /* \"#utility.yul\":4126:4151   */\n      gt\n        /* \"#utility.yul\":4123:4235   */\n      iszero\n      tag_128\n      jumpi\n        /* \"#utility.yul\":4154:4233   */\n      tag_129\n      tag_64\n      jump\t// in\n    tag_129:\n        /* \"#utility.yul\":4123:4235   */\n    tag_128:\n        /* \"#utility.yul\":4244:4298   */\n      tag_130\n        /* \"#utility.yul\":4291:4297   */\n      dup5\n        /* \"#utility.yul\":4286:4289   */\n      dup3\n        /* \"#utility.yul\":4281:4284   */\n      dup6\n        /* \"#utility.yul\":4244:4298   */\n      tag_70\n      jump\t// in\n    tag_130:\n        /* \"#utility.yul\":3963:4304   */\n      pop\n        /* \"#utility.yul\":3879:4304   */\n      swap4\n      swap3\n      pop\n      pop\n      pop\n      jump\t// out\n        /* \"#utility.yul\":4324:4664   */\n    tag_72:\n        /* \"#utility.yul\":4380:4385   */\n      0x00\n        /* \"#utility.yul\":4429:4432   */\n      dup3\n        /* \"#utility.yul\":4422:4426   */\n      0x1f\n        /* \"#utility.yul\":4414:4420   */\n      dup4\n        /* \"#utility.yul\":4410:4427   */\n      add\n        /* \"#utility.yul\":4406:4433   */\n      slt\n        /* \"#utility.yul\":4396:4518   */\n      tag_132\n      jumpi\n        /* \"#utility.yul\":4437:4516   */\n      tag_133\n      tag_63\n      jump\t// in\n    tag_133:\n        /* \"#utility.yul\":4396:4518   */\n    tag_132:\n        /* \"#utility.yul\":4554:4560   */\n      dup2\n        /* \"#utility.yul\":4541:4561   */\n      calldataload\n        /* \"#utility.yul\":4579:4658   */\n      tag_134\n        /* \"#utility.yul\":4654:4657   */\n      dup5\n        /* \"#utility.yul\":4646:4652   */\n      dup3\n        /* \"#utility.yul\":4639:4643   */\n      0x20\n        /* \"#utility.yul\":4631:4637   */\n      dup7\n        /* \"#utility.yul\":4627:4644   */\n      add\n        /* \"#utility.yul\":4579:4658   */\n      tag_71\n      jump\t// in\n    tag_134:\n        /* \"#utility.yul\":4570:4658   */\n      swap2\n      pop\n        /* \"#utility.yul\":4386:4664   */\n      pop\n        /* \"#utility.yul\":4324:4664   */\n      swap3\n      swap2\n      pop\n      pop\n      jump\t// out\n        /* \"#utility.yul\":4670:5504   */\n    tag_28:\n        /* \"#utility.yul\":4758:4764   */\n      0x00\n        /* \"#utility.yul\":4766:4772   */\n      0x00\n        /* \"#utility.yul\":4815:4817   */\n      0x40\n        /* \"#utility.yul\":4803:4812   */\n      dup4\n        /* \"#utility.yul\":4794:4801   */\n      dup6\n        /* \"#utility.yul\":4790:4813   */\n      sub\n        /* \"#utility.yul\":4786:4818   */\n      slt\n        /* \"#utility.yul\":4783:4902   */\n      iszero\n      tag_136\n      jumpi\n        /* \"#utility.yul\":4821:4900   */\n      tag_137\n      tag_53\n      jump\t// in\n    tag_137:\n        /* \"#utility.yul\":4783:4902   */\n    tag_136:\n        /* \"#utility.yul\":4969:4970   */\n      0x00\n        /* \"#utility.yul\":4958:4967   */\n      dup4\n        /* \"#utility.yul\":4954:4971   */\n      add\n        /* \"#utility.yul\":4941:4972   */\n      calldataload\n        /* \"#utility.yul\":4999:5017   */\n      0xffffffffffffffff\n        /* \"#utility.yul\":4991:4997   */\n      dup2\n        /* \"#utility.yul\":4988:5018   */\n      gt\n        /* \"#utility.yul\":4985:5102   */\n      iszero\n      tag_138\n      jumpi\n        /* \"#utility.yul\":5021:5100   */\n      tag_139\n      tag_54\n      jump\t// in\n    tag_139:\n        /* \"#utility.yul\":4985:5102   */\n    tag_138:\n        /* \"#utility.yul\":5126:5189   */\n      tag_140\n        /* \"#utility.yul\":5181:5188   */\n      dup6\n        /* \"#utility.yul\":5172:5178   */\n      dup3\n        /* \"#utility.yul\":5161:5170   */\n      dup7\n        /* \"#utility.yul\":5157:5179   */\n      add\n        /* \"#utility.yul\":5126:5189   */\n      tag_72\n      jump\t// in\n    tag_140:\n        /* \"#utility.yul\":5116:5189   */\n      swap3\n      pop\n        /* \"#utility.yul\":4912:5199   */\n      pop\n        /* \"#utility.yul\":5266:5268   */\n      0x20\n        /* \"#utility.yul\":5255:5264   */\n      dup4\n        /* \"#utility.yul\":5251:5269   */\n      add\n        /* \"#utility.yul\":5238:5270   */\n      calldataload\n        /* \"#utility.yul\":5297:5315   */\n      0xffffffffffffffff\n        /* \"#utility.yul\":5289:5295   */\n      dup2\n        /* \"#utility.yul\":5286:5316   */\n      gt\n        /* \"#utility.yul\":5283:5400   */\n      iszero\n      tag_141\n      jumpi\n        /* \"#utility.yul\":5319:5398   */\n      tag_142\n      tag_54\n      jump\t// in\n    tag_142:\n        /* \"#utility.yul\":5283:5400   */\n    tag_141:\n        /* \"#utility.yul\":5424:5487   */\n      tag_143\n        /* \"#utility.yul\":5479:5486   */\n      dup6\n        /* \"#utility.yul\":5470:5476   */\n      dup3\n        /* \"#utility.yul\":5459:5468   */\n      dup7\n        /* \"#utility.yul\":5455:5477   */\n      add\n        /* \"#utility.yul\":5424:5487   */\n      tag_72\n      jump\t// in\n    tag_143:\n        /* \"#utility.yul\":5414:5487   */\n      swap2\n      pop\n        /* \"#utility.yul\":5209:5497   */\n      pop\n        /* \"#utility.yul\":4670:5504   */\n      swap3\n      pop\n      swap3\n      swap1\n      pop\n      jump\t// out\n        /* \"#utility.yul\":5510:5587   */\n    tag_73:\n        /* \"#utility.yul\":5547:5554   */\n      0x00\n        /* \"#utility.yul\":5576:5581   */\n      dup2\n        /* \"#utility.yul\":5565:5581   */\n      swap1\n      pop\n        /* \"#utility.yul\":5510:5587   */\n      swap2\n      swap1\n      pop\n      jump\t// out\n        /* \"#utility.yul\":5593:5715   */\n    tag_74:\n        /* \"#utility.yul\":5666:5690   */\n      tag_146\n        /* \"#utility.yul\":5684:5689   */\n      dup2\n        /* \"#utility.yul\":5666:5690   */\n      tag_73\n      jump\t// in\n    tag_146:\n        /* \"#utility.yul\":5659:5664   */\n      dup2\n        /* \"#utility.yul\":5656:5691   */\n      eq\n        /* \"#utility.yul\":5646:5709   */\n      tag_147\n      jumpi\n        /* \"#utility.yul\":5705:5706   */\n      0x00\n        /* \"#utility.yul\":5702:5703   */\n      0x00\n        /* \"#utility.yul\":5695:5707   */\n      revert\n        /* \"#utility.yul\":5646:5709   */\n    tag_147:\n        /* \"#utility.yul\":5593:5715   */\n      pop\n      jump\t// out\n        /* \"#utility.yul\":5721:5860   */\n    tag_75:\n        /* \"#utility.yul\":5767:5772   */\n      0x00\n        /* \"#utility.yul\":5805:5811   */\n      dup2\n        /* \"#utility.yul\":5792:5812   */\n      calldataload\n        /* \"#utility.yul\":5783:5812   */\n      swap1\n      pop\n        /* \"#utility.yul\":5821:5854   */\n      tag_149\n        /* \"#utility.yul\":5848:5853   */\n      dup2\n        /* \"#utility.yul\":5821:5854   */\n      tag_74\n      jump\t// in\n    tag_149:\n        /* \"#utility.yul\":5721:5860   */\n      swap3\n      swap2\n      pop\n      pop\n      jump\t// out\n        /* \"#utility.yul\":5866:6195   */\n    tag_33:\n        /* \"#utility.yul\":5925:5931   */\n      0x00\n        /* \"#utility.yul\":5974:5976   */\n      0x20\n        /* \"#utility.yul\":5962:5971   */\n      dup3\n        /* \"#utility.yul\":5953:5960   */\n      dup5\n        /* \"#utility.yul\":5949:5972   */\n      sub\n        /* \"#utility.yul\":5945:5977   */\n      slt\n        /* \"#utility.yul\":5942:6061   */\n      iszero\n      tag_151\n      jumpi\n        /* \"#utility.yul\":5980:6059   */\n      tag_152\n      tag_53\n      jump\t// in\n    tag_152:\n        /* \"#utility.yul\":5942:6061   */\n    tag_151:\n        /* \"#utility.yul\":6100:6101   */\n      0x00\n        /* \"#utility.yul\":6125:6178   */\n      tag_153\n        /* \"#utility.yul\":6170:6177   */\n      dup5\n        /* \"#utility.yul\":6161:6167   */\n      dup3\n        /* \"#utility.yul\":6150:6159   */\n      dup6\n        /* \"#utility.yul\":6146:6168   */\n      add\n        /* \"#utility.yul\":6125:6178   */\n      tag_75\n      jump\t// in\n    tag_153:\n        /* \"#utility.yul\":6115:6178   */\n      swap2\n      pop\n        /* \"#utility.yul\":6071:6188   */\n      pop\n        /* \"#utility.yul\":5866:6195   */\n      swap3\n      swap2\n      pop\n      pop\n      jump\t// out\n        /* \"#utility.yul\":6201:6415   */\n    tag_36:\n        /* \"#utility.yul\":6290:6294   */\n      0x00\n        /* \"#utility.yul\":6328:6330   */\n      0x20\n        /* \"#utility.yul\":6317:6326   */\n      dup3\n        /* \"#utility.yul\":6313:6331   */\n      add\n        /* \"#utility.yul\":6305:6331   */\n      swap1\n      pop\n        /* \"#utility.yul\":6341:6408   */\n      tag_155\n        /* \"#utility.yul\":6405:6406   */\n      0x00\n        /* \"#utility.yul\":6394:6403   */\n      dup4\n        /* \"#utility.yul\":6390:6407   */\n      add\n        /* \"#utility.yul\":6381:6387   */\n      dup5\n        /* \"#utility.yul\":6341:6408   */\n      tag_62\n      jump\t// in\n    tag_155:\n        /* \"#utility.yul\":6201:6415   */\n      swap3\n      swap2\n      pop\n      pop\n      jump\t// out\n        /* \"#utility.yul\":6421:6590   */\n    tag_76:\n        /* \"#utility.yul\":6505:6516   */\n      0x00\n        /* \"#utility.yul\":6539:6545   */\n      dup3\n        /* \"#utility.yul\":6534:6537   */\n      dup3\n        /* \"#utility.yul\":6527:6546   */\n      mstore\n        /* \"#utility.yul\":6579:6583   */\n      0x20\n        /* \"#utility.yul\":6574:6577   */\n      dup3\n        /* \"#utility.yul\":6570:6584   */\n      add\n        /* \"#utility.yul\":6555:6584   */\n      swap1\n      pop\n        /* \"#utility.yul\":6421:6590   */\n      swap3\n      swap2\n      pop\n      pop\n      jump\t// out\n        /* \"#utility.yul\":6596:6810   */\n    tag_77:\n        /* \"#utility.yul\":6736:6802   */\n      0xe8b685e8bf8775696e7438e79a84e69c80e5a4a7e580bc000000000000000000\n        /* \"#utility.yul\":6732:6733   */\n      0x00\n        /* \"#utility.yul\":6724:6730   */\n      dup3\n        /* \"#utility.yul\":6720:6734   */\n      add\n        /* \"#utility.yul\":6713:6803   */\n      mstore\n        /* \"#utility.yul\":6596:6810   */\n      pop\n      jump\t// out\n        /* \"#utility.yul\":6816:7182   */\n    tag_78:\n        /* \"#utility.yul\":6958:6961   */\n      0x00\n        /* \"#utility.yul\":6979:7046   */\n      tag_159\n        /* \"#utility.yul\":7043:7045   */\n      0x17\n        /* \"#utility.yul\":7038:7041   */\n      dup4\n        /* \"#utility.yul\":6979:7046   */\n      tag_76\n      jump\t// in\n    tag_159:\n        /* \"#utility.yul\":6972:7046   */\n      swap2\n      pop\n        /* \"#utility.yul\":7055:7148   */\n      tag_160\n        /* \"#utility.yul\":7144:7147   */\n      dup3\n        /* \"#utility.yul\":7055:7148   */\n      tag_77\n      jump\t// in\n    tag_160:\n        /* \"#utility.yul\":7173:7175   */\n      0x20\n        /* \"#utility.yul\":7168:7171   */\n      dup3\n        /* \"#utility.yul\":7164:7176   */\n      add\n        /* \"#utility.yul\":7157:7176   */\n      swap1\n      pop\n        /* \"#utility.yul\":6816:7182   */\n      swap2\n      swap1\n      pop\n      jump\t// out\n        /* \"#utility.yul\":7188:7607   */\n    tag_51:\n        /* \"#utility.yul\":7354:7358   */\n      0x00\n        /* \"#utility.yul\":7392:7394   */\n      0x20\n        /* \"#utility.yul\":7381:7390   */\n      dup3\n        /* \"#utility.yul\":7377:7395   */\n      add\n        /* \"#utility.yul\":7369:7395   */\n      swap1\n      pop\n        /* \"#utility.yul\":7441:7450   */\n      dup2\n        /* \"#utility.yul\":7435:7439   */\n      dup2\n        /* \"#utility.yul\":7431:7451   */\n      sub\n        /* \"#utility.yul\":7427:7428   */\n      0x00\n        /* \"#utility.yul\":7416:7425   */\n      dup4\n        /* \"#utility.yul\":7412:7429   */\n      add\n        /* \"#utility.yul\":7405:7452   */\n      mstore\n        /* \"#utility.yul\":7469:7600   */\n      tag_162\n        /* \"#utility.yul\":7595:7599   */\n      dup2\n        /* \"#utility.yul\":7469:7600   */\n      tag_78\n      jump\t// in\n    tag_162:\n        /* \"#utility.yul\":7461:7600   */\n      swap1\n      pop\n        /* \"#utility.yul\":7188:7607   */\n      swap2\n      swap1\n      pop\n      jump\t// out\n\n    auxdata: 0xa264697066735822122030b8007ae94121495139328c967bc5fb024f66c59a1edbb57c22b2f5a241fdb064736f6c63430008220033\n}\n",
				"bytecode": {
					"linkReferences": {},
					"object": "6080604052348015600e575f5ffd5b5061072a8061001c5f395ff3fe608060405234801561000f575f5ffd5b5060043610610060575f3560e01c80631866431514610064578063361131f7146100945780636f8b701b146100b3578063a122bbcc146100d2578063bed34bba146100f1578063c41d558d14610121575b5f5ffd5b61007e6004803603810190610079919061038c565b610151565b60405161008b91906103d1565b60405180910390f35b61009c610188565b6040516100aa929190610405565b60405180910390f35b6100bb6101a5565b6040516100c992919061042c565b60405180910390f35b6100da6101c6565b6040516100e892919061042c565b60405180910390f35b61010b6004803603810190610106919061058f565b6102b8565b60405161011891906103d1565b60405180910390f35b61013b60048036038101906101369190610638565b6102d2565b6040516101489190610663565b60405180910390f35b5f5f73ffffffffffffffffffffffffffffffffffffffff168273ffffffffffffffffffffffffffffffffffffffff16149050919050565b5f5f6101935f6102d2565b61019d60ff6102d2565b915091509091565b5f5f6101b05f610151565b6101be641223232323610151565b915091509091565b5f5f61023c6040518060400160405280600581526020017f48656c6c6f0000000000000000000000000000000000000000000000000000008152506040518060400160405280600581526020017f48656c6c6f0000000000000000000000000000000000000000000000000000008152506102b8565b6102b06040518060400160405280600581526020017f48656c6c6f0000000000000000000000000000000000000000000000000000008152506040518060400160405280600581526020017f576f726c640000000000000000000000000000000000000000000000000000008152506102b8565b915091509091565b5f8180519060200120838051906020012014905092915050565b5f60ff8016821115610319576040517f08c379a0000000000000000000000000000000000000000000000000000000008152600401610310906106d6565b60405180910390fd5b819050919050565b5f604051905090565b5f5ffd5b5f5ffd5b5f73ffffffffffffffffffffffffffffffffffffffff82169050919050565b5f61035b82610332565b9050919050565b61036b81610351565b8114610375575f5ffd5b50565b5f8135905061038681610362565b92915050565b5f602082840312156103a1576103a061032a565b5b5f6103ae84828501610378565b91505092915050565b5f8115159050919050565b6103cb816103b7565b82525050565b5f6020820190506103e45f8301846103c2565b92915050565b5f60ff82169050919050565b6103ff816103ea565b82525050565b5f6040820190506104185f8301856103f6565b61042560208301846103f6565b9392505050565b5f60408201905061043f5f8301856103c2565b61044c60208301846103c2565b9392505050565b5f5ffd5b5f5ffd5b5f601f19601f8301169050919050565b7f4e487b71000000000000000000000000000000000000000000000000000000005f52604160045260245ffd5b6104a18261045b565b810181811067ffffffffffffffff821117156104c0576104bf61046b565b5b80604052505050565b5f6104d2610321565b90506104de8282610498565b919050565b5f67ffffffffffffffff8211156104fd576104fc61046b565b5b6105068261045b565b9050602081019050919050565b828183375f83830152505050565b5f61053361052e846104e3565b6104c9565b90508281526020810184848401111561054f5761054e610457565b5b61055a848285610513565b509392505050565b5f82601f83011261057657610575610453565b5b8135610586848260208601610521565b91505092915050565b5f5f604083850312156105a5576105a461032a565b5b5f83013567ffffffffffffffff8111156105c2576105c161032e565b5b6105ce85828601610562565b925050602083013567ffffffffffffffff8111156105ef576105ee61032e565b5b6105fb85828601610562565b9150509250929050565b5f819050919050565b61061781610605565b8114610621575f5ffd5b50565b5f813590506106328161060e565b92915050565b5f6020828403121561064d5761064c61032a565b5b5f61065a84828501610624565b91505092915050565b5f6020820190506106765f8301846103f6565b92915050565b5f82825260208201905092915050565b7fe8b685e8bf8775696e7438e79a84e69c80e5a4a7e580bc0000000000000000005f82015250565b5f6106c060178361067c565b91506106cb8261068c565b602082019050919050565b5f6020820190508181035f8301526106ed816106b4565b905091905056fea264697066735822122030b8007ae94121495139328c967bc5fb024f66c59a1edbb57c22b2f5a241fdb064736f6c63430008220033",
					"opcodes": "PUSH1 0x80 PUSH1 0x40 MSTORE CALLVALUE DUP1 ISZERO PUSH1 0xE JUMPI PUSH0 PUSH0 REVERT JUMPDEST POP PUSH2 0x72A DUP1 PUSH2 0x1C PUSH0 CODECOPY PUSH0 RETURN INVALID PUSH1 0x80 PUSH1 0x40 MSTORE CALLVALUE DUP1 ISZERO PUSH2 0xF JUMPI PUSH0 PUSH0 REVERT JUMPDEST POP PUSH1 0x4 CALLDATASIZE LT PUSH2 0x60 JUMPI PUSH0 CALLDATALOAD PUSH1 0xE0 SHR DUP1 PUSH4 0x18664315 EQ PUSH2 0x64 JUMPI DUP1 PUSH4 0x361131F7 EQ PUSH2 0x94 JUMPI DUP1 PUSH4 0x6F8B701B EQ PUSH2 0xB3 JUMPI DUP1 PUSH4 0xA122BBCC EQ PUSH2 0xD2 JUMPI DUP1 PUSH4 0xBED34BBA EQ PUSH2 0xF1 JUMPI DUP1 PUSH4 0xC41D558D EQ PUSH2 0x121 JUMPI JUMPDEST PUSH0 PUSH0 REVERT JUMPDEST PUSH2 0x7E PUSH1 0x4 DUP1 CALLDATASIZE SUB DUP2 ADD SWAP1 PUSH2 0x79 SWAP2 SWAP1 PUSH2 0x38C JUMP JUMPDEST PUSH2 0x151 JUMP JUMPDEST PUSH1 0x40 MLOAD PUSH2 0x8B SWAP2 SWAP1 PUSH2 0x3D1 JUMP JUMPDEST PUSH1 0x40 MLOAD DUP1 SWAP2 SUB SWAP1 RETURN JUMPDEST PUSH2 0x9C PUSH2 0x188 JUMP JUMPDEST PUSH1 0x40 MLOAD PUSH2 0xAA SWAP3 SWAP2 SWAP1 PUSH2 0x405 JUMP JUMPDEST PUSH1 0x40 MLOAD DUP1 SWAP2 SUB SWAP1 RETURN JUMPDEST PUSH2 0xBB PUSH2 0x1A5 JUMP JUMPDEST PUSH1 0x40 MLOAD PUSH2 0xC9 SWAP3 SWAP2 SWAP1 PUSH2 0x42C JUMP JUMPDEST PUSH1 0x40 MLOAD DUP1 SWAP2 SUB SWAP1 RETURN JUMPDEST PUSH2 0xDA PUSH2 0x1C6 JUMP JUMPDEST PUSH1 0x40 MLOAD PUSH2 0xE8 SWAP3 SWAP2 SWAP1 PUSH2 0x42C JUMP JUMPDEST PUSH1 0x40 MLOAD DUP1 SWAP2 SUB SWAP1 RETURN JUMPDEST PUSH2 0x10B PUSH1 0x4 DUP1 CALLDATASIZE SUB DUP2 ADD SWAP1 PUSH2 0x106 SWAP2 SWAP1 PUSH2 0x58F JUMP JUMPDEST PUSH2 0x2B8 JUMP JUMPDEST PUSH1 0x40 MLOAD PUSH2 0x118 SWAP2 SWAP1 PUSH2 0x3D1 JUMP JUMPDEST PUSH1 0x40 MLOAD DUP1 SWAP2 SUB SWAP1 RETURN JUMPDEST PUSH2 0x13B PUSH1 0x4 DUP1 CALLDATASIZE SUB DUP2 ADD SWAP1 PUSH2 0x136 SWAP2 SWAP1 PUSH2 0x638 JUMP JUMPDEST PUSH2 0x2D2 JUMP JUMPDEST PUSH1 0x40 MLOAD PUSH2 0x148 SWAP2 SWAP1 PUSH2 0x663 JUMP JUMPDEST PUSH1 0x40 MLOAD DUP1 SWAP2 SUB SWAP1 RETURN JUMPDEST PUSH0 PUSH0 PUSH20 0xFFFFFFFFFFFFFFFFFFFFFFFFFFFFFFFFFFFFFFFF AND DUP3 PUSH20 0xFFFFFFFFFFFFFFFFFFFFFFFFFFFFFFFFFFFFFFFF AND EQ SWAP1 POP SWAP2 SWAP1 POP JUMP JUMPDEST PUSH0 PUSH0 PUSH2 0x193 PUSH0 PUSH2 0x2D2 JUMP JUMPDEST PUSH2 0x19D PUSH1 0xFF PUSH2 0x2D2 JUMP JUMPDEST SWAP2 POP SWAP2 POP SWAP1 SWAP2 JUMP JUMPDEST PUSH0 PUSH0 PUSH2 0x1B0 PUSH0 PUSH2 0x151 JUMP JUMPDEST PUSH2 0x1BE PUSH5 0x1223232323 PUSH2 0x151 JUMP JUMPDEST SWAP2 POP SWAP2 POP SWAP1 SWAP2 JUMP JUMPDEST PUSH0 PUSH0 PUSH2 0x23C PUSH1 0x40 MLOAD DUP1 PUSH1 0x40 ADD PUSH1 0x40 MSTORE DUP1 PUSH1 0x5 DUP2 MSTORE PUSH1 0x20 ADD PUSH32 0x48656C6C6F000000000000000000000000000000000000000000000000000000 DUP2 MSTORE POP PUSH1 0x40 MLOAD DUP1 PUSH1 0x40 ADD PUSH1 0x40 MSTORE DUP1 PUSH1 0x5 DUP2 MSTORE PUSH1 0x20 ADD PUSH32 0x48656C6C6F000000000000000000000000000000000000000000000000000000 DUP2 MSTORE POP PUSH2 0x2B8 JUMP JUMPDEST PUSH2 0x2B0 PUSH1 0x40 MLOAD DUP1 PUSH1 0x40 ADD PUSH1 0x40 MSTORE DUP1 PUSH1 0x5 DUP2 MSTORE PUSH1 0x20 ADD PUSH32 0x48656C6C6F000000000000000000000000000000000000000000000000000000 DUP2 MSTORE POP PUSH1 0x40 MLOAD DUP1 PUSH1 0x40 ADD PUSH1 0x40 MSTORE DUP1 PUSH1 0x5 DUP2 MSTORE PUSH1 0x20 ADD PUSH32 0x576F726C64000000000000000000000000000000000000000000000000000000 DUP2 MSTORE POP PUSH2 0x2B8 JUMP JUMPDEST SWAP2 POP SWAP2 POP SWAP1 SWAP2 JUMP JUMPDEST PUSH0 DUP2 DUP1 MLOAD SWAP1 PUSH1 0x20 ADD KECCAK256 DUP4 DUP1 MLOAD SWAP1 PUSH1 0x20 ADD KECCAK256 EQ SWAP1 POP SWAP3 SWAP2 POP POP JUMP JUMPDEST PUSH0 PUSH1 0xFF DUP1 AND DUP3 GT ISZERO PUSH2 0x319 JUMPI PUSH1 0x40 MLOAD PUSH32 0x8C379A000000000000000000000000000000000000000000000000000000000 DUP2 MSTORE PUSH1 0x4 ADD PUSH2 0x310 SWAP1 PUSH2 0x6D6 JUMP JUMPDEST PUSH1 0x40 MLOAD DUP1 SWAP2 SUB SWAP1 REVERT JUMPDEST DUP2 SWAP1 POP SWAP2 SWAP1 POP JUMP JUMPDEST PUSH0 PUSH1 0x40 MLOAD SWAP1 POP SWAP1 JUMP JUMPDEST PUSH0 PUSH0 REVERT JUMPDEST PUSH0 PUSH0 REVERT JUMPDEST PUSH0 PUSH20 0xFFFFFFFFFFFFFFFFFFFFFFFFFFFFFFFFFFFFFFFF DUP3 AND SWAP1 POP SWAP2 SWAP1 POP JUMP JUMPDEST PUSH0 PUSH2 0x35B DUP3 PUSH2 0x332 JUMP JUMPDEST SWAP1 POP SWAP2 SWAP1 POP JUMP JUMPDEST PUSH2 0x36B DUP2 PUSH2 0x351 JUMP JUMPDEST DUP2 EQ PUSH2 0x375 JUMPI PUSH0 PUSH0 REVERT JUMPDEST POP JUMP JUMPDEST PUSH0 DUP2 CALLDATALOAD SWAP1 POP PUSH2 0x386 DUP2 PUSH2 0x362 JUMP JUMPDEST SWAP3 SWAP2 POP POP JUMP JUMPDEST PUSH0 PUSH1 0x20 DUP3 DUP5 SUB SLT ISZERO PUSH2 0x3A1 JUMPI PUSH2 0x3A0 PUSH2 0x32A JUMP JUMPDEST JUMPDEST PUSH0 PUSH2 0x3AE DUP5 DUP3 DUP6 ADD PUSH2 0x378 JUMP JUMPDEST SWAP2 POP POP SWAP3 SWAP2 POP POP JUMP JUMPDEST PUSH0 DUP2 ISZERO ISZERO SWAP1 POP SWAP2 SWAP1 POP JUMP JUMPDEST PUSH2 0x3CB DUP2 PUSH2 0x3B7 JUMP JUMPDEST DUP3 MSTORE POP POP JUMP JUMPDEST PUSH0 PUSH1 0x20 DUP3 ADD SWAP1 POP PUSH2 0x3E4 PUSH0 DUP4 ADD DUP5 PUSH2 0x3C2 JUMP JUMPDEST SWAP3 SWAP2 POP POP JUMP JUMPDEST PUSH0 PUSH1 0xFF DUP3 AND SWAP1 POP SWAP2 SWAP1 POP JUMP JUMPDEST PUSH2 0x3FF DUP2 PUSH2 0x3EA JUMP JUMPDEST DUP3 MSTORE POP POP JUMP JUMPDEST PUSH0 PUSH1 0x40 DUP3 ADD SWAP1 POP PUSH2 0x418 PUSH0 DUP4 ADD DUP6 PUSH2 0x3F6 JUMP JUMPDEST PUSH2 0x425 PUSH1 0x20 DUP4 ADD DUP5 PUSH2 0x3F6 JUMP JUMPDEST SWAP4 SWAP3 POP POP POP JUMP JUMPDEST PUSH0 PUSH1 0x40 DUP3 ADD SWAP1 POP PUSH2 0x43F PUSH0 DUP4 ADD DUP6 PUSH2 0x3C2 JUMP JUMPDEST PUSH2 0x44C PUSH1 0x20 DUP4 ADD DUP5 PUSH2 0x3C2 JUMP JUMPDEST SWAP4 SWAP3 POP POP POP JUMP JUMPDEST PUSH0 PUSH0 REVERT JUMPDEST PUSH0 PUSH0 REVERT JUMPDEST PUSH0 PUSH1 0x1F NOT PUSH1 0x1F DUP4 ADD AND SWAP1 POP SWAP2 SWAP1 POP JUMP JUMPDEST PUSH32 0x4E487B7100000000000000000000000000000000000000000000000000000000 PUSH0 MSTORE PUSH1 0x41 PUSH1 0x4 MSTORE PUSH1 0x24 PUSH0 REVERT JUMPDEST PUSH2 0x4A1 DUP3 PUSH2 0x45B JUMP JUMPDEST DUP2 ADD DUP2 DUP2 LT PUSH8 0xFFFFFFFFFFFFFFFF DUP3 GT OR ISZERO PUSH2 0x4C0 JUMPI PUSH2 0x4BF PUSH2 0x46B JUMP JUMPDEST JUMPDEST DUP1 PUSH1 0x40 MSTORE POP POP POP JUMP JUMPDEST PUSH0 PUSH2 0x4D2 PUSH2 0x321 JUMP JUMPDEST SWAP1 POP PUSH2 0x4DE DUP3 DUP3 PUSH2 0x498 JUMP JUMPDEST SWAP2 SWAP1 POP JUMP JUMPDEST PUSH0 PUSH8 0xFFFFFFFFFFFFFFFF DUP3 GT ISZERO PUSH2 0x4FD JUMPI PUSH2 0x4FC PUSH2 0x46B JUMP JUMPDEST JUMPDEST PUSH2 0x506 DUP3 PUSH2 0x45B JUMP JUMPDEST SWAP1 POP PUSH1 0x20 DUP2 ADD SWAP1 POP SWAP2 SWAP1 POP JUMP JUMPDEST DUP3 DUP2 DUP4 CALLDATACOPY PUSH0 DUP4 DUP4 ADD MSTORE POP POP POP JUMP JUMPDEST PUSH0 PUSH2 0x533 PUSH2 0x52E DUP5 PUSH2 0x4E3 JUMP JUMPDEST PUSH2 0x4C9 JUMP JUMPDEST SWAP1 POP DUP3 DUP2 MSTORE PUSH1 0x20 DUP2 ADD DUP5 DUP5 DUP5 ADD GT ISZERO PUSH2 0x54F JUMPI PUSH2 0x54E PUSH2 0x457 JUMP JUMPDEST JUMPDEST PUSH2 0x55A DUP5 DUP3 DUP6 PUSH2 0x513 JUMP JUMPDEST POP SWAP4 SWAP3 POP POP POP JUMP JUMPDEST PUSH0 DUP3 PUSH1 0x1F DUP4 ADD SLT PUSH2 0x576 JUMPI PUSH2 0x575 PUSH2 0x453 JUMP JUMPDEST JUMPDEST DUP2 CALLDATALOAD PUSH2 0x586 DUP5 DUP3 PUSH1 0x20 DUP7 ADD PUSH2 0x521 JUMP JUMPDEST SWAP2 POP POP SWAP3 SWAP2 POP POP JUMP JUMPDEST PUSH0 PUSH0 PUSH1 0x40 DUP4 DUP6 SUB SLT ISZERO PUSH2 0x5A5 JUMPI PUSH2 0x5A4 PUSH2 0x32A JUMP JUMPDEST JUMPDEST PUSH0 DUP4 ADD CALLDATALOAD PUSH8 0xFFFFFFFFFFFFFFFF DUP2 GT ISZERO PUSH2 0x5C2 JUMPI PUSH2 0x5C1 PUSH2 0x32E JUMP JUMPDEST JUMPDEST PUSH2 0x5CE DUP6 DUP3 DUP7 ADD PUSH2 0x562 JUMP JUMPDEST SWAP3 POP POP PUSH1 0x20 DUP4 ADD CALLDATALOAD PUSH8 0xFFFFFFFFFFFFFFFF DUP2 GT ISZERO PUSH2 0x5EF JUMPI PUSH2 0x5EE PUSH2 0x32E JUMP JUMPDEST JUMPDEST PUSH2 0x5FB DUP6 DUP3 DUP7 ADD PUSH2 0x562 JUMP JUMPDEST SWAP2 POP POP SWAP3 POP SWAP3 SWAP1 POP JUMP JUMPDEST PUSH0 DUP2 SWAP1 POP SWAP2 SWAP1 POP JUMP JUMPDEST PUSH2 0x617 DUP2 PUSH2 0x605 JUMP JUMPDEST DUP2 EQ PUSH2 0x621 JUMPI PUSH0 PUSH0 REVERT JUMPDEST POP JUMP JUMPDEST PUSH0 DUP2 CALLDATALOAD SWAP1 POP PUSH2 0x632 DUP2 PUSH2 0x60E JUMP JUMPDEST SWAP3 SWAP2 POP POP JUMP JUMPDEST PUSH0 PUSH1 0x20 DUP3 DUP5 SUB SLT ISZERO PUSH2 0x64D JUMPI PUSH2 0x64C PUSH2 0x32A JUMP JUMPDEST JUMPDEST PUSH0 PUSH2 0x65A DUP5 DUP3 DUP6 ADD PUSH2 0x624 JUMP JUMPDEST SWAP2 POP POP SWAP3 SWAP2 POP POP JUMP JUMPDEST PUSH0 PUSH1 0x20 DUP3 ADD SWAP1 POP PUSH2 0x676 PUSH0 DUP4 ADD DUP5 PUSH2 0x3F6 JUMP JUMPDEST SWAP3 SWAP2 POP POP JUMP JUMPDEST PUSH0 DUP3 DUP3 MSTORE PUSH1 0x20 DUP3 ADD SWAP1 POP SWAP3 SWAP2 POP POP JUMP JUMPDEST PUSH32 0xE8B685E8BF8775696E7438E79A84E69C80E5A4A7E580BC000000000000000000 PUSH0 DUP3 ADD MSTORE POP JUMP JUMPDEST PUSH0 PUSH2 0x6C0 PUSH1 0x17 DUP4 PUSH2 0x67C JUMP JUMPDEST SWAP2 POP PUSH2 0x6CB DUP3 PUSH2 0x68C JUMP JUMPDEST PUSH1 0x20 DUP3 ADD SWAP1 POP SWAP2 SWAP1 POP JUMP JUMPDEST PUSH0 PUSH1 0x20 DUP3 ADD SWAP1 POP DUP2 DUP2 SUB PUSH0 DUP4 ADD MSTORE PUSH2 0x6ED DUP2 PUSH2 0x6B4 JUMP JUMPDEST SWAP1 POP SWAP2 SWAP1 POP JUMP INVALID LOG2 PUSH5 0x6970667358 0x22 SLT KECCAK256 ADDRESS 0xB8 STOP PUSH27 0xE94121495139328C967BC5FB024F66C59A1EDBB57C22B2F5A241FD 0xB0 PUSH5 0x736F6C6343 STOP ADDMOD 0x22 STOP CALLER "
				},
				"gasEstimates": {
					"creation": {
						"codeDepositCost": "366800",
						"executionCost": "403",
						"totalCost": "367203"
					},
					"external": {
						"compareStrings(string,string)": "infinite",
						"isZeroAddress(address)": "642",
						"safeToUint8(uint256)": "805",
						"testCompareStrings()": "infinite",
						"testIsZeroAddress()": "infinite",
						"testSafeToUint8()": "infinite"
					}
				},
				"methodIdentifiers": {
					"compareStrings(string,string)": "bed34bba",
					"isZeroAddress(address)": "18664315",
					"safeToUint8(uint256)": "c41d558d",
					"testCompareStrings()": "a122bbcc",
					"testIsZeroAddress()": "6f8b701b",
					"testSafeToUint8()": "361131f7"
				}
			},
			"storageLayout": {
				"storage": [],
				"types": null
			},
			"userdoc": {
				"kind": "user",
				"methods": {},
				"version": 1
			}
		}
	}
}