{
	"contracts/2.1/07typeconversion/SafeConversion.sol": {
		"SafeConversion": {
			"abi": [
				{
					"inputs": [],
					"name": "getTypeInfo",
					"outputs": [
						{
							"internalType": "uint8",
							"name": "",
							"type": "uint8"
						},
						{
							"internalType": "uint8",
							"name": "",
							"type": "uint8"
						},
						{
							"internalType": "int8",
							"name": "",
							"type": "int8"
						},
						{
							"internalType": "int8",
							"name": "",
							"type": "int8"
						}
					],
					"stateMutability": "pure",
					"type": "function"
				},
				{
					"inputs": [
						{
							"internalType": "uint256",
							"name": "value",
							"type": "uint256"
						}
					],
					"name": "safeConversionUint8",
					"outputs": [
						{
							"internalType": "uint8",
							"name": "",
							"type": "uint8"
						}
					],
					"stateMutability": "pure",
					"type": "function"
				}
			],
			"devdoc": {
				"kind": "dev",
				"methods": {},
				"version": 1
			},
			"evm": {
				"assembly": "    /* \"contracts/2.1/07typeconversion/SafeConversion.sol\":58:574  contract SafeConversion{... */\n  mstore(0x40, 0x80)\n  callvalue\n  dup1\n  iszero\n  tag_1\n  jumpi\n  revert(0x00, 0x00)\ntag_1:\n  pop\n  dataSize(sub_0)\n  dup1\n  dataOffset(sub_0)\n  0x00\n  codecopy\n  0x00\n  return\nstop\n\nsub_0: assembly {\n        /* \"contracts/2.1/07typeconversion/SafeConversion.sol\":58:574  contract SafeConversion{... */\n      mstore(0x40, 0x80)\n      callvalue\n      dup1\n      iszero\n      tag_1\n      jumpi\n      revert(0x00, 0x00)\n    tag_1:\n      pop\n      jumpi(tag_2, lt(calldatasize, 0x04))\n      shr(0xe0, calldataload(0x00))\n      dup1\n      0x0bf6f641\n      eq\n      tag_3\n      jumpi\n      dup1\n      0x0ee1355d\n      eq\n      tag_4\n      jumpi\n    tag_2:\n      revert(0x00, 0x00)\n        /* \"contracts/2.1/07typeconversion/SafeConversion.sol\":88:343  function safeConversionUint8(uint value) public pure returns(uint8){... */\n    tag_3:\n      tag_5\n      0x04\n      dup1\n      calldatasize\n      sub\n      dup2\n      add\n      swap1\n      tag_6\n      swap2\n      swap1\n      tag_7\n      jump\t// in\n    tag_6:\n      tag_8\n      jump\t// in\n    tag_5:\n      mload(0x40)\n      tag_9\n      swap2\n      swap1\n      tag_10\n      jump\t// in\n    tag_9:\n      mload(0x40)\n      dup1\n      swap2\n      sub\n      swap1\n      return\n        /* \"contracts/2.1/07typeconversion/SafeConversion.sol\":351:571  function getTypeInfo() public pure returns(uint8,uint8,int8,int8){... */\n    tag_4:\n      tag_11\n      tag_12\n      jump\t// in\n    tag_11:\n      mload(0x40)\n      tag_13\n      swap5\n      swap4\n      swap3\n      swap2\n      swap1\n      tag_14\n      jump\t// in\n    tag_13:\n      mload(0x40)\n      dup1\n      swap2\n      sub\n      swap1\n      return\n        /* \"contracts/2.1/07typeconversion/SafeConversion.sol\":88:343  function safeConversionUint8(uint value) public pure returns(uint8){... */\n    tag_8:\n        /* \"contracts/2.1/07typeconversion/SafeConversion.sol\":149:154  uint8 */\n      0x00\n        /* \"contracts/2.1/07typeconversion/SafeConversion.sol\":181:196  type(uint8).max */\n      0xff\n        /* \"contracts/2.1/07typeconversion/SafeConversion.sol\":174:196  value<=type(uint8).max */\n      dup1\n      and\n        /* \"contracts/2.1/07typeconversion/SafeConversion.sol\":174:179  value */\n      dup3\n        /* \"contracts/2.1/07typeconversion/SafeConversion.sol\":174:196  value<=type(uint8).max */\n      gt\n      iszero\n        /* \"contracts/2.1/07typeconversion/SafeConversion.sol\":166:230  require(value<=type(uint8).max,unicode\"大于uint8的最大值\") */\n      tag_16\n      jumpi\n      mload(0x40)\n      0x08c379a000000000000000000000000000000000000000000000000000000000\n      dup2\n      mstore\n      0x04\n      add\n      tag_17\n      swap1\n      tag_18\n      jump\t// in\n    tag_17:\n      mload(0x40)\n      dup1\n      swap2\n      sub\n      swap1\n      revert\n    tag_16:\n        /* \"contracts/2.1/07typeconversion/SafeConversion.sol\":256:271  type(uint8).min */\n      0x00\n        /* \"contracts/2.1/07typeconversion/SafeConversion.sol\":249:271  value>=type(uint8).min */\n      0xff\n      and\n        /* \"contracts/2.1/07typeconversion/SafeConversion.sol\":249:254  value */\n      dup3\n        /* \"contracts/2.1/07typeconversion/SafeConversion.sol\":249:271  value>=type(uint8).min */\n      lt\n      iszero\n        /* \"contracts/2.1/07typeconversion/SafeConversion.sol\":241:305  require(value>=type(uint8).min,unicode\"小于uint8的最小值\") */\n      tag_19\n      jumpi\n      mload(0x40)\n      0x08c379a000000000000000000000000000000000000000000000000000000000\n      dup2\n      mstore\n      0x04\n      add\n      tag_20\n      swap1\n      tag_21\n      jump\t// in\n    tag_20:\n      mload(0x40)\n      dup1\n      swap2\n      sub\n      swap1\n      revert\n    tag_19:\n        /* \"contracts/2.1/07typeconversion/SafeConversion.sol\":329:334  value */\n      dup2\n        /* \"contracts/2.1/07typeconversion/SafeConversion.sol\":316:335  return uint8(value) */\n      swap1\n      pop\n        /* \"contracts/2.1/07typeconversion/SafeConversion.sol\":88:343  function safeConversionUint8(uint value) public pure returns(uint8){... */\n      swap2\n      swap1\n      pop\n      jump\t// out\n        /* \"contracts/2.1/07typeconversion/SafeConversion.sol\":351:571  function getTypeInfo() public pure returns(uint8,uint8,int8,int8){... */\n    tag_12:\n        /* \"contracts/2.1/07typeconversion/SafeConversion.sol\":394:399  uint8 */\n      0x00\n        /* \"contracts/2.1/07typeconversion/SafeConversion.sol\":400:405  uint8 */\n      0x00\n        /* \"contracts/2.1/07typeconversion/SafeConversion.sol\":406:410  int8 */\n      0x00\n        /* \"contracts/2.1/07typeconversion/SafeConversion.sol\":411:415  int8 */\n      0x00\n        /* \"contracts/2.1/07typeconversion/SafeConversion.sol\":449:464  type(uint8).max */\n      0xff\n        /* \"contracts/2.1/07typeconversion/SafeConversion.sol\":479:494  type(uint8).min */\n      0x00\n        /* \"contracts/2.1/07typeconversion/SafeConversion.sol\":509:523  type(int8).max */\n      0x7f\n        /* \"contracts/2.1/07typeconversion/SafeConversion.sol\":538:552  type(int8).min */\n      0xffffffffffffffffffffffffffffffffffffffffffffffffffffffffffffff80\n        /* \"contracts/2.1/07typeconversion/SafeConversion.sol\":427:563  return (... */\n      swap4\n      pop\n      swap4\n      pop\n      swap4\n      pop\n      swap4\n      pop\n        /* \"contracts/2.1/07typeconversion/SafeConversion.sol\":351:571  function getTypeInfo() public pure returns(uint8,uint8,int8,int8){... */\n      swap1\n      swap2\n      swap3\n      swap4\n      jump\t// out\n        /* \"#utility.yul\":88:205   */\n    tag_24:\n        /* \"#utility.yul\":197:198   */\n      0x00\n        /* \"#utility.yul\":194:195   */\n      0x00\n        /* \"#utility.yul\":187:199   */\n      revert\n        /* \"#utility.yul\":334:411   */\n    tag_26:\n        /* \"#utility.yul\":371:378   */\n      0x00\n        /* \"#utility.yul\":400:405   */\n      dup2\n        /* \"#utility.yul\":389:405   */\n      swap1\n      pop\n        /* \"#utility.yul\":334:411   */\n      swap2\n      swap1\n      pop\n      jump\t// out\n        /* \"#utility.yul\":417:539   */\n    tag_27:\n        /* \"#utility.yul\":490:514   */\n      tag_44\n        /* \"#utility.yul\":508:513   */\n      dup2\n        /* \"#utility.yul\":490:514   */\n      tag_26\n      jump\t// in\n    tag_44:\n        /* \"#utility.yul\":483:488   */\n      dup2\n        /* \"#utility.yul\":480:515   */\n      eq\n        /* \"#utility.yul\":470:533   */\n      tag_45\n      jumpi\n        /* \"#utility.yul\":529:530   */\n      0x00\n        /* \"#utility.yul\":526:527   */\n      0x00\n        /* \"#utility.yul\":519:531   */\n      revert\n        /* \"#utility.yul\":470:533   */\n    tag_45:\n        /* \"#utility.yul\":417:539   */\n      pop\n      jump\t// out\n        /* \"#utility.yul\":545:684   */\n    tag_28:\n        /* \"#utility.yul\":591:596   */\n      0x00\n        /* \"#utility.yul\":629:635   */\n      dup2\n        /* \"#utility.yul\":616:636   */\n      calldataload\n        /* \"#utility.yul\":607:636   */\n      swap1\n      pop\n        /* \"#utility.yul\":645:678   */\n      tag_47\n        /* \"#utility.yul\":672:677   */\n      dup2\n        /* \"#utility.yul\":645:678   */\n      tag_27\n      jump\t// in\n    tag_47:\n        /* \"#utility.yul\":545:684   */\n      swap3\n      swap2\n      pop\n      pop\n      jump\t// out\n        /* \"#utility.yul\":690:1019   */\n    tag_7:\n        /* \"#utility.yul\":749:755   */\n      0x00\n        /* \"#utility.yul\":798:800   */\n      0x20\n        /* \"#utility.yul\":786:795   */\n      dup3\n        /* \"#utility.yul\":777:784   */\n      dup5\n        /* \"#utility.yul\":773:796   */\n      sub\n        /* \"#utility.yul\":769:801   */\n      slt\n        /* \"#utility.yul\":766:885   */\n      iszero\n      tag_49\n      jumpi\n        /* \"#utility.yul\":804:883   */\n      tag_50\n      tag_24\n      jump\t// in\n    tag_50:\n        /* \"#utility.yul\":766:885   */\n    tag_49:\n        /* \"#utility.yul\":924:925   */\n      0x00\n        /* \"#utility.yul\":949:1002   */\n      tag_51\n        /* \"#utility.yul\":994:1001   */\n      dup5\n        /* \"#utility.yul\":985:991   */\n      dup3\n        /* \"#utility.yul\":974:983   */\n      dup6\n        /* \"#utility.yul\":970:992   */\n      add\n        /* \"#utility.yul\":949:1002   */\n      tag_28\n      jump\t// in\n    tag_51:\n        /* \"#utility.yul\":939:1002   */\n      swap2\n      pop\n        /* \"#utility.yul\":895:1012   */\n      pop\n        /* \"#utility.yul\":690:1019   */\n      swap3\n      swap2\n      pop\n      pop\n      jump\t// out\n        /* \"#utility.yul\":1025:1111   */\n    tag_29:\n        /* \"#utility.yul\":1060:1067   */\n      0x00\n        /* \"#utility.yul\":1100:1104   */\n      0xff\n        /* \"#utility.yul\":1093:1098   */\n      dup3\n        /* \"#utility.yul\":1089:1105   */\n      and\n        /* \"#utility.yul\":1078:1105   */\n      swap1\n      pop\n        /* \"#utility.yul\":1025:1111   */\n      swap2\n      swap1\n      pop\n      jump\t// out\n        /* \"#utility.yul\":1117:1229   */\n    tag_30:\n        /* \"#utility.yul\":1200:1222   */\n      tag_54\n        /* \"#utility.yul\":1216:1221   */\n      dup2\n        /* \"#utility.yul\":1200:1222   */\n      tag_29\n      jump\t// in\n    tag_54:\n        /* \"#utility.yul\":1195:1198   */\n      dup3\n        /* \"#utility.yul\":1188:1223   */\n      mstore\n        /* \"#utility.yul\":1117:1229   */\n      pop\n      pop\n      jump\t// out\n        /* \"#utility.yul\":1235:1449   */\n    tag_10:\n        /* \"#utility.yul\":1324:1328   */\n      0x00\n        /* \"#utility.yul\":1362:1364   */\n      0x20\n        /* \"#utility.yul\":1351:1360   */\n      dup3\n        /* \"#utility.yul\":1347:1365   */\n      add\n        /* \"#utility.yul\":1339:1365   */\n      swap1\n      pop\n        /* \"#utility.yul\":1375:1442   */\n      tag_56\n        /* \"#utility.yul\":1439:1440   */\n      0x00\n        /* \"#utility.yul\":1428:1437   */\n      dup4\n        /* \"#utility.yul\":1424:1441   */\n      add\n        /* \"#utility.yul\":1415:1421   */\n      dup5\n        /* \"#utility.yul\":1375:1442   */\n      tag_30\n      jump\t// in\n    tag_56:\n        /* \"#utility.yul\":1235:1449   */\n      swap3\n      swap2\n      pop\n      pop\n      jump\t// out\n        /* \"#utility.yul\":1455:1544   */\n    tag_31:\n        /* \"#utility.yul\":1489:1496   */\n      0x00\n        /* \"#utility.yul\":1532:1537   */\n      dup2\n        /* \"#utility.yul\":1529:1530   */\n      0x00\n        /* \"#utility.yul\":1518:1538   */\n      signextend\n        /* \"#utility.yul\":1507:1538   */\n      swap1\n      pop\n        /* \"#utility.yul\":1455:1544   */\n      swap2\n      swap1\n      pop\n      jump\t// out\n        /* \"#utility.yul\":1550:1659   */\n    tag_32:\n        /* \"#utility.yul\":1631:1652   */\n      tag_59\n        /* \"#utility.yul\":1646:1651   */\n      dup2\n        /* \"#utility.yul\":1631:1652   */\n      tag_31\n      jump\t// in\n    tag_59:\n        /* \"#utility.yul\":1626:1629   */\n      dup3\n        /* \"#utility.yul\":1619:1653   */\n      mstore\n        /* \"#utility.yul\":1550:1659   */\n      pop\n      pop\n      jump\t// out\n        /* \"#utility.yul\":1665:2178   */\n    tag_14:\n        /* \"#utility.yul\":1822:1826   */\n      0x00\n        /* \"#utility.yul\":1860:1863   */\n      0x80\n        /* \"#utility.yul\":1849:1858   */\n      dup3\n        /* \"#utility.yul\":1845:1864   */\n      add\n        /* \"#utility.yul\":1837:1864   */\n      swap1\n      pop\n        /* \"#utility.yul\":1874:1941   */\n      tag_61\n        /* \"#utility.yul\":1938:1939   */\n      0x00\n        /* \"#utility.yul\":1927:1936   */\n      dup4\n        /* \"#utility.yul\":1923:1940   */\n      add\n        /* \"#utility.yul\":1914:1920   */\n      dup8\n        /* \"#utility.yul\":1874:1941   */\n      tag_30\n      jump\t// in\n    tag_61:\n        /* \"#utility.yul\":1951:2019   */\n      tag_62\n        /* \"#utility.yul\":2015:2017   */\n      0x20\n        /* \"#utility.yul\":2004:2013   */\n      dup4\n        /* \"#utility.yul\":2000:2018   */\n      add\n        /* \"#utility.yul\":1991:1997   */\n      dup7\n        /* \"#utility.yul\":1951:2019   */\n      tag_30\n      jump\t// in\n    tag_62:\n        /* \"#utility.yul\":2029:2095   */\n      tag_63\n        /* \"#utility.yul\":2091:2093   */\n      0x40\n        /* \"#utility.yul\":2080:2089   */\n      dup4\n        /* \"#utility.yul\":2076:2094   */\n      add\n        /* \"#utility.yul\":2067:2073   */\n      dup6\n        /* \"#utility.yul\":2029:2095   */\n      tag_32\n      jump\t// in\n    tag_63:\n        /* \"#utility.yul\":2105:2171   */\n      tag_64\n        /* \"#utility.yul\":2167:2169   */\n      0x60\n        /* \"#utility.yul\":2156:2165   */\n      dup4\n        /* \"#utility.yul\":2152:2170   */\n      add\n        /* \"#utility.yul\":2143:2149   */\n      dup5\n        /* \"#utility.yul\":2105:2171   */\n      tag_32\n      jump\t// in\n    tag_64:\n        /* \"#utility.yul\":1665:2178   */\n      swap6\n      swap5\n      pop\n      pop\n      pop\n      pop\n      pop\n      jump\t// out\n        /* \"#utility.yul\":2184:2353   */\n    tag_33:\n        /* \"#utility.yul\":2268:2279   */\n      0x00\n        /* \"#utility.yul\":2302:2308   */\n      dup3\n        /* \"#utility.yul\":2297:2300   */\n      dup3\n        /* \"#utility.yul\":2290:2309   */\n      mstore\n        /* \"#utility.yul\":2342:2346   */\n      0x20\n        /* \"#utility.yul\":2337:2340   */\n      dup3\n        /* \"#utility.yul\":2333:2347   */\n      add\n        /* \"#utility.yul\":2318:2347   */\n      swap1\n      pop\n        /* \"#utility.yul\":2184:2353   */\n      swap3\n      swap2\n      pop\n      pop\n      jump\t// out\n        /* \"#utility.yul\":2359:2573   */\n    tag_34:\n        /* \"#utility.yul\":2499:2565   */\n      0xe5a4a7e4ba8e75696e7438e79a84e69c80e5a4a7e580bc000000000000000000\n        /* \"#utility.yul\":2495:2496   */\n      0x00\n        /* \"#utility.yul\":2487:2493   */\n      dup3\n        /* \"#utility.yul\":2483:2497   */\n      add\n        /* \"#utility.yul\":2476:2566   */\n      mstore\n        /* \"#utility.yul\":2359:2573   */\n      pop\n      jump\t// out\n        /* \"#utility.yul\":2579:2945   */\n    tag_35:\n        /* \"#utility.yul\":2721:2724   */\n      0x00\n        /* \"#utility.yul\":2742:2809   */\n      tag_68\n        /* \"#utility.yul\":2806:2808   */\n      0x17\n        /* \"#utility.yul\":2801:2804   */\n      dup4\n        /* \"#utility.yul\":2742:2809   */\n      tag_33\n      jump\t// in\n    tag_68:\n        /* \"#utility.yul\":2735:2809   */\n      swap2\n      pop\n        /* \"#utility.yul\":2818:2911   */\n      tag_69\n        /* \"#utility.yul\":2907:2910   */\n      dup3\n        /* \"#utility.yul\":2818:2911   */\n      tag_34\n      jump\t// in\n    tag_69:\n        /* \"#utility.yul\":2936:2938   */\n      0x20\n        /* \"#utility.yul\":2931:2934   */\n      dup3\n        /* \"#utility.yul\":2927:2939   */\n      add\n        /* \"#utility.yul\":2920:2939   */\n      swap1\n      pop\n        /* \"#utility.yul\":2579:2945   */\n      swap2\n      swap1\n      pop\n      jump\t// out\n        /* \"#utility.yul\":2951:3370   */\n    tag_18:\n        /* \"#utility.yul\":3117:3121   */\n      0x00\n        /* \"#utility.yul\":3155:3157   */\n      0x20\n        /* \"#utility.yul\":3144:3153   */\n      dup3\n        /* \"#utility.yul\":3140:3158   */\n      add\n        /* \"#utility.yul\":3132:3158   */\n      swap1\n      pop\n        /* \"#utility.yul\":3204:3213   */\n      dup2\n        /* \"#utility.yul\":3198:3202   */\n      dup2\n        /* \"#utility.yul\":3194:3214   */\n      sub\n        /* \"#utility.yul\":3190:3191   */\n      0x00\n        /* \"#utility.yul\":3179:3188   */\n      dup4\n        /* \"#utility.yul\":3175:3192   */\n      add\n        /* \"#utility.yul\":3168:3215   */\n      mstore\n        /* \"#utility.yul\":3232:3363   */\n      tag_71\n        /* \"#utility.yul\":3358:3362   */\n      dup2\n        /* \"#utility.yul\":3232:3363   */\n      tag_35\n      jump\t// in\n    tag_71:\n        /* \"#utility.yul\":3224:3363   */\n      swap1\n      pop\n        /* \"#utility.yul\":2951:3370   */\n      swap2\n      swap1\n      pop\n      jump\t// out\n        /* \"#utility.yul\":3376:3590   */\n    tag_36:\n        /* \"#utility.yul\":3516:3582   */\n      0xe5b08fe4ba8e75696e7438e79a84e69c80e5b08fe580bc000000000000000000\n        /* \"#utility.yul\":3512:3513   */\n      0x00\n        /* \"#utility.yul\":3504:3510   */\n      dup3\n        /* \"#utility.yul\":3500:3514   */\n      add\n        /* \"#utility.yul\":3493:3583   */\n      mstore\n        /* \"#utility.yul\":3376:3590   */\n      pop\n      jump\t// out\n        /* \"#utility.yul\":3596:3962   */\n    tag_37:\n        /* \"#utility.yul\":3738:3741   */\n      0x00\n        /* \"#utility.yul\":3759:3826   */\n      tag_74\n        /* \"#utility.yul\":3823:3825   */\n      0x17\n        /* \"#utility.yul\":3818:3821   */\n      dup4\n        /* \"#utility.yul\":3759:3826   */\n      tag_33\n      jump\t// in\n    tag_74:\n        /* \"#utility.yul\":3752:3826   */\n      swap2\n      pop\n        /* \"#utility.yul\":3835:3928   */\n      tag_75\n        /* \"#utility.yul\":3924:3927   */\n      dup3\n        /* \"#utility.yul\":3835:3928   */\n      tag_36\n      jump\t// in\n    tag_75:\n        /* \"#utility.yul\":3953:3955   */\n      0x20\n        /* \"#utility.yul\":3948:3951   */\n      dup3\n        /* \"#utility.yul\":3944:3956   */\n      add\n        /* \"#utility.yul\":3937:3956   */\n      swap1\n      pop\n        /* \"#utility.yul\":3596:3962   */\n      swap2\n      swap1\n      pop\n      jump\t// out\n        /* \"#utility.yul\":3968:4387   */\n    tag_21:\n        /* \"#utility.yul\":4134:4138   */\n      0x00\n        /* \"#utility.yul\":4172:4174   */\n      0x20\n        /* \"#utility.yul\":4161:4170   */\n      dup3\n        /* \"#utility.yul\":4157:4175   */\n      add\n        /* \"#utility.yul\":4149:4175   */\n      swap1\n      pop\n        /* \"#utility.yul\":4221:4230   */\n      dup2\n        /* \"#utility.yul\":4215:4219   */\n      dup2\n        /* \"#utility.yul\":4211:4231   */\n      sub\n        /* \"#utility.yul\":4207:4208   */\n      0x00\n        /* \"#utility.yul\":4196:4205   */\n      dup4\n        /* \"#utility.yul\":4192:4209   */\n      add\n        /* \"#utility.yul\":4185:4232   */\n      mstore\n        /* \"#utility.yul\":4249:4380   */\n      tag_77\n        /* \"#utility.yul\":4375:4379   */\n      dup2\n        /* \"#utility.yul\":4249:4380   */\n      tag_37\n      jump\t// in\n    tag_77:\n        /* \"#utility.yul\":4241:4380   */\n      swap1\n      pop\n        /* \"#utility.yul\":3968:4387   */\n      swap2\n      swap1\n      pop\n      jump\t// out\n\n    auxdata: 0xa26469706673582212209e1bd6fcf59c91b34986f76cd788e8f32438085c099f5a037bb896b6a63966f464736f6c63430008220033\n}\n",
				"bytecode": {
					"linkReferences": {},
					"object": "6080604052348015600e575f5ffd5b5061035f8061001c5f395ff3fe608060405234801561000f575f5ffd5b5060043610610034575f3560e01c80630bf6f641146100385780630ee1355d14610068575b5f5ffd5b610052600480360381019061004d919061018d565b610089565b60405161005f91906101d3565b60405180910390f35b61007061011e565b6040516100809493929190610206565b60405180910390f35b5f60ff80168211156100d0576040517f08c379a00000000000000000000000000000000000000000000000000000000081526004016100c7906102a3565b60405180910390fd5b5f60ff16821015610116576040517f08c379a000000000000000000000000000000000000000000000000000000000815260040161010d9061030b565b60405180910390fd5b819050919050565b5f5f5f5f60ff5f607f7fffffffffffffffffffffffffffffffffffffffffffffffffffffffffffffff80935093509350935090919293565b5f5ffd5b5f819050919050565b61016c8161015a565b8114610176575f5ffd5b50565b5f8135905061018781610163565b92915050565b5f602082840312156101a2576101a1610156565b5b5f6101af84828501610179565b91505092915050565b5f60ff82169050919050565b6101cd816101b8565b82525050565b5f6020820190506101e65f8301846101c4565b92915050565b5f815f0b9050919050565b610200816101ec565b82525050565b5f6080820190506102195f8301876101c4565b61022660208301866101c4565b61023360408301856101f7565b61024060608301846101f7565b95945050505050565b5f82825260208201905092915050565b7fe5a4a7e4ba8e75696e7438e79a84e69c80e5a4a7e580bc0000000000000000005f82015250565b5f61028d601783610249565b915061029882610259565b602082019050919050565b5f6020820190508181035f8301526102ba81610281565b9050919050565b7fe5b08fe4ba8e75696e7438e79a84e69c80e5b08fe580bc0000000000000000005f82015250565b5f6102f5601783610249565b9150610300826102c1565b602082019050919050565b5f6020820190508181035f830152610322816102e9565b905091905056fea26469706673582212209e1bd6fcf59c91b34986f76cd788e8f32438085c099f5a037bb896b6a63966f464736f6c63430008220033",
					"opcodes": "PUSH1 0x80 PUSH1 0x40 MSTORE CALLVALUE DUP1 ISZERO PUSH1 0xE JUMPI PUSH0 PUSH0 REVERT JUMPDEST POP PUSH2 0x35F DUP1 PUSH2 0x1C PUSH0 CODECOPY PUSH0 RETURN INVALID PUSH1 0x80 PUSH1 0x40 MSTORE CALLVALUE DUP1 ISZERO PUSH2 0xF JUMPI PUSH0 PUSH0 REVERT JUMPDEST POP PUSH1 0x4 CALLDATASIZE LT PUSH2 0x34 JUMPI PUSH0 CALLDATALOAD PUSH1 0xE0 SHR DUP1 PUSH4 0xBF6F641 EQ PUSH2 0x38 JUMPI DUP1 PUSH4 0xEE1355D EQ PUSH2 0x68 JUMPI JUMPDEST PUSH0 PUSH0 REVERT JUMPDEST PUSH2 0x52 PUSH1 0x4 DUP1 CALLDATASIZE SUB DUP2 ADD SWAP1 PUSH2 0x4D SWAP2 SWAP1 PUSH2 0x18D JUMP JUMPDEST PUSH2 0x89 JUMP JUMPDEST PUSH1 0x40 MLOAD PUSH2 0x5F SWAP2 SWAP1 PUSH2 0x1D3 JUMP JUMPDEST PUSH1 0x40 MLOAD DUP1 SWAP2 SUB SWAP1 RETURN JUMPDEST PUSH2 0x70 PUSH2 0x11E JUMP JUMPDEST PUSH1 0x40 MLOAD PUSH2 0x80 SWAP5 SWAP4 SWAP3 SWAP2 SWAP1 PUSH2 0x206 JUMP JUMPDEST PUSH1 0x40 MLOAD DUP1 SWAP2 SUB SWAP1 RETURN JUMPDEST PUSH0 PUSH1 0xFF DUP1 AND DUP3 GT ISZERO PUSH2 0xD0 JUMPI PUSH1 0x40 MLOAD PUSH32 0x8C379A000000000000000000000000000000000000000000000000000000000 DUP2 MSTORE PUSH1 0x4 ADD PUSH2 0xC7 SWAP1 PUSH2 0x2A3 JUMP JUMPDEST PUSH1 0x40 MLOAD DUP1 SWAP2 SUB SWAP1 REVERT JUMPDEST PUSH0 PUSH1 0xFF AND DUP3 LT ISZERO PUSH2 0x116 JUMPI PUSH1 0x40 MLOAD PUSH32 0x8C379A000000000000000000000000000000000000000000000000000000000 DUP2 MSTORE PUSH1 0x4 ADD PUSH2 0x10D SWAP1 PUSH2 0x30B JUMP JUMPDEST PUSH1 0x40 MLOAD DUP1 SWAP2 SUB SWAP1 REVERT JUMPDEST DUP2 SWAP1 POP SWAP2 SWAP1 POP JUMP JUMPDEST PUSH0 PUSH0 PUSH0 PUSH0 PUSH1 0xFF PUSH0 PUSH1 0x7F PUSH32 0xFFFFFFFFFFFFFFFFFFFFFFFFFFFFFFFFFFFFFFFFFFFFFFFFFFFFFFFFFFFFFF80 SWAP4 POP SWAP4 POP SWAP4 POP SWAP4 POP SWAP1 SWAP2 SWAP3 SWAP4 JUMP JUMPDEST PUSH0 PUSH0 REVERT JUMPDEST PUSH0 DUP2 SWAP1 POP SWAP2 SWAP1 POP JUMP JUMPDEST PUSH2 0x16C DUP2 PUSH2 0x15A JUMP JUMPDEST DUP2 EQ PUSH2 0x176 JUMPI PUSH0 PUSH0 REVERT JUMPDEST POP JUMP JUMPDEST PUSH0 DUP2 CALLDATALOAD SWAP1 POP PUSH2 0x187 DUP2 PUSH2 0x163 JUMP JUMPDEST SWAP3 SWAP2 POP POP JUMP JUMPDEST PUSH0 PUSH1 0x20 DUP3 DUP5 SUB SLT ISZERO PUSH2 0x1A2 JUMPI PUSH2 0x1A1 PUSH2 0x156 JUMP JUMPDEST JUMPDEST PUSH0 PUSH2 0x1AF DUP5 DUP3 DUP6 ADD PUSH2 0x179 JUMP JUMPDEST SWAP2 POP POP SWAP3 SWAP2 POP POP JUMP JUMPDEST PUSH0 PUSH1 0xFF DUP3 AND SWAP1 POP SWAP2 SWAP1 POP JUMP JUMPDEST PUSH2 0x1CD DUP2 PUSH2 0x1B8 JUMP JUMPDEST DUP3 MSTORE POP POP JUMP JUMPDEST PUSH0 PUSH1 0x20 DUP3 ADD SWAP1 POP PUSH2 0x1E6 PUSH0 DUP4 ADD DUP5 PUSH2 0x1C4 JUMP JUMPDEST SWAP3 SWAP2 POP POP JUMP JUMPDEST PUSH0 DUP2 PUSH0 SIGNEXTEND SWAP1 POP SWAP2 SWAP1 POP JUMP JUMPDEST PUSH2 0x200 DUP2 PUSH2 0x1EC JUMP JUMPDEST DUP3 MSTORE POP POP JUMP JUMPDEST PUSH0 PUSH1 0x80 DUP3 ADD SWAP1 POP PUSH2 0x219 PUSH0 DUP4 ADD DUP8 PUSH2 0x1C4 JUMP JUMPDEST PUSH2 0x226 PUSH1 0x20 DUP4 ADD DUP7 PUSH2 0x1C4 JUMP JUMPDEST PUSH2 0x233 PUSH1 0x40 DUP4 ADD DUP6 PUSH2 0x1F7 JUMP JUMPDEST PUSH2 0x240 PUSH1 0x60 DUP4 ADD DUP5 PUSH2 0x1F7 JUMP JUMPDEST SWAP6 SWAP5 POP POP POP POP POP JUMP JUMPDEST PUSH0 DUP3 DUP3 MSTORE PUSH1 0x20 DUP3 ADD SWAP1 POP SWAP3 SWAP2 POP POP JUMP JUMPDEST PUSH32 0xE5A4A7E4BA8E75696E7438E79A84E69C80E5A4A7E580BC000000000000000000 PUSH0 DUP3 ADD MSTORE POP JUMP JUMPDEST PUSH0 PUSH2 0x28D PUSH1 0x17 DUP4 PUSH2 0x249 JUMP JUMPDEST SWAP2 POP PUSH2 0x298 DUP3 PUSH2 0x259 JUMP JUMPDEST PUSH1 0x20 DUP3 ADD SWAP1 POP SWAP2 SWAP1 POP JUMP JUMPDEST PUSH0 PUSH1 0x20 DUP3 ADD SWAP1 POP DUP2 DUP2 SUB PUSH0 DUP4 ADD MSTORE PUSH2 0x2BA DUP2 PUSH2 0x281 JUMP JUMPDEST SWAP1 POP SWAP2 SWAP1 POP JUMP JUMPDEST PUSH32 0xE5B08FE4BA8E75696E7438E79A84E69C80E5B08FE580BC000000000000000000 PUSH0 DUP3 ADD MSTORE POP JUMP JUMPDEST PUSH0 PUSH2 0x2F5 PUSH1 0x17 DUP4 PUSH2 0x249 JUMP JUMPDEST SWAP2 POP PUSH2 0x300 DUP3 PUSH2 0x2C1 JUMP JUMPDEST PUSH1 0x20 DUP3 ADD SWAP1 POP SWAP2 SWAP1 POP JUMP JUMPDEST PUSH0 PUSH1 0x20 DUP3 ADD SWAP1 POP DUP2 DUP2 SUB PUSH0 DUP4 ADD MSTORE PUSH2 0x322 DUP2 PUSH2 0x2E9 JUMP JUMPDEST SWAP1 POP SWAP2 SWAP1 POP JUMP INVALID LOG2 PUSH5 0x6970667358 0x22 SLT KECCAK256 SWAP15 SHL 0xD6 0xFC CREATE2 SWAP13 SWAP2 0xB3 BLOBHASH DUP7 0xF7 PUSH13 0xD788E8F32438085C099F5A037B 0xB8 SWAP7 0xB6 0xA6 CODECOPY PUSH7 0xF464736F6C6343 STOP ADDMOD 0x22 STOP CALLER "
				},
				"gasEstimates": {
					"creation": {
						"codeDepositCost": "172600",
						"executionCost": "212",
						"totalCost": "172812"
					},
					"external": {
						"getTypeInfo()": "infinite",
						"safeConversionUint8(uint256)": "695"
					}
				},
				"methodIdentifiers": {
					"getTypeInfo()": "0ee1355d",
					"safeConversionUint8(uint256)": "0bf6f641"
				}
			},
			"storageLayout": {
				"storage": [],
				"types": null
			},
			"userdoc": {
				"kind": "user",
				"methods": {},
				"version": 1
			}
		}
	}
}