{
	"contracts/1.2/SumContract.sol": {
		"SumContract": {
			"abi": [
				{
					"inputs": [
						{
							"internalType": "uint256[]",
							"name": "data",
							"type": "uint256[]"
						}
					],
					"name": "getSumCalldata",
					"outputs": [
						{
							"internalType": "uint256",
							"name": "",
							"type": "uint256"
						}
					],
					"stateMutability": "pure",
					"type": "function"
				},
				{
					"inputs": [
						{
							"internalType": "uint256[]",
							"name": "data",
							"type": "uint256[]"
						}
					],
					"name": "getSumMemory",
					"outputs": [
						{
							"internalType": "uint256",
							"name": "",
							"type": "uint256"
						}
					],
					"stateMutability": "pure",
					"type": "function"
				}
			],
			"devdoc": {
				"kind": "dev",
				"methods": {},
				"version": 1
			},
			"evm": {
				"assembly": "    /* \"contracts/1.2/SumContract.sol\":58:512  contract SumContract{... */\n  mstore(0x40, 0x80)\n  callvalue\n  dup1\n  iszero\n  tag_1\n  jumpi\n  revert(0x00, 0x00)\ntag_1:\n  pop\n  dataSize(sub_0)\n  dup1\n  dataOffset(sub_0)\n  0x00\n  codecopy\n  0x00\n  return\nstop\n\nsub_0: assembly {\n        /* \"contracts/1.2/SumContract.sol\":58:512  contract SumContract{... */\n      mstore(0x40, 0x80)\n      callvalue\n      dup1\n      iszero\n      tag_1\n      jumpi\n      revert(0x00, 0x00)\n    tag_1:\n      pop\n      jumpi(tag_2, lt(calldatasize, 0x04))\n      shr(0xe0, calldataload(0x00))\n      dup1\n      0x21beefa8\n      eq\n      tag_3\n      jumpi\n      dup1\n      0x91576157\n      eq\n      tag_4\n      jumpi\n    tag_2:\n      revert(0x00, 0x00)\n        /* \"contracts/1.2/SumContract.sol\":324:509  function getSumCalldata(uint256[] memory data) public pure returns(uint256){... */\n    tag_3:\n      tag_5\n      0x04\n      dup1\n      calldatasize\n      sub\n      dup2\n      add\n      swap1\n      tag_6\n      swap2\n      swap1\n      tag_7\n      jump\t// in\n    tag_6:\n      tag_8\n      jump\t// in\n    tag_5:\n      mload(0x40)\n      tag_9\n      swap2\n      swap1\n      tag_10\n      jump\t// in\n    tag_9:\n      mload(0x40)\n      dup1\n      swap2\n      sub\n      swap1\n      return\n        /* \"contracts/1.2/SumContract.sol\":99:302  function getSumMemory(uint256[] memory data) public pure returns(uint256){... */\n    tag_4:\n      tag_11\n      0x04\n      dup1\n      calldatasize\n      sub\n      dup2\n      add\n      swap1\n      tag_12\n      swap2\n      swap1\n      tag_7\n      jump\t// in\n    tag_12:\n      tag_13\n      jump\t// in\n    tag_11:\n      mload(0x40)\n      tag_14\n      swap2\n      swap1\n      tag_10\n      jump\t// in\n    tag_14:\n      mload(0x40)\n      dup1\n      swap2\n      sub\n      swap1\n      return\n        /* \"contracts/1.2/SumContract.sol\":324:509  function getSumCalldata(uint256[] memory data) public pure returns(uint256){... */\n    tag_8:\n        /* \"contracts/1.2/SumContract.sol\":391:398  uint256 */\n      0x00\n        /* \"contracts/1.2/SumContract.sol\":406:414  uint sum */\n      0x00\n        /* \"contracts/1.2/SumContract.sol\":415:416  0 */\n      0x00\n        /* \"contracts/1.2/SumContract.sol\":406:416  uint sum=0 */\n      swap1\n      pop\n        /* \"contracts/1.2/SumContract.sol\":427:433  uint i */\n      0x00\n        /* \"contracts/1.2/SumContract.sol\":434:435  0 */\n      0x00\n        /* \"contracts/1.2/SumContract.sol\":427:435  uint i=0 */\n      swap1\n      pop\n        /* \"contracts/1.2/SumContract.sol\":423:485  for(uint i=0;i<data.length;i++){... */\n    tag_16:\n        /* \"contracts/1.2/SumContract.sol\":438:442  data */\n      dup4\n        /* \"contracts/1.2/SumContract.sol\":438:449  data.length */\n      mload\n        /* \"contracts/1.2/SumContract.sol\":436:437  i */\n      dup2\n        /* \"contracts/1.2/SumContract.sol\":436:449  i<data.length */\n      lt\n        /* \"contracts/1.2/SumContract.sol\":423:485  for(uint i=0;i<data.length;i++){... */\n      iszero\n      tag_17\n      jumpi\n        /* \"contracts/1.2/SumContract.sol\":470:474  data */\n      dup4\n        /* \"contracts/1.2/SumContract.sol\":475:476  i */\n      dup2\n        /* \"contracts/1.2/SumContract.sol\":470:477  data[i] */\n      dup2\n      mload\n      dup2\n      lt\n      tag_19\n      jumpi\n      tag_20\n      tag_21\n      jump\t// in\n    tag_20:\n    tag_19:\n      0x20\n      mul\n      0x20\n      add\n      add\n      mload\n        /* \"contracts/1.2/SumContract.sol\":465:477  sum+=data[i] */\n      dup3\n      tag_22\n      swap2\n      swap1\n      tag_23\n      jump\t// in\n    tag_22:\n      swap2\n      pop\n        /* \"contracts/1.2/SumContract.sol\":450:453  i++ */\n      dup1\n      dup1\n      0x01\n      add\n      swap2\n      pop\n      pop\n        /* \"contracts/1.2/SumContract.sol\":423:485  for(uint i=0;i<data.length;i++){... */\n      jump(tag_16)\n    tag_17:\n      pop\n        /* \"contracts/1.2/SumContract.sol\":498:501  sum */\n      dup1\n        /* \"contracts/1.2/SumContract.sol\":491:501  return sum */\n      swap2\n      pop\n      pop\n        /* \"contracts/1.2/SumContract.sol\":324:509  function getSumCalldata(uint256[] memory data) public pure returns(uint256){... */\n      swap2\n      swap1\n      pop\n      jump\t// out\n        /* \"contracts/1.2/SumContract.sol\":99:302  function getSumMemory(uint256[] memory data) public pure returns(uint256){... */\n    tag_13:\n        /* \"contracts/1.2/SumContract.sol\":164:171  uint256 */\n      0x00\n        /* \"contracts/1.2/SumContract.sol\":183:191  uint sum */\n      0x00\n        /* \"contracts/1.2/SumContract.sol\":192:193  0 */\n      0x00\n        /* \"contracts/1.2/SumContract.sol\":183:193  uint sum=0 */\n      swap1\n      pop\n        /* \"contracts/1.2/SumContract.sol\":208:214  uint i */\n      0x00\n        /* \"contracts/1.2/SumContract.sol\":215:216  0 */\n      0x00\n        /* \"contracts/1.2/SumContract.sol\":208:216  uint i=0 */\n      swap1\n      pop\n        /* \"contracts/1.2/SumContract.sol\":204:274  for(uint i=0;i<data.length;i++){... */\n    tag_25:\n        /* \"contracts/1.2/SumContract.sol\":219:223  data */\n      dup4\n        /* \"contracts/1.2/SumContract.sol\":219:230  data.length */\n      mload\n        /* \"contracts/1.2/SumContract.sol\":217:218  i */\n      dup2\n        /* \"contracts/1.2/SumContract.sol\":217:230  i<data.length */\n      lt\n        /* \"contracts/1.2/SumContract.sol\":204:274  for(uint i=0;i<data.length;i++){... */\n      iszero\n      tag_26\n      jumpi\n        /* \"contracts/1.2/SumContract.sol\":255:259  data */\n      dup4\n        /* \"contracts/1.2/SumContract.sol\":260:261  i */\n      dup2\n        /* \"contracts/1.2/SumContract.sol\":255:262  data[i] */\n      dup2\n      mload\n      dup2\n      lt\n      tag_28\n      jumpi\n      tag_29\n      tag_21\n      jump\t// in\n    tag_29:\n    tag_28:\n      0x20\n      mul\n      0x20\n      add\n      add\n      mload\n        /* \"contracts/1.2/SumContract.sol\":250:262  sum+=data[i] */\n      dup3\n      tag_30\n      swap2\n      swap1\n      tag_23\n      jump\t// in\n    tag_30:\n      swap2\n      pop\n        /* \"contracts/1.2/SumContract.sol\":231:234  i++ */\n      dup1\n      dup1\n      0x01\n      add\n      swap2\n      pop\n      pop\n        /* \"contracts/1.2/SumContract.sol\":204:274  for(uint i=0;i<data.length;i++){... */\n      jump(tag_25)\n    tag_26:\n      pop\n        /* \"contracts/1.2/SumContract.sol\":291:294  sum */\n      dup1\n        /* \"contracts/1.2/SumContract.sol\":284:294  return sum */\n      swap2\n      pop\n      pop\n        /* \"contracts/1.2/SumContract.sol\":99:302  function getSumMemory(uint256[] memory data) public pure returns(uint256){... */\n      swap2\n      swap1\n      pop\n      jump\t// out\n        /* \"#utility.yul\":7:82   */\n    tag_31:\n        /* \"#utility.yul\":40:46   */\n      0x00\n        /* \"#utility.yul\":73:75   */\n      0x40\n        /* \"#utility.yul\":67:76   */\n      mload\n        /* \"#utility.yul\":57:76   */\n      swap1\n      pop\n        /* \"#utility.yul\":7:82   */\n      swap1\n      jump\t// out\n        /* \"#utility.yul\":88:205   */\n    tag_32:\n        /* \"#utility.yul\":197:198   */\n      0x00\n        /* \"#utility.yul\":194:195   */\n      0x00\n        /* \"#utility.yul\":187:199   */\n      revert\n        /* \"#utility.yul\":211:328   */\n    tag_33:\n        /* \"#utility.yul\":320:321   */\n      0x00\n        /* \"#utility.yul\":317:318   */\n      0x00\n        /* \"#utility.yul\":310:322   */\n      revert\n        /* \"#utility.yul\":334:451   */\n    tag_34:\n        /* \"#utility.yul\":443:444   */\n      0x00\n        /* \"#utility.yul\":440:441   */\n      0x00\n        /* \"#utility.yul\":433:445   */\n      revert\n        /* \"#utility.yul\":457:559   */\n    tag_35:\n        /* \"#utility.yul\":498:504   */\n      0x00\n        /* \"#utility.yul\":549:551   */\n      0x1f\n        /* \"#utility.yul\":545:552   */\n      not\n        /* \"#utility.yul\":540:542   */\n      0x1f\n        /* \"#utility.yul\":533:538   */\n      dup4\n        /* \"#utility.yul\":529:543   */\n      add\n        /* \"#utility.yul\":525:553   */\n      and\n        /* \"#utility.yul\":515:553   */\n      swap1\n      pop\n        /* \"#utility.yul\":457:559   */\n      swap2\n      swap1\n      pop\n      jump\t// out\n        /* \"#utility.yul\":565:745   */\n    tag_36:\n        /* \"#utility.yul\":613:690   */\n      0x4e487b7100000000000000000000000000000000000000000000000000000000\n        /* \"#utility.yul\":610:611   */\n      0x00\n        /* \"#utility.yul\":603:691   */\n      mstore\n        /* \"#utility.yul\":710:714   */\n      0x41\n        /* \"#utility.yul\":707:708   */\n      0x04\n        /* \"#utility.yul\":700:715   */\n      mstore\n        /* \"#utility.yul\":734:738   */\n      0x24\n        /* \"#utility.yul\":731:732   */\n      0x00\n        /* \"#utility.yul\":724:739   */\n      revert\n        /* \"#utility.yul\":751:1032   */\n    tag_37:\n        /* \"#utility.yul\":834:861   */\n      tag_56\n        /* \"#utility.yul\":856:860   */\n      dup3\n        /* \"#utility.yul\":834:861   */\n      tag_35\n      jump\t// in\n    tag_56:\n        /* \"#utility.yul\":826:832   */\n      dup2\n        /* \"#utility.yul\":822:862   */\n      add\n        /* \"#utility.yul\":964:970   */\n      dup2\n        /* \"#utility.yul\":952:962   */\n      dup2\n        /* \"#utility.yul\":949:971   */\n      lt\n        /* \"#utility.yul\":928:946   */\n      0xffffffffffffffff\n        /* \"#utility.yul\":916:926   */\n      dup3\n        /* \"#utility.yul\":913:947   */\n      gt\n        /* \"#utility.yul\":910:972   */\n      or\n        /* \"#utility.yul\":907:995   */\n      iszero\n      tag_57\n      jumpi\n        /* \"#utility.yul\":975:993   */\n      tag_58\n      tag_36\n      jump\t// in\n    tag_58:\n        /* \"#utility.yul\":907:995   */\n    tag_57:\n        /* \"#utility.yul\":1015:1025   */\n      dup1\n        /* \"#utility.yul\":1011:1013   */\n      0x40\n        /* \"#utility.yul\":1004:1026   */\n      mstore\n        /* \"#utility.yul\":794:1032   */\n      pop\n        /* \"#utility.yul\":751:1032   */\n      pop\n      pop\n      jump\t// out\n        /* \"#utility.yul\":1038:1167   */\n    tag_38:\n        /* \"#utility.yul\":1072:1078   */\n      0x00\n        /* \"#utility.yul\":1099:1119   */\n      tag_60\n      tag_31\n      jump\t// in\n    tag_60:\n        /* \"#utility.yul\":1089:1119   */\n      swap1\n      pop\n        /* \"#utility.yul\":1128:1161   */\n      tag_61\n        /* \"#utility.yul\":1156:1160   */\n      dup3\n        /* \"#utility.yul\":1148:1154   */\n      dup3\n        /* \"#utility.yul\":1128:1161   */\n      tag_37\n      jump\t// in\n    tag_61:\n        /* \"#utility.yul\":1038:1167   */\n      swap2\n      swap1\n      pop\n      jump\t// out\n        /* \"#utility.yul\":1173:1484   */\n    tag_39:\n        /* \"#utility.yul\":1250:1254   */\n      0x00\n        /* \"#utility.yul\":1340:1358   */\n      0xffffffffffffffff\n        /* \"#utility.yul\":1332:1338   */\n      dup3\n        /* \"#utility.yul\":1329:1359   */\n      gt\n        /* \"#utility.yul\":1326:1382   */\n      iszero\n      tag_63\n      jumpi\n        /* \"#utility.yul\":1362:1380   */\n      tag_64\n      tag_36\n      jump\t// in\n    tag_64:\n        /* \"#utility.yul\":1326:1382   */\n    tag_63:\n        /* \"#utility.yul\":1412:1416   */\n      0x20\n        /* \"#utility.yul\":1404:1410   */\n      dup3\n        /* \"#utility.yul\":1400:1417   */\n      mul\n        /* \"#utility.yul\":1392:1417   */\n      swap1\n      pop\n        /* \"#utility.yul\":1472:1476   */\n      0x20\n        /* \"#utility.yul\":1466:1470   */\n      dup2\n        /* \"#utility.yul\":1462:1477   */\n      add\n        /* \"#utility.yul\":1454:1477   */\n      swap1\n      pop\n        /* \"#utility.yul\":1173:1484   */\n      swap2\n      swap1\n      pop\n      jump\t// out\n        /* \"#utility.yul\":1490:1607   */\n    tag_40:\n        /* \"#utility.yul\":1599:1600   */\n      0x00\n        /* \"#utility.yul\":1596:1597   */\n      0x00\n        /* \"#utility.yul\":1589:1601   */\n      revert\n        /* \"#utility.yul\":1613:1690   */\n    tag_41:\n        /* \"#utility.yul\":1650:1657   */\n      0x00\n        /* \"#utility.yul\":1679:1684   */\n      dup2\n        /* \"#utility.yul\":1668:1684   */\n      swap1\n      pop\n        /* \"#utility.yul\":1613:1690   */\n      swap2\n      swap1\n      pop\n      jump\t// out\n        /* \"#utility.yul\":1696:1818   */\n    tag_42:\n        /* \"#utility.yul\":1769:1793   */\n      tag_68\n        /* \"#utility.yul\":1787:1792   */\n      dup2\n        /* \"#utility.yul\":1769:1793   */\n      tag_41\n      jump\t// in\n    tag_68:\n        /* \"#utility.yul\":1762:1767   */\n      dup2\n        /* \"#utility.yul\":1759:1794   */\n      eq\n        /* \"#utility.yul\":1749:1812   */\n      tag_69\n      jumpi\n        /* \"#utility.yul\":1808:1809   */\n      0x00\n        /* \"#utility.yul\":1805:1806   */\n      0x00\n        /* \"#utility.yul\":1798:1810   */\n      revert\n        /* \"#utility.yul\":1749:1812   */\n    tag_69:\n        /* \"#utility.yul\":1696:1818   */\n      pop\n      jump\t// out\n        /* \"#utility.yul\":1824:1963   */\n    tag_43:\n        /* \"#utility.yul\":1870:1875   */\n      0x00\n        /* \"#utility.yul\":1908:1914   */\n      dup2\n        /* \"#utility.yul\":1895:1915   */\n      calldataload\n        /* \"#utility.yul\":1886:1915   */\n      swap1\n      pop\n        /* \"#utility.yul\":1924:1957   */\n      tag_71\n        /* \"#utility.yul\":1951:1956   */\n      dup2\n        /* \"#utility.yul\":1924:1957   */\n      tag_42\n      jump\t// in\n    tag_71:\n        /* \"#utility.yul\":1824:1963   */\n      swap3\n      swap2\n      pop\n      pop\n      jump\t// out\n        /* \"#utility.yul\":1986:2696   */\n    tag_44:\n        /* \"#utility.yul\":2082:2087   */\n      0x00\n        /* \"#utility.yul\":2107:2188   */\n      tag_73\n        /* \"#utility.yul\":2123:2187   */\n      tag_74\n        /* \"#utility.yul\":2180:2186   */\n      dup5\n        /* \"#utility.yul\":2123:2187   */\n      tag_39\n      jump\t// in\n    tag_74:\n        /* \"#utility.yul\":2107:2188   */\n      tag_38\n      jump\t// in\n    tag_73:\n        /* \"#utility.yul\":2098:2188   */\n      swap1\n      pop\n        /* \"#utility.yul\":2208:2213   */\n      dup1\n        /* \"#utility.yul\":2237:2243   */\n      dup4\n        /* \"#utility.yul\":2230:2235   */\n      dup3\n        /* \"#utility.yul\":2223:2244   */\n      mstore\n        /* \"#utility.yul\":2271:2275   */\n      0x20\n        /* \"#utility.yul\":2264:2269   */\n      dup3\n        /* \"#utility.yul\":2260:2276   */\n      add\n        /* \"#utility.yul\":2253:2276   */\n      swap1\n      pop\n        /* \"#utility.yul\":2324:2328   */\n      0x20\n        /* \"#utility.yul\":2316:2322   */\n      dup5\n        /* \"#utility.yul\":2312:2329   */\n      mul\n        /* \"#utility.yul\":2304:2310   */\n      dup4\n        /* \"#utility.yul\":2300:2330   */\n      add\n        /* \"#utility.yul\":2353:2356   */\n      dup6\n        /* \"#utility.yul\":2345:2351   */\n      dup2\n        /* \"#utility.yul\":2342:2357   */\n      gt\n        /* \"#utility.yul\":2339:2461   */\n      iszero\n      tag_75\n      jumpi\n        /* \"#utility.yul\":2372:2451   */\n      tag_76\n      tag_40\n      jump\t// in\n    tag_76:\n        /* \"#utility.yul\":2339:2461   */\n    tag_75:\n        /* \"#utility.yul\":2487:2493   */\n      dup4\n        /* \"#utility.yul\":2470:2690   */\n    tag_77:\n        /* \"#utility.yul\":2504:2510   */\n      dup2\n        /* \"#utility.yul\":2499:2502   */\n      dup2\n        /* \"#utility.yul\":2496:2511   */\n      lt\n        /* \"#utility.yul\":2470:2690   */\n      iszero\n      tag_79\n      jumpi\n        /* \"#utility.yul\":2579:2582   */\n      dup1\n        /* \"#utility.yul\":2608:2645   */\n      tag_80\n        /* \"#utility.yul\":2641:2644   */\n      dup9\n        /* \"#utility.yul\":2629:2639   */\n      dup3\n        /* \"#utility.yul\":2608:2645   */\n      tag_43\n      jump\t// in\n    tag_80:\n        /* \"#utility.yul\":2603:2606   */\n      dup5\n        /* \"#utility.yul\":2596:2646   */\n      mstore\n        /* \"#utility.yul\":2675:2679   */\n      0x20\n        /* \"#utility.yul\":2670:2673   */\n      dup5\n        /* \"#utility.yul\":2666:2680   */\n      add\n        /* \"#utility.yul\":2659:2680   */\n      swap4\n      pop\n        /* \"#utility.yul\":2546:2690   */\n      pop\n        /* \"#utility.yul\":2530:2534   */\n      0x20\n        /* \"#utility.yul\":2525:2528   */\n      dup2\n        /* \"#utility.yul\":2521:2535   */\n      add\n        /* \"#utility.yul\":2514:2535   */\n      swap1\n      pop\n        /* \"#utility.yul\":2470:2690   */\n      jump(tag_77)\n    tag_79:\n        /* \"#utility.yul\":2474:2495   */\n      pop\n        /* \"#utility.yul\":2088:2696   */\n      pop\n      pop\n        /* \"#utility.yul\":1986:2696   */\n      swap4\n      swap3\n      pop\n      pop\n      pop\n      jump\t// out\n        /* \"#utility.yul\":2719:3089   */\n    tag_45:\n        /* \"#utility.yul\":2790:2795   */\n      0x00\n        /* \"#utility.yul\":2839:2842   */\n      dup3\n        /* \"#utility.yul\":2832:2836   */\n      0x1f\n        /* \"#utility.yul\":2824:2830   */\n      dup4\n        /* \"#utility.yul\":2820:2837   */\n      add\n        /* \"#utility.yul\":2816:2843   */\n      slt\n        /* \"#utility.yul\":2806:2928   */\n      tag_82\n      jumpi\n        /* \"#utility.yul\":2847:2926   */\n      tag_83\n      tag_34\n      jump\t// in\n    tag_83:\n        /* \"#utility.yul\":2806:2928   */\n    tag_82:\n        /* \"#utility.yul\":2964:2970   */\n      dup2\n        /* \"#utility.yul\":2951:2971   */\n      calldataload\n        /* \"#utility.yul\":2989:3083   */\n      tag_84\n        /* \"#utility.yul\":3079:3082   */\n      dup5\n        /* \"#utility.yul\":3071:3077   */\n      dup3\n        /* \"#utility.yul\":3064:3068   */\n      0x20\n        /* \"#utility.yul\":3056:3062   */\n      dup7\n        /* \"#utility.yul\":3052:3069   */\n      add\n        /* \"#utility.yul\":2989:3083   */\n      tag_44\n      jump\t// in\n    tag_84:\n        /* \"#utility.yul\":2980:3083   */\n      swap2\n      pop\n        /* \"#utility.yul\":2796:3089   */\n      pop\n        /* \"#utility.yul\":2719:3089   */\n      swap3\n      swap2\n      pop\n      pop\n      jump\t// out\n        /* \"#utility.yul\":3095:3634   */\n    tag_7:\n        /* \"#utility.yul\":3179:3185   */\n      0x00\n        /* \"#utility.yul\":3228:3230   */\n      0x20\n        /* \"#utility.yul\":3216:3225   */\n      dup3\n        /* \"#utility.yul\":3207:3214   */\n      dup5\n        /* \"#utility.yul\":3203:3226   */\n      sub\n        /* \"#utility.yul\":3199:3231   */\n      slt\n        /* \"#utility.yul\":3196:3315   */\n      iszero\n      tag_86\n      jumpi\n        /* \"#utility.yul\":3234:3313   */\n      tag_87\n      tag_32\n      jump\t// in\n    tag_87:\n        /* \"#utility.yul\":3196:3315   */\n    tag_86:\n        /* \"#utility.yul\":3382:3383   */\n      0x00\n        /* \"#utility.yul\":3371:3380   */\n      dup3\n        /* \"#utility.yul\":3367:3384   */\n      add\n        /* \"#utility.yul\":3354:3385   */\n      calldataload\n        /* \"#utility.yul\":3412:3430   */\n      0xffffffffffffffff\n        /* \"#utility.yul\":3404:3410   */\n      dup2\n        /* \"#utility.yul\":3401:3431   */\n      gt\n        /* \"#utility.yul\":3398:3515   */\n      iszero\n      tag_88\n      jumpi\n        /* \"#utility.yul\":3434:3513   */\n      tag_89\n      tag_33\n      jump\t// in\n    tag_89:\n        /* \"#utility.yul\":3398:3515   */\n    tag_88:\n        /* \"#utility.yul\":3539:3617   */\n      tag_90\n        /* \"#utility.yul\":3609:3616   */\n      dup5\n        /* \"#utility.yul\":3600:3606   */\n      dup3\n        /* \"#utility.yul\":3589:3598   */\n      dup6\n        /* \"#utility.yul\":3585:3607   */\n      add\n        /* \"#utility.yul\":3539:3617   */\n      tag_45\n      jump\t// in\n    tag_90:\n        /* \"#utility.yul\":3529:3617   */\n      swap2\n      pop\n        /* \"#utility.yul\":3325:3627   */\n      pop\n        /* \"#utility.yul\":3095:3634   */\n      swap3\n      swap2\n      pop\n      pop\n      jump\t// out\n        /* \"#utility.yul\":3640:3758   */\n    tag_46:\n        /* \"#utility.yul\":3727:3751   */\n      tag_92\n        /* \"#utility.yul\":3745:3750   */\n      dup2\n        /* \"#utility.yul\":3727:3751   */\n      tag_41\n      jump\t// in\n    tag_92:\n        /* \"#utility.yul\":3722:3725   */\n      dup3\n        /* \"#utility.yul\":3715:3752   */\n      mstore\n        /* \"#utility.yul\":3640:3758   */\n      pop\n      pop\n      jump\t// out\n        /* \"#utility.yul\":3764:3986   */\n    tag_10:\n        /* \"#utility.yul\":3857:3861   */\n      0x00\n        /* \"#utility.yul\":3895:3897   */\n      0x20\n        /* \"#utility.yul\":3884:3893   */\n      dup3\n        /* \"#utility.yul\":3880:3898   */\n      add\n        /* \"#utility.yul\":3872:3898   */\n      swap1\n      pop\n        /* \"#utility.yul\":3908:3979   */\n      tag_94\n        /* \"#utility.yul\":3976:3977   */\n      0x00\n        /* \"#utility.yul\":3965:3974   */\n      dup4\n        /* \"#utility.yul\":3961:3978   */\n      add\n        /* \"#utility.yul\":3952:3958   */\n      dup5\n        /* \"#utility.yul\":3908:3979   */\n      tag_46\n      jump\t// in\n    tag_94:\n        /* \"#utility.yul\":3764:3986   */\n      swap3\n      swap2\n      pop\n      pop\n      jump\t// out\n        /* \"#utility.yul\":3992:4172   */\n    tag_21:\n        /* \"#utility.yul\":4040:4117   */\n      0x4e487b7100000000000000000000000000000000000000000000000000000000\n        /* \"#utility.yul\":4037:4038   */\n      0x00\n        /* \"#utility.yul\":4030:4118   */\n      mstore\n        /* \"#utility.yul\":4137:4141   */\n      0x32\n        /* \"#utility.yul\":4134:4135   */\n      0x04\n        /* \"#utility.yul\":4127:4142   */\n      mstore\n        /* \"#utility.yul\":4161:4165   */\n      0x24\n        /* \"#utility.yul\":4158:4159   */\n      0x00\n        /* \"#utility.yul\":4151:4166   */\n      revert\n        /* \"#utility.yul\":4178:4358   */\n    tag_47:\n        /* \"#utility.yul\":4226:4303   */\n      0x4e487b7100000000000000000000000000000000000000000000000000000000\n        /* \"#utility.yul\":4223:4224   */\n      0x00\n        /* \"#utility.yul\":4216:4304   */\n      mstore\n        /* \"#utility.yul\":4323:4327   */\n      0x11\n        /* \"#utility.yul\":4320:4321   */\n      0x04\n        /* \"#utility.yul\":4313:4328   */\n      mstore\n        /* \"#utility.yul\":4347:4351   */\n      0x24\n        /* \"#utility.yul\":4344:4345   */\n      0x00\n        /* \"#utility.yul\":4337:4352   */\n      revert\n        /* \"#utility.yul\":4364:4555   */\n    tag_23:\n        /* \"#utility.yul\":4404:4407   */\n      0x00\n        /* \"#utility.yul\":4423:4443   */\n      tag_98\n        /* \"#utility.yul\":4441:4442   */\n      dup3\n        /* \"#utility.yul\":4423:4443   */\n      tag_41\n      jump\t// in\n    tag_98:\n        /* \"#utility.yul\":4418:4443   */\n      swap2\n      pop\n        /* \"#utility.yul\":4457:4477   */\n      tag_99\n        /* \"#utility.yul\":4475:4476   */\n      dup4\n        /* \"#utility.yul\":4457:4477   */\n      tag_41\n      jump\t// in\n    tag_99:\n        /* \"#utility.yul\":4452:4477   */\n      swap3\n      pop\n        /* \"#utility.yul\":4500:4501   */\n      dup3\n        /* \"#utility.yul\":4497:4498   */\n      dup3\n        /* \"#utility.yul\":4493:4502   */\n      add\n        /* \"#utility.yul\":4486:4502   */\n      swap1\n      pop\n        /* \"#utility.yul\":4521:4524   */\n      dup1\n        /* \"#utility.yul\":4518:4519   */\n      dup3\n        /* \"#utility.yul\":4515:4525   */\n      gt\n        /* \"#utility.yul\":4512:4548   */\n      iszero\n      tag_100\n      jumpi\n        /* \"#utility.yul\":4528:4546   */\n      tag_101\n      tag_47\n      jump\t// in\n    tag_101:\n        /* \"#utility.yul\":4512:4548   */\n    tag_100:\n        /* \"#utility.yul\":4364:4555   */\n      swap3\n      swap2\n      pop\n      pop\n      jump\t// out\n\n    auxdata: 0xa2646970667358221220fa8d891054f2790af6460d7711a080194a4e0fc6d6f6702f79ad54031245f7e664736f6c63430008220033\n}\n",
				"bytecode": {
					"linkReferences": {},
					"object": "6080604052348015600e575f5ffd5b506104028061001c5f395ff3fe608060405234801561000f575f5ffd5b5060043610610034575f3560e01c806321beefa8146100385780639157615714610068575b5f5ffd5b610052600480360381019061004d91906102d0565b610098565b60405161005f9190610326565b60405180910390f35b610082600480360381019061007d91906102d0565b6100ea565b60405161008f9190610326565b60405180910390f35b5f5f5f90505f5f90505b83518110156100e0578381815181106100be576100bd61033f565b5b6020026020010151826100d19190610399565b915080806001019150506100a2565b5080915050919050565b5f5f5f90505f5f90505b8351811015610132578381815181106101105761010f61033f565b5b6020026020010151826101239190610399565b915080806001019150506100f4565b5080915050919050565b5f604051905090565b5f5ffd5b5f5ffd5b5f5ffd5b5f601f19601f8301169050919050565b7f4e487b71000000000000000000000000000000000000000000000000000000005f52604160045260245ffd5b61019782610151565b810181811067ffffffffffffffff821117156101b6576101b5610161565b5b80604052505050565b5f6101c861013c565b90506101d4828261018e565b919050565b5f67ffffffffffffffff8211156101f3576101f2610161565b5b602082029050602081019050919050565b5f5ffd5b5f819050919050565b61021a81610208565b8114610224575f5ffd5b50565b5f8135905061023581610211565b92915050565b5f61024d610248846101d9565b6101bf565b905080838252602082019050602084028301858111156102705761026f610204565b5b835b8181101561029957806102858882610227565b845260208401935050602081019050610272565b5050509392505050565b5f82601f8301126102b7576102b661014d565b5b81356102c784826020860161023b565b91505092915050565b5f602082840312156102e5576102e4610145565b5b5f82013567ffffffffffffffff81111561030257610301610149565b5b61030e848285016102a3565b91505092915050565b61032081610208565b82525050565b5f6020820190506103395f830184610317565b92915050565b7f4e487b71000000000000000000000000000000000000000000000000000000005f52603260045260245ffd5b7f4e487b71000000000000000000000000000000000000000000000000000000005f52601160045260245ffd5b5f6103a382610208565b91506103ae83610208565b92508282019050808211156103c6576103c561036c565b5b9291505056fea2646970667358221220fa8d891054f2790af6460d7711a080194a4e0fc6d6f6702f79ad54031245f7e664736f6c63430008220033",
					"opcodes": "PUSH1 0x80 PUSH1 0x40 MSTORE CALLVALUE DUP1 ISZERO PUSH1 0xE JUMPI PUSH0 PUSH0 REVERT JUMPDEST POP PUSH2 0x402 DUP1 PUSH2 0x1C PUSH0 CODECOPY PUSH0 RETURN INVALID PUSH1 0x80 PUSH1 0x40 MSTORE CALLVALUE DUP1 ISZERO PUSH2 0xF JUMPI PUSH0 PUSH0 REVERT JUMPDEST POP PUSH1 0x4 CALLDATASIZE LT PUSH2 0x34 JUMPI PUSH0 CALLDATALOAD PUSH1 0xE0 SHR DUP1 PUSH4 0x21BEEFA8 EQ PUSH2 0x38 JUMPI DUP1 PUSH4 0x91576157 EQ PUSH2 0x68 JUMPI JUMPDEST PUSH0 PUSH0 REVERT JUMPDEST PUSH2 0x52 PUSH1 0x4 DUP1 CALLDATASIZE SUB DUP2 ADD SWAP1 PUSH2 0x4D SWAP2 SWAP1 PUSH2 0x2D0 JUMP JUMPDEST PUSH2 0x98 JUMP JUMPDEST PUSH1 0x40 MLOAD PUSH2 0x5F SWAP2 SWAP1 PUSH2 0x326 JUMP JUMPDEST PUSH1 0x40 MLOAD DUP1 SWAP2 SUB SWAP1 RETURN JUMPDEST PUSH2 0x82 PUSH1 0x4 DUP1 CALLDATASIZE SUB DUP2 ADD SWAP1 PUSH2 0x7D SWAP2 SWAP1 PUSH2 0x2D0 JUMP JUMPDEST PUSH2 0xEA JUMP JUMPDEST PUSH1 0x40 MLOAD PUSH2 0x8F SWAP2 SWAP1 PUSH2 0x326 JUMP JUMPDEST PUSH1 0x40 MLOAD DUP1 SWAP2 SUB SWAP1 RETURN JUMPDEST PUSH0 PUSH0 PUSH0 SWAP1 POP PUSH0 PUSH0 SWAP1 POP JUMPDEST DUP4 MLOAD DUP2 LT ISZERO PUSH2 0xE0 JUMPI DUP4 DUP2 DUP2 MLOAD DUP2 LT PUSH2 0xBE JUMPI PUSH2 0xBD PUSH2 0x33F JUMP JUMPDEST JUMPDEST PUSH1 0x20 MUL PUSH1 0x20 ADD ADD MLOAD DUP3 PUSH2 0xD1 SWAP2 SWAP1 PUSH2 0x399 JUMP JUMPDEST SWAP2 POP DUP1 DUP1 PUSH1 0x1 ADD SWAP2 POP POP PUSH2 0xA2 JUMP JUMPDEST POP DUP1 SWAP2 POP POP SWAP2 SWAP1 POP JUMP JUMPDEST PUSH0 PUSH0 PUSH0 SWAP1 POP PUSH0 PUSH0 SWAP1 POP JUMPDEST DUP4 MLOAD DUP2 LT ISZERO PUSH2 0x132 JUMPI DUP4 DUP2 DUP2 MLOAD DUP2 LT PUSH2 0x110 JUMPI PUSH2 0x10F PUSH2 0x33F JUMP JUMPDEST JUMPDEST PUSH1 0x20 MUL PUSH1 0x20 ADD ADD MLOAD DUP3 PUSH2 0x123 SWAP2 SWAP1 PUSH2 0x399 JUMP JUMPDEST SWAP2 POP DUP1 DUP1 PUSH1 0x1 ADD SWAP2 POP POP PUSH2 0xF4 JUMP JUMPDEST POP DUP1 SWAP2 POP POP SWAP2 SWAP1 POP JUMP JUMPDEST PUSH0 PUSH1 0x40 MLOAD SWAP1 POP SWAP1 JUMP JUMPDEST PUSH0 PUSH0 REVERT JUMPDEST PUSH0 PUSH0 REVERT JUMPDEST PUSH0 PUSH0 REVERT JUMPDEST PUSH0 PUSH1 0x1F NOT PUSH1 0x1F DUP4 ADD AND SWAP1 POP SWAP2 SWAP1 POP JUMP JUMPDEST PUSH32 0x4E487B7100000000000000000000000000000000000000000000000000000000 PUSH0 MSTORE PUSH1 0x41 PUSH1 0x4 MSTORE PUSH1 0x24 PUSH0 REVERT JUMPDEST PUSH2 0x197 DUP3 PUSH2 0x151 JUMP JUMPDEST DUP2 ADD DUP2 DUP2 LT PUSH8 0xFFFFFFFFFFFFFFFF DUP3 GT OR ISZERO PUSH2 0x1B6 JUMPI PUSH2 0x1B5 PUSH2 0x161 JUMP JUMPDEST JUMPDEST DUP1 PUSH1 0x40 MSTORE POP POP POP JUMP JUMPDEST PUSH0 PUSH2 0x1C8 PUSH2 0x13C JUMP JUMPDEST SWAP1 POP PUSH2 0x1D4 DUP3 DUP3 PUSH2 0x18E JUMP JUMPDEST SWAP2 SWAP1 POP JUMP JUMPDEST PUSH0 PUSH8 0xFFFFFFFFFFFFFFFF DUP3 GT ISZERO PUSH2 0x1F3 JUMPI PUSH2 0x1F2 PUSH2 0x161 JUMP JUMPDEST JUMPDEST PUSH1 0x20 DUP3 MUL SWAP1 POP PUSH1 0x20 DUP2 ADD SWAP1 POP SWAP2 SWAP1 POP JUMP JUMPDEST PUSH0 PUSH0 REVERT JUMPDEST PUSH0 DUP2 SWAP1 POP SWAP2 SWAP1 POP JUMP JUMPDEST PUSH2 0x21A DUP2 PUSH2 0x208 JUMP JUMPDEST DUP2 EQ PUSH2 0x224 JUMPI PUSH0 PUSH0 REVERT JUMPDEST POP JUMP JUMPDEST PUSH0 DUP2 CALLDATALOAD SWAP1 POP PUSH2 0x235 DUP2 PUSH2 0x211 JUMP JUMPDEST SWAP3 SWAP2 POP POP JUMP JUMPDEST PUSH0 PUSH2 0x24D PUSH2 0x248 DUP5 PUSH2 0x1D9 JUMP JUMPDEST PUSH2 0x1BF JUMP JUMPDEST SWAP1 POP DUP1 DUP4 DUP3 MSTORE PUSH1 0x20 DUP3 ADD SWAP1 POP PUSH1 0x20 DUP5 MUL DUP4 ADD DUP6 DUP2 GT ISZERO PUSH2 0x270 JUMPI PUSH2 0x26F PUSH2 0x204 JUMP JUMPDEST JUMPDEST DUP4 JUMPDEST DUP2 DUP2 LT ISZERO PUSH2 0x299 JUMPI DUP1 PUSH2 0x285 DUP9 DUP3 PUSH2 0x227 JUMP JUMPDEST DUP5 MSTORE PUSH1 0x20 DUP5 ADD SWAP4 POP POP PUSH1 0x20 DUP2 ADD SWAP1 POP PUSH2 0x272 JUMP JUMPDEST POP POP POP SWAP4 SWAP3 POP POP POP JUMP JUMPDEST PUSH0 DUP3 PUSH1 0x1F DUP4 ADD SLT PUSH2 0x2B7 JUMPI PUSH2 0x2B6 PUSH2 0x14D JUMP JUMPDEST JUMPDEST DUP2 CALLDATALOAD PUSH2 0x2C7 DUP5 DUP3 PUSH1 0x20 DUP7 ADD PUSH2 0x23B JUMP JUMPDEST SWAP2 POP POP SWAP3 SWAP2 POP POP JUMP JUMPDEST PUSH0 PUSH1 0x20 DUP3 DUP5 SUB SLT ISZERO PUSH2 0x2E5 JUMPI PUSH2 0x2E4 PUSH2 0x145 JUMP JUMPDEST JUMPDEST PUSH0 DUP3 ADD CALLDATALOAD PUSH8 0xFFFFFFFFFFFFFFFF DUP2 GT ISZERO PUSH2 0x302 JUMPI PUSH2 0x301 PUSH2 0x149 JUMP JUMPDEST JUMPDEST PUSH2 0x30E DUP5 DUP3 DUP6 ADD PUSH2 0x2A3 JUMP JUMPDEST SWAP2 POP POP SWAP3 SWAP2 POP POP JUMP JUMPDEST PUSH2 0x320 DUP2 PUSH2 0x208 JUMP JUMPDEST DUP3 MSTORE POP POP JUMP JUMPDEST PUSH0 PUSH1 0x20 DUP3 ADD SWAP1 POP PUSH2 0x339 PUSH0 DUP4 ADD DUP5 PUSH2 0x317 JUMP JUMPDEST SWAP3 SWAP2 POP POP JUMP JUMPDEST PUSH32 0x4E487B7100000000000000000000000000000000000000000000000000000000 PUSH0 MSTORE PUSH1 0x32 PUSH1 0x4 MSTORE PUSH1 0x24 PUSH0 REVERT JUMPDEST PUSH32 0x4E487B7100000000000000000000000000000000000000000000000000000000 PUSH0 MSTORE PUSH1 0x11 PUSH1 0x4 MSTORE PUSH1 0x24 PUSH0 REVERT JUMPDEST PUSH0 PUSH2 0x3A3 DUP3 PUSH2 0x208 JUMP JUMPDEST SWAP2 POP PUSH2 0x3AE DUP4 PUSH2 0x208 JUMP JUMPDEST SWAP3 POP DUP3 DUP3 ADD SWAP1 POP DUP1 DUP3 GT ISZERO PUSH2 0x3C6 JUMPI PUSH2 0x3C5 PUSH2 0x36C JUMP JUMPDEST JUMPDEST SWAP3 SWAP2 POP POP JUMP INVALID LOG2 PUSH5 0x6970667358 0x22 SLT KECCAK256 STATICCALL DUP14 DUP10 LT SLOAD CALLCODE PUSH26 0xAF6460D7711A080194A4E0FC6D6F6702F79AD54031245F7E664 PUSH20 0x6F6C634300082200330000000000000000000000 "
				},
				"gasEstimates": {
					"creation": {
						"codeDepositCost": "205200",
						"executionCost": "249",
						"totalCost": "205449"
					},
					"external": {
						"getSumCalldata(uint256[])": "infinite",
						"getSumMemory(uint256[])": "infinite"
					}
				},
				"methodIdentifiers": {
					"getSumCalldata(uint256[])": "21beefa8",
					"getSumMemory(uint256[])": "91576157"
				}
			},
			"storageLayout": {
				"storage": [],
				"types": null
			},
			"userdoc": {
				"kind": "user",
				"methods": {},
				"version": 1
			}
		}
	}
}