{
	"data": {
		"bytecode": {
			"linkReferences": {},
			"object": "608060405260015f5f6101000a81548160ff0219169083151502179055505f5f60016101000a81548160ff0219169083151502179055503480156040575f5ffd5b5061025b8061004e5f395ff3fe608060405234801561000f575f5ffd5b506004361061003f575f3560e01c806329c68dc114610043578063396e5fee1461004d5780638866eaec1461006b575b5f5ffd5b61004b610089565b005b6100556100b1565b604051610062919061017c565b60405180910390f35b6100736100dd565b6040516100809190610205565b60405180910390f35b5f5f9054906101000a900460ff16155f5f6101000a81548160ff021916908315150217905550565b5f5f5f9054906101000a900460ff1680156100d857505f60019054906101000a900460ff16155b905090565b60606100e76100b1565b610126576040518060400160405280601381526020017fe4b88de6ada3e5b8b8e78ab6e680812d2d2d2d0000000000000000000000000081525061015d565b6040518060400160405280600f81526020017fe6ada3e5b8b8e78ab6e680813e3e3e00000000000000000000000000000000008152505b905090565b5f8115159050919050565b61017681610162565b82525050565b5f60208201905061018f5f83018461016d565b92915050565b5f81519050919050565b5f82825260208201905092915050565b8281835e5f83830152505050565b5f601f19601f8301169050919050565b5f6101d782610195565b6101e1818561019f565b93506101f18185602086016101af565b6101fa816101bd565b840191505092915050565b5f6020820190508181035f83015261021d81846101cd565b90509291505056fea2646970667358221220f3b260349b3324f176dabd7857b03473122e133aeda882ec51f6d1f2536d67de64736f6c63430008220033",
			"opcodes": "PUSH1 0x80 PUSH1 0x40 MSTORE PUSH1 0x1 PUSH0 PUSH0 PUSH2 0x100 EXP DUP2 SLOAD DUP2 PUSH1 0xFF MUL NOT AND SWAP1 DUP4 ISZERO ISZERO MUL OR SWAP1 SSTORE POP PUSH0 PUSH0 PUSH1 0x1 PUSH2 0x100 EXP DUP2 SLOAD DUP2 PUSH1 0xFF MUL NOT AND SWAP1 DUP4 ISZERO ISZERO MUL OR SWAP1 SSTORE POP CALLVALUE DUP1 ISZERO PUSH1 0x40 JUMPI PUSH0 PUSH0 REVERT JUMPDEST POP PUSH2 0x25B DUP1 PUSH2 0x4E PUSH0 CODECOPY PUSH0 RETURN INVALID PUSH1 0x80 PUSH1 0x40 MSTORE CALLVALUE DUP1 ISZERO PUSH2 0xF JUMPI PUSH0 PUSH0 REVERT JUMPDEST POP PUSH1 0x4 CALLDATASIZE LT PUSH2 0x3F JUMPI PUSH0 CALLDATALOAD PUSH1 0xE0 SHR DUP1 PUSH4 0x29C68DC1 EQ PUSH2 0x43 JUMPI DUP1 PUSH4 0x396E5FEE EQ PUSH2 0x4D JUMPI DUP1 PUSH4 0x8866EAEC EQ PUSH2 0x6B JUMPI JUMPDEST PUSH0 PUSH0 REVERT JUMPDEST PUSH2 0x4B PUSH2 0x89 JUMP JUMPDEST STOP JUMPDEST PUSH2 0x55 PUSH2 0xB1 JUMP JUMPDEST PUSH1 0x40 MLOAD PUSH2 0x62 SWAP2 SWAP1 PUSH2 0x17C JUMP JUMPDEST PUSH1 0x40 MLOAD DUP1 SWAP2 SUB SWAP1 RETURN JUMPDEST PUSH2 0x73 PUSH2 0xDD JUMP JUMPDEST PUSH1 0x40 MLOAD PUSH2 0x80 SWAP2 SWAP1 PUSH2 0x205 JUMP JUMPDEST PUSH1 0x40 MLOAD DUP1 SWAP2 SUB SWAP1 RETURN JUMPDEST PUSH0 PUSH0 SWAP1 SLOAD SWAP1 PUSH2 0x100 EXP SWAP1 DIV PUSH1 0xFF AND ISZERO PUSH0 PUSH0 PUSH2 0x100 EXP DUP2 SLOAD DUP2 PUSH1 0xFF MUL NOT AND SWAP1 DUP4 ISZERO ISZERO MUL OR SWAP1 SSTORE POP JUMP JUMPDEST PUSH0 PUSH0 PUSH0 SWAP1 SLOAD SWAP1 PUSH2 0x100 EXP SWAP1 DIV PUSH1 0xFF AND DUP1 ISZERO PUSH2 0xD8 JUMPI POP PUSH0 PUSH1 0x1 SWAP1 SLOAD SWAP1 PUSH2 0x100 EXP SWAP1 DIV PUSH1 0xFF AND ISZERO JUMPDEST SWAP1 POP SWAP1 JUMP JUMPDEST PUSH1 0x60 PUSH2 0xE7 PUSH2 0xB1 JUMP JUMPDEST PUSH2 0x126 JUMPI PUSH1 0x40 MLOAD DUP1 PUSH1 0x40 ADD PUSH1 0x40 MSTORE DUP1 PUSH1 0x13 DUP2 MSTORE PUSH1 0x20 ADD PUSH32 0xE4B88DE6ADA3E5B8B8E78AB6E680812D2D2D2D00000000000000000000000000 DUP2 MSTORE POP PUSH2 0x15D JUMP JUMPDEST PUSH1 0x40 MLOAD DUP1 PUSH1 0x40 ADD PUSH1 0x40 MSTORE DUP1 PUSH1 0xF DUP2 MSTORE PUSH1 0x20 ADD PUSH32 0xE6ADA3E5B8B8E78AB6E680813E3E3E0000000000000000000000000000000000 DUP2 MSTORE POP JUMPDEST SWAP1 POP SWAP1 JUMP JUMPDEST PUSH0 DUP2 ISZERO ISZERO SWAP1 POP SWAP2 SWAP1 POP JUMP JUMPDEST PUSH2 0x176 DUP2 PUSH2 0x162 JUMP JUMPDEST DUP3 MSTORE POP POP JUMP JUMPDEST PUSH0 PUSH1 0x20 DUP3 ADD SWAP1 POP PUSH2 0x18F PUSH0 DUP4 ADD DUP5 PUSH2 0x16D JUMP JUMPDEST SWAP3 SWAP2 POP POP JUMP JUMPDEST PUSH0 DUP2 MLOAD SWAP1 POP SWAP2 SWAP1 POP JUMP JUMPDEST PUSH0 DUP3 DUP3 MSTORE PUSH1 0x20 DUP3 ADD SWAP1 POP SWAP3 SWAP2 POP POP JUMP JUMPDEST DUP3 DUP2 DUP4 MCOPY PUSH0 DUP4 DUP4 ADD MSTORE POP POP POP JUMP JUMPDEST PUSH0 PUSH1 0x1F NOT PUSH1 0x1F DUP4 ADD AND SWAP1 POP SWAP2 SWAP1 POP JUMP JUMPDEST PUSH0 PUSH2 0x1D7 DUP3 PUSH2 0x195 JUMP JUMPDEST PUSH2 0x1E1 DUP2 DUP6 PUSH2 0x19F JUMP JUMPDEST SWAP4 POP PUSH2 0x1F1 DUP2 DUP6 PUSH1 0x20 DUP7 ADD PUSH2 0x1AF JUMP JUMPDEST PUSH2 0x1FA DUP2 PUSH2 0x1BD JUMP JUMPDEST DUP5 ADD SWAP2 POP POP SWAP3 SWAP2 POP POP JUMP JUMPDEST PUSH0 PUSH1 0x20 DUP3 ADD SWAP1 POP DUP2 DUP2 SUB PUSH0 DUP4 ADD MSTORE PUSH2 0x21D DUP2 DUP5 PUSH2 0x1CD JUMP JUMPDEST SWAP1 POP SWAP3 SWAP2 POP POP JUMP INVALID LOG2 PUSH5 0x6970667358 0x22 SLT KECCAK256 RETURN 0xB2 PUSH1 0x34 SWAP12 CALLER 0x24 CALL PUSH23 0xDABD7857B03473122E133AEDA882EC51F6D1F2536D67DE PUSH5 0x736F6C6343 STOP ADDMOD 0x22 STOP CALLER "
		},
		"gasEstimates": {
			"creation": {
				"codeDepositCost": "120600",
				"executionCost": "48743",
				"totalCost": "169343"
			},
			"external": {
				"checkActive()": "4685",
				"isNormal()": "infinite",
				"toggleActive()": "26523"
			}
		},
		"methodIdentifiers": {
			"checkActive()": "396e5fee",
			"isNormal()": "8866eaec",
			"toggleActive()": "29c68dc1"
		}
	},
	"abi": [
		{
			"inputs": [],
			"name": "checkActive",
			"outputs": [
				{
					"internalType": "bool",
					"name": "",
					"type": "bool"
				}
			],
			"stateMutability": "view",
			"type": "function"
		},
		{
			"inputs": [],
			"name": "isNormal",
			"outputs": [
				{
					"internalType": "string",
					"name": "",
					"type": "string"
				}
			],
			"stateMutability": "view",
			"type": "function"
		},
		{
			"inputs": [],
			"name": "toggleActive",
			"outputs": [],
			"stateMutability": "nonpayable",
			"type": "function"
		}
	]
}