{
	"data": {
		"bytecode": {
			"linkReferences": {},
			"object": "6080604052348015600e575f5ffd5b506105308061001c5f395ff3fe608060405234801561000f575f5ffd5b5060043610610034575f3560e01c8063980a67fd14610038578063e1ce4d3f1461005b575b5f5ffd5b61004061007d565b60405161005296959493929190610170565b60405180910390f35b6100636100eb565b6040516100749594939291906101cf565b60405180910390f35b5f5f5f5f5f5f5f600a90505f600390508082610099919061024d565b81836100a59190610280565b82846100b191906102b3565b83856100bd9190610321565b84866100c99190610351565b85876100d591906104b0565b9750975097509750975097505050909192939495565b5f5f5f5f5f5f601490505f600690508082610106919061024d565b91508181836101159190610280565b925082828461012491906102b3565b93508383856101339190610321565b94508484866101429190610351565b9550859650965096509650965050509091929394565b5f819050919050565b61016a81610158565b82525050565b5f60c0820190506101835f830189610161565b6101906020830188610161565b61019d6040830187610161565b6101aa6060830186610161565b6101b76080830185610161565b6101c460a0830184610161565b979650505050505050565b5f60a0820190506101e25f830188610161565b6101ef6020830187610161565b6101fc6040830186610161565b6102096060830185610161565b6102166080830184610161565b9695505050505050565b7f4e487b71000000000000000000000000000000000000000000000000000000005f52601160045260245ffd5b5f61025782610158565b915061026283610158565b925082820190508082111561027a57610279610220565b5b92915050565b5f61028a82610158565b915061029583610158565b92508282039050818111156102ad576102ac610220565b5b92915050565b5f6102bd82610158565b91506102c883610158565b92508282026102d681610158565b915082820484148315176102ed576102ec610220565b5b5092915050565b7f4e487b71000000000000000000000000000000000000000000000000000000005f52601260045260245ffd5b5f61032b82610158565b915061033683610158565b925082610346576103456102f4565b5b828204905092915050565b5f61035b82610158565b915061036683610158565b925082610376576103756102f4565b5b828206905092915050565b5f8160011c9050919050565b5f5f8291508390505b60018511156103d6578086048111156103b2576103b1610220565b5b60018516156103c15780820291505b80810290506103cf85610381565b9450610396565b94509492505050565b5f826103ee57600190506104a9565b816103fb575f90506104a9565b8160018114610411576002811461041b5761044a565b60019150506104a9565b60ff84111561042d5761042c610220565b5b8360020a91508482111561044457610443610220565b5b506104a9565b5060208310610133831016604e8410600b841016171561047f5782820a90508381111561047a57610479610220565b5b6104a9565b61048c848484600161038d565b925090508184048111156104a3576104a2610220565b5b81810290505b9392505050565b5f6104ba82610158565b91506104c583610158565b92506104f27fffffffffffffffffffffffffffffffffffffffffffffffffffffffffffffffff84846103df565b90509291505056fea2646970667358221220b5b586aed514c45fef678a307892c0fc7999edab60db66d10c856c75b626b48764736f6c63430008220033",
			"opcodes": "PUSH1 0x80 PUSH1 0x40 MSTORE CALLVALUE DUP1 ISZERO PUSH1 0xE JUMPI PUSH0 PUSH0 REVERT JUMPDEST POP PUSH2 0x530 DUP1 PUSH2 0x1C PUSH0 CODECOPY PUSH0 RETURN INVALID PUSH1 0x80 PUSH1 0x40 MSTORE CALLVALUE DUP1 ISZERO PUSH2 0xF JUMPI PUSH0 PUSH0 REVERT JUMPDEST POP PUSH1 0x4 CALLDATASIZE LT PUSH2 0x34 JUMPI PUSH0 CALLDATALOAD PUSH1 0xE0 SHR DUP1 PUSH4 0x980A67FD EQ PUSH2 0x38 JUMPI DUP1 PUSH4 0xE1CE4D3F EQ PUSH2 0x5B JUMPI JUMPDEST PUSH0 PUSH0 REVERT JUMPDEST PUSH2 0x40 PUSH2 0x7D JUMP JUMPDEST PUSH1 0x40 MLOAD PUSH2 0x52 SWAP7 SWAP6 SWAP5 SWAP4 SWAP3 SWAP2 SWAP1 PUSH2 0x170 JUMP JUMPDEST PUSH1 0x40 MLOAD DUP1 SWAP2 SUB SWAP1 RETURN JUMPDEST PUSH2 0x63 PUSH2 0xEB JUMP JUMPDEST PUSH1 0x40 MLOAD PUSH2 0x74 SWAP6 SWAP5 SWAP4 SWAP3 SWAP2 SWAP1 PUSH2 0x1CF JUMP JUMPDEST PUSH1 0x40 MLOAD DUP1 SWAP2 SUB SWAP1 RETURN JUMPDEST PUSH0 PUSH0 PUSH0 PUSH0 PUSH0 PUSH0 PUSH0 PUSH1 0xA SWAP1 POP PUSH0 PUSH1 0x3 SWAP1 POP DUP1 DUP3 PUSH2 0x99 SWAP2 SWAP1 PUSH2 0x24D JUMP JUMPDEST DUP2 DUP4 PUSH2 0xA5 SWAP2 SWAP1 PUSH2 0x280 JUMP JUMPDEST DUP3 DUP5 PUSH2 0xB1 SWAP2 SWAP1 PUSH2 0x2B3 JUMP JUMPDEST DUP4 DUP6 PUSH2 0xBD SWAP2 SWAP1 PUSH2 0x321 JUMP JUMPDEST DUP5 DUP7 PUSH2 0xC9 SWAP2 SWAP1 PUSH2 0x351 JUMP JUMPDEST DUP6 DUP8 PUSH2 0xD5 SWAP2 SWAP1 PUSH2 0x4B0 JUMP JUMPDEST SWAP8 POP SWAP8 POP SWAP8 POP SWAP8 POP SWAP8 POP SWAP8 POP POP POP SWAP1 SWAP2 SWAP3 SWAP4 SWAP5 SWAP6 JUMP JUMPDEST PUSH0 PUSH0 PUSH0 PUSH0 PUSH0 PUSH0 PUSH1 0x14 SWAP1 POP PUSH0 PUSH1 0x6 SWAP1 POP DUP1 DUP3 PUSH2 0x106 SWAP2 SWAP1 PUSH2 0x24D JUMP JUMPDEST SWAP2 POP DUP2 DUP2 DUP4 PUSH2 0x115 SWAP2 SWAP1 PUSH2 0x280 JUMP JUMPDEST SWAP3 POP DUP3 DUP3 DUP5 PUSH2 0x124 SWAP2 SWAP1 PUSH2 0x2B3 JUMP JUMPDEST SWAP4 POP DUP4 DUP4 DUP6 PUSH2 0x133 SWAP2 SWAP1 PUSH2 0x321 JUMP JUMPDEST SWAP5 POP DUP5 DUP5 DUP7 PUSH2 0x142 SWAP2 SWAP1 PUSH2 0x351 JUMP JUMPDEST SWAP6 POP DUP6 SWAP7 POP SWAP7 POP SWAP7 POP SWAP7 POP SWAP7 POP POP POP SWAP1 SWAP2 SWAP3 SWAP4 SWAP5 JUMP JUMPDEST PUSH0 DUP2 SWAP1 POP SWAP2 SWAP1 POP JUMP JUMPDEST PUSH2 0x16A DUP2 PUSH2 0x158 JUMP JUMPDEST DUP3 MSTORE POP POP JUMP JUMPDEST PUSH0 PUSH1 0xC0 DUP3 ADD SWAP1 POP PUSH2 0x183 PUSH0 DUP4 ADD DUP10 PUSH2 0x161 JUMP JUMPDEST PUSH2 0x190 PUSH1 0x20 DUP4 ADD DUP9 PUSH2 0x161 JUMP JUMPDEST PUSH2 0x19D PUSH1 0x40 DUP4 ADD DUP8 PUSH2 0x161 JUMP JUMPDEST PUSH2 0x1AA PUSH1 0x60 DUP4 ADD DUP7 PUSH2 0x161 JUMP JUMPDEST PUSH2 0x1B7 PUSH1 0x80 DUP4 ADD DUP6 PUSH2 0x161 JUMP JUMPDEST PUSH2 0x1C4 PUSH1 0xA0 DUP4 ADD DUP5 PUSH2 0x161 JUMP JUMPDEST SWAP8 SWAP7 POP POP POP POP POP POP POP JUMP JUMPDEST PUSH0 PUSH1 0xA0 DUP3 ADD SWAP1 POP PUSH2 0x1E2 PUSH0 DUP4 ADD DUP9 PUSH2 0x161 JUMP JUMPDEST PUSH2 0x1EF PUSH1 0x20 DUP4 ADD DUP8 PUSH2 0x161 JUMP JUMPDEST PUSH2 0x1FC PUSH1 0x40 DUP4 ADD DUP7 PUSH2 0x161 JUMP JUMPDEST PUSH2 0x209 PUSH1 0x60 DUP4 ADD DUP6 PUSH2 0x161 JUMP JUMPDEST PUSH2 0x216 PUSH1 0x80 DUP4 ADD DUP5 PUSH2 0x161 JUMP JUMPDEST SWAP7 SWAP6 POP POP POP POP POP POP JUMP JUMPDEST PUSH32 0x4E487B7100000000000000000000000000000000000000000000000000000000 PUSH0 MSTORE PUSH1 0x11 PUSH1 0x4 MSTORE PUSH1 0x24 PUSH0 REVERT JUMPDEST PUSH0 PUSH2 0x257 DUP3 PUSH2 0x158 JUMP JUMPDEST SWAP2 POP PUSH2 0x262 DUP4 PUSH2 0x158 JUMP JUMPDEST SWAP3 POP DUP3 DUP3 ADD SWAP1 POP DUP1 DUP3 GT ISZERO PUSH2 0x27A JUMPI PUSH2 0x279 PUSH2 0x220 JUMP JUMPDEST JUMPDEST SWAP3 SWAP2 POP POP JUMP JUMPDEST PUSH0 PUSH2 0x28A DUP3 PUSH2 0x158 JUMP JUMPDEST SWAP2 POP PUSH2 0x295 DUP4 PUSH2 0x158 JUMP JUMPDEST SWAP3 POP DUP3 DUP3 SUB SWAP1 POP DUP2 DUP2 GT ISZERO PUSH2 0x2AD JUMPI PUSH2 0x2AC PUSH2 0x220 JUMP JUMPDEST JUMPDEST SWAP3 SWAP2 POP POP JUMP JUMPDEST PUSH0 PUSH2 0x2BD DUP3 PUSH2 0x158 JUMP JUMPDEST SWAP2 POP PUSH2 0x2C8 DUP4 PUSH2 0x158 JUMP JUMPDEST SWAP3 POP DUP3 DUP3 MUL PUSH2 0x2D6 DUP2 PUSH2 0x158 JUMP JUMPDEST SWAP2 POP DUP3 DUP3 DIV DUP5 EQ DUP4 ISZERO OR PUSH2 0x2ED JUMPI PUSH2 0x2EC PUSH2 0x220 JUMP JUMPDEST JUMPDEST POP SWAP3 SWAP2 POP POP JUMP JUMPDEST PUSH32 0x4E487B7100000000000000000000000000000000000000000000000000000000 PUSH0 MSTORE PUSH1 0x12 PUSH1 0x4 MSTORE PUSH1 0x24 PUSH0 REVERT JUMPDEST PUSH0 PUSH2 0x32B DUP3 PUSH2 0x158 JUMP JUMPDEST SWAP2 POP PUSH2 0x336 DUP4 PUSH2 0x158 JUMP JUMPDEST SWAP3 POP DUP3 PUSH2 0x346 JUMPI PUSH2 0x345 PUSH2 0x2F4 JUMP JUMPDEST JUMPDEST DUP3 DUP3 DIV SWAP1 POP SWAP3 SWAP2 POP POP JUMP JUMPDEST PUSH0 PUSH2 0x35B DUP3 PUSH2 0x158 JUMP JUMPDEST SWAP2 POP PUSH2 0x366 DUP4 PUSH2 0x158 JUMP JUMPDEST SWAP3 POP DUP3 PUSH2 0x376 JUMPI PUSH2 0x375 PUSH2 0x2F4 JUMP JUMPDEST JUMPDEST DUP3 DUP3 MOD SWAP1 POP SWAP3 SWAP2 POP POP JUMP JUMPDEST PUSH0 DUP2 PUSH1 0x1 SHR SWAP1 POP SWAP2 SWAP1 POP JUMP JUMPDEST PUSH0 PUSH0 DUP3 SWAP2 POP DUP4 SWAP1 POP JUMPDEST PUSH1 0x1 DUP6 GT ISZERO PUSH2 0x3D6 JUMPI DUP1 DUP7 DIV DUP2 GT ISZERO PUSH2 0x3B2 JUMPI PUSH2 0x3B1 PUSH2 0x220 JUMP JUMPDEST JUMPDEST PUSH1 0x1 DUP6 AND ISZERO PUSH2 0x3C1 JUMPI DUP1 DUP3 MUL SWAP2 POP JUMPDEST DUP1 DUP2 MUL SWAP1 POP PUSH2 0x3CF DUP6 PUSH2 0x381 JUMP JUMPDEST SWAP5 POP PUSH2 0x396 JUMP JUMPDEST SWAP5 POP SWAP5 SWAP3 POP POP POP JUMP JUMPDEST PUSH0 DUP3 PUSH2 0x3EE JUMPI PUSH1 0x1 SWAP1 POP PUSH2 0x4A9 JUMP JUMPDEST DUP2 PUSH2 0x3FB JUMPI PUSH0 SWAP1 POP PUSH2 0x4A9 JUMP JUMPDEST DUP2 PUSH1 0x1 DUP2 EQ PUSH2 0x411 JUMPI PUSH1 0x2 DUP2 EQ PUSH2 0x41B JUMPI PUSH2 0x44A JUMP JUMPDEST PUSH1 0x1 SWAP2 POP POP PUSH2 0x4A9 JUMP JUMPDEST PUSH1 0xFF DUP5 GT ISZERO PUSH2 0x42D JUMPI PUSH2 0x42C PUSH2 0x220 JUMP JUMPDEST JUMPDEST DUP4 PUSH1 0x2 EXP SWAP2 POP DUP5 DUP3 GT ISZERO PUSH2 0x444 JUMPI PUSH2 0x443 PUSH2 0x220 JUMP JUMPDEST JUMPDEST POP PUSH2 0x4A9 JUMP JUMPDEST POP PUSH1 0x20 DUP4 LT PUSH2 0x133 DUP4 LT AND PUSH1 0x4E DUP5 LT PUSH1 0xB DUP5 LT AND OR ISZERO PUSH2 0x47F JUMPI DUP3 DUP3 EXP SWAP1 POP DUP4 DUP2 GT ISZERO PUSH2 0x47A JUMPI PUSH2 0x479 PUSH2 0x220 JUMP JUMPDEST JUMPDEST PUSH2 0x4A9 JUMP JUMPDEST PUSH2 0x48C DUP5 DUP5 DUP5 PUSH1 0x1 PUSH2 0x38D JUMP JUMPDEST SWAP3 POP SWAP1 POP DUP2 DUP5 DIV DUP2 GT ISZERO PUSH2 0x4A3 JUMPI PUSH2 0x4A2 PUSH2 0x220 JUMP JUMPDEST JUMPDEST DUP2 DUP2 MUL SWAP1 POP JUMPDEST SWAP4 SWAP3 POP POP POP JUMP JUMPDEST PUSH0 PUSH2 0x4BA DUP3 PUSH2 0x158 JUMP JUMPDEST SWAP2 POP PUSH2 0x4C5 DUP4 PUSH2 0x158 JUMP JUMPDEST SWAP3 POP PUSH2 0x4F2 PUSH32 0xFFFFFFFFFFFFFFFFFFFFFFFFFFFFFFFFFFFFFFFFFFFFFFFFFFFFFFFFFFFFFFFF DUP5 DUP5 PUSH2 0x3DF JUMP JUMPDEST SWAP1 POP SWAP3 SWAP2 POP POP JUMP INVALID LOG2 PUSH5 0x6970667358 0x22 SLT KECCAK256 0xB5 0xB5 DUP7 0xAE 0xD5 EQ 0xC4 PUSH0 0xEF PUSH8 0x8A307892C0FC7999 0xED 0xAB PUSH1 0xDB PUSH7 0xD10C856C75B626 0xB4 DUP8 PUSH5 0x736F6C6343 STOP ADDMOD 0x22 STOP CALLER "
		},
		"gasEstimates": {
			"creation": {
				"codeDepositCost": "265600",
				"executionCost": "304",
				"totalCost": "265904"
			},
			"external": {
				"arithmetic()": "infinite",
				"compoundAssignment()": "infinite"
			}
		},
		"methodIdentifiers": {
			"arithmetic()": "980a67fd",
			"compoundAssignment()": "e1ce4d3f"
		}
	},
	"abi": [
		{
			"inputs": [],
			"name": "arithmetic",
			"outputs": [
				{
					"internalType": "uint256",
					"name": "",
					"type": "uint256"
				},
				{
					"internalType": "uint256",
					"name": "",
					"type": "uint256"
				},
				{
					"internalType": "uint256",
					"name": "",
					"type": "uint256"
				},
				{
					"internalType": "uint256",
					"name": "",
					"type": "uint256"
				},
				{
					"internalType": "uint256",
					"name": "",
					"type": "uint256"
				},
				{
					"internalType": "uint256",
					"name": "",
					"type": "uint256"
				}
			],
			"stateMutability": "pure",
			"type": "function"
		},
		{
			"inputs": [],
			"name": "compoundAssignment",
			"outputs": [
				{
					"internalType": "uint256",
					"name": "",
					"type": "uint256"
				},
				{
					"internalType": "uint256",
					"name": "",
					"type": "uint256"
				},
				{
					"internalType": "uint256",
					"name": "",
					"type": "uint256"
				},
				{
					"internalType": "uint256",
					"name": "",
					"type": "uint256"
				},
				{
					"internalType": "uint256",
					"name": "",
					"type": "uint256"
				}
			],
			"stateMutability": "pure",
			"type": "function"
		}
	]
}