{
	"data": {
		"bytecode": {
			"linkReferences": {},
			"object": "6080604052348015600e575f5ffd5b506102d58061001c5f395ff3fe608060405234801561000f575f5ffd5b506004361061004a575f3560e01c80631e8eb1d71461004e5780635b17008c1461007e578063856b16a4146100ae578063c8aa6c90146100d1575b5f5ffd5b610068600480360381019061006391906101a7565b610101565b60405161007591906101f4565b60405180910390f35b610098600480360381019061009391906101a7565b610111565b6040516100a59190610227565b60405180910390f35b6100b6610124565b6040516100c896959493929190610240565b60405180910390f35b6100eb60048036038101906100e691906101a7565b61015f565b6040516100f891906101f4565b60405180910390f35b5f816001901b8317905092915050565b5f5f826001901b84161415905092915050565b5f5f5f5f5f5f5f600590505f600390508082168183178284188419600186901b600187901c9750975097509750975097505050909192939495565b5f816001901b198316905092915050565b5f5ffd5b5f819050919050565b61018681610174565b8114610190575f5ffd5b50565b5f813590506101a18161017d565b92915050565b5f5f604083850312156101bd576101bc610170565b5b5f6101ca85828601610193565b92505060206101db85828601610193565b9150509250929050565b6101ee81610174565b82525050565b5f6020820190506102075f8301846101e5565b92915050565b5f8115159050919050565b6102218161020d565b82525050565b5f60208201905061023a5f830184610218565b92915050565b5f60c0820190506102535f8301896101e5565b61026060208301886101e5565b61026d60408301876101e5565b61027a60608301866101e5565b61028760808301856101e5565b61029460a08301846101e5565b97965050505050505056fea2646970667358221220eedc1e2ce1be2ee325b1594c0e44bc62cb0aedf358e5165b3bc7116396e83c4d64736f6c63430008220033",
			"opcodes": "PUSH1 0x80 PUSH1 0x40 MSTORE CALLVALUE DUP1 ISZERO PUSH1 0xE JUMPI PUSH0 PUSH0 REVERT JUMPDEST POP PUSH2 0x2D5 DUP1 PUSH2 0x1C PUSH0 CODECOPY PUSH0 RETURN INVALID PUSH1 0x80 PUSH1 0x40 MSTORE CALLVALUE DUP1 ISZERO PUSH2 0xF JUMPI PUSH0 PUSH0 REVERT JUMPDEST POP PUSH1 0x4 CALLDATASIZE LT PUSH2 0x4A JUMPI PUSH0 CALLDATALOAD PUSH1 0xE0 SHR DUP1 PUSH4 0x1E8EB1D7 EQ PUSH2 0x4E JUMPI DUP1 PUSH4 0x5B17008C EQ PUSH2 0x7E JUMPI DUP1 PUSH4 0x856B16A4 EQ PUSH2 0xAE JUMPI DUP1 PUSH4 0xC8AA6C90 EQ PUSH2 0xD1 JUMPI JUMPDEST PUSH0 PUSH0 REVERT JUMPDEST PUSH2 0x68 PUSH1 0x4 DUP1 CALLDATASIZE SUB DUP2 ADD SWAP1 PUSH2 0x63 SWAP2 SWAP1 PUSH2 0x1A7 JUMP JUMPDEST PUSH2 0x101 JUMP JUMPDEST PUSH1 0x40 MLOAD PUSH2 0x75 SWAP2 SWAP1 PUSH2 0x1F4 JUMP JUMPDEST PUSH1 0x40 MLOAD DUP1 SWAP2 SUB SWAP1 RETURN JUMPDEST PUSH2 0x98 PUSH1 0x4 DUP1 CALLDATASIZE SUB DUP2 ADD SWAP1 PUSH2 0x93 SWAP2 SWAP1 PUSH2 0x1A7 JUMP JUMPDEST PUSH2 0x111 JUMP JUMPDEST PUSH1 0x40 MLOAD PUSH2 0xA5 SWAP2 SWAP1 PUSH2 0x227 JUMP JUMPDEST PUSH1 0x40 MLOAD DUP1 SWAP2 SUB SWAP1 RETURN JUMPDEST PUSH2 0xB6 PUSH2 0x124 JUMP JUMPDEST PUSH1 0x40 MLOAD PUSH2 0xC8 SWAP7 SWAP6 SWAP5 SWAP4 SWAP3 SWAP2 SWAP1 PUSH2 0x240 JUMP JUMPDEST PUSH1 0x40 MLOAD DUP1 SWAP2 SUB SWAP1 RETURN JUMPDEST PUSH2 0xEB PUSH1 0x4 DUP1 CALLDATASIZE SUB DUP2 ADD SWAP1 PUSH2 0xE6 SWAP2 SWAP1 PUSH2 0x1A7 JUMP JUMPDEST PUSH2 0x15F JUMP JUMPDEST PUSH1 0x40 MLOAD PUSH2 0xF8 SWAP2 SWAP1 PUSH2 0x1F4 JUMP JUMPDEST PUSH1 0x40 MLOAD DUP1 SWAP2 SUB SWAP1 RETURN JUMPDEST PUSH0 DUP2 PUSH1 0x1 SWAP1 SHL DUP4 OR SWAP1 POP SWAP3 SWAP2 POP POP JUMP JUMPDEST PUSH0 PUSH0 DUP3 PUSH1 0x1 SWAP1 SHL DUP5 AND EQ ISZERO SWAP1 POP SWAP3 SWAP2 POP POP JUMP JUMPDEST PUSH0 PUSH0 PUSH0 PUSH0 PUSH0 PUSH0 PUSH0 PUSH1 0x5 SWAP1 POP PUSH0 PUSH1 0x3 SWAP1 POP DUP1 DUP3 AND DUP2 DUP4 OR DUP3 DUP5 XOR DUP5 NOT PUSH1 0x1 DUP7 SWAP1 SHL PUSH1 0x1 DUP8 SWAP1 SHR SWAP8 POP SWAP8 POP SWAP8 POP SWAP8 POP SWAP8 POP SWAP8 POP POP POP SWAP1 SWAP2 SWAP3 SWAP4 SWAP5 SWAP6 JUMP JUMPDEST PUSH0 DUP2 PUSH1 0x1 SWAP1 SHL NOT DUP4 AND SWAP1 POP SWAP3 SWAP2 POP POP JUMP JUMPDEST PUSH0 PUSH0 REVERT JUMPDEST PUSH0 DUP2 SWAP1 POP SWAP2 SWAP1 POP JUMP JUMPDEST PUSH2 0x186 DUP2 PUSH2 0x174 JUMP JUMPDEST DUP2 EQ PUSH2 0x190 JUMPI PUSH0 PUSH0 REVERT JUMPDEST POP JUMP JUMPDEST PUSH0 DUP2 CALLDATALOAD SWAP1 POP PUSH2 0x1A1 DUP2 PUSH2 0x17D JUMP JUMPDEST SWAP3 SWAP2 POP POP JUMP JUMPDEST PUSH0 PUSH0 PUSH1 0x40 DUP4 DUP6 SUB SLT ISZERO PUSH2 0x1BD JUMPI PUSH2 0x1BC PUSH2 0x170 JUMP JUMPDEST JUMPDEST PUSH0 PUSH2 0x1CA DUP6 DUP3 DUP7 ADD PUSH2 0x193 JUMP JUMPDEST SWAP3 POP POP PUSH1 0x20 PUSH2 0x1DB DUP6 DUP3 DUP7 ADD PUSH2 0x193 JUMP JUMPDEST SWAP2 POP POP SWAP3 POP SWAP3 SWAP1 POP JUMP JUMPDEST PUSH2 0x1EE DUP2 PUSH2 0x174 JUMP JUMPDEST DUP3 MSTORE POP POP JUMP JUMPDEST PUSH0 PUSH1 0x20 DUP3 ADD SWAP1 POP PUSH2 0x207 PUSH0 DUP4 ADD DUP5 PUSH2 0x1E5 JUMP JUMPDEST SWAP3 SWAP2 POP POP JUMP JUMPDEST PUSH0 DUP2 ISZERO ISZERO SWAP1 POP SWAP2 SWAP1 POP JUMP JUMPDEST PUSH2 0x221 DUP2 PUSH2 0x20D JUMP JUMPDEST DUP3 MSTORE POP POP JUMP JUMPDEST PUSH0 PUSH1 0x20 DUP3 ADD SWAP1 POP PUSH2 0x23A PUSH0 DUP4 ADD DUP5 PUSH2 0x218 JUMP JUMPDEST SWAP3 SWAP2 POP POP JUMP JUMPDEST PUSH0 PUSH1 0xC0 DUP3 ADD SWAP1 POP PUSH2 0x253 PUSH0 DUP4 ADD DUP10 PUSH2 0x1E5 JUMP JUMPDEST PUSH2 0x260 PUSH1 0x20 DUP4 ADD DUP9 PUSH2 0x1E5 JUMP JUMPDEST PUSH2 0x26D PUSH1 0x40 DUP4 ADD DUP8 PUSH2 0x1E5 JUMP JUMPDEST PUSH2 0x27A PUSH1 0x60 DUP4 ADD DUP7 PUSH2 0x1E5 JUMP JUMPDEST PUSH2 0x287 PUSH1 0x80 DUP4 ADD DUP6 PUSH2 0x1E5 JUMP JUMPDEST PUSH2 0x294 PUSH1 0xA0 DUP4 ADD DUP5 PUSH2 0x1E5 JUMP JUMPDEST SWAP8 SWAP7 POP POP POP POP POP POP POP JUMP INVALID LOG2 PUSH5 0x6970667358 0x22 SLT KECCAK256 RETURNCONTRACT 0xDC CLZ 0x2C RJUMPI 0xBE2E CALLF 0x25B1 MSIZE 0x4C 0xE PREVRANDAO 0xBC PUSH3 0xCB0AED RETURN PC JUMPF 0x165B EXTCODESIZE 0xC7 GT PUSH4 0x96E83C4D PUSH5 0x736F6C6343 STOP ADDMOD 0x22 STOP CALLER "
		},
		"gasEstimates": {
			"creation": {
				"codeDepositCost": "145000",
				"executionCost": "188",
				"totalCost": "145188"
			},
			"external": {
				"bitwise()": "infinite",
				"checkBit(uint256,uint256)": "infinite",
				"clearBit(uint256,uint256)": "infinite",
				"setBit(uint256,uint256)": "infinite"
			}
		},
		"methodIdentifiers": {
			"bitwise()": "856b16a4",
			"checkBit(uint256,uint256)": "5b17008c",
			"clearBit(uint256,uint256)": "c8aa6c90",
			"setBit(uint256,uint256)": "1e8eb1d7"
		}
	},
	"abi": [
		{
			"inputs": [],
			"name": "bitwise",
			"outputs": [
				{
					"internalType": "uint256",
					"name": "",
					"type": "uint256"
				},
				{
					"internalType": "uint256",
					"name": "",
					"type": "uint256"
				},
				{
					"internalType": "uint256",
					"name": "",
					"type": "uint256"
				},
				{
					"internalType": "uint256",
					"name": "",
					"type": "uint256"
				},
				{
					"internalType": "uint256",
					"name": "",
					"type": "uint256"
				},
				{
					"internalType": "uint256",
					"name": "",
					"type": "uint256"
				}
			],
			"stateMutability": "pure",
			"type": "function"
		},
		{
			"inputs": [
				{
					"internalType": "uint256",
					"name": "value",
					"type": "uint256"
				},
				{
					"internalType": "uint256",
					"name": "position",
					"type": "uint256"
				}
			],
			"name": "checkBit",
			"outputs": [
				{
					"internalType": "bool",
					"name": "",
					"type": "bool"
				}
			],
			"stateMutability": "pure",
			"type": "function"
		},
		{
			"inputs": [
				{
					"internalType": "uint256",
					"name": "value",
					"type": "uint256"
				},
				{
					"internalType": "uint256",
					"name": "position",
					"type": "uint256"
				}
			],
			"name": "clearBit",
			"outputs": [
				{
					"internalType": "uint256",
					"name": "",
					"type": "uint256"
				}
			],
			"stateMutability": "pure",
			"type": "function"
		},
		{
			"inputs": [
				{
					"internalType": "uint256",
					"name": "value",
					"type": "uint256"
				},
				{
					"internalType": "uint256",
					"name": "position",
					"type": "uint256"
				}
			],
			"name": "setBit",
			"outputs": [
				{
					"internalType": "uint256",
					"name": "",
					"type": "uint256"
				}
			],
			"stateMutability": "pure",
			"type": "function"
		}
	]
}