{
	"data": {
		"bytecode": {
			"linkReferences": {},
			"object": "6080604052348015600e575f5ffd5b506101208061001c5f395ff3fe6080604052348015600e575f5ffd5b50600436106026575f3560e01c80638c7bf1ca14602a575b5f5ffd5b60306048565b604051603f95949392919060a3565b60405180910390f35b5f5f5f5f5f5f600190505f5f9050811582801560615750815b838060695750825b8315158515151484151586151514159650965096509650965050509091929394565b5f8115159050919050565b609d81608b565b82525050565b5f60a08201905060b45f8301886096565b60bf60208301876096565b60ca60408301866096565b60d560608301856096565b60e060808301846096565b969550505050505056fea264697066735822122076809ac723218e256ee8001a9ea82fd737f3c6b877664d03ed4e5e55e69fbd9f64736f6c63430008220033",
			"opcodes": "PUSH1 0x80 PUSH1 0x40 MSTORE CALLVALUE DUP1 ISZERO PUSH1 0xE JUMPI PUSH0 PUSH0 REVERT JUMPDEST POP PUSH2 0x120 DUP1 PUSH2 0x1C PUSH0 CODECOPY PUSH0 RETURN INVALID PUSH1 0x80 PUSH1 0x40 MSTORE CALLVALUE DUP1 ISZERO PUSH1 0xE JUMPI PUSH0 PUSH0 REVERT JUMPDEST POP PUSH1 0x4 CALLDATASIZE LT PUSH1 0x26 JUMPI PUSH0 CALLDATALOAD PUSH1 0xE0 SHR DUP1 PUSH4 0x8C7BF1CA EQ PUSH1 0x2A JUMPI JUMPDEST PUSH0 PUSH0 REVERT JUMPDEST PUSH1 0x30 PUSH1 0x48 JUMP JUMPDEST PUSH1 0x40 MLOAD PUSH1 0x3F SWAP6 SWAP5 SWAP4 SWAP3 SWAP2 SWAP1 PUSH1 0xA3 JUMP JUMPDEST PUSH1 0x40 MLOAD DUP1 SWAP2 SUB SWAP1 RETURN JUMPDEST PUSH0 PUSH0 PUSH0 PUSH0 PUSH0 PUSH0 PUSH1 0x1 SWAP1 POP PUSH0 PUSH0 SWAP1 POP DUP2 ISZERO DUP3 DUP1 ISZERO PUSH1 0x61 JUMPI POP DUP2 JUMPDEST DUP4 DUP1 PUSH1 0x69 JUMPI POP DUP3 JUMPDEST DUP4 ISZERO ISZERO DUP6 ISZERO ISZERO EQ DUP5 ISZERO ISZERO DUP7 ISZERO ISZERO EQ ISZERO SWAP7 POP SWAP7 POP SWAP7 POP SWAP7 POP SWAP7 POP POP POP SWAP1 SWAP2 SWAP3 SWAP4 SWAP5 JUMP JUMPDEST PUSH0 DUP2 ISZERO ISZERO SWAP1 POP SWAP2 SWAP1 POP JUMP JUMPDEST PUSH1 0x9D DUP2 PUSH1 0x8B JUMP JUMPDEST DUP3 MSTORE POP POP JUMP JUMPDEST PUSH0 PUSH1 0xA0 DUP3 ADD SWAP1 POP PUSH1 0xB4 PUSH0 DUP4 ADD DUP9 PUSH1 0x96 JUMP JUMPDEST PUSH1 0xBF PUSH1 0x20 DUP4 ADD DUP8 PUSH1 0x96 JUMP JUMPDEST PUSH1 0xCA PUSH1 0x40 DUP4 ADD DUP7 PUSH1 0x96 JUMP JUMPDEST PUSH1 0xD5 PUSH1 0x60 DUP4 ADD DUP6 PUSH1 0x96 JUMP JUMPDEST PUSH1 0xE0 PUSH1 0x80 DUP4 ADD DUP5 PUSH1 0x96 JUMP JUMPDEST SWAP7 SWAP6 POP POP POP POP POP POP JUMP INVALID LOG2 PUSH5 0x6970667358 0x22 SLT KECCAK256 PUSH23 0x809AC723218E256EE8001A9EA82FD737F3C6B877664D03 0xED 0x4E MCOPY SSTORE DUPN 0x9F 0xBD SWAP16 PUSH5 0x736F6C6343 STOP ADDMOD 0x22 STOP CALLER "
		},
		"gasEstimates": {
			"creation": {
				"codeDepositCost": "57600",
				"executionCost": "103",
				"totalCost": "57703"
			},
			"external": {
				"logicOperators()": "infinite"
			}
		},
		"methodIdentifiers": {
			"logicOperators()": "8c7bf1ca"
		}
	},
	"abi": [
		{
			"inputs": [],
			"name": "logicOperators",
			"outputs": [
				{
					"internalType": "bool",
					"name": "",
					"type": "bool"
				},
				{
					"internalType": "bool",
					"name": "",
					"type": "bool"
				},
				{
					"internalType": "bool",
					"name": "",
					"type": "bool"
				},
				{
					"internalType": "bool",
					"name": "",
					"type": "bool"
				},
				{
					"internalType": "bool",
					"name": "",
					"type": "bool"
				}
			],
			"stateMutability": "pure",
			"type": "function"
		}
	]
}