{
	"data": {
		"bytecode": {
			"linkReferences": {},
			"object": "6080604052348015600e575f5ffd5b506101258061001c5f395ff3fe6080604052348015600e575f5ffd5b50600436106026575f3560e01c80633da0ac7914602a575b5f5ffd5b60306049565b604051604096959493929190609c565b60405180910390f35b5f5f5f5f5f5f5f600a90505f600590508082148183141582841183851084861015858711159750975097509750975097505050909192939495565b5f8115159050919050565b6096816084565b82525050565b5f60c08201905060ad5f830189608f565b60b86020830188608f565b60c36040830187608f565b60ce6060830186608f565b60d96080830185608f565b60e460a0830184608f565b97965050505050505056fea2646970667358221220a9b4051d0894ba300d73c72dad797682f4e99c55ea9cd04320baa0a82230c2c964736f6c63430008220033",
			"opcodes": "PUSH1 0x80 PUSH1 0x40 MSTORE CALLVALUE DUP1 ISZERO PUSH1 0xE JUMPI PUSH0 PUSH0 REVERT JUMPDEST POP PUSH2 0x125 DUP1 PUSH2 0x1C PUSH0 CODECOPY PUSH0 RETURN INVALID PUSH1 0x80 PUSH1 0x40 MSTORE CALLVALUE DUP1 ISZERO PUSH1 0xE JUMPI PUSH0 PUSH0 REVERT JUMPDEST POP PUSH1 0x4 CALLDATASIZE LT PUSH1 0x26 JUMPI PUSH0 CALLDATALOAD PUSH1 0xE0 SHR DUP1 PUSH4 0x3DA0AC79 EQ PUSH1 0x2A JUMPI JUMPDEST PUSH0 PUSH0 REVERT JUMPDEST PUSH1 0x30 PUSH1 0x49 JUMP JUMPDEST PUSH1 0x40 MLOAD PUSH1 0x40 SWAP7 SWAP6 SWAP5 SWAP4 SWAP3 SWAP2 SWAP1 PUSH1 0x9C JUMP JUMPDEST PUSH1 0x40 MLOAD DUP1 SWAP2 SUB SWAP1 RETURN JUMPDEST PUSH0 PUSH0 PUSH0 PUSH0 PUSH0 PUSH0 PUSH0 PUSH1 0xA SWAP1 POP PUSH0 PUSH1 0x5 SWAP1 POP DUP1 DUP3 EQ DUP2 DUP4 EQ ISZERO DUP3 DUP5 GT DUP4 DUP6 LT DUP5 DUP7 LT ISZERO DUP6 DUP8 GT ISZERO SWAP8 POP SWAP8 POP SWAP8 POP SWAP8 POP SWAP8 POP SWAP8 POP POP POP SWAP1 SWAP2 SWAP3 SWAP4 SWAP5 SWAP6 JUMP JUMPDEST PUSH0 DUP2 ISZERO ISZERO SWAP1 POP SWAP2 SWAP1 POP JUMP JUMPDEST PUSH1 0x96 DUP2 PUSH1 0x84 JUMP JUMPDEST DUP3 MSTORE POP POP JUMP JUMPDEST PUSH0 PUSH1 0xC0 DUP3 ADD SWAP1 POP PUSH1 0xAD PUSH0 DUP4 ADD DUP10 PUSH1 0x8F JUMP JUMPDEST PUSH1 0xB8 PUSH1 0x20 DUP4 ADD DUP9 PUSH1 0x8F JUMP JUMPDEST PUSH1 0xC3 PUSH1 0x40 DUP4 ADD DUP8 PUSH1 0x8F JUMP JUMPDEST PUSH1 0xCE PUSH1 0x60 DUP4 ADD DUP7 PUSH1 0x8F JUMP JUMPDEST PUSH1 0xD9 PUSH1 0x80 DUP4 ADD DUP6 PUSH1 0x8F JUMP JUMPDEST PUSH1 0xE4 PUSH1 0xA0 DUP4 ADD DUP5 PUSH1 0x8F JUMP JUMPDEST SWAP8 SWAP7 POP POP POP POP POP POP POP JUMP INVALID LOG2 PUSH5 0x6970667358 0x22 SLT KECCAK256 0xA9 0xB4 SDIV SAR ADDMOD SWAP5 0xBA ADDRESS 0xD PUSH20 0xC72DAD797682F4E99C55EA9CD04320BAA0A82230 0xC2 0xC9 PUSH5 0x736F6C6343 STOP ADDMOD 0x22 STOP CALLER "
		},
		"gasEstimates": {
			"creation": {
				"codeDepositCost": "58600",
				"executionCost": "109",
				"totalCost": "58709"
			},
			"external": {
				"compare()": "infinite"
			}
		},
		"methodIdentifiers": {
			"compare()": "3da0ac79"
		}
	},
	"abi": [
		{
			"inputs": [],
			"name": "compare",
			"outputs": [
				{
					"internalType": "bool",
					"name": "",
					"type": "bool"
				},
				{
					"internalType": "bool",
					"name": "",
					"type": "bool"
				},
				{
					"internalType": "bool",
					"name": "",
					"type": "bool"
				},
				{
					"internalType": "bool",
					"name": "",
					"type": "bool"
				},
				{
					"internalType": "bool",
					"name": "",
					"type": "bool"
				},
				{
					"internalType": "bool",
					"name": "",
					"type": "bool"
				}
			],
			"stateMutability": "pure",
			"type": "function"
		}
	]
}