{
	"data": {
		"bytecode": {
			"linkReferences": {},
			"object": "6080604052348015600e575f5ffd5b505f5f5f6101000a81548160ff02191690836003811115602f57602e6038565b5b02179055506065565b7f4e487b71000000000000000000000000000000000000000000000000000000005f52602160045260245ffd5b6101ff806100725f395ff3fe608060405234801561000f575f5ffd5b506004361061003f575f3560e01c80632e49d78b146100435780634e69d5601461005f578063ef8a92351461007d575b5f5ffd5b61005d60048036038101906100589190610112565b61009b565b005b6100676100c6565b60405161007491906101b0565b60405180910390f35b6100856100da565b60405161009291906101b0565b60405180910390f35b805f5f6101000a81548160ff021916908360038111156100be576100bd61013d565b5b021790555050565b5f5f5f9054906101000a900460ff16905090565b5f5f9054906101000a900460ff1681565b5f5ffd5b600481106100fb575f5ffd5b50565b5f8135905061010c816100ef565b92915050565b5f60208284031215610127576101266100eb565b5b5f610134848285016100fe565b91505092915050565b7f4e487b71000000000000000000000000000000000000000000000000000000005f52602160045260245ffd5b6004811061017b5761017a61013d565b5b50565b5f81905061018b8261016a565b919050565b5f61019a8261017e565b9050919050565b6101aa81610190565b82525050565b5f6020820190506101c35f8301846101a1565b9291505056fea264697066735822122006a90af8658196abec1cddf58ede1cf240204f3708c38660686328f8f784557964736f6c63430008220033",
			"opcodes": "PUSH1 0x80 PUSH1 0x40 MSTORE CALLVALUE DUP1 ISZERO PUSH1 0xE JUMPI PUSH0 PUSH0 REVERT JUMPDEST POP PUSH0 PUSH0 PUSH0 PUSH2 0x100 EXP DUP2 SLOAD DUP2 PUSH1 0xFF MUL NOT AND SWAP1 DUP4 PUSH1 0x3 DUP2 GT ISZERO PUSH1 0x2F JUMPI PUSH1 0x2E PUSH1 0x38 JUMP JUMPDEST JUMPDEST MUL OR SWAP1 SSTORE POP PUSH1 0x65 JUMP JUMPDEST PUSH32 0x4E487B7100000000000000000000000000000000000000000000000000000000 PUSH0 MSTORE PUSH1 0x21 PUSH1 0x4 MSTORE PUSH1 0x24 PUSH0 REVERT JUMPDEST PUSH2 0x1FF DUP1 PUSH2 0x72 PUSH0 CODECOPY PUSH0 RETURN INVALID PUSH1 0x80 PUSH1 0x40 MSTORE CALLVALUE DUP1 ISZERO PUSH2 0xF JUMPI PUSH0 PUSH0 REVERT JUMPDEST POP PUSH1 0x4 CALLDATASIZE LT PUSH2 0x3F JUMPI PUSH0 CALLDATALOAD PUSH1 0xE0 SHR DUP1 PUSH4 0x2E49D78B EQ PUSH2 0x43 JUMPI DUP1 PUSH4 0x4E69D560 EQ PUSH2 0x5F JUMPI DUP1 PUSH4 0xEF8A9235 EQ PUSH2 0x7D JUMPI JUMPDEST PUSH0 PUSH0 REVERT JUMPDEST PUSH2 0x5D PUSH1 0x4 DUP1 CALLDATASIZE SUB DUP2 ADD SWAP1 PUSH2 0x58 SWAP2 SWAP1 PUSH2 0x112 JUMP JUMPDEST PUSH2 0x9B JUMP JUMPDEST STOP JUMPDEST PUSH2 0x67 PUSH2 0xC6 JUMP JUMPDEST PUSH1 0x40 MLOAD PUSH2 0x74 SWAP2 SWAP1 PUSH2 0x1B0 JUMP JUMPDEST PUSH1 0x40 MLOAD DUP1 SWAP2 SUB SWAP1 RETURN JUMPDEST PUSH2 0x85 PUSH2 0xDA JUMP JUMPDEST PUSH1 0x40 MLOAD PUSH2 0x92 SWAP2 SWAP1 PUSH2 0x1B0 JUMP JUMPDEST PUSH1 0x40 MLOAD DUP1 SWAP2 SUB SWAP1 RETURN JUMPDEST DUP1 PUSH0 PUSH0 PUSH2 0x100 EXP DUP2 SLOAD DUP2 PUSH1 0xFF MUL NOT AND SWAP1 DUP4 PUSH1 0x3 DUP2 GT ISZERO PUSH2 0xBE JUMPI PUSH2 0xBD PUSH2 0x13D JUMP JUMPDEST JUMPDEST MUL OR SWAP1 SSTORE POP POP JUMP JUMPDEST PUSH0 PUSH0 PUSH0 SWAP1 SLOAD SWAP1 PUSH2 0x100 EXP SWAP1 DIV PUSH1 0xFF AND SWAP1 POP SWAP1 JUMP JUMPDEST PUSH0 PUSH0 SWAP1 SLOAD SWAP1 PUSH2 0x100 EXP SWAP1 DIV PUSH1 0xFF AND DUP2 JUMP JUMPDEST PUSH0 PUSH0 REVERT JUMPDEST PUSH1 0x4 DUP2 LT PUSH2 0xFB JUMPI PUSH0 PUSH0 REVERT JUMPDEST POP JUMP JUMPDEST PUSH0 DUP2 CALLDATALOAD SWAP1 POP PUSH2 0x10C DUP2 PUSH2 0xEF JUMP JUMPDEST SWAP3 SWAP2 POP POP JUMP JUMPDEST PUSH0 PUSH1 0x20 DUP3 DUP5 SUB SLT ISZERO PUSH2 0x127 JUMPI PUSH2 0x126 PUSH2 0xEB JUMP JUMPDEST JUMPDEST PUSH0 PUSH2 0x134 DUP5 DUP3 DUP6 ADD PUSH2 0xFE JUMP JUMPDEST SWAP2 POP POP SWAP3 SWAP2 POP POP JUMP JUMPDEST PUSH32 0x4E487B7100000000000000000000000000000000000000000000000000000000 PUSH0 MSTORE PUSH1 0x21 PUSH1 0x4 MSTORE PUSH1 0x24 PUSH0 REVERT JUMPDEST PUSH1 0x4 DUP2 LT PUSH2 0x17B JUMPI PUSH2 0x17A PUSH2 0x13D JUMP JUMPDEST JUMPDEST POP JUMP JUMPDEST PUSH0 DUP2 SWAP1 POP PUSH2 0x18B DUP3 PUSH2 0x16A JUMP JUMPDEST SWAP2 SWAP1 POP JUMP JUMPDEST PUSH0 PUSH2 0x19A DUP3 PUSH2 0x17E JUMP JUMPDEST SWAP1 POP SWAP2 SWAP1 POP JUMP JUMPDEST PUSH2 0x1AA DUP2 PUSH2 0x190 JUMP JUMPDEST DUP3 MSTORE POP POP JUMP JUMPDEST PUSH0 PUSH1 0x20 DUP3 ADD SWAP1 POP PUSH2 0x1C3 PUSH0 DUP4 ADD DUP5 PUSH2 0x1A1 JUMP JUMPDEST SWAP3 SWAP2 POP POP JUMP INVALID LOG2 PUSH5 0x6970667358 0x22 SLT KECCAK256 MOD 0xA9 EXP EXTCALL PUSH6 0x8196ABEC1CDD CREATE2 DUP15 0xDE SHR CALLCODE BLOCKHASH KECCAK256 0x4F CALLDATACOPY ADDMOD 0xC3 DUP7 PUSH1 0x68 PUSH4 0x28F8F784 SSTORE PUSH26 0x64736F6C63430008220033000000000000000000000000000000 "
		},
		"gasEstimates": {
			"creation": {
				"codeDepositCost": "102200",
				"executionCost": "24441",
				"totalCost": "126641"
			},
			"external": {
				"currentStatus()": "2575",
				"getStatus()": "2560",
				"setStatus(uint8)": "24622"
			}
		},
		"methodIdentifiers": {
			"currentStatus()": "ef8a9235",
			"getStatus()": "4e69d560",
			"setStatus(uint8)": "2e49d78b"
		}
	},
	"abi": [
		{
			"inputs": [],
			"stateMutability": "nonpayable",
			"type": "constructor"
		},
		{
			"inputs": [],
			"name": "currentStatus",
			"outputs": [
				{
					"internalType": "enum EnumExample.Status",
					"name": "",
					"type": "uint8"
				}
			],
			"stateMutability": "view",
			"type": "function"
		},
		{
			"inputs": [],
			"name": "getStatus",
			"outputs": [
				{
					"internalType": "enum EnumExample.Status",
					"name": "",
					"type": "uint8"
				}
			],
			"stateMutability": "view",
			"type": "function"
		},
		{
			"inputs": [
				{
					"internalType": "enum EnumExample.Status",
					"name": "s",
					"type": "uint8"
				}
			],
			"name": "setStatus",
			"outputs": [],
			"stateMutability": "nonpayable",
			"type": "function"
		}
	]
}