{
	"data": {
		"bytecode": {
			"linkReferences": {},
			"object": "6080604052600160f81b5f5f6101000a81548160ff021916908360f81c0217905550630123456760e01b5f60016101000a81548163ffffffff021916908360e01c02179055507f12345678901234567890123456789012345678901234567890123456789012345f1b6001553480156075575f5ffd5b5061030a806100835f395ff3fe608060405234801561000f575f5ffd5b5060043610610055575f3560e01c80631ddab666146100595780633db3fb0a146100775780634a90be5714610095578063ee495002146100b5578063f8aab238146100d3575b5f5ffd5b6100616100f1565b60405161006e91906101bd565b60405180910390f35b61007f61011b565b60405161008c9190610210565b60405180910390f35b61009d61012d565b6040516100ac93929190610241565b60405180910390f35b6100bd61016c565b6040516100ca91906101bd565b60405180910390f35b6100db61017d565b6040516100e8919061028e565b60405180910390f35b5f5f5f9054906101000a900460f81b5f60018110610112576101116102a7565b5b1a60f81b905090565b5f60019054906101000a900460e01b81565b5f5f5f5f5f9054906101000a90505060015f60019054906101000a905050600460208260ff1692508160ff1691508060ff169050925092509250909192565b5f5f9054906101000a900460f81b81565b60015481565b5f7fff0000000000000000000000000000000000000000000000000000000000000082169050919050565b6101b781610183565b82525050565b5f6020820190506101d05f8301846101ae565b92915050565b5f7fffffffff0000000000000000000000000000000000000000000000000000000082169050919050565b61020a816101d6565b82525050565b5f6020820190506102235f830184610201565b92915050565b5f819050919050565b61023b81610229565b82525050565b5f6060820190506102545f830186610232565b6102616020830185610232565b61026e6040830184610232565b949350505050565b5f819050919050565b61028881610276565b82525050565b5f6020820190506102a15f83018461027f565b92915050565b7f4e487b71000000000000000000000000000000000000000000000000000000005f52603260045260245ffdfea2646970667358221220d6551d25066f4476cedbe0ed7a68f03e1dec426b98a4170c48be1d7cd799644a64736f6c63430008220033",
			"opcodes": "PUSH1 0x80 PUSH1 0x40 MSTORE PUSH1 0x1 PUSH1 0xF8 SHL PUSH0 PUSH0 PUSH2 0x100 EXP DUP2 SLOAD DUP2 PUSH1 0xFF MUL NOT AND SWAP1 DUP4 PUSH1 0xF8 SHR MUL OR SWAP1 SSTORE POP PUSH4 0x1234567 PUSH1 0xE0 SHL PUSH0 PUSH1 0x1 PUSH2 0x100 EXP DUP2 SLOAD DUP2 PUSH4 0xFFFFFFFF MUL NOT AND SWAP1 DUP4 PUSH1 0xE0 SHR MUL OR SWAP1 SSTORE POP PUSH32 0x1234567890123456789012345678901234567890123456789012345678901234 PUSH0 SHL PUSH1 0x1 SSTORE CALLVALUE DUP1 ISZERO PUSH1 0x75 JUMPI PUSH0 PUSH0 REVERT JUMPDEST POP PUSH2 0x30A DUP1 PUSH2 0x83 PUSH0 CODECOPY PUSH0 RETURN INVALID PUSH1 0x80 PUSH1 0x40 MSTORE CALLVALUE DUP1 ISZERO PUSH2 0xF JUMPI PUSH0 PUSH0 REVERT JUMPDEST POP PUSH1 0x4 CALLDATASIZE LT PUSH2 0x55 JUMPI PUSH0 CALLDATALOAD PUSH1 0xE0 SHR DUP1 PUSH4 0x1DDAB666 EQ PUSH2 0x59 JUMPI DUP1 PUSH4 0x3DB3FB0A EQ PUSH2 0x77 JUMPI DUP1 PUSH4 0x4A90BE57 EQ PUSH2 0x95 JUMPI DUP1 PUSH4 0xEE495002 EQ PUSH2 0xB5 JUMPI DUP1 PUSH4 0xF8AAB238 EQ PUSH2 0xD3 JUMPI JUMPDEST PUSH0 PUSH0 REVERT JUMPDEST PUSH2 0x61 PUSH2 0xF1 JUMP JUMPDEST PUSH1 0x40 MLOAD PUSH2 0x6E SWAP2 SWAP1 PUSH2 0x1BD JUMP JUMPDEST PUSH1 0x40 MLOAD DUP1 SWAP2 SUB SWAP1 RETURN JUMPDEST PUSH2 0x7F PUSH2 0x11B JUMP JUMPDEST PUSH1 0x40 MLOAD PUSH2 0x8C SWAP2 SWAP1 PUSH2 0x210 JUMP JUMPDEST PUSH1 0x40 MLOAD DUP1 SWAP2 SUB SWAP1 RETURN JUMPDEST PUSH2 0x9D PUSH2 0x12D JUMP JUMPDEST PUSH1 0x40 MLOAD PUSH2 0xAC SWAP4 SWAP3 SWAP2 SWAP1 PUSH2 0x241 JUMP JUMPDEST PUSH1 0x40 MLOAD DUP1 SWAP2 SUB SWAP1 RETURN JUMPDEST PUSH2 0xBD PUSH2 0x16C JUMP JUMPDEST PUSH1 0x40 MLOAD PUSH2 0xCA SWAP2 SWAP1 PUSH2 0x1BD JUMP JUMPDEST PUSH1 0x40 MLOAD DUP1 SWAP2 SUB SWAP1 RETURN JUMPDEST PUSH2 0xDB PUSH2 0x17D JUMP JUMPDEST PUSH1 0x40 MLOAD PUSH2 0xE8 SWAP2 SWAP1 PUSH2 0x28E JUMP JUMPDEST PUSH1 0x40 MLOAD DUP1 SWAP2 SUB SWAP1 RETURN JUMPDEST PUSH0 PUSH0 PUSH0 SWAP1 SLOAD SWAP1 PUSH2 0x100 EXP SWAP1 DIV PUSH1 0xF8 SHL PUSH0 PUSH1 0x1 DUP2 LT PUSH2 0x112 JUMPI PUSH2 0x111 PUSH2 0x2A7 JUMP JUMPDEST JUMPDEST BYTE PUSH1 0xF8 SHL SWAP1 POP SWAP1 JUMP JUMPDEST PUSH0 PUSH1 0x1 SWAP1 SLOAD SWAP1 PUSH2 0x100 EXP SWAP1 DIV PUSH1 0xE0 SHL DUP2 JUMP JUMPDEST PUSH0 PUSH0 PUSH0 PUSH0 PUSH0 SWAP1 SLOAD SWAP1 PUSH2 0x100 EXP SWAP1 POP POP PUSH1 0x1 PUSH0 PUSH1 0x1 SWAP1 SLOAD SWAP1 PUSH2 0x100 EXP SWAP1 POP POP PUSH1 0x4 PUSH1 0x20 DUP3 PUSH1 0xFF AND SWAP3 POP DUP2 PUSH1 0xFF AND SWAP2 POP DUP1 PUSH1 0xFF AND SWAP1 POP SWAP3 POP SWAP3 POP SWAP3 POP SWAP1 SWAP2 SWAP3 JUMP JUMPDEST PUSH0 PUSH0 SWAP1 SLOAD SWAP1 PUSH2 0x100 EXP SWAP1 DIV PUSH1 0xF8 SHL DUP2 JUMP JUMPDEST PUSH1 0x1 SLOAD DUP2 JUMP JUMPDEST PUSH0 PUSH32 0xFF00000000000000000000000000000000000000000000000000000000000000 DUP3 AND SWAP1 POP SWAP2 SWAP1 POP JUMP JUMPDEST PUSH2 0x1B7 DUP2 PUSH2 0x183 JUMP JUMPDEST DUP3 MSTORE POP POP JUMP JUMPDEST PUSH0 PUSH1 0x20 DUP3 ADD SWAP1 POP PUSH2 0x1D0 PUSH0 DUP4 ADD DUP5 PUSH2 0x1AE JUMP JUMPDEST SWAP3 SWAP2 POP POP JUMP JUMPDEST PUSH0 PUSH32 0xFFFFFFFF00000000000000000000000000000000000000000000000000000000 DUP3 AND SWAP1 POP SWAP2 SWAP1 POP JUMP JUMPDEST PUSH2 0x20A DUP2 PUSH2 0x1D6 JUMP JUMPDEST DUP3 MSTORE POP POP JUMP JUMPDEST PUSH0 PUSH1 0x20 DUP3 ADD SWAP1 POP PUSH2 0x223 PUSH0 DUP4 ADD DUP5 PUSH2 0x201 JUMP JUMPDEST SWAP3 SWAP2 POP POP JUMP JUMPDEST PUSH0 DUP2 SWAP1 POP SWAP2 SWAP1 POP JUMP JUMPDEST PUSH2 0x23B DUP2 PUSH2 0x229 JUMP JUMPDEST DUP3 MSTORE POP POP JUMP JUMPDEST PUSH0 PUSH1 0x60 DUP3 ADD SWAP1 POP PUSH2 0x254 PUSH0 DUP4 ADD DUP7 PUSH2 0x232 JUMP JUMPDEST PUSH2 0x261 PUSH1 0x20 DUP4 ADD DUP6 PUSH2 0x232 JUMP JUMPDEST PUSH2 0x26E PUSH1 0x40 DUP4 ADD DUP5 PUSH2 0x232 JUMP JUMPDEST SWAP5 SWAP4 POP POP POP POP JUMP JUMPDEST PUSH0 DUP2 SWAP1 POP SWAP2 SWAP1 POP JUMP JUMPDEST PUSH2 0x288 DUP2 PUSH2 0x276 JUMP JUMPDEST DUP3 MSTORE POP POP JUMP JUMPDEST PUSH0 PUSH1 0x20 DUP3 ADD SWAP1 POP PUSH2 0x2A1 PUSH0 DUP4 ADD DUP5 PUSH2 0x27F JUMP JUMPDEST SWAP3 SWAP2 POP POP JUMP JUMPDEST PUSH32 0x4E487B7100000000000000000000000000000000000000000000000000000000 PUSH0 MSTORE PUSH1 0x32 PUSH1 0x4 MSTORE PUSH1 0x24 PUSH0 REVERT INVALID LOG2 PUSH5 0x6970667358 0x22 SLT KECCAK256 0xD6 SSTORE SAR 0x25 MOD PUSH16 0x4476CEDBE0ED7A68F03E1DEC426B98A4 OR 0xC BASEFEE 0xBE SAR PUSH29 0xD799644A64736F6C634300082200330000000000000000000000000000 "
		},
		"gasEstimates": {
			"creation": {
				"codeDepositCost": "155600",
				"executionCost": "70904",
				"totalCost": "226504"
			},
			"external": {
				"accessByte()": "2484",
				"b1()": "2509",
				"b32()": "2491",
				"b4()": "2516",
				"getLen()": "infinite"
			}
		},
		"methodIdentifiers": {
			"accessByte()": "1ddab666",
			"b1()": "ee495002",
			"b32()": "f8aab238",
			"b4()": "3db3fb0a",
			"getLen()": "4a90be57"
		}
	},
	"abi": [
		{
			"inputs": [],
			"name": "accessByte",
			"outputs": [
				{
					"internalType": "bytes1",
					"name": "",
					"type": "bytes1"
				}
			],
			"stateMutability": "view",
			"type": "function"
		},
		{
			"inputs": [],
			"name": "b1",
			"outputs": [
				{
					"internalType": "bytes1",
					"name": "",
					"type": "bytes1"
				}
			],
			"stateMutability": "view",
			"type": "function"
		},
		{
			"inputs": [],
			"name": "b32",
			"outputs": [
				{
					"internalType": "bytes32",
					"name": "",
					"type": "bytes32"
				}
			],
			"stateMutability": "view",
			"type": "function"
		},
		{
			"inputs": [],
			"name": "b4",
			"outputs": [
				{
					"internalType": "bytes4",
					"name": "",
					"type": "bytes4"
				}
			],
			"stateMutability": "view",
			"type": "function"
		},
		{
			"inputs": [],
			"name": "getLen",
			"outputs": [
				{
					"internalType": "uint256",
					"name": "",
					"type": "uint256"
				},
				{
					"internalType": "uint256",
					"name": "",
					"type": "uint256"
				},
				{
					"internalType": "uint256",
					"name": "",
					"type": "uint256"
				}
			],
			"stateMutability": "view",
			"type": "function"
		}
	]
}