{
	"data": {
		"bytecode": {
			"linkReferences": {},
			"object": "6080604052348015600e575f5ffd5b50600a5f5f600581106021576020608a565b5b018190555060145f6001600581106039576038608a565b5b0181905550601e5f6002600581106051576050608a565b5b018190555060285f6003600581106069576068608a565b5b018190555060325f6004600581106081576080608a565b5b018190555060b7565b7f4e487b71000000000000000000000000000000000000000000000000000000005f52603260045260245ffd5b61050c806100c45f395ff3fe608060405234801561000f575f5ffd5b5060043610610055575f3560e01c80633a7d22bc14610059578063620fe10014610089578063a16e7215146100a7578063b76b78fb146100d7578063d39fa233146100f5575b5f5ffd5b610073600480360381019061006e91906102af565b610125565b60405161008091906102e9565b60405180910390f35b610091610185565b60405161009e91906102e9565b60405180910390f35b6100c160048036038101906100bc9190610302565b61018d565b6040516100ce919061035a565b60405180910390f35b6100df6101f4565b6040516100ec9190610418565b60405180910390f35b61010f600480360381019061010a91906102af565b61023e565b60405161011c91906102e9565b60405180910390f35b5f60058210610169576040517f08c379a00000000000000000000000000000000000000000000000000000000081526004016101609061048b565b60405180910390fd5b5f826005811061017c5761017b6104a9565b5b01549050919050565b5f6005905090565b5f600583106101d1576040517f08c379a00000000000000000000000000000000000000000000000000000000081526004016101c89061048b565b60405180910390fd5b815f84600581106101e5576101e46104a9565b5b01819055506001905092915050565b6101fc610256565b5f600580602002604051908101604052809291908260058015610234576020028201915b815481526020019060010190808311610220575b5050505050905090565b5f816005811061024c575f80fd5b015f915090505481565b6040518060a00160405280600590602082028036833780820191505090505090565b5f5ffd5b5f819050919050565b61028e8161027c565b8114610298575f5ffd5b50565b5f813590506102a981610285565b92915050565b5f602082840312156102c4576102c3610278565b5b5f6102d18482850161029b565b91505092915050565b6102e38161027c565b82525050565b5f6020820190506102fc5f8301846102da565b92915050565b5f5f6040838503121561031857610317610278565b5b5f6103258582860161029b565b92505060206103368582860161029b565b9150509250929050565b5f8115159050919050565b61035481610340565b82525050565b5f60208201905061036d5f83018461034b565b92915050565b5f60059050919050565b5f81905092915050565b5f819050919050565b6103998161027c565b82525050565b5f6103aa8383610390565b60208301905092915050565b5f602082019050919050565b6103cb81610373565b6103d5818461037d565b92506103e082610387565b805f5b838110156104105781516103f7878261039f565b9650610402836103b6565b9250506001810190506103e3565b505050505050565b5f60a08201905061042b5f8301846103c2565b92915050565b5f82825260208201905092915050565b7fe695b0e7bb84e4b88be6a087e8b68ae7958c00000000000000000000000000005f82015250565b5f610475601283610431565b915061048082610441565b602082019050919050565b5f6020820190508181035f8301526104a281610469565b9050919050565b7f4e487b71000000000000000000000000000000000000000000000000000000005f52603260045260245ffdfea2646970667358221220423ceba17ca458de4f6cec2f040a4acfb0b3ff106632d502531f391e6c598a2b64736f6c63430008220033",
			"opcodes": "PUSH1 0x80 PUSH1 0x40 MSTORE CALLVALUE DUP1 ISZERO PUSH1 0xE JUMPI PUSH0 PUSH0 REVERT JUMPDEST POP PUSH1 0xA PUSH0 PUSH0 PUSH1 0x5 DUP2 LT PUSH1 0x21 JUMPI PUSH1 0x20 PUSH1 0x8A JUMP JUMPDEST JUMPDEST ADD DUP2 SWAP1 SSTORE POP PUSH1 0x14 PUSH0 PUSH1 0x1 PUSH1 0x5 DUP2 LT PUSH1 0x39 JUMPI PUSH1 0x38 PUSH1 0x8A JUMP JUMPDEST JUMPDEST ADD DUP2 SWAP1 SSTORE POP PUSH1 0x1E PUSH0 PUSH1 0x2 PUSH1 0x5 DUP2 LT PUSH1 0x51 JUMPI PUSH1 0x50 PUSH1 0x8A JUMP JUMPDEST JUMPDEST ADD DUP2 SWAP1 SSTORE POP PUSH1 0x28 PUSH0 PUSH1 0x3 PUSH1 0x5 DUP2 LT PUSH1 0x69 JUMPI PUSH1 0x68 PUSH1 0x8A JUMP JUMPDEST JUMPDEST ADD DUP2 SWAP1 SSTORE POP PUSH1 0x32 PUSH0 PUSH1 0x4 PUSH1 0x5 DUP2 LT PUSH1 0x81 JUMPI PUSH1 0x80 PUSH1 0x8A JUMP JUMPDEST JUMPDEST ADD DUP2 SWAP1 SSTORE POP PUSH1 0xB7 JUMP JUMPDEST PUSH32 0x4E487B7100000000000000000000000000000000000000000000000000000000 PUSH0 MSTORE PUSH1 0x32 PUSH1 0x4 MSTORE PUSH1 0x24 PUSH0 REVERT JUMPDEST PUSH2 0x50C DUP1 PUSH2 0xC4 PUSH0 CODECOPY PUSH0 RETURN INVALID PUSH1 0x80 PUSH1 0x40 MSTORE CALLVALUE DUP1 ISZERO PUSH2 0xF JUMPI PUSH0 PUSH0 REVERT JUMPDEST POP PUSH1 0x4 CALLDATASIZE LT PUSH2 0x55 JUMPI PUSH0 CALLDATALOAD PUSH1 0xE0 SHR DUP1 PUSH4 0x3A7D22BC EQ PUSH2 0x59 JUMPI DUP1 PUSH4 0x620FE100 EQ PUSH2 0x89 JUMPI DUP1 PUSH4 0xA16E7215 EQ PUSH2 0xA7 JUMPI DUP1 PUSH4 0xB76B78FB EQ PUSH2 0xD7 JUMPI DUP1 PUSH4 0xD39FA233 EQ PUSH2 0xF5 JUMPI JUMPDEST PUSH0 PUSH0 REVERT JUMPDEST PUSH2 0x73 PUSH1 0x4 DUP1 CALLDATASIZE SUB DUP2 ADD SWAP1 PUSH2 0x6E SWAP2 SWAP1 PUSH2 0x2AF JUMP JUMPDEST PUSH2 0x125 JUMP JUMPDEST PUSH1 0x40 MLOAD PUSH2 0x80 SWAP2 SWAP1 PUSH2 0x2E9 JUMP JUMPDEST PUSH1 0x40 MLOAD DUP1 SWAP2 SUB SWAP1 RETURN JUMPDEST PUSH2 0x91 PUSH2 0x185 JUMP JUMPDEST PUSH1 0x40 MLOAD PUSH2 0x9E SWAP2 SWAP1 PUSH2 0x2E9 JUMP JUMPDEST PUSH1 0x40 MLOAD DUP1 SWAP2 SUB SWAP1 RETURN JUMPDEST PUSH2 0xC1 PUSH1 0x4 DUP1 CALLDATASIZE SUB DUP2 ADD SWAP1 PUSH2 0xBC SWAP2 SWAP1 PUSH2 0x302 JUMP JUMPDEST PUSH2 0x18D JUMP JUMPDEST PUSH1 0x40 MLOAD PUSH2 0xCE SWAP2 SWAP1 PUSH2 0x35A JUMP JUMPDEST PUSH1 0x40 MLOAD DUP1 SWAP2 SUB SWAP1 RETURN JUMPDEST PUSH2 0xDF PUSH2 0x1F4 JUMP JUMPDEST PUSH1 0x40 MLOAD PUSH2 0xEC SWAP2 SWAP1 PUSH2 0x418 JUMP JUMPDEST PUSH1 0x40 MLOAD DUP1 SWAP2 SUB SWAP1 RETURN JUMPDEST PUSH2 0x10F PUSH1 0x4 DUP1 CALLDATASIZE SUB DUP2 ADD SWAP1 PUSH2 0x10A SWAP2 SWAP1 PUSH2 0x2AF JUMP JUMPDEST PUSH2 0x23E JUMP JUMPDEST PUSH1 0x40 MLOAD PUSH2 0x11C SWAP2 SWAP1 PUSH2 0x2E9 JUMP JUMPDEST PUSH1 0x40 MLOAD DUP1 SWAP2 SUB SWAP1 RETURN JUMPDEST PUSH0 PUSH1 0x5 DUP3 LT PUSH2 0x169 JUMPI PUSH1 0x40 MLOAD PUSH32 0x8C379A000000000000000000000000000000000000000000000000000000000 DUP2 MSTORE PUSH1 0x4 ADD PUSH2 0x160 SWAP1 PUSH2 0x48B JUMP JUMPDEST PUSH1 0x40 MLOAD DUP1 SWAP2 SUB SWAP1 REVERT JUMPDEST PUSH0 DUP3 PUSH1 0x5 DUP2 LT PUSH2 0x17C JUMPI PUSH2 0x17B PUSH2 0x4A9 JUMP JUMPDEST JUMPDEST ADD SLOAD SWAP1 POP SWAP2 SWAP1 POP JUMP JUMPDEST PUSH0 PUSH1 0x5 SWAP1 POP SWAP1 JUMP JUMPDEST PUSH0 PUSH1 0x5 DUP4 LT PUSH2 0x1D1 JUMPI PUSH1 0x40 MLOAD PUSH32 0x8C379A000000000000000000000000000000000000000000000000000000000 DUP2 MSTORE PUSH1 0x4 ADD PUSH2 0x1C8 SWAP1 PUSH2 0x48B JUMP JUMPDEST PUSH1 0x40 MLOAD DUP1 SWAP2 SUB SWAP1 REVERT JUMPDEST DUP2 PUSH0 DUP5 PUSH1 0x5 DUP2 LT PUSH2 0x1E5 JUMPI PUSH2 0x1E4 PUSH2 0x4A9 JUMP JUMPDEST JUMPDEST ADD DUP2 SWAP1 SSTORE POP PUSH1 0x1 SWAP1 POP SWAP3 SWAP2 POP POP JUMP JUMPDEST PUSH2 0x1FC PUSH2 0x256 JUMP JUMPDEST PUSH0 PUSH1 0x5 DUP1 PUSH1 0x20 MUL PUSH1 0x40 MLOAD SWAP1 DUP2 ADD PUSH1 0x40 MSTORE DUP1 SWAP3 SWAP2 SWAP1 DUP3 PUSH1 0x5 DUP1 ISZERO PUSH2 0x234 JUMPI PUSH1 0x20 MUL DUP3 ADD SWAP2 JUMPDEST DUP2 SLOAD DUP2 MSTORE PUSH1 0x20 ADD SWAP1 PUSH1 0x1 ADD SWAP1 DUP1 DUP4 GT PUSH2 0x220 JUMPI JUMPDEST POP POP POP POP POP SWAP1 POP SWAP1 JUMP JUMPDEST PUSH0 DUP2 PUSH1 0x5 DUP2 LT PUSH2 0x24C JUMPI PUSH0 DUP1 REVERT JUMPDEST ADD PUSH0 SWAP2 POP SWAP1 POP SLOAD DUP2 JUMP JUMPDEST PUSH1 0x40 MLOAD DUP1 PUSH1 0xA0 ADD PUSH1 0x40 MSTORE DUP1 PUSH1 0x5 SWAP1 PUSH1 0x20 DUP3 MUL DUP1 CALLDATASIZE DUP4 CALLDATACOPY DUP1 DUP3 ADD SWAP2 POP POP SWAP1 POP POP SWAP1 JUMP JUMPDEST PUSH0 PUSH0 REVERT JUMPDEST PUSH0 DUP2 SWAP1 POP SWAP2 SWAP1 POP JUMP JUMPDEST PUSH2 0x28E DUP2 PUSH2 0x27C JUMP JUMPDEST DUP2 EQ PUSH2 0x298 JUMPI PUSH0 PUSH0 REVERT JUMPDEST POP JUMP JUMPDEST PUSH0 DUP2 CALLDATALOAD SWAP1 POP PUSH2 0x2A9 DUP2 PUSH2 0x285 JUMP JUMPDEST SWAP3 SWAP2 POP POP JUMP JUMPDEST PUSH0 PUSH1 0x20 DUP3 DUP5 SUB SLT ISZERO PUSH2 0x2C4 JUMPI PUSH2 0x2C3 PUSH2 0x278 JUMP JUMPDEST JUMPDEST PUSH0 PUSH2 0x2D1 DUP5 DUP3 DUP6 ADD PUSH2 0x29B JUMP JUMPDEST SWAP2 POP POP SWAP3 SWAP2 POP POP JUMP JUMPDEST PUSH2 0x2E3 DUP2 PUSH2 0x27C JUMP JUMPDEST DUP3 MSTORE POP POP JUMP JUMPDEST PUSH0 PUSH1 0x20 DUP3 ADD SWAP1 POP PUSH2 0x2FC PUSH0 DUP4 ADD DUP5 PUSH2 0x2DA JUMP JUMPDEST SWAP3 SWAP2 POP POP JUMP JUMPDEST PUSH0 PUSH0 PUSH1 0x40 DUP4 DUP6 SUB SLT ISZERO PUSH2 0x318 JUMPI PUSH2 0x317 PUSH2 0x278 JUMP JUMPDEST JUMPDEST PUSH0 PUSH2 0x325 DUP6 DUP3 DUP7 ADD PUSH2 0x29B JUMP JUMPDEST SWAP3 POP POP PUSH1 0x20 PUSH2 0x336 DUP6 DUP3 DUP7 ADD PUSH2 0x29B JUMP JUMPDEST SWAP2 POP POP SWAP3 POP SWAP3 SWAP1 POP JUMP JUMPDEST PUSH0 DUP2 ISZERO ISZERO SWAP1 POP SWAP2 SWAP1 POP JUMP JUMPDEST PUSH2 0x354 DUP2 PUSH2 0x340 JUMP JUMPDEST DUP3 MSTORE POP POP JUMP JUMPDEST PUSH0 PUSH1 0x20 DUP3 ADD SWAP1 POP PUSH2 0x36D PUSH0 DUP4 ADD DUP5 PUSH2 0x34B JUMP JUMPDEST SWAP3 SWAP2 POP POP JUMP JUMPDEST PUSH0 PUSH1 0x5 SWAP1 POP SWAP2 SWAP1 POP JUMP JUMPDEST PUSH0 DUP2 SWAP1 POP SWAP3 SWAP2 POP POP JUMP JUMPDEST PUSH0 DUP2 SWAP1 POP SWAP2 SWAP1 POP JUMP JUMPDEST PUSH2 0x399 DUP2 PUSH2 0x27C JUMP JUMPDEST DUP3 MSTORE POP POP JUMP JUMPDEST PUSH0 PUSH2 0x3AA DUP4 DUP4 PUSH2 0x390 JUMP JUMPDEST PUSH1 0x20 DUP4 ADD SWAP1 POP SWAP3 SWAP2 POP POP JUMP JUMPDEST PUSH0 PUSH1 0x20 DUP3 ADD SWAP1 POP SWAP2 SWAP1 POP JUMP JUMPDEST PUSH2 0x3CB DUP2 PUSH2 0x373 JUMP JUMPDEST PUSH2 0x3D5 DUP2 DUP5 PUSH2 0x37D JUMP JUMPDEST SWAP3 POP PUSH2 0x3E0 DUP3 PUSH2 0x387 JUMP JUMPDEST DUP1 PUSH0 JUMPDEST DUP4 DUP2 LT ISZERO PUSH2 0x410 JUMPI DUP2 MLOAD PUSH2 0x3F7 DUP8 DUP3 PUSH2 0x39F JUMP JUMPDEST SWAP7 POP PUSH2 0x402 DUP4 PUSH2 0x3B6 JUMP JUMPDEST SWAP3 POP POP PUSH1 0x1 DUP2 ADD SWAP1 POP PUSH2 0x3E3 JUMP JUMPDEST POP POP POP POP POP POP JUMP JUMPDEST PUSH0 PUSH1 0xA0 DUP3 ADD SWAP1 POP PUSH2 0x42B PUSH0 DUP4 ADD DUP5 PUSH2 0x3C2 JUMP JUMPDEST SWAP3 SWAP2 POP POP JUMP JUMPDEST PUSH0 DUP3 DUP3 MSTORE PUSH1 0x20 DUP3 ADD SWAP1 POP SWAP3 SWAP2 POP POP JUMP JUMPDEST PUSH32 0xE695B0E7BB84E4B88BE6A087E8B68AE7958C0000000000000000000000000000 PUSH0 DUP3 ADD MSTORE POP JUMP JUMPDEST PUSH0 PUSH2 0x475 PUSH1 0x12 DUP4 PUSH2 0x431 JUMP JUMPDEST SWAP2 POP PUSH2 0x480 DUP3 PUSH2 0x441 JUMP JUMPDEST PUSH1 0x20 DUP3 ADD SWAP1 POP SWAP2 SWAP1 POP JUMP JUMPDEST PUSH0 PUSH1 0x20 DUP3 ADD SWAP1 POP DUP2 DUP2 SUB PUSH0 DUP4 ADD MSTORE PUSH2 0x4A2 DUP2 PUSH2 0x469 JUMP JUMPDEST SWAP1 POP SWAP2 SWAP1 POP JUMP JUMPDEST PUSH32 0x4E487B7100000000000000000000000000000000000000000000000000000000 PUSH0 MSTORE PUSH1 0x32 PUSH1 0x4 MSTORE PUSH1 0x24 PUSH0 REVERT INVALID LOG2 PUSH5 0x6970667358 0x22 SLT KECCAK256 TIMESTAMP EXTCODECOPY 0xEB LOG1 PUSH29 0xA458DE4F6CEC2F040A4ACFB0B3FF106632D502531F391E6C598A2B6473 PUSH16 0x6C634300082200330000000000000000 "
		},
		"gasEstimates": {
			"creation": {
				"codeDepositCost": "258400",
				"executionCost": "111019",
				"totalCost": "369419"
			},
			"external": {
				"getAllElement()": "infinite",
				"getElement(uint256)": "infinite",
				"getLenth()": "332",
				"numbers(uint256)": "infinite",
				"setElement(uint256,uint256)": "infinite"
			}
		},
		"methodIdentifiers": {
			"getAllElement()": "b76b78fb",
			"getElement(uint256)": "3a7d22bc",
			"getLenth()": "620fe100",
			"numbers(uint256)": "d39fa233",
			"setElement(uint256,uint256)": "a16e7215"
		}
	},
	"abi": [
		{
			"inputs": [],
			"stateMutability": "nonpayable",
			"type": "constructor"
		},
		{
			"inputs": [],
			"name": "getAllElement",
			"outputs": [
				{
					"internalType": "uint256[5]",
					"name": "",
					"type": "uint256[5]"
				}
			],
			"stateMutability": "view",
			"type": "function"
		},
		{
			"inputs": [
				{
					"internalType": "uint256",
					"name": "i",
					"type": "uint256"
				}
			],
			"name": "getElement",
			"outputs": [
				{
					"internalType": "uint256",
					"name": "",
					"type": "uint256"
				}
			],
			"stateMutability": "view",
			"type": "function"
		},
		{
			"inputs": [],
			"name": "getLenth",
			"outputs": [
				{
					"internalType": "uint256",
					"name": "",
					"type": "uint256"
				}
			],
			"stateMutability": "view",
			"type": "function"
		},
		{
			"inputs": [
				{
					"internalType": "uint256",
					"name": "",
					"type": "uint256"
				}
			],
			"name": "numbers",
			"outputs": [
				{
					"internalType": "uint256",
					"name": "",
					"type": "uint256"
				}
			],
			"stateMutability": "view",
			"type": "function"
		},
		{
			"inputs": [
				{
					"internalType": "uint256",
					"name": "i",
					"type": "uint256"
				},
				{
					"internalType": "uint256",
					"name": "value",
					"type": "uint256"
				}
			],
			"name": "setElement",
			"outputs": [
				{
					"internalType": "bool",
					"name": "",
					"type": "bool"
				}
			],
			"stateMutability": "nonpayable",
			"type": "function"
		}
	]
}