{
	"data": {
		"bytecode": {
			"linkReferences": {},
			"object": "60806040526040518060600160405280600160ff168152602001600260ff168152602001600360ff168152506005908161003991906102cd565b50604051806080016040528060011515151581526020015f15151515815260200160011515151581526020015f151515158152506012908161007b9190610499565b50348015610087575f5ffd5b50610598565b7f4e487b71000000000000000000000000000000000000000000000000000000005f52604160045260245ffd5b5f60039050919050565b5f819050919050565b5f8190506001806001038301049050919050565b5f819050919050565b5f82821b905092915050565b5f600883026101257fffffffffffffffffffffffffffffffffffffffffffffffffffffffffffffffff826100ea565b61012f86836100ea565b95508019841693508086168417925050509392505050565b5f819050919050565b5f61016a610165610160846100c4565b610147565b6100c4565b9050919050565b5f819050919050565b61018383610150565b61019761018f82610171565b8484546100f6565b825550505050565b5f5f905090565b6101ae61019f565b6101b981848461017a565b505050565b5f5b828110156101df576101d45f8284016101a6565b6001810190506101c0565b505050565b5f82821c905092915050565b6102207fffffffffffffffffffffffffffffffffffffffffffffffffffffffffffffffff836020036008026101e4565b815481168255505050565b818310156102625761023c826100cd565b610245846100cd565b61024e836100e1565b81810161025d838503826101be565b505050505b505050565b680100000000000000008211156102815761028061008d565b5b61028a816100ba565b61029583828461022b565b505050565b5f60039050919050565b5f60ff82169050919050565b5f6102bb82516102a4565b80915050919050565b5f819050919050565b6102d68261029a565b67ffffffffffffffff8111156102ef576102ee61008d565b5b6102f98183610267565b610302836102c4565b61030b836100e1565b600183045f5b81811015610348575f610323856102b0565b61032c81610171565b8092506020870196505050808285015550600181019050610311565b50505050505050565b5f60049050919050565b5f819050602060016020038301049050919050565b5f819050919050565b5f5b8281101561039a5761038f5f8284016101a6565b60018101905061037b565b505050565b818310156103f4576103b08261035b565b6103b98461035b565b6103c283610370565b818101600160208806025f8111156103e2576103e181600184036101f0565b5b6103ee84860383610379565b50505050505b505050565b680100000000000000008211156104135761041261008d565b5b61041c81610351565b61042783828461039f565b505050565b5f60049050919050565b5f8115159050919050565b5f61044c8251610436565b80915050919050565b5f819050919050565b5f6008830261046e60ff826100ea565b61047886836100ea565b95508019841693508086168417925050509392505050565b5f819050919050565b6104a28261042c565b67ffffffffffffffff8111156104bb576104ba61008d565b5b6104c581836103f9565b6104ce83610455565b6104d783610370565b602083045f5b81811015610538575f5f5b6020811015610526576104fa86610441565b61050381610490565b61051181846001028661045e565b935060208801975050506001810190506104e8565b508082850155506001810190506104dd565b506020810284035f81111561058f575f5f5b828110156105875761055b86610441565b61056481610490565b61057281846001028661045e565b9350602088019750505060018101905061054a565b508083850155505b50505050505050565b610533806105a55f395ff3fe608060405234801561000f575f5ffd5b5060043610610060575f3560e01c806324f955e2146100645780636422c4c81461009457806381274d3a146100c45780639a5009ac146100f4578063dd1a174c14610124578063edf26d9b14610154575b5f5ffd5b61007e60048036038101906100799190610301565b610184565b60405161008b9190610344565b60405180910390f35b6100ae60048036038101906100a99190610301565b61019d565b6040516100bb91906103cd565b60405180910390f35b6100de60048036038101906100d99190610301565b61023c565b6040516100eb9190610407565b60405180910390f35b61010e60048036038101906101099190610301565b610265565b60405161011b919061042f565b60405180910390f35b61013e60048036038101906101399190610301565b61027d565b60405161014b919061042f565b60405180910390f35b61016e60048036038101906101699190610301565b610296565b60405161017b9190610487565b60405180910390f35b60138160028110610193575f80fd5b015f915090505481565b601581600281106101ac575f80fd5b015f9150905080546101bd906104cd565b80601f01602080910402602001604051908101604052809291908181526020018280546101e9906104cd565b80156102345780601f1061020b57610100808354040283529160200191610234565b820191905f5260205f20905b81548152906001019060200180831161021757829003601f168201915b505050505081565b6012816004811061024b575f80fd5b60209182820401919006915054906101000a900460ff1681565b5f8160058110610273575f80fd5b015f915090505481565b6005816003811061028c575f80fd5b015f915090505481565b600881600a81106102a5575f80fd5b015f915054906101000a900473ffffffffffffffffffffffffffffffffffffffff1681565b5f5ffd5b5f819050919050565b6102e0816102ce565b81146102ea575f5ffd5b50565b5f813590506102fb816102d7565b92915050565b5f60208284031215610316576103156102ca565b5b5f610323848285016102ed565b91505092915050565b5f819050919050565b61033e8161032c565b82525050565b5f6020820190506103575f830184610335565b92915050565b5f81519050919050565b5f82825260208201905092915050565b8281835e5f83830152505050565b5f601f19601f8301169050919050565b5f61039f8261035d565b6103a98185610367565b93506103b9818560208601610377565b6103c281610385565b840191505092915050565b5f6020820190508181035f8301526103e58184610395565b905092915050565b5f8115159050919050565b610401816103ed565b82525050565b5f60208201905061041a5f8301846103f8565b92915050565b610429816102ce565b82525050565b5f6020820190506104425f830184610420565b92915050565b5f73ffffffffffffffffffffffffffffffffffffffff82169050919050565b5f61047182610448565b9050919050565b61048181610467565b82525050565b5f60208201905061049a5f830184610478565b92915050565b7f4e487b71000000000000000000000000000000000000000000000000000000005f52602260045260245ffd5b5f60028204905060018216806104e457607f821691505b6020821081036104f7576104f66104a0565b5b5091905056fea26469706673582212203e309ec6ac22f97c126ac8a853083660e412460104fc94308080f08a970a45df64736f6c63430008220033",
			"opcodes": "PUSH1 0x80 PUSH1 0x40 MSTORE PUSH1 0x40 MLOAD DUP1 PUSH1 0x60 ADD PUSH1 0x40 MSTORE DUP1 PUSH1 0x1 PUSH1 0xFF AND DUP2 MSTORE PUSH1 0x20 ADD PUSH1 0x2 PUSH1 0xFF AND DUP2 MSTORE PUSH1 0x20 ADD PUSH1 0x3 PUSH1 0xFF AND DUP2 MSTORE POP PUSH1 0x5 SWAP1 DUP2 PUSH2 0x39 SWAP2 SWAP1 PUSH2 0x2CD JUMP JUMPDEST POP PUSH1 0x40 MLOAD DUP1 PUSH1 0x80 ADD PUSH1 0x40 MSTORE DUP1 PUSH1 0x1 ISZERO ISZERO ISZERO ISZERO DUP2 MSTORE PUSH1 0x20 ADD PUSH0 ISZERO ISZERO ISZERO ISZERO DUP2 MSTORE PUSH1 0x20 ADD PUSH1 0x1 ISZERO ISZERO ISZERO ISZERO DUP2 MSTORE PUSH1 0x20 ADD PUSH0 ISZERO ISZERO ISZERO ISZERO DUP2 MSTORE POP PUSH1 0x12 SWAP1 DUP2 PUSH2 0x7B SWAP2 SWAP1 PUSH2 0x499 JUMP JUMPDEST POP CALLVALUE DUP1 ISZERO PUSH2 0x87 JUMPI PUSH0 PUSH0 REVERT JUMPDEST POP PUSH2 0x598 JUMP JUMPDEST PUSH32 0x4E487B7100000000000000000000000000000000000000000000000000000000 PUSH0 MSTORE PUSH1 0x41 PUSH1 0x4 MSTORE PUSH1 0x24 PUSH0 REVERT JUMPDEST PUSH0 PUSH1 0x3 SWAP1 POP SWAP2 SWAP1 POP JUMP JUMPDEST PUSH0 DUP2 SWAP1 POP SWAP2 SWAP1 POP JUMP JUMPDEST PUSH0 DUP2 SWAP1 POP PUSH1 0x1 DUP1 PUSH1 0x1 SUB DUP4 ADD DIV SWAP1 POP SWAP2 SWAP1 POP JUMP JUMPDEST PUSH0 DUP2 SWAP1 POP SWAP2 SWAP1 POP JUMP JUMPDEST PUSH0 DUP3 DUP3 SHL SWAP1 POP SWAP3 SWAP2 POP POP JUMP JUMPDEST PUSH0 PUSH1 0x8 DUP4 MUL PUSH2 0x125 PUSH32 0xFFFFFFFFFFFFFFFFFFFFFFFFFFFFFFFFFFFFFFFFFFFFFFFFFFFFFFFFFFFFFFFF DUP3 PUSH2 0xEA JUMP JUMPDEST PUSH2 0x12F DUP7 DUP4 PUSH2 0xEA JUMP JUMPDEST SWAP6 POP DUP1 NOT DUP5 AND SWAP4 POP DUP1 DUP7 AND DUP5 OR SWAP3 POP POP POP SWAP4 SWAP3 POP POP POP JUMP JUMPDEST PUSH0 DUP2 SWAP1 POP SWAP2 SWAP1 POP JUMP JUMPDEST PUSH0 PUSH2 0x16A PUSH2 0x165 PUSH2 0x160 DUP5 PUSH2 0xC4 JUMP JUMPDEST PUSH2 0x147 JUMP JUMPDEST PUSH2 0xC4 JUMP JUMPDEST SWAP1 POP SWAP2 SWAP1 POP JUMP JUMPDEST PUSH0 DUP2 SWAP1 POP SWAP2 SWAP1 POP JUMP JUMPDEST PUSH2 0x183 DUP4 PUSH2 0x150 JUMP JUMPDEST PUSH2 0x197 PUSH2 0x18F DUP3 PUSH2 0x171 JUMP JUMPDEST DUP5 DUP5 SLOAD PUSH2 0xF6 JUMP JUMPDEST DUP3 SSTORE POP POP POP POP JUMP JUMPDEST PUSH0 PUSH0 SWAP1 POP SWAP1 JUMP JUMPDEST PUSH2 0x1AE PUSH2 0x19F JUMP JUMPDEST PUSH2 0x1B9 DUP2 DUP5 DUP5 PUSH2 0x17A JUMP JUMPDEST POP POP POP JUMP JUMPDEST PUSH0 JUMPDEST DUP3 DUP2 LT ISZERO PUSH2 0x1DF JUMPI PUSH2 0x1D4 PUSH0 DUP3 DUP5 ADD PUSH2 0x1A6 JUMP JUMPDEST PUSH1 0x1 DUP2 ADD SWAP1 POP PUSH2 0x1C0 JUMP JUMPDEST POP POP POP JUMP JUMPDEST PUSH0 DUP3 DUP3 SHR SWAP1 POP SWAP3 SWAP2 POP POP JUMP JUMPDEST PUSH2 0x220 PUSH32 0xFFFFFFFFFFFFFFFFFFFFFFFFFFFFFFFFFFFFFFFFFFFFFFFFFFFFFFFFFFFFFFFF DUP4 PUSH1 0x20 SUB PUSH1 0x8 MUL PUSH2 0x1E4 JUMP JUMPDEST DUP2 SLOAD DUP2 AND DUP3 SSTORE POP POP POP JUMP JUMPDEST DUP2 DUP4 LT ISZERO PUSH2 0x262 JUMPI PUSH2 0x23C DUP3 PUSH2 0xCD JUMP JUMPDEST PUSH2 0x245 DUP5 PUSH2 0xCD JUMP JUMPDEST PUSH2 0x24E DUP4 PUSH2 0xE1 JUMP JUMPDEST DUP2 DUP2 ADD PUSH2 0x25D DUP4 DUP6 SUB DUP3 PUSH2 0x1BE JUMP JUMPDEST POP POP POP POP JUMPDEST POP POP POP JUMP JUMPDEST PUSH9 0x10000000000000000 DUP3 GT ISZERO PUSH2 0x281 JUMPI PUSH2 0x280 PUSH2 0x8D JUMP JUMPDEST JUMPDEST PUSH2 0x28A DUP2 PUSH2 0xBA JUMP JUMPDEST PUSH2 0x295 DUP4 DUP3 DUP5 PUSH2 0x22B JUMP JUMPDEST POP POP POP JUMP JUMPDEST PUSH0 PUSH1 0x3 SWAP1 POP SWAP2 SWAP1 POP JUMP JUMPDEST PUSH0 PUSH1 0xFF DUP3 AND SWAP1 POP SWAP2 SWAP1 POP JUMP JUMPDEST PUSH0 PUSH2 0x2BB DUP3 MLOAD PUSH2 0x2A4 JUMP JUMPDEST DUP1 SWAP2 POP POP SWAP2 SWAP1 POP JUMP JUMPDEST PUSH0 DUP2 SWAP1 POP SWAP2 SWAP1 POP JUMP JUMPDEST PUSH2 0x2D6 DUP3 PUSH2 0x29A JUMP JUMPDEST PUSH8 0xFFFFFFFFFFFFFFFF DUP2 GT ISZERO PUSH2 0x2EF JUMPI PUSH2 0x2EE PUSH2 0x8D JUMP JUMPDEST JUMPDEST PUSH2 0x2F9 DUP2 DUP4 PUSH2 0x267 JUMP JUMPDEST PUSH2 0x302 DUP4 PUSH2 0x2C4 JUMP JUMPDEST PUSH2 0x30B DUP4 PUSH2 0xE1 JUMP JUMPDEST PUSH1 0x1 DUP4 DIV PUSH0 JUMPDEST DUP2 DUP2 LT ISZERO PUSH2 0x348 JUMPI PUSH0 PUSH2 0x323 DUP6 PUSH2 0x2B0 JUMP JUMPDEST PUSH2 0x32C DUP2 PUSH2 0x171 JUMP JUMPDEST DUP1 SWAP3 POP PUSH1 0x20 DUP8 ADD SWAP7 POP POP POP DUP1 DUP3 DUP6 ADD SSTORE POP PUSH1 0x1 DUP2 ADD SWAP1 POP PUSH2 0x311 JUMP JUMPDEST POP POP POP POP POP POP POP JUMP JUMPDEST PUSH0 PUSH1 0x4 SWAP1 POP SWAP2 SWAP1 POP JUMP JUMPDEST PUSH0 DUP2 SWAP1 POP PUSH1 0x20 PUSH1 0x1 PUSH1 0x20 SUB DUP4 ADD DIV SWAP1 POP SWAP2 SWAP1 POP JUMP JUMPDEST PUSH0 DUP2 SWAP1 POP SWAP2 SWAP1 POP JUMP JUMPDEST PUSH0 JUMPDEST DUP3 DUP2 LT ISZERO PUSH2 0x39A JUMPI PUSH2 0x38F PUSH0 DUP3 DUP5 ADD PUSH2 0x1A6 JUMP JUMPDEST PUSH1 0x1 DUP2 ADD SWAP1 POP PUSH2 0x37B JUMP JUMPDEST POP POP POP JUMP JUMPDEST DUP2 DUP4 LT ISZERO PUSH2 0x3F4 JUMPI PUSH2 0x3B0 DUP3 PUSH2 0x35B JUMP JUMPDEST PUSH2 0x3B9 DUP5 PUSH2 0x35B JUMP JUMPDEST PUSH2 0x3C2 DUP4 PUSH2 0x370 JUMP JUMPDEST DUP2 DUP2 ADD PUSH1 0x1 PUSH1 0x20 DUP9 MOD MUL PUSH0 DUP2 GT ISZERO PUSH2 0x3E2 JUMPI PUSH2 0x3E1 DUP2 PUSH1 0x1 DUP5 SUB PUSH2 0x1F0 JUMP JUMPDEST JUMPDEST PUSH2 0x3EE DUP5 DUP7 SUB DUP4 PUSH2 0x379 JUMP JUMPDEST POP POP POP POP POP JUMPDEST POP POP POP JUMP JUMPDEST PUSH9 0x10000000000000000 DUP3 GT ISZERO PUSH2 0x413 JUMPI PUSH2 0x412 PUSH2 0x8D JUMP JUMPDEST JUMPDEST PUSH2 0x41C DUP2 PUSH2 0x351 JUMP JUMPDEST PUSH2 0x427 DUP4 DUP3 DUP5 PUSH2 0x39F JUMP JUMPDEST POP POP POP JUMP JUMPDEST PUSH0 PUSH1 0x4 SWAP1 POP SWAP2 SWAP1 POP JUMP JUMPDEST PUSH0 DUP2 ISZERO ISZERO SWAP1 POP SWAP2 SWAP1 POP JUMP JUMPDEST PUSH0 PUSH2 0x44C DUP3 MLOAD PUSH2 0x436 JUMP JUMPDEST DUP1 SWAP2 POP POP SWAP2 SWAP1 POP JUMP JUMPDEST PUSH0 DUP2 SWAP1 POP SWAP2 SWAP1 POP JUMP JUMPDEST PUSH0 PUSH1 0x8 DUP4 MUL PUSH2 0x46E PUSH1 0xFF DUP3 PUSH2 0xEA JUMP JUMPDEST PUSH2 0x478 DUP7 DUP4 PUSH2 0xEA JUMP JUMPDEST SWAP6 POP DUP1 NOT DUP5 AND SWAP4 POP DUP1 DUP7 AND DUP5 OR SWAP3 POP POP POP SWAP4 SWAP3 POP POP POP JUMP JUMPDEST PUSH0 DUP2 SWAP1 POP SWAP2 SWAP1 POP JUMP JUMPDEST PUSH2 0x4A2 DUP3 PUSH2 0x42C JUMP JUMPDEST PUSH8 0xFFFFFFFFFFFFFFFF DUP2 GT ISZERO PUSH2 0x4BB JUMPI PUSH2 0x4BA PUSH2 0x8D JUMP JUMPDEST JUMPDEST PUSH2 0x4C5 DUP2 DUP4 PUSH2 0x3F9 JUMP JUMPDEST PUSH2 0x4CE DUP4 PUSH2 0x455 JUMP JUMPDEST PUSH2 0x4D7 DUP4 PUSH2 0x370 JUMP JUMPDEST PUSH1 0x20 DUP4 DIV PUSH0 JUMPDEST DUP2 DUP2 LT ISZERO PUSH2 0x538 JUMPI PUSH0 PUSH0 JUMPDEST PUSH1 0x20 DUP2 LT ISZERO PUSH2 0x526 JUMPI PUSH2 0x4FA DUP7 PUSH2 0x441 JUMP JUMPDEST PUSH2 0x503 DUP2 PUSH2 0x490 JUMP JUMPDEST PUSH2 0x511 DUP2 DUP5 PUSH1 0x1 MUL DUP7 PUSH2 0x45E JUMP JUMPDEST SWAP4 POP PUSH1 0x20 DUP9 ADD SWAP8 POP POP POP PUSH1 0x1 DUP2 ADD SWAP1 POP PUSH2 0x4E8 JUMP JUMPDEST POP DUP1 DUP3 DUP6 ADD SSTORE POP PUSH1 0x1 DUP2 ADD SWAP1 POP PUSH2 0x4DD JUMP JUMPDEST POP PUSH1 0x20 DUP2 MUL DUP5 SUB PUSH0 DUP2 GT ISZERO PUSH2 0x58F JUMPI PUSH0 PUSH0 JUMPDEST DUP3 DUP2 LT ISZERO PUSH2 0x587 JUMPI PUSH2 0x55B DUP7 PUSH2 0x441 JUMP JUMPDEST PUSH2 0x564 DUP2 PUSH2 0x490 JUMP JUMPDEST PUSH2 0x572 DUP2 DUP5 PUSH1 0x1 MUL DUP7 PUSH2 0x45E JUMP JUMPDEST SWAP4 POP PUSH1 0x20 DUP9 ADD SWAP8 POP POP POP PUSH1 0x1 DUP2 ADD SWAP1 POP PUSH2 0x54A JUMP JUMPDEST POP DUP1 DUP4 DUP6 ADD SSTORE POP JUMPDEST POP POP POP POP POP POP POP JUMP JUMPDEST PUSH2 0x533 DUP1 PUSH2 0x5A5 PUSH0 CODECOPY PUSH0 RETURN INVALID PUSH1 0x80 PUSH1 0x40 MSTORE CALLVALUE DUP1 ISZERO PUSH2 0xF JUMPI PUSH0 PUSH0 REVERT JUMPDEST POP PUSH1 0x4 CALLDATASIZE LT PUSH2 0x60 JUMPI PUSH0 CALLDATALOAD PUSH1 0xE0 SHR DUP1 PUSH4 0x24F955E2 EQ PUSH2 0x64 JUMPI DUP1 PUSH4 0x6422C4C8 EQ PUSH2 0x94 JUMPI DUP1 PUSH4 0x81274D3A EQ PUSH2 0xC4 JUMPI DUP1 PUSH4 0x9A5009AC EQ PUSH2 0xF4 JUMPI DUP1 PUSH4 0xDD1A174C EQ PUSH2 0x124 JUMPI DUP1 PUSH4 0xEDF26D9B EQ PUSH2 0x154 JUMPI JUMPDEST PUSH0 PUSH0 REVERT JUMPDEST PUSH2 0x7E PUSH1 0x4 DUP1 CALLDATASIZE SUB DUP2 ADD SWAP1 PUSH2 0x79 SWAP2 SWAP1 PUSH2 0x301 JUMP JUMPDEST PUSH2 0x184 JUMP JUMPDEST PUSH1 0x40 MLOAD PUSH2 0x8B SWAP2 SWAP1 PUSH2 0x344 JUMP JUMPDEST PUSH1 0x40 MLOAD DUP1 SWAP2 SUB SWAP1 RETURN JUMPDEST PUSH2 0xAE PUSH1 0x4 DUP1 CALLDATASIZE SUB DUP2 ADD SWAP1 PUSH2 0xA9 SWAP2 SWAP1 PUSH2 0x301 JUMP JUMPDEST PUSH2 0x19D JUMP JUMPDEST PUSH1 0x40 MLOAD PUSH2 0xBB SWAP2 SWAP1 PUSH2 0x3CD JUMP JUMPDEST PUSH1 0x40 MLOAD DUP1 SWAP2 SUB SWAP1 RETURN JUMPDEST PUSH2 0xDE PUSH1 0x4 DUP1 CALLDATASIZE SUB DUP2 ADD SWAP1 PUSH2 0xD9 SWAP2 SWAP1 PUSH2 0x301 JUMP JUMPDEST PUSH2 0x23C JUMP JUMPDEST PUSH1 0x40 MLOAD PUSH2 0xEB SWAP2 SWAP1 PUSH2 0x407 JUMP JUMPDEST PUSH1 0x40 MLOAD DUP1 SWAP2 SUB SWAP1 RETURN JUMPDEST PUSH2 0x10E PUSH1 0x4 DUP1 CALLDATASIZE SUB DUP2 ADD SWAP1 PUSH2 0x109 SWAP2 SWAP1 PUSH2 0x301 JUMP JUMPDEST PUSH2 0x265 JUMP JUMPDEST PUSH1 0x40 MLOAD PUSH2 0x11B SWAP2 SWAP1 PUSH2 0x42F JUMP JUMPDEST PUSH1 0x40 MLOAD DUP1 SWAP2 SUB SWAP1 RETURN JUMPDEST PUSH2 0x13E PUSH1 0x4 DUP1 CALLDATASIZE SUB DUP2 ADD SWAP1 PUSH2 0x139 SWAP2 SWAP1 PUSH2 0x301 JUMP JUMPDEST PUSH2 0x27D JUMP JUMPDEST PUSH1 0x40 MLOAD PUSH2 0x14B SWAP2 SWAP1 PUSH2 0x42F JUMP JUMPDEST PUSH1 0x40 MLOAD DUP1 SWAP2 SUB SWAP1 RETURN JUMPDEST PUSH2 0x16E PUSH1 0x4 DUP1 CALLDATASIZE SUB DUP2 ADD SWAP1 PUSH2 0x169 SWAP2 SWAP1 PUSH2 0x301 JUMP JUMPDEST PUSH2 0x296 JUMP JUMPDEST PUSH1 0x40 MLOAD PUSH2 0x17B SWAP2 SWAP1 PUSH2 0x487 JUMP JUMPDEST PUSH1 0x40 MLOAD DUP1 SWAP2 SUB SWAP1 RETURN JUMPDEST PUSH1 0x13 DUP2 PUSH1 0x2 DUP2 LT PUSH2 0x193 JUMPI PUSH0 DUP1 REVERT JUMPDEST ADD PUSH0 SWAP2 POP SWAP1 POP SLOAD DUP2 JUMP JUMPDEST PUSH1 0x15 DUP2 PUSH1 0x2 DUP2 LT PUSH2 0x1AC JUMPI PUSH0 DUP1 REVERT JUMPDEST ADD PUSH0 SWAP2 POP SWAP1 POP DUP1 SLOAD PUSH2 0x1BD SWAP1 PUSH2 0x4CD JUMP JUMPDEST DUP1 PUSH1 0x1F ADD PUSH1 0x20 DUP1 SWAP2 DIV MUL PUSH1 0x20 ADD PUSH1 0x40 MLOAD SWAP1 DUP2 ADD PUSH1 0x40 MSTORE DUP1 SWAP3 SWAP2 SWAP1 DUP2 DUP2 MSTORE PUSH1 0x20 ADD DUP3 DUP1 SLOAD PUSH2 0x1E9 SWAP1 PUSH2 0x4CD JUMP JUMPDEST DUP1 ISZERO PUSH2 0x234 JUMPI DUP1 PUSH1 0x1F LT PUSH2 0x20B JUMPI PUSH2 0x100 DUP1 DUP4 SLOAD DIV MUL DUP4 MSTORE SWAP2 PUSH1 0x20 ADD SWAP2 PUSH2 0x234 JUMP JUMPDEST DUP3 ADD SWAP2 SWAP1 PUSH0 MSTORE PUSH1 0x20 PUSH0 KECCAK256 SWAP1 JUMPDEST DUP2 SLOAD DUP2 MSTORE SWAP1 PUSH1 0x1 ADD SWAP1 PUSH1 0x20 ADD DUP1 DUP4 GT PUSH2 0x217 JUMPI DUP3 SWAP1 SUB PUSH1 0x1F AND DUP3 ADD SWAP2 JUMPDEST POP POP POP POP POP DUP2 JUMP JUMPDEST PUSH1 0x12 DUP2 PUSH1 0x4 DUP2 LT PUSH2 0x24B JUMPI PUSH0 DUP1 REVERT JUMPDEST PUSH1 0x20 SWAP2 DUP3 DUP3 DIV ADD SWAP2 SWAP1 MOD SWAP2 POP SLOAD SWAP1 PUSH2 0x100 EXP SWAP1 DIV PUSH1 0xFF AND DUP2 JUMP JUMPDEST PUSH0 DUP2 PUSH1 0x5 DUP2 LT PUSH2 0x273 JUMPI PUSH0 DUP1 REVERT JUMPDEST ADD PUSH0 SWAP2 POP SWAP1 POP SLOAD DUP2 JUMP JUMPDEST PUSH1 0x5 DUP2 PUSH1 0x3 DUP2 LT PUSH2 0x28C JUMPI PUSH0 DUP1 REVERT JUMPDEST ADD PUSH0 SWAP2 POP SWAP1 POP SLOAD DUP2 JUMP JUMPDEST PUSH1 0x8 DUP2 PUSH1 0xA DUP2 LT PUSH2 0x2A5 JUMPI PUSH0 DUP1 REVERT JUMPDEST ADD PUSH0 SWAP2 POP SLOAD SWAP1 PUSH2 0x100 EXP SWAP1 DIV PUSH20 0xFFFFFFFFFFFFFFFFFFFFFFFFFFFFFFFFFFFFFFFF AND DUP2 JUMP JUMPDEST PUSH0 PUSH0 REVERT JUMPDEST PUSH0 DUP2 SWAP1 POP SWAP2 SWAP1 POP JUMP JUMPDEST PUSH2 0x2E0 DUP2 PUSH2 0x2CE JUMP JUMPDEST DUP2 EQ PUSH2 0x2EA JUMPI PUSH0 PUSH0 REVERT JUMPDEST POP JUMP JUMPDEST PUSH0 DUP2 CALLDATALOAD SWAP1 POP PUSH2 0x2FB DUP2 PUSH2 0x2D7 JUMP JUMPDEST SWAP3 SWAP2 POP POP JUMP JUMPDEST PUSH0 PUSH1 0x20 DUP3 DUP5 SUB SLT ISZERO PUSH2 0x316 JUMPI PUSH2 0x315 PUSH2 0x2CA JUMP JUMPDEST JUMPDEST PUSH0 PUSH2 0x323 DUP5 DUP3 DUP6 ADD PUSH2 0x2ED JUMP JUMPDEST SWAP2 POP POP SWAP3 SWAP2 POP POP JUMP JUMPDEST PUSH0 DUP2 SWAP1 POP SWAP2 SWAP1 POP JUMP JUMPDEST PUSH2 0x33E DUP2 PUSH2 0x32C JUMP JUMPDEST DUP3 MSTORE POP POP JUMP JUMPDEST PUSH0 PUSH1 0x20 DUP3 ADD SWAP1 POP PUSH2 0x357 PUSH0 DUP4 ADD DUP5 PUSH2 0x335 JUMP JUMPDEST SWAP3 SWAP2 POP POP JUMP JUMPDEST PUSH0 DUP2 MLOAD SWAP1 POP SWAP2 SWAP1 POP JUMP JUMPDEST PUSH0 DUP3 DUP3 MSTORE PUSH1 0x20 DUP3 ADD SWAP1 POP SWAP3 SWAP2 POP POP JUMP JUMPDEST DUP3 DUP2 DUP4 MCOPY PUSH0 DUP4 DUP4 ADD MSTORE POP POP POP JUMP JUMPDEST PUSH0 PUSH1 0x1F NOT PUSH1 0x1F DUP4 ADD AND SWAP1 POP SWAP2 SWAP1 POP JUMP JUMPDEST PUSH0 PUSH2 0x39F DUP3 PUSH2 0x35D JUMP JUMPDEST PUSH2 0x3A9 DUP2 DUP6 PUSH2 0x367 JUMP JUMPDEST SWAP4 POP PUSH2 0x3B9 DUP2 DUP6 PUSH1 0x20 DUP7 ADD PUSH2 0x377 JUMP JUMPDEST PUSH2 0x3C2 DUP2 PUSH2 0x385 JUMP JUMPDEST DUP5 ADD SWAP2 POP POP SWAP3 SWAP2 POP POP JUMP JUMPDEST PUSH0 PUSH1 0x20 DUP3 ADD SWAP1 POP DUP2 DUP2 SUB PUSH0 DUP4 ADD MSTORE PUSH2 0x3E5 DUP2 DUP5 PUSH2 0x395 JUMP JUMPDEST SWAP1 POP SWAP3 SWAP2 POP POP JUMP JUMPDEST PUSH0 DUP2 ISZERO ISZERO SWAP1 POP SWAP2 SWAP1 POP JUMP JUMPDEST PUSH2 0x401 DUP2 PUSH2 0x3ED JUMP JUMPDEST DUP3 MSTORE POP POP JUMP JUMPDEST PUSH0 PUSH1 0x20 DUP3 ADD SWAP1 POP PUSH2 0x41A PUSH0 DUP4 ADD DUP5 PUSH2 0x3F8 JUMP JUMPDEST SWAP3 SWAP2 POP POP JUMP JUMPDEST PUSH2 0x429 DUP2 PUSH2 0x2CE JUMP JUMPDEST DUP3 MSTORE POP POP JUMP JUMPDEST PUSH0 PUSH1 0x20 DUP3 ADD SWAP1 POP PUSH2 0x442 PUSH0 DUP4 ADD DUP5 PUSH2 0x420 JUMP JUMPDEST SWAP3 SWAP2 POP POP JUMP JUMPDEST PUSH0 PUSH20 0xFFFFFFFFFFFFFFFFFFFFFFFFFFFFFFFFFFFFFFFF DUP3 AND SWAP1 POP SWAP2 SWAP1 POP JUMP JUMPDEST PUSH0 PUSH2 0x471 DUP3 PUSH2 0x448 JUMP JUMPDEST SWAP1 POP SWAP2 SWAP1 POP JUMP JUMPDEST PUSH2 0x481 DUP2 PUSH2 0x467 JUMP JUMPDEST DUP3 MSTORE POP POP JUMP JUMPDEST PUSH0 PUSH1 0x20 DUP3 ADD SWAP1 POP PUSH2 0x49A PUSH0 DUP4 ADD DUP5 PUSH2 0x478 JUMP JUMPDEST SWAP3 SWAP2 POP POP JUMP JUMPDEST PUSH32 0x4E487B7100000000000000000000000000000000000000000000000000000000 PUSH0 MSTORE PUSH1 0x22 PUSH1 0x4 MSTORE PUSH1 0x24 PUSH0 REVERT JUMPDEST PUSH0 PUSH1 0x2 DUP3 DIV SWAP1 POP PUSH1 0x1 DUP3 AND DUP1 PUSH2 0x4E4 JUMPI PUSH1 0x7F DUP3 AND SWAP2 POP JUMPDEST PUSH1 0x20 DUP3 LT DUP2 SUB PUSH2 0x4F7 JUMPI PUSH2 0x4F6 PUSH2 0x4A0 JUMP JUMPDEST JUMPDEST POP SWAP2 SWAP1 POP JUMP INVALID LOG2 PUSH5 0x6970667358 0x22 SLT KECCAK256 RETURNDATACOPY ADDRESS SWAP15 0xC6 0xAC 0x22 EXTDELEGATECALL PUSH29 0x126AC8A853083660E412460104FC94308080F08A970A45DF64736F6C63 NUMBER STOP ADDMOD 0x22 STOP CALLER "
		},
		"gasEstimates": {
			"creation": {
				"codeDepositCost": "266200",
				"executionCost": "infinite",
				"totalCost": "infinite"
			},
			"external": {
				"addresses(uint256)": "2883",
				"bytesArray(uint256)": "2700",
				"fixedArray(uint256)": "infinite",
				"fixedArrayInit(uint256)": "infinite",
				"flags(uint256)": "4401",
				"stringArray(uint256)": "infinite"
			}
		},
		"methodIdentifiers": {
			"addresses(uint256)": "edf26d9b",
			"bytesArray(uint256)": "24f955e2",
			"fixedArray(uint256)": "9a5009ac",
			"fixedArrayInit(uint256)": "dd1a174c",
			"flags(uint256)": "81274d3a",
			"stringArray(uint256)": "6422c4c8"
		}
	},
	"abi": [
		{
			"inputs": [
				{
					"internalType": "uint256",
					"name": "",
					"type": "uint256"
				}
			],
			"name": "addresses",
			"outputs": [
				{
					"internalType": "address",
					"name": "",
					"type": "address"
				}
			],
			"stateMutability": "view",
			"type": "function"
		},
		{
			"inputs": [
				{
					"internalType": "uint256",
					"name": "",
					"type": "uint256"
				}
			],
			"name": "bytesArray",
			"outputs": [
				{
					"internalType": "bytes32",
					"name": "",
					"type": "bytes32"
				}
			],
			"stateMutability": "view",
			"type": "function"
		},
		{
			"inputs": [
				{
					"internalType": "uint256",
					"name": "",
					"type": "uint256"
				}
			],
			"name": "fixedArray",
			"outputs": [
				{
					"internalType": "uint256",
					"name": "",
					"type": "uint256"
				}
			],
			"stateMutability": "view",
			"type": "function"
		},
		{
			"inputs": [
				{
					"internalType": "uint256",
					"name": "",
					"type": "uint256"
				}
			],
			"name": "fixedArrayInit",
			"outputs": [
				{
					"internalType": "uint256",
					"name": "",
					"type": "uint256"
				}
			],
			"stateMutability": "view",
			"type": "function"
		},
		{
			"inputs": [
				{
					"internalType": "uint256",
					"name": "",
					"type": "uint256"
				}
			],
			"name": "flags",
			"outputs": [
				{
					"internalType": "bool",
					"name": "",
					"type": "bool"
				}
			],
			"stateMutability": "view",
			"type": "function"
		},
		{
			"inputs": [
				{
					"internalType": "uint256",
					"name": "",
					"type": "uint256"
				}
			],
			"name": "stringArray",
			"outputs": [
				{
					"internalType": "string",
					"name": "",
					"type": "string"
				}
			],
			"stateMutability": "view",
			"type": "function"
		}
	]
}