{
	"data": {
		"bytecode": {
			"linkReferences": {},
			"object": "6080604052348015600e575f5ffd5b505f6001908060018154018082558091505060019003905f5260205f20015f90919091909150555f6002908060018154018082558091505060019003905f5260205f20015f90919091909150555f6003908060018154018082558091505060019003905f5260205f20015f90919091909150556104418061008e5f395ff3fe608060405234801561000f575f5ffd5b506004361061003f575f3560e01c806353ed514314610043578063c33fb87714610061578063d39fa2331461007f575b5f5ffd5b61004b6100af565b60405161005891906102a2565b60405180910390f35b610069610104565b60405161007691906102a2565b60405180910390f35b610099600480360381019061009491906102f0565b6101c3565b6040516100a6919061032a565b60405180910390f35b60605f8054806020026020016040519081016040528092919081815260200182805480156100fa57602002820191905f5260205f20905b8154815260200190600101908083116100e6575b5050505050905090565b60605f5f8054905067ffffffffffffffff81111561012557610124610343565b5b6040519080825280602002602001820160405280156101535781602001602082028036833780820191505090505b5090505f5f90505b5f805490508110156101bb5760025f828154811061017c5761017b610370565b5b905f5260205f20015461018f91906103ca565b8282815181106101a2576101a1610370565b5b602002602001018181525050808060010191505061015b565b508091505090565b5f81815481106101d1575f80fd5b905f5260205f20015f915090505481565b5f81519050919050565b5f82825260208201905092915050565b5f819050602082019050919050565b5f819050919050565b61021d8161020b565b82525050565b5f61022e8383610214565b60208301905092915050565b5f602082019050919050565b5f610250826101e2565b61025a81856101ec565b9350610265836101fc565b805f5b8381101561029557815161027c8882610223565b97506102878361023a565b925050600181019050610268565b5085935050505092915050565b5f6020820190508181035f8301526102ba8184610246565b905092915050565b5f5ffd5b6102cf8161020b565b81146102d9575f5ffd5b50565b5f813590506102ea816102c6565b92915050565b5f60208284031215610305576103046102c2565b5b5f610312848285016102dc565b91505092915050565b6103248161020b565b82525050565b5f60208201905061033d5f83018461031b565b92915050565b7f4e487b71000000000000000000000000000000000000000000000000000000005f52604160045260245ffd5b7f4e487b71000000000000000000000000000000000000000000000000000000005f52603260045260245ffd5b7f4e487b71000000000000000000000000000000000000000000000000000000005f52601160045260245ffd5b5f6103d48261020b565b91506103df8361020b565b92508282026103ed8161020b565b915082820484148315176104045761040361039d565b5b509291505056fea26469706673582212203b579582e62bf5d88ffbed7a18e204af9bba8d308c29c3b5a1fb1f5d30a0e61c64736f6c63430008220033",
			"opcodes": "PUSH1 0x80 PUSH1 0x40 MSTORE CALLVALUE DUP1 ISZERO PUSH1 0xE JUMPI PUSH0 PUSH0 REVERT JUMPDEST POP PUSH0 PUSH1 0x1 SWAP1 DUP1 PUSH1 0x1 DUP2 SLOAD ADD DUP1 DUP3 SSTORE DUP1 SWAP2 POP POP PUSH1 0x1 SWAP1 SUB SWAP1 PUSH0 MSTORE PUSH1 0x20 PUSH0 KECCAK256 ADD PUSH0 SWAP1 SWAP2 SWAP1 SWAP2 SWAP1 SWAP2 POP SSTORE PUSH0 PUSH1 0x2 SWAP1 DUP1 PUSH1 0x1 DUP2 SLOAD ADD DUP1 DUP3 SSTORE DUP1 SWAP2 POP POP PUSH1 0x1 SWAP1 SUB SWAP1 PUSH0 MSTORE PUSH1 0x20 PUSH0 KECCAK256 ADD PUSH0 SWAP1 SWAP2 SWAP1 SWAP2 SWAP1 SWAP2 POP SSTORE PUSH0 PUSH1 0x3 SWAP1 DUP1 PUSH1 0x1 DUP2 SLOAD ADD DUP1 DUP3 SSTORE DUP1 SWAP2 POP POP PUSH1 0x1 SWAP1 SUB SWAP1 PUSH0 MSTORE PUSH1 0x20 PUSH0 KECCAK256 ADD PUSH0 SWAP1 SWAP2 SWAP1 SWAP2 SWAP1 SWAP2 POP SSTORE PUSH2 0x441 DUP1 PUSH2 0x8E PUSH0 CODECOPY PUSH0 RETURN INVALID PUSH1 0x80 PUSH1 0x40 MSTORE CALLVALUE DUP1 ISZERO PUSH2 0xF JUMPI PUSH0 PUSH0 REVERT JUMPDEST POP PUSH1 0x4 CALLDATASIZE LT PUSH2 0x3F JUMPI PUSH0 CALLDATALOAD PUSH1 0xE0 SHR DUP1 PUSH4 0x53ED5143 EQ PUSH2 0x43 JUMPI DUP1 PUSH4 0xC33FB877 EQ PUSH2 0x61 JUMPI DUP1 PUSH4 0xD39FA233 EQ PUSH2 0x7F JUMPI JUMPDEST PUSH0 PUSH0 REVERT JUMPDEST PUSH2 0x4B PUSH2 0xAF JUMP JUMPDEST PUSH1 0x40 MLOAD PUSH2 0x58 SWAP2 SWAP1 PUSH2 0x2A2 JUMP JUMPDEST PUSH1 0x40 MLOAD DUP1 SWAP2 SUB SWAP1 RETURN JUMPDEST PUSH2 0x69 PUSH2 0x104 JUMP JUMPDEST PUSH1 0x40 MLOAD PUSH2 0x76 SWAP2 SWAP1 PUSH2 0x2A2 JUMP JUMPDEST PUSH1 0x40 MLOAD DUP1 SWAP2 SUB SWAP1 RETURN JUMPDEST PUSH2 0x99 PUSH1 0x4 DUP1 CALLDATASIZE SUB DUP2 ADD SWAP1 PUSH2 0x94 SWAP2 SWAP1 PUSH2 0x2F0 JUMP JUMPDEST PUSH2 0x1C3 JUMP JUMPDEST PUSH1 0x40 MLOAD PUSH2 0xA6 SWAP2 SWAP1 PUSH2 0x32A JUMP JUMPDEST PUSH1 0x40 MLOAD DUP1 SWAP2 SUB SWAP1 RETURN JUMPDEST PUSH1 0x60 PUSH0 DUP1 SLOAD DUP1 PUSH1 0x20 MUL PUSH1 0x20 ADD PUSH1 0x40 MLOAD SWAP1 DUP2 ADD PUSH1 0x40 MSTORE DUP1 SWAP3 SWAP2 SWAP1 DUP2 DUP2 MSTORE PUSH1 0x20 ADD DUP3 DUP1 SLOAD DUP1 ISZERO PUSH2 0xFA JUMPI PUSH1 0x20 MUL DUP3 ADD SWAP2 SWAP1 PUSH0 MSTORE PUSH1 0x20 PUSH0 KECCAK256 SWAP1 JUMPDEST DUP2 SLOAD DUP2 MSTORE PUSH1 0x20 ADD SWAP1 PUSH1 0x1 ADD SWAP1 DUP1 DUP4 GT PUSH2 0xE6 JUMPI JUMPDEST POP POP POP POP POP SWAP1 POP SWAP1 JUMP JUMPDEST PUSH1 0x60 PUSH0 PUSH0 DUP1 SLOAD SWAP1 POP PUSH8 0xFFFFFFFFFFFFFFFF DUP2 GT ISZERO PUSH2 0x125 JUMPI PUSH2 0x124 PUSH2 0x343 JUMP JUMPDEST JUMPDEST PUSH1 0x40 MLOAD SWAP1 DUP1 DUP3 MSTORE DUP1 PUSH1 0x20 MUL PUSH1 0x20 ADD DUP3 ADD PUSH1 0x40 MSTORE DUP1 ISZERO PUSH2 0x153 JUMPI DUP2 PUSH1 0x20 ADD PUSH1 0x20 DUP3 MUL DUP1 CALLDATASIZE DUP4 CALLDATACOPY DUP1 DUP3 ADD SWAP2 POP POP SWAP1 POP JUMPDEST POP SWAP1 POP PUSH0 PUSH0 SWAP1 POP JUMPDEST PUSH0 DUP1 SLOAD SWAP1 POP DUP2 LT ISZERO PUSH2 0x1BB JUMPI PUSH1 0x2 PUSH0 DUP3 DUP2 SLOAD DUP2 LT PUSH2 0x17C JUMPI PUSH2 0x17B PUSH2 0x370 JUMP JUMPDEST JUMPDEST SWAP1 PUSH0 MSTORE PUSH1 0x20 PUSH0 KECCAK256 ADD SLOAD PUSH2 0x18F SWAP2 SWAP1 PUSH2 0x3CA JUMP JUMPDEST DUP3 DUP3 DUP2 MLOAD DUP2 LT PUSH2 0x1A2 JUMPI PUSH2 0x1A1 PUSH2 0x370 JUMP JUMPDEST JUMPDEST PUSH1 0x20 MUL PUSH1 0x20 ADD ADD DUP2 DUP2 MSTORE POP POP DUP1 DUP1 PUSH1 0x1 ADD SWAP2 POP POP PUSH2 0x15B JUMP JUMPDEST POP DUP1 SWAP2 POP POP SWAP1 JUMP JUMPDEST PUSH0 DUP2 DUP2 SLOAD DUP2 LT PUSH2 0x1D1 JUMPI PUSH0 DUP1 REVERT JUMPDEST SWAP1 PUSH0 MSTORE PUSH1 0x20 PUSH0 KECCAK256 ADD PUSH0 SWAP2 POP SWAP1 POP SLOAD DUP2 JUMP JUMPDEST PUSH0 DUP2 MLOAD SWAP1 POP SWAP2 SWAP1 POP JUMP JUMPDEST PUSH0 DUP3 DUP3 MSTORE PUSH1 0x20 DUP3 ADD SWAP1 POP SWAP3 SWAP2 POP POP JUMP JUMPDEST PUSH0 DUP2 SWAP1 POP PUSH1 0x20 DUP3 ADD SWAP1 POP SWAP2 SWAP1 POP JUMP JUMPDEST PUSH0 DUP2 SWAP1 POP SWAP2 SWAP1 POP JUMP JUMPDEST PUSH2 0x21D DUP2 PUSH2 0x20B JUMP JUMPDEST DUP3 MSTORE POP POP JUMP JUMPDEST PUSH0 PUSH2 0x22E DUP4 DUP4 PUSH2 0x214 JUMP JUMPDEST PUSH1 0x20 DUP4 ADD SWAP1 POP SWAP3 SWAP2 POP POP JUMP JUMPDEST PUSH0 PUSH1 0x20 DUP3 ADD SWAP1 POP SWAP2 SWAP1 POP JUMP JUMPDEST PUSH0 PUSH2 0x250 DUP3 PUSH2 0x1E2 JUMP JUMPDEST PUSH2 0x25A DUP2 DUP6 PUSH2 0x1EC JUMP JUMPDEST SWAP4 POP PUSH2 0x265 DUP4 PUSH2 0x1FC JUMP JUMPDEST DUP1 PUSH0 JUMPDEST DUP4 DUP2 LT ISZERO PUSH2 0x295 JUMPI DUP2 MLOAD PUSH2 0x27C DUP9 DUP3 PUSH2 0x223 JUMP JUMPDEST SWAP8 POP PUSH2 0x287 DUP4 PUSH2 0x23A JUMP JUMPDEST SWAP3 POP POP PUSH1 0x1 DUP2 ADD SWAP1 POP PUSH2 0x268 JUMP JUMPDEST POP DUP6 SWAP4 POP POP POP POP SWAP3 SWAP2 POP POP JUMP JUMPDEST PUSH0 PUSH1 0x20 DUP3 ADD SWAP1 POP DUP2 DUP2 SUB PUSH0 DUP4 ADD MSTORE PUSH2 0x2BA DUP2 DUP5 PUSH2 0x246 JUMP JUMPDEST SWAP1 POP SWAP3 SWAP2 POP POP JUMP JUMPDEST PUSH0 PUSH0 REVERT JUMPDEST PUSH2 0x2CF DUP2 PUSH2 0x20B JUMP JUMPDEST DUP2 EQ PUSH2 0x2D9 JUMPI PUSH0 PUSH0 REVERT JUMPDEST POP JUMP JUMPDEST PUSH0 DUP2 CALLDATALOAD SWAP1 POP PUSH2 0x2EA DUP2 PUSH2 0x2C6 JUMP JUMPDEST SWAP3 SWAP2 POP POP JUMP JUMPDEST PUSH0 PUSH1 0x20 DUP3 DUP5 SUB SLT ISZERO PUSH2 0x305 JUMPI PUSH2 0x304 PUSH2 0x2C2 JUMP JUMPDEST JUMPDEST PUSH0 PUSH2 0x312 DUP5 DUP3 DUP6 ADD PUSH2 0x2DC JUMP JUMPDEST SWAP2 POP POP SWAP3 SWAP2 POP POP JUMP JUMPDEST PUSH2 0x324 DUP2 PUSH2 0x20B JUMP JUMPDEST DUP3 MSTORE POP POP JUMP JUMPDEST PUSH0 PUSH1 0x20 DUP3 ADD SWAP1 POP PUSH2 0x33D PUSH0 DUP4 ADD DUP5 PUSH2 0x31B JUMP JUMPDEST SWAP3 SWAP2 POP POP JUMP JUMPDEST PUSH32 0x4E487B7100000000000000000000000000000000000000000000000000000000 PUSH0 MSTORE PUSH1 0x41 PUSH1 0x4 MSTORE PUSH1 0x24 PUSH0 REVERT JUMPDEST PUSH32 0x4E487B7100000000000000000000000000000000000000000000000000000000 PUSH0 MSTORE PUSH1 0x32 PUSH1 0x4 MSTORE PUSH1 0x24 PUSH0 REVERT JUMPDEST PUSH32 0x4E487B7100000000000000000000000000000000000000000000000000000000 PUSH0 MSTORE PUSH1 0x11 PUSH1 0x4 MSTORE PUSH1 0x24 PUSH0 REVERT JUMPDEST PUSH0 PUSH2 0x3D4 DUP3 PUSH2 0x20B JUMP JUMPDEST SWAP2 POP PUSH2 0x3DF DUP4 PUSH2 0x20B JUMP JUMPDEST SWAP3 POP DUP3 DUP3 MUL PUSH2 0x3ED DUP2 PUSH2 0x20B JUMP JUMPDEST SWAP2 POP DUP3 DUP3 DIV DUP5 EQ DUP4 ISZERO OR PUSH2 0x404 JUMPI PUSH2 0x403 PUSH2 0x39D JUMP JUMPDEST JUMPDEST POP SWAP3 SWAP2 POP POP JUMP INVALID LOG2 PUSH5 0x6970667358 0x22 SLT KECCAK256 EXTCODESIZE JUMPI SWAP6 DUP3 DUPN 0x2B CREATE2 0xD8 DUP16 EXTSTATICCALL 0xED PUSH27 0x18E204AF9BBA8D308C29C3B5A1FB1F5D30A0E61C64736F6C634300 ADDMOD 0x22 STOP CALLER "
		},
		"gasEstimates": {
			"creation": {
				"codeDepositCost": "217800",
				"executionCost": "139518",
				"totalCost": "357318"
			},
			"external": {
				"getAll()": "infinite",
				"numbers(uint256)": "infinite",
				"process()": "infinite"
			}
		},
		"methodIdentifiers": {
			"getAll()": "53ed5143",
			"numbers(uint256)": "d39fa233",
			"process()": "c33fb877"
		}
	},
	"abi": [
		{
			"inputs": [],
			"stateMutability": "nonpayable",
			"type": "constructor"
		},
		{
			"inputs": [],
			"name": "getAll",
			"outputs": [
				{
					"internalType": "uint256[]",
					"name": "",
					"type": "uint256[]"
				}
			],
			"stateMutability": "view",
			"type": "function"
		},
		{
			"inputs": [
				{
					"internalType": "uint256",
					"name": "",
					"type": "uint256"
				}
			],
			"name": "numbers",
			"outputs": [
				{
					"internalType": "uint256",
					"name": "",
					"type": "uint256"
				}
			],
			"stateMutability": "view",
			"type": "function"
		},
		{
			"inputs": [],
			"name": "process",
			"outputs": [
				{
					"internalType": "uint256[]",
					"name": "",
					"type": "uint256[]"
				}
			],
			"stateMutability": "view",
			"type": "function"
		}
	]
}