{
	"data": {
		"bytecode": {
			"linkReferences": {},
			"object": "608060405234801561000f575f5ffd5b5060408051808201909152601981527f48656c6c6f2c736f6c696469747920323032362d30342d31390000000000000060208201525f9061005090826100f9565b506101b7565b634e487b7160e01b5f52604160045260245ffd5b600181811c9082168061007e57607f821691505b60208210810361009c57634e487b7160e01b5f52602260045260245ffd5b50919050565b601f8211156100f457828211156100f457805f5260205f20601f840160051c60208510156100cd57505f5b90810190601f840160051c035f5b818110156100f0575f838201556001016100db565b5050505b505050565b81516001600160401b0381111561011257610112610056565b61012681610120845461006a565b846100a2565b6020601f821160018114610158575f83156101415750848201515b5f19600385901b1c1916600184901b1784556101b0565b5f84815260208120601f198516915b828110156101875787850151825560209485019460019092019101610167565b50848210156101a457868401515f19600387901b60f8161c191681555b505060018360011b0184555b5050505050565b610179806101c45f395ff3fe608060405234801561000f575f5ffd5b5060043610610029575f3560e01c8063e21f37ce1461002d575b5f5ffd5b61003561004b565b60405161004291906100d6565b60405180910390f35b5f80546100579061010b565b80601f01602080910402602001604051908101604052809291908181526020018280546100839061010b565b80156100ce5780601f106100a5576101008083540402835291602001916100ce565b820191905f5260205f20905b8154815290600101906020018083116100b157829003601f168201915b505050505081565b602081525f82518060208401528060208501604085015e5f604082850101526040601f19601f83011684010191505092915050565b600181811c9082168061011f57607f821691505b60208210810361013d57634e487b7160e01b5f52602260045260245ffd5b5091905056fea26469706673582212200bec0f864990b1c54dc8dda129af695ea930ebc58b749995ec93555fe446d6a664736f6c63430008220033",
			"opcodes": "PUSH1 0x80 PUSH1 0x40 MSTORE CALLVALUE DUP1 ISZERO PUSH2 0xF JUMPI PUSH0 PUSH0 REVERT JUMPDEST POP PUSH1 0x40 DUP1 MLOAD DUP1 DUP3 ADD SWAP1 SWAP2 MSTORE PUSH1 0x19 DUP2 MSTORE PUSH32 0x48656C6C6F2C736F6C696469747920323032362D30342D313900000000000000 PUSH1 0x20 DUP3 ADD MSTORE PUSH0 SWAP1 PUSH2 0x50 SWAP1 DUP3 PUSH2 0xF9 JUMP JUMPDEST POP PUSH2 0x1B7 JUMP JUMPDEST PUSH4 0x4E487B71 PUSH1 0xE0 SHL PUSH0 MSTORE PUSH1 0x41 PUSH1 0x4 MSTORE PUSH1 0x24 PUSH0 REVERT JUMPDEST PUSH1 0x1 DUP2 DUP2 SHR SWAP1 DUP3 AND DUP1 PUSH2 0x7E JUMPI PUSH1 0x7F DUP3 AND SWAP2 POP JUMPDEST PUSH1 0x20 DUP3 LT DUP2 SUB PUSH2 0x9C JUMPI PUSH4 0x4E487B71 PUSH1 0xE0 SHL PUSH0 MSTORE PUSH1 0x22 PUSH1 0x4 MSTORE PUSH1 0x24 PUSH0 REVERT JUMPDEST POP SWAP2 SWAP1 POP JUMP JUMPDEST PUSH1 0x1F DUP3 GT ISZERO PUSH2 0xF4 JUMPI DUP3 DUP3 GT ISZERO PUSH2 0xF4 JUMPI DUP1 PUSH0 MSTORE PUSH1 0x20 PUSH0 KECCAK256 PUSH1 0x1F DUP5 ADD PUSH1 0x5 SHR PUSH1 0x20 DUP6 LT ISZERO PUSH2 0xCD JUMPI POP PUSH0 JUMPDEST SWAP1 DUP2 ADD SWAP1 PUSH1 0x1F DUP5 ADD PUSH1 0x5 SHR SUB PUSH0 JUMPDEST DUP2 DUP2 LT ISZERO PUSH2 0xF0 JUMPI PUSH0 DUP4 DUP3 ADD SSTORE PUSH1 0x1 ADD PUSH2 0xDB JUMP JUMPDEST POP POP POP JUMPDEST POP POP POP JUMP JUMPDEST DUP2 MLOAD PUSH1 0x1 PUSH1 0x1 PUSH1 0x40 SHL SUB DUP2 GT ISZERO PUSH2 0x112 JUMPI PUSH2 0x112 PUSH2 0x56 JUMP JUMPDEST PUSH2 0x126 DUP2 PUSH2 0x120 DUP5 SLOAD PUSH2 0x6A JUMP JUMPDEST DUP5 PUSH2 0xA2 JUMP JUMPDEST PUSH1 0x20 PUSH1 0x1F DUP3 GT PUSH1 0x1 DUP2 EQ PUSH2 0x158 JUMPI PUSH0 DUP4 ISZERO PUSH2 0x141 JUMPI POP DUP5 DUP3 ADD MLOAD JUMPDEST PUSH0 NOT PUSH1 0x3 DUP6 SWAP1 SHL SHR NOT AND PUSH1 0x1 DUP5 SWAP1 SHL OR DUP5 SSTORE PUSH2 0x1B0 JUMP JUMPDEST PUSH0 DUP5 DUP2 MSTORE PUSH1 0x20 DUP2 KECCAK256 PUSH1 0x1F NOT DUP6 AND SWAP2 JUMPDEST DUP3 DUP2 LT ISZERO PUSH2 0x187 JUMPI DUP8 DUP6 ADD MLOAD DUP3 SSTORE PUSH1 0x20 SWAP5 DUP6 ADD SWAP5 PUSH1 0x1 SWAP1 SWAP3 ADD SWAP2 ADD PUSH2 0x167 JUMP JUMPDEST POP DUP5 DUP3 LT ISZERO PUSH2 0x1A4 JUMPI DUP7 DUP5 ADD MLOAD PUSH0 NOT PUSH1 0x3 DUP8 SWAP1 SHL PUSH1 0xF8 AND SHR NOT AND DUP2 SSTORE JUMPDEST POP POP PUSH1 0x1 DUP4 PUSH1 0x1 SHL ADD DUP5 SSTORE JUMPDEST POP POP POP POP POP JUMP JUMPDEST PUSH2 0x179 DUP1 PUSH2 0x1C4 PUSH0 CODECOPY PUSH0 RETURN INVALID PUSH1 0x80 PUSH1 0x40 MSTORE CALLVALUE DUP1 ISZERO PUSH2 0xF JUMPI PUSH0 PUSH0 REVERT JUMPDEST POP PUSH1 0x4 CALLDATASIZE LT PUSH2 0x29 JUMPI PUSH0 CALLDATALOAD PUSH1 0xE0 SHR DUP1 PUSH4 0xE21F37CE EQ PUSH2 0x2D JUMPI JUMPDEST PUSH0 PUSH0 REVERT JUMPDEST PUSH2 0x35 PUSH2 0x4B JUMP JUMPDEST PUSH1 0x40 MLOAD PUSH2 0x42 SWAP2 SWAP1 PUSH2 0xD6 JUMP JUMPDEST PUSH1 0x40 MLOAD DUP1 SWAP2 SUB SWAP1 RETURN JUMPDEST PUSH0 DUP1 SLOAD PUSH2 0x57 SWAP1 PUSH2 0x10B JUMP JUMPDEST DUP1 PUSH1 0x1F ADD PUSH1 0x20 DUP1 SWAP2 DIV MUL PUSH1 0x20 ADD PUSH1 0x40 MLOAD SWAP1 DUP2 ADD PUSH1 0x40 MSTORE DUP1 SWAP3 SWAP2 SWAP1 DUP2 DUP2 MSTORE PUSH1 0x20 ADD DUP3 DUP1 SLOAD PUSH2 0x83 SWAP1 PUSH2 0x10B JUMP JUMPDEST DUP1 ISZERO PUSH2 0xCE JUMPI DUP1 PUSH1 0x1F LT PUSH2 0xA5 JUMPI PUSH2 0x100 DUP1 DUP4 SLOAD DIV MUL DUP4 MSTORE SWAP2 PUSH1 0x20 ADD SWAP2 PUSH2 0xCE JUMP JUMPDEST DUP3 ADD SWAP2 SWAP1 PUSH0 MSTORE PUSH1 0x20 PUSH0 KECCAK256 SWAP1 JUMPDEST DUP2 SLOAD DUP2 MSTORE SWAP1 PUSH1 0x1 ADD SWAP1 PUSH1 0x20 ADD DUP1 DUP4 GT PUSH2 0xB1 JUMPI DUP3 SWAP1 SUB PUSH1 0x1F AND DUP3 ADD SWAP2 JUMPDEST POP POP POP POP POP DUP2 JUMP JUMPDEST PUSH1 0x20 DUP2 MSTORE PUSH0 DUP3 MLOAD DUP1 PUSH1 0x20 DUP5 ADD MSTORE DUP1 PUSH1 0x20 DUP6 ADD PUSH1 0x40 DUP6 ADD MCOPY PUSH0 PUSH1 0x40 DUP3 DUP6 ADD ADD MSTORE PUSH1 0x40 PUSH1 0x1F NOT PUSH1 0x1F DUP4 ADD AND DUP5 ADD ADD SWAP2 POP POP SWAP3 SWAP2 POP POP JUMP JUMPDEST PUSH1 0x1 DUP2 DUP2 SHR SWAP1 DUP3 AND DUP1 PUSH2 0x11F JUMPI PUSH1 0x7F DUP3 AND SWAP2 POP JUMPDEST PUSH1 0x20 DUP3 LT DUP2 SUB PUSH2 0x13D JUMPI PUSH4 0x4E487B71 PUSH1 0xE0 SHL PUSH0 MSTORE PUSH1 0x22 PUSH1 0x4 MSTORE PUSH1 0x24 PUSH0 REVERT JUMPDEST POP SWAP2 SWAP1 POP JUMP INVALID LOG2 PUSH5 0x6970667358 0x22 SLT KECCAK256 SIGNEXTEND EOFCREATE 0xF DUP7 BLOBHASH SWAP1 0xB1 0xC5 0x4D 0xC8 0xDD LOG1 0x29 0xAF PUSH10 0x5EA930EBC58B749995EC SWAP4 SSTORE PUSH0 RETF CHAINID 0xD6 0xA6 PUSH5 0x736F6C6343 STOP ADDMOD 0x22 STOP CALLER "
		},
		"gasEstimates": {
			"creation": {
				"codeDepositCost": "75400",
				"executionCost": "infinite",
				"totalCost": "infinite"
			},
			"external": {
				"message()": "infinite"
			}
		},
		"methodIdentifiers": {
			"message()": "e21f37ce"
		}
	},
	"abi": [
		{
			"inputs": [],
			"stateMutability": "nonpayable",
			"type": "constructor"
		},
		{
			"inputs": [],
			"name": "message",
			"outputs": [
				{
					"internalType": "string",
					"name": "",
					"type": "string"
				}
			],
			"stateMutability": "view",
			"type": "function"
		}
	]
}