{
	"data": {
		"bytecode": {
			"linkReferences": {},
			"object": "6080604052348015600e575f5ffd5b506101a48061001c5f395ff3fe608060405234801561000f575f5ffd5b5060043610610034575f3560e01c80634771fa59146100385780635a550c4f14610056575b5f5ffd5b610040610074565b60405161004d91906100c0565b60405180910390f35b61005e61008c565b60405161006b91906100c0565b60405180910390f35b5f5f5f90506001816100869190610106565b91505090565b5f5f60ff905060018161009f919061013a565b91505090565b5f60ff82169050919050565b6100ba816100a5565b82525050565b5f6020820190506100d35f8301846100b1565b92915050565b7f4e487b71000000000000000000000000000000000000000000000000000000005f52601160045260245ffd5b5f610110826100a5565b915061011b836100a5565b9250828203905060ff811115610134576101336100d9565b5b92915050565b5f610144826100a5565b915061014f836100a5565b9250828201905060ff811115610168576101676100d9565b5b9291505056fea26469706673582212203b4863333c24d214de05902a017b59359eea23b6d38ca6a99c1581af51b6e80a64736f6c63430008220033",
			"opcodes": "PUSH1 0x80 PUSH1 0x40 MSTORE CALLVALUE DUP1 ISZERO PUSH1 0xE JUMPI PUSH0 PUSH0 REVERT JUMPDEST POP PUSH2 0x1A4 DUP1 PUSH2 0x1C PUSH0 CODECOPY PUSH0 RETURN INVALID PUSH1 0x80 PUSH1 0x40 MSTORE CALLVALUE DUP1 ISZERO PUSH2 0xF JUMPI PUSH0 PUSH0 REVERT JUMPDEST POP PUSH1 0x4 CALLDATASIZE LT PUSH2 0x34 JUMPI PUSH0 CALLDATALOAD PUSH1 0xE0 SHR DUP1 PUSH4 0x4771FA59 EQ PUSH2 0x38 JUMPI DUP1 PUSH4 0x5A550C4F EQ PUSH2 0x56 JUMPI JUMPDEST PUSH0 PUSH0 REVERT JUMPDEST PUSH2 0x40 PUSH2 0x74 JUMP JUMPDEST PUSH1 0x40 MLOAD PUSH2 0x4D SWAP2 SWAP1 PUSH2 0xC0 JUMP JUMPDEST PUSH1 0x40 MLOAD DUP1 SWAP2 SUB SWAP1 RETURN JUMPDEST PUSH2 0x5E PUSH2 0x8C JUMP JUMPDEST PUSH1 0x40 MLOAD PUSH2 0x6B SWAP2 SWAP1 PUSH2 0xC0 JUMP JUMPDEST PUSH1 0x40 MLOAD DUP1 SWAP2 SUB SWAP1 RETURN JUMPDEST PUSH0 PUSH0 PUSH0 SWAP1 POP PUSH1 0x1 DUP2 PUSH2 0x86 SWAP2 SWAP1 PUSH2 0x106 JUMP JUMPDEST SWAP2 POP POP SWAP1 JUMP JUMPDEST PUSH0 PUSH0 PUSH1 0xFF SWAP1 POP PUSH1 0x1 DUP2 PUSH2 0x9F SWAP2 SWAP1 PUSH2 0x13A JUMP JUMPDEST SWAP2 POP POP SWAP1 JUMP JUMPDEST PUSH0 PUSH1 0xFF DUP3 AND SWAP1 POP SWAP2 SWAP1 POP JUMP JUMPDEST PUSH2 0xBA DUP2 PUSH2 0xA5 JUMP JUMPDEST DUP3 MSTORE POP POP JUMP JUMPDEST PUSH0 PUSH1 0x20 DUP3 ADD SWAP1 POP PUSH2 0xD3 PUSH0 DUP4 ADD DUP5 PUSH2 0xB1 JUMP JUMPDEST SWAP3 SWAP2 POP POP JUMP JUMPDEST PUSH32 0x4E487B7100000000000000000000000000000000000000000000000000000000 PUSH0 MSTORE PUSH1 0x11 PUSH1 0x4 MSTORE PUSH1 0x24 PUSH0 REVERT JUMPDEST PUSH0 PUSH2 0x110 DUP3 PUSH2 0xA5 JUMP JUMPDEST SWAP2 POP PUSH2 0x11B DUP4 PUSH2 0xA5 JUMP JUMPDEST SWAP3 POP DUP3 DUP3 SUB SWAP1 POP PUSH1 0xFF DUP2 GT ISZERO PUSH2 0x134 JUMPI PUSH2 0x133 PUSH2 0xD9 JUMP JUMPDEST JUMPDEST SWAP3 SWAP2 POP POP JUMP JUMPDEST PUSH0 PUSH2 0x144 DUP3 PUSH2 0xA5 JUMP JUMPDEST SWAP2 POP PUSH2 0x14F DUP4 PUSH2 0xA5 JUMP JUMPDEST SWAP3 POP DUP3 DUP3 ADD SWAP1 POP PUSH1 0xFF DUP2 GT ISZERO PUSH2 0x168 JUMPI PUSH2 0x167 PUSH2 0xD9 JUMP JUMPDEST JUMPDEST SWAP3 SWAP2 POP POP JUMP INVALID LOG2 PUSH5 0x6970667358 0x22 SLT KECCAK256 EXTCODESIZE BASEFEE PUSH4 0x333C24D2 EQ 0xDE SDIV SWAP1 0x2A ADD PUSH28 0x59359EEA23B6D38CA6A99C1581AF51B6E80A64736F6C634300082200 CALLER "
		},
		"gasEstimates": {
			"creation": {
				"codeDepositCost": "84000",
				"executionCost": "133",
				"totalCost": "84133"
			},
			"external": {
				"testIntegerOverflow()": "infinite",
				"testIntegerUnderflow()": "infinite"
			}
		},
		"methodIdentifiers": {
			"testIntegerOverflow()": "5a550c4f",
			"testIntegerUnderflow()": "4771fa59"
		}
	},
	"abi": [
		{
			"inputs": [],
			"name": "testIntegerOverflow",
			"outputs": [
				{
					"internalType": "uint8",
					"name": "",
					"type": "uint8"
				}
			],
			"stateMutability": "pure",
			"type": "function"
		},
		{
			"inputs": [],
			"name": "testIntegerUnderflow",
			"outputs": [
				{
					"internalType": "uint8",
					"name": "",
					"type": "uint8"
				}
			],
			"stateMutability": "pure",
			"type": "function"
		}
	]
}