{
	"data": {
		"bytecode": {
			"linkReferences": {},
			"object": "608060405260ff5f5f6101000a81548160ff021916908360ff1602179055503480156028575f5ffd5b5061023d806100365f395ff3fe608060405234801561000f575f5ffd5b5060043610610034575f3560e01c80630c55699c146100385780634f2be91f14610056575b5f5ffd5b610040610060565b60405161004d9190610115565b60405180910390f35b61005e610071565b005b5f5f9054906101000a900460ff1681565b60ff80165f5f9054906101000a900460ff1660ff16106100c6576040517f08c379a00000000000000000000000000000000000000000000000000000000081526004016100bd90610188565b60405180910390fd5b60015f5f9054906101000a900460ff166100e091906101d3565b5f5f6101000a81548160ff021916908360ff160217905550565b5f60ff82169050919050565b61010f816100fa565b82525050565b5f6020820190506101285f830184610106565b92915050565b5f82825260208201905092915050565b7fe8b685e8bf8775696e7438e79a84e69c80e5a4a7e580bc0000000000000000005f82015250565b5f61017260178361012e565b915061017d8261013e565b602082019050919050565b5f6020820190508181035f83015261019f81610166565b9050919050565b7f4e487b71000000000000000000000000000000000000000000000000000000005f52601160045260245ffd5b5f6101dd826100fa565b91506101e8836100fa565b9250828201905060ff811115610201576102006101a6565b5b9291505056fea2646970667358221220a01ca02cae8157aa351c7d608bf869e20ad862a8fab2b2c249a3209f5c08e15964736f6c63430008220033",
			"opcodes": "PUSH1 0x80 PUSH1 0x40 MSTORE PUSH1 0xFF PUSH0 PUSH0 PUSH2 0x100 EXP DUP2 SLOAD DUP2 PUSH1 0xFF MUL NOT AND SWAP1 DUP4 PUSH1 0xFF AND MUL OR SWAP1 SSTORE POP CALLVALUE DUP1 ISZERO PUSH1 0x28 JUMPI PUSH0 PUSH0 REVERT JUMPDEST POP PUSH2 0x23D DUP1 PUSH2 0x36 PUSH0 CODECOPY PUSH0 RETURN INVALID PUSH1 0x80 PUSH1 0x40 MSTORE CALLVALUE DUP1 ISZERO PUSH2 0xF JUMPI PUSH0 PUSH0 REVERT JUMPDEST POP PUSH1 0x4 CALLDATASIZE LT PUSH2 0x34 JUMPI PUSH0 CALLDATALOAD PUSH1 0xE0 SHR DUP1 PUSH4 0xC55699C EQ PUSH2 0x38 JUMPI DUP1 PUSH4 0x4F2BE91F EQ PUSH2 0x56 JUMPI JUMPDEST PUSH0 PUSH0 REVERT JUMPDEST PUSH2 0x40 PUSH2 0x60 JUMP JUMPDEST PUSH1 0x40 MLOAD PUSH2 0x4D SWAP2 SWAP1 PUSH2 0x115 JUMP JUMPDEST PUSH1 0x40 MLOAD DUP1 SWAP2 SUB SWAP1 RETURN JUMPDEST PUSH2 0x5E PUSH2 0x71 JUMP JUMPDEST STOP JUMPDEST PUSH0 PUSH0 SWAP1 SLOAD SWAP1 PUSH2 0x100 EXP SWAP1 DIV PUSH1 0xFF AND DUP2 JUMP JUMPDEST PUSH1 0xFF DUP1 AND PUSH0 PUSH0 SWAP1 SLOAD SWAP1 PUSH2 0x100 EXP SWAP1 DIV PUSH1 0xFF AND PUSH1 0xFF AND LT PUSH2 0xC6 JUMPI PUSH1 0x40 MLOAD PUSH32 0x8C379A000000000000000000000000000000000000000000000000000000000 DUP2 MSTORE PUSH1 0x4 ADD PUSH2 0xBD SWAP1 PUSH2 0x188 JUMP JUMPDEST PUSH1 0x40 MLOAD DUP1 SWAP2 SUB SWAP1 REVERT JUMPDEST PUSH1 0x1 PUSH0 PUSH0 SWAP1 SLOAD SWAP1 PUSH2 0x100 EXP SWAP1 DIV PUSH1 0xFF AND PUSH2 0xE0 SWAP2 SWAP1 PUSH2 0x1D3 JUMP JUMPDEST PUSH0 PUSH0 PUSH2 0x100 EXP DUP2 SLOAD DUP2 PUSH1 0xFF MUL NOT AND SWAP1 DUP4 PUSH1 0xFF AND MUL OR SWAP1 SSTORE POP JUMP JUMPDEST PUSH0 PUSH1 0xFF DUP3 AND SWAP1 POP SWAP2 SWAP1 POP JUMP JUMPDEST PUSH2 0x10F DUP2 PUSH2 0xFA JUMP JUMPDEST DUP3 MSTORE POP POP JUMP JUMPDEST PUSH0 PUSH1 0x20 DUP3 ADD SWAP1 POP PUSH2 0x128 PUSH0 DUP4 ADD DUP5 PUSH2 0x106 JUMP JUMPDEST SWAP3 SWAP2 POP POP JUMP JUMPDEST PUSH0 DUP3 DUP3 MSTORE PUSH1 0x20 DUP3 ADD SWAP1 POP SWAP3 SWAP2 POP POP JUMP JUMPDEST PUSH32 0xE8B685E8BF8775696E7438E79A84E69C80E5A4A7E580BC000000000000000000 PUSH0 DUP3 ADD MSTORE POP JUMP JUMPDEST PUSH0 PUSH2 0x172 PUSH1 0x17 DUP4 PUSH2 0x12E JUMP JUMPDEST SWAP2 POP PUSH2 0x17D DUP3 PUSH2 0x13E JUMP JUMPDEST PUSH1 0x20 DUP3 ADD SWAP1 POP SWAP2 SWAP1 POP JUMP JUMPDEST PUSH0 PUSH1 0x20 DUP3 ADD SWAP1 POP DUP2 DUP2 SUB PUSH0 DUP4 ADD MSTORE PUSH2 0x19F DUP2 PUSH2 0x166 JUMP JUMPDEST SWAP1 POP SWAP2 SWAP1 POP JUMP JUMPDEST PUSH32 0x4E487B7100000000000000000000000000000000000000000000000000000000 PUSH0 MSTORE PUSH1 0x11 PUSH1 0x4 MSTORE PUSH1 0x24 PUSH0 REVERT JUMPDEST PUSH0 PUSH2 0x1DD DUP3 PUSH2 0xFA JUMP JUMPDEST SWAP2 POP PUSH2 0x1E8 DUP4 PUSH2 0xFA JUMP JUMPDEST SWAP3 POP DUP3 DUP3 ADD SWAP1 POP PUSH1 0xFF DUP2 GT ISZERO PUSH2 0x201 JUMPI PUSH2 0x200 PUSH2 0x1A6 JUMP JUMPDEST JUMPDEST SWAP3 SWAP2 POP POP JUMP INVALID LOG2 PUSH5 0x6970667358 0x22 SLT KECCAK256 LOG0 SHR LOG0 0x2C 0xAE DUP2 JUMPI 0xAA CALLDATALOAD SHR PUSH30 0x608BF869E20AD862A8FAB2B2C249A3209F5C08E15964736F6C6343000822 STOP CALLER "
		},
		"gasEstimates": {
			"creation": {
				"codeDepositCost": "114600",
				"executionCost": "24422",
				"totalCost": "139022"
			},
			"external": {
				"add()": "infinite",
				"x()": "2443"
			}
		},
		"methodIdentifiers": {
			"add()": "4f2be91f",
			"x()": "0c55699c"
		}
	},
	"abi": [
		{
			"inputs": [],
			"name": "add",
			"outputs": [],
			"stateMutability": "nonpayable",
			"type": "function"
		},
		{
			"inputs": [],
			"name": "x",
			"outputs": [
				{
					"internalType": "uint8",
					"name": "",
					"type": "uint8"
				}
			],
			"stateMutability": "view",
			"type": "function"
		}
	]
}