{
	"data": {
		"bytecode": {
			"linkReferences": {},
			"object": "60806040526040518060a00160405280600160ff168152602001600260ff168152602001600360ff168152602001600460ff168152602001600560ff168152505f908161004c9190610263565b50348015610058575f5ffd5b506102e7565b7f4e487b71000000000000000000000000000000000000000000000000000000005f52604160045260245ffd5b5f81549050919050565b5f819050919050565b5f8190506001806001038301049050919050565b5f819050815f5260205f209050919050565b5f82821b905092915050565b5f600883026100ff7fffffffffffffffffffffffffffffffffffffffffffffffffffffffffffffffff826100c4565b61010986836100c4565b95508019841693508086168417925050509392505050565b5f819050919050565b5f61014461013f61013a84610095565b610121565b610095565b9050919050565b5f819050919050565b61015d8361012a565b6101716101698261014b565b8484546100d0565b825550505050565b5f5f905090565b610188610179565b610193818484610154565b505050565b5f5b828110156101b9576101ae5f828401610180565b60018101905061019a565b505050565b818310156101f5576101cf8261009e565b6101d88461009e565b6101e1836100b2565b8181016101f083850382610198565b505050505b505050565b680100000000000000008211156102145761021361005e565b5b61021d8161008b565b82825561022b8382846101be565b505050565b5f60059050919050565b5f60ff82169050919050565b5f610251825161023a565b80915050919050565b5f819050919050565b61026c82610230565b67ffffffffffffffff8111156102855761028461005e565b5b61028f81836101fa565b6102988361025a565b6102a1836100b2565b600183045f5b818110156102de575f6102b985610246565b6102c28161014b565b80925060208701965050508082850155506001810190506102a7565b50505050505050565b6109fc806102f45f395ff3fe608060405234801561000f575f5ffd5b5060043610610055575f3560e01c806307869c4d146100595780636464313c146100895780637cf5dab0146100b9578063d39fa233146100e9578063e103aef514610119575b5f5ffd5b610073600480360381019061006e919061067b565b610137565b60405161008091906107a8565b60405180910390f35b6100a3600480360381019061009e91906107c8565b6102a3565b6040516100b091906107a8565b60405180910390f35b6100d360048036038101906100ce9190610806565b610361565b6040516100e091906107a8565b60405180910390f35b61010360048036038101906100fe9190610806565b610430565b6040516101109190610840565b60405180910390f35b61012161044f565b60405161012e91906107a8565b60405180910390f35b6060815183511461017d576040517f08c379a0000000000000000000000000000000000000000000000000000000008152600401610174906108b3565b60405180910390fd5b5f5f90505b835181101561024c575f805490508482815181106101a3576101a26108d1565b5b6020026020010151106101eb576040517f08c379a00000000000000000000000000000000000000000000000000000000081526004016101e290610948565b60405180910390fd5b8281815181106101fe576101fd6108d1565b5b60200260200101515f85838151811061021a576102196108d1565b5b602002602001015181548110610233576102326108d1565b5b905f5260205f2001819055508080600101915050610182565b505f80548060200260200160405190810160405280929190818152602001828054801561029657602002820191905f5260205f20905b815481526020019060010190808311610282575b5050505050905092915050565b60605f8054905083106102eb576040517f08c379a00000000000000000000000000000000000000000000000000000000081526004016102e290610948565b60405180910390fd5b815f84815481106102ff576102fe6108d1565b5b905f5260205f2001819055505f80548060200260200160405190810160405280929190818152602001828054801561035457602002820191905f5260205f20905b815481526020019060010190808311610340575b5050505050905092915050565b60605f8054905082106103a9576040517f08c379a00000000000000000000000000000000000000000000000000000000081526004016103a090610948565b60405180910390fd5b60015f83815481106103be576103bd6108d1565b5b905f5260205f20015f8282546103d49190610993565b925050819055505f80548060200260200160405190810160405280929190818152602001828054801561042457602002820191905f5260205f20905b815481526020019060010190808311610410575b50505050509050919050565b5f818154811061043e575f80fd5b905f5260205f20015f915090505481565b60605f5f61045d91906104b0565b5f8054806020026020016040519081016040528092919081815260200182805480156104a657602002820191905f5260205f20905b815481526020019060010190808311610492575b5050505050905090565b5080545f8255905f5260205f20906104c891906104ca565b565b5f5b808211156104e2578281015f90556001016104cc565b505050565b5f604051905090565b5f5ffd5b5f5ffd5b5f5ffd5b5f601f19601f8301169050919050565b7f4e487b71000000000000000000000000000000000000000000000000000000005f52604160045260245ffd5b610542826104fc565b810181811067ffffffffffffffff821117156105615761056061050c565b5b80604052505050565b5f6105736104e7565b905061057f8282610539565b919050565b5f67ffffffffffffffff82111561059e5761059d61050c565b5b602082029050602081019050919050565b5f5ffd5b5f819050919050565b6105c5816105b3565b81146105cf575f5ffd5b50565b5f813590506105e0816105bc565b92915050565b5f6105f86105f384610584565b61056a565b9050808382526020820190506020840283018581111561061b5761061a6105af565b5b835b81811015610644578061063088826105d2565b84526020840193505060208101905061061d565b5050509392505050565b5f82601f830112610662576106616104f8565b5b81356106728482602086016105e6565b91505092915050565b5f5f60408385031215610691576106906104f0565b5b5f83013567ffffffffffffffff8111156106ae576106ad6104f4565b5b6106ba8582860161064e565b925050602083013567ffffffffffffffff8111156106db576106da6104f4565b5b6106e78582860161064e565b9150509250929050565b5f81519050919050565b5f82825260208201905092915050565b5f819050602082019050919050565b610723816105b3565b82525050565b5f610734838361071a565b60208301905092915050565b5f602082019050919050565b5f610756826106f1565b61076081856106fb565b935061076b8361070b565b805f5b8381101561079b5781516107828882610729565b975061078d83610740565b92505060018101905061076e565b5085935050505092915050565b5f6020820190508181035f8301526107c0818461074c565b905092915050565b5f5f604083850312156107de576107dd6104f0565b5b5f6107eb858286016105d2565b92505060206107fc858286016105d2565b9150509250929050565b5f6020828403121561081b5761081a6104f0565b5b5f610828848285016105d2565b91505092915050565b61083a816105b3565b82525050565b5f6020820190506108535f830184610831565b92915050565b5f82825260208201905092915050565b7fe695b0e7bb84e995bfe5baa6e4b88de58cb9e9858d00000000000000000000005f82015250565b5f61089d601583610859565b91506108a882610869565b602082019050919050565b5f6020820190508181035f8301526108ca81610891565b9050919050565b7f4e487b71000000000000000000000000000000000000000000000000000000005f52603260045260245ffd5b7fe695b0e7bb84e4b88be6a087e8b68ae7958c00000000000000000000000000005f82015250565b5f610932601283610859565b915061093d826108fe565b602082019050919050565b5f6020820190508181035f83015261095f81610926565b9050919050565b7f4e487b71000000000000000000000000000000000000000000000000000000005f52601160045260245ffd5b5f61099d826105b3565b91506109a8836105b3565b92508282019050808211156109c0576109bf610966565b5b9291505056fea264697066735822122063eb0b3daa7a9f365b1ab47c7705a28892bdd254f5cef7d86359d1db6f5a348764736f6c63430008220033",
			"opcodes": "PUSH1 0x80 PUSH1 0x40 MSTORE PUSH1 0x40 MLOAD DUP1 PUSH1 0xA0 ADD PUSH1 0x40 MSTORE DUP1 PUSH1 0x1 PUSH1 0xFF AND DUP2 MSTORE PUSH1 0x20 ADD PUSH1 0x2 PUSH1 0xFF AND DUP2 MSTORE PUSH1 0x20 ADD PUSH1 0x3 PUSH1 0xFF AND DUP2 MSTORE PUSH1 0x20 ADD PUSH1 0x4 PUSH1 0xFF AND DUP2 MSTORE PUSH1 0x20 ADD PUSH1 0x5 PUSH1 0xFF AND DUP2 MSTORE POP PUSH0 SWAP1 DUP2 PUSH2 0x4C SWAP2 SWAP1 PUSH2 0x263 JUMP JUMPDEST POP CALLVALUE DUP1 ISZERO PUSH2 0x58 JUMPI PUSH0 PUSH0 REVERT JUMPDEST POP PUSH2 0x2E7 JUMP JUMPDEST PUSH32 0x4E487B7100000000000000000000000000000000000000000000000000000000 PUSH0 MSTORE PUSH1 0x41 PUSH1 0x4 MSTORE PUSH1 0x24 PUSH0 REVERT JUMPDEST PUSH0 DUP2 SLOAD SWAP1 POP SWAP2 SWAP1 POP JUMP JUMPDEST PUSH0 DUP2 SWAP1 POP SWAP2 SWAP1 POP JUMP JUMPDEST PUSH0 DUP2 SWAP1 POP PUSH1 0x1 DUP1 PUSH1 0x1 SUB DUP4 ADD DIV SWAP1 POP SWAP2 SWAP1 POP JUMP JUMPDEST PUSH0 DUP2 SWAP1 POP DUP2 PUSH0 MSTORE PUSH1 0x20 PUSH0 KECCAK256 SWAP1 POP SWAP2 SWAP1 POP JUMP JUMPDEST PUSH0 DUP3 DUP3 SHL SWAP1 POP SWAP3 SWAP2 POP POP JUMP JUMPDEST PUSH0 PUSH1 0x8 DUP4 MUL PUSH2 0xFF PUSH32 0xFFFFFFFFFFFFFFFFFFFFFFFFFFFFFFFFFFFFFFFFFFFFFFFFFFFFFFFFFFFFFFFF DUP3 PUSH2 0xC4 JUMP JUMPDEST PUSH2 0x109 DUP7 DUP4 PUSH2 0xC4 JUMP JUMPDEST SWAP6 POP DUP1 NOT DUP5 AND SWAP4 POP DUP1 DUP7 AND DUP5 OR SWAP3 POP POP POP SWAP4 SWAP3 POP POP POP JUMP JUMPDEST PUSH0 DUP2 SWAP1 POP SWAP2 SWAP1 POP JUMP JUMPDEST PUSH0 PUSH2 0x144 PUSH2 0x13F PUSH2 0x13A DUP5 PUSH2 0x95 JUMP JUMPDEST PUSH2 0x121 JUMP JUMPDEST PUSH2 0x95 JUMP JUMPDEST SWAP1 POP SWAP2 SWAP1 POP JUMP JUMPDEST PUSH0 DUP2 SWAP1 POP SWAP2 SWAP1 POP JUMP JUMPDEST PUSH2 0x15D DUP4 PUSH2 0x12A JUMP JUMPDEST PUSH2 0x171 PUSH2 0x169 DUP3 PUSH2 0x14B JUMP JUMPDEST DUP5 DUP5 SLOAD PUSH2 0xD0 JUMP JUMPDEST DUP3 SSTORE POP POP POP POP JUMP JUMPDEST PUSH0 PUSH0 SWAP1 POP SWAP1 JUMP JUMPDEST PUSH2 0x188 PUSH2 0x179 JUMP JUMPDEST PUSH2 0x193 DUP2 DUP5 DUP5 PUSH2 0x154 JUMP JUMPDEST POP POP POP JUMP JUMPDEST PUSH0 JUMPDEST DUP3 DUP2 LT ISZERO PUSH2 0x1B9 JUMPI PUSH2 0x1AE PUSH0 DUP3 DUP5 ADD PUSH2 0x180 JUMP JUMPDEST PUSH1 0x1 DUP2 ADD SWAP1 POP PUSH2 0x19A JUMP JUMPDEST POP POP POP JUMP JUMPDEST DUP2 DUP4 LT ISZERO PUSH2 0x1F5 JUMPI PUSH2 0x1CF DUP3 PUSH2 0x9E JUMP JUMPDEST PUSH2 0x1D8 DUP5 PUSH2 0x9E JUMP JUMPDEST PUSH2 0x1E1 DUP4 PUSH2 0xB2 JUMP JUMPDEST DUP2 DUP2 ADD PUSH2 0x1F0 DUP4 DUP6 SUB DUP3 PUSH2 0x198 JUMP JUMPDEST POP POP POP POP JUMPDEST POP POP POP JUMP JUMPDEST PUSH9 0x10000000000000000 DUP3 GT ISZERO PUSH2 0x214 JUMPI PUSH2 0x213 PUSH2 0x5E JUMP JUMPDEST JUMPDEST PUSH2 0x21D DUP2 PUSH2 0x8B JUMP JUMPDEST DUP3 DUP3 SSTORE PUSH2 0x22B DUP4 DUP3 DUP5 PUSH2 0x1BE JUMP JUMPDEST POP POP POP JUMP JUMPDEST PUSH0 PUSH1 0x5 SWAP1 POP SWAP2 SWAP1 POP JUMP JUMPDEST PUSH0 PUSH1 0xFF DUP3 AND SWAP1 POP SWAP2 SWAP1 POP JUMP JUMPDEST PUSH0 PUSH2 0x251 DUP3 MLOAD PUSH2 0x23A JUMP JUMPDEST DUP1 SWAP2 POP POP SWAP2 SWAP1 POP JUMP JUMPDEST PUSH0 DUP2 SWAP1 POP SWAP2 SWAP1 POP JUMP JUMPDEST PUSH2 0x26C DUP3 PUSH2 0x230 JUMP JUMPDEST PUSH8 0xFFFFFFFFFFFFFFFF DUP2 GT ISZERO PUSH2 0x285 JUMPI PUSH2 0x284 PUSH2 0x5E JUMP JUMPDEST JUMPDEST PUSH2 0x28F DUP2 DUP4 PUSH2 0x1FA JUMP JUMPDEST PUSH2 0x298 DUP4 PUSH2 0x25A JUMP JUMPDEST PUSH2 0x2A1 DUP4 PUSH2 0xB2 JUMP JUMPDEST PUSH1 0x1 DUP4 DIV PUSH0 JUMPDEST DUP2 DUP2 LT ISZERO PUSH2 0x2DE JUMPI PUSH0 PUSH2 0x2B9 DUP6 PUSH2 0x246 JUMP JUMPDEST PUSH2 0x2C2 DUP2 PUSH2 0x14B JUMP JUMPDEST DUP1 SWAP3 POP PUSH1 0x20 DUP8 ADD SWAP7 POP POP POP DUP1 DUP3 DUP6 ADD SSTORE POP PUSH1 0x1 DUP2 ADD SWAP1 POP PUSH2 0x2A7 JUMP JUMPDEST POP POP POP POP POP POP POP JUMP JUMPDEST PUSH2 0x9FC DUP1 PUSH2 0x2F4 PUSH0 CODECOPY PUSH0 RETURN INVALID PUSH1 0x80 PUSH1 0x40 MSTORE CALLVALUE DUP1 ISZERO PUSH2 0xF JUMPI PUSH0 PUSH0 REVERT JUMPDEST POP PUSH1 0x4 CALLDATASIZE LT PUSH2 0x55 JUMPI PUSH0 CALLDATALOAD PUSH1 0xE0 SHR DUP1 PUSH4 0x7869C4D EQ PUSH2 0x59 JUMPI DUP1 PUSH4 0x6464313C EQ PUSH2 0x89 JUMPI DUP1 PUSH4 0x7CF5DAB0 EQ PUSH2 0xB9 JUMPI DUP1 PUSH4 0xD39FA233 EQ PUSH2 0xE9 JUMPI DUP1 PUSH4 0xE103AEF5 EQ PUSH2 0x119 JUMPI JUMPDEST PUSH0 PUSH0 REVERT JUMPDEST PUSH2 0x73 PUSH1 0x4 DUP1 CALLDATASIZE SUB DUP2 ADD SWAP1 PUSH2 0x6E SWAP2 SWAP1 PUSH2 0x67B JUMP JUMPDEST PUSH2 0x137 JUMP JUMPDEST PUSH1 0x40 MLOAD PUSH2 0x80 SWAP2 SWAP1 PUSH2 0x7A8 JUMP JUMPDEST PUSH1 0x40 MLOAD DUP1 SWAP2 SUB SWAP1 RETURN JUMPDEST PUSH2 0xA3 PUSH1 0x4 DUP1 CALLDATASIZE SUB DUP2 ADD SWAP1 PUSH2 0x9E SWAP2 SWAP1 PUSH2 0x7C8 JUMP JUMPDEST PUSH2 0x2A3 JUMP JUMPDEST PUSH1 0x40 MLOAD PUSH2 0xB0 SWAP2 SWAP1 PUSH2 0x7A8 JUMP JUMPDEST PUSH1 0x40 MLOAD DUP1 SWAP2 SUB SWAP1 RETURN JUMPDEST PUSH2 0xD3 PUSH1 0x4 DUP1 CALLDATASIZE SUB DUP2 ADD SWAP1 PUSH2 0xCE SWAP2 SWAP1 PUSH2 0x806 JUMP JUMPDEST PUSH2 0x361 JUMP JUMPDEST PUSH1 0x40 MLOAD PUSH2 0xE0 SWAP2 SWAP1 PUSH2 0x7A8 JUMP JUMPDEST PUSH1 0x40 MLOAD DUP1 SWAP2 SUB SWAP1 RETURN JUMPDEST PUSH2 0x103 PUSH1 0x4 DUP1 CALLDATASIZE SUB DUP2 ADD SWAP1 PUSH2 0xFE SWAP2 SWAP1 PUSH2 0x806 JUMP JUMPDEST PUSH2 0x430 JUMP JUMPDEST PUSH1 0x40 MLOAD PUSH2 0x110 SWAP2 SWAP1 PUSH2 0x840 JUMP JUMPDEST PUSH1 0x40 MLOAD DUP1 SWAP2 SUB SWAP1 RETURN JUMPDEST PUSH2 0x121 PUSH2 0x44F JUMP JUMPDEST PUSH1 0x40 MLOAD PUSH2 0x12E SWAP2 SWAP1 PUSH2 0x7A8 JUMP JUMPDEST PUSH1 0x40 MLOAD DUP1 SWAP2 SUB SWAP1 RETURN JUMPDEST PUSH1 0x60 DUP2 MLOAD DUP4 MLOAD EQ PUSH2 0x17D JUMPI PUSH1 0x40 MLOAD PUSH32 0x8C379A000000000000000000000000000000000000000000000000000000000 DUP2 MSTORE PUSH1 0x4 ADD PUSH2 0x174 SWAP1 PUSH2 0x8B3 JUMP JUMPDEST PUSH1 0x40 MLOAD DUP1 SWAP2 SUB SWAP1 REVERT JUMPDEST PUSH0 PUSH0 SWAP1 POP JUMPDEST DUP4 MLOAD DUP2 LT ISZERO PUSH2 0x24C JUMPI PUSH0 DUP1 SLOAD SWAP1 POP DUP5 DUP3 DUP2 MLOAD DUP2 LT PUSH2 0x1A3 JUMPI PUSH2 0x1A2 PUSH2 0x8D1 JUMP JUMPDEST JUMPDEST PUSH1 0x20 MUL PUSH1 0x20 ADD ADD MLOAD LT PUSH2 0x1EB JUMPI PUSH1 0x40 MLOAD PUSH32 0x8C379A000000000000000000000000000000000000000000000000000000000 DUP2 MSTORE PUSH1 0x4 ADD PUSH2 0x1E2 SWAP1 PUSH2 0x948 JUMP JUMPDEST PUSH1 0x40 MLOAD DUP1 SWAP2 SUB SWAP1 REVERT JUMPDEST DUP3 DUP2 DUP2 MLOAD DUP2 LT PUSH2 0x1FE JUMPI PUSH2 0x1FD PUSH2 0x8D1 JUMP JUMPDEST JUMPDEST PUSH1 0x20 MUL PUSH1 0x20 ADD ADD MLOAD PUSH0 DUP6 DUP4 DUP2 MLOAD DUP2 LT PUSH2 0x21A JUMPI PUSH2 0x219 PUSH2 0x8D1 JUMP JUMPDEST JUMPDEST PUSH1 0x20 MUL PUSH1 0x20 ADD ADD MLOAD DUP2 SLOAD DUP2 LT PUSH2 0x233 JUMPI PUSH2 0x232 PUSH2 0x8D1 JUMP JUMPDEST JUMPDEST SWAP1 PUSH0 MSTORE PUSH1 0x20 PUSH0 KECCAK256 ADD DUP2 SWAP1 SSTORE POP DUP1 DUP1 PUSH1 0x1 ADD SWAP2 POP POP PUSH2 0x182 JUMP JUMPDEST POP PUSH0 DUP1 SLOAD DUP1 PUSH1 0x20 MUL PUSH1 0x20 ADD PUSH1 0x40 MLOAD SWAP1 DUP2 ADD PUSH1 0x40 MSTORE DUP1 SWAP3 SWAP2 SWAP1 DUP2 DUP2 MSTORE PUSH1 0x20 ADD DUP3 DUP1 SLOAD DUP1 ISZERO PUSH2 0x296 JUMPI PUSH1 0x20 MUL DUP3 ADD SWAP2 SWAP1 PUSH0 MSTORE PUSH1 0x20 PUSH0 KECCAK256 SWAP1 JUMPDEST DUP2 SLOAD DUP2 MSTORE PUSH1 0x20 ADD SWAP1 PUSH1 0x1 ADD SWAP1 DUP1 DUP4 GT PUSH2 0x282 JUMPI JUMPDEST POP POP POP POP POP SWAP1 POP SWAP3 SWAP2 POP POP JUMP JUMPDEST PUSH1 0x60 PUSH0 DUP1 SLOAD SWAP1 POP DUP4 LT PUSH2 0x2EB JUMPI PUSH1 0x40 MLOAD PUSH32 0x8C379A000000000000000000000000000000000000000000000000000000000 DUP2 MSTORE PUSH1 0x4 ADD PUSH2 0x2E2 SWAP1 PUSH2 0x948 JUMP JUMPDEST PUSH1 0x40 MLOAD DUP1 SWAP2 SUB SWAP1 REVERT JUMPDEST DUP2 PUSH0 DUP5 DUP2 SLOAD DUP2 LT PUSH2 0x2FF JUMPI PUSH2 0x2FE PUSH2 0x8D1 JUMP JUMPDEST JUMPDEST SWAP1 PUSH0 MSTORE PUSH1 0x20 PUSH0 KECCAK256 ADD DUP2 SWAP1 SSTORE POP PUSH0 DUP1 SLOAD DUP1 PUSH1 0x20 MUL PUSH1 0x20 ADD PUSH1 0x40 MLOAD SWAP1 DUP2 ADD PUSH1 0x40 MSTORE DUP1 SWAP3 SWAP2 SWAP1 DUP2 DUP2 MSTORE PUSH1 0x20 ADD DUP3 DUP1 SLOAD DUP1 ISZERO PUSH2 0x354 JUMPI PUSH1 0x20 MUL DUP3 ADD SWAP2 SWAP1 PUSH0 MSTORE PUSH1 0x20 PUSH0 KECCAK256 SWAP1 JUMPDEST DUP2 SLOAD DUP2 MSTORE PUSH1 0x20 ADD SWAP1 PUSH1 0x1 ADD SWAP1 DUP1 DUP4 GT PUSH2 0x340 JUMPI JUMPDEST POP POP POP POP POP SWAP1 POP SWAP3 SWAP2 POP POP JUMP JUMPDEST PUSH1 0x60 PUSH0 DUP1 SLOAD SWAP1 POP DUP3 LT PUSH2 0x3A9 JUMPI PUSH1 0x40 MLOAD PUSH32 0x8C379A000000000000000000000000000000000000000000000000000000000 DUP2 MSTORE PUSH1 0x4 ADD PUSH2 0x3A0 SWAP1 PUSH2 0x948 JUMP JUMPDEST PUSH1 0x40 MLOAD DUP1 SWAP2 SUB SWAP1 REVERT JUMPDEST PUSH1 0x1 PUSH0 DUP4 DUP2 SLOAD DUP2 LT PUSH2 0x3BE JUMPI PUSH2 0x3BD PUSH2 0x8D1 JUMP JUMPDEST JUMPDEST SWAP1 PUSH0 MSTORE PUSH1 0x20 PUSH0 KECCAK256 ADD PUSH0 DUP3 DUP3 SLOAD PUSH2 0x3D4 SWAP2 SWAP1 PUSH2 0x993 JUMP JUMPDEST SWAP3 POP POP DUP2 SWAP1 SSTORE POP PUSH0 DUP1 SLOAD DUP1 PUSH1 0x20 MUL PUSH1 0x20 ADD PUSH1 0x40 MLOAD SWAP1 DUP2 ADD PUSH1 0x40 MSTORE DUP1 SWAP3 SWAP2 SWAP1 DUP2 DUP2 MSTORE PUSH1 0x20 ADD DUP3 DUP1 SLOAD DUP1 ISZERO PUSH2 0x424 JUMPI PUSH1 0x20 MUL DUP3 ADD SWAP2 SWAP1 PUSH0 MSTORE PUSH1 0x20 PUSH0 KECCAK256 SWAP1 JUMPDEST DUP2 SLOAD DUP2 MSTORE PUSH1 0x20 ADD SWAP1 PUSH1 0x1 ADD SWAP1 DUP1 DUP4 GT PUSH2 0x410 JUMPI JUMPDEST POP POP POP POP POP SWAP1 POP SWAP2 SWAP1 POP JUMP JUMPDEST PUSH0 DUP2 DUP2 SLOAD DUP2 LT PUSH2 0x43E JUMPI PUSH0 DUP1 REVERT JUMPDEST SWAP1 PUSH0 MSTORE PUSH1 0x20 PUSH0 KECCAK256 ADD PUSH0 SWAP2 POP SWAP1 POP SLOAD DUP2 JUMP JUMPDEST PUSH1 0x60 PUSH0 PUSH0 PUSH2 0x45D SWAP2 SWAP1 PUSH2 0x4B0 JUMP JUMPDEST PUSH0 DUP1 SLOAD DUP1 PUSH1 0x20 MUL PUSH1 0x20 ADD PUSH1 0x40 MLOAD SWAP1 DUP2 ADD PUSH1 0x40 MSTORE DUP1 SWAP3 SWAP2 SWAP1 DUP2 DUP2 MSTORE PUSH1 0x20 ADD DUP3 DUP1 SLOAD DUP1 ISZERO PUSH2 0x4A6 JUMPI PUSH1 0x20 MUL DUP3 ADD SWAP2 SWAP1 PUSH0 MSTORE PUSH1 0x20 PUSH0 KECCAK256 SWAP1 JUMPDEST DUP2 SLOAD DUP2 MSTORE PUSH1 0x20 ADD SWAP1 PUSH1 0x1 ADD SWAP1 DUP1 DUP4 GT PUSH2 0x492 JUMPI JUMPDEST POP POP POP POP POP SWAP1 POP SWAP1 JUMP JUMPDEST POP DUP1 SLOAD PUSH0 DUP3 SSTORE SWAP1 PUSH0 MSTORE PUSH1 0x20 PUSH0 KECCAK256 SWAP1 PUSH2 0x4C8 SWAP2 SWAP1 PUSH2 0x4CA JUMP JUMPDEST JUMP JUMPDEST PUSH0 JUMPDEST DUP1 DUP3 GT ISZERO PUSH2 0x4E2 JUMPI DUP3 DUP2 ADD PUSH0 SWAP1 SSTORE PUSH1 0x1 ADD PUSH2 0x4CC JUMP JUMPDEST POP POP POP JUMP JUMPDEST PUSH0 PUSH1 0x40 MLOAD SWAP1 POP SWAP1 JUMP JUMPDEST PUSH0 PUSH0 REVERT JUMPDEST PUSH0 PUSH0 REVERT JUMPDEST PUSH0 PUSH0 REVERT JUMPDEST PUSH0 PUSH1 0x1F NOT PUSH1 0x1F DUP4 ADD AND SWAP1 POP SWAP2 SWAP1 POP JUMP JUMPDEST PUSH32 0x4E487B7100000000000000000000000000000000000000000000000000000000 PUSH0 MSTORE PUSH1 0x41 PUSH1 0x4 MSTORE PUSH1 0x24 PUSH0 REVERT JUMPDEST PUSH2 0x542 DUP3 PUSH2 0x4FC JUMP JUMPDEST DUP2 ADD DUP2 DUP2 LT PUSH8 0xFFFFFFFFFFFFFFFF DUP3 GT OR ISZERO PUSH2 0x561 JUMPI PUSH2 0x560 PUSH2 0x50C JUMP JUMPDEST JUMPDEST DUP1 PUSH1 0x40 MSTORE POP POP POP JUMP JUMPDEST PUSH0 PUSH2 0x573 PUSH2 0x4E7 JUMP JUMPDEST SWAP1 POP PUSH2 0x57F DUP3 DUP3 PUSH2 0x539 JUMP JUMPDEST SWAP2 SWAP1 POP JUMP JUMPDEST PUSH0 PUSH8 0xFFFFFFFFFFFFFFFF DUP3 GT ISZERO PUSH2 0x59E JUMPI PUSH2 0x59D PUSH2 0x50C JUMP JUMPDEST JUMPDEST PUSH1 0x20 DUP3 MUL SWAP1 POP PUSH1 0x20 DUP2 ADD SWAP1 POP SWAP2 SWAP1 POP JUMP JUMPDEST PUSH0 PUSH0 REVERT JUMPDEST PUSH0 DUP2 SWAP1 POP SWAP2 SWAP1 POP JUMP JUMPDEST PUSH2 0x5C5 DUP2 PUSH2 0x5B3 JUMP JUMPDEST DUP2 EQ PUSH2 0x5CF JUMPI PUSH0 PUSH0 REVERT JUMPDEST POP JUMP JUMPDEST PUSH0 DUP2 CALLDATALOAD SWAP1 POP PUSH2 0x5E0 DUP2 PUSH2 0x5BC JUMP JUMPDEST SWAP3 SWAP2 POP POP JUMP JUMPDEST PUSH0 PUSH2 0x5F8 PUSH2 0x5F3 DUP5 PUSH2 0x584 JUMP JUMPDEST PUSH2 0x56A JUMP JUMPDEST SWAP1 POP DUP1 DUP4 DUP3 MSTORE PUSH1 0x20 DUP3 ADD SWAP1 POP PUSH1 0x20 DUP5 MUL DUP4 ADD DUP6 DUP2 GT ISZERO PUSH2 0x61B JUMPI PUSH2 0x61A PUSH2 0x5AF JUMP JUMPDEST JUMPDEST DUP4 JUMPDEST DUP2 DUP2 LT ISZERO PUSH2 0x644 JUMPI DUP1 PUSH2 0x630 DUP9 DUP3 PUSH2 0x5D2 JUMP JUMPDEST DUP5 MSTORE PUSH1 0x20 DUP5 ADD SWAP4 POP POP PUSH1 0x20 DUP2 ADD SWAP1 POP PUSH2 0x61D JUMP JUMPDEST POP POP POP SWAP4 SWAP3 POP POP POP JUMP JUMPDEST PUSH0 DUP3 PUSH1 0x1F DUP4 ADD SLT PUSH2 0x662 JUMPI PUSH2 0x661 PUSH2 0x4F8 JUMP JUMPDEST JUMPDEST DUP2 CALLDATALOAD PUSH2 0x672 DUP5 DUP3 PUSH1 0x20 DUP7 ADD PUSH2 0x5E6 JUMP JUMPDEST SWAP2 POP POP SWAP3 SWAP2 POP POP JUMP JUMPDEST PUSH0 PUSH0 PUSH1 0x40 DUP4 DUP6 SUB SLT ISZERO PUSH2 0x691 JUMPI PUSH2 0x690 PUSH2 0x4F0 JUMP JUMPDEST JUMPDEST PUSH0 DUP4 ADD CALLDATALOAD PUSH8 0xFFFFFFFFFFFFFFFF DUP2 GT ISZERO PUSH2 0x6AE JUMPI PUSH2 0x6AD PUSH2 0x4F4 JUMP JUMPDEST JUMPDEST PUSH2 0x6BA DUP6 DUP3 DUP7 ADD PUSH2 0x64E JUMP JUMPDEST SWAP3 POP POP PUSH1 0x20 DUP4 ADD CALLDATALOAD PUSH8 0xFFFFFFFFFFFFFFFF DUP2 GT ISZERO PUSH2 0x6DB JUMPI PUSH2 0x6DA PUSH2 0x4F4 JUMP JUMPDEST JUMPDEST PUSH2 0x6E7 DUP6 DUP3 DUP7 ADD PUSH2 0x64E JUMP JUMPDEST SWAP2 POP POP SWAP3 POP SWAP3 SWAP1 POP JUMP JUMPDEST PUSH0 DUP2 MLOAD SWAP1 POP SWAP2 SWAP1 POP JUMP JUMPDEST PUSH0 DUP3 DUP3 MSTORE PUSH1 0x20 DUP3 ADD SWAP1 POP SWAP3 SWAP2 POP POP JUMP JUMPDEST PUSH0 DUP2 SWAP1 POP PUSH1 0x20 DUP3 ADD SWAP1 POP SWAP2 SWAP1 POP JUMP JUMPDEST PUSH2 0x723 DUP2 PUSH2 0x5B3 JUMP JUMPDEST DUP3 MSTORE POP POP JUMP JUMPDEST PUSH0 PUSH2 0x734 DUP4 DUP4 PUSH2 0x71A JUMP JUMPDEST PUSH1 0x20 DUP4 ADD SWAP1 POP SWAP3 SWAP2 POP POP JUMP JUMPDEST PUSH0 PUSH1 0x20 DUP3 ADD SWAP1 POP SWAP2 SWAP1 POP JUMP JUMPDEST PUSH0 PUSH2 0x756 DUP3 PUSH2 0x6F1 JUMP JUMPDEST PUSH2 0x760 DUP2 DUP6 PUSH2 0x6FB JUMP JUMPDEST SWAP4 POP PUSH2 0x76B DUP4 PUSH2 0x70B JUMP JUMPDEST DUP1 PUSH0 JUMPDEST DUP4 DUP2 LT ISZERO PUSH2 0x79B JUMPI DUP2 MLOAD PUSH2 0x782 DUP9 DUP3 PUSH2 0x729 JUMP JUMPDEST SWAP8 POP PUSH2 0x78D DUP4 PUSH2 0x740 JUMP JUMPDEST SWAP3 POP POP PUSH1 0x1 DUP2 ADD SWAP1 POP PUSH2 0x76E JUMP JUMPDEST POP DUP6 SWAP4 POP POP POP POP SWAP3 SWAP2 POP POP JUMP JUMPDEST PUSH0 PUSH1 0x20 DUP3 ADD SWAP1 POP DUP2 DUP2 SUB PUSH0 DUP4 ADD MSTORE PUSH2 0x7C0 DUP2 DUP5 PUSH2 0x74C JUMP JUMPDEST SWAP1 POP SWAP3 SWAP2 POP POP JUMP JUMPDEST PUSH0 PUSH0 PUSH1 0x40 DUP4 DUP6 SUB SLT ISZERO PUSH2 0x7DE JUMPI PUSH2 0x7DD PUSH2 0x4F0 JUMP JUMPDEST JUMPDEST PUSH0 PUSH2 0x7EB DUP6 DUP3 DUP7 ADD PUSH2 0x5D2 JUMP JUMPDEST SWAP3 POP POP PUSH1 0x20 PUSH2 0x7FC DUP6 DUP3 DUP7 ADD PUSH2 0x5D2 JUMP JUMPDEST SWAP2 POP POP SWAP3 POP SWAP3 SWAP1 POP JUMP JUMPDEST PUSH0 PUSH1 0x20 DUP3 DUP5 SUB SLT ISZERO PUSH2 0x81B JUMPI PUSH2 0x81A PUSH2 0x4F0 JUMP JUMPDEST JUMPDEST PUSH0 PUSH2 0x828 DUP5 DUP3 DUP6 ADD PUSH2 0x5D2 JUMP JUMPDEST SWAP2 POP POP SWAP3 SWAP2 POP POP JUMP JUMPDEST PUSH2 0x83A DUP2 PUSH2 0x5B3 JUMP JUMPDEST DUP3 MSTORE POP POP JUMP JUMPDEST PUSH0 PUSH1 0x20 DUP3 ADD SWAP1 POP PUSH2 0x853 PUSH0 DUP4 ADD DUP5 PUSH2 0x831 JUMP JUMPDEST SWAP3 SWAP2 POP POP JUMP JUMPDEST PUSH0 DUP3 DUP3 MSTORE PUSH1 0x20 DUP3 ADD SWAP1 POP SWAP3 SWAP2 POP POP JUMP JUMPDEST PUSH32 0xE695B0E7BB84E995BFE5BAA6E4B88DE58CB9E9858D0000000000000000000000 PUSH0 DUP3 ADD MSTORE POP JUMP JUMPDEST PUSH0 PUSH2 0x89D PUSH1 0x15 DUP4 PUSH2 0x859 JUMP JUMPDEST SWAP2 POP PUSH2 0x8A8 DUP3 PUSH2 0x869 JUMP JUMPDEST PUSH1 0x20 DUP3 ADD SWAP1 POP SWAP2 SWAP1 POP JUMP JUMPDEST PUSH0 PUSH1 0x20 DUP3 ADD SWAP1 POP DUP2 DUP2 SUB PUSH0 DUP4 ADD MSTORE PUSH2 0x8CA DUP2 PUSH2 0x891 JUMP JUMPDEST SWAP1 POP SWAP2 SWAP1 POP JUMP JUMPDEST PUSH32 0x4E487B7100000000000000000000000000000000000000000000000000000000 PUSH0 MSTORE PUSH1 0x32 PUSH1 0x4 MSTORE PUSH1 0x24 PUSH0 REVERT JUMPDEST PUSH32 0xE695B0E7BB84E4B88BE6A087E8B68AE7958C0000000000000000000000000000 PUSH0 DUP3 ADD MSTORE POP JUMP JUMPDEST PUSH0 PUSH2 0x932 PUSH1 0x12 DUP4 PUSH2 0x859 JUMP JUMPDEST SWAP2 POP PUSH2 0x93D DUP3 PUSH2 0x8FE JUMP JUMPDEST PUSH1 0x20 DUP3 ADD SWAP1 POP SWAP2 SWAP1 POP JUMP JUMPDEST PUSH0 PUSH1 0x20 DUP3 ADD SWAP1 POP DUP2 DUP2 SUB PUSH0 DUP4 ADD MSTORE PUSH2 0x95F DUP2 PUSH2 0x926 JUMP JUMPDEST SWAP1 POP SWAP2 SWAP1 POP JUMP JUMPDEST PUSH32 0x4E487B7100000000000000000000000000000000000000000000000000000000 PUSH0 MSTORE PUSH1 0x11 PUSH1 0x4 MSTORE PUSH1 0x24 PUSH0 REVERT JUMPDEST PUSH0 PUSH2 0x99D DUP3 PUSH2 0x5B3 JUMP JUMPDEST SWAP2 POP PUSH2 0x9A8 DUP4 PUSH2 0x5B3 JUMP JUMPDEST SWAP3 POP DUP3 DUP3 ADD SWAP1 POP DUP1 DUP3 GT ISZERO PUSH2 0x9C0 JUMPI PUSH2 0x9BF PUSH2 0x966 JUMP JUMPDEST JUMPDEST SWAP3 SWAP2 POP POP JUMP INVALID LOG2 PUSH5 0x6970667358 0x22 SLT KECCAK256 PUSH4 0xEB0B3DAA PUSH27 0x9F365B1AB47C7705A28892BDD254F5CEF7D86359D1DB6F5A348764 PUSH20 0x6F6C634300082200330000000000000000000000 "
		},
		"gasEstimates": {
			"creation": {
				"codeDepositCost": "511200",
				"executionCost": "infinite",
				"totalCost": "infinite"
			},
			"external": {
				"increment(uint256)": "infinite",
				"modifyOne(uint256,uint256)": "infinite",
				"numbers(uint256)": "infinite",
				"resetAll()": "infinite",
				"updateMutiple(uint256[],uint256[])": "infinite"
			}
		},
		"methodIdentifiers": {
			"increment(uint256)": "7cf5dab0",
			"modifyOne(uint256,uint256)": "6464313c",
			"numbers(uint256)": "d39fa233",
			"resetAll()": "e103aef5",
			"updateMutiple(uint256[],uint256[])": "07869c4d"
		}
	},
	"abi": [
		{
			"inputs": [
				{
					"internalType": "uint256",
					"name": "index",
					"type": "uint256"
				}
			],
			"name": "increment",
			"outputs": [
				{
					"internalType": "uint256[]",
					"name": "",
					"type": "uint256[]"
				}
			],
			"stateMutability": "nonpayable",
			"type": "function"
		},
		{
			"inputs": [
				{
					"internalType": "uint256",
					"name": "index",
					"type": "uint256"
				},
				{
					"internalType": "uint256",
					"name": "value",
					"type": "uint256"
				}
			],
			"name": "modifyOne",
			"outputs": [
				{
					"internalType": "uint256[]",
					"name": "",
					"type": "uint256[]"
				}
			],
			"stateMutability": "nonpayable",
			"type": "function"
		},
		{
			"inputs": [
				{
					"internalType": "uint256",
					"name": "",
					"type": "uint256"
				}
			],
			"name": "numbers",
			"outputs": [
				{
					"internalType": "uint256",
					"name": "",
					"type": "uint256"
				}
			],
			"stateMutability": "view",
			"type": "function"
		},
		{
			"inputs": [],
			"name": "resetAll",
			"outputs": [
				{
					"internalType": "uint256[]",
					"name": "",
					"type": "uint256[]"
				}
			],
			"stateMutability": "nonpayable",
			"type": "function"
		},
		{
			"inputs": [
				{
					"internalType": "uint256[]",
					"name": "indexs",
					"type": "uint256[]"
				},
				{
					"internalType": "uint256[]",
					"name": "values",
					"type": "uint256[]"
				}
			],
			"name": "updateMutiple",
			"outputs": [
				{
					"internalType": "uint256[]",
					"name": "",
					"type": "uint256[]"
				}
			],
			"stateMutability": "nonpayable",
			"type": "function"
		}
	]
}