{
	"data": {
		"bytecode": {
			"linkReferences": {},
			"object": "608060405234801561000f575f5ffd5b50336040518060400160405280600781526020017f4d79546f6b656e000000000000000000000000000000000000000000000000008152506040518060400160405280600381526020017f4d544b0000000000000000000000000000000000000000000000000000000000815250816003908161008c91906107d7565b50806004908161009c91906107d7565b5050505f73ffffffffffffffffffffffffffffffffffffffff168173ffffffffffffffffffffffffffffffffffffffff160361010f575f6040517f1e4fbdf700000000000000000000000000000000000000000000000000000000815260040161010691906108e5565b60405180910390fd5b61011e8161013e60201b60201c565b506101393369152d02c7e14af680000061020160201b60201c565b6109bb565b5f60055f9054906101000a900473ffffffffffffffffffffffffffffffffffffffff1690508160055f6101000a81548173ffffffffffffffffffffffffffffffffffffffff021916908373ffffffffffffffffffffffffffffffffffffffff1602179055508173ffffffffffffffffffffffffffffffffffffffff168173ffffffffffffffffffffffffffffffffffffffff167f8be0079c531659141344cd1fd0a4f28419497f9722a3daafe3b4186f6b6457e060405160405180910390a35050565b61020f61022360201b60201c565b61021f82826102bc60201b60201c565b5050565b61023161034160201b60201c565b73ffffffffffffffffffffffffffffffffffffffff1661025561034860201b60201c565b73ffffffffffffffffffffffffffffffffffffffff16146102ba5761027e61034160201b60201c565b6040517f118cdaa70000000000000000000000000000000000000000000000000000000081526004016102b191906108e5565b60405180910390fd5b565b5f73ffffffffffffffffffffffffffffffffffffffff168273ffffffffffffffffffffffffffffffffffffffff160361032c575f6040517fec442f0500000000000000000000000000000000000000000000000000000000815260040161032391906108e5565b60405180910390fd5b61033d5f838361037060201b60201c565b5050565b5f33905090565b5f60055f9054906101000a900473ffffffffffffffffffffffffffffffffffffffff16905090565b5f73ffffffffffffffffffffffffffffffffffffffff168373ffffffffffffffffffffffffffffffffffffffff16036103c0578060025f8282546103b4919061092b565b9250508190555061048e565b5f5f5f8573ffffffffffffffffffffffffffffffffffffffff1673ffffffffffffffffffffffffffffffffffffffff1681526020019081526020015f2054905081811015610449578381836040517fe450d38c0000000000000000000000000000000000000000000000000000000081526004016104409392919061096d565b60405180910390fd5b8181035f5f8673ffffffffffffffffffffffffffffffffffffffff1673ffffffffffffffffffffffffffffffffffffffff1681526020019081526020015f2081905550505b5f73ffffffffffffffffffffffffffffffffffffffff168273ffffffffffffffffffffffffffffffffffffffff16036104d5578060025f828254039250508190555061051f565b805f5f8473ffffffffffffffffffffffffffffffffffffffff1673ffffffffffffffffffffffffffffffffffffffff1681526020019081526020015f205f82825401925050819055505b8173ffffffffffffffffffffffffffffffffffffffff168373ffffffffffffffffffffffffffffffffffffffff167fddf252ad1be2c89b69c2b068fc378daa952ba7f163c4a11628f55a4df523b3ef8360405161057c91906109a2565b60405180910390a3505050565b5f81519050919050565b7f4e487b71000000000000000000000000000000000000000000000000000000005f52604160045260245ffd5b7f4e487b71000000000000000000000000000000000000000000000000000000005f52602260045260245ffd5b5f600282049050600182168061060457607f821691505b602082108103610617576106166105c0565b5b50919050565b5f819050815f5260205f209050919050565b5f6020601f8301049050919050565b5f82821b905092915050565b5f600883026106797fffffffffffffffffffffffffffffffffffffffffffffffffffffffffffffffff8261063e565b610683868361063e565b95508019841693508086168417925050509392505050565b5f819050919050565b5f819050919050565b5f6106c76106c26106bd8461069b565b6106a4565b61069b565b9050919050565b5f819050919050565b6106e0836106ad565b6106f46106ec826106ce565b84845461064a565b825550505050565b5f5f905090565b61070b6106fc565b6107168184846106d7565b505050565b5f5b8281101561073c576107315f828401610703565b60018101905061071d565b505050565b601f82111561078f578282111561078e5761075b8161061d565b6107648361062f565b61076d8561062f565b602086101561077a575f90505b8083016107898284038261071b565b505050505b5b505050565b5f82821c905092915050565b5f6107af5f1984600802610794565b1980831691505092915050565b5f6107c783836107a0565b9150826002028217905092915050565b6107e082610589565b67ffffffffffffffff8111156107f9576107f8610593565b5b61080382546105ed565b61080e828285610741565b5f60209050601f83116001811461083f575f841561082d578287015190505b61083785826107bc565b86555061089e565b601f19841661084d8661061d565b5f5b828110156108745784890151825560018201915060208501945060208101905061084f565b86831015610891578489015161088d601f8916826107a0565b8355505b6001600288020188555050505b505050505050565b5f73ffffffffffffffffffffffffffffffffffffffff82169050919050565b5f6108cf826108a6565b9050919050565b6108df816108c5565b82525050565b5f6020820190506108f85f8301846108d6565b92915050565b7f4e487b71000000000000000000000000000000000000000000000000000000005f52601160045260245ffd5b5f6109358261069b565b91506109408361069b565b9250828201905080821115610958576109576108fe565b5b92915050565b6109678161069b565b82525050565b5f6060820190506109805f8301866108d6565b61098d602083018561095e565b61099a604083018461095e565b949350505050565b5f6020820190506109b55f83018461095e565b92915050565b61111c806109c85f395ff3fe608060405234801561000f575f5ffd5b50600436106100cd575f3560e01c806370a082311161008a57806395d89b411161006457806395d89b41146101ff578063a9059cbb1461021d578063dd62ed3e1461024d578063f2fde38b1461027d576100cd565b806370a08231146101a7578063715018a6146101d75780638da5cb5b146101e1576100cd565b806306fdde03146100d1578063095ea7b3146100ef57806318160ddd1461011f57806323b872dd1461013d578063313ce5671461016d57806340c10f191461018b575b5f5ffd5b6100d9610299565b6040516100e69190610d95565b60405180910390f35b61010960048036038101906101049190610e46565b610329565b6040516101169190610e9e565b60405180910390f35b61012761034b565b6040516101349190610ec6565b60405180910390f35b61015760048036038101906101529190610edf565b610354565b6040516101649190610e9e565b60405180910390f35b610175610382565b6040516101829190610f4a565b60405180910390f35b6101a560048036038101906101a09190610e46565b61038a565b005b6101c160048036038101906101bc9190610f63565b6103a0565b6040516101ce9190610ec6565b60405180910390f35b6101df6103e5565b005b6101e96103f8565b6040516101f69190610f9d565b60405180910390f35b610207610420565b6040516102149190610d95565b60405180910390f35b61023760048036038101906102329190610e46565b6104b0565b6040516102449190610e9e565b60405180910390f35b61026760048036038101906102629190610fb6565b6104d2565b6040516102749190610ec6565b60405180910390f35b61029760048036038101906102929190610f63565b610554565b005b6060600380546102a890611021565b80601f01602080910402602001604051908101604052809291908181526020018280546102d490611021565b801561031f5780601f106102f65761010080835404028352916020019161031f565b820191905f5260205f20905b81548152906001019060200180831161030257829003601f168201915b5050505050905090565b5f5f6103336105d8565b90506103408185856105df565b600191505092915050565b5f600254905090565b5f5f61035e6105d8565b905061036b8582856105f1565b610376858585610684565b60019150509392505050565b5f6012905090565b610392610774565b61039c82826107fb565b5050565b5f5f5f8373ffffffffffffffffffffffffffffffffffffffff1673ffffffffffffffffffffffffffffffffffffffff1681526020019081526020015f20549050919050565b6103ed610774565b6103f65f61087a565b565b5f60055f9054906101000a900473ffffffffffffffffffffffffffffffffffffffff16905090565b60606004805461042f90611021565b80601f016020809104026020016040519081016040528092919081815260200182805461045b90611021565b80156104a65780601f1061047d576101008083540402835291602001916104a6565b820191905f5260205f20905b81548152906001019060200180831161048957829003601f168201915b5050505050905090565b5f5f6104ba6105d8565b90506104c7818585610684565b600191505092915050565b5f60015f8473ffffffffffffffffffffffffffffffffffffffff1673ffffffffffffffffffffffffffffffffffffffff1681526020019081526020015f205f8373ffffffffffffffffffffffffffffffffffffffff1673ffffffffffffffffffffffffffffffffffffffff1681526020019081526020015f2054905092915050565b61055c610774565b5f73ffffffffffffffffffffffffffffffffffffffff168173ffffffffffffffffffffffffffffffffffffffff16036105cc575f6040517f1e4fbdf70000000000000000000000000000000000000000000000000000000081526004016105c39190610f9d565b60405180910390fd5b6105d58161087a565b50565b5f33905090565b6105ec838383600161093d565b505050565b5f6105fc84846104d2565b90507fffffffffffffffffffffffffffffffffffffffffffffffffffffffffffffffff81101561067e578181101561066f578281836040517ffb8f41b200000000000000000000000000000000000000000000000000000000815260040161066693929190611051565b60405180910390fd5b61067d84848484035f61093d565b5b50505050565b5f73ffffffffffffffffffffffffffffffffffffffff168373ffffffffffffffffffffffffffffffffffffffff16036106f4575f6040517f96c6fd1e0000000000000000000000000000000000000000000000000000000081526004016106eb9190610f9d565b60405180910390fd5b5f73ffffffffffffffffffffffffffffffffffffffff168273ffffffffffffffffffffffffffffffffffffffff1603610764575f6040517fec442f0500000000000000000000000000000000000000000000000000000000815260040161075b9190610f9d565b60405180910390fd5b61076f838383610b0c565b505050565b61077c6105d8565b73ffffffffffffffffffffffffffffffffffffffff1661079a6103f8565b73ffffffffffffffffffffffffffffffffffffffff16146107f9576107bd6105d8565b6040517f118cdaa70000000000000000000000000000000000000000000000000000000081526004016107f09190610f9d565b60405180910390fd5b565b5f73ffffffffffffffffffffffffffffffffffffffff168273ffffffffffffffffffffffffffffffffffffffff160361086b575f6040517fec442f050000000000000000000000000000000000000000000000000000000081526004016108629190610f9d565b60405180910390fd5b6108765f8383610b0c565b5050565b5f60055f9054906101000a900473ffffffffffffffffffffffffffffffffffffffff1690508160055f6101000a81548173ffffffffffffffffffffffffffffffffffffffff021916908373ffffffffffffffffffffffffffffffffffffffff1602179055508173ffffffffffffffffffffffffffffffffffffffff168173ffffffffffffffffffffffffffffffffffffffff167f8be0079c531659141344cd1fd0a4f28419497f9722a3daafe3b4186f6b6457e060405160405180910390a35050565b5f73ffffffffffffffffffffffffffffffffffffffff168473ffffffffffffffffffffffffffffffffffffffff16036109ad575f6040517fe602df050000000000000000000000000000000000000000000000000000000081526004016109a49190610f9d565b60405180910390fd5b5f73ffffffffffffffffffffffffffffffffffffffff168373ffffffffffffffffffffffffffffffffffffffff1603610a1d575f6040517f94280d62000000000000000000000000000000000000000000000000000000008152600401610a149190610f9d565b60405180910390fd5b8160015f8673ffffffffffffffffffffffffffffffffffffffff1673ffffffffffffffffffffffffffffffffffffffff1681526020019081526020015f205f8573ffffffffffffffffffffffffffffffffffffffff1673ffffffffffffffffffffffffffffffffffffffff1681526020019081526020015f20819055508015610b06578273ffffffffffffffffffffffffffffffffffffffff168473ffffffffffffffffffffffffffffffffffffffff167f8c5be1e5ebec7d5bd14f71427d1e84f3dd0314c0f7b2291e5b200ac8c7c3b92584604051610afd9190610ec6565b60405180910390a35b50505050565b5f73ffffffffffffffffffffffffffffffffffffffff168373ffffffffffffffffffffffffffffffffffffffff1603610b5c578060025f828254610b5091906110b3565b92505081905550610c2a565b5f5f5f8573ffffffffffffffffffffffffffffffffffffffff1673ffffffffffffffffffffffffffffffffffffffff1681526020019081526020015f2054905081811015610be5578381836040517fe450d38c000000000000000000000000000000000000000000000000000000008152600401610bdc93929190611051565b60405180910390fd5b8181035f5f8673ffffffffffffffffffffffffffffffffffffffff1673ffffffffffffffffffffffffffffffffffffffff1681526020019081526020015f2081905550505b5f73ffffffffffffffffffffffffffffffffffffffff168273ffffffffffffffffffffffffffffffffffffffff1603610c71578060025f8282540392505081905550610cbb565b805f5f8473ffffffffffffffffffffffffffffffffffffffff1673ffffffffffffffffffffffffffffffffffffffff1681526020019081526020015f205f82825401925050819055505b8173ffffffffffffffffffffffffffffffffffffffff168373ffffffffffffffffffffffffffffffffffffffff167fddf252ad1be2c89b69c2b068fc378daa952ba7f163c4a11628f55a4df523b3ef83604051610d189190610ec6565b60405180910390a3505050565b5f81519050919050565b5f82825260208201905092915050565b8281835e5f83830152505050565b5f601f19601f8301169050919050565b5f610d6782610d25565b610d718185610d2f565b9350610d81818560208601610d3f565b610d8a81610d4d565b840191505092915050565b5f6020820190508181035f830152610dad8184610d5d565b905092915050565b5f5ffd5b5f73ffffffffffffffffffffffffffffffffffffffff82169050919050565b5f610de282610db9565b9050919050565b610df281610dd8565b8114610dfc575f5ffd5b50565b5f81359050610e0d81610de9565b92915050565b5f819050919050565b610e2581610e13565b8114610e2f575f5ffd5b50565b5f81359050610e4081610e1c565b92915050565b5f5f60408385031215610e5c57610e5b610db5565b5b5f610e6985828601610dff565b9250506020610e7a85828601610e32565b9150509250929050565b5f8115159050919050565b610e9881610e84565b82525050565b5f602082019050610eb15f830184610e8f565b92915050565b610ec081610e13565b82525050565b5f602082019050610ed95f830184610eb7565b92915050565b5f5f5f60608486031215610ef657610ef5610db5565b5b5f610f0386828701610dff565b9350506020610f1486828701610dff565b9250506040610f2586828701610e32565b9150509250925092565b5f60ff82169050919050565b610f4481610f2f565b82525050565b5f602082019050610f5d5f830184610f3b565b92915050565b5f60208284031215610f7857610f77610db5565b5b5f610f8584828501610dff565b91505092915050565b610f9781610dd8565b82525050565b5f602082019050610fb05f830184610f8e565b92915050565b5f5f60408385031215610fcc57610fcb610db5565b5b5f610fd985828601610dff565b9250506020610fea85828601610dff565b9150509250929050565b7f4e487b71000000000000000000000000000000000000000000000000000000005f52602260045260245ffd5b5f600282049050600182168061103857607f821691505b60208210810361104b5761104a610ff4565b5b50919050565b5f6060820190506110645f830186610f8e565b6110716020830185610eb7565b61107e6040830184610eb7565b949350505050565b7f4e487b71000000000000000000000000000000000000000000000000000000005f52601160045260245ffd5b5f6110bd82610e13565b91506110c883610e13565b92508282019050808211156110e0576110df611086565b5b9291505056fea26469706673582212207ed46905cad026c238595ffd482d5758557323dad8d937191fe2a2d4a3d5e4b064736f6c63430008220033",
			"opcodes": "PUSH1 0x80 PUSH1 0x40 MSTORE CALLVALUE DUP1 ISZERO PUSH2 0xF JUMPI PUSH0 PUSH0 REVERT JUMPDEST POP CALLER PUSH1 0x40 MLOAD DUP1 PUSH1 0x40 ADD PUSH1 0x40 MSTORE DUP1 PUSH1 0x7 DUP2 MSTORE PUSH1 0x20 ADD PUSH32 0x4D79546F6B656E00000000000000000000000000000000000000000000000000 DUP2 MSTORE POP PUSH1 0x40 MLOAD DUP1 PUSH1 0x40 ADD PUSH1 0x40 MSTORE DUP1 PUSH1 0x3 DUP2 MSTORE PUSH1 0x20 ADD PUSH32 0x4D544B0000000000000000000000000000000000000000000000000000000000 DUP2 MSTORE POP DUP2 PUSH1 0x3 SWAP1 DUP2 PUSH2 0x8C SWAP2 SWAP1 PUSH2 0x7D7 JUMP JUMPDEST POP DUP1 PUSH1 0x4 SWAP1 DUP2 PUSH2 0x9C SWAP2 SWAP1 PUSH2 0x7D7 JUMP JUMPDEST POP POP POP PUSH0 PUSH20 0xFFFFFFFFFFFFFFFFFFFFFFFFFFFFFFFFFFFFFFFF AND DUP2 PUSH20 0xFFFFFFFFFFFFFFFFFFFFFFFFFFFFFFFFFFFFFFFF AND SUB PUSH2 0x10F JUMPI PUSH0 PUSH1 0x40 MLOAD PUSH32 0x1E4FBDF700000000000000000000000000000000000000000000000000000000 DUP2 MSTORE PUSH1 0x4 ADD PUSH2 0x106 SWAP2 SWAP1 PUSH2 0x8E5 JUMP JUMPDEST PUSH1 0x40 MLOAD DUP1 SWAP2 SUB SWAP1 REVERT JUMPDEST PUSH2 0x11E DUP2 PUSH2 0x13E PUSH1 0x20 SHL PUSH1 0x20 SHR JUMP JUMPDEST POP PUSH2 0x139 CALLER PUSH10 0x152D02C7E14AF6800000 PUSH2 0x201 PUSH1 0x20 SHL PUSH1 0x20 SHR JUMP JUMPDEST PUSH2 0x9BB JUMP JUMPDEST PUSH0 PUSH1 0x5 PUSH0 SWAP1 SLOAD SWAP1 PUSH2 0x100 EXP SWAP1 DIV PUSH20 0xFFFFFFFFFFFFFFFFFFFFFFFFFFFFFFFFFFFFFFFF AND SWAP1 POP DUP2 PUSH1 0x5 PUSH0 PUSH2 0x100 EXP DUP2 SLOAD DUP2 PUSH20 0xFFFFFFFFFFFFFFFFFFFFFFFFFFFFFFFFFFFFFFFF MUL NOT AND SWAP1 DUP4 PUSH20 0xFFFFFFFFFFFFFFFFFFFFFFFFFFFFFFFFFFFFFFFF AND MUL OR SWAP1 SSTORE POP DUP2 PUSH20 0xFFFFFFFFFFFFFFFFFFFFFFFFFFFFFFFFFFFFFFFF AND DUP2 PUSH20 0xFFFFFFFFFFFFFFFFFFFFFFFFFFFFFFFFFFFFFFFF AND PUSH32 0x8BE0079C531659141344CD1FD0A4F28419497F9722A3DAAFE3B4186F6B6457E0 PUSH1 0x40 MLOAD PUSH1 0x40 MLOAD DUP1 SWAP2 SUB SWAP1 LOG3 POP POP JUMP JUMPDEST PUSH2 0x20F PUSH2 0x223 PUSH1 0x20 SHL PUSH1 0x20 SHR JUMP JUMPDEST PUSH2 0x21F DUP3 DUP3 PUSH2 0x2BC PUSH1 0x20 SHL PUSH1 0x20 SHR JUMP JUMPDEST POP POP JUMP JUMPDEST PUSH2 0x231 PUSH2 0x341 PUSH1 0x20 SHL PUSH1 0x20 SHR JUMP JUMPDEST PUSH20 0xFFFFFFFFFFFFFFFFFFFFFFFFFFFFFFFFFFFFFFFF AND PUSH2 0x255 PUSH2 0x348 PUSH1 0x20 SHL PUSH1 0x20 SHR JUMP JUMPDEST PUSH20 0xFFFFFFFFFFFFFFFFFFFFFFFFFFFFFFFFFFFFFFFF AND EQ PUSH2 0x2BA JUMPI PUSH2 0x27E PUSH2 0x341 PUSH1 0x20 SHL PUSH1 0x20 SHR JUMP JUMPDEST PUSH1 0x40 MLOAD PUSH32 0x118CDAA700000000000000000000000000000000000000000000000000000000 DUP2 MSTORE PUSH1 0x4 ADD PUSH2 0x2B1 SWAP2 SWAP1 PUSH2 0x8E5 JUMP JUMPDEST PUSH1 0x40 MLOAD DUP1 SWAP2 SUB SWAP1 REVERT JUMPDEST JUMP JUMPDEST PUSH0 PUSH20 0xFFFFFFFFFFFFFFFFFFFFFFFFFFFFFFFFFFFFFFFF AND DUP3 PUSH20 0xFFFFFFFFFFFFFFFFFFFFFFFFFFFFFFFFFFFFFFFF AND SUB PUSH2 0x32C JUMPI PUSH0 PUSH1 0x40 MLOAD PUSH32 0xEC442F0500000000000000000000000000000000000000000000000000000000 DUP2 MSTORE PUSH1 0x4 ADD PUSH2 0x323 SWAP2 SWAP1 PUSH2 0x8E5 JUMP JUMPDEST PUSH1 0x40 MLOAD DUP1 SWAP2 SUB SWAP1 REVERT JUMPDEST PUSH2 0x33D PUSH0 DUP4 DUP4 PUSH2 0x370 PUSH1 0x20 SHL PUSH1 0x20 SHR JUMP JUMPDEST POP POP JUMP JUMPDEST PUSH0 CALLER SWAP1 POP SWAP1 JUMP JUMPDEST PUSH0 PUSH1 0x5 PUSH0 SWAP1 SLOAD SWAP1 PUSH2 0x100 EXP SWAP1 DIV PUSH20 0xFFFFFFFFFFFFFFFFFFFFFFFFFFFFFFFFFFFFFFFF AND SWAP1 POP SWAP1 JUMP JUMPDEST PUSH0 PUSH20 0xFFFFFFFFFFFFFFFFFFFFFFFFFFFFFFFFFFFFFFFF AND DUP4 PUSH20 0xFFFFFFFFFFFFFFFFFFFFFFFFFFFFFFFFFFFFFFFF AND SUB PUSH2 0x3C0 JUMPI DUP1 PUSH1 0x2 PUSH0 DUP3 DUP3 SLOAD PUSH2 0x3B4 SWAP2 SWAP1 PUSH2 0x92B JUMP JUMPDEST SWAP3 POP POP DUP2 SWAP1 SSTORE POP PUSH2 0x48E JUMP JUMPDEST PUSH0 PUSH0 PUSH0 DUP6 PUSH20 0xFFFFFFFFFFFFFFFFFFFFFFFFFFFFFFFFFFFFFFFF AND PUSH20 0xFFFFFFFFFFFFFFFFFFFFFFFFFFFFFFFFFFFFFFFF AND DUP2 MSTORE PUSH1 0x20 ADD SWAP1 DUP2 MSTORE PUSH1 0x20 ADD PUSH0 KECCAK256 SLOAD SWAP1 POP DUP2 DUP2 LT ISZERO PUSH2 0x449 JUMPI DUP4 DUP2 DUP4 PUSH1 0x40 MLOAD PUSH32 0xE450D38C00000000000000000000000000000000000000000000000000000000 DUP2 MSTORE PUSH1 0x4 ADD PUSH2 0x440 SWAP4 SWAP3 SWAP2 SWAP1 PUSH2 0x96D JUMP JUMPDEST PUSH1 0x40 MLOAD DUP1 SWAP2 SUB SWAP1 REVERT JUMPDEST DUP2 DUP2 SUB PUSH0 PUSH0 DUP7 PUSH20 0xFFFFFFFFFFFFFFFFFFFFFFFFFFFFFFFFFFFFFFFF AND PUSH20 0xFFFFFFFFFFFFFFFFFFFFFFFFFFFFFFFFFFFFFFFF AND DUP2 MSTORE PUSH1 0x20 ADD SWAP1 DUP2 MSTORE PUSH1 0x20 ADD PUSH0 KECCAK256 DUP2 SWAP1 SSTORE POP POP JUMPDEST PUSH0 PUSH20 0xFFFFFFFFFFFFFFFFFFFFFFFFFFFFFFFFFFFFFFFF AND DUP3 PUSH20 0xFFFFFFFFFFFFFFFFFFFFFFFFFFFFFFFFFFFFFFFF AND SUB PUSH2 0x4D5 JUMPI DUP1 PUSH1 0x2 PUSH0 DUP3 DUP3 SLOAD SUB SWAP3 POP POP DUP2 SWAP1 SSTORE POP PUSH2 0x51F JUMP JUMPDEST DUP1 PUSH0 PUSH0 DUP5 PUSH20 0xFFFFFFFFFFFFFFFFFFFFFFFFFFFFFFFFFFFFFFFF AND PUSH20 0xFFFFFFFFFFFFFFFFFFFFFFFFFFFFFFFFFFFFFFFF AND DUP2 MSTORE PUSH1 0x20 ADD SWAP1 DUP2 MSTORE PUSH1 0x20 ADD PUSH0 KECCAK256 PUSH0 DUP3 DUP3 SLOAD ADD SWAP3 POP POP DUP2 SWAP1 SSTORE POP JUMPDEST DUP2 PUSH20 0xFFFFFFFFFFFFFFFFFFFFFFFFFFFFFFFFFFFFFFFF AND DUP4 PUSH20 0xFFFFFFFFFFFFFFFFFFFFFFFFFFFFFFFFFFFFFFFF AND PUSH32 0xDDF252AD1BE2C89B69C2B068FC378DAA952BA7F163C4A11628F55A4DF523B3EF DUP4 PUSH1 0x40 MLOAD PUSH2 0x57C SWAP2 SWAP1 PUSH2 0x9A2 JUMP JUMPDEST PUSH1 0x40 MLOAD DUP1 SWAP2 SUB SWAP1 LOG3 POP POP POP JUMP JUMPDEST PUSH0 DUP2 MLOAD SWAP1 POP SWAP2 SWAP1 POP JUMP JUMPDEST PUSH32 0x4E487B7100000000000000000000000000000000000000000000000000000000 PUSH0 MSTORE PUSH1 0x41 PUSH1 0x4 MSTORE PUSH1 0x24 PUSH0 REVERT JUMPDEST PUSH32 0x4E487B7100000000000000000000000000000000000000000000000000000000 PUSH0 MSTORE PUSH1 0x22 PUSH1 0x4 MSTORE PUSH1 0x24 PUSH0 REVERT JUMPDEST PUSH0 PUSH1 0x2 DUP3 DIV SWAP1 POP PUSH1 0x1 DUP3 AND DUP1 PUSH2 0x604 JUMPI PUSH1 0x7F DUP3 AND SWAP2 POP JUMPDEST PUSH1 0x20 DUP3 LT DUP2 SUB PUSH2 0x617 JUMPI PUSH2 0x616 PUSH2 0x5C0 JUMP JUMPDEST JUMPDEST POP SWAP2 SWAP1 POP JUMP JUMPDEST PUSH0 DUP2 SWAP1 POP DUP2 PUSH0 MSTORE PUSH1 0x20 PUSH0 KECCAK256 SWAP1 POP SWAP2 SWAP1 POP JUMP JUMPDEST PUSH0 PUSH1 0x20 PUSH1 0x1F DUP4 ADD DIV SWAP1 POP SWAP2 SWAP1 POP JUMP JUMPDEST PUSH0 DUP3 DUP3 SHL SWAP1 POP SWAP3 SWAP2 POP POP JUMP JUMPDEST PUSH0 PUSH1 0x8 DUP4 MUL PUSH2 0x679 PUSH32 0xFFFFFFFFFFFFFFFFFFFFFFFFFFFFFFFFFFFFFFFFFFFFFFFFFFFFFFFFFFFFFFFF DUP3 PUSH2 0x63E JUMP JUMPDEST PUSH2 0x683 DUP7 DUP4 PUSH2 0x63E JUMP JUMPDEST SWAP6 POP DUP1 NOT DUP5 AND SWAP4 POP DUP1 DUP7 AND DUP5 OR SWAP3 POP POP POP SWAP4 SWAP3 POP POP POP JUMP JUMPDEST PUSH0 DUP2 SWAP1 POP SWAP2 SWAP1 POP JUMP JUMPDEST PUSH0 DUP2 SWAP1 POP SWAP2 SWAP1 POP JUMP JUMPDEST PUSH0 PUSH2 0x6C7 PUSH2 0x6C2 PUSH2 0x6BD DUP5 PUSH2 0x69B JUMP JUMPDEST PUSH2 0x6A4 JUMP JUMPDEST PUSH2 0x69B JUMP JUMPDEST SWAP1 POP SWAP2 SWAP1 POP JUMP JUMPDEST PUSH0 DUP2 SWAP1 POP SWAP2 SWAP1 POP JUMP JUMPDEST PUSH2 0x6E0 DUP4 PUSH2 0x6AD JUMP JUMPDEST PUSH2 0x6F4 PUSH2 0x6EC DUP3 PUSH2 0x6CE JUMP JUMPDEST DUP5 DUP5 SLOAD PUSH2 0x64A JUMP JUMPDEST DUP3 SSTORE POP POP POP POP JUMP JUMPDEST PUSH0 PUSH0 SWAP1 POP SWAP1 JUMP JUMPDEST PUSH2 0x70B PUSH2 0x6FC JUMP JUMPDEST PUSH2 0x716 DUP2 DUP5 DUP5 PUSH2 0x6D7 JUMP JUMPDEST POP POP POP JUMP JUMPDEST PUSH0 JUMPDEST DUP3 DUP2 LT ISZERO PUSH2 0x73C JUMPI PUSH2 0x731 PUSH0 DUP3 DUP5 ADD PUSH2 0x703 JUMP JUMPDEST PUSH1 0x1 DUP2 ADD SWAP1 POP PUSH2 0x71D JUMP JUMPDEST POP POP POP JUMP JUMPDEST PUSH1 0x1F DUP3 GT ISZERO PUSH2 0x78F JUMPI DUP3 DUP3 GT ISZERO PUSH2 0x78E JUMPI PUSH2 0x75B DUP2 PUSH2 0x61D JUMP JUMPDEST PUSH2 0x764 DUP4 PUSH2 0x62F JUMP JUMPDEST PUSH2 0x76D DUP6 PUSH2 0x62F JUMP JUMPDEST PUSH1 0x20 DUP7 LT ISZERO PUSH2 0x77A JUMPI PUSH0 SWAP1 POP JUMPDEST DUP1 DUP4 ADD PUSH2 0x789 DUP3 DUP5 SUB DUP3 PUSH2 0x71B JUMP JUMPDEST POP POP POP POP JUMPDEST JUMPDEST POP POP POP JUMP JUMPDEST PUSH0 DUP3 DUP3 SHR SWAP1 POP SWAP3 SWAP2 POP POP JUMP JUMPDEST PUSH0 PUSH2 0x7AF PUSH0 NOT DUP5 PUSH1 0x8 MUL PUSH2 0x794 JUMP JUMPDEST NOT DUP1 DUP4 AND SWAP2 POP POP SWAP3 SWAP2 POP POP JUMP JUMPDEST PUSH0 PUSH2 0x7C7 DUP4 DUP4 PUSH2 0x7A0 JUMP JUMPDEST SWAP2 POP DUP3 PUSH1 0x2 MUL DUP3 OR SWAP1 POP SWAP3 SWAP2 POP POP JUMP JUMPDEST PUSH2 0x7E0 DUP3 PUSH2 0x589 JUMP JUMPDEST PUSH8 0xFFFFFFFFFFFFFFFF DUP2 GT ISZERO PUSH2 0x7F9 JUMPI PUSH2 0x7F8 PUSH2 0x593 JUMP JUMPDEST JUMPDEST PUSH2 0x803 DUP3 SLOAD PUSH2 0x5ED JUMP JUMPDEST PUSH2 0x80E DUP3 DUP3 DUP6 PUSH2 0x741 JUMP JUMPDEST PUSH0 PUSH1 0x20 SWAP1 POP PUSH1 0x1F DUP4 GT PUSH1 0x1 DUP2 EQ PUSH2 0x83F JUMPI PUSH0 DUP5 ISZERO PUSH2 0x82D JUMPI DUP3 DUP8 ADD MLOAD SWAP1 POP JUMPDEST PUSH2 0x837 DUP6 DUP3 PUSH2 0x7BC JUMP JUMPDEST DUP7 SSTORE POP PUSH2 0x89E JUMP JUMPDEST PUSH1 0x1F NOT DUP5 AND PUSH2 0x84D DUP7 PUSH2 0x61D JUMP JUMPDEST PUSH0 JUMPDEST DUP3 DUP2 LT ISZERO PUSH2 0x874 JUMPI DUP5 DUP10 ADD MLOAD DUP3 SSTORE PUSH1 0x1 DUP3 ADD SWAP2 POP PUSH1 0x20 DUP6 ADD SWAP5 POP PUSH1 0x20 DUP2 ADD SWAP1 POP PUSH2 0x84F JUMP JUMPDEST DUP7 DUP4 LT ISZERO PUSH2 0x891 JUMPI DUP5 DUP10 ADD MLOAD PUSH2 0x88D PUSH1 0x1F DUP10 AND DUP3 PUSH2 0x7A0 JUMP JUMPDEST DUP4 SSTORE POP JUMPDEST PUSH1 0x1 PUSH1 0x2 DUP9 MUL ADD DUP9 SSTORE POP POP POP JUMPDEST POP POP POP POP POP POP JUMP JUMPDEST PUSH0 PUSH20 0xFFFFFFFFFFFFFFFFFFFFFFFFFFFFFFFFFFFFFFFF DUP3 AND SWAP1 POP SWAP2 SWAP1 POP JUMP JUMPDEST PUSH0 PUSH2 0x8CF DUP3 PUSH2 0x8A6 JUMP JUMPDEST SWAP1 POP SWAP2 SWAP1 POP JUMP JUMPDEST PUSH2 0x8DF DUP2 PUSH2 0x8C5 JUMP JUMPDEST DUP3 MSTORE POP POP JUMP JUMPDEST PUSH0 PUSH1 0x20 DUP3 ADD SWAP1 POP PUSH2 0x8F8 PUSH0 DUP4 ADD DUP5 PUSH2 0x8D6 JUMP JUMPDEST SWAP3 SWAP2 POP POP JUMP JUMPDEST PUSH32 0x4E487B7100000000000000000000000000000000000000000000000000000000 PUSH0 MSTORE PUSH1 0x11 PUSH1 0x4 MSTORE PUSH1 0x24 PUSH0 REVERT JUMPDEST PUSH0 PUSH2 0x935 DUP3 PUSH2 0x69B JUMP JUMPDEST SWAP2 POP PUSH2 0x940 DUP4 PUSH2 0x69B JUMP JUMPDEST SWAP3 POP DUP3 DUP3 ADD SWAP1 POP DUP1 DUP3 GT ISZERO PUSH2 0x958 JUMPI PUSH2 0x957 PUSH2 0x8FE JUMP JUMPDEST JUMPDEST SWAP3 SWAP2 POP POP JUMP JUMPDEST PUSH2 0x967 DUP2 PUSH2 0x69B JUMP JUMPDEST DUP3 MSTORE POP POP JUMP JUMPDEST PUSH0 PUSH1 0x60 DUP3 ADD SWAP1 POP PUSH2 0x980 PUSH0 DUP4 ADD DUP7 PUSH2 0x8D6 JUMP JUMPDEST PUSH2 0x98D PUSH1 0x20 DUP4 ADD DUP6 PUSH2 0x95E JUMP JUMPDEST PUSH2 0x99A PUSH1 0x40 DUP4 ADD DUP5 PUSH2 0x95E JUMP JUMPDEST SWAP5 SWAP4 POP POP POP POP JUMP JUMPDEST PUSH0 PUSH1 0x20 DUP3 ADD SWAP1 POP PUSH2 0x9B5 PUSH0 DUP4 ADD DUP5 PUSH2 0x95E JUMP JUMPDEST SWAP3 SWAP2 POP POP JUMP JUMPDEST PUSH2 0x111C DUP1 PUSH2 0x9C8 PUSH0 CODECOPY PUSH0 RETURN INVALID PUSH1 0x80 PUSH1 0x40 MSTORE CALLVALUE DUP1 ISZERO PUSH2 0xF JUMPI PUSH0 PUSH0 REVERT JUMPDEST POP PUSH1 0x4 CALLDATASIZE LT PUSH2 0xCD JUMPI PUSH0 CALLDATALOAD PUSH1 0xE0 SHR DUP1 PUSH4 0x70A08231 GT PUSH2 0x8A JUMPI DUP1 PUSH4 0x95D89B41 GT PUSH2 0x64 JUMPI DUP1 PUSH4 0x95D89B41 EQ PUSH2 0x1FF JUMPI DUP1 PUSH4 0xA9059CBB EQ PUSH2 0x21D JUMPI DUP1 PUSH4 0xDD62ED3E EQ PUSH2 0x24D JUMPI DUP1 PUSH4 0xF2FDE38B EQ PUSH2 0x27D JUMPI PUSH2 0xCD JUMP JUMPDEST DUP1 PUSH4 0x70A08231 EQ PUSH2 0x1A7 JUMPI DUP1 PUSH4 0x715018A6 EQ PUSH2 0x1D7 JUMPI DUP1 PUSH4 0x8DA5CB5B EQ PUSH2 0x1E1 JUMPI PUSH2 0xCD JUMP JUMPDEST DUP1 PUSH4 0x6FDDE03 EQ PUSH2 0xD1 JUMPI DUP1 PUSH4 0x95EA7B3 EQ PUSH2 0xEF JUMPI DUP1 PUSH4 0x18160DDD EQ PUSH2 0x11F JUMPI DUP1 PUSH4 0x23B872DD EQ PUSH2 0x13D JUMPI DUP1 PUSH4 0x313CE567 EQ PUSH2 0x16D JUMPI DUP1 PUSH4 0x40C10F19 EQ PUSH2 0x18B JUMPI JUMPDEST PUSH0 PUSH0 REVERT JUMPDEST PUSH2 0xD9 PUSH2 0x299 JUMP JUMPDEST PUSH1 0x40 MLOAD PUSH2 0xE6 SWAP2 SWAP1 PUSH2 0xD95 JUMP JUMPDEST PUSH1 0x40 MLOAD DUP1 SWAP2 SUB SWAP1 RETURN JUMPDEST PUSH2 0x109 PUSH1 0x4 DUP1 CALLDATASIZE SUB DUP2 ADD SWAP1 PUSH2 0x104 SWAP2 SWAP1 PUSH2 0xE46 JUMP JUMPDEST PUSH2 0x329 JUMP JUMPDEST PUSH1 0x40 MLOAD PUSH2 0x116 SWAP2 SWAP1 PUSH2 0xE9E JUMP JUMPDEST PUSH1 0x40 MLOAD DUP1 SWAP2 SUB SWAP1 RETURN JUMPDEST PUSH2 0x127 PUSH2 0x34B JUMP JUMPDEST PUSH1 0x40 MLOAD PUSH2 0x134 SWAP2 SWAP1 PUSH2 0xEC6 JUMP JUMPDEST PUSH1 0x40 MLOAD DUP1 SWAP2 SUB SWAP1 RETURN JUMPDEST PUSH2 0x157 PUSH1 0x4 DUP1 CALLDATASIZE SUB DUP2 ADD SWAP1 PUSH2 0x152 SWAP2 SWAP1 PUSH2 0xEDF JUMP JUMPDEST PUSH2 0x354 JUMP JUMPDEST PUSH1 0x40 MLOAD PUSH2 0x164 SWAP2 SWAP1 PUSH2 0xE9E JUMP JUMPDEST PUSH1 0x40 MLOAD DUP1 SWAP2 SUB SWAP1 RETURN JUMPDEST PUSH2 0x175 PUSH2 0x382 JUMP JUMPDEST PUSH1 0x40 MLOAD PUSH2 0x182 SWAP2 SWAP1 PUSH2 0xF4A JUMP JUMPDEST PUSH1 0x40 MLOAD DUP1 SWAP2 SUB SWAP1 RETURN JUMPDEST PUSH2 0x1A5 PUSH1 0x4 DUP1 CALLDATASIZE SUB DUP2 ADD SWAP1 PUSH2 0x1A0 SWAP2 SWAP1 PUSH2 0xE46 JUMP JUMPDEST PUSH2 0x38A JUMP JUMPDEST STOP JUMPDEST PUSH2 0x1C1 PUSH1 0x4 DUP1 CALLDATASIZE SUB DUP2 ADD SWAP1 PUSH2 0x1BC SWAP2 SWAP1 PUSH2 0xF63 JUMP JUMPDEST PUSH2 0x3A0 JUMP JUMPDEST PUSH1 0x40 MLOAD PUSH2 0x1CE SWAP2 SWAP1 PUSH2 0xEC6 JUMP JUMPDEST PUSH1 0x40 MLOAD DUP1 SWAP2 SUB SWAP1 RETURN JUMPDEST PUSH2 0x1DF PUSH2 0x3E5 JUMP JUMPDEST STOP JUMPDEST PUSH2 0x1E9 PUSH2 0x3F8 JUMP JUMPDEST PUSH1 0x40 MLOAD PUSH2 0x1F6 SWAP2 SWAP1 PUSH2 0xF9D JUMP JUMPDEST PUSH1 0x40 MLOAD DUP1 SWAP2 SUB SWAP1 RETURN JUMPDEST PUSH2 0x207 PUSH2 0x420 JUMP JUMPDEST PUSH1 0x40 MLOAD PUSH2 0x214 SWAP2 SWAP1 PUSH2 0xD95 JUMP JUMPDEST PUSH1 0x40 MLOAD DUP1 SWAP2 SUB SWAP1 RETURN JUMPDEST PUSH2 0x237 PUSH1 0x4 DUP1 CALLDATASIZE SUB DUP2 ADD SWAP1 PUSH2 0x232 SWAP2 SWAP1 PUSH2 0xE46 JUMP JUMPDEST PUSH2 0x4B0 JUMP JUMPDEST PUSH1 0x40 MLOAD PUSH2 0x244 SWAP2 SWAP1 PUSH2 0xE9E JUMP JUMPDEST PUSH1 0x40 MLOAD DUP1 SWAP2 SUB SWAP1 RETURN JUMPDEST PUSH2 0x267 PUSH1 0x4 DUP1 CALLDATASIZE SUB DUP2 ADD SWAP1 PUSH2 0x262 SWAP2 SWAP1 PUSH2 0xFB6 JUMP JUMPDEST PUSH2 0x4D2 JUMP JUMPDEST PUSH1 0x40 MLOAD PUSH2 0x274 SWAP2 SWAP1 PUSH2 0xEC6 JUMP JUMPDEST PUSH1 0x40 MLOAD DUP1 SWAP2 SUB SWAP1 RETURN JUMPDEST PUSH2 0x297 PUSH1 0x4 DUP1 CALLDATASIZE SUB DUP2 ADD SWAP1 PUSH2 0x292 SWAP2 SWAP1 PUSH2 0xF63 JUMP JUMPDEST PUSH2 0x554 JUMP JUMPDEST STOP JUMPDEST PUSH1 0x60 PUSH1 0x3 DUP1 SLOAD PUSH2 0x2A8 SWAP1 PUSH2 0x1021 JUMP JUMPDEST DUP1 PUSH1 0x1F ADD PUSH1 0x20 DUP1 SWAP2 DIV MUL PUSH1 0x20 ADD PUSH1 0x40 MLOAD SWAP1 DUP2 ADD PUSH1 0x40 MSTORE DUP1 SWAP3 SWAP2 SWAP1 DUP2 DUP2 MSTORE PUSH1 0x20 ADD DUP3 DUP1 SLOAD PUSH2 0x2D4 SWAP1 PUSH2 0x1021 JUMP JUMPDEST DUP1 ISZERO PUSH2 0x31F JUMPI DUP1 PUSH1 0x1F LT PUSH2 0x2F6 JUMPI PUSH2 0x100 DUP1 DUP4 SLOAD DIV MUL DUP4 MSTORE SWAP2 PUSH1 0x20 ADD SWAP2 PUSH2 0x31F JUMP JUMPDEST DUP3 ADD SWAP2 SWAP1 PUSH0 MSTORE PUSH1 0x20 PUSH0 KECCAK256 SWAP1 JUMPDEST DUP2 SLOAD DUP2 MSTORE SWAP1 PUSH1 0x1 ADD SWAP1 PUSH1 0x20 ADD DUP1 DUP4 GT PUSH2 0x302 JUMPI DUP3 SWAP1 SUB PUSH1 0x1F AND DUP3 ADD SWAP2 JUMPDEST POP POP POP POP POP SWAP1 POP SWAP1 JUMP JUMPDEST PUSH0 PUSH0 PUSH2 0x333 PUSH2 0x5D8 JUMP JUMPDEST SWAP1 POP PUSH2 0x340 DUP2 DUP6 DUP6 PUSH2 0x5DF JUMP JUMPDEST PUSH1 0x1 SWAP2 POP POP SWAP3 SWAP2 POP POP JUMP JUMPDEST PUSH0 PUSH1 0x2 SLOAD SWAP1 POP SWAP1 JUMP JUMPDEST PUSH0 PUSH0 PUSH2 0x35E PUSH2 0x5D8 JUMP JUMPDEST SWAP1 POP PUSH2 0x36B DUP6 DUP3 DUP6 PUSH2 0x5F1 JUMP JUMPDEST PUSH2 0x376 DUP6 DUP6 DUP6 PUSH2 0x684 JUMP JUMPDEST PUSH1 0x1 SWAP2 POP POP SWAP4 SWAP3 POP POP POP JUMP JUMPDEST PUSH0 PUSH1 0x12 SWAP1 POP SWAP1 JUMP JUMPDEST PUSH2 0x392 PUSH2 0x774 JUMP JUMPDEST PUSH2 0x39C DUP3 DUP3 PUSH2 0x7FB JUMP JUMPDEST POP POP JUMP JUMPDEST PUSH0 PUSH0 PUSH0 DUP4 PUSH20 0xFFFFFFFFFFFFFFFFFFFFFFFFFFFFFFFFFFFFFFFF AND PUSH20 0xFFFFFFFFFFFFFFFFFFFFFFFFFFFFFFFFFFFFFFFF AND DUP2 MSTORE PUSH1 0x20 ADD SWAP1 DUP2 MSTORE PUSH1 0x20 ADD PUSH0 KECCAK256 SLOAD SWAP1 POP SWAP2 SWAP1 POP JUMP JUMPDEST PUSH2 0x3ED PUSH2 0x774 JUMP JUMPDEST PUSH2 0x3F6 PUSH0 PUSH2 0x87A JUMP JUMPDEST JUMP JUMPDEST PUSH0 PUSH1 0x5 PUSH0 SWAP1 SLOAD SWAP1 PUSH2 0x100 EXP SWAP1 DIV PUSH20 0xFFFFFFFFFFFFFFFFFFFFFFFFFFFFFFFFFFFFFFFF AND SWAP1 POP SWAP1 JUMP JUMPDEST PUSH1 0x60 PUSH1 0x4 DUP1 SLOAD PUSH2 0x42F SWAP1 PUSH2 0x1021 JUMP JUMPDEST DUP1 PUSH1 0x1F ADD PUSH1 0x20 DUP1 SWAP2 DIV MUL PUSH1 0x20 ADD PUSH1 0x40 MLOAD SWAP1 DUP2 ADD PUSH1 0x40 MSTORE DUP1 SWAP3 SWAP2 SWAP1 DUP2 DUP2 MSTORE PUSH1 0x20 ADD DUP3 DUP1 SLOAD PUSH2 0x45B SWAP1 PUSH2 0x1021 JUMP JUMPDEST DUP1 ISZERO PUSH2 0x4A6 JUMPI DUP1 PUSH1 0x1F LT PUSH2 0x47D JUMPI PUSH2 0x100 DUP1 DUP4 SLOAD DIV MUL DUP4 MSTORE SWAP2 PUSH1 0x20 ADD SWAP2 PUSH2 0x4A6 JUMP JUMPDEST DUP3 ADD SWAP2 SWAP1 PUSH0 MSTORE PUSH1 0x20 PUSH0 KECCAK256 SWAP1 JUMPDEST DUP2 SLOAD DUP2 MSTORE SWAP1 PUSH1 0x1 ADD SWAP1 PUSH1 0x20 ADD DUP1 DUP4 GT PUSH2 0x489 JUMPI DUP3 SWAP1 SUB PUSH1 0x1F AND DUP3 ADD SWAP2 JUMPDEST POP POP POP POP POP SWAP1 POP SWAP1 JUMP JUMPDEST PUSH0 PUSH0 PUSH2 0x4BA PUSH2 0x5D8 JUMP JUMPDEST SWAP1 POP PUSH2 0x4C7 DUP2 DUP6 DUP6 PUSH2 0x684 JUMP JUMPDEST PUSH1 0x1 SWAP2 POP POP SWAP3 SWAP2 POP POP JUMP JUMPDEST PUSH0 PUSH1 0x1 PUSH0 DUP5 PUSH20 0xFFFFFFFFFFFFFFFFFFFFFFFFFFFFFFFFFFFFFFFF AND PUSH20 0xFFFFFFFFFFFFFFFFFFFFFFFFFFFFFFFFFFFFFFFF AND DUP2 MSTORE PUSH1 0x20 ADD SWAP1 DUP2 MSTORE PUSH1 0x20 ADD PUSH0 KECCAK256 PUSH0 DUP4 PUSH20 0xFFFFFFFFFFFFFFFFFFFFFFFFFFFFFFFFFFFFFFFF AND PUSH20 0xFFFFFFFFFFFFFFFFFFFFFFFFFFFFFFFFFFFFFFFF AND DUP2 MSTORE PUSH1 0x20 ADD SWAP1 DUP2 MSTORE PUSH1 0x20 ADD PUSH0 KECCAK256 SLOAD SWAP1 POP SWAP3 SWAP2 POP POP JUMP JUMPDEST PUSH2 0x55C PUSH2 0x774 JUMP JUMPDEST PUSH0 PUSH20 0xFFFFFFFFFFFFFFFFFFFFFFFFFFFFFFFFFFFFFFFF AND DUP2 PUSH20 0xFFFFFFFFFFFFFFFFFFFFFFFFFFFFFFFFFFFFFFFF AND SUB PUSH2 0x5CC JUMPI PUSH0 PUSH1 0x40 MLOAD PUSH32 0x1E4FBDF700000000000000000000000000000000000000000000000000000000 DUP2 MSTORE PUSH1 0x4 ADD PUSH2 0x5C3 SWAP2 SWAP1 PUSH2 0xF9D JUMP JUMPDEST PUSH1 0x40 MLOAD DUP1 SWAP2 SUB SWAP1 REVERT JUMPDEST PUSH2 0x5D5 DUP2 PUSH2 0x87A JUMP JUMPDEST POP JUMP JUMPDEST PUSH0 CALLER SWAP1 POP SWAP1 JUMP JUMPDEST PUSH2 0x5EC DUP4 DUP4 DUP4 PUSH1 0x1 PUSH2 0x93D JUMP JUMPDEST POP POP POP JUMP JUMPDEST PUSH0 PUSH2 0x5FC DUP5 DUP5 PUSH2 0x4D2 JUMP JUMPDEST SWAP1 POP PUSH32 0xFFFFFFFFFFFFFFFFFFFFFFFFFFFFFFFFFFFFFFFFFFFFFFFFFFFFFFFFFFFFFFFF DUP2 LT ISZERO PUSH2 0x67E JUMPI DUP2 DUP2 LT ISZERO PUSH2 0x66F JUMPI DUP3 DUP2 DUP4 PUSH1 0x40 MLOAD PUSH32 0xFB8F41B200000000000000000000000000000000000000000000000000000000 DUP2 MSTORE PUSH1 0x4 ADD PUSH2 0x666 SWAP4 SWAP3 SWAP2 SWAP1 PUSH2 0x1051 JUMP JUMPDEST PUSH1 0x40 MLOAD DUP1 SWAP2 SUB SWAP1 REVERT JUMPDEST PUSH2 0x67D DUP5 DUP5 DUP5 DUP5 SUB PUSH0 PUSH2 0x93D JUMP JUMPDEST JUMPDEST POP POP POP POP JUMP JUMPDEST PUSH0 PUSH20 0xFFFFFFFFFFFFFFFFFFFFFFFFFFFFFFFFFFFFFFFF AND DUP4 PUSH20 0xFFFFFFFFFFFFFFFFFFFFFFFFFFFFFFFFFFFFFFFF AND SUB PUSH2 0x6F4 JUMPI PUSH0 PUSH1 0x40 MLOAD PUSH32 0x96C6FD1E00000000000000000000000000000000000000000000000000000000 DUP2 MSTORE PUSH1 0x4 ADD PUSH2 0x6EB SWAP2 SWAP1 PUSH2 0xF9D JUMP JUMPDEST PUSH1 0x40 MLOAD DUP1 SWAP2 SUB SWAP1 REVERT JUMPDEST PUSH0 PUSH20 0xFFFFFFFFFFFFFFFFFFFFFFFFFFFFFFFFFFFFFFFF AND DUP3 PUSH20 0xFFFFFFFFFFFFFFFFFFFFFFFFFFFFFFFFFFFFFFFF AND SUB PUSH2 0x764 JUMPI PUSH0 PUSH1 0x40 MLOAD PUSH32 0xEC442F0500000000000000000000000000000000000000000000000000000000 DUP2 MSTORE PUSH1 0x4 ADD PUSH2 0x75B SWAP2 SWAP1 PUSH2 0xF9D JUMP JUMPDEST PUSH1 0x40 MLOAD DUP1 SWAP2 SUB SWAP1 REVERT JUMPDEST PUSH2 0x76F DUP4 DUP4 DUP4 PUSH2 0xB0C JUMP JUMPDEST POP POP POP JUMP JUMPDEST PUSH2 0x77C PUSH2 0x5D8 JUMP JUMPDEST PUSH20 0xFFFFFFFFFFFFFFFFFFFFFFFFFFFFFFFFFFFFFFFF AND PUSH2 0x79A PUSH2 0x3F8 JUMP JUMPDEST PUSH20 0xFFFFFFFFFFFFFFFFFFFFFFFFFFFFFFFFFFFFFFFF AND EQ PUSH2 0x7F9 JUMPI PUSH2 0x7BD PUSH2 0x5D8 JUMP JUMPDEST PUSH1 0x40 MLOAD PUSH32 0x118CDAA700000000000000000000000000000000000000000000000000000000 DUP2 MSTORE PUSH1 0x4 ADD PUSH2 0x7F0 SWAP2 SWAP1 PUSH2 0xF9D JUMP JUMPDEST PUSH1 0x40 MLOAD DUP1 SWAP2 SUB SWAP1 REVERT JUMPDEST JUMP JUMPDEST PUSH0 PUSH20 0xFFFFFFFFFFFFFFFFFFFFFFFFFFFFFFFFFFFFFFFF AND DUP3 PUSH20 0xFFFFFFFFFFFFFFFFFFFFFFFFFFFFFFFFFFFFFFFF AND SUB PUSH2 0x86B JUMPI PUSH0 PUSH1 0x40 MLOAD PUSH32 0xEC442F0500000000000000000000000000000000000000000000000000000000 DUP2 MSTORE PUSH1 0x4 ADD PUSH2 0x862 SWAP2 SWAP1 PUSH2 0xF9D JUMP JUMPDEST PUSH1 0x40 MLOAD DUP1 SWAP2 SUB SWAP1 REVERT JUMPDEST PUSH2 0x876 PUSH0 DUP4 DUP4 PUSH2 0xB0C JUMP JUMPDEST POP POP JUMP JUMPDEST PUSH0 PUSH1 0x5 PUSH0 SWAP1 SLOAD SWAP1 PUSH2 0x100 EXP SWAP1 DIV PUSH20 0xFFFFFFFFFFFFFFFFFFFFFFFFFFFFFFFFFFFFFFFF AND SWAP1 POP DUP2 PUSH1 0x5 PUSH0 PUSH2 0x100 EXP DUP2 SLOAD DUP2 PUSH20 0xFFFFFFFFFFFFFFFFFFFFFFFFFFFFFFFFFFFFFFFF MUL NOT AND SWAP1 DUP4 PUSH20 0xFFFFFFFFFFFFFFFFFFFFFFFFFFFFFFFFFFFFFFFF AND MUL OR SWAP1 SSTORE POP DUP2 PUSH20 0xFFFFFFFFFFFFFFFFFFFFFFFFFFFFFFFFFFFFFFFF AND DUP2 PUSH20 0xFFFFFFFFFFFFFFFFFFFFFFFFFFFFFFFFFFFFFFFF AND PUSH32 0x8BE0079C531659141344CD1FD0A4F28419497F9722A3DAAFE3B4186F6B6457E0 PUSH1 0x40 MLOAD PUSH1 0x40 MLOAD DUP1 SWAP2 SUB SWAP1 LOG3 POP POP JUMP JUMPDEST PUSH0 PUSH20 0xFFFFFFFFFFFFFFFFFFFFFFFFFFFFFFFFFFFFFFFF AND DUP5 PUSH20 0xFFFFFFFFFFFFFFFFFFFFFFFFFFFFFFFFFFFFFFFF AND SUB PUSH2 0x9AD JUMPI PUSH0 PUSH1 0x40 MLOAD PUSH32 0xE602DF0500000000000000000000000000000000000000000000000000000000 DUP2 MSTORE PUSH1 0x4 ADD PUSH2 0x9A4 SWAP2 SWAP1 PUSH2 0xF9D JUMP JUMPDEST PUSH1 0x40 MLOAD DUP1 SWAP2 SUB SWAP1 REVERT JUMPDEST PUSH0 PUSH20 0xFFFFFFFFFFFFFFFFFFFFFFFFFFFFFFFFFFFFFFFF AND DUP4 PUSH20 0xFFFFFFFFFFFFFFFFFFFFFFFFFFFFFFFFFFFFFFFF AND SUB PUSH2 0xA1D JUMPI PUSH0 PUSH1 0x40 MLOAD PUSH32 0x94280D6200000000000000000000000000000000000000000000000000000000 DUP2 MSTORE PUSH1 0x4 ADD PUSH2 0xA14 SWAP2 SWAP1 PUSH2 0xF9D JUMP JUMPDEST PUSH1 0x40 MLOAD DUP1 SWAP2 SUB SWAP1 REVERT JUMPDEST DUP2 PUSH1 0x1 PUSH0 DUP7 PUSH20 0xFFFFFFFFFFFFFFFFFFFFFFFFFFFFFFFFFFFFFFFF AND PUSH20 0xFFFFFFFFFFFFFFFFFFFFFFFFFFFFFFFFFFFFFFFF AND DUP2 MSTORE PUSH1 0x20 ADD SWAP1 DUP2 MSTORE PUSH1 0x20 ADD PUSH0 KECCAK256 PUSH0 DUP6 PUSH20 0xFFFFFFFFFFFFFFFFFFFFFFFFFFFFFFFFFFFFFFFF AND PUSH20 0xFFFFFFFFFFFFFFFFFFFFFFFFFFFFFFFFFFFFFFFF AND DUP2 MSTORE PUSH1 0x20 ADD SWAP1 DUP2 MSTORE PUSH1 0x20 ADD PUSH0 KECCAK256 DUP2 SWAP1 SSTORE POP DUP1 ISZERO PUSH2 0xB06 JUMPI DUP3 PUSH20 0xFFFFFFFFFFFFFFFFFFFFFFFFFFFFFFFFFFFFFFFF AND DUP5 PUSH20 0xFFFFFFFFFFFFFFFFFFFFFFFFFFFFFFFFFFFFFFFF AND PUSH32 0x8C5BE1E5EBEC7D5BD14F71427D1E84F3DD0314C0F7B2291E5B200AC8C7C3B925 DUP5 PUSH1 0x40 MLOAD PUSH2 0xAFD SWAP2 SWAP1 PUSH2 0xEC6 JUMP JUMPDEST PUSH1 0x40 MLOAD DUP1 SWAP2 SUB SWAP1 LOG3 JUMPDEST POP POP POP POP JUMP JUMPDEST PUSH0 PUSH20 0xFFFFFFFFFFFFFFFFFFFFFFFFFFFFFFFFFFFFFFFF AND DUP4 PUSH20 0xFFFFFFFFFFFFFFFFFFFFFFFFFFFFFFFFFFFFFFFF AND SUB PUSH2 0xB5C JUMPI DUP1 PUSH1 0x2 PUSH0 DUP3 DUP3 SLOAD PUSH2 0xB50 SWAP2 SWAP1 PUSH2 0x10B3 JUMP JUMPDEST SWAP3 POP POP DUP2 SWAP1 SSTORE POP PUSH2 0xC2A JUMP JUMPDEST PUSH0 PUSH0 PUSH0 DUP6 PUSH20 0xFFFFFFFFFFFFFFFFFFFFFFFFFFFFFFFFFFFFFFFF AND PUSH20 0xFFFFFFFFFFFFFFFFFFFFFFFFFFFFFFFFFFFFFFFF AND DUP2 MSTORE PUSH1 0x20 ADD SWAP1 DUP2 MSTORE PUSH1 0x20 ADD PUSH0 KECCAK256 SLOAD SWAP1 POP DUP2 DUP2 LT ISZERO PUSH2 0xBE5 JUMPI DUP4 DUP2 DUP4 PUSH1 0x40 MLOAD PUSH32 0xE450D38C00000000000000000000000000000000000000000000000000000000 DUP2 MSTORE PUSH1 0x4 ADD PUSH2 0xBDC SWAP4 SWAP3 SWAP2 SWAP1 PUSH2 0x1051 JUMP JUMPDEST PUSH1 0x40 MLOAD DUP1 SWAP2 SUB SWAP1 REVERT JUMPDEST DUP2 DUP2 SUB PUSH0 PUSH0 DUP7 PUSH20 0xFFFFFFFFFFFFFFFFFFFFFFFFFFFFFFFFFFFFFFFF AND PUSH20 0xFFFFFFFFFFFFFFFFFFFFFFFFFFFFFFFFFFFFFFFF AND DUP2 MSTORE PUSH1 0x20 ADD SWAP1 DUP2 MSTORE PUSH1 0x20 ADD PUSH0 KECCAK256 DUP2 SWAP1 SSTORE POP POP JUMPDEST PUSH0 PUSH20 0xFFFFFFFFFFFFFFFFFFFFFFFFFFFFFFFFFFFFFFFF AND DUP3 PUSH20 0xFFFFFFFFFFFFFFFFFFFFFFFFFFFFFFFFFFFFFFFF AND SUB PUSH2 0xC71 JUMPI DUP1 PUSH1 0x2 PUSH0 DUP3 DUP3 SLOAD SUB SWAP3 POP POP DUP2 SWAP1 SSTORE POP PUSH2 0xCBB JUMP JUMPDEST DUP1 PUSH0 PUSH0 DUP5 PUSH20 0xFFFFFFFFFFFFFFFFFFFFFFFFFFFFFFFFFFFFFFFF AND PUSH20 0xFFFFFFFFFFFFFFFFFFFFFFFFFFFFFFFFFFFFFFFF AND DUP2 MSTORE PUSH1 0x20 ADD SWAP1 DUP2 MSTORE PUSH1 0x20 ADD PUSH0 KECCAK256 PUSH0 DUP3 DUP3 SLOAD ADD SWAP3 POP POP DUP2 SWAP1 SSTORE POP JUMPDEST DUP2 PUSH20 0xFFFFFFFFFFFFFFFFFFFFFFFFFFFFFFFFFFFFFFFF AND DUP4 PUSH20 0xFFFFFFFFFFFFFFFFFFFFFFFFFFFFFFFFFFFFFFFF AND PUSH32 0xDDF252AD1BE2C89B69C2B068FC378DAA952BA7F163C4A11628F55A4DF523B3EF DUP4 PUSH1 0x40 MLOAD PUSH2 0xD18 SWAP2 SWAP1 PUSH2 0xEC6 JUMP JUMPDEST PUSH1 0x40 MLOAD DUP1 SWAP2 SUB SWAP1 LOG3 POP POP POP JUMP JUMPDEST PUSH0 DUP2 MLOAD SWAP1 POP SWAP2 SWAP1 POP JUMP JUMPDEST PUSH0 DUP3 DUP3 MSTORE PUSH1 0x20 DUP3 ADD SWAP1 POP SWAP3 SWAP2 POP POP JUMP JUMPDEST DUP3 DUP2 DUP4 MCOPY PUSH0 DUP4 DUP4 ADD MSTORE POP POP POP JUMP JUMPDEST PUSH0 PUSH1 0x1F NOT PUSH1 0x1F DUP4 ADD AND SWAP1 POP SWAP2 SWAP1 POP JUMP JUMPDEST PUSH0 PUSH2 0xD67 DUP3 PUSH2 0xD25 JUMP JUMPDEST PUSH2 0xD71 DUP2 DUP6 PUSH2 0xD2F JUMP JUMPDEST SWAP4 POP PUSH2 0xD81 DUP2 DUP6 PUSH1 0x20 DUP7 ADD PUSH2 0xD3F JUMP JUMPDEST PUSH2 0xD8A DUP2 PUSH2 0xD4D JUMP JUMPDEST DUP5 ADD SWAP2 POP POP SWAP3 SWAP2 POP POP JUMP JUMPDEST PUSH0 PUSH1 0x20 DUP3 ADD SWAP1 POP DUP2 DUP2 SUB PUSH0 DUP4 ADD MSTORE PUSH2 0xDAD DUP2 DUP5 PUSH2 0xD5D JUMP JUMPDEST SWAP1 POP SWAP3 SWAP2 POP POP JUMP JUMPDEST PUSH0 PUSH0 REVERT JUMPDEST PUSH0 PUSH20 0xFFFFFFFFFFFFFFFFFFFFFFFFFFFFFFFFFFFFFFFF DUP3 AND SWAP1 POP SWAP2 SWAP1 POP JUMP JUMPDEST PUSH0 PUSH2 0xDE2 DUP3 PUSH2 0xDB9 JUMP JUMPDEST SWAP1 POP SWAP2 SWAP1 POP JUMP JUMPDEST PUSH2 0xDF2 DUP2 PUSH2 0xDD8 JUMP JUMPDEST DUP2 EQ PUSH2 0xDFC JUMPI PUSH0 PUSH0 REVERT JUMPDEST POP JUMP JUMPDEST PUSH0 DUP2 CALLDATALOAD SWAP1 POP PUSH2 0xE0D DUP2 PUSH2 0xDE9 JUMP JUMPDEST SWAP3 SWAP2 POP POP JUMP JUMPDEST PUSH0 DUP2 SWAP1 POP SWAP2 SWAP1 POP JUMP JUMPDEST PUSH2 0xE25 DUP2 PUSH2 0xE13 JUMP JUMPDEST DUP2 EQ PUSH2 0xE2F JUMPI PUSH0 PUSH0 REVERT JUMPDEST POP JUMP JUMPDEST PUSH0 DUP2 CALLDATALOAD SWAP1 POP PUSH2 0xE40 DUP2 PUSH2 0xE1C JUMP JUMPDEST SWAP3 SWAP2 POP POP JUMP JUMPDEST PUSH0 PUSH0 PUSH1 0x40 DUP4 DUP6 SUB SLT ISZERO PUSH2 0xE5C JUMPI PUSH2 0xE5B PUSH2 0xDB5 JUMP JUMPDEST JUMPDEST PUSH0 PUSH2 0xE69 DUP6 DUP3 DUP7 ADD PUSH2 0xDFF JUMP JUMPDEST SWAP3 POP POP PUSH1 0x20 PUSH2 0xE7A DUP6 DUP3 DUP7 ADD PUSH2 0xE32 JUMP JUMPDEST SWAP2 POP POP SWAP3 POP SWAP3 SWAP1 POP JUMP JUMPDEST PUSH0 DUP2 ISZERO ISZERO SWAP1 POP SWAP2 SWAP1 POP JUMP JUMPDEST PUSH2 0xE98 DUP2 PUSH2 0xE84 JUMP JUMPDEST DUP3 MSTORE POP POP JUMP JUMPDEST PUSH0 PUSH1 0x20 DUP3 ADD SWAP1 POP PUSH2 0xEB1 PUSH0 DUP4 ADD DUP5 PUSH2 0xE8F JUMP JUMPDEST SWAP3 SWAP2 POP POP JUMP JUMPDEST PUSH2 0xEC0 DUP2 PUSH2 0xE13 JUMP JUMPDEST DUP3 MSTORE POP POP JUMP JUMPDEST PUSH0 PUSH1 0x20 DUP3 ADD SWAP1 POP PUSH2 0xED9 PUSH0 DUP4 ADD DUP5 PUSH2 0xEB7 JUMP JUMPDEST SWAP3 SWAP2 POP POP JUMP JUMPDEST PUSH0 PUSH0 PUSH0 PUSH1 0x60 DUP5 DUP7 SUB SLT ISZERO PUSH2 0xEF6 JUMPI PUSH2 0xEF5 PUSH2 0xDB5 JUMP JUMPDEST JUMPDEST PUSH0 PUSH2 0xF03 DUP7 DUP3 DUP8 ADD PUSH2 0xDFF JUMP JUMPDEST SWAP4 POP POP PUSH1 0x20 PUSH2 0xF14 DUP7 DUP3 DUP8 ADD PUSH2 0xDFF JUMP JUMPDEST SWAP3 POP POP PUSH1 0x40 PUSH2 0xF25 DUP7 DUP3 DUP8 ADD PUSH2 0xE32 JUMP JUMPDEST SWAP2 POP POP SWAP3 POP SWAP3 POP SWAP3 JUMP JUMPDEST PUSH0 PUSH1 0xFF DUP3 AND SWAP1 POP SWAP2 SWAP1 POP JUMP JUMPDEST PUSH2 0xF44 DUP2 PUSH2 0xF2F JUMP JUMPDEST DUP3 MSTORE POP POP JUMP JUMPDEST PUSH0 PUSH1 0x20 DUP3 ADD SWAP1 POP PUSH2 0xF5D PUSH0 DUP4 ADD DUP5 PUSH2 0xF3B JUMP JUMPDEST SWAP3 SWAP2 POP POP JUMP JUMPDEST PUSH0 PUSH1 0x20 DUP3 DUP5 SUB SLT ISZERO PUSH2 0xF78 JUMPI PUSH2 0xF77 PUSH2 0xDB5 JUMP JUMPDEST JUMPDEST PUSH0 PUSH2 0xF85 DUP5 DUP3 DUP6 ADD PUSH2 0xDFF JUMP JUMPDEST SWAP2 POP POP SWAP3 SWAP2 POP POP JUMP JUMPDEST PUSH2 0xF97 DUP2 PUSH2 0xDD8 JUMP JUMPDEST DUP3 MSTORE POP POP JUMP JUMPDEST PUSH0 PUSH1 0x20 DUP3 ADD SWAP1 POP PUSH2 0xFB0 PUSH0 DUP4 ADD DUP5 PUSH2 0xF8E JUMP JUMPDEST SWAP3 SWAP2 POP POP JUMP JUMPDEST PUSH0 PUSH0 PUSH1 0x40 DUP4 DUP6 SUB SLT ISZERO PUSH2 0xFCC JUMPI PUSH2 0xFCB PUSH2 0xDB5 JUMP JUMPDEST JUMPDEST PUSH0 PUSH2 0xFD9 DUP6 DUP3 DUP7 ADD PUSH2 0xDFF JUMP JUMPDEST SWAP3 POP POP PUSH1 0x20 PUSH2 0xFEA DUP6 DUP3 DUP7 ADD PUSH2 0xDFF JUMP JUMPDEST SWAP2 POP POP SWAP3 POP SWAP3 SWAP1 POP JUMP JUMPDEST PUSH32 0x4E487B7100000000000000000000000000000000000000000000000000000000 PUSH0 MSTORE PUSH1 0x22 PUSH1 0x4 MSTORE PUSH1 0x24 PUSH0 REVERT JUMPDEST PUSH0 PUSH1 0x2 DUP3 DIV SWAP1 POP PUSH1 0x1 DUP3 AND DUP1 PUSH2 0x1038 JUMPI PUSH1 0x7F DUP3 AND SWAP2 POP JUMPDEST PUSH1 0x20 DUP3 LT DUP2 SUB PUSH2 0x104B JUMPI PUSH2 0x104A PUSH2 0xFF4 JUMP JUMPDEST JUMPDEST POP SWAP2 SWAP1 POP JUMP JUMPDEST PUSH0 PUSH1 0x60 DUP3 ADD SWAP1 POP PUSH2 0x1064 PUSH0 DUP4 ADD DUP7 PUSH2 0xF8E JUMP JUMPDEST PUSH2 0x1071 PUSH1 0x20 DUP4 ADD DUP6 PUSH2 0xEB7 JUMP JUMPDEST PUSH2 0x107E PUSH1 0x40 DUP4 ADD DUP5 PUSH2 0xEB7 JUMP JUMPDEST SWAP5 SWAP4 POP POP POP POP JUMP JUMPDEST PUSH32 0x4E487B7100000000000000000000000000000000000000000000000000000000 PUSH0 MSTORE PUSH1 0x11 PUSH1 0x4 MSTORE PUSH1 0x24 PUSH0 REVERT JUMPDEST PUSH0 PUSH2 0x10BD DUP3 PUSH2 0xE13 JUMP JUMPDEST SWAP2 POP PUSH2 0x10C8 DUP4 PUSH2 0xE13 JUMP JUMPDEST SWAP3 POP DUP3 DUP3 ADD SWAP1 POP DUP1 DUP3 GT ISZERO PUSH2 0x10E0 JUMPI PUSH2 0x10DF PUSH2 0x1086 JUMP JUMPDEST JUMPDEST SWAP3 SWAP2 POP POP JUMP INVALID LOG2 PUSH5 0x6970667358 0x22 SLT KECCAK256 PUSH31 0xD46905CAD026C238595FFD482D5758557323DAD8D937191FE2A2D4A3D5E4B0 PUSH5 0x736F6C6343 STOP ADDMOD 0x22 STOP CALLER "
		},
		"gasEstimates": {
			"creation": {
				"codeDepositCost": "876000",
				"executionCost": "infinite",
				"totalCost": "infinite"
			},
			"external": {
				"allowance(address,address)": "infinite",
				"approve(address,uint256)": "infinite",
				"balanceOf(address)": "2851",
				"decimals()": "427",
				"mint(address,uint256)": "infinite",
				"name()": "infinite",
				"owner()": "2582",
				"renounceOwnership()": "infinite",
				"symbol()": "infinite",
				"totalSupply()": "2477",
				"transfer(address,uint256)": "infinite",
				"transferFrom(address,address,uint256)": "infinite",
				"transferOwnership(address)": "infinite"
			}
		},
		"methodIdentifiers": {
			"allowance(address,address)": "dd62ed3e",
			"approve(address,uint256)": "095ea7b3",
			"balanceOf(address)": "70a08231",
			"decimals()": "313ce567",
			"mint(address,uint256)": "40c10f19",
			"name()": "06fdde03",
			"owner()": "8da5cb5b",
			"renounceOwnership()": "715018a6",
			"symbol()": "95d89b41",
			"totalSupply()": "18160ddd",
			"transfer(address,uint256)": "a9059cbb",
			"transferFrom(address,address,uint256)": "23b872dd",
			"transferOwnership(address)": "f2fde38b"
		}
	},
	"abi": [
		{
			"inputs": [],
			"stateMutability": "nonpayable",
			"type": "constructor"
		},
		{
			"inputs": [
				{
					"internalType": "address",
					"name": "spender",
					"type": "address"
				},
				{
					"internalType": "uint256",
					"name": "allowance",
					"type": "uint256"
				},
				{
					"internalType": "uint256",
					"name": "needed",
					"type": "uint256"
				}
			],
			"name": "ERC20InsufficientAllowance",
			"type": "error"
		},
		{
			"inputs": [
				{
					"internalType": "address",
					"name": "sender",
					"type": "address"
				},
				{
					"internalType": "uint256",
					"name": "balance",
					"type": "uint256"
				},
				{
					"internalType": "uint256",
					"name": "needed",
					"type": "uint256"
				}
			],
			"name": "ERC20InsufficientBalance",
			"type": "error"
		},
		{
			"inputs": [
				{
					"internalType": "address",
					"name": "approver",
					"type": "address"
				}
			],
			"name": "ERC20InvalidApprover",
			"type": "error"
		},
		{
			"inputs": [
				{
					"internalType": "address",
					"name": "receiver",
					"type": "address"
				}
			],
			"name": "ERC20InvalidReceiver",
			"type": "error"
		},
		{
			"inputs": [
				{
					"internalType": "address",
					"name": "sender",
					"type": "address"
				}
			],
			"name": "ERC20InvalidSender",
			"type": "error"
		},
		{
			"inputs": [
				{
					"internalType": "address",
					"name": "spender",
					"type": "address"
				}
			],
			"name": "ERC20InvalidSpender",
			"type": "error"
		},
		{
			"inputs": [
				{
					"internalType": "address",
					"name": "owner",
					"type": "address"
				}
			],
			"name": "OwnableInvalidOwner",
			"type": "error"
		},
		{
			"inputs": [
				{
					"internalType": "address",
					"name": "account",
					"type": "address"
				}
			],
			"name": "OwnableUnauthorizedAccount",
			"type": "error"
		},
		{
			"anonymous": false,
			"inputs": [
				{
					"indexed": true,
					"internalType": "address",
					"name": "owner",
					"type": "address"
				},
				{
					"indexed": true,
					"internalType": "address",
					"name": "spender",
					"type": "address"
				},
				{
					"indexed": false,
					"internalType": "uint256",
					"name": "value",
					"type": "uint256"
				}
			],
			"name": "Approval",
			"type": "event"
		},
		{
			"anonymous": false,
			"inputs": [
				{
					"indexed": true,
					"internalType": "address",
					"name": "previousOwner",
					"type": "address"
				},
				{
					"indexed": true,
					"internalType": "address",
					"name": "newOwner",
					"type": "address"
				}
			],
			"name": "OwnershipTransferred",
			"type": "event"
		},
		{
			"anonymous": false,
			"inputs": [
				{
					"indexed": true,
					"internalType": "address",
					"name": "from",
					"type": "address"
				},
				{
					"indexed": true,
					"internalType": "address",
					"name": "to",
					"type": "address"
				},
				{
					"indexed": false,
					"internalType": "uint256",
					"name": "value",
					"type": "uint256"
				}
			],
			"name": "Transfer",
			"type": "event"
		},
		{
			"inputs": [
				{
					"internalType": "address",
					"name": "owner",
					"type": "address"
				},
				{
					"internalType": "address",
					"name": "spender",
					"type": "address"
				}
			],
			"name": "allowance",
			"outputs": [
				{
					"internalType": "uint256",
					"name": "",
					"type": "uint256"
				}
			],
			"stateMutability": "view",
			"type": "function"
		},
		{
			"inputs": [
				{
					"internalType": "address",
					"name": "spender",
					"type": "address"
				},
				{
					"internalType": "uint256",
					"name": "value",
					"type": "uint256"
				}
			],
			"name": "approve",
			"outputs": [
				{
					"internalType": "bool",
					"name": "",
					"type": "bool"
				}
			],
			"stateMutability": "nonpayable",
			"type": "function"
		},
		{
			"inputs": [
				{
					"internalType": "address",
					"name": "account",
					"type": "address"
				}
			],
			"name": "balanceOf",
			"outputs": [
				{
					"internalType": "uint256",
					"name": "",
					"type": "uint256"
				}
			],
			"stateMutability": "view",
			"type": "function"
		},
		{
			"inputs": [],
			"name": "decimals",
			"outputs": [
				{
					"internalType": "uint8",
					"name": "",
					"type": "uint8"
				}
			],
			"stateMutability": "view",
			"type": "function"
		},
		{
			"inputs": [
				{
					"internalType": "address",
					"name": "to",
					"type": "address"
				},
				{
					"internalType": "uint256",
					"name": "amount",
					"type": "uint256"
				}
			],
			"name": "mint",
			"outputs": [],
			"stateMutability": "nonpayable",
			"type": "function"
		},
		{
			"inputs": [],
			"name": "name",
			"outputs": [
				{
					"internalType": "string",
					"name": "",
					"type": "string"
				}
			],
			"stateMutability": "view",
			"type": "function"
		},
		{
			"inputs": [],
			"name": "owner",
			"outputs": [
				{
					"internalType": "address",
					"name": "",
					"type": "address"
				}
			],
			"stateMutability": "view",
			"type": "function"
		},
		{
			"inputs": [],
			"name": "renounceOwnership",
			"outputs": [],
			"stateMutability": "nonpayable",
			"type": "function"
		},
		{
			"inputs": [],
			"name": "symbol",
			"outputs": [
				{
					"internalType": "string",
					"name": "",
					"type": "string"
				}
			],
			"stateMutability": "view",
			"type": "function"
		},
		{
			"inputs": [],
			"name": "totalSupply",
			"outputs": [
				{
					"internalType": "uint256",
					"name": "",
					"type": "uint256"
				}
			],
			"stateMutability": "view",
			"type": "function"
		},
		{
			"inputs": [
				{
					"internalType": "address",
					"name": "to",
					"type": "address"
				},
				{
					"internalType": "uint256",
					"name": "value",
					"type": "uint256"
				}
			],
			"name": "transfer",
			"outputs": [
				{
					"internalType": "bool",
					"name": "",
					"type": "bool"
				}
			],
			"stateMutability": "nonpayable",
			"type": "function"
		},
		{
			"inputs": [
				{
					"internalType": "address",
					"name": "from",
					"type": "address"
				},
				{
					"internalType": "address",
					"name": "to",
					"type": "address"
				},
				{
					"internalType": "uint256",
					"name": "value",
					"type": "uint256"
				}
			],
			"name": "transferFrom",
			"outputs": [
				{
					"internalType": "bool",
					"name": "",
					"type": "bool"
				}
			],
			"stateMutability": "nonpayable",
			"type": "function"
		},
		{
			"inputs": [
				{
					"internalType": "address",
					"name": "newOwner",
					"type": "address"
				}
			],
			"name": "transferOwnership",
			"outputs": [],
			"stateMutability": "nonpayable",
			"type": "function"
		}
	]
}