{
	"data": {
		"bytecode": {
			"linkReferences": {},
			"object": "60806040526040518060400160405280600881526020017f736f6c69646974790000000000000000000000000000000000000000000000008152505f908161004791906102a7565b50348015610053575f5ffd5b50610376565b5f81519050919050565b7f4e487b71000000000000000000000000000000000000000000000000000000005f52604160045260245ffd5b7f4e487b71000000000000000000000000000000000000000000000000000000005f52602260045260245ffd5b5f60028204905060018216806100d457607f821691505b6020821081036100e7576100e6610090565b5b50919050565b5f819050815f5260205f209050919050565b5f6020601f8301049050919050565b5f82821b905092915050565b5f600883026101497fffffffffffffffffffffffffffffffffffffffffffffffffffffffffffffffff8261010e565b610153868361010e565b95508019841693508086168417925050509392505050565b5f819050919050565b5f819050919050565b5f61019761019261018d8461016b565b610174565b61016b565b9050919050565b5f819050919050565b6101b08361017d565b6101c46101bc8261019e565b84845461011a565b825550505050565b5f5f905090565b6101db6101cc565b6101e68184846101a7565b505050565b5f5b8281101561020c576102015f8284016101d3565b6001810190506101ed565b505050565b601f82111561025f578282111561025e5761022b816100ed565b610234836100ff565b61023d856100ff565b602086101561024a575f90505b808301610259828403826101eb565b505050505b5b505050565b5f82821c905092915050565b5f61027f5f1984600802610264565b1980831691505092915050565b5f6102978383610270565b9150826002028217905092915050565b6102b082610059565b67ffffffffffffffff8111156102c9576102c8610063565b5b6102d382546100bd565b6102de828285610211565b5f60209050601f83116001811461030f575f84156102fd578287015190505b610307858261028c565b86555061036e565b601f19841661031d866100ed565b5f5b828110156103445784890151825560018201915060208501945060208101905061031f565b86831015610361578489015161035d601f891682610270565b8355505b6001600288020188555050505b505050505050565b610716806103835f395ff3fe608060405234801561000f575f5ffd5b506004361061004a575f3560e01c806306fdde031461004e578063a41368621461006c578063ef690cc014610088578063fe50cc72146100a6575b5f5ffd5b6100566100c4565b60405161006391906102f1565b60405180910390f35b6100866004803603810190610081919061037a565b61014f565b005b610090610165565b60405161009d91906102f1565b60405180910390f35b6100ae6101f1565b6040516100bb91906102f1565b60405180910390f35b5f80546100d0906103f2565b80601f01602080910402602001604051908101604052809291908181526020018280546100fc906103f2565b80156101475780601f1061011e57610100808354040283529160200191610147565b820191905f5260205f20905b81548152906001019060200180831161012a57829003601f168201915b505050505081565b818160019182610160929190610613565b505050565b60018054610172906103f2565b80601f016020809104026020016040519081016040528092919081815260200182805461019e906103f2565b80156101e95780601f106101c0576101008083540402835291602001916101e9565b820191905f5260205f20905b8154815290600101906020018083116101cc57829003601f168201915b505050505081565b606060018054610200906103f2565b80601f016020809104026020016040519081016040528092919081815260200182805461022c906103f2565b80156102775780601f1061024e57610100808354040283529160200191610277565b820191905f5260205f20905b81548152906001019060200180831161025a57829003601f168201915b5050505050905090565b5f81519050919050565b5f82825260208201905092915050565b8281835e5f83830152505050565b5f601f19601f8301169050919050565b5f6102c382610281565b6102cd818561028b565b93506102dd81856020860161029b565b6102e6816102a9565b840191505092915050565b5f6020820190508181035f83015261030981846102b9565b905092915050565b5f5ffd5b5f5ffd5b5f5ffd5b5f5ffd5b5f5ffd5b5f5f83601f84011261033a57610339610319565b5b8235905067ffffffffffffffff8111156103575761035661031d565b5b60208301915083600182028301111561037357610372610321565b5b9250929050565b5f5f602083850312156103905761038f610311565b5b5f83013567ffffffffffffffff8111156103ad576103ac610315565b5b6103b985828601610325565b92509250509250929050565b7f4e487b71000000000000000000000000000000000000000000000000000000005f52602260045260245ffd5b5f600282049050600182168061040957607f821691505b60208210810361041c5761041b6103c5565b5b50919050565b5f82905092915050565b7f4e487b71000000000000000000000000000000000000000000000000000000005f52604160045260245ffd5b5f819050815f5260205f209050919050565b5f6020601f8301049050919050565b5f82821b905092915050565b5f600883026104b57fffffffffffffffffffffffffffffffffffffffffffffffffffffffffffffffff8261047a565b6104bf868361047a565b95508019841693508086168417925050509392505050565b5f819050919050565b5f819050919050565b5f6105036104fe6104f9846104d7565b6104e0565b6104d7565b9050919050565b5f819050919050565b61051c836104e9565b6105306105288261050a565b848454610486565b825550505050565b5f5f905090565b610547610538565b610552818484610513565b505050565b5f5b828110156105785761056d5f82840161053f565b600181019050610559565b505050565b601f8211156105cb57828211156105ca5761059781610459565b6105a08361046b565b6105a98561046b565b60208610156105b6575f90505b8083016105c582840382610557565b505050505b5b505050565b5f82821c905092915050565b5f6105eb5f19846008026105d0565b1980831691505092915050565b5f61060383836105dc565b9150826002028217905092915050565b61061d8383610422565b67ffffffffffffffff8111156106365761063561042c565b5b61064082546103f2565b61064b82828561057d565b5f601f831160018114610678575f8415610666578287013590505b61067085826105f8565b8655506106d7565b601f19841661068686610459565b5f5b828110156106ad57848901358255600182019150602085019450602081019050610688565b868310156106ca57848901356106c6601f8916826105dc565b8355505b6001600288020188555050505b5050505050505056fea264697066735822122050e33896a17afe4112688591e98ccf88d6e600ff4079856cd0e71b38be5081a264736f6c63430008220033",
			"opcodes": "PUSH1 0x80 PUSH1 0x40 MSTORE PUSH1 0x40 MLOAD DUP1 PUSH1 0x40 ADD PUSH1 0x40 MSTORE DUP1 PUSH1 0x8 DUP2 MSTORE PUSH1 0x20 ADD PUSH32 0x736F6C6964697479000000000000000000000000000000000000000000000000 DUP2 MSTORE POP PUSH0 SWAP1 DUP2 PUSH2 0x47 SWAP2 SWAP1 PUSH2 0x2A7 JUMP JUMPDEST POP CALLVALUE DUP1 ISZERO PUSH2 0x53 JUMPI PUSH0 PUSH0 REVERT JUMPDEST POP PUSH2 0x376 JUMP JUMPDEST PUSH0 DUP2 MLOAD SWAP1 POP SWAP2 SWAP1 POP JUMP JUMPDEST PUSH32 0x4E487B7100000000000000000000000000000000000000000000000000000000 PUSH0 MSTORE PUSH1 0x41 PUSH1 0x4 MSTORE PUSH1 0x24 PUSH0 REVERT JUMPDEST PUSH32 0x4E487B7100000000000000000000000000000000000000000000000000000000 PUSH0 MSTORE PUSH1 0x22 PUSH1 0x4 MSTORE PUSH1 0x24 PUSH0 REVERT JUMPDEST PUSH0 PUSH1 0x2 DUP3 DIV SWAP1 POP PUSH1 0x1 DUP3 AND DUP1 PUSH2 0xD4 JUMPI PUSH1 0x7F DUP3 AND SWAP2 POP JUMPDEST PUSH1 0x20 DUP3 LT DUP2 SUB PUSH2 0xE7 JUMPI PUSH2 0xE6 PUSH2 0x90 JUMP JUMPDEST JUMPDEST POP SWAP2 SWAP1 POP JUMP JUMPDEST PUSH0 DUP2 SWAP1 POP DUP2 PUSH0 MSTORE PUSH1 0x20 PUSH0 KECCAK256 SWAP1 POP SWAP2 SWAP1 POP JUMP JUMPDEST PUSH0 PUSH1 0x20 PUSH1 0x1F DUP4 ADD DIV SWAP1 POP SWAP2 SWAP1 POP JUMP JUMPDEST PUSH0 DUP3 DUP3 SHL SWAP1 POP SWAP3 SWAP2 POP POP JUMP JUMPDEST PUSH0 PUSH1 0x8 DUP4 MUL PUSH2 0x149 PUSH32 0xFFFFFFFFFFFFFFFFFFFFFFFFFFFFFFFFFFFFFFFFFFFFFFFFFFFFFFFFFFFFFFFF DUP3 PUSH2 0x10E JUMP JUMPDEST PUSH2 0x153 DUP7 DUP4 PUSH2 0x10E JUMP JUMPDEST SWAP6 POP DUP1 NOT DUP5 AND SWAP4 POP DUP1 DUP7 AND DUP5 OR SWAP3 POP POP POP SWAP4 SWAP3 POP POP POP JUMP JUMPDEST PUSH0 DUP2 SWAP1 POP SWAP2 SWAP1 POP JUMP JUMPDEST PUSH0 DUP2 SWAP1 POP SWAP2 SWAP1 POP JUMP JUMPDEST PUSH0 PUSH2 0x197 PUSH2 0x192 PUSH2 0x18D DUP5 PUSH2 0x16B JUMP JUMPDEST PUSH2 0x174 JUMP JUMPDEST PUSH2 0x16B JUMP JUMPDEST SWAP1 POP SWAP2 SWAP1 POP JUMP JUMPDEST PUSH0 DUP2 SWAP1 POP SWAP2 SWAP1 POP JUMP JUMPDEST PUSH2 0x1B0 DUP4 PUSH2 0x17D JUMP JUMPDEST PUSH2 0x1C4 PUSH2 0x1BC DUP3 PUSH2 0x19E JUMP JUMPDEST DUP5 DUP5 SLOAD PUSH2 0x11A JUMP JUMPDEST DUP3 SSTORE POP POP POP POP JUMP JUMPDEST PUSH0 PUSH0 SWAP1 POP SWAP1 JUMP JUMPDEST PUSH2 0x1DB PUSH2 0x1CC JUMP JUMPDEST PUSH2 0x1E6 DUP2 DUP5 DUP5 PUSH2 0x1A7 JUMP JUMPDEST POP POP POP JUMP JUMPDEST PUSH0 JUMPDEST DUP3 DUP2 LT ISZERO PUSH2 0x20C JUMPI PUSH2 0x201 PUSH0 DUP3 DUP5 ADD PUSH2 0x1D3 JUMP JUMPDEST PUSH1 0x1 DUP2 ADD SWAP1 POP PUSH2 0x1ED JUMP JUMPDEST POP POP POP JUMP JUMPDEST PUSH1 0x1F DUP3 GT ISZERO PUSH2 0x25F JUMPI DUP3 DUP3 GT ISZERO PUSH2 0x25E JUMPI PUSH2 0x22B DUP2 PUSH2 0xED JUMP JUMPDEST PUSH2 0x234 DUP4 PUSH2 0xFF JUMP JUMPDEST PUSH2 0x23D DUP6 PUSH2 0xFF JUMP JUMPDEST PUSH1 0x20 DUP7 LT ISZERO PUSH2 0x24A JUMPI PUSH0 SWAP1 POP JUMPDEST DUP1 DUP4 ADD PUSH2 0x259 DUP3 DUP5 SUB DUP3 PUSH2 0x1EB JUMP JUMPDEST POP POP POP POP JUMPDEST JUMPDEST POP POP POP JUMP JUMPDEST PUSH0 DUP3 DUP3 SHR SWAP1 POP SWAP3 SWAP2 POP POP JUMP JUMPDEST PUSH0 PUSH2 0x27F PUSH0 NOT DUP5 PUSH1 0x8 MUL PUSH2 0x264 JUMP JUMPDEST NOT DUP1 DUP4 AND SWAP2 POP POP SWAP3 SWAP2 POP POP JUMP JUMPDEST PUSH0 PUSH2 0x297 DUP4 DUP4 PUSH2 0x270 JUMP JUMPDEST SWAP2 POP DUP3 PUSH1 0x2 MUL DUP3 OR SWAP1 POP SWAP3 SWAP2 POP POP JUMP JUMPDEST PUSH2 0x2B0 DUP3 PUSH2 0x59 JUMP JUMPDEST PUSH8 0xFFFFFFFFFFFFFFFF DUP2 GT ISZERO PUSH2 0x2C9 JUMPI PUSH2 0x2C8 PUSH2 0x63 JUMP JUMPDEST JUMPDEST PUSH2 0x2D3 DUP3 SLOAD PUSH2 0xBD JUMP JUMPDEST PUSH2 0x2DE DUP3 DUP3 DUP6 PUSH2 0x211 JUMP JUMPDEST PUSH0 PUSH1 0x20 SWAP1 POP PUSH1 0x1F DUP4 GT PUSH1 0x1 DUP2 EQ PUSH2 0x30F JUMPI PUSH0 DUP5 ISZERO PUSH2 0x2FD JUMPI DUP3 DUP8 ADD MLOAD SWAP1 POP JUMPDEST PUSH2 0x307 DUP6 DUP3 PUSH2 0x28C JUMP JUMPDEST DUP7 SSTORE POP PUSH2 0x36E JUMP JUMPDEST PUSH1 0x1F NOT DUP5 AND PUSH2 0x31D DUP7 PUSH2 0xED JUMP JUMPDEST PUSH0 JUMPDEST DUP3 DUP2 LT ISZERO PUSH2 0x344 JUMPI DUP5 DUP10 ADD MLOAD DUP3 SSTORE PUSH1 0x1 DUP3 ADD SWAP2 POP PUSH1 0x20 DUP6 ADD SWAP5 POP PUSH1 0x20 DUP2 ADD SWAP1 POP PUSH2 0x31F JUMP JUMPDEST DUP7 DUP4 LT ISZERO PUSH2 0x361 JUMPI DUP5 DUP10 ADD MLOAD PUSH2 0x35D PUSH1 0x1F DUP10 AND DUP3 PUSH2 0x270 JUMP JUMPDEST DUP4 SSTORE POP JUMPDEST PUSH1 0x1 PUSH1 0x2 DUP9 MUL ADD DUP9 SSTORE POP POP POP JUMPDEST POP POP POP POP POP POP JUMP JUMPDEST PUSH2 0x716 DUP1 PUSH2 0x383 PUSH0 CODECOPY PUSH0 RETURN INVALID PUSH1 0x80 PUSH1 0x40 MSTORE CALLVALUE DUP1 ISZERO PUSH2 0xF JUMPI PUSH0 PUSH0 REVERT JUMPDEST POP PUSH1 0x4 CALLDATASIZE LT PUSH2 0x4A JUMPI PUSH0 CALLDATALOAD PUSH1 0xE0 SHR DUP1 PUSH4 0x6FDDE03 EQ PUSH2 0x4E JUMPI DUP1 PUSH4 0xA4136862 EQ PUSH2 0x6C JUMPI DUP1 PUSH4 0xEF690CC0 EQ PUSH2 0x88 JUMPI DUP1 PUSH4 0xFE50CC72 EQ PUSH2 0xA6 JUMPI JUMPDEST PUSH0 PUSH0 REVERT JUMPDEST PUSH2 0x56 PUSH2 0xC4 JUMP JUMPDEST PUSH1 0x40 MLOAD PUSH2 0x63 SWAP2 SWAP1 PUSH2 0x2F1 JUMP JUMPDEST PUSH1 0x40 MLOAD DUP1 SWAP2 SUB SWAP1 RETURN JUMPDEST PUSH2 0x86 PUSH1 0x4 DUP1 CALLDATASIZE SUB DUP2 ADD SWAP1 PUSH2 0x81 SWAP2 SWAP1 PUSH2 0x37A JUMP JUMPDEST PUSH2 0x14F JUMP JUMPDEST STOP JUMPDEST PUSH2 0x90 PUSH2 0x165 JUMP JUMPDEST PUSH1 0x40 MLOAD PUSH2 0x9D SWAP2 SWAP1 PUSH2 0x2F1 JUMP JUMPDEST PUSH1 0x40 MLOAD DUP1 SWAP2 SUB SWAP1 RETURN JUMPDEST PUSH2 0xAE PUSH2 0x1F1 JUMP JUMPDEST PUSH1 0x40 MLOAD PUSH2 0xBB SWAP2 SWAP1 PUSH2 0x2F1 JUMP JUMPDEST PUSH1 0x40 MLOAD DUP1 SWAP2 SUB SWAP1 RETURN JUMPDEST PUSH0 DUP1 SLOAD PUSH2 0xD0 SWAP1 PUSH2 0x3F2 JUMP JUMPDEST DUP1 PUSH1 0x1F ADD PUSH1 0x20 DUP1 SWAP2 DIV MUL PUSH1 0x20 ADD PUSH1 0x40 MLOAD SWAP1 DUP2 ADD PUSH1 0x40 MSTORE DUP1 SWAP3 SWAP2 SWAP1 DUP2 DUP2 MSTORE PUSH1 0x20 ADD DUP3 DUP1 SLOAD PUSH2 0xFC SWAP1 PUSH2 0x3F2 JUMP JUMPDEST DUP1 ISZERO PUSH2 0x147 JUMPI DUP1 PUSH1 0x1F LT PUSH2 0x11E JUMPI PUSH2 0x100 DUP1 DUP4 SLOAD DIV MUL DUP4 MSTORE SWAP2 PUSH1 0x20 ADD SWAP2 PUSH2 0x147 JUMP JUMPDEST DUP3 ADD SWAP2 SWAP1 PUSH0 MSTORE PUSH1 0x20 PUSH0 KECCAK256 SWAP1 JUMPDEST DUP2 SLOAD DUP2 MSTORE SWAP1 PUSH1 0x1 ADD SWAP1 PUSH1 0x20 ADD DUP1 DUP4 GT PUSH2 0x12A JUMPI DUP3 SWAP1 SUB PUSH1 0x1F AND DUP3 ADD SWAP2 JUMPDEST POP POP POP POP POP DUP2 JUMP JUMPDEST DUP2 DUP2 PUSH1 0x1 SWAP2 DUP3 PUSH2 0x160 SWAP3 SWAP2 SWAP1 PUSH2 0x613 JUMP JUMPDEST POP POP POP JUMP JUMPDEST PUSH1 0x1 DUP1 SLOAD PUSH2 0x172 SWAP1 PUSH2 0x3F2 JUMP JUMPDEST DUP1 PUSH1 0x1F ADD PUSH1 0x20 DUP1 SWAP2 DIV MUL PUSH1 0x20 ADD PUSH1 0x40 MLOAD SWAP1 DUP2 ADD PUSH1 0x40 MSTORE DUP1 SWAP3 SWAP2 SWAP1 DUP2 DUP2 MSTORE PUSH1 0x20 ADD DUP3 DUP1 SLOAD PUSH2 0x19E SWAP1 PUSH2 0x3F2 JUMP JUMPDEST DUP1 ISZERO PUSH2 0x1E9 JUMPI DUP1 PUSH1 0x1F LT PUSH2 0x1C0 JUMPI PUSH2 0x100 DUP1 DUP4 SLOAD DIV MUL DUP4 MSTORE SWAP2 PUSH1 0x20 ADD SWAP2 PUSH2 0x1E9 JUMP JUMPDEST DUP3 ADD SWAP2 SWAP1 PUSH0 MSTORE PUSH1 0x20 PUSH0 KECCAK256 SWAP1 JUMPDEST DUP2 SLOAD DUP2 MSTORE SWAP1 PUSH1 0x1 ADD SWAP1 PUSH1 0x20 ADD DUP1 DUP4 GT PUSH2 0x1CC JUMPI DUP3 SWAP1 SUB PUSH1 0x1F AND DUP3 ADD SWAP2 JUMPDEST POP POP POP POP POP DUP2 JUMP JUMPDEST PUSH1 0x60 PUSH1 0x1 DUP1 SLOAD PUSH2 0x200 SWAP1 PUSH2 0x3F2 JUMP JUMPDEST DUP1 PUSH1 0x1F ADD PUSH1 0x20 DUP1 SWAP2 DIV MUL PUSH1 0x20 ADD PUSH1 0x40 MLOAD SWAP1 DUP2 ADD PUSH1 0x40 MSTORE DUP1 SWAP3 SWAP2 SWAP1 DUP2 DUP2 MSTORE PUSH1 0x20 ADD DUP3 DUP1 SLOAD PUSH2 0x22C SWAP1 PUSH2 0x3F2 JUMP JUMPDEST DUP1 ISZERO PUSH2 0x277 JUMPI DUP1 PUSH1 0x1F LT PUSH2 0x24E JUMPI PUSH2 0x100 DUP1 DUP4 SLOAD DIV MUL DUP4 MSTORE SWAP2 PUSH1 0x20 ADD SWAP2 PUSH2 0x277 JUMP JUMPDEST DUP3 ADD SWAP2 SWAP1 PUSH0 MSTORE PUSH1 0x20 PUSH0 KECCAK256 SWAP1 JUMPDEST DUP2 SLOAD DUP2 MSTORE SWAP1 PUSH1 0x1 ADD SWAP1 PUSH1 0x20 ADD DUP1 DUP4 GT PUSH2 0x25A JUMPI DUP3 SWAP1 SUB PUSH1 0x1F AND DUP3 ADD SWAP2 JUMPDEST POP POP POP POP POP SWAP1 POP SWAP1 JUMP JUMPDEST PUSH0 DUP2 MLOAD SWAP1 POP SWAP2 SWAP1 POP JUMP JUMPDEST PUSH0 DUP3 DUP3 MSTORE PUSH1 0x20 DUP3 ADD SWAP1 POP SWAP3 SWAP2 POP POP JUMP JUMPDEST DUP3 DUP2 DUP4 MCOPY PUSH0 DUP4 DUP4 ADD MSTORE POP POP POP JUMP JUMPDEST PUSH0 PUSH1 0x1F NOT PUSH1 0x1F DUP4 ADD AND SWAP1 POP SWAP2 SWAP1 POP JUMP JUMPDEST PUSH0 PUSH2 0x2C3 DUP3 PUSH2 0x281 JUMP JUMPDEST PUSH2 0x2CD DUP2 DUP6 PUSH2 0x28B JUMP JUMPDEST SWAP4 POP PUSH2 0x2DD DUP2 DUP6 PUSH1 0x20 DUP7 ADD PUSH2 0x29B JUMP JUMPDEST PUSH2 0x2E6 DUP2 PUSH2 0x2A9 JUMP JUMPDEST DUP5 ADD SWAP2 POP POP SWAP3 SWAP2 POP POP JUMP JUMPDEST PUSH0 PUSH1 0x20 DUP3 ADD SWAP1 POP DUP2 DUP2 SUB PUSH0 DUP4 ADD MSTORE PUSH2 0x309 DUP2 DUP5 PUSH2 0x2B9 JUMP JUMPDEST SWAP1 POP SWAP3 SWAP2 POP POP JUMP JUMPDEST PUSH0 PUSH0 REVERT JUMPDEST PUSH0 PUSH0 REVERT JUMPDEST PUSH0 PUSH0 REVERT JUMPDEST PUSH0 PUSH0 REVERT JUMPDEST PUSH0 PUSH0 REVERT JUMPDEST PUSH0 PUSH0 DUP4 PUSH1 0x1F DUP5 ADD SLT PUSH2 0x33A JUMPI PUSH2 0x339 PUSH2 0x319 JUMP JUMPDEST JUMPDEST DUP3 CALLDATALOAD SWAP1 POP PUSH8 0xFFFFFFFFFFFFFFFF DUP2 GT ISZERO PUSH2 0x357 JUMPI PUSH2 0x356 PUSH2 0x31D JUMP JUMPDEST JUMPDEST PUSH1 0x20 DUP4 ADD SWAP2 POP DUP4 PUSH1 0x1 DUP3 MUL DUP4 ADD GT ISZERO PUSH2 0x373 JUMPI PUSH2 0x372 PUSH2 0x321 JUMP JUMPDEST JUMPDEST SWAP3 POP SWAP3 SWAP1 POP JUMP JUMPDEST PUSH0 PUSH0 PUSH1 0x20 DUP4 DUP6 SUB SLT ISZERO PUSH2 0x390 JUMPI PUSH2 0x38F PUSH2 0x311 JUMP JUMPDEST JUMPDEST PUSH0 DUP4 ADD CALLDATALOAD PUSH8 0xFFFFFFFFFFFFFFFF DUP2 GT ISZERO PUSH2 0x3AD JUMPI PUSH2 0x3AC PUSH2 0x315 JUMP JUMPDEST JUMPDEST PUSH2 0x3B9 DUP6 DUP3 DUP7 ADD PUSH2 0x325 JUMP JUMPDEST SWAP3 POP SWAP3 POP POP SWAP3 POP SWAP3 SWAP1 POP JUMP JUMPDEST PUSH32 0x4E487B7100000000000000000000000000000000000000000000000000000000 PUSH0 MSTORE PUSH1 0x22 PUSH1 0x4 MSTORE PUSH1 0x24 PUSH0 REVERT JUMPDEST PUSH0 PUSH1 0x2 DUP3 DIV SWAP1 POP PUSH1 0x1 DUP3 AND DUP1 PUSH2 0x409 JUMPI PUSH1 0x7F DUP3 AND SWAP2 POP JUMPDEST PUSH1 0x20 DUP3 LT DUP2 SUB PUSH2 0x41C JUMPI PUSH2 0x41B PUSH2 0x3C5 JUMP JUMPDEST JUMPDEST POP SWAP2 SWAP1 POP JUMP JUMPDEST PUSH0 DUP3 SWAP1 POP SWAP3 SWAP2 POP POP JUMP JUMPDEST PUSH32 0x4E487B7100000000000000000000000000000000000000000000000000000000 PUSH0 MSTORE PUSH1 0x41 PUSH1 0x4 MSTORE PUSH1 0x24 PUSH0 REVERT JUMPDEST PUSH0 DUP2 SWAP1 POP DUP2 PUSH0 MSTORE PUSH1 0x20 PUSH0 KECCAK256 SWAP1 POP SWAP2 SWAP1 POP JUMP JUMPDEST PUSH0 PUSH1 0x20 PUSH1 0x1F DUP4 ADD DIV SWAP1 POP SWAP2 SWAP1 POP JUMP JUMPDEST PUSH0 DUP3 DUP3 SHL SWAP1 POP SWAP3 SWAP2 POP POP JUMP JUMPDEST PUSH0 PUSH1 0x8 DUP4 MUL PUSH2 0x4B5 PUSH32 0xFFFFFFFFFFFFFFFFFFFFFFFFFFFFFFFFFFFFFFFFFFFFFFFFFFFFFFFFFFFFFFFF DUP3 PUSH2 0x47A JUMP JUMPDEST PUSH2 0x4BF DUP7 DUP4 PUSH2 0x47A JUMP JUMPDEST SWAP6 POP DUP1 NOT DUP5 AND SWAP4 POP DUP1 DUP7 AND DUP5 OR SWAP3 POP POP POP SWAP4 SWAP3 POP POP POP JUMP JUMPDEST PUSH0 DUP2 SWAP1 POP SWAP2 SWAP1 POP JUMP JUMPDEST PUSH0 DUP2 SWAP1 POP SWAP2 SWAP1 POP JUMP JUMPDEST PUSH0 PUSH2 0x503 PUSH2 0x4FE PUSH2 0x4F9 DUP5 PUSH2 0x4D7 JUMP JUMPDEST PUSH2 0x4E0 JUMP JUMPDEST PUSH2 0x4D7 JUMP JUMPDEST SWAP1 POP SWAP2 SWAP1 POP JUMP JUMPDEST PUSH0 DUP2 SWAP1 POP SWAP2 SWAP1 POP JUMP JUMPDEST PUSH2 0x51C DUP4 PUSH2 0x4E9 JUMP JUMPDEST PUSH2 0x530 PUSH2 0x528 DUP3 PUSH2 0x50A JUMP JUMPDEST DUP5 DUP5 SLOAD PUSH2 0x486 JUMP JUMPDEST DUP3 SSTORE POP POP POP POP JUMP JUMPDEST PUSH0 PUSH0 SWAP1 POP SWAP1 JUMP JUMPDEST PUSH2 0x547 PUSH2 0x538 JUMP JUMPDEST PUSH2 0x552 DUP2 DUP5 DUP5 PUSH2 0x513 JUMP JUMPDEST POP POP POP JUMP JUMPDEST PUSH0 JUMPDEST DUP3 DUP2 LT ISZERO PUSH2 0x578 JUMPI PUSH2 0x56D PUSH0 DUP3 DUP5 ADD PUSH2 0x53F JUMP JUMPDEST PUSH1 0x1 DUP2 ADD SWAP1 POP PUSH2 0x559 JUMP JUMPDEST POP POP POP JUMP JUMPDEST PUSH1 0x1F DUP3 GT ISZERO PUSH2 0x5CB JUMPI DUP3 DUP3 GT ISZERO PUSH2 0x5CA JUMPI PUSH2 0x597 DUP2 PUSH2 0x459 JUMP JUMPDEST PUSH2 0x5A0 DUP4 PUSH2 0x46B JUMP JUMPDEST PUSH2 0x5A9 DUP6 PUSH2 0x46B JUMP JUMPDEST PUSH1 0x20 DUP7 LT ISZERO PUSH2 0x5B6 JUMPI PUSH0 SWAP1 POP JUMPDEST DUP1 DUP4 ADD PUSH2 0x5C5 DUP3 DUP5 SUB DUP3 PUSH2 0x557 JUMP JUMPDEST POP POP POP POP JUMPDEST JUMPDEST POP POP POP JUMP JUMPDEST PUSH0 DUP3 DUP3 SHR SWAP1 POP SWAP3 SWAP2 POP POP JUMP JUMPDEST PUSH0 PUSH2 0x5EB PUSH0 NOT DUP5 PUSH1 0x8 MUL PUSH2 0x5D0 JUMP JUMPDEST NOT DUP1 DUP4 AND SWAP2 POP POP SWAP3 SWAP2 POP POP JUMP JUMPDEST PUSH0 PUSH2 0x603 DUP4 DUP4 PUSH2 0x5DC JUMP JUMPDEST SWAP2 POP DUP3 PUSH1 0x2 MUL DUP3 OR SWAP1 POP SWAP3 SWAP2 POP POP JUMP JUMPDEST PUSH2 0x61D DUP4 DUP4 PUSH2 0x422 JUMP JUMPDEST PUSH8 0xFFFFFFFFFFFFFFFF DUP2 GT ISZERO PUSH2 0x636 JUMPI PUSH2 0x635 PUSH2 0x42C JUMP JUMPDEST JUMPDEST PUSH2 0x640 DUP3 SLOAD PUSH2 0x3F2 JUMP JUMPDEST PUSH2 0x64B DUP3 DUP3 DUP6 PUSH2 0x57D JUMP JUMPDEST PUSH0 PUSH1 0x1F DUP4 GT PUSH1 0x1 DUP2 EQ PUSH2 0x678 JUMPI PUSH0 DUP5 ISZERO PUSH2 0x666 JUMPI DUP3 DUP8 ADD CALLDATALOAD SWAP1 POP JUMPDEST PUSH2 0x670 DUP6 DUP3 PUSH2 0x5F8 JUMP JUMPDEST DUP7 SSTORE POP PUSH2 0x6D7 JUMP JUMPDEST PUSH1 0x1F NOT DUP5 AND PUSH2 0x686 DUP7 PUSH2 0x459 JUMP JUMPDEST PUSH0 JUMPDEST DUP3 DUP2 LT ISZERO PUSH2 0x6AD JUMPI DUP5 DUP10 ADD CALLDATALOAD DUP3 SSTORE PUSH1 0x1 DUP3 ADD SWAP2 POP PUSH1 0x20 DUP6 ADD SWAP5 POP PUSH1 0x20 DUP2 ADD SWAP1 POP PUSH2 0x688 JUMP JUMPDEST DUP7 DUP4 LT ISZERO PUSH2 0x6CA JUMPI DUP5 DUP10 ADD CALLDATALOAD PUSH2 0x6C6 PUSH1 0x1F DUP10 AND DUP3 PUSH2 0x5DC JUMP JUMPDEST DUP4 SSTORE POP JUMPDEST PUSH1 0x1 PUSH1 0x2 DUP9 MUL ADD DUP9 SSTORE POP POP POP JUMPDEST POP POP POP POP POP POP POP JUMP INVALID LOG2 PUSH5 0x6970667358 0x22 SLT KECCAK256 POP CALLF 0x3896 LOG1 PUSH27 0xFE4112688591E98CCF88D6E600FF4079856CD0E71B38BE5081A264 PUSH20 0x6F6C634300082200330000000000000000000000 "
		},
		"gasEstimates": {
			"creation": {
				"codeDepositCost": "362800",
				"executionCost": "infinite",
				"totalCost": "infinite"
			},
			"external": {
				"getGreeting()": "infinite",
				"greeting()": "infinite",
				"name()": "infinite",
				"setGreeting(string)": "infinite"
			}
		},
		"methodIdentifiers": {
			"getGreeting()": "fe50cc72",
			"greeting()": "ef690cc0",
			"name()": "06fdde03",
			"setGreeting(string)": "a4136862"
		}
	},
	"abi": [
		{
			"inputs": [],
			"name": "getGreeting",
			"outputs": [
				{
					"internalType": "string",
					"name": "",
					"type": "string"
				}
			],
			"stateMutability": "view",
			"type": "function"
		},
		{
			"inputs": [],
			"name": "greeting",
			"outputs": [
				{
					"internalType": "string",
					"name": "",
					"type": "string"
				}
			],
			"stateMutability": "view",
			"type": "function"
		},
		{
			"inputs": [],
			"name": "name",
			"outputs": [
				{
					"internalType": "string",
					"name": "",
					"type": "string"
				}
			],
			"stateMutability": "view",
			"type": "function"
		},
		{
			"inputs": [
				{
					"internalType": "string",
					"name": "msg",
					"type": "string"
				}
			],
			"name": "setGreeting",
			"outputs": [],
			"stateMutability": "nonpayable",
			"type": "function"
		}
	]
}