{
	"data": {
		"bytecode": {
			"linkReferences": {},
			"object": "60806040526040518060400160405280600581526020017f68656c6c6f0000000000000000000000000000000000000000000000000000008152505f908161004791906102ec565b506040518060400160405280600581526020017f776f726c640000000000000000000000000000000000000000000000000000008152506001908161008c91906102ec565b50348015610098575f5ffd5b506103bb565b5f81519050919050565b7f4e487b71000000000000000000000000000000000000000000000000000000005f52604160045260245ffd5b7f4e487b71000000000000000000000000000000000000000000000000000000005f52602260045260245ffd5b5f600282049050600182168061011957607f821691505b60208210810361012c5761012b6100d5565b5b50919050565b5f819050815f5260205f209050919050565b5f6020601f8301049050919050565b5f82821b905092915050565b5f6008830261018e7fffffffffffffffffffffffffffffffffffffffffffffffffffffffffffffffff82610153565b6101988683610153565b95508019841693508086168417925050509392505050565b5f819050919050565b5f819050919050565b5f6101dc6101d76101d2846101b0565b6101b9565b6101b0565b9050919050565b5f819050919050565b6101f5836101c2565b610209610201826101e3565b84845461015f565b825550505050565b5f5f905090565b610220610211565b61022b8184846101ec565b505050565b5f5b82811015610251576102465f828401610218565b600181019050610232565b505050565b601f8211156102a457828211156102a35761027081610132565b61027983610144565b61028285610144565b602086101561028f575f90505b80830161029e82840382610230565b505050505b5b505050565b5f82821c905092915050565b5f6102c45f19846008026102a9565b1980831691505092915050565b5f6102dc83836102b5565b9150826002028217905092915050565b6102f58261009e565b67ffffffffffffffff81111561030e5761030d6100a8565b5b6103188254610102565b610323828285610256565b5f60209050601f831160018114610354575f8415610342578287015190505b61034c85826102d1565b8655506103b3565b601f19841661036286610132565b5f5b8281101561038957848901518255600182019150602085019450602081019050610364565b868310156103a657848901516103a2601f8916826102b5565b8355505b6001600288020188555050505b505050505050565b6102ae806103c85f395ff3fe608060405234801561000f575f5ffd5b5060043610610034575f3560e01c8063d118d18714610038578063fcdcfa5014610056575b5f5ffd5b610040610074565b60405161004d91906101fb565b60405180910390f35b61005e6100ff565b60405161006b91906101fb565b60405180910390f35b5f805461008090610248565b80601f01602080910402602001604051908101604052809291908181526020018280546100ac90610248565b80156100f75780601f106100ce576101008083540402835291602001916100f7565b820191905f5260205f20905b8154815290600101906020018083116100da57829003601f168201915b505050505081565b6001805461010c90610248565b80601f016020809104026020016040519081016040528092919081815260200182805461013890610248565b80156101835780601f1061015a57610100808354040283529160200191610183565b820191905f5260205f20905b81548152906001019060200180831161016657829003601f168201915b505050505081565b5f81519050919050565b5f82825260208201905092915050565b8281835e5f83830152505050565b5f601f19601f8301169050919050565b5f6101cd8261018b565b6101d78185610195565b93506101e78185602086016101a5565b6101f0816101b3565b840191505092915050565b5f6020820190508181035f83015261021381846101c3565b905092915050565b7f4e487b71000000000000000000000000000000000000000000000000000000005f52602260045260245ffd5b5f600282049050600182168061025f57607f821691505b6020821081036102725761027161021b565b5b5091905056fea26469706673582212202803229c34e1f70b0d26dd5ec9e34c0f85c528e1f7906a4f389e5982351385bd64736f6c63430008220033",
			"opcodes": "PUSH1 0x80 PUSH1 0x40 MSTORE PUSH1 0x40 MLOAD DUP1 PUSH1 0x40 ADD PUSH1 0x40 MSTORE DUP1 PUSH1 0x5 DUP2 MSTORE PUSH1 0x20 ADD PUSH32 0x68656C6C6F000000000000000000000000000000000000000000000000000000 DUP2 MSTORE POP PUSH0 SWAP1 DUP2 PUSH2 0x47 SWAP2 SWAP1 PUSH2 0x2EC JUMP JUMPDEST POP PUSH1 0x40 MLOAD DUP1 PUSH1 0x40 ADD PUSH1 0x40 MSTORE DUP1 PUSH1 0x5 DUP2 MSTORE PUSH1 0x20 ADD PUSH32 0x776F726C64000000000000000000000000000000000000000000000000000000 DUP2 MSTORE POP PUSH1 0x1 SWAP1 DUP2 PUSH2 0x8C SWAP2 SWAP1 PUSH2 0x2EC JUMP JUMPDEST POP CALLVALUE DUP1 ISZERO PUSH2 0x98 JUMPI PUSH0 PUSH0 REVERT JUMPDEST POP PUSH2 0x3BB JUMP JUMPDEST PUSH0 DUP2 MLOAD SWAP1 POP SWAP2 SWAP1 POP JUMP JUMPDEST PUSH32 0x4E487B7100000000000000000000000000000000000000000000000000000000 PUSH0 MSTORE PUSH1 0x41 PUSH1 0x4 MSTORE PUSH1 0x24 PUSH0 REVERT JUMPDEST PUSH32 0x4E487B7100000000000000000000000000000000000000000000000000000000 PUSH0 MSTORE PUSH1 0x22 PUSH1 0x4 MSTORE PUSH1 0x24 PUSH0 REVERT JUMPDEST PUSH0 PUSH1 0x2 DUP3 DIV SWAP1 POP PUSH1 0x1 DUP3 AND DUP1 PUSH2 0x119 JUMPI PUSH1 0x7F DUP3 AND SWAP2 POP JUMPDEST PUSH1 0x20 DUP3 LT DUP2 SUB PUSH2 0x12C JUMPI PUSH2 0x12B PUSH2 0xD5 JUMP JUMPDEST JUMPDEST POP SWAP2 SWAP1 POP JUMP JUMPDEST PUSH0 DUP2 SWAP1 POP DUP2 PUSH0 MSTORE PUSH1 0x20 PUSH0 KECCAK256 SWAP1 POP SWAP2 SWAP1 POP JUMP JUMPDEST PUSH0 PUSH1 0x20 PUSH1 0x1F DUP4 ADD DIV SWAP1 POP SWAP2 SWAP1 POP JUMP JUMPDEST PUSH0 DUP3 DUP3 SHL SWAP1 POP SWAP3 SWAP2 POP POP JUMP JUMPDEST PUSH0 PUSH1 0x8 DUP4 MUL PUSH2 0x18E PUSH32 0xFFFFFFFFFFFFFFFFFFFFFFFFFFFFFFFFFFFFFFFFFFFFFFFFFFFFFFFFFFFFFFFF DUP3 PUSH2 0x153 JUMP JUMPDEST PUSH2 0x198 DUP7 DUP4 PUSH2 0x153 JUMP JUMPDEST SWAP6 POP DUP1 NOT DUP5 AND SWAP4 POP DUP1 DUP7 AND DUP5 OR SWAP3 POP POP POP SWAP4 SWAP3 POP POP POP JUMP JUMPDEST PUSH0 DUP2 SWAP1 POP SWAP2 SWAP1 POP JUMP JUMPDEST PUSH0 DUP2 SWAP1 POP SWAP2 SWAP1 POP JUMP JUMPDEST PUSH0 PUSH2 0x1DC PUSH2 0x1D7 PUSH2 0x1D2 DUP5 PUSH2 0x1B0 JUMP JUMPDEST PUSH2 0x1B9 JUMP JUMPDEST PUSH2 0x1B0 JUMP JUMPDEST SWAP1 POP SWAP2 SWAP1 POP JUMP JUMPDEST PUSH0 DUP2 SWAP1 POP SWAP2 SWAP1 POP JUMP JUMPDEST PUSH2 0x1F5 DUP4 PUSH2 0x1C2 JUMP JUMPDEST PUSH2 0x209 PUSH2 0x201 DUP3 PUSH2 0x1E3 JUMP JUMPDEST DUP5 DUP5 SLOAD PUSH2 0x15F JUMP JUMPDEST DUP3 SSTORE POP POP POP POP JUMP JUMPDEST PUSH0 PUSH0 SWAP1 POP SWAP1 JUMP JUMPDEST PUSH2 0x220 PUSH2 0x211 JUMP JUMPDEST PUSH2 0x22B DUP2 DUP5 DUP5 PUSH2 0x1EC JUMP JUMPDEST POP POP POP JUMP JUMPDEST PUSH0 JUMPDEST DUP3 DUP2 LT ISZERO PUSH2 0x251 JUMPI PUSH2 0x246 PUSH0 DUP3 DUP5 ADD PUSH2 0x218 JUMP JUMPDEST PUSH1 0x1 DUP2 ADD SWAP1 POP PUSH2 0x232 JUMP JUMPDEST POP POP POP JUMP JUMPDEST PUSH1 0x1F DUP3 GT ISZERO PUSH2 0x2A4 JUMPI DUP3 DUP3 GT ISZERO PUSH2 0x2A3 JUMPI PUSH2 0x270 DUP2 PUSH2 0x132 JUMP JUMPDEST PUSH2 0x279 DUP4 PUSH2 0x144 JUMP JUMPDEST PUSH2 0x282 DUP6 PUSH2 0x144 JUMP JUMPDEST PUSH1 0x20 DUP7 LT ISZERO PUSH2 0x28F JUMPI PUSH0 SWAP1 POP JUMPDEST DUP1 DUP4 ADD PUSH2 0x29E DUP3 DUP5 SUB DUP3 PUSH2 0x230 JUMP JUMPDEST POP POP POP POP JUMPDEST JUMPDEST POP POP POP JUMP JUMPDEST PUSH0 DUP3 DUP3 SHR SWAP1 POP SWAP3 SWAP2 POP POP JUMP JUMPDEST PUSH0 PUSH2 0x2C4 PUSH0 NOT DUP5 PUSH1 0x8 MUL PUSH2 0x2A9 JUMP JUMPDEST NOT DUP1 DUP4 AND SWAP2 POP POP SWAP3 SWAP2 POP POP JUMP JUMPDEST PUSH0 PUSH2 0x2DC DUP4 DUP4 PUSH2 0x2B5 JUMP JUMPDEST SWAP2 POP DUP3 PUSH1 0x2 MUL DUP3 OR SWAP1 POP SWAP3 SWAP2 POP POP JUMP JUMPDEST PUSH2 0x2F5 DUP3 PUSH2 0x9E JUMP JUMPDEST PUSH8 0xFFFFFFFFFFFFFFFF DUP2 GT ISZERO PUSH2 0x30E JUMPI PUSH2 0x30D PUSH2 0xA8 JUMP JUMPDEST JUMPDEST PUSH2 0x318 DUP3 SLOAD PUSH2 0x102 JUMP JUMPDEST PUSH2 0x323 DUP3 DUP3 DUP6 PUSH2 0x256 JUMP JUMPDEST PUSH0 PUSH1 0x20 SWAP1 POP PUSH1 0x1F DUP4 GT PUSH1 0x1 DUP2 EQ PUSH2 0x354 JUMPI PUSH0 DUP5 ISZERO PUSH2 0x342 JUMPI DUP3 DUP8 ADD MLOAD SWAP1 POP JUMPDEST PUSH2 0x34C DUP6 DUP3 PUSH2 0x2D1 JUMP JUMPDEST DUP7 SSTORE POP PUSH2 0x3B3 JUMP JUMPDEST PUSH1 0x1F NOT DUP5 AND PUSH2 0x362 DUP7 PUSH2 0x132 JUMP JUMPDEST PUSH0 JUMPDEST DUP3 DUP2 LT ISZERO PUSH2 0x389 JUMPI DUP5 DUP10 ADD MLOAD DUP3 SSTORE PUSH1 0x1 DUP3 ADD SWAP2 POP PUSH1 0x20 DUP6 ADD SWAP5 POP PUSH1 0x20 DUP2 ADD SWAP1 POP PUSH2 0x364 JUMP JUMPDEST DUP7 DUP4 LT ISZERO PUSH2 0x3A6 JUMPI DUP5 DUP10 ADD MLOAD PUSH2 0x3A2 PUSH1 0x1F DUP10 AND DUP3 PUSH2 0x2B5 JUMP JUMPDEST DUP4 SSTORE POP JUMPDEST PUSH1 0x1 PUSH1 0x2 DUP9 MUL ADD DUP9 SSTORE POP POP POP JUMPDEST POP POP POP POP POP POP JUMP JUMPDEST PUSH2 0x2AE DUP1 PUSH2 0x3C8 PUSH0 CODECOPY PUSH0 RETURN INVALID PUSH1 0x80 PUSH1 0x40 MSTORE CALLVALUE DUP1 ISZERO PUSH2 0xF JUMPI PUSH0 PUSH0 REVERT JUMPDEST POP PUSH1 0x4 CALLDATASIZE LT PUSH2 0x34 JUMPI PUSH0 CALLDATALOAD PUSH1 0xE0 SHR DUP1 PUSH4 0xD118D187 EQ PUSH2 0x38 JUMPI DUP1 PUSH4 0xFCDCFA50 EQ PUSH2 0x56 JUMPI JUMPDEST PUSH0 PUSH0 REVERT JUMPDEST PUSH2 0x40 PUSH2 0x74 JUMP JUMPDEST PUSH1 0x40 MLOAD PUSH2 0x4D SWAP2 SWAP1 PUSH2 0x1FB JUMP JUMPDEST PUSH1 0x40 MLOAD DUP1 SWAP2 SUB SWAP1 RETURN JUMPDEST PUSH2 0x5E PUSH2 0xFF JUMP JUMPDEST PUSH1 0x40 MLOAD PUSH2 0x6B SWAP2 SWAP1 PUSH2 0x1FB JUMP JUMPDEST PUSH1 0x40 MLOAD DUP1 SWAP2 SUB SWAP1 RETURN JUMPDEST PUSH0 DUP1 SLOAD PUSH2 0x80 SWAP1 PUSH2 0x248 JUMP JUMPDEST DUP1 PUSH1 0x1F ADD PUSH1 0x20 DUP1 SWAP2 DIV MUL PUSH1 0x20 ADD PUSH1 0x40 MLOAD SWAP1 DUP2 ADD PUSH1 0x40 MSTORE DUP1 SWAP3 SWAP2 SWAP1 DUP2 DUP2 MSTORE PUSH1 0x20 ADD DUP3 DUP1 SLOAD PUSH2 0xAC SWAP1 PUSH2 0x248 JUMP JUMPDEST DUP1 ISZERO PUSH2 0xF7 JUMPI DUP1 PUSH1 0x1F LT PUSH2 0xCE JUMPI PUSH2 0x100 DUP1 DUP4 SLOAD DIV MUL DUP4 MSTORE SWAP2 PUSH1 0x20 ADD SWAP2 PUSH2 0xF7 JUMP JUMPDEST DUP3 ADD SWAP2 SWAP1 PUSH0 MSTORE PUSH1 0x20 PUSH0 KECCAK256 SWAP1 JUMPDEST DUP2 SLOAD DUP2 MSTORE SWAP1 PUSH1 0x1 ADD SWAP1 PUSH1 0x20 ADD DUP1 DUP4 GT PUSH2 0xDA JUMPI DUP3 SWAP1 SUB PUSH1 0x1F AND DUP3 ADD SWAP2 JUMPDEST POP POP POP POP POP DUP2 JUMP JUMPDEST PUSH1 0x1 DUP1 SLOAD PUSH2 0x10C SWAP1 PUSH2 0x248 JUMP JUMPDEST DUP1 PUSH1 0x1F ADD PUSH1 0x20 DUP1 SWAP2 DIV MUL PUSH1 0x20 ADD PUSH1 0x40 MLOAD SWAP1 DUP2 ADD PUSH1 0x40 MSTORE DUP1 SWAP3 SWAP2 SWAP1 DUP2 DUP2 MSTORE PUSH1 0x20 ADD DUP3 DUP1 SLOAD PUSH2 0x138 SWAP1 PUSH2 0x248 JUMP JUMPDEST DUP1 ISZERO PUSH2 0x183 JUMPI DUP1 PUSH1 0x1F LT PUSH2 0x15A JUMPI PUSH2 0x100 DUP1 DUP4 SLOAD DIV MUL DUP4 MSTORE SWAP2 PUSH1 0x20 ADD SWAP2 PUSH2 0x183 JUMP JUMPDEST DUP3 ADD SWAP2 SWAP1 PUSH0 MSTORE PUSH1 0x20 PUSH0 KECCAK256 SWAP1 JUMPDEST DUP2 SLOAD DUP2 MSTORE SWAP1 PUSH1 0x1 ADD SWAP1 PUSH1 0x20 ADD DUP1 DUP4 GT PUSH2 0x166 JUMPI DUP3 SWAP1 SUB PUSH1 0x1F AND DUP3 ADD SWAP2 JUMPDEST POP POP POP POP POP DUP2 JUMP JUMPDEST PUSH0 DUP2 MLOAD SWAP1 POP SWAP2 SWAP1 POP JUMP JUMPDEST PUSH0 DUP3 DUP3 MSTORE PUSH1 0x20 DUP3 ADD SWAP1 POP SWAP3 SWAP2 POP POP JUMP JUMPDEST DUP3 DUP2 DUP4 MCOPY PUSH0 DUP4 DUP4 ADD MSTORE POP POP POP JUMP JUMPDEST PUSH0 PUSH1 0x1F NOT PUSH1 0x1F DUP4 ADD AND SWAP1 POP SWAP2 SWAP1 POP JUMP JUMPDEST PUSH0 PUSH2 0x1CD DUP3 PUSH2 0x18B JUMP JUMPDEST PUSH2 0x1D7 DUP2 DUP6 PUSH2 0x195 JUMP JUMPDEST SWAP4 POP PUSH2 0x1E7 DUP2 DUP6 PUSH1 0x20 DUP7 ADD PUSH2 0x1A5 JUMP JUMPDEST PUSH2 0x1F0 DUP2 PUSH2 0x1B3 JUMP JUMPDEST DUP5 ADD SWAP2 POP POP SWAP3 SWAP2 POP POP JUMP JUMPDEST PUSH0 PUSH1 0x20 DUP3 ADD SWAP1 POP DUP2 DUP2 SUB PUSH0 DUP4 ADD MSTORE PUSH2 0x213 DUP2 DUP5 PUSH2 0x1C3 JUMP JUMPDEST SWAP1 POP SWAP3 SWAP2 POP POP JUMP JUMPDEST PUSH32 0x4E487B7100000000000000000000000000000000000000000000000000000000 PUSH0 MSTORE PUSH1 0x22 PUSH1 0x4 MSTORE PUSH1 0x24 PUSH0 REVERT JUMPDEST PUSH0 PUSH1 0x2 DUP3 DIV SWAP1 POP PUSH1 0x1 DUP3 AND DUP1 PUSH2 0x25F JUMPI PUSH1 0x7F DUP3 AND SWAP2 POP JUMPDEST PUSH1 0x20 DUP3 LT DUP2 SUB PUSH2 0x272 JUMPI PUSH2 0x271 PUSH2 0x21B JUMP JUMPDEST JUMPDEST POP SWAP2 SWAP1 POP JUMP INVALID LOG2 PUSH5 0x6970667358 0x22 SLT KECCAK256 0x28 SUB 0x22 SWAP13 CALLVALUE RJUMPI 0xF70B 0xD 0x26 0xDD MCOPY 0xC9 CALLF 0x4C0F DUP6 0xC5 0x28 RJUMPI 0xF790 PUSH11 0x4F389E5982351385BD6473 PUSH16 0x6C634300082200330000000000000000 "
		},
		"gasEstimates": {
			"creation": {
				"codeDepositCost": "137200",
				"executionCost": "infinite",
				"totalCost": "infinite"
			},
			"external": {
				"str1()": "infinite",
				"str2()": "infinite"
			}
		},
		"methodIdentifiers": {
			"str1()": "d118d187",
			"str2()": "fcdcfa50"
		}
	},
	"abi": [
		{
			"inputs": [],
			"name": "str1",
			"outputs": [
				{
					"internalType": "string",
					"name": "",
					"type": "string"
				}
			],
			"stateMutability": "view",
			"type": "function"
		},
		{
			"inputs": [],
			"name": "str2",
			"outputs": [
				{
					"internalType": "string",
					"name": "",
					"type": "string"
				}
			],
			"stateMutability": "view",
			"type": "function"
		}
	]
}