{
	"data": {
		"bytecode": {
			"linkReferences": {},
			"object": "6080604052348015600e575f5ffd5b506103e68061001c5f395ff3fe608060405234801561000f575f5ffd5b5060043610610034575f3560e01c8063a122bbcc14610038578063bed34bba14610057575b5f5ffd5b610040610087565b60405161004e9291906101ad565b60405180910390f35b610071600480360381019061006c9190610321565b610179565b60405161007e9190610397565b60405180910390f35b5f5f6100fd6040518060400160405280600581526020017f68656c6c6f0000000000000000000000000000000000000000000000000000008152506040518060400160405280600581526020017f776f726c64000000000000000000000000000000000000000000000000000000815250610179565b6101716040518060400160405280600581526020017f68656c6c6f0000000000000000000000000000000000000000000000000000008152506040518060400160405280600581526020017f68656c6c6f000000000000000000000000000000000000000000000000000000815250610179565b915091509091565b5f8180519060200120838051906020012014905092915050565b5f8115159050919050565b6101a781610193565b82525050565b5f6040820190506101c05f83018561019e565b6101cd602083018461019e565b9392505050565b5f604051905090565b5f5ffd5b5f5ffd5b5f5ffd5b5f5ffd5b5f601f19601f8301169050919050565b7f4e487b71000000000000000000000000000000000000000000000000000000005f52604160045260245ffd5b610233826101ed565b810181811067ffffffffffffffff82111715610252576102516101fd565b5b80604052505050565b5f6102646101d4565b9050610270828261022a565b919050565b5f67ffffffffffffffff82111561028f5761028e6101fd565b5b610298826101ed565b9050602081019050919050565b828183375f83830152505050565b5f6102c56102c084610275565b61025b565b9050828152602081018484840111156102e1576102e06101e9565b5b6102ec8482856102a5565b509392505050565b5f82601f830112610308576103076101e5565b5b81356103188482602086016102b3565b91505092915050565b5f5f60408385031215610337576103366101dd565b5b5f83013567ffffffffffffffff811115610354576103536101e1565b5b610360858286016102f4565b925050602083013567ffffffffffffffff811115610381576103806101e1565b5b61038d858286016102f4565b9150509250929050565b5f6020820190506103aa5f83018461019e565b9291505056fea26469706673582212205a4d42a21dfdb1086952b8171d0fe55ca5cd84443a40e476366e0ddef9254ba764736f6c63430008220033",
			"opcodes": "PUSH1 0x80 PUSH1 0x40 MSTORE CALLVALUE DUP1 ISZERO PUSH1 0xE JUMPI PUSH0 PUSH0 REVERT JUMPDEST POP PUSH2 0x3E6 DUP1 PUSH2 0x1C PUSH0 CODECOPY PUSH0 RETURN INVALID PUSH1 0x80 PUSH1 0x40 MSTORE CALLVALUE DUP1 ISZERO PUSH2 0xF JUMPI PUSH0 PUSH0 REVERT JUMPDEST POP PUSH1 0x4 CALLDATASIZE LT PUSH2 0x34 JUMPI PUSH0 CALLDATALOAD PUSH1 0xE0 SHR DUP1 PUSH4 0xA122BBCC EQ PUSH2 0x38 JUMPI DUP1 PUSH4 0xBED34BBA EQ PUSH2 0x57 JUMPI JUMPDEST PUSH0 PUSH0 REVERT JUMPDEST PUSH2 0x40 PUSH2 0x87 JUMP JUMPDEST PUSH1 0x40 MLOAD PUSH2 0x4E SWAP3 SWAP2 SWAP1 PUSH2 0x1AD JUMP JUMPDEST PUSH1 0x40 MLOAD DUP1 SWAP2 SUB SWAP1 RETURN JUMPDEST PUSH2 0x71 PUSH1 0x4 DUP1 CALLDATASIZE SUB DUP2 ADD SWAP1 PUSH2 0x6C SWAP2 SWAP1 PUSH2 0x321 JUMP JUMPDEST PUSH2 0x179 JUMP JUMPDEST PUSH1 0x40 MLOAD PUSH2 0x7E SWAP2 SWAP1 PUSH2 0x397 JUMP JUMPDEST PUSH1 0x40 MLOAD DUP1 SWAP2 SUB SWAP1 RETURN JUMPDEST PUSH0 PUSH0 PUSH2 0xFD PUSH1 0x40 MLOAD DUP1 PUSH1 0x40 ADD PUSH1 0x40 MSTORE DUP1 PUSH1 0x5 DUP2 MSTORE PUSH1 0x20 ADD PUSH32 0x68656C6C6F000000000000000000000000000000000000000000000000000000 DUP2 MSTORE POP PUSH1 0x40 MLOAD DUP1 PUSH1 0x40 ADD PUSH1 0x40 MSTORE DUP1 PUSH1 0x5 DUP2 MSTORE PUSH1 0x20 ADD PUSH32 0x776F726C64000000000000000000000000000000000000000000000000000000 DUP2 MSTORE POP PUSH2 0x179 JUMP JUMPDEST PUSH2 0x171 PUSH1 0x40 MLOAD DUP1 PUSH1 0x40 ADD PUSH1 0x40 MSTORE DUP1 PUSH1 0x5 DUP2 MSTORE PUSH1 0x20 ADD PUSH32 0x68656C6C6F000000000000000000000000000000000000000000000000000000 DUP2 MSTORE POP PUSH1 0x40 MLOAD DUP1 PUSH1 0x40 ADD PUSH1 0x40 MSTORE DUP1 PUSH1 0x5 DUP2 MSTORE PUSH1 0x20 ADD PUSH32 0x68656C6C6F000000000000000000000000000000000000000000000000000000 DUP2 MSTORE POP PUSH2 0x179 JUMP JUMPDEST SWAP2 POP SWAP2 POP SWAP1 SWAP2 JUMP JUMPDEST PUSH0 DUP2 DUP1 MLOAD SWAP1 PUSH1 0x20 ADD KECCAK256 DUP4 DUP1 MLOAD SWAP1 PUSH1 0x20 ADD KECCAK256 EQ SWAP1 POP SWAP3 SWAP2 POP POP JUMP JUMPDEST PUSH0 DUP2 ISZERO ISZERO SWAP1 POP SWAP2 SWAP1 POP JUMP JUMPDEST PUSH2 0x1A7 DUP2 PUSH2 0x193 JUMP JUMPDEST DUP3 MSTORE POP POP JUMP JUMPDEST PUSH0 PUSH1 0x40 DUP3 ADD SWAP1 POP PUSH2 0x1C0 PUSH0 DUP4 ADD DUP6 PUSH2 0x19E JUMP JUMPDEST PUSH2 0x1CD PUSH1 0x20 DUP4 ADD DUP5 PUSH2 0x19E JUMP JUMPDEST SWAP4 SWAP3 POP POP POP JUMP JUMPDEST PUSH0 PUSH1 0x40 MLOAD SWAP1 POP SWAP1 JUMP JUMPDEST PUSH0 PUSH0 REVERT JUMPDEST PUSH0 PUSH0 REVERT JUMPDEST PUSH0 PUSH0 REVERT JUMPDEST PUSH0 PUSH0 REVERT JUMPDEST PUSH0 PUSH1 0x1F NOT PUSH1 0x1F DUP4 ADD AND SWAP1 POP SWAP2 SWAP1 POP JUMP JUMPDEST PUSH32 0x4E487B7100000000000000000000000000000000000000000000000000000000 PUSH0 MSTORE PUSH1 0x41 PUSH1 0x4 MSTORE PUSH1 0x24 PUSH0 REVERT JUMPDEST PUSH2 0x233 DUP3 PUSH2 0x1ED JUMP JUMPDEST DUP2 ADD DUP2 DUP2 LT PUSH8 0xFFFFFFFFFFFFFFFF DUP3 GT OR ISZERO PUSH2 0x252 JUMPI PUSH2 0x251 PUSH2 0x1FD JUMP JUMPDEST JUMPDEST DUP1 PUSH1 0x40 MSTORE POP POP POP JUMP JUMPDEST PUSH0 PUSH2 0x264 PUSH2 0x1D4 JUMP JUMPDEST SWAP1 POP PUSH2 0x270 DUP3 DUP3 PUSH2 0x22A JUMP JUMPDEST SWAP2 SWAP1 POP JUMP JUMPDEST PUSH0 PUSH8 0xFFFFFFFFFFFFFFFF DUP3 GT ISZERO PUSH2 0x28F JUMPI PUSH2 0x28E PUSH2 0x1FD JUMP JUMPDEST JUMPDEST PUSH2 0x298 DUP3 PUSH2 0x1ED JUMP JUMPDEST SWAP1 POP PUSH1 0x20 DUP2 ADD SWAP1 POP SWAP2 SWAP1 POP JUMP JUMPDEST DUP3 DUP2 DUP4 CALLDATACOPY PUSH0 DUP4 DUP4 ADD MSTORE POP POP POP JUMP JUMPDEST PUSH0 PUSH2 0x2C5 PUSH2 0x2C0 DUP5 PUSH2 0x275 JUMP JUMPDEST PUSH2 0x25B JUMP JUMPDEST SWAP1 POP DUP3 DUP2 MSTORE PUSH1 0x20 DUP2 ADD DUP5 DUP5 DUP5 ADD GT ISZERO PUSH2 0x2E1 JUMPI PUSH2 0x2E0 PUSH2 0x1E9 JUMP JUMPDEST JUMPDEST PUSH2 0x2EC DUP5 DUP3 DUP6 PUSH2 0x2A5 JUMP JUMPDEST POP SWAP4 SWAP3 POP POP POP JUMP JUMPDEST PUSH0 DUP3 PUSH1 0x1F DUP4 ADD SLT PUSH2 0x308 JUMPI PUSH2 0x307 PUSH2 0x1E5 JUMP JUMPDEST JUMPDEST DUP2 CALLDATALOAD PUSH2 0x318 DUP5 DUP3 PUSH1 0x20 DUP7 ADD PUSH2 0x2B3 JUMP JUMPDEST SWAP2 POP POP SWAP3 SWAP2 POP POP JUMP JUMPDEST PUSH0 PUSH0 PUSH1 0x40 DUP4 DUP6 SUB SLT ISZERO PUSH2 0x337 JUMPI PUSH2 0x336 PUSH2 0x1DD JUMP JUMPDEST JUMPDEST PUSH0 DUP4 ADD CALLDATALOAD PUSH8 0xFFFFFFFFFFFFFFFF DUP2 GT ISZERO PUSH2 0x354 JUMPI PUSH2 0x353 PUSH2 0x1E1 JUMP JUMPDEST JUMPDEST PUSH2 0x360 DUP6 DUP3 DUP7 ADD PUSH2 0x2F4 JUMP JUMPDEST SWAP3 POP POP PUSH1 0x20 DUP4 ADD CALLDATALOAD PUSH8 0xFFFFFFFFFFFFFFFF DUP2 GT ISZERO PUSH2 0x381 JUMPI PUSH2 0x380 PUSH2 0x1E1 JUMP JUMPDEST JUMPDEST PUSH2 0x38D DUP6 DUP3 DUP7 ADD PUSH2 0x2F4 JUMP JUMPDEST SWAP2 POP POP SWAP3 POP SWAP3 SWAP1 POP JUMP JUMPDEST PUSH0 PUSH1 0x20 DUP3 ADD SWAP1 POP PUSH2 0x3AA PUSH0 DUP4 ADD DUP5 PUSH2 0x19E JUMP JUMPDEST SWAP3 SWAP2 POP POP JUMP INVALID LOG2 PUSH5 0x6970667358 0x22 SLT KECCAK256 GAS 0x4D TIMESTAMP LOG2 SAR REVERT 0xB1 ADDMOD PUSH10 0x52B8171D0FE55CA5CD84 PREVRANDAO GASPRICE BLOCKHASH RETF PUSH23 0x366E0DDEF9254BA764736F6C6343000822003300000000 "
		},
		"gasEstimates": {
			"creation": {
				"codeDepositCost": "199600",
				"executionCost": "243",
				"totalCost": "199843"
			},
			"external": {
				"compareStrings(string,string)": "infinite",
				"testCompareStrings()": "infinite"
			}
		},
		"methodIdentifiers": {
			"compareStrings(string,string)": "bed34bba",
			"testCompareStrings()": "a122bbcc"
		}
	},
	"abi": [
		{
			"inputs": [
				{
					"internalType": "string",
					"name": "a",
					"type": "string"
				},
				{
					"internalType": "string",
					"name": "b",
					"type": "string"
				}
			],
			"name": "compareStrings",
			"outputs": [
				{
					"internalType": "bool",
					"name": "",
					"type": "bool"
				}
			],
			"stateMutability": "pure",
			"type": "function"
		},
		{
			"inputs": [],
			"name": "testCompareStrings",
			"outputs": [
				{
					"internalType": "bool",
					"name": "",
					"type": "bool"
				},
				{
					"internalType": "bool",
					"name": "",
					"type": "bool"
				}
			],
			"stateMutability": "pure",
			"type": "function"
		}
	]
}