{
	"data": {
		"bytecode": {
			"linkReferences": {},
			"object": "608060405234801561000f575f5ffd5b505f5f90505b6003811015610109575f600367ffffffffffffffff81111561003a5761003961010f565b5b6040519080825280602002602001820160405280156100685781602001602082028036833780820191505090505b5090505f5f90505b60038110156100c9576001816003856100899190610172565b61009391906101b3565b61009d91906101b3565b8282815181106100b0576100af6101e6565b5b6020026020010181815250508080600101915050610070565b505f81908060018154018082558091505060019003905f5260205f20015f9091909190915090816100fa91906103dc565b50508080600101915050610015565b50610460565b7f4e487b71000000000000000000000000000000000000000000000000000000005f52604160045260245ffd5b5f819050919050565b7f4e487b71000000000000000000000000000000000000000000000000000000005f52601160045260245ffd5b5f61017c8261013c565b91506101878361013c565b92508282026101958161013c565b915082820484148315176101ac576101ab610145565b5b5092915050565b5f6101bd8261013c565b91506101c88361013c565b92508282019050808211156101e0576101df610145565b5b92915050565b7f4e487b71000000000000000000000000000000000000000000000000000000005f52603260045260245ffd5b5f81549050919050565b5f8190506001806001038301049050919050565b5f819050815f5260205f209050919050565b5f82821b905092915050565b5f6008830261027e7fffffffffffffffffffffffffffffffffffffffffffffffffffffffffffffffff82610243565b6102888683610243565b95508019841693508086168417925050509392505050565b5f819050919050565b5f6102c36102be6102b98461013c565b6102a0565b61013c565b9050919050565b5f819050919050565b6102dc836102a9565b6102f06102e8826102ca565b84845461024f565b825550505050565b5f5f905090565b6103076102f8565b6103128184846102d3565b505050565b5f5b828110156103385761032d5f8284016102ff565b600181019050610319565b505050565b818310156103745761034e8261021d565b6103578461021d565b61036083610231565b81810161036f83850382610317565b505050505b505050565b680100000000000000008211156103935761039261010f565b5b61039c81610213565b8282556103aa83828461033d565b505050565b5f81519050919050565b5f6103c4825161013c565b80915050919050565b5f819050602082019050919050565b6103e5826103af565b67ffffffffffffffff8111156103fe576103fd61010f565b5b6104088183610379565b610411836103cd565b61041a83610231565b600183045f5b81811015610457575f610432856103b9565b61043b816102ca565b8092506020870196505050808285015550600181019050610420565b50505050505050565b61067d8061046d5f395ff3fe608060405234801561000f575f5ffd5b506004361061004a575f3560e01c8063303a36e21461004e578063569c5f6d1461007e578063d9a38d641461009c578063e990b43d146100cc575b5f5ffd5b6100686004803603810190610063919061038b565b6100fe565b604051610075919061046d565b60405180910390f35b6100866101b5565b604051610093919061049c565b60405180910390f35b6100b660048036038101906100b191906104b5565b610266565b6040516100c3919061049c565b60405180910390f35b6100e660048036038101906100e1919061038b565b61029b565b6040516100f59392919061050d565b60405180910390f35b60605f805490508210610146576040517f08c379a000000000000000000000000000000000000000000000000000000000815260040161013d9061059c565b60405180910390fd5b5f8281548110610159576101586105ba565b5b905f5260205f20018054806020026020016040519081016040528092919081815260200182805480156101a957602002820191905f5260205f20905b815481526020019060010190808311610195575b50505050509050919050565b5f5f5f90505f5f8054905090505f5f90505b8181101561025d575f5f82815481106101e3576101e26105ba565b5b905f5260205f20018054905090505f5f90505b8181101561024e575f8381548110610211576102106105ba565b5b905f5260205f2001818154811061022b5761022a6105ba565b5b905f5260205f2001548561023f9190610614565b945080806001019150506101f6565b505080806001019150506101c7565b50819250505090565b5f8281548110610274575f80fd5b905f5260205f20018181548110610289575f80fd5b905f5260205f20015f91509150505481565b5f5f5f5f5f90505b5f80549050811015610342575f5f90505b5f82815481106102c7576102c66105ba565b5b905f5260205f20018054905081101561033457855f83815481106102ee576102ed6105ba565b5b905f5260205f20018281548110610308576103076105ba565b5b905f5260205f200154036103275760018282945094509450505061034d565b80806001019150506102b4565b5080806001019150506102a3565b505f5f5f9250925092505b9193909250565b5f5ffd5b5f819050919050565b61036a81610358565b8114610374575f5ffd5b50565b5f8135905061038581610361565b92915050565b5f602082840312156103a05761039f610354565b5b5f6103ad84828501610377565b91505092915050565b5f81519050919050565b5f82825260208201905092915050565b5f819050602082019050919050565b6103e881610358565b82525050565b5f6103f983836103df565b60208301905092915050565b5f602082019050919050565b5f61041b826103b6565b61042581856103c0565b9350610430836103d0565b805f5b8381101561046057815161044788826103ee565b975061045283610405565b925050600181019050610433565b5085935050505092915050565b5f6020820190508181035f8301526104858184610411565b905092915050565b61049681610358565b82525050565b5f6020820190506104af5f83018461048d565b92915050565b5f5f604083850312156104cb576104ca610354565b5b5f6104d885828601610377565b92505060206104e985828601610377565b9150509250929050565b5f8115159050919050565b610507816104f3565b82525050565b5f6060820190506105205f8301866104fe565b61052d602083018561048d565b61053a604083018461048d565b949350505050565b5f82825260208201905092915050565b7fe8b685e8bf87e695b0e7bb84e69c80e5a4a7e8a18ce695b000000000000000005f82015250565b5f610586601883610542565b915061059182610552565b602082019050919050565b5f6020820190508181035f8301526105b38161057a565b9050919050565b7f4e487b71000000000000000000000000000000000000000000000000000000005f52603260045260245ffd5b7f4e487b71000000000000000000000000000000000000000000000000000000005f52601160045260245ffd5b5f61061e82610358565b915061062983610358565b9250828201905080821115610641576106406105e7565b5b9291505056fea26469706673582212202e98b4dee2f8bcd6ba049787b4b31012e19b43f61b32d4fdf010307f63121d1764736f6c63430008220033",
			"opcodes": "PUSH1 0x80 PUSH1 0x40 MSTORE CALLVALUE DUP1 ISZERO PUSH2 0xF JUMPI PUSH0 PUSH0 REVERT JUMPDEST POP PUSH0 PUSH0 SWAP1 POP JUMPDEST PUSH1 0x3 DUP2 LT ISZERO PUSH2 0x109 JUMPI PUSH0 PUSH1 0x3 PUSH8 0xFFFFFFFFFFFFFFFF DUP2 GT ISZERO PUSH2 0x3A JUMPI PUSH2 0x39 PUSH2 0x10F JUMP JUMPDEST JUMPDEST PUSH1 0x40 MLOAD SWAP1 DUP1 DUP3 MSTORE DUP1 PUSH1 0x20 MUL PUSH1 0x20 ADD DUP3 ADD PUSH1 0x40 MSTORE DUP1 ISZERO PUSH2 0x68 JUMPI DUP2 PUSH1 0x20 ADD PUSH1 0x20 DUP3 MUL DUP1 CALLDATASIZE DUP4 CALLDATACOPY DUP1 DUP3 ADD SWAP2 POP POP SWAP1 POP JUMPDEST POP SWAP1 POP PUSH0 PUSH0 SWAP1 POP JUMPDEST PUSH1 0x3 DUP2 LT ISZERO PUSH2 0xC9 JUMPI PUSH1 0x1 DUP2 PUSH1 0x3 DUP6 PUSH2 0x89 SWAP2 SWAP1 PUSH2 0x172 JUMP JUMPDEST PUSH2 0x93 SWAP2 SWAP1 PUSH2 0x1B3 JUMP JUMPDEST PUSH2 0x9D SWAP2 SWAP1 PUSH2 0x1B3 JUMP JUMPDEST DUP3 DUP3 DUP2 MLOAD DUP2 LT PUSH2 0xB0 JUMPI PUSH2 0xAF PUSH2 0x1E6 JUMP JUMPDEST JUMPDEST PUSH1 0x20 MUL PUSH1 0x20 ADD ADD DUP2 DUP2 MSTORE POP POP DUP1 DUP1 PUSH1 0x1 ADD SWAP2 POP POP PUSH2 0x70 JUMP JUMPDEST POP PUSH0 DUP2 SWAP1 DUP1 PUSH1 0x1 DUP2 SLOAD ADD DUP1 DUP3 SSTORE DUP1 SWAP2 POP POP PUSH1 0x1 SWAP1 SUB SWAP1 PUSH0 MSTORE PUSH1 0x20 PUSH0 KECCAK256 ADD PUSH0 SWAP1 SWAP2 SWAP1 SWAP2 SWAP1 SWAP2 POP SWAP1 DUP2 PUSH2 0xFA SWAP2 SWAP1 PUSH2 0x3DC JUMP JUMPDEST POP POP DUP1 DUP1 PUSH1 0x1 ADD SWAP2 POP POP PUSH2 0x15 JUMP JUMPDEST POP PUSH2 0x460 JUMP JUMPDEST PUSH32 0x4E487B7100000000000000000000000000000000000000000000000000000000 PUSH0 MSTORE PUSH1 0x41 PUSH1 0x4 MSTORE PUSH1 0x24 PUSH0 REVERT JUMPDEST PUSH0 DUP2 SWAP1 POP SWAP2 SWAP1 POP JUMP JUMPDEST PUSH32 0x4E487B7100000000000000000000000000000000000000000000000000000000 PUSH0 MSTORE PUSH1 0x11 PUSH1 0x4 MSTORE PUSH1 0x24 PUSH0 REVERT JUMPDEST PUSH0 PUSH2 0x17C DUP3 PUSH2 0x13C JUMP JUMPDEST SWAP2 POP PUSH2 0x187 DUP4 PUSH2 0x13C JUMP JUMPDEST SWAP3 POP DUP3 DUP3 MUL PUSH2 0x195 DUP2 PUSH2 0x13C JUMP JUMPDEST SWAP2 POP DUP3 DUP3 DIV DUP5 EQ DUP4 ISZERO OR PUSH2 0x1AC JUMPI PUSH2 0x1AB PUSH2 0x145 JUMP JUMPDEST JUMPDEST POP SWAP3 SWAP2 POP POP JUMP JUMPDEST PUSH0 PUSH2 0x1BD DUP3 PUSH2 0x13C JUMP JUMPDEST SWAP2 POP PUSH2 0x1C8 DUP4 PUSH2 0x13C JUMP JUMPDEST SWAP3 POP DUP3 DUP3 ADD SWAP1 POP DUP1 DUP3 GT ISZERO PUSH2 0x1E0 JUMPI PUSH2 0x1DF PUSH2 0x145 JUMP JUMPDEST JUMPDEST SWAP3 SWAP2 POP POP JUMP JUMPDEST PUSH32 0x4E487B7100000000000000000000000000000000000000000000000000000000 PUSH0 MSTORE PUSH1 0x32 PUSH1 0x4 MSTORE PUSH1 0x24 PUSH0 REVERT JUMPDEST PUSH0 DUP2 SLOAD SWAP1 POP SWAP2 SWAP1 POP JUMP JUMPDEST PUSH0 DUP2 SWAP1 POP PUSH1 0x1 DUP1 PUSH1 0x1 SUB DUP4 ADD DIV SWAP1 POP SWAP2 SWAP1 POP JUMP JUMPDEST PUSH0 DUP2 SWAP1 POP DUP2 PUSH0 MSTORE PUSH1 0x20 PUSH0 KECCAK256 SWAP1 POP SWAP2 SWAP1 POP JUMP JUMPDEST PUSH0 DUP3 DUP3 SHL SWAP1 POP SWAP3 SWAP2 POP POP JUMP JUMPDEST PUSH0 PUSH1 0x8 DUP4 MUL PUSH2 0x27E PUSH32 0xFFFFFFFFFFFFFFFFFFFFFFFFFFFFFFFFFFFFFFFFFFFFFFFFFFFFFFFFFFFFFFFF DUP3 PUSH2 0x243 JUMP JUMPDEST PUSH2 0x288 DUP7 DUP4 PUSH2 0x243 JUMP JUMPDEST SWAP6 POP DUP1 NOT DUP5 AND SWAP4 POP DUP1 DUP7 AND DUP5 OR SWAP3 POP POP POP SWAP4 SWAP3 POP POP POP JUMP JUMPDEST PUSH0 DUP2 SWAP1 POP SWAP2 SWAP1 POP JUMP JUMPDEST PUSH0 PUSH2 0x2C3 PUSH2 0x2BE PUSH2 0x2B9 DUP5 PUSH2 0x13C JUMP JUMPDEST PUSH2 0x2A0 JUMP JUMPDEST PUSH2 0x13C JUMP JUMPDEST SWAP1 POP SWAP2 SWAP1 POP JUMP JUMPDEST PUSH0 DUP2 SWAP1 POP SWAP2 SWAP1 POP JUMP JUMPDEST PUSH2 0x2DC DUP4 PUSH2 0x2A9 JUMP JUMPDEST PUSH2 0x2F0 PUSH2 0x2E8 DUP3 PUSH2 0x2CA JUMP JUMPDEST DUP5 DUP5 SLOAD PUSH2 0x24F JUMP JUMPDEST DUP3 SSTORE POP POP POP POP JUMP JUMPDEST PUSH0 PUSH0 SWAP1 POP SWAP1 JUMP JUMPDEST PUSH2 0x307 PUSH2 0x2F8 JUMP JUMPDEST PUSH2 0x312 DUP2 DUP5 DUP5 PUSH2 0x2D3 JUMP JUMPDEST POP POP POP JUMP JUMPDEST PUSH0 JUMPDEST DUP3 DUP2 LT ISZERO PUSH2 0x338 JUMPI PUSH2 0x32D PUSH0 DUP3 DUP5 ADD PUSH2 0x2FF JUMP JUMPDEST PUSH1 0x1 DUP2 ADD SWAP1 POP PUSH2 0x319 JUMP JUMPDEST POP POP POP JUMP JUMPDEST DUP2 DUP4 LT ISZERO PUSH2 0x374 JUMPI PUSH2 0x34E DUP3 PUSH2 0x21D JUMP JUMPDEST PUSH2 0x357 DUP5 PUSH2 0x21D JUMP JUMPDEST PUSH2 0x360 DUP4 PUSH2 0x231 JUMP JUMPDEST DUP2 DUP2 ADD PUSH2 0x36F DUP4 DUP6 SUB DUP3 PUSH2 0x317 JUMP JUMPDEST POP POP POP POP JUMPDEST POP POP POP JUMP JUMPDEST PUSH9 0x10000000000000000 DUP3 GT ISZERO PUSH2 0x393 JUMPI PUSH2 0x392 PUSH2 0x10F JUMP JUMPDEST JUMPDEST PUSH2 0x39C DUP2 PUSH2 0x213 JUMP JUMPDEST DUP3 DUP3 SSTORE PUSH2 0x3AA DUP4 DUP3 DUP5 PUSH2 0x33D JUMP JUMPDEST POP POP POP JUMP JUMPDEST PUSH0 DUP2 MLOAD SWAP1 POP SWAP2 SWAP1 POP JUMP JUMPDEST PUSH0 PUSH2 0x3C4 DUP3 MLOAD PUSH2 0x13C JUMP JUMPDEST DUP1 SWAP2 POP POP SWAP2 SWAP1 POP JUMP JUMPDEST PUSH0 DUP2 SWAP1 POP PUSH1 0x20 DUP3 ADD SWAP1 POP SWAP2 SWAP1 POP JUMP JUMPDEST PUSH2 0x3E5 DUP3 PUSH2 0x3AF JUMP JUMPDEST PUSH8 0xFFFFFFFFFFFFFFFF DUP2 GT ISZERO PUSH2 0x3FE JUMPI PUSH2 0x3FD PUSH2 0x10F JUMP JUMPDEST JUMPDEST PUSH2 0x408 DUP2 DUP4 PUSH2 0x379 JUMP JUMPDEST PUSH2 0x411 DUP4 PUSH2 0x3CD JUMP JUMPDEST PUSH2 0x41A DUP4 PUSH2 0x231 JUMP JUMPDEST PUSH1 0x1 DUP4 DIV PUSH0 JUMPDEST DUP2 DUP2 LT ISZERO PUSH2 0x457 JUMPI PUSH0 PUSH2 0x432 DUP6 PUSH2 0x3B9 JUMP JUMPDEST PUSH2 0x43B DUP2 PUSH2 0x2CA JUMP JUMPDEST DUP1 SWAP3 POP PUSH1 0x20 DUP8 ADD SWAP7 POP POP POP DUP1 DUP3 DUP6 ADD SSTORE POP PUSH1 0x1 DUP2 ADD SWAP1 POP PUSH2 0x420 JUMP JUMPDEST POP POP POP POP POP POP POP JUMP JUMPDEST PUSH2 0x67D DUP1 PUSH2 0x46D PUSH0 CODECOPY PUSH0 RETURN INVALID PUSH1 0x80 PUSH1 0x40 MSTORE CALLVALUE DUP1 ISZERO PUSH2 0xF JUMPI PUSH0 PUSH0 REVERT JUMPDEST POP PUSH1 0x4 CALLDATASIZE LT PUSH2 0x4A JUMPI PUSH0 CALLDATALOAD PUSH1 0xE0 SHR DUP1 PUSH4 0x303A36E2 EQ PUSH2 0x4E JUMPI DUP1 PUSH4 0x569C5F6D EQ PUSH2 0x7E JUMPI DUP1 PUSH4 0xD9A38D64 EQ PUSH2 0x9C JUMPI DUP1 PUSH4 0xE990B43D EQ PUSH2 0xCC JUMPI JUMPDEST PUSH0 PUSH0 REVERT JUMPDEST PUSH2 0x68 PUSH1 0x4 DUP1 CALLDATASIZE SUB DUP2 ADD SWAP1 PUSH2 0x63 SWAP2 SWAP1 PUSH2 0x38B JUMP JUMPDEST PUSH2 0xFE JUMP JUMPDEST PUSH1 0x40 MLOAD PUSH2 0x75 SWAP2 SWAP1 PUSH2 0x46D JUMP JUMPDEST PUSH1 0x40 MLOAD DUP1 SWAP2 SUB SWAP1 RETURN JUMPDEST PUSH2 0x86 PUSH2 0x1B5 JUMP JUMPDEST PUSH1 0x40 MLOAD PUSH2 0x93 SWAP2 SWAP1 PUSH2 0x49C JUMP JUMPDEST PUSH1 0x40 MLOAD DUP1 SWAP2 SUB SWAP1 RETURN JUMPDEST PUSH2 0xB6 PUSH1 0x4 DUP1 CALLDATASIZE SUB DUP2 ADD SWAP1 PUSH2 0xB1 SWAP2 SWAP1 PUSH2 0x4B5 JUMP JUMPDEST PUSH2 0x266 JUMP JUMPDEST PUSH1 0x40 MLOAD PUSH2 0xC3 SWAP2 SWAP1 PUSH2 0x49C JUMP JUMPDEST PUSH1 0x40 MLOAD DUP1 SWAP2 SUB SWAP1 RETURN JUMPDEST PUSH2 0xE6 PUSH1 0x4 DUP1 CALLDATASIZE SUB DUP2 ADD SWAP1 PUSH2 0xE1 SWAP2 SWAP1 PUSH2 0x38B JUMP JUMPDEST PUSH2 0x29B JUMP JUMPDEST PUSH1 0x40 MLOAD PUSH2 0xF5 SWAP4 SWAP3 SWAP2 SWAP1 PUSH2 0x50D JUMP JUMPDEST PUSH1 0x40 MLOAD DUP1 SWAP2 SUB SWAP1 RETURN JUMPDEST PUSH1 0x60 PUSH0 DUP1 SLOAD SWAP1 POP DUP3 LT PUSH2 0x146 JUMPI PUSH1 0x40 MLOAD PUSH32 0x8C379A000000000000000000000000000000000000000000000000000000000 DUP2 MSTORE PUSH1 0x4 ADD PUSH2 0x13D SWAP1 PUSH2 0x59C JUMP JUMPDEST PUSH1 0x40 MLOAD DUP1 SWAP2 SUB SWAP1 REVERT JUMPDEST PUSH0 DUP3 DUP2 SLOAD DUP2 LT PUSH2 0x159 JUMPI PUSH2 0x158 PUSH2 0x5BA JUMP JUMPDEST JUMPDEST SWAP1 PUSH0 MSTORE PUSH1 0x20 PUSH0 KECCAK256 ADD DUP1 SLOAD DUP1 PUSH1 0x20 MUL PUSH1 0x20 ADD PUSH1 0x40 MLOAD SWAP1 DUP2 ADD PUSH1 0x40 MSTORE DUP1 SWAP3 SWAP2 SWAP1 DUP2 DUP2 MSTORE PUSH1 0x20 ADD DUP3 DUP1 SLOAD DUP1 ISZERO PUSH2 0x1A9 JUMPI PUSH1 0x20 MUL DUP3 ADD SWAP2 SWAP1 PUSH0 MSTORE PUSH1 0x20 PUSH0 KECCAK256 SWAP1 JUMPDEST DUP2 SLOAD DUP2 MSTORE PUSH1 0x20 ADD SWAP1 PUSH1 0x1 ADD SWAP1 DUP1 DUP4 GT PUSH2 0x195 JUMPI JUMPDEST POP POP POP POP POP SWAP1 POP SWAP2 SWAP1 POP JUMP JUMPDEST PUSH0 PUSH0 PUSH0 SWAP1 POP PUSH0 PUSH0 DUP1 SLOAD SWAP1 POP SWAP1 POP PUSH0 PUSH0 SWAP1 POP JUMPDEST DUP2 DUP2 LT ISZERO PUSH2 0x25D JUMPI PUSH0 PUSH0 DUP3 DUP2 SLOAD DUP2 LT PUSH2 0x1E3 JUMPI PUSH2 0x1E2 PUSH2 0x5BA JUMP JUMPDEST JUMPDEST SWAP1 PUSH0 MSTORE PUSH1 0x20 PUSH0 KECCAK256 ADD DUP1 SLOAD SWAP1 POP SWAP1 POP PUSH0 PUSH0 SWAP1 POP JUMPDEST DUP2 DUP2 LT ISZERO PUSH2 0x24E JUMPI PUSH0 DUP4 DUP2 SLOAD DUP2 LT PUSH2 0x211 JUMPI PUSH2 0x210 PUSH2 0x5BA JUMP JUMPDEST JUMPDEST SWAP1 PUSH0 MSTORE PUSH1 0x20 PUSH0 KECCAK256 ADD DUP2 DUP2 SLOAD DUP2 LT PUSH2 0x22B JUMPI PUSH2 0x22A PUSH2 0x5BA JUMP JUMPDEST JUMPDEST SWAP1 PUSH0 MSTORE PUSH1 0x20 PUSH0 KECCAK256 ADD SLOAD DUP6 PUSH2 0x23F SWAP2 SWAP1 PUSH2 0x614 JUMP JUMPDEST SWAP5 POP DUP1 DUP1 PUSH1 0x1 ADD SWAP2 POP POP PUSH2 0x1F6 JUMP JUMPDEST POP POP DUP1 DUP1 PUSH1 0x1 ADD SWAP2 POP POP PUSH2 0x1C7 JUMP JUMPDEST POP DUP2 SWAP3 POP POP POP SWAP1 JUMP JUMPDEST PUSH0 DUP3 DUP2 SLOAD DUP2 LT PUSH2 0x274 JUMPI PUSH0 DUP1 REVERT JUMPDEST SWAP1 PUSH0 MSTORE PUSH1 0x20 PUSH0 KECCAK256 ADD DUP2 DUP2 SLOAD DUP2 LT PUSH2 0x289 JUMPI PUSH0 DUP1 REVERT JUMPDEST SWAP1 PUSH0 MSTORE PUSH1 0x20 PUSH0 KECCAK256 ADD PUSH0 SWAP2 POP SWAP2 POP POP SLOAD DUP2 JUMP JUMPDEST PUSH0 PUSH0 PUSH0 PUSH0 PUSH0 SWAP1 POP JUMPDEST PUSH0 DUP1 SLOAD SWAP1 POP DUP2 LT ISZERO PUSH2 0x342 JUMPI PUSH0 PUSH0 SWAP1 POP JUMPDEST PUSH0 DUP3 DUP2 SLOAD DUP2 LT PUSH2 0x2C7 JUMPI PUSH2 0x2C6 PUSH2 0x5BA JUMP JUMPDEST JUMPDEST SWAP1 PUSH0 MSTORE PUSH1 0x20 PUSH0 KECCAK256 ADD DUP1 SLOAD SWAP1 POP DUP2 LT ISZERO PUSH2 0x334 JUMPI DUP6 PUSH0 DUP4 DUP2 SLOAD DUP2 LT PUSH2 0x2EE JUMPI PUSH2 0x2ED PUSH2 0x5BA JUMP JUMPDEST JUMPDEST SWAP1 PUSH0 MSTORE PUSH1 0x20 PUSH0 KECCAK256 ADD DUP3 DUP2 SLOAD DUP2 LT PUSH2 0x308 JUMPI PUSH2 0x307 PUSH2 0x5BA JUMP JUMPDEST JUMPDEST SWAP1 PUSH0 MSTORE PUSH1 0x20 PUSH0 KECCAK256 ADD SLOAD SUB PUSH2 0x327 JUMPI PUSH1 0x1 DUP3 DUP3 SWAP5 POP SWAP5 POP SWAP5 POP POP POP PUSH2 0x34D JUMP JUMPDEST DUP1 DUP1 PUSH1 0x1 ADD SWAP2 POP POP PUSH2 0x2B4 JUMP JUMPDEST POP DUP1 DUP1 PUSH1 0x1 ADD SWAP2 POP POP PUSH2 0x2A3 JUMP JUMPDEST POP PUSH0 PUSH0 PUSH0 SWAP3 POP SWAP3 POP SWAP3 POP JUMPDEST SWAP2 SWAP4 SWAP1 SWAP3 POP JUMP JUMPDEST PUSH0 PUSH0 REVERT JUMPDEST PUSH0 DUP2 SWAP1 POP SWAP2 SWAP1 POP JUMP JUMPDEST PUSH2 0x36A DUP2 PUSH2 0x358 JUMP JUMPDEST DUP2 EQ PUSH2 0x374 JUMPI PUSH0 PUSH0 REVERT JUMPDEST POP JUMP JUMPDEST PUSH0 DUP2 CALLDATALOAD SWAP1 POP PUSH2 0x385 DUP2 PUSH2 0x361 JUMP JUMPDEST SWAP3 SWAP2 POP POP JUMP JUMPDEST PUSH0 PUSH1 0x20 DUP3 DUP5 SUB SLT ISZERO PUSH2 0x3A0 JUMPI PUSH2 0x39F PUSH2 0x354 JUMP JUMPDEST JUMPDEST PUSH0 PUSH2 0x3AD DUP5 DUP3 DUP6 ADD PUSH2 0x377 JUMP JUMPDEST SWAP2 POP POP SWAP3 SWAP2 POP POP JUMP JUMPDEST PUSH0 DUP2 MLOAD SWAP1 POP SWAP2 SWAP1 POP JUMP JUMPDEST PUSH0 DUP3 DUP3 MSTORE PUSH1 0x20 DUP3 ADD SWAP1 POP SWAP3 SWAP2 POP POP JUMP JUMPDEST PUSH0 DUP2 SWAP1 POP PUSH1 0x20 DUP3 ADD SWAP1 POP SWAP2 SWAP1 POP JUMP JUMPDEST PUSH2 0x3E8 DUP2 PUSH2 0x358 JUMP JUMPDEST DUP3 MSTORE POP POP JUMP JUMPDEST PUSH0 PUSH2 0x3F9 DUP4 DUP4 PUSH2 0x3DF JUMP JUMPDEST PUSH1 0x20 DUP4 ADD SWAP1 POP SWAP3 SWAP2 POP POP JUMP JUMPDEST PUSH0 PUSH1 0x20 DUP3 ADD SWAP1 POP SWAP2 SWAP1 POP JUMP JUMPDEST PUSH0 PUSH2 0x41B DUP3 PUSH2 0x3B6 JUMP JUMPDEST PUSH2 0x425 DUP2 DUP6 PUSH2 0x3C0 JUMP JUMPDEST SWAP4 POP PUSH2 0x430 DUP4 PUSH2 0x3D0 JUMP JUMPDEST DUP1 PUSH0 JUMPDEST DUP4 DUP2 LT ISZERO PUSH2 0x460 JUMPI DUP2 MLOAD PUSH2 0x447 DUP9 DUP3 PUSH2 0x3EE JUMP JUMPDEST SWAP8 POP PUSH2 0x452 DUP4 PUSH2 0x405 JUMP JUMPDEST SWAP3 POP POP PUSH1 0x1 DUP2 ADD SWAP1 POP PUSH2 0x433 JUMP JUMPDEST POP DUP6 SWAP4 POP POP POP POP SWAP3 SWAP2 POP POP JUMP JUMPDEST PUSH0 PUSH1 0x20 DUP3 ADD SWAP1 POP DUP2 DUP2 SUB PUSH0 DUP4 ADD MSTORE PUSH2 0x485 DUP2 DUP5 PUSH2 0x411 JUMP JUMPDEST SWAP1 POP SWAP3 SWAP2 POP POP JUMP JUMPDEST PUSH2 0x496 DUP2 PUSH2 0x358 JUMP JUMPDEST DUP3 MSTORE POP POP JUMP JUMPDEST PUSH0 PUSH1 0x20 DUP3 ADD SWAP1 POP PUSH2 0x4AF PUSH0 DUP4 ADD DUP5 PUSH2 0x48D JUMP JUMPDEST SWAP3 SWAP2 POP POP JUMP JUMPDEST PUSH0 PUSH0 PUSH1 0x40 DUP4 DUP6 SUB SLT ISZERO PUSH2 0x4CB JUMPI PUSH2 0x4CA PUSH2 0x354 JUMP JUMPDEST JUMPDEST PUSH0 PUSH2 0x4D8 DUP6 DUP3 DUP7 ADD PUSH2 0x377 JUMP JUMPDEST SWAP3 POP POP PUSH1 0x20 PUSH2 0x4E9 DUP6 DUP3 DUP7 ADD PUSH2 0x377 JUMP JUMPDEST SWAP2 POP POP SWAP3 POP SWAP3 SWAP1 POP JUMP JUMPDEST PUSH0 DUP2 ISZERO ISZERO SWAP1 POP SWAP2 SWAP1 POP JUMP JUMPDEST PUSH2 0x507 DUP2 PUSH2 0x4F3 JUMP JUMPDEST DUP3 MSTORE POP POP JUMP JUMPDEST PUSH0 PUSH1 0x60 DUP3 ADD SWAP1 POP PUSH2 0x520 PUSH0 DUP4 ADD DUP7 PUSH2 0x4FE JUMP JUMPDEST PUSH2 0x52D PUSH1 0x20 DUP4 ADD DUP6 PUSH2 0x48D JUMP JUMPDEST PUSH2 0x53A PUSH1 0x40 DUP4 ADD DUP5 PUSH2 0x48D JUMP JUMPDEST SWAP5 SWAP4 POP POP POP POP JUMP JUMPDEST PUSH0 DUP3 DUP3 MSTORE PUSH1 0x20 DUP3 ADD SWAP1 POP SWAP3 SWAP2 POP POP JUMP JUMPDEST PUSH32 0xE8B685E8BF87E695B0E7BB84E69C80E5A4A7E8A18CE695B00000000000000000 PUSH0 DUP3 ADD MSTORE POP JUMP JUMPDEST PUSH0 PUSH2 0x586 PUSH1 0x18 DUP4 PUSH2 0x542 JUMP JUMPDEST SWAP2 POP PUSH2 0x591 DUP3 PUSH2 0x552 JUMP JUMPDEST PUSH1 0x20 DUP3 ADD SWAP1 POP SWAP2 SWAP1 POP JUMP JUMPDEST PUSH0 PUSH1 0x20 DUP3 ADD SWAP1 POP DUP2 DUP2 SUB PUSH0 DUP4 ADD MSTORE PUSH2 0x5B3 DUP2 PUSH2 0x57A JUMP JUMPDEST SWAP1 POP SWAP2 SWAP1 POP JUMP JUMPDEST PUSH32 0x4E487B7100000000000000000000000000000000000000000000000000000000 PUSH0 MSTORE PUSH1 0x32 PUSH1 0x4 MSTORE PUSH1 0x24 PUSH0 REVERT JUMPDEST PUSH32 0x4E487B7100000000000000000000000000000000000000000000000000000000 PUSH0 MSTORE PUSH1 0x11 PUSH1 0x4 MSTORE PUSH1 0x24 PUSH0 REVERT JUMPDEST PUSH0 PUSH2 0x61E DUP3 PUSH2 0x358 JUMP JUMPDEST SWAP2 POP PUSH2 0x629 DUP4 PUSH2 0x358 JUMP JUMPDEST SWAP3 POP DUP3 DUP3 ADD SWAP1 POP DUP1 DUP3 GT ISZERO PUSH2 0x641 JUMPI PUSH2 0x640 PUSH2 0x5E7 JUMP JUMPDEST JUMPDEST SWAP3 SWAP2 POP POP JUMP INVALID LOG2 PUSH5 0x6970667358 0x22 SLT KECCAK256 0x2E SWAP9 0xB4 0xDE 0xE2 EXTCALL 0xBC 0xD6 0xBA DIV SWAP8 DUP8 0xB4 0xB3 LT SLT RJUMPI 0x9B43 0xF6 SHL ORIGIN 0xD4 REVERT CREATE LT ADDRESS PUSH32 0x63121D1764736F6C634300082200330000000000000000000000000000000000 "
		},
		"gasEstimates": {
			"creation": {
				"codeDepositCost": "332200",
				"executionCost": "infinite",
				"totalCost": "infinite"
			},
			"external": {
				"findElement(uint256)": "infinite",
				"getRow(uint256)": "infinite",
				"getSum()": "infinite",
				"matrix(uint256,uint256)": "infinite"
			}
		},
		"methodIdentifiers": {
			"findElement(uint256)": "e990b43d",
			"getRow(uint256)": "303a36e2",
			"getSum()": "569c5f6d",
			"matrix(uint256,uint256)": "d9a38d64"
		}
	},
	"abi": [
		{
			"inputs": [],
			"stateMutability": "nonpayable",
			"type": "constructor"
		},
		{
			"inputs": [
				{
					"internalType": "uint256",
					"name": "value",
					"type": "uint256"
				}
			],
			"name": "findElement",
			"outputs": [
				{
					"internalType": "bool",
					"name": "",
					"type": "bool"
				},
				{
					"internalType": "uint256",
					"name": "",
					"type": "uint256"
				},
				{
					"internalType": "uint256",
					"name": "",
					"type": "uint256"
				}
			],
			"stateMutability": "view",
			"type": "function"
		},
		{
			"inputs": [
				{
					"internalType": "uint256",
					"name": "row",
					"type": "uint256"
				}
			],
			"name": "getRow",
			"outputs": [
				{
					"internalType": "uint256[]",
					"name": "",
					"type": "uint256[]"
				}
			],
			"stateMutability": "view",
			"type": "function"
		},
		{
			"inputs": [],
			"name": "getSum",
			"outputs": [
				{
					"internalType": "uint256",
					"name": "",
					"type": "uint256"
				}
			],
			"stateMutability": "view",
			"type": "function"
		},
		{
			"inputs": [
				{
					"internalType": "uint256",
					"name": "",
					"type": "uint256"
				},
				{
					"internalType": "uint256",
					"name": "",
					"type": "uint256"
				}
			],
			"name": "matrix",
			"outputs": [
				{
					"internalType": "uint256",
					"name": "",
					"type": "uint256"
				}
			],
			"stateMutability": "view",
			"type": "function"
		}
	]
}